{
  "contractName": "Fund",
  "abi": [
    {
      "anonymous": false,
      "inputs": [
        {
          "indexed": true,
          "name": "investor",
          "type": "address"
        },
        {
          "indexed": false,
          "name": "tokenAmount",
          "type": "uint256"
        },
        {
          "indexed": false,
          "name": "symbol",
          "type": "bytes32"
        },
        {
          "indexed": false,
          "name": "cost",
          "type": "uint256"
        }
      ],
      "name": "FundsReceived",
      "type": "event"
    },
    {
      "anonymous": false,
      "inputs": [
        {
          "indexed": true,
          "name": "investor",
          "type": "address"
        },
        {
          "indexed": false,
          "name": "symbol",
          "type": "bytes32"
        },
        {
          "indexed": false,
          "name": "amount",
          "type": "uint256"
        }
      ],
      "name": "AssetRefunded",
      "type": "event"
    },
    {
      "anonymous": false,
      "inputs": [
        {
          "indexed": true,
          "name": "receiver",
          "type": "address"
        },
        {
          "indexed": false,
          "name": "symbol",
          "type": "bytes32"
        },
        {
          "indexed": false,
          "name": "amount",
          "type": "uint256"
        }
      ],
      "name": "TrancheTransferred",
      "type": "event"
    },
    {
      "constant": false,
      "inputs": [
        {
          "name": "state",
          "type": "Fund.State storage"
        },
        {
          "name": "_invoice",
          "type": "uint256[3]"
        },
        {
          "name": "trancheFeePercent",
          "type": "uint256"
        },
        {
          "name": "serviceWallet",
          "type": "address"
        },
        {
          "name": "rates",
          "type": "IRates"
        }
      ],
      "name": "transferTranche",
      "outputs": [],
      "payable": false,
      "stateMutability": "nonpayable",
      "type": "function"
    },
    {
      "constant": true,
      "inputs": [
        {
          "name": "state",
          "type": "Fund.State storage"
        },
        {
          "name": "trancheTransferAllowed",
          "type": "bool"
        },
        {
          "name": "crowdsale",
          "type": "IW12Crowdsale"
        }
      ],
      "name": "getTrancheInvoice",
      "outputs": [
        {
          "name": "result",
          "type": "uint256[3]"
        }
      ],
      "payable": false,
      "stateMutability": "view",
      "type": "function"
    },
    {
      "constant": false,
      "inputs": [
        {
          "name": "state",
          "type": "Fund.State storage"
        },
        {
          "name": "tokenAmount",
          "type": "uint256"
        },
        {
          "name": "rates",
          "type": "IRates"
        }
      ],
      "name": "refundAssets",
      "outputs": [],
      "payable": false,
      "stateMutability": "nonpayable",
      "type": "function"
    },
    {
      "constant": false,
      "inputs": [
        {
          "name": "state",
          "type": "Fund.State storage"
        },
        {
          "name": "investor",
          "type": "address"
        },
        {
          "name": "tokenAmount",
          "type": "uint256"
        },
        {
          "name": "symbol",
          "type": "bytes32"
        },
        {
          "name": "cost",
          "type": "uint256"
        },
        {
          "name": "costUSD",
          "type": "uint256"
        },
        {
          "name": "rates",
          "type": "IRates"
        }
      ],
      "name": "recordPurchase",
      "outputs": [],
      "payable": false,
      "stateMutability": "nonpayable",
      "type": "function"
    }
  ],
  "bytecode": "0x612153610030600b82828239805160001a6073146000811461002057610022565bfe5b5030600052607381538281f300730000000000000000000000000000000000000000301460806040526004361061005f5763ffffffff60e060020a60003504166346d1230a811461006457806369b3e2d2146100a0578063c4466008146100fd578063e065023814610151575b600080fd5b81801561007057600080fd5b5061009e600435600160a060020a0360243581169060443590606435906084359060a4359060c43516610178565b005b8180156100ac57600080fd5b5060408051606081810190925261009e91600480359236926084919060249060039083908390808284375093965050833594505050506020810135600160a060020a0390811691604001351661078d565b6101196004356024351515600160a060020a0360443516611187565b6040518082606080838360005b8381101561013e578181015183820152602001610126565b5050505090500191505060405180910390f35b81801561015d57600080fd5b5061009e600435602435600160a060020a03604435166115db565b6000851161018557600080fd5b6000831161019257600080fd5b6000821161019f57600080fd5b600160a060020a03861615156101b457600080fd5b604080517f7d20abf8000000000000000000000000000000000000000000000000000000008152600481018690529051600160a060020a03831691637d20abf89160248083019260209291908290030181600087803b15801561021657600080fd5b505af115801561022a573d6000803e3d6000fd5b505050506040513d602081101561024057600080fd5b5051151561024d57600080fd5b60eb60020a6208aa8902841415610270573483111561026b57600080fd5b6104b7565b604080517fcfec719f000000000000000000000000000000000000000000000000000000008152600481018690529051600160a060020a0383169163cfec719f9160248083019260209291908290030181600087803b1580156102d257600080fd5b505af11580156102e6573d6000803e3d6000fd5b505050506040513d60208110156102fc57600080fd5b5051151561030957600080fd5b6040805160e360020a630ebbfe270281526002890160048201526024810186905290516103a591859173__FundAccount___________________________916375dff138916044808301926020929190829003018186803b15801561036d57600080fd5b505af4158015610381573d6000803e3d6000fd5b505050506040513d602081101561039757600080fd5b50519063ffffffff6120d816565b6040805160e460020a630b12e441028152600481018790529051600160a060020a0384169163b12e44109160248083019260209291908290030181600087803b1580156103f157600080fd5b505af1158015610405573d6000803e3d6000fd5b505050506040513d602081101561041b57600080fd5b5051604080517f70a082310000000000000000000000000000000000000000000000000000000081523060048201529051600160a060020a03909216916370a08231916024808201926020929091908290030181600087803b15801561048057600080fd5b505af1158015610494573d6000803e3d6000fd5b505050506040513d60208110156104aa57600080fd5b505110156104b757600080fd5b600160a060020a03861660009081526008880160205260409020546104e2908663ffffffff6120d816565b600160a060020a038716600090815260088901602090815260408083209390935560098a019052818120825160e560020a6301c7023302815260048101919091526024810187905260448101869052915173__FundAccount___________________________926338e04660926064808301939192829003018186803b15801561056b57600080fd5b505af415801561057f573d6000803e3d6000fd5b50505050600160a060020a0386166000908152600988016020526040808220815160e560020a6301c70233028152600481019190915260ea60020a621554d102602482015260448101859052905173__FundAccount___________________________926338e046609260648082019391829003018186803b15801561060457600080fd5b505af4158015610618573d6000803e3d6000fd5b505050600688015461063191508663ffffffff6120d816565b60068801556040805160e560020a6301c702330281526002890160048201526024810186905260448101859052905173__FundAccount___________________________916338e04660916064808301926000929190829003018186803b15801561069b57600080fd5b505af41580156106af573d6000803e3d6000fd5b50506040805160e560020a6301c7023302815260028b01600482015260ea60020a621554d102602482015260448101869052905173__FundAccount___________________________93506338e0466092506064808301926000929190829003018186803b15801561072057600080fd5b505af4158015610734573d6000803e3d6000fd5b505060408051888152602081018890528082018790529051600160a060020a038a1693507fe2d0f4d539cb385db666a31aa9b27fd786afc933dc82ca8518d045424d6fa88292509081900360600190a250505050505050565b60008060008060008960020173__FundAccount___________________________6320e1e1d190916040518263ffffffff1660e060020a0281526004018082815260200191505060006040518083038186803b1580156107ec57600080fd5b505af4158015610800573d6000803e3d6000fd5b505050506040513d6000823e601f3d908101601f19168201604052602081101561082957600080fd5b81019080805164010000000081111561084157600080fd5b8201602081018481111561085457600080fd5b815185602082028301116401000000008211171561087157600080fd5b50505197505050505b841561117b57604080517f20e1e1d100000000000000000000000000000000000000000000000000000000815260028c016004820152905173__FundAccount___________________________916320e1e1d1916024808301926000929190829003018186803b1580156108ed57600080fd5b505af4158015610901573d6000803e3d6000fd5b505050506040513d6000823e601f3d908101601f19168201604052602081101561092a57600080fd5b81019080805164010000000081111561094257600080fd5b8201602081018481111561095557600080fd5b815185602082028301116401000000008211171561097257600080fd5b50508051600019909901989093508892508210905061098d57fe5b60209081029091018101516040805160e360020a630ebbfe2702815260028e01600482015260248101839052905191965073__FundAccount___________________________926375dff13892604480840193829003018186803b1580156109f457600080fd5b505af4158015610a08573d6000803e3d6000fd5b505050506040513d6020811015610a1e57600080fd5b50519250821515610a2e5761087a565b8851604080517f50716c0e0000000000000000000000000000000000000000000000000000000081526004810186905260248101929092525173__Percent_______________________________916350716c0e916044808301926020929190829003018186803b158015610aa257600080fd5b505af4158015610ab6573d6000803e3d6000fd5b505050506040513d6020811015610acc57600080fd5b5051915060008211610add57600080fd5b73__Utils_________________________________63bda4e619610b128c600701548d600601546120f190919063ffffffff16565b848d600601546040518463ffffffff1660e060020a02815260040180848152602001838152602001828152602001935050505060206040518083038186803b158015610b5d57600080fd5b505af4158015610b71573d6000803e3d6000fd5b505050506040513d6020811015610b8757600080fd5b5051925060008311610b9857600080fd5b600084815260058b016020526040902054610bb9908463ffffffff6120d816565b600085815260058c01602052604090205560ea60020a621554d102841415610be05761087a565b60eb60020a6208aa89028414610d9e57604080517fcfec719f000000000000000000000000000000000000000000000000000000008152600481018690529051600160a060020a0388169163cfec719f9160248083019260209291908290030181600087803b158015610c5257600080fd5b505af1158015610c66573d6000803e3d6000fd5b505050506040513d6020811015610c7c57600080fd5b50511515610c8957600080fd5b6040805160e460020a630b12e4410281526004810186905290518491600160a060020a0389169163b12e4410916024808201926020929091908290030181600087803b158015610cd857600080fd5b505af1158015610cec573d6000803e3d6000fd5b505050506040513d6020811015610d0257600080fd5b5051604080517f70a082310000000000000000000000000000000000000000000000000000000081523060048201529051600160a060020a03909216916370a08231916024808201926020929091908290030181600087803b158015610d6757600080fd5b505af1158015610d7b573d6000803e3d6000fd5b505050506040513d6020811015610d9157600080fd5b50511015610d9e57600080fd5b60008811610dad576000610e4c565b604080517f50716c0e00000000000000000000000000000000000000000000000000000000815260048101859052602481018a9052905173__Percent_______________________________916350716c0e916044808301926020929190829003018186803b158015610e1f57600080fd5b505af4158015610e33573d6000803e3d6000fd5b505050506040513d6020811015610e4957600080fd5b50515b90506000881115610e645760008111610e6457600080fd5b60eb60020a6208aa8902841415610ef8576000811115610eb657604051600160a060020a0388169082156108fc029083906000818181858888f19350505050158015610eb4573d6000803e3d6000fd5b505b336108fc610eca858463ffffffff6120f116565b6040518115909202916000818181858888f19350505050158015610ef2573d6000803e3d6000fd5b5061113c565b600081111561101c576040805160e460020a630b12e441028152600481018690529051600160a060020a0388169163b12e44109160248083019260209291908290030181600087803b158015610f4d57600080fd5b505af1158015610f61573d6000803e3d6000fd5b505050506040513d6020811015610f7757600080fd5b5051604080517fa9059cbb000000000000000000000000000000000000000000000000000000008152600160a060020a038a81166004830152602482018590529151919092169163a9059cbb9160448083019260209291908290030181600087803b158015610fe557600080fd5b505af1158015610ff9573d6000803e3d6000fd5b505050506040513d602081101561100f57600080fd5b5051151561101c57600080fd5b6040805160e460020a630b12e441028152600481018690529051600160a060020a0388169163b12e44109160248083019260209291908290030181600087803b15801561106857600080fd5b505af115801561107c573d6000803e3d6000fd5b505050506040513d602081101561109257600080fd5b5051600160a060020a031663a9059cbb336110b3868563ffffffff6120f116565b6040518363ffffffff1660e060020a0281526004018083600160a060020a0316600160a060020a0316815260200182815260200192505050602060405180830381600087803b15801561110557600080fd5b505af1158015611119573d6000803e3d6000fd5b505050506040513d602081101561112f57600080fd5b5051151561113c57600080fd5b6040805185815260208101859052815133927f17e68c82fdc39ec76fff0be24ead989575d8eec009a729fa4bd738bc1f6a2dbb928290030190a261087a565b50505050505050505050565b61118f612108565b60008060008060008060008915156111a6576115cd565b88600160a060020a031663d6d65f3d6040518163ffffffff1660e060020a0281526004016040805180830381600087803b1580156111e357600080fd5b505af11580156111f7573d6000803e3d6000fd5b505050506040513d604081101561120d57600080fd5b5051604080517f14f66d340000000000000000000000000000000000000000000000000000000081528151929950600160a060020a038c16926314f66d34926004808401939192918290030181600087803b15801561126b57600080fd5b505af115801561127f573d6000803e3d6000fd5b505050506040513d604081101561129557600080fd5b505195508615806112a557508686145b6112b257600187036112b4565b865b965088600160a060020a0316632442e1cb886040518263ffffffff1660e060020a02815260040180828152602001915050600060405180830381600087803b1580156112ff57600080fd5b505af1158015611313573d6000803e3d6000fd5b505050506040513d6000823e601f3d908101601f1916820160405260c081101561133c57600080fd5b81516020830151604084015160608501516080860180519496939592949193928301929164010000000081111561137257600080fd5b8201602081018481111561138557600080fd5b815164010000000081118282018710171561139f57600080fd5b505092919060200180516401000000008111156113bb57600080fd5b820160208101848111156113ce57600080fd5b81516401000000008111828201871017156113e857600080fd5b5050929190505050505050509550508a600001600088815260200190815260200160002060009054906101000a900460ff1693508315611427576115cd565b8692505b60008311156115975782806001900393505088600160a060020a0316632442e1cb846040518263ffffffff1660e060020a02815260040180828152602001915050600060405180830381600087803b15801561148657600080fd5b505af115801561149a573d6000803e3d6000fd5b505050506040513d6000823e601f3d908101601f1916820160405260c08110156114c357600080fd5b8151602083015160408401516060850151608086018051949693959294919392830192916401000000008111156114f957600080fd5b8201602081018481111561150c57600080fd5b815164010000000081118282018710171561152657600080fd5b5050929190602001805164010000000081111561154257600080fd5b8201602081018481111561155557600080fd5b815164010000000081118282018710171561156f57600080fd5b5097995061159098508a97508996505063ffffffff6120d816945050505050565b915061142b565b60018b01546115bc906115b0878563ffffffff6120d816565b9063ffffffff6120f116565b885260208801829052604088018790525b505050505050509392505050565b33600090815260098401602052604080822081517f20e1e1d100000000000000000000000000000000000000000000000000000000815260048101919091529051829182918291829173__FundAccount___________________________916320e1e1d19160248083019286929190829003018186803b15801561165e57600080fd5b505af4158015611672573d6000803e3d6000fd5b505050506040513d6000823e601f3d908101601f19168201604052602081101561169b57600080fd5b8101908080516401000000008111156116b357600080fd5b820160208101848111156116c657600080fd5b81518560208202830111640100000000821117156116e357600080fd5b50505197505050505b84156120ce5733600090815260098901602052604080822081517f20e1e1d10000000000000000000000000000000000000000000000000000000081526004810191909152905173__FundAccount___________________________926320e1e1d19260248082019391829003018186803b15801561176a57600080fd5b505af415801561177e573d6000803e3d6000fd5b505050506040513d6000823e601f3d908101601f1916820160405260208110156117a757600080fd5b8101908080516401000000008111156117bf57600080fd5b820160208101848111156117d257600080fd5b81518560208202830111640100000000821117156117ef57600080fd5b50508051600019909901989093508892508210905061180a57fe5b602090810290910181015133600090815260098b018352604090819020815160e360020a630ebbfe27028152600481019190915260248101839052905191965073__FundAccount___________________________926375dff13892604480840193829003018186803b15801561188057600080fd5b505af4158015611894573d6000803e3d6000fd5b505050506040513d60208110156118aa57600080fd5b505192508215156118ba576116ec565b3360009081526008890160209081526040918290205482517fbda4e619000000000000000000000000000000000000000000000000000000008152600481018b9052602481018790526044810191909152915173__Utils_________________________________9263bda4e619926064808301939192829003018186803b15801561194557600080fd5b505af4158015611959573d6000803e3d6000fd5b505050506040513d602081101561196f57600080fd5b505191506000821161198057600080fd5b6040805160e360020a630ebbfe2702815260028a01600482015260248101869052905173__FundAccount___________________________916375dff138916044808301926020929190829003018186803b1580156119de57600080fd5b505af41580156119f2573d6000803e3d6000fd5b505050506040513d6020811015611a0857600080fd5b50516001890154604080517f50716c0e000000000000000000000000000000000000000000000000000000008152600481019390935260248301919091525173__Percent_______________________________916350716c0e916044808301926020929190829003018186803b158015611a8257600080fd5b505af4158015611a96573d6000803e3d6000fd5b505050506040513d6020811015611aac57600080fd5b50516040805160e360020a630ebbfe2702815260028b01600482015260248101879052905191925073__Utils_________________________________9163bda4e61991611b6a91859173__FundAccount___________________________916375dff13891604480820192602092909190829003018186803b158015611b3257600080fd5b505af4158015611b46573d6000803e3d6000fd5b505050506040513d6020811015611b5c57600080fd5b50519063ffffffff6120f116565b6040805160e360020a630ebbfe2702815260028d016004820152602481018990529051869173__FundAccount___________________________916375dff13891604480820192602092909190829003018186803b158015611bcb57600080fd5b505af4158015611bdf573d6000803e3d6000fd5b505050506040513d6020811015611bf557600080fd5b50516040805160e060020a63ffffffff8716028152600481019490945260248401929092526044830152516064808301926020929190829003018186803b158015611c3f57600080fd5b505af4158015611c53573d6000803e3d6000fd5b505050506040513d6020811015611c6957600080fd5b5051925060008311611c7a57600080fd5b6000848152600589016020526040902054611c9b908463ffffffff6120d816565b600085815260058a01602090815260408083209390935533825260098b01905281812082517f6e286eaf00000000000000000000000000000000000000000000000000000000815260048101919091526024810187905260448101859052915173__FundAccount___________________________92636e286eaf926064808301939192829003018186803b158015611d3357600080fd5b505af4158015611d47573d6000803e3d6000fd5b5050505060ea60020a621554d102841415611d61576116ec565b60eb60020a6208aa89028414611f2457604080517fcfec719f000000000000000000000000000000000000000000000000000000008152600481018690529051600160a060020a0388169163cfec719f9160248083019260209291908290030181600087803b158015611dd357600080fd5b505af1158015611de7573d6000803e3d6000fd5b505050506040513d6020811015611dfd57600080fd5b50511515611e0a57600080fd5b6040805160e460020a630b12e4410281526004810186905290518491600160a060020a0389169163b12e4410916024808201926020929091908290030181600087803b158015611e5957600080fd5b505af1158015611e6d573d6000803e3d6000fd5b505050506040513d6020811015611e8357600080fd5b5051604080517f70a082310000000000000000000000000000000000000000000000000000000081523060048201529051600160a060020a03909216916370a08231916024808201926020929091908290030181600087803b158015611ee857600080fd5b505af1158015611efc573d6000803e3d6000fd5b505050506040513d6020811015611f1257600080fd5b50511015611f1f57600080fd5b611f32565b3031831115611f3257600080fd5b60eb60020a6208aa8902841415611f7657604051339084156108fc029085906000818181858888f19350505050158015611f70573d6000803e3d6000fd5b5061208f565b6040805160e460020a630b12e441028152600481018690529051600160a060020a0388169163b12e44109160248083019260209291908290030181600087803b158015611fc257600080fd5b505af1158015611fd6573d6000803e3d6000fd5b505050506040513d6020811015611fec57600080fd5b5051604080517fa9059cbb000000000000000000000000000000000000000000000000000000008152336004820152602481018690529051600160a060020a039092169163a9059cbb916044808201926020929091908290030181600087803b15801561205857600080fd5b505af115801561206c573d6000803e3d6000fd5b505050506040513d602081101561208257600080fd5b5051151561208f57600080fd5b6040805185815260208101859052815133927fd434f0d1dd08e14b2acdd7a506c6e8b6edaf1a5825d23ca9b5e51a9ad883f71c928290030190a26116ec565b5050505050505050565b6000828201838110156120ea57600080fd5b9392505050565b6000808383111561210157600080fd5b5050900390565b60606040519081016040528060039060208202803883395091929150505600a165627a7a72305820cd5b1d7bfc37ed31195d50ccbd2bc0549daa47fa9f484a2f129235be15f9428e0029",
  "source": "pragma solidity 0.4.24;\n\nimport \"openzeppelin-solidity/contracts/token/ERC20/IERC20.sol\";\nimport \"openzeppelin-solidity/contracts/math/SafeMath.sol\";\nimport \"../crowdsale/IW12Crowdsale.sol\";\nimport \"../rates/IRates.sol\";\nimport \"./Utils.sol\";\nimport \"./Percent.sol\";\nimport \"./FundAccount.sol\";\n\n\nlibrary Fund {\n    using SafeMath for uint;\n    using Percent for uint;\n    using FundAccount for FundAccount.Account;\n\n    bytes32 constant private METHOD_ETH = bytes32(\"ETH\");\n    bytes32 constant private METHOD_USD = bytes32(\"USD\");\n\n    struct State {\n        mapping(uint => bool) completedTranches;\n        uint totalTranchePercentReleased;\n        FundAccount.Account totalFunded;\n        mapping(bytes32 => uint) totalFundedReleased;\n        uint totalTokenBought;\n        uint totalTokenRefunded;\n        mapping(address => uint) tokenBoughtPerInvestor;\n        mapping(address => FundAccount.Account) fundedPerInvestor;\n    }\n\n    event FundsReceived(address indexed investor, uint tokenAmount, bytes32 symbol, uint cost);\n    event AssetRefunded(address indexed investor, bytes32 symbol, uint amount);\n    event TrancheTransferred(address indexed receiver, bytes32 symbol, uint amount);\n\n    // solhint-disable code-complexity\n    function transferTranche(\n        State storage state,\n        uint[3] _invoice,\n        uint trancheFeePercent,\n        address serviceWallet,\n        IRates rates\n    ) public {\n        uint ln = state.totalFunded.symbolsList().length;\n\n        while (ln != 0) {\n            bytes32 symbol = state.totalFunded.symbolsList()[--ln];\n            uint amount = state.totalFunded.amountOf(symbol);\n\n            if (amount == 0) continue;\n\n            uint sourceAmount = amount.safePercent(_invoice[0]);\n\n            require(sourceAmount > 0);\n\n            amount = Utils.safeMulDiv(\n                state.totalTokenBought.sub(state.totalTokenRefunded),\n                sourceAmount,\n                state.totalTokenBought\n            );\n\n            require(amount > 0);\n\n            state.totalFundedReleased[symbol] = state.totalFundedReleased[symbol].add(amount);\n\n            if (symbol == METHOD_USD) continue;\n\n            if (symbol != METHOD_ETH) {\n                require(rates.isToken(symbol));\n                require(IERC20(rates.getTokenAddress(symbol)).balanceOf(address(this)) >= amount);\n            }\n\n            uint fee = trancheFeePercent > 0\n                ? amount.safePercent(trancheFeePercent)\n                : 0;\n\n            if (trancheFeePercent > 0) require(fee > 0);\n\n            if (symbol == METHOD_ETH) {\n                if (fee > 0) serviceWallet.transfer(fee);\n                msg.sender.transfer(amount.sub(fee));\n            } else {\n                if (fee > 0) require(IERC20(rates.getTokenAddress(symbol)).transfer(serviceWallet, fee));\n                require(IERC20(rates.getTokenAddress(symbol)).transfer(msg.sender, amount.sub(fee)));\n            }\n\n            emit TrancheTransferred(msg.sender, symbol, amount);\n        }\n    }\n    // solhint-enable code-complexity\n\n    function getTrancheInvoice(\n        State storage state,\n        bool trancheTransferAllowed,\n        IW12Crowdsale crowdsale\n    ) public view returns (uint[3] result) {\n        if (!trancheTransferAllowed) return;\n\n        (uint index, /*bool found*/) = crowdsale.getCurrentMilestoneIndex();\n        (uint lastIndex, /*bool found*/) = crowdsale.getLastMilestoneIndex();\n\n        // get percent from prev milestone\n        index = index == 0 || lastIndex == index ? index : index - 1;\n\n        (, uint tranchePercent, , , , ) = crowdsale.getMilestone(index);\n\n        bool completed = state.completedTranches[index];\n\n        if (completed) return;\n\n        uint prevIndex = index;\n        uint totalTranchePercentBefore;\n\n        while (prevIndex > 0) {\n            prevIndex--;\n\n            (, uint _tranchePercent, , , , ) = crowdsale.getMilestone(prevIndex);\n\n            totalTranchePercentBefore = totalTranchePercentBefore.add(_tranchePercent);\n        }\n\n        result[0] = tranchePercent\n            .add(totalTranchePercentBefore)\n            .sub(state.totalTranchePercentReleased);\n        result[1] = totalTranchePercentBefore;\n        result[2] = index;\n    }\n\n    function refundAssets(\n        State storage state,\n        uint tokenAmount,\n        IRates rates\n    ) public {\n        uint ln = state.fundedPerInvestor[msg.sender].symbolsList().length;\n\n        while (ln != 0) {\n            bytes32 symbol = state.fundedPerInvestor[msg.sender].symbolsList()[--ln];\n            uint amount = state.fundedPerInvestor[msg.sender].amountOf(symbol);\n\n            if (amount == 0) continue;\n\n            // get source amount\n            uint sourceAmount = Utils.safeMulDiv(\n                tokenAmount,\n                amount,\n                state.tokenBoughtPerInvestor[msg.sender]\n            );\n\n            require(sourceAmount > 0);\n\n            // get released tranche amount in current currency\n            uint releasedTranche = state.totalFunded\n                .amountOf(symbol)\n                .safePercent(state.totalTranchePercentReleased);\n\n            // get amount minus released tranche\n            amount = Utils.safeMulDiv(\n                state.totalFunded.amountOf(symbol).sub(releasedTranche),\n                sourceAmount,\n                state.totalFunded.amountOf(symbol)\n            );\n\n            require(amount > 0);\n\n            state.totalFundedReleased[symbol] = state.totalFundedReleased[symbol].add(amount);\n            state.fundedPerInvestor[msg.sender].withdrawal(symbol, sourceAmount);\n\n            if (symbol == METHOD_USD) continue;\n\n            if (symbol != METHOD_ETH) {\n                require(rates.isToken(symbol));\n                require(IERC20(rates.getTokenAddress(symbol)).balanceOf(address(this)) >= amount);\n            } else {\n                require(address(this).balance >= amount);\n            }\n\n            if (symbol == METHOD_ETH) {\n                msg.sender.transfer(amount);\n            } else {\n                require(IERC20(rates.getTokenAddress(symbol)).transfer(msg.sender, amount));\n            }\n\n            emit AssetRefunded(msg.sender, symbol, amount);\n        }\n    }\n\n    function recordPurchase(\n        State storage state,\n        address investor,\n        uint tokenAmount,\n        bytes32 symbol,\n        uint cost,\n        uint costUSD,\n        IRates rates\n    )\n        public\n    {\n        require(tokenAmount > 0);\n        require(cost > 0);\n        require(costUSD > 0);\n        require(investor != address(0));\n        require(rates.hasSymbol(symbol));\n\n        // check payment\n        if (symbol == METHOD_ETH) {\n            require(msg.value >= cost);\n        } else {\n            require(rates.isToken(symbol));\n            require(\n                IERC20(rates.getTokenAddress(symbol))\n                    .balanceOf(address(this))\n                        >= state.totalFunded.amountOf(symbol).add(cost));\n        }\n\n        // write to investor account\n        state.tokenBoughtPerInvestor[investor] = state.tokenBoughtPerInvestor[investor].add(tokenAmount);\n        state.fundedPerInvestor[investor].deposit(symbol, cost);\n        state.fundedPerInvestor[investor].deposit(METHOD_USD, costUSD);\n\n        // write to total fund\n        state.totalTokenBought = state.totalTokenBought.add(tokenAmount);\n        state.totalFunded.deposit(symbol, cost);\n        state.totalFunded.deposit(METHOD_USD, costUSD);\n\n        emit FundsReceived(investor, tokenAmount, symbol, cost);\n    }\n}\n",
  "sourcePath": "/Users/gauss/_games/w12/W12-Product-Blockchain-Protocol/contracts/libs/Fund.sol",
  "compiler": {
    "name": "solc",
    "version": "0.4.24+commit.e67f0147.Emscripten.clang"
  },
  "schemaVersion": "2.0.1",
  "updatedAt": "2019-07-16T13:07:11.702Z"
}