{
  "contractName": "W12CrowdsaleStub",
  "abi": [
    {
      "constant": false,
      "inputs": [
        {
          "name": "method",
          "type": "bytes32"
        },
        {
          "name": "amount",
          "type": "uint256"
        }
      ],
      "name": "buyTokens",
      "outputs": [],
      "payable": true,
      "stateMutability": "payable",
      "type": "function"
    },
    {
      "constant": true,
      "inputs": [
        {
          "name": "_method",
          "type": "bytes32"
        }
      ],
      "name": "isPaymentMethodAllowed",
      "outputs": [
        {
          "name": "",
          "type": "bool"
        }
      ],
      "payable": false,
      "stateMutability": "view",
      "type": "function"
    },
    {
      "constant": true,
      "inputs": [],
      "name": "originToken",
      "outputs": [
        {
          "name": "",
          "type": "address"
        }
      ],
      "payable": false,
      "stateMutability": "view",
      "type": "function"
    },
    {
      "constant": true,
      "inputs": [],
      "name": "getLastMilestoneIndex",
      "outputs": [
        {
          "name": "index",
          "type": "uint256"
        },
        {
          "name": "found",
          "type": "bool"
        }
      ],
      "payable": false,
      "stateMutability": "view",
      "type": "function"
    },
    {
      "constant": false,
      "inputs": [
        {
          "name": "_account",
          "type": "address"
        }
      ],
      "name": "removeAdmin",
      "outputs": [],
      "payable": false,
      "stateMutability": "nonpayable",
      "type": "function"
    },
    {
      "constant": true,
      "inputs": [
        {
          "name": "value",
          "type": "uint256"
        }
      ],
      "name": "getSaleVolumeBonus",
      "outputs": [
        {
          "name": "bonus",
          "type": "uint256"
        }
      ],
      "payable": false,
      "stateMutability": "view",
      "type": "function"
    },
    {
      "constant": false,
      "inputs": [
        {
          "name": "recipient",
          "type": "address"
        }
      ],
      "name": "transferPrimary",
      "outputs": [],
      "payable": false,
      "stateMutability": "nonpayable",
      "type": "function"
    },
    {
      "constant": true,
      "inputs": [
        {
          "name": "index",
          "type": "uint256"
        }
      ],
      "name": "getMilestone",
      "outputs": [
        {
          "name": "",
          "type": "uint32"
        },
        {
          "name": "",
          "type": "uint256"
        },
        {
          "name": "",
          "type": "uint32"
        },
        {
          "name": "",
          "type": "uint32"
        },
        {
          "name": "",
          "type": "bytes"
        },
        {
          "name": "",
          "type": "bytes"
        }
      ],
      "payable": false,
      "stateMutability": "view",
      "type": "function"
    },
    {
      "constant": true,
      "inputs": [
        {
          "name": "account",
          "type": "address"
        }
      ],
      "name": "isAdmin",
      "outputs": [
        {
          "name": "",
          "type": "bool"
        }
      ],
      "payable": false,
      "stateMutability": "view",
      "type": "function"
    },
    {
      "constant": true,
      "inputs": [
        {
          "name": "method",
          "type": "bytes32"
        }
      ],
      "name": "getPurchaseFeeParameterForPaymentMethod",
      "outputs": [
        {
          "name": "",
          "type": "bool"
        },
        {
          "name": "",
          "type": "uint256"
        }
      ],
      "payable": false,
      "stateMutability": "view",
      "type": "function"
    },
    {
      "constant": true,
      "inputs": [
        {
          "name": "index",
          "type": "uint256"
        }
      ],
      "name": "getStage",
      "outputs": [
        {
          "name": "",
          "type": "uint32"
        },
        {
          "name": "",
          "type": "uint32"
        },
        {
          "name": "",
          "type": "uint256"
        },
        {
          "name": "",
          "type": "uint32"
        },
        {
          "name": "",
          "type": "uint256[]"
        },
        {
          "name": "",
          "type": "uint256[]"
        }
      ],
      "payable": false,
      "stateMutability": "view",
      "type": "function"
    },
    {
      "constant": true,
      "inputs": [],
      "name": "WTokenSaleFeePercent",
      "outputs": [
        {
          "name": "",
          "type": "uint256"
        }
      ],
      "payable": false,
      "stateMutability": "view",
      "type": "function"
    },
    {
      "constant": false,
      "inputs": [],
      "name": "claimRemainingTokens",
      "outputs": [],
      "payable": false,
      "stateMutability": "nonpayable",
      "type": "function"
    },
    {
      "constant": true,
      "inputs": [],
      "name": "milestonesLength",
      "outputs": [
        {
          "name": "",
          "type": "uint256"
        }
      ],
      "payable": false,
      "stateMutability": "view",
      "type": "function"
    },
    {
      "constant": false,
      "inputs": [
        {
          "name": "_account",
          "type": "address"
        }
      ],
      "name": "addProjectOwner",
      "outputs": [],
      "payable": false,
      "stateMutability": "nonpayable",
      "type": "function"
    },
    {
      "constant": true,
      "inputs": [
        {
          "name": "method",
          "type": "bytes32"
        }
      ],
      "name": "getPurchaseFeeForPaymentMethod",
      "outputs": [
        {
          "name": "",
          "type": "uint256"
        }
      ],
      "payable": false,
      "stateMutability": "view",
      "type": "function"
    },
    {
      "constant": true,
      "inputs": [],
      "name": "getWToken",
      "outputs": [
        {
          "name": "",
          "type": "address"
        }
      ],
      "payable": false,
      "stateMutability": "view",
      "type": "function"
    },
    {
      "constant": true,
      "inputs": [],
      "name": "rates",
      "outputs": [
        {
          "name": "",
          "type": "address"
        }
      ],
      "payable": false,
      "stateMutability": "view",
      "type": "function"
    },
    {
      "constant": true,
      "inputs": [],
      "name": "version",
      "outputs": [
        {
          "name": "",
          "type": "uint256"
        }
      ],
      "payable": false,
      "stateMutability": "view",
      "type": "function"
    },
    {
      "constant": true,
      "inputs": [],
      "name": "getPaymentMethodsList",
      "outputs": [
        {
          "name": "",
          "type": "bytes32[]"
        }
      ],
      "payable": false,
      "stateMutability": "view",
      "type": "function"
    },
    {
      "constant": true,
      "inputs": [],
      "name": "serviceWallet",
      "outputs": [
        {
          "name": "",
          "type": "address"
        }
      ],
      "payable": false,
      "stateMutability": "view",
      "type": "function"
    },
    {
      "constant": true,
      "inputs": [],
      "name": "isSaleActive",
      "outputs": [
        {
          "name": "",
          "type": "bool"
        }
      ],
      "payable": false,
      "stateMutability": "view",
      "type": "function"
    },
    {
      "constant": false,
      "inputs": [
        {
          "name": "method",
          "type": "bytes32"
        },
        {
          "name": "has",
          "type": "bool"
        },
        {
          "name": "value",
          "type": "uint256"
        }
      ],
      "name": "updatePurchaseFeeParameterForPaymentMethod",
      "outputs": [],
      "payable": false,
      "stateMutability": "nonpayable",
      "type": "function"
    },
    {
      "constant": false,
      "inputs": [
        {
          "name": "_account",
          "type": "address"
        }
      ],
      "name": "addAdmin",
      "outputs": [],
      "payable": false,
      "stateMutability": "nonpayable",
      "type": "function"
    },
    {
      "constant": true,
      "inputs": [],
      "name": "stagesLength",
      "outputs": [
        {
          "name": "",
          "type": "uint256"
        }
      ],
      "payable": false,
      "stateMutability": "view",
      "type": "function"
    },
    {
      "constant": true,
      "inputs": [],
      "name": "swap",
      "outputs": [
        {
          "name": "",
          "type": "address"
        }
      ],
      "payable": false,
      "stateMutability": "view",
      "type": "function"
    },
    {
      "constant": true,
      "inputs": [
        {
          "name": "",
          "type": "uint256"
        }
      ],
      "name": "stages",
      "outputs": [
        {
          "name": "startDate",
          "type": "uint32"
        },
        {
          "name": "endDate",
          "type": "uint32"
        },
        {
          "name": "discount",
          "type": "uint256"
        },
        {
          "name": "vesting",
          "type": "uint32"
        }
      ],
      "payable": false,
      "stateMutability": "view",
      "type": "function"
    },
    {
      "constant": true,
      "inputs": [],
      "name": "serviceFee",
      "outputs": [
        {
          "name": "",
          "type": "uint256"
        }
      ],
      "payable": false,
      "stateMutability": "view",
      "type": "function"
    },
    {
      "constant": true,
      "inputs": [
        {
          "name": "method",
          "type": "bytes32"
        },
        {
          "name": "amount",
          "type": "uint256"
        }
      ],
      "name": "getInvoice",
      "outputs": [
        {
          "name": "",
          "type": "uint256[5]"
        }
      ],
      "payable": false,
      "stateMutability": "view",
      "type": "function"
    },
    {
      "constant": false,
      "inputs": [],
      "name": "renounceAdmin",
      "outputs": [],
      "payable": false,
      "stateMutability": "nonpayable",
      "type": "function"
    },
    {
      "constant": true,
      "inputs": [],
      "name": "getFund",
      "outputs": [
        {
          "name": "",
          "type": "address"
        }
      ],
      "payable": false,
      "stateMutability": "view",
      "type": "function"
    },
    {
      "constant": true,
      "inputs": [],
      "name": "price",
      "outputs": [
        {
          "name": "",
          "type": "uint256"
        }
      ],
      "payable": false,
      "stateMutability": "view",
      "type": "function"
    },
    {
      "constant": true,
      "inputs": [],
      "name": "isEnded",
      "outputs": [
        {
          "name": "",
          "type": "bool"
        }
      ],
      "payable": false,
      "stateMutability": "view",
      "type": "function"
    },
    {
      "constant": true,
      "inputs": [],
      "name": "getEndDate",
      "outputs": [
        {
          "name": "",
          "type": "uint32"
        }
      ],
      "payable": false,
      "stateMutability": "view",
      "type": "function"
    },
    {
      "constant": true,
      "inputs": [],
      "name": "fund",
      "outputs": [
        {
          "name": "",
          "type": "address"
        }
      ],
      "payable": false,
      "stateMutability": "view",
      "type": "function"
    },
    {
      "constant": true,
      "inputs": [],
      "name": "primary",
      "outputs": [
        {
          "name": "",
          "type": "address"
        }
      ],
      "payable": false,
      "stateMutability": "view",
      "type": "function"
    },
    {
      "constant": true,
      "inputs": [
        {
          "name": "tokenAmount",
          "type": "uint256"
        },
        {
          "name": "cost",
          "type": "uint256"
        },
        {
          "name": "method",
          "type": "bytes32"
        }
      ],
      "name": "getFee",
      "outputs": [
        {
          "name": "",
          "type": "uint256[2]"
        }
      ],
      "payable": false,
      "stateMutability": "view",
      "type": "function"
    },
    {
      "constant": false,
      "inputs": [],
      "name": "renounceProjectOwner",
      "outputs": [],
      "payable": false,
      "stateMutability": "nonpayable",
      "type": "function"
    },
    {
      "constant": false,
      "inputs": [
        {
          "name": "_account",
          "type": "address"
        }
      ],
      "name": "removeProjectOwner",
      "outputs": [],
      "payable": false,
      "stateMutability": "nonpayable",
      "type": "function"
    },
    {
      "constant": false,
      "inputs": [
        {
          "name": "parametersOfStages",
          "type": "uint256[6][]"
        },
        {
          "name": "bonusConditionsOfStages",
          "type": "uint256[]"
        },
        {
          "name": "parametersOfMilestones",
          "type": "uint256[4][]"
        },
        {
          "name": "nameAndDescriptionsOffsetOfMilestones",
          "type": "uint32[]"
        },
        {
          "name": "nameAndDescriptionsOfMilestones",
          "type": "bytes"
        },
        {
          "name": "paymentMethodsList",
          "type": "bytes32[]"
        }
      ],
      "name": "setup",
      "outputs": [],
      "payable": false,
      "stateMutability": "nonpayable",
      "type": "function"
    },
    {
      "constant": true,
      "inputs": [],
      "name": "getCurrentMilestoneIndex",
      "outputs": [
        {
          "name": "index",
          "type": "uint256"
        },
        {
          "name": "found",
          "type": "bool"
        }
      ],
      "payable": false,
      "stateMutability": "view",
      "type": "function"
    },
    {
      "constant": true,
      "inputs": [
        {
          "name": "account",
          "type": "address"
        }
      ],
      "name": "isProjectOwner",
      "outputs": [
        {
          "name": "",
          "type": "bool"
        }
      ],
      "payable": false,
      "stateMutability": "view",
      "type": "function"
    },
    {
      "constant": true,
      "inputs": [],
      "name": "getCurrentStageIndex",
      "outputs": [
        {
          "name": "index",
          "type": "uint256"
        },
        {
          "name": "found",
          "type": "bool"
        }
      ],
      "payable": false,
      "stateMutability": "view",
      "type": "function"
    },
    {
      "constant": true,
      "inputs": [
        {
          "name": "",
          "type": "uint256"
        }
      ],
      "name": "milestones",
      "outputs": [
        {
          "name": "endDate",
          "type": "uint32"
        },
        {
          "name": "tranchePercent",
          "type": "uint256"
        },
        {
          "name": "voteEndDate",
          "type": "uint32"
        },
        {
          "name": "withdrawalWindow",
          "type": "uint32"
        },
        {
          "name": "name",
          "type": "bytes"
        },
        {
          "name": "description",
          "type": "bytes"
        }
      ],
      "payable": false,
      "stateMutability": "view",
      "type": "function"
    },
    {
      "constant": false,
      "inputs": [
        {
          "name": "_price",
          "type": "uint256"
        }
      ],
      "name": "setParameters",
      "outputs": [],
      "payable": false,
      "stateMutability": "nonpayable",
      "type": "function"
    },
    {
      "constant": true,
      "inputs": [
        {
          "name": "method",
          "type": "bytes32"
        },
        {
          "name": "tokenAmount",
          "type": "uint256"
        }
      ],
      "name": "getInvoiceByTokenAmount",
      "outputs": [
        {
          "name": "",
          "type": "uint256[4]"
        }
      ],
      "payable": false,
      "stateMutability": "view",
      "type": "function"
    },
    {
      "constant": true,
      "inputs": [],
      "name": "token",
      "outputs": [
        {
          "name": "",
          "type": "address"
        }
      ],
      "payable": false,
      "stateMutability": "view",
      "type": "function"
    },
    {
      "inputs": [
        {
          "name": "version",
          "type": "uint256"
        },
        {
          "name": "_originToken",
          "type": "address"
        },
        {
          "name": "_token",
          "type": "address"
        },
        {
          "name": "_price",
          "type": "uint256"
        },
        {
          "name": "_serviceWallet",
          "type": "address"
        },
        {
          "name": "_swap",
          "type": "address"
        },
        {
          "name": "_serviceFee",
          "type": "uint256"
        },
        {
          "name": "_WTokenSaleFeePercent",
          "type": "uint256"
        },
        {
          "name": "_fund",
          "type": "address"
        },
        {
          "name": "_rates",
          "type": "address"
        }
      ],
      "payable": false,
      "stateMutability": "nonpayable",
      "type": "constructor"
    },
    {
      "anonymous": false,
      "inputs": [
        {
          "indexed": true,
          "name": "buyer",
          "type": "address"
        },
        {
          "indexed": false,
          "name": "tokensBought",
          "type": "uint256"
        },
        {
          "indexed": false,
          "name": "cost",
          "type": "uint256"
        },
        {
          "indexed": false,
          "name": "change",
          "type": "uint256"
        }
      ],
      "name": "TokenPurchase",
      "type": "event"
    },
    {
      "anonymous": false,
      "inputs": [],
      "name": "StagesUpdated",
      "type": "event"
    },
    {
      "anonymous": false,
      "inputs": [
        {
          "indexed": false,
          "name": "index",
          "type": "uint256"
        }
      ],
      "name": "StageUpdated",
      "type": "event"
    },
    {
      "anonymous": false,
      "inputs": [],
      "name": "MilestonesUpdated",
      "type": "event"
    },
    {
      "anonymous": false,
      "inputs": [],
      "name": "CrowdsaleSetUpDone",
      "type": "event"
    },
    {
      "anonymous": false,
      "inputs": [
        {
          "indexed": true,
          "name": "owner",
          "type": "address"
        },
        {
          "indexed": false,
          "name": "amount",
          "type": "uint256"
        }
      ],
      "name": "UnsoldTokenReturned",
      "type": "event"
    },
    {
      "anonymous": false,
      "inputs": [
        {
          "indexed": false,
          "name": "recipient",
          "type": "address"
        }
      ],
      "name": "PrimaryTransferred",
      "type": "event"
    },
    {
      "anonymous": false,
      "inputs": [
        {
          "indexed": true,
          "name": "account",
          "type": "address"
        }
      ],
      "name": "ProjectOwnerAdded",
      "type": "event"
    },
    {
      "anonymous": false,
      "inputs": [
        {
          "indexed": true,
          "name": "account",
          "type": "address"
        }
      ],
      "name": "ProjectOwnerRemoved",
      "type": "event"
    },
    {
      "anonymous": false,
      "inputs": [
        {
          "indexed": true,
          "name": "account",
          "type": "address"
        }
      ],
      "name": "AdminAdded",
      "type": "event"
    },
    {
      "anonymous": false,
      "inputs": [
        {
          "indexed": true,
          "name": "account",
          "type": "address"
        }
      ],
      "name": "AdminRemoved",
      "type": "event"
    },
    {
      "constant": false,
      "inputs": [
        {
          "name": "to",
          "type": "address"
        },
        {
          "name": "amount",
          "type": "uint256"
        }
      ],
      "name": "_outTokens",
      "outputs": [
        {
          "name": "",
          "type": "bool"
        }
      ],
      "payable": false,
      "stateMutability": "nonpayable",
      "type": "function"
    },
    {
      "constant": false,
      "inputs": [
        {
          "name": "to",
          "type": "address"
        }
      ],
      "name": "_outEther",
      "outputs": [],
      "payable": false,
      "stateMutability": "nonpayable",
      "type": "function"
    },
    {
      "constant": false,
      "inputs": [
        {
          "name": "_WTokenSaleFeePercent",
          "type": "uint256"
        }
      ],
      "name": "_setState",
      "outputs": [],
      "payable": false,
      "stateMutability": "nonpayable",
      "type": "function"
    }
  ],
  "bytecode": "0x60806040523480156200001157600080fd5b506040516101408062003e3f83398101604090815281516020830151918301516060840151608085015160a086015160c087015160e0880151610100890151610120909901519698959694959394929391929091908989898989898989898989620000853364010000000062000491810204565b6200009933640100000000620004e3810204565b60025560038054600160a060020a03191633179081905560408051600160a060020a03929092168252517f4101e71e974f68df5e9730cc223280b41654676bbb052cdcc735c3337e64d2d99181900360200190a16001600455600160a060020a03891615156200010857600080fd5b600160a060020a03881615156200011e57600080fd5b8373__Percent_______________________________63520b006690916040518263ffffffff167c01000000000000000000000000000000000000000000000000000000000281526004018082815260200191505060206040518083038186803b1580156200018c57600080fd5b505af4158015620001a1573d6000803e3d6000fd5b505050506040513d6020811015620001b857600080fd5b5051801562000262575060648473__Percent_______________________________630fe9114790916040518263ffffffff167c01000000000000000000000000000000000000000000000000000000000281526004018082815260200191505060206040518083038186803b1580156200023257600080fd5b505af415801562000247573d6000803e3d6000fd5b505050506040513d60208110156200025e57600080fd5b5051105b15156200026e57600080fd5b8273__Percent_______________________________63520b006690916040518263ffffffff167c01000000000000000000000000000000000000000000000000000000000281526004018082815260200191505060206040518083038186803b158015620002dc57600080fd5b505af4158015620002f1573d6000803e3d6000fd5b505050506040513d60208110156200030857600080fd5b50518015620003b2575060648373__Percent_______________________________630fe9114790916040518263ffffffff167c01000000000000000000000000000000000000000000000000000000000281526004018082815260200191505060206040518083038186803b1580156200038257600080fd5b505af415801562000397573d6000803e3d6000fd5b505050506040513d6020811015620003ae57600080fd5b5051105b1515620003be57600080fd5b600160a060020a0382161515620003d457600080fd5b600160a060020a0385161515620003ea57600080fd5b600160a060020a03811615156200040057600080fd5b62000415878764010000000062000535810204565b60058054600160a060020a0319908116600160a060020a039a8b16179091556006805482169a8a169a909a17909955600a93909355600d8054891694881694909417909355600b55600780548716928616929092179091556008805490951693169290921790925550620006139b505050505050505050505050565b620004ac600082640100000000620037496200058082021704565b604051600160a060020a038216907f44d6d25963f097ad14f29f06854a01f575648a1ef82f30e562ccd3889717e33990600090a250565b620004fe600182640100000000620037496200058082021704565b604051600160a060020a038216907f941e31c3e651de34a7fcf0132d9d02c2df9377e6b5f932bec5daf6353c94f90e90600090a250565b600082116200054357600080fd5b600160a060020a03811615156200055957600080fd5b600991909155600c8054600160a060020a031916600160a060020a03909216919091179055565b600160a060020a03811615156200059657600080fd5b620005ab8282640100000000620005db810204565b15620005b657600080fd5b600160a060020a0316600090815260209190915260409020805460ff19166001179055565b6000600160a060020a0382161515620005f357600080fd5b50600160a060020a03166000908152602091909152604090205460ff1690565b61381c80620006236000396000f3006080604052600436106102425763ffffffff60e060020a60003504166307f5d633811461024757806311eb8c9f1461025757806313096a411461028357806314f66d34146102b45780631785f53c146102e25780631aecc19f14610303578063208853c9146103275780632348238c146103515780632442e1cb1461037257806324d7806c146104a85780632784bb7b146104c95780632e325020146104fc5780632fbe5990146105ed578063313602d4146106025780633baba4d7146106175780633bcdb1641461062c5780633dbd67211461064d5780634090cb641461066557806343f48fbd1461067a57806354fd4d501461068f578063550fd742146106a45780635641f3c314610709578063564566a81461071e5780635773caaf1461073357806359e37749146107545780637048027514610774578063792c02ea146107955780638119c065146107aa578063845ddcb2146107bf5780638abdf5aa146108085780638aea2af81461081d5780638bad0c0a146108705780638edd6eb614610885578063a035b1fe1461089a578063a4fd6f56146108af578063b1356488146108c4578063b60d4288146108f2578063c6dbdf6114610907578063ca7348a31461091c578063cd151de014610934578063d0934d6114610969578063d155790b1461097e578063d5b226231461099f578063d6d65f3d146109fb578063d8e9ce6414610a10578063daa4cf8814610a31578063e89e4ed614610a46578063e93b054014610a5e578063f6cf09dc14610a76578063fc0c546a14610aa6575b600080fd5b610255600435602435610abb565b005b34801561026357600080fd5b5061026f600435610cf6565b604080519115158252519081900360200190f35b34801561028f57600080fd5b50610298610d8a565b60408051600160a060020a039092168252519081900360200190f35b3480156102c057600080fd5b506102c9610d99565b6040805192835290151560208301528051918290030190f35b3480156102ee57600080fd5b50610255600160a060020a0360043516610dcc565b34801561030f57600080fd5b5061026f600160a060020a0360043516602435610dd8565b34801561033357600080fd5b5061033f600435610e7d565b60408051918252519081900360200190f35b34801561035d57600080fd5b50610255600160a060020a0360043516610fd4565b34801561037e57600080fd5b5061038a600435611067565b604051808763ffffffff1663ffffffff1681526020018681526020018563ffffffff1663ffffffff1681526020018463ffffffff1663ffffffff1681526020018060200180602001838103835285818151815260200191508051906020019080838360005b838110156104075781810151838201526020016103ef565b50505050905090810190601f1680156104345780820380516001836020036101000a031916815260200191505b50838103825284518152845160209182019186019080838360005b8381101561046757818101518382015260200161044f565b50505050905090810190601f1680156104945780820380516001836020036101000a031916815260200191505b509850505050505050505060405180910390f35b3480156104b457600080fd5b5061026f600160a060020a0360043516611294565b3480156104d557600080fd5b506104e16004356112ac565b60408051921515835260208301919091528051918290030190f35b34801561050857600080fd5b506105146004356112ca565b604051808763ffffffff1663ffffffff1681526020018663ffffffff1663ffffffff1681526020018581526020018463ffffffff1663ffffffff1681526020018060200180602001838103835285818151815260200191508051906020019060200280838360005b8381101561059457818101518382015260200161057c565b50505050905001838103825284818151815260200191508051906020019060200280838360005b838110156105d35781810151838201526020016105bb565b505050509050019850505050505050505060405180910390f35b3480156105f957600080fd5b5061033f611470565b34801561060e57600080fd5b50610255611476565b34801561062357600080fd5b5061033f6115fd565b34801561063857600080fd5b50610255600160a060020a0360043516611603565b34801561065957600080fd5b5061033f60043561160c565b34801561067157600080fd5b50610298611643565b34801561068657600080fd5b50610298611652565b34801561069b57600080fd5b5061033f611661565b3480156106b057600080fd5b506106b9611667565b60408051602080825283518183015283519192839290830191858101910280838360005b838110156106f55781810151838201526020016106dd565b505050509050019250505060405180910390f35b34801561071557600080fd5b5061029861174e565b34801561072a57600080fd5b5061026f61175d565b34801561073f57600080fd5b50610255600160a060020a036004351661176f565b34801561076057600080fd5b5061025560043560243515156044356117a9565b34801561078057600080fd5b50610255600160a060020a03600435166118d5565b3480156107a157600080fd5b5061033f6118de565b3480156107b657600080fd5b506102986118e4565b3480156107cb57600080fd5b506107d76004356118f3565b6040805163ffffffff9586168152938516602085015283810192909252909216606082015290519081900360800190f35b34801561081457600080fd5b5061033f611939565b34801561082957600080fd5b5061083860043560243561193f565b604051808260a080838360005b8381101561085d578181015183820152602001610845565b5050505090500191505060405180910390f35b34801561087c57600080fd5b50610255611c84565b34801561089157600080fd5b50610298611c8f565b3480156108a657600080fd5b5061033f611c9e565b3480156108bb57600080fd5b5061026f611ca4565b3480156108d057600080fd5b506108d9611cec565b6040805163ffffffff9092168252519081900360200190f35b3480156108fe57600080fd5b50610298611d33565b34801561091357600080fd5b50610298611d42565b34801561092857600080fd5b50610255600435611d51565b34801561094057600080fd5b50610952600435602435604435611d56565b604080518251815290819083908083836020610845565b34801561097557600080fd5b50610255611ea6565b34801561098a57600080fd5b50610255600160a060020a0360043516611eaf565b3480156109ab57600080fd5b50610255602460048035828101929082013591813580830192908201359160443580830192908201359160643580830192908201359160843580830192908201359160a435918201910135611eb8565b348015610a0757600080fd5b506102c9612235565b348015610a1c57600080fd5b5061026f600160a060020a03600435166122b0565b348015610a3d57600080fd5b506102c96122c3565b348015610a5257600080fd5b5061038a600435612346565b348015610a6a57600080fd5b506102556004356124b4565b348015610a8257600080fd5b50610a9160043560243561251f565b60405181518152808260808083836020610845565b348015610ab257600080fd5b50610298612857565b6000610ac5613797565b610acd6137b6565b6004805460010190819055610ae061175d565b1515610aeb57600080fd5b6040805160e160020a633bef842b028152600e600482015260248101889052905173__PaymentMethods________________________916377df0856916044808301926020929190829003018186803b158015610b4757600080fd5b505af4158015610b5b573d6000803e3d6000fd5b505050506040513d6020811015610b7157600080fd5b50511515610b7e57600080fd5b85610b87612866565b14610c1c576008546040805160e460020a630b12e441028152600481018990529051600092600160a060020a03169163b12e441091602480830192602092919082900301818787803b158015610bdc57600080fd5b505af1158015610bf0573d6000803e3d6000fd5b505050506040513d6020811015610c0657600080fd5b5051600160a060020a03161415610c1c57600080fd5b610c246122c3565b509350610c31868661193f565b80516020820151919450610c459188611d56565b9150610c51828761288a565b610c858383601187815481101515610c6557fe5b600091825260209091206002600590920201015463ffffffff1689612a7c565b610c90838388612c8e565b8251602080850151606080870151604080519586529385019290925283830191909152905133927f347f5f0051b895093800553e6e78ef332849e2552639a4f5ffe66535788ae07892908290030190a26004548114610cee57600080fd5b505050505050565b6040805160e160020a633bef842b028152600e600482015260248101839052905160009173__PaymentMethods________________________916377df085691604480820192602092909190829003018186803b158015610d5657600080fd5b505af4158015610d6a573d6000803e3d6000fd5b505050506040513d6020811015610d8057600080fd5b505190505b919050565b600654600160a060020a031681565b60125460009081901580610db25750610db0611ca4565b155b15610dbc57610dc8565b50506012546000190160015b9091565b610dd581612f4b565b50565b600554604080517fa9059cbb000000000000000000000000000000000000000000000000000000008152600160a060020a038581166004830152602482018590529151600093929092169163a9059cbb9160448082019260209290919082900301818787803b158015610e4a57600080fd5b505af1158015610e5e573d6000803e3d6000fd5b505050506040513d6020811015610e7457600080fd5b50519392505050565b600080600080610e8b6122c3565b92509250811515610e9b57610fcc565b6011805484908110610ea957fe5b9060005260206000209060050201905073__PurchaseProcessing____________________63b8005df28683600301846004016040518463ffffffff1660e060020a0281526004018084815260200180602001806020018381038352858181548152602001915080548015610f3d57602002820191906000526020600020905b815481526020019060010190808311610f29575b50508381038252848181548152602001915080548015610f7c57602002820191906000526020600020905b815481526020019060010190808311610f68575b50509550505050505060206040518083038186803b158015610f9d57600080fd5b505af4158015610fb1573d6000803e3d6000fd5b505050506040513d6020811015610fc757600080fd5b505193505b505050919050565b600354600160a060020a03163314610feb57600080fd5b600160a060020a038116151561100057600080fd5b6003805473ffffffffffffffffffffffffffffffffffffffff1916600160a060020a03838116919091179182905560408051929091168252517f4101e71e974f68df5e9730cc223280b41654676bbb052cdcc735c3337e64d2d9916020908290030190a150565b60008060008060608060128781548110151561107f57fe5b60009182526020909120600590910201546012805463ffffffff90921691899081106110a757fe5b9060005260206000209060050201600101546012898154811015156110c857fe5b60009182526020909120600260059092020101546012805463ffffffff909216918b9081106110f357fe5b906000526020600020906005020160020160049054906101000a900463ffffffff1660128b81548110151561112457fe5b906000526020600020906005020160030160128c81548110151561114457fe5b9060005260206000209060050201600401818054600181600116156101000203166002900480601f0160208091040260200160405190810160405280929190818152602001828054600181600116156101000203166002900480156111ea5780601f106111bf576101008083540402835291602001916111ea565b820191906000526020600020905b8154815290600101906020018083116111cd57829003601f168201915b5050845460408051602060026001851615610100026000190190941693909304601f8101849004840282018401909252818152959750869450925084019050828280156112785780601f1061124d57610100808354040283529160200191611278565b820191906000526020600020905b81548152906001019060200180831161125b57829003601f168201915b5050505050905095509550955095509550955091939550919395565b60006112a6818363ffffffff612f9316565b92915050565b6000908152601060205260409020805460019091015460ff90911691565b6000806000806060806011878154811015156112e257fe5b60009182526020909120600590910201546011805463ffffffff909216918990811061130a57fe5b906000526020600020906005020160000160049054906101000a900463ffffffff1660118981548110151561133b57fe5b90600052602060002090600502016001015460118a81548110151561135c57fe5b60009182526020909120600260059092020101546011805463ffffffff909216918c90811061138757fe5b906000526020600020906005020160030160118c8154811015156113a757fe5b90600052602060002090600502016004018180548060200260200160405190810160405280929190818152602001828054801561140357602002820191906000526020600020905b8154815260200190600101908083116113ef575b505050505091508080548060200260200160405190810160405280929190818152602001828054801561127857602002820191906000526020600020905b815481526020019060010190808311611441575050505050905095509550955095509550955091939550919395565b600b5481565b6000611480611ca4565b151561148b57600080fd5b600554604080517f70a082310000000000000000000000000000000000000000000000000000000081523060048201529051600160a060020a03909216916370a08231916024808201926020929091908290030181600087803b1580156114f157600080fd5b505af1158015611505573d6000803e3d6000fd5b505050506040513d602081101561151b57600080fd5b5051600554604080517fa9059cbb000000000000000000000000000000000000000000000000000000008152336004820152602481018490529051929350600160a060020a039091169163a9059cbb916044808201926020929091908290030181600087803b15801561158d57600080fd5b505af11580156115a1573d6000803e3d6000fd5b505050506040513d60208110156115b757600080fd5b505115156115c457600080fd5b60408051828152905133917f26ffb867a6b19bc0240d4e732ed6cfb0f0b6d93143a99cfb24ba5873308861f8919081900360200190a250565b60125490565b610dd581612fca565b60008181526010602052604081205460ff161561163b5750600081815260106020526040902060010154610d85565b5050600a5490565b600554600160a060020a031690565b600854600160a060020a031681565b60025481565b6060600e73__PaymentMethods________________________633b3d1a2290916040518263ffffffff1660e060020a0281526004018082815260200191505060006040518083038186803b1580156116be57600080fd5b505af41580156116d2573d6000803e3d6000fd5b505050506040513d6000823e601f3d908101601f1916820160405260208110156116fb57600080fd5b81019080805164010000000081111561171357600080fd5b8201602081018481111561172657600080fd5b815185602082028301116401000000008211171561174357600080fd5b509094505050505090565b600c54600160a060020a031681565b6000806117686122c3565b9392505050565b604051600160a060020a03821690303180156108fc02916000818181858888f193505050501580156117a5573d6000803e3d6000fd5b5050565b8073__Percent_______________________________63520b006690916040518263ffffffff1660e060020a0281526004018082815260200191505060206040518083038186803b1580156117fd57600080fd5b505af4158015611811573d6000803e3d6000fd5b505050506040513d602081101561182757600080fd5b505180156118a6575073__Percent_______________________________63d49d51816040518163ffffffff1660e060020a02815260040160206040518083038186803b15801561187757600080fd5b505af415801561188b573d6000803e3d6000fd5b505050506040513d60208110156118a157600080fd5b505181105b15156118b157600080fd5b600092835260106020526040909220805460ff191691151591909117815560010155565b610dd581613012565b60115490565b600d54600160a060020a031681565b601180548290811061190157fe5b600091825260209091206005909102018054600182015460029092015463ffffffff8083169450640100000000909204821692911684565b600a5481565b611947613797565b600080611952613797565b6040805160e160020a633bef842b028152600e600482015260248101889052905173__PaymentMethods________________________916377df0856916044808301926020929190829003018186803b1580156119ae57600080fd5b505af41580156119c2573d6000803e3d6000fd5b505050506040513d60208110156119d857600080fd5b505115156119e557600080fd5b6119ed6122c3565b925092508115156119fd57611c7b565b85611a06612866565b14611a93576008546040805160e060020a63cfec719f028152600481018990529051600160a060020a039092169163cfec719f916024808201926020929091908290030181600087803b158015611a5c57600080fd5b505af1158015611a70573d6000803e3d6000fd5b505050506040513d6020811015611a8657600080fd5b50511515611a9357611c7b565b611a9c8661305a565b905073__PurchaseProcessing____________________6391bfca318787601187815481101515611ac957fe5b906000526020600020906005020160010154601188815481101515611aea57fe5b9060005260206000209060050201600301601189815481101515611b0a57fe5b6000918252602082206004600590920201019088906020020151886001602002015189600260200201518a600360200201518b600460200201516040518b63ffffffff1660e060020a028152600401808b600019166000191681526020018a8152602001898152602001806020018060200188815260200187815260200186815260200185815260200184815260200183810383528a8181548152602001915080548015611bd757602002820191906000526020600020905b815481526020019060010190808311611bc3575b50508381038252898181548152602001915080548015611c1657602002820191906000526020600020905b815481526020019060010190808311611c02575b50509c5050505050505050505050505060a06040518083038186803b158015611c3e57600080fd5b505af4158015611c52573d6000803e3d6000fd5b505050506040513d601f19601f8201168201806040525060a0811015611c7757600080fd5b5093505b50505092915050565b611c8d33612f4b565b565b600754600160a060020a031690565b60095481565b6011546000901580611ce75750601180544291906000198101908110611cc657fe5b6000918252602090912060059091020154640100000000900463ffffffff16105b905090565b6011546000908110611cfd57600080fd5b601180546000198101908110611d0f57fe5b6000918252602090912060059091020154640100000000900463ffffffff16919050565b600754600160a060020a031681565b600354600160a060020a031690565b600b55565b611d5e6137b6565b6040805160e160020a633bef842b028152600e600482015260248101849052905173__PaymentMethods________________________916377df0856916044808301926020929190829003018186803b158015611dba57600080fd5b505af4158015611dce573d6000803e3d6000fd5b505050506040513d6020811015611de457600080fd5b50511515611df157600080fd5b73__PurchaseProcessing____________________636cd5c0568585600b54611e198761160c565b6040518563ffffffff1660e060020a02815260040180858152602001848152602001838152602001828152602001945050505050604080518083038186803b158015611e6457600080fd5b505af4158015611e78573d6000803e3d6000fd5b505050506040513d601f19601f820116820180604052506040811015611e9d57600080fd5b50949350505050565b611c8d33613351565b610dd581613351565b601154600090811015611ef7574260116000815481101515611ed657fe5b600091825260209091206005909102015463ffffffff1611611ef757600080fd5b8b1515611f0357600080fd5b60ff8c1115611f1157600080fd5b60ff881115611f1f57600080fd5b600286048814611f2e57600080fd5b60028404881115611f3e57600080fd5b811515611f4a57600080fd5b5060005b81811015611ff657600854600160a060020a0316637d20abf8848484818110611f7357fe5b6040805160e060020a63ffffffff87160281526020928302949094013560048501525160248085019492935090918290030181600087803b158015611fb757600080fd5b505af1158015611fcb573d6000803e3d6000fd5b505050506040513d6020811015611fe157600080fd5b50511515611fee57600080fd5b600101611f4e565b61208f8d8d808060200260200160405190810160405280939291908181526020016000905b82821015612057576040805160c0818101909252908084028701906006908390839080828437505050918352505060019091019060200161201b565b50505050508c8c8080602002602001604051908101604052809392919081815260200183836020028082843750613399945050505050565b6121568989808060200260200160405190810160405280939291908181526020016000905b828210156120f05760408051608081810190925290808402870190600490839083908082843750505091835250506001909101906020016120b4565b50505050508888808060200260200160405190810160405280939291908181526020018383602002808284375050604080516020601f8e018190048102820181019092528c815294508c93508b92508291508401838280828437506134df945050505050565b604080517ff24950e2000000000000000000000000000000000000000000000000000000008152600e60048201818152602483019384526044830186905273__PaymentMethods________________________9363f24950e293889288929091606401846020850280828437820191505094505050505060006040518083038186803b1580156121e557600080fd5b505af41580156121f9573d6000803e3d6000fd5b50506040517f072792b04aecd99b2250bc76fb25f9bca793c3b7383cb4c7255a7a01e8f5a12e925060009150a150505050505050505050505050565b6012546000908190158061224e575061224c611ca4565b155b1561225857610dc8565b5060015b60125460001901821080156122a05750601280548390811061227a57fe5b6000918252602090912060059091020160020154640100000000900463ffffffff164210155b15610dc85760019091019061225c565b60006112a660018363ffffffff612f9316565b60008080805b6011548210156123385760118054839081106122e157fe5b6000918252602090912060059091020180549091504263ffffffff9091161180159061231c575080544264010000000090910463ffffffff16115b1561232d5781600193509350612340565b6001909101906122c9565b600093508392505b50509091565b601280548290811061235457fe5b60009182526020918290206005919091020180546001808301546002808501546003860180546040805161010097831615979097026000190190911693909304601f810189900489028601890190935282855263ffffffff958616985092968582169664010000000090920490951694909392919083018282801561241a5780601f106123ef5761010080835404028352916020019161241a565b820191906000526020600020905b8154815290600101906020018083116123fd57829003601f168201915b5050505060048301805460408051602060026001851615610100026000190190941693909304601f81018490048402820184019092528181529495949350908301828280156124aa5780601f1061247f576101008083540402835291602001916124aa565b820191906000526020600020905b81548152906001019060200180831161248d57829003601f168201915b5050505050905086565b600354600160a060020a031633146124cb57600080fd5b601154600010156125085742601160008154811015156124e757fe5b600091825260209091206005909102015463ffffffff161161250857600080fd5b600c54610dd5908290600160a060020a0316613690565b6125276137d1565b600080612532613797565b6040805160e160020a633bef842b028152600e600482015260248101889052905173__PaymentMethods________________________916377df0856916044808301926020929190829003018186803b15801561258e57600080fd5b505af41580156125a2573d6000803e3d6000fd5b505050506040513d60208110156125b857600080fd5b505115156125c557600080fd5b6125cd6122c3565b925092508115156125dd57611c7b565b856125e6612866565b14612673576008546040805160e060020a63cfec719f028152600481018990529051600160a060020a039092169163cfec719f916024808201926020929091908290030181600087803b15801561263c57600080fd5b505af1158015612650573d6000803e3d6000fd5b505050506040513d602081101561266657600080fd5b5051151561267357611c7b565b61267c8661305a565b905073__PurchaseProcessing____________________6391dab42287876011878154811015156126a957fe5b9060005260206000209060050201600101546011888154811015156126ca57fe5b90600052602060002090600502016003016011898154811015156126ea57fe5b6000918252602082206004600590920201019088906020020151886001602002015189600260200201518a600360200201518b600460200201516040518b63ffffffff1660e060020a028152600401808b600019166000191681526020018a8152602001898152602001806020018060200188815260200187815260200186815260200185815260200184815260200183810383528a81815481526020019150805480156127b757602002820191906000526020600020905b8154815260200190600101908083116127a3575b505083810382528981815481526020019150805480156127f657602002820191906000526020600020905b8154815260200190600101908083116127e2575b50509c5050505050505050505050505060806040518083038186803b15801561281e57600080fd5b505af4158015612832573d6000803e3d6000fd5b505050506040513d601f19601f820116820180604052506080811015611c7757600080fd5b600554600160a060020a031681565b7f455448000000000000000000000000000000000000000000000000000000000090565b6008546040805160e060020a63cfec719f02815260048101849052905173__PurchaseProcessing____________________92633676737c9286928692600160a060020a03169163cfec719f9160248083019260209291908290030181600087803b1580156128f857600080fd5b505af115801561290c573d6000803e3d6000fd5b505050506040513d602081101561292257600080fd5b505161292f5760006129ad565b6008546040805160e460020a630b12e441028152600481018890529051600160a060020a039092169163b12e4410916024808201926020929091908290030181600087803b15801561298057600080fd5b505af1158015612994573d6000803e3d6000fd5b505050506040513d60208110156129aa57600080fd5b50515b600554600654600d54600c546040805163ffffffff8a1660e060020a028152600160a060020a0395861695948516949384169390921691600401908190899080838360005b83811015612a0a5781810151838201526020016129f2565b50505050919091019788525050600160a060020a039485166020870152928416604080870191909152918416606086015283166080850152911660a08301525160c08083019350600092829003018186803b158015612a6857600080fd5b505af4158015610cee573d6000803e3d6000fd5b6008546040805160e060020a63cfec719f02815260048101849052905173__PurchaseProcessing____________________92634bb1e9ff928892889288928892600160a060020a039092169163cfec719f916024808201926020929091908290030181600087803b158015612af157600080fd5b505af1158015612b05573d6000803e3d6000fd5b505050506040513d6020811015612b1b57600080fd5b5051612b28576000612ba6565b6008546040805160e460020a630b12e441028152600481018a90529051600160a060020a039092169163b12e4410916024808201926020929091908290030181600087803b158015612b7957600080fd5b505af1158015612b8d573d6000803e3d6000fd5b505050506040513d6020811015612ba357600080fd5b50515b60055460405160e060020a63ffffffff8916028152600160a060020a0390911690600401808760a080838360005b83811015612bec578181015183820152602001612bd4565b5050505090500186600260200280838360005b83811015612c17578181015183820152602001612bff565b50505063ffffffff909816920191825250602081019490945250600160a060020a039182166040808501919091529116606083015251608080830195506000945090925090829003018186803b158015612c7057600080fd5b505af4158015612c84573d6000803e3d6000fd5b5050505050505050565b612c96612866565b811415612d6a57600754600160a060020a031663d0baf2f5612cce84600160200201518660015b60200201519063ffffffff6136e616565b855160208601513391908690612ce6908a6001612cbd565b89600260200201516040805160e060020a63ffffffff8a16028152600160a060020a03909616600487015260248601949094526044850192909252606484015260848301525160a480830192600092919082900301818588803b158015612d4c57600080fd5b505af1158015612d60573d6000803e3d6000fd5b5050505050612f46565b6008546040805160e460020a630b12e441028152600481018490529051600160a060020a039092169163b12e4410916024808201926020929091908290030181600087803b158015612dbb57600080fd5b505af1158015612dcf573d6000803e3d6000fd5b505050506040513d6020811015612de557600080fd5b5051600754600160a060020a039182169163a9059cbb9116612e108560016020020151876001612cbd565b6040518363ffffffff1660e060020a0281526004018083600160a060020a0316600160a060020a0316815260200182815260200192505050602060405180830381600087803b158015612e6257600080fd5b505af1158015612e76573d6000803e3d6000fd5b505050506040513d6020811015612e8c57600080fd5b50511515612e9957600080fd5b600754600160a060020a031663d0baf2f533856000602002015184612ec78760016020020151896001612cbd565b88600260200201516040805160e060020a63ffffffff8916028152600160a060020a03909616600487015260248601949094526044850192909252606484015260848301525160a480830192600092919082900301818387803b158015612f2d57600080fd5b505af1158015612f41573d6000803e3d6000fd5b505050505b505050565b612f5c60008263ffffffff6136fd16565b604051600160a060020a038216907fa3b62bc36326052d97ea62d63c3d60308ed4c3ea8ac079dd8499f1e9c4f80c0f90600090a250565b6000600160a060020a0382161515612faa57600080fd5b50600160a060020a03166000908152602091909152604090205460ff1690565b612fdb60018263ffffffff61374916565b604051600160a060020a038216907f941e31c3e651de34a7fcf0132d9d02c2df9377e6b5f932bec5daf6353c94f90e90600090a250565b61302360008263ffffffff61374916565b604051600160a060020a038216907f44d6d25963f097ad14f29f06854a01f575648a1ef82f30e562ccd3889717e33990600090a250565b613062613797565b600854604080517f8eaa6ac0000000000000000000000000000000000000000000000000000000008152600481018590529051600160a060020a0390921691638eaa6ac0916024808201926020929091908290030181600087803b1580156130c957600080fd5b505af11580156130dd573d6000803e3d6000fd5b505050506040513d60208110156130f357600080fd5b50518152600954602080830191909152600554604080517f313ce5670000000000000000000000000000000000000000000000000000000081529051600160a060020a039092169263313ce567926004808401938290030181600087803b15801561315d57600080fd5b505af1158015613171573d6000803e3d6000fd5b505050506040513d602081101561318757600080fd5b505160ff1660408201528161319a612866565b146132ad576008546040805160e460020a630b12e441028152600481018590529051600160a060020a039092169163b12e4410916024808201926020929091908290030181600087803b1580156131f057600080fd5b505af1158015613204573d6000803e3d6000fd5b505050506040513d602081101561321a57600080fd5b5051604080517f313ce5670000000000000000000000000000000000000000000000000000000081529051600160a060020a039092169163313ce567916004808201926020929091908290030181600087803b15801561327957600080fd5b505af115801561328d573d6000803e3d6000fd5b505050506040513d60208110156132a357600080fd5b505160ff166132b0565b60125b6060820152600554604080517f70a082310000000000000000000000000000000000000000000000000000000081523060048201529051600160a060020a03909216916370a08231916024808201926020929091908290030181600087803b15801561331b57600080fd5b505af115801561332f573d6000803e3d6000fd5b505050506040513d602081101561334557600080fd5b50516080820152919050565b61336260018263ffffffff6136fd16565b604051600160a060020a038216907fa3bfdef3d8149bacf15b7b64199fca8228c0fd4f8fcdd11cc7871829baf319c390600090a250565b73__Crowdsale_____________________________63ae1c60546011601285856040518563ffffffff1660e060020a0281526004018085815260200184815260200180602001806020018381038352858181518152602001915080516000925b8184101561343b5760208085028401015160c080838360005b8381101561342a578181015183820152602001613412565b5050505090500192600101926133f9565b868103855287518152875160209182019450818901935002905080838360005b8381101561347357818101518382015260200161345b565b50505050905001965050505050505060006040518083038186803b15801561349a57600080fd5b505af41580156134ae573d6000803e3d6000fd5b50506040517f743961f4e677d1146fbf85d75565b1c5474fd083eb166f8b9595cf5d01a4d6e6925060009150a15050565b73__Crowdsale_____________________________63e1231f1e601160128686866040518663ffffffff1660e060020a028152600401808681526020018581526020018060200180602001806020018481038452878181518152602001915080516000925b8184101561358657602080850284010151608080838360005b8381101561357557818101518382015260200161355d565b505050509050019260010192613544565b878103865289518152895160209182019450818b01935002905080838360005b838110156135be5781810151838201526020016135a6565b50505050905001848103825285818151815260200191508051906020019080838360005b838110156135fa5781810151838201526020016135e2565b50505050905090810190601f1680156136275780820380516001836020036101000a031916815260200191505b509850505050505050505060006040518083038186803b15801561364a57600080fd5b505af415801561365e573d6000803e3d6000fd5b50506040517f56d9a2e016027a3725bf162ef2779c8b28d4dbec97c679cfba02dbb31a34c7ca925060009150a1505050565b6000821161369d57600080fd5b600160a060020a03811615156136b257600080fd5b600991909155600c805473ffffffffffffffffffffffffffffffffffffffff1916600160a060020a03909216919091179055565b600080838311156136f657600080fd5b5050900390565b600160a060020a038116151561371257600080fd5b61371c8282612f93565b151561372757600080fd5b600160a060020a0316600090815260209190915260409020805460ff19169055565b600160a060020a038116151561375e57600080fd5b6137688282612f93565b1561377257600080fd5b600160a060020a0316600090815260209190915260409020805460ff19166001179055565b60a0604051908101604052806005906020820280388339509192915050565b60408051808201825290600290829080388339509192915050565b60806040519081016040528060049060208202803883395091929150505600a165627a7a723058206d241e1a6219382e0f0c180ffb98c66267944d8def61cc4312163507c35dc7be0029",
  "source": "pragma solidity 0.4.24;\n\nimport \"../../rates/IRates.sol\";\nimport \"../../crowdsale/W12Crowdsale.sol\";\n\n\ncontract W12CrowdsaleStub is W12Crowdsale {\n    constructor (\n        uint version,\n        address _originToken,\n        address _token,\n        uint _price,\n        address _serviceWallet,\n        address _swap,\n        uint _serviceFee,\n        uint _WTokenSaleFeePercent,\n        IW12Fund _fund,\n        IRates _rates\n    )\n        W12Crowdsale(\n            version,\n            _originToken,\n             _token,\n             _price,\n             _serviceWallet,\n             _swap,\n             _serviceFee,\n            _WTokenSaleFeePercent,\n             _fund,\n            _rates\n        ) public\n    {}\n\n    function _outTokens(address to, uint amount) external returns (bool) {\n        return token.transfer(to, amount);\n    }\n\n    function _outEther(address to) external {\n        return to.transfer(address(this).balance);\n    }\n\n    function _setState(uint _WTokenSaleFeePercent) external {\n        WTokenSaleFeePercent = _WTokenSaleFeePercent;\n    }\n\n    modifier onlyAdmin {\n        _;\n    }\n\n    modifier onlyProjectOwner {\n        _;\n    }\n}\n",
  "sourcePath": "/Users/gauss/_games/w12/W12-Product-Blockchain-Protocol/contracts/mocks/crowdsale/W12CrowdsaleStub.sol",
  "compiler": {
    "name": "solc",
    "version": "0.4.24+commit.e67f0147.Emscripten.clang"
  },
  "schemaVersion": "2.0.1",
  "updatedAt": "2019-07-16T13:07:11.649Z"
}