{
  "contractName": "Crowdsale",
  "abi": [
    {
      "constant": false,
      "inputs": [
        {
          "name": "stages",
          "type": "Crowdsale.Stage[] storage"
        },
        {
          "name": "milestones",
          "type": "Crowdsale.Milestone[] storage"
        },
        {
          "name": "parameters",
          "type": "uint256[6][]"
        },
        {
          "name": "bonusConditions",
          "type": "uint256[]"
        }
      ],
      "name": "setStages",
      "outputs": [],
      "payable": false,
      "stateMutability": "nonpayable",
      "type": "function"
    },
    {
      "constant": false,
      "inputs": [
        {
          "name": "stages",
          "type": "Crowdsale.Stage[] storage"
        },
        {
          "name": "stageIndex",
          "type": "uint8"
        },
        {
          "name": "start",
          "type": "uint8"
        },
        {
          "name": "end",
          "type": "uint8"
        },
        {
          "name": "bonusConditions",
          "type": "uint256[]"
        }
      ],
      "name": "setStageBonusConditions",
      "outputs": [],
      "payable": false,
      "stateMutability": "nonpayable",
      "type": "function"
    },
    {
      "constant": false,
      "inputs": [
        {
          "name": "stages",
          "type": "Crowdsale.Stage[] storage"
        },
        {
          "name": "milestones",
          "type": "Crowdsale.Milestone[] storage"
        },
        {
          "name": "parameters",
          "type": "uint256[4][]"
        },
        {
          "name": "offsets",
          "type": "uint32[]"
        },
        {
          "name": "namesAndDescriptions",
          "type": "bytes"
        }
      ],
      "name": "setMilestones",
      "outputs": [],
      "payable": false,
      "stateMutability": "nonpayable",
      "type": "function"
    }
  ],
  "bytecode": "0x611c35610030600b82828239805160001a6073146000811461002057610022565bfe5b5030600052607381538281f300730000000000000000000000000000000000000000301460806040526004361061006e576000357c0100000000000000000000000000000000000000000000000000000000900463ffffffff168063aa11ea2314610073578063ae1c60541461010a578063e1231f1e14610203575b600080fd5b81801561007f57600080fd5b5061010860048036038101908080359060200190929190803560ff169060200190929190803560ff169060200190929190803560ff16906020019092919080359060200190820180359060200190808060200260200160405190810160405280939291908181526020018383602002808284378201915050505050509192919290505050610342565b005b81801561011657600080fd5b50610201600480360381019080803590602001909291908035906020019092919080359060200190820180359060200190808060200260200160405190810160405280939291908181526020016000905b828210156101ac57848483905060c002016006806020026040519081016040528092919082600660200280828437820191505050505081526020019060010190610167565b505050505091929192908035906020019082018035906020019080806020026020016040519081016040528093929190818152602001838360200280828437820191505050505050919291929050505061081a565b005b81801561020f57600080fd5b50610340600480360381019080803590602001909291908035906020019092919080359060200190820180359060200190808060200260200160405190810160405280939291908181526020016000905b828210156102a5578484839050608002016004806020026040519081016040528092919082600460200280828437820191505050505081526020019060010190610260565b5050505050919291929080359060200190820180359060200190808060200260200160405190810160405280939291908181526020018383602002808284378201915050505050509192919290803590602001908201803590602001908080601f016020809104026020016040519081016040528093929190818152602001838380828437820191505050505050919291929050505061102e565b005b6060806000808660ff1614801561035c575060008560ff16145b156104345760006040519080825280602002602001820160405280156103915781602001602082028038833980820191505090505b50888860ff168154811015156103a357fe5b906000526020600020906005020160030190805190602001906103c79291906118e5565b5060006040519080825280602002602001820160405280156103f85781602001602082028038833980820191505090505b50888860ff1681548110151561040a57fe5b9060005260206000209060050201600401908051906020019061042e9291906118e5565b50610810565b83518560ff161115151561044757600080fd5b8460ff168660ff1610151561045b57600080fd5b600060028760ff1681151561046c57fe5b0660ff1614151561047c57600080fd5b600060028660ff1681151561048d57fe5b0660ff1614151561049d57600080fd5b600286860360ff168115156104ae57fe5b0460ff166040519080825280602002602001820160405280156104e05781602001602082028038833980820191505090505b509250600286860360ff168115156104f457fe5b0460ff166040519080825280602002602001820160405280156105265781602001602082028038833980820191505090505b509150600090505b8460ff168660ff1610156107a157836001870160ff1681518110151561055057fe5b9060200190602002015173__Percent_______________________________63520b006690916040518263ffffffff167c01000000000000000000000000000000000000000000000000000000000281526004018082815260200191505060206040518083038186803b1580156105c657600080fd5b505af41580156105da573d6000803e3d6000fd5b505050506040513d60208110156105f057600080fd5b8101908080519060200190929190505050151561060c57600080fd5b73__Percent_______________________________63d49d51816040518163ffffffff167c010000000000000000000000000000000000000000000000000000000002815260040160206040518083038186803b15801561066c57600080fd5b505af4158015610680573d6000803e3d6000fd5b505050506040513d602081101561069657600080fd5b8101908080519060200190929190505050846001880160ff168151811015156106bb57fe5b906020019060200201511015156106d157600080fd5b600081111561071d57838660ff168151811015156106eb57fe5b90602001906020020151836001830381518110151561070657fe5b9060200190602002015110151561071c57600080fd5b5b838660ff1681518110151561072e57fe5b90602001906020020151838281518110151561074657fe5b9060200190602002018181525050836001870160ff1681518110151561076857fe5b90602001906020020151828281518110151561078057fe5b9060200190602002018181525050808060010191505060028601955061052e565b82888860ff168154811015156107b357fe5b906000526020600020906005020160030190805190602001906107d79291906118e5565b5081888860ff168154811015156107ea57fe5b9060005260206000209060050201600401908051906020019061080e9291906118e5565b505b5050505050505050565b6000808480549050111561089b5782600184510381518110151561083a57fe5b90602001906020020151600160068110151561085257fe5b602002015184600081548110151561086657fe5b906000526020600020906005020160000160009054906101000a900463ffffffff1663ffffffff1611151561089a57600080fd5b5b600085816108a99190611932565b50600090505b82518160ff161015611027577fffffffffffffffffffffffffffffffffffffffffffffffffffffffffffffffff63ffffffff16838260ff168151811015156108f357fe5b90602001906020020151600060068110151561090b57fe5b60200201511115151561091d57600080fd5b7fffffffffffffffffffffffffffffffffffffffffffffffffffffffffffffffff63ffffffff16838260ff1681518110151561095557fe5b90602001906020020151600160068110151561096d57fe5b60200201511115151561097f57600080fd5b7fffffffffffffffffffffffffffffffffffffffffffffffffffffffffffffffff63ffffffff16838260ff168151811015156109b757fe5b9060200190602002015160036006811015156109cf57fe5b6020020151111515156109e157600080fd5b7fffffffffffffffffffffffffffffffffffffffffffffffffffffffffffffffff60ff16838260ff16815181101515610a1657fe5b906020019060200201516004600681101515610a2e57fe5b602002015111151515610a4057600080fd5b7fffffffffffffffffffffffffffffffffffffffffffffffffffffffffffffffff60ff16838260ff16815181101515610a7557fe5b906020019060200201516005600681101515610a8d57fe5b602002015111151515610a9f57600080fd5b42838260ff16815181101515610ab157fe5b906020019060200201516000600681101515610ac957fe5b6020020151111515610ada57600080fd5b828160ff16815181101515610aeb57fe5b906020019060200201516001600681101515610b0357fe5b6020020151838260ff16815181101515610b1957fe5b906020019060200201516000600681101515610b3157fe5b6020020151101515610b4257600080fd5b60008160ff161115610bbb57828160ff16815181101515610b5f57fe5b906020019060200201516000600681101515610b7757fe5b6020020151836001830360ff16815181101515610b9057fe5b906020019060200201516001600681101515610ba857fe5b602002015111151515610bba57600080fd5b5b828160ff16815181101515610bcc57fe5b906020019060200201516002600681101515610be457fe5b602002015173__Percent_______________________________63520b006690916040518263ffffffff167c01000000000000000000000000000000000000000000000000000000000281526004018082815260200191505060206040518083038186803b158015610c5557600080fd5b505af4158015610c69573d6000803e3d6000fd5b505050506040513d6020811015610c7f57600080fd5b81019080805190602001909291905050501515610c9b57600080fd5b73__Percent_______________________________63d49d51816040518163ffffffff167c010000000000000000000000000000000000000000000000000000000002815260040160206040518083038186803b158015610cfb57600080fd5b505af4158015610d0f573d6000803e3d6000fd5b505050506040513d6020811015610d2557600080fd5b8101908080519060200190929190505050838260ff16815181101515610d4757fe5b906020019060200201516002600681101515610d5f57fe5b6020020151101515610d7057600080fd5b8460c060405190810160405280858460ff16815181101515610d8e57fe5b906020019060200201516000600681101515610da657fe5b602002015163ffffffff168152602001858460ff16815181101515610dc757fe5b906020019060200201516001600681101515610ddf57fe5b602002015163ffffffff168152602001858460ff16815181101515610e0057fe5b906020019060200201516002600681101515610e1857fe5b60200201518152602001858460ff16815181101515610e3357fe5b906020019060200201516003600681101515610e4b57fe5b602002015163ffffffff1681526020016000604051908082528060200260200182016040528015610e8b5781602001602082028038833980820191505090505b5081526020016000604051908082528060200260200182016040528015610ec15781602001602082028038833980820191505090505b508152509080600181540180825580915050906001820390600052602060002090600502016000909192909190915060008201518160000160006101000a81548163ffffffff021916908363ffffffff16021790555060208201518160000160046101000a81548163ffffffff021916908363ffffffff1602179055506040820151816001015560608201518160020160006101000a81548163ffffffff021916908363ffffffff1602179055506080820151816003019080519060200190610f8b929190611964565b5060a0820151816004019080519060200190610fa8929190611964565b5050505061101a856001878054905003858460ff16815181101515610fc957fe5b906020019060200201516004600681101515610fe157fe5b6020020151868560ff16815181101515610ff757fe5b90602001906020020151600560068110151561100f57fe5b602002015186610342565b80806001019150506108af565b5050505050565b60008060008060608060008b8054905011156110ba5788600081518110151561105357fe5b90602001906020020151600060048110151561106b57fe5b60200201518b60018d805490500381548110151561108557fe5b906000526020600020906005020160000160049054906101000a900463ffffffff1663ffffffff161015156110b957600080fd5b5b60008a816110c891906119b1565b50600095506000945060009350600092505b88518360ff161015611782577fffffffffffffffffffffffffffffffffffffffffffffffffffffffffffffffff63ffffffff16898460ff1681518110151561111e57fe5b90602001906020020151600060048110151561113657fe5b60200201511115151561114857600080fd5b7fffffffffffffffffffffffffffffffffffffffffffffffffffffffffffffffff63ffffffff16898460ff1681518110151561118057fe5b90602001906020020151600160048110151561119857fe5b6020020151111515156111aa57600080fd5b7fffffffffffffffffffffffffffffffffffffffffffffffffffffffffffffffff63ffffffff16898460ff168151811015156111e257fe5b9060200190602002015160026004811015156111fa57fe5b60200201511115151561120c57600080fd5b42898460ff1681518110151561121e57fe5b90602001906020020151600060048110151561123657fe5b602002015111151561124757600080fd5b888360ff1681518110151561125857fe5b90602001906020020151600060048110151561127057fe5b6020020151898460ff1681518110151561128657fe5b90602001906020020151600160048110151561129e57fe5b60200201511115156112af57600080fd5b888360ff168151811015156112c057fe5b9060200190602002015160016004811015156112d857fe5b6020020151898460ff168151811015156112ee57fe5b90602001906020020151600260048110151561130657fe5b602002015111151561131757600080fd5b60008360ff16111561138f57888360ff1681518110151561133457fe5b90602001906020020151600060048110151561134c57fe5b6020020151896001850360ff1681518110151561136557fe5b90602001906020020151600260048110151561137d57fe5b602002015110151561138e57600080fd5b5b888360ff168151811015156113a057fe5b9060200190602002015160036004811015156113b857fe5b602002015173__Percent_______________________________63520b006690916040518263ffffffff167c01000000000000000000000000000000000000000000000000000000000281526004018082815260200191505060206040518083038186803b15801561142957600080fd5b505af415801561143d573d6000803e3d6000fd5b505050506040513d602081101561145357600080fd5b8101908080519060200190929190505050151561146f57600080fd5b6114a186898781518110151561148157fe5b9060200190602002015163ffffffff16896118379092919063ffffffff16565b91506114d388868151811015156114b457fe5b9060200190602002015163ffffffff16876118c490919063ffffffff16565b955061150a8689600188018151811015156114ea57fe5b9060200190602002015163ffffffff16896118379092919063ffffffff16565b905061153f886001870181518110151561152057fe5b9060200190602002015163ffffffff16876118c490919063ffffffff16565b95506115556002866118c490919063ffffffff16565b9450611597898460ff1681518110151561156b57fe5b90602001906020020151600360048110151561158357fe5b6020020151856118c490919063ffffffff16565b93508960c0604051908101604052808b8660ff168151811015156115b757fe5b9060200190602002015160006004811015156115cf57fe5b602002015163ffffffff1681526020018b8660ff168151811015156115f057fe5b90602001906020020151600360048110151561160857fe5b602002015181526020018b8660ff1681518110151561162357fe5b90602001906020020151600160048110151561163b57fe5b602002015163ffffffff1681526020018b8660ff1681518110151561165c57fe5b90602001906020020151600260048110151561167457fe5b602002015163ffffffff168152602001848152602001838152509080600181540180825580915050906001820390600052602060002090600502016000909192909190915060008201518160000160006101000a81548163ffffffff021916908363ffffffff1602179055506020820151816001015560408201518160020160006101000a81548163ffffffff021916908363ffffffff16021790555060608201518160020160046101000a81548163ffffffff021916908363ffffffff16021790555060808201518160030190805190602001906117549291906119e3565b5060a08201518160040190805190602001906117719291906119e3565b5050505082806001019350506110da565b73__Percent_______________________________63d49d51816040518163ffffffff167c010000000000000000000000000000000000000000000000000000000002815260040160206040518083038186803b1580156117e257600080fd5b505af41580156117f6573d6000803e3d6000fd5b505050506040513d602081101561180c57600080fd5b81019080805190602001909291905050508414151561182a57600080fd5b5050505050505050505050565b60608082840185511015151561184c57600080fd5b821560008114611867576040519150602082016040526118b8565b6040519150601f8416801560200281840101858101878315602002848b0101015b818310156118a55780518352602083019250602081019050611888565b50868552601f19601f8301166040525050505b50809150509392505050565b60008082840190508381101515156118db57600080fd5b8091505092915050565b828054828255906000526020600020908101928215611921579160200282015b82811115611920578251825591602001919060010190611905565b5b50905061192e9190611a63565b5090565b81548183558181111561195f5760050281600502836000526020600020918201910161195e9190611a88565b5b505050565b8280548282559060005260206000209081019282156119a0579160200282015b8281111561199f578251825591602001919060010190611984565b5b5090506119ad9190611a63565b5090565b8154818355818111156119de576005028160050283600052602060002091820191016119dd9190611b14565b5b505050565b828054600181600116156101000203166002900490600052602060002090601f016020900481019282601f10611a2457805160ff1916838001178555611a52565b82800160010185558215611a52579182015b82811115611a51578251825591602001919060010190611a36565b5b509050611a5f9190611a63565b5090565b611a8591905b80821115611a81576000816000905550600101611a69565b5090565b90565b611b1191905b80821115611b0d57600080820160006101000a81549063ffffffff02191690556000820160046101000a81549063ffffffff021916905560018201600090556002820160006101000a81549063ffffffff0219169055600382016000611af49190611ba0565b600482016000611b049190611ba0565b50600501611a8e565b5090565b90565b611b9d91905b80821115611b9957600080820160006101000a81549063ffffffff021916905560018201600090556002820160006101000a81549063ffffffff02191690556002820160046101000a81549063ffffffff0219169055600382016000611b809190611bc1565b600482016000611b909190611bc1565b50600501611b1a565b5090565b90565b5080546000825590600052602060002090810190611bbe9190611a63565b50565b50805460018160011615610100020316600290046000825580601f10611be75750611c06565b601f016020900490600052602060002090810190611c059190611a63565b5b505600a165627a7a72305820c9e17a01265070cf12dfc63a022dafc320899808df7bcd6d0facab815bc8eb5a0029",
  "source": "pragma solidity 0.4.24;\n\nimport \"openzeppelin-solidity/contracts/math/SafeMath.sol\";\nimport \"solidity-bytes-utils/contracts/BytesLib.sol\";\nimport \"./Percent.sol\";\n\n\nlibrary Crowdsale {\n    using SafeMath for uint;\n    using Percent for uint;\n    using BytesLib for bytes;\n\n    struct Stage {\n        uint32 startDate;\n        uint32 endDate;\n        uint discount;\n        uint32 vesting;\n        uint[] volumeBoundaries;\n        uint[] volumeBonuses;\n    }\n\n    struct Milestone {\n        uint32 endDate;\n        uint tranchePercent;\n        uint32 voteEndDate;\n        uint32 withdrawalWindow;\n        bytes name;\n        bytes description;\n    }\n\n    /**\n     * @dev Update stages\n     * @param parameters List of primary parameters:\n     * [\n     *   uint32 startDate,\n     *   uint32 endDate,\n     *   uint discount,\n     *   uint32 vesting,\n     *   uint8 startIndexOfBonusConditions\n     *   uint8 endIndexOfBonusConditions\n     * ],\n     * @param bonusConditions List of bonus conditions:\n     * [uint boundary, uint bonus, ...]\n     */\n    function setStages(\n        Stage[] storage stages,\n        Milestone[] storage milestones,\n        uint[6][] parameters,\n        uint[] bonusConditions\n    ) public {\n        if (milestones.length > 0) {\n            // end date of firs milestone must be greater then end date of last stage\n            require(milestones[0].endDate > parameters[parameters.length - 1][1]);\n        }\n\n        stages.length = 0;\n\n        for (uint8 i = 0; i < parameters.length; i++) {\n            // check overflow\n            require(parameters[i][0] <= uint32(-1));\n            require(parameters[i][1] <= uint32(-1));\n            require(parameters[i][3] <= uint32(-1));\n            require(parameters[i][4] <= uint8(-1));\n            require(parameters[i][5] <= uint8(-1));\n\n            // check dates\n            require(parameters[i][0] > now);\n            require(parameters[i][0] < parameters[i][1]);\n\n            if (i > 0) {\n                require(parameters[i - 1][1] <= parameters[i][0]);\n            }\n\n            // check discount\n            require(parameters[i][2].isPercent());\n            require(parameters[i][2] < Percent.MAX());\n\n            stages.push(Stage({\n                startDate: uint32(parameters[i][0]),\n                endDate: uint32(parameters[i][1]),\n                discount: parameters[i][2],\n                vesting: uint32(parameters[i][3]),\n                volumeBoundaries: new uint[](0),\n                volumeBonuses: new uint[](0)\n            }));\n\n            setStageBonusConditions(\n                stages,\n                uint8(stages.length - 1),\n                uint8(parameters[i][4]),\n                uint8(parameters[i][5]),\n                bonusConditions\n            );\n        }\n    }\n\n    /**\n     * @dev Set stage bonus conditions by stage index\n     * @param bonusConditions List of bonus conditions:\n     * [uint boundary, uint bonus, ...]\n     */\n    function setStageBonusConditions(\n        Stage[] storage stages,\n        uint8 stageIndex,\n        uint8 start,\n        uint8 end,\n        uint[] bonusConditions\n    ) public {\n        if (start == 0 && end == 0) {\n            stages[stageIndex].volumeBoundaries = new uint[](0);\n            stages[stageIndex].volumeBonuses = new uint[](0);\n\n            return;\n        }\n\n        require(end <= bonusConditions.length);\n        require(start < end);\n        require(start % 2 == 0);\n        require(end % 2 == 0);\n\n        uint[] memory boundaries = new uint[]((end - start) / 2);\n        uint[] memory bonuses = new uint[]((end - start) / 2);\n        uint k = 0;\n\n        while (start < end) {\n            // check bonus\n            require(bonusConditions[start + 1].isPercent());\n            require(bonusConditions[start + 1] < Percent.MAX());\n\n            // check boundary\n            if (k > 0) {\n                require(boundaries[k - 1] < bonusConditions[start]);\n            }\n\n            boundaries[k] = bonusConditions[start];\n            bonuses[k] = bonusConditions[start + 1];\n            k++;\n            start += 2;\n        }\n\n        stages[stageIndex].volumeBoundaries = boundaries;\n        stages[stageIndex].volumeBonuses = bonuses;\n    }\n\n    /**\n     * @dev Update milestones\n     * @param parameters List of primary parameters:\n     * [\n     *   uint32 endDate,\n     *   uint32 voteEndDate,\n     *   uint32 withdrawalWindow,\n     *   uint tranchPercent\n     * ]\n     * @param offsets Offsets of names and descriptions in namesAndDescriptions:\n     * [uint32 offset1, uint32 offset2, ...]\n     * @param namesAndDescriptions Names and descriptions\n     */\n    function setMilestones(\n        Stage[] storage stages,\n        Milestone[] storage milestones,\n        uint[4][] parameters,\n        uint32[] offsets,\n        bytes namesAndDescriptions\n    ) public {\n        if (stages.length > 0) {\n            require(stages[stages.length - 1].endDate < parameters[0][0]);\n        }\n\n        milestones.length = 0;\n\n        uint offset = 0;\n        uint k = 0;\n        uint totalPercents = 0;\n\n        for (uint8 i = 0; i < parameters.length; i++) {\n            // check overflow\n            require(parameters[i][0] <= uint32(-1));\n            require(parameters[i][1] <= uint32(-1));\n            require(parameters[i][2] <= uint32(-1));\n\n            // check dates\n            require(parameters[i][0] > now);\n            require(parameters[i][1] > parameters[i][0]);\n            require(parameters[i][2] > parameters[i][1]);\n\n            if (i > 0) {\n                require(parameters[i - 1][2] < parameters[i][0]);\n            }\n\n            // check tranch percent\n            require(parameters[i][3].isPercent());\n\n            bytes memory name = namesAndDescriptions.slice(offset, offsets[k]);\n            offset = offset.add(offsets[k]);\n            bytes memory description = namesAndDescriptions.slice(offset, offsets[k + 1]);\n            offset = offset.add(offsets[k + 1]);\n            k = k.add(2);\n\n            totalPercents = totalPercents.add(parameters[i][3]);\n\n            milestones.push(Milestone({\n                endDate : uint32(parameters[i][0]),\n                tranchePercent : parameters[i][3],\n                voteEndDate : uint32(parameters[i][1]),\n                withdrawalWindow : uint32(parameters[i][2]),\n                name : name,\n                description : description\n            }));\n        }\n\n        require(totalPercents == Percent.MAX());\n    }\n}\n",
  "sourcePath": "/Users/gauss/_games/w12/Protocol/contracts/libs/Crowdsale.sol",
  "compiler": {
    "name": "solc",
    "version": "0.4.24+commit.e67f0147.Emscripten.clang"
  },
  "schemaVersion": "3.0.16",
  "updatedAt": "2019-10-06T23:01:18.416Z"
}