{
  "contractName": "Crowdsale",
  "abi": [
    {
      "constant": false,
      "inputs": [
        {
          "name": "stages",
          "type": "Crowdsale.Stage[] storage"
        },
        {
          "name": "milestones",
          "type": "Crowdsale.Milestone[] storage"
        },
        {
          "name": "parameters",
          "type": "uint256[6][]"
        },
        {
          "name": "bonusConditions",
          "type": "uint256[]"
        }
      ],
      "name": "setStages",
      "outputs": [],
      "payable": false,
      "stateMutability": "nonpayable",
      "type": "function"
    },
    {
      "constant": false,
      "inputs": [
        {
          "name": "stages",
          "type": "Crowdsale.Stage[] storage"
        },
        {
          "name": "stageIndex",
          "type": "uint8"
        },
        {
          "name": "start",
          "type": "uint8"
        },
        {
          "name": "end",
          "type": "uint8"
        },
        {
          "name": "bonusConditions",
          "type": "uint256[]"
        }
      ],
      "name": "setStageBonusConditions",
      "outputs": [],
      "payable": false,
      "stateMutability": "nonpayable",
      "type": "function"
    },
    {
      "constant": false,
      "inputs": [
        {
          "name": "stages",
          "type": "Crowdsale.Stage[] storage"
        },
        {
          "name": "milestones",
          "type": "Crowdsale.Milestone[] storage"
        },
        {
          "name": "parameters",
          "type": "uint256[4][]"
        },
        {
          "name": "offsets",
          "type": "uint32[]"
        },
        {
          "name": "namesAndDescriptions",
          "type": "bytes"
        }
      ],
      "name": "setMilestones",
      "outputs": [],
      "payable": false,
      "stateMutability": "nonpayable",
      "type": "function"
    }
  ],
  "bytecode": "0x6114c7610030600b82828239805160001a6073146000811461002057610022565bfe5b5030600052607381538281f30073000000000000000000000000000000000000000030146080604052600436106100545763ffffffff60e060020a600035041663aa11ea238114610059578063ae1c6054146100cd578063e1231f1e146101a0575b600080fd5b81801561006557600080fd5b5060408051602060046084358181013583810280860185019096528085526100cb958335956024803560ff90811697604435821697606435909216963696929560a495949091019291829190850190849080828437509497506102b19650505050505050565b005b8180156100d957600080fd5b50604080516020600460443581810135838102850184019095528484526100cb94823594602480359536959460649492019190819060009085015b82821015610150576040805160c08181019092529080840287019060069083908390808284375050509183525050600190910190602001610114565b5050505050919291929080359060200190820180359060200190808060200260200160405190810160405280939291908181526020018383602002808284375094975061069b9650505050505050565b8180156101ac57600080fd5b50604080516020600460443581810135838102850184019095528484526100cb94823594602480359536959460649492019190819060009085015b828210156102235760408051608081810190925290808402870190600490839083908082843750505091835250506001909101906020016101e7565b5050505050919291929080359060200190820180359060200190808060200260200160405190810160405280939291908181526020018383602002808284375050604080516020601f89358b018035918201839004830284018301909452808352979a999881019791965091820194509250829150840183828082843750949750610bf39650505050505050565b606080600060ff86161580156102c8575060ff8516155b1561035c576040805160008152602081019091528854899060ff8a169081106102ed57fe5b90600052602060002090600502016003019080519060200190610311929190611252565b506040805160008152602081019091528854899060ff8a1690811061033257fe5b90600052602060002090600502016004019080519060200190610356929190611252565b50610691565b835160ff8616111561036d57600080fd5b60ff8086169087161061037f57600080fd5b600186161561038d57600080fd5b600185161561039b57600080fd5b600260ff878703160460ff166040519080825280602002602001820160405280156103d0578160200160208202803883390190505b509250600260ff878703160460ff16604051908082528060200260200182016040528015610408578160200160208202803883390190505b509150600090505b8460ff168660ff16101561062257838660010160ff1681518110151561043257fe5b9060200190602002015173__Percent_______________________________63520b006690916040518263ffffffff1660e060020a0281526004018082815260200191505060206040518083038186803b15801561048f57600080fd5b505af41580156104a3573d6000803e3d6000fd5b505050506040513d60208110156104b957600080fd5b505115156104c657600080fd5b73__Percent_______________________________63d49d51816040518163ffffffff1660e060020a02815260040160206040518083038186803b15801561050d57600080fd5b505af4158015610521573d6000803e3d6000fd5b505050506040513d602081101561053757600080fd5b50518451859060ff60018a011690811061054d57fe5b602090810290910101511061056157600080fd5b60008111156105aa57838660ff1681518110151561057b57fe5b90602001906020020151836001830381518110151561059657fe5b60209081029091010151106105aa57600080fd5b838660ff168151811015156105bb57fe5b9060200190602002015183828151811015156105d357fe5b602090810290910101528351849060ff60018901169081106105f157fe5b90602001906020020151828281518110151561060957fe5b6020908102909101015260029590950194600101610410565b82888860ff1681548110151561063457fe5b90600052602060002090600502016003019080519060200190610658929190611252565b5081888860ff1681548110151561066b57fe5b9060005260206000209060050201600401908051906020019061068f929190611252565b505b5050505050505050565b82546000908110156106f7578251839060001981019081106106b957fe5b60209081029190910181015101518454859060009081106106d657fe5b600091825260209091206005909102015463ffffffff16116106f757600080fd5b6000610703868261129d565b50600090505b82518160ff161015610bec57825163ffffffff90849060ff841690811061072c57fe5b602090810291909101015151111561074357600080fd5b825163ffffffff90849060ff841690811061075a57fe5b6020908102919091018101510151111561077357600080fd5b825163ffffffff90849060ff841690811061078a57fe5b60209081029190910101516060015111156107a457600080fd5b825160ff9084908383169081106107b757fe5b60209081029190910101516080015111156107d157600080fd5b825160ff9084908383169081106107e457fe5b602090810291909101015160a0015111156107fe57600080fd5b42838260ff1681518110151561081057fe5b6020908102919091010151511161082657600080fd5b828160ff1681518110151561083757fe5b60209081029190910181015101518351849060ff841690811061085657fe5b6020908102919091010151511061086c57600080fd5b60008160ff1611156108c357828160ff1681518110151561088957fe5b6020908102919091010151518351849060ff6000198501169081106108aa57fe5b602090810291909101810151015111156108c357600080fd5b828160ff168151811015156108d457fe5b602090810290910101516002602002015173__Percent_______________________________63520b006690916040518263ffffffff1660e060020a0281526004018082815260200191505060206040518083038186803b15801561093857600080fd5b505af415801561094c573d6000803e3d6000fd5b505050506040513d602081101561096257600080fd5b5051151561096f57600080fd5b73__Percent_______________________________63d49d51816040518163ffffffff1660e060020a02815260040160206040518083038186803b1580156109b657600080fd5b505af41580156109ca573d6000803e3d6000fd5b505050506040513d60208110156109e057600080fd5b50518351849060ff84169081106109f357fe5b60209081029190910101516040015110610a0c57600080fd5b8460c060405190810160405280858460ff16815181101515610a2a57fe5b6020908102919091018101515163ffffffff1682528651910190869060ff8616908110610a5357fe5b602090810290910101516001602002015163ffffffff168152602001858460ff16815181101515610a8057fe5b60209081029091010151600260200201518152602001858460ff16815181101515610aa757fe5b6020908102919091018101516060015163ffffffff16825260408051600080825281840183528484019190915281518181529283018252920191509052815460018082018085556000948552602094859020845160059094020180548587015163ffffffff1991821663ffffffff9687161767ffffffff000000001916640100000000918716919091021782556040860151938201939093556060850151600282018054909416941693909317909155608083015180519194610b7292600385019290910190611252565b5060a08201518051610b8e916004840191602090910190611252565b50505050610be4856001878054905003858460ff16815181101515610baf57fe5b6020908102919091010151608001518651879060ff8716908110610bcf57fe5b602090810291909101015160a00151866102b1565b600101610709565b5050505050565b60008060008060608060008b805490501115610c5f57886000815181101515610c1857fe5b6020908102919091010151518b548c906000198101908110610c3657fe5b6000918252602090912060059091020154640100000000900463ffffffff1610610c5f57600080fd5b6000610c6b8b826112ce565b50600095506000945060009350600092505b88518360ff16101561112d57885163ffffffff908a9060ff8616908110610ca057fe5b6020908102919091010151511115610cb757600080fd5b885163ffffffff908a9060ff8616908110610cce57fe5b60209081029190910181015101511115610ce757600080fd5b885163ffffffff908a9060ff8616908110610cfe57fe5b6020908102919091010151604001511115610d1857600080fd5b42898460ff16815181101515610d2a57fe5b60209081029190910101515111610d4057600080fd5b888360ff16815181101515610d5157fe5b60209081029190910101515189518a9060ff8616908110610d6e57fe5b602090810291909101810151015111610d8657600080fd5b888360ff16815181101515610d9757fe5b602090810291909101810151015189518a9060ff8616908110610db657fe5b60209081029190910101516040015111610dcf57600080fd5b60008360ff161115610e2657888360ff16815181101515610dec57fe5b60209081029190910101515189518a9060ff600019870116908110610e0d57fe5b60209081029190910101516040015110610e2657600080fd5b888360ff16815181101515610e3757fe5b60209081029190910181015160600151604080517f520b006600000000000000000000000000000000000000000000000000000000815260048101929092525173__Percent_______________________________9263520b00669260248082019391829003018186803b158015610eae57600080fd5b505af4158015610ec2573d6000803e3d6000fd5b505050506040513d6020811015610ed857600080fd5b50511515610ee557600080fd5b610f17868987815181101515610ef757fe5b9060200190602002015163ffffffff16896111b89092919063ffffffff16565b9150610f498886815181101515610f2a57fe5b9060200190602002015163ffffffff168761123990919063ffffffff16565b9550610f60868987600101815181101515610ef757fe5b9050610f768886600101815181101515610f2a57fe5b9550610f8985600263ffffffff61123916565b9450610fb5898460ff16815181101515610f9f57fe5b6020908102919091010151606001518590611239565b93508960c0604051908101604052808b8660ff16815181101515610fd557fe5b6020908102919091018101515163ffffffff1682528c519101908c9060ff8816908110610ffe57fe5b602090810290910101516003602002015181526020018b8660ff1681518110151561102557fe5b602090810290910101516001602002015163ffffffff1681526020018b8660ff1681518110151561105257fe5b6020908102909101015160026020908102919091015163ffffffff90811683528282018790526040928301869052845460018181018088556000978852968490208651600590930201805492841663ffffffff19938416178155868501519181019190915593850151600285018054606088015185166401000000000267ffffffff000000001993909516931692909217169190911790556080830151805161110192600385019201906112fa565b5060a0820151805161111d9160048401916020909101906112fa565b505060019094019350610c7d9050565b73__Percent_______________________________63d49d51816040518163ffffffff1660e060020a02815260040160206040518083038186803b15801561117457600080fd5b505af4158015611188573d6000803e3d6000fd5b505050506040513d602081101561119e57600080fd5b505184146111ab57600080fd5b5050505050505050505050565b6060808284018551101515156111cd57600080fd5b821580156111e657604051915060208201604052611230565b6040519150601f8416801560200281840101858101878315602002848b0101015b8183101561121f578051835260209283019201611207565b5050858452601f01601f1916604052505b50949350505050565b60008282018381101561124b57600080fd5b9392505050565b82805482825590600052602060002090810192821561128d579160200282015b8281111561128d578251825591602001919060010190611272565b50611299929150611367565b5090565b8154818355818111156112c9576005028160050283600052602060002091820191016112c99190611384565b505050565b8154818355818111156112c9576005028160050283600052602060002091820191016112c991906113dd565b828054600181600116156101000203166002900490600052602060002090601f016020900481019282601f1061133b57805160ff191683800117855561128d565b8280016001018555821561128d579182018281111561128d578251825591602001919060010190611272565b61138191905b80821115611299576000815560010161136d565b90565b61138191905b8082111561129957805467ffffffffffffffff1916815560006001820181905560028201805463ffffffff191690556113c66003830182611436565b6113d4600483016000611436565b5060050161138a565b61138191905b8082111561129957805463ffffffff1916815560006001820181905560028201805467ffffffffffffffff1916905561141f6003830182611457565b61142d600483016000611457565b506005016113e3565b50805460008255906000526020600020908101906114549190611367565b50565b50805460018160011615610100020316600290046000825580601f1061147d5750611454565b601f01602090049060005260206000209081019061145491906113675600a165627a7a72305820a2a5e60d9b176aa51c74dc6438d6233f9147bc7e45ea2f332fbff867e1cf0f920029",
  "source": "pragma solidity 0.4.24;\n\nimport \"openzeppelin-solidity/contracts/math/SafeMath.sol\";\nimport \"solidity-bytes-utils/contracts/BytesLib.sol\";\nimport \"./Percent.sol\";\n\n\nlibrary Crowdsale {\n    using SafeMath for uint;\n    using Percent for uint;\n    using BytesLib for bytes;\n\n    struct Stage {\n        uint32 startDate;\n        uint32 endDate;\n        uint discount;\n        uint32 vesting;\n        uint[] volumeBoundaries;\n        uint[] volumeBonuses;\n    }\n\n    struct Milestone {\n        uint32 endDate;\n        uint tranchePercent;\n        uint32 voteEndDate;\n        uint32 withdrawalWindow;\n        bytes name;\n        bytes description;\n    }\n\n    /**\n     * @dev Update stages\n     * @param parameters List of primary parameters:\n     * [\n     *   uint32 startDate,\n     *   uint32 endDate,\n     *   uint discount,\n     *   uint32 vesting,\n     *   uint8 startIndexOfBonusConditions\n     *   uint8 endIndexOfBonusConditions\n     * ],\n     * @param bonusConditions List of bonus conditions:\n     * [uint boundary, uint bonus, ...]\n     */\n    function setStages(\n        Stage[] storage stages,\n        Milestone[] storage milestones,\n        uint[6][] parameters,\n        uint[] bonusConditions\n    ) public {\n        if (milestones.length > 0) {\n            // end date of firs milestone must be greater then end date of last stage\n            require(milestones[0].endDate > parameters[parameters.length - 1][1]);\n        }\n\n        stages.length = 0;\n\n        for (uint8 i = 0; i < parameters.length; i++) {\n            // check overflow\n            require(parameters[i][0] <= uint32(-1));\n            require(parameters[i][1] <= uint32(-1));\n            require(parameters[i][3] <= uint32(-1));\n            require(parameters[i][4] <= uint8(-1));\n            require(parameters[i][5] <= uint8(-1));\n\n            // check dates\n            require(parameters[i][0] > now);\n            require(parameters[i][0] < parameters[i][1]);\n\n            if (i > 0) {\n                require(parameters[i - 1][1] <= parameters[i][0]);\n            }\n\n            // check discount\n            require(parameters[i][2].isPercent());\n            require(parameters[i][2] < Percent.MAX());\n\n            stages.push(Stage({\n                startDate: uint32(parameters[i][0]),\n                endDate: uint32(parameters[i][1]),\n                discount: parameters[i][2],\n                vesting: uint32(parameters[i][3]),\n                volumeBoundaries: new uint[](0),\n                volumeBonuses: new uint[](0)\n            }));\n\n            setStageBonusConditions(\n                stages,\n                uint8(stages.length - 1),\n                uint8(parameters[i][4]),\n                uint8(parameters[i][5]),\n                bonusConditions\n            );\n        }\n    }\n\n    /**\n     * @dev Set stage bonus conditions by stage index\n     * @param bonusConditions List of bonus conditions:\n     * [uint boundary, uint bonus, ...]\n     */\n    function setStageBonusConditions(\n        Stage[] storage stages,\n        uint8 stageIndex,\n        uint8 start,\n        uint8 end,\n        uint[] bonusConditions\n    ) public {\n        if (start == 0 && end == 0) {\n            stages[stageIndex].volumeBoundaries = new uint[](0);\n            stages[stageIndex].volumeBonuses = new uint[](0);\n\n            return;\n        }\n\n        require(end <= bonusConditions.length);\n        require(start < end);\n        require(start % 2 == 0);\n        require(end % 2 == 0);\n\n        uint[] memory boundaries = new uint[]((end - start) / 2);\n        uint[] memory bonuses = new uint[]((end - start) / 2);\n        uint k = 0;\n\n        while (start < end) {\n            // check bonus\n            require(bonusConditions[start + 1].isPercent());\n            require(bonusConditions[start + 1] < Percent.MAX());\n\n            // check boundary\n            if (k > 0) {\n                require(boundaries[k - 1] < bonusConditions[start]);\n            }\n\n            boundaries[k] = bonusConditions[start];\n            bonuses[k] = bonusConditions[start + 1];\n            k++;\n            start += 2;\n        }\n\n        stages[stageIndex].volumeBoundaries = boundaries;\n        stages[stageIndex].volumeBonuses = bonuses;\n    }\n\n    /**\n     * @dev Update milestones\n     * @param parameters List of primary parameters:\n     * [\n     *   uint32 endDate,\n     *   uint32 voteEndDate,\n     *   uint32 withdrawalWindow,\n     *   uint tranchPercent\n     * ]\n     * @param offsets Offsets of names and descriptions in namesAndDescriptions:\n     * [uint32 offset1, uint32 offset2, ...]\n     * @param namesAndDescriptions Names and descriptions\n     */\n    function setMilestones(\n        Stage[] storage stages,\n        Milestone[] storage milestones,\n        uint[4][] parameters,\n        uint32[] offsets,\n        bytes namesAndDescriptions\n    ) public {\n        if (stages.length > 0) {\n            require(stages[stages.length - 1].endDate < parameters[0][0]);\n        }\n\n        milestones.length = 0;\n\n        uint offset = 0;\n        uint k = 0;\n        uint totalPercents = 0;\n\n        for (uint8 i = 0; i < parameters.length; i++) {\n            // check overflow\n            require(parameters[i][0] <= uint32(-1));\n            require(parameters[i][1] <= uint32(-1));\n            require(parameters[i][2] <= uint32(-1));\n\n            // check dates\n            require(parameters[i][0] > now);\n            require(parameters[i][1] > parameters[i][0]);\n            require(parameters[i][2] > parameters[i][1]);\n\n            if (i > 0) {\n                require(parameters[i - 1][2] < parameters[i][0]);\n            }\n\n            // check tranch percent\n            require(parameters[i][3].isPercent());\n\n            bytes memory name = namesAndDescriptions.slice(offset, offsets[k]);\n            offset = offset.add(offsets[k]);\n            bytes memory description = namesAndDescriptions.slice(offset, offsets[k + 1]);\n            offset = offset.add(offsets[k + 1]);\n            k = k.add(2);\n\n            totalPercents = totalPercents.add(parameters[i][3]);\n\n            milestones.push(Milestone({\n                endDate : uint32(parameters[i][0]),\n                tranchePercent : parameters[i][3],\n                voteEndDate : uint32(parameters[i][1]),\n                withdrawalWindow : uint32(parameters[i][2]),\n                name : name,\n                description : description\n            }));\n        }\n\n        require(totalPercents == Percent.MAX());\n    }\n}\n",
  "sourcePath": "/home/hokid/projects/work/W12-Product-Blockchain-Protocol/contracts/libs/Crowdsale.sol",
  "compiler": {
    "name": "solc",
    "version": "0.4.24+commit.e67f0147.Emscripten.clang"
  },
  "schemaVersion": "2.0.1",
  "updatedAt": "2019-03-06T11:06:02.370Z"
}