{
  "contractName": "FundAccount",
  "abi": [
    {
      "constant": true,
      "inputs": [
        {
          "name": "_account",
          "type": "FundAccount.Account storage"
        }
      ],
      "name": "symbolsList",
      "outputs": [
        {
          "name": "",
          "type": "bytes32[]"
        }
      ],
      "payable": false,
      "stateMutability": "view",
      "type": "function"
    }
  ],
  "bytecode": "0x610140610030600b82828239805160001a6073146000811461002057610022565bfe5b5030600052607381538281f30073000000000000000000000000000000000000000030146080604052600436106100575763ffffffff7c010000000000000000000000000000000000000000000000000000000060003504166320e1e1d1811461005c575b600080fd5b6100676004356100b7565b60408051602080825283518183015283519192839290830191858101910280838360005b838110156100a357818101518382015260200161008b565b505050509050019250505060405180910390f35b60608160000180548060200260200160405190810160405280929190818152602001828054801561010857602002820191906000526020600020905b815481526001909101906020018083116100f3575b505050505090509190505600a165627a7a723058202f97db4fc50b1e61ca5879af0d2b9212521d8aed4ef04f114cedc6acb28adcf80029",
  "source": "pragma solidity ^0.4.24;\n\nimport \"openzeppelin-solidity/contracts/math/SafeMath.sol\";\n\nlibrary FundAccount {\n    using SafeMath for uint;\n\n    struct Account {\n        bytes32[] _symbolsList;\n        mapping ( bytes32 => bool ) symbols;\n        mapping ( bytes32 => uint ) amount;\n    }\n\n    function deposit(Account storage _account, bytes32 _symbol, uint _amount) internal {\n        _writeSymbol(_account, _symbol);\n\n        _account.amount[_symbol] = _account.amount[_symbol].add(_amount);\n    }\n\n    function withdrawal(Account storage _account, bytes32 _symbol, uint _amount) internal {\n        require(hasDepositIn(_account, _symbol));\n        require(amountOf(_account, _symbol) >= _amount);\n\n        _account.amount[_symbol] = _account.amount[_symbol].sub(_amount);\n    }\n\n    function hasDepositIn(Account storage _account, bytes32 _symbol) internal view returns(bool) {\n        return _account.symbols[_symbol];\n    }\n\n    function amountOf(Account storage _account, bytes32 _symbol) internal view returns(uint) {\n        return _account.amount[_symbol];\n    }\n\n    function symbolsList(Account storage _account) view returns(bytes32[]) {\n        return _account._symbolsList;\n    }\n\n    function _writeSymbol(Account storage _account, bytes32 _symbol) internal {\n        if (!hasDepositIn(_account, _symbol)) {\n            _account._symbolsList.push(_symbol);\n            _account.symbols[_symbol] = true;\n        }\n    }\n}\n",
  "sourcePath": "/home/circleci/code/contracts/libs/FundAccount.sol",
  "compiler": {
    "name": "solc",
    "version": "0.4.24+commit.e67f0147.Emscripten.clang"
  },
  "schemaVersion": "2.0.1",
  "updatedAt": "2018-10-22T07:59:52.063Z"
}