{
  "contractName": "Fund",
  "abi": [
    {
      "anonymous": false,
      "inputs": [
        {
          "indexed": true,
          "name": "investor",
          "type": "address"
        },
        {
          "indexed": false,
          "name": "tokenAmount",
          "type": "uint256"
        },
        {
          "indexed": false,
          "name": "symbol",
          "type": "bytes32"
        },
        {
          "indexed": false,
          "name": "cost",
          "type": "uint256"
        }
      ],
      "name": "FundsReceived",
      "type": "event"
    },
    {
      "anonymous": false,
      "inputs": [
        {
          "indexed": true,
          "name": "investor",
          "type": "address"
        },
        {
          "indexed": false,
          "name": "symbol",
          "type": "bytes32"
        },
        {
          "indexed": false,
          "name": "amount",
          "type": "uint256"
        }
      ],
      "name": "AssetRefunded",
      "type": "event"
    },
    {
      "anonymous": false,
      "inputs": [
        {
          "indexed": true,
          "name": "receiver",
          "type": "address"
        },
        {
          "indexed": false,
          "name": "symbol",
          "type": "bytes32"
        },
        {
          "indexed": false,
          "name": "amount",
          "type": "uint256"
        }
      ],
      "name": "TrancheTransferred",
      "type": "event"
    },
    {
      "constant": false,
      "inputs": [
        {
          "name": "state",
          "type": "Fund.State storage"
        },
        {
          "name": "_invoice",
          "type": "uint256[3]"
        },
        {
          "name": "trancheFeePercent",
          "type": "uint256"
        },
        {
          "name": "serviceWallet",
          "type": "address"
        },
        {
          "name": "rates",
          "type": "IRates"
        }
      ],
      "name": "transferTranche",
      "outputs": [],
      "payable": false,
      "stateMutability": "nonpayable",
      "type": "function"
    },
    {
      "constant": true,
      "inputs": [
        {
          "name": "state",
          "type": "Fund.State storage"
        },
        {
          "name": "trancheTransferAllowed",
          "type": "bool"
        },
        {
          "name": "crowdsale",
          "type": "IW12Crowdsale"
        }
      ],
      "name": "getTrancheInvoice",
      "outputs": [
        {
          "name": "result",
          "type": "uint256[3]"
        }
      ],
      "payable": false,
      "stateMutability": "view",
      "type": "function"
    },
    {
      "constant": true,
      "inputs": [
        {
          "name": "state",
          "type": "Fund.State storage"
        },
        {
          "name": "trancheTransferAllowed",
          "type": "bool"
        },
        {
          "name": "crowdsale",
          "type": "IW12Crowdsale"
        },
        {
          "name": "index",
          "type": "uint256"
        }
      ],
      "name": "getTrancheInvoiceIndex",
      "outputs": [
        {
          "name": "result",
          "type": "uint256[3]"
        }
      ],
      "payable": false,
      "stateMutability": "view",
      "type": "function"
    },
    {
      "constant": false,
      "inputs": [
        {
          "name": "state",
          "type": "Fund.State storage"
        },
        {
          "name": "tokenAmount",
          "type": "uint256"
        },
        {
          "name": "rates",
          "type": "IRates"
        }
      ],
      "name": "refundAssets",
      "outputs": [],
      "payable": false,
      "stateMutability": "nonpayable",
      "type": "function"
    },
    {
      "constant": false,
      "inputs": [
        {
          "name": "state",
          "type": "Fund.State storage"
        },
        {
          "name": "investor",
          "type": "address"
        },
        {
          "name": "tokenAmount",
          "type": "uint256"
        },
        {
          "name": "symbol",
          "type": "bytes32"
        },
        {
          "name": "cost",
          "type": "uint256"
        },
        {
          "name": "costUSD",
          "type": "uint256"
        },
        {
          "name": "rates",
          "type": "IRates"
        }
      ],
      "name": "recordPurchase",
      "outputs": [],
      "payable": false,
      "stateMutability": "nonpayable",
      "type": "function"
    }
  ],
  "bytecode": "0x613274610030600b82828239805160001a6073146000811461002057610022565bfe5b5030600052607381538281f3007300000000000000000000000000000000000000003014608060405260043610610084576000357c0100000000000000000000000000000000000000000000000000000000900463ffffffff16806346d1230a146100895780634ff45efe1461012257806369b3e2d2146101b4578063c44660081461025a578063e0650238146102e2575b600080fd5b81801561009557600080fd5b5061012060048036038101908080359060200190929190803573ffffffffffffffffffffffffffffffffffffffff1690602001909291908035906020019092919080356000191690602001909291908035906020019092919080359060200190929190803573ffffffffffffffffffffffffffffffffffffffff169060200190929190505050610339565b005b61017660048036038101908080359060200190929190803515159060200190929190803573ffffffffffffffffffffffffffffffffffffffff16906020019092919080359060200190929190505050610c23565b6040518082600360200280838360005b838110156101a1578082015181840152602081019050610186565b5050505090500191505060405180910390f35b8180156101c057600080fd5b5061025860048036038101908080359060200190929190806060019060038060200260405190810160405280929190826003602002808284378201915050505050919291929080359060200190929190803573ffffffffffffffffffffffffffffffffffffffff169060200190929190803573ffffffffffffffffffffffffffffffffffffffff16906020019092919050505061101c565b005b6102a460048036038101908080359060200190929190803515159060200190929190803573ffffffffffffffffffffffffffffffffffffffff169060200190929190505050611d5c565b6040518082600360200280838360005b838110156102cf5780820151818401526020810190506102b4565b5050505090500191505060405180910390f35b8180156102ee57600080fd5b506103376004803603810190808035906020019092919080359060200190929190803573ffffffffffffffffffffffffffffffffffffffff1690602001909291905050506122ce565b005b60008511151561034857600080fd5b60008311151561035757600080fd5b60008211151561036657600080fd5b600073ffffffffffffffffffffffffffffffffffffffff168673ffffffffffffffffffffffffffffffffffffffff16141515156103a257600080fd5b8073ffffffffffffffffffffffffffffffffffffffff16637d20abf8856040518263ffffffff167c0100000000000000000000000000000000000000000000000000000000028152600401808260001916600019168152602001915050602060405180830381600087803b15801561041957600080fd5b505af115801561042d573d6000803e3d6000fd5b505050506040513d602081101561044357600080fd5b8101908080519060200190929190505050151561045f57600080fd5b7f455448000000000000000000000000000000000000000000000000000000000060001916846000191614156104a35782341015151561049e57600080fd5b6107c2565b8073ffffffffffffffffffffffffffffffffffffffff1663cfec719f856040518263ffffffff167c0100000000000000000000000000000000000000000000000000000000028152600401808260001916600019168152602001915050602060405180830381600087803b15801561051a57600080fd5b505af115801561052e573d6000803e3d6000fd5b505050506040513d602081101561054457600080fd5b8101908080519060200190929190505050151561056057600080fd5b61062d838860020173__FundAccount___________________________6375dff1389091886040518363ffffffff167c01000000000000000000000000000000000000000000000000000000000281526004018083815260200182600019166000191681526020019250505060206040518083038186803b1580156105e457600080fd5b505af41580156105f8573d6000803e3d6000fd5b505050506040513d602081101561060e57600080fd5b81019080805190602001909291905050506131e390919063ffffffff16565b8173ffffffffffffffffffffffffffffffffffffffff1663b12e4410866040518263ffffffff167c0100000000000000000000000000000000000000000000000000000000028152600401808260001916600019168152602001915050602060405180830381600087803b1580156106a457600080fd5b505af11580156106b8573d6000803e3d6000fd5b505050506040513d60208110156106ce57600080fd5b810190808051906020019092919050505073ffffffffffffffffffffffffffffffffffffffff166370a08231306040518263ffffffff167c0100000000000000000000000000000000000000000000000000000000028152600401808273ffffffffffffffffffffffffffffffffffffffff1673ffffffffffffffffffffffffffffffffffffffff168152602001915050602060405180830381600087803b15801561077957600080fd5b505af115801561078d573d6000803e3d6000fd5b505050506040513d60208110156107a357600080fd5b8101908080519060200190929190505050101515156107c157600080fd5b5b610816858860080160008973ffffffffffffffffffffffffffffffffffffffff1673ffffffffffffffffffffffffffffffffffffffff168152602001908152602001600020546131e390919063ffffffff16565b8760080160008873ffffffffffffffffffffffffffffffffffffffff1673ffffffffffffffffffffffffffffffffffffffff168152602001908152602001600020819055508660090160008773ffffffffffffffffffffffffffffffffffffffff1673ffffffffffffffffffffffffffffffffffffffff16815260200190815260200160002073__FundAccount___________________________6338e04660909186866040518463ffffffff167c0100000000000000000000000000000000000000000000000000000000028152600401808481526020018360001916600019168152602001828152602001935050505060006040518083038186803b15801561092057600080fd5b505af4158015610934573d6000803e3d6000fd5b505050508660090160008773ffffffffffffffffffffffffffffffffffffffff1673ffffffffffffffffffffffffffffffffffffffff16815260200190815260200160002073__FundAccount___________________________6338e0466090917f5553440000000000000000000000000000000000000000000000000000000000856040518463ffffffff167c0100000000000000000000000000000000000000000000000000000000028152600401808481526020018360001916600019168152602001828152602001935050505060006040518083038186803b158015610a1d57600080fd5b505af4158015610a31573d6000803e3d6000fd5b50505050610a4c8588600601546131e390919063ffffffff16565b87600601819055508660020173__FundAccount___________________________6338e04660909186866040518463ffffffff167c0100000000000000000000000000000000000000000000000000000000028152600401808481526020018360001916600019168152602001828152602001935050505060006040518083038186803b158015610adc57600080fd5b505af4158015610af0573d6000803e3d6000fd5b505050508660020173__FundAccount___________________________6338e0466090917f5553440000000000000000000000000000000000000000000000000000000000856040518463ffffffff167c0100000000000000000000000000000000000000000000000000000000028152600401808481526020018360001916600019168152602001828152602001935050505060006040518083038186803b158015610b9c57600080fd5b505af4158015610bb0573d6000803e3d6000fd5b505050508573ffffffffffffffffffffffffffffffffffffffff167fe2d0f4d539cb385db666a31aa9b27fd786afc933dc82ca8518d045424d6fa882868686604051808481526020018360001916600019168152602001828152602001935050505060405180910390a250505050505050565b610c2b613225565b6000806000806000881515610c3f5761100f565b8773ffffffffffffffffffffffffffffffffffffffff16632442e1cb886040518263ffffffff167c010000000000000000000000000000000000000000000000000000000002815260040180828152602001915050600060405180830381600087803b158015610cae57600080fd5b505af1158015610cc2573d6000803e3d6000fd5b505050506040513d6000823e3d601f19601f8201168201806040525060c0811015610cec57600080fd5b81019080805190602001909291908051906020019092919080519060200190929190805190602001909291908051640100000000811115610d2c57600080fd5b82810190506020810184811115610d4257600080fd5b8151856001820283011164010000000082111715610d5f57600080fd5b50509291906020018051640100000000811115610d7b57600080fd5b82810190506020810184811115610d9157600080fd5b8151856001820283011164010000000082111715610dae57600080fd5b50509291905050505050505095505089600001600088815260200190815260200160002060009054906101000a900460ff1693508315610ded5761100f565b8692505b6000831115610f9b578280600190039350508773ffffffffffffffffffffffffffffffffffffffff16632442e1cb846040518263ffffffff167c010000000000000000000000000000000000000000000000000000000002815260040180828152602001915050600060405180830381600087803b158015610e7257600080fd5b505af1158015610e86573d6000803e3d6000fd5b505050506040513d6000823e3d601f19601f8201168201806040525060c0811015610eb057600080fd5b81019080805190602001909291908051906020019092919080519060200190929190805190602001909291908051640100000000811115610ef057600080fd5b82810190506020810184811115610f0657600080fd5b8151856001820283011164010000000082111715610f2357600080fd5b50509291906020018051640100000000811115610f3f57600080fd5b82810190506020810184811115610f5557600080fd5b8151856001820283011164010000000082111715610f7257600080fd5b505092919050505050505050915050610f9481836131e390919063ffffffff16565b9150610df1565b610fc48a60010154610fb684886131e390919063ffffffff16565b61320490919063ffffffff16565b866000600381101515610fd357fe5b60200201818152505081866001600381101515610fec57fe5b6020020181815250508686600260038110151561100557fe5b6020020181815250505b5050505050949350505050565b60008060008060008960020173__FundAccount___________________________6320e1e1d190916040518263ffffffff167c01000000000000000000000000000000000000000000000000000000000281526004018082815260200191505060006040518083038186803b15801561109457600080fd5b505af41580156110a8573d6000803e3d6000fd5b505050506040513d6000823e3d601f19601f8201168201806040525060208110156110d257600080fd5b8101908080516401000000008111156110ea57600080fd5b8281019050602081018481111561110057600080fd5b815185602082028301116401000000008211171561111d57600080fd5b50509291905050505194505b600085141515611d50578960020173__FundAccount___________________________6320e1e1d190916040518263ffffffff167c01000000000000000000000000000000000000000000000000000000000281526004018082815260200191505060006040518083038186803b1580156111a357600080fd5b505af41580156111b7573d6000803e3d6000fd5b505050506040513d6000823e3d601f19601f8201168201806040525060208110156111e157600080fd5b8101908080516401000000008111156111f957600080fd5b8281019050602081018481111561120f57600080fd5b815185602082028301116401000000008211171561122c57600080fd5b5050929190505050856001900395508581518110151561124857fe5b9060200190602002015193508960020173__FundAccount___________________________6375dff1389091866040518363ffffffff167c01000000000000000000000000000000000000000000000000000000000281526004018083815260200182600019166000191681526020019250505060206040518083038186803b1580156112d457600080fd5b505af41580156112e8573d6000803e3d6000fd5b505050506040513d60208110156112fe57600080fd5b81019080805190602001909291905050509250600083141561131f57611129565b8273__Percent_______________________________6350716c0e90918b600060038110151561134b57fe5b60200201516040518363ffffffff167c0100000000000000000000000000000000000000000000000000000000028152600401808381526020018281526020019250505060206040518083038186803b1580156113a757600080fd5b505af41580156113bb573d6000803e3d6000fd5b505050506040513d60208110156113d157600080fd5b810190808051906020019092919050505091506000821115156113f357600080fd5b73__Utils_________________________________63bda4e6196114288c600701548d6006015461320490919063ffffffff16565b848d600601546040518463ffffffff167c010000000000000000000000000000000000000000000000000000000002815260040180848152602001838152602001828152602001935050505060206040518083038186803b15801561148c57600080fd5b505af41580156114a0573d6000803e3d6000fd5b505050506040513d60208110156114b657600080fd5b810190808051906020019092919050505092506000831115156114d857600080fd5b611508838b60050160008760001916600019168152602001908152602001600020546131e390919063ffffffff16565b8a60050160008660001916600019168152602001908152602001600020819055507f5553440000000000000000000000000000000000000000000000000000000000600019168460001916141561155e57611129565b7f45544800000000000000000000000000000000000000000000000000000000006000191684600019161415156117e2578573ffffffffffffffffffffffffffffffffffffffff1663cfec719f856040518263ffffffff167c0100000000000000000000000000000000000000000000000000000000028152600401808260001916600019168152602001915050602060405180830381600087803b15801561160657600080fd5b505af115801561161a573d6000803e3d6000fd5b505050506040513d602081101561163057600080fd5b8101908080519060200190929190505050151561164c57600080fd5b828673ffffffffffffffffffffffffffffffffffffffff1663b12e4410866040518263ffffffff167c0100000000000000000000000000000000000000000000000000000000028152600401808260001916600019168152602001915050602060405180830381600087803b1580156116c457600080fd5b505af11580156116d8573d6000803e3d6000fd5b505050506040513d60208110156116ee57600080fd5b810190808051906020019092919050505073ffffffffffffffffffffffffffffffffffffffff166370a08231306040518263ffffffff167c0100000000000000000000000000000000000000000000000000000000028152600401808273ffffffffffffffffffffffffffffffffffffffff1673ffffffffffffffffffffffffffffffffffffffff168152602001915050602060405180830381600087803b15801561179957600080fd5b505af11580156117ad573d6000803e3d6000fd5b505050506040513d60208110156117c357600080fd5b8101908080519060200190929190505050101515156117e157600080fd5b5b600088116117f15760006118a2565b8273__Percent_______________________________6350716c0e90918a6040518363ffffffff167c0100000000000000000000000000000000000000000000000000000000028152600401808381526020018281526020019250505060206040518083038186803b15801561186657600080fd5b505af415801561187a573d6000803e3d6000fd5b505050506040513d602081101561189057600080fd5b81019080805190602001909291905050505b905060008811156118bd576000811115156118bc57600080fd5b5b7f4554480000000000000000000000000000000000000000000000000000000000600019168460001916141561199c57600081111561193e578673ffffffffffffffffffffffffffffffffffffffff166108fc829081150290604051600060405180830381858888f1935050505015801561193c573d6000803e3d6000fd5b505b3373ffffffffffffffffffffffffffffffffffffffff166108fc61196b838661320490919063ffffffff16565b9081150290604051600060405180830381858888f19350505050158015611996573d6000803e3d6000fd5b50611ced565b6000811115611b40578573ffffffffffffffffffffffffffffffffffffffff1663b12e4410856040518263ffffffff167c0100000000000000000000000000000000000000000000000000000000028152600401808260001916600019168152602001915050602060405180830381600087803b158015611a1c57600080fd5b505af1158015611a30573d6000803e3d6000fd5b505050506040513d6020811015611a4657600080fd5b810190808051906020019092919050505073ffffffffffffffffffffffffffffffffffffffff1663a9059cbb88836040518363ffffffff167c0100000000000000000000000000000000000000000000000000000000028152600401808373ffffffffffffffffffffffffffffffffffffffff1673ffffffffffffffffffffffffffffffffffffffff16815260200182815260200192505050602060405180830381600087803b158015611af957600080fd5b505af1158015611b0d573d6000803e3d6000fd5b505050506040513d6020811015611b2357600080fd5b81019080805190602001909291905050501515611b3f57600080fd5b5b8573ffffffffffffffffffffffffffffffffffffffff1663b12e4410856040518263ffffffff167c0100000000000000000000000000000000000000000000000000000000028152600401808260001916600019168152602001915050602060405180830381600087803b158015611bb757600080fd5b505af1158015611bcb573d6000803e3d6000fd5b505050506040513d6020811015611be157600080fd5b810190808051906020019092919050505073ffffffffffffffffffffffffffffffffffffffff1663a9059cbb33611c21848761320490919063ffffffff16565b6040518363ffffffff167c0100000000000000000000000000000000000000000000000000000000028152600401808373ffffffffffffffffffffffffffffffffffffffff1673ffffffffffffffffffffffffffffffffffffffff16815260200182815260200192505050602060405180830381600087803b158015611ca657600080fd5b505af1158015611cba573d6000803e3d6000fd5b505050506040513d6020811015611cd057600080fd5b81019080805190602001909291905050501515611cec57600080fd5b5b3373ffffffffffffffffffffffffffffffffffffffff167f17e68c82fdc39ec76fff0be24ead989575d8eec009a729fa4bd738bc1f6a2dbb85856040518083600019166000191681526020018281526020019250505060405180910390a2611129565b50505050505050505050565b611d64613225565b6000806000806000806000891515611d7b576122c0565b8873ffffffffffffffffffffffffffffffffffffffff1663d6d65f3d6040518163ffffffff167c01000000000000000000000000000000000000000000000000000000000281526004016040805180830381600087803b158015611dde57600080fd5b505af1158015611df2573d6000803e3d6000fd5b505050506040513d6040811015611e0857600080fd5b8101908080519060200190929190805190602001909291905050505096508873ffffffffffffffffffffffffffffffffffffffff166314f66d346040518163ffffffff167c01000000000000000000000000000000000000000000000000000000000281526004016040805180830381600087803b158015611e8957600080fd5b505af1158015611e9d573d6000803e3d6000fd5b505050506040513d6040811015611eb357600080fd5b8101908080519060200190929190805190602001909291905050505095506000871480611edf57508686145b611eec5760018703611eee565b865b96508873ffffffffffffffffffffffffffffffffffffffff16632442e1cb886040518263ffffffff167c010000000000000000000000000000000000000000000000000000000002815260040180828152602001915050600060405180830381600087803b158015611f5f57600080fd5b505af1158015611f73573d6000803e3d6000fd5b505050506040513d6000823e3d601f19601f8201168201806040525060c0811015611f9d57600080fd5b81019080805190602001909291908051906020019092919080519060200190929190805190602001909291908051640100000000811115611fdd57600080fd5b82810190506020810184811115611ff357600080fd5b815185600182028301116401000000008211171561201057600080fd5b5050929190602001805164010000000081111561202c57600080fd5b8281019050602081018481111561204257600080fd5b815185600182028301116401000000008211171561205f57600080fd5b5050929190505050505050509550508a600001600088815260200190815260200160002060009054906101000a900460ff169350831561209e576122c0565b8692505b600083111561224c578280600190039350508873ffffffffffffffffffffffffffffffffffffffff16632442e1cb846040518263ffffffff167c010000000000000000000000000000000000000000000000000000000002815260040180828152602001915050600060405180830381600087803b15801561212357600080fd5b505af1158015612137573d6000803e3d6000fd5b505050506040513d6000823e3d601f19601f8201168201806040525060c081101561216157600080fd5b810190808051906020019092919080519060200190929190805190602001909291908051906020019092919080516401000000008111156121a157600080fd5b828101905060208101848111156121b757600080fd5b81518560018202830111640100000000821117156121d457600080fd5b505092919060200180516401000000008111156121f057600080fd5b8281019050602081018481111561220657600080fd5b815185600182028301116401000000008211171561222357600080fd5b50509291905050505050505091505061224581836131e390919063ffffffff16565b91506120a2565b6122758b6001015461226784886131e390919063ffffffff16565b61320490919063ffffffff16565b88600060038110151561228457fe5b6020020181815250508188600160038110151561229d57fe5b602002018181525050868860026003811015156122b657fe5b6020020181815250505b505050505050509392505050565b60008060008060008760090160003373ffffffffffffffffffffffffffffffffffffffff1673ffffffffffffffffffffffffffffffffffffffff16815260200190815260200160002073__FundAccount___________________________6320e1e1d190916040518263ffffffff167c01000000000000000000000000000000000000000000000000000000000281526004018082815260200191505060006040518083038186803b15801561238357600080fd5b505af4158015612397573d6000803e3d6000fd5b505050506040513d6000823e3d601f19601f8201168201806040525060208110156123c157600080fd5b8101908080516401000000008111156123d957600080fd5b828101905060208101848111156123ef57600080fd5b815185602082028301116401000000008211171561240c57600080fd5b50509291905050505194505b6000851415156131d9578760090160003373ffffffffffffffffffffffffffffffffffffffff1673ffffffffffffffffffffffffffffffffffffffff16815260200190815260200160002073__FundAccount___________________________6320e1e1d190916040518263ffffffff167c01000000000000000000000000000000000000000000000000000000000281526004018082815260200191505060006040518083038186803b1580156124cf57600080fd5b505af41580156124e3573d6000803e3d6000fd5b505050506040513d6000823e3d601f19601f82011682018060405250602081101561250d57600080fd5b81019080805164010000000081111561252557600080fd5b8281019050602081018481111561253b57600080fd5b815185602082028301116401000000008211171561255857600080fd5b5050929190505050856001900395508581518110151561257457fe5b9060200190602002015193508760090160003373ffffffffffffffffffffffffffffffffffffffff1673ffffffffffffffffffffffffffffffffffffffff16815260200190815260200160002073__FundAccount___________________________6375dff1389091866040518363ffffffff167c01000000000000000000000000000000000000000000000000000000000281526004018083815260200182600019166000191681526020019250505060206040518083038186803b15801561263d57600080fd5b505af4158015612651573d6000803e3d6000fd5b505050506040513d602081101561266757600080fd5b81019080805190602001909291905050509250600083141561268857612418565b73__Utils_________________________________63bda4e61988858b60080160003373ffffffffffffffffffffffffffffffffffffffff1673ffffffffffffffffffffffffffffffffffffffff168152602001908152602001600020546040518463ffffffff167c010000000000000000000000000000000000000000000000000000000002815260040180848152602001838152602001828152602001935050505060206040518083038186803b15801561274457600080fd5b505af4158015612758573d6000803e3d6000fd5b505050506040513d602081101561276e57600080fd5b8101908080519060200190929190505050915060008211151561279057600080fd5b8760020173__FundAccount___________________________6375dff1389091866040518363ffffffff167c01000000000000000000000000000000000000000000000000000000000281526004018083815260200182600019166000191681526020019250505060206040518083038186803b15801561281057600080fd5b505af4158015612824573d6000803e3d6000fd5b505050506040513d602081101561283a57600080fd5b810190808051906020019092919050505073__Percent_______________________________6350716c0e90918a600101546040518363ffffffff167c0100000000000000000000000000000000000000000000000000000000028152600401808381526020018281526020019250505060206040518083038186803b1580156128c357600080fd5b505af41580156128d7573d6000803e3d6000fd5b505050506040513d60208110156128ed57600080fd5b8101908080519060200190929190505050905073__Utils_________________________________63bda4e6196129e7838b60020173__FundAccount___________________________6375dff13890918a6040518363ffffffff167c01000000000000000000000000000000000000000000000000000000000281526004018083815260200182600019166000191681526020019250505060206040518083038186803b15801561299e57600080fd5b505af41580156129b2573d6000803e3d6000fd5b505050506040513d60208110156129c857600080fd5b810190808051906020019092919050505061320490919063ffffffff16565b848b60020173__FundAccount___________________________6375dff13890918a6040518363ffffffff167c01000000000000000000000000000000000000000000000000000000000281526004018083815260200182600019166000191681526020019250505060206040518083038186803b158015612a6857600080fd5b505af4158015612a7c573d6000803e3d6000fd5b505050506040513d6020811015612a9257600080fd5b81019080805190602001909291905050506040518463ffffffff167c010000000000000000000000000000000000000000000000000000000002815260040180848152602001838152602001828152602001935050505060206040518083038186803b158015612b0157600080fd5b505af4158015612b15573d6000803e3d6000fd5b505050506040513d6020811015612b2b57600080fd5b81019080805190602001909291905050509250600083111515612b4d57600080fd5b612b7d838960050160008760001916600019168152602001908152602001600020546131e390919063ffffffff16565b8860050160008660001916600019168152602001908152602001600020819055508760090160003373ffffffffffffffffffffffffffffffffffffffff1673ffffffffffffffffffffffffffffffffffffffff16815260200190815260200160002073__FundAccount___________________________636e286eaf909186856040518463ffffffff167c0100000000000000000000000000000000000000000000000000000000028152600401808481526020018360001916600019168152602001828152602001935050505060006040518083038186803b158015612c6357600080fd5b505af4158015612c77573d6000803e3d6000fd5b505050507f55534400000000000000000000000000000000000000000000000000000000006000191684600019161415612cb057612418565b7f4554480000000000000000000000000000000000000000000000000000000000600019168460001916141515612f38578573ffffffffffffffffffffffffffffffffffffffff1663cfec719f856040518263ffffffff167c0100000000000000000000000000000000000000000000000000000000028152600401808260001916600019168152602001915050602060405180830381600087803b158015612d5857600080fd5b505af1158015612d6c573d6000803e3d6000fd5b505050506040513d6020811015612d8257600080fd5b81019080805190602001909291905050501515612d9e57600080fd5b828673ffffffffffffffffffffffffffffffffffffffff1663b12e4410866040518263ffffffff167c0100000000000000000000000000000000000000000000000000000000028152600401808260001916600019168152602001915050602060405180830381600087803b158015612e1657600080fd5b505af1158015612e2a573d6000803e3d6000fd5b505050506040513d6020811015612e4057600080fd5b810190808051906020019092919050505073ffffffffffffffffffffffffffffffffffffffff166370a08231306040518263ffffffff167c0100000000000000000000000000000000000000000000000000000000028152600401808273ffffffffffffffffffffffffffffffffffffffff1673ffffffffffffffffffffffffffffffffffffffff168152602001915050602060405180830381600087803b158015612eeb57600080fd5b505af1158015612eff573d6000803e3d6000fd5b505050506040513d6020811015612f1557600080fd5b810190808051906020019092919050505010151515612f3357600080fd5b612f5f565b823073ffffffffffffffffffffffffffffffffffffffff163110151515612f5e57600080fd5b5b7f45544800000000000000000000000000000000000000000000000000000000006000191684600019161415612fdb573373ffffffffffffffffffffffffffffffffffffffff166108fc849081150290604051600060405180830381858888f19350505050158015612fd5573d6000803e3d6000fd5b50613176565b8573ffffffffffffffffffffffffffffffffffffffff1663b12e4410856040518263ffffffff167c0100000000000000000000000000000000000000000000000000000000028152600401808260001916600019168152602001915050602060405180830381600087803b15801561305257600080fd5b505af1158015613066573d6000803e3d6000fd5b505050506040513d602081101561307c57600080fd5b810190808051906020019092919050505073ffffffffffffffffffffffffffffffffffffffff1663a9059cbb33856040518363ffffffff167c0100000000000000000000000000000000000000000000000000000000028152600401808373ffffffffffffffffffffffffffffffffffffffff1673ffffffffffffffffffffffffffffffffffffffff16815260200182815260200192505050602060405180830381600087803b15801561312f57600080fd5b505af1158015613143573d6000803e3d6000fd5b505050506040513d602081101561315957600080fd5b8101908080519060200190929190505050151561317557600080fd5b5b3373ffffffffffffffffffffffffffffffffffffffff167fd434f0d1dd08e14b2acdd7a506c6e8b6edaf1a5825d23ca9b5e51a9ad883f71c85856040518083600019166000191681526020018281526020019250505060405180910390a2612418565b5050505050505050565b60008082840190508381101515156131fa57600080fd5b8091505092915050565b60008083831115151561321657600080fd5b82840390508091505092915050565b6060604051908101604052806003906020820280388339808201915050905050905600a165627a7a723058209fec07cd63c86ef262636ae404555d71f0cdb4e937f7b840d1a0d62e3fad3a7f0029",
  "source": "pragma solidity 0.4.24;\n\nimport \"openzeppelin-solidity/contracts/token/ERC20/IERC20.sol\";\nimport \"openzeppelin-solidity/contracts/math/SafeMath.sol\";\nimport \"../crowdsale/IW12Crowdsale.sol\";\nimport \"../rates/IRates.sol\";\nimport \"./Utils.sol\";\nimport \"./Percent.sol\";\nimport \"./FundAccount.sol\";\n\n\nlibrary Fund {\n    using SafeMath for uint;\n    using Percent for uint;\n    using FundAccount for FundAccount.Account;\n\n    bytes32 constant private METHOD_ETH = bytes32(\"ETH\");\n    bytes32 constant private METHOD_USD = bytes32(\"USD\");\n\n    struct State {\n        mapping(uint => bool) completedTranches;\n        uint totalTranchePercentReleased;\n        FundAccount.Account totalFunded;\n        mapping(bytes32 => uint) totalFundedReleased;\n        uint totalTokenBought;\n        uint totalTokenRefunded;\n        mapping(address => uint) tokenBoughtPerInvestor;\n        mapping(address => FundAccount.Account) fundedPerInvestor;\n    }\n\n    event FundsReceived(address indexed investor, uint tokenAmount, bytes32 symbol, uint cost);\n    event AssetRefunded(address indexed investor, bytes32 symbol, uint amount);\n    event TrancheTransferred(address indexed receiver, bytes32 symbol, uint amount);\n\n    // solhint-disable code-complexity\n    function transferTranche(\n        State storage state,\n        uint[3] _invoice,\n        uint trancheFeePercent,\n        address serviceWallet,\n        IRates rates\n    ) public {\n        uint ln = state.totalFunded.symbolsList().length;\n\n        while (ln != 0) {\n            bytes32 symbol = state.totalFunded.symbolsList()[--ln];\n            uint amount = state.totalFunded.amountOf(symbol);\n\n            if (amount == 0) continue;\n\n            uint sourceAmount = amount.safePercent(_invoice[0]);\n\n            require(sourceAmount > 0);\n\n            amount = Utils.safeMulDiv(\n                state.totalTokenBought.sub(state.totalTokenRefunded),\n                sourceAmount,\n                state.totalTokenBought\n            );\n\n            require(amount > 0);\n\n            state.totalFundedReleased[symbol] = state.totalFundedReleased[symbol].add(amount);\n\n            if (symbol == METHOD_USD) continue;\n\n            if (symbol != METHOD_ETH) {\n                require(rates.isToken(symbol));\n                require(IERC20(rates.getTokenAddress(symbol)).balanceOf(address(this)) >= amount);\n            }\n\n            uint fee = trancheFeePercent > 0\n                ? amount.safePercent(trancheFeePercent)\n                : 0;\n\n            if (trancheFeePercent > 0) require(fee > 0);\n\n            if (symbol == METHOD_ETH) {\n                if (fee > 0) serviceWallet.transfer(fee);\n                msg.sender.transfer(amount.sub(fee));\n            } else {\n                if (fee > 0) require(IERC20(rates.getTokenAddress(symbol)).transfer(serviceWallet, fee));\n                require(IERC20(rates.getTokenAddress(symbol)).transfer(msg.sender, amount.sub(fee)));\n            }\n\n            emit TrancheTransferred(msg.sender, symbol, amount);\n        }\n    }\n    // solhint-enable code-complexity\n\n    function getTrancheInvoice(\n        State storage state,\n        bool trancheTransferAllowed,\n        IW12Crowdsale crowdsale\n    ) public view returns (uint[3] result) {\n        if (!trancheTransferAllowed) return;\n\n        (uint index, /*bool found*/) = crowdsale.getCurrentMilestoneIndex();\n        (uint lastIndex, /*bool found*/) = crowdsale.getLastMilestoneIndex();\n\n        // get percent from prev milestone\n        index = index == 0 || lastIndex == index ? index : index - 1;\n\n        (, uint tranchePercent, , , , ) = crowdsale.getMilestone(index);\n\n        bool completed = state.completedTranches[index];\n\n        if (completed) return;\n\n        uint prevIndex = index;\n        uint totalTranchePercentBefore;\n\n        while (prevIndex > 0) {\n            prevIndex--;\n\n            (, uint _tranchePercent, , , , ) = crowdsale.getMilestone(prevIndex);\n\n            totalTranchePercentBefore = totalTranchePercentBefore.add(_tranchePercent);\n        }\n\n        result[0] = tranchePercent\n            .add(totalTranchePercentBefore)\n            .sub(state.totalTranchePercentReleased);\n        result[1] = totalTranchePercentBefore;\n        result[2] = index;\n    }\n\n\n    function getTrancheInvoiceIndex(\n        State storage state,\n        bool trancheTransferAllowed,\n        IW12Crowdsale crowdsale,\n        uint index\n    ) public view returns (uint[3] result)\n    {\n        if (!trancheTransferAllowed) return;\n\n        (, uint tranchePercent, , , , ) = crowdsale.getMilestone(index);\n\n        bool completed = state.completedTranches[index];\n\n        if (completed) return;\n\n        uint prevIndex = index;\n        uint totalTranchePercentBefore;\n\n        while (prevIndex > 0) {\n            prevIndex--;\n\n            (, uint _tranchePercent, , , , ) = crowdsale.getMilestone(prevIndex);\n\n            totalTranchePercentBefore = totalTranchePercentBefore.add(_tranchePercent);\n        }\n\n        result[0] = tranchePercent\n            .add(totalTranchePercentBefore)\n            .sub(state.totalTranchePercentReleased);\n        result[1] = totalTranchePercentBefore;\n        result[2] = index;\n    }\n\n    function refundAssets(\n        State storage state,\n        uint tokenAmount,\n        IRates rates\n    ) public {\n        uint ln = state.fundedPerInvestor[msg.sender].symbolsList().length;\n\n        while (ln != 0) {\n            bytes32 symbol = state.fundedPerInvestor[msg.sender].symbolsList()[--ln];\n            uint amount = state.fundedPerInvestor[msg.sender].amountOf(symbol);\n\n            if (amount == 0) continue;\n\n            // get source amount\n            uint sourceAmount = Utils.safeMulDiv(\n                tokenAmount,\n                amount,\n                state.tokenBoughtPerInvestor[msg.sender]\n            );\n\n            require(sourceAmount > 0);\n\n            // get released tranche amount in current currency\n            uint releasedTranche = state.totalFunded\n                .amountOf(symbol)\n                .safePercent(state.totalTranchePercentReleased);\n\n            // get amount minus released tranche\n            amount = Utils.safeMulDiv(\n                state.totalFunded.amountOf(symbol).sub(releasedTranche),\n                sourceAmount,\n                state.totalFunded.amountOf(symbol)\n            );\n\n            require(amount > 0);\n\n            state.totalFundedReleased[symbol] = state.totalFundedReleased[symbol].add(amount);\n            state.fundedPerInvestor[msg.sender].withdrawal(symbol, sourceAmount);\n\n            if (symbol == METHOD_USD) continue;\n\n            if (symbol != METHOD_ETH) {\n                require(rates.isToken(symbol));\n                require(IERC20(rates.getTokenAddress(symbol)).balanceOf(address(this)) >= amount);\n            } else {\n                require(address(this).balance >= amount);\n            }\n\n            if (symbol == METHOD_ETH) {\n                msg.sender.transfer(amount);\n            } else {\n                require(IERC20(rates.getTokenAddress(symbol)).transfer(msg.sender, amount));\n            }\n\n            emit AssetRefunded(msg.sender, symbol, amount);\n        }\n    }\n\n    function recordPurchase(\n        State storage state,\n        address investor,\n        uint tokenAmount,\n        bytes32 symbol,\n        uint cost,\n        uint costUSD,\n        IRates rates\n    )\n        public\n    {\n        require(tokenAmount > 0);\n        require(cost > 0);\n        require(costUSD > 0);\n        require(investor != address(0));\n        require(rates.hasSymbol(symbol));\n\n        // check payment\n        if (symbol == METHOD_ETH) {\n            require(msg.value >= cost);\n        } else {\n            require(rates.isToken(symbol));\n            require(\n                IERC20(rates.getTokenAddress(symbol))\n                    .balanceOf(address(this))\n                        >= state.totalFunded.amountOf(symbol).add(cost));\n        }\n\n        // write to investor account\n        state.tokenBoughtPerInvestor[investor] = state.tokenBoughtPerInvestor[investor].add(tokenAmount);\n        state.fundedPerInvestor[investor].deposit(symbol, cost);\n        state.fundedPerInvestor[investor].deposit(METHOD_USD, costUSD);\n\n        // write to total fund\n        state.totalTokenBought = state.totalTokenBought.add(tokenAmount);\n        state.totalFunded.deposit(symbol, cost);\n        state.totalFunded.deposit(METHOD_USD, costUSD);\n\n        emit FundsReceived(investor, tokenAmount, symbol, cost);\n    }\n}\n",
  "sourcePath": "/Users/gauss/_games/w12/Protocol/contracts/libs/Fund.sol",
  "compiler": {
    "name": "solc",
    "version": "0.4.24+commit.e67f0147.Emscripten.clang"
  },
  "schemaVersion": "3.0.16",
  "updatedAt": "2019-11-17T18:33:01.056Z",
  "devdoc": {
    "methods": {}
  },
  "userdoc": {
    "methods": {}
  }
}