{
  "contractName": "FundAccount",
  "abi": [
    {
      "constant": false,
      "inputs": [
        {
          "name": "_account",
          "type": "FundAccount.Account storage"
        },
        {
          "name": "_symbol",
          "type": "bytes32"
        },
        {
          "name": "_amount",
          "type": "uint256"
        }
      ],
      "name": "deposit",
      "outputs": [],
      "payable": false,
      "stateMutability": "nonpayable",
      "type": "function"
    },
    {
      "constant": false,
      "inputs": [
        {
          "name": "_account",
          "type": "FundAccount.Account storage"
        },
        {
          "name": "_symbol",
          "type": "bytes32"
        },
        {
          "name": "_amount",
          "type": "uint256"
        }
      ],
      "name": "withdrawal",
      "outputs": [],
      "payable": false,
      "stateMutability": "nonpayable",
      "type": "function"
    },
    {
      "constant": true,
      "inputs": [
        {
          "name": "_account",
          "type": "FundAccount.Account storage"
        },
        {
          "name": "_symbol",
          "type": "bytes32"
        }
      ],
      "name": "hasDepositIn",
      "outputs": [
        {
          "name": "",
          "type": "bool"
        }
      ],
      "payable": false,
      "stateMutability": "view",
      "type": "function"
    },
    {
      "constant": true,
      "inputs": [
        {
          "name": "_account",
          "type": "FundAccount.Account storage"
        },
        {
          "name": "_symbol",
          "type": "bytes32"
        }
      ],
      "name": "amountOf",
      "outputs": [
        {
          "name": "",
          "type": "uint256"
        }
      ],
      "payable": false,
      "stateMutability": "view",
      "type": "function"
    },
    {
      "constant": true,
      "inputs": [
        {
          "name": "_account",
          "type": "FundAccount.Account storage"
        }
      ],
      "name": "symbolsList",
      "outputs": [
        {
          "name": "",
          "type": "bytes32[]"
        }
      ],
      "payable": false,
      "stateMutability": "view",
      "type": "function"
    },
    {
      "constant": false,
      "inputs": [
        {
          "name": "_account",
          "type": "FundAccount.Account storage"
        },
        {
          "name": "_symbol",
          "type": "bytes32"
        }
      ],
      "name": "_writeSymbol",
      "outputs": [],
      "payable": false,
      "stateMutability": "nonpayable",
      "type": "function"
    }
  ],
  "bytecode": "0x6104e3610030600b82828239805160001a6073146000811461002057610022565bfe5b5030600052607381538281f300730000000000000000000000000000000000000000301460806040526004361061008f576000357c0100000000000000000000000000000000000000000000000000000000900463ffffffff16806320e1e1d11461009457806338e04660146101095780636e286eaf1461014e57806370b3ef341461019357806375dff138146101d9578063f4983ca81461021b575b600080fd5b6100b260048036038101908080359060200190929190505050610256565b6040518080602001828103825283818151815260200191508051906020019060200280838360005b838110156100f55780820151818401526020810190506100da565b505050509050019250505060405180910390f35b81801561011557600080fd5b5061014c600480360381019080803590602001909291908035600019169060200190929190803590602001909291905050506102b6565b005b81801561015a57600080fd5b5061019160048036038101908080359060200190929190803560001916906020019092919080359060200190929190505050610316565b005b6101bf600480360381019080803590602001909291908035600019169060200190929190505050610399565b604051808215151515815260200191505060405180910390f35b6102056004803603810190808035906020019092919080356000191690602001909291905050506103ce565b6040518082815260200191505060405180910390f35b81801561022757600080fd5b506102546004803603810190808035906020019092919080356000191690602001909291905050506103f6565b005b6060816000018054806020026020016040519081016040528092919081815260200182805480156102aa57602002820191906000526020600020905b81546000191681526020019060010190808311610292575b50505050509050919050565b6102c083836103f6565b6102f08184600201600085600019166000191681526020019081526020016000205461047590919063ffffffff16565b836002016000846000191660001916815260200190815260200160002081905550505050565b6103208383610399565b151561032b57600080fd5b8061033684846103ce565b1015151561034357600080fd5b6103738184600201600085600019166000191681526020019081526020016000205461049690919063ffffffff16565b836002016000846000191660001916815260200190815260200160002081905550505050565b6000826001016000836000191660001916815260200190815260200160002060009054906101000a900460ff16905092915050565b6000826002016000836000191660001916815260200190815260200160002054905092915050565b6104008282610399565b151561047157816000018190806001815401808255809150509060018203906000526020600020016000909192909190915090600019169055506001826001016000836000191660001916815260200190815260200160002060006101000a81548160ff0219169083151502179055505b5050565b600080828401905083811015151561048c57600080fd5b8091505092915050565b6000808383111515156104a857600080fd5b828403905080915050929150505600a165627a7a7230582046866df0aa77265269b25666899d18f27a1be9000b406b5eedd7a0a1cfe6ef080029",
  "source": "pragma solidity 0.4.24;\n\nimport \"openzeppelin-solidity/contracts/math/SafeMath.sol\";\n\n\nlibrary FundAccount {\n    using SafeMath for uint;\n\n    struct Account {\n        bytes32[] _symbolsList;\n        mapping ( bytes32 => bool ) symbols;\n        mapping ( bytes32 => uint ) amount;\n    }\n\n    function deposit(Account storage _account, bytes32 _symbol, uint _amount) public {\n        _writeSymbol(_account, _symbol);\n\n        _account.amount[_symbol] = _account.amount[_symbol].add(_amount);\n    }\n\n    function withdrawal(Account storage _account, bytes32 _symbol, uint _amount) public {\n        require(hasDepositIn(_account, _symbol));\n        require(amountOf(_account, _symbol) >= _amount);\n\n        _account.amount[_symbol] = _account.amount[_symbol].sub(_amount);\n    }\n\n    function hasDepositIn(Account storage _account, bytes32 _symbol) public view returns(bool) {\n        return _account.symbols[_symbol];\n    }\n\n    function amountOf(Account storage _account, bytes32 _symbol) public view returns(uint) {\n        return _account.amount[_symbol];\n    }\n\n    function symbolsList(Account storage _account) public view returns(bytes32[]) {\n        return _account._symbolsList;\n    }\n\n    function _writeSymbol(Account storage _account, bytes32 _symbol) public {\n        if (!hasDepositIn(_account, _symbol)) {\n            _account._symbolsList.push(_symbol);\n            _account.symbols[_symbol] = true;\n        }\n    }\n}\n",
  "sourcePath": "/Users/gauss/_games/w12/W12-Product-Blockchain-Protocol/contracts/libs/FundAccount.sol",
  "compiler": {
    "name": "solc",
    "version": "0.4.24+commit.e67f0147.Emscripten.clang"
  },
  "schemaVersion": "3.0.10",
  "updatedAt": "2019-06-17T16:23:09.016Z",
  "devdoc": {
    "methods": {}
  },
  "userdoc": {
    "methods": {}
  }
}