{
  "contractName": "FundAccount",
  "abi": [
    {
      "constant": false,
      "inputs": [
        {
          "name": "_account",
          "type": "FundAccount.Account storage"
        },
        {
          "name": "_symbol",
          "type": "bytes32"
        },
        {
          "name": "_amount",
          "type": "uint256"
        }
      ],
      "name": "deposit",
      "outputs": [],
      "payable": false,
      "stateMutability": "nonpayable",
      "type": "function"
    },
    {
      "constant": false,
      "inputs": [
        {
          "name": "_account",
          "type": "FundAccount.Account storage"
        },
        {
          "name": "_symbol",
          "type": "bytes32"
        },
        {
          "name": "_amount",
          "type": "uint256"
        }
      ],
      "name": "withdrawal",
      "outputs": [],
      "payable": false,
      "stateMutability": "nonpayable",
      "type": "function"
    },
    {
      "constant": true,
      "inputs": [
        {
          "name": "_account",
          "type": "FundAccount.Account storage"
        },
        {
          "name": "_symbol",
          "type": "bytes32"
        }
      ],
      "name": "hasDepositIn",
      "outputs": [
        {
          "name": "",
          "type": "bool"
        }
      ],
      "payable": false,
      "stateMutability": "view",
      "type": "function"
    },
    {
      "constant": true,
      "inputs": [
        {
          "name": "_account",
          "type": "FundAccount.Account storage"
        },
        {
          "name": "_symbol",
          "type": "bytes32"
        }
      ],
      "name": "amountOf",
      "outputs": [
        {
          "name": "",
          "type": "uint256"
        }
      ],
      "payable": false,
      "stateMutability": "view",
      "type": "function"
    },
    {
      "constant": true,
      "inputs": [
        {
          "name": "_account",
          "type": "FundAccount.Account storage"
        }
      ],
      "name": "symbolsList",
      "outputs": [
        {
          "name": "",
          "type": "bytes32[]"
        }
      ],
      "payable": false,
      "stateMutability": "view",
      "type": "function"
    },
    {
      "constant": false,
      "inputs": [
        {
          "name": "_account",
          "type": "FundAccount.Account storage"
        },
        {
          "name": "_symbol",
          "type": "bytes32"
        }
      ],
      "name": "_writeSymbol",
      "outputs": [],
      "payable": false,
      "stateMutability": "nonpayable",
      "type": "function"
    }
  ],
  "bytecode": "0x610344610030600b82828239805160001a6073146000811461002057610022565bfe5b5030600052607381538281f300730000000000000000000000000000000000000000301460806040526004361061008e5763ffffffff7c010000000000000000000000000000000000000000000000000000000060003504166320e1e1d1811461009357806338e04660146100ee5780636e286eaf1461010e57806370b3ef341461012c57806375dff1381461014e578063f4983ca81461016e575b600080fd5b61009e600435610189565b60408051602080825283518183015283519192839290830191858101910280838360005b838110156100da5781810151838201526020016100c2565b505050509050019250505060405180910390f35b8180156100fa57600080fd5b5061010c6004356024356044356101e6565b005b81801561011a57600080fd5b5061010c600435602435604435610226565b61013a600435602435610272565b604080519115158252519081900360200190f35b61015c60043560243561028b565b60408051918252519081900360200190f35b81801561017a57600080fd5b5061010c6004356024356102a1565b6060816000018054806020026020016040519081016040528092919081815260200182805480156101da57602002820191906000526020600020905b815481526001909101906020018083116101c5575b50505050509050919050565b6101f083836102a1565b6000828152600284016020526040902054610211908263ffffffff6102e816565b60009283526002909301602052506040902055565b6102308383610272565b151561023b57600080fd5b80610246848461028b565b101561025157600080fd5b6000828152600284016020526040902054610211908263ffffffff61030116565b6000908152600191909101602052604090205460ff1690565b6000908152600291909101602052604090205490565b6102ab8282610272565b15156102e457815460018181018455600084815260208082209093018490558381528185019092526040909120805460ff191690911790555b5050565b6000828201838110156102fa57600080fd5b9392505050565b6000808383111561031157600080fd5b50509003905600a165627a7a72305820daf9e6f414e0472eaaa3b65e04cdb7c4dc6bf2d3317021c0f092c07aefa7082d0029",
  "source": "pragma solidity 0.4.24;\n\nimport \"openzeppelin-solidity/contracts/math/SafeMath.sol\";\n\n\nlibrary FundAccount {\n    using SafeMath for uint;\n\n    struct Account {\n        bytes32[] _symbolsList;\n        mapping ( bytes32 => bool ) symbols;\n        mapping ( bytes32 => uint ) amount;\n    }\n\n    function deposit(Account storage _account, bytes32 _symbol, uint _amount) public {\n        _writeSymbol(_account, _symbol);\n\n        _account.amount[_symbol] = _account.amount[_symbol].add(_amount);\n    }\n\n    function withdrawal(Account storage _account, bytes32 _symbol, uint _amount) public {\n        require(hasDepositIn(_account, _symbol));\n        require(amountOf(_account, _symbol) >= _amount);\n\n        _account.amount[_symbol] = _account.amount[_symbol].sub(_amount);\n    }\n\n    function hasDepositIn(Account storage _account, bytes32 _symbol) public view returns(bool) {\n        return _account.symbols[_symbol];\n    }\n\n    function amountOf(Account storage _account, bytes32 _symbol) public view returns(uint) {\n        return _account.amount[_symbol];\n    }\n\n    function symbolsList(Account storage _account) public view returns(bytes32[]) {\n        return _account._symbolsList;\n    }\n\n    function _writeSymbol(Account storage _account, bytes32 _symbol) public {\n        if (!hasDepositIn(_account, _symbol)) {\n            _account._symbolsList.push(_symbol);\n            _account.symbols[_symbol] = true;\n        }\n    }\n}\n",
  "sourcePath": "/Users/gauss/_games/w12/Protocol/contracts/libs/FundAccount.sol",
  "compiler": {
    "name": "solc",
    "version": "0.4.24+commit.e67f0147.Emscripten.clang"
  },
  "schemaVersion": "2.0.1",
  "updatedAt": "2019-07-31T23:06:31.938Z"
}