{
  "contractName": "Fund",
  "abi": [
    {
      "anonymous": false,
      "inputs": [
        {
          "indexed": true,
          "name": "investor",
          "type": "address"
        },
        {
          "indexed": false,
          "name": "tokenAmount",
          "type": "uint256"
        },
        {
          "indexed": false,
          "name": "symbol",
          "type": "bytes32"
        },
        {
          "indexed": false,
          "name": "cost",
          "type": "uint256"
        }
      ],
      "name": "FundsReceived",
      "type": "event"
    },
    {
      "anonymous": false,
      "inputs": [
        {
          "indexed": true,
          "name": "investor",
          "type": "address"
        },
        {
          "indexed": false,
          "name": "symbol",
          "type": "bytes32"
        },
        {
          "indexed": false,
          "name": "amount",
          "type": "uint256"
        }
      ],
      "name": "AssetRefunded",
      "type": "event"
    },
    {
      "anonymous": false,
      "inputs": [
        {
          "indexed": true,
          "name": "receiver",
          "type": "address"
        },
        {
          "indexed": false,
          "name": "symbol",
          "type": "bytes32"
        },
        {
          "indexed": false,
          "name": "amount",
          "type": "uint256"
        }
      ],
      "name": "TrancheTransferred",
      "type": "event"
    },
    {
      "constant": false,
      "inputs": [
        {
          "name": "state",
          "type": "Fund.State storage"
        },
        {
          "name": "_invoice",
          "type": "uint256[3]"
        },
        {
          "name": "trancheFeePercent",
          "type": "uint256"
        },
        {
          "name": "serviceWallet",
          "type": "address"
        },
        {
          "name": "rates",
          "type": "IRates"
        }
      ],
      "name": "transferTranche",
      "outputs": [],
      "payable": false,
      "stateMutability": "nonpayable",
      "type": "function"
    },
    {
      "constant": true,
      "inputs": [
        {
          "name": "state",
          "type": "Fund.State storage"
        },
        {
          "name": "trancheTransferAllowed",
          "type": "bool"
        },
        {
          "name": "crowdsale",
          "type": "IW12Crowdsale"
        }
      ],
      "name": "getTrancheInvoice",
      "outputs": [
        {
          "name": "result",
          "type": "uint256[3]"
        }
      ],
      "payable": false,
      "stateMutability": "view",
      "type": "function"
    },
    {
      "constant": true,
      "inputs": [
        {
          "name": "state",
          "type": "Fund.State storage"
        },
        {
          "name": "trancheTransferAllowed",
          "type": "bool"
        },
        {
          "name": "crowdsale",
          "type": "IW12Crowdsale"
        },
        {
          "name": "index",
          "type": "uint256"
        }
      ],
      "name": "getTrancheInvoiceIndex",
      "outputs": [
        {
          "name": "result",
          "type": "uint256[3]"
        }
      ],
      "payable": false,
      "stateMutability": "view",
      "type": "function"
    },
    {
      "constant": false,
      "inputs": [
        {
          "name": "state",
          "type": "Fund.State storage"
        },
        {
          "name": "tokenAmount",
          "type": "uint256"
        },
        {
          "name": "rates",
          "type": "IRates"
        }
      ],
      "name": "refundAssets",
      "outputs": [],
      "payable": false,
      "stateMutability": "nonpayable",
      "type": "function"
    },
    {
      "constant": false,
      "inputs": [
        {
          "name": "state",
          "type": "Fund.State storage"
        },
        {
          "name": "investor",
          "type": "address"
        },
        {
          "name": "tokenAmount",
          "type": "uint256"
        },
        {
          "name": "symbol",
          "type": "bytes32"
        },
        {
          "name": "cost",
          "type": "uint256"
        },
        {
          "name": "costUSD",
          "type": "uint256"
        },
        {
          "name": "rates",
          "type": "IRates"
        }
      ],
      "name": "recordPurchase",
      "outputs": [],
      "payable": false,
      "stateMutability": "nonpayable",
      "type": "function"
    }
  ],
  "bytecode": "0x6124b1610030600b82828239805160001a6073146000811461002057610022565bfe5b5030600052607381538281f300730000000000000000000000000000000000000000301460806040526004361061006a5763ffffffff60e060020a60003504166346d1230a811461006f5780634ff45efe146100ab57806369b3e2d214610102578063c44660081461015f578063e06502381461017b575b600080fd5b81801561007b57600080fd5b506100a9600435600160a060020a0360243581169060443590606435906084359060a4359060c435166101a2565b005b6100ca6004356024351515600160a060020a03604435166064356107b7565b6040518082606080838360005b838110156100ef5781810151838201526020016100d7565b5050505090500191505060405180910390f35b81801561010e57600080fd5b506040805160608181019092526100a991600480359236926084919060249060039083908390808284375093965050833594505050506020810135600160a060020a03908116916040013516610af7565b6100ca6004356024351515600160a060020a03604435166114f1565b81801561018757600080fd5b506100a9600435602435600160a060020a0360443516611939565b600085116101af57600080fd5b600083116101bc57600080fd5b600082116101c957600080fd5b600160a060020a03861615156101de57600080fd5b604080517f7d20abf8000000000000000000000000000000000000000000000000000000008152600481018690529051600160a060020a03831691637d20abf89160248083019260209291908290030181600087803b15801561024057600080fd5b505af1158015610254573d6000803e3d6000fd5b505050506040513d602081101561026a57600080fd5b5051151561027757600080fd5b60eb60020a6208aa890284141561029a573483111561029557600080fd5b6104e1565b604080517fcfec719f000000000000000000000000000000000000000000000000000000008152600481018690529051600160a060020a0383169163cfec719f9160248083019260209291908290030181600087803b1580156102fc57600080fd5b505af1158015610310573d6000803e3d6000fd5b505050506040513d602081101561032657600080fd5b5051151561033357600080fd5b6040805160e360020a630ebbfe270281526002890160048201526024810186905290516103cf91859173__FundAccount___________________________916375dff138916044808301926020929190829003018186803b15801561039757600080fd5b505af41580156103ab573d6000803e3d6000fd5b505050506040513d60208110156103c157600080fd5b50519063ffffffff61243616565b6040805160e460020a630b12e441028152600481018790529051600160a060020a0384169163b12e44109160248083019260209291908290030181600087803b15801561041b57600080fd5b505af115801561042f573d6000803e3d6000fd5b505050506040513d602081101561044557600080fd5b5051604080517f70a082310000000000000000000000000000000000000000000000000000000081523060048201529051600160a060020a03909216916370a08231916024808201926020929091908290030181600087803b1580156104aa57600080fd5b505af11580156104be573d6000803e3d6000fd5b505050506040513d60208110156104d457600080fd5b505110156104e157600080fd5b600160a060020a038616600090815260088801602052604090205461050c908663ffffffff61243616565b600160a060020a038716600090815260088901602090815260408083209390935560098a019052818120825160e560020a6301c7023302815260048101919091526024810187905260448101869052915173__FundAccount___________________________926338e04660926064808301939192829003018186803b15801561059557600080fd5b505af41580156105a9573d6000803e3d6000fd5b50505050600160a060020a0386166000908152600988016020526040808220815160e560020a6301c70233028152600481019190915260ea60020a621554d102602482015260448101859052905173__FundAccount___________________________926338e046609260648082019391829003018186803b15801561062e57600080fd5b505af4158015610642573d6000803e3d6000fd5b505050600688015461065b91508663ffffffff61243616565b60068801556040805160e560020a6301c702330281526002890160048201526024810186905260448101859052905173__FundAccount___________________________916338e04660916064808301926000929190829003018186803b1580156106c557600080fd5b505af41580156106d9573d6000803e3d6000fd5b50506040805160e560020a6301c7023302815260028b01600482015260ea60020a621554d102602482015260448101869052905173__FundAccount___________________________93506338e0466092506064808301926000929190829003018186803b15801561074a57600080fd5b505af415801561075e573d6000803e3d6000fd5b505060408051888152602081018890528082018790529051600160a060020a038a1693507fe2d0f4d539cb385db666a31aa9b27fd786afc933dc82ca8518d045424d6fa88292509081900360600190a250505050505050565b6107bf612466565b60008060008060008815156107d357610aea565b87600160a060020a0316632442e1cb886040518263ffffffff1660e060020a02815260040180828152602001915050600060405180830381600087803b15801561081c57600080fd5b505af1158015610830573d6000803e3d6000fd5b505050506040513d6000823e601f3d908101601f1916820160405260c081101561085957600080fd5b81516020830151604084015160608501516080860180519496939592949193928301929164010000000081111561088f57600080fd5b820160208101848111156108a257600080fd5b81516401000000008111828201871017156108bc57600080fd5b505092919060200180516401000000008111156108d857600080fd5b820160208101848111156108eb57600080fd5b815164010000000081118282018710171561090557600080fd5b50509291905050505050505095505089600001600088815260200190815260200160002060009054906101000a900460ff169350831561094457610aea565b8692505b6000831115610ab45782806001900393505087600160a060020a0316632442e1cb846040518263ffffffff1660e060020a02815260040180828152602001915050600060405180830381600087803b1580156109a357600080fd5b505af11580156109b7573d6000803e3d6000fd5b505050506040513d6000823e601f3d908101601f1916820160405260c08110156109e057600080fd5b815160208301516040840151606085015160808601805194969395929491939283019291640100000000811115610a1657600080fd5b82016020810184811115610a2957600080fd5b8151640100000000811182820187101715610a4357600080fd5b50509291906020018051640100000000811115610a5f57600080fd5b82016020810184811115610a7257600080fd5b8151640100000000811182820187101715610a8c57600080fd5b50979950610aad98508a97508996505063ffffffff61243616945050505050565b9150610948565b60018a0154610ad990610acd878563ffffffff61243616565b9063ffffffff61244f16565b865260208601829052604086018790525b5050505050949350505050565b60008060008060008960020173__FundAccount___________________________6320e1e1d190916040518263ffffffff1660e060020a0281526004018082815260200191505060006040518083038186803b158015610b5657600080fd5b505af4158015610b6a573d6000803e3d6000fd5b505050506040513d6000823e601f3d908101601f191682016040526020811015610b9357600080fd5b810190808051640100000000811115610bab57600080fd5b82016020810184811115610bbe57600080fd5b8151856020820283011164010000000082111715610bdb57600080fd5b50505197505050505b84156114e557604080517f20e1e1d100000000000000000000000000000000000000000000000000000000815260028c016004820152905173__FundAccount___________________________916320e1e1d1916024808301926000929190829003018186803b158015610c5757600080fd5b505af4158015610c6b573d6000803e3d6000fd5b505050506040513d6000823e601f3d908101601f191682016040526020811015610c9457600080fd5b810190808051640100000000811115610cac57600080fd5b82016020810184811115610cbf57600080fd5b8151856020820283011164010000000082111715610cdc57600080fd5b505080516000199099019890935088925082109050610cf757fe5b60209081029091018101516040805160e360020a630ebbfe2702815260028e01600482015260248101839052905191965073__FundAccount___________________________926375dff13892604480840193829003018186803b158015610d5e57600080fd5b505af4158015610d72573d6000803e3d6000fd5b505050506040513d6020811015610d8857600080fd5b50519250821515610d9857610be4565b8851604080517f50716c0e0000000000000000000000000000000000000000000000000000000081526004810186905260248101929092525173__Percent_______________________________916350716c0e916044808301926020929190829003018186803b158015610e0c57600080fd5b505af4158015610e20573d6000803e3d6000fd5b505050506040513d6020811015610e3657600080fd5b5051915060008211610e4757600080fd5b73__Utils_________________________________63bda4e619610e7c8c600701548d6006015461244f90919063ffffffff16565b848d600601546040518463ffffffff1660e060020a02815260040180848152602001838152602001828152602001935050505060206040518083038186803b158015610ec757600080fd5b505af4158015610edb573d6000803e3d6000fd5b505050506040513d6020811015610ef157600080fd5b5051925060008311610f0257600080fd5b600084815260058b016020526040902054610f23908463ffffffff61243616565b600085815260058c01602052604090205560ea60020a621554d102841415610f4a57610be4565b60eb60020a6208aa8902841461110857604080517fcfec719f000000000000000000000000000000000000000000000000000000008152600481018690529051600160a060020a0388169163cfec719f9160248083019260209291908290030181600087803b158015610fbc57600080fd5b505af1158015610fd0573d6000803e3d6000fd5b505050506040513d6020811015610fe657600080fd5b50511515610ff357600080fd5b6040805160e460020a630b12e4410281526004810186905290518491600160a060020a0389169163b12e4410916024808201926020929091908290030181600087803b15801561104257600080fd5b505af1158015611056573d6000803e3d6000fd5b505050506040513d602081101561106c57600080fd5b5051604080517f70a082310000000000000000000000000000000000000000000000000000000081523060048201529051600160a060020a03909216916370a08231916024808201926020929091908290030181600087803b1580156110d157600080fd5b505af11580156110e5573d6000803e3d6000fd5b505050506040513d60208110156110fb57600080fd5b5051101561110857600080fd5b600088116111175760006111b6565b604080517f50716c0e00000000000000000000000000000000000000000000000000000000815260048101859052602481018a9052905173__Percent_______________________________916350716c0e916044808301926020929190829003018186803b15801561118957600080fd5b505af415801561119d573d6000803e3d6000fd5b505050506040513d60208110156111b357600080fd5b50515b905060008811156111ce57600081116111ce57600080fd5b60eb60020a6208aa890284141561126257600081111561122057604051600160a060020a0388169082156108fc029083906000818181858888f1935050505015801561121e573d6000803e3d6000fd5b505b336108fc611234858463ffffffff61244f16565b6040518115909202916000818181858888f1935050505015801561125c573d6000803e3d6000fd5b506114a6565b6000811115611386576040805160e460020a630b12e441028152600481018690529051600160a060020a0388169163b12e44109160248083019260209291908290030181600087803b1580156112b757600080fd5b505af11580156112cb573d6000803e3d6000fd5b505050506040513d60208110156112e157600080fd5b5051604080517fa9059cbb000000000000000000000000000000000000000000000000000000008152600160a060020a038a81166004830152602482018590529151919092169163a9059cbb9160448083019260209291908290030181600087803b15801561134f57600080fd5b505af1158015611363573d6000803e3d6000fd5b505050506040513d602081101561137957600080fd5b5051151561138657600080fd5b6040805160e460020a630b12e441028152600481018690529051600160a060020a0388169163b12e44109160248083019260209291908290030181600087803b1580156113d257600080fd5b505af11580156113e6573d6000803e3d6000fd5b505050506040513d60208110156113fc57600080fd5b5051600160a060020a031663a9059cbb3361141d868563ffffffff61244f16565b6040518363ffffffff1660e060020a0281526004018083600160a060020a0316600160a060020a0316815260200182815260200192505050602060405180830381600087803b15801561146f57600080fd5b505af1158015611483573d6000803e3d6000fd5b505050506040513d602081101561149957600080fd5b505115156114a657600080fd5b6040805185815260208101859052815133927f17e68c82fdc39ec76fff0be24ead989575d8eec009a729fa4bd738bc1f6a2dbb928290030190a2610be4565b50505050505050505050565b6114f9612466565b60008060008060008060008915156115105761192b565b88600160a060020a031663d6d65f3d6040518163ffffffff1660e060020a0281526004016040805180830381600087803b15801561154d57600080fd5b505af1158015611561573d6000803e3d6000fd5b505050506040513d604081101561157757600080fd5b5051604080517f14f66d340000000000000000000000000000000000000000000000000000000081528151929950600160a060020a038c16926314f66d34926004808401939192918290030181600087803b1580156115d557600080fd5b505af11580156115e9573d6000803e3d6000fd5b505050506040513d60408110156115ff57600080fd5b5051955086158061160f57508686145b61161c576001870361161e565b865b965088600160a060020a0316632442e1cb886040518263ffffffff1660e060020a02815260040180828152602001915050600060405180830381600087803b15801561166957600080fd5b505af115801561167d573d6000803e3d6000fd5b505050506040513d6000823e601f3d908101601f1916820160405260c08110156116a657600080fd5b8151602083015160408401516060850151608086018051949693959294919392830192916401000000008111156116dc57600080fd5b820160208101848111156116ef57600080fd5b815164010000000081118282018710171561170957600080fd5b5050929190602001805164010000000081111561172557600080fd5b8201602081018481111561173857600080fd5b815164010000000081118282018710171561175257600080fd5b5050929190505050505050509550508a600001600088815260200190815260200160002060009054906101000a900460ff16935083156117915761192b565b8692505b60008311156119015782806001900393505088600160a060020a0316632442e1cb846040518263ffffffff1660e060020a02815260040180828152602001915050600060405180830381600087803b1580156117f057600080fd5b505af1158015611804573d6000803e3d6000fd5b505050506040513d6000823e601f3d908101601f1916820160405260c081101561182d57600080fd5b81516020830151604084015160608501516080860180519496939592949193928301929164010000000081111561186357600080fd5b8201602081018481111561187657600080fd5b815164010000000081118282018710171561189057600080fd5b505092919060200180516401000000008111156118ac57600080fd5b820160208101848111156118bf57600080fd5b81516401000000008111828201871017156118d957600080fd5b509799506118fa98508a97508996505063ffffffff61243616945050505050565b9150611795565b60018b015461191a90610acd878563ffffffff61243616565b885260208801829052604088018790525b505050505050509392505050565b33600090815260098401602052604080822081517f20e1e1d100000000000000000000000000000000000000000000000000000000815260048101919091529051829182918291829173__FundAccount___________________________916320e1e1d19160248083019286929190829003018186803b1580156119bc57600080fd5b505af41580156119d0573d6000803e3d6000fd5b505050506040513d6000823e601f3d908101601f1916820160405260208110156119f957600080fd5b810190808051640100000000811115611a1157600080fd5b82016020810184811115611a2457600080fd5b8151856020820283011164010000000082111715611a4157600080fd5b50505197505050505b841561242c5733600090815260098901602052604080822081517f20e1e1d10000000000000000000000000000000000000000000000000000000081526004810191909152905173__FundAccount___________________________926320e1e1d19260248082019391829003018186803b158015611ac857600080fd5b505af4158015611adc573d6000803e3d6000fd5b505050506040513d6000823e601f3d908101601f191682016040526020811015611b0557600080fd5b810190808051640100000000811115611b1d57600080fd5b82016020810184811115611b3057600080fd5b8151856020820283011164010000000082111715611b4d57600080fd5b505080516000199099019890935088925082109050611b6857fe5b602090810290910181015133600090815260098b018352604090819020815160e360020a630ebbfe27028152600481019190915260248101839052905191965073__FundAccount___________________________926375dff13892604480840193829003018186803b158015611bde57600080fd5b505af4158015611bf2573d6000803e3d6000fd5b505050506040513d6020811015611c0857600080fd5b50519250821515611c1857611a4a565b3360009081526008890160209081526040918290205482517fbda4e619000000000000000000000000000000000000000000000000000000008152600481018b9052602481018790526044810191909152915173__Utils_________________________________9263bda4e619926064808301939192829003018186803b158015611ca357600080fd5b505af4158015611cb7573d6000803e3d6000fd5b505050506040513d6020811015611ccd57600080fd5b5051915060008211611cde57600080fd5b6040805160e360020a630ebbfe2702815260028a01600482015260248101869052905173__FundAccount___________________________916375dff138916044808301926020929190829003018186803b158015611d3c57600080fd5b505af4158015611d50573d6000803e3d6000fd5b505050506040513d6020811015611d6657600080fd5b50516001890154604080517f50716c0e000000000000000000000000000000000000000000000000000000008152600481019390935260248301919091525173__Percent_______________________________916350716c0e916044808301926020929190829003018186803b158015611de057600080fd5b505af4158015611df4573d6000803e3d6000fd5b505050506040513d6020811015611e0a57600080fd5b50516040805160e360020a630ebbfe2702815260028b01600482015260248101879052905191925073__Utils_________________________________9163bda4e61991611ec891859173__FundAccount___________________________916375dff13891604480820192602092909190829003018186803b158015611e9057600080fd5b505af4158015611ea4573d6000803e3d6000fd5b505050506040513d6020811015611eba57600080fd5b50519063ffffffff61244f16565b6040805160e360020a630ebbfe2702815260028d016004820152602481018990529051869173__FundAccount___________________________916375dff13891604480820192602092909190829003018186803b158015611f2957600080fd5b505af4158015611f3d573d6000803e3d6000fd5b505050506040513d6020811015611f5357600080fd5b50516040805160e060020a63ffffffff8716028152600481019490945260248401929092526044830152516064808301926020929190829003018186803b158015611f9d57600080fd5b505af4158015611fb1573d6000803e3d6000fd5b505050506040513d6020811015611fc757600080fd5b5051925060008311611fd857600080fd5b6000848152600589016020526040902054611ff9908463ffffffff61243616565b600085815260058a01602090815260408083209390935533825260098b01905281812082517f6e286eaf00000000000000000000000000000000000000000000000000000000815260048101919091526024810187905260448101859052915173__FundAccount___________________________92636e286eaf926064808301939192829003018186803b15801561209157600080fd5b505af41580156120a5573d6000803e3d6000fd5b5050505060ea60020a621554d1028414156120bf57611a4a565b60eb60020a6208aa8902841461228257604080517fcfec719f000000000000000000000000000000000000000000000000000000008152600481018690529051600160a060020a0388169163cfec719f9160248083019260209291908290030181600087803b15801561213157600080fd5b505af1158015612145573d6000803e3d6000fd5b505050506040513d602081101561215b57600080fd5b5051151561216857600080fd5b6040805160e460020a630b12e4410281526004810186905290518491600160a060020a0389169163b12e4410916024808201926020929091908290030181600087803b1580156121b757600080fd5b505af11580156121cb573d6000803e3d6000fd5b505050506040513d60208110156121e157600080fd5b5051604080517f70a082310000000000000000000000000000000000000000000000000000000081523060048201529051600160a060020a03909216916370a08231916024808201926020929091908290030181600087803b15801561224657600080fd5b505af115801561225a573d6000803e3d6000fd5b505050506040513d602081101561227057600080fd5b5051101561227d57600080fd5b612290565b303183111561229057600080fd5b60eb60020a6208aa89028414156122d457604051339084156108fc029085906000818181858888f193505050501580156122ce573d6000803e3d6000fd5b506123ed565b6040805160e460020a630b12e441028152600481018690529051600160a060020a0388169163b12e44109160248083019260209291908290030181600087803b15801561232057600080fd5b505af1158015612334573d6000803e3d6000fd5b505050506040513d602081101561234a57600080fd5b5051604080517fa9059cbb000000000000000000000000000000000000000000000000000000008152336004820152602481018690529051600160a060020a039092169163a9059cbb916044808201926020929091908290030181600087803b1580156123b657600080fd5b505af11580156123ca573d6000803e3d6000fd5b505050506040513d60208110156123e057600080fd5b505115156123ed57600080fd5b6040805185815260208101859052815133927fd434f0d1dd08e14b2acdd7a506c6e8b6edaf1a5825d23ca9b5e51a9ad883f71c928290030190a2611a4a565b5050505050505050565b60008282018381101561244857600080fd5b9392505050565b6000808383111561245f57600080fd5b5050900390565b60606040519081016040528060039060208202803883395091929150505600a165627a7a72305820d207d839bc544019993e53252c08bd34a16d570fe5b2da68046164e14ab8ebc20029",
  "source": "pragma solidity 0.4.24;\n\nimport \"openzeppelin-solidity/contracts/token/ERC20/IERC20.sol\";\nimport \"openzeppelin-solidity/contracts/math/SafeMath.sol\";\nimport \"../crowdsale/IW12Crowdsale.sol\";\nimport \"../rates/IRates.sol\";\nimport \"./Utils.sol\";\nimport \"./Percent.sol\";\nimport \"./FundAccount.sol\";\n\n\nlibrary Fund {\n    using SafeMath for uint;\n    using Percent for uint;\n    using FundAccount for FundAccount.Account;\n\n    bytes32 constant private METHOD_ETH = bytes32(\"ETH\");\n    bytes32 constant private METHOD_USD = bytes32(\"USD\");\n\n    struct State {\n        mapping(uint => bool) completedTranches;\n        uint totalTranchePercentReleased;\n        FundAccount.Account totalFunded;\n        mapping(bytes32 => uint) totalFundedReleased;\n        uint totalTokenBought;\n        uint totalTokenRefunded;\n        mapping(address => uint) tokenBoughtPerInvestor;\n        mapping(address => FundAccount.Account) fundedPerInvestor;\n    }\n\n    event FundsReceived(address indexed investor, uint tokenAmount, bytes32 symbol, uint cost);\n    event AssetRefunded(address indexed investor, bytes32 symbol, uint amount);\n    event TrancheTransferred(address indexed receiver, bytes32 symbol, uint amount);\n\n    // solhint-disable code-complexity\n    function transferTranche(\n        State storage state,\n        uint[3] _invoice,\n        uint trancheFeePercent,\n        address serviceWallet,\n        IRates rates\n    ) public {\n        uint ln = state.totalFunded.symbolsList().length;\n\n        while (ln != 0) {\n            bytes32 symbol = state.totalFunded.symbolsList()[--ln];\n            uint amount = state.totalFunded.amountOf(symbol);\n\n            if (amount == 0) continue;\n\n            uint sourceAmount = amount.safePercent(_invoice[0]);\n\n            require(sourceAmount > 0);\n\n            amount = Utils.safeMulDiv(\n                state.totalTokenBought.sub(state.totalTokenRefunded),\n                sourceAmount,\n                state.totalTokenBought\n            );\n\n            require(amount > 0);\n\n            state.totalFundedReleased[symbol] = state.totalFundedReleased[symbol].add(amount);\n\n            if (symbol == METHOD_USD) continue;\n\n            if (symbol != METHOD_ETH) {\n                require(rates.isToken(symbol));\n                require(IERC20(rates.getTokenAddress(symbol)).balanceOf(address(this)) >= amount);\n            }\n\n            uint fee = trancheFeePercent > 0\n                ? amount.safePercent(trancheFeePercent)\n                : 0;\n\n            if (trancheFeePercent > 0) require(fee > 0);\n\n            if (symbol == METHOD_ETH) {\n                if (fee > 0) serviceWallet.transfer(fee);\n                msg.sender.transfer(amount.sub(fee));\n            } else {\n                if (fee > 0) require(IERC20(rates.getTokenAddress(symbol)).transfer(serviceWallet, fee));\n                require(IERC20(rates.getTokenAddress(symbol)).transfer(msg.sender, amount.sub(fee)));\n            }\n\n            emit TrancheTransferred(msg.sender, symbol, amount);\n        }\n    }\n    // solhint-enable code-complexity\n\n    function getTrancheInvoice(\n        State storage state,\n        bool trancheTransferAllowed,\n        IW12Crowdsale crowdsale\n    ) public view returns (uint[3] result) {\n        if (!trancheTransferAllowed) return;\n\n        (uint index, /*bool found*/) = crowdsale.getCurrentMilestoneIndex();\n        (uint lastIndex, /*bool found*/) = crowdsale.getLastMilestoneIndex();\n\n        // get percent from prev milestone\n        index = index == 0 || lastIndex == index ? index : index - 1;\n\n        (, uint tranchePercent, , , , ) = crowdsale.getMilestone(index);\n\n        bool completed = state.completedTranches[index];\n\n        if (completed) return;\n\n        uint prevIndex = index;\n        uint totalTranchePercentBefore;\n\n        while (prevIndex > 0) {\n            prevIndex--;\n\n            (, uint _tranchePercent, , , , ) = crowdsale.getMilestone(prevIndex);\n\n            totalTranchePercentBefore = totalTranchePercentBefore.add(_tranchePercent);\n        }\n\n        result[0] = tranchePercent\n            .add(totalTranchePercentBefore)\n            .sub(state.totalTranchePercentReleased);\n        result[1] = totalTranchePercentBefore;\n        result[2] = index;\n    }\n\n\n    function getTrancheInvoiceIndex(\n        State storage state,\n        bool trancheTransferAllowed,\n        IW12Crowdsale crowdsale,\n        uint index\n    ) public view returns (uint[3] result)\n    {\n        if (!trancheTransferAllowed) return;\n\n        (, uint tranchePercent, , , , ) = crowdsale.getMilestone(index);\n\n        bool completed = state.completedTranches[index];\n\n        if (completed) return;\n\n        uint prevIndex = index;\n        uint totalTranchePercentBefore;\n\n        while (prevIndex > 0) {\n            prevIndex--;\n\n            (, uint _tranchePercent, , , , ) = crowdsale.getMilestone(prevIndex);\n\n            totalTranchePercentBefore = totalTranchePercentBefore.add(_tranchePercent);\n        }\n\n        result[0] = tranchePercent\n            .add(totalTranchePercentBefore)\n            .sub(state.totalTranchePercentReleased);\n        result[1] = totalTranchePercentBefore;\n        result[2] = index;\n    }\n\n    function refundAssets(\n        State storage state,\n        uint tokenAmount,\n        IRates rates\n    ) public {\n        uint ln = state.fundedPerInvestor[msg.sender].symbolsList().length;\n\n        while (ln != 0) {\n            bytes32 symbol = state.fundedPerInvestor[msg.sender].symbolsList()[--ln];\n            uint amount = state.fundedPerInvestor[msg.sender].amountOf(symbol);\n\n            if (amount == 0) continue;\n\n            // get source amount\n            uint sourceAmount = Utils.safeMulDiv(\n                tokenAmount,\n                amount,\n                state.tokenBoughtPerInvestor[msg.sender]\n            );\n\n            require(sourceAmount > 0);\n\n            // get released tranche amount in current currency\n            uint releasedTranche = state.totalFunded\n                .amountOf(symbol)\n                .safePercent(state.totalTranchePercentReleased);\n\n            // get amount minus released tranche\n            amount = Utils.safeMulDiv(\n                state.totalFunded.amountOf(symbol).sub(releasedTranche),\n                sourceAmount,\n                state.totalFunded.amountOf(symbol)\n            );\n\n            require(amount > 0);\n\n            state.totalFundedReleased[symbol] = state.totalFundedReleased[symbol].add(amount);\n            state.fundedPerInvestor[msg.sender].withdrawal(symbol, sourceAmount);\n\n            if (symbol == METHOD_USD) continue;\n\n            if (symbol != METHOD_ETH) {\n                require(rates.isToken(symbol));\n                require(IERC20(rates.getTokenAddress(symbol)).balanceOf(address(this)) >= amount);\n            } else {\n                require(address(this).balance >= amount);\n            }\n\n            if (symbol == METHOD_ETH) {\n                msg.sender.transfer(amount);\n            } else {\n                require(IERC20(rates.getTokenAddress(symbol)).transfer(msg.sender, amount));\n            }\n\n            emit AssetRefunded(msg.sender, symbol, amount);\n        }\n    }\n\n    function recordPurchase(\n        State storage state,\n        address investor,\n        uint tokenAmount,\n        bytes32 symbol,\n        uint cost,\n        uint costUSD,\n        IRates rates\n    )\n        public\n    {\n        require(tokenAmount > 0);\n        require(cost > 0);\n        require(costUSD > 0);\n        require(investor != address(0));\n        require(rates.hasSymbol(symbol));\n\n        // check payment\n        if (symbol == METHOD_ETH) {\n            require(msg.value >= cost);\n        } else {\n            require(rates.isToken(symbol));\n            require(\n                IERC20(rates.getTokenAddress(symbol))\n                    .balanceOf(address(this))\n                        >= state.totalFunded.amountOf(symbol).add(cost));\n        }\n\n        // write to investor account\n        state.tokenBoughtPerInvestor[investor] = state.tokenBoughtPerInvestor[investor].add(tokenAmount);\n        state.fundedPerInvestor[investor].deposit(symbol, cost);\n        state.fundedPerInvestor[investor].deposit(METHOD_USD, costUSD);\n\n        // write to total fund\n        state.totalTokenBought = state.totalTokenBought.add(tokenAmount);\n        state.totalFunded.deposit(symbol, cost);\n        state.totalFunded.deposit(METHOD_USD, costUSD);\n\n        emit FundsReceived(investor, tokenAmount, symbol, cost);\n    }\n}\n",
  "sourcePath": "/Users/gauss/_games/w12/Protocol/contracts/libs/Fund.sol",
  "compiler": {
    "name": "solc",
    "version": "0.4.24+commit.e67f0147.Emscripten.clang"
  },
  "schemaVersion": "2.0.1",
  "updatedAt": "2019-07-31T23:06:32.004Z"
}