{
  "contractName": "Migrations",
  "abi": [
    {
      "constant": true,
      "inputs": [],
      "name": "last_completed_migration",
      "outputs": [
        {
          "name": "",
          "type": "uint256"
        }
      ],
      "payable": false,
      "stateMutability": "view",
      "type": "function"
    },
    {
      "constant": true,
      "inputs": [],
      "name": "version",
      "outputs": [
        {
          "name": "",
          "type": "uint256"
        }
      ],
      "payable": false,
      "stateMutability": "view",
      "type": "function"
    },
    {
      "constant": true,
      "inputs": [],
      "name": "owner",
      "outputs": [
        {
          "name": "",
          "type": "address"
        }
      ],
      "payable": false,
      "stateMutability": "view",
      "type": "function"
    },
    {
      "inputs": [
        {
          "name": "version",
          "type": "uint256"
        }
      ],
      "payable": false,
      "stateMutability": "nonpayable",
      "type": "constructor"
    },
    {
      "constant": false,
      "inputs": [
        {
          "name": "completed",
          "type": "uint256"
        }
      ],
      "name": "setCompleted",
      "outputs": [],
      "payable": false,
      "stateMutability": "nonpayable",
      "type": "function"
    },
    {
      "constant": false,
      "inputs": [
        {
          "name": "new_address",
          "type": "address"
        }
      ],
      "name": "upgrade",
      "outputs": [],
      "payable": false,
      "stateMutability": "nonpayable",
      "type": "function"
    }
  ],
  "bytecode": "0x608060405234801561001057600080fd5b506040516020806102aa833981016040525160005560018054600160a060020a03191633179055610264806100466000396000f30060806040526004361061006c5763ffffffff7c01000000000000000000000000000000000000000000000000000000006000350416630900f0108114610071578063445df0ac146100a157806354fd4d50146100c85780638da5cb5b146100dd578063fdacd5761461011b575b600080fd5b34801561007d57600080fd5b5061009f73ffffffffffffffffffffffffffffffffffffffff60043516610133565b005b3480156100ad57600080fd5b506100b66101e7565b60408051918252519081900360200190f35b3480156100d457600080fd5b506100b66101ed565b3480156100e957600080fd5b506100f26101f3565b6040805173ffffffffffffffffffffffffffffffffffffffff9092168252519081900360200190f35b34801561012757600080fd5b5061009f60043561020f565b60015460009073ffffffffffffffffffffffffffffffffffffffff163314156101e3578190508073ffffffffffffffffffffffffffffffffffffffff1663fdacd5766002546040518263ffffffff167c010000000000000000000000000000000000000000000000000000000002815260040180828152602001915050600060405180830381600087803b1580156101ca57600080fd5b505af11580156101de573d6000803e3d6000fd5b505050505b5050565b60025481565b60005481565b60015473ffffffffffffffffffffffffffffffffffffffff1681565b60015473ffffffffffffffffffffffffffffffffffffffff163314156102355760028190555b505600a165627a7a72305820643f9f02ff6fd692c18a656c13c0568efd62ed056b86cbe889921d1dc996102b0029",
  "source": "pragma solidity ^0.4.24;\n\nimport \"./versioning/Versionable.sol\";\n\ncontract Migrations is Versionable {\n  address public owner;\n  uint public last_completed_migration;\n\n  modifier restricted() {\n    if (msg.sender == owner) _;\n  }\n\n  constructor(uint version) Versionable(version) public {\n    owner = msg.sender;\n  }\n\n  function setCompleted(uint completed) public restricted {\n    last_completed_migration = completed;\n  }\n\n  function upgrade(address new_address) public restricted {\n    Migrations upgraded = Migrations(new_address);\n    upgraded.setCompleted(last_completed_migration);\n  }\n}\n",
  "sourcePath": "/home/circleci/code/contracts/Migrations.sol",
  "compiler": {
    "name": "solc",
    "version": "0.4.24+commit.e67f0147.Emscripten.clang"
  },
  "schemaVersion": "2.0.1",
  "updatedAt": "2018-10-27T04:56:22.049Z"
}