{
  "contractName": "PaymentMethods",
  "abi": [
    {
      "constant": false,
      "inputs": [
        {
          "name": "_methods",
          "type": "PaymentMethods.Methods storage"
        },
        {
          "name": "_list",
          "type": "bytes32[]"
        }
      ],
      "name": "update",
      "outputs": [],
      "payable": false,
      "stateMutability": "nonpayable",
      "type": "function"
    },
    {
      "constant": true,
      "inputs": [
        {
          "name": "_methods",
          "type": "PaymentMethods.Methods storage"
        },
        {
          "name": "_method",
          "type": "bytes32"
        }
      ],
      "name": "isAllowed",
      "outputs": [
        {
          "name": "",
          "type": "bool"
        }
      ],
      "payable": false,
      "stateMutability": "view",
      "type": "function"
    },
    {
      "constant": true,
      "inputs": [
        {
          "name": "_methods",
          "type": "PaymentMethods.Methods storage"
        }
      ],
      "name": "list",
      "outputs": [
        {
          "name": "",
          "type": "bytes32[]"
        }
      ],
      "payable": false,
      "stateMutability": "view",
      "type": "function"
    }
  ],
  "bytecode": "0x61032d610030600b82828239805160001a6073146000811461002057610022565bfe5b5030600052607381538281f300730000000000000000000000000000000000000000301460806040526004361061006d5763ffffffff7c01000000000000000000000000000000000000000000000000000000006000350416633b3d1a22811461007257806377df0856146100cd578063f24950e2146100ef575b600080fd5b61007d60043561014b565b60408051602080825283518183015283519192839290830191858101910280838360005b838110156100b95781810151838201526020016100a1565b505050509050019250505060405180910390f35b6100db6004356024356101a8565b604080519115158252519081900360200190f35b8180156100fb57600080fd5b50604080516020600460248035828101358481028087018601909752808652610149968435963696604495919490910192918291850190849080828437509497506101c19650505050505050565b005b60608160000180548060200260200160405190810160405280929190818152602001828054801561019c57602002820191906000526020600020905b81548152600190910190602001808311610187575b50505050509050919050565b6000908152600191909101602052604090205460ff1690565b815460009015610224575060005b825481101561022457600083600101600085600001848154811015156101f157fe5b60009182526020808320919091015483528201929092526040019020805460ff19169115159190911790556001016101cf565b81516102369084906020850190610297565b50815115610292575060005b8151811015610292576001836001016000848481518110151561026157fe5b6020908102919091018101518252810191909152604001600020805460ff1916911515919091179055600101610242565b505050565b8280548282559060005260206000209081019282156102d4579160200282015b828111156102d457825182556020909201916001909101906102b7565b506102e09291506102e4565b5090565b6102fe91905b808211156102e057600081556001016102ea565b905600a165627a7a723058209f9287e6459b387a1b64b6420878462f15e996bc9ec643d736ce5ac99431fb110029",
  "source": "pragma solidity 0.4.24;\n\n\nlibrary PaymentMethods {\n    struct Methods {\n        bytes32[] _list;\n        mapping (bytes32 => bool) _allowed;\n    }\n\n    function update(Methods storage _methods, bytes32[] _list) public {\n        uint i;\n\n        if (_methods._list.length != 0) {\n            for (i = 0; i < _methods._list.length; i++) {\n                _methods._allowed[_methods._list[i]] = false;\n            }\n        }\n\n        _methods._list = _list;\n\n        if (_list.length != 0) {\n            for (i = 0; i < _list.length; i++) {\n                _methods._allowed[_list[i]] = true;\n            }\n        }\n    }\n\n    function isAllowed(Methods storage _methods, bytes32 _method) public view returns(bool) {\n        return _methods._allowed[_method];\n    }\n\n    function list(Methods storage _methods) public view returns(bytes32[]) {\n        return _methods._list;\n    }\n}\n",
  "sourcePath": "/Users/gauss/_games/w12/Protocol/contracts/libs/PaymentMethods.sol",
  "compiler": {
    "name": "solc",
    "version": "0.4.24+commit.e67f0147.Emscripten.clang"
  },
  "schemaVersion": "2.0.1",
  "updatedAt": "2019-07-31T23:06:31.925Z"
}