{
  "contractName": "PaymentMethods",
  "abi": [
    {
      "constant": false,
      "inputs": [
        {
          "name": "_methods",
          "type": "PaymentMethods.Methods storage"
        },
        {
          "name": "_list",
          "type": "bytes32[]"
        }
      ],
      "name": "update",
      "outputs": [],
      "payable": false,
      "stateMutability": "nonpayable",
      "type": "function"
    },
    {
      "constant": true,
      "inputs": [
        {
          "name": "_methods",
          "type": "PaymentMethods.Methods storage"
        },
        {
          "name": "_method",
          "type": "bytes32"
        }
      ],
      "name": "isAllowed",
      "outputs": [
        {
          "name": "",
          "type": "bool"
        }
      ],
      "payable": false,
      "stateMutability": "view",
      "type": "function"
    },
    {
      "constant": true,
      "inputs": [
        {
          "name": "_methods",
          "type": "PaymentMethods.Methods storage"
        }
      ],
      "name": "list",
      "outputs": [
        {
          "name": "",
          "type": "bytes32[]"
        }
      ],
      "payable": false,
      "stateMutability": "view",
      "type": "function"
    }
  ],
  "bytecode": "0x6103ee610030600b82828239805160001a6073146000811461002057610022565bfe5b5030600052607381538281f300730000000000000000000000000000000000000000301460806040526004361061006e576000357c0100000000000000000000000000000000000000000000000000000000900463ffffffff1680633b3d1a221461007357806377df0856146100e8578063f24950e21461012e575b600080fd5b6100916004803603810190808035906020019092919050505061019e565b6040518080602001828103825283818151815260200191508051906020019060200280838360005b838110156100d45780820151818401526020810190506100b9565b505050509050019250505060405180910390f35b6101146004803603810190808035906020019092919080356000191690602001909291905050506101fe565b604051808215151515815260200191505060405180910390f35b81801561013a57600080fd5b5061019c6004803603810190808035906020019092919080359060200190820180359060200190808060200260200160405190810160405280939291908181526020018383602002808284378201915050505050509192919290505050610233565b005b6060816000018054806020026020016040519081016040528092919081815260200182805480156101f257602002820191906000526020600020905b815460001916815260200190600101908083116101da575b50505050509050919050565b6000826001016000836000191660001916815260200190815260200160002060009054906101000a900460ff16905092915050565b60008083600001805490501415156102b857600090505b82600001805490508110156102b7576000836001016000856000018481548110151561027257fe5b90600052602060002001546000191660001916815260200190815260200160002060006101000a81548160ff021916908315150217905550808060010191505061024a565b5b818360000190805190602001906102d092919061034a565b506000825114151561034557600090505b8151811015610344576001836001016000848481518110151561030057fe5b906020019060200201516000191660001916815260200190815260200160002060006101000a81548160ff02191690831515021790555080806001019150506102e1565b5b505050565b82805482825590600052602060002090810192821561038c579160200282015b8281111561038b57825182906000191690559160200191906001019061036a565b5b509050610399919061039d565b5090565b6103bf91905b808211156103bb5760008160009055506001016103a3565b5090565b905600a165627a7a72305820acfe6e0e388132a0c07cebdda68e5e20895cdac04905b97919a2c5056292f7e20029",
  "source": "pragma solidity 0.4.24;\n\n\nlibrary PaymentMethods {\n    struct Methods {\n        bytes32[] _list;\n        mapping (bytes32 => bool) _allowed;\n    }\n\n    function update(Methods storage _methods, bytes32[] _list) public {\n        uint i;\n\n        if (_methods._list.length != 0) {\n            for (i = 0; i < _methods._list.length; i++) {\n                _methods._allowed[_methods._list[i]] = false;\n            }\n        }\n\n        _methods._list = _list;\n\n        if (_list.length != 0) {\n            for (i = 0; i < _list.length; i++) {\n                _methods._allowed[_list[i]] = true;\n            }\n        }\n    }\n\n    function isAllowed(Methods storage _methods, bytes32 _method) public view returns(bool) {\n        return _methods._allowed[_method];\n    }\n\n    function list(Methods storage _methods) public view returns(bytes32[]) {\n        return _methods._list;\n    }\n}\n",
  "sourcePath": "/Users/gauss/_games/w12/W12-Product-Blockchain-Protocol/contracts/libs/PaymentMethods.sol",
  "compiler": {
    "name": "solc",
    "version": "0.4.24+commit.e67f0147.Emscripten.clang"
  },
  "schemaVersion": "3.0.10",
  "updatedAt": "2019-06-17T16:23:09.019Z",
  "devdoc": {
    "methods": {}
  },
  "userdoc": {
    "methods": {}
  }
}