{
  "contractName": "Percent",
  "abi": [
    {
      "constant": true,
      "inputs": [],
      "name": "ADD_EXP",
      "outputs": [
        {
          "name": "",
          "type": "uint256"
        }
      ],
      "payable": false,
      "stateMutability": "pure",
      "type": "function"
    },
    {
      "constant": true,
      "inputs": [],
      "name": "EXP",
      "outputs": [
        {
          "name": "",
          "type": "uint256"
        }
      ],
      "payable": false,
      "stateMutability": "pure",
      "type": "function"
    },
    {
      "constant": true,
      "inputs": [],
      "name": "MIN",
      "outputs": [
        {
          "name": "",
          "type": "uint256"
        }
      ],
      "payable": false,
      "stateMutability": "pure",
      "type": "function"
    },
    {
      "constant": true,
      "inputs": [],
      "name": "MAX",
      "outputs": [
        {
          "name": "",
          "type": "uint256"
        }
      ],
      "payable": false,
      "stateMutability": "pure",
      "type": "function"
    },
    {
      "constant": true,
      "inputs": [
        {
          "name": "_a",
          "type": "uint256"
        },
        {
          "name": "_b",
          "type": "uint256"
        }
      ],
      "name": "percent",
      "outputs": [
        {
          "name": "",
          "type": "uint256"
        }
      ],
      "payable": false,
      "stateMutability": "pure",
      "type": "function"
    },
    {
      "constant": true,
      "inputs": [
        {
          "name": "_a",
          "type": "uint256"
        },
        {
          "name": "_b",
          "type": "uint256"
        }
      ],
      "name": "safePercent",
      "outputs": [
        {
          "name": "",
          "type": "uint256"
        }
      ],
      "payable": false,
      "stateMutability": "pure",
      "type": "function"
    },
    {
      "constant": true,
      "inputs": [
        {
          "name": "_a",
          "type": "uint256"
        }
      ],
      "name": "isPercent",
      "outputs": [
        {
          "name": "",
          "type": "bool"
        }
      ],
      "payable": false,
      "stateMutability": "pure",
      "type": "function"
    },
    {
      "constant": true,
      "inputs": [
        {
          "name": "_a",
          "type": "uint256"
        }
      ],
      "name": "toPercent",
      "outputs": [
        {
          "name": "",
          "type": "uint256"
        }
      ],
      "payable": false,
      "stateMutability": "pure",
      "type": "function"
    },
    {
      "constant": true,
      "inputs": [
        {
          "name": "_a",
          "type": "uint256"
        }
      ],
      "name": "fromPercent",
      "outputs": [
        {
          "name": "",
          "type": "uint256"
        }
      ],
      "payable": false,
      "stateMutability": "pure",
      "type": "function"
    }
  ],
  "bytecode": "0x6104a6610030600b82828239805160001a6073146000811461002057610022565bfe5b5030600052607381538281f30073000000000000000000000000000000000000000030146080604052600436106100b0576000357c0100000000000000000000000000000000000000000000000000000000900463ffffffff1680630fe91147146100b557806317b8f5e1146100e95780631a12cd471461011d57806337a7f2b71461013b57806342318e3d1461015957806350716c0e14610197578063520b0066146101d5578063bc9c08911461020d578063d49d51811461022b575b600080fd5b6100d360048036038101908080359060200190929190505050610249565b6040518082815260200191505060405180910390f35b61010760048036038101908080359060200190929190505050610283565b6040518082815260200191505060405180910390f35b6101256102b9565b6040518082815260200191505060405180910390f35b6101436102cb565b6040518082815260200191505060405180910390f35b61018160048036038101908080359060200190929190803590602001909291905050506102d3565b6040518082815260200191505060405180910390f35b6101bf6004803603810190808035906020019092919080359060200190929190505050610309565b6040518082815260200191505060405180910390f35b6101f3600480360381019080803590602001909291905050506103d0565b604051808215151515815260200191505060405180910390f35b6102156103f7565b6040518082815260200191505060405180910390f35b610233610400565b6040518082815260200191505060405180910390f35b6000610254826103d0565b151561025f57600080fd5b61027c61026a6103f7565b600a0a8361041290919063ffffffff16565b9050919050565b60006064821115151561029557600080fd5b6102b26102a06103f7565b600a0a8361043c90919063ffffffff16565b9050919050565b60006102c36103f7565b600201905090565b600080905090565b60006103016102e0610400565b6102f3848661043c90919063ffffffff16565b61041290919063ffffffff16565b905092915050565b600073__Utils_________________________________63bda4e619848461032f610400565b6040518463ffffffff167c010000000000000000000000000000000000000000000000000000000002815260040180848152602001838152602001828152602001935050505060206040518083038186803b15801561038d57600080fd5b505af41580156103a1573d6000803e3d6000fd5b505050506040513d60208110156103b757600080fd5b8101908080519060200190929190505050905092915050565b60006103da6102cb565b82101580156103f057506103ec610400565b8211155b9050919050565b60006002905090565b600061040a6102b9565b600a0a905090565b60008060008311151561042457600080fd5b828481151561042f57fe5b0490508091505092915050565b60008060008414156104515760009150610473565b828402905082848281151561046257fe5b0414151561046f57600080fd5b8091505b50929150505600a165627a7a723058209a3920d065962900e8d7f8ea124b9b5a4c472ae5f8ae2a689a0b2c487870d6e50029",
  "source": "pragma solidity 0.4.24;\n\nimport \"openzeppelin-solidity/contracts/math/SafeMath.sol\";\nimport \"./Utils.sol\";\n\n\nlibrary Percent {\n    using SafeMath for uint;\n\n    // solhint-disable func-name-mixedcase\n    function ADD_EXP() public pure returns (uint) { return 2; }\n    function EXP() public pure returns (uint) { return 2 + ADD_EXP(); }\n    function MIN() public pure returns (uint) { return 0; }\n    function MAX() public pure returns (uint) { return 10 ** EXP(); }\n    // solhint-enable func-name-mixedcase\n\n    function percent(uint _a, uint _b) public pure returns (uint) {\n        return _a.mul(_b).div(MAX());\n    }\n\n    function safePercent(uint _a, uint _b) public pure returns (uint) {\n        return Utils.safeMulDiv(_a, _b, MAX());\n    }\n\n    function isPercent(uint _a) public pure returns (bool) {\n        return _a >= MIN() && _a <= MAX();\n    }\n\n    function toPercent(uint _a) public pure returns (uint) {\n        require(_a <= 100);\n\n        return _a.mul(10 ** ADD_EXP());\n    }\n\n    function fromPercent(uint _a) public pure returns (uint) {\n        require(isPercent(_a));\n\n        return _a.div(10 ** ADD_EXP());\n    }\n}\n",
  "sourcePath": "/Users/gauss/_games/w12/Protocol/contracts/libs/Percent.sol",
  "compiler": {
    "name": "solc",
    "version": "0.4.24+commit.e67f0147.Emscripten.clang"
  },
  "schemaVersion": "3.0.16",
  "updatedAt": "2019-10-06T23:01:18.425Z"
}