{
  "contractName": "Percent",
  "abi": [
    {
      "constant": true,
      "inputs": [],
      "name": "ADD_EXP",
      "outputs": [
        {
          "name": "",
          "type": "uint256"
        }
      ],
      "payable": false,
      "stateMutability": "pure",
      "type": "function"
    },
    {
      "constant": true,
      "inputs": [],
      "name": "EXP",
      "outputs": [
        {
          "name": "",
          "type": "uint256"
        }
      ],
      "payable": false,
      "stateMutability": "pure",
      "type": "function"
    },
    {
      "constant": true,
      "inputs": [],
      "name": "MIN",
      "outputs": [
        {
          "name": "",
          "type": "uint256"
        }
      ],
      "payable": false,
      "stateMutability": "pure",
      "type": "function"
    },
    {
      "constant": true,
      "inputs": [],
      "name": "MAX",
      "outputs": [
        {
          "name": "",
          "type": "uint256"
        }
      ],
      "payable": false,
      "stateMutability": "pure",
      "type": "function"
    }
  ],
  "bytecode": "0x60f861002f600b82828239805160001a6073146000811461001f57610021565bfe5b5030600052607381538281f300730000000000000000000000000000000000000000301460806040526004361060735763ffffffff7c01000000000000000000000000000000000000000000000000000000006000350416631a12cd478114607857806337a7f2b7146090578063bc9c0891146096578063d49d518114609c575b600080fd5b607e60a2565b60408051918252519081900360200190f35b607e60b2565b607e60b7565b607e60bc565b600060aa60b7565b600201905090565b600090565b600290565b600060c460a2565b600a0a9050905600a165627a7a72305820c5545c01a59a785a8ae1d9861c80212a14d4c8451399a055c76f11e218f823720029",
  "source": "pragma solidity ^0.4.24;\n\nimport \"openzeppelin-solidity/contracts/math/SafeMath.sol\";\nimport \"./Utils.sol\";\n\nlibrary Percent {\n    using SafeMath for uint;\n\n    function ADD_EXP() public pure returns (uint) { return 2; }\n    function EXP() public pure returns (uint) { return 2 + ADD_EXP(); }\n    function MIN() public pure returns (uint) { return 0; }\n    function MAX() public pure returns (uint) { return 10 ** EXP(); }\n\n    function percent(uint _a, uint _b) internal pure returns (uint) {\n        return _a.mul(_b).div(MAX());\n    }\n\n    function safePercent(uint _a, uint _b) internal pure returns (uint) {\n        return Utils.safeMulDiv(_a, _b, MAX());\n    }\n\n    function isPercent(uint _a) internal pure returns (bool) {\n        return _a >= MIN() && _a <= MAX();\n    }\n\n    function toPercent(uint _a) internal pure returns (uint) {\n        require(_a <= 100);\n\n        return _a.mul(10 ** ADD_EXP());\n    }\n\n    function fromPercent(uint _a) internal pure returns (uint) {\n        require(isPercent(_a));\n\n        return _a.div(10 ** ADD_EXP());\n    }\n}\n",
  "sourcePath": "/home/circleci/code/contracts/libs/Percent.sol",
  "compiler": {
    "name": "solc",
    "version": "0.4.24+commit.e67f0147.Emscripten.clang"
  },
  "schemaVersion": "2.0.1",
  "updatedAt": "2018-10-22T07:59:52.057Z"
}