{
  "contractName": "PercentMock",
  "abi": [
    {
      "constant": true,
      "inputs": [
        {
          "name": "_a",
          "type": "uint256"
        },
        {
          "name": "_b",
          "type": "uint256"
        }
      ],
      "name": "percent",
      "outputs": [
        {
          "name": "",
          "type": "uint256"
        }
      ],
      "payable": false,
      "stateMutability": "pure",
      "type": "function"
    },
    {
      "constant": true,
      "inputs": [
        {
          "name": "_a",
          "type": "uint256"
        }
      ],
      "name": "isPercent",
      "outputs": [
        {
          "name": "",
          "type": "bool"
        }
      ],
      "payable": false,
      "stateMutability": "pure",
      "type": "function"
    },
    {
      "constant": true,
      "inputs": [
        {
          "name": "_a",
          "type": "uint256"
        }
      ],
      "name": "toPercent",
      "outputs": [
        {
          "name": "",
          "type": "uint256"
        }
      ],
      "payable": false,
      "stateMutability": "pure",
      "type": "function"
    },
    {
      "constant": true,
      "inputs": [
        {
          "name": "_a",
          "type": "uint256"
        }
      ],
      "name": "fromPercent",
      "outputs": [
        {
          "name": "",
          "type": "uint256"
        }
      ],
      "payable": false,
      "stateMutability": "pure",
      "type": "function"
    }
  ],
  "bytecode": "0x608060405234801561001057600080fd5b5061046a806100206000396000f300608060405260043610610062576000357c0100000000000000000000000000000000000000000000000000000000900463ffffffff1680630fe911471461006757806317b8f5e1146100a857806342318e3d146100e9578063520b006614610134575b600080fd5b34801561007357600080fd5b5061009260048036038101908080359060200190929190505050610179565b6040518082815260200191505060405180910390f35b3480156100b457600080fd5b506100d360048036038101908080359060200190929190505050610228565b6040518082815260200191505060405180910390f35b3480156100f557600080fd5b5061011e60048036038101908080359060200190929190803590602001909291905050506102d7565b6040518082815260200191505060405180910390f35b34801561014057600080fd5b5061015f6004803603810190808035906020019092919050505061038f565b604051808215151515815260200191505060405180910390f35b600073__Percent_______________________________630fe91147836040518263ffffffff167c01000000000000000000000000000000000000000000000000000000000281526004018082815260200191505060206040518083038186803b1580156101e657600080fd5b505af41580156101fa573d6000803e3d6000fd5b505050506040513d602081101561021057600080fd5b81019080805190602001909291905050509050919050565b600073__Percent_______________________________6317b8f5e1836040518263ffffffff167c01000000000000000000000000000000000000000000000000000000000281526004018082815260200191505060206040518083038186803b15801561029557600080fd5b505af41580156102a9573d6000803e3d6000fd5b505050506040513d60208110156102bf57600080fd5b81019080805190602001909291905050509050919050565b600073__Percent_______________________________6342318e3d84846040518363ffffffff167c0100000000000000000000000000000000000000000000000000000000028152600401808381526020018281526020019250505060206040518083038186803b15801561034c57600080fd5b505af4158015610360573d6000803e3d6000fd5b505050506040513d602081101561037657600080fd5b8101908080519060200190929190505050905092915050565b600073__Percent_______________________________63520b0066836040518263ffffffff167c01000000000000000000000000000000000000000000000000000000000281526004018082815260200191505060206040518083038186803b1580156103fc57600080fd5b505af4158015610410573d6000803e3d6000fd5b505050506040513d602081101561042657600080fd5b810190808051906020019092919050505090509190505600a165627a7a723058201a7890ef0528ae16a627ffdc6a7626b0e9f78d6cd537def51534c02fd39a1c790029",
  "source": "pragma solidity 0.4.24;\n\nimport \"openzeppelin-solidity/contracts/math/SafeMath.sol\";\nimport \"../../libs/Percent.sol\";\n\n\ncontract PercentMock {\n    using SafeMath for uint;\n    using Percent for uint;\n\n    function percent(uint _a, uint _b) public pure returns (uint)  {\n        return Percent.percent(_a, _b);\n    }\n\n    function isPercent(uint _a) public pure returns (bool) {\n        return Percent.isPercent(_a);\n    }\n\n    function toPercent(uint _a) public pure returns (uint) {\n        return Percent.toPercent(_a);\n    }\n\n    function fromPercent(uint _a) public pure returns (uint) {\n        return Percent.fromPercent(_a);\n    }\n}\n",
  "sourcePath": "/Users/gauss/_games/w12/W12-Product-Blockchain-Protocol/contracts/mocks/libs/PercentMock.sol",
  "compiler": {
    "name": "solc",
    "version": "0.4.24+commit.e67f0147.Emscripten.clang"
  },
  "schemaVersion": "3.0.10",
  "updatedAt": "2019-06-17T16:23:09.163Z",
  "devdoc": {
    "methods": {}
  },
  "userdoc": {
    "methods": {}
  }
}