{
  "contractName": "Percent",
  "abi": [
    {
      "constant": true,
      "inputs": [],
      "name": "ADD_EXP",
      "outputs": [
        {
          "name": "",
          "type": "uint256"
        }
      ],
      "payable": false,
      "stateMutability": "pure",
      "type": "function"
    },
    {
      "constant": true,
      "inputs": [],
      "name": "EXP",
      "outputs": [
        {
          "name": "",
          "type": "uint256"
        }
      ],
      "payable": false,
      "stateMutability": "pure",
      "type": "function"
    },
    {
      "constant": true,
      "inputs": [],
      "name": "MIN",
      "outputs": [
        {
          "name": "",
          "type": "uint256"
        }
      ],
      "payable": false,
      "stateMutability": "pure",
      "type": "function"
    },
    {
      "constant": true,
      "inputs": [],
      "name": "MAX",
      "outputs": [
        {
          "name": "",
          "type": "uint256"
        }
      ],
      "payable": false,
      "stateMutability": "pure",
      "type": "function"
    }
  ],
  "bytecode": "0x610157610030600b82828239805160001a6073146000811461002057610022565bfe5b5030600052607381538281f3007300000000000000000000000000000000000000003014608060405260043610610079576000357c0100000000000000000000000000000000000000000000000000000000900463ffffffff1680631a12cd471461007e57806337a7f2b71461009c578063bc9c0891146100ba578063d49d5181146100d8575b600080fd5b6100866100f6565b6040518082815260200191505060405180910390f35b6100a4610108565b6040518082815260200191505060405180910390f35b6100c2610110565b6040518082815260200191505060405180910390f35b6100e0610119565b6040518082815260200191505060405180910390f35b6000610100610110565b600201905090565b600080905090565b60006002905090565b60006101236100f6565b600a0a9050905600a165627a7a72305820e666254aba4f02180df78fb360fed82243c62732064504e631d85b3175c7da8e0029",
  "source": "pragma solidity ^0.4.24;\n\nimport \"openzeppelin-solidity/contracts/math/SafeMath.sol\";\n\nlibrary Percent {\n    using SafeMath for uint;\n\n    function ADD_EXP() public pure returns (uint) { return 2; }\n    function EXP() public pure returns (uint) { return 2 + ADD_EXP(); }\n    function MIN() public pure returns (uint) { return 0; }\n    function MAX() public pure returns (uint) { return 10 ** EXP(); }\n\n    function percent(uint _a, uint _b) internal pure returns (uint) {\n        require(isPercent(_b));\n\n        return _a.mul(_b).div(MAX());\n    }\n\n    function isPercent(uint _a) internal pure returns (bool) {\n        return _a >= MIN() && _a <= MAX();\n    }\n\n    function toPercent(uint _a) internal pure returns (uint) {\n        require(_a <= 100);\n\n        return _a.mul(10 ** ADD_EXP());\n    }\n\n    function fromPercent(uint _a) internal pure returns (uint) {\n        require(isPercent(_a));\n\n        return _a.div(10 ** ADD_EXP());\n    }\n}\n",
  "sourcePath": "/home/circleci/code/contracts/libs/Percent.sol",
  "compiler": {
    "name": "solc",
    "version": "0.4.24+commit.e67f0147.Emscripten.clang"
  },
  "schemaVersion": "2.0.1",
  "updatedAt": "2018-09-28T12:13:35.884Z"
}