{
  "contractName": "PercentMock",
  "abi": [
    {
      "constant": true,
      "inputs": [
        {
          "name": "_a",
          "type": "uint256"
        },
        {
          "name": "_b",
          "type": "uint256"
        }
      ],
      "name": "percent",
      "outputs": [
        {
          "name": "",
          "type": "uint256"
        }
      ],
      "payable": false,
      "stateMutability": "pure",
      "type": "function"
    },
    {
      "constant": true,
      "inputs": [
        {
          "name": "_a",
          "type": "uint256"
        }
      ],
      "name": "isPercent",
      "outputs": [
        {
          "name": "",
          "type": "bool"
        }
      ],
      "payable": false,
      "stateMutability": "pure",
      "type": "function"
    },
    {
      "constant": true,
      "inputs": [
        {
          "name": "_a",
          "type": "uint256"
        }
      ],
      "name": "toPercent",
      "outputs": [
        {
          "name": "",
          "type": "uint256"
        }
      ],
      "payable": false,
      "stateMutability": "pure",
      "type": "function"
    },
    {
      "constant": true,
      "inputs": [
        {
          "name": "_a",
          "type": "uint256"
        }
      ],
      "name": "fromPercent",
      "outputs": [
        {
          "name": "",
          "type": "uint256"
        }
      ],
      "payable": false,
      "stateMutability": "pure",
      "type": "function"
    }
  ],
  "bytecode": "0x608060405234801561001057600080fd5b506102bf806100206000396000f3006080604052600436106100485763ffffffff60e060020a6000350416630fe91147811461004d57806317b8f5e11461007757806342318e3d1461008f578063520b0066146100aa575b600080fd5b34801561005957600080fd5b506100656004356100d6565b60408051918252519081900360200190f35b34801561008357600080fd5b5061006560043561015c565b34801561009b57600080fd5b506100656004356024356101b0565b3480156100b657600080fd5b506100c260043561023f565b604080519115158252519081900360200190f35b600073__Percent_______________________________630fe91147836040518263ffffffff1660e060020a0281526004018082815260200191505060206040518083038186803b15801561012a57600080fd5b505af415801561013e573d6000803e3d6000fd5b505050506040513d602081101561015457600080fd5b505192915050565b600073__Percent_______________________________6317b8f5e1836040518263ffffffff1660e060020a0281526004018082815260200191505060206040518083038186803b15801561012a57600080fd5b600073__Percent_______________________________6342318e3d84846040518363ffffffff1660e060020a028152600401808381526020018281526020019250505060206040518083038186803b15801561020c57600080fd5b505af4158015610220573d6000803e3d6000fd5b505050506040513d602081101561023657600080fd5b50519392505050565b600073__Percent_______________________________63520b0066836040518263ffffffff1660e060020a0281526004018082815260200191505060206040518083038186803b15801561012a57600080fd00a165627a7a72305820166cb3f3c16af42b67d9fad9eeb4c7e4797772af75bdaa11ca372b116a45ccd20029",
  "source": "pragma solidity ^0.4.24;\n\nimport \"openzeppelin-solidity/contracts/math/SafeMath.sol\";\nimport \"../../libs/Percent.sol\";\n\ncontract PercentMock {\n    using SafeMath for uint;\n    using Percent for uint;\n\n    function percent(uint _a, uint _b) public pure returns (uint)  {\n        return Percent.percent(_a, _b);\n    }\n\n    function isPercent(uint _a) public pure returns (bool) {\n        return Percent.isPercent(_a);\n    }\n\n    function toPercent(uint _a) public pure returns (uint) {\n        return Percent.toPercent(_a);\n    }\n\n    function fromPercent(uint _a) public pure returns (uint) {\n        return Percent.fromPercent(_a);\n    }\n}\n",
  "sourcePath": "/home/circleci/code/contracts/mocks/libs/PercentMock.sol",
  "compiler": {
    "name": "solc",
    "version": "0.4.24+commit.e67f0147.Emscripten.clang"
  },
  "schemaVersion": "2.0.1",
  "updatedAt": "2018-12-12T11:17:39.553Z"
}