{
  "contractName": "Percent",
  "abi": [
    {
      "constant": true,
      "inputs": [],
      "name": "ADD_EXP",
      "outputs": [
        {
          "name": "",
          "type": "uint256"
        }
      ],
      "payable": false,
      "stateMutability": "pure",
      "type": "function"
    },
    {
      "constant": true,
      "inputs": [],
      "name": "EXP",
      "outputs": [
        {
          "name": "",
          "type": "uint256"
        }
      ],
      "payable": false,
      "stateMutability": "pure",
      "type": "function"
    },
    {
      "constant": true,
      "inputs": [],
      "name": "MIN",
      "outputs": [
        {
          "name": "",
          "type": "uint256"
        }
      ],
      "payable": false,
      "stateMutability": "pure",
      "type": "function"
    },
    {
      "constant": true,
      "inputs": [],
      "name": "MAX",
      "outputs": [
        {
          "name": "",
          "type": "uint256"
        }
      ],
      "payable": false,
      "stateMutability": "pure",
      "type": "function"
    },
    {
      "constant": true,
      "inputs": [
        {
          "name": "_a",
          "type": "uint256"
        },
        {
          "name": "_b",
          "type": "uint256"
        }
      ],
      "name": "percent",
      "outputs": [
        {
          "name": "",
          "type": "uint256"
        }
      ],
      "payable": false,
      "stateMutability": "pure",
      "type": "function"
    },
    {
      "constant": true,
      "inputs": [
        {
          "name": "_a",
          "type": "uint256"
        },
        {
          "name": "_b",
          "type": "uint256"
        }
      ],
      "name": "safePercent",
      "outputs": [
        {
          "name": "",
          "type": "uint256"
        }
      ],
      "payable": false,
      "stateMutability": "pure",
      "type": "function"
    },
    {
      "constant": true,
      "inputs": [
        {
          "name": "_a",
          "type": "uint256"
        }
      ],
      "name": "isPercent",
      "outputs": [
        {
          "name": "",
          "type": "bool"
        }
      ],
      "payable": false,
      "stateMutability": "pure",
      "type": "function"
    },
    {
      "constant": true,
      "inputs": [
        {
          "name": "_a",
          "type": "uint256"
        }
      ],
      "name": "toPercent",
      "outputs": [
        {
          "name": "",
          "type": "uint256"
        }
      ],
      "payable": false,
      "stateMutability": "pure",
      "type": "function"
    },
    {
      "constant": true,
      "inputs": [
        {
          "name": "_a",
          "type": "uint256"
        }
      ],
      "name": "fromPercent",
      "outputs": [
        {
          "name": "",
          "type": "uint256"
        }
      ],
      "payable": false,
      "stateMutability": "pure",
      "type": "function"
    }
  ],
  "bytecode": "0x610355610030600b82828239805160001a6073146000811461002057610022565bfe5b5030600052607381538281f30073000000000000000000000000000000000000000030146080604052600436106100af5763ffffffff7c01000000000000000000000000000000000000000000000000000000006000350416630fe9114781146100b457806317b8f5e1146100d15780631a12cd47146100dc57806337a7f2b7146100e457806342318e3d146100ec57806350716c0e146100fa578063520b006614610108578063bc9c089114610127578063d49d51811461012f575b600080fd5b6100bf600435610137565b60408051918252519081900360200190f35b6100bf60043561016e565b6100bf610199565b6100bf6101ab565b6100bf6004356024356101b0565b6100bf6004356024356101e0565b610113600435610297565b604080519115158252519081900360200190f35b6100bf6102bc565b6100bf6102c1565b600061014282610297565b151561014d57600080fd5b6101686101586102bc565b8390600a0a63ffffffff6102d316565b92915050565b6000606482111561017e57600080fd5b6101686101896102bc565b8390600a0a63ffffffff6102fb16565b60006101a36102bc565b600201905090565b600090565b60006101d96101bd6102c1565b6101cd858563ffffffff6102fb16565b9063ffffffff6102d316565b9392505050565b600073__Utils_________________________________63bda4e61984846102066102c1565b6040518463ffffffff167c010000000000000000000000000000000000000000000000000000000002815260040180848152602001838152602001828152602001935050505060206040518083038186803b15801561026457600080fd5b505af4158015610278573d6000803e3d6000fd5b505050506040513d602081101561028e57600080fd5b50519392505050565b60006102a16101ab565b821015801561016857506102b36102c1565b90911115919050565b600290565b60006102cb610199565b600a0a905090565b6000808083116102e257600080fd5b82848115156102ed57fe5b0490508091505b5092915050565b60008083151561030e57600091506102f4565b5082820282848281151561031e57fe5b04146101d957600080fd00a165627a7a72305820c48643d51b0502ff756ccc66e9575bc4c344bcb42cee00663f0cdc9eeb353fc90029",
  "source": "pragma solidity ^0.4.24;\n\nimport \"openzeppelin-solidity/contracts/math/SafeMath.sol\";\nimport \"./Utils.sol\";\n\nlibrary Percent {\n    using SafeMath for uint;\n\n    function ADD_EXP() public pure returns (uint) { return 2; }\n    function EXP() public pure returns (uint) { return 2 + ADD_EXP(); }\n    function MIN() public pure returns (uint) { return 0; }\n    function MAX() public pure returns (uint) { return 10 ** EXP(); }\n\n    function percent(uint _a, uint _b) public pure returns (uint) {\n        return _a.mul(_b).div(MAX());\n    }\n\n    function safePercent(uint _a, uint _b) public pure returns (uint) {\n        return Utils.safeMulDiv(_a, _b, MAX());\n    }\n\n    function isPercent(uint _a) public pure returns (bool) {\n        return _a >= MIN() && _a <= MAX();\n    }\n\n    function toPercent(uint _a) public pure returns (uint) {\n        require(_a <= 100);\n\n        return _a.mul(10 ** ADD_EXP());\n    }\n\n    function fromPercent(uint _a) public pure returns (uint) {\n        require(isPercent(_a));\n\n        return _a.div(10 ** ADD_EXP());\n    }\n}\n",
  "sourcePath": "/home/circleci/code/contracts/libs/Percent.sol",
  "compiler": {
    "name": "solc",
    "version": "0.4.24+commit.e67f0147.Emscripten.clang"
  },
  "schemaVersion": "2.0.1",
  "updatedAt": "2018-12-06T13:18:18.751Z"
}