{
  "contractName": "PricerRole",
  "abi": [
    {
      "inputs": [],
      "payable": false,
      "stateMutability": "nonpayable",
      "type": "constructor"
    },
    {
      "anonymous": false,
      "inputs": [
        {
          "indexed": true,
          "name": "account",
          "type": "address"
        }
      ],
      "name": "PricerAdded",
      "type": "event"
    },
    {
      "anonymous": false,
      "inputs": [
        {
          "indexed": true,
          "name": "account",
          "type": "address"
        }
      ],
      "name": "PricerRemoved",
      "type": "event"
    },
    {
      "constant": true,
      "inputs": [
        {
          "name": "account",
          "type": "address"
        }
      ],
      "name": "isPricer",
      "outputs": [
        {
          "name": "",
          "type": "bool"
        }
      ],
      "payable": false,
      "stateMutability": "view",
      "type": "function"
    },
    {
      "constant": false,
      "inputs": [
        {
          "name": "account",
          "type": "address"
        }
      ],
      "name": "addPricer",
      "outputs": [],
      "payable": false,
      "stateMutability": "nonpayable",
      "type": "function"
    },
    {
      "constant": false,
      "inputs": [
        {
          "name": "account",
          "type": "address"
        }
      ],
      "name": "removePricer",
      "outputs": [],
      "payable": false,
      "stateMutability": "nonpayable",
      "type": "function"
    }
  ],
  "bytecode": "0x608060405234801561001057600080fd5b5061002333640100000000610028810204565b6100b1565b600160a060020a038116151561003d57600080fd5b6100556000826401000000006101ee61008c82021704565b604051600160a060020a038216907f02edb648fd57120edd0afed403c9fbc3205997fd07c01b3db9e1ed05647e9ebe90600090a250565b600160a060020a0316600090815260209190915260409020805460ff19166001179055565b610261806100c06000396000f3006080604052600436106100565763ffffffff7c0100000000000000000000000000000000000000000000000000000000600035041663451a5e65811461005b57806379d445731461007e578063e92179441461009f575b600080fd5b34801561006757600080fd5b5061007c600160a060020a03600435166100d4565b005b34801561008a57600080fd5b5061007c600160a060020a03600435166100f4565b3480156100ab57600080fd5b506100c0600160a060020a03600435166100fd565b604080519115158252519081900360200190f35b6100dd336100fd565b15156100e857600080fd5b6100f181610115565b50565b6100f181610172565b600061010f818363ffffffff6101cf16565b92915050565b600160a060020a038116151561012a57600080fd5b61013b60008263ffffffff6101ee16565b604051600160a060020a038216907f02edb648fd57120edd0afed403c9fbc3205997fd07c01b3db9e1ed05647e9ebe90600090a250565b600160a060020a038116151561018757600080fd5b61019860008263ffffffff61021316565b604051600160a060020a038216907fdbde5a1472d701cfaea5fcee6419072f226c14cc6c5478fbe8552044053a316a90600090a250565b600160a060020a03166000908152602091909152604090205460ff1690565b600160a060020a0316600090815260209190915260409020805460ff19166001179055565b600160a060020a0316600090815260209190915260409020805460ff191690555600a165627a7a72305820bf8884a849f93aaa77de2c7782d535365976d958a1c623476238be3a2555e6c00029",
  "source": "pragma solidity ^0.4.24;\n\nimport \"openzeppelin-solidity/contracts/access/rbac/Roles.sol\";\nimport \"./IPricer.sol\";\n\ncontract PricerRole is IPricerRole {\n    using Roles for Roles.Role;\n\n    event PricerAdded(address indexed account);\n    event PricerRemoved(address indexed account);\n\n    Roles.Role private pricers;\n\n    constructor() public {\n        _addPricer(msg.sender);\n    }\n\n    modifier onlyPricer() {\n        require(isPricer(msg.sender));\n        _;\n    }\n\n    function isPricer(address account) public view returns (bool) {\n        return pricers.has(account);\n    }\n\n    function addPricer(address account) public onlyPricer {\n        _addPricer(account);\n    }\n\n    function removePricer(address account) public {\n        _removePricer(account);\n    }\n\n    function _addPricer(address account) internal {\n        require(account != address(0));\n\n        pricers.add(account);\n        emit PricerAdded(account);\n    }\n\n    function _removePricer(address account) internal {\n        require(account != address(0));\n\n        pricers.remove(account);\n        emit PricerRemoved(account);\n    }\n}\n",
  "sourcePath": "/home/circleci/code/contracts/rates/roles/Pricer.sol",
  "compiler": {
    "name": "solc",
    "version": "0.4.24+commit.e67f0147.Emscripten.clang"
  },
  "schemaVersion": "2.0.1",
  "updatedAt": "2018-10-22T07:56:01.682Z"
}