{
  "contractName": "PricerRole",
  "abi": [
    {
      "inputs": [],
      "payable": false,
      "stateMutability": "nonpayable",
      "type": "constructor"
    },
    {
      "anonymous": false,
      "inputs": [
        {
          "indexed": true,
          "name": "account",
          "type": "address"
        }
      ],
      "name": "PricerAdded",
      "type": "event"
    },
    {
      "anonymous": false,
      "inputs": [
        {
          "indexed": true,
          "name": "account",
          "type": "address"
        }
      ],
      "name": "PricerRemoved",
      "type": "event"
    },
    {
      "constant": true,
      "inputs": [
        {
          "name": "account",
          "type": "address"
        }
      ],
      "name": "isPricer",
      "outputs": [
        {
          "name": "",
          "type": "bool"
        }
      ],
      "payable": false,
      "stateMutability": "view",
      "type": "function"
    },
    {
      "constant": false,
      "inputs": [
        {
          "name": "account",
          "type": "address"
        }
      ],
      "name": "addPricer",
      "outputs": [],
      "payable": false,
      "stateMutability": "nonpayable",
      "type": "function"
    },
    {
      "constant": false,
      "inputs": [
        {
          "name": "account",
          "type": "address"
        }
      ],
      "name": "removePricer",
      "outputs": [],
      "payable": false,
      "stateMutability": "nonpayable",
      "type": "function"
    }
  ],
  "bytecode": "0x608060405234801561001057600080fd5b506100293361002e640100000000026401000000009004565b61012f565b600073ffffffffffffffffffffffffffffffffffffffff168173ffffffffffffffffffffffffffffffffffffffff161415151561006a57600080fd5b61008b8160006100d16401000000000261030b179091906401000000009004565b8073ffffffffffffffffffffffffffffffffffffffff167f02edb648fd57120edd0afed403c9fbc3205997fd07c01b3db9e1ed05647e9ebe60405160405180910390a250565b60018260000160008373ffffffffffffffffffffffffffffffffffffffff1673ffffffffffffffffffffffffffffffffffffffff16815260200190815260200160002060006101000a81548160ff0219169083151502179055505050565b6103f38061013e6000396000f300608060405260043610610057576000357c0100000000000000000000000000000000000000000000000000000000900463ffffffff168063451a5e651461005c57806379d445731461009f578063e9217944146100e2575b600080fd5b34801561006857600080fd5b5061009d600480360381019080803573ffffffffffffffffffffffffffffffffffffffff16906020019092919050505061013d565b005b3480156100ab57600080fd5b506100e0600480360381019080803573ffffffffffffffffffffffffffffffffffffffff16906020019092919050505061015d565b005b3480156100ee57600080fd5b50610123600480360381019080803573ffffffffffffffffffffffffffffffffffffffff169060200190929190505050610169565b604051808215151515815260200191505060405180910390f35b61014633610169565b151561015157600080fd5b61015a81610186565b50565b6101668161021c565b50565b600061017f8260006102b290919063ffffffff16565b9050919050565b600073ffffffffffffffffffffffffffffffffffffffff168173ffffffffffffffffffffffffffffffffffffffff16141515156101c257600080fd5b6101d681600061030b90919063ffffffff16565b8073ffffffffffffffffffffffffffffffffffffffff167f02edb648fd57120edd0afed403c9fbc3205997fd07c01b3db9e1ed05647e9ebe60405160405180910390a250565b600073ffffffffffffffffffffffffffffffffffffffff168173ffffffffffffffffffffffffffffffffffffffff161415151561025857600080fd5b61026c81600061036990919063ffffffff16565b8073ffffffffffffffffffffffffffffffffffffffff167fdbde5a1472d701cfaea5fcee6419072f226c14cc6c5478fbe8552044053a316a60405160405180910390a250565b60008260000160008373ffffffffffffffffffffffffffffffffffffffff1673ffffffffffffffffffffffffffffffffffffffff16815260200190815260200160002060009054906101000a900460ff16905092915050565b60018260000160008373ffffffffffffffffffffffffffffffffffffffff1673ffffffffffffffffffffffffffffffffffffffff16815260200190815260200160002060006101000a81548160ff0219169083151502179055505050565b60008260000160008373ffffffffffffffffffffffffffffffffffffffff1673ffffffffffffffffffffffffffffffffffffffff16815260200190815260200160002060006101000a81548160ff02191690831515021790555050505600a165627a7a72305820f6d7c6a22d5c7e5de5996bf350eef128d97c295288cfedb2766a9250e762ab6c0029",
  "source": "pragma solidity ^0.4.24;\n\nimport \"openzeppelin-solidity/contracts/access/rbac/Roles.sol\";\n\ncontract PricerRole {\n    using Roles for Roles.Role;\n\n    event PricerAdded(address indexed account);\n    event PricerRemoved(address indexed account);\n\n    Roles.Role private pricers;\n\n    constructor() public {\n        _addPricer(msg.sender);\n    }\n\n    modifier onlyPricer() {\n        require(isPricer(msg.sender));\n        _;\n    }\n\n    function isPricer(address account) public view returns (bool) {\n        return pricers.has(account);\n    }\n\n    function addPricer(address account) public onlyPricer {\n        _addPricer(account);\n    }\n\n    function removePricer(address account) public {\n        _removePricer(account);\n    }\n\n    function _addPricer(address account) internal {\n        require(account != address(0));\n\n        pricers.add(account);\n        emit PricerAdded(account);\n    }\n\n    function _removePricer(address account) internal {\n        require(account != address(0));\n\n        pricers.remove(account);\n        emit PricerRemoved(account);\n    }\n}\n",
  "sourcePath": "/home/circleci/code/contracts/rates/roles/Pricer.sol",
  "compiler": {
    "name": "solc",
    "version": "0.4.24+commit.e67f0147.Emscripten.clang"
  },
  "schemaVersion": "2.0.1",
  "updatedAt": "2018-09-28T12:09:35.625Z"
}