{
  "contractName": "PurchaseProcessingMock",
  "abi": [
    {
      "payable": true,
      "stateMutability": "payable",
      "type": "fallback"
    },
    {
      "constant": true,
      "inputs": [
        {
          "name": "method",
          "type": "bytes32"
        },
        {
          "name": "paymentAmount",
          "type": "uint256"
        },
        {
          "name": "methodUSDRate",
          "type": "uint256"
        },
        {
          "name": "tokenUSDRate",
          "type": "uint256"
        },
        {
          "name": "currentBalanceInTokens",
          "type": "uint256"
        },
        {
          "name": "tokenDecimals",
          "type": "uint256"
        },
        {
          "name": "methodDecimals",
          "type": "uint256"
        }
      ],
      "name": "checkInvoiceInput",
      "outputs": [
        {
          "name": "",
          "type": "bool"
        }
      ],
      "payable": false,
      "stateMutability": "view",
      "type": "function"
    },
    {
      "constant": true,
      "inputs": [
        {
          "name": "method",
          "type": "bytes32"
        },
        {
          "name": "paymentAmount",
          "type": "uint256"
        },
        {
          "name": "discount",
          "type": "uint256"
        },
        {
          "name": "volumeBoundaries",
          "type": "uint256[]"
        },
        {
          "name": "volumeBonuses",
          "type": "uint256[]"
        },
        {
          "name": "methodUSDRate",
          "type": "uint256"
        },
        {
          "name": "tokenUSDRate",
          "type": "uint256"
        },
        {
          "name": "tokenDecimals",
          "type": "uint256"
        },
        {
          "name": "methodDecimals",
          "type": "uint256"
        },
        {
          "name": "currentBalanceInTokens",
          "type": "uint256"
        }
      ],
      "name": "invoice",
      "outputs": [
        {
          "name": "",
          "type": "uint256[5]"
        }
      ],
      "payable": false,
      "stateMutability": "view",
      "type": "function"
    },
    {
      "constant": true,
      "inputs": [
        {
          "name": "tokenAmount",
          "type": "uint256"
        },
        {
          "name": "cost",
          "type": "uint256"
        },
        {
          "name": "tokenFee",
          "type": "uint256"
        },
        {
          "name": "purchaseFee",
          "type": "uint256"
        }
      ],
      "name": "fee",
      "outputs": [
        {
          "name": "",
          "type": "uint256[2]"
        }
      ],
      "payable": false,
      "stateMutability": "view",
      "type": "function"
    },
    {
      "constant": false,
      "inputs": [
        {
          "name": "_fee",
          "type": "uint256[2]"
        },
        {
          "name": "method",
          "type": "bytes32"
        },
        {
          "name": "methodToken",
          "type": "address"
        },
        {
          "name": "token",
          "type": "address"
        },
        {
          "name": "originToken",
          "type": "address"
        },
        {
          "name": "exchanger",
          "type": "address"
        },
        {
          "name": "serviceWallet",
          "type": "address"
        }
      ],
      "name": "transferFee",
      "outputs": [],
      "payable": true,
      "stateMutability": "payable",
      "type": "function"
    },
    {
      "constant": false,
      "inputs": [
        {
          "name": "_invoice",
          "type": "uint256[5]"
        },
        {
          "name": "_fee",
          "type": "uint256[2]"
        },
        {
          "name": "vesting",
          "type": "uint32"
        },
        {
          "name": "method",
          "type": "bytes32"
        },
        {
          "name": "methodToken",
          "type": "address"
        },
        {
          "name": "token",
          "type": "address"
        }
      ],
      "name": "transferPurchase",
      "outputs": [],
      "payable": true,
      "stateMutability": "payable",
      "type": "function"
    },
    {
      "constant": true,
      "inputs": [
        {
          "name": "value",
          "type": "uint256"
        },
        {
          "name": "volumeBoundaries",
          "type": "uint256[]"
        },
        {
          "name": "volumeBonuses",
          "type": "uint256[]"
        }
      ],
      "name": "getBonus",
      "outputs": [
        {
          "name": "bonus",
          "type": "uint256"
        }
      ],
      "payable": false,
      "stateMutability": "view",
      "type": "function"
    }
  ],
  "bytecode": "0x608060405234801561001057600080fd5b506109d4806100206000396000f30060806040526004361061005e5763ffffffff60e060020a6000350416633676737c81146100605780634bb1e9ff146100d05780636cd5c0561461015957806391bfca31146101b5578063b8005df21461027e578063d8e5c91414610323575b005b60408051808201825261005e91369160049160449190839060029083908390808284375093965050833594505073ffffffffffffffffffffffffffffffffffffffff6020840135811693604081013582169350606081013582169250608081013582169160a09091013516610361565b6040805160a081810190925261005e91369160049160a49190839060059083908390808284375050604080518082018252949796958181019594509250600291508390839080828437509396505050823563ffffffff1693505050602081013590604081013573ffffffffffffffffffffffffffffffffffffffff908116916060013516610448565b34801561016557600080fd5b5061017a600435602435604435606435610553565b6040518082600260200280838360005b838110156101a257818101518382015260200161018a565b5050505090500191505060405180910390f35b3480156101c157600080fd5b506040805160643560048181013560208181028581018201909652818552610269958335956024803596604435963696909560849592909301929091829185019084908082843750506040805187358901803560208181028481018201909552818452989b9a9989019892975090820195509350839250850190849080828437509497505084359550505060208301359260408101359250606081013591506080013561061a565b60405181518152808260a0808383602061018a565b34801561028a57600080fd5b5060408051602060046024803582810135848102808701860190975280865261031196843596369660449591949091019291829185019084908082843750506040805187358901803560208181028481018201909552818452989b9a9989019892975090820195509350839250850190849080828437509497506107899650505050505050565b60408051918252519081900360200190f35b34801561032f57600080fd5b5061034d60043560243560443560643560843560a43560c43561089d565b604080519115158252519081900360200190f35b73__PurchaseProcessing____________________633676737c888888888888886040518863ffffffff1660e060020a0281526004018088600260200280838360005b838110156103bc5781810151838201526020016103a4565b5050505091909101978852505073ffffffffffffffffffffffffffffffffffffffff9485166020870152928416604080870191909152918416606086015283166080850152911660a08301525160c08083019350600092829003018186803b15801561042757600080fd5b505af415801561043b573d6000803e3d6000fd5b5050505050505050505050565b73__PurchaseProcessing____________________634bb1e9ff8787878787876040518763ffffffff1660e060020a0281526004018087600560200280838360005b838110156104a257818101518382015260200161048a565b5050505090500186600260200280838360005b838110156104cd5781810151838201526020016104b5565b50505063ffffffff90981692019182525060208101949094525073ffffffffffffffffffffffffffffffffffffffff9182166040808501919091529116606083015251608080830195506000945090925090829003018186803b15801561053357600080fd5b505af4158015610547573d6000803e3d6000fd5b50505050505050505050565b61055b61096e565b604080517f6cd5c05600000000000000000000000000000000000000000000000000000000815260048101879052602481018690526044810185905260648101849052815173__PurchaseProcessing____________________92636cd5c0569260848082019391829003018186803b1580156105d757600080fd5b505af41580156105eb573d6000803e3d6000fd5b505050506040513d601f19601f82011682018060405250604081101561061057600080fd5b5095945050505050565b610622610989565b73__PurchaseProcessing____________________6391bfca318c8c8c8c8c8c8c8c8c8c6040518b63ffffffff1660e060020a028152600401808b600019166000191681526020018a8152602001898152602001806020018060200188815260200187815260200186815260200185815260200184815260200183810383528a818151815260200191508051906020019060200280838360005b838110156106d45781810151838201526020016106bc565b50505050905001838103825289818151815260200191508051906020019060200280838360005b838110156107135781810151838201526020016106fb565b505050509050019c5050505050505050505050505060a06040518083038186803b15801561074057600080fd5b505af4158015610754573d6000803e3d6000fd5b505050506040513d601f19601f8201168201806040525060a081101561077957600080fd5b509b9a5050505050505050505050565b600073__PurchaseProcessing____________________63b8005df28585856040518463ffffffff1660e060020a028152600401808481526020018060200180602001838103835285818151815260200191508051906020019060200280838360005b838110156108045781810151838201526020016107ec565b50505050905001838103825284818151815260200191508051906020019060200280838360005b8381101561084357818101518382015260200161082b565b505050509050019550505050505060206040518083038186803b15801561086957600080fd5b505af415801561087d573d6000803e3d6000fd5b505050506040513d602081101561089357600080fd5b5051949350505050565b604080517fd8e5c914000000000000000000000000000000000000000000000000000000008152600481018990526024810188905260448101879052606481018690526084810185905260a4810184905260c48101839052905160009173__PurchaseProcessing____________________9163d8e5c9149160e480820192602092909190829003018186803b15801561093657600080fd5b505af415801561094a573d6000803e3d6000fd5b505050506040513d602081101561096057600080fd5b505198975050505050505050565b60408051808201825290600290829080388339509192915050565b60a06040519081016040528060059060208202803883395091929150505600a165627a7a723058209290f442d3a302e46f54273e64a93aed739e5887d78586e8a0c603f3b19625170029",
  "source": "pragma solidity ^0.4.24;\n\nimport \"../../libs/PurchaseProcessing.sol\";\n\ncontract PurchaseProcessingMock {\n\n    function checkInvoiceInput(\n        bytes32 method,\n        uint paymentAmount,\n        uint methodUSDRate,\n        uint tokenUSDRate,\n        uint currentBalanceInTokens,\n        uint tokenDecimals,\n        uint methodDecimals\n    ) public view returns(bool) {\n        return PurchaseProcessing.checkInvoiceInput(\n            method,\n            paymentAmount,\n            methodUSDRate,\n            tokenUSDRate,\n            currentBalanceInTokens,\n            tokenDecimals,\n            methodDecimals\n        );\n    }\n\n    function invoice(\n        bytes32 method,\n        uint paymentAmount,\n        uint discount,\n        uint[] volumeBoundaries,\n        uint[] volumeBonuses,\n        uint methodUSDRate,\n        uint tokenUSDRate,\n        uint tokenDecimals,\n        uint methodDecimals,\n        uint currentBalanceInTokens\n    )\n        public view returns(uint[5])\n    {\n        return PurchaseProcessing.invoice(\n            method,\n            paymentAmount,\n            discount,\n            volumeBoundaries,\n            volumeBonuses,\n            methodUSDRate,\n            tokenUSDRate,\n            tokenDecimals,\n            methodDecimals,\n            currentBalanceInTokens\n        );\n    }\n\n    function fee(uint tokenAmount, uint cost, uint tokenFee, uint purchaseFee) public view returns(uint[2]) {\n        return PurchaseProcessing.fee(\n            tokenAmount,\n            cost,\n            tokenFee,\n            purchaseFee\n        );\n    }\n\n    function transferFee(\n        uint [2] _fee,\n        bytes32 method,\n        address methodToken,\n        address token,\n        address originToken,\n        address exchanger,\n        address serviceWallet\n    ) public payable {\n        PurchaseProcessing.transferFee(\n            _fee,\n            method,\n            methodToken,\n            token,\n            originToken,\n            exchanger,\n            serviceWallet\n        );\n    }\n\n    function transferPurchase(uint[5] _invoice, uint[2] _fee, uint32 vesting, bytes32 method, address methodToken, address token) public payable {\n        PurchaseProcessing.transferPurchase(\n            _invoice,\n            _fee,\n            vesting,\n            method,\n            methodToken,\n            token\n        );\n    }\n\n    function getBonus(uint value, uint[] volumeBoundaries, uint[] volumeBonuses) public view returns(uint bonus) {\n        return PurchaseProcessing.getBonus(\n            value,\n            volumeBoundaries,\n            volumeBonuses\n        );\n    }\n\n    function () public payable {}\n}\n",
  "sourcePath": "/home/circleci/code/contracts/mocks/libs/PurchaseProcessing.sol",
  "compiler": {
    "name": "solc",
    "version": "0.4.24+commit.e67f0147.Emscripten.clang"
  },
  "schemaVersion": "2.0.1",
  "updatedAt": "2018-12-06T13:18:18.804Z"
}