{
  "contractName": "PurchaseProcessing",
  "abi": [
    {
      "constant": true,
      "inputs": [
        {
          "name": "method",
          "type": "bytes32"
        },
        {
          "name": "paymentAmount",
          "type": "uint256"
        },
        {
          "name": "discount",
          "type": "uint256"
        },
        {
          "name": "volumeBoundaries",
          "type": "uint256[]"
        },
        {
          "name": "volumeBonuses",
          "type": "uint256[]"
        },
        {
          "name": "methodUSDRate",
          "type": "uint256"
        },
        {
          "name": "tokenUSDRate",
          "type": "uint256"
        },
        {
          "name": "tokenDecimals",
          "type": "uint256"
        },
        {
          "name": "methodDecimals",
          "type": "uint256"
        },
        {
          "name": "currentBalanceInTokens",
          "type": "uint256"
        }
      ],
      "name": "invoice",
      "outputs": [
        {
          "name": "result",
          "type": "uint256[5]"
        }
      ],
      "payable": false,
      "stateMutability": "view",
      "type": "function"
    },
    {
      "constant": true,
      "inputs": [
        {
          "name": "method",
          "type": "bytes32"
        },
        {
          "name": "tokenAmount",
          "type": "uint256"
        },
        {
          "name": "discount",
          "type": "uint256"
        },
        {
          "name": "volumeBoundaries",
          "type": "uint256[]"
        },
        {
          "name": "volumeBonuses",
          "type": "uint256[]"
        },
        {
          "name": "methodUSDRate",
          "type": "uint256"
        },
        {
          "name": "tokenUSDRate",
          "type": "uint256"
        },
        {
          "name": "tokenDecimals",
          "type": "uint256"
        },
        {
          "name": "methodDecimals",
          "type": "uint256"
        },
        {
          "name": "currentBalanceInTokens",
          "type": "uint256"
        }
      ],
      "name": "invoiceByTokenAmount",
      "outputs": [
        {
          "name": "result",
          "type": "uint256[4]"
        }
      ],
      "payable": false,
      "stateMutability": "view",
      "type": "function"
    },
    {
      "constant": true,
      "inputs": [
        {
          "name": "value",
          "type": "uint256"
        },
        {
          "name": "volumeBoundaries",
          "type": "uint256[]"
        },
        {
          "name": "volumeBonuses",
          "type": "uint256[]"
        }
      ],
      "name": "getBonus",
      "outputs": [
        {
          "name": "bonus",
          "type": "uint256"
        }
      ],
      "payable": false,
      "stateMutability": "pure",
      "type": "function"
    },
    {
      "constant": true,
      "inputs": [
        {
          "name": "method",
          "type": "bytes32"
        },
        {
          "name": "amount",
          "type": "uint256"
        },
        {
          "name": "methodUSDRate",
          "type": "uint256"
        },
        {
          "name": "tokenUSDRate",
          "type": "uint256"
        },
        {
          "name": "currentBalanceInTokens",
          "type": "uint256"
        },
        {
          "name": "tokenDecimals",
          "type": "uint256"
        },
        {
          "name": "methodDecimals",
          "type": "uint256"
        }
      ],
      "name": "checkInvoiceInput",
      "outputs": [
        {
          "name": "result",
          "type": "bool"
        }
      ],
      "payable": false,
      "stateMutability": "pure",
      "type": "function"
    },
    {
      "constant": true,
      "inputs": [
        {
          "name": "tokenAmount",
          "type": "uint256"
        },
        {
          "name": "cost",
          "type": "uint256"
        },
        {
          "name": "tokenFee",
          "type": "uint256"
        },
        {
          "name": "purchaseFee",
          "type": "uint256"
        }
      ],
      "name": "fee",
      "outputs": [
        {
          "name": "result",
          "type": "uint256[2]"
        }
      ],
      "payable": false,
      "stateMutability": "pure",
      "type": "function"
    },
    {
      "constant": false,
      "inputs": [
        {
          "name": "_fee",
          "type": "uint256[2]"
        },
        {
          "name": "method",
          "type": "bytes32"
        },
        {
          "name": "methodToken",
          "type": "address"
        },
        {
          "name": "token",
          "type": "address"
        },
        {
          "name": "originToken",
          "type": "address"
        },
        {
          "name": "exchanger",
          "type": "address"
        },
        {
          "name": "serviceWallet",
          "type": "address"
        }
      ],
      "name": "transferFee",
      "outputs": [],
      "payable": false,
      "stateMutability": "nonpayable",
      "type": "function"
    },
    {
      "constant": false,
      "inputs": [
        {
          "name": "_invoice",
          "type": "uint256[5]"
        },
        {
          "name": "_fee",
          "type": "uint256[2]"
        },
        {
          "name": "vesting",
          "type": "uint32"
        },
        {
          "name": "method",
          "type": "bytes32"
        },
        {
          "name": "methodToken",
          "type": "address"
        },
        {
          "name": "token",
          "type": "address"
        }
      ],
      "name": "transferPurchase",
      "outputs": [],
      "payable": false,
      "stateMutability": "nonpayable",
      "type": "function"
    }
  ],
  "bytecode": "0x6123c5610030600b82828239805160001a6073146000811461002057610022565bfe5b5030600052607381538281f300730000000000000000000000000000000000000000301460806040526004361061009a576000357c0100000000000000000000000000000000000000000000000000000000900463ffffffff1680633676737c1461009f5780634bb1e9ff1461019f5780636cd5c0561461027e57806391bfca31146102f857806391dab42214610424578063b8005df214610550578063d8e5c9141461060a575b600080fd5b8180156100ab57600080fd5b5061019d60048036038101908080604001906002806020026040519081016040528092919082600260200280828437820191505050505091929192908035600019169060200190929190803573ffffffffffffffffffffffffffffffffffffffff169060200190929190803573ffffffffffffffffffffffffffffffffffffffff169060200190929190803573ffffffffffffffffffffffffffffffffffffffff169060200190929190803573ffffffffffffffffffffffffffffffffffffffff169060200190929190803573ffffffffffffffffffffffffffffffffffffffff169060200190929190505050610682565b005b8180156101ab57600080fd5b5061027c6004803603810190808060a001906005806020026040519081016040528092919082600560200280828437820191505050505091929192908060400190600280602002604051908101604052809291908260026020028082843782019150505050509192919290803563ffffffff1690602001909291908035600019169060200190929190803573ffffffffffffffffffffffffffffffffffffffff169060200190929190803573ffffffffffffffffffffffffffffffffffffffff169060200190929190505050610d27565b005b6102ba600480360381019080803590602001909291908035906020019092919080359060200190929190803590602001909291905050506112ec565b6040518082600260200280838360005b838110156102e55780820151818401526020810190506102ca565b5050505090500191505060405180910390f35b6103e660048036038101908080356000191690602001909291908035906020019092919080359060200190929190803590602001908201803590602001908080602002602001604051908101604052809392919081815260200183836020028082843782019150505050505091929192908035906020019082018035906020019080806020026020016040519081016040528093929190818152602001838360200280828437820191505050505050919291929080359060200190929190803590602001909291908035906020019092919080359060200190929190803590602001909291905050506114a0565b6040518082600560200280838360005b838110156104115780820151818401526020810190506103f6565b5050505090500191505060405180910390f35b6105126004803603810190808035600019169060200190929190803590602001909291908035906020019092919080359060200190820180359060200190808060200260200160405190810160405280939291908181526020018383602002808284378201915050505050509192919290803590602001908201803590602001908080602002602001604051908101604052809392919081815260200183836020028082843782019150505050505091929192908035906020019092919080359060200190929190803590602001909291908035906020019092919080359060200190929190505050611c63565b6040518082600460200280838360005b8381101561053d578082015181840152602081019050610522565b5050505090500191505060405180910390f35b6105f46004803603810190808035906020019092919080359060200190820180359060200190808060200260200160405190810160405280939291908181526020018383602002808284378201915050505050509192919290803590602001908201803590602001908080602002602001604051908101604052809392919081815260200183836020028082843782019150505050505091929192905050506121fd565b6040518082815260200191505060405180910390f35b6106686004803603810190808035600019169060200190929190803590602001909291908035906020019092919080359060200190929190803590602001909291908035906020019092919080359060200190929190505050612267565b604051808215151515815260200191505060405180910390f35b600073ffffffffffffffffffffffffffffffffffffffff168373ffffffffffffffffffffffffffffffffffffffff16141515156106be57600080fd5b600073ffffffffffffffffffffffffffffffffffffffff168473ffffffffffffffffffffffffffffffffffffffff16141515156106fa57600080fd5b600073ffffffffffffffffffffffffffffffffffffffff168273ffffffffffffffffffffffffffffffffffffffff161415151561073657600080fd5b600073ffffffffffffffffffffffffffffffffffffffff168173ffffffffffffffffffffffffffffffffffffffff161415151561077257600080fd5b600087600160028110151561078357fe5b60200201511180156107a457506107986122c7565b60001916866000191614155b156107e657600073ffffffffffffffffffffffffffffffffffffffff168573ffffffffffffffffffffffffffffffffffffffff16141515156107e557600080fd5b5b60008760006002811015156107f757fe5b60200201511115610a2f578273ffffffffffffffffffffffffffffffffffffffff166323b872dd83838a600060028110151561082f57fe5b60200201516040518463ffffffff167c0100000000000000000000000000000000000000000000000000000000028152600401808473ffffffffffffffffffffffffffffffffffffffff1673ffffffffffffffffffffffffffffffffffffffff1681526020018373ffffffffffffffffffffffffffffffffffffffff1673ffffffffffffffffffffffffffffffffffffffff1681526020018281526020019350505050602060405180830381600087803b1580156108ec57600080fd5b505af1158015610900573d6000803e3d6000fd5b505050506040513d602081101561091657600080fd5b8101908080519060200190929190505050151561093257600080fd5b8373ffffffffffffffffffffffffffffffffffffffff1663a9059cbb8389600060028110151561095e57fe5b60200201516040518363ffffffff167c0100000000000000000000000000000000000000000000000000000000028152600401808373ffffffffffffffffffffffffffffffffffffffff1673ffffffffffffffffffffffffffffffffffffffff16815260200182815260200192505050602060405180830381600087803b1580156109e857600080fd5b505af11580156109fc573d6000803e3d6000fd5b505050506040513d6020811015610a1257600080fd5b81019080805190602001909291905050501515610a2e57600080fd5b5b6000876001600281101515610a4057fe5b60200201511115610d1e57610a536122c7565b6000191686600019161415610ac1578073ffffffffffffffffffffffffffffffffffffffff166108fc886001600281101515610a8b57fe5b60200201519081150290604051600060405180830381858888f19350505050158015610abb573d6000803e3d6000fd5b50610d1d565b866001600281101515610ad057fe5b60200201518573ffffffffffffffffffffffffffffffffffffffff1663dd62ed3e33306040518363ffffffff167c0100000000000000000000000000000000000000000000000000000000028152600401808373ffffffffffffffffffffffffffffffffffffffff1673ffffffffffffffffffffffffffffffffffffffff1681526020018273ffffffffffffffffffffffffffffffffffffffff1673ffffffffffffffffffffffffffffffffffffffff16815260200192505050602060405180830381600087803b158015610ba457600080fd5b505af1158015610bb8573d6000803e3d6000fd5b505050506040513d6020811015610bce57600080fd5b810190808051906020019092919050505010151515610bec57600080fd5b8473ffffffffffffffffffffffffffffffffffffffff166323b872dd33838a6001600281101515610c1957fe5b60200201516040518463ffffffff167c0100000000000000000000000000000000000000000000000000000000028152600401808473ffffffffffffffffffffffffffffffffffffffff1673ffffffffffffffffffffffffffffffffffffffff1681526020018373ffffffffffffffffffffffffffffffffffffffff1673ffffffffffffffffffffffffffffffffffffffff1681526020018281526020019350505050602060405180830381600087803b158015610cd657600080fd5b505af1158015610cea573d6000803e3d6000fd5b505050506040513d6020811015610d0057600080fd5b81019080805190602001909291905050501515610d1c57600080fd5b5b5b50505050505050565b600073ffffffffffffffffffffffffffffffffffffffff168173ffffffffffffffffffffffffffffffffffffffff1614151515610d6357600080fd5b6000866000600581101515610d7457fe5b602002015114151515610d8657600080fd5b6000866001600581101515610d9757fe5b602002015114151515610da957600080fd5b846000600281101515610db857fe5b6020020151866000600581101515610dcc57fe5b6020020151111515610ddd57600080fd5b846001600281101515610dec57fe5b6020020151866001600581101515610e0057fe5b6020020151111515610e1157600080fd5b610e196122c7565b6000191683600019161415610e4b57856001600581101515610e3757fe5b60200201513410151515610e4a57600080fd5b5b610e536122c7565b60001916836000191614151561114557600073ffffffffffffffffffffffffffffffffffffffff168273ffffffffffffffffffffffffffffffffffffffff1614151515610e9f57600080fd5b610ed8856001600281101515610eb157fe5b6020020151876001600581101515610ec557fe5b60200201516122ef90919063ffffffff16565b8273ffffffffffffffffffffffffffffffffffffffff1663dd62ed3e33306040518363ffffffff167c0100000000000000000000000000000000000000000000000000000000028152600401808373ffffffffffffffffffffffffffffffffffffffff1673ffffffffffffffffffffffffffffffffffffffff1681526020018273ffffffffffffffffffffffffffffffffffffffff1673ffffffffffffffffffffffffffffffffffffffff16815260200192505050602060405180830381600087803b158015610fa757600080fd5b505af1158015610fbb573d6000803e3d6000fd5b505050506040513d6020811015610fd157600080fd5b810190808051906020019092919050505010151515610fef57600080fd5b8173ffffffffffffffffffffffffffffffffffffffff166323b872dd333061104689600160028110151561101f57fe5b60200201518b600160058110151561103357fe5b60200201516122ef90919063ffffffff16565b6040518463ffffffff167c0100000000000000000000000000000000000000000000000000000000028152600401808473ffffffffffffffffffffffffffffffffffffffff1673ffffffffffffffffffffffffffffffffffffffff1681526020018373ffffffffffffffffffffffffffffffffffffffff1673ffffffffffffffffffffffffffffffffffffffff1681526020018281526020019350505050602060405180830381600087803b1580156110fe57600080fd5b505af1158015611112573d6000803e3d6000fd5b505050506040513d602081101561112857600080fd5b8101908080519060200190929190505050151561114457600080fd5b5b8073ffffffffffffffffffffffffffffffffffffffff16639d2e47773388600060058110151561117157fe5b6020020151876040518463ffffffff167c0100000000000000000000000000000000000000000000000000000000028152600401808473ffffffffffffffffffffffffffffffffffffffff1673ffffffffffffffffffffffffffffffffffffffff1681526020018381526020018263ffffffff1663ffffffff1681526020019350505050602060405180830381600087803b15801561120f57600080fd5b505af1158015611223573d6000803e3d6000fd5b505050506040513d602081101561123957600080fd5b8101908080519060200190929190505050151561125557600080fd5b600086600360058110151561126657fe5b602002015111156112e4576112796122c7565b60001916836000191614156112e3573373ffffffffffffffffffffffffffffffffffffffff166108fc8760036005811015156112b157fe5b60200201519081150290604051600060405180830381858888f193505050501580156112e1573d6000803e3d6000fd5b505b5b505050505050565b6112f4612331565b60008311156113c6578473__Percent_______________________________6350716c0e9091856040518363ffffffff167c0100000000000000000000000000000000000000000000000000000000028152600401808381526020018281526020019250505060206040518083038186803b15801561137257600080fd5b505af4158015611386573d6000803e3d6000fd5b505050506040513d602081101561139c57600080fd5b81019080805190602001909291905050508160006002811015156113bc57fe5b6020020181815250505b6000821115611498578373__Percent_______________________________6350716c0e9091846040518363ffffffff167c0100000000000000000000000000000000000000000000000000000000028152600401808381526020018281526020019250505060206040518083038186803b15801561144457600080fd5b505af4158015611458573d6000803e3d6000fd5b505050506040513d602081101561146e57600080fd5b810190808051906020019092919050505081600160028110151561148e57fe5b6020020181815250505b949350505050565b6114a8612353565b60006114b98c8c8989878a8a612267565b15156114c457600080fd5b73__Utils_________________________________6376ba78988c868a6040518463ffffffff167c010000000000000000000000000000000000000000000000000000000002815260040180848152602001838152602001828152602001935050505060206040518083038186803b15801561153f57600080fd5b505af4158015611553573d6000803e3d6000fd5b505050506040513d602081101561156957600080fd5b810190808051906020019092919050505082600260058110151561158957fe5b602002018181525050858260026005811015156115a257fe5b6020020151101515156115b457600080fd5b6115d28260026005811015156115c657fe5b60200201518a8a6121fd565b905060008a116115e2578561172f565b8573__Percent_______________________________6342318e3d90918c73__Percent_______________________________63d49d51816040518163ffffffff167c010000000000000000000000000000000000000000000000000000000002815260040160206040518083038186803b15801561166057600080fd5b505af4158015611674573d6000803e3d6000fd5b505050506040513d602081101561168a57600080fd5b8101908080519060200190929190505050036040518363ffffffff167c0100000000000000000000000000000000000000000000000000000000028152600401808381526020018281526020019250505060206040518083038186803b1580156116f357600080fd5b505af4158015611707573d6000803e3d6000fd5b505050506040513d602081101561171d57600080fd5b81019080805190602001909291905050505b82600460058110151561173e57fe5b60200201818152505073__Utils_________________________________63a5a55fcf83600260058110151561177057fe5b602002015173__Percent_______________________________6350716c0e909161183e8673__Percent_______________________________63d49d51816040518163ffffffff167c010000000000000000000000000000000000000000000000000000000002815260040160206040518083038186803b1580156117f557600080fd5b505af4158015611809573d6000803e3d6000fd5b505050506040513d602081101561181f57600080fd5b810190808051906020019092919050505061231090919063ffffffff16565b6040518363ffffffff167c0100000000000000000000000000000000000000000000000000000000028152600401808381526020018281526020019250505060206040518083038186803b15801561189557600080fd5b505af41580156118a9573d6000803e3d6000fd5b505050506040513d60208110156118bf57600080fd5b8101908080519060200190929190505050878560046005811015156118e057fe5b60200201516040518463ffffffff167c010000000000000000000000000000000000000000000000000000000002815260040180848152602001838152602001828152602001935050505060206040518083038186803b15801561194357600080fd5b505af4158015611957573d6000803e3d6000fd5b505050506040513d602081101561196d57600080fd5b810190808051906020019092919050505082600060058110151561198d57fe5b6020020181815250508160006005811015156119a557fe5b6020020151831015611aac5773__Utils_________________________________6376ba789884878560046005811015156119dc57fe5b60200201516040518463ffffffff167c010000000000000000000000000000000000000000000000000000000002815260040180848152602001838152602001828152602001935050505060206040518083038186803b158015611a3f57600080fd5b505af4158015611a53573d6000803e3d6000fd5b505050506040513d6020811015611a6957600080fd5b8101908080519060200190929190505050826002600581101515611a8957fe5b60200201818152505082826000600581101515611aa257fe5b6020020181815250505b73__Utils_________________________________63a5a55fcf836002600581101515611ad557fe5b6020020151868a6040518463ffffffff167c010000000000000000000000000000000000000000000000000000000002815260040180848152602001838152602001828152602001935050505060206040518083038186803b158015611b3a57600080fd5b505af4158015611b4e573d6000803e3d6000fd5b505050506040513d6020811015611b6457600080fd5b8101908080519060200190929190505050826001600581101515611b8457fe5b6020020181815250506000826001600581101515611b9e57fe5b60200201511480611bc257506000826000600581101515611bbb57fe5b6020020151145b15611c16576000826000600581101515611bd857fe5b6020020181815250506000826001600581101515611bf257fe5b6020020181815250506000826002600581101515611c0c57fe5b6020020181815250505b611c3c826001600581101515611c2857fe5b60200201518c6122ef90919063ffffffff16565b826003600581101515611c4b57fe5b602002018181525050509a9950505050505050505050565b611c6b612376565b6000611c7c8c8c8989878a8a612267565b1515611c8757600080fd5b8a831015611c9357829a505b8a826000600481101515611ca357fe5b60200201818152505060008a11611cba5785611e07565b8573__Percent_______________________________6342318e3d90918c73__Percent_______________________________63d49d51816040518163ffffffff167c010000000000000000000000000000000000000000000000000000000002815260040160206040518083038186803b158015611d3857600080fd5b505af4158015611d4c573d6000803e3d6000fd5b505050506040513d6020811015611d6257600080fd5b8101908080519060200190929190505050036040518363ffffffff167c0100000000000000000000000000000000000000000000000000000000028152600401808381526020018281526020019250505060206040518083038186803b158015611dcb57600080fd5b505af4158015611ddf573d6000803e3d6000fd5b505050506040513d6020811015611df557600080fd5b81019080805190602001909291905050505b826003600481101515611e1657fe5b60200201818152505073__Utils_________________________________6376ba78988c87856003600481101515611e4a57fe5b60200201516040518463ffffffff167c010000000000000000000000000000000000000000000000000000000002815260040180848152602001838152602001828152602001935050505060206040518083038186803b158015611ead57600080fd5b505af4158015611ec1573d6000803e3d6000fd5b505050506040513d6020811015611ed757600080fd5b8101908080519060200190929190505050826002600481101515611ef757fe5b60200201818152505085826002600481101515611f1057fe5b602002015110151515611f2257600080fd5b611f40826002600481101515611f3457fe5b60200201518a8a6121fd565b905073__Utils_________________________________63a5a55fcf836002600481101515611f6b57fe5b6020020151868a73__Percent_______________________________6350716c0e909161203b8873__Percent_______________________________63d49d51816040518163ffffffff167c010000000000000000000000000000000000000000000000000000000002815260040160206040518083038186803b158015611ff257600080fd5b505af4158015612006573d6000803e3d6000fd5b505050506040513d602081101561201c57600080fd5b810190808051906020019092919050505061231090919063ffffffff16565b6040518363ffffffff167c0100000000000000000000000000000000000000000000000000000000028152600401808381526020018281526020019250505060206040518083038186803b15801561209257600080fd5b505af41580156120a6573d6000803e3d6000fd5b505050506040513d60208110156120bc57600080fd5b81019080805190602001909291905050506040518463ffffffff167c010000000000000000000000000000000000000000000000000000000002815260040180848152602001838152602001828152602001935050505060206040518083038186803b15801561212b57600080fd5b505af415801561213f573d6000803e3d6000fd5b505050506040513d602081101561215557600080fd5b810190808051906020019092919050505082600160048110151561217557fe5b602002018181525050600082600160048110151561218f57fe5b602002015114156121ed5760008260006004811015156121ab57fe5b60200201818152505060008260016004811015156121c557fe5b60200201818152505060008260026004811015156121df57fe5b6020020181815250506121ee565b5b509a9950505050505050505050565b600080600090505b835181101561225f57838181518110151561221c57fe5b906020019060200201518510151561224d57828181518110151561223c57fe5b906020019060200201519150612252565b61225f565b8080600101915050612205565b509392505050565b600080871180156122785750600086115b80156122845750600085115b8015612293575082600a0a8410155b905061229d6122c7565b60001916886000191614156122bc578080156122b95750601282145b90505b979650505050505050565b60007f4554480000000000000000000000000000000000000000000000000000000000905090565b60008083831115151561230157600080fd5b82840390508091505092915050565b600080828401905083811015151561232757600080fd5b8091505092915050565b6040805190810160405280600290602082028038833980820191505090505090565b60a060405190810160405280600590602082028038833980820191505090505090565b6080604051908101604052806004906020820280388339808201915050905050905600a165627a7a72305820057f532390724d6f438c35dabf7b64289bfce65a2279e251d42a26b13b6875710029",
  "source": "pragma solidity 0.4.24;\n\nimport \"openzeppelin-solidity/contracts/math/SafeMath.sol\";\nimport \"openzeppelin-solidity/contracts/token/ERC20/IERC20.sol\";\nimport \"./Percent.sol\";\nimport \"./Utils.sol\";\nimport \"../token/IWToken.sol\";\n\n\nlibrary PurchaseProcessing {\n    using SafeMath for uint;\n    using Percent for uint;\n\n    /**\n     * @notice Generate invoice\n     * @dev 1 USD = 10^8. In this case precision will be up to 10^8 decimals after point\n     * @param method Payment method\n     * @param paymentAmount Payment amount\n     * @param discount Discount percent\n     * @param volumeBoundaries Volume boundaries to calculate bonus\n     * @param volumeBonuses List of bonuses bound to boundaries\n     * @param methodUSDRate Payment method rate in USD\n     * @param tokenUSDRate Token rate in USD\n     * @param tokenDecimals Token decimal\n     * @param methodDecimals Method decimal. N for token, 18 for ETH\n     * @param currentBalanceInTokens Current balance in tokens\n     * @return uint[5] result Invoice calculation result:\n     *\n     * [tokenAmount, cost, costUSD, change, actualTokenPriceUSD]\n     *\n     * [0] tokenAmount - amount of token to buy\n     * [1] cost - cost in method currency\n     * [2] costUSD cost in USD\n     * [3] change - change in method currency\n     * [4] actualTokenPriceUSD - actual token price in USD(with discount)\n     */\n    function invoice(\n        bytes32 method,\n        uint paymentAmount,\n        uint discount,\n        uint[] volumeBoundaries,\n        uint[] volumeBonuses,\n        uint methodUSDRate,\n        uint tokenUSDRate,\n        uint tokenDecimals,\n        uint methodDecimals,\n        uint currentBalanceInTokens\n    )\n        public view returns(uint[5] result)\n    {\n        require(checkInvoiceInput(\n            method,\n            paymentAmount,\n            methodUSDRate,\n            tokenUSDRate,\n            currentBalanceInTokens,\n            tokenDecimals,\n            methodDecimals\n        ));\n\n        // costUSD\n        result[2] = Utils.safeConversionByRate(\n            paymentAmount,\n            methodDecimals,\n            methodUSDRate\n        );\n\n        // min costUSD = tokenUSDRate\n        require(result[2] >= tokenUSDRate);\n\n        uint bonus = getBonus(result[2], volumeBoundaries, volumeBonuses);\n\n        // priceUSD\n        result[4] = discount > 0\n            ? tokenUSDRate.percent(Percent.MAX() - discount)\n            : tokenUSDRate;\n\n        // tokens\n        result[0] = Utils.safeReverseConversionByRate(\n            result[2].safePercent(Percent.MAX().add(bonus)),\n            tokenDecimals,\n            result[4]\n        );\n\n        // if current balance is not enough\n        if (currentBalanceInTokens < result[0]) {\n            result[2] = Utils.safeConversionByRate(\n                currentBalanceInTokens,\n                tokenDecimals,\n                result[4]\n            );\n            result[0] = currentBalanceInTokens;\n        }\n\n        // cost\n        result[1] = Utils.safeReverseConversionByRate(\n            result[2],\n            methodDecimals,\n            methodUSDRate\n        );\n\n        // reset if cost is zero\n        if (result[1] == 0 || result[0] == 0) {\n            result[0] = 0;\n            result[1] = 0;\n            result[2] = 0;\n        }\n\n        // change\n        result[3] = paymentAmount.sub(result[1]);\n    }\n\n    /**\n     * @notice Generate invoice by token amount\n     * @dev 1 USD = 10^8. In this case precision will be up to 10^8 decimals after point\n     * @param method Payment method\n     * @param tokenAmount Token amount\n     * @param discount Discount percent\n     * @param volumeBoundaries Volume boundaries to calculate bonus\n     * @param volumeBonuses List of bonuses bound to boundaries\n     * @param methodUSDRate Payment method rate in USD\n     * @param tokenUSDRate Token rate in USD\n     * @param tokenDecimals Token decimal\n     * @param methodDecimals Method decimal. N for token, 18 for ETH\n     * @param currentBalanceInTokens Current balance in tokens\n     * @return uint[4] result Invoice calculation result:\n     *\n     * [tokenAmount, cost, costUSD, change, actualTokenPriceUSD]\n     *\n     * [0] tokenAmount - amount of token to buy\n     * [1] cost - cost in method currency\n     * [2] costUSD cost in USD\n     * [3] actualTokenPriceUSD - actual token price in USD(with discount)\n     */\n    function invoiceByTokenAmount(\n        bytes32 method,\n        uint tokenAmount,\n        uint discount,\n        uint[] volumeBoundaries,\n        uint[] volumeBonuses,\n        uint methodUSDRate,\n        uint tokenUSDRate,\n        uint tokenDecimals,\n        uint methodDecimals,\n        uint currentBalanceInTokens\n    )\n        public view returns (uint[4] result)\n    {\n        require(checkInvoiceInput(\n            method,\n            tokenAmount,\n            methodUSDRate,\n            tokenUSDRate,\n            currentBalanceInTokens,\n            tokenDecimals,\n            methodDecimals\n        ));\n\n        if (currentBalanceInTokens < tokenAmount) {\n            tokenAmount = currentBalanceInTokens;\n        }\n\n        // tokens\n        result[0] = tokenAmount;\n\n        // priceUSD\n        result[3] = discount > 0\n            ? tokenUSDRate.percent(Percent.MAX() - discount)\n            : tokenUSDRate;\n\n        // costUSD\n        result[2] = Utils.safeConversionByRate(\n            tokenAmount,\n            tokenDecimals,\n            result[3]\n        );\n\n        // min costUSD = tokenUSDRate\n        require(result[2] >= tokenUSDRate);\n\n        uint bonus = getBonus(result[2], volumeBoundaries, volumeBonuses);\n\n        result[1] = Utils.safeReverseConversionByRate(\n            result[2],\n            methodDecimals,\n            methodUSDRate.safePercent(Percent.MAX().add(bonus))\n        );\n\n        // reset if cost is zero\n        if (result[1] == 0) {\n            result[0] = 0;\n            result[1] = 0;\n            result[2] = 0;\n            return;\n        }\n    }\n\n    function getBonus(uint value, uint[] volumeBoundaries, uint[] volumeBonuses) public pure returns (uint bonus) {\n        for (uint i = 0; i < volumeBoundaries.length; i++) {\n            if (value >= volumeBoundaries[i]) {\n                bonus = volumeBonuses[i];\n            } else {\n                break;\n            }\n        }\n    }\n\n    function checkInvoiceInput(\n        bytes32 method,\n        uint amount,\n        uint methodUSDRate,\n        uint tokenUSDRate,\n        uint currentBalanceInTokens,\n        uint tokenDecimals,\n        uint methodDecimals\n    ) public pure returns (bool result) {\n        result = amount > 0\n        && methodUSDRate > 0\n        && tokenUSDRate > 0\n        && currentBalanceInTokens >= 10 ** tokenDecimals;\n\n        if (method == METHOD_ETH()) {\n            result = result && methodDecimals == 18;\n        }\n    }\n\n    function fee(uint tokenAmount, uint cost, uint tokenFee, uint purchaseFee) public pure returns(uint[2] result) {\n        if (tokenFee > 0) result[0] = tokenAmount.safePercent(tokenFee);\n        if (purchaseFee > 0) result[1] = cost.safePercent(purchaseFee);\n    }\n\n    function transferFee(\n        uint[2] _fee,\n        bytes32 method,\n        address methodToken,\n        address token,\n        address originToken,\n        address exchanger,\n        address serviceWallet\n    ) public {\n        require(originToken != address(0));\n        require(token != address(0));\n        require(exchanger != address(0));\n        require(serviceWallet != address(0));\n\n        if (_fee[1] > 0 && method != METHOD_ETH()) {\n            require(methodToken != address(0));\n        }\n\n        if (_fee[0] > 0) {\n            require(IERC20(originToken).transferFrom(exchanger, serviceWallet, _fee[0]));\n            require(IERC20(token).transfer(exchanger, _fee[0]));\n        }\n\n        if (_fee[1] > 0) {\n            if (method == METHOD_ETH()) {\n                serviceWallet.transfer(_fee[1]);\n            } else {\n                require(IERC20(methodToken).allowance(msg.sender, address(this)) >= _fee[1]);\n                require(IERC20(methodToken).transferFrom(msg.sender, serviceWallet, _fee[1]));\n            }\n        }\n    }\n\n    function transferPurchase(\n        uint[5] _invoice,\n        uint[2] _fee,\n        uint32 vesting,\n        bytes32 method,\n        address methodToken,\n        address token\n    ) public {\n        require(token != address(0));\n        require(_invoice[0] != 0);\n        require(_invoice[1] != 0);\n        require(_invoice[0] > _fee[0]);\n        require(_invoice[1] > _fee[1]);\n\n        if (method == METHOD_ETH()) {\n            require(msg.value >= _invoice[1]);\n        }\n\n        if (method != METHOD_ETH()) {\n            require(methodToken != address(0));\n            require(IERC20(methodToken).allowance(msg.sender, address(this)) >= _invoice[1].sub(_fee[1]));\n            require(IERC20(methodToken).transferFrom(msg.sender, address(this), _invoice[1].sub(_fee[1])));\n        }\n\n        require(IWToken(token).vestingTransfer(msg.sender, _invoice[0], vesting));\n\n        if (_invoice[3] > 0) {\n            if (method == METHOD_ETH()) {\n                msg.sender.transfer(_invoice[3]);\n            }\n        }\n    }\n\n    // solhint-disable-next-line func-name-mixedcase\n    function METHOD_ETH() internal pure returns (bytes32) {\n        return bytes32(\"ETH\");\n    }\n}\n",
  "sourcePath": "/Users/gauss/_games/w12/W12-Product-Blockchain-Protocol/contracts/libs/PurchaseProcessing.sol",
  "compiler": {
    "name": "solc",
    "version": "0.4.24+commit.e67f0147.Emscripten.clang"
  },
  "schemaVersion": "3.0.10",
  "updatedAt": "2019-06-17T16:23:09.048Z",
  "devdoc": {
    "methods": {
      "invoice(bytes32,uint256,uint256,uint256[],uint256[],uint256,uint256,uint256,uint256,uint256)": {
        "details": "1 USD = 10^8. In this case precision will be up to 10^8 decimals after point",
        "params": {
          "currentBalanceInTokens": "Current balance in tokens",
          "discount": "Discount percent",
          "method": "Payment method",
          "methodDecimals": "Method decimal. N for token, 18 for ETH",
          "methodUSDRate": "Payment method rate in USD",
          "paymentAmount": "Payment amount",
          "tokenDecimals": "Token decimal",
          "tokenUSDRate": "Token rate in USD",
          "volumeBonuses": "List of bonuses bound to boundaries",
          "volumeBoundaries": "Volume boundaries to calculate bonus"
        },
        "return": "uint[5] result Invoice calculation result:     * [tokenAmount, cost, costUSD, change, actualTokenPriceUSD]     * [0] tokenAmount - amount of token to buy [1] cost - cost in method currency [2] costUSD cost in USD [3] change - change in method currency [4] actualTokenPriceUSD - actual token price in USD(with discount)"
      },
      "invoiceByTokenAmount(bytes32,uint256,uint256,uint256[],uint256[],uint256,uint256,uint256,uint256,uint256)": {
        "details": "1 USD = 10^8. In this case precision will be up to 10^8 decimals after point",
        "params": {
          "currentBalanceInTokens": "Current balance in tokens",
          "discount": "Discount percent",
          "method": "Payment method",
          "methodDecimals": "Method decimal. N for token, 18 for ETH",
          "methodUSDRate": "Payment method rate in USD",
          "tokenAmount": "Token amount",
          "tokenDecimals": "Token decimal",
          "tokenUSDRate": "Token rate in USD",
          "volumeBonuses": "List of bonuses bound to boundaries",
          "volumeBoundaries": "Volume boundaries to calculate bonus"
        },
        "return": "uint[4] result Invoice calculation result:     * [tokenAmount, cost, costUSD, change, actualTokenPriceUSD]     * [0] tokenAmount - amount of token to buy [1] cost - cost in method currency [2] costUSD cost in USD [3] actualTokenPriceUSD - actual token price in USD(with discount)"
      }
    }
  },
  "userdoc": {
    "methods": {
      "invoice(bytes32,uint256,uint256,uint256[],uint256[],uint256,uint256,uint256,uint256,uint256)": {
        "notice": "Generate invoice"
      },
      "invoiceByTokenAmount(bytes32,uint256,uint256,uint256[],uint256[],uint256,uint256,uint256,uint256,uint256)": {
        "notice": "Generate invoice by token amount"
      }
    }
  }
}