{
  "contractName": "PurchaseProcessingMock",
  "abi": [
    {
      "payable": true,
      "stateMutability": "payable",
      "type": "fallback"
    },
    {
      "constant": true,
      "inputs": [
        {
          "name": "method",
          "type": "bytes32"
        },
        {
          "name": "paymentAmount",
          "type": "uint256"
        },
        {
          "name": "methodUSDRate",
          "type": "uint256"
        },
        {
          "name": "tokenUSDRate",
          "type": "uint256"
        },
        {
          "name": "currentBalanceInTokens",
          "type": "uint256"
        },
        {
          "name": "tokenDecimals",
          "type": "uint256"
        },
        {
          "name": "methodDecimals",
          "type": "uint256"
        }
      ],
      "name": "checkInvoiceInput",
      "outputs": [
        {
          "name": "",
          "type": "bool"
        }
      ],
      "payable": false,
      "stateMutability": "view",
      "type": "function"
    },
    {
      "constant": true,
      "inputs": [
        {
          "name": "method",
          "type": "bytes32"
        },
        {
          "name": "paymentAmount",
          "type": "uint256"
        },
        {
          "name": "discount",
          "type": "uint256"
        },
        {
          "name": "volumeBoundaries",
          "type": "uint256[]"
        },
        {
          "name": "volumeBonuses",
          "type": "uint256[]"
        },
        {
          "name": "methodUSDRate",
          "type": "uint256"
        },
        {
          "name": "tokenUSDRate",
          "type": "uint256"
        },
        {
          "name": "tokenDecimals",
          "type": "uint256"
        },
        {
          "name": "methodDecimals",
          "type": "uint256"
        },
        {
          "name": "currentBalanceInTokens",
          "type": "uint256"
        }
      ],
      "name": "invoice",
      "outputs": [
        {
          "name": "",
          "type": "uint256[5]"
        }
      ],
      "payable": false,
      "stateMutability": "view",
      "type": "function"
    },
    {
      "constant": true,
      "inputs": [
        {
          "name": "tokenAmount",
          "type": "uint256"
        },
        {
          "name": "cost",
          "type": "uint256"
        },
        {
          "name": "tokenFee",
          "type": "uint256"
        },
        {
          "name": "purchaseFee",
          "type": "uint256"
        }
      ],
      "name": "fee",
      "outputs": [
        {
          "name": "",
          "type": "uint256[2]"
        }
      ],
      "payable": false,
      "stateMutability": "view",
      "type": "function"
    },
    {
      "constant": false,
      "inputs": [
        {
          "name": "_fee",
          "type": "uint256[2]"
        },
        {
          "name": "method",
          "type": "bytes32"
        },
        {
          "name": "methodToken",
          "type": "address"
        },
        {
          "name": "token",
          "type": "address"
        },
        {
          "name": "originToken",
          "type": "address"
        },
        {
          "name": "exchanger",
          "type": "address"
        },
        {
          "name": "serviceWallet",
          "type": "address"
        }
      ],
      "name": "transferFee",
      "outputs": [],
      "payable": true,
      "stateMutability": "payable",
      "type": "function"
    },
    {
      "constant": false,
      "inputs": [
        {
          "name": "_invoice",
          "type": "uint256[5]"
        },
        {
          "name": "_fee",
          "type": "uint256[2]"
        },
        {
          "name": "vesting",
          "type": "uint32"
        },
        {
          "name": "method",
          "type": "bytes32"
        },
        {
          "name": "methodToken",
          "type": "address"
        },
        {
          "name": "token",
          "type": "address"
        }
      ],
      "name": "transferPurchase",
      "outputs": [],
      "payable": true,
      "stateMutability": "payable",
      "type": "function"
    },
    {
      "constant": true,
      "inputs": [
        {
          "name": "value",
          "type": "uint256"
        },
        {
          "name": "volumeBoundaries",
          "type": "uint256[]"
        },
        {
          "name": "volumeBonuses",
          "type": "uint256[]"
        }
      ],
      "name": "getBonus",
      "outputs": [
        {
          "name": "bonus",
          "type": "uint256"
        }
      ],
      "payable": false,
      "stateMutability": "view",
      "type": "function"
    }
  ],
  "bytecode": "0x608060405234801561001057600080fd5b50610d8e806100206000396000f300608060405260043610610078576000357c0100000000000000000000000000000000000000000000000000000000900463ffffffff1680633676737c1461007a5780634bb1e9ff1461016d5780636cd5c0561461023f57806391bfca31146102c6578063b8005df2146103ff578063d8e5c914146104c6575b005b61016b60048036038101908080604001906002806020026040519081016040528092919082600260200280828437820191505050505091929192908035600019169060200190929190803573ffffffffffffffffffffffffffffffffffffffff169060200190929190803573ffffffffffffffffffffffffffffffffffffffff169060200190929190803573ffffffffffffffffffffffffffffffffffffffff169060200190929190803573ffffffffffffffffffffffffffffffffffffffff169060200190929190803573ffffffffffffffffffffffffffffffffffffffff16906020019092919050505061054b565b005b61023d6004803603810190808060a001906005806020026040519081016040528092919082600560200280828437820191505050505091929192908060400190600280602002604051908101604052809291908260026020028082843782019150505050509192919290803563ffffffff1690602001909291908035600019169060200190929190803573ffffffffffffffffffffffffffffffffffffffff169060200190929190803573ffffffffffffffffffffffffffffffffffffffff169060200190929190505050610713565b005b34801561024b57600080fd5b5061028860048036038101908080359060200190929190803590602001909291908035906020019092919080359060200190929190505050610882565b6040518082600260200280838360005b838110156102b3578082015181840152602081019050610298565b5050505090500191505060405180910390f35b3480156102d257600080fd5b506103c16004803603810190808035600019169060200190929190803590602001909291908035906020019092919080359060200190820180359060200190808060200260200160405190810160405280939291908181526020018383602002808284378201915050505050509192919290803590602001908201803590602001908080602002602001604051908101604052809392919081815260200183836020028082843782019150505050505091929192908035906020019092919080359060200190929190803590602001909291908035906020019092919080359060200190929190505050610957565b6040518082600560200280838360005b838110156103ec5780820151818401526020810190506103d1565b5050505090500191505060405180910390f35b34801561040b57600080fd5b506104b0600480360381019080803590602001909291908035906020019082018035906020019080806020026020016040519081016040528093929190818152602001838360200280828437820191505050505050919291929080359060200190820180359060200190808060200260200160405190810160405280939291908181526020018383602002808284378201915050505050509192919290505050610aed565b6040518082815260200191505060405180910390f35b3480156104d257600080fd5b506105316004803603810190808035600019169060200190929190803590602001909291908035906020019092919080359060200190929190803590602001909291908035906020019092919080359060200190929190505050610c30565b604051808215151515815260200191505060405180910390f35b73__PurchaseProcessing____________________633676737c888888888888886040518863ffffffff167c01000000000000000000000000000000000000000000000000000000000281526004018088600260200280838360005b838110156105c25780820151818401526020810190506105a7565b5050505090500187600019166000191681526020018673ffffffffffffffffffffffffffffffffffffffff1673ffffffffffffffffffffffffffffffffffffffff1681526020018573ffffffffffffffffffffffffffffffffffffffff1673ffffffffffffffffffffffffffffffffffffffff1681526020018473ffffffffffffffffffffffffffffffffffffffff1673ffffffffffffffffffffffffffffffffffffffff1681526020018373ffffffffffffffffffffffffffffffffffffffff1673ffffffffffffffffffffffffffffffffffffffff1681526020018273ffffffffffffffffffffffffffffffffffffffff1673ffffffffffffffffffffffffffffffffffffffff16815260200197505050505050505060006040518083038186803b1580156106f257600080fd5b505af4158015610706573d6000803e3d6000fd5b5050505050505050505050565b73__PurchaseProcessing____________________634bb1e9ff8787878787876040518763ffffffff167c01000000000000000000000000000000000000000000000000000000000281526004018087600560200280838360005b8381101561078957808201518184015260208101905061076e565b5050505090500186600260200280838360005b838110156107b757808201518184015260208101905061079c565b505050509050018563ffffffff1663ffffffff16815260200184600019166000191681526020018373ffffffffffffffffffffffffffffffffffffffff1673ffffffffffffffffffffffffffffffffffffffff1681526020018273ffffffffffffffffffffffffffffffffffffffff1673ffffffffffffffffffffffffffffffffffffffff168152602001965050505050505060006040518083038186803b15801561086257600080fd5b505af4158015610876573d6000803e3d6000fd5b50505050505050505050565b61088a610d1d565b73__PurchaseProcessing____________________636cd5c056868686866040518563ffffffff167c010000000000000000000000000000000000000000000000000000000002815260040180858152602001848152602001838152602001828152602001945050505050604080518083038186803b15801561090c57600080fd5b505af4158015610920573d6000803e3d6000fd5b505050506040513d601f19601f82011682018060405250604081101561094557600080fd5b81019080919050509050949350505050565b61095f610d3f565b73__PurchaseProcessing____________________6391bfca318c8c8c8c8c8c8c8c8c8c6040518b63ffffffff167c0100000000000000000000000000000000000000000000000000000000028152600401808b600019166000191681526020018a8152602001898152602001806020018060200188815260200187815260200186815260200185815260200184815260200183810383528a818151815260200191508051906020019060200280838360005b83811015610a2d578082015181840152602081019050610a12565b50505050905001838103825289818151815260200191508051906020019060200280838360005b83811015610a6f578082015181840152602081019050610a54565b505050509050019c5050505050505050505050505060a06040518083038186803b158015610a9c57600080fd5b505af4158015610ab0573d6000803e3d6000fd5b505050506040513d601f19601f8201168201806040525060a0811015610ad557600080fd5b810190809190505090509a9950505050505050505050565b600073__PurchaseProcessing____________________63b8005df28585856040518463ffffffff167c0100000000000000000000000000000000000000000000000000000000028152600401808481526020018060200180602001838103835285818151815260200191508051906020019060200280838360005b83811015610b84578082015181840152602081019050610b69565b50505050905001838103825284818151815260200191508051906020019060200280838360005b83811015610bc6578082015181840152602081019050610bab565b505050509050019550505050505060206040518083038186803b158015610bec57600080fd5b505af4158015610c00573d6000803e3d6000fd5b505050506040513d6020811015610c1657600080fd5b810190808051906020019092919050505090509392505050565b600073__PurchaseProcessing____________________63d8e5c914898989898989896040518863ffffffff167c010000000000000000000000000000000000000000000000000000000002815260040180886000191660001916815260200187815260200186815260200185815260200184815260200183815260200182815260200197505050505050505060206040518083038186803b158015610cd557600080fd5b505af4158015610ce9573d6000803e3d6000fd5b505050506040513d6020811015610cff57600080fd5b81019080805190602001909291905050509050979650505050505050565b6040805190810160405280600290602082028038833980820191505090505090565b60a0604051908101604052806005906020820280388339808201915050905050905600a165627a7a723058206f14219adfd2e07a1bd814a09736c251ed4d01256c57fddde91a9f24d6a2cfd00029",
  "source": "pragma solidity 0.4.24;\n\nimport \"../../libs/PurchaseProcessing.sol\";\n\n\ncontract PurchaseProcessingMock {\n\n    function checkInvoiceInput(\n        bytes32 method,\n        uint paymentAmount,\n        uint methodUSDRate,\n        uint tokenUSDRate,\n        uint currentBalanceInTokens,\n        uint tokenDecimals,\n        uint methodDecimals\n    ) public view returns(bool) {\n        return PurchaseProcessing.checkInvoiceInput(\n            method,\n            paymentAmount,\n            methodUSDRate,\n            tokenUSDRate,\n            currentBalanceInTokens,\n            tokenDecimals,\n            methodDecimals\n        );\n    }\n\n    function invoice(\n        bytes32 method,\n        uint paymentAmount,\n        uint discount,\n        uint[] volumeBoundaries,\n        uint[] volumeBonuses,\n        uint methodUSDRate,\n        uint tokenUSDRate,\n        uint tokenDecimals,\n        uint methodDecimals,\n        uint currentBalanceInTokens\n    )\n        public view returns(uint[5])\n    {\n        return PurchaseProcessing.invoice(\n            method,\n            paymentAmount,\n            discount,\n            volumeBoundaries,\n            volumeBonuses,\n            methodUSDRate,\n            tokenUSDRate,\n            tokenDecimals,\n            methodDecimals,\n            currentBalanceInTokens\n        );\n    }\n\n    function fee(uint tokenAmount, uint cost, uint tokenFee, uint purchaseFee) public view returns(uint[2]) {\n        return PurchaseProcessing.fee(\n            tokenAmount,\n            cost,\n            tokenFee,\n            purchaseFee\n        );\n    }\n\n    function transferFee(\n        uint [2] _fee,\n        bytes32 method,\n        address methodToken,\n        address token,\n        address originToken,\n        address exchanger,\n        address serviceWallet\n    ) public payable {\n        PurchaseProcessing.transferFee(\n            _fee,\n            method,\n            methodToken,\n            token,\n            originToken,\n            exchanger,\n            serviceWallet\n        );\n    }\n\n    function transferPurchase(uint[5] _invoice, uint[2] _fee, uint32 vesting, bytes32 method, address methodToken, address token) public payable {\n        PurchaseProcessing.transferPurchase(\n            _invoice,\n            _fee,\n            vesting,\n            method,\n            methodToken,\n            token\n        );\n    }\n\n    function getBonus(uint value, uint[] volumeBoundaries, uint[] volumeBonuses) public view returns(uint bonus) {\n        return PurchaseProcessing.getBonus(\n            value,\n            volumeBoundaries,\n            volumeBonuses\n        );\n    }\n\n    function () public payable {}\n}\n",
  "sourcePath": "/Users/gauss/_games/w12/Protocol/contracts/mocks/libs/PurchaseProcessing.sol",
  "compiler": {
    "name": "solc",
    "version": "0.4.24+commit.e67f0147.Emscripten.clang"
  },
  "schemaVersion": "3.0.16",
  "updatedAt": "2019-11-17T18:33:01.140Z"
}