{
  "contractName": "PurchaseProcessing",
  "abi": [
    {
      "constant": true,
      "inputs": [
        {
          "name": "method",
          "type": "bytes32"
        },
        {
          "name": "amount",
          "type": "uint256"
        },
        {
          "name": "methodUSDRate",
          "type": "uint256"
        },
        {
          "name": "tokenUSDRate",
          "type": "uint256"
        },
        {
          "name": "currentBalanceInTokens",
          "type": "uint256"
        },
        {
          "name": "tokenDecimals",
          "type": "uint256"
        },
        {
          "name": "methodDecimals",
          "type": "uint256"
        }
      ],
      "name": "checkInvoiceInput",
      "outputs": [
        {
          "name": "result",
          "type": "bool"
        }
      ],
      "payable": false,
      "stateMutability": "pure",
      "type": "function"
    },
    {
      "constant": true,
      "inputs": [
        {
          "name": "method",
          "type": "bytes32"
        },
        {
          "name": "paymentAmount",
          "type": "uint256"
        },
        {
          "name": "discount",
          "type": "uint256"
        },
        {
          "name": "volumeBoundaries",
          "type": "uint256[]"
        },
        {
          "name": "volumeBonuses",
          "type": "uint256[]"
        },
        {
          "name": "methodUSDRate",
          "type": "uint256"
        },
        {
          "name": "tokenUSDRate",
          "type": "uint256"
        },
        {
          "name": "tokenDecimals",
          "type": "uint256"
        },
        {
          "name": "methodDecimals",
          "type": "uint256"
        },
        {
          "name": "currentBalanceInTokens",
          "type": "uint256"
        }
      ],
      "name": "invoice",
      "outputs": [
        {
          "name": "result",
          "type": "uint256[5]"
        }
      ],
      "payable": false,
      "stateMutability": "view",
      "type": "function"
    },
    {
      "constant": true,
      "inputs": [
        {
          "name": "method",
          "type": "bytes32"
        },
        {
          "name": "tokenAmount",
          "type": "uint256"
        },
        {
          "name": "discount",
          "type": "uint256"
        },
        {
          "name": "volumeBoundaries",
          "type": "uint256[]"
        },
        {
          "name": "volumeBonuses",
          "type": "uint256[]"
        },
        {
          "name": "methodUSDRate",
          "type": "uint256"
        },
        {
          "name": "tokenUSDRate",
          "type": "uint256"
        },
        {
          "name": "tokenDecimals",
          "type": "uint256"
        },
        {
          "name": "methodDecimals",
          "type": "uint256"
        },
        {
          "name": "currentBalanceInTokens",
          "type": "uint256"
        }
      ],
      "name": "invoiceByTokenAmount",
      "outputs": [
        {
          "name": "result",
          "type": "uint256[4]"
        }
      ],
      "payable": false,
      "stateMutability": "view",
      "type": "function"
    },
    {
      "constant": true,
      "inputs": [
        {
          "name": "tokenAmount",
          "type": "uint256"
        },
        {
          "name": "cost",
          "type": "uint256"
        },
        {
          "name": "tokenFee",
          "type": "uint256"
        },
        {
          "name": "purchaseFee",
          "type": "uint256"
        }
      ],
      "name": "fee",
      "outputs": [
        {
          "name": "result",
          "type": "uint256[2]"
        }
      ],
      "payable": false,
      "stateMutability": "pure",
      "type": "function"
    },
    {
      "constant": false,
      "inputs": [
        {
          "name": "_fee",
          "type": "uint256[2]"
        },
        {
          "name": "method",
          "type": "bytes32"
        },
        {
          "name": "methodToken",
          "type": "address"
        },
        {
          "name": "token",
          "type": "address"
        },
        {
          "name": "originToken",
          "type": "address"
        },
        {
          "name": "exchanger",
          "type": "address"
        },
        {
          "name": "serviceWallet",
          "type": "address"
        }
      ],
      "name": "transferFee",
      "outputs": [],
      "payable": false,
      "stateMutability": "nonpayable",
      "type": "function"
    },
    {
      "constant": false,
      "inputs": [
        {
          "name": "_invoice",
          "type": "uint256[5]"
        },
        {
          "name": "_fee",
          "type": "uint256[2]"
        },
        {
          "name": "vesting",
          "type": "uint32"
        },
        {
          "name": "method",
          "type": "bytes32"
        },
        {
          "name": "methodToken",
          "type": "address"
        },
        {
          "name": "token",
          "type": "address"
        }
      ],
      "name": "transferPurchase",
      "outputs": [],
      "payable": false,
      "stateMutability": "nonpayable",
      "type": "function"
    },
    {
      "constant": true,
      "inputs": [
        {
          "name": "value",
          "type": "uint256"
        },
        {
          "name": "volumeBoundaries",
          "type": "uint256[]"
        },
        {
          "name": "volumeBonuses",
          "type": "uint256[]"
        }
      ],
      "name": "getBonus",
      "outputs": [
        {
          "name": "bonus",
          "type": "uint256"
        }
      ],
      "payable": false,
      "stateMutability": "view",
      "type": "function"
    }
  ],
  "bytecode": "0x61167c610030600b82828239805160001a6073146000811461002057610022565bfe5b5030600052607381538281f30073000000000000000000000000000000000000000030146080604052600436106100805763ffffffff60e060020a6000350416633676737c81146100855780634bb1e9ff146100f75780636cd5c0561461018057806391bfca31146101cf57806391dab4221461028b578063b8005df214610347578063d8e5c914146103df575b600080fd5b81801561009157600080fd5b506040805180820182526100f5913691600491604491908390600290839083908082843750939650508335945050600160a060020a036020840135811693604081013582169350606081013582169250608081013582169160a09091013516610410565b005b81801561010357600080fd5b506040805160a08181019092526100f591369160049160a49190839060059083908390808284375050604080518082018252949796958181019594509250600291508390839080828437509396505050823563ffffffff16935050506020810135906040810135600160a060020a039081169160600135166107a8565b610194600435602435604435606435610aab565b6040518082600260200280838360005b838110156101bc5781810151838201526020016101a4565b5050505090500191505060405180910390f35b6040805160643560048181013560208181028581018201909652818552610276958335956024803596604435963696909560849592909301929091829185019084908082843750506040805187358901803560208181028481018201909552818452989b9a99890198929750908201955093508392508501908490808284375094975050843595505050602083013592604081013592506060810135915060800135610c12565b60405181518152808260a080838360206101a4565b6040805160643560048181013560208181028581018201909652818552610332958335956024803596604435963696909560849592909301929091829185019084908082843750506040805187358901803560208181028481018201909552818452989b9a99890198929750908201955093508392508501908490808284375094975050843595505050602083013592604081013592506060810135915060800135611147565b604051815181528082608080838360206101a4565b6040805160206004602480358281013584810280870186019097528086526103cd96843596369660449591949091019291829185019084908082843750506040805187358901803560208181028481018201909552818452989b9a9989019892975090820195509350839250850190849080828437509497506114ec9650505050505050565b60408051918252519081900360200190f35b6103fc60043560243560443560643560843560a43560c43561154b565b604080519115158252519081900360200190f35b600160a060020a038316151561042557600080fd5b600160a060020a038416151561043a57600080fd5b600160a060020a038216151561044f57600080fd5b600160a060020a038116151561046457600080fd5b6020870151600010801561047f575061047b6115a3565b8614155b1561049957600160a060020a038516151561049957600080fd5b8651600010156105f7578651604080517f23b872dd000000000000000000000000000000000000000000000000000000008152600160a060020a038581166004830152848116602483015260448201939093529051918516916323b872dd916064808201926020929091908290030181600087803b15801561051a57600080fd5b505af115801561052e573d6000803e3d6000fd5b505050506040513d602081101561054457600080fd5b5051151561055157600080fd5b8651604080517fa9059cbb000000000000000000000000000000000000000000000000000000008152600160a060020a038581166004830152602482019390935290519186169163a9059cbb916044808201926020929091908290030181600087803b1580156105c057600080fd5b505af11580156105d4573d6000803e3d6000fd5b505050506040513d60208110156105ea57600080fd5b505115156105f757600080fd5b60208701516000101561079f5761060c6115a3565b861415610652576020870151604051600160a060020a0383169180156108fc02916000818181858888f1935050505015801561064c573d6000803e3d6000fd5b5061079f565b602080880151604080517fdd62ed3e00000000000000000000000000000000000000000000000000000000815233600482015230602482015290519192600160a060020a0389169263dd62ed3e9260448082019392918290030181600087803b1580156106be57600080fd5b505af11580156106d2573d6000803e3d6000fd5b505050506040513d60208110156106e857600080fd5b505110156106f557600080fd5b602080880151604080517f23b872dd000000000000000000000000000000000000000000000000000000008152336004820152600160a060020a03858116602483015260448201939093529051918816926323b872dd926064808401938290030181600087803b15801561076857600080fd5b505af115801561077c573d6000803e3d6000fd5b505050506040513d602081101561079257600080fd5b5051151561079f57600080fd5b50505050505050565b600160a060020a03811615156107bd57600080fd5b855115156107ca57600080fd5b602086015115156107da57600080fd5b84518651116107e857600080fd5b60208086015190870151116107fc57600080fd5b6108046115a3565b83141561081c57602086015134101561081c57600080fd5b6108246115a3565b83146109aa57600160a060020a038216151561083f57600080fd5b602085015161085d908760015b60200201519063ffffffff6115c716565b604080517fdd62ed3e0000000000000000000000000000000000000000000000000000000081523360048201523060248201529051600160a060020a0385169163dd62ed3e9160448083019260209291908290030181600087803b1580156108c457600080fd5b505af11580156108d8573d6000803e3d6000fd5b505050506040513d60208110156108ee57600080fd5b505110156108fb57600080fd5b600160a060020a0382166323b872dd333061091f89600160200201518b600161084c565b6040805160e060020a63ffffffff8716028152600160a060020a0394851660048201529290931660248301526044820152905160648083019260209291908290030181600087803b15801561097357600080fd5b505af1158015610987573d6000803e3d6000fd5b505050506040513d602081101561099d57600080fd5b505115156109aa57600080fd5b8551604080517f9d2e4777000000000000000000000000000000000000000000000000000000008152336004820152602481019290925263ffffffff8616604483015251600160a060020a03831691639d2e47779160648083019260209291908290030181600087803b158015610a2057600080fd5b505af1158015610a34573d6000803e3d6000fd5b505050506040513d6020811015610a4a57600080fd5b50511515610a5757600080fd5b606086015160001015610aa357610a6c6115a3565b831415610aa3576060860151604051339180156108fc02916000818181858888f1935050505015801561079f573d6000803e3d6000fd5b505050505050565b610ab36115f7565b6000831115610b5d57604080517f50716c0e0000000000000000000000000000000000000000000000000000000081526004810187905260248101859052905173__Percent_______________________________916350716c0e916044808301926020929190829003018186803b158015610b2e57600080fd5b505af4158015610b42573d6000803e3d6000fd5b505050506040513d6020811015610b5857600080fd5b505181525b6000821115610c0a57604080517f50716c0e0000000000000000000000000000000000000000000000000000000081526004810186905260248101849052905173__Percent_______________________________916350716c0e916044808301926020929190829003018186803b158015610bd857600080fd5b505af4158015610bec573d6000803e3d6000fd5b505050506040513d6020811015610c0257600080fd5b505160208201525b949350505050565b610c1a611612565b6000610c2b8c8c8989878a8a61154b565b1515610c3657600080fd5b73__Utils_________________________________6376ba78988c868a6040518463ffffffff1660e060020a02815260040180848152602001838152602001828152602001935050505060206040518083038186803b158015610c9857600080fd5b505af4158015610cac573d6000803e3d6000fd5b505050506040513d6020811015610cc257600080fd5b505160408301819052861115610cd757600080fd5b610cea8260025b60200201518a8a6114ec565b905060008a11610cfa5785610dfb565b8573__Percent_______________________________6342318e3d90918c73__Percent_______________________________63d49d51816040518163ffffffff1660e060020a02815260040160206040518083038186803b158015610d5f57600080fd5b505af4158015610d73573d6000803e3d6000fd5b505050506040513d6020811015610d8957600080fd5b50516040805160e060020a63ffffffff871602815260048101949094529190036024830152516044808301926020929190829003018186803b158015610dce57600080fd5b505af4158015610de2573d6000803e3d6000fd5b505050506040513d6020811015610df857600080fd5b50515b826004602002015273__Utils_________________________________63a5a55fcf836002602002015173__Percent_______________________________6350716c0e9091610ec48673__Percent_______________________________63d49d51816040518163ffffffff1660e060020a02815260040160206040518083038186803b158015610e8c57600080fd5b505af4158015610ea0573d6000803e3d6000fd5b505050506040513d6020811015610eb657600080fd5b50519063ffffffff6115de16565b6040518363ffffffff1660e060020a028152600401808381526020018281526020019250505060206040518083038186803b158015610f0257600080fd5b505af4158015610f16573d6000803e3d6000fd5b505050506040513d6020811015610f2c57600080fd5b50518785600460200201516040518463ffffffff1660e060020a02815260040180848152602001838152602001828152602001935050505060206040518083038186803b158015610f7c57600080fd5b505af4158015610f90573d6000803e3d6000fd5b505050506040513d6020811015610fa657600080fd5b5051808352831015611065576080820151604080517f76ba7898000000000000000000000000000000000000000000000000000000008152600481018690526024810188905260448101929092525173__Utils_________________________________916376ba7898916064808301926020929190829003018186803b15801561103057600080fd5b505af4158015611044573d6000803e3d6000fd5b505050506040513d602081101561105a57600080fd5b505160408301528282525b73__Utils_________________________________63a5a55fcf8360026020020151868a6040518463ffffffff1660e060020a02815260040180848152602001838152602001828152602001935050505060206040518083038186803b1580156110ce57600080fd5b505af41580156110e2573d6000803e3d6000fd5b505050506040513d60208110156110f857600080fd5b505160208301819052158061110c57508151155b156111235760008083526020830181905260408301525b6020820151611133908c906115c7565b6060830152509a9950505050505050505050565b61114f611631565b60006111608c8c8989878a8a61154b565b151561116b57600080fd5b8a83101561117757829a505b8a825260008a116111885785611289565b8573__Percent_______________________________6342318e3d90918c73__Percent_______________________________63d49d51816040518163ffffffff1660e060020a02815260040160206040518083038186803b1580156111ed57600080fd5b505af4158015611201573d6000803e3d6000fd5b505050506040513d602081101561121757600080fd5b50516040805160e060020a63ffffffff871602815260048101949094529190036024830152516044808301926020929190829003018186803b15801561125c57600080fd5b505af4158015611270573d6000803e3d6000fd5b505050506040513d602081101561128657600080fd5b50515b60608301819052604080517f76ba7898000000000000000000000000000000000000000000000000000000008152600481018e90526024810188905260448101929092525173__Utils_________________________________916376ba7898916064808301926020929190829003018186803b15801561130957600080fd5b505af415801561131d573d6000803e3d6000fd5b505050506040513d602081101561133357600080fd5b50516040830181905286111561134857600080fd5b611353826002610cde565b905073__Utils_________________________________63a5a55fcf8360026020020151868a73__Percent_______________________________6350716c0e90916113e08873__Percent_______________________________63d49d51816040518163ffffffff1660e060020a02815260040160206040518083038186803b158015610e8c57600080fd5b6040518363ffffffff1660e060020a028152600401808381526020018281526020019250505060206040518083038186803b15801561141e57600080fd5b505af4158015611432573d6000803e3d6000fd5b505050506040513d602081101561144857600080fd5b50516040805160e060020a63ffffffff8716028152600481019490945260248401929092526044830152516064808301926020929190829003018186803b15801561149257600080fd5b505af41580156114a6573d6000803e3d6000fd5b505050506040513d60208110156114bc57600080fd5b50516020830181905215156114dd5760008083526020830181905260408301525b509a9950505050505050505050565b6000805b835181101561154357838181518110151561150757fe5b60209081029091010151851061153657828181518110151561152557fe5b90602001906020020151915061153b565b611543565b6001016114f0565b509392505050565b6000808711801561155c5750600086115b80156115685750600085115b8015611577575082600a0a8410155b90506115816115a3565b881415611598578080156115955750816012145b90505b979650505050505050565b7f455448000000000000000000000000000000000000000000000000000000000090565b600080838311156115d757600080fd5b5050900390565b6000828201838110156115f057600080fd5b9392505050565b60408051808201825290600290829080388339509192915050565b60a0604051908101604052806005906020820280388339509192915050565b60806040519081016040528060049060208202803883395091929150505600a165627a7a72305820d34205e2ec438d98443113a3d551bdea9527aad27ee3564375d28486cc538c2f0029",
  "source": "pragma solidity ^0.4.24;\n\nimport \"openzeppelin-solidity/contracts/math/SafeMath.sol\";\nimport \"openzeppelin-solidity/contracts/token/ERC20/IERC20.sol\";\nimport \"./Percent.sol\";\nimport \"./Utils.sol\";\nimport \"../token/IWToken.sol\";\n\nlibrary PurchaseProcessing {\n    using SafeMath for uint;\n    using Percent for uint;\n\n    function METHOD_ETH() internal pure returns (bytes32) {return bytes32('ETH');}\n\n    function checkInvoiceInput(\n        bytes32 method,\n        uint amount,\n        uint methodUSDRate,\n        uint tokenUSDRate,\n        uint currentBalanceInTokens,\n        uint tokenDecimals,\n        uint methodDecimals\n    ) public pure returns(bool result) {\n        result = amount > 0\n            && methodUSDRate > 0\n            && tokenUSDRate > 0\n            && currentBalanceInTokens >= 10 ** tokenDecimals;\n\n        if (method == METHOD_ETH()) {\n            result = result && methodDecimals == 18;\n        }\n    }\n\n    /**\n     * @notice Generate invoice\n     * @dev 1 USD = 10^8. In this case precision will be up to 10^8 decimals after point\n     * @param method Payment method\n     * @param paymentAmount Payment amount\n     * @param discount Discount percent\n     * @param volumeBoundaries Volume boundaries to calculate bonus\n     * @param volumeBonuses List of bonuses bound to boundaries\n     * @param methodUSDRate Payment method rate in USD\n     * @param tokenUSDRate Token rate in USD\n     * @param tokenDecimals Token decimal\n     * @param methodDecimals Method decimal. N for token, 18 for ETH\n     * @param currentBalanceInTokens Current balance in tokens\n     * @return uint[5] result Invoice calculation result:\n     *\n     * [tokenAmount, cost, costUSD, change, actualTokenPriceUSD]\n     *\n     * [0] tokenAmount - amount of token to buy\n     * [1] cost - cost in method currency\n     * [2] costUSD cost in USD\n     * [3] change - change in method currency\n     * [4] actualTokenPriceUSD - actual token price in USD(with discount)\n     */\n    function invoice(\n        bytes32 method,\n        uint paymentAmount,\n        uint discount,\n        uint[] volumeBoundaries,\n        uint[] volumeBonuses,\n        uint methodUSDRate,\n        uint tokenUSDRate,\n        uint tokenDecimals,\n        uint methodDecimals,\n        uint currentBalanceInTokens\n    )\n        public view returns(uint[5] result)\n    {\n        require(checkInvoiceInput(\n            method,\n            paymentAmount,\n            methodUSDRate,\n            tokenUSDRate,\n            currentBalanceInTokens,\n            tokenDecimals,\n            methodDecimals\n        ));\n\n        // costUSD\n        result[2] = Utils.safeConversionByRate(\n            paymentAmount,\n            methodDecimals,\n            methodUSDRate\n        );\n\n        // min costUSD = tokenUSDRate\n        require(result[2] >= tokenUSDRate);\n\n        uint bonus = getBonus(result[2], volumeBoundaries, volumeBonuses);\n\n        // priceUSD\n        result[4] = discount > 0\n            ? tokenUSDRate.percent(Percent.MAX() - discount)\n            : tokenUSDRate;\n\n        // tokens\n        result[0] = Utils.safeReverseConversionByRate(\n            result[2].safePercent(Percent.MAX().add(bonus)),\n            tokenDecimals,\n            result[4]\n        );\n\n        // if current balance is not enough\n        if (currentBalanceInTokens < result[0]) {\n            result[2] = Utils.safeConversionByRate(\n                currentBalanceInTokens,\n                tokenDecimals,\n                result[4]\n            );\n            result[0] = currentBalanceInTokens;\n        }\n\n        // cost\n        result[1] = Utils.safeReverseConversionByRate(\n            result[2],\n            methodDecimals,\n            methodUSDRate\n        );\n\n        // reset if cost is zero\n        if (result[1] == 0 || result[0] == 0) {\n            result[0] = 0;\n            result[1] = 0;\n            result[2] = 0;\n        }\n\n        // change\n        result[3] = paymentAmount.sub(result[1]);\n    }\n\n    /**\n     * @notice Generate invoice by token amount\n     * @dev 1 USD = 10^8. In this case precision will be up to 10^8 decimals after point\n     * @param method Payment method\n     * @param tokenAmount Token amount\n     * @param discount Discount percent\n     * @param volumeBoundaries Volume boundaries to calculate bonus\n     * @param volumeBonuses List of bonuses bound to boundaries\n     * @param methodUSDRate Payment method rate in USD\n     * @param tokenUSDRate Token rate in USD\n     * @param tokenDecimals Token decimal\n     * @param methodDecimals Method decimal. N for token, 18 for ETH\n     * @param currentBalanceInTokens Current balance in tokens\n     * @return uint[4] result Invoice calculation result:\n     *\n     * [tokenAmount, cost, costUSD, change, actualTokenPriceUSD]\n     *\n     * [0] tokenAmount - amount of token to buy\n     * [1] cost - cost in method currency\n     * [2] costUSD cost in USD\n     * [3] actualTokenPriceUSD - actual token price in USD(with discount)\n     */\n    function invoiceByTokenAmount(\n        bytes32 method,\n        uint tokenAmount,\n        uint discount,\n        uint[] volumeBoundaries,\n        uint[] volumeBonuses,\n        uint methodUSDRate,\n        uint tokenUSDRate,\n        uint tokenDecimals,\n        uint methodDecimals,\n        uint currentBalanceInTokens\n    )\n        public view returns (uint[4] result)\n    {\n        require(checkInvoiceInput(\n            method,\n            tokenAmount,\n            methodUSDRate,\n            tokenUSDRate,\n            currentBalanceInTokens,\n            tokenDecimals,\n            methodDecimals\n        ));\n\n        if (currentBalanceInTokens < tokenAmount) {\n            tokenAmount = currentBalanceInTokens;\n        }\n\n        // tokens\n        result[0] = tokenAmount;\n\n        // priceUSD\n        result[3] = discount > 0\n            ? tokenUSDRate.percent(Percent.MAX() - discount)\n            : tokenUSDRate;\n\n        // costUSD\n        result[2] = Utils.safeConversionByRate(\n            tokenAmount,\n            tokenDecimals,\n            result[3]\n        );\n\n        // min costUSD = tokenUSDRate\n        require(result[2] >= tokenUSDRate);\n\n        uint bonus = getBonus(result[2], volumeBoundaries, volumeBonuses);\n\n        result[1] = Utils.safeReverseConversionByRate(\n            result[2],\n            methodDecimals,\n            methodUSDRate.safePercent(Percent.MAX().add(bonus))\n        );\n\n        // reset if cost is zero\n        if (result[1] == 0) {\n            result[0] = 0;\n            result[1] = 0;\n            result[2] = 0;\n            return;\n        }\n    }\n\n    function fee(uint tokenAmount, uint cost, uint tokenFee, uint purchaseFee) public pure returns(uint[2] result) {\n        if (tokenFee > 0) result[0] = tokenAmount.safePercent(tokenFee);\n        if (purchaseFee > 0) result[1] = cost.safePercent(purchaseFee);\n    }\n\n    function transferFee(\n        uint[2] _fee,\n        bytes32 method,\n        address methodToken,\n        address token,\n        address originToken,\n        address exchanger,\n        address serviceWallet\n    ) public {\n        require(originToken != address(0));\n        require(token != address(0));\n        require(exchanger != address(0));\n        require(serviceWallet != address(0));\n\n        if (_fee[1] > 0 && method != METHOD_ETH()) {\n            require(methodToken != address(0));\n        }\n\n        if (_fee[0] > 0) {\n            require(IERC20(originToken).transferFrom(exchanger, serviceWallet, _fee[0]));\n            require(IERC20(token).transfer(exchanger, _fee[0]));\n        }\n\n        if (_fee[1] > 0) {\n            if (method == METHOD_ETH()) {\n                serviceWallet.transfer(_fee[1]);\n            } else {\n                require(IERC20(methodToken).allowance(msg.sender, address(this)) >= _fee[1]);\n                require(IERC20(methodToken).transferFrom(msg.sender, serviceWallet, _fee[1]));\n            }\n        }\n    }\n\n    function transferPurchase(\n        uint[5] _invoice,\n        uint[2] _fee,\n        uint32 vesting,\n        bytes32 method,\n        address methodToken,\n        address token\n    ) public {\n        require(token != address(0));\n        require(_invoice[0] != 0);\n        require(_invoice[1] != 0);\n        require(_invoice[0] > _fee[0]);\n        require(_invoice[1] > _fee[1]);\n\n        if (method == METHOD_ETH()) {\n            require(msg.value >= _invoice[1]);\n        }\n\n        if (method != METHOD_ETH()) {\n            require(methodToken != address(0));\n            require(IERC20(methodToken).allowance(msg.sender, address(this)) >= _invoice[1].sub(_fee[1]));\n            require(IERC20(methodToken).transferFrom(msg.sender, address(this), _invoice[1].sub(_fee[1])));\n        }\n\n        require(IWToken(token).vestingTransfer(msg.sender, _invoice[0], vesting));\n\n        if (_invoice[3] > 0) {\n            if (method == METHOD_ETH()) {\n                msg.sender.transfer(_invoice[3]);\n            }\n        }\n    }\n\n    function getBonus(uint value, uint[] volumeBoundaries, uint[] volumeBonuses) public view returns(uint bonus) {\n        for (uint i = 0; i < volumeBoundaries.length; i++) {\n            if (value >= volumeBoundaries[i]) {\n                bonus = volumeBonuses[i];\n            } else {\n                break;\n            }\n        }\n    }\n}\n",
  "sourcePath": "/home/circleci/code/contracts/libs/PurchaseProcessing.sol",
  "compiler": {
    "name": "solc",
    "version": "0.4.24+commit.e67f0147.Emscripten.clang"
  },
  "schemaVersion": "2.0.1",
  "updatedAt": "2018-12-12T11:17:39.518Z"
}