{
  "contractName": "RatesGuard",
  "abi": [
    {
      "constant": true,
      "inputs": [
        {
          "name": "account",
          "type": "address"
        }
      ],
      "name": "isSuggestor",
      "outputs": [
        {
          "name": "",
          "type": "bool"
        }
      ],
      "payable": false,
      "stateMutability": "view",
      "type": "function"
    },
    {
      "constant": true,
      "inputs": [
        {
          "name": "account",
          "type": "address"
        }
      ],
      "name": "isAdmin",
      "outputs": [
        {
          "name": "",
          "type": "bool"
        }
      ],
      "payable": false,
      "stateMutability": "view",
      "type": "function"
    },
    {
      "constant": true,
      "inputs": [],
      "name": "lockUntil",
      "outputs": [
        {
          "name": "",
          "type": "uint256"
        }
      ],
      "payable": false,
      "stateMutability": "view",
      "type": "function"
    },
    {
      "constant": true,
      "inputs": [],
      "name": "validationTriggerCondition",
      "outputs": [
        {
          "name": "",
          "type": "uint256"
        }
      ],
      "payable": false,
      "stateMutability": "view",
      "type": "function"
    },
    {
      "constant": true,
      "inputs": [],
      "name": "rates",
      "outputs": [
        {
          "name": "",
          "type": "address"
        }
      ],
      "payable": false,
      "stateMutability": "view",
      "type": "function"
    },
    {
      "constant": true,
      "inputs": [],
      "name": "diffTolerant",
      "outputs": [
        {
          "name": "",
          "type": "uint256"
        }
      ],
      "payable": false,
      "stateMutability": "view",
      "type": "function"
    },
    {
      "constant": true,
      "inputs": [],
      "name": "diffPrevTolerant",
      "outputs": [
        {
          "name": "",
          "type": "uint256"
        }
      ],
      "payable": false,
      "stateMutability": "view",
      "type": "function"
    },
    {
      "constant": true,
      "inputs": [
        {
          "name": "",
          "type": "bytes32"
        }
      ],
      "name": "diffPrevTolerantForSymbol",
      "outputs": [
        {
          "name": "",
          "type": "uint256"
        }
      ],
      "payable": false,
      "stateMutability": "view",
      "type": "function"
    },
    {
      "constant": false,
      "inputs": [],
      "name": "renounceSuggestor",
      "outputs": [],
      "payable": false,
      "stateMutability": "nonpayable",
      "type": "function"
    },
    {
      "constant": false,
      "inputs": [],
      "name": "renounceAdmin",
      "outputs": [],
      "payable": false,
      "stateMutability": "nonpayable",
      "type": "function"
    },
    {
      "constant": true,
      "inputs": [],
      "name": "expireTimeout",
      "outputs": [
        {
          "name": "",
          "type": "uint256"
        }
      ],
      "payable": false,
      "stateMutability": "view",
      "type": "function"
    },
    {
      "constant": true,
      "inputs": [
        {
          "name": "",
          "type": "bytes32"
        }
      ],
      "name": "hasDiffPrevTolerantForSymbol",
      "outputs": [
        {
          "name": "",
          "type": "bool"
        }
      ],
      "payable": false,
      "stateMutability": "view",
      "type": "function"
    },
    {
      "constant": true,
      "inputs": [
        {
          "name": "",
          "type": "bytes32"
        }
      ],
      "name": "diffTolerantForSymbol",
      "outputs": [
        {
          "name": "",
          "type": "uint256"
        }
      ],
      "payable": false,
      "stateMutability": "view",
      "type": "function"
    },
    {
      "constant": true,
      "inputs": [],
      "name": "lockOnFailTimeout",
      "outputs": [
        {
          "name": "",
          "type": "uint256"
        }
      ],
      "payable": false,
      "stateMutability": "view",
      "type": "function"
    },
    {
      "constant": true,
      "inputs": [
        {
          "name": "",
          "type": "bytes32"
        }
      ],
      "name": "hasDiffTolerantForSymbol",
      "outputs": [
        {
          "name": "",
          "type": "bool"
        }
      ],
      "payable": false,
      "stateMutability": "view",
      "type": "function"
    },
    {
      "constant": true,
      "inputs": [],
      "name": "minSuggestionMatch",
      "outputs": [
        {
          "name": "",
          "type": "uint256"
        }
      ],
      "payable": false,
      "stateMutability": "view",
      "type": "function"
    },
    {
      "inputs": [
        {
          "name": "_rates",
          "type": "address"
        },
        {
          "name": "_validationTriggerCondition",
          "type": "uint256"
        },
        {
          "name": "_minSuggestionMatch",
          "type": "uint256"
        },
        {
          "name": "_diffPrevTolerant",
          "type": "uint256"
        },
        {
          "name": "_lockOnFailTimeout",
          "type": "uint256"
        },
        {
          "name": "_diffTolerant",
          "type": "uint256"
        },
        {
          "name": "_expireTimeout",
          "type": "uint256"
        },
        {
          "name": "_suggestors",
          "type": "address[]"
        }
      ],
      "payable": false,
      "stateMutability": "nonpayable",
      "type": "constructor"
    },
    {
      "anonymous": false,
      "inputs": [
        {
          "indexed": true,
          "name": "failCase",
          "type": "uint8"
        }
      ],
      "name": "Fail",
      "type": "event"
    },
    {
      "anonymous": false,
      "inputs": [
        {
          "indexed": true,
          "name": "suggestor",
          "type": "address"
        }
      ],
      "name": "SuggestionConfirmed",
      "type": "event"
    },
    {
      "anonymous": false,
      "inputs": [
        {
          "indexed": true,
          "name": "suggestor",
          "type": "address"
        }
      ],
      "name": "SuggestionAccepted",
      "type": "event"
    },
    {
      "anonymous": false,
      "inputs": [
        {
          "indexed": true,
          "name": "updater",
          "type": "address"
        },
        {
          "indexed": false,
          "name": "rates",
          "type": "address"
        },
        {
          "indexed": false,
          "name": "validationTriggerCondition",
          "type": "uint256"
        },
        {
          "indexed": false,
          "name": "minSuggestionMatch",
          "type": "uint256"
        },
        {
          "indexed": false,
          "name": "diffPrevTolerant",
          "type": "uint256"
        },
        {
          "indexed": false,
          "name": "lockOnFailTimeout",
          "type": "uint256"
        },
        {
          "indexed": false,
          "name": "diffTolerant",
          "type": "uint256"
        },
        {
          "indexed": false,
          "name": "expireTimeout",
          "type": "uint256"
        }
      ],
      "name": "SettingUpdated",
      "type": "event"
    },
    {
      "anonymous": false,
      "inputs": [
        {
          "indexed": true,
          "name": "updater",
          "type": "address"
        },
        {
          "indexed": false,
          "name": "symbol",
          "type": "bytes32"
        },
        {
          "indexed": false,
          "name": "value",
          "type": "uint256"
        }
      ],
      "name": "DiffTolerantForSymbolsUpdated",
      "type": "event"
    },
    {
      "anonymous": false,
      "inputs": [
        {
          "indexed": true,
          "name": "remover",
          "type": "address"
        },
        {
          "indexed": false,
          "name": "symbol",
          "type": "bytes32"
        }
      ],
      "name": "DiffTolerantForSymbolsRemoved",
      "type": "event"
    },
    {
      "anonymous": false,
      "inputs": [
        {
          "indexed": true,
          "name": "updater",
          "type": "address"
        },
        {
          "indexed": false,
          "name": "symbol",
          "type": "bytes32"
        },
        {
          "indexed": false,
          "name": "value",
          "type": "uint256"
        }
      ],
      "name": "DiffPrevTolerantForSymbolsUpdated",
      "type": "event"
    },
    {
      "anonymous": false,
      "inputs": [
        {
          "indexed": true,
          "name": "remover",
          "type": "address"
        },
        {
          "indexed": false,
          "name": "symbol",
          "type": "bytes32"
        }
      ],
      "name": "DiffPrevTolerantForSymbolsRemoved",
      "type": "event"
    },
    {
      "anonymous": false,
      "inputs": [
        {
          "indexed": true,
          "name": "account",
          "type": "address"
        }
      ],
      "name": "SuggestorAdded",
      "type": "event"
    },
    {
      "anonymous": false,
      "inputs": [
        {
          "indexed": true,
          "name": "account",
          "type": "address"
        }
      ],
      "name": "SuggestorRemoved",
      "type": "event"
    },
    {
      "anonymous": false,
      "inputs": [
        {
          "indexed": true,
          "name": "account",
          "type": "address"
        }
      ],
      "name": "AdminAdded",
      "type": "event"
    },
    {
      "anonymous": false,
      "inputs": [
        {
          "indexed": true,
          "name": "account",
          "type": "address"
        }
      ],
      "name": "AdminRemoved",
      "type": "event"
    },
    {
      "constant": false,
      "inputs": [
        {
          "name": "_rates",
          "type": "address"
        }
      ],
      "name": "setRates",
      "outputs": [],
      "payable": false,
      "stateMutability": "nonpayable",
      "type": "function"
    },
    {
      "constant": false,
      "inputs": [
        {
          "name": "value",
          "type": "uint256"
        }
      ],
      "name": "setValidationTriggerCondition",
      "outputs": [],
      "payable": false,
      "stateMutability": "nonpayable",
      "type": "function"
    },
    {
      "constant": false,
      "inputs": [
        {
          "name": "value",
          "type": "uint256"
        }
      ],
      "name": "setMinSuggestionMatch",
      "outputs": [],
      "payable": false,
      "stateMutability": "nonpayable",
      "type": "function"
    },
    {
      "constant": false,
      "inputs": [
        {
          "name": "value",
          "type": "uint256"
        }
      ],
      "name": "setDiffPrevTolerant",
      "outputs": [],
      "payable": false,
      "stateMutability": "nonpayable",
      "type": "function"
    },
    {
      "constant": false,
      "inputs": [
        {
          "name": "symbol",
          "type": "bytes32"
        },
        {
          "name": "value",
          "type": "uint256"
        }
      ],
      "name": "setDiffPrevTolerantForSymbol",
      "outputs": [],
      "payable": false,
      "stateMutability": "nonpayable",
      "type": "function"
    },
    {
      "constant": false,
      "inputs": [
        {
          "name": "symbol",
          "type": "bytes32"
        }
      ],
      "name": "unsetDiffPrevTolerantForSymbol",
      "outputs": [],
      "payable": false,
      "stateMutability": "nonpayable",
      "type": "function"
    },
    {
      "constant": false,
      "inputs": [
        {
          "name": "value",
          "type": "uint256"
        }
      ],
      "name": "setLockOnFailTimeout",
      "outputs": [],
      "payable": false,
      "stateMutability": "nonpayable",
      "type": "function"
    },
    {
      "constant": false,
      "inputs": [
        {
          "name": "value",
          "type": "uint256"
        }
      ],
      "name": "setDiffTolerant",
      "outputs": [],
      "payable": false,
      "stateMutability": "nonpayable",
      "type": "function"
    },
    {
      "constant": false,
      "inputs": [
        {
          "name": "symbol",
          "type": "bytes32"
        },
        {
          "name": "value",
          "type": "uint256"
        }
      ],
      "name": "setDiffTolerantForSymbol",
      "outputs": [],
      "payable": false,
      "stateMutability": "nonpayable",
      "type": "function"
    },
    {
      "constant": false,
      "inputs": [
        {
          "name": "symbol",
          "type": "bytes32"
        }
      ],
      "name": "unsetDiffTolerantForSymbol",
      "outputs": [],
      "payable": false,
      "stateMutability": "nonpayable",
      "type": "function"
    },
    {
      "constant": false,
      "inputs": [
        {
          "name": "value",
          "type": "uint256"
        }
      ],
      "name": "setExpireTimeout",
      "outputs": [],
      "payable": false,
      "stateMutability": "nonpayable",
      "type": "function"
    },
    {
      "constant": false,
      "inputs": [
        {
          "name": "account",
          "type": "address"
        }
      ],
      "name": "addAdmin",
      "outputs": [],
      "payable": false,
      "stateMutability": "nonpayable",
      "type": "function"
    },
    {
      "constant": false,
      "inputs": [
        {
          "name": "account",
          "type": "address"
        }
      ],
      "name": "removeAdmin",
      "outputs": [],
      "payable": false,
      "stateMutability": "nonpayable",
      "type": "function"
    },
    {
      "constant": false,
      "inputs": [
        {
          "name": "account",
          "type": "address"
        }
      ],
      "name": "addSuggestor",
      "outputs": [],
      "payable": false,
      "stateMutability": "nonpayable",
      "type": "function"
    },
    {
      "constant": false,
      "inputs": [
        {
          "name": "_suggestors",
          "type": "address[]"
        }
      ],
      "name": "bulkAddSuggestor",
      "outputs": [],
      "payable": false,
      "stateMutability": "nonpayable",
      "type": "function"
    },
    {
      "constant": false,
      "inputs": [
        {
          "name": "account",
          "type": "address"
        }
      ],
      "name": "removeSuggestor",
      "outputs": [],
      "payable": false,
      "stateMutability": "nonpayable",
      "type": "function"
    },
    {
      "constant": false,
      "inputs": [
        {
          "name": "symbols",
          "type": "bytes32[]"
        },
        {
          "name": "rateValues",
          "type": "uint256[]"
        }
      ],
      "name": "suggest",
      "outputs": [],
      "payable": false,
      "stateMutability": "nonpayable",
      "type": "function"
    },
    {
      "constant": true,
      "inputs": [],
      "name": "isLocked",
      "outputs": [
        {
          "name": "",
          "type": "bool"
        }
      ],
      "payable": false,
      "stateMutability": "view",
      "type": "function"
    }
  ],
  "bytecode": "0x60806040523480156200001157600080fd5b50604051620020c9380380620020c983398101604090815281516020830151918301516060840151608085015160a086015160c087015160e0880151959794959394929391929091016200006e3364010000000062000156810204565b6200008233640100000000620001a8810204565b6200009688640100000000620001fa810204565b620000aa8764010000000062000232810204565b620000be8664010000000062000245810204565b620000d28564010000000062000258810204565b620000e6846401000000006200025d810204565b620000fa8364010000000062000262810204565b6200010e8264010000000062000267810204565b620001216401000000006200026c810204565b62000134640100000000620002e9810204565b6200014881640100000000620002ff810204565b505050505050505062000505565b620001716000826401000000006200171d6200036e82021704565b604051600160a060020a038216907f44d6d25963f097ad14f29f06854a01f575648a1ef82f30e562ccd3889717e33990600090a250565b620001c36001826401000000006200171d6200036e82021704565b604051600160a060020a038216907fe1bc9c2988ec45414afec0ac5baabb692c2c01869cdee5435d9e20336f022d8a90600090a250565b600160a060020a03811615156200021057600080fd5b60048054600160a060020a031916600160a060020a0392909216919091179055565b600181116200024057600080fd5b600555565b600081116200025357600080fd5b600655565b600755565b600a55565b600b55565b600e55565b600454600554600654600754600a54600b54600e5460408051600160a060020a039890981688526020880196909652868601949094526060860192909252608085015260a084015260c08301525133917f090fcb9b93f3f83e722737a75d5c040deff35964ebba7d4d4ae460c67579bcc9919081900360e00190a2565b620002fd33640100000000620003c9810204565b565b600062000315336401000000006200041b810204565b15156200032157600080fd5b5060005b81518110156200036a576200036182828151811015156200034257fe5b906020019060200201516200043d640100000000026401000000009004565b60010162000325565b5050565b600160a060020a03811615156200038457600080fd5b62000399828264010000000062000474810204565b15620003a457600080fd5b600160a060020a0316600090815260209190915260409020805460ff19166001179055565b620003e4600182640100000000620010a2620004ac82021704565b604051600160a060020a038216907f51d15a621856b0c74d426f844b0f18f04708f04e1eeed73df06d51fc6f6dc89b90600090a250565b600062000437818364010000000062000a866200047482021704565b92915050565b62000451336401000000006200041b810204565b15156200045d57600080fd5b6200047181640100000000620001a8810204565b50565b6000600160a060020a03821615156200048c57600080fd5b50600160a060020a03166000908152602091909152604090205460ff1690565b600160a060020a0381161515620004c257600080fd5b620004d7828264010000000062000474810204565b1515620004e357600080fd5b600160a060020a0316600090815260209190915260409020805460ff19169055565b611bb480620005156000396000f3006080604052600436106101925763ffffffff60e060020a6000350416630d370dd2811461019757806311837f66146101ba57806314386de1146101d2578063155d7f4f146101ea5780631785f53c146102025780631ef721c71461022357806324d7806c146102585780632fc4d3e514610279578063305c67cc146102915780633a3ccd53146102ac5780633c78929e146102c45780633fbf5be3146102eb57806343f48fbd146103005780634510d11d146103315780634b160291146103465780634c61ec06146103d457806356610666146103e957806357b35ac8146104015780635e9ff05814610419578063704802751461042e57806377bb94f61461044f5780637d445da4146104a45780638bad0c0a146104bf578063a4e2d634146104d4578063aa5e2936146104e9578063b75321fb146104fe578063b8fe2eb71461051f578063ba65e29f14610537578063c114032d1461054f578063ca78d7c014610564578063d67f349c1461057c578063df7e48361461059d578063e168188d146105b5578063fab509e3146105cd575b600080fd5b3480156101a357600080fd5b506101b8600160a060020a03600435166105e2565b005b3480156101c657600080fd5b506101b8600435610602565b3480156101de57600080fd5b506101b8600435610613565b3480156101f657600080fd5b506101b860043561066c565b34801561020e57600080fd5b506101b8600160a060020a0360043516610675565b34801561022f57600080fd5b50610244600160a060020a0360043516610692565b604080519115158252519081900360200190f35b34801561026457600080fd5b50610244600160a060020a03600435166106ad565b34801561028557600080fd5b506101b86004356106bf565b34801561029d57600080fd5b506101b86004356024356106c8565b3480156102b857600080fd5b506101b860043561072a565b3480156102d057600080fd5b506102d9610783565b60408051918252519081900360200190f35b3480156102f757600080fd5b506102d9610789565b34801561030c57600080fd5b5061031561078f565b60408051600160a060020a039092168252519081900360200190f35b34801561033d57600080fd5b506102d961079e565b34801561035257600080fd5b50604080516020600480358082013583810280860185019096528085526101b895369593946024949385019291829185019084908082843750506040805187358901803560208181028481018201909552818452989b9a9989019892975090820195509350839250850190849080828437509497506107a49650505050505050565b3480156103e057600080fd5b506102d96107e1565b3480156103f557600080fd5b506101b86004356107e7565b34801561040d57600080fd5b506102d96004356107f0565b34801561042557600080fd5b506101b8610802565b34801561043a57600080fd5b506101b8600160a060020a036004351661080d565b34801561045b57600080fd5b50604080516020600480358082013583810280860185019096528085526101b89536959394602494938501929182918501908490808284375094975061082a9650505050505050565b3480156104b057600080fd5b506101b8600435602435610875565b3480156104cb57600080fd5b506101b86108d7565b3480156104e057600080fd5b506102446108e0565b3480156104f557600080fd5b506102d96108e9565b34801561050a57600080fd5b506101b8600160a060020a03600435166108ef565b34801561052b57600080fd5b5061024460043561090c565b34801561054357600080fd5b506102d9600435610921565b34801561055b57600080fd5b506102d9610933565b34801561057057600080fd5b50610244600435610939565b34801561058857600080fd5b506101b8600160a060020a036004351661094e565b3480156105a957600080fd5b506101b8600435610957565b3480156105c157600080fd5b506101b8600435610960565b3480156105d957600080fd5b506102d9610969565b6105eb336106ad565b15156105f657600080fd5b6105ff8161096f565b50565b61060b816109b7565b6105ff6109bc565b60008181526008602090815260408083208390556009825291829020805460ff191690558151838152915133927f209ea8455d66e69446c8851b0dec4cc93309443ca80c42ee27d82586ef64592192908290030190a250565b61060b81610a39565b61067e336106ad565b151561068957600080fd5b6105ff81610a3e565b60006106a560018363ffffffff610a8616565b90505b919050565b60006106a5818363ffffffff610a8616565b61060b81610abd565b6000828152600c60209081526040808320849055600d825291829020805460ff191660011790558151848152908101839052815133927f8176b348adbaec680bdcb47adb60c3e5b3a26692add3801e43d325eb61f086fa928290030190a25050565b6000818152600c60209081526040808320839055600d825291829020805460ff191690558151838152915133927f3fa55dcf11e45878d78b86f99a72f2ab56f64c8df593f054d4cc63f8f08167f392908290030190a250565b600f5481565b60055481565b600454600160a060020a031681565b600b5481565b6107ad33610692565b15156107b857600080fd5b6107c06108e0565b156107ca57600080fd5b6107d5338383610acf565b6107dd610e8d565b5050565b60075481565b61060b81610fb2565b60086020526000908152604090205481565b61080b3361096f565b565b610816336106ad565b151561082157600080fd5b6105ff81610fc4565b6000610835336106ad565b151561084057600080fd5b5060005b81518110156107dd5761086d828281518110151561085e57fe5b906020019060200201516108ef565b600101610844565b60008281526008602090815260408083208490556009825291829020805460ff191660011790558151848152908101839052815133927f206455a314bd4aa9f62c1977408e252e8f3ce3eacc7415738b8eebf44ff04449928290030190a25050565b61080b33610a3e565b600f5442105b90565b600e5481565b6108f8336106ad565b151561090357600080fd5b6105ff8161100c565b60096020526000908152604090205460ff1681565b600c6020526000908152604090205481565b600a5481565b600d6020526000908152604090205460ff1681565b61060b81611054565b61060b81611098565b61060b8161109d565b60065481565b61098060018263ffffffff6110a216565b604051600160a060020a038216907f51d15a621856b0c74d426f844b0f18f04708f04e1eeed73df06d51fc6f6dc89b90600090a250565b600e55565b600454600554600654600754600a54600b54600e5460408051600160a060020a039890981688526020880196909652868601949094526060860192909252608085015260a084015260c08301525133917f090fcb9b93f3f83e722737a75d5c040deff35964ebba7d4d4ae460c67579bcc9919081900360e00190a2565b600755565b610a4f60008263ffffffff6110a216565b604051600160a060020a038216907fa3b62bc36326052d97ea62d63c3d60308ed4c3ea8ac079dd8499f1e9c4f80c0f90600090a250565b6000600160a060020a0382161515610a9d57600080fd5b50600160a060020a03166000908152602091909152604090205460ff1690565b60008111610aca57600080fd5b600655565b60008060008451600014151515610ae557600080fd5b8351855114610af357600080fd5b600092505b600160a060020a038616600090815260026020526040902054831015610b7c57600160a060020a0386166000908152600260208190526040822080549181019183919087908110610b4557fe5b60009182526020808320919091015483528201929092526040019020805460ff191691151591909117905560019290920191610af8565b600160a060020a03861660009081526002602090815260409091208651610ba592880190611b01565b50600160a060020a03861660009081526002602052604081204260039091015592505b8451831015610ca95760016002600088600160a060020a0316600160a060020a0316815260200190815260200160002060020160008786815181101515610c0b57fe5b6020908102919091018101518252810191909152604001600020805460ff19169115159190911790558351849084908110610c4257fe5b906020019060200201516002600088600160a060020a0316600160a060020a0316815260200190815260200160002060010160008786815181101515610c8457fe5b6020908102909101810151825281019190915260400160002055600190920191610bc8565b604051600160a060020a038716907ffdcac279ce4d1598aaa8720df8b176f799145233f1d75ba7ca79c4111b0556a890600090a2600092505b600354831015610e2c5785600160a060020a0316600384815481101515610d0557fe5b600091825260209091200154600160a060020a03161415610e21576003546001018314610e1c576003805484908110610d3a57fe5b600091825260209091200154600160a060020a031691508290505b60035460001901811015610dd8576003805460018301908110610d7457fe5b60009182526020909120015460038054600160a060020a039092169183908110610d9a57fe5b6000918252602090912001805473ffffffffffffffffffffffffffffffffffffffff1916600160a060020a0392909216919091179055600101610d55565b600380548391906000198101908110610ded57fe5b9060005260206000200160006101000a815481600160a060020a030219169083600160a060020a031602179055505b610e85565b600190920191610ce2565b600380546001810182556000919091527fc2575a0e9e593c00f959f8c92f12db2869c3395a3b0502d05e2516446f71f85b01805473ffffffffffffffffffffffffffffffffffffffff1916600160a060020a0388161790555b505050505050565b6000806000610e9a6110ee565b60055460035414610eaa57610fad565b610eb26111fe565b925092509250801515610f0057610ec7611395565b610ecf61139f565b60005b6040517f8f71917a995d4f3783d963e27097238fe60a0763ed1d125696ce3bad43551bc390600090a2610fad565b610f09836113ac565b15610f2557610f16611395565b610f1e61139f565b6002610ed2565b610f2e83611476565b15610f4a57610f3b611395565b610f4361139f565b6001610ed2565b610f5383611626565b1515610f7057610f61611395565b610f6961139f565b6003610ed2565b610f7861139f565b604051600160a060020a038316907f518371ba53576aa72b80227247663701a27d3a646396383a6780f3e6e8f2d83a90600090a25b505050565b60018111610fbf57600080fd5b600555565b610fd560008263ffffffff61171d16565b604051600160a060020a038216907f44d6d25963f097ad14f29f06854a01f575648a1ef82f30e562ccd3889717e33990600090a250565b61101d60018263ffffffff61171d16565b604051600160a060020a038216907fe1bc9c2988ec45414afec0ac5baabb692c2c01869cdee5435d9e20336f022d8a90600090a250565b600160a060020a038116151561106957600080fd5b6004805473ffffffffffffffffffffffffffffffffffffffff1916600160a060020a0392909216919091179055565b600b55565b600a55565b600160a060020a03811615156110b757600080fd5b6110c18282610a86565b15156110cc57600080fd5b600160a060020a0316600090815260209190915260409020805460ff19169055565b6000806000600e546000141515610fad5760009250600091505b6003548210156111e6576002600060038481548110151561112557fe5b6000918252602080832090910154600160a060020a03168352820192909252604001902060030154600e544291909103600101915081116111db576003546000190182146111d45760038054600019810190811061117f57fe5b60009182526020909120015460038054600160a060020a0390921691849081106111a557fe5b9060005260206000200160006101000a815481600160a060020a030219169083600160a060020a031602179055505b6001909201915b600190910190611108565b60038054849003906111f89082611b4e565b50505050565b6000806000606060008061121061176b565b9250600090505b825181101561135057600654838281518110151561123157fe5b602090810290910101511061134857831561134057828281518110151561125457fe5b90602001906020020151838281518110151561126c57fe5b9060200190602002015111156112845780915061133b565b828281518110151561129257fe5b9060200190602002015183828151811015156112aa57fe5b90602001906020020151141561133b57600260006003848154811015156112cd57fe5b6000918252602080832090910154600160a060020a0316835282019290925260400181206003908101548154909260029290918590811061130a57fe5b6000918252602080832090910154600160a060020a031683528201929092526040019020600301541061133b578091505b611348565b600193508091505b600101611217565b831561138d57600380548390811061136457fe5b6000918252602080832090910154600160a060020a031680835260029091526040909120965094505b505050909192565b600a544201600f55565b60006105ff600382611b4e565b6000805b825481101561146b576004548354600160a060020a0390911690637d20abf8908590849081106113dc57fe5b90600052602060002001546040518263ffffffff1660e060020a028152600401808260001916600019168152602001915050602060405180830381600087803b15801561142857600080fd5b505af115801561143c573d6000803e3d6000fd5b505050506040513d602081101561145257600080fd5b505115156114635760019150611470565b6001016113b0565b600091505b50919050565b60008080805b8454831015611619576004548554600160a060020a0390911690638eaa6ac0908790869081106114a857fe5b90600052602060002001546040518263ffffffff1660e060020a028152600401808260001916600019168152602001915050602060405180830381600087803b1580156114f457600080fd5b505af1158015611508573d6000803e3d6000fd5b505050506040513d602081101561151e57600080fd5b5051915081151561152e5761160e565b846001016000866000018581548110151561154557fe5b600091825260208083209091015483528201929092526040019020548210156115a25781856001016000876000018681548110151561158057fe5b60009182526020808320909101548352820192909252604001902054036115d8565b84600101600086600001858154811015156115b957fe5b6000918252602080832090910154835282019290925260400190205482035b90506115fe85600001848154811015156115ee57fe5b90600052602060002001546118a8565b81111561160e576001935061161e565b60019092019161147c565b600093505b505050919050565b6000805b825481101561171457600454604080517f73657428627974657333322c75696e7432353629000000000000000000000000815290519081900360140190208454600160a060020a039092169160e060020a9091049085908490811061168b57fe5b906000526020600020015485600101600087600001868154811015156116ad57fe5b600091825260208083209091015483528201929092526040908101822054815160e060020a63ffffffff87160281526004810194909452602484015251604480840193829003018183875af192505050151561170c5760009150611470565b60010161162a565b50600192915050565b600160a060020a038116151561173257600080fd5b61173c8282610a86565b1561174657600080fd5b600160a060020a0316600090815260209190915260409020805460ff19166001179055565b6060806000806000806003805490506040519080825280602002602001820160405280156117a3578160200160208202803883390190505b509450600093505b6003546000190184101561189e57600260006003868154811015156117cc57fe5b6000918252602080832090910154600160a060020a03168352820192909252604001902092506001840191505b600354821015611893576002600060038481548110151561181657fe5b6000918252602080832090910154600160a060020a031683528201929092526040019020905061184683826118dd565b1561188857848481518110151561185957fe5b60209081029091010180516001019052845185908390811061187757fe5b602090810290910101805160010190525b6001909101906117f9565b6001909301926117ab565b5092949350505050565b60008181526009602052604081205460ff16156118d457506000818152600860205260409020546106a8565b506007546106a8565b80548254600091829182911415611abf57600091505b8454821015611ab657836002016000866000018481548110151561191357fe5b6000918252602080832090910154835282019290925260400190205460ff1615611aa257836001016000866000018481548110151561194e57fe5b6000918252602080832090910154835282019290925260400181205486549091600188019188908690811061197f57fe5b600091825260208083209091015483528201929092526040019020541015611a0b5784600101600086600001848154811015156119b857fe5b600091825260208083209091015483528201929092526040018120548654909160018701918890869081106119e957fe5b6000918252602080832090910154835282019290925260400190205403611a71565b8360010160008660000184815481101515611a2257fe5b60009182526020808320909101548352820192909252604001812054865490916001880191889086908110611a5357fe5b60009182526020808320909101548352820192909252604001902054035b9050611a978560000183815481101515611a8757fe5b9060005260206000200154611acc565b8111611aa257611aab565b60009250611ac4565b6001909101906118f3565b60019250611ac4565b600092505b505092915050565b6000818152600d602052604081205460ff1615611af857506000818152600c60205260409020546106a8565b50600b546106a8565b828054828255906000526020600020908101928215611b3e579160200282015b82811115611b3e5782518255602090920191600190910190611b21565b50611b4a929150611b6e565b5090565b815481835581811115610fad57600083815260209020610fad9181019083015b6108e691905b80821115611b4a5760008155600101611b745600a165627a7a723058208fa2c7bb006ec10f41ecd00505a15d1a97f28327dc38a6809186cf9bdf3756110029",
  "source": "pragma solidity 0.4.24;\n\nimport \"./IRates.sol\";\nimport \"../access/roles/IAdminRole.sol\";\nimport \"../access/roles/AdminRole.sol\";\nimport \"../access/roles/ISuggestorRole.sol\";\nimport \"../access/roles/SuggestorRole.sol\";\n\n\ncontract RatesGuard is IAdminRole, ISuggestorRole, AdminRole, SuggestorRole {\n    enum FailCase { NO_BEST_SUGGESTION, TOO_BIG_DIFF_FROM_PREVIOUSLY_RATE, SYMBOLS_MISMATCH, CONFIRM_SUGGESTION_FAIL }\n\n    struct Suggestion {\n        bytes32[] symbols;\n        mapping(bytes32 => uint) rate;\n        mapping(bytes32 => bool) has;\n        uint timestamp;\n    }\n\n    mapping(address => Suggestion) private suggestions;\n    address[] private suggestors;\n\n    IRates public rates;\n    uint public validationTriggerCondition;\n    uint public minSuggestionMatch;\n    uint public diffPrevTolerant;\n    mapping(bytes32 => uint) public diffPrevTolerantForSymbol;\n    mapping(bytes32 => bool) public hasDiffPrevTolerantForSymbol;\n    uint public lockOnFailTimeout;\n    uint public diffTolerant;\n    mapping(bytes32 => uint) public diffTolerantForSymbol;\n    mapping(bytes32 => bool) public hasDiffTolerantForSymbol;\n    uint public expireTimeout;\n    uint public lockUntil;\n\n    event Fail(FailCase indexed failCase);\n\n    event SuggestionConfirmed(address indexed suggestor);\n\n    event SuggestionAccepted(address indexed suggestor);\n\n    event SettingUpdated(\n        address indexed updater,\n        address rates,\n        uint validationTriggerCondition,\n        uint minSuggestionMatch,\n        uint diffPrevTolerant,\n        uint lockOnFailTimeout,\n        uint diffTolerant,\n        uint expireTimeout\n    );\n\n    event DiffTolerantForSymbolsUpdated(address indexed updater, bytes32 symbol, uint value);\n\n    event DiffTolerantForSymbolsRemoved(address indexed remover, bytes32 symbol);\n\n    event DiffPrevTolerantForSymbolsUpdated(address indexed updater, bytes32 symbol, uint value);\n\n    event DiffPrevTolerantForSymbolsRemoved(address indexed remover, bytes32 symbol);\n\n    constructor(\n        IRates _rates,\n        uint _validationTriggerCondition,\n        uint _minSuggestionMatch,\n        uint _diffPrevTolerant,\n        uint _lockOnFailTimeout,\n        uint _diffTolerant,\n        uint _expireTimeout,\n        address[] _suggestors\n    ) public {\n        _setRates(_rates);\n        _setValidationTriggerCondition(_validationTriggerCondition);\n        _setMinSuggestionMatch(_minSuggestionMatch);\n        _setDiffPrevTolerant(_diffPrevTolerant);\n        _setLockOnFailTimeout(_lockOnFailTimeout);\n        _setDiffTolerant(_diffTolerant);\n        _setExpireTimeout(_expireTimeout);\n        _emitSettingsUpdateEvent();\n        renounceSuggestor();\n        bulkAddSuggestor(_suggestors);\n    }\n\n    function setRates(IRates _rates) public {\n        _setRates(_rates);\n        _emitSettingsUpdateEvent();\n    }\n\n    function setValidationTriggerCondition(uint value) public {\n        _setValidationTriggerCondition(value);\n        _emitSettingsUpdateEvent();\n    }\n\n    function setMinSuggestionMatch(uint value) public {\n        _setMinSuggestionMatch(value);\n        _emitSettingsUpdateEvent();\n    }\n\n    function setDiffPrevTolerant(uint value) public {\n        _setDiffPrevTolerant(value);\n        _emitSettingsUpdateEvent();\n    }\n\n    function setDiffPrevTolerantForSymbol(bytes32 symbol, uint value) public {\n        diffPrevTolerantForSymbol[symbol] = value;\n        hasDiffPrevTolerantForSymbol[symbol] = true;\n        emit DiffPrevTolerantForSymbolsUpdated(msg.sender, symbol, value);\n    }\n\n    function unsetDiffPrevTolerantForSymbol(bytes32 symbol) public {\n        diffPrevTolerantForSymbol[symbol] = 0;\n        hasDiffPrevTolerantForSymbol[symbol] = false;\n        emit DiffPrevTolerantForSymbolsRemoved(msg.sender, symbol);\n    }\n\n    function setLockOnFailTimeout(uint value) public {\n        _setLockOnFailTimeout(value);\n        _emitSettingsUpdateEvent();\n    }\n\n    function setDiffTolerant(uint value) public {\n        _setDiffTolerant(value);\n        _emitSettingsUpdateEvent();\n    }\n\n    function setDiffTolerantForSymbol(bytes32 symbol, uint value) public {\n        diffTolerantForSymbol[symbol] = value;\n        hasDiffTolerantForSymbol[symbol] = true;\n        emit DiffTolerantForSymbolsUpdated(msg.sender, symbol, value);\n    }\n\n    function unsetDiffTolerantForSymbol(bytes32 symbol) public {\n        diffTolerantForSymbol[symbol] = 0;\n        hasDiffTolerantForSymbol[symbol] = false;\n        emit DiffTolerantForSymbolsRemoved(msg.sender, symbol);\n    }\n\n    function setExpireTimeout(uint value) public {\n        _setExpireTimeout(value);\n        _emitSettingsUpdateEvent();\n    }\n\n    function addAdmin(address account) public onlyAdmin {\n        _addAdmin(account);\n    }\n\n    function removeAdmin(address account) public onlyAdmin {\n        _removeAdmin(account);\n    }\n\n    function addSuggestor(address account) public onlyAdmin {\n        _addSuggestor(account);\n    }\n\n    function bulkAddSuggestor(address[] _suggestors) public onlyAdmin {\n        for (uint i = 0; i < _suggestors.length; i++) {\n            addSuggestor(_suggestors[i]);\n        }\n    }\n\n    function removeSuggestor(address account) public onlyAdmin {\n        _removeSuggestor(account);\n    }\n\n    function suggest(bytes32[] symbols, uint[] rateValues) public onlySuggestor {\n        require(!isLocked());\n\n        _addSuggestion(msg.sender, symbols, rateValues);\n        _runPostProcessing();\n    }\n\n    function isLocked() public view returns (bool) {\n        return now < lockUntil;\n    }\n\n    function _setRates(IRates _rates) internal {\n        require(address(_rates) != address(0));\n        rates = _rates;\n    }\n\n    function _setValidationTriggerCondition(uint value) internal {\n        require(value > 1);\n        validationTriggerCondition = value;\n    }\n\n    function _setMinSuggestionMatch(uint value) internal {\n        require(value > 0);\n        minSuggestionMatch = value;\n    }\n\n    function _setDiffPrevTolerant(uint value) internal {\n        diffPrevTolerant = value;\n    }\n\n    function _setDiffTolerant(uint value) internal {\n        diffTolerant = value;\n    }\n\n    function _setLockOnFailTimeout(uint value) internal {\n        lockOnFailTimeout = value;\n    }\n\n    function _setExpireTimeout(uint value) internal {\n        expireTimeout = value;\n    }\n\n    function _emitSettingsUpdateEvent() internal {\n        emit SettingUpdated(\n            msg.sender,\n            address(rates),\n            validationTriggerCondition,\n            minSuggestionMatch,\n            diffPrevTolerant,\n            lockOnFailTimeout,\n            diffTolerant,\n            expireTimeout\n        );\n    }\n\n    function _addSuggestion(address suggestor, bytes32[] symbols, uint[] rateValues) internal {\n        require(symbols.length != 0);\n        require(symbols.length == rateValues.length);\n\n        uint i;\n\n        for (i = 0; i < suggestions[suggestor].symbols.length; i++) {\n            suggestions[suggestor].has[suggestions[suggestor].symbols[i]] = false;\n        }\n\n        suggestions[suggestor].symbols = symbols;\n        suggestions[suggestor].timestamp = now;\n\n        for (i = 0; i < symbols.length; i++) {\n            suggestions[suggestor].has[symbols[i]] = true;\n            suggestions[suggestor].rate[symbols[i]] = rateValues[i];\n        }\n\n        emit SuggestionAccepted(suggestor);\n\n        for (i = 0; i < suggestors.length; i++) {\n            if (suggestors[i] == suggestor) {\n                // push to the and of the list and save add/update order\n                if (i != suggestors.length + 1) {\n                    address tmp = suggestors[i];\n                    for (uint ii = i; ii < suggestors.length - 1; ii++) {\n                        suggestors[ii] = suggestors[ii + 1];\n                    }\n                    suggestors[suggestors.length - 1] = tmp;\n                }\n                return;\n            }\n        }\n\n        suggestors.push(suggestor);\n    }\n\n    function _clearSuggestions() internal {\n        suggestors.length = 0;\n    }\n\n    function _runPostProcessing() internal {\n        _removeExpired();\n\n        if (suggestors.length != validationTriggerCondition) {\n            return;\n        }\n\n        (Suggestion storage _suggestion, address suggestor, bool found) = _findBestSuggestion();\n\n        if (!found) {\n            _lock();\n            _clearSuggestions();\n            emit Fail(FailCase.NO_BEST_SUGGESTION);\n            return;\n        }\n\n        if (_isMismatchSymbols(_suggestion)) {\n            _lock();\n            _clearSuggestions();\n            emit Fail(FailCase.SYMBOLS_MISMATCH);\n            return;\n        }\n\n        if (_isTooBigFromPrev(_suggestion)) {\n            _lock();\n            _clearSuggestions();\n            emit Fail(FailCase.TOO_BIG_DIFF_FROM_PREVIOUSLY_RATE);\n            return;\n        }\n\n        if (!_confirmSuggestion(_suggestion)) {\n            _lock();\n            _clearSuggestions();\n            emit Fail(FailCase.CONFIRM_SUGGESTION_FAIL);\n            return;\n        }\n\n        _clearSuggestions();\n\n        emit SuggestionConfirmed(suggestor);\n    }\n\n    function _lock() internal {\n        lockUntil = now + lockOnFailTimeout;\n    }\n\n    function _confirmSuggestion(Suggestion storage _suggestion) internal returns(bool) {\n        for (uint i = 0; i < _suggestion.symbols.length; i++) {\n            // solhint-disable-next-line avoid-low-level-calls\n            if (!address(rates).call(\n                bytes4(keccak256(\"set(bytes32,uint256)\")),\n                _suggestion.symbols[i],\n                _suggestion.rate[_suggestion.symbols[i]])) {\n                return false;\n            }\n        }\n        return true;\n    }\n\n    function _isTooBigFromPrev(Suggestion storage _suggestion) internal view returns(bool) {\n        for (uint i = 0; i < _suggestion.symbols.length; i++) {\n            uint prev = rates.get(_suggestion.symbols[i]);\n            // skip if rate was not assigned yet\n            if (prev == 0) continue;\n            uint diff = prev >= _suggestion.rate[_suggestion.symbols[i]]\n                ? prev - _suggestion.rate[_suggestion.symbols[i]]\n                : _suggestion.rate[_suggestion.symbols[i]] - prev;\n            if (diff > _getDiffPrevTolerant(_suggestion.symbols[i])) {\n                return true;\n            }\n        }\n        return false;\n    }\n\n    function _isMismatchSymbols(Suggestion storage _suggestion)  internal view returns(bool) {\n        for (uint i = 0; i < _suggestion.symbols.length; i++) {\n            if (!rates.hasSymbol(_suggestion.symbols[i])) {\n                return true;\n            }\n        }\n        return false;\n    }\n\n    function _removeExpired() internal {\n        if (expireTimeout != 0) {\n            uint lncut = 0;\n            for (uint i  = 0; i < suggestors.length; i++) {\n                uint diff = now - suggestions[suggestors[i]].timestamp + 1;\n                if (expireTimeout >= diff) {\n                    if (i != suggestors.length - 1) {\n                        suggestors[i] = suggestors[suggestors.length - 1];\n                    }\n                    lncut++;\n                }\n            }\n            suggestors.length = suggestors.length - lncut;\n        }\n    }\n\n    function _getMatchingPointsTable() internal view returns (uint[]) {\n        uint[] memory table = new uint[](suggestors.length);\n\n        for (uint i = 0; i < suggestors.length - 1; i++) {\n            Suggestion storage current = suggestions[suggestors[i]];\n            for (uint ii = i + 1; ii < suggestors.length; ii++) {\n                Suggestion storage next = suggestions[suggestors[ii]];\n                if (_isMatch(current, next)) {\n                    table[i]++;\n                    table[ii]++;\n                }\n            }\n        }\n\n        return table;\n    }\n\n    // event TableDebug(uint[] table);\n    // solhint-disable code-complexity\n    function _findBestSuggestion() internal view returns(Suggestion storage result, address suggestor, bool found) {\n        uint[] memory table = _getMatchingPointsTable();\n        uint last;\n\n        // emit TableDebug(table);\n\n        for (uint i = 0; i < table.length; i++) {\n            if (table[i] >= minSuggestionMatch) {\n                if (found) {\n                    if (table[i] > table[last]) {\n                        last = i;\n                    } else if (table[i] == table[last]) {\n                        // take most recent by timestamp or by add/update order\n                        if (suggestions[suggestors[i]].timestamp >= suggestions[suggestors[last]].timestamp) {\n                            last = i;\n                        }\n                    }\n                    continue;\n                }\n                found = true;\n                last = i;\n            }\n        }\n\n        if (found) {\n            suggestor = suggestors[last];\n            result = suggestions[suggestor];\n        }\n    }\n    // solhint-enable code-complexity\n\n    function _isMatch(Suggestion storage a, Suggestion storage b) internal view returns(bool) {\n        if (a.symbols.length == b.symbols.length) {\n            for (uint i = 0; i < a.symbols.length; i++) {\n                if (b.has[a.symbols[i]]) {\n                    uint diff = a.rate[a.symbols[i]] >= b.rate[a.symbols[i]]\n                        ? a.rate[a.symbols[i]] - b.rate[a.symbols[i]]\n                        : b.rate[a.symbols[i]] - a.rate[a.symbols[i]];\n                    if (diff <= _getDiffTolerant(a.symbols[i])) {\n                        continue;\n                    }\n                }\n                return false;\n            }\n            return true;\n        }\n        return false;\n    }\n\n    function _getDiffTolerant(bytes32 symbol) internal view returns(uint) {\n        if (hasDiffTolerantForSymbol[symbol]) {\n            return diffTolerantForSymbol[symbol];\n        } else {\n            return diffTolerant;\n        }\n    }\n\n    function _getDiffPrevTolerant(bytes32 symbol) internal view returns (uint) {\n        if (hasDiffPrevTolerantForSymbol[symbol]) {\n            return diffPrevTolerantForSymbol[symbol];\n        } else {\n            return diffPrevTolerant;\n        }\n    }\n}\n",
  "sourcePath": "/home/andrey/Code/w12/platform-contracts/contracts/rates/RatesGuard.sol",
  "compiler": {
    "name": "solc",
    "version": "0.4.24+commit.e67f0147.Emscripten.clang"
  },
  "schemaVersion": "2.0.1",
  "updatedAt": "2019-03-06T08:53:21.061Z"
}