{
  "contractName": "Rates",
  "abi": [
    {
      "constant": true,
      "inputs": [
        {
          "name": "",
          "type": "uint256"
        }
      ],
      "name": "symbolsList",
      "outputs": [
        {
          "name": "",
          "type": "bytes32"
        }
      ],
      "payable": false,
      "stateMutability": "view",
      "type": "function"
    },
    {
      "constant": false,
      "inputs": [],
      "name": "renounceOwnership",
      "outputs": [],
      "payable": false,
      "stateMutability": "nonpayable",
      "type": "function"
    },
    {
      "constant": true,
      "inputs": [
        {
          "name": "symbol",
          "type": "bytes32"
        }
      ],
      "name": "hasSymbol",
      "outputs": [
        {
          "name": "",
          "type": "bool"
        }
      ],
      "payable": false,
      "stateMutability": "view",
      "type": "function"
    },
    {
      "constant": true,
      "inputs": [],
      "name": "owner",
      "outputs": [
        {
          "name": "",
          "type": "address"
        }
      ],
      "payable": false,
      "stateMutability": "view",
      "type": "function"
    },
    {
      "constant": true,
      "inputs": [],
      "name": "getSymbolsList",
      "outputs": [
        {
          "name": "",
          "type": "bytes32[]"
        }
      ],
      "payable": false,
      "stateMutability": "view",
      "type": "function"
    },
    {
      "constant": true,
      "inputs": [
        {
          "name": "account",
          "type": "address"
        }
      ],
      "name": "isPricer",
      "outputs": [
        {
          "name": "",
          "type": "bool"
        }
      ],
      "payable": false,
      "stateMutability": "view",
      "type": "function"
    },
    {
      "constant": false,
      "inputs": [
        {
          "name": "_newOwner",
          "type": "address"
        }
      ],
      "name": "transferOwnership",
      "outputs": [],
      "payable": false,
      "stateMutability": "nonpayable",
      "type": "function"
    },
    {
      "anonymous": false,
      "inputs": [
        {
          "indexed": true,
          "name": "previousOwner",
          "type": "address"
        }
      ],
      "name": "OwnershipRenounced",
      "type": "event"
    },
    {
      "anonymous": false,
      "inputs": [
        {
          "indexed": true,
          "name": "previousOwner",
          "type": "address"
        },
        {
          "indexed": true,
          "name": "newOwner",
          "type": "address"
        }
      ],
      "name": "OwnershipTransferred",
      "type": "event"
    },
    {
      "anonymous": false,
      "inputs": [
        {
          "indexed": true,
          "name": "account",
          "type": "address"
        }
      ],
      "name": "PricerAdded",
      "type": "event"
    },
    {
      "anonymous": false,
      "inputs": [
        {
          "indexed": true,
          "name": "account",
          "type": "address"
        }
      ],
      "name": "PricerRemoved",
      "type": "event"
    },
    {
      "constant": false,
      "inputs": [
        {
          "name": "symbol",
          "type": "bytes32"
        },
        {
          "name": "_address",
          "type": "address"
        }
      ],
      "name": "addSymbolWithTokenAddress",
      "outputs": [],
      "payable": false,
      "stateMutability": "nonpayable",
      "type": "function"
    },
    {
      "constant": false,
      "inputs": [
        {
          "name": "symbol",
          "type": "bytes32"
        }
      ],
      "name": "addSymbol",
      "outputs": [],
      "payable": false,
      "stateMutability": "nonpayable",
      "type": "function"
    },
    {
      "constant": false,
      "inputs": [
        {
          "name": "symbol",
          "type": "bytes32"
        }
      ],
      "name": "removeSymbol",
      "outputs": [],
      "payable": false,
      "stateMutability": "nonpayable",
      "type": "function"
    },
    {
      "constant": false,
      "inputs": [
        {
          "name": "symbol",
          "type": "bytes32"
        },
        {
          "name": "_address",
          "type": "address"
        }
      ],
      "name": "setTokenAddress",
      "outputs": [],
      "payable": false,
      "stateMutability": "nonpayable",
      "type": "function"
    },
    {
      "constant": true,
      "inputs": [
        {
          "name": "symbol",
          "type": "bytes32"
        }
      ],
      "name": "getTokenAddress",
      "outputs": [
        {
          "name": "",
          "type": "address"
        }
      ],
      "payable": false,
      "stateMutability": "view",
      "type": "function"
    },
    {
      "constant": true,
      "inputs": [
        {
          "name": "symbol",
          "type": "bytes32"
        }
      ],
      "name": "isToken",
      "outputs": [
        {
          "name": "",
          "type": "bool"
        }
      ],
      "payable": false,
      "stateMutability": "view",
      "type": "function"
    },
    {
      "constant": false,
      "inputs": [
        {
          "name": "account",
          "type": "address"
        }
      ],
      "name": "addPricer",
      "outputs": [],
      "payable": false,
      "stateMutability": "nonpayable",
      "type": "function"
    },
    {
      "constant": false,
      "inputs": [
        {
          "name": "account",
          "type": "address"
        }
      ],
      "name": "removePricer",
      "outputs": [],
      "payable": false,
      "stateMutability": "nonpayable",
      "type": "function"
    },
    {
      "constant": true,
      "inputs": [
        {
          "name": "symbol",
          "type": "bytes32"
        }
      ],
      "name": "get",
      "outputs": [
        {
          "name": "",
          "type": "uint256"
        }
      ],
      "payable": false,
      "stateMutability": "view",
      "type": "function"
    },
    {
      "constant": false,
      "inputs": [
        {
          "name": "symbol",
          "type": "bytes32"
        },
        {
          "name": "rate",
          "type": "uint256"
        }
      ],
      "name": "set",
      "outputs": [],
      "payable": false,
      "stateMutability": "nonpayable",
      "type": "function"
    }
  ],
  "bytecode": "0x60806040526100163364010000000061002d810204565b60068054600160a060020a031916331790556100b6565b600160a060020a038116151561004257600080fd5b61005a60058264010000000061094c61009182021704565b604051600160a060020a038216907f02edb648fd57120edd0afed403c9fbc3205997fd07c01b3db9e1ed05647e9ebe90600090a250565b600160a060020a0316600090815260209190915260409020805460ff19166001179055565b610a06806100c56000396000f3006080604052600436106100f05763ffffffff7c01000000000000000000000000000000000000000000000000000000006000350416631b71a9db81146100f5578063273f49401461010f578063289e029b1461012a578063451a5e651461014257806350b49f2d146101635780636b8431d41461018d578063715018a6146101b157806379d44573146101c65780637d20abf8146101e75780638da5cb5b146102135780638eaa6ac014610244578063b12e44101461025c578063cfec719f14610274578063e5da831f1461028c578063e9217944146102f1578063e97aed3c14610312578063f2fde38b14610336575b600080fd5b34801561010157600080fd5b5061010d600435610357565b005b34801561011b57600080fd5b5061010d600435602435610390565b34801561013657600080fd5b5061010d6004356103ca565b34801561014e57600080fd5b5061010d600160a060020a03600435166103ea565b34801561016f57600080fd5b5061017b60043561040a565b60408051918252519081900360200190f35b34801561019957600080fd5b5061010d600435600160a060020a0360243516610429565b3480156101bd57600080fd5b5061010d610463565b3480156101d257600080fd5b5061010d600160a060020a03600435166104d1565b3480156101f357600080fd5b506101ff6004356104f1565b604080519115158252519081900360200190f35b34801561021f57600080fd5b50610228610506565b60408051600160a060020a039092168252519081900360200190f35b34801561025057600080fd5b5061017b600435610515565b34801561026857600080fd5b5061022860043561053e565b34801561028057600080fd5b506101ff600435610570565b34801561029857600080fd5b506102a16105a4565b60408051602080825283518183015283519192839290830191858101910280838360005b838110156102dd5781810151838201526020016102c5565b505050509050019250505060405180910390f35b3480156102fd57600080fd5b506101ff600160a060020a03600435166105fe565b34801561031e57600080fd5b5061010d600435600160a060020a0360243516610617565b34801561034257600080fd5b5061010d600160a060020a036004351661067a565b610360336105fe565b151561036b57600080fd5b610376816000610617565b61037f8161069a565b600090815260076020526040812055565b610399336105fe565b15156103a457600080fd5b6103ad826104f1565b15156103b857600080fd5b60009182526007602052604090912055565b6103d3336105fe565b15156103de57600080fd5b6103e7816106f2565b50565b600654600160a060020a0316331461040157600080fd5b6103e781610768565b600280548290811061041857fe5b600091825260209091200154905081565b610432336105fe565b151561043d57600080fd5b610446826106f2565b600160a060020a0381161561045f5761045f8282610617565b5050565b600654600160a060020a0316331461047a57600080fd5b600654604051600160a060020a03909116907ff8df31144d9c2f0f6b59d69b8b98abd5459d07f2742c4df920b25aae33c6482090600090a26006805473ffffffffffffffffffffffffffffffffffffffff19169055565b600654600160a060020a031633146104e857600080fd5b6103e781610785565b60009081526004602052604090205460ff1690565b600654600160a060020a031681565b6000610520826104f1565b151561052b57600080fd5b5060009081526007602052604090205490565b600061054982610570565b151561055457600080fd5b50600090815260086020526040902054600160a060020a031690565b600061057b826104f1565b151561058657600080fd5b50600090815260086020526040902054600160a060020a0316151590565b606060028054806020026020016040519081016040528092919081815260200182805480156105f357602002820191906000526020600020905b815481526001909101906020018083116105de575b505050505090505b90565b600061061160058363ffffffff61078e16565b92915050565b610620336105fe565b151561062b57600080fd5b610634826104f1565b151561063f57600080fd5b600091825260086020526040909120805473ffffffffffffffffffffffffffffffffffffffff1916600160a060020a03909216919091179055565b600654600160a060020a0316331461069157600080fd5b6103e7816107ad565b60008181526004602052604090205460ff1615156106b757600080fd5b6000818152600460209081526040808320805460ff1916905560039091529020546106e19061082b565b600090815260036020526040812055565b60008181526004602052604090205460ff161561070e57600080fd5b6000818152600460209081526040808320805460ff19166001908117909155600280546003909452918420839055820181559091527f405787fa12a823e0f2b7631cc41b3ba8828b3321ca811111fa75cd3aa3bb5ace0155565b610771336105fe565b151561077c57600080fd5b6103e781610892565b6103e7816108ef565b600160a060020a03166000908152602091909152604090205460ff1690565b600160a060020a03811615156107c257600080fd5b600654604051600160a060020a038084169216907f8be0079c531659141344cd1fd0a4f28419497f9722a3daafe3b4186f6b6457e090600090a36006805473ffffffffffffffffffffffffffffffffffffffff1916600160a060020a0392909216919091179055565b600254811061083957600080fd5b60025460001901811461087f5760028054600019810190811061085857fe5b906000526020600020015460028281548110151561087257fe5b6000918252602090912001555b600280549061045f906000198301610993565b600160a060020a03811615156108a757600080fd5b6108b860058263ffffffff61094c16565b604051600160a060020a038216907f02edb648fd57120edd0afed403c9fbc3205997fd07c01b3db9e1ed05647e9ebe90600090a250565b600160a060020a038116151561090457600080fd5b61091560058263ffffffff61097116565b604051600160a060020a038216907fdbde5a1472d701cfaea5fcee6419072f226c14cc6c5478fbe8552044053a316a90600090a250565b600160a060020a0316600090815260209190915260409020805460ff19166001179055565b600160a060020a0316600090815260209190915260409020805460ff19169055565b8154818355818111156109b7576000838152602090206109b79181019083016109bc565b505050565b6105fb91905b808211156109d657600081556001016109c2565b50905600a165627a7a723058203efa246b7f68b222021768b77644e5ae080a2f7f09cd77be35eb3e52689a18b80029",
  "source": "pragma solidity ^0.4.24;\n\nimport \"openzeppelin-solidity/contracts/ownership/Ownable.sol\";\nimport \"./IRates.sol\";\nimport \"./roles/Pricer.sol\";\nimport \"./Symbols.sol\";\n\ncontract Rates is IRates, Symbols, PricerRole, Ownable {\n    mapping (bytes32 => uint) rates;\n    mapping (bytes32 => address) tokenAddress;\n\n    function addSymbolWithTokenAddress(bytes32 symbol, address _address) public onlyPricer {\n        Symbols.addSymbol(symbol);\n\n        if (_address != address(0)) setTokenAddress(symbol, _address);\n    }\n\n    function addSymbol(bytes32 symbol) public onlyPricer {\n        Symbols.addSymbol(symbol);\n    }\n\n    function removeSymbol(bytes32 symbol) public onlyPricer {\n        setTokenAddress(symbol, address(0));\n        Symbols.removeSymbol(symbol);\n        rates[symbol] = 0;\n    }\n\n    function setTokenAddress(bytes32 symbol, address _address) public onlyPricer {\n        require(hasSymbol(symbol));\n\n        tokenAddress[symbol] = _address;\n    }\n\n    function getTokenAddress(bytes32 symbol) public view returns(address) {\n        require(isToken(symbol));\n\n        return tokenAddress[symbol];\n    }\n\n    function isToken(bytes32 symbol) public view returns (bool) {\n        require(hasSymbol(symbol));\n\n        return tokenAddress[symbol] != address(0);\n    }\n\n    function addPricer(address account) public onlyOwner {\n        PricerRole.addPricer(account);\n    }\n\n    function removePricer(address account) public onlyOwner {\n        PricerRole.removePricer(account);\n    }\n\n    function get(bytes32 symbol) public view returns(uint) {\n        require(hasSymbol(symbol));\n\n        return rates[symbol];\n    }\n\n    function set(bytes32 symbol, uint rate) public onlyPricer {\n        require(hasSymbol(symbol));\n\n        rates[symbol] = rate;\n    }\n}\n",
  "sourcePath": "/home/circleci/code/contracts/rates/Rates.sol",
  "compiler": {
    "name": "solc",
    "version": "0.4.24+commit.e67f0147.Emscripten.clang"
  },
  "schemaVersion": "2.0.1",
  "updatedAt": "2018-10-27T04:55:06.474Z"
}