{
  "contractName": "Rates",
  "abi": [
    {
      "constant": false,
      "inputs": [
        {
          "name": "recipient",
          "type": "address"
        }
      ],
      "name": "transferPrimary",
      "outputs": [],
      "payable": false,
      "stateMutability": "nonpayable",
      "type": "function"
    },
    {
      "constant": true,
      "inputs": [
        {
          "name": "",
          "type": "uint256"
        }
      ],
      "name": "symbolsList",
      "outputs": [
        {
          "name": "",
          "type": "bytes32"
        }
      ],
      "payable": false,
      "stateMutability": "view",
      "type": "function"
    },
    {
      "constant": true,
      "inputs": [
        {
          "name": "symbol",
          "type": "bytes32"
        }
      ],
      "name": "hasSymbol",
      "outputs": [
        {
          "name": "",
          "type": "bool"
        }
      ],
      "payable": false,
      "stateMutability": "view",
      "type": "function"
    },
    {
      "constant": false,
      "inputs": [],
      "name": "renouncePricer",
      "outputs": [],
      "payable": false,
      "stateMutability": "nonpayable",
      "type": "function"
    },
    {
      "constant": true,
      "inputs": [],
      "name": "primary",
      "outputs": [
        {
          "name": "",
          "type": "address"
        }
      ],
      "payable": false,
      "stateMutability": "view",
      "type": "function"
    },
    {
      "constant": true,
      "inputs": [],
      "name": "getSymbolsList",
      "outputs": [
        {
          "name": "",
          "type": "bytes32[]"
        }
      ],
      "payable": false,
      "stateMutability": "view",
      "type": "function"
    },
    {
      "constant": true,
      "inputs": [
        {
          "name": "account",
          "type": "address"
        }
      ],
      "name": "isPricer",
      "outputs": [
        {
          "name": "",
          "type": "bool"
        }
      ],
      "payable": false,
      "stateMutability": "view",
      "type": "function"
    },
    {
      "anonymous": false,
      "inputs": [
        {
          "indexed": false,
          "name": "recipient",
          "type": "address"
        }
      ],
      "name": "PrimaryTransferred",
      "type": "event"
    },
    {
      "anonymous": false,
      "inputs": [
        {
          "indexed": true,
          "name": "account",
          "type": "address"
        }
      ],
      "name": "PricerAdded",
      "type": "event"
    },
    {
      "anonymous": false,
      "inputs": [
        {
          "indexed": true,
          "name": "account",
          "type": "address"
        }
      ],
      "name": "PricerRemoved",
      "type": "event"
    },
    {
      "constant": false,
      "inputs": [
        {
          "name": "symbol",
          "type": "bytes32"
        },
        {
          "name": "_address",
          "type": "address"
        }
      ],
      "name": "addSymbolWithTokenAddress",
      "outputs": [],
      "payable": false,
      "stateMutability": "nonpayable",
      "type": "function"
    },
    {
      "constant": false,
      "inputs": [
        {
          "name": "symbol",
          "type": "bytes32"
        }
      ],
      "name": "addSymbol",
      "outputs": [],
      "payable": false,
      "stateMutability": "nonpayable",
      "type": "function"
    },
    {
      "constant": false,
      "inputs": [
        {
          "name": "symbol",
          "type": "bytes32"
        }
      ],
      "name": "removeSymbol",
      "outputs": [],
      "payable": false,
      "stateMutability": "nonpayable",
      "type": "function"
    },
    {
      "constant": false,
      "inputs": [
        {
          "name": "symbol",
          "type": "bytes32"
        },
        {
          "name": "_address",
          "type": "address"
        }
      ],
      "name": "setTokenAddress",
      "outputs": [],
      "payable": false,
      "stateMutability": "nonpayable",
      "type": "function"
    },
    {
      "constant": true,
      "inputs": [
        {
          "name": "symbol",
          "type": "bytes32"
        }
      ],
      "name": "getTokenAddress",
      "outputs": [
        {
          "name": "",
          "type": "address"
        }
      ],
      "payable": false,
      "stateMutability": "view",
      "type": "function"
    },
    {
      "constant": true,
      "inputs": [
        {
          "name": "symbol",
          "type": "bytes32"
        }
      ],
      "name": "isToken",
      "outputs": [
        {
          "name": "",
          "type": "bool"
        }
      ],
      "payable": false,
      "stateMutability": "view",
      "type": "function"
    },
    {
      "constant": false,
      "inputs": [
        {
          "name": "account",
          "type": "address"
        }
      ],
      "name": "addPricer",
      "outputs": [],
      "payable": false,
      "stateMutability": "nonpayable",
      "type": "function"
    },
    {
      "constant": false,
      "inputs": [
        {
          "name": "account",
          "type": "address"
        }
      ],
      "name": "removePricer",
      "outputs": [],
      "payable": false,
      "stateMutability": "nonpayable",
      "type": "function"
    },
    {
      "constant": true,
      "inputs": [
        {
          "name": "symbol",
          "type": "bytes32"
        }
      ],
      "name": "get",
      "outputs": [
        {
          "name": "",
          "type": "uint256"
        }
      ],
      "payable": false,
      "stateMutability": "view",
      "type": "function"
    },
    {
      "constant": false,
      "inputs": [
        {
          "name": "symbol",
          "type": "bytes32"
        },
        {
          "name": "rate",
          "type": "uint256"
        }
      ],
      "name": "set",
      "outputs": [],
      "payable": false,
      "stateMutability": "nonpayable",
      "type": "function"
    }
  ],
  "bytecode": "0x60806040526100163364010000000061006c810204565b60058054600160a060020a03191633179081905560408051600160a060020a03929092168252517f4101e71e974f68df5e9730cc223280b41654676bbb052cdcc735c3337e64d2d99181900360200190a161015e565b600160a060020a038116151561008157600080fd5b6100996004826401000000006108e76100d082021704565b604051600160a060020a038216907f02edb648fd57120edd0afed403c9fbc3205997fd07c01b3db9e1ed05647e9ebe90600090a250565b600160a060020a03811615156100e557600080fd5b6100f88282640100000000610127810204565b1561010257600080fd5b600160a060020a0316600090815260209190915260409020805460ff19166001179055565b6000600160a060020a038216151561013e57600080fd5b50600160a060020a03166000908152602091909152604090205460ff1690565b6109ea8061016d6000396000f3006080604052600436106100f05763ffffffff7c01000000000000000000000000000000000000000000000000000000006000350416631b71a9db81146100f55780632348238c1461010f578063273f494014610130578063289e029b1461014b578063451a5e651461016357806350b49f2d146101845780636b8431d4146101ae57806379d44573146101d25780637d20abf8146101f35780638eaa6ac01461021f57806396fd23a514610237578063b12e44101461024c578063c6dbdf6114610280578063cfec719f14610295578063e5da831f146102ad578063e921794414610312578063e97aed3c14610333575b600080fd5b34801561010157600080fd5b5061010d600435610357565b005b34801561011b57600080fd5b5061010d600160a060020a0360043516610390565b34801561013c57600080fd5b5061010d600435602435610423565b34801561015757600080fd5b5061010d60043561045d565b34801561016f57600080fd5b5061010d600160a060020a036004351661047d565b34801561019057600080fd5b5061019c60043561049d565b60408051918252519081900360200190f35b3480156101ba57600080fd5b5061010d600435600160a060020a03602435166104bc565b3480156101de57600080fd5b5061010d600160a060020a03600435166104f6565b3480156101ff57600080fd5b5061020b600435610516565b604080519115158252519081900360200190f35b34801561022b57600080fd5b5061019c60043561052b565b34801561024357600080fd5b5061010d610554565b34801561025857600080fd5b5061026460043561055f565b60408051600160a060020a039092168252519081900360200190f35b34801561028c57600080fd5b50610264610591565b3480156102a157600080fd5b5061020b6004356105a1565b3480156102b957600080fd5b506102c26105d5565b60408051602080825283518183015283519192839290830191858101910280838360005b838110156102fe5781810151838201526020016102e6565b505050509050019250505060405180910390f35b34801561031e57600080fd5b5061020b600160a060020a036004351661062e565b34801561033f57600080fd5b5061010d600435600160a060020a0360243516610647565b6103603361062e565b151561036b57600080fd5b610376816000610647565b61037f816106aa565b600090815260066020526040812055565b600554600160a060020a031633146103a757600080fd5b600160a060020a03811615156103bc57600080fd5b6005805473ffffffffffffffffffffffffffffffffffffffff1916600160a060020a03838116919091179182905560408051929091168252517f4101e71e974f68df5e9730cc223280b41654676bbb052cdcc735c3337e64d2d9916020908290030190a150565b61042c3361062e565b151561043757600080fd5b61044082610516565b151561044b57600080fd5b60009182526006602052604090912055565b6104663361062e565b151561047157600080fd5b61047a81610781565b50565b600554600160a060020a0316331461049457600080fd5b61047a816107f6565b60018054829081106104ab57fe5b600091825260209091200154905081565b6104c53361062e565b15156104d057600080fd5b6104d982610781565b600160a060020a038116156104f2576104f28282610647565b5050565b600554600160a060020a0316331461050d57600080fd5b61047a81610853565b60009081526003602052604090205460ff1690565b600061053682610516565b151561054157600080fd5b5060009081526006602052604090205490565b61055d33610853565b565b600061056a826105a1565b151561057557600080fd5b50600090815260076020526040902054600160a060020a031690565b600554600160a060020a03165b90565b60006105ac82610516565b15156105b757600080fd5b50600090815260076020526040902054600160a060020a0316151590565b6060600180548060200260200160405190810160405280929190818152602001828054801561062457602002820191906000526020600020905b8154815260019091019060200180831161060f575b5050505050905090565b600061064160048363ffffffff6108b016565b92915050565b6106503361062e565b151561065b57600080fd5b61066482610516565b151561066f57600080fd5b600091825260076020526040909120805473ffffffffffffffffffffffffffffffffffffffff1916600160a060020a03909216919091179055565b60008181526003602052604081205460ff1615156106c757600080fd5b506000818152600360209081526040808320805460ff191690556002909152812080549190556001546000190181146107695760018054600019810190811061070c57fe5b906000526020600020015460018281548110151561072657fe5b906000526020600020018160001916905550806002600060018481548110151561074c57fe5b600091825260208083209091015483528201929092526040019020555b600180549061077c906000198301610981565b505050565b60008181526003602052604090205460ff161561079d57600080fd5b6000818152600360209081526040808320805460ff191660019081179091558054600290935290832082905581810181559091527fb10e2d527612073b26eecdfd717e6a320cf44b4afac2b0732d9fcbe2b7fa0cf60155565b600160a060020a038116151561080b57600080fd5b61081c60048263ffffffff6108e716565b604051600160a060020a038216907f02edb648fd57120edd0afed403c9fbc3205997fd07c01b3db9e1ed05647e9ebe90600090a250565b600160a060020a038116151561086857600080fd5b61087960048263ffffffff61093516565b604051600160a060020a038216907fdbde5a1472d701cfaea5fcee6419072f226c14cc6c5478fbe8552044053a316a90600090a250565b6000600160a060020a03821615156108c757600080fd5b50600160a060020a03166000908152602091909152604090205460ff1690565b600160a060020a03811615156108fc57600080fd5b61090682826108b0565b1561091057600080fd5b600160a060020a0316600090815260209190915260409020805460ff19166001179055565b600160a060020a038116151561094a57600080fd5b61095482826108b0565b151561095f57600080fd5b600160a060020a0316600090815260209190915260409020805460ff19169055565b81548183558181111561077c5760008381526020902061077c91810190830161059e91905b808211156109ba57600081556001016109a6565b50905600a165627a7a723058205d6147f22a26fb6cc4f5b366828e1875001b8ad672257eb6bb1c264b8282bc350029",
  "source": "pragma solidity ^0.4.24;\n\nimport \"openzeppelin-solidity/contracts/ownership/Secondary.sol\";\nimport \"./IRates.sol\";\nimport \"../access/roles/IPricerRole.sol\";\nimport \"../access/roles/PricerRole.sol\";\nimport \"./Symbols.sol\";\n\ncontract Rates is IRates, Symbols, PricerRole, Secondary {\n    mapping (bytes32 => uint) rates;\n    mapping (bytes32 => address) tokenAddress;\n\n    function addSymbolWithTokenAddress(bytes32 symbol, address _address) public onlyPricer {\n        Symbols.addSymbol(symbol);\n\n        if (_address != address(0)) setTokenAddress(symbol, _address);\n    }\n\n    function addSymbol(bytes32 symbol) public onlyPricer {\n        Symbols.addSymbol(symbol);\n    }\n\n    function removeSymbol(bytes32 symbol) public onlyPricer {\n        setTokenAddress(symbol, address(0));\n        Symbols.removeSymbol(symbol);\n        rates[symbol] = 0;\n    }\n\n    function setTokenAddress(bytes32 symbol, address _address) public onlyPricer {\n        require(hasSymbol(symbol));\n\n        tokenAddress[symbol] = _address;\n    }\n\n    function getTokenAddress(bytes32 symbol) public view returns(address) {\n        require(isToken(symbol));\n\n        return tokenAddress[symbol];\n    }\n\n    function isToken(bytes32 symbol) public view returns (bool) {\n        require(hasSymbol(symbol));\n\n        return tokenAddress[symbol] != address(0);\n    }\n\n    function addPricer(address account) public onlyPrimary {\n        _addPricer(account);\n    }\n\n    function removePricer(address account) public onlyPrimary {\n        _removePricer(account);\n    }\n\n    function get(bytes32 symbol) public view returns(uint) {\n        require(hasSymbol(symbol));\n\n        return rates[symbol];\n    }\n\n    function set(bytes32 symbol, uint rate) public onlyPricer {\n        require(hasSymbol(symbol));\n\n        rates[symbol] = rate;\n    }\n}\n",
  "sourcePath": "/home/circleci/code/contracts/rates/Rates.sol",
  "compiler": {
    "name": "solc",
    "version": "0.4.24+commit.e67f0147.Emscripten.clang"
  },
  "schemaVersion": "2.0.1",
  "updatedAt": "2018-12-06T13:19:18.245Z"
}