{
  "contractName": "RatesGuard__RatesMock",
  "abi": [
    {
      "constant": true,
      "inputs": [
        {
          "name": "",
          "type": "uint256"
        }
      ],
      "name": "symbolsList",
      "outputs": [
        {
          "name": "",
          "type": "bytes32"
        }
      ],
      "payable": false,
      "stateMutability": "view",
      "type": "function"
    },
    {
      "constant": false,
      "inputs": [
        {
          "name": "symbol",
          "type": "bytes32"
        },
        {
          "name": "_address",
          "type": "address"
        }
      ],
      "name": "addSymbolWithTokenAddress",
      "outputs": [],
      "payable": false,
      "stateMutability": "nonpayable",
      "type": "function"
    },
    {
      "constant": false,
      "inputs": [
        {
          "name": "symbol",
          "type": "bytes32"
        },
        {
          "name": "_address",
          "type": "address"
        }
      ],
      "name": "setTokenAddress",
      "outputs": [],
      "payable": false,
      "stateMutability": "nonpayable",
      "type": "function"
    },
    {
      "constant": true,
      "inputs": [
        {
          "name": "symbol",
          "type": "bytes32"
        }
      ],
      "name": "getTokenAddress",
      "outputs": [
        {
          "name": "",
          "type": "address"
        }
      ],
      "payable": false,
      "stateMutability": "view",
      "type": "function"
    },
    {
      "constant": true,
      "inputs": [
        {
          "name": "symbol",
          "type": "bytes32"
        }
      ],
      "name": "isToken",
      "outputs": [
        {
          "name": "",
          "type": "bool"
        }
      ],
      "payable": false,
      "stateMutability": "view",
      "type": "function"
    },
    {
      "constant": false,
      "inputs": [
        {
          "name": "symbol",
          "type": "bytes32"
        },
        {
          "name": "rate",
          "type": "uint256"
        }
      ],
      "name": "_get",
      "outputs": [],
      "payable": false,
      "stateMutability": "nonpayable",
      "type": "function"
    },
    {
      "constant": true,
      "inputs": [
        {
          "name": "symbol",
          "type": "bytes32"
        }
      ],
      "name": "get",
      "outputs": [
        {
          "name": "",
          "type": "uint256"
        }
      ],
      "payable": false,
      "stateMutability": "view",
      "type": "function"
    },
    {
      "constant": true,
      "inputs": [],
      "name": "_setCallResult",
      "outputs": [
        {
          "name": "",
          "type": "bytes32[]"
        },
        {
          "name": "",
          "type": "uint256[]"
        }
      ],
      "payable": false,
      "stateMutability": "view",
      "type": "function"
    },
    {
      "constant": false,
      "inputs": [
        {
          "name": "flag",
          "type": "bool"
        }
      ],
      "name": "_setRevertEnabled",
      "outputs": [],
      "payable": false,
      "stateMutability": "nonpayable",
      "type": "function"
    },
    {
      "constant": false,
      "inputs": [
        {
          "name": "symbol",
          "type": "bytes32"
        },
        {
          "name": "rate",
          "type": "uint256"
        }
      ],
      "name": "set",
      "outputs": [],
      "payable": false,
      "stateMutability": "nonpayable",
      "type": "function"
    },
    {
      "constant": false,
      "inputs": [
        {
          "name": "symbol",
          "type": "bytes32"
        }
      ],
      "name": "addSymbol",
      "outputs": [],
      "payable": false,
      "stateMutability": "nonpayable",
      "type": "function"
    },
    {
      "constant": false,
      "inputs": [
        {
          "name": "symbol",
          "type": "bytes32"
        }
      ],
      "name": "removeSymbol",
      "outputs": [],
      "payable": false,
      "stateMutability": "nonpayable",
      "type": "function"
    },
    {
      "constant": false,
      "inputs": [
        {
          "name": "symbol",
          "type": "bytes32"
        },
        {
          "name": "flag",
          "type": "bool"
        }
      ],
      "name": "_hasSymbol",
      "outputs": [],
      "payable": false,
      "stateMutability": "nonpayable",
      "type": "function"
    },
    {
      "constant": true,
      "inputs": [
        {
          "name": "symbol",
          "type": "bytes32"
        }
      ],
      "name": "hasSymbol",
      "outputs": [
        {
          "name": "",
          "type": "bool"
        }
      ],
      "payable": false,
      "stateMutability": "view",
      "type": "function"
    },
    {
      "constant": true,
      "inputs": [],
      "name": "getSymbolsList",
      "outputs": [
        {
          "name": "",
          "type": "bytes32[]"
        }
      ],
      "payable": false,
      "stateMutability": "view",
      "type": "function"
    },
    {
      "constant": true,
      "inputs": [
        {
          "name": "account",
          "type": "address"
        }
      ],
      "name": "isPricer",
      "outputs": [
        {
          "name": "",
          "type": "bool"
        }
      ],
      "payable": false,
      "stateMutability": "view",
      "type": "function"
    },
    {
      "constant": false,
      "inputs": [
        {
          "name": "account",
          "type": "address"
        }
      ],
      "name": "addPricer",
      "outputs": [],
      "payable": false,
      "stateMutability": "nonpayable",
      "type": "function"
    },
    {
      "constant": false,
      "inputs": [
        {
          "name": "account",
          "type": "address"
        }
      ],
      "name": "removePricer",
      "outputs": [],
      "payable": false,
      "stateMutability": "nonpayable",
      "type": "function"
    },
    {
      "constant": false,
      "inputs": [],
      "name": "renouncePricer",
      "outputs": [],
      "payable": false,
      "stateMutability": "nonpayable",
      "type": "function"
    }
  ],
  "bytecode": "0x608060405234801561001057600080fd5b50610990806100206000396000f300608060405260043610610107576000357c0100000000000000000000000000000000000000000000000000000000900463ffffffff1680631b71a9db1461010c578063273f49401461013d578063289e029b146101785780633ada83d0146101a9578063451a5e651461025d57806350b49f2d146102a05780636b8431d4146102e957806379d445731461033a5780637d20abf81461037d5780638eaa6ac0146103c657806396fd23a51461040b5780639ce2a47914610422578063b12e44101461045d578063b2ac0da7146104ce578063c5378b4f1461050b578063cfec719f1461053a578063e5da831f14610583578063e9217944146105ef578063e97aed3c1461064a575b600080fd5b34801561011857600080fd5b5061013b600480360381019080803560001916906020019092919050505061069b565b005b34801561014957600080fd5b5061017660048036038101908080356000191690602001909291908035906020019092919050505061069e565b005b34801561018457600080fd5b506101a7600480360381019080803560001916906020019092919050505061071f565b005b3480156101b557600080fd5b506101be610722565b604051808060200180602001838103835285818151815260200191508051906020019060200280838360005b838110156102055780820151818401526020810190506101ea565b50505050905001838103825284818151815260200191508051906020019060200280838360005b8381101561024757808201518184015260208101905061022c565b5050505090500194505050505060405180910390f35b34801561026957600080fd5b5061029e600480360381019080803573ffffffffffffffffffffffffffffffffffffffff169060200190929190505050610848565b005b3480156102ac57600080fd5b506102cb6004803603810190808035906020019092919050505061084b565b60405180826000191660001916815260200191505060405180910390f35b3480156102f557600080fd5b506103386004803603810190808035600019169060200190929190803573ffffffffffffffffffffffffffffffffffffffff16906020019092919050505061086e565b005b34801561034657600080fd5b5061037b600480360381019080803573ffffffffffffffffffffffffffffffffffffffff169060200190929190505050610872565b005b34801561038957600080fd5b506103ac6004803603810190808035600019169060200190929190505050610875565b604051808215151515815260200191505060405180910390f35b3480156103d257600080fd5b506103f560048036038101908080356000191690602001909291905050506108a7565b6040518082815260200191505060405180910390f35b34801561041757600080fd5b506104206108cc565b005b34801561042e57600080fd5b5061045b6004803603810190808035600019169060200190929190803590602001909291905050506108ce565b005b34801561046957600080fd5b5061048c60048036038101908080356000191690602001909291905050506108f2565b604051808273ffffffffffffffffffffffffffffffffffffffff1673ffffffffffffffffffffffffffffffffffffffff16815260200191505060405180910390f35b3480156104da57600080fd5b5061050960048036038101908080356000191690602001909291908035151590602001909291905050506108f9565b005b34801561051757600080fd5b50610538600480360381019080803515159060200190929190505050610930565b005b34801561054657600080fd5b50610569600480360381019080803560001916906020019092919050505061094d565b604051808215151515815260200191505060405180910390f35b34801561058f57600080fd5b50610598610954565b6040518080602001828103825283818151815260200191508051906020019060200280838360005b838110156105db5780820151818401526020810190506105c0565b505050509050019250505060405180910390f35b3480156105fb57600080fd5b50610630600480360381019080803573ffffffffffffffffffffffffffffffffffffffff169060200190929190505050610959565b604051808215151515815260200191505060405180910390f35b34801561065657600080fd5b506106996004803603810190808035600019169060200190929190803573ffffffffffffffffffffffffffffffffffffffff169060200190929190505050610960565b005b50565b600360009054906101000a900460ff16156106b857600080fd5b6002604080519081016040528084600019168152602001838152509080600181540180825580915050906001820390600052602060002090600202016000909192909190915060008201518160000190600019169055602082015181600101555050505050565b50565b606080606080600060028054905060405190808252806020026020018201604052801561075e5781602001602082028038833980820191505090505b5092506002805490506040519080825280602002602001820160405280156107955781602001602082028038833980820191505090505b509150600090505b60028054905081101561083b576002818154811015156107b957fe5b90600052602060002090600202016000015483828151811015156107d957fe5b90602001906020020190600019169081600019168152505060028181548110151561080057fe5b906000526020600020906002020160010154828281518110151561082057fe5b9060200190602002018181525050808060010191505061079d565b8282945094505050509091565b50565b60008181548110151561085a57fe5b906000526020600020016000915090505481565b5050565b50565b600060046000836000191660001916815260200190815260200160002060009054906101000a900460ff169050919050565b6000600160008360001916600019168152602001908152602001600020549050919050565b565b80600160008460001916600019168152602001908152602001600020819055505050565b6000919050565b8060046000846000191660001916815260200190815260200160002060006101000a81548160ff0219169083151502179055505050565b80600360006101000a81548160ff02191690831515021790555050565b6000919050565b606090565b6000919050565b50505600a165627a7a72305820d8116fa866a11bf549dfb8474c91779655d22e19559f7cbeda0f47b144b6d0da0029",
  "source": "pragma solidity 0.4.24;\n\nimport \"../../rates/IRates.sol\";\n\n\ncontract RatesGuard__RatesMock is IRates {\n    function addSymbolWithTokenAddress(bytes32 symbol, address _address) public {}\n\n    function setTokenAddress(bytes32 symbol, address _address) public {}\n\n    function getTokenAddress(bytes32 symbol) public view returns (address) {}\n\n    function isToken(bytes32 symbol) public view returns (bool) {}\n\n    mapping(bytes32 => uint) __rates;\n\n    function _get(bytes32 symbol, uint rate) public {\n        __rates[symbol] = rate;\n    }\n\n    function get(bytes32 symbol) public view returns (uint) {\n        return __rates[symbol];\n    }\n\n    struct SetCall {\n        bytes32 symbol;\n        uint rate;\n    }\n\n    SetCall[] __setCall;\n\n    bool __setRevertEnabled;\n\n    function _setCallResult() public view returns(bytes32[], uint[]) {\n        bytes32[] memory symbols = new bytes32[](__setCall.length);\n        uint[] memory rates = new uint[](__setCall.length);\n\n        for(uint i = 0; i < __setCall.length; i++) {\n            symbols[i] = __setCall[i].symbol;\n            rates[i] = __setCall[i].rate;\n        }\n\n        return (symbols, rates);\n    }\n\n    function _setRevertEnabled(bool flag) public {\n        __setRevertEnabled = flag;\n    }\n\n    function set(bytes32 symbol, uint rate) public {\n        if (__setRevertEnabled) revert();\n        __setCall.push(SetCall(symbol, rate));\n    }\n\n    function addSymbol(bytes32 symbol) public {}\n\n    function removeSymbol(bytes32 symbol) public {}\n\n    mapping(bytes32 => bool) __hasSymbol;\n\n    function _hasSymbol(bytes32 symbol, bool flag) public {\n        __hasSymbol[symbol] = flag;\n    }\n\n    function hasSymbol(bytes32 symbol) public view returns (bool) {\n        return __hasSymbol[symbol];\n    }\n\n    function getSymbolsList() public view returns (bytes32[]) {}\n\n    function isPricer(address account) public view returns (bool) {}\n\n    function addPricer(address account) public {}\n\n    function removePricer(address account) public {}\n\n    function renouncePricer() public {}\n}\n",
  "sourcePath": "/Users/gauss/_games/w12/Protocol/contracts/mocks/rates/RatesGuard__RatesMock.sol",
  "compiler": {
    "name": "solc",
    "version": "0.4.24+commit.e67f0147.Emscripten.clang"
  },
  "schemaVersion": "2.0.1",
  "updatedAt": "2019-09-18T13:32:17.515Z"
}