{
  "contractName": "RatesGuard",
  "abi": [
    {
      "constant": true,
      "inputs": [
        {
          "name": "account",
          "type": "address"
        }
      ],
      "name": "isSuggestor",
      "outputs": [
        {
          "name": "",
          "type": "bool"
        }
      ],
      "payable": false,
      "stateMutability": "view",
      "type": "function"
    },
    {
      "constant": true,
      "inputs": [
        {
          "name": "account",
          "type": "address"
        }
      ],
      "name": "isAdmin",
      "outputs": [
        {
          "name": "",
          "type": "bool"
        }
      ],
      "payable": false,
      "stateMutability": "view",
      "type": "function"
    },
    {
      "constant": true,
      "inputs": [],
      "name": "lockUntil",
      "outputs": [
        {
          "name": "",
          "type": "uint256"
        }
      ],
      "payable": false,
      "stateMutability": "view",
      "type": "function"
    },
    {
      "constant": true,
      "inputs": [],
      "name": "validationTriggerCondition",
      "outputs": [
        {
          "name": "",
          "type": "uint256"
        }
      ],
      "payable": false,
      "stateMutability": "view",
      "type": "function"
    },
    {
      "constant": true,
      "inputs": [],
      "name": "rates",
      "outputs": [
        {
          "name": "",
          "type": "address"
        }
      ],
      "payable": false,
      "stateMutability": "view",
      "type": "function"
    },
    {
      "constant": true,
      "inputs": [],
      "name": "diffTolerant",
      "outputs": [
        {
          "name": "",
          "type": "uint256"
        }
      ],
      "payable": false,
      "stateMutability": "view",
      "type": "function"
    },
    {
      "constant": true,
      "inputs": [],
      "name": "diffPrevTolerant",
      "outputs": [
        {
          "name": "",
          "type": "uint256"
        }
      ],
      "payable": false,
      "stateMutability": "view",
      "type": "function"
    },
    {
      "constant": true,
      "inputs": [
        {
          "name": "",
          "type": "bytes32"
        }
      ],
      "name": "diffPrevTolerantForSymbol",
      "outputs": [
        {
          "name": "",
          "type": "uint256"
        }
      ],
      "payable": false,
      "stateMutability": "view",
      "type": "function"
    },
    {
      "constant": false,
      "inputs": [],
      "name": "renounceSuggestor",
      "outputs": [],
      "payable": false,
      "stateMutability": "nonpayable",
      "type": "function"
    },
    {
      "constant": false,
      "inputs": [],
      "name": "renounceAdmin",
      "outputs": [],
      "payable": false,
      "stateMutability": "nonpayable",
      "type": "function"
    },
    {
      "constant": true,
      "inputs": [],
      "name": "expireTimeout",
      "outputs": [
        {
          "name": "",
          "type": "uint256"
        }
      ],
      "payable": false,
      "stateMutability": "view",
      "type": "function"
    },
    {
      "constant": true,
      "inputs": [
        {
          "name": "",
          "type": "bytes32"
        }
      ],
      "name": "hasDiffPrevTolerantForSymbol",
      "outputs": [
        {
          "name": "",
          "type": "bool"
        }
      ],
      "payable": false,
      "stateMutability": "view",
      "type": "function"
    },
    {
      "constant": true,
      "inputs": [
        {
          "name": "",
          "type": "bytes32"
        }
      ],
      "name": "diffTolerantForSymbol",
      "outputs": [
        {
          "name": "",
          "type": "uint256"
        }
      ],
      "payable": false,
      "stateMutability": "view",
      "type": "function"
    },
    {
      "constant": true,
      "inputs": [],
      "name": "lockOnFailTimeout",
      "outputs": [
        {
          "name": "",
          "type": "uint256"
        }
      ],
      "payable": false,
      "stateMutability": "view",
      "type": "function"
    },
    {
      "constant": true,
      "inputs": [
        {
          "name": "",
          "type": "bytes32"
        }
      ],
      "name": "hasDiffTolerantForSymbol",
      "outputs": [
        {
          "name": "",
          "type": "bool"
        }
      ],
      "payable": false,
      "stateMutability": "view",
      "type": "function"
    },
    {
      "constant": true,
      "inputs": [],
      "name": "minSuggestionMatch",
      "outputs": [
        {
          "name": "",
          "type": "uint256"
        }
      ],
      "payable": false,
      "stateMutability": "view",
      "type": "function"
    },
    {
      "inputs": [
        {
          "name": "_rates",
          "type": "address"
        },
        {
          "name": "_validationTriggerCondition",
          "type": "uint256"
        },
        {
          "name": "_minSuggestionMatch",
          "type": "uint256"
        },
        {
          "name": "_diffPrevTolerant",
          "type": "uint256"
        },
        {
          "name": "_lockOnFailTimeout",
          "type": "uint256"
        },
        {
          "name": "_diffTolerant",
          "type": "uint256"
        },
        {
          "name": "_expireTimeout",
          "type": "uint256"
        },
        {
          "name": "_suggestors",
          "type": "address[]"
        }
      ],
      "payable": false,
      "stateMutability": "nonpayable",
      "type": "constructor"
    },
    {
      "anonymous": false,
      "inputs": [
        {
          "indexed": true,
          "name": "failCase",
          "type": "uint8"
        }
      ],
      "name": "Fail",
      "type": "event"
    },
    {
      "anonymous": false,
      "inputs": [
        {
          "indexed": true,
          "name": "suggestor",
          "type": "address"
        }
      ],
      "name": "SuggestionConfirmed",
      "type": "event"
    },
    {
      "anonymous": false,
      "inputs": [
        {
          "indexed": true,
          "name": "suggestor",
          "type": "address"
        }
      ],
      "name": "SuggestionAccepted",
      "type": "event"
    },
    {
      "anonymous": false,
      "inputs": [
        {
          "indexed": true,
          "name": "updater",
          "type": "address"
        },
        {
          "indexed": false,
          "name": "rates",
          "type": "address"
        },
        {
          "indexed": false,
          "name": "validationTriggerCondition",
          "type": "uint256"
        },
        {
          "indexed": false,
          "name": "minSuggestionMatch",
          "type": "uint256"
        },
        {
          "indexed": false,
          "name": "diffPrevTolerant",
          "type": "uint256"
        },
        {
          "indexed": false,
          "name": "lockOnFailTimeout",
          "type": "uint256"
        },
        {
          "indexed": false,
          "name": "diffTolerant",
          "type": "uint256"
        },
        {
          "indexed": false,
          "name": "expireTimeout",
          "type": "uint256"
        }
      ],
      "name": "SettingUpdated",
      "type": "event"
    },
    {
      "anonymous": false,
      "inputs": [
        {
          "indexed": true,
          "name": "updater",
          "type": "address"
        },
        {
          "indexed": false,
          "name": "symbol",
          "type": "bytes32"
        },
        {
          "indexed": false,
          "name": "value",
          "type": "uint256"
        }
      ],
      "name": "DiffTolerantForSymbolsUpdated",
      "type": "event"
    },
    {
      "anonymous": false,
      "inputs": [
        {
          "indexed": true,
          "name": "remover",
          "type": "address"
        },
        {
          "indexed": false,
          "name": "symbol",
          "type": "bytes32"
        }
      ],
      "name": "DiffTolerantForSymbolsRemoved",
      "type": "event"
    },
    {
      "anonymous": false,
      "inputs": [
        {
          "indexed": true,
          "name": "updater",
          "type": "address"
        },
        {
          "indexed": false,
          "name": "symbol",
          "type": "bytes32"
        },
        {
          "indexed": false,
          "name": "value",
          "type": "uint256"
        }
      ],
      "name": "DiffPrevTolerantForSymbolsUpdated",
      "type": "event"
    },
    {
      "anonymous": false,
      "inputs": [
        {
          "indexed": true,
          "name": "remover",
          "type": "address"
        },
        {
          "indexed": false,
          "name": "symbol",
          "type": "bytes32"
        }
      ],
      "name": "DiffPrevTolerantForSymbolsRemoved",
      "type": "event"
    },
    {
      "anonymous": false,
      "inputs": [
        {
          "indexed": true,
          "name": "account",
          "type": "address"
        }
      ],
      "name": "SuggestorAdded",
      "type": "event"
    },
    {
      "anonymous": false,
      "inputs": [
        {
          "indexed": true,
          "name": "account",
          "type": "address"
        }
      ],
      "name": "SuggestorRemoved",
      "type": "event"
    },
    {
      "anonymous": false,
      "inputs": [
        {
          "indexed": true,
          "name": "account",
          "type": "address"
        }
      ],
      "name": "AdminAdded",
      "type": "event"
    },
    {
      "anonymous": false,
      "inputs": [
        {
          "indexed": true,
          "name": "account",
          "type": "address"
        }
      ],
      "name": "AdminRemoved",
      "type": "event"
    },
    {
      "constant": false,
      "inputs": [
        {
          "name": "_rates",
          "type": "address"
        }
      ],
      "name": "setRates",
      "outputs": [],
      "payable": false,
      "stateMutability": "nonpayable",
      "type": "function"
    },
    {
      "constant": false,
      "inputs": [
        {
          "name": "value",
          "type": "uint256"
        }
      ],
      "name": "setValidationTriggerCondition",
      "outputs": [],
      "payable": false,
      "stateMutability": "nonpayable",
      "type": "function"
    },
    {
      "constant": false,
      "inputs": [
        {
          "name": "value",
          "type": "uint256"
        }
      ],
      "name": "setMinSuggestionMatch",
      "outputs": [],
      "payable": false,
      "stateMutability": "nonpayable",
      "type": "function"
    },
    {
      "constant": false,
      "inputs": [
        {
          "name": "value",
          "type": "uint256"
        }
      ],
      "name": "setDiffPrevTolerant",
      "outputs": [],
      "payable": false,
      "stateMutability": "nonpayable",
      "type": "function"
    },
    {
      "constant": false,
      "inputs": [
        {
          "name": "symbol",
          "type": "bytes32"
        },
        {
          "name": "value",
          "type": "uint256"
        }
      ],
      "name": "setDiffPrevTolerantForSymbol",
      "outputs": [],
      "payable": false,
      "stateMutability": "nonpayable",
      "type": "function"
    },
    {
      "constant": false,
      "inputs": [
        {
          "name": "symbol",
          "type": "bytes32"
        }
      ],
      "name": "unsetDiffPrevTolerantForSymbol",
      "outputs": [],
      "payable": false,
      "stateMutability": "nonpayable",
      "type": "function"
    },
    {
      "constant": false,
      "inputs": [
        {
          "name": "value",
          "type": "uint256"
        }
      ],
      "name": "setLockOnFailTimeout",
      "outputs": [],
      "payable": false,
      "stateMutability": "nonpayable",
      "type": "function"
    },
    {
      "constant": false,
      "inputs": [
        {
          "name": "value",
          "type": "uint256"
        }
      ],
      "name": "setDiffTolerant",
      "outputs": [],
      "payable": false,
      "stateMutability": "nonpayable",
      "type": "function"
    },
    {
      "constant": false,
      "inputs": [
        {
          "name": "symbol",
          "type": "bytes32"
        },
        {
          "name": "value",
          "type": "uint256"
        }
      ],
      "name": "setDiffTolerantForSymbol",
      "outputs": [],
      "payable": false,
      "stateMutability": "nonpayable",
      "type": "function"
    },
    {
      "constant": false,
      "inputs": [
        {
          "name": "symbol",
          "type": "bytes32"
        }
      ],
      "name": "unsetDiffTolerantForSymbol",
      "outputs": [],
      "payable": false,
      "stateMutability": "nonpayable",
      "type": "function"
    },
    {
      "constant": false,
      "inputs": [
        {
          "name": "value",
          "type": "uint256"
        }
      ],
      "name": "setExpireTimeout",
      "outputs": [],
      "payable": false,
      "stateMutability": "nonpayable",
      "type": "function"
    },
    {
      "constant": false,
      "inputs": [
        {
          "name": "account",
          "type": "address"
        }
      ],
      "name": "addAdmin",
      "outputs": [],
      "payable": false,
      "stateMutability": "nonpayable",
      "type": "function"
    },
    {
      "constant": false,
      "inputs": [
        {
          "name": "account",
          "type": "address"
        }
      ],
      "name": "removeAdmin",
      "outputs": [],
      "payable": false,
      "stateMutability": "nonpayable",
      "type": "function"
    },
    {
      "constant": false,
      "inputs": [
        {
          "name": "account",
          "type": "address"
        }
      ],
      "name": "addSuggestor",
      "outputs": [],
      "payable": false,
      "stateMutability": "nonpayable",
      "type": "function"
    },
    {
      "constant": false,
      "inputs": [
        {
          "name": "_suggestors",
          "type": "address[]"
        }
      ],
      "name": "bulkAddSuggestor",
      "outputs": [],
      "payable": false,
      "stateMutability": "nonpayable",
      "type": "function"
    },
    {
      "constant": false,
      "inputs": [
        {
          "name": "account",
          "type": "address"
        }
      ],
      "name": "removeSuggestor",
      "outputs": [],
      "payable": false,
      "stateMutability": "nonpayable",
      "type": "function"
    },
    {
      "constant": false,
      "inputs": [
        {
          "name": "symbols",
          "type": "bytes32[]"
        },
        {
          "name": "rateValues",
          "type": "uint256[]"
        }
      ],
      "name": "suggest",
      "outputs": [],
      "payable": false,
      "stateMutability": "nonpayable",
      "type": "function"
    },
    {
      "constant": true,
      "inputs": [],
      "name": "isLocked",
      "outputs": [
        {
          "name": "",
          "type": "bool"
        }
      ],
      "payable": false,
      "stateMutability": "view",
      "type": "function"
    }
  ],
  "bytecode": "0x60806040523480156200001157600080fd5b50604051620032833803806200328383398101806040528101908080519060200190929190805190602001909291908051906020019092919080519060200190929190805190602001909291908051906020019092919080519060200190929190805182019291905050506200009633620001c0640100000000026401000000009004565b620000b0336200022a640100000000026401000000009004565b620000ca8862000294640100000000026401000000009004565b620000e48762000315640100000000026401000000009004565b620000fe866200032f640100000000026401000000009004565b620001188562000349640100000000026401000000009004565b620001328462000353640100000000026401000000009004565b6200014c836200035d640100000000026401000000009004565b620001668262000367640100000000026401000000009004565b6200017f62000371640100000000026401000000009004565b620001986200044b640100000000026401000000009004565b620001b28162000467640100000000026401000000009004565b5050505050505050620007d6565b620001e4816000620004e26401000000000262002426179091906401000000009004565b8073ffffffffffffffffffffffffffffffffffffffff167f44d6d25963f097ad14f29f06854a01f575648a1ef82f30e562ccd3889717e33960405160405180910390a250565b6200024e816001620004e26401000000000262002426179091906401000000009004565b8073ffffffffffffffffffffffffffffffffffffffff167fe1bc9c2988ec45414afec0ac5baabb692c2c01869cdee5435d9e20336f022d8a60405160405180910390a250565b600073ffffffffffffffffffffffffffffffffffffffff168173ffffffffffffffffffffffffffffffffffffffff1614151515620002d157600080fd5b80600460006101000a81548173ffffffffffffffffffffffffffffffffffffffff021916908373ffffffffffffffffffffffffffffffffffffffff16021790555050565b6001811115156200032557600080fd5b8060058190555050565b6000811115156200033f57600080fd5b8060068190555050565b8060078190555050565b80600a8190555050565b80600b8190555050565b80600e8190555050565b3373ffffffffffffffffffffffffffffffffffffffff167f090fcb9b93f3f83e722737a75d5c040deff35964ebba7d4d4ae460c67579bcc9600460009054906101000a900473ffffffffffffffffffffffffffffffffffffffff16600554600654600754600a54600b54600e54604051808873ffffffffffffffffffffffffffffffffffffffff1673ffffffffffffffffffffffffffffffffffffffff16815260200187815260200186815260200185815260200184815260200183815260200182815260200197505050505050505060405180910390a2565b6200046533620005a5640100000000026401000000009004565b565b600062000483336200060f640100000000026401000000009004565b15156200048f57600080fd5b600090505b8151811015620004de57620004d08282815181101515620004b157fe5b906020019060200201516200063c640100000000026401000000009004565b808060010191505062000494565b5050565b600073ffffffffffffffffffffffffffffffffffffffff168173ffffffffffffffffffffffffffffffffffffffff16141515156200051f57600080fd5b6200053a82826200067f640100000000026401000000009004565b1515156200054757600080fd5b60018260000160008373ffffffffffffffffffffffffffffffffffffffff1673ffffffffffffffffffffffffffffffffffffffff16815260200190815260200160002060006101000a81548160ff0219169083151502179055505050565b620005c9816001620007146401000000000262001a8f179091906401000000009004565b8073ffffffffffffffffffffffffffffffffffffffff167f51d15a621856b0c74d426f844b0f18f04708f04e1eeed73df06d51fc6f6dc89b60405160405180910390a250565b6000620006358260006200067f64010000000002620010ce179091906401000000009004565b9050919050565b62000656336200060f640100000000026401000000009004565b15156200066257600080fd5b6200067c816200022a640100000000026401000000009004565b50565b60008073ffffffffffffffffffffffffffffffffffffffff168273ffffffffffffffffffffffffffffffffffffffff1614151515620006bd57600080fd5b8260000160008373ffffffffffffffffffffffffffffffffffffffff1673ffffffffffffffffffffffffffffffffffffffff16815260200190815260200160002060009054906101000a900460ff16905092915050565b600073ffffffffffffffffffffffffffffffffffffffff168173ffffffffffffffffffffffffffffffffffffffff16141515156200075157600080fd5b6200076c82826200067f640100000000026401000000009004565b15156200077857600080fd5b60008260000160008373ffffffffffffffffffffffffffffffffffffffff1673ffffffffffffffffffffffffffffffffffffffff16815260200190815260200160002060006101000a81548160ff0219169083151502179055505050565b612a9d80620007e66000396000f3006080604052600436106101ac576000357c0100000000000000000000000000000000000000000000000000000000900463ffffffff1680630d370dd2146101b157806311837f66146101f457806314386de114610221578063155d7f4f146102525780631785f53c1461027f5780631ef721c7146102c257806324d7806c1461031d5780632fc4d3e514610378578063305c67cc146103a55780633a3ccd53146103e05780633c78929e146104115780633fbf5be31461043c57806343f48fbd146104675780634510d11d146104be5780634b160291146104e95780634c61ec061461059257806356610666146105bd57806357b35ac8146105ea5780635e9ff0581461062f578063704802751461064657806377bb94f6146106895780637d445da4146106ef5780638bad0c0a1461072a578063a4e2d63414610741578063aa5e293614610770578063b75321fb1461079b578063b8fe2eb7146107de578063ba65e29f14610827578063c114032d1461086c578063ca78d7c014610897578063d67f349c146108e0578063df7e483614610923578063e168188d14610950578063fab509e31461097d575b600080fd5b3480156101bd57600080fd5b506101f2600480360381019080803573ffffffffffffffffffffffffffffffffffffffff1690602001909291905050506109a8565b005b34801561020057600080fd5b5061021f600480360381019080803590602001909291905050506109c8565b005b34801561022d57600080fd5b5061025060048036038101908080356000191690602001909291905050506109dc565b005b34801561025e57600080fd5b5061027d60048036038101908080359060200190929190505050610a8a565b005b34801561028b57600080fd5b506102c0600480360381019080803573ffffffffffffffffffffffffffffffffffffffff169060200190929190505050610a9e565b005b3480156102ce57600080fd5b50610303600480360381019080803573ffffffffffffffffffffffffffffffffffffffff169060200190929190505050610abe565b604051808215151515815260200191505060405180910390f35b34801561032957600080fd5b5061035e600480360381019080803573ffffffffffffffffffffffffffffffffffffffff169060200190929190505050610adb565b604051808215151515815260200191505060405180910390f35b34801561038457600080fd5b506103a360048036038101908080359060200190929190505050610af8565b005b3480156103b157600080fd5b506103de600480360381019080803560001916906020019092919080359060200190929190505050610b0c565b005b3480156103ec57600080fd5b5061040f6004803603810190808035600019169060200190929190505050610bc2565b005b34801561041d57600080fd5b50610426610c70565b6040518082815260200191505060405180910390f35b34801561044857600080fd5b50610451610c76565b6040518082815260200191505060405180910390f35b34801561047357600080fd5b5061047c610c7c565b604051808273ffffffffffffffffffffffffffffffffffffffff1673ffffffffffffffffffffffffffffffffffffffff16815260200191505060405180910390f35b3480156104ca57600080fd5b506104d3610ca2565b6040518082815260200191505060405180910390f35b3480156104f557600080fd5b506105906004803603810190808035906020019082018035906020019080806020026020016040519081016040528093929190818152602001838360200280828437820191505050505050919291929080359060200190820180359060200190808060200260200160405190810160405280939291908181526020018383602002808284378201915050505050509192919290505050610ca8565b005b34801561059e57600080fd5b506105a7610ce7565b6040518082815260200191505060405180910390f35b3480156105c957600080fd5b506105e860048036038101908080359060200190929190505050610ced565b005b3480156105f657600080fd5b506106196004803603810190808035600019169060200190929190505050610d01565b6040518082815260200191505060405180910390f35b34801561063b57600080fd5b50610644610d19565b005b34801561065257600080fd5b50610687600480360381019080803573ffffffffffffffffffffffffffffffffffffffff169060200190929190505050610d24565b005b34801561069557600080fd5b506106ed60048036038101908080359060200190820180359060200190808060200260200160405190810160405280939291908181526020018383602002808284378201915050505050509192919290505050610d44565b005b3480156106fb57600080fd5b50610728600480360381019080803560001916906020019092919080359060200190929190505050610d99565b005b34801561073657600080fd5b5061073f610e4f565b005b34801561074d57600080fd5b50610756610e5a565b604051808215151515815260200191505060405180910390f35b34801561077c57600080fd5b50610785610e66565b6040518082815260200191505060405180910390f35b3480156107a757600080fd5b506107dc600480360381019080803573ffffffffffffffffffffffffffffffffffffffff169060200190929190505050610e6c565b005b3480156107ea57600080fd5b5061080d6004803603810190808035600019169060200190929190505050610e8c565b604051808215151515815260200191505060405180910390f35b34801561083357600080fd5b506108566004803603810190808035600019169060200190929190505050610eac565b6040518082815260200191505060405180910390f35b34801561087857600080fd5b50610881610ec4565b6040518082815260200191505060405180910390f35b3480156108a357600080fd5b506108c66004803603810190808035600019169060200190929190505050610eca565b604051808215151515815260200191505060405180910390f35b3480156108ec57600080fd5b50610921600480360381019080803573ffffffffffffffffffffffffffffffffffffffff169060200190929190505050610eea565b005b34801561092f57600080fd5b5061094e60048036038101908080359060200190929190505050610efe565b005b34801561095c57600080fd5b5061097b60048036038101908080359060200190929190505050610f12565b005b34801561098957600080fd5b50610992610f26565b6040518082815260200191505060405180910390f35b6109b133610adb565b15156109bc57600080fd5b6109c581610f2c565b50565b6109d181610f86565b6109d9610f90565b50565b600060086000836000191660001916815260200190815260200160002081905550600060096000836000191660001916815260200190815260200160002060006101000a81548160ff0219169083151502179055503373ffffffffffffffffffffffffffffffffffffffff167f209ea8455d66e69446c8851b0dec4cc93309443ca80c42ee27d82586ef6459218260405180826000191660001916815260200191505060405180910390a250565b610a938161106a565b610a9b610f90565b50565b610aa733610adb565b1515610ab257600080fd5b610abb81611074565b50565b6000610ad48260016110ce90919063ffffffff16565b9050919050565b6000610af18260006110ce90919063ffffffff16565b9050919050565b610b0181611162565b610b09610f90565b50565b80600c60008460001916600019168152602001908152602001600020819055506001600d6000846000191660001916815260200190815260200160002060006101000a81548160ff0219169083151502179055503373ffffffffffffffffffffffffffffffffffffffff167f8176b348adbaec680bdcb47adb60c3e5b3a26692add3801e43d325eb61f086fa83836040518083600019166000191681526020018281526020019250505060405180910390a25050565b6000600c60008360001916600019168152602001908152602001600020819055506000600d6000836000191660001916815260200190815260200160002060006101000a81548160ff0219169083151502179055503373ffffffffffffffffffffffffffffffffffffffff167f3fa55dcf11e45878d78b86f99a72f2ab56f64c8df593f054d4cc63f8f08167f38260405180826000191660001916815260200191505060405180910390a250565b600f5481565b60055481565b600460009054906101000a900473ffffffffffffffffffffffffffffffffffffffff1681565b600b5481565b610cb133610abe565b1515610cbc57600080fd5b610cc4610e5a565b151515610cd057600080fd5b610cdb33838361117b565b610ce3611744565b5050565b60075481565b610cf68161192e565b610cfe610f90565b50565b60086020528060005260406000206000915090505481565b610d2233610f2c565b565b610d2d33610adb565b1515610d3857600080fd5b610d4181611947565b50565b6000610d4f33610adb565b1515610d5a57600080fd5b600090505b8151811015610d9557610d888282815181101515610d7957fe5b90602001906020020151610e6c565b8080600101915050610d5f565b5050565b8060086000846000191660001916815260200190815260200160002081905550600160096000846000191660001916815260200190815260200160002060006101000a81548160ff0219169083151502179055503373ffffffffffffffffffffffffffffffffffffffff167f206455a314bd4aa9f62c1977408e252e8f3ce3eacc7415738b8eebf44ff0444983836040518083600019166000191681526020018281526020019250505060405180910390a25050565b610e5833611074565b565b6000600f544210905090565b600e5481565b610e7533610adb565b1515610e8057600080fd5b610e89816119a1565b50565b60096020528060005260406000206000915054906101000a900460ff1681565b600c6020528060005260406000206000915090505481565b600a5481565b600d6020528060005260406000206000915054906101000a900460ff1681565b610ef3816119fb565b610efb610f90565b50565b610f0781611a7b565b610f0f610f90565b50565b610f1b81611a85565b610f23610f90565b50565b60065481565b610f40816001611a8f90919063ffffffff16565b8073ffffffffffffffffffffffffffffffffffffffff167f51d15a621856b0c74d426f844b0f18f04708f04e1eeed73df06d51fc6f6dc89b60405160405180910390a250565b80600e8190555050565b3373ffffffffffffffffffffffffffffffffffffffff167f090fcb9b93f3f83e722737a75d5c040deff35964ebba7d4d4ae460c67579bcc9600460009054906101000a900473ffffffffffffffffffffffffffffffffffffffff16600554600654600754600a54600b54600e54604051808873ffffffffffffffffffffffffffffffffffffffff1673ffffffffffffffffffffffffffffffffffffffff16815260200187815260200186815260200185815260200184815260200183815260200182815260200197505050505050505060405180910390a2565b8060078190555050565b611088816000611a8f90919063ffffffff16565b8073ffffffffffffffffffffffffffffffffffffffff167fa3b62bc36326052d97ea62d63c3d60308ed4c3ea8ac079dd8499f1e9c4f80c0f60405160405180910390a250565b60008073ffffffffffffffffffffffffffffffffffffffff168273ffffffffffffffffffffffffffffffffffffffff161415151561110b57600080fd5b8260000160008373ffffffffffffffffffffffffffffffffffffffff1673ffffffffffffffffffffffffffffffffffffffff16815260200190815260200160002060009054906101000a900460ff16905092915050565b60008111151561117157600080fd5b8060068190555050565b60008060008085511415151561119057600080fd5b835185511415156111a057600080fd5b600092505b600260008773ffffffffffffffffffffffffffffffffffffffff1673ffffffffffffffffffffffffffffffffffffffff168152602001908152602001600020600001805490508310156112cc576000600260008873ffffffffffffffffffffffffffffffffffffffff1673ffffffffffffffffffffffffffffffffffffffff1681526020019081526020016000206002016000600260008a73ffffffffffffffffffffffffffffffffffffffff1673ffffffffffffffffffffffffffffffffffffffff1681526020019081526020016000206000018681548110151561128757fe5b90600052602060002001546000191660001916815260200190815260200160002060006101000a81548160ff02191690831515021790555082806001019350506111a5565b84600260008873ffffffffffffffffffffffffffffffffffffffff1673ffffffffffffffffffffffffffffffffffffffff16815260200190815260200160002060000190805190602001906113229291906129a8565b5042600260008873ffffffffffffffffffffffffffffffffffffffff1673ffffffffffffffffffffffffffffffffffffffff16815260200190815260200160002060030181905550600092505b845183101561149e576001600260008873ffffffffffffffffffffffffffffffffffffffff1673ffffffffffffffffffffffffffffffffffffffff168152602001908152602001600020600201600087868151811015156113cc57fe5b906020019060200201516000191660001916815260200190815260200160002060006101000a81548160ff021916908315150217905550838381518110151561141157fe5b90602001906020020151600260008873ffffffffffffffffffffffffffffffffffffffff1673ffffffffffffffffffffffffffffffffffffffff1681526020019081526020016000206001016000878681518110151561146d57fe5b906020019060200201516000191660001916815260200190815260200160002081905550828060010193505061136f565b8573ffffffffffffffffffffffffffffffffffffffff167ffdcac279ce4d1598aaa8720df8b176f799145233f1d75ba7ca79c4111b0556a860405160405180910390a2600092505b6003805490508310156116d5578573ffffffffffffffffffffffffffffffffffffffff1660038481548110151561151957fe5b9060005260206000200160009054906101000a900473ffffffffffffffffffffffffffffffffffffffff1673ffffffffffffffffffffffffffffffffffffffff1614156116c857600160038054905001831415156116c35760038381548110151561158057fe5b9060005260206000200160009054906101000a900473ffffffffffffffffffffffffffffffffffffffff1691508290505b600160038054905003811015611662576003600182018154811015156115d357fe5b9060005260206000200160009054906101000a900473ffffffffffffffffffffffffffffffffffffffff1660038281548110151561160d57fe5b9060005260206000200160006101000a81548173ffffffffffffffffffffffffffffffffffffffff021916908373ffffffffffffffffffffffffffffffffffffffff16021790555080806001019150506115b1565b81600360016003805490500381548110151561167a57fe5b9060005260206000200160006101000a81548173ffffffffffffffffffffffffffffffffffffffff021916908373ffffffffffffffffffffffffffffffffffffffff1602179055505b61173c565b82806001019350506114e6565b60038690806001815401808255809150509060018203906000526020600020016000909192909190916101000a81548173ffffffffffffffffffffffffffffffffffffffff021916908373ffffffffffffffffffffffffffffffffffffffff160217905550505b505050505050565b6000806000611751611b3e565b60055460038054905014151561176657611929565b61176e611ccf565b9250925092508015156117c957611783611f39565b61178b611f46565b6000600381111561179857fe5b7f8f71917a995d4f3783d963e27097238fe60a0763ed1d125696ce3bad43551bc360405160405180910390a2611929565b6117d283611f58565b15611825576117df611f39565b6117e7611f46565b600260038111156117f457fe5b7f8f71917a995d4f3783d963e27097238fe60a0763ed1d125696ce3bad43551bc360405160405180910390a2611929565b61182e83612085565b156118815761183b611f39565b611843611f46565b6001600381111561185057fe5b7f8f71917a995d4f3783d963e27097238fe60a0763ed1d125696ce3bad43551bc360405160405180910390a2611929565b61188a836122ab565b15156118dd57611898611f39565b6118a0611f46565b6003808111156118ac57fe5b7f8f71917a995d4f3783d963e27097238fe60a0763ed1d125696ce3bad43551bc360405160405180910390a2611929565b6118e5611f46565b8173ffffffffffffffffffffffffffffffffffffffff167f518371ba53576aa72b80227247663701a27d3a646396383a6780f3e6e8f2d83a60405160405180910390a25b505050565b60018111151561193d57600080fd5b8060058190555050565b61195b81600061242690919063ffffffff16565b8073ffffffffffffffffffffffffffffffffffffffff167f44d6d25963f097ad14f29f06854a01f575648a1ef82f30e562ccd3889717e33960405160405180910390a250565b6119b581600161242690919063ffffffff16565b8073ffffffffffffffffffffffffffffffffffffffff167fe1bc9c2988ec45414afec0ac5baabb692c2c01869cdee5435d9e20336f022d8a60405160405180910390a250565b600073ffffffffffffffffffffffffffffffffffffffff168173ffffffffffffffffffffffffffffffffffffffff1614151515611a3757600080fd5b80600460006101000a81548173ffffffffffffffffffffffffffffffffffffffff021916908373ffffffffffffffffffffffffffffffffffffffff16021790555050565b80600b8190555050565b80600a8190555050565b600073ffffffffffffffffffffffffffffffffffffffff168173ffffffffffffffffffffffffffffffffffffffff1614151515611acb57600080fd5b611ad582826110ce565b1515611ae057600080fd5b60008260000160008373ffffffffffffffffffffffffffffffffffffffff1673ffffffffffffffffffffffffffffffffffffffff16815260200190815260200160002060006101000a81548160ff0219169083151502179055505050565b600080600080600e54141515611cca5760009250600091505b600380549050821015611cb357600160026000600385815481101515611b7957fe5b9060005260206000200160009054906101000a900473ffffffffffffffffffffffffffffffffffffffff1673ffffffffffffffffffffffffffffffffffffffff1673ffffffffffffffffffffffffffffffffffffffff16815260200190815260200160002060030154420301905080600e54101515611ca65760016003805490500382141515611c9d576003600160038054905003815481101515611c1a57fe5b9060005260206000200160009054906101000a900473ffffffffffffffffffffffffffffffffffffffff16600383815481101515611c5457fe5b9060005260206000200160006101000a81548173ffffffffffffffffffffffffffffffffffffffff021916908373ffffffffffffffffffffffffffffffffffffffff1602179055505b82806001019350505b8180600101925050611b57565b8260038054905003600381611cc891906129fb565b505b505050565b60008060006060600080611ce16124d6565b9250600090505b8251811015611ead576006548382815181101515611d0257fe5b90602001906020020151101515611e9f578315611e97578282815181101515611d2757fe5b906020019060200201518382815181101515611d3f57fe5b906020019060200201511115611d5757809150611e92565b8282815181101515611d6557fe5b906020019060200201518382815181101515611d7d57fe5b906020019060200201511415611e915760026000600384815481101515611da057fe5b9060005260206000200160009054906101000a900473ffffffffffffffffffffffffffffffffffffffff1673ffffffffffffffffffffffffffffffffffffffff1673ffffffffffffffffffffffffffffffffffffffff1681526020019081526020016000206003015460026000600384815481101515611e1c57fe5b9060005260206000200160009054906101000a900473ffffffffffffffffffffffffffffffffffffffff1673ffffffffffffffffffffffffffffffffffffffff1673ffffffffffffffffffffffffffffffffffffffff16815260200190815260200160002060030154101515611e90578091505b5b5b611ea0565b600193508091505b5b8080600101915050611ce8565b8315611f3157600382815481101515611ec257fe5b9060005260206000200160009054906101000a900473ffffffffffffffffffffffffffffffffffffffff169450600260008673ffffffffffffffffffffffffffffffffffffffff1673ffffffffffffffffffffffffffffffffffffffff16815260200190815260200160002095505b505050909192565b600a544201600f81905550565b6000600381611f5591906129fb565b50565b600080600090505b826000018054905081101561207a57600460009054906101000a900473ffffffffffffffffffffffffffffffffffffffff1673ffffffffffffffffffffffffffffffffffffffff16637d20abf88460000183815481101515611fbe57fe5b90600052602060002001546040518263ffffffff167c0100000000000000000000000000000000000000000000000000000000028152600401808260001916600019168152602001915050602060405180830381600087803b15801561202357600080fd5b505af1158015612037573d6000803e3d6000fd5b505050506040513d602081101561204d57600080fd5b8101908080519060200190929190505050151561206d576001915061207f565b8080600101915050611f60565b600091505b50919050565b600080600080600092505b846000018054905083101561229e57600460009054906101000a900473ffffffffffffffffffffffffffffffffffffffff1673ffffffffffffffffffffffffffffffffffffffff16638eaa6ac086600001858154811015156120ee57fe5b90600052602060002001546040518263ffffffff167c0100000000000000000000000000000000000000000000000000000000028152600401808260001916600019168152602001915050602060405180830381600087803b15801561215357600080fd5b505af1158015612167573d6000803e3d6000fd5b505050506040513d602081101561217d57600080fd5b81019080805190602001909291905050509150600082141561219e57612291565b84600101600086600001858154811015156121b557fe5b9060005260206000200154600019166000191681526020019081526020016000205482101561221e578185600101600087600001868154811015156121f657fe5b906000526020600020015460001916600019168152602001908152602001600020540361225a565b846001016000866000018581548110151561223557fe5b9060005260206000200154600019166000191681526020019081526020016000205482035b9050612280856000018481548110151561227057fe5b90600052602060002001546126ae565b81111561229057600193506122a3565b5b8280600101935050612090565b600093505b505050919050565b600080600090505b826000018054905081101561241b57600460009054906101000a900473ffffffffffffffffffffffffffffffffffffffff1673ffffffffffffffffffffffffffffffffffffffff1660405180807f73657428627974657333322c75696e7432353629000000000000000000000000815250601401905060405180910390207c01000000000000000000000000000000000000000000000000000000009004846000018381548110151561236257fe5b9060005260206000200154856001016000876000018681548110151561238457fe5b906000526020600020015460001916600019168152602001908152602001600020546040518363ffffffff167c0100000000000000000000000000000000000000000000000000000000028152600401808360001916600019168152602001828152602001925050506000604051808303816000875af192505050151561240e5760009150612420565b80806001019150506122b3565b600191505b50919050565b600073ffffffffffffffffffffffffffffffffffffffff168173ffffffffffffffffffffffffffffffffffffffff161415151561246257600080fd5b61246c82826110ce565b15151561247857600080fd5b60018260000160008373ffffffffffffffffffffffffffffffffffffffff1673ffffffffffffffffffffffffffffffffffffffff16815260200190815260200160002060006101000a81548160ff0219169083151502179055505050565b6060806000806000806003805490506040519080825280602002602001820160405280156125135781602001602082028038833980820191505090505b509450600093505b6001600380549050038410156126a3576002600060038681548110151561253e57fe5b9060005260206000200160009054906101000a900473ffffffffffffffffffffffffffffffffffffffff1673ffffffffffffffffffffffffffffffffffffffff1673ffffffffffffffffffffffffffffffffffffffff16815260200190815260200160002092506001840191505b60038054905082101561269657600260006003848154811015156125cc57fe5b9060005260206000200160009054906101000a900473ffffffffffffffffffffffffffffffffffffffff1673ffffffffffffffffffffffffffffffffffffffff1673ffffffffffffffffffffffffffffffffffffffff168152602001908152602001600020905061263d838261270c565b1561268957848481518110151561265057fe5b906020019060200201805180919060010181525050848281518110151561267357fe5b9060200190602002018051809190600101815250505b81806001019250506125ac565b838060010194505061251b565b849550505050505090565b600060096000836000191660001916815260200190815260200160002060009054906101000a900460ff161561270157600860008360001916600019168152602001908152602001600020549050612707565b60075490505b919050565b600080600083600001805490508560000180549050141561293d57600091505b846000018054905082101561293457836002016000866000018481548110151561275257fe5b90600052602060002001546000191660001916815260200190815260200160002060009054906101000a900460ff161561291e57836001016000866000018481548110151561279d57fe5b9060005260206000200154600019166000191681526020019081526020016000205485600101600087600001858154811015156127d657fe5b90600052602060002001546000191660001916815260200190815260200160002054101561287657846001016000866000018481548110151561281557fe5b90600052602060002001546000191660001916815260200190815260200160002054846001016000876000018581548110151561284e57fe5b90600052602060002001546000191660001916815260200190815260200160002054036128ea565b836001016000866000018481548110151561288d57fe5b9060005260206000200154600019166000191681526020019081526020016000205485600101600087600001858154811015156128c657fe5b90600052602060002001546000191660001916815260200190815260200160002054035b9050612910856000018381548110151561290057fe5b906000526020600020015461294a565b8111151561291d57612927565b5b60009250612942565b818060010192505061272c565b60019250612942565b600092505b505092915050565b6000600d6000836000191660001916815260200190815260200160002060009054906101000a900460ff161561299d57600c600083600019166000191681526020019081526020016000205490506129a3565b600b5490505b919050565b8280548282559060005260206000209081019282156129ea579160200282015b828111156129e95782518290600019169055916020019190600101906129c8565b5b5090506129f79190612a27565b5090565b815481835581811115612a2257818360005260206000209182019101612a219190612a4c565b5b505050565b612a4991905b80821115612a45576000816000905550600101612a2d565b5090565b90565b612a6e91905b80821115612a6a576000816000905550600101612a52565b5090565b905600a165627a7a723058206541659b6a92314d6f8e11ab23cf754e90e806db736a5bd0f4a3f7450d6a49bf0029",
  "source": "pragma solidity 0.4.24;\n\nimport \"./IRates.sol\";\nimport \"../access/roles/IAdminRole.sol\";\nimport \"../access/roles/AdminRole.sol\";\nimport \"../access/roles/ISuggestorRole.sol\";\nimport \"../access/roles/SuggestorRole.sol\";\n\n\ncontract RatesGuard is IAdminRole, ISuggestorRole, AdminRole, SuggestorRole {\n    enum FailCase { NO_BEST_SUGGESTION, TOO_BIG_DIFF_FROM_PREVIOUSLY_RATE, SYMBOLS_MISMATCH, CONFIRM_SUGGESTION_FAIL }\n\n    struct Suggestion {\n        bytes32[] symbols;\n        mapping(bytes32 => uint) rate;\n        mapping(bytes32 => bool) has;\n        uint timestamp;\n    }\n\n    mapping(address => Suggestion) private suggestions;\n    address[] private suggestors;\n\n    IRates public rates;\n    uint public validationTriggerCondition;\n    uint public minSuggestionMatch;\n    uint public diffPrevTolerant;\n    mapping(bytes32 => uint) public diffPrevTolerantForSymbol;\n    mapping(bytes32 => bool) public hasDiffPrevTolerantForSymbol;\n    uint public lockOnFailTimeout;\n    uint public diffTolerant;\n    mapping(bytes32 => uint) public diffTolerantForSymbol;\n    mapping(bytes32 => bool) public hasDiffTolerantForSymbol;\n    uint public expireTimeout;\n    uint public lockUntil;\n\n    event Fail(FailCase indexed failCase);\n\n    event SuggestionConfirmed(address indexed suggestor);\n\n    event SuggestionAccepted(address indexed suggestor);\n\n    event SettingUpdated(\n        address indexed updater,\n        address rates,\n        uint validationTriggerCondition,\n        uint minSuggestionMatch,\n        uint diffPrevTolerant,\n        uint lockOnFailTimeout,\n        uint diffTolerant,\n        uint expireTimeout\n    );\n\n    event DiffTolerantForSymbolsUpdated(address indexed updater, bytes32 symbol, uint value);\n\n    event DiffTolerantForSymbolsRemoved(address indexed remover, bytes32 symbol);\n\n    event DiffPrevTolerantForSymbolsUpdated(address indexed updater, bytes32 symbol, uint value);\n\n    event DiffPrevTolerantForSymbolsRemoved(address indexed remover, bytes32 symbol);\n\n    constructor(\n        IRates _rates,\n        uint _validationTriggerCondition,\n        uint _minSuggestionMatch,\n        uint _diffPrevTolerant,\n        uint _lockOnFailTimeout,\n        uint _diffTolerant,\n        uint _expireTimeout,\n        address[] _suggestors\n    ) public {\n        _setRates(_rates);\n        _setValidationTriggerCondition(_validationTriggerCondition);\n        _setMinSuggestionMatch(_minSuggestionMatch);\n        _setDiffPrevTolerant(_diffPrevTolerant);\n        _setLockOnFailTimeout(_lockOnFailTimeout);\n        _setDiffTolerant(_diffTolerant);\n        _setExpireTimeout(_expireTimeout);\n        _emitSettingsUpdateEvent();\n        renounceSuggestor();\n        bulkAddSuggestor(_suggestors);\n    }\n\n    function setRates(IRates _rates) public {\n        _setRates(_rates);\n        _emitSettingsUpdateEvent();\n    }\n\n    function setValidationTriggerCondition(uint value) public {\n        _setValidationTriggerCondition(value);\n        _emitSettingsUpdateEvent();\n    }\n\n    function setMinSuggestionMatch(uint value) public {\n        _setMinSuggestionMatch(value);\n        _emitSettingsUpdateEvent();\n    }\n\n    function setDiffPrevTolerant(uint value) public {\n        _setDiffPrevTolerant(value);\n        _emitSettingsUpdateEvent();\n    }\n\n    function setDiffPrevTolerantForSymbol(bytes32 symbol, uint value) public {\n        diffPrevTolerantForSymbol[symbol] = value;\n        hasDiffPrevTolerantForSymbol[symbol] = true;\n        emit DiffPrevTolerantForSymbolsUpdated(msg.sender, symbol, value);\n    }\n\n    function unsetDiffPrevTolerantForSymbol(bytes32 symbol) public {\n        diffPrevTolerantForSymbol[symbol] = 0;\n        hasDiffPrevTolerantForSymbol[symbol] = false;\n        emit DiffPrevTolerantForSymbolsRemoved(msg.sender, symbol);\n    }\n\n    function setLockOnFailTimeout(uint value) public {\n        _setLockOnFailTimeout(value);\n        _emitSettingsUpdateEvent();\n    }\n\n    function setDiffTolerant(uint value) public {\n        _setDiffTolerant(value);\n        _emitSettingsUpdateEvent();\n    }\n\n    function setDiffTolerantForSymbol(bytes32 symbol, uint value) public {\n        diffTolerantForSymbol[symbol] = value;\n        hasDiffTolerantForSymbol[symbol] = true;\n        emit DiffTolerantForSymbolsUpdated(msg.sender, symbol, value);\n    }\n\n    function unsetDiffTolerantForSymbol(bytes32 symbol) public {\n        diffTolerantForSymbol[symbol] = 0;\n        hasDiffTolerantForSymbol[symbol] = false;\n        emit DiffTolerantForSymbolsRemoved(msg.sender, symbol);\n    }\n\n    function setExpireTimeout(uint value) public {\n        _setExpireTimeout(value);\n        _emitSettingsUpdateEvent();\n    }\n\n    function addAdmin(address account) public onlyAdmin {\n        _addAdmin(account);\n    }\n\n    function removeAdmin(address account) public onlyAdmin {\n        _removeAdmin(account);\n    }\n\n    function addSuggestor(address account) public onlyAdmin {\n        _addSuggestor(account);\n    }\n\n    function bulkAddSuggestor(address[] _suggestors) public onlyAdmin {\n        for (uint i = 0; i < _suggestors.length; i++) {\n            addSuggestor(_suggestors[i]);\n        }\n    }\n\n    function removeSuggestor(address account) public onlyAdmin {\n        _removeSuggestor(account);\n    }\n\n    function suggest(bytes32[] symbols, uint[] rateValues) public onlySuggestor {\n        require(!isLocked());\n\n        _addSuggestion(msg.sender, symbols, rateValues);\n        _runPostProcessing();\n    }\n\n    function isLocked() public view returns (bool) {\n        return now < lockUntil;\n    }\n\n    function _setRates(IRates _rates) internal {\n        require(address(_rates) != address(0));\n        rates = _rates;\n    }\n\n    function _setValidationTriggerCondition(uint value) internal {\n        require(value > 1);\n        validationTriggerCondition = value;\n    }\n\n    function _setMinSuggestionMatch(uint value) internal {\n        require(value > 0);\n        minSuggestionMatch = value;\n    }\n\n    function _setDiffPrevTolerant(uint value) internal {\n        diffPrevTolerant = value;\n    }\n\n    function _setDiffTolerant(uint value) internal {\n        diffTolerant = value;\n    }\n\n    function _setLockOnFailTimeout(uint value) internal {\n        lockOnFailTimeout = value;\n    }\n\n    function _setExpireTimeout(uint value) internal {\n        expireTimeout = value;\n    }\n\n    function _emitSettingsUpdateEvent() internal {\n        emit SettingUpdated(\n            msg.sender,\n            address(rates),\n            validationTriggerCondition,\n            minSuggestionMatch,\n            diffPrevTolerant,\n            lockOnFailTimeout,\n            diffTolerant,\n            expireTimeout\n        );\n    }\n\n    function _addSuggestion(address suggestor, bytes32[] symbols, uint[] rateValues) internal {\n        require(symbols.length != 0);\n        require(symbols.length == rateValues.length);\n\n        uint i;\n\n        for (i = 0; i < suggestions[suggestor].symbols.length; i++) {\n            suggestions[suggestor].has[suggestions[suggestor].symbols[i]] = false;\n        }\n\n        suggestions[suggestor].symbols = symbols;\n        suggestions[suggestor].timestamp = now;\n\n        for (i = 0; i < symbols.length; i++) {\n            suggestions[suggestor].has[symbols[i]] = true;\n            suggestions[suggestor].rate[symbols[i]] = rateValues[i];\n        }\n\n        emit SuggestionAccepted(suggestor);\n\n        for (i = 0; i < suggestors.length; i++) {\n            if (suggestors[i] == suggestor) {\n                // push to the and of the list and save add/update order\n                if (i != suggestors.length + 1) {\n                    address tmp = suggestors[i];\n                    for (uint ii = i; ii < suggestors.length - 1; ii++) {\n                        suggestors[ii] = suggestors[ii + 1];\n                    }\n                    suggestors[suggestors.length - 1] = tmp;\n                }\n                return;\n            }\n        }\n\n        suggestors.push(suggestor);\n    }\n\n    function _clearSuggestions() internal {\n        suggestors.length = 0;\n    }\n\n    function _runPostProcessing() internal {\n        _removeExpired();\n\n        if (suggestors.length != validationTriggerCondition) {\n            return;\n        }\n\n        (Suggestion storage _suggestion, address suggestor, bool found) = _findBestSuggestion();\n\n        if (!found) {\n            _lock();\n            _clearSuggestions();\n            emit Fail(FailCase.NO_BEST_SUGGESTION);\n            return;\n        }\n\n        if (_isMismatchSymbols(_suggestion)) {\n            _lock();\n            _clearSuggestions();\n            emit Fail(FailCase.SYMBOLS_MISMATCH);\n            return;\n        }\n\n        if (_isTooBigFromPrev(_suggestion)) {\n            _lock();\n            _clearSuggestions();\n            emit Fail(FailCase.TOO_BIG_DIFF_FROM_PREVIOUSLY_RATE);\n            return;\n        }\n\n        if (!_confirmSuggestion(_suggestion)) {\n            _lock();\n            _clearSuggestions();\n            emit Fail(FailCase.CONFIRM_SUGGESTION_FAIL);\n            return;\n        }\n\n        _clearSuggestions();\n\n        emit SuggestionConfirmed(suggestor);\n    }\n\n    function _lock() internal {\n        lockUntil = now + lockOnFailTimeout;\n    }\n\n    function _confirmSuggestion(Suggestion storage _suggestion) internal returns(bool) {\n        for (uint i = 0; i < _suggestion.symbols.length; i++) {\n            // solhint-disable-next-line avoid-low-level-calls\n            if (!address(rates).call(\n                bytes4(keccak256(\"set(bytes32,uint256)\")),\n                _suggestion.symbols[i],\n                _suggestion.rate[_suggestion.symbols[i]])) {\n                return false;\n            }\n        }\n        return true;\n    }\n\n    function _isTooBigFromPrev(Suggestion storage _suggestion) internal view returns(bool) {\n        for (uint i = 0; i < _suggestion.symbols.length; i++) {\n            uint prev = rates.get(_suggestion.symbols[i]);\n            // skip if rate was not assigned yet\n            if (prev == 0) continue;\n            uint diff = prev >= _suggestion.rate[_suggestion.symbols[i]]\n                ? prev - _suggestion.rate[_suggestion.symbols[i]]\n                : _suggestion.rate[_suggestion.symbols[i]] - prev;\n            if (diff > _getDiffPrevTolerant(_suggestion.symbols[i])) {\n                return true;\n            }\n        }\n        return false;\n    }\n\n    function _isMismatchSymbols(Suggestion storage _suggestion)  internal view returns(bool) {\n        for (uint i = 0; i < _suggestion.symbols.length; i++) {\n            if (!rates.hasSymbol(_suggestion.symbols[i])) {\n                return true;\n            }\n        }\n        return false;\n    }\n\n    function _removeExpired() internal {\n        if (expireTimeout != 0) {\n            uint lncut = 0;\n            for (uint i  = 0; i < suggestors.length; i++) {\n                uint diff = now - suggestions[suggestors[i]].timestamp + 1;\n                if (expireTimeout >= diff) {\n                    if (i != suggestors.length - 1) {\n                        suggestors[i] = suggestors[suggestors.length - 1];\n                    }\n                    lncut++;\n                }\n            }\n            suggestors.length = suggestors.length - lncut;\n        }\n    }\n\n    function _getMatchingPointsTable() internal view returns (uint[]) {\n        uint[] memory table = new uint[](suggestors.length);\n\n        for (uint i = 0; i < suggestors.length - 1; i++) {\n            Suggestion storage current = suggestions[suggestors[i]];\n            for (uint ii = i + 1; ii < suggestors.length; ii++) {\n                Suggestion storage next = suggestions[suggestors[ii]];\n                if (_isMatch(current, next)) {\n                    table[i]++;\n                    table[ii]++;\n                }\n            }\n        }\n\n        return table;\n    }\n\n    // event TableDebug(uint[] table);\n    // solhint-disable code-complexity\n    function _findBestSuggestion() internal view returns(Suggestion storage result, address suggestor, bool found) {\n        uint[] memory table = _getMatchingPointsTable();\n        uint last;\n\n        // emit TableDebug(table);\n\n        for (uint i = 0; i < table.length; i++) {\n            if (table[i] >= minSuggestionMatch) {\n                if (found) {\n                    if (table[i] > table[last]) {\n                        last = i;\n                    } else if (table[i] == table[last]) {\n                        // take most recent by timestamp or by add/update order\n                        if (suggestions[suggestors[i]].timestamp >= suggestions[suggestors[last]].timestamp) {\n                            last = i;\n                        }\n                    }\n                    continue;\n                }\n                found = true;\n                last = i;\n            }\n        }\n\n        if (found) {\n            suggestor = suggestors[last];\n            result = suggestions[suggestor];\n        }\n    }\n    // solhint-enable code-complexity\n\n    function _isMatch(Suggestion storage a, Suggestion storage b) internal view returns(bool) {\n        if (a.symbols.length == b.symbols.length) {\n            for (uint i = 0; i < a.symbols.length; i++) {\n                if (b.has[a.symbols[i]]) {\n                    uint diff = a.rate[a.symbols[i]] >= b.rate[a.symbols[i]]\n                        ? a.rate[a.symbols[i]] - b.rate[a.symbols[i]]\n                        : b.rate[a.symbols[i]] - a.rate[a.symbols[i]];\n                    if (diff <= _getDiffTolerant(a.symbols[i])) {\n                        continue;\n                    }\n                }\n                return false;\n            }\n            return true;\n        }\n        return false;\n    }\n\n    function _getDiffTolerant(bytes32 symbol) internal view returns(uint) {\n        if (hasDiffTolerantForSymbol[symbol]) {\n            return diffTolerantForSymbol[symbol];\n        } else {\n            return diffTolerant;\n        }\n    }\n\n    function _getDiffPrevTolerant(bytes32 symbol) internal view returns (uint) {\n        if (hasDiffPrevTolerantForSymbol[symbol]) {\n            return diffPrevTolerantForSymbol[symbol];\n        } else {\n            return diffPrevTolerant;\n        }\n    }\n}\n",
  "sourcePath": "/Users/gauss/_games/w12/Protocol/contracts/rates/RatesGuard.sol",
  "compiler": {
    "name": "solc",
    "version": "0.4.24+commit.e67f0147.Emscripten.clang"
  },
  "schemaVersion": "3.0.16",
  "updatedAt": "2019-10-06T23:01:14.754Z"
}