{
  "contractName": "RatesGuard__RatesMock",
  "abi": [
    {
      "constant": true,
      "inputs": [
        {
          "name": "",
          "type": "uint256"
        }
      ],
      "name": "symbolsList",
      "outputs": [
        {
          "name": "",
          "type": "bytes32"
        }
      ],
      "payable": false,
      "stateMutability": "view",
      "type": "function"
    },
    {
      "constant": false,
      "inputs": [
        {
          "name": "symbol",
          "type": "bytes32"
        },
        {
          "name": "_address",
          "type": "address"
        }
      ],
      "name": "addSymbolWithTokenAddress",
      "outputs": [],
      "payable": false,
      "stateMutability": "nonpayable",
      "type": "function"
    },
    {
      "constant": false,
      "inputs": [
        {
          "name": "symbol",
          "type": "bytes32"
        },
        {
          "name": "_address",
          "type": "address"
        }
      ],
      "name": "setTokenAddress",
      "outputs": [],
      "payable": false,
      "stateMutability": "nonpayable",
      "type": "function"
    },
    {
      "constant": true,
      "inputs": [
        {
          "name": "symbol",
          "type": "bytes32"
        }
      ],
      "name": "getTokenAddress",
      "outputs": [
        {
          "name": "",
          "type": "address"
        }
      ],
      "payable": false,
      "stateMutability": "view",
      "type": "function"
    },
    {
      "constant": true,
      "inputs": [
        {
          "name": "symbol",
          "type": "bytes32"
        }
      ],
      "name": "isToken",
      "outputs": [
        {
          "name": "",
          "type": "bool"
        }
      ],
      "payable": false,
      "stateMutability": "view",
      "type": "function"
    },
    {
      "constant": false,
      "inputs": [
        {
          "name": "symbol",
          "type": "bytes32"
        },
        {
          "name": "rate",
          "type": "uint256"
        }
      ],
      "name": "_get",
      "outputs": [],
      "payable": false,
      "stateMutability": "nonpayable",
      "type": "function"
    },
    {
      "constant": true,
      "inputs": [
        {
          "name": "symbol",
          "type": "bytes32"
        }
      ],
      "name": "get",
      "outputs": [
        {
          "name": "",
          "type": "uint256"
        }
      ],
      "payable": false,
      "stateMutability": "view",
      "type": "function"
    },
    {
      "constant": true,
      "inputs": [],
      "name": "_setCallResult",
      "outputs": [
        {
          "name": "",
          "type": "bytes32[]"
        },
        {
          "name": "",
          "type": "uint256[]"
        }
      ],
      "payable": false,
      "stateMutability": "view",
      "type": "function"
    },
    {
      "constant": false,
      "inputs": [
        {
          "name": "flag",
          "type": "bool"
        }
      ],
      "name": "_setRevertEnabled",
      "outputs": [],
      "payable": false,
      "stateMutability": "nonpayable",
      "type": "function"
    },
    {
      "constant": false,
      "inputs": [
        {
          "name": "symbol",
          "type": "bytes32"
        },
        {
          "name": "rate",
          "type": "uint256"
        }
      ],
      "name": "set",
      "outputs": [],
      "payable": false,
      "stateMutability": "nonpayable",
      "type": "function"
    },
    {
      "constant": false,
      "inputs": [
        {
          "name": "symbol",
          "type": "bytes32"
        }
      ],
      "name": "addSymbol",
      "outputs": [],
      "payable": false,
      "stateMutability": "nonpayable",
      "type": "function"
    },
    {
      "constant": false,
      "inputs": [
        {
          "name": "symbol",
          "type": "bytes32"
        }
      ],
      "name": "removeSymbol",
      "outputs": [],
      "payable": false,
      "stateMutability": "nonpayable",
      "type": "function"
    },
    {
      "constant": false,
      "inputs": [
        {
          "name": "symbol",
          "type": "bytes32"
        },
        {
          "name": "flag",
          "type": "bool"
        }
      ],
      "name": "_hasSymbol",
      "outputs": [],
      "payable": false,
      "stateMutability": "nonpayable",
      "type": "function"
    },
    {
      "constant": true,
      "inputs": [
        {
          "name": "symbol",
          "type": "bytes32"
        }
      ],
      "name": "hasSymbol",
      "outputs": [
        {
          "name": "",
          "type": "bool"
        }
      ],
      "payable": false,
      "stateMutability": "view",
      "type": "function"
    },
    {
      "constant": true,
      "inputs": [],
      "name": "getSymbolsList",
      "outputs": [
        {
          "name": "",
          "type": "bytes32[]"
        }
      ],
      "payable": false,
      "stateMutability": "view",
      "type": "function"
    },
    {
      "constant": true,
      "inputs": [
        {
          "name": "account",
          "type": "address"
        }
      ],
      "name": "isPricer",
      "outputs": [
        {
          "name": "",
          "type": "bool"
        }
      ],
      "payable": false,
      "stateMutability": "view",
      "type": "function"
    },
    {
      "constant": false,
      "inputs": [
        {
          "name": "account",
          "type": "address"
        }
      ],
      "name": "addPricer",
      "outputs": [],
      "payable": false,
      "stateMutability": "nonpayable",
      "type": "function"
    },
    {
      "constant": false,
      "inputs": [
        {
          "name": "account",
          "type": "address"
        }
      ],
      "name": "removePricer",
      "outputs": [],
      "payable": false,
      "stateMutability": "nonpayable",
      "type": "function"
    },
    {
      "constant": false,
      "inputs": [],
      "name": "renouncePricer",
      "outputs": [],
      "payable": false,
      "stateMutability": "nonpayable",
      "type": "function"
    }
  ],
  "bytecode": "0x608060405234801561001057600080fd5b50610659806100206000396000f3006080604052600436106101065763ffffffff7c01000000000000000000000000000000000000000000000000000000006000350416631b71a9db811461010b578063273f494014610125578063289e029b1461010b5780633ada83d014610140578063451a5e65146101ee57806350b49f2d1461021c5780636b8431d41461024657806379d44573146101ee5780637d20abf8146102775780638eaa6ac0146102a357806396fd23a5146102bb5780639ce2a479146102d0578063b12e4410146102eb578063b2ac0da71461032c578063c5378b4f14610349578063cfec719f14610363578063e5da831f1461037b578063e9217944146103e0578063e97aed3c14610246575b600080fd5b34801561011757600080fd5b5061012360043561040e565b005b34801561013157600080fd5b50610123600435602435610411565b34801561014c57600080fd5b50610155610497565b604051808060200180602001838103835285818151815260200191508051906020019060200280838360005b83811015610199578181015183820152602001610181565b50505050905001838103825284818151815260200191508051906020019060200280838360005b838110156101d85781810151838201526020016101c0565b5050505090500194505050505060405180910390f35b3480156101fa57600080fd5b5061012373ffffffffffffffffffffffffffffffffffffffff6004351661040e565b34801561022857600080fd5b50610234600435610591565b60408051918252519081900360200190f35b34801561025257600080fd5b5061012360043573ffffffffffffffffffffffffffffffffffffffff602435166105b0565b34801561028357600080fd5b5061028f6004356105b4565b604080519115158252519081900360200190f35b3480156102af57600080fd5b506102346004356105c9565b3480156102c757600080fd5b506101236105db565b3480156102dc57600080fd5b506101236004356024356105dd565b3480156102f757600080fd5b506103036004356105ef565b6040805173ffffffffffffffffffffffffffffffffffffffff9092168252519081900360200190f35b34801561033857600080fd5b5061012360043560243515156105f5565b34801561035557600080fd5b506101236004351515610615565b34801561036f57600080fd5b5061028f6004356105ef565b34801561038757600080fd5b50610390610628565b60408051602080825283518183015283519192839290830191858101910280838360005b838110156103cc5781810151838201526020016103b4565b505050509050019250505060405180910390f35b3480156103ec57600080fd5b5061028f73ffffffffffffffffffffffffffffffffffffffff600435166105ef565b50565b60035460ff161561042157600080fd5b6040805180820190915291825260208201908152600280546001810182556000829052925192027f405787fa12a823e0f2b7631cc41b3ba8828b3321ca811111fa75cd3aa3bb5ace810192909255517f405787fa12a823e0f2b7631cc41b3ba8828b3321ca811111fa75cd3aa3bb5acf90910155565b60608060608060006002805490506040519080825280602002602001820160405280156104ce578160200160208202803883390190505b5060025460408051828152602080840282010190915291945080156104fd578160200160208202803883390190505b509150600090505b60025481101561058757600280548290811061051d57fe5b906000526020600020906002020160000154838281518110151561053d57fe5b60209081029091010152600280548290811061055557fe5b906000526020600020906002020160010154828281518110151561057557fe5b60209081029091010152600101610505565b5090939092509050565b600080548290811061059f57fe5b600091825260209091200154905081565b5050565b60009081526004602052604090205460ff1690565b60009081526001602052604090205490565b565b60009182526001602052604090912055565b50600090565b600091825260046020526040909120805460ff1916911515919091179055565b6003805460ff1916911515919091179055565b6060905600a165627a7a72305820a411f1ef89f69c6af5a51f5c3cd8a6df836443804829684321aa26ee532331690029",
  "source": "pragma solidity ^0.4.24;\n\nimport \"../../rates/IRates.sol\";\n\ncontract RatesGuard__RatesMock is IRates {\n    function addSymbolWithTokenAddress(bytes32 symbol, address _address) public {}\n\n    function setTokenAddress(bytes32 symbol, address _address) public {}\n\n    function getTokenAddress(bytes32 symbol) public view returns (address) {}\n\n    function isToken(bytes32 symbol) public view returns (bool) {}\n\n    mapping(bytes32 => uint) __rates;\n\n    function _get(bytes32 symbol, uint rate) public {\n        __rates[symbol] = rate;\n    }\n\n    function get(bytes32 symbol) public view returns (uint) {\n        return __rates[symbol];\n    }\n\n    struct SetCall {\n        bytes32 symbol;\n        uint rate;\n    }\n\n    SetCall[] __setCall;\n\n    bool __setRevertEnabled;\n\n    function _setCallResult() public view returns(bytes32[], uint[]) {\n        bytes32[] memory symbols = new bytes32[](__setCall.length);\n        uint[] memory rates = new uint[](__setCall.length);\n\n        for(uint i = 0; i < __setCall.length; i++) {\n            symbols[i] = __setCall[i].symbol;\n            rates[i] = __setCall[i].rate;\n        }\n\n        return (symbols, rates);\n    }\n\n    function _setRevertEnabled(bool flag) public {\n        __setRevertEnabled = flag;\n    }\n\n    function set(bytes32 symbol, uint rate) public {\n        if (__setRevertEnabled) revert();\n        __setCall.push(SetCall(symbol, rate));\n    }\n\n    function addSymbol(bytes32 symbol) public {}\n\n    function removeSymbol(bytes32 symbol) public {}\n\n    mapping(bytes32 => bool) __hasSymbol;\n\n    function _hasSymbol(bytes32 symbol, bool flag) public {\n        __hasSymbol[symbol] = flag;\n    }\n\n    function hasSymbol(bytes32 symbol) public view returns (bool) {\n        return __hasSymbol[symbol];\n    }\n\n    function getSymbolsList() public view returns (bytes32[]) {}\n\n    function isPricer(address account) public view returns (bool) {}\n\n    function addPricer(address account) public {}\n\n    function removePricer(address account) public {}\n\n    function renouncePricer() public {}\n}\n",
  "sourcePath": "/home/circleci/code/contracts/mocks/rates/RatesGuard__RatesMock.sol",
  "compiler": {
    "name": "solc",
    "version": "0.4.24+commit.e67f0147.Emscripten.clang"
  },
  "schemaVersion": "2.0.1",
  "updatedAt": "2018-12-12T11:12:42.869Z"
}