{
  "contractName": "Rates",
  "abi": [
    {
      "constant": true,
      "inputs": [
        {
          "name": "",
          "type": "uint256"
        }
      ],
      "name": "symbolsList",
      "outputs": [
        {
          "name": "",
          "type": "bytes32"
        }
      ],
      "payable": false,
      "stateMutability": "view",
      "type": "function"
    },
    {
      "constant": false,
      "inputs": [],
      "name": "renounceOwnership",
      "outputs": [],
      "payable": false,
      "stateMutability": "nonpayable",
      "type": "function"
    },
    {
      "constant": true,
      "inputs": [
        {
          "name": "symbol",
          "type": "bytes32"
        }
      ],
      "name": "hasSymbol",
      "outputs": [
        {
          "name": "",
          "type": "bool"
        }
      ],
      "payable": false,
      "stateMutability": "view",
      "type": "function"
    },
    {
      "constant": true,
      "inputs": [],
      "name": "owner",
      "outputs": [
        {
          "name": "",
          "type": "address"
        }
      ],
      "payable": false,
      "stateMutability": "view",
      "type": "function"
    },
    {
      "constant": true,
      "inputs": [],
      "name": "getSymbolsList",
      "outputs": [
        {
          "name": "",
          "type": "bytes32[]"
        }
      ],
      "payable": false,
      "stateMutability": "view",
      "type": "function"
    },
    {
      "constant": true,
      "inputs": [
        {
          "name": "account",
          "type": "address"
        }
      ],
      "name": "isPricer",
      "outputs": [
        {
          "name": "",
          "type": "bool"
        }
      ],
      "payable": false,
      "stateMutability": "view",
      "type": "function"
    },
    {
      "constant": false,
      "inputs": [
        {
          "name": "_newOwner",
          "type": "address"
        }
      ],
      "name": "transferOwnership",
      "outputs": [],
      "payable": false,
      "stateMutability": "nonpayable",
      "type": "function"
    },
    {
      "anonymous": false,
      "inputs": [
        {
          "indexed": true,
          "name": "previousOwner",
          "type": "address"
        }
      ],
      "name": "OwnershipRenounced",
      "type": "event"
    },
    {
      "anonymous": false,
      "inputs": [
        {
          "indexed": true,
          "name": "previousOwner",
          "type": "address"
        },
        {
          "indexed": true,
          "name": "newOwner",
          "type": "address"
        }
      ],
      "name": "OwnershipTransferred",
      "type": "event"
    },
    {
      "anonymous": false,
      "inputs": [
        {
          "indexed": true,
          "name": "account",
          "type": "address"
        }
      ],
      "name": "PricerAdded",
      "type": "event"
    },
    {
      "anonymous": false,
      "inputs": [
        {
          "indexed": true,
          "name": "account",
          "type": "address"
        }
      ],
      "name": "PricerRemoved",
      "type": "event"
    },
    {
      "constant": false,
      "inputs": [
        {
          "name": "symbol",
          "type": "bytes32"
        }
      ],
      "name": "addSymbol",
      "outputs": [],
      "payable": false,
      "stateMutability": "nonpayable",
      "type": "function"
    },
    {
      "constant": false,
      "inputs": [
        {
          "name": "symbol",
          "type": "bytes32"
        }
      ],
      "name": "removeSymbol",
      "outputs": [],
      "payable": false,
      "stateMutability": "nonpayable",
      "type": "function"
    },
    {
      "constant": false,
      "inputs": [
        {
          "name": "account",
          "type": "address"
        }
      ],
      "name": "addPricer",
      "outputs": [],
      "payable": false,
      "stateMutability": "nonpayable",
      "type": "function"
    },
    {
      "constant": false,
      "inputs": [
        {
          "name": "account",
          "type": "address"
        }
      ],
      "name": "removePricer",
      "outputs": [],
      "payable": false,
      "stateMutability": "nonpayable",
      "type": "function"
    },
    {
      "constant": true,
      "inputs": [
        {
          "name": "symbol",
          "type": "bytes32"
        }
      ],
      "name": "get",
      "outputs": [
        {
          "name": "",
          "type": "uint256"
        }
      ],
      "payable": false,
      "stateMutability": "view",
      "type": "function"
    },
    {
      "constant": false,
      "inputs": [
        {
          "name": "symbol",
          "type": "bytes32"
        },
        {
          "name": "rate",
          "type": "uint256"
        }
      ],
      "name": "set",
      "outputs": [],
      "payable": false,
      "stateMutability": "nonpayable",
      "type": "function"
    }
  ],
  "bytecode": "0x608060405261001c33610062640100000000026401000000009004565b33600460006101000a81548173ffffffffffffffffffffffffffffffffffffffff021916908373ffffffffffffffffffffffffffffffffffffffff160217905550610163565b600073ffffffffffffffffffffffffffffffffffffffff168173ffffffffffffffffffffffffffffffffffffffff161415151561009e57600080fd5b6100bf81600361010564010000000002610cf4179091906401000000009004565b8073ffffffffffffffffffffffffffffffffffffffff167f02edb648fd57120edd0afed403c9fbc3205997fd07c01b3db9e1ed05647e9ebe60405160405180910390a250565b60018260000160008373ffffffffffffffffffffffffffffffffffffffff1673ffffffffffffffffffffffffffffffffffffffff16815260200190815260200160002060006101000a81548160ff0219169083151502179055505050565b610e2d806101726000396000f3006080604052600436106100c5576000357c0100000000000000000000000000000000000000000000000000000000900463ffffffff1680631b71a9db146100ca578063273f4940146100fb578063289e029b14610136578063451a5e651461016757806350b49f2d146101aa578063715018a6146101f357806379d445731461020a5780637d20abf81461024d5780638da5cb5b146102965780638eaa6ac0146102ed578063e5da831f14610332578063e92179441461039e578063f2fde38b146103f9575b600080fd5b3480156100d657600080fd5b506100f9600480360381019080803560001916906020019092919050505061043c565b005b34801561010757600080fd5b5061013460048036038101908080356000191690602001909291908035906020019092919050505061047d565b005b34801561014257600080fd5b5061016560048036038101908080356000191690602001909291905050506104c9565b005b34801561017357600080fd5b506101a8600480360381019080803573ffffffffffffffffffffffffffffffffffffffff1690602001909291905050506104e9565b005b3480156101b657600080fd5b506101d560048036038101908080359060200190929190505050610551565b60405180826000191660001916815260200191505060405180910390f35b3480156101ff57600080fd5b50610208610574565b005b34801561021657600080fd5b5061024b600480360381019080803573ffffffffffffffffffffffffffffffffffffffff169060200190929190505050610679565b005b34801561025957600080fd5b5061027c60048036038101908080356000191690602001909291905050506106e1565b604051808215151515815260200191505060405180910390f35b3480156102a257600080fd5b506102ab610713565b604051808273ffffffffffffffffffffffffffffffffffffffff1673ffffffffffffffffffffffffffffffffffffffff16815260200191505060405180910390f35b3480156102f957600080fd5b5061031c6004803603810190808035600019169060200190929190505050610739565b6040518082815260200191505060405180910390f35b34801561033e57600080fd5b50610347610772565b6040518080602001828103825283818151815260200191508051906020019060200280838360005b8381101561038a57808201518184015260208101905061036f565b505050509050019250505060405180910390f35b3480156103aa57600080fd5b506103df600480360381019080803573ffffffffffffffffffffffffffffffffffffffff1690602001909291905050506107ce565b604051808215151515815260200191505060405180910390f35b34801561040557600080fd5b5061043a600480360381019080803573ffffffffffffffffffffffffffffffffffffffff1690602001909291905050506107eb565b005b610445336107ce565b151561045057600080fd5b61045981610853565b60006005600083600019166000191681526020019081526020016000208190555050565b610486336107ce565b151561049157600080fd5b61049a826106e1565b15156104a557600080fd5b80600560008460001916600019168152602001908152602001600020819055505050565b6104d2336107ce565b15156104dd57600080fd5b6104e681610903565b50565b600460009054906101000a900473ffffffffffffffffffffffffffffffffffffffff1673ffffffffffffffffffffffffffffffffffffffff163373ffffffffffffffffffffffffffffffffffffffff1614151561054557600080fd5b61054e816109c6565b50565b60008181548110151561056057fe5b906000526020600020016000915090505481565b600460009054906101000a900473ffffffffffffffffffffffffffffffffffffffff1673ffffffffffffffffffffffffffffffffffffffff163373ffffffffffffffffffffffffffffffffffffffff161415156105d057600080fd5b600460009054906101000a900473ffffffffffffffffffffffffffffffffffffffff1673ffffffffffffffffffffffffffffffffffffffff167ff8df31144d9c2f0f6b59d69b8b98abd5459d07f2742c4df920b25aae33c6482060405160405180910390a26000600460006101000a81548173ffffffffffffffffffffffffffffffffffffffff021916908373ffffffffffffffffffffffffffffffffffffffff160217905550565b600460009054906101000a900473ffffffffffffffffffffffffffffffffffffffff1673ffffffffffffffffffffffffffffffffffffffff163373ffffffffffffffffffffffffffffffffffffffff161415156106d557600080fd5b6106de816109e6565b50565b600060026000836000191660001916815260200190815260200160002060009054906101000a900460ff169050919050565b600460009054906101000a900473ffffffffffffffffffffffffffffffffffffffff1681565b6000610744826106e1565b151561074f57600080fd5b600560008360001916600019168152602001908152602001600020549050919050565b606060008054806020026020016040519081016040528092919081815260200182805480156107c457602002820191906000526020600020905b815460001916815260200190600101908083116107ac575b5050505050905090565b60006107e48260036109f290919063ffffffff16565b9050919050565b600460009054906101000a900473ffffffffffffffffffffffffffffffffffffffff1673ffffffffffffffffffffffffffffffffffffffff163373ffffffffffffffffffffffffffffffffffffffff1614151561084757600080fd5b61085081610a4b565b50565b60026000826000191660001916815260200190815260200160002060009054906101000a900460ff16151561088757600080fd5b600060026000836000191660001916815260200190815260200160002060006101000a81548160ff0219169083151502179055506108df60016000836000191660001916815260200190815260200160002054610b47565b60006001600083600019166000191681526020019081526020016000208190555050565b60026000826000191660001916815260200190815260200160002060009054906101000a900460ff1615151561093857600080fd5b600160026000836000191660001916815260200190815260200160002060006101000a81548160ff02191690831515021790555060008054905060016000836000191660001916815260200190815260200160002081905550600081908060018154018082558091505090600182039060005260206000200160009091929091909150906000191690555050565b6109cf336107ce565b15156109da57600080fd5b6109e381610bc8565b50565b6109ef81610c5e565b50565b60008260000160008373ffffffffffffffffffffffffffffffffffffffff1673ffffffffffffffffffffffffffffffffffffffff16815260200190815260200160002060009054906101000a900460ff16905092915050565b600073ffffffffffffffffffffffffffffffffffffffff168173ffffffffffffffffffffffffffffffffffffffff1614151515610a8757600080fd5b8073ffffffffffffffffffffffffffffffffffffffff16600460009054906101000a900473ffffffffffffffffffffffffffffffffffffffff1673ffffffffffffffffffffffffffffffffffffffff167f8be0079c531659141344cd1fd0a4f28419497f9722a3daafe3b4186f6b6457e060405160405180910390a380600460006101000a81548173ffffffffffffffffffffffffffffffffffffffff021916908373ffffffffffffffffffffffffffffffffffffffff16021790555050565b60008054905081101515610b5a57600080fd5b60016000805490500381141515610baf576000600160008054905003815481101515610b8257fe5b9060005260206000200154600082815481101515610b9c57fe5b9060005260206000200181600019169055505b6000805480919060019003610bc49190610db0565b5050565b600073ffffffffffffffffffffffffffffffffffffffff168173ffffffffffffffffffffffffffffffffffffffff1614151515610c0457600080fd5b610c18816003610cf490919063ffffffff16565b8073ffffffffffffffffffffffffffffffffffffffff167f02edb648fd57120edd0afed403c9fbc3205997fd07c01b3db9e1ed05647e9ebe60405160405180910390a250565b600073ffffffffffffffffffffffffffffffffffffffff168173ffffffffffffffffffffffffffffffffffffffff1614151515610c9a57600080fd5b610cae816003610d5290919063ffffffff16565b8073ffffffffffffffffffffffffffffffffffffffff167fdbde5a1472d701cfaea5fcee6419072f226c14cc6c5478fbe8552044053a316a60405160405180910390a250565b60018260000160008373ffffffffffffffffffffffffffffffffffffffff1673ffffffffffffffffffffffffffffffffffffffff16815260200190815260200160002060006101000a81548160ff0219169083151502179055505050565b60008260000160008373ffffffffffffffffffffffffffffffffffffffff1673ffffffffffffffffffffffffffffffffffffffff16815260200190815260200160002060006101000a81548160ff0219169083151502179055505050565b815481835581811115610dd757818360005260206000209182019101610dd69190610ddc565b5b505050565b610dfe91905b80821115610dfa576000816000905550600101610de2565b5090565b905600a165627a7a72305820a74bf50c0c8cef369fd9ef7a072311e577cbff35b9446539c340a139bf89e8820029",
  "source": "pragma solidity ^0.4.24;\n\nimport \"openzeppelin-solidity/contracts/ownership/Ownable.sol\";\nimport \"./roles/Pricer.sol\";\nimport \"./Symbols.sol\";\n\ncontract Rates is Symbols, PricerRole, Ownable {\n    mapping (bytes32 => uint) rates;\n\n    function addSymbol(bytes32 symbol) public onlyPricer {\n        Symbols.addSymbol(symbol);\n    }\n\n    function removeSymbol(bytes32 symbol) public onlyPricer {\n        Symbols.removeSymbol(symbol);\n        rates[symbol] = 0;\n    }\n\n    function addPricer(address account) public onlyOwner {\n        PricerRole.addPricer(account);\n    }\n\n    function removePricer(address account) public onlyOwner {\n        PricerRole.removePricer(account);\n    }\n\n    function get(bytes32 symbol) public view returns(uint) {\n        require(hasSymbol(symbol));\n\n        return rates[symbol];\n    }\n\n    function set(bytes32 symbol, uint rate) public onlyPricer {\n        require(hasSymbol(symbol));\n\n        rates[symbol] = rate;\n    }\n}\n",
  "sourcePath": "/home/circleci/code/contracts/rates/Rates.sol",
  "compiler": {
    "name": "solc",
    "version": "0.4.24+commit.e67f0147.Emscripten.clang"
  },
  "schemaVersion": "2.0.1",
  "updatedAt": "2018-09-28T12:09:35.624Z"
}