{
  "contractName": "Rates",
  "abi": [
    {
      "constant": false,
      "inputs": [
        {
          "name": "recipient",
          "type": "address"
        }
      ],
      "name": "transferPrimary",
      "outputs": [],
      "payable": false,
      "stateMutability": "nonpayable",
      "type": "function"
    },
    {
      "constant": true,
      "inputs": [
        {
          "name": "",
          "type": "uint256"
        }
      ],
      "name": "symbolsList",
      "outputs": [
        {
          "name": "",
          "type": "bytes32"
        }
      ],
      "payable": false,
      "stateMutability": "view",
      "type": "function"
    },
    {
      "constant": true,
      "inputs": [
        {
          "name": "symbol",
          "type": "bytes32"
        }
      ],
      "name": "hasSymbol",
      "outputs": [
        {
          "name": "",
          "type": "bool"
        }
      ],
      "payable": false,
      "stateMutability": "view",
      "type": "function"
    },
    {
      "constant": false,
      "inputs": [],
      "name": "renouncePricer",
      "outputs": [],
      "payable": false,
      "stateMutability": "nonpayable",
      "type": "function"
    },
    {
      "constant": true,
      "inputs": [],
      "name": "primary",
      "outputs": [
        {
          "name": "",
          "type": "address"
        }
      ],
      "payable": false,
      "stateMutability": "view",
      "type": "function"
    },
    {
      "constant": true,
      "inputs": [],
      "name": "getSymbolsList",
      "outputs": [
        {
          "name": "",
          "type": "bytes32[]"
        }
      ],
      "payable": false,
      "stateMutability": "view",
      "type": "function"
    },
    {
      "constant": true,
      "inputs": [
        {
          "name": "account",
          "type": "address"
        }
      ],
      "name": "isPricer",
      "outputs": [
        {
          "name": "",
          "type": "bool"
        }
      ],
      "payable": false,
      "stateMutability": "view",
      "type": "function"
    },
    {
      "anonymous": false,
      "inputs": [
        {
          "indexed": false,
          "name": "recipient",
          "type": "address"
        }
      ],
      "name": "PrimaryTransferred",
      "type": "event"
    },
    {
      "anonymous": false,
      "inputs": [
        {
          "indexed": true,
          "name": "account",
          "type": "address"
        }
      ],
      "name": "PricerAdded",
      "type": "event"
    },
    {
      "anonymous": false,
      "inputs": [
        {
          "indexed": true,
          "name": "account",
          "type": "address"
        }
      ],
      "name": "PricerRemoved",
      "type": "event"
    },
    {
      "constant": false,
      "inputs": [
        {
          "name": "symbol",
          "type": "bytes32"
        },
        {
          "name": "_address",
          "type": "address"
        }
      ],
      "name": "addSymbolWithTokenAddress",
      "outputs": [],
      "payable": false,
      "stateMutability": "nonpayable",
      "type": "function"
    },
    {
      "constant": false,
      "inputs": [
        {
          "name": "symbol",
          "type": "bytes32"
        }
      ],
      "name": "addSymbol",
      "outputs": [],
      "payable": false,
      "stateMutability": "nonpayable",
      "type": "function"
    },
    {
      "constant": false,
      "inputs": [
        {
          "name": "symbol",
          "type": "bytes32"
        }
      ],
      "name": "removeSymbol",
      "outputs": [],
      "payable": false,
      "stateMutability": "nonpayable",
      "type": "function"
    },
    {
      "constant": false,
      "inputs": [
        {
          "name": "symbol",
          "type": "bytes32"
        },
        {
          "name": "_address",
          "type": "address"
        }
      ],
      "name": "setTokenAddress",
      "outputs": [],
      "payable": false,
      "stateMutability": "nonpayable",
      "type": "function"
    },
    {
      "constant": true,
      "inputs": [
        {
          "name": "symbol",
          "type": "bytes32"
        }
      ],
      "name": "getTokenAddress",
      "outputs": [
        {
          "name": "",
          "type": "address"
        }
      ],
      "payable": false,
      "stateMutability": "view",
      "type": "function"
    },
    {
      "constant": true,
      "inputs": [
        {
          "name": "symbol",
          "type": "bytes32"
        }
      ],
      "name": "isToken",
      "outputs": [
        {
          "name": "",
          "type": "bool"
        }
      ],
      "payable": false,
      "stateMutability": "view",
      "type": "function"
    },
    {
      "constant": false,
      "inputs": [
        {
          "name": "account",
          "type": "address"
        }
      ],
      "name": "addPricer",
      "outputs": [],
      "payable": false,
      "stateMutability": "nonpayable",
      "type": "function"
    },
    {
      "constant": false,
      "inputs": [
        {
          "name": "account",
          "type": "address"
        }
      ],
      "name": "removePricer",
      "outputs": [],
      "payable": false,
      "stateMutability": "nonpayable",
      "type": "function"
    },
    {
      "constant": true,
      "inputs": [
        {
          "name": "symbol",
          "type": "bytes32"
        }
      ],
      "name": "get",
      "outputs": [
        {
          "name": "",
          "type": "uint256"
        }
      ],
      "payable": false,
      "stateMutability": "view",
      "type": "function"
    },
    {
      "constant": false,
      "inputs": [
        {
          "name": "symbol",
          "type": "bytes32"
        },
        {
          "name": "rate",
          "type": "uint256"
        }
      ],
      "name": "set",
      "outputs": [],
      "payable": false,
      "stateMutability": "nonpayable",
      "type": "function"
    }
  ],
  "bytecode": "0x608060405261001c336100e7640100000000026401000000009004565b33600560006101000a81548173ffffffffffffffffffffffffffffffffffffffff021916908373ffffffffffffffffffffffffffffffffffffffff1602179055507f4101e71e974f68df5e9730cc223280b41654676bbb052cdcc735c3337e64d2d9600560009054906101000a900473ffffffffffffffffffffffffffffffffffffffff16604051808273ffffffffffffffffffffffffffffffffffffffff1673ffffffffffffffffffffffffffffffffffffffff16815260200191505060405180910390a16102dd565b600073ffffffffffffffffffffffffffffffffffffffff168173ffffffffffffffffffffffffffffffffffffffff161415151561012357600080fd5b61014481600461018a64010000000002610f84179091906401000000009004565b8073ffffffffffffffffffffffffffffffffffffffff167f02edb648fd57120edd0afed403c9fbc3205997fd07c01b3db9e1ed05647e9ebe60405160405180910390a250565b600073ffffffffffffffffffffffffffffffffffffffff168173ffffffffffffffffffffffffffffffffffffffff16141515156101c657600080fd5b6101df8282610249640100000000026401000000009004565b1515156101eb57600080fd5b60018260000160008373ffffffffffffffffffffffffffffffffffffffff1673ffffffffffffffffffffffffffffffffffffffff16815260200190815260200160002060006101000a81548160ff0219169083151502179055505050565b60008073ffffffffffffffffffffffffffffffffffffffff168273ffffffffffffffffffffffffffffffffffffffff161415151561028657600080fd5b8260000160008373ffffffffffffffffffffffffffffffffffffffff1673ffffffffffffffffffffffffffffffffffffffff16815260200190815260200160002060009054906101000a900460ff16905092915050565b611160806102ec6000396000f3006080604052600436106100f1576000357c0100000000000000000000000000000000000000000000000000000000900463ffffffff1680631b71a9db146100f65780632348238c14610127578063273f49401461016a578063289e029b146101a5578063451a5e65146101d657806350b49f2d146102195780636b8431d41461026257806379d44573146102b35780637d20abf8146102f65780638eaa6ac01461033f57806396fd23a514610384578063b12e44101461039b578063c6dbdf611461040c578063cfec719f14610463578063e5da831f146104ac578063e921794414610518578063e97aed3c14610573575b600080fd5b34801561010257600080fd5b5061012560048036038101908080356000191690602001909291905050506105c4565b005b34801561013357600080fd5b50610168600480360381019080803573ffffffffffffffffffffffffffffffffffffffff169060200190929190505050610610565b005b34801561017657600080fd5b506101a3600480360381019080803560001916906020019092919080359060200190929190505050610771565b005b3480156101b157600080fd5b506101d460048036038101908080356000191690602001909291905050506107bd565b005b3480156101e257600080fd5b50610217600480360381019080803573ffffffffffffffffffffffffffffffffffffffff1690602001909291905050506107dd565b005b34801561022557600080fd5b5061024460048036038101908080359060200190929190505050610845565b60405180826000191660001916815260200191505060405180910390f35b34801561026e57600080fd5b506102b16004803603810190808035600019169060200190929190803573ffffffffffffffffffffffffffffffffffffffff169060200190929190505050610868565b005b3480156102bf57600080fd5b506102f4600480360381019080803573ffffffffffffffffffffffffffffffffffffffff1690602001909291905050506108ca565b005b34801561030257600080fd5b506103256004803603810190808035600019169060200190929190505050610932565b604051808215151515815260200191505060405180910390f35b34801561034b57600080fd5b5061036e6004803603810190808035600019169060200190929190505050610964565b6040518082815260200191505060405180910390f35b34801561039057600080fd5b5061039961099d565b005b3480156103a757600080fd5b506103ca60048036038101908080356000191690602001909291905050506109a8565b604051808273ffffffffffffffffffffffffffffffffffffffff1673ffffffffffffffffffffffffffffffffffffffff16815260200191505060405180910390f35b34801561041857600080fd5b50610421610a01565b604051808273ffffffffffffffffffffffffffffffffffffffff1673ffffffffffffffffffffffffffffffffffffffff16815260200191505060405180910390f35b34801561046f57600080fd5b506104926004803603810190808035600019169060200190929190505050610a2b565b604051808215151515815260200191505060405180910390f35b3480156104b857600080fd5b506104c1610ab4565b6040518080602001828103825283818151815260200191508051906020019060200280838360005b838110156105045780820151818401526020810190506104e9565b505050509050019250505060405180910390f35b34801561052457600080fd5b50610559600480360381019080803573ffffffffffffffffffffffffffffffffffffffff169060200190929190505050610b10565b604051808215151515815260200191505060405180910390f35b34801561057f57600080fd5b506105c26004803603810190808035600019169060200190929190803573ffffffffffffffffffffffffffffffffffffffff169060200190929190505050610b2d565b005b6105cd33610b10565b15156105d857600080fd5b6105e3816000610b2d565b60006006600083600019166000191681526020019081526020016000208190555061060d81610bb3565b50565b600560009054906101000a900473ffffffffffffffffffffffffffffffffffffffff1673ffffffffffffffffffffffffffffffffffffffff163373ffffffffffffffffffffffffffffffffffffffff1614151561066c57600080fd5b600073ffffffffffffffffffffffffffffffffffffffff168173ffffffffffffffffffffffffffffffffffffffff16141515156106a857600080fd5b80600560006101000a81548173ffffffffffffffffffffffffffffffffffffffff021916908373ffffffffffffffffffffffffffffffffffffffff1602179055507f4101e71e974f68df5e9730cc223280b41654676bbb052cdcc735c3337e64d2d9600560009054906101000a900473ffffffffffffffffffffffffffffffffffffffff16604051808273ffffffffffffffffffffffffffffffffffffffff1673ffffffffffffffffffffffffffffffffffffffff16815260200191505060405180910390a150565b61077a33610b10565b151561078557600080fd5b61078e82610932565b151561079957600080fd5b80600660008460001916600019168152602001908152602001600020819055505050565b6107c633610b10565b15156107d157600080fd5b6107da81610d01565b50565b600560009054906101000a900473ffffffffffffffffffffffffffffffffffffffff1673ffffffffffffffffffffffffffffffffffffffff163373ffffffffffffffffffffffffffffffffffffffff1614151561083957600080fd5b61084281610dc4565b50565b60018181548110151561085457fe5b906000526020600020016000915090505481565b61087133610b10565b151561087c57600080fd5b61088582610d01565b600073ffffffffffffffffffffffffffffffffffffffff168173ffffffffffffffffffffffffffffffffffffffff161415156108c6576108c58282610b2d565b5b5050565b600560009054906101000a900473ffffffffffffffffffffffffffffffffffffffff1673ffffffffffffffffffffffffffffffffffffffff163373ffffffffffffffffffffffffffffffffffffffff1614151561092657600080fd5b61092f81610e5a565b50565b600060036000836000191660001916815260200190815260200160002060009054906101000a900460ff169050919050565b600061096f82610932565b151561097a57600080fd5b600660008360001916600019168152602001908152602001600020549050919050565b6109a633610e5a565b565b60006109b382610a2b565b15156109be57600080fd5b60076000836000191660001916815260200190815260200160002060009054906101000a900473ffffffffffffffffffffffffffffffffffffffff169050919050565b6000600560009054906101000a900473ffffffffffffffffffffffffffffffffffffffff16905090565b6000610a3682610932565b1515610a4157600080fd5b600073ffffffffffffffffffffffffffffffffffffffff1660076000846000191660001916815260200190815260200160002060009054906101000a900473ffffffffffffffffffffffffffffffffffffffff1673ffffffffffffffffffffffffffffffffffffffff1614159050919050565b60606001805480602002602001604051908101604052809291908181526020018280548015610b0657602002820191906000526020600020905b81546000191681526020019060010190808311610aee575b5050505050905090565b6000610b26826004610ef090919063ffffffff16565b9050919050565b610b3633610b10565b1515610b4157600080fd5b610b4a82610932565b1515610b5557600080fd5b8060076000846000191660001916815260200190815260200160002060006101000a81548173ffffffffffffffffffffffffffffffffffffffff021916908373ffffffffffffffffffffffffffffffffffffffff1602179055505050565b600060036000836000191660001916815260200190815260200160002060009054906101000a900460ff161515610be957600080fd5b600060036000846000191660001916815260200190815260200160002060006101000a81548160ff021916908315150217905550600260008360001916600019168152602001908152602001600020549050600060026000846000191660001916815260200190815260200160002081905550600180805490500381141515610ce757600180808054905003815481101515610c8157fe5b9060005260206000200154600182815481101515610c9b57fe5b9060005260206000200181600019169055508060026000600184815481101515610cc157fe5b906000526020600020015460001916600019168152602001908152602001600020819055505b6001805480919060019003610cfc91906110e3565b505050565b60036000826000191660001916815260200190815260200160002060009054906101000a900460ff16151515610d3657600080fd5b600160036000836000191660001916815260200190815260200160002060006101000a81548160ff02191690831515021790555060018054905060026000836000191660001916815260200190815260200160002081905550600181908060018154018082558091505090600182039060005260206000200160009091929091909150906000191690555050565b600073ffffffffffffffffffffffffffffffffffffffff168173ffffffffffffffffffffffffffffffffffffffff1614151515610e0057600080fd5b610e14816004610f8490919063ffffffff16565b8073ffffffffffffffffffffffffffffffffffffffff167f02edb648fd57120edd0afed403c9fbc3205997fd07c01b3db9e1ed05647e9ebe60405160405180910390a250565b600073ffffffffffffffffffffffffffffffffffffffff168173ffffffffffffffffffffffffffffffffffffffff1614151515610e9657600080fd5b610eaa81600461103490919063ffffffff16565b8073ffffffffffffffffffffffffffffffffffffffff167fdbde5a1472d701cfaea5fcee6419072f226c14cc6c5478fbe8552044053a316a60405160405180910390a250565b60008073ffffffffffffffffffffffffffffffffffffffff168273ffffffffffffffffffffffffffffffffffffffff1614151515610f2d57600080fd5b8260000160008373ffffffffffffffffffffffffffffffffffffffff1673ffffffffffffffffffffffffffffffffffffffff16815260200190815260200160002060009054906101000a900460ff16905092915050565b600073ffffffffffffffffffffffffffffffffffffffff168173ffffffffffffffffffffffffffffffffffffffff1614151515610fc057600080fd5b610fca8282610ef0565b151515610fd657600080fd5b60018260000160008373ffffffffffffffffffffffffffffffffffffffff1673ffffffffffffffffffffffffffffffffffffffff16815260200190815260200160002060006101000a81548160ff0219169083151502179055505050565b600073ffffffffffffffffffffffffffffffffffffffff168173ffffffffffffffffffffffffffffffffffffffff161415151561107057600080fd5b61107a8282610ef0565b151561108557600080fd5b60008260000160008373ffffffffffffffffffffffffffffffffffffffff1673ffffffffffffffffffffffffffffffffffffffff16815260200190815260200160002060006101000a81548160ff0219169083151502179055505050565b81548183558181111561110a57818360005260206000209182019101611109919061110f565b5b505050565b61113191905b8082111561112d576000816000905550600101611115565b5090565b905600a165627a7a723058202d978c05b305d775289b6b8736759953601f14677676edf061f52da37075b55e0029",
  "source": "pragma solidity 0.4.24;\n\nimport \"openzeppelin-solidity/contracts/ownership/Secondary.sol\";\nimport \"./IRates.sol\";\nimport \"../access/roles/IPricerRole.sol\";\nimport \"../access/roles/PricerRole.sol\";\nimport \"./Symbols.sol\";\n\n\ncontract Rates is IRates, Symbols, PricerRole, Secondary {\n    mapping (bytes32 => uint) private rates;\n    mapping (bytes32 => address) private tokenAddress;\n\n    function addSymbolWithTokenAddress(bytes32 symbol, address _address) public onlyPricer {\n        Symbols.addSymbol(symbol);\n\n        if (_address != address(0)) setTokenAddress(symbol, _address);\n    }\n\n    function addSymbol(bytes32 symbol) public onlyPricer\n    {\n        Symbols.addSymbol(symbol);\n    }\n\n    function removeSymbol(bytes32 symbol) public onlyPricer {\n        setTokenAddress(symbol, address(0));\n        rates[symbol] = 0;\n        Symbols.removeSymbol(symbol);\n    }\n\n    function setTokenAddress(bytes32 symbol, address _address) public onlyPricer {\n        require(hasSymbol(symbol));\n\n        tokenAddress[symbol] = _address;\n    }\n\n    function getTokenAddress(bytes32 symbol) public view returns(address) {\n        require(isToken(symbol));\n\n        return tokenAddress[symbol];\n    }\n\n    function isToken(bytes32 symbol) public view returns (bool) {\n        require(hasSymbol(symbol));\n\n        return tokenAddress[symbol] != address(0);\n    }\n\n    function addPricer(address account) public onlyPrimary {\n        _addPricer(account);\n    }\n\n    function removePricer(address account) public onlyPrimary {\n        _removePricer(account);\n    }\n\n    function get(bytes32 symbol) public view returns(uint) {\n        require(hasSymbol(symbol));\n\n        return rates[symbol];\n    }\n\n    function set(bytes32 symbol, uint rate) public onlyPricer {\n        require(hasSymbol(symbol));\n\n        rates[symbol] = rate;\n    }\n}\n",
  "sourcePath": "/Users/gauss/_games/w12/Protocol/contracts/rates/Rates.sol",
  "compiler": {
    "name": "solc",
    "version": "0.4.24+commit.e67f0147.Emscripten.clang"
  },
  "schemaVersion": "3.0.16",
  "updatedAt": "2019-10-06T23:01:20.462Z"
}