{
  "contractName": "Rates",
  "abi": [
    {
      "constant": true,
      "inputs": [
        {
          "name": "",
          "type": "uint256"
        }
      ],
      "name": "symbolsList",
      "outputs": [
        {
          "name": "",
          "type": "bytes32"
        }
      ],
      "payable": false,
      "stateMutability": "view",
      "type": "function"
    },
    {
      "constant": false,
      "inputs": [],
      "name": "renounceOwnership",
      "outputs": [],
      "payable": false,
      "stateMutability": "nonpayable",
      "type": "function"
    },
    {
      "constant": true,
      "inputs": [
        {
          "name": "symbol",
          "type": "bytes32"
        }
      ],
      "name": "hasSymbol",
      "outputs": [
        {
          "name": "",
          "type": "bool"
        }
      ],
      "payable": false,
      "stateMutability": "view",
      "type": "function"
    },
    {
      "constant": true,
      "inputs": [],
      "name": "owner",
      "outputs": [
        {
          "name": "",
          "type": "address"
        }
      ],
      "payable": false,
      "stateMutability": "view",
      "type": "function"
    },
    {
      "constant": true,
      "inputs": [],
      "name": "getSymbolsList",
      "outputs": [
        {
          "name": "",
          "type": "bytes32[]"
        }
      ],
      "payable": false,
      "stateMutability": "view",
      "type": "function"
    },
    {
      "constant": true,
      "inputs": [
        {
          "name": "account",
          "type": "address"
        }
      ],
      "name": "isPricer",
      "outputs": [
        {
          "name": "",
          "type": "bool"
        }
      ],
      "payable": false,
      "stateMutability": "view",
      "type": "function"
    },
    {
      "constant": false,
      "inputs": [
        {
          "name": "_newOwner",
          "type": "address"
        }
      ],
      "name": "transferOwnership",
      "outputs": [],
      "payable": false,
      "stateMutability": "nonpayable",
      "type": "function"
    },
    {
      "anonymous": false,
      "inputs": [
        {
          "indexed": true,
          "name": "previousOwner",
          "type": "address"
        }
      ],
      "name": "OwnershipRenounced",
      "type": "event"
    },
    {
      "anonymous": false,
      "inputs": [
        {
          "indexed": true,
          "name": "previousOwner",
          "type": "address"
        },
        {
          "indexed": true,
          "name": "newOwner",
          "type": "address"
        }
      ],
      "name": "OwnershipTransferred",
      "type": "event"
    },
    {
      "anonymous": false,
      "inputs": [
        {
          "indexed": true,
          "name": "account",
          "type": "address"
        }
      ],
      "name": "PricerAdded",
      "type": "event"
    },
    {
      "anonymous": false,
      "inputs": [
        {
          "indexed": true,
          "name": "account",
          "type": "address"
        }
      ],
      "name": "PricerRemoved",
      "type": "event"
    },
    {
      "constant": false,
      "inputs": [
        {
          "name": "symbol",
          "type": "bytes32"
        }
      ],
      "name": "addSymbol",
      "outputs": [],
      "payable": false,
      "stateMutability": "nonpayable",
      "type": "function"
    },
    {
      "constant": false,
      "inputs": [
        {
          "name": "symbol",
          "type": "bytes32"
        }
      ],
      "name": "removeSymbol",
      "outputs": [],
      "payable": false,
      "stateMutability": "nonpayable",
      "type": "function"
    },
    {
      "constant": false,
      "inputs": [
        {
          "name": "account",
          "type": "address"
        }
      ],
      "name": "addPricer",
      "outputs": [],
      "payable": false,
      "stateMutability": "nonpayable",
      "type": "function"
    },
    {
      "constant": false,
      "inputs": [
        {
          "name": "account",
          "type": "address"
        }
      ],
      "name": "removePricer",
      "outputs": [],
      "payable": false,
      "stateMutability": "nonpayable",
      "type": "function"
    },
    {
      "constant": true,
      "inputs": [
        {
          "name": "symbol",
          "type": "bytes32"
        }
      ],
      "name": "get",
      "outputs": [
        {
          "name": "",
          "type": "uint256"
        }
      ],
      "payable": false,
      "stateMutability": "view",
      "type": "function"
    },
    {
      "constant": false,
      "inputs": [
        {
          "name": "symbol",
          "type": "bytes32"
        },
        {
          "name": "rate",
          "type": "uint256"
        }
      ],
      "name": "set",
      "outputs": [],
      "payable": false,
      "stateMutability": "nonpayable",
      "type": "function"
    }
  ],
  "bytecode": "0x60806040526100163364010000000061002d810204565b60048054600160a060020a031916331790556100b6565b600160a060020a038116151561004257600080fd5b61005a6003826401000000006107aa61009182021704565b604051600160a060020a038216907f02edb648fd57120edd0afed403c9fbc3205997fd07c01b3db9e1ed05647e9ebe90600090a250565b600160a060020a0316600090815260209190915260409020805460ff19166001179055565b61085a806100c56000396000f3006080604052600436106100c45763ffffffff7c01000000000000000000000000000000000000000000000000000000006000350416631b71a9db81146100c9578063273f4940146100e3578063289e029b146100fe578063451a5e651461011657806350b49f2d14610137578063715018a61461016157806379d44573146101765780637d20abf8146101975780638da5cb5b146101c35780638eaa6ac0146101f4578063e5da831f1461020c578063e921794414610271578063f2fde38b14610292575b600080fd5b3480156100d557600080fd5b506100e16004356102b3565b005b3480156100ef57600080fd5b506100e16004356024356102e1565b34801561010a57600080fd5b506100e160043561031b565b34801561012257600080fd5b506100e1600160a060020a036004351661033b565b34801561014357600080fd5b5061014f60043561035b565b60408051918252519081900360200190f35b34801561016d57600080fd5b506100e161037a565b34801561018257600080fd5b506100e1600160a060020a03600435166103e8565b3480156101a357600080fd5b506101af600435610408565b604080519115158252519081900360200190f35b3480156101cf57600080fd5b506101d861041d565b60408051600160a060020a039092168252519081900360200190f35b34801561020057600080fd5b5061014f60043561042c565b34801561021857600080fd5b50610221610455565b60408051602080825283518183015283519192839290830191858101910280838360005b8381101561025d578181015183820152602001610245565b505050509050019250505060405180910390f35b34801561027d57600080fd5b506101af600160a060020a03600435166104af565b34801561029e57600080fd5b506100e1600160a060020a03600435166104c8565b6102bc336104af565b15156102c757600080fd5b6102d0816104e8565b600090815260056020526040812055565b6102ea336104af565b15156102f557600080fd5b6102fe82610408565b151561030957600080fd5b60009182526005602052604090912055565b610324336104af565b151561032f57600080fd5b610338816105ba565b50565b600454600160a060020a0316331461035257600080fd5b6103388161062d565b600080548290811061036957fe5b600091825260209091200154905081565b600454600160a060020a0316331461039157600080fd5b600454604051600160a060020a03909116907ff8df31144d9c2f0f6b59d69b8b98abd5459d07f2742c4df920b25aae33c6482090600090a26004805473ffffffffffffffffffffffffffffffffffffffff19169055565b600454600160a060020a031633146103ff57600080fd5b6103388161064a565b60009081526002602052604090205460ff1690565b600454600160a060020a031681565b600061043782610408565b151561044257600080fd5b5060009081526005602052604090205490565b606060008054806020026020016040519081016040528092919081815260200182805480156104a457602002820191906000526020600020905b8154815260019091019060200180831161048f575b505050505090505b90565b60006104c260038363ffffffff61065316565b92915050565b600454600160a060020a031633146104df57600080fd5b61033881610672565b60008181526002602052604081205460ff16151561050557600080fd5b506000818152600260209081526040808320805460ff191690556001909152812080549082905590546000190181146105a25760008054600019810190811061054a57fe5b906000526020600020015460008281548110151561056457fe5b60009182526020822001919091558054829160019181908490811061058557fe5b600091825260208083209091015483528201929092526040019020555b60008054906105b59060001983016107f1565b505050565b60008181526002602052604090205460ff16156105d657600080fd5b6000818152600260209081526040808320805460ff19166001908117909155835492819052908320829055810182559080527f290decd9548b62a8d60345a988386fc84ba6bc95484008f6362f93160ef3e5630155565b610636336104af565b151561064157600080fd5b610338816106f0565b6103388161074d565b600160a060020a03166000908152602091909152604090205460ff1690565b600160a060020a038116151561068757600080fd5b600454604051600160a060020a038084169216907f8be0079c531659141344cd1fd0a4f28419497f9722a3daafe3b4186f6b6457e090600090a36004805473ffffffffffffffffffffffffffffffffffffffff1916600160a060020a0392909216919091179055565b600160a060020a038116151561070557600080fd5b61071660038263ffffffff6107aa16565b604051600160a060020a038216907f02edb648fd57120edd0afed403c9fbc3205997fd07c01b3db9e1ed05647e9ebe90600090a250565b600160a060020a038116151561076257600080fd5b61077360038263ffffffff6107cf16565b604051600160a060020a038216907fdbde5a1472d701cfaea5fcee6419072f226c14cc6c5478fbe8552044053a316a90600090a250565b600160a060020a0316600090815260209190915260409020805460ff19166001179055565b600160a060020a0316600090815260209190915260409020805460ff19169055565b8154818355818111156105b5576000838152602090206105b59181019083016104ac91905b8082111561082a5760008155600101610816565b50905600a165627a7a72305820d018f01169fee6a346aebda274523660d15c2f4213d879b5d64e970bcbd51a4e0029",
  "source": "pragma solidity ^0.4.24;\n\nimport \"openzeppelin-solidity/contracts/ownership/Ownable.sol\";\nimport \"./roles/Pricer.sol\";\nimport \"./Symbols.sol\";\n\ncontract Rates is Symbols, PricerRole, Ownable {\n    mapping (bytes32 => uint) rates;\n\n    function addSymbol(bytes32 symbol) public onlyPricer {\n        Symbols.addSymbol(symbol);\n    }\n\n    function removeSymbol(bytes32 symbol) public onlyPricer {\n        Symbols.removeSymbol(symbol);\n        rates[symbol] = 0;\n    }\n\n    function addPricer(address account) public onlyOwner {\n        PricerRole.addPricer(account);\n    }\n\n    function removePricer(address account) public onlyOwner {\n        PricerRole.removePricer(account);\n    }\n\n    function get(bytes32 symbol) public view returns(uint) {\n        require(hasSymbol(symbol));\n\n        return rates[symbol];\n    }\n\n    function set(bytes32 symbol, uint rate) public onlyPricer {\n        require(hasSymbol(symbol));\n\n        rates[symbol] = rate;\n    }\n}\n",
  "sourcePath": "/c/Users/Mr.Hokid/projects/work/w12-product-contracts/contracts/rates/Rates.sol",
  "compiler": {
    "name": "solc",
    "version": "0.4.24+commit.e67f0147.Emscripten.clang"
  },
  "schemaVersion": "2.0.1",
  "updatedAt": "2018-11-14T14:48:13.482Z"
}