{
  "contractName": "Symbols",
  "abi": [
    {
      "constant": true,
      "inputs": [
        {
          "name": "",
          "type": "uint256"
        }
      ],
      "name": "symbolsList",
      "outputs": [
        {
          "name": "",
          "type": "bytes32"
        }
      ],
      "payable": false,
      "stateMutability": "view",
      "type": "function"
    },
    {
      "constant": false,
      "inputs": [
        {
          "name": "symbol",
          "type": "bytes32"
        }
      ],
      "name": "addSymbol",
      "outputs": [],
      "payable": false,
      "stateMutability": "nonpayable",
      "type": "function"
    },
    {
      "constant": false,
      "inputs": [
        {
          "name": "symbol",
          "type": "bytes32"
        }
      ],
      "name": "removeSymbol",
      "outputs": [],
      "payable": false,
      "stateMutability": "nonpayable",
      "type": "function"
    },
    {
      "constant": true,
      "inputs": [
        {
          "name": "symbol",
          "type": "bytes32"
        }
      ],
      "name": "hasSymbol",
      "outputs": [
        {
          "name": "",
          "type": "bool"
        }
      ],
      "payable": false,
      "stateMutability": "view",
      "type": "function"
    },
    {
      "constant": true,
      "inputs": [],
      "name": "getSymbolsList",
      "outputs": [
        {
          "name": "",
          "type": "bytes32[]"
        }
      ],
      "payable": false,
      "stateMutability": "view",
      "type": "function"
    }
  ],
  "bytecode": "0x608060405234801561001057600080fd5b506103a1806100206000396000f30060806040526004361061006c5763ffffffff7c01000000000000000000000000000000000000000000000000000000006000350416631b71a9db8114610071578063289e029b1461008b57806350b49f2d146100a35780637d20abf8146100cd578063e5da831f146100f9575b600080fd5b34801561007d57600080fd5b5061008960043561015e565b005b34801561009757600080fd5b50610089600435610235565b3480156100af57600080fd5b506100bb6004356102aa565b60408051918252519081900360200190f35b3480156100d957600080fd5b506100e56004356102c9565b604080519115158252519081900360200190f35b34801561010557600080fd5b5061010e6102de565b60408051602080825283518183015283519192839290830191858101910280838360005b8381101561014a578181015183820152602001610132565b505050509050019250505060405180910390f35b60008181526003602052604081205460ff16151561017b57600080fd5b506000818152600360209081526040808320805460ff1916905560029091528120805491905560015460001901811461021d576001805460001981019081106101c057fe5b90600052602060002001546001828154811015156101da57fe5b906000526020600020018160001916905550806002600060018481548110151561020057fe5b600091825260208083209091015483528201929092526040019020555b6001805490610230906000198301610338565b505050565b60008181526003602052604090205460ff161561025157600080fd5b6000818152600360209081526040808320805460ff191660019081179091558054600290935290832082905581810181559091527fb10e2d527612073b26eecdfd717e6a320cf44b4afac2b0732d9fcbe2b7fa0cf60155565b60018054829081106102b857fe5b600091825260209091200154905081565b60009081526003602052604090205460ff1690565b6060600180548060200260200160405190810160405280929190818152602001828054801561032d57602002820191906000526020600020905b81548152600190910190602001808311610318575b505050505090505b90565b8154818355818111156102305760008381526020902061023091810190830161033591905b80821115610371576000815560010161035d565b50905600a165627a7a7230582015467da84ee4750584088bf887f139231f34f1f127b8b35f552dab0af663ec990029",
  "source": "pragma solidity ^0.4.24;\n\nimport \"./ISymbols.sol\";\n\ncontract Symbols is ISymbols {\n    bytes32[] public symbolsList;\n    mapping (bytes32 => uint) symbolIndex;\n    mapping (bytes32 => bool) symbols;\n\n    function addSymbol(bytes32 symbol) public {\n        require(!symbols[symbol]);\n\n        symbols[symbol] = true;\n        symbolIndex[symbol] = symbolsList.length;\n        symbolsList.push(symbol);\n    }\n\n    function removeSymbol(bytes32 symbol) public {\n        require(symbols[symbol]);\n\n        symbols[symbol] = false;\n\n        uint index = symbolIndex[symbol];\n\n        symbolIndex[symbol] = 0;\n\n        if (index != symbolsList.length - 1) {\n            symbolsList[index] = symbolsList[symbolsList.length - 1];\n            symbolIndex[symbolsList[index]] = index;\n        }\n\n        symbolsList.length--;\n    }\n\n    function hasSymbol(bytes32 symbol) public view returns(bool) {\n        return symbols[symbol];\n    }\n\n    function getSymbolsList() public view returns(bytes32[]) {\n        return symbolsList;\n    }\n}\n",
  "sourcePath": "/home/circleci/code/contracts/rates/Symbols.sol",
  "compiler": {
    "name": "solc",
    "version": "0.4.24+commit.e67f0147.Emscripten.clang"
  },
  "schemaVersion": "2.0.1",
  "updatedAt": "2018-12-06T13:14:33.205Z"
}