{
  "contractName": "Symbols",
  "abi": [
    {
      "constant": true,
      "inputs": [
        {
          "name": "",
          "type": "uint256"
        }
      ],
      "name": "symbolsList",
      "outputs": [
        {
          "name": "",
          "type": "bytes32"
        }
      ],
      "payable": false,
      "stateMutability": "view",
      "type": "function"
    },
    {
      "constant": false,
      "inputs": [
        {
          "name": "symbol",
          "type": "bytes32"
        }
      ],
      "name": "addSymbol",
      "outputs": [],
      "payable": false,
      "stateMutability": "nonpayable",
      "type": "function"
    },
    {
      "constant": false,
      "inputs": [
        {
          "name": "symbol",
          "type": "bytes32"
        }
      ],
      "name": "removeSymbol",
      "outputs": [],
      "payable": false,
      "stateMutability": "nonpayable",
      "type": "function"
    },
    {
      "constant": true,
      "inputs": [
        {
          "name": "symbol",
          "type": "bytes32"
        }
      ],
      "name": "hasSymbol",
      "outputs": [
        {
          "name": "",
          "type": "bool"
        }
      ],
      "payable": false,
      "stateMutability": "view",
      "type": "function"
    },
    {
      "constant": true,
      "inputs": [],
      "name": "getSymbolsList",
      "outputs": [
        {
          "name": "",
          "type": "bytes32[]"
        }
      ],
      "payable": false,
      "stateMutability": "view",
      "type": "function"
    }
  ],
  "bytecode": "0x608060405234801561001057600080fd5b50610511806100206000396000f30060806040526004361061006d576000357c0100000000000000000000000000000000000000000000000000000000900463ffffffff1680631b71a9db14610072578063289e029b146100a357806350b49f2d146100d45780637d20abf81461011d578063e5da831f14610166575b600080fd5b34801561007e57600080fd5b506100a160048036038101908080356000191690602001909291905050506101d2565b005b3480156100af57600080fd5b506100d26004803603810190808035600019169060200190929190505050610320565b005b3480156100e057600080fd5b506100ff600480360381019080803590602001909291905050506103e3565b60405180826000191660001916815260200191505060405180910390f35b34801561012957600080fd5b5061014c6004803603810190808035600019169060200190929190505050610406565b604051808215151515815260200191505060405180910390f35b34801561017257600080fd5b5061017b610438565b6040518080602001828103825283818151815260200191508051906020019060200280838360005b838110156101be5780820151818401526020810190506101a3565b505050509050019250505060405180910390f35b600060036000836000191660001916815260200190815260200160002060009054906101000a900460ff16151561020857600080fd5b600060036000846000191660001916815260200190815260200160002060006101000a81548160ff021916908315150217905550600260008360001916600019168152602001908152602001600020549050600060026000846000191660001916815260200190815260200160002081905550600180805490500381141515610306576001808080549050038154811015156102a057fe5b90600052602060002001546001828154811015156102ba57fe5b90600052602060002001816000191690555080600260006001848154811015156102e057fe5b906000526020600020015460001916600019168152602001908152602001600020819055505b600180548091906001900361031b9190610494565b505050565b60036000826000191660001916815260200190815260200160002060009054906101000a900460ff1615151561035557600080fd5b600160036000836000191660001916815260200190815260200160002060006101000a81548160ff02191690831515021790555060018054905060026000836000191660001916815260200190815260200160002081905550600181908060018154018082558091505090600182039060005260206000200160009091929091909150906000191690555050565b6001818154811015156103f257fe5b906000526020600020016000915090505481565b600060036000836000191660001916815260200190815260200160002060009054906101000a900460ff169050919050565b6060600180548060200260200160405190810160405280929190818152602001828054801561048a57602002820191906000526020600020905b81546000191681526020019060010190808311610472575b5050505050905090565b8154818355818111156104bb578183600052602060002091820191016104ba91906104c0565b5b505050565b6104e291905b808211156104de5760008160009055506001016104c6565b5090565b905600a165627a7a7230582057b79a522b3426f391bee04a50364574eabc65fcdc241d5bbfc4d1ab72c9758a0029",
  "source": "pragma solidity 0.4.24;\n\nimport \"./ISymbols.sol\";\n\n\ncontract Symbols is ISymbols {\n    bytes32[] public symbolsList;\n    mapping (bytes32 => uint) private symbolIndex;\n    mapping (bytes32 => bool) private symbols;\n\n    function addSymbol(bytes32 symbol) public {\n        require(!symbols[symbol]);\n\n        symbols[symbol] = true;\n        symbolIndex[symbol] = symbolsList.length;\n        symbolsList.push(symbol);\n    }\n\n    function removeSymbol(bytes32 symbol) public {\n        require(symbols[symbol]);\n\n        symbols[symbol] = false;\n\n        uint index = symbolIndex[symbol];\n\n        symbolIndex[symbol] = 0;\n\n        if (index != symbolsList.length - 1) {\n            symbolsList[index] = symbolsList[symbolsList.length - 1];\n            symbolIndex[symbolsList[index]] = index;\n        }\n\n        symbolsList.length--;\n    }\n\n    function hasSymbol(bytes32 symbol) public view returns(bool) {\n        return symbols[symbol];\n    }\n\n    function getSymbolsList() public view returns(bytes32[]) {\n        return symbolsList;\n    }\n}\n",
  "sourcePath": "/Users/gauss/_games/w12/W12-Product-Blockchain-Protocol/contracts/rates/Symbols.sol",
  "compiler": {
    "name": "solc",
    "version": "0.4.24+commit.e67f0147.Emscripten.clang"
  },
  "schemaVersion": "3.0.9",
  "updatedAt": "2019-06-02T10:42:51.647Z",
  "devdoc": {
    "methods": {}
  },
  "userdoc": {
    "methods": {}
  }
}