{
  "contractName": "TokenExchanger",
  "abi": [
    {
      "constant": true,
      "inputs": [],
      "name": "version",
      "outputs": [
        {
          "name": "",
          "type": "uint256"
        }
      ],
      "payable": false,
      "stateMutability": "view",
      "type": "function"
    },
    {
      "constant": false,
      "inputs": [],
      "name": "renounceOwnership",
      "outputs": [],
      "payable": false,
      "stateMutability": "nonpayable",
      "type": "function"
    },
    {
      "constant": true,
      "inputs": [],
      "name": "owner",
      "outputs": [
        {
          "name": "",
          "type": "address"
        }
      ],
      "payable": false,
      "stateMutability": "view",
      "type": "function"
    },
    {
      "constant": true,
      "inputs": [
        {
          "name": "",
          "type": "address"
        }
      ],
      "name": "listingWTokenToToken",
      "outputs": [
        {
          "name": "",
          "type": "address"
        }
      ],
      "payable": false,
      "stateMutability": "view",
      "type": "function"
    },
    {
      "constant": true,
      "inputs": [
        {
          "name": "",
          "type": "address"
        }
      ],
      "name": "listingTokenToWToken",
      "outputs": [
        {
          "name": "",
          "type": "address"
        }
      ],
      "payable": false,
      "stateMutability": "view",
      "type": "function"
    },
    {
      "constant": false,
      "inputs": [
        {
          "name": "_newOwner",
          "type": "address"
        }
      ],
      "name": "transferOwnership",
      "outputs": [],
      "payable": false,
      "stateMutability": "nonpayable",
      "type": "function"
    },
    {
      "inputs": [
        {
          "name": "version",
          "type": "uint256"
        }
      ],
      "payable": false,
      "stateMutability": "nonpayable",
      "type": "constructor"
    },
    {
      "anonymous": false,
      "inputs": [
        {
          "indexed": true,
          "name": "from",
          "type": "address"
        },
        {
          "indexed": true,
          "name": "to",
          "type": "address"
        },
        {
          "indexed": false,
          "name": "amount",
          "type": "uint256"
        },
        {
          "indexed": true,
          "name": "sender",
          "type": "address"
        }
      ],
      "name": "Exchange",
      "type": "event"
    },
    {
      "anonymous": false,
      "inputs": [
        {
          "indexed": true,
          "name": "previousOwner",
          "type": "address"
        }
      ],
      "name": "OwnershipRenounced",
      "type": "event"
    },
    {
      "anonymous": false,
      "inputs": [
        {
          "indexed": true,
          "name": "previousOwner",
          "type": "address"
        },
        {
          "indexed": true,
          "name": "newOwner",
          "type": "address"
        }
      ],
      "name": "OwnershipTransferred",
      "type": "event"
    },
    {
      "constant": false,
      "inputs": [
        {
          "name": "token",
          "type": "address"
        },
        {
          "name": "wToken",
          "type": "address"
        }
      ],
      "name": "addTokenToListing",
      "outputs": [],
      "payable": false,
      "stateMutability": "nonpayable",
      "type": "function"
    },
    {
      "constant": true,
      "inputs": [
        {
          "name": "token1",
          "type": "address"
        },
        {
          "name": "token2",
          "type": "address"
        }
      ],
      "name": "hasPair",
      "outputs": [
        {
          "name": "",
          "type": "bool"
        }
      ],
      "payable": false,
      "stateMutability": "view",
      "type": "function"
    },
    {
      "constant": true,
      "inputs": [
        {
          "name": "token",
          "type": "address"
        }
      ],
      "name": "getWTokenByToken",
      "outputs": [
        {
          "name": "wTokenAddress",
          "type": "address"
        }
      ],
      "payable": false,
      "stateMutability": "view",
      "type": "function"
    },
    {
      "constant": true,
      "inputs": [
        {
          "name": "wToken",
          "type": "address"
        }
      ],
      "name": "getTokenByWToken",
      "outputs": [
        {
          "name": "tokenAddress",
          "type": "address"
        }
      ],
      "payable": false,
      "stateMutability": "view",
      "type": "function"
    },
    {
      "constant": false,
      "inputs": [
        {
          "name": "token",
          "type": "address"
        },
        {
          "name": "spender",
          "type": "address"
        },
        {
          "name": "amount",
          "type": "uint256"
        }
      ],
      "name": "approve",
      "outputs": [
        {
          "name": "",
          "type": "bool"
        }
      ],
      "payable": false,
      "stateMutability": "nonpayable",
      "type": "function"
    },
    {
      "constant": false,
      "inputs": [
        {
          "name": "fromToken",
          "type": "address"
        },
        {
          "name": "amount",
          "type": "uint256"
        }
      ],
      "name": "exchange",
      "outputs": [],
      "payable": false,
      "stateMutability": "nonpayable",
      "type": "function"
    }
  ],
  "bytecode": "0x6080604052600160025534801561001557600080fd5b506040516020806108d5833981016040525160005560018054600160a060020a0319163317905561088a8061004b6000396000f3006080604052600436106100a05763ffffffff60e060020a600035041663045d038981146100a5578063151f3734146100cb57806354fd4d5014610108578063715018a61461012f5780638da5cb5b14610144578063a073691214610159578063cf05039514610180578063cf0a7b4d146101a1578063e1f21c67146101c2578063e2601a5714610200578063f2fde38b14610221578063ff740c1d14610242575b600080fd5b3480156100b157600080fd5b506100c9600160a060020a0360043516602435610269565b005b3480156100d757600080fd5b506100ec600160a060020a0360043516610355565b60408051600160a060020a039092168252519081900360200190f35b34801561011457600080fd5b5061011d61038b565b60408051918252519081900360200190f35b34801561013b57600080fd5b506100c9610391565b34801561015057600080fd5b506100ec6103ff565b34801561016557600080fd5b506100c9600160a060020a036004358116906024351661040e565b34801561018c57600080fd5b506100ec600160a060020a03600435166104ee565b3480156101ad57600080fd5b506100ec600160a060020a0360043516610524565b3480156101ce57600080fd5b506101ec600160a060020a036004358116906024351660443561053f565b604080519115158252519081900360200190f35b34801561020c57600080fd5b506100ec600160a060020a03600435166105f0565b34801561022d57600080fd5b506100c9600160a060020a036004351661060b565b34801561024e57600080fd5b506101ec600160a060020a036004358116906024351661062e565b60025460009060011461027b57600080fd5b600280556000821161028c57600080fd5b600160a060020a03831615156102a157600080fd5b6102aa836104ee565b9050600160a060020a03811615156102c157600080fd5b6102dc600160a060020a03841633308563ffffffff61069016565b6102f6600160a060020a038216338463ffffffff61074116565b33600160a060020a031681600160a060020a031684600160a060020a03167f8f76119a2ce416e7cb071f59d5029dac674dfc46b4c245219902c862465d2037856040518082815260200191505060405180910390a45050600160025550565b6000600160a060020a038216151561036c57600080fd5b50600160a060020a039081166000908152600360205260409020541690565b60005481565b600154600160a060020a031633146103a857600080fd5b600154604051600160a060020a03909116907ff8df31144d9c2f0f6b59d69b8b98abd5459d07f2742c4df920b25aae33c6482090600090a26001805473ffffffffffffffffffffffffffffffffffffffff19169055565b600154600160a060020a031681565b600154600160a060020a0316331461042557600080fd5b600160a060020a038216151561043a57600080fd5b600160a060020a038116151561044f57600080fd5b600160a060020a03828116908216141561046857600080fd5b610472828261062e565b1561047c57600080fd5b600160a060020a03918216600081815260036020908152604080832080549690951673ffffffffffffffffffffffffffffffffffffffff19968716811790955584835260048252808320805490961684179095559181526005825283812092815291905220805460ff19166001179055565b6000600160a060020a038216151561050557600080fd5b50600160a060020a039081166000908152600460205260409020541690565b600460205260009081526040902054600160a060020a031681565b600154600090600160a060020a0316331461055957600080fd5b83600160a060020a031663095ea7b384846040518363ffffffff1660e060020a0281526004018083600160a060020a0316600160a060020a0316815260200182815260200192505050602060405180830381600087803b1580156105bc57600080fd5b505af11580156105d0573d6000803e3d6000fd5b505050506040513d60208110156105e657600080fd5b5051949350505050565b600360205260009081526040902054600160a060020a031681565b600154600160a060020a0316331461062257600080fd5b61062b816107e0565b50565b600160a060020a03808316600090815260056020908152604080832093851683529290529081205460ff16806106895750600160a060020a0380831660009081526005602090815260408083209387168352929052205460ff165b9392505050565b604080517f23b872dd000000000000000000000000000000000000000000000000000000008152600160a060020a0385811660048301528481166024830152604482018490529151918616916323b872dd916064808201926020929091908290030181600087803b15801561070457600080fd5b505af1158015610718573d6000803e3d6000fd5b505050506040513d602081101561072e57600080fd5b5051151561073b57600080fd5b50505050565b82600160a060020a031663a9059cbb83836040518363ffffffff1660e060020a0281526004018083600160a060020a0316600160a060020a0316815260200182815260200192505050602060405180830381600087803b1580156107a457600080fd5b505af11580156107b8573d6000803e3d6000fd5b505050506040513d60208110156107ce57600080fd5b505115156107db57600080fd5b505050565b600160a060020a03811615156107f557600080fd5b600154604051600160a060020a038084169216907f8be0079c531659141344cd1fd0a4f28419497f9722a3daafe3b4186f6b6457e090600090a36001805473ffffffffffffffffffffffffffffffffffffffff1916600160a060020a03929092169190911790555600a165627a7a7230582064e6c732dc0699573618d42ea0c9796db990b8f39dc3275cf9693ad7271575760029",
  "source": "pragma solidity ^0.4.24;\n\nimport \"openzeppelin-solidity/contracts/ownership/Ownable.sol\";\nimport \"openzeppelin-solidity/contracts/math/SafeMath.sol\";\nimport \"openzeppelin-solidity/contracts/token/ERC20/SafeERC20.sol\";\nimport \"openzeppelin-solidity/contracts/ReentrancyGuard.sol\";\nimport \"../../versioning/Versionable.sol\";\nimport \"../WToken.sol\";\nimport \"./ITokenExchanger.sol\";\n\n\ncontract TokenExchanger is ITokenExchanger, Versionable, Ownable, ReentrancyGuard {\n    using SafeMath for uint;\n    using SafeERC20 for ERC20;\n\n    mapping(address => WToken) public listingTokenToWToken;\n    mapping(address => ERC20) public listingWTokenToToken;\n    mapping(address => mapping(address => bool)) pairs;\n\n    event Exchange(address indexed from, address indexed to, uint amount, address indexed sender);\n\n    constructor(uint version) Versionable(version) public {}\n\n    function addTokenToListing(ERC20 token, WToken wToken) external onlyOwner {\n        require(token != address(0));\n        require(wToken != address(0));\n        require(token != wToken);\n        require(!hasPair(token, wToken));\n\n        listingTokenToWToken[token] = wToken;\n        listingWTokenToToken[wToken] = token;\n        pairs[token][wToken] = true;\n    }\n\n    function hasPair(ERC20 token1, ERC20 token2) public view returns (bool) {\n        return pairs[token1][token2] || pairs[token2][token1];\n    }\n\n    function getWTokenByToken(address token) public view returns (WToken wTokenAddress) {\n        require(token != address(0));\n\n        wTokenAddress = listingTokenToWToken[token];\n    }\n\n    function getTokenByWToken(address wToken) public view returns (ERC20 tokenAddress) {\n        require(wToken != address(0));\n\n        tokenAddress = listingWTokenToToken[wToken];\n    }\n\n    function approve(ERC20 token, address spender, uint amount) external onlyOwner returns (bool) {\n        return token.approve(spender, amount);\n    }\n\n    function exchange(ERC20 fromToken, uint amount) external nonReentrant {\n        require(amount > 0);\n        require(fromToken != address(0));\n        // Checking if fromToken is WToken and have actual pair\n        ERC20 toToken = getTokenByWToken(fromToken);\n        require(toToken != address(0));\n        // we won't check `amount` for zero because ERC20 implies zero amount transfers as a valid case\n\n        fromToken.safeTransferFrom(msg.sender, address(this), amount);\n        toToken.safeTransfer(msg.sender, amount);\n\n        emit Exchange(address(fromToken), address(toToken), amount, msg.sender);\n    }\n}\n",
  "sourcePath": "/home/circleci/code/contracts/token/exchanger/TokenExchanger.sol",
  "compiler": {
    "name": "solc",
    "version": "0.4.24+commit.e67f0147.Emscripten.clang"
  },
  "schemaVersion": "2.0.1",
  "updatedAt": "2018-10-02T12:05:06.488Z"
}