{
  "contractName": "TokenExchanger",
  "abi": [
    {
      "constant": false,
      "inputs": [
        {
          "name": "recipient",
          "type": "address"
        }
      ],
      "name": "transferPrimary",
      "outputs": [],
      "payable": false,
      "stateMutability": "nonpayable",
      "type": "function"
    },
    {
      "constant": true,
      "inputs": [],
      "name": "version",
      "outputs": [
        {
          "name": "",
          "type": "uint256"
        }
      ],
      "payable": false,
      "stateMutability": "view",
      "type": "function"
    },
    {
      "constant": true,
      "inputs": [],
      "name": "primary",
      "outputs": [
        {
          "name": "",
          "type": "address"
        }
      ],
      "payable": false,
      "stateMutability": "view",
      "type": "function"
    },
    {
      "constant": true,
      "inputs": [
        {
          "name": "",
          "type": "address"
        }
      ],
      "name": "listingWTokenToToken",
      "outputs": [
        {
          "name": "",
          "type": "address"
        }
      ],
      "payable": false,
      "stateMutability": "view",
      "type": "function"
    },
    {
      "constant": true,
      "inputs": [
        {
          "name": "",
          "type": "address"
        }
      ],
      "name": "listingTokenToWToken",
      "outputs": [
        {
          "name": "",
          "type": "address"
        }
      ],
      "payable": false,
      "stateMutability": "view",
      "type": "function"
    },
    {
      "inputs": [
        {
          "name": "version",
          "type": "uint256"
        }
      ],
      "payable": false,
      "stateMutability": "nonpayable",
      "type": "constructor"
    },
    {
      "anonymous": false,
      "inputs": [
        {
          "indexed": true,
          "name": "from",
          "type": "address"
        },
        {
          "indexed": true,
          "name": "to",
          "type": "address"
        },
        {
          "indexed": false,
          "name": "amount",
          "type": "uint256"
        },
        {
          "indexed": true,
          "name": "sender",
          "type": "address"
        }
      ],
      "name": "Exchange",
      "type": "event"
    },
    {
      "anonymous": false,
      "inputs": [
        {
          "indexed": false,
          "name": "recipient",
          "type": "address"
        }
      ],
      "name": "PrimaryTransferred",
      "type": "event"
    },
    {
      "constant": false,
      "inputs": [
        {
          "name": "token",
          "type": "address"
        },
        {
          "name": "wToken",
          "type": "address"
        }
      ],
      "name": "addTokenToListing",
      "outputs": [],
      "payable": false,
      "stateMutability": "nonpayable",
      "type": "function"
    },
    {
      "constant": true,
      "inputs": [
        {
          "name": "token1",
          "type": "address"
        },
        {
          "name": "token2",
          "type": "address"
        }
      ],
      "name": "hasPair",
      "outputs": [
        {
          "name": "",
          "type": "bool"
        }
      ],
      "payable": false,
      "stateMutability": "view",
      "type": "function"
    },
    {
      "constant": true,
      "inputs": [
        {
          "name": "token",
          "type": "address"
        }
      ],
      "name": "getWTokenByToken",
      "outputs": [
        {
          "name": "",
          "type": "address"
        }
      ],
      "payable": false,
      "stateMutability": "view",
      "type": "function"
    },
    {
      "constant": true,
      "inputs": [
        {
          "name": "wToken",
          "type": "address"
        }
      ],
      "name": "getTokenByWToken",
      "outputs": [
        {
          "name": "",
          "type": "address"
        }
      ],
      "payable": false,
      "stateMutability": "view",
      "type": "function"
    },
    {
      "constant": false,
      "inputs": [
        {
          "name": "token",
          "type": "address"
        },
        {
          "name": "spender",
          "type": "address"
        },
        {
          "name": "amount",
          "type": "uint256"
        }
      ],
      "name": "approve",
      "outputs": [
        {
          "name": "",
          "type": "bool"
        }
      ],
      "payable": false,
      "stateMutability": "nonpayable",
      "type": "function"
    },
    {
      "constant": false,
      "inputs": [
        {
          "name": "fromToken",
          "type": "address"
        },
        {
          "name": "amount",
          "type": "uint256"
        }
      ],
      "name": "exchange",
      "outputs": [],
      "payable": false,
      "stateMutability": "nonpayable",
      "type": "function"
    }
  ],
  "bytecode": "0x608060405234801561001057600080fd5b506040516020806108988339810160408181529151600081905560018054600160a060020a031916331790819055600160a060020a0316825291517f4101e71e974f68df5e9730cc223280b41654676bbb052cdcc735c3337e64d2d99181900360200190a150600160025561080e8061008a6000396000f3006080604052600436106100955763ffffffff60e060020a600035041663045d0389811461009a578063151f3734146100c05780632348238c146100fd57806354fd4d501461011e578063a073691214610145578063c6dbdf611461016c578063cf05039514610181578063cf0a7b4d146101a2578063e1f21c67146101c3578063e2601a5714610201578063ff740c1d14610222575b600080fd5b3480156100a657600080fd5b506100be600160a060020a0360043516602435610249565b005b3480156100cc57600080fd5b506100e1600160a060020a0360043516610336565b60408051600160a060020a039092168252519081900360200190f35b34801561010957600080fd5b506100be600160a060020a036004351661036c565b34801561012a57600080fd5b506101336103ff565b60408051918252519081900360200190f35b34801561015157600080fd5b506100be600160a060020a0360043581169060243516610405565b34801561017857600080fd5b506100e161050a565b34801561018d57600080fd5b506100e1600160a060020a0360043516610519565b3480156101ae57600080fd5b506100e1600160a060020a036004351661054f565b3480156101cf57600080fd5b506101ed600160a060020a036004358116906024351660443561056a565b604080519115158252519081900360200190f35b34801561020d57600080fd5b506100e1600160a060020a036004351661061b565b34801561022e57600080fd5b506101ed600160a060020a0360043581169060243516610636565b600280546001019081905560009081831161026357600080fd5b600160a060020a038416151561027857600080fd5b61028184610519565b9150600160a060020a038216151561029857600080fd5b6102b3600160a060020a03851633308663ffffffff61069816565b6102cd600160a060020a038316338563ffffffff61074316565b33600160a060020a031682600160a060020a031685600160a060020a03167f8f76119a2ce416e7cb071f59d5029dac674dfc46b4c245219902c862465d2037866040518082815260200191505060405180910390a4600254811461033057600080fd5b50505050565b6000600160a060020a038216151561034d57600080fd5b50600160a060020a039081166000908152600360205260409020541690565b600154600160a060020a0316331461038357600080fd5b600160a060020a038116151561039857600080fd5b6001805473ffffffffffffffffffffffffffffffffffffffff1916600160a060020a03838116919091179182905560408051929091168252517f4101e71e974f68df5e9730cc223280b41654676bbb052cdcc735c3337e64d2d9916020908290030190a150565b60005481565b600154600160a060020a0316331461041c57600080fd5b600160a060020a038216151561043157600080fd5b600160a060020a038116151561044657600080fd5b600160a060020a03828116600090815260036020526040902054161561046b57600080fd5b600160a060020a03828116908216141561048457600080fd5b61048e8282610636565b1561049857600080fd5b600160a060020a03918216600081815260036020908152604080832080549690951673ffffffffffffffffffffffffffffffffffffffff19968716811790955584835260048252808320805490961684179095559181526005825283812092815291905220805460ff19166001179055565b600154600160a060020a031690565b6000600160a060020a038216151561053057600080fd5b50600160a060020a039081166000908152600460205260409020541690565b600460205260009081526040902054600160a060020a031681565b600154600090600160a060020a0316331461058457600080fd5b83600160a060020a031663095ea7b384846040518363ffffffff1660e060020a0281526004018083600160a060020a0316600160a060020a0316815260200182815260200192505050602060405180830381600087803b1580156105e757600080fd5b505af11580156105fb573d6000803e3d6000fd5b505050506040513d602081101561061157600080fd5b5051949350505050565b600360205260009081526040902054600160a060020a031681565b600160a060020a03808316600090815260056020908152604080832093851683529290529081205460ff16806106915750600160a060020a0380831660009081526005602090815260408083209387168352929052205460ff165b9392505050565b604080517f23b872dd000000000000000000000000000000000000000000000000000000008152600160a060020a0385811660048301528481166024830152604482018490529151918616916323b872dd916064808201926020929091908290030181600087803b15801561070c57600080fd5b505af1158015610720573d6000803e3d6000fd5b505050506040513d602081101561073657600080fd5b5051151561033057600080fd5b82600160a060020a031663a9059cbb83836040518363ffffffff1660e060020a0281526004018083600160a060020a0316600160a060020a0316815260200182815260200192505050602060405180830381600087803b1580156107a657600080fd5b505af11580156107ba573d6000803e3d6000fd5b505050506040513d60208110156107d057600080fd5b505115156107dd57600080fd5b5050505600a165627a7a723058205d2e51e0d0a631859d7868111dfb63a115b1206e51749048f29b018a1ddbf9a50029",
  "source": "pragma solidity ^0.4.24;\n\nimport \"openzeppelin-solidity/contracts/ownership/Secondary.sol\";\nimport \"openzeppelin-solidity/contracts/math/SafeMath.sol\";\nimport \"openzeppelin-solidity/contracts/token/ERC20/IERC20.sol\";\nimport \"openzeppelin-solidity/contracts/token/ERC20/ERC20Detailed.sol\";\nimport \"openzeppelin-solidity/contracts/token/ERC20/SafeERC20.sol\";\nimport \"openzeppelin-solidity/contracts/utils/ReentrancyGuard.sol\";\nimport \"../../versioning/Versionable.sol\";\nimport \"../IWToken.sol\";\nimport \"./ITokenExchanger.sol\";\n\n\ncontract TokenExchanger is ITokenExchanger, Versionable, Secondary, ReentrancyGuard {\n    using SafeMath for uint;\n    using SafeERC20 for ERC20Detailed;\n    using SafeERC20 for IERC20;\n\n    mapping(address => IWToken) public listingTokenToWToken;\n    mapping(address => ERC20Detailed) public listingWTokenToToken;\n    mapping(address => mapping(address => bool)) pairs;\n\n    event Exchange(address indexed from, address indexed to, uint amount, address indexed sender);\n\n    constructor(uint version) Versionable(version) public {}\n\n    function addTokenToListing(ERC20Detailed token, IWToken wToken) external onlyPrimary {\n        require(token != address(0));\n        require(wToken != address(0));\n        require(address(listingTokenToWToken[token]) == address(0));\n        require(address(token) != address(wToken));\n        require(!hasPair(ERC20Detailed(token), ERC20Detailed(wToken)));\n\n        listingTokenToWToken[token] = wToken;\n        listingWTokenToToken[wToken] = token;\n        pairs[token][wToken] = true;\n    }\n\n    function hasPair(ERC20Detailed token1, ERC20Detailed token2) public view returns (bool) {\n        return pairs[token1][token2] || pairs[token2][token1];\n    }\n\n    function getWTokenByToken(address token) public view returns (IWToken) {\n        require(token != address(0));\n\n        return listingTokenToWToken[token];\n    }\n\n    function getTokenByWToken(address wToken) public view returns (ERC20Detailed) {\n        require(wToken != address(0));\n\n        return listingWTokenToToken[wToken];\n    }\n\n    function approve(IERC20 token, address spender, uint amount) external onlyPrimary returns (bool) {\n        return token.approve(spender, amount);\n    }\n\n    function exchange(IERC20 fromToken, uint amount) external nonReentrant {\n        require(amount > 0);\n        require(fromToken != address(0));\n        // Checking if fromToken is WToken and have actual pair\n        IERC20 toToken = getTokenByWToken(fromToken);\n        require(toToken != address(0));\n        // we won't check `amount` for zero because ERC20 implies zero amount transfers as a valid case\n\n        fromToken.safeTransferFrom(msg.sender, address(this), amount);\n        toToken.safeTransfer(msg.sender, amount);\n\n        emit Exchange(address(fromToken), address(toToken), amount, msg.sender);\n    }\n}\n",
  "sourcePath": "/home/circleci/code/contracts/token/exchanger/TokenExchanger.sol",
  "compiler": {
    "name": "solc",
    "version": "0.4.24+commit.e67f0147.Emscripten.clang"
  },
  "schemaVersion": "2.0.1",
  "updatedAt": "2018-12-12T11:19:39.341Z"
}