{
  "contractName": "Utils",
  "abi": [
    {
      "constant": true,
      "inputs": [
        {
          "name": "value",
          "type": "uint256"
        },
        {
          "name": "decimals",
          "type": "uint256"
        },
        {
          "name": "rate",
          "type": "uint256"
        }
      ],
      "name": "safeConversionByRate",
      "outputs": [
        {
          "name": "",
          "type": "uint256"
        }
      ],
      "payable": false,
      "stateMutability": "pure",
      "type": "function"
    },
    {
      "constant": true,
      "inputs": [
        {
          "name": "value",
          "type": "uint256"
        },
        {
          "name": "decimals",
          "type": "uint256"
        },
        {
          "name": "rate",
          "type": "uint256"
        }
      ],
      "name": "safeReverseConversionByRate",
      "outputs": [
        {
          "name": "",
          "type": "uint256"
        }
      ],
      "payable": false,
      "stateMutability": "pure",
      "type": "function"
    },
    {
      "constant": true,
      "inputs": [
        {
          "name": "a",
          "type": "uint256"
        },
        {
          "name": "b",
          "type": "uint256"
        },
        {
          "name": "c",
          "type": "uint256"
        }
      ],
      "name": "safeMulDiv",
      "outputs": [
        {
          "name": "result",
          "type": "uint256"
        }
      ],
      "payable": false,
      "stateMutability": "pure",
      "type": "function"
    }
  ],
  "bytecode": "0x6104c8610030600b82828239805160001a6073146000811461002057610022565bfe5b5030600052607381538281f300730000000000000000000000000000000000000000301460806040526004361061006e576000357c0100000000000000000000000000000000000000000000000000000000900463ffffffff16806376ba789814610073578063a5a55fcf146100bb578063bda4e61914610103575b600080fd5b6100a560048036038101908080359060200190929190803590602001909291908035906020019092919050505061014b565b6040518082815260200191505060405180910390f35b6100ed6004803603810190808035906020019092919080359060200190929190803590602001909291905050506101cc565b6040518082815260200191505060405180910390f35b61013560048036038101908080359060200190929190803590602001909291908035906020019092919050505061024a565b6040518082815260200191505060405180910390f35b60006101c361018d84600a0a61017f8561017188600a0a8a6103cd90919063ffffffff16565b6103f290919063ffffffff16565b61043090919063ffffffff16565b6101b5846101a787600a0a8961043090919063ffffffff16565b6103f290919063ffffffff16565b61045a90919063ffffffff16565b90509392505050565b600061024161020b836101fd86600a0a6101ef878a6103cd90919063ffffffff16565b6103f290919063ffffffff16565b61043090919063ffffffff16565b61023385600a0a610225868961043090919063ffffffff16565b6103f290919063ffffffff16565b61045a90919063ffffffff16565b90509392505050565b600080600080600080861415151561025e57fe5b600088148061026d5750600087145b15610277576103c2565b6102aa877fffffffffffffffffffffffffffffffffffffffffffffffffffffffffffffffff61043090919063ffffffff16565b925082881115156102e1576102da866102cc898b6103f290919063ffffffff16565b61043090919063ffffffff16565b94506103c2565b858814156102f1578694506103c2565b85871415610301578794506103c2565b5b60008814151561039a57878311610319578261031b565b875b915061033087836103f290919063ffffffff16565b9050610357610348878361043090919063ffffffff16565b8661045a90919063ffffffff16565b945061037e61036f87836103cd90919063ffffffff16565b8561045a90919063ffffffff16565b9350610393828961047b90919063ffffffff16565b9750610302565b6103bf6103b0878661043090919063ffffffff16565b8661045a90919063ffffffff16565b94505b505050509392505050565b60008082141515156103de57600080fd5b81838115156103e957fe5b06905092915050565b60008060008414156104075760009150610429565b828402905082848281151561041857fe5b0414151561042557600080fd5b8091505b5092915050565b60008060008311151561044257600080fd5b828481151561044d57fe5b0490508091505092915050565b600080828401905083811015151561047157600080fd5b8091505092915050565b60008083831115151561048d57600080fd5b828403905080915050929150505600a165627a7a72305820053ab1a95751f26656f5edc02324971a516a6ba14ad32ec0f5f80ef91eae5b720029",
  "source": "pragma solidity 0.4.24;\n\nimport \"openzeppelin-solidity/contracts/math/SafeMath.sol\";\n\n\nlibrary Utils {\n    using SafeMath for uint;\n\n    uint constant private MAX_UINT = uint(-1);\n\n    /**\n     * @dev Do convert `value` with `decimals` as position of point to another by `rate`.\n     *      This a workaround avoids overflow in some case.\n     */\n    function safeConversionByRate(uint value, uint decimals, uint rate) public pure returns (uint) {\n        return value.div(10 ** decimals).mul(rate).add(value.mod(10 ** decimals).mul(rate).div(10 ** decimals));\n    }\n\n    /**\n     * @dev Do reverse conversion of `value` by `rate`(see `safeConversionByRate`).\n     *      This a workaround avoids overflow in some case.\n     */\n    function safeReverseConversionByRate(uint value, uint decimals, uint rate) public pure returns (uint) {\n        return value.div(rate).mul(10 ** decimals).add(value.mod(rate).mul(10 ** decimals).div(rate));\n    }\n\n    /**\n     * @dev Doing multiplying `a` by `b` and then divide by `c`. In some case it avoids overflow.\n     *      (2^256-1) * 2 / 2 = (2^256-1) - no overflow when (2^256-1) * 2\n     */\n    function safeMulDiv(uint a, uint b, uint c) public pure returns(uint result) {\n        uint fractionsSum;\n\n        assert(c != 0);\n\n        if (a == 0 || b == 0) return;\n\n        uint maxA = MAX_UINT.div(b);\n\n        if (a <= maxA) return a.mul(b).div(c);\n        if (a == c) return b;\n        if (b == c) return a;\n\n        while (a != 0) {\n            uint aPart = maxA > a ? a : maxA;\n            uint aPartByBProd = aPart.mul(b);\n\n            result = result.add(aPartByBProd.div(c));\n            fractionsSum = fractionsSum.add(aPartByBProd.mod(c));\n\n            a = a.sub(aPart);\n        }\n\n        result = result.add(fractionsSum.div(c));\n    }\n}\n",
  "sourcePath": "/Users/gauss/_games/w12/W12-Product-Blockchain-Protocol/contracts/libs/Utils.sol",
  "compiler": {
    "name": "solc",
    "version": "0.4.24+commit.e67f0147.Emscripten.clang"
  },
  "schemaVersion": "3.0.10",
  "updatedAt": "2019-06-17T16:23:09.057Z",
  "devdoc": {
    "methods": {
      "safeConversionByRate(uint256,uint256,uint256)": {
        "details": "Do convert `value` with `decimals` as position of point to another by `rate`.     This a workaround avoids overflow in some case."
      },
      "safeMulDiv(uint256,uint256,uint256)": {
        "details": "Doing multiplying `a` by `b` and then divide by `c`. In some case it avoids overflow.     (2^256-1) * 2 / 2 = (2^256-1) - no overflow when (2^256-1) * 2"
      },
      "safeReverseConversionByRate(uint256,uint256,uint256)": {
        "details": "Do reverse conversion of `value` by `rate`(see `safeConversionByRate`).     This a workaround avoids overflow in some case."
      }
    }
  },
  "userdoc": {
    "methods": {}
  }
}