{
  "contractName": "Utils",
  "abi": [
    {
      "constant": true,
      "inputs": [
        {
          "name": "value",
          "type": "uint256"
        },
        {
          "name": "decimals",
          "type": "uint256"
        },
        {
          "name": "rate",
          "type": "uint256"
        }
      ],
      "name": "safeConversionByRate",
      "outputs": [
        {
          "name": "",
          "type": "uint256"
        }
      ],
      "payable": false,
      "stateMutability": "pure",
      "type": "function"
    },
    {
      "constant": true,
      "inputs": [
        {
          "name": "value",
          "type": "uint256"
        },
        {
          "name": "decimals",
          "type": "uint256"
        },
        {
          "name": "rate",
          "type": "uint256"
        }
      ],
      "name": "safeReverseConversionByRate",
      "outputs": [
        {
          "name": "",
          "type": "uint256"
        }
      ],
      "payable": false,
      "stateMutability": "pure",
      "type": "function"
    }
  ],
  "bytecode": "0x6101b8610030600b82828239805160001a6073146000811461002057610022565bfe5b5030600052607381538281f30073000000000000000000000000000000000000000030146080604052600436106100625763ffffffff7c010000000000000000000000000000000000000000000000000000000060003504166376ba78988114610067578063a5a55fcf1461008a575b600080fd5b61007860043560243560443561009b565b60408051918252519081900360200190f35b610078600435602435604435610108565b60006101006100d0600a85900a6100c48582898115156100b757fe5b069063ffffffff61013b16565b9063ffffffff61016a16565b6100f4846100e888600a89900a63ffffffff61016a16565b9063ffffffff61013b16565b9063ffffffff61017f16565b949350505050565b6000610100610123836100c486600a0a86898115156100b757fe5b6100f4600a86900a6100e8888763ffffffff61016a16565b600082151561014c57506000610164565b5081810281838281151561015c57fe5b041461016457fe5b92915050565b6000818381151561017757fe5b049392505050565b8181018281101561016457fe00a165627a7a72305820b6ba1b69fa5d2281f11d0a5c3c7d81c33db4ac12ed03133c527deb8d52a60af70029",
  "source": "pragma solidity ^0.4.24;\n\nimport \"openzeppelin-solidity/contracts/math/SafeMath.sol\";\n\nlibrary Utils {\n    using SafeMath for uint;\n\n    uint constant MAX_UINT = uint(-1);\n\n    /**\n     * @dev Do convert `value` with `decimals` as position of point to another by `rate`.\n     *      This a workaround avoids overflow in some case.\n     */\n    function safeConversionByRate(uint value, uint decimals, uint rate) public pure returns (uint) {\n        return value.div(10 ** decimals).mul(rate).add((value % (10 ** decimals)).mul(rate).div(10 ** decimals));\n    }\n\n    /**\n     * @dev Do reverse conversion of `value` by `rate`(see `safeConversionByRate`).\n     *      This a workaround avoids overflow in some case.\n     */\n    function safeReverseConversionByRate(uint value, uint decimals, uint rate) public pure returns (uint) {\n        return value.div(rate).mul(10 ** decimals).add((value % rate).mul(10 ** decimals).div(rate));\n    }\n\n    /**\n     * @dev Doing multiplying `a` by `b` and then divide by `c`. In some case it avoids overflow.\n     *      (2^256-1) * 2 / 2 = (2^256-1) - no overflow when (2^256-1) * 2\n     */\n    function safeMulDiv(uint a, uint b, uint c) internal pure returns(uint result) {\n        uint fractionsSum;\n\n        assert(c != 0);\n        \n        if(a == 0 || b == 0) return;\n\n        uint maxA = MAX_UINT.div(b);\n\n        if (a <= maxA) return a.mul(b).div(c);\n        if (a == c) return b;\n        if (b == c) return a;\n\n        while (a != 0) {\n            uint aPart = maxA > a ? a : maxA;\n            uint aPartByBProd = aPart.mul(b);\n\n            result = result.add(aPartByBProd.div(c));\n            fractionsSum = fractionsSum.add(aPartByBProd % c);\n\n            a = a.sub(aPart);\n        }\n\n        result = result.add(fractionsSum.div(c));\n    }\n}\n",
  "sourcePath": "/home/circleci/code/contracts/libs/Utils.sol",
  "compiler": {
    "name": "solc",
    "version": "0.4.24+commit.e67f0147.Emscripten.clang"
  },
  "schemaVersion": "2.0.1",
  "updatedAt": "2018-10-22T07:59:52.061Z"
}