{
  "contractName": "UtilsMock",
  "abi": [
    {
      "constant": true,
      "inputs": [
        {
          "name": "value",
          "type": "uint256"
        },
        {
          "name": "decimals",
          "type": "uint256"
        },
        {
          "name": "rate",
          "type": "uint256"
        }
      ],
      "name": "safeConversionByRate",
      "outputs": [
        {
          "name": "",
          "type": "uint256"
        }
      ],
      "payable": false,
      "stateMutability": "pure",
      "type": "function"
    },
    {
      "constant": true,
      "inputs": [
        {
          "name": "value",
          "type": "uint256"
        },
        {
          "name": "decimals",
          "type": "uint256"
        },
        {
          "name": "rate",
          "type": "uint256"
        }
      ],
      "name": "safeReverseConversionByRate",
      "outputs": [
        {
          "name": "",
          "type": "uint256"
        }
      ],
      "payable": false,
      "stateMutability": "pure",
      "type": "function"
    },
    {
      "constant": true,
      "inputs": [
        {
          "name": "a",
          "type": "uint256"
        },
        {
          "name": "b",
          "type": "uint256"
        },
        {
          "name": "c",
          "type": "uint256"
        }
      ],
      "name": "safeMulDiv",
      "outputs": [
        {
          "name": "",
          "type": "uint256"
        }
      ],
      "payable": false,
      "stateMutability": "pure",
      "type": "function"
    }
  ],
  "bytecode": "0x608060405234801561001057600080fd5b5061023a806100206000396000f30060806040526004361061003d5763ffffffff60e060020a60003504166376ba78988114610042578063a5a55fcf14610072578063bda4e61914610090575b600080fd5b34801561004e57600080fd5b506100606004356024356044356100ae565b60408051918252519081900360200190f35b34801561007e57600080fd5b50610060600435602435604435610146565b34801561009c57600080fd5b506100606004356024356044356101aa565b600073__Utils_________________________________6376ba78988585856040518463ffffffff1660e060020a02815260040180848152602001838152602001828152602001935050505060206040518083038186803b15801561011257600080fd5b505af4158015610126573d6000803e3d6000fd5b505050506040513d602081101561013c57600080fd5b5051949350505050565b600073__Utils_________________________________63a5a55fcf8585856040518463ffffffff1660e060020a02815260040180848152602001838152602001828152602001935050505060206040518083038186803b15801561011257600080fd5b600073__Utils_________________________________63bda4e6198585856040518463ffffffff1660e060020a02815260040180848152602001838152602001828152602001935050505060206040518083038186803b15801561011257600080fd00a165627a7a7230582004164097e3270ce64398c4f0a567853e763c93372a1602cf4d25f59d2536bc820029",
  "source": "pragma solidity 0.4.24;\n\nimport \"../../libs/Utils.sol\";\n\n\ncontract UtilsMock {\n\n    function safeConversionByRate(uint value, uint decimals, uint rate) public pure returns (uint) {\n        return Utils.safeConversionByRate(value, decimals, rate);\n    }\n\n    function safeReverseConversionByRate(uint value, uint decimals, uint rate) public pure returns (uint) {\n        return Utils.safeReverseConversionByRate(value, decimals, rate);\n    }\n\n    function safeMulDiv(uint a, uint b, uint c) public pure returns(uint) {\n        return Utils.safeMulDiv(a, b, c);\n    }\n}\n",
  "sourcePath": "/Users/gauss/_games/w12/Protocol/contracts/mocks/libs/Utils.sol",
  "compiler": {
    "name": "solc",
    "version": "0.4.24+commit.e67f0147.Emscripten.clang"
  },
  "schemaVersion": "2.0.1",
  "updatedAt": "2019-07-26T10:56:18.540Z"
}