{
  "contractName": "VersionsLedger",
  "abi": [
    {
      "constant": true,
      "inputs": [
        {
          "name": "",
          "type": "uint256"
        }
      ],
      "name": "addressByVersion",
      "outputs": [
        {
          "name": "",
          "type": "address"
        }
      ],
      "payable": false,
      "stateMutability": "view",
      "type": "function"
    },
    {
      "constant": true,
      "inputs": [
        {
          "name": "",
          "type": "uint256"
        }
      ],
      "name": "versions",
      "outputs": [
        {
          "name": "",
          "type": "uint256"
        }
      ],
      "payable": false,
      "stateMutability": "view",
      "type": "function"
    },
    {
      "constant": true,
      "inputs": [],
      "name": "owner",
      "outputs": [
        {
          "name": "",
          "type": "address"
        }
      ],
      "payable": false,
      "stateMutability": "view",
      "type": "function"
    },
    {
      "constant": true,
      "inputs": [
        {
          "name": "",
          "type": "address"
        }
      ],
      "name": "versionByAddress",
      "outputs": [
        {
          "name": "",
          "type": "uint256"
        }
      ],
      "payable": false,
      "stateMutability": "view",
      "type": "function"
    },
    {
      "inputs": [],
      "payable": false,
      "stateMutability": "nonpayable",
      "type": "constructor"
    },
    {
      "constant": false,
      "inputs": [
        {
          "name": "_address",
          "type": "address"
        },
        {
          "name": "version",
          "type": "uint256"
        }
      ],
      "name": "setVersion",
      "outputs": [
        {
          "name": "result",
          "type": "bool"
        }
      ],
      "payable": false,
      "stateMutability": "nonpayable",
      "type": "function"
    },
    {
      "constant": true,
      "inputs": [],
      "name": "getVersions",
      "outputs": [
        {
          "name": "",
          "type": "uint256[]"
        }
      ],
      "payable": false,
      "stateMutability": "view",
      "type": "function"
    },
    {
      "constant": true,
      "inputs": [],
      "name": "getAddresses",
      "outputs": [
        {
          "name": "",
          "type": "address[]"
        }
      ],
      "payable": false,
      "stateMutability": "view",
      "type": "function"
    },
    {
      "constant": true,
      "inputs": [],
      "name": "getLastVersion",
      "outputs": [
        {
          "name": "version",
          "type": "uint256"
        },
        {
          "name": "found",
          "type": "bool"
        }
      ],
      "payable": false,
      "stateMutability": "view",
      "type": "function"
    }
  ],
  "bytecode": "0x608060405234801561001057600080fd5b50336000806101000a81548173ffffffffffffffffffffffffffffffffffffffff021916908373ffffffffffffffffffffffffffffffffffffffff1602179055506107ea806100606000396000f30060806040526004361061008e576000357c0100000000000000000000000000000000000000000000000000000000900463ffffffff1680633b5f842b14610093578063558614c7146101005780636d0cc8951461013657806387aee00e146101a25780638da5cb5b146101e3578063a39fac121461023a578063e39a7518146102a6578063f53749071461030b575b600080fd5b34801561009f57600080fd5b506100be60048036038101908080359060200190929190505050610362565b604051808273ffffffffffffffffffffffffffffffffffffffff1673ffffffffffffffffffffffffffffffffffffffff16815260200191505060405180910390f35b34801561010c57600080fd5b50610115610395565b60405180838152602001821515151581526020019250505060405180910390f35b34801561014257600080fd5b5061014b6103d6565b6040518080602001828103825283818151815260200191508051906020019060200280838360005b8381101561018e578082015181840152602081019050610173565b505050509050019250505060405180910390f35b3480156101ae57600080fd5b506101cd6004803603810190808035906020019092919050505061042e565b6040518082815260200191505060405180910390f35b3480156101ef57600080fd5b506101f8610451565b604051808273ffffffffffffffffffffffffffffffffffffffff1673ffffffffffffffffffffffffffffffffffffffff16815260200191505060405180910390f35b34801561024657600080fd5b5061024f610476565b6040518080602001828103825283818151815260200191508051906020019060200280838360005b83811015610292578082015181840152602081019050610277565b505050509050019250505060405180910390f35b3480156102b257600080fd5b506102f1600480360381019080803573ffffffffffffffffffffffffffffffffffffffff169060200190929190803590602001909291905050506105ec565b604051808215151515815260200191505060405180910390f35b34801561031757600080fd5b5061034c600480360381019080803573ffffffffffffffffffffffffffffffffffffffff1690602001909291905050506107a6565b6040518082815260200191505060405180910390f35b60026020528060005260406000206000915054906101000a900473ffffffffffffffffffffffffffffffffffffffff1681565b600080600060018054905014156103ab576103d2565b600190506001808080549050038154811015156103c457fe5b906000526020600020015491505b9091565b6060600180548060200260200160405190810160405280929190818152602001828054801561042457602002820191906000526020600020905b815481526020019060010190808311610410575b5050505050905090565b60018181548110151561043d57fe5b906000526020600020016000915090505481565b6000809054906101000a900473ffffffffffffffffffffffffffffffffffffffff1681565b60606000806000600180549050141561048e576105e7565b600090505b60018054905081101561055e5781600260006001848154811015156104b457fe5b9060005260206000200154815260200190815260200160002060009054906101000a900473ffffffffffffffffffffffffffffffffffffffff1690806001815401808255809150509060018203906000526020600020016000909192909190916101000a81548173ffffffffffffffffffffffffffffffffffffffff021916908373ffffffffffffffffffffffffffffffffffffffff160217905550508080600101915050610493565b818054806020026020016040519081016040528092919081815260200182805480156105df57602002820191906000526020600020905b8160009054906101000a900473ffffffffffffffffffffffffffffffffffffffff1673ffffffffffffffffffffffffffffffffffffffff1681526020019060010190808311610595575b505050505092505b505090565b60008060008060009054906101000a900473ffffffffffffffffffffffffffffffffffffffff1673ffffffffffffffffffffffffffffffffffffffff163373ffffffffffffffffffffffffffffffffffffffff16141561079e57600073ffffffffffffffffffffffffffffffffffffffff166002600086815260200190815260200160002060009054906101000a900473ffffffffffffffffffffffffffffffffffffffff1673ffffffffffffffffffffffffffffffffffffffff161415156106b45761079d565b6106bc610395565b915091508080156106cc57508382115b156106d65761079d565b6001849080600181540180825580915050906001820390600052602060002001600090919290919091505550846002600086815260200190815260200160002060006101000a81548173ffffffffffffffffffffffffffffffffffffffff021916908373ffffffffffffffffffffffffffffffffffffffff16021790555083600360008773ffffffffffffffffffffffffffffffffffffffff1673ffffffffffffffffffffffffffffffffffffffff16815260200190815260200160002081905550600192505b5b505092915050565b600360205280600052604060002060009150905054815600a165627a7a72305820a6e5aeead8fd77049fb4c1cd557c102320e874ce330602b8360f258d2d9aca5a0029",
  "source": "pragma solidity ^0.4.24;\n\n// https://semver.org. Version represent as decimal number, 4 decimals per part, max 9999 9999 9999\n// 1.1.1 => 100010001\n\ncontract VersionsLedger {\n    address public owner;\n\n    // all versions in net\n    uint[] public versions;\n\n    // use only one main address to map version\n    mapping(uint => address) public addressByVersion;\n    mapping(address => uint) public versionByAddress;\n\n    modifier restricted() {\n        if (msg.sender == owner) _;\n    }\n\n    constructor() public {\n        owner = msg.sender;\n    }\n\n    function setVersion(address _address, uint version) public restricted returns (bool result) {\n        // already exists\n        if (addressByVersion[version] != address(0)) return;\n\n        // wrong order\n        (uint lastV, bool found) = getLastVersion();\n\n        if (found && lastV > version) return;\n\n        versions.push(version);\n        addressByVersion[version] = _address;\n        versionByAddress[_address] = version;\n\n        result = true;\n    }\n\n    function getVersions() public view returns (uint[]) {\n        return versions;\n    }\n\n    function getAddresses() public view returns (address[]) {\n        if (versions.length == 0) return;\n\n        address[] storage result;\n\n        for (uint i = 0; i < versions.length; i++) {\n            result.push(addressByVersion[versions[i]]);\n        }\n\n        return result;\n    }\n\n    function getLastVersion() public view returns (uint version, bool found) {\n        if (versions.length == 0) return;\n\n        found = true;\n        version = versions[versions.length - 1];\n    }\n}\n",
  "sourcePath": "/home/circleci/code/contracts/versioning/VersionsLedger.sol",
  "compiler": {
    "name": "solc",
    "version": "0.4.24+commit.e67f0147.Emscripten.clang"
  },
  "schemaVersion": "2.0.1",
  "updatedAt": "2018-09-20T15:00:04.008Z"
}