{
  "contractName": "VersionsLedger",
  "abi": [
    {
      "constant": false,
      "inputs": [
        {
          "name": "recipient",
          "type": "address"
        }
      ],
      "name": "transferPrimary",
      "outputs": [],
      "payable": false,
      "stateMutability": "nonpayable",
      "type": "function"
    },
    {
      "constant": true,
      "inputs": [
        {
          "name": "",
          "type": "uint256"
        }
      ],
      "name": "addressByVersion",
      "outputs": [
        {
          "name": "",
          "type": "address"
        }
      ],
      "payable": false,
      "stateMutability": "view",
      "type": "function"
    },
    {
      "constant": true,
      "inputs": [
        {
          "name": "",
          "type": "uint256"
        }
      ],
      "name": "versions",
      "outputs": [
        {
          "name": "",
          "type": "uint256"
        }
      ],
      "payable": false,
      "stateMutability": "view",
      "type": "function"
    },
    {
      "constant": true,
      "inputs": [],
      "name": "primary",
      "outputs": [
        {
          "name": "",
          "type": "address"
        }
      ],
      "payable": false,
      "stateMutability": "view",
      "type": "function"
    },
    {
      "constant": true,
      "inputs": [
        {
          "name": "",
          "type": "address"
        }
      ],
      "name": "versionByAddress",
      "outputs": [
        {
          "name": "",
          "type": "uint256"
        }
      ],
      "payable": false,
      "stateMutability": "view",
      "type": "function"
    },
    {
      "anonymous": false,
      "inputs": [
        {
          "indexed": false,
          "name": "recipient",
          "type": "address"
        }
      ],
      "name": "PrimaryTransferred",
      "type": "event"
    },
    {
      "constant": false,
      "inputs": [
        {
          "name": "_address",
          "type": "address"
        },
        {
          "name": "version",
          "type": "uint256"
        }
      ],
      "name": "setVersion",
      "outputs": [],
      "payable": false,
      "stateMutability": "nonpayable",
      "type": "function"
    },
    {
      "constant": true,
      "inputs": [],
      "name": "getVersions",
      "outputs": [
        {
          "name": "",
          "type": "uint256[]"
        }
      ],
      "payable": false,
      "stateMutability": "view",
      "type": "function"
    },
    {
      "constant": true,
      "inputs": [],
      "name": "getAddresses",
      "outputs": [
        {
          "name": "",
          "type": "address[]"
        }
      ],
      "payable": false,
      "stateMutability": "view",
      "type": "function"
    },
    {
      "constant": true,
      "inputs": [],
      "name": "getLastVersion",
      "outputs": [
        {
          "name": "version",
          "type": "uint256"
        },
        {
          "name": "found",
          "type": "bool"
        }
      ],
      "payable": false,
      "stateMutability": "view",
      "type": "function"
    }
  ],
  "bytecode": "0x6080604052336000806101000a81548173ffffffffffffffffffffffffffffffffffffffff021916908373ffffffffffffffffffffffffffffffffffffffff1602179055507f4101e71e974f68df5e9730cc223280b41654676bbb052cdcc735c3337e64d2d96000809054906101000a900473ffffffffffffffffffffffffffffffffffffffff16604051808273ffffffffffffffffffffffffffffffffffffffff1673ffffffffffffffffffffffffffffffffffffffff16815260200191505060405180910390a161090a806100d76000396000f300608060405260043610610099576000357c0100000000000000000000000000000000000000000000000000000000900463ffffffff1680632348238c1461009e5780633b5f842b146100e1578063558614c71461014e5780636d0cc8951461018457806387aee00e146101f0578063a39fac1214610231578063c6dbdf611461029d578063e39a7518146102f4578063f537490714610341575b600080fd5b3480156100aa57600080fd5b506100df600480360381019080803573ffffffffffffffffffffffffffffffffffffffff169060200190929190505050610398565b005b3480156100ed57600080fd5b5061010c600480360381019080803590602001909291905050506104f6565b604051808273ffffffffffffffffffffffffffffffffffffffff1673ffffffffffffffffffffffffffffffffffffffff16815260200191505060405180910390f35b34801561015a57600080fd5b50610163610529565b60405180838152602001821515151581526020019250505060405180910390f35b34801561019057600080fd5b5061019961056a565b6040518080602001828103825283818151815260200191508051906020019060200280838360005b838110156101dc5780820151818401526020810190506101c1565b505050509050019250505060405180910390f35b3480156101fc57600080fd5b5061021b600480360381019080803590602001909291905050506105c2565b6040518082815260200191505060405180910390f35b34801561023d57600080fd5b506102466105e5565b6040518080602001828103825283818151815260200191508051906020019060200280838360005b8381101561028957808201518184015260208101905061026e565b505050509050019250505060405180910390f35b3480156102a957600080fd5b506102b26106f2565b604051808273ffffffffffffffffffffffffffffffffffffffff1673ffffffffffffffffffffffffffffffffffffffff16815260200191505060405180910390f35b34801561030057600080fd5b5061033f600480360381019080803573ffffffffffffffffffffffffffffffffffffffff1690602001909291908035906020019092919050505061071b565b005b34801561034d57600080fd5b50610382600480360381019080803573ffffffffffffffffffffffffffffffffffffffff1690602001909291905050506108c6565b6040518082815260200191505060405180910390f35b6000809054906101000a900473ffffffffffffffffffffffffffffffffffffffff1673ffffffffffffffffffffffffffffffffffffffff163373ffffffffffffffffffffffffffffffffffffffff161415156103f357600080fd5b600073ffffffffffffffffffffffffffffffffffffffff168173ffffffffffffffffffffffffffffffffffffffff161415151561042f57600080fd5b806000806101000a81548173ffffffffffffffffffffffffffffffffffffffff021916908373ffffffffffffffffffffffffffffffffffffffff1602179055507f4101e71e974f68df5e9730cc223280b41654676bbb052cdcc735c3337e64d2d96000809054906101000a900473ffffffffffffffffffffffffffffffffffffffff16604051808273ffffffffffffffffffffffffffffffffffffffff1673ffffffffffffffffffffffffffffffffffffffff16815260200191505060405180910390a150565b60026020528060005260406000206000915054906101000a900473ffffffffffffffffffffffffffffffffffffffff1681565b6000806000600180549050141561053f57610566565b6001905060018080805490500381548110151561055857fe5b906000526020600020015491505b9091565b606060018054806020026020016040519081016040528092919081815260200182805480156105b857602002820191906000526020600020905b8154815260200190600101908083116105a4575b5050505050905090565b6001818154811015156105d157fe5b906000526020600020016000915090505481565b60608060008060018054905014156105fc576106ed565b6001805490506040519080825280602002602001820160405280156106305781602001602082028038833980820191505090505b509150600090505b6001805490508110156106e9576002600060018381548110151561065857fe5b9060005260206000200154815260200190815260200160002060009054906101000a900473ffffffffffffffffffffffffffffffffffffffff1682828151811015156106a057fe5b9060200190602002019073ffffffffffffffffffffffffffffffffffffffff16908173ffffffffffffffffffffffffffffffffffffffff16815250508080600101915050610638565b8192505b505090565b60008060009054906101000a900473ffffffffffffffffffffffffffffffffffffffff16905090565b60008060009054906101000a900473ffffffffffffffffffffffffffffffffffffffff1673ffffffffffffffffffffffffffffffffffffffff163373ffffffffffffffffffffffffffffffffffffffff1614151561077857600080fd5b600073ffffffffffffffffffffffffffffffffffffffff166002600084815260200190815260200160002060009054906101000a900473ffffffffffffffffffffffffffffffffffffffff1673ffffffffffffffffffffffffffffffffffffffff161415156107e657600080fd5b6107ee610529565b50905081811015156107ff57600080fd5b6001829080600181540180825580915050906001820390600052602060002001600090919290919091505550826002600084815260200190815260200160002060006101000a81548173ffffffffffffffffffffffffffffffffffffffff021916908373ffffffffffffffffffffffffffffffffffffffff16021790555081600360008573ffffffffffffffffffffffffffffffffffffffff1673ffffffffffffffffffffffffffffffffffffffff16815260200190815260200160002081905550505050565b600360205280600052604060002060009150905054815600a165627a7a72305820f73cc487b3679da329eb5fcf7526df00667099a8fc1ba9bf1f28cbbda144db1c0029",
  "source": "pragma solidity 0.4.24;\n\n// https://semver.org. Version represent as decimal number, 4 decimals per part, max 9999 9999 9999\n// 1.1.1 => 100010001\nimport \"openzeppelin-solidity/contracts/ownership/Secondary.sol\";\n\n\ncontract VersionsLedger is Secondary {\n    // all versions in net\n    uint[] public versions;\n\n    // used only one main address to map version\n    mapping(uint => address) public addressByVersion;\n    mapping(address => uint) public versionByAddress;\n\n    function setVersion(address _address, uint version) public onlyPrimary {\n        require(addressByVersion[version] == address(0));\n\n        (uint lastV, ) = getLastVersion();\n\n        require(lastV < version);\n\n        versions.push(version);\n        addressByVersion[version] = _address;\n        versionByAddress[_address] = version;\n    }\n\n    function getVersions() public view returns (uint[]) {\n        return versions;\n    }\n\n    function getAddresses() public view returns (address[]) {\n        if (versions.length == 0) return;\n\n        address[] memory result = new address[](versions.length);\n\n        for (uint i = 0; i < versions.length; i++) {\n            result[i] = addressByVersion[versions[i]];\n        }\n\n        return result;\n    }\n\n    function getLastVersion() public view returns (uint version, bool found) {\n        if (versions.length == 0) return;\n\n        found = true;\n        version = versions[versions.length - 1];\n    }\n}\n",
  "sourcePath": "/Users/gauss/_games/w12/Protocol/contracts/versioning/VersionsLedger.sol",
  "compiler": {
    "name": "solc",
    "version": "0.4.24+commit.e67f0147.Emscripten.clang"
  },
  "schemaVersion": "3.0.16",
  "updatedAt": "2019-11-17T18:32:55.083Z",
  "devdoc": {
    "methods": {
      "primary()": {
        "return": "the address of the primary."
      },
      "transferPrimary(address)": {
        "details": "Transfers contract to a new primary.",
        "params": {
          "recipient": "The address of new primary. "
        }
      }
    }
  },
  "userdoc": {
    "methods": {}
  }
}