{
  "contractName": "VersionsLedger",
  "abi": [
    {
      "constant": true,
      "inputs": [
        {
          "name": "",
          "type": "uint256"
        }
      ],
      "name": "addressByVersion",
      "outputs": [
        {
          "name": "",
          "type": "address"
        }
      ],
      "payable": false,
      "stateMutability": "view",
      "type": "function"
    },
    {
      "constant": false,
      "inputs": [],
      "name": "renounceOwnership",
      "outputs": [],
      "payable": false,
      "stateMutability": "nonpayable",
      "type": "function"
    },
    {
      "constant": true,
      "inputs": [
        {
          "name": "",
          "type": "uint256"
        }
      ],
      "name": "versions",
      "outputs": [
        {
          "name": "",
          "type": "uint256"
        }
      ],
      "payable": false,
      "stateMutability": "view",
      "type": "function"
    },
    {
      "constant": true,
      "inputs": [],
      "name": "owner",
      "outputs": [
        {
          "name": "",
          "type": "address"
        }
      ],
      "payable": false,
      "stateMutability": "view",
      "type": "function"
    },
    {
      "constant": false,
      "inputs": [
        {
          "name": "_newOwner",
          "type": "address"
        }
      ],
      "name": "transferOwnership",
      "outputs": [],
      "payable": false,
      "stateMutability": "nonpayable",
      "type": "function"
    },
    {
      "constant": true,
      "inputs": [
        {
          "name": "",
          "type": "address"
        }
      ],
      "name": "versionByAddress",
      "outputs": [
        {
          "name": "",
          "type": "uint256"
        }
      ],
      "payable": false,
      "stateMutability": "view",
      "type": "function"
    },
    {
      "anonymous": false,
      "inputs": [
        {
          "indexed": true,
          "name": "previousOwner",
          "type": "address"
        }
      ],
      "name": "OwnershipRenounced",
      "type": "event"
    },
    {
      "anonymous": false,
      "inputs": [
        {
          "indexed": true,
          "name": "previousOwner",
          "type": "address"
        },
        {
          "indexed": true,
          "name": "newOwner",
          "type": "address"
        }
      ],
      "name": "OwnershipTransferred",
      "type": "event"
    },
    {
      "constant": false,
      "inputs": [
        {
          "name": "_address",
          "type": "address"
        },
        {
          "name": "version",
          "type": "uint256"
        }
      ],
      "name": "setVersion",
      "outputs": [],
      "payable": false,
      "stateMutability": "nonpayable",
      "type": "function"
    },
    {
      "constant": true,
      "inputs": [],
      "name": "getVersions",
      "outputs": [
        {
          "name": "",
          "type": "uint256[]"
        }
      ],
      "payable": false,
      "stateMutability": "view",
      "type": "function"
    },
    {
      "constant": true,
      "inputs": [],
      "name": "getAddresses",
      "outputs": [
        {
          "name": "",
          "type": "address[]"
        }
      ],
      "payable": false,
      "stateMutability": "view",
      "type": "function"
    },
    {
      "constant": true,
      "inputs": [],
      "name": "getLastVersion",
      "outputs": [
        {
          "name": "version",
          "type": "uint256"
        },
        {
          "name": "found",
          "type": "bool"
        }
      ],
      "payable": false,
      "stateMutability": "view",
      "type": "function"
    }
  ],
  "bytecode": "0x608060405260008054600160a060020a031916331790556105f9806100256000396000f3006080604052600436106100a35763ffffffff7c01000000000000000000000000000000000000000000000000000000006000350416633b5f842b81146100a8578063558614c7146100dc5780636d0cc8951461010a578063715018a61461016f57806387aee00e146101865780638da5cb5b146101b0578063a39fac12146101c5578063e39a7518146101da578063f2fde38b146101fe578063f53749071461021f575b600080fd5b3480156100b457600080fd5b506100c0600435610240565b60408051600160a060020a039092168252519081900360200190f35b3480156100e857600080fd5b506100f161025b565b6040805192835290151560208301528051918290030190f35b34801561011657600080fd5b5061011f610295565b60408051602080825283518183015283519192839290830191858101910280838360005b8381101561015b578181015183820152602001610143565b505050509050019250505060405180910390f35b34801561017b57600080fd5b506101846102ed565b005b34801561019257600080fd5b5061019e600435610359565b60408051918252519081900360200190f35b3480156101bc57600080fd5b506100c0610378565b3480156101d157600080fd5b5061011f610387565b3480156101e657600080fd5b50610184600160a060020a0360043516602435610451565b34801561020a57600080fd5b50610184600160a060020a036004351661051b565b34801561022b57600080fd5b5061019e600160a060020a036004351661053e565b600260205260009081526040902054600160a060020a031681565b6001546000908190151561026e57610291565b50600180548190600019810190811061028357fe5b906000526020600020015491505b9091565b606060018054806020026020016040519081016040528092919081815260200182805480156102e357602002820191906000526020600020905b8154815260200190600101908083116102cf575b5050505050905090565b600054600160a060020a0316331461030457600080fd5b60008054604051600160a060020a03909116917ff8df31144d9c2f0f6b59d69b8b98abd5459d07f2742c4df920b25aae33c6482091a26000805473ffffffffffffffffffffffffffffffffffffffff19169055565b600180548290811061036757fe5b600091825260209091200154905081565b600054600160a060020a031681565b6001546060908190600090151561039d5761044c565b6001546040805182815260208084028201019091529080156103c9578160200160208202803883390190505b509150600090505b60015481101561044857600260006001838154811015156103ee57fe5b9060005260206000200154815260200190815260200160002060009054906101000a9004600160a060020a0316828281518110151561042957fe5b600160a060020a039092166020928302909101909101526001016103d1565b8192505b505090565b60008054600160a060020a0316331461046957600080fd5b600082815260026020526040902054600160a060020a03161561048b57600080fd5b61049361025b565b5090508181106104a257600080fd5b50600180548082019091557fb10e2d527612073b26eecdfd717e6a320cf44b4afac2b0732d9fcbe2b7fa0cf60181905560008181526002602090815260408083208054600160a060020a0390961673ffffffffffffffffffffffffffffffffffffffff1990961686179055938252600390529190912055565b600054600160a060020a0316331461053257600080fd5b61053b81610550565b50565b60036020526000908152604090205481565b600160a060020a038116151561056557600080fd5b60008054604051600160a060020a03808516939216917f8be0079c531659141344cd1fd0a4f28419497f9722a3daafe3b4186f6b6457e091a36000805473ffffffffffffffffffffffffffffffffffffffff1916600160a060020a03929092169190911790555600a165627a7a72305820b9f661e85ad12a4c834ca244373a4fbf43357ca3ffc60c8c1ccd0b47e05dcf000029",
  "source": "pragma solidity ^0.4.24;\n\n// https://semver.org. Version represent as decimal number, 4 decimals per part, max 9999 9999 9999\n// 1.1.1 => 100010001\nimport \"openzeppelin-solidity/contracts/ownership/Ownable.sol\";\n\ncontract VersionsLedger is Ownable {\n    // all versions in net\n    uint[] public versions;\n\n    // used only one main address to map version\n    mapping(uint => address) public addressByVersion;\n    mapping(address => uint) public versionByAddress;\n\n    function setVersion(address _address, uint version) public onlyOwner {\n        require(addressByVersion[version] == address(0));\n\n        (uint lastV, ) = getLastVersion();\n\n        require(lastV < version);\n\n        versions.push(version);\n        addressByVersion[version] = _address;\n        versionByAddress[_address] = version;\n    }\n\n    function getVersions() public view returns (uint[]) {\n        return versions;\n    }\n\n    function getAddresses() public view returns (address[]) {\n        if (versions.length == 0) return;\n\n        address[] memory result = new address[](versions.length);\n\n        for (uint i = 0; i < versions.length; i++) {\n            result[i] = addressByVersion[versions[i]];\n        }\n\n        return result;\n    }\n\n    function getLastVersion() public view returns (uint version, bool found) {\n        if (versions.length == 0) return;\n\n        found = true;\n        version = versions[versions.length - 1];\n    }\n}\n",
  "sourcePath": "/c/Users/Mr.Hokid/projects/work/w12-product-contracts/contracts/versioning/VersionsLedger.sol",
  "compiler": {
    "name": "solc",
    "version": "0.4.24+commit.e67f0147.Emscripten.clang"
  },
  "schemaVersion": "2.0.1",
  "updatedAt": "2018-11-14T15:43:09.309Z"
}