{
  "contractName": "Versionable",
  "abi": [
    {
      "constant": true,
      "inputs": [],
      "name": "version",
      "outputs": [
        {
          "name": "",
          "type": "uint256"
        }
      ],
      "payable": false,
      "stateMutability": "view",
      "type": "function"
    },
    {
      "inputs": [
        {
          "name": "_version",
          "type": "uint256"
        }
      ],
      "payable": false,
      "stateMutability": "nonpayable",
      "type": "constructor"
    }
  ],
  "bytecode": "0x608060405234801561001057600080fd5b506040516020806100e7833981018060405281019080805190602001909291905050508060008190555050609e806100496000396000f300608060405260043610603f576000357c0100000000000000000000000000000000000000000000000000000000900463ffffffff16806354fd4d50146044575b600080fd5b348015604f57600080fd5b506056606c565b6040518082815260200191505060405180910390f35b600054815600a165627a7a72305820d3df8c2731b0648cb4def3b2e797b2b96f85b0428b61b45215c7de84ce1ba4a40029",
  "source": "pragma solidity 0.4.24;\n\n\ncontract Versionable {\n    uint public version;\n\n    constructor(uint _version) public {\n        version = _version;\n    }\n}\n",
  "sourcePath": "/Users/gauss/_games/w12/Protocol/contracts/versioning/Versionable.sol",
  "compiler": {
    "name": "solc",
    "version": "0.4.24+commit.e67f0147.Emscripten.clang"
  },
  "schemaVersion": "2.0.1",
  "updatedAt": "2019-09-25T17:36:22.157Z"
}