{
  "contractName": "VersionsLedger",
  "abi": [
    {
      "constant": false,
      "inputs": [
        {
          "name": "recipient",
          "type": "address"
        }
      ],
      "name": "transferPrimary",
      "outputs": [],
      "payable": false,
      "stateMutability": "nonpayable",
      "type": "function"
    },
    {
      "constant": true,
      "inputs": [
        {
          "name": "",
          "type": "uint256"
        }
      ],
      "name": "addressByVersion",
      "outputs": [
        {
          "name": "",
          "type": "address"
        }
      ],
      "payable": false,
      "stateMutability": "view",
      "type": "function"
    },
    {
      "constant": true,
      "inputs": [
        {
          "name": "",
          "type": "uint256"
        }
      ],
      "name": "versions",
      "outputs": [
        {
          "name": "",
          "type": "uint256"
        }
      ],
      "payable": false,
      "stateMutability": "view",
      "type": "function"
    },
    {
      "constant": true,
      "inputs": [],
      "name": "primary",
      "outputs": [
        {
          "name": "",
          "type": "address"
        }
      ],
      "payable": false,
      "stateMutability": "view",
      "type": "function"
    },
    {
      "constant": true,
      "inputs": [
        {
          "name": "",
          "type": "address"
        }
      ],
      "name": "versionByAddress",
      "outputs": [
        {
          "name": "",
          "type": "uint256"
        }
      ],
      "payable": false,
      "stateMutability": "view",
      "type": "function"
    },
    {
      "anonymous": false,
      "inputs": [
        {
          "indexed": false,
          "name": "recipient",
          "type": "address"
        }
      ],
      "name": "PrimaryTransferred",
      "type": "event"
    },
    {
      "constant": false,
      "inputs": [
        {
          "name": "_address",
          "type": "address"
        },
        {
          "name": "version",
          "type": "uint256"
        }
      ],
      "name": "setVersion",
      "outputs": [],
      "payable": false,
      "stateMutability": "nonpayable",
      "type": "function"
    },
    {
      "constant": true,
      "inputs": [],
      "name": "getVersions",
      "outputs": [
        {
          "name": "",
          "type": "uint256[]"
        }
      ],
      "payable": false,
      "stateMutability": "view",
      "type": "function"
    },
    {
      "constant": true,
      "inputs": [],
      "name": "getAddresses",
      "outputs": [
        {
          "name": "",
          "type": "address[]"
        }
      ],
      "payable": false,
      "stateMutability": "view",
      "type": "function"
    },
    {
      "constant": true,
      "inputs": [],
      "name": "getLastVersion",
      "outputs": [
        {
          "name": "version",
          "type": "uint256"
        },
        {
          "name": "found",
          "type": "bool"
        }
      ],
      "payable": false,
      "stateMutability": "view",
      "type": "function"
    }
  ],
  "bytecode": "0x6080604081905260008054600160a060020a031916331790819055600160a060020a031681527f4101e71e974f68df5e9730cc223280b41654676bbb052cdcc735c3337e64d2d990602090a16105608061005a6000396000f3006080604052600436106100985763ffffffff7c01000000000000000000000000000000000000000000000000000000006000350416632348238c811461009d5780633b5f842b146100c0578063558614c7146100f45780636d0cc8951461012257806387aee00e14610187578063a39fac12146101b1578063c6dbdf61146101c6578063e39a7518146101db578063f5374907146101ff575b600080fd5b3480156100a957600080fd5b506100be600160a060020a0360043516610220565b005b3480156100cc57600080fd5b506100d86004356102b3565b60408051600160a060020a039092168252519081900360200190f35b34801561010057600080fd5b506101096102ce565b6040805192835290151560208301528051918290030190f35b34801561012e57600080fd5b50610137610308565b60408051602080825283518183015283519192839290830191858101910280838360005b8381101561017357818101518382015260200161015b565b505050509050019250505060405180910390f35b34801561019357600080fd5b5061019f600435610360565b60408051918252519081900360200190f35b3480156101bd57600080fd5b5061013761037f565b3480156101d257600080fd5b506100d8610449565b3480156101e757600080fd5b506100be600160a060020a0360043516602435610458565b34801561020b57600080fd5b5061019f600160a060020a0360043516610522565b600054600160a060020a0316331461023757600080fd5b600160a060020a038116151561024c57600080fd5b6000805473ffffffffffffffffffffffffffffffffffffffff1916600160a060020a03838116919091179182905560408051929091168252517f4101e71e974f68df5e9730cc223280b41654676bbb052cdcc735c3337e64d2d9916020908290030190a150565b600260205260009081526040902054600160a060020a031681565b600154600090819015156102e157610304565b5060018054819060001981019081106102f657fe5b906000526020600020015491505b9091565b6060600180548060200260200160405190810160405280929190818152602001828054801561035657602002820191906000526020600020905b815481526020019060010190808311610342575b5050505050905090565b600180548290811061036e57fe5b600091825260209091200154905081565b6001546060908190600090151561039557610444565b6001546040805182815260208084028201019091529080156103c1578160200160208202803883390190505b509150600090505b60015481101561044057600260006001838154811015156103e657fe5b9060005260206000200154815260200190815260200160002060009054906101000a9004600160a060020a0316828281518110151561042157fe5b600160a060020a039092166020928302909101909101526001016103c9565b8192505b505090565b600054600160a060020a031690565b60008054600160a060020a0316331461047057600080fd5b600082815260026020526040902054600160a060020a03161561049257600080fd5b61049a6102ce565b5090508181106104a957600080fd5b50600180548082019091557fb10e2d527612073b26eecdfd717e6a320cf44b4afac2b0732d9fcbe2b7fa0cf60181905560008181526002602090815260408083208054600160a060020a0390961673ffffffffffffffffffffffffffffffffffffffff1990961686179055938252600390529190912055565b600360205260009081526040902054815600a165627a7a7230582017e143b4f204ebd93da74f71e3a220412dd0675e009cda6d963c8011f3b7ba300029",
  "source": "pragma solidity 0.4.24;\n\n// https://semver.org. Version represent as decimal number, 4 decimals per part, max 9999 9999 9999\n// 1.1.1 => 100010001\nimport \"openzeppelin-solidity/contracts/ownership/Secondary.sol\";\n\n\ncontract VersionsLedger is Secondary {\n    // all versions in net\n    uint[] public versions;\n\n    // used only one main address to map version\n    mapping(uint => address) public addressByVersion;\n    mapping(address => uint) public versionByAddress;\n\n    function setVersion(address _address, uint version) public onlyPrimary {\n        require(addressByVersion[version] == address(0));\n\n        (uint lastV, ) = getLastVersion();\n\n        require(lastV < version);\n\n        versions.push(version);\n        addressByVersion[version] = _address;\n        versionByAddress[_address] = version;\n    }\n\n    function getVersions() public view returns (uint[]) {\n        return versions;\n    }\n\n    function getAddresses() public view returns (address[]) {\n        if (versions.length == 0) return;\n\n        address[] memory result = new address[](versions.length);\n\n        for (uint i = 0; i < versions.length; i++) {\n            result[i] = addressByVersion[versions[i]];\n        }\n\n        return result;\n    }\n\n    function getLastVersion() public view returns (uint version, bool found) {\n        if (versions.length == 0) return;\n\n        found = true;\n        version = versions[versions.length - 1];\n    }\n}\n",
  "sourcePath": "/home/andrey/Code/w12/platform-contracts/contracts/versioning/VersionsLedger.sol",
  "compiler": {
    "name": "solc",
    "version": "0.4.24+commit.e67f0147.Emscripten.clang"
  },
  "schemaVersion": "2.0.1",
  "updatedAt": "2019-03-06T08:53:21.088Z"
}