{
  "contractName": "Versionable",
  "abi": [
    {
      "constant": true,
      "inputs": [],
      "name": "version",
      "outputs": [
        {
          "name": "",
          "type": "uint256"
        }
      ],
      "payable": false,
      "stateMutability": "view",
      "type": "function"
    },
    {
      "inputs": [
        {
          "name": "_version",
          "type": "uint256"
        }
      ],
      "payable": false,
      "stateMutability": "nonpayable",
      "type": "constructor"
    }
  ],
  "bytecode": "0x608060405234801561001057600080fd5b506040516020806100cc83398101604052516000556099806100336000396000f300608060405260043610603e5763ffffffff7c010000000000000000000000000000000000000000000000000000000060003504166354fd4d5081146043575b600080fd5b348015604e57600080fd5b5060556067565b60408051918252519081900360200190f35b600054815600a165627a7a7230582021fcc4cb632b7032dde53e49c117c49a41518be76535cd7e852989fb4426fe4f0029",
  "source": "pragma solidity ^0.4.24;\n\ncontract Versionable {\n    uint public version;\n\n    constructor(uint _version) public {\n        version = _version;\n    }\n}\n",
  "sourcePath": "/c/Users/Mr.Hokid/projects/work/w12-product-contracts/contracts/versioning/Versionable.sol",
  "compiler": {
    "name": "solc",
    "version": "0.4.24+commit.e67f0147.Emscripten.clang"
  },
  "schemaVersion": "2.0.1",
  "updatedAt": "2018-11-14T14:48:13.499Z"
}