{
  "contractName": "Versionable",
  "abi": [
    {
      "constant": true,
      "inputs": [],
      "name": "version",
      "outputs": [
        {
          "name": "",
          "type": "uint256"
        }
      ],
      "payable": false,
      "stateMutability": "view",
      "type": "function"
    },
    {
      "inputs": [
        {
          "name": "_version",
          "type": "uint256"
        }
      ],
      "payable": false,
      "stateMutability": "nonpayable",
      "type": "constructor"
    }
  ],
  "bytecode": "0x608060405234801561001057600080fd5b506040516020806100cc83398101604052516000556099806100336000396000f300608060405260043610603e5763ffffffff7c010000000000000000000000000000000000000000000000000000000060003504166354fd4d5081146043575b600080fd5b348015604e57600080fd5b5060556067565b60408051918252519081900360200190f35b600054815600a165627a7a723058208eadcbe366e39741c47c2f8f8ed0f7dfd1b2eebfccc70e4bd5298c2983a3de900029",
  "source": "pragma solidity 0.4.24;\n\n\ncontract Versionable {\n    uint public version;\n\n    constructor(uint _version) public {\n        version = _version;\n    }\n}\n",
  "sourcePath": "/Users/gauss/_games/w12/Protocol/contracts/versioning/Versionable.sol",
  "compiler": {
    "name": "solc",
    "version": "0.4.24+commit.e67f0147.Emscripten.clang"
  },
  "schemaVersion": "2.0.1",
  "updatedAt": "2019-07-31T23:06:31.908Z"
}