{
  "contractName": "W12CrowdsaleStub",
  "abi": [
    {
      "constant": true,
      "inputs": [],
      "name": "originToken",
      "outputs": [
        {
          "name": "",
          "type": "address"
        }
      ],
      "payable": false,
      "stateMutability": "view",
      "type": "function"
    },
    {
      "constant": true,
      "inputs": [],
      "name": "getLastMilestoneIndex",
      "outputs": [
        {
          "name": "index",
          "type": "uint256"
        },
        {
          "name": "found",
          "type": "bool"
        }
      ],
      "payable": false,
      "stateMutability": "view",
      "type": "function"
    },
    {
      "constant": false,
      "inputs": [
        {
          "name": "parametersOfStages",
          "type": "uint256[6][]"
        },
        {
          "name": "bonusConditionsOfStages",
          "type": "uint256[]"
        },
        {
          "name": "parametersOfMilestones",
          "type": "uint256[4][]"
        },
        {
          "name": "nameAndDescriptionsOffsetOfMilestones",
          "type": "uint32[]"
        },
        {
          "name": "nameAndDescriptionsOfMilestones",
          "type": "bytes"
        }
      ],
      "name": "setup",
      "outputs": [],
      "payable": false,
      "stateMutability": "nonpayable",
      "type": "function"
    },
    {
      "constant": true,
      "inputs": [
        {
          "name": "value",
          "type": "uint256"
        }
      ],
      "name": "getSaleVolumeBonus",
      "outputs": [
        {
          "name": "bonus",
          "type": "uint256"
        }
      ],
      "payable": false,
      "stateMutability": "view",
      "type": "function"
    },
    {
      "constant": true,
      "inputs": [
        {
          "name": "index",
          "type": "uint256"
        }
      ],
      "name": "getMilestone",
      "outputs": [
        {
          "name": "",
          "type": "uint32"
        },
        {
          "name": "",
          "type": "uint256"
        },
        {
          "name": "",
          "type": "uint32"
        },
        {
          "name": "",
          "type": "uint32"
        },
        {
          "name": "",
          "type": "bytes"
        },
        {
          "name": "",
          "type": "bytes"
        }
      ],
      "payable": false,
      "stateMutability": "view",
      "type": "function"
    },
    {
      "constant": true,
      "inputs": [
        {
          "name": "index",
          "type": "uint256"
        }
      ],
      "name": "getStage",
      "outputs": [
        {
          "name": "",
          "type": "uint32"
        },
        {
          "name": "",
          "type": "uint32"
        },
        {
          "name": "",
          "type": "uint256"
        },
        {
          "name": "",
          "type": "uint32"
        },
        {
          "name": "",
          "type": "uint256[]"
        },
        {
          "name": "",
          "type": "uint256[]"
        }
      ],
      "payable": false,
      "stateMutability": "view",
      "type": "function"
    },
    {
      "constant": true,
      "inputs": [],
      "name": "WTokenSaleFeePercent",
      "outputs": [
        {
          "name": "",
          "type": "uint256"
        }
      ],
      "payable": false,
      "stateMutability": "view",
      "type": "function"
    },
    {
      "constant": false,
      "inputs": [],
      "name": "claimRemainingTokens",
      "outputs": [],
      "payable": false,
      "stateMutability": "nonpayable",
      "type": "function"
    },
    {
      "constant": true,
      "inputs": [],
      "name": "milestonesLength",
      "outputs": [
        {
          "name": "",
          "type": "uint256"
        }
      ],
      "payable": false,
      "stateMutability": "view",
      "type": "function"
    },
    {
      "constant": true,
      "inputs": [],
      "name": "getWToken",
      "outputs": [
        {
          "name": "",
          "type": "address"
        }
      ],
      "payable": false,
      "stateMutability": "view",
      "type": "function"
    },
    {
      "constant": true,
      "inputs": [],
      "name": "version",
      "outputs": [
        {
          "name": "",
          "type": "uint256"
        }
      ],
      "payable": false,
      "stateMutability": "view",
      "type": "function"
    },
    {
      "constant": true,
      "inputs": [],
      "name": "serviceWallet",
      "outputs": [
        {
          "name": "",
          "type": "address"
        }
      ],
      "payable": false,
      "stateMutability": "view",
      "type": "function"
    },
    {
      "constant": true,
      "inputs": [],
      "name": "isSaleActive",
      "outputs": [
        {
          "name": "",
          "type": "bool"
        }
      ],
      "payable": false,
      "stateMutability": "view",
      "type": "function"
    },
    {
      "constant": false,
      "inputs": [],
      "name": "renounceOwnership",
      "outputs": [],
      "payable": false,
      "stateMutability": "nonpayable",
      "type": "function"
    },
    {
      "constant": true,
      "inputs": [],
      "name": "stagesLength",
      "outputs": [
        {
          "name": "",
          "type": "uint256"
        }
      ],
      "payable": false,
      "stateMutability": "view",
      "type": "function"
    },
    {
      "constant": true,
      "inputs": [],
      "name": "swap",
      "outputs": [
        {
          "name": "",
          "type": "address"
        }
      ],
      "payable": false,
      "stateMutability": "view",
      "type": "function"
    },
    {
      "constant": true,
      "inputs": [
        {
          "name": "",
          "type": "uint256"
        }
      ],
      "name": "stages",
      "outputs": [
        {
          "name": "startDate",
          "type": "uint32"
        },
        {
          "name": "endDate",
          "type": "uint32"
        },
        {
          "name": "discount",
          "type": "uint256"
        },
        {
          "name": "vesting",
          "type": "uint32"
        }
      ],
      "payable": false,
      "stateMutability": "view",
      "type": "function"
    },
    {
      "constant": true,
      "inputs": [],
      "name": "serviceFee",
      "outputs": [
        {
          "name": "",
          "type": "uint256"
        }
      ],
      "payable": false,
      "stateMutability": "view",
      "type": "function"
    },
    {
      "constant": true,
      "inputs": [],
      "name": "owner",
      "outputs": [
        {
          "name": "",
          "type": "address"
        }
      ],
      "payable": false,
      "stateMutability": "view",
      "type": "function"
    },
    {
      "constant": true,
      "inputs": [],
      "name": "getFund",
      "outputs": [
        {
          "name": "",
          "type": "address"
        }
      ],
      "payable": false,
      "stateMutability": "view",
      "type": "function"
    },
    {
      "constant": true,
      "inputs": [],
      "name": "price",
      "outputs": [
        {
          "name": "",
          "type": "uint256"
        }
      ],
      "payable": false,
      "stateMutability": "view",
      "type": "function"
    },
    {
      "constant": true,
      "inputs": [],
      "name": "isEnded",
      "outputs": [
        {
          "name": "",
          "type": "bool"
        }
      ],
      "payable": false,
      "stateMutability": "view",
      "type": "function"
    },
    {
      "constant": true,
      "inputs": [],
      "name": "getEndDate",
      "outputs": [
        {
          "name": "",
          "type": "uint32"
        }
      ],
      "payable": false,
      "stateMutability": "view",
      "type": "function"
    },
    {
      "constant": true,
      "inputs": [],
      "name": "fund",
      "outputs": [
        {
          "name": "",
          "type": "address"
        }
      ],
      "payable": false,
      "stateMutability": "view",
      "type": "function"
    },
    {
      "constant": false,
      "inputs": [],
      "name": "buyTokens",
      "outputs": [],
      "payable": true,
      "stateMutability": "payable",
      "type": "function"
    },
    {
      "constant": true,
      "inputs": [],
      "name": "getCurrentMilestoneIndex",
      "outputs": [
        {
          "name": "index",
          "type": "uint256"
        },
        {
          "name": "found",
          "type": "bool"
        }
      ],
      "payable": false,
      "stateMutability": "view",
      "type": "function"
    },
    {
      "constant": true,
      "inputs": [],
      "name": "getCurrentStageIndex",
      "outputs": [
        {
          "name": "index",
          "type": "uint256"
        },
        {
          "name": "found",
          "type": "bool"
        }
      ],
      "payable": false,
      "stateMutability": "view",
      "type": "function"
    },
    {
      "constant": true,
      "inputs": [
        {
          "name": "",
          "type": "uint256"
        }
      ],
      "name": "milestones",
      "outputs": [
        {
          "name": "endDate",
          "type": "uint32"
        },
        {
          "name": "tranchePercent",
          "type": "uint256"
        },
        {
          "name": "voteEndDate",
          "type": "uint32"
        },
        {
          "name": "withdrawalWindow",
          "type": "uint32"
        },
        {
          "name": "name",
          "type": "bytes"
        },
        {
          "name": "description",
          "type": "bytes"
        }
      ],
      "payable": false,
      "stateMutability": "view",
      "type": "function"
    },
    {
      "constant": false,
      "inputs": [
        {
          "name": "_price",
          "type": "uint256"
        }
      ],
      "name": "setParameters",
      "outputs": [],
      "payable": false,
      "stateMutability": "nonpayable",
      "type": "function"
    },
    {
      "constant": false,
      "inputs": [
        {
          "name": "_newOwner",
          "type": "address"
        }
      ],
      "name": "transferOwnership",
      "outputs": [],
      "payable": false,
      "stateMutability": "nonpayable",
      "type": "function"
    },
    {
      "constant": true,
      "inputs": [],
      "name": "token",
      "outputs": [
        {
          "name": "",
          "type": "address"
        }
      ],
      "payable": false,
      "stateMutability": "view",
      "type": "function"
    },
    {
      "inputs": [
        {
          "name": "version",
          "type": "uint256"
        },
        {
          "name": "_originToken",
          "type": "address"
        },
        {
          "name": "_token",
          "type": "address"
        },
        {
          "name": "_price",
          "type": "uint256"
        },
        {
          "name": "_serviceWallet",
          "type": "address"
        },
        {
          "name": "_swap",
          "type": "address"
        },
        {
          "name": "_serviceFee",
          "type": "uint256"
        },
        {
          "name": "_WTokenSaleFeePercent",
          "type": "uint256"
        },
        {
          "name": "_fund",
          "type": "address"
        }
      ],
      "payable": false,
      "stateMutability": "nonpayable",
      "type": "constructor"
    },
    {
      "payable": true,
      "stateMutability": "payable",
      "type": "fallback"
    },
    {
      "anonymous": false,
      "inputs": [
        {
          "indexed": true,
          "name": "buyer",
          "type": "address"
        },
        {
          "indexed": false,
          "name": "amountPaid",
          "type": "uint256"
        },
        {
          "indexed": false,
          "name": "tokensBought",
          "type": "uint256"
        },
        {
          "indexed": false,
          "name": "change",
          "type": "uint256"
        }
      ],
      "name": "TokenPurchase",
      "type": "event"
    },
    {
      "anonymous": false,
      "inputs": [],
      "name": "StagesUpdated",
      "type": "event"
    },
    {
      "anonymous": false,
      "inputs": [
        {
          "indexed": false,
          "name": "index",
          "type": "uint256"
        }
      ],
      "name": "StageUpdated",
      "type": "event"
    },
    {
      "anonymous": false,
      "inputs": [],
      "name": "MilestonesUpdated",
      "type": "event"
    },
    {
      "anonymous": false,
      "inputs": [
        {
          "indexed": true,
          "name": "owner",
          "type": "address"
        },
        {
          "indexed": false,
          "name": "amount",
          "type": "uint256"
        }
      ],
      "name": "UnsoldTokenReturned",
      "type": "event"
    },
    {
      "anonymous": false,
      "inputs": [
        {
          "indexed": true,
          "name": "previousOwner",
          "type": "address"
        }
      ],
      "name": "OwnershipRenounced",
      "type": "event"
    },
    {
      "anonymous": false,
      "inputs": [
        {
          "indexed": true,
          "name": "previousOwner",
          "type": "address"
        },
        {
          "indexed": true,
          "name": "newOwner",
          "type": "address"
        }
      ],
      "name": "OwnershipTransferred",
      "type": "event"
    },
    {
      "constant": false,
      "inputs": [
        {
          "name": "to",
          "type": "address"
        },
        {
          "name": "amount",
          "type": "uint256"
        }
      ],
      "name": "_outTokens",
      "outputs": [
        {
          "name": "",
          "type": "bool"
        }
      ],
      "payable": false,
      "stateMutability": "nonpayable",
      "type": "function"
    },
    {
      "constant": false,
      "inputs": [
        {
          "name": "_WTokenSaleFeePercent",
          "type": "uint256"
        }
      ],
      "name": "_setState",
      "outputs": [],
      "payable": false,
      "stateMutability": "nonpayable",
      "type": "function"
    }
  ],
  "bytecode": "0x608060405260016002553480156200001657600080fd5b5060405161012080620033a183398101604090815281516020830151918301516060840151608085015160a086015160c087015160e088015161010090980151600087905560018054600160a060020a03191633179055959794959394929391929091888888888888888888600160a060020a03881615156200009857600080fd5b600160a060020a0387161515620000ae57600080fd5b620000c78364010000000062002996620001f182021704565b8015620000ec57506064620000ea846401000000006200300f6200022e82021704565b105b1515620000f857600080fd5b620001118264010000000062002996620001f182021704565b8015620001365750606462000134836401000000006200300f6200022e82021704565b105b15156200014257600080fd5b600160a060020a03811615156200015857600080fd5b600160a060020a03841615156200016e57600080fd5b62000183868664010000000062000280810204565b60038054600160a060020a0319908116600160a060020a03998a16179091556004805482169989169990991790985560069290925560098054881693871693909317909255600791909155600a805490951693169290921790925550620003259a5050505050505050505050565b600062000206640100000000620002cb810204565b821015801562000228575062000224640100000000620002d0810204565b8211155b92915050565b60006200024482640100000000620001f1810204565b15156200025057600080fd5b6200022862000267640100000000620002ed810204565b8390600a0a64010000000062002981620002f282021704565b600082116200028e57600080fd5b600160a060020a0381161515620002a457600080fd5b60059190915560088054600160a060020a031916600160a060020a03909216919091179055565b600090565b6000620002e564010000000062000308810204565b600a0a905090565b600290565b600081838115156200030057fe5b049392505050565b60006200031d640100000000620002ed810204565b600201905090565b61306c80620003356000396000f3006080604052600436106101875763ffffffff60e060020a60003504166313096a41811461019157806314f66d34146101c257806317410a07146101f05780631aecc19f14610240578063208853c9146102785780632442e1cb146102a25780632e325020146103d85780632fbe5990146104c9578063313602d4146104de5780633baba4d7146104f35780634090cb641461050857806354fd4d501461051d5780635641f3c314610532578063564566a814610547578063715018a61461055c578063792c02ea146105715780638119c06514610586578063845ddcb21461059b5780638abdf5aa146105e45780638da5cb5b146105f95780638edd6eb61461060e578063a035b1fe14610623578063a4fd6f5614610638578063b13564881461064d578063b60d42881461067b578063ca7348a314610690578063d0febe4c14610187578063d6d65f3d146106a8578063daa4cf88146106bd578063e89e4ed6146106d2578063e93b0540146106ea578063f2fde38b14610702578063fc0c546a14610723575b61018f610738565b005b34801561019d57600080fd5b506101a6610bf5565b60408051600160a060020a039092168252519081900360200190f35b3480156101ce57600080fd5b506101d7610c04565b6040805192835290151560208301528051918290030190f35b3480156101fc57600080fd5b5061018f6024600480358281019290820135918135808301929082013591604435808301929082013591606435808301929082013591608435918201910135610c37565b34801561024c57600080fd5b50610264600160a060020a0360043516602435610e3e565b604080519115158252519081900360200190f35b34801561028457600080fd5b50610290600435610ee5565b60408051918252519081900360200190f35b3480156102ae57600080fd5b506102ba600435610f93565b604051808763ffffffff1663ffffffff1681526020018681526020018563ffffffff1663ffffffff1681526020018463ffffffff1663ffffffff1681526020018060200180602001838103835285818151815260200191508051906020019080838360005b8381101561033757818101518382015260200161031f565b50505050905090810190601f1680156103645780820380516001836020036101000a031916815260200191505b50838103825284518152845160209182019186019080838360005b8381101561039757818101518382015260200161037f565b50505050905090810190601f1680156103c45780820380516001836020036101000a031916815260200191505b509850505050505050505060405180910390f35b3480156103e457600080fd5b506103f06004356111c0565b604051808763ffffffff1663ffffffff1681526020018663ffffffff1663ffffffff1681526020018581526020018463ffffffff1663ffffffff1681526020018060200180602001838103835285818151815260200191508051906020019060200280838360005b83811015610470578181015183820152602001610458565b50505050905001838103825284818151815260200191508051906020019060200280838360005b838110156104af578181015183820152602001610497565b505050509050019850505050505050505060405180910390f35b3480156104d557600080fd5b50610290611366565b3480156104ea57600080fd5b5061018f61136c565b3480156104ff57600080fd5b5061029061151b565b34801561051457600080fd5b506101a6611522565b34801561052957600080fd5b50610290611531565b34801561053e57600080fd5b506101a6611537565b34801561055357600080fd5b50610264611546565b34801561056857600080fd5b5061018f61155c565b34801561057d57600080fd5b506102906115ca565b34801561059257600080fd5b506101a66115d0565b3480156105a757600080fd5b506105b36004356115df565b6040805163ffffffff9586168152938516602085015283810192909252909216606082015290519081900360800190f35b3480156105f057600080fd5b50610290611625565b34801561060557600080fd5b506101a661162b565b34801561061a57600080fd5b506101a661163a565b34801561062f57600080fd5b50610290611649565b34801561064457600080fd5b5061026461164f565b34801561065957600080fd5b50610662611697565b6040805163ffffffff9092168252519081900360200190f35b34801561068757600080fd5b506101a66116de565b34801561069c57600080fd5b5061018f6004356116ed565b3480156106b457600080fd5b506101d76116f2565b3480156106c957600080fd5b506101d761176d565b3480156106de57600080fd5b506102ba6004356117f0565b3480156106f657600080fd5b5061018f60043561195e565b34801561070e57600080fd5b5061018f600160a060020a03600435166119cc565b34801561072f57600080fd5b506101a66119ec565b600080600080600080600080600160025414151561075557600080fd5b60028055610761611546565b15156107ce57604080517f08c379a000000000000000000000000000000000000000000000000000000000815260206004820152601760248201527f53616c65206973206e6f74207374617274656420796574000000000000000000604482015290519081900360640190fd5b600034116107db57600080fd5b6107e361176d565b509750600b888154811015156107f557fe5b9060005260206000209060050201600101549650600b8881548110151561081857fe5b600091825260209091206002600590920201015463ffffffff16955061083d34610ee5565b945061084a3488876119fb565b50935093509350600060075411156109d05760075461087090859063ffffffff611de516565b60048054600954600854604080517f23b872dd000000000000000000000000000000000000000000000000000000008152600160a060020a03938416958101959095529082166024850152604484018590525193945016916323b872dd916064808201926020929091908290030181600087803b1580156108f057600080fd5b505af1158015610904573d6000803e3d6000fd5b505050506040513d602081101561091a57600080fd5b5051151561092757600080fd5b600354600954604080517fa9059cbb000000000000000000000000000000000000000000000000000000008152600160a060020a039283166004820152602481018590529051919092169163a9059cbb9160448083019260209291908290030181600087803b15801561099957600080fd5b505af11580156109ad573d6000803e3d6000fd5b505050506040513d60208110156109c357600080fd5b505115156109d057600080fd5b600354604080517f9d2e47770000000000000000000000000000000000000000000000000000000081523360048201526024810187905263ffffffff891660448201529051600160a060020a0390921691639d2e4777916064808201926020929091908290030181600087803b158015610a4957600080fd5b505af1158015610a5d573d6000803e3d6000fd5b505050506040513d6020811015610a7357600080fd5b50511515610a8057600080fd5b6000821115610ab857604051339083156108fc029084906000818181858888f19350505050158015610ab6573d6000803e3d6000fd5b505b60006006541115610b1457600854600654600160a060020a03909116906108fc90610aea90869063ffffffff611de516565b6040518115909202916000818181858888f19350505050158015610b12573d6000803e3d6000fd5b505b600a54604080517f958799cb000000000000000000000000000000000000000000000000000000008152336004820152602481018790529051600160a060020a039092169163958799cb91620186a09130319160448082019260009290919082900301818589803b158015610b8857600080fd5b5088f1158015610b9c573d6000803e3d6000fd5b505060408051888152602081018a905280820188905290513395507f347f5f0051b895093800553e6e78ef332849e2552639a4f5ffe66535788ae07894509081900360600192509050a250506001600255505050505050565b600454600160a060020a031681565b600c5460009081901580610c1d5750610c1b61164f565b155b15610c2757610c33565b5050600c546000190160015b9091565b600154600160a060020a03163314610c4e57600080fd5b600b5460001015610c8b5742600b6000815481101515610c6a57fe5b600091825260209091206005909102015463ffffffff1611610c8b57600080fd5b881515610c9757600080fd5b60ff891115610ca557600080fd5b60ff851115610cb357600080fd5b600283048514610cc257600080fd5b60028104851115610cd257600080fd5b610d6b8a8a808060200260200160405190810160405280939291908181526020016000905b82821015610d33576040805160c08181019092529080840287019060069083908390808284375050509183525050600190910190602001610cf7565b505050505089898080602002602001604051908101604052809392919081815260200183836020028082843750611e1d945050505050565b610e328686808060200260200160405190810160405280939291908181526020016000905b82821015610dcc576040805160808181019092529080840287019060049083908390808284375050509183525050600190910190602001610d90565b50505050508585808060200260200160405190810160405280939291908181526020018383602002808284375050604080516020601f8b018190048102820181019092528981529450899350889250829150840183828082843750612326945050505050565b50505050505050505050565b600354604080517fa9059cbb000000000000000000000000000000000000000000000000000000008152600160a060020a038581166004830152602482018590529151600093929092169163a9059cbb9160448082019260209290919082900301818787803b158015610eb057600080fd5b505af1158015610ec4573d6000803e3d6000fd5b505050506040513d6020811015610eda57600080fd5b505190505b92915050565b6000806000806000610ef561176d565b93509350821515610f095760009450610f8a565b600b805485908110610f1757fe5b90600052602060002090600502019150600090505b6003820154811015610f8a5760038201805482908110610f4857fe5b906000526020600020015486101515610f7d5760048201805482908110610f6b57fe5b90600052602060002001549450610f82565b610f8a565b600101610f2c565b50505050919050565b600080600080606080600c87815481101515610fab57fe5b6000918252602090912060059091020154600c805463ffffffff9092169189908110610fd357fe5b906000526020600020906005020160010154600c89815481101515610ff457fe5b6000918252602090912060026005909202010154600c805463ffffffff909216918b90811061101f57fe5b906000526020600020906005020160020160049054906101000a900463ffffffff16600c8b81548110151561105057fe5b9060005260206000209060050201600301600c8c81548110151561107057fe5b9060005260206000209060050201600401818054600181600116156101000203166002900480601f0160208091040260200160405190810160405280929190818152602001828054600181600116156101000203166002900480156111165780601f106110eb57610100808354040283529160200191611116565b820191906000526020600020905b8154815290600101906020018083116110f957829003601f168201915b5050845460408051602060026001851615610100026000190190941693909304601f8101849004840282018401909252818152959750869450925084019050828280156111a45780601f10611179576101008083540402835291602001916111a4565b820191906000526020600020905b81548152906001019060200180831161118757829003601f168201915b5050505050905095509550955095509550955091939550919395565b600080600080606080600b878154811015156111d857fe5b6000918252602090912060059091020154600b805463ffffffff909216918990811061120057fe5b906000526020600020906005020160000160049054906101000a900463ffffffff16600b8981548110151561123157fe5b906000526020600020906005020160010154600b8a81548110151561125257fe5b6000918252602090912060026005909202010154600b805463ffffffff909216918c90811061127d57fe5b9060005260206000209060050201600301600b8c81548110151561129d57fe5b9060005260206000209060050201600401818054806020026020016040519081016040528092919081815260200182805480156112f957602002820191906000526020600020905b8154815260200190600101908083116112e5575b50505050509150808054806020026020016040519081016040528092919081815260200182805480156111a457602002820191906000526020600020905b815481526020019060010190808311611337575050505050905095509550955095509550955091939550919395565b60075481565b600154600090600160a060020a0316331461138657600080fd5b61138e61164f565b151561139957600080fd5b600354604080517f70a082310000000000000000000000000000000000000000000000000000000081523060048201529051600160a060020a03909216916370a08231916024808201926020929091908290030181600087803b1580156113ff57600080fd5b505af1158015611413573d6000803e3d6000fd5b505050506040513d602081101561142957600080fd5b5051600354600154604080517fa9059cbb000000000000000000000000000000000000000000000000000000008152600160a060020a03928316600482015260248101859052905193945091169163a9059cbb916044808201926020929091908290030181600087803b15801561149f57600080fd5b505af11580156114b3573d6000803e3d6000fd5b505050506040513d60208110156114c957600080fd5b505115156114d657600080fd5b600154604080518381529051600160a060020a03909216917f26ffb867a6b19bc0240d4e732ed6cfb0f0b6d93143a99cfb24ba5873308861f89181900360200190a250565b600c545b90565b600354600160a060020a031690565b60005481565b600854600160a060020a031681565b60008061155161176d565b9150508091505b5090565b600154600160a060020a0316331461157357600080fd5b600154604051600160a060020a03909116907ff8df31144d9c2f0f6b59d69b8b98abd5459d07f2742c4df920b25aae33c6482090600090a26001805473ffffffffffffffffffffffffffffffffffffffff19169055565b600b5490565b600954600160a060020a031681565b600b8054829081106115ed57fe5b600091825260209091206005909102018054600182015460029092015463ffffffff8083169450640100000000909204821692911684565b60065481565b600154600160a060020a031681565b600a54600160a060020a031690565b60055481565b600b5460009015806116925750600b8054429190600019810190811061167157fe5b6000918252602090912060059091020154640100000000900463ffffffff16105b905090565b600b5460009081106116a857600080fd5b600b805460001981019081106116ba57fe5b6000918252602090912060059091020154640100000000900463ffffffff16919050565b600a54600160a060020a031681565b600755565b600c546000908190158061170b575061170961164f565b155b1561171557610c33565b5060015b600c54600019018210801561175d5750600c80548390811061173757fe5b6000918252602090912060059091020160020154640100000000900463ffffffff164210155b15610c3357600190910190611719565b60008080805b600b548210156117e257600b80548390811061178b57fe5b6000918252602090912060059091020180549091504263ffffffff909116118015906117c6575080544264010000000090910463ffffffff16115b156117d757816001935093506117ea565b600190910190611773565b600093508392505b50509091565b600c8054829081106117fe57fe5b60009182526020918290206005919091020180546001808301546002808501546003860180546040805161010097831615979097026000190190911693909304601f810189900489028601890190935282855263ffffffff95861698509296858216966401000000009092049095169490939291908301828280156118c45780601f10611899576101008083540402835291602001916118c4565b820191906000526020600020905b8154815290600101906020018083116118a757829003601f168201915b5050505060048301805460408051602060026001851615610100026000190190941693909304601f81018490048402820184019092528181529495949350908301828280156119545780601f1061192957610100808354040283529160200191611954565b820191906000526020600020905b81548152906001019060200180831161193757829003601f168201915b5050505050905086565b600154600160a060020a0316331461197557600080fd5b600b54600010156119b25742600b600081548110151561199157fe5b600091825260209091206005909102015463ffffffff16116119b257600080fd5b6008546119c9908290600160a060020a0316612884565b50565b600154600160a060020a031633146119e357600080fd5b6119c9816128da565b600354600160a060020a031681565b600354604080517f70a0823100000000000000000000000000000000000000000000000000000000815230600482015290516000928692849283928392600160a060020a03909116916370a082319160248082019260209290919082900301818787803b158015611a6b57600080fd5b505af1158015611a7f573d6000803e3d6000fd5b505050506040513d6020811015611a9557600080fd5b5051600354604080517f313ce5670000000000000000000000000000000000000000000000000000000081529051929350600160a060020a039091169163313ce567916004808201926020929091908290030181600087803b158015611afa57600080fd5b505af1158015611b0e573d6000803e3d6000fd5b505050506040513d6020811015611b2457600080fd5b505160ff16600a0a811015611b3857600080fd5b60008711611b4857600554611bd0565b611bd08773__Percent_______________________________63d49d51816040518163ffffffff1660e060020a02815260040160206040518083038186803b158015611b9357600080fd5b505af4158015611ba7573d6000803e3d6000fd5b505050506040513d6020811015611bbd57600080fd5b505160055491900363ffffffff611de516565b9150611db273__Percent_______________________________63d49d51816040518163ffffffff1660e060020a02815260040160206040518083038186803b158015611c1c57600080fd5b505af4158015611c30573d6000803e3d6000fd5b505050506040513d6020811015611c4657600080fd5b5051600354604080517f313ce5670000000000000000000000000000000000000000000000000000000081529051611da69287928492600160a060020a039092169163313ce567916004808201926020929091908290030181600087803b158015611cb057600080fd5b505af1158015611cc4573d6000803e3d6000fd5b505050506040513d6020811015611cda57600080fd5b5051604080517fd49d5181000000000000000000000000000000000000000000000000000000008152905160ff909216600a0a91611d9a918e9173__Percent_______________________________9163d49d5181916004808301926020929190829003018186803b158015611d4f57600080fd5b505af4158015611d63573d6000803e3d6000fd5b505050506040513d6020811015611d7957600080fd5b8101908080519060200190929190505050018f61295890919063ffffffff16565b9063ffffffff61295816565b9063ffffffff61298116565b945084811015611ddb57611dd085611da68a8463ffffffff61295816565b935083880392508094505b5093509350935093565b6000611df082612996565b1515611dfb57600080fd5b611e16611e066129bb565b611da6858563ffffffff61295816565b9392505050565b600c54600090811015611e7a57825183906000198101908110611e3c57fe5b6020908102919091018101510151600c80546000908110611e5957fe5b600091825260209091206005909102015463ffffffff1611611e7a57600080fd5b611e86600b6000612deb565b5060005b82518160ff1610156122f857825163ffffffff90849060ff8416908110611ead57fe5b6020908102919091010151511115611ec457600080fd5b825163ffffffff90849060ff8416908110611edb57fe5b60209081029190910181015101511115611ef457600080fd5b825163ffffffff90849060ff8416908110611f0b57fe5b6020908102919091010151606001511115611f2557600080fd5b825160ff908490838316908110611f3857fe5b6020908102919091010151608001511115611f5257600080fd5b825160ff908490838316908110611f6557fe5b602090810291909101015160a001511115611f7f57600080fd5b42838260ff16815181101515611f9157fe5b60209081029190910101515111611fa757600080fd5b828160ff16815181101515611fb857fe5b60209081029190910181015101518351849060ff8416908110611fd757fe5b60209081029190910101515110611fed57600080fd5b60008160ff16111561204457828160ff1681518110151561200a57fe5b6020908102919091010151518351849060ff60001985011690811061202b57fe5b6020908102919091018101510151111561204457600080fd5b61206f838260ff1681518110151561205857fe5b6020908102909101015160025b6020020151612996565b151561207a57600080fd5b73__Percent_______________________________63d49d51816040518163ffffffff1660e060020a02815260040160206040518083038186803b1580156120c157600080fd5b505af41580156120d5573d6000803e3d6000fd5b505050506040513d60208110156120eb57600080fd5b50518351849060ff84169081106120fe57fe5b6020908102919091010151604001511061211757600080fd5b600b60c060405190810160405280858460ff1681518110151561213657fe5b6020908102919091018101515163ffffffff1682528651910190869060ff861690811061215f57fe5b602090810290910101516001602002015163ffffffff168152602001858460ff1681518110151561218c57fe5b60209081029091010151600260200201518152602001858460ff168151811015156121b357fe5b6020908102919091018101516060015163ffffffff16825260408051600080825281840183528484019190915281518181529283018252920191509052815460018082018085556000948552602094859020845160059094020180548587015163ffffffff1991821663ffffffff9687161767ffffffff00000000191664010000000091871691909102178255604086015193820193909355606085015160028201805490941694169390931790915560808301518051919461227e92600385019290910190612e0c565b5060a0820151805161229a916004840191602090910190612e0c565b505050506122f06001600b8054905003848360ff168151811015156122bb57fe5b6020908102919091010151608001518551869060ff86169081106122db57fe5b602090810291909101015160a00151856129cd565b600101611e8a565b6040517f743961f4e677d1146fbf85d75565b1c5474fd083eb166f8b9595cf5d01a4d6e690600090a1505050565b6000806000806060806000600b8054905011156123935788600081518110151561234c57fe5b602090810291909101015151600b8054600019810190811061236a57fe5b6000918252602090912060059091020154640100000000900463ffffffff161061239357600080fd5b61239f600c6000612e53565b600095506000945060009350600092505b88518360ff1610156127d257885163ffffffff908a9060ff86169081106123d357fe5b60209081029190910101515111156123ea57600080fd5b885163ffffffff908a9060ff861690811061240157fe5b6020908102919091018101510151111561241a57600080fd5b885163ffffffff908a9060ff861690811061243157fe5b602090810291909101015160400151111561244b57600080fd5b42898460ff1681518110151561245d57fe5b6020908102919091010151511161247357600080fd5b888360ff1681518110151561248457fe5b60209081029190910101515189518a9060ff86169081106124a157fe5b6020908102919091018101510151116124b957600080fd5b888360ff168151811015156124ca57fe5b602090810291909101810151015189518a9060ff86169081106124e957fe5b6020908102919091010151604001511161250257600080fd5b60008360ff16111561255957888360ff1681518110151561251f57fe5b60209081029190910101515189518a9060ff60001987011690811061254057fe5b6020908102919091010151604001511061255957600080fd5b61257e898460ff1681518110151561256d57fe5b602090810290910101516003612065565b151561258957600080fd5b6125bb86898781518110151561259b57fe5b9060200190602002015163ffffffff1689612d419092919063ffffffff16565b91506125ed88868151811015156125ce57fe5b9060200190602002015163ffffffff1687612dc290919063ffffffff16565b955061260486898760010181518110151561259b57fe5b905061261a88866001018151811015156125ce57fe5b955061262d85600263ffffffff612dc216565b9450612659898460ff1681518110151561264357fe5b6020908102919091010151606001518590612dc2565b9350600c60c0604051908101604052808b8660ff1681518110151561267a57fe5b6020908102919091018101515163ffffffff1682528c519101908c9060ff88169081106126a357fe5b602090810290910101516003602002015181526020018b8660ff168151811015156126ca57fe5b602090810290910101516001602002015163ffffffff1681526020018b8660ff168151811015156126f757fe5b6020908102909101015160026020908102919091015163ffffffff90811683528282018790526040928301869052845460018181018088556000978852968490208651600590930201805492841663ffffffff19938416178155868501519181019190915593850151600285018054606088015185166401000000000267ffffffff00000000199390951693169290921716919091179055608083015180516127a69260038501920190612e74565b5060a082015180516127c2916004840191602090910190612e74565b5050600190940193506123b09050565b73__Percent_______________________________63d49d51816040518163ffffffff1660e060020a02815260040160206040518083038186803b15801561281957600080fd5b505af415801561282d573d6000803e3d6000fd5b505050506040513d602081101561284357600080fd5b5051841461285057600080fd5b6040517f56d9a2e016027a3725bf162ef2779c8b28d4dbec97c679cfba02dbb31a34c7ca90600090a1505050505050505050565b6000821161289157600080fd5b600160a060020a03811615156128a657600080fd5b6005919091556008805473ffffffffffffffffffffffffffffffffffffffff1916600160a060020a03909216919091179055565b600160a060020a03811615156128ef57600080fd5b600154604051600160a060020a038084169216907f8be0079c531659141344cd1fd0a4f28419497f9722a3daafe3b4186f6b6457e090600090a36001805473ffffffffffffffffffffffffffffffffffffffff1916600160a060020a0392909216919091179055565b600082151561296957506000610edf565b5081810281838281151561297957fe5b0414610edf57fe5b6000818381151561298e57fe5b049392505050565b60006129a0612dcf565b8210158015610edf57506129b26129bb565b82111592915050565b60006129c5612dd4565b600a0a905090565b606080600060ff86161580156129e4575060ff8516155b15612a7857604080516000815260208101909152600b805460ff8a16908110612a0957fe5b90600052602060002090600502016003019080519060200190612a2d929190612e0c565b50604080516000815260208101909152600b805460ff8a16908110612a4e57fe5b90600052602060002090600502016004019080519060200190612a72929190612e0c565b50612d38565b835160ff86161115612a8957600080fd5b60ff80861690871610612a9b57600080fd5b6001861615612aa957600080fd5b6001851615612ab757600080fd5b600260ff878703160460ff16604051908082528060200260200182016040528015612aec578160200160208202803883390190505b509250600260ff878703160460ff16604051908082528060200260200182016040528015612b24578160200160208202803883390190505b509150600090505b8460ff168660ff161015612cc757612b60848760010160ff16815181101515612b5157fe5b90602001906020020151612996565b1515612b6b57600080fd5b73__Percent_______________________________63d49d51816040518163ffffffff1660e060020a02815260040160206040518083038186803b158015612bb257600080fd5b505af4158015612bc6573d6000803e3d6000fd5b505050506040513d6020811015612bdc57600080fd5b50518451859060ff60018a0116908110612bf257fe5b6020908102909101015110612c0657600080fd5b6000811115612c4f57838660ff16815181101515612c2057fe5b906020019060200201518360018303815181101515612c3b57fe5b6020908102909101015110612c4f57600080fd5b838660ff16815181101515612c6057fe5b906020019060200201518382815181101515612c7857fe5b602090810290910101528351849060ff6001890116908110612c9657fe5b906020019060200201518282815181101515612cae57fe5b6020908102909101015260029590950194600101612b2c565b82600b8860ff16815481101515612cda57fe5b90600052602060002090600502016003019080519060200190612cfe929190612e0c565b5081600b8860ff16815481101515612d1257fe5b90600052602060002090600502016004019080519060200190612d36929190612e0c565b505b50505050505050565b606080828401855110151515612d5657600080fd5b82158015612d6f57604051915060208201604052612db9565b6040519150601f8416801560200281840101858101878315602002848b0101015b81831015612da8578051835260209283019201612d90565b5050858452601f01601f1916604052505b50949350505050565b81810182811015610edf57fe5b600090565b6000612dde612de6565b600201905090565b600290565b50805460008255600502906000526020600020908101906119c99190612ee1565b828054828255906000526020600020908101928215612e47579160200282015b82811115612e47578251825591602001919060010190612e2c565b50611558929150612f3a565b50805460008255600502906000526020600020908101906119c99190612f54565b828054600181600116156101000203166002900490600052602060002090601f016020900481019282601f10612eb557805160ff1916838001178555612e47565b82800160010185558215612e475791820182811115612e47578251825591602001919060010190612e2c565b61151f91905b8082111561155857805467ffffffffffffffff1916815560006001820181905560028201805463ffffffff19169055612f236003830182612fad565b612f31600483016000612fad565b50600501612ee7565b61151f91905b808211156115585760008155600101612f40565b61151f91905b8082111561155857805463ffffffff1916815560006001820181905560028201805467ffffffffffffffff19169055612f966003830182612fcb565b612fa4600483016000612fcb565b50600501612f5a565b50805460008255906000526020600020908101906119c99190612f3a565b50805460018160011615610100020316600290046000825580601f10612ff157506119c9565b601f0160209004906000526020600020908101906119c99190612f3a565b600061301a82612996565b151561302557600080fd5b610edf613030612de6565b8390600a0a63ffffffff612981165600a165627a7a7230582055ccb04d8c0bdbd9cbddb5cb81f8ddd4bde8aef7a55c312a7f2771e8d9a17a660029",
  "source": "pragma solidity ^0.4.24;\n\nimport \"./W12Crowdsale.sol\";\n\n\ncontract W12CrowdsaleStub is W12Crowdsale {\n    constructor (\n        uint version,\n        address _originToken,\n        address _token,\n        uint _price,\n        address _serviceWallet,\n        address _swap,\n        uint _serviceFee,\n        uint _WTokenSaleFeePercent,\n        IW12Fund _fund\n    )\n        W12Crowdsale(\n            version,\n            _originToken,\n             _token,\n             _price,\n             _serviceWallet,\n             _swap,\n             _serviceFee,\n            _WTokenSaleFeePercent,\n             _fund\n        ) public\n    {}\n\n    function _outTokens(address to, uint amount) external returns (bool) {\n        return token.transfer(to, amount);\n    }\n\n    function _setState(uint _WTokenSaleFeePercent) external {\n        WTokenSaleFeePercent = _WTokenSaleFeePercent;\n    }\n}\n",
  "sourcePath": "/home/circleci/code/contracts/W12CrowdsaleStub.sol",
  "compiler": {
    "name": "solc",
    "version": "0.4.24+commit.e67f0147.Emscripten.clang"
  },
  "schemaVersion": "2.0.1",
  "updatedAt": "2018-10-02T12:01:53.231Z"
}