{
  "contractName": "W12CrowdsaleStub",
  "abi": [
    {
      "constant": false,
      "inputs": [
        {
          "name": "method",
          "type": "bytes32"
        },
        {
          "name": "amount",
          "type": "uint256"
        }
      ],
      "name": "buyTokens",
      "outputs": [],
      "payable": true,
      "stateMutability": "payable",
      "type": "function"
    },
    {
      "constant": true,
      "inputs": [
        {
          "name": "_method",
          "type": "bytes32"
        }
      ],
      "name": "isPaymentMethodAllowed",
      "outputs": [
        {
          "name": "",
          "type": "bool"
        }
      ],
      "payable": false,
      "stateMutability": "view",
      "type": "function"
    },
    {
      "constant": true,
      "inputs": [],
      "name": "originToken",
      "outputs": [
        {
          "name": "",
          "type": "address"
        }
      ],
      "payable": false,
      "stateMutability": "view",
      "type": "function"
    },
    {
      "constant": false,
      "inputs": [
        {
          "name": "val",
          "type": "uint256"
        }
      ],
      "name": "setRefundDate",
      "outputs": [],
      "payable": false,
      "stateMutability": "nonpayable",
      "type": "function"
    },
    {
      "constant": true,
      "inputs": [],
      "name": "getLastMilestoneIndex",
      "outputs": [
        {
          "name": "index",
          "type": "uint256"
        },
        {
          "name": "found",
          "type": "bool"
        }
      ],
      "payable": false,
      "stateMutability": "view",
      "type": "function"
    },
    {
      "constant": false,
      "inputs": [
        {
          "name": "_account",
          "type": "address"
        }
      ],
      "name": "removeAdmin",
      "outputs": [],
      "payable": false,
      "stateMutability": "nonpayable",
      "type": "function"
    },
    {
      "constant": true,
      "inputs": [
        {
          "name": "value",
          "type": "uint256"
        }
      ],
      "name": "getSaleVolumeBonus",
      "outputs": [
        {
          "name": "bonus",
          "type": "uint256"
        }
      ],
      "payable": false,
      "stateMutability": "view",
      "type": "function"
    },
    {
      "constant": false,
      "inputs": [
        {
          "name": "recipient",
          "type": "address"
        }
      ],
      "name": "transferPrimary",
      "outputs": [],
      "payable": false,
      "stateMutability": "nonpayable",
      "type": "function"
    },
    {
      "constant": true,
      "inputs": [
        {
          "name": "index",
          "type": "uint256"
        }
      ],
      "name": "getMilestone",
      "outputs": [
        {
          "name": "",
          "type": "uint32"
        },
        {
          "name": "",
          "type": "uint256"
        },
        {
          "name": "",
          "type": "uint32"
        },
        {
          "name": "",
          "type": "uint32"
        },
        {
          "name": "",
          "type": "bytes"
        },
        {
          "name": "",
          "type": "bytes"
        }
      ],
      "payable": false,
      "stateMutability": "view",
      "type": "function"
    },
    {
      "constant": true,
      "inputs": [
        {
          "name": "account",
          "type": "address"
        }
      ],
      "name": "isAdmin",
      "outputs": [
        {
          "name": "",
          "type": "bool"
        }
      ],
      "payable": false,
      "stateMutability": "view",
      "type": "function"
    },
    {
      "constant": true,
      "inputs": [
        {
          "name": "method",
          "type": "bytes32"
        }
      ],
      "name": "getPurchaseFeeParameterForPaymentMethod",
      "outputs": [
        {
          "name": "",
          "type": "bool"
        },
        {
          "name": "",
          "type": "uint256"
        }
      ],
      "payable": false,
      "stateMutability": "view",
      "type": "function"
    },
    {
      "constant": true,
      "inputs": [],
      "name": "refund_date",
      "outputs": [
        {
          "name": "",
          "type": "uint256"
        }
      ],
      "payable": false,
      "stateMutability": "view",
      "type": "function"
    },
    {
      "constant": true,
      "inputs": [
        {
          "name": "index",
          "type": "uint256"
        }
      ],
      "name": "getStage",
      "outputs": [
        {
          "name": "",
          "type": "uint32"
        },
        {
          "name": "",
          "type": "uint32"
        },
        {
          "name": "",
          "type": "uint256"
        },
        {
          "name": "",
          "type": "uint32"
        },
        {
          "name": "",
          "type": "uint256[]"
        },
        {
          "name": "",
          "type": "uint256[]"
        }
      ],
      "payable": false,
      "stateMutability": "view",
      "type": "function"
    },
    {
      "constant": true,
      "inputs": [],
      "name": "WTokenSaleFeePercent",
      "outputs": [
        {
          "name": "",
          "type": "uint256"
        }
      ],
      "payable": false,
      "stateMutability": "view",
      "type": "function"
    },
    {
      "constant": false,
      "inputs": [],
      "name": "claimRemainingTokens",
      "outputs": [],
      "payable": false,
      "stateMutability": "nonpayable",
      "type": "function"
    },
    {
      "constant": true,
      "inputs": [],
      "name": "milestonesLength",
      "outputs": [
        {
          "name": "",
          "type": "uint256"
        }
      ],
      "payable": false,
      "stateMutability": "view",
      "type": "function"
    },
    {
      "constant": false,
      "inputs": [
        {
          "name": "_account",
          "type": "address"
        }
      ],
      "name": "addProjectOwner",
      "outputs": [],
      "payable": false,
      "stateMutability": "nonpayable",
      "type": "function"
    },
    {
      "constant": true,
      "inputs": [],
      "name": "getProjectType",
      "outputs": [
        {
          "name": "",
          "type": "uint8"
        }
      ],
      "payable": false,
      "stateMutability": "view",
      "type": "function"
    },
    {
      "constant": true,
      "inputs": [
        {
          "name": "method",
          "type": "bytes32"
        }
      ],
      "name": "getPurchaseFeeForPaymentMethod",
      "outputs": [
        {
          "name": "",
          "type": "uint256"
        }
      ],
      "payable": false,
      "stateMutability": "view",
      "type": "function"
    },
    {
      "constant": true,
      "inputs": [],
      "name": "getWToken",
      "outputs": [
        {
          "name": "",
          "type": "address"
        }
      ],
      "payable": false,
      "stateMutability": "view",
      "type": "function"
    },
    {
      "constant": true,
      "inputs": [],
      "name": "rates",
      "outputs": [
        {
          "name": "",
          "type": "address"
        }
      ],
      "payable": false,
      "stateMutability": "view",
      "type": "function"
    },
    {
      "constant": false,
      "inputs": [
        {
          "name": "val_name",
          "type": "string"
        }
      ],
      "name": "setProjectName",
      "outputs": [],
      "payable": false,
      "stateMutability": "nonpayable",
      "type": "function"
    },
    {
      "constant": false,
      "inputs": [
        {
          "name": "val_type",
          "type": "uint8"
        }
      ],
      "name": "setProjectType",
      "outputs": [],
      "payable": false,
      "stateMutability": "nonpayable",
      "type": "function"
    },
    {
      "constant": true,
      "inputs": [],
      "name": "version",
      "outputs": [
        {
          "name": "",
          "type": "uint256"
        }
      ],
      "payable": false,
      "stateMutability": "view",
      "type": "function"
    },
    {
      "constant": true,
      "inputs": [],
      "name": "getPaymentMethodsList",
      "outputs": [
        {
          "name": "",
          "type": "bytes32[]"
        }
      ],
      "payable": false,
      "stateMutability": "view",
      "type": "function"
    },
    {
      "constant": true,
      "inputs": [],
      "name": "serviceWallet",
      "outputs": [
        {
          "name": "",
          "type": "address"
        }
      ],
      "payable": false,
      "stateMutability": "view",
      "type": "function"
    },
    {
      "constant": true,
      "inputs": [],
      "name": "isSaleActive",
      "outputs": [
        {
          "name": "",
          "type": "bool"
        }
      ],
      "payable": false,
      "stateMutability": "view",
      "type": "function"
    },
    {
      "constant": false,
      "inputs": [
        {
          "name": "method",
          "type": "bytes32"
        },
        {
          "name": "has",
          "type": "bool"
        },
        {
          "name": "value",
          "type": "uint256"
        }
      ],
      "name": "updatePurchaseFeeParameterForPaymentMethod",
      "outputs": [],
      "payable": false,
      "stateMutability": "nonpayable",
      "type": "function"
    },
    {
      "constant": false,
      "inputs": [
        {
          "name": "_account",
          "type": "address"
        }
      ],
      "name": "addAdmin",
      "outputs": [],
      "payable": false,
      "stateMutability": "nonpayable",
      "type": "function"
    },
    {
      "constant": true,
      "inputs": [],
      "name": "stagesLength",
      "outputs": [
        {
          "name": "",
          "type": "uint256"
        }
      ],
      "payable": false,
      "stateMutability": "view",
      "type": "function"
    },
    {
      "constant": true,
      "inputs": [],
      "name": "project_type",
      "outputs": [
        {
          "name": "",
          "type": "uint8"
        }
      ],
      "payable": false,
      "stateMutability": "view",
      "type": "function"
    },
    {
      "constant": true,
      "inputs": [],
      "name": "swap",
      "outputs": [
        {
          "name": "",
          "type": "address"
        }
      ],
      "payable": false,
      "stateMutability": "view",
      "type": "function"
    },
    {
      "constant": true,
      "inputs": [
        {
          "name": "",
          "type": "uint256"
        }
      ],
      "name": "stages",
      "outputs": [
        {
          "name": "startDate",
          "type": "uint32"
        },
        {
          "name": "endDate",
          "type": "uint32"
        },
        {
          "name": "discount",
          "type": "uint256"
        },
        {
          "name": "vesting",
          "type": "uint32"
        }
      ],
      "payable": false,
      "stateMutability": "view",
      "type": "function"
    },
    {
      "constant": true,
      "inputs": [],
      "name": "serviceFee",
      "outputs": [
        {
          "name": "",
          "type": "uint256"
        }
      ],
      "payable": false,
      "stateMutability": "view",
      "type": "function"
    },
    {
      "constant": true,
      "inputs": [
        {
          "name": "method",
          "type": "bytes32"
        },
        {
          "name": "amount",
          "type": "uint256"
        }
      ],
      "name": "getInvoice",
      "outputs": [
        {
          "name": "",
          "type": "uint256[5]"
        }
      ],
      "payable": false,
      "stateMutability": "view",
      "type": "function"
    },
    {
      "constant": false,
      "inputs": [],
      "name": "renounceAdmin",
      "outputs": [],
      "payable": false,
      "stateMutability": "nonpayable",
      "type": "function"
    },
    {
      "constant": true,
      "inputs": [],
      "name": "getFund",
      "outputs": [
        {
          "name": "",
          "type": "address"
        }
      ],
      "payable": false,
      "stateMutability": "view",
      "type": "function"
    },
    {
      "constant": true,
      "inputs": [],
      "name": "getProjectName",
      "outputs": [
        {
          "name": "",
          "type": "string"
        }
      ],
      "payable": false,
      "stateMutability": "view",
      "type": "function"
    },
    {
      "constant": true,
      "inputs": [],
      "name": "price",
      "outputs": [
        {
          "name": "",
          "type": "uint256"
        }
      ],
      "payable": false,
      "stateMutability": "view",
      "type": "function"
    },
    {
      "constant": true,
      "inputs": [],
      "name": "isEnded",
      "outputs": [
        {
          "name": "",
          "type": "bool"
        }
      ],
      "payable": false,
      "stateMutability": "view",
      "type": "function"
    },
    {
      "constant": true,
      "inputs": [],
      "name": "getEndDate",
      "outputs": [
        {
          "name": "",
          "type": "uint32"
        }
      ],
      "payable": false,
      "stateMutability": "view",
      "type": "function"
    },
    {
      "constant": true,
      "inputs": [],
      "name": "fund",
      "outputs": [
        {
          "name": "",
          "type": "address"
        }
      ],
      "payable": false,
      "stateMutability": "view",
      "type": "function"
    },
    {
      "constant": true,
      "inputs": [],
      "name": "primary",
      "outputs": [
        {
          "name": "",
          "type": "address"
        }
      ],
      "payable": false,
      "stateMutability": "view",
      "type": "function"
    },
    {
      "constant": true,
      "inputs": [
        {
          "name": "tokenAmount",
          "type": "uint256"
        },
        {
          "name": "cost",
          "type": "uint256"
        },
        {
          "name": "method",
          "type": "bytes32"
        }
      ],
      "name": "getFee",
      "outputs": [
        {
          "name": "",
          "type": "uint256[2]"
        }
      ],
      "payable": false,
      "stateMutability": "view",
      "type": "function"
    },
    {
      "constant": false,
      "inputs": [],
      "name": "renounceProjectOwner",
      "outputs": [],
      "payable": false,
      "stateMutability": "nonpayable",
      "type": "function"
    },
    {
      "constant": false,
      "inputs": [
        {
          "name": "_account",
          "type": "address"
        }
      ],
      "name": "removeProjectOwner",
      "outputs": [],
      "payable": false,
      "stateMutability": "nonpayable",
      "type": "function"
    },
    {
      "constant": true,
      "inputs": [],
      "name": "getRefundDate",
      "outputs": [
        {
          "name": "",
          "type": "uint256"
        }
      ],
      "payable": false,
      "stateMutability": "view",
      "type": "function"
    },
    {
      "constant": false,
      "inputs": [
        {
          "name": "parametersOfStages",
          "type": "uint256[6][]"
        },
        {
          "name": "bonusConditionsOfStages",
          "type": "uint256[]"
        },
        {
          "name": "parametersOfMilestones",
          "type": "uint256[4][]"
        },
        {
          "name": "nameAndDescriptionsOffsetOfMilestones",
          "type": "uint32[]"
        },
        {
          "name": "nameAndDescriptionsOfMilestones",
          "type": "bytes"
        },
        {
          "name": "paymentMethodsList",
          "type": "bytes32[]"
        }
      ],
      "name": "setup",
      "outputs": [],
      "payable": false,
      "stateMutability": "nonpayable",
      "type": "function"
    },
    {
      "constant": true,
      "inputs": [],
      "name": "getCurrentMilestoneIndex",
      "outputs": [
        {
          "name": "index",
          "type": "uint256"
        },
        {
          "name": "found",
          "type": "bool"
        }
      ],
      "payable": false,
      "stateMutability": "view",
      "type": "function"
    },
    {
      "constant": true,
      "inputs": [
        {
          "name": "account",
          "type": "address"
        }
      ],
      "name": "isProjectOwner",
      "outputs": [
        {
          "name": "",
          "type": "bool"
        }
      ],
      "payable": false,
      "stateMutability": "view",
      "type": "function"
    },
    {
      "constant": true,
      "inputs": [],
      "name": "getCurrentStageIndex",
      "outputs": [
        {
          "name": "index",
          "type": "uint256"
        },
        {
          "name": "found",
          "type": "bool"
        }
      ],
      "payable": false,
      "stateMutability": "view",
      "type": "function"
    },
    {
      "constant": true,
      "inputs": [],
      "name": "project_name",
      "outputs": [
        {
          "name": "",
          "type": "string"
        }
      ],
      "payable": false,
      "stateMutability": "view",
      "type": "function"
    },
    {
      "constant": true,
      "inputs": [
        {
          "name": "",
          "type": "uint256"
        }
      ],
      "name": "milestones",
      "outputs": [
        {
          "name": "endDate",
          "type": "uint32"
        },
        {
          "name": "tranchePercent",
          "type": "uint256"
        },
        {
          "name": "voteEndDate",
          "type": "uint32"
        },
        {
          "name": "withdrawalWindow",
          "type": "uint32"
        },
        {
          "name": "name",
          "type": "bytes"
        },
        {
          "name": "description",
          "type": "bytes"
        }
      ],
      "payable": false,
      "stateMutability": "view",
      "type": "function"
    },
    {
      "constant": false,
      "inputs": [
        {
          "name": "_price",
          "type": "uint256"
        }
      ],
      "name": "setParameters",
      "outputs": [],
      "payable": false,
      "stateMutability": "nonpayable",
      "type": "function"
    },
    {
      "constant": true,
      "inputs": [
        {
          "name": "method",
          "type": "bytes32"
        },
        {
          "name": "tokenAmount",
          "type": "uint256"
        }
      ],
      "name": "getInvoiceByTokenAmount",
      "outputs": [
        {
          "name": "",
          "type": "uint256[4]"
        }
      ],
      "payable": false,
      "stateMutability": "view",
      "type": "function"
    },
    {
      "constant": true,
      "inputs": [],
      "name": "token",
      "outputs": [
        {
          "name": "",
          "type": "address"
        }
      ],
      "payable": false,
      "stateMutability": "view",
      "type": "function"
    },
    {
      "inputs": [
        {
          "name": "version",
          "type": "uint256"
        },
        {
          "name": "_originToken",
          "type": "address"
        },
        {
          "name": "_token",
          "type": "address"
        },
        {
          "name": "_price",
          "type": "uint256"
        },
        {
          "name": "_serviceWallet",
          "type": "address"
        },
        {
          "name": "_swap",
          "type": "address"
        },
        {
          "name": "_serviceFee",
          "type": "uint256"
        },
        {
          "name": "_WTokenSaleFeePercent",
          "type": "uint256"
        },
        {
          "name": "_fund",
          "type": "address"
        },
        {
          "name": "_rates",
          "type": "address"
        }
      ],
      "payable": false,
      "stateMutability": "nonpayable",
      "type": "constructor"
    },
    {
      "anonymous": false,
      "inputs": [
        {
          "indexed": true,
          "name": "buyer",
          "type": "address"
        },
        {
          "indexed": false,
          "name": "tokensBought",
          "type": "uint256"
        },
        {
          "indexed": false,
          "name": "cost",
          "type": "uint256"
        },
        {
          "indexed": false,
          "name": "change",
          "type": "uint256"
        }
      ],
      "name": "TokenPurchase",
      "type": "event"
    },
    {
      "anonymous": false,
      "inputs": [],
      "name": "StagesUpdated",
      "type": "event"
    },
    {
      "anonymous": false,
      "inputs": [
        {
          "indexed": false,
          "name": "index",
          "type": "uint256"
        }
      ],
      "name": "StageUpdated",
      "type": "event"
    },
    {
      "anonymous": false,
      "inputs": [],
      "name": "MilestonesUpdated",
      "type": "event"
    },
    {
      "anonymous": false,
      "inputs": [],
      "name": "CrowdsaleSetUpDone",
      "type": "event"
    },
    {
      "anonymous": false,
      "inputs": [
        {
          "indexed": true,
          "name": "owner",
          "type": "address"
        },
        {
          "indexed": false,
          "name": "amount",
          "type": "uint256"
        }
      ],
      "name": "UnsoldTokenReturned",
      "type": "event"
    },
    {
      "anonymous": false,
      "inputs": [
        {
          "indexed": false,
          "name": "recipient",
          "type": "address"
        }
      ],
      "name": "PrimaryTransferred",
      "type": "event"
    },
    {
      "anonymous": false,
      "inputs": [
        {
          "indexed": true,
          "name": "account",
          "type": "address"
        }
      ],
      "name": "ProjectOwnerAdded",
      "type": "event"
    },
    {
      "anonymous": false,
      "inputs": [
        {
          "indexed": true,
          "name": "account",
          "type": "address"
        }
      ],
      "name": "ProjectOwnerRemoved",
      "type": "event"
    },
    {
      "anonymous": false,
      "inputs": [
        {
          "indexed": true,
          "name": "account",
          "type": "address"
        }
      ],
      "name": "AdminAdded",
      "type": "event"
    },
    {
      "anonymous": false,
      "inputs": [
        {
          "indexed": true,
          "name": "account",
          "type": "address"
        }
      ],
      "name": "AdminRemoved",
      "type": "event"
    },
    {
      "constant": false,
      "inputs": [
        {
          "name": "to",
          "type": "address"
        },
        {
          "name": "amount",
          "type": "uint256"
        }
      ],
      "name": "_outTokens",
      "outputs": [
        {
          "name": "",
          "type": "bool"
        }
      ],
      "payable": false,
      "stateMutability": "nonpayable",
      "type": "function"
    },
    {
      "constant": false,
      "inputs": [
        {
          "name": "to",
          "type": "address"
        }
      ],
      "name": "_outEther",
      "outputs": [],
      "payable": false,
      "stateMutability": "nonpayable",
      "type": "function"
    },
    {
      "constant": false,
      "inputs": [
        {
          "name": "_WTokenSaleFeePercent",
          "type": "uint256"
        }
      ],
      "name": "_setState",
      "outputs": [],
      "payable": false,
      "stateMutability": "nonpayable",
      "type": "function"
    }
  ],
  "bytecode": "0x60806040523480156200001157600080fd5b50604051610140806200429c83398101604090815281516020830151918301516060840151608085015160a086015160c087015160e0880151610100890151610120909901519698959694959394929391929091908989898989898989898989620000853364010000000062000491810204565b6200009933640100000000620004e3810204565b60025560038054600160a060020a03191633179081905560408051600160a060020a03929092168252517f4101e71e974f68df5e9730cc223280b41654676bbb052cdcc735c3337e64d2d99181900360200190a16001600455600160a060020a03891615156200010857600080fd5b600160a060020a03881615156200011e57600080fd5b8373__Percent_______________________________63520b006690916040518263ffffffff167c01000000000000000000000000000000000000000000000000000000000281526004018082815260200191505060206040518083038186803b1580156200018c57600080fd5b505af4158015620001a1573d6000803e3d6000fd5b505050506040513d6020811015620001b857600080fd5b5051801562000262575060648473__Percent_______________________________630fe9114790916040518263ffffffff167c01000000000000000000000000000000000000000000000000000000000281526004018082815260200191505060206040518083038186803b1580156200023257600080fd5b505af415801562000247573d6000803e3d6000fd5b505050506040513d60208110156200025e57600080fd5b5051105b15156200026e57600080fd5b8273__Percent_______________________________63520b006690916040518263ffffffff167c01000000000000000000000000000000000000000000000000000000000281526004018082815260200191505060206040518083038186803b158015620002dc57600080fd5b505af4158015620002f1573d6000803e3d6000fd5b505050506040513d60208110156200030857600080fd5b50518015620003b2575060648373__Percent_______________________________630fe9114790916040518263ffffffff167c01000000000000000000000000000000000000000000000000000000000281526004018082815260200191505060206040518083038186803b1580156200038257600080fd5b505af415801562000397573d6000803e3d6000fd5b505050506040513d6020811015620003ae57600080fd5b5051105b1515620003be57600080fd5b600160a060020a0382161515620003d457600080fd5b600160a060020a0385161515620003ea57600080fd5b600160a060020a03811615156200040057600080fd5b62000415878764010000000062000535810204565b60058054600160a060020a0319908116600160a060020a039a8b16179091556006805482169a8a169a909a17909955600a93909355600d8054891694881694909417909355600b55600780548716928616929092179091556008805490951693169290921790925550620006139b505050505050505050505050565b620004ac60008264010000000062003b126200058082021704565b604051600160a060020a038216907f44d6d25963f097ad14f29f06854a01f575648a1ef82f30e562ccd3889717e33990600090a250565b620004fe60018264010000000062003b126200058082021704565b604051600160a060020a038216907f941e31c3e651de34a7fcf0132d9d02c2df9377e6b5f932bec5daf6353c94f90e90600090a250565b600082116200054357600080fd5b600160a060020a03811615156200055957600080fd5b600991909155600c8054600160a060020a031916600160a060020a03909216919091179055565b600160a060020a03811615156200059657600080fd5b620005ab8282640100000000620005db810204565b15620005b657600080fd5b600160a060020a0316600090815260209190915260409020805460ff19166001179055565b6000600160a060020a0382161515620005f357600080fd5b50600160a060020a03166000908152602091909152604090205460ff1690565b613c7980620006236000396000f3006080604052600436106102a55763ffffffff60e060020a60003504166307f5d63381146102aa57806311eb8c9f146102ba57806313096a41146102e657806313303ddf1461031757806314f66d341461032f5780631785f53c1461035d5780631aecc19f1461037e578063208853c9146103a25780632348238c146103cc5780632442e1cb146103ed57806324d7806c146105235780632784bb7b146105445780632c903b37146105775780632e3250201461058c5780632fbe59901461067d578063313602d4146106925780633baba4d7146106a75780633bcdb164146106bc5780633c9d5c75146106dd5780633dbd6721146107085780634090cb641461072057806343f48fbd1461073557806348b6b16f1461074a57806351f5a76d146107a357806354fd4d50146107be578063550fd742146107d35780635641f3c314610838578063564566a81461084d5780635773caaf1461086257806359e377491461088357806370480275146108a3578063792c02ea146108c45780637dd8951a146108d95780638119c065146108ee578063845ddcb2146109035780638abdf5aa1461094c5780638aea2af8146109615780638bad0c0a146109b45780638edd6eb6146109c95780639faf6215146109de578063a035b1fe14610a68578063a4fd6f5614610a7d578063b135648814610a92578063b60d428814610ac0578063c6dbdf6114610ad5578063ca7348a314610aea578063cd151de014610b02578063d0934d6114610b37578063d155790b14610b4c578063d45c160214610b6d578063d5b2262314610b82578063d6d65f3d14610bde578063d8e9ce6414610bf3578063daa4cf8814610c14578063dc9c9f3314610c29578063e89e4ed614610c3e578063e93b054014610c56578063f6cf09dc14610c6e578063fc0c546a14610c9e575b600080fd5b6102b8600435602435610cb3565b005b3480156102c657600080fd5b506102d2600435610eee565b604080519115158252519081900360200190f35b3480156102f257600080fd5b506102fb610f82565b60408051600160a060020a039092168252519081900360200190f35b34801561032357600080fd5b506102b8600435610f91565b34801561033b57600080fd5b50610344610f96565b6040805192835290151560208301528051918290030190f35b34801561036957600080fd5b506102b8600160a060020a0360043516610fc9565b34801561038a57600080fd5b506102d2600160a060020a0360043516602435610fd5565b3480156103ae57600080fd5b506103ba60043561107a565b60408051918252519081900360200190f35b3480156103d857600080fd5b506102b8600160a060020a03600435166111d1565b3480156103f957600080fd5b50610405600435611264565b604051808763ffffffff1663ffffffff1681526020018681526020018563ffffffff1663ffffffff1681526020018463ffffffff1663ffffffff1681526020018060200180602001838103835285818151815260200191508051906020019080838360005b8381101561048257818101518382015260200161046a565b50505050905090810190601f1680156104af5780820380516001836020036101000a031916815260200191505b50838103825284518152845160209182019186019080838360005b838110156104e25781810151838201526020016104ca565b50505050905090810190601f16801561050f5780820380516001836020036101000a031916815260200191505b509850505050505050505060405180910390f35b34801561052f57600080fd5b506102d2600160a060020a0360043516611491565b34801561055057600080fd5b5061055c6004356114a9565b60408051921515835260208301919091528051918290030190f35b34801561058357600080fd5b506103ba6114c7565b34801561059857600080fd5b506105a46004356114cd565b604051808763ffffffff1663ffffffff1681526020018663ffffffff1663ffffffff1681526020018581526020018463ffffffff1663ffffffff1681526020018060200180602001838103835285818151815260200191508051906020019060200280838360005b8381101561062457818101518382015260200161060c565b50505050905001838103825284818151815260200191508051906020019060200280838360005b8381101561066357818101518382015260200161064b565b505050509050019850505050505050505060405180910390f35b34801561068957600080fd5b506103ba611673565b34801561069e57600080fd5b506102b8611679565b3480156106b357600080fd5b506103ba611800565b3480156106c857600080fd5b506102b8600160a060020a0360043516611807565b3480156106e957600080fd5b506106f2611810565b6040805160ff9092168252519081900360200190f35b34801561071457600080fd5b506103ba600435611831565b34801561072c57600080fd5b506102fb611868565b34801561074157600080fd5b506102fb611877565b34801561075657600080fd5b506040805160206004803580820135601f81018490048402850184019095528484526102b89436949293602493928401919081908401838280828437509497506118869650505050505050565b3480156107af57600080fd5b506102b860ff6004351661189d565b3480156107ca57600080fd5b506103ba6118df565b3480156107df57600080fd5b506107e86118e5565b60408051602080825283518183015283519192839290830191858101910280838360005b8381101561082457818101518382015260200161080c565b505050509050019250505060405180910390f35b34801561084457600080fd5b506102fb6119cc565b34801561085957600080fd5b506102d26119db565b34801561086e57600080fd5b506102b8600160a060020a03600435166119f1565b34801561088f57600080fd5b506102b86004356024351515604435611a27565b3480156108af57600080fd5b506102b8600160a060020a0360043516611b53565b3480156108d057600080fd5b506103ba611b5c565b3480156108e557600080fd5b506106f2611b62565b3480156108fa57600080fd5b506102fb611b83565b34801561090f57600080fd5b5061091b600435611b92565b6040805163ffffffff9586168152938516602085015283810192909252909216606082015290519081900360800190f35b34801561095857600080fd5b506103ba611bd8565b34801561096d57600080fd5b5061097c600435602435611bde565b604051808260a080838360005b838110156109a1578181015183820152602001610989565b5050505090500191505060405180910390f35b3480156109c057600080fd5b506102b8611f23565b3480156109d557600080fd5b506102fb611f2e565b3480156109ea57600080fd5b506109f3611f3d565b6040805160208082528351818301528351919283929083019185019080838360005b83811015610a2d578181015183820152602001610a15565b50505050905090810190601f168015610a5a5780820380516001836020036101000a031916815260200191505b509250505060405180910390f35b348015610a7457600080fd5b506103ba611fd3565b348015610a8957600080fd5b506102d2611fd9565b348015610a9e57600080fd5b50610aa7612021565b6040805163ffffffff9092168252519081900360200190f35b348015610acc57600080fd5b506102fb612068565b348015610ae157600080fd5b506102fb612077565b348015610af657600080fd5b506102b8600435612086565b348015610b0e57600080fd5b50610b2060043560243560443561208b565b604080518251815290819083908083836020610989565b348015610b4357600080fd5b506102b86121db565b348015610b5857600080fd5b506102b8600160a060020a03600435166121e4565b348015610b7957600080fd5b506103ba6121ed565b348015610b8e57600080fd5b506102b8602460048035828101929082013591813580830192908201359160443580830192908201359160643580830192908201359160843580830192908201359160a4359182019101356121f3565b348015610bea57600080fd5b50610344612570565b348015610bff57600080fd5b506102d2600160a060020a03600435166125eb565b348015610c2057600080fd5b506103446125fe565b348015610c3557600080fd5b506109f3612681565b348015610c4a57600080fd5b5061040560043561270f565b348015610c6257600080fd5b506102b860043561287d565b348015610c7a57600080fd5b50610c896004356024356128e8565b60405181518152808260808083836020610989565b348015610caa57600080fd5b506102fb612c20565b6000610cbd613b60565b610cc5613b7f565b6004805460010190819055610cd86119db565b1515610ce357600080fd5b6040805160e160020a633bef842b0281526010600482015260248101889052905173__PaymentMethods________________________916377df0856916044808301926020929190829003018186803b158015610d3f57600080fd5b505af4158015610d53573d6000803e3d6000fd5b505050506040513d6020811015610d6957600080fd5b50511515610d7657600080fd5b85610d7f612c2f565b14610e14576008546040805160e460020a630b12e441028152600481018990529051600092600160a060020a03169163b12e441091602480830192602092919082900301818787803b158015610dd457600080fd5b505af1158015610de8573d6000803e3d6000fd5b505050506040513d6020811015610dfe57600080fd5b5051600160a060020a03161415610e1457600080fd5b610e1c6125fe565b509350610e298686611bde565b80516020820151919450610e3d918861208b565b9150610e498287612c53565b610e7d8383601387815481101515610e5d57fe5b600091825260209091206002600590920201015463ffffffff1689612e45565b610e88838388613057565b8251602080850151606080870151604080519586529385019290925283830191909152905133927f347f5f0051b895093800553e6e78ef332849e2552639a4f5ffe66535788ae07892908290030190a26004548114610ee657600080fd5b505050505050565b6040805160e160020a633bef842b0281526010600482015260248101839052905160009173__PaymentMethods________________________916377df085691604480820192602092909190829003018186803b158015610f4e57600080fd5b505af4158015610f62573d6000803e3d6000fd5b505050506040513d6020811015610f7857600080fd5b505190505b919050565b600654600160a060020a031681565b600f55565b60145460009081901580610faf5750610fad611fd9565b155b15610fb957610fc5565b50506014546000190160015b9091565b610fd281613314565b50565b600554604080517fa9059cbb000000000000000000000000000000000000000000000000000000008152600160a060020a038581166004830152602482018590529151600093929092169163a9059cbb9160448082019260209290919082900301818787803b15801561104757600080fd5b505af115801561105b573d6000803e3d6000fd5b505050506040513d602081101561107157600080fd5b50519392505050565b6000806000806110886125fe565b92509250811515611098576111c9565b60138054849081106110a657fe5b9060005260206000209060050201905073__PurchaseProcessing____________________63b8005df28683600301846004016040518463ffffffff1660e060020a028152600401808481526020018060200180602001838103835285818154815260200191508054801561113a57602002820191906000526020600020905b815481526020019060010190808311611126575b5050838103825284818154815260200191508054801561117957602002820191906000526020600020905b815481526020019060010190808311611165575b50509550505050505060206040518083038186803b15801561119a57600080fd5b505af41580156111ae573d6000803e3d6000fd5b505050506040513d60208110156111c457600080fd5b505193505b505050919050565b600354600160a060020a031633146111e857600080fd5b600160a060020a03811615156111fd57600080fd5b6003805473ffffffffffffffffffffffffffffffffffffffff1916600160a060020a03838116919091179182905560408051929091168252517f4101e71e974f68df5e9730cc223280b41654676bbb052cdcc735c3337e64d2d9916020908290030190a150565b60008060008060608060148781548110151561127c57fe5b60009182526020909120600590910201546014805463ffffffff90921691899081106112a457fe5b9060005260206000209060050201600101546014898154811015156112c557fe5b60009182526020909120600260059092020101546014805463ffffffff909216918b9081106112f057fe5b906000526020600020906005020160020160049054906101000a900463ffffffff1660148b81548110151561132157fe5b906000526020600020906005020160030160148c81548110151561134157fe5b9060005260206000209060050201600401818054600181600116156101000203166002900480601f0160208091040260200160405190810160405280929190818152602001828054600181600116156101000203166002900480156113e75780601f106113bc576101008083540402835291602001916113e7565b820191906000526020600020905b8154815290600101906020018083116113ca57829003601f168201915b5050845460408051602060026001851615610100026000190190941693909304601f8101849004840282018401909252818152959750869450925084019050828280156114755780601f1061144a57610100808354040283529160200191611475565b820191906000526020600020905b81548152906001019060200180831161145857829003601f168201915b5050505050905095509550955095509550955091939550919395565b60006114a3818363ffffffff61335c16565b92915050565b6000908152601260205260409020805460019091015460ff90911691565b600f5481565b6000806000806060806013878154811015156114e557fe5b60009182526020909120600590910201546013805463ffffffff909216918990811061150d57fe5b906000526020600020906005020160000160049054906101000a900463ffffffff1660138981548110151561153e57fe5b90600052602060002090600502016001015460138a81548110151561155f57fe5b60009182526020909120600260059092020101546013805463ffffffff909216918c90811061158a57fe5b906000526020600020906005020160030160138c8154811015156115aa57fe5b90600052602060002090600502016004018180548060200260200160405190810160405280929190818152602001828054801561160657602002820191906000526020600020905b8154815260200190600101908083116115f2575b505050505091508080548060200260200160405190810160405280929190818152602001828054801561147557602002820191906000526020600020905b815481526020019060010190808311611644575050505050905095509550955095509550955091939550919395565b600b5481565b6000611683611fd9565b151561168e57600080fd5b600554604080517f70a082310000000000000000000000000000000000000000000000000000000081523060048201529051600160a060020a03909216916370a08231916024808201926020929091908290030181600087803b1580156116f457600080fd5b505af1158015611708573d6000803e3d6000fd5b505050506040513d602081101561171e57600080fd5b5051600554604080517fa9059cbb000000000000000000000000000000000000000000000000000000008152336004820152602481018490529051929350600160a060020a039091169163a9059cbb916044808201926020929091908290030181600087803b15801561179057600080fd5b505af11580156117a4573d6000803e3d6000fd5b505050506040513d60208110156117ba57600080fd5b505115156117c757600080fd5b60408051828152905133917f26ffb867a6b19bc0240d4e732ed6cfb0f0b6d93143a99cfb24ba5873308861f8919081900360200190a250565b6014545b90565b610fd281613393565b600d5474010000000000000000000000000000000000000000900460ff1690565b60008181526012602052604081205460ff16156118605750600081815260126020526040902060010154610f7d565b5050600a5490565b600554600160a060020a031690565b600854600160a060020a031681565b805161189990600e906020840190613b9a565b5050565b600d805460ff909216740100000000000000000000000000000000000000000274ff000000000000000000000000000000000000000019909216919091179055565b60025481565b6060601073__PaymentMethods________________________633b3d1a2290916040518263ffffffff1660e060020a0281526004018082815260200191505060006040518083038186803b15801561193c57600080fd5b505af4158015611950573d6000803e3d6000fd5b505050506040513d6000823e601f3d908101601f19168201604052602081101561197957600080fd5b81019080805164010000000081111561199157600080fd5b820160208101848111156119a457600080fd5b81518560208202830111640100000000821117156119c157600080fd5b509094505050505090565b600c54600160a060020a031681565b6000806119e66125fe565b9150508091505b5090565b604051600160a060020a03821690303180156108fc02916000818181858888f19350505050158015611899573d6000803e3d6000fd5b8073__Percent_______________________________63520b006690916040518263ffffffff1660e060020a0281526004018082815260200191505060206040518083038186803b158015611a7b57600080fd5b505af4158015611a8f573d6000803e3d6000fd5b505050506040513d6020811015611aa557600080fd5b50518015611b24575073__Percent_______________________________63d49d51816040518163ffffffff1660e060020a02815260040160206040518083038186803b158015611af557600080fd5b505af4158015611b09573d6000803e3d6000fd5b505050506040513d6020811015611b1f57600080fd5b505181105b1515611b2f57600080fd5b600092835260126020526040909220805460ff191691151591909117815560010155565b610fd2816133db565b60135490565b600d5474010000000000000000000000000000000000000000900460ff1681565b600d54600160a060020a031681565b6013805482908110611ba057fe5b600091825260209091206005909102018054600182015460029092015463ffffffff8083169450640100000000909204821692911684565b600a5481565b611be6613b60565b600080611bf1613b60565b6040805160e160020a633bef842b0281526010600482015260248101889052905173__PaymentMethods________________________916377df0856916044808301926020929190829003018186803b158015611c4d57600080fd5b505af4158015611c61573d6000803e3d6000fd5b505050506040513d6020811015611c7757600080fd5b50511515611c8457600080fd5b611c8c6125fe565b92509250811515611c9c57611f1a565b85611ca5612c2f565b14611d32576008546040805160e060020a63cfec719f028152600481018990529051600160a060020a039092169163cfec719f916024808201926020929091908290030181600087803b158015611cfb57600080fd5b505af1158015611d0f573d6000803e3d6000fd5b505050506040513d6020811015611d2557600080fd5b50511515611d3257611f1a565b611d3b86613423565b905073__PurchaseProcessing____________________6391bfca318787601387815481101515611d6857fe5b906000526020600020906005020160010154601388815481101515611d8957fe5b9060005260206000209060050201600301601389815481101515611da957fe5b6000918252602082206004600590920201019088906020020151886001602002015189600260200201518a600360200201518b600460200201516040518b63ffffffff1660e060020a028152600401808b600019166000191681526020018a8152602001898152602001806020018060200188815260200187815260200186815260200185815260200184815260200183810383528a8181548152602001915080548015611e7657602002820191906000526020600020905b815481526020019060010190808311611e62575b50508381038252898181548152602001915080548015611eb557602002820191906000526020600020905b815481526020019060010190808311611ea1575b50509c5050505050505050505050505060a06040518083038186803b158015611edd57600080fd5b505af4158015611ef1573d6000803e3d6000fd5b505050506040513d601f19601f8201168201806040525060a0811015611f1657600080fd5b5093505b50505092915050565b611f2c33613314565b565b600754600160a060020a031690565b600e8054604080516020601f6002600019610100600188161502019095169490940493840181900481028201810190925282815260609390929091830182828015611fc95780601f10611f9e57610100808354040283529160200191611fc9565b820191906000526020600020905b815481529060010190602001808311611fac57829003601f168201915b5050505050905090565b60095481565b601354600090158061201c5750601380544291906000198101908110611ffb57fe5b6000918252602090912060059091020154640100000000900463ffffffff16105b905090565b601354600090811061203257600080fd5b60138054600019810190811061204457fe5b6000918252602090912060059091020154640100000000900463ffffffff16919050565b600754600160a060020a031681565b600354600160a060020a031690565b600b55565b612093613b7f565b6040805160e160020a633bef842b0281526010600482015260248101849052905173__PaymentMethods________________________916377df0856916044808301926020929190829003018186803b1580156120ef57600080fd5b505af4158015612103573d6000803e3d6000fd5b505050506040513d602081101561211957600080fd5b5051151561212657600080fd5b73__PurchaseProcessing____________________636cd5c0568585600b5461214e87611831565b6040518563ffffffff1660e060020a02815260040180858152602001848152602001838152602001828152602001945050505050604080518083038186803b15801561219957600080fd5b505af41580156121ad573d6000803e3d6000fd5b505050506040513d601f19601f8201168201806040525060408110156121d257600080fd5b50949350505050565b611f2c3361371a565b610fd28161371a565b600f5490565b60135460009081101561223257426013600081548110151561221157fe5b600091825260209091206005909102015463ffffffff161161223257600080fd5b8b151561223e57600080fd5b60ff8c111561224c57600080fd5b60ff88111561225a57600080fd5b60028604881461226957600080fd5b6002840488111561227957600080fd5b81151561228557600080fd5b5060005b8181101561233157600854600160a060020a0316637d20abf88484848181106122ae57fe5b6040805160e060020a63ffffffff87160281526020928302949094013560048501525160248085019492935090918290030181600087803b1580156122f257600080fd5b505af1158015612306573d6000803e3d6000fd5b505050506040513d602081101561231c57600080fd5b5051151561232957600080fd5b600101612289565b6123ca8d8d808060200260200160405190810160405280939291908181526020016000905b82821015612392576040805160c08181019092529080840287019060069083908390808284375050509183525050600190910190602001612356565b50505050508c8c8080602002602001604051908101604052809392919081815260200183836020028082843750613762945050505050565b6124918989808060200260200160405190810160405280939291908181526020016000905b8282101561242b5760408051608081810190925290808402870190600490839083908082843750505091835250506001909101906020016123ef565b50505050508888808060200260200160405190810160405280939291908181526020018383602002808284375050604080516020601f8e018190048102820181019092528c815294508c93508b92508291508401838280828437506138a8945050505050565b604080517ff24950e2000000000000000000000000000000000000000000000000000000008152601060048201818152602483019384526044830186905273__PaymentMethods________________________9363f24950e293889288929091606401846020850280828437820191505094505050505060006040518083038186803b15801561252057600080fd5b505af4158015612534573d6000803e3d6000fd5b50506040517f072792b04aecd99b2250bc76fb25f9bca793c3b7383cb4c7255a7a01e8f5a12e925060009150a150505050505050505050505050565b601454600090819015806125895750612587611fd9565b155b1561259357610fc5565b5060015b60145460001901821080156125db575060148054839081106125b557fe5b6000918252602090912060059091020160020154640100000000900463ffffffff164210155b15610fc557600190910190612597565b60006114a360018363ffffffff61335c16565b60008080805b60135482101561267357601380548390811061261c57fe5b6000918252602090912060059091020180549091504263ffffffff90911611801590612657575080544264010000000090910463ffffffff16115b15612668578160019350935061267b565b600190910190612604565b600093508392505b50509091565b600e805460408051602060026001851615610100026000190190941693909304601f810184900484028201840190925281815292918301828280156127075780601f106126dc57610100808354040283529160200191612707565b820191906000526020600020905b8154815290600101906020018083116126ea57829003601f168201915b505050505081565b601480548290811061271d57fe5b60009182526020918290206005919091020180546001808301546002808501546003860180546040805161010097831615979097026000190190911693909304601f810189900489028601890190935282855263ffffffff95861698509296858216966401000000009092049095169490939291908301828280156127e35780601f106127b8576101008083540402835291602001916127e3565b820191906000526020600020905b8154815290600101906020018083116127c657829003601f168201915b5050505060048301805460408051602060026001851615610100026000190190941693909304601f81018490048402820184019092528181529495949350908301828280156128735780601f1061284857610100808354040283529160200191612873565b820191906000526020600020905b81548152906001019060200180831161285657829003601f168201915b5050505050905086565b600354600160a060020a0316331461289457600080fd5b601354600010156128d15742601360008154811015156128b057fe5b600091825260209091206005909102015463ffffffff16116128d157600080fd5b600c54610fd2908290600160a060020a0316613a59565b6128f0613c14565b6000806128fb613b60565b6040805160e160020a633bef842b0281526010600482015260248101889052905173__PaymentMethods________________________916377df0856916044808301926020929190829003018186803b15801561295757600080fd5b505af415801561296b573d6000803e3d6000fd5b505050506040513d602081101561298157600080fd5b5051151561298e57600080fd5b6129966125fe565b925092508115156129a657611f1a565b856129af612c2f565b14612a3c576008546040805160e060020a63cfec719f028152600481018990529051600160a060020a039092169163cfec719f916024808201926020929091908290030181600087803b158015612a0557600080fd5b505af1158015612a19573d6000803e3d6000fd5b505050506040513d6020811015612a2f57600080fd5b50511515612a3c57611f1a565b612a4586613423565b905073__PurchaseProcessing____________________6391dab4228787601387815481101515612a7257fe5b906000526020600020906005020160010154601388815481101515612a9357fe5b9060005260206000209060050201600301601389815481101515612ab357fe5b6000918252602082206004600590920201019088906020020151886001602002015189600260200201518a600360200201518b600460200201516040518b63ffffffff1660e060020a028152600401808b600019166000191681526020018a8152602001898152602001806020018060200188815260200187815260200186815260200185815260200184815260200183810383528a8181548152602001915080548015612b8057602002820191906000526020600020905b815481526020019060010190808311612b6c575b50508381038252898181548152602001915080548015612bbf57602002820191906000526020600020905b815481526020019060010190808311612bab575b50509c5050505050505050505050505060806040518083038186803b158015612be757600080fd5b505af4158015612bfb573d6000803e3d6000fd5b505050506040513d601f19601f820116820180604052506080811015611f1657600080fd5b600554600160a060020a031681565b7f455448000000000000000000000000000000000000000000000000000000000090565b6008546040805160e060020a63cfec719f02815260048101849052905173__PurchaseProcessing____________________92633676737c9286928692600160a060020a03169163cfec719f9160248083019260209291908290030181600087803b158015612cc157600080fd5b505af1158015612cd5573d6000803e3d6000fd5b505050506040513d6020811015612ceb57600080fd5b5051612cf8576000612d76565b6008546040805160e460020a630b12e441028152600481018890529051600160a060020a039092169163b12e4410916024808201926020929091908290030181600087803b158015612d4957600080fd5b505af1158015612d5d573d6000803e3d6000fd5b505050506040513d6020811015612d7357600080fd5b50515b600554600654600d54600c546040805163ffffffff8a1660e060020a028152600160a060020a0395861695948516949384169390921691600401908190899080838360005b83811015612dd3578181015183820152602001612dbb565b50505050919091019788525050600160a060020a039485166020870152928416604080870191909152918416606086015283166080850152911660a08301525160c08083019350600092829003018186803b158015612e3157600080fd5b505af4158015610ee6573d6000803e3d6000fd5b6008546040805160e060020a63cfec719f02815260048101849052905173__PurchaseProcessing____________________92634bb1e9ff928892889288928892600160a060020a039092169163cfec719f916024808201926020929091908290030181600087803b158015612eba57600080fd5b505af1158015612ece573d6000803e3d6000fd5b505050506040513d6020811015612ee457600080fd5b5051612ef1576000612f6f565b6008546040805160e460020a630b12e441028152600481018a90529051600160a060020a039092169163b12e4410916024808201926020929091908290030181600087803b158015612f4257600080fd5b505af1158015612f56573d6000803e3d6000fd5b505050506040513d6020811015612f6c57600080fd5b50515b60055460405160e060020a63ffffffff8916028152600160a060020a0390911690600401808760a080838360005b83811015612fb5578181015183820152602001612f9d565b5050505090500186600260200280838360005b83811015612fe0578181015183820152602001612fc8565b50505063ffffffff909816920191825250602081019490945250600160a060020a039182166040808501919091529116606083015251608080830195506000945090925090829003018186803b15801561303957600080fd5b505af415801561304d573d6000803e3d6000fd5b5050505050505050565b61305f612c2f565b81141561313357600754600160a060020a031663d0baf2f561309784600160200201518660015b60200201519063ffffffff613aaf16565b8551602086015133919086906130af908a6001613086565b89600260200201516040805160e060020a63ffffffff8a16028152600160a060020a03909616600487015260248601949094526044850192909252606484015260848301525160a480830192600092919082900301818588803b15801561311557600080fd5b505af1158015613129573d6000803e3d6000fd5b505050505061330f565b6008546040805160e460020a630b12e441028152600481018490529051600160a060020a039092169163b12e4410916024808201926020929091908290030181600087803b15801561318457600080fd5b505af1158015613198573d6000803e3d6000fd5b505050506040513d60208110156131ae57600080fd5b5051600754600160a060020a039182169163a9059cbb91166131d98560016020020151876001613086565b6040518363ffffffff1660e060020a0281526004018083600160a060020a0316600160a060020a0316815260200182815260200192505050602060405180830381600087803b15801561322b57600080fd5b505af115801561323f573d6000803e3d6000fd5b505050506040513d602081101561325557600080fd5b5051151561326257600080fd5b600754600160a060020a031663d0baf2f5338560006020020151846132908760016020020151896001613086565b88600260200201516040805160e060020a63ffffffff8916028152600160a060020a03909616600487015260248601949094526044850192909252606484015260848301525160a480830192600092919082900301818387803b1580156132f657600080fd5b505af115801561330a573d6000803e3d6000fd5b505050505b505050565b61332560008263ffffffff613ac616565b604051600160a060020a038216907fa3b62bc36326052d97ea62d63c3d60308ed4c3ea8ac079dd8499f1e9c4f80c0f90600090a250565b6000600160a060020a038216151561337357600080fd5b50600160a060020a03166000908152602091909152604090205460ff1690565b6133a460018263ffffffff613b1216565b604051600160a060020a038216907f941e31c3e651de34a7fcf0132d9d02c2df9377e6b5f932bec5daf6353c94f90e90600090a250565b6133ec60008263ffffffff613b1216565b604051600160a060020a038216907f44d6d25963f097ad14f29f06854a01f575648a1ef82f30e562ccd3889717e33990600090a250565b61342b613b60565b600854604080517f8eaa6ac0000000000000000000000000000000000000000000000000000000008152600481018590529051600160a060020a0390921691638eaa6ac0916024808201926020929091908290030181600087803b15801561349257600080fd5b505af11580156134a6573d6000803e3d6000fd5b505050506040513d60208110156134bc57600080fd5b50518152600954602080830191909152600554604080517f313ce5670000000000000000000000000000000000000000000000000000000081529051600160a060020a039092169263313ce567926004808401938290030181600087803b15801561352657600080fd5b505af115801561353a573d6000803e3d6000fd5b505050506040513d602081101561355057600080fd5b505160ff16604082015281613563612c2f565b14613676576008546040805160e460020a630b12e441028152600481018590529051600160a060020a039092169163b12e4410916024808201926020929091908290030181600087803b1580156135b957600080fd5b505af11580156135cd573d6000803e3d6000fd5b505050506040513d60208110156135e357600080fd5b5051604080517f313ce5670000000000000000000000000000000000000000000000000000000081529051600160a060020a039092169163313ce567916004808201926020929091908290030181600087803b15801561364257600080fd5b505af1158015613656573d6000803e3d6000fd5b505050506040513d602081101561366c57600080fd5b505160ff16613679565b60125b6060820152600554604080517f70a082310000000000000000000000000000000000000000000000000000000081523060048201529051600160a060020a03909216916370a08231916024808201926020929091908290030181600087803b1580156136e457600080fd5b505af11580156136f8573d6000803e3d6000fd5b505050506040513d602081101561370e57600080fd5b50516080820152919050565b61372b60018263ffffffff613ac616565b604051600160a060020a038216907fa3bfdef3d8149bacf15b7b64199fca8228c0fd4f8fcdd11cc7871829baf319c390600090a250565b73__Crowdsale_____________________________63ae1c60546013601485856040518563ffffffff1660e060020a0281526004018085815260200184815260200180602001806020018381038352858181518152602001915080516000925b818410156138045760208085028401015160c080838360005b838110156137f35781810151838201526020016137db565b5050505090500192600101926137c2565b868103855287518152875160209182019450818901935002905080838360005b8381101561383c578181015183820152602001613824565b50505050905001965050505050505060006040518083038186803b15801561386357600080fd5b505af4158015613877573d6000803e3d6000fd5b50506040517f743961f4e677d1146fbf85d75565b1c5474fd083eb166f8b9595cf5d01a4d6e6925060009150a15050565b73__Crowdsale_____________________________63e1231f1e601360148686866040518663ffffffff1660e060020a028152600401808681526020018581526020018060200180602001806020018481038452878181518152602001915080516000925b8184101561394f57602080850284010151608080838360005b8381101561393e578181015183820152602001613926565b50505050905001926001019261390d565b878103865289518152895160209182019450818b01935002905080838360005b8381101561398757818101518382015260200161396f565b50505050905001848103825285818151815260200191508051906020019080838360005b838110156139c35781810151838201526020016139ab565b50505050905090810190601f1680156139f05780820380516001836020036101000a031916815260200191505b509850505050505050505060006040518083038186803b158015613a1357600080fd5b505af4158015613a27573d6000803e3d6000fd5b50506040517f56d9a2e016027a3725bf162ef2779c8b28d4dbec97c679cfba02dbb31a34c7ca925060009150a1505050565b60008211613a6657600080fd5b600160a060020a0381161515613a7b57600080fd5b600991909155600c805473ffffffffffffffffffffffffffffffffffffffff1916600160a060020a03909216919091179055565b60008083831115613abf57600080fd5b5050900390565b600160a060020a0381161515613adb57600080fd5b613ae5828261335c565b1515613af057600080fd5b600160a060020a0316600090815260209190915260409020805460ff19169055565b600160a060020a0381161515613b2757600080fd5b613b31828261335c565b15613b3b57600080fd5b600160a060020a0316600090815260209190915260409020805460ff19166001179055565b60a0604051908101604052806005906020820280388339509192915050565b60408051808201825290600290829080388339509192915050565b828054600181600116156101000203166002900490600052602060002090601f016020900481019282601f10613bdb57805160ff1916838001178555613c08565b82800160010185558215613c08579182015b82811115613c08578251825591602001919060010190613bed565b506119ed929150613c33565b6080604051908101604052806004906020820280388339509192915050565b61180491905b808211156119ed5760008155600101613c395600a165627a7a723058208b1a18a709db6b1fdf3c86170124025102cd38abf02cf0bfaab898c6ac2dcd370029",
  "source": "pragma solidity 0.4.24;\n\nimport \"../../rates/IRates.sol\";\nimport \"../../crowdsale/W12Crowdsale.sol\";\n\n\ncontract W12CrowdsaleStub is W12Crowdsale {\n    constructor (\n        uint version,\n        address _originToken,\n        address _token,\n        uint _price,\n        address _serviceWallet,\n        address _swap,\n        uint _serviceFee,\n        uint _WTokenSaleFeePercent,\n        IW12Fund _fund,\n        IRates _rates\n    )\n        W12Crowdsale(\n            version,\n            _originToken,\n             _token,\n             _price,\n             _serviceWallet,\n             _swap,\n             _serviceFee,\n            _WTokenSaleFeePercent,\n             _fund,\n            _rates\n        ) public\n    {}\n\n    function _outTokens(address to, uint amount) external returns (bool) {\n        return token.transfer(to, amount);\n    }\n\n    function _outEther(address to) external {\n        return to.transfer(address(this).balance);\n    }\n\n    function _setState(uint _WTokenSaleFeePercent) external {\n        WTokenSaleFeePercent = _WTokenSaleFeePercent;\n    }\n\n    modifier onlyAdmin {\n        _;\n    }\n\n    modifier onlyProjectOwner {\n        _;\n    }\n}\n",
  "sourcePath": "/Users/gauss/_games/w12/Protocol/contracts/mocks/crowdsale/W12CrowdsaleStub.sol",
  "compiler": {
    "name": "solc",
    "version": "0.4.24+commit.e67f0147.Emscripten.clang"
  },
  "schemaVersion": "2.0.1",
  "updatedAt": "2019-07-31T23:06:31.942Z"
}