{
  "contractName": "W12CrowdsaleFactory",
  "abi": [
    {
      "anonymous": false,
      "inputs": [
        {
          "indexed": true,
          "name": "owner",
          "type": "address"
        },
        {
          "indexed": true,
          "name": "token",
          "type": "address"
        },
        {
          "indexed": false,
          "name": "startDate",
          "type": "uint32"
        },
        {
          "indexed": false,
          "name": "crowdsaleAddress",
          "type": "address"
        },
        {
          "indexed": false,
          "name": "fundAddress",
          "type": "address"
        }
      ],
      "name": "CrowdsaleCreated",
      "type": "event"
    },
    {
      "constant": false,
      "inputs": [
        {
          "name": "wTokenAddress",
          "type": "address"
        },
        {
          "name": "startDate",
          "type": "uint32"
        },
        {
          "name": "price",
          "type": "uint256"
        },
        {
          "name": "serviceWallet",
          "type": "address"
        },
        {
          "name": "serviceFee",
          "type": "uint8"
        },
        {
          "name": "swap",
          "type": "address"
        },
        {
          "name": "owner",
          "type": "address"
        }
      ],
      "name": "createCrowdsale",
      "outputs": [
        {
          "name": "result",
          "type": "address"
        }
      ],
      "payable": false,
      "stateMutability": "nonpayable",
      "type": "function"
    }
  ],
  "bytecode": "0x608060405234801561001057600080fd5b50614b48806100206000396000f300608060405260043610610041576000357c0100000000000000000000000000000000000000000000000000000000900463ffffffff168063c56351cd14610046575b600080fd5b34801561005257600080fd5b5061010e600480360381019080803573ffffffffffffffffffffffffffffffffffffffff169060200190929190803563ffffffff16906020019092919080359060200190929190803573ffffffffffffffffffffffffffffffffffffffff169060200190929190803560ff169060200190929190803573ffffffffffffffffffffffffffffffffffffffff169060200190929190803573ffffffffffffffffffffffffffffffffffffffff169060200190929190505050610150565b604051808273ffffffffffffffffffffffffffffffffffffffff1673ffffffffffffffffffffffffffffffffffffffff16815260200191505060405180910390f35b60008061015b61061b565b604051809103906000f080158015610177573d6000803e3d6000fd5b50905088888888888561018861062b565b808773ffffffffffffffffffffffffffffffffffffffff1673ffffffffffffffffffffffffffffffffffffffff1681526020018663ffffffff1663ffffffff1681526020018581526020018473ffffffffffffffffffffffffffffffffffffffff1673ffffffffffffffffffffffffffffffffffffffff1681526020018360ff1660ff1681526020018273ffffffffffffffffffffffffffffffffffffffff1673ffffffffffffffffffffffffffffffffffffffff1681526020019650505050505050604051809103906000f080158015610267573d6000803e3d6000fd5b5091508173ffffffffffffffffffffffffffffffffffffffff1663f2fde38b846040518263ffffffff167c0100000000000000000000000000000000000000000000000000000000028152600401808273ffffffffffffffffffffffffffffffffffffffff1673ffffffffffffffffffffffffffffffffffffffff168152602001915050600060405180830381600087803b15801561030557600080fd5b505af1158015610319573d6000803e3d6000fd5b505050508073ffffffffffffffffffffffffffffffffffffffff1663483a20b2836040518263ffffffff167c0100000000000000000000000000000000000000000000000000000000028152600401808273ffffffffffffffffffffffffffffffffffffffff1673ffffffffffffffffffffffffffffffffffffffff168152602001915050600060405180830381600087803b1580156103b857600080fd5b505af11580156103cc573d6000803e3d6000fd5b505050508073ffffffffffffffffffffffffffffffffffffffff1663acb3c073856040518263ffffffff167c0100000000000000000000000000000000000000000000000000000000028152600401808273ffffffffffffffffffffffffffffffffffffffff1673ffffffffffffffffffffffffffffffffffffffff168152602001915050600060405180830381600087803b15801561046b57600080fd5b505af115801561047f573d6000803e3d6000fd5b505050508073ffffffffffffffffffffffffffffffffffffffff1663f2fde38b846040518263ffffffff167c0100000000000000000000000000000000000000000000000000000000028152600401808273ffffffffffffffffffffffffffffffffffffffff1673ffffffffffffffffffffffffffffffffffffffff168152602001915050600060405180830381600087803b15801561051e57600080fd5b505af1158015610532573d6000803e3d6000fd5b505050508873ffffffffffffffffffffffffffffffffffffffff168373ffffffffffffffffffffffffffffffffffffffff167fed25eb23596fb8771d2e1e79182ae4c1e2c0e9d7f8718b8e52c92a7ecd154c8c8a8585604051808463ffffffff1663ffffffff1681526020018373ffffffffffffffffffffffffffffffffffffffff1673ffffffffffffffffffffffffffffffffffffffff1681526020018273ffffffffffffffffffffffffffffffffffffffff1673ffffffffffffffffffffffffffffffffffffffff168152602001935050505060405180910390a350979650505050505050565b6040516117ff8061063c83390190565b604051612ce280611e3b833901905600608060405260008060146101000a81548160ff021916908315150217905550336000806101000a81548173ffffffffffffffffffffffffffffffffffffffff021916908373ffffffffffffffffffffffffffffffffffffffff1602179055506117928061006d6000396000f3006080604052600436106100d0576000357c0100000000000000000000000000000000000000000000000000000000900463ffffffff16806304cd5294146100d55780630babd8641461011657806311fa7da21461016d578063278ecde1146101cb578063483a20b2146101f8578063715018a61461023b5780638119c065146102525780638da5cb5b146102a9578063958799cb1461030057806397a993aa146103405780639c1e03a0146103a5578063acb3c073146103fc578063ad044f491461043f578063f2fde38b1461046a575b600080fd5b3480156100e157600080fd5b50610100600480360381019080803590602001909291905050506104ad565b6040518082815260200191505060405180910390f35b34801561012257600080fd5b5061012b610806565b604051808273ffffffffffffffffffffffffffffffffffffffff1673ffffffffffffffffffffffffffffffffffffffff16815260200191505060405180910390f35b34801561017957600080fd5b506101ae600480360381019080803573ffffffffffffffffffffffffffffffffffffffff16906020019092919050505061082c565b604051808381526020018281526020019250505060405180910390f35b3480156101d757600080fd5b506101f6600480360381019080803590602001909291905050506108fa565b005b34801561020457600080fd5b50610239600480360381019080803573ffffffffffffffffffffffffffffffffffffffff169060200190929190505050610e75565b005b34801561024757600080fd5b5061025061102f565b005b34801561025e57600080fd5b50610267611131565b604051808273ffffffffffffffffffffffffffffffffffffffff1673ffffffffffffffffffffffffffffffffffffffff16815260200191505060405180910390f35b3480156102b557600080fd5b506102be611157565b604051808273ffffffffffffffffffffffffffffffffffffffff1673ffffffffffffffffffffffffffffffffffffffff16815260200191505060405180910390f35b61033e600480360381019080803573ffffffffffffffffffffffffffffffffffffffff1690602001909291908035906020019092919050505061117c565b005b34801561034c57600080fd5b50610381600480360381019080803573ffffffffffffffffffffffffffffffffffffffff16906020019092919050505061145d565b60405180848152602001838152602001828152602001935050505060405180910390f35b3480156103b157600080fd5b506103ba611487565b604051808273ffffffffffffffffffffffffffffffffffffffff1673ffffffffffffffffffffffffffffffffffffffff16815260200191505060405180910390f35b34801561040857600080fd5b5061043d600480360381019080803573ffffffffffffffffffffffffffffffffffffffff1690602001909291905050506114ad565b005b34801561044b57600080fd5b50610454611588565b6040518082815260200191505060405180910390f35b34801561047657600080fd5b506104ab600480360381019080803573ffffffffffffffffffffffffffffffffffffffff16906020019092919050505061158e565b005b600080600080600080600094506305f5e1007fffffffffffffffffffffffffffffffffffffffffffffffffffffffffffffffff8115156104e957fe5b04935033925060008711801561054157506000600460008573ffffffffffffffffffffffffffffffffffffffff1673ffffffffffffffffffffffffffffffffffffffff16815260200190815260200160002060000154115b8015610564575060003073ffffffffffffffffffffffffffffffffffffffff1631115b8015610667575086600360009054906101000a900473ffffffffffffffffffffffffffffffffffffffff1673ffffffffffffffffffffffffffffffffffffffff166370a08231856040518263ffffffff167c0100000000000000000000000000000000000000000000000000000000028152600401808273ffffffffffffffffffffffffffffffffffffffff1673ffffffffffffffffffffffffffffffffffffffff168152602001915050602060405180830381600087803b15801561062957600080fd5b505af115801561063d573d6000803e3d6000fd5b505050506040513d602081101561065357600080fd5b810190808051906020019092919050505010155b80156106b5575086600460008573ffffffffffffffffffffffffffffffffffffffff1673ffffffffffffffffffffffffffffffffffffffff1681526020019081526020016000206000015410155b156107f95761073a3073ffffffffffffffffffffffffffffffffffffffff163161072c600554600460008873ffffffffffffffffffffffffffffffffffffffff1673ffffffffffffffffffffffffffffffffffffffff168152602001908152602001600020600201546116e390919063ffffffff16565b61171b90919063ffffffff16565b91508382101561074e576305f5e100610751565b60015b63ffffffff1690506107f66107e7826107d98a6107cb600460008a73ffffffffffffffffffffffffffffffffffffffff1673ffffffffffffffffffffffffffffffffffffffff168152602001908152602001600020600001546107bd888a6116e390919063ffffffff16565b61171b90919063ffffffff16565b6116e390919063ffffffff16565b61171b90919063ffffffff16565b8661173190919063ffffffff16565b94505b8495505050505050919050565b600360009054906101000a900473ffffffffffffffffffffffffffffffffffffffff1681565b600080600073ffffffffffffffffffffffffffffffffffffffff168373ffffffffffffffffffffffffffffffffffffffff161415151561086b57600080fd5b600460008473ffffffffffffffffffffffffffffffffffffffff1673ffffffffffffffffffffffffffffffffffffffff16815260200190815260200160002060000154600460008573ffffffffffffffffffffffffffffffffffffffff1673ffffffffffffffffffffffffffffffffffffffff1681526020019081526020016000206001015491509150915091565b600080600060149054906101000a900460ff1615151561091957600080fd5b6001600060146101000a81548160ff02191690831515021790555061093d836104ad565b915033905060008211151561095157600080fd5b600360009054906101000a900473ffffffffffffffffffffffffffffffffffffffff1673ffffffffffffffffffffffffffffffffffffffff166323b872dd82600260009054906101000a900473ffffffffffffffffffffffffffffffffffffffff16866040518463ffffffff167c0100000000000000000000000000000000000000000000000000000000028152600401808473ffffffffffffffffffffffffffffffffffffffff1673ffffffffffffffffffffffffffffffffffffffff1681526020018373ffffffffffffffffffffffffffffffffffffffff1673ffffffffffffffffffffffffffffffffffffffff1681526020018281526020019350505050602060405180830381600087803b158015610a6c57600080fd5b505af1158015610a80573d6000803e3d6000fd5b505050506040513d6020811015610a9657600080fd5b81019080805190602001909291905050501515610ab257600080fd5b610b0783600460008473ffffffffffffffffffffffffffffffffffffffff1673ffffffffffffffffffffffffffffffffffffffff1681526020019081526020016000206000015461174d90919063ffffffff16565b600460008373ffffffffffffffffffffffffffffffffffffffff1673ffffffffffffffffffffffffffffffffffffffff16815260200190815260200160002060000181905550610bf6610ba5600460008473ffffffffffffffffffffffffffffffffffffffff1673ffffffffffffffffffffffffffffffffffffffff16815260200190815260200160002060010154856116e390919063ffffffff16565b600460008473ffffffffffffffffffffffffffffffffffffffff1673ffffffffffffffffffffffffffffffffffffffff1681526020019081526020016000206002015461174d90919063ffffffff16565b600460008373ffffffffffffffffffffffffffffffffffffffff1673ffffffffffffffffffffffffffffffffffffffff168152602001908152602001600020600201819055506000600460008373ffffffffffffffffffffffffffffffffffffffff1673ffffffffffffffffffffffffffffffffffffffff16815260200190815260200160002060020154118015610cd057506000600460008373ffffffffffffffffffffffffffffffffffffffff1673ffffffffffffffffffffffffffffffffffffffff16815260200190815260200160002060000154115b610cdb576000610d73565b610d72600460008373ffffffffffffffffffffffffffffffffffffffff1673ffffffffffffffffffffffffffffffffffffffff16815260200190815260200160002060000154600460008473ffffffffffffffffffffffffffffffffffffffff1673ffffffffffffffffffffffffffffffffffffffff1681526020019081526020016000206002015461171b90919063ffffffff16565b5b600460008373ffffffffffffffffffffffffffffffffffffffff1673ffffffffffffffffffffffffffffffffffffffff168152602001908152602001600020600101819055508073ffffffffffffffffffffffffffffffffffffffff166108fc839081150290604051600060405180830381858888f19350505050158015610dff573d6000803e3d6000fd5b508073ffffffffffffffffffffffffffffffffffffffff167ffc48f4f163cfed28aaf3be3f0b162a1338fab214afc9340eafc6cb081c71fadf8385604051808381526020018281526020019250505060405180910390a260008060146101000a81548160ff021916908315150217905550505050565b6000809054906101000a900473ffffffffffffffffffffffffffffffffffffffff1673ffffffffffffffffffffffffffffffffffffffff163373ffffffffffffffffffffffffffffffffffffffff16141515610ed057600080fd5b600073ffffffffffffffffffffffffffffffffffffffff168173ffffffffffffffffffffffffffffffffffffffff1614151515610f0c57600080fd5b80600160006101000a81548173ffffffffffffffffffffffffffffffffffffffff021916908373ffffffffffffffffffffffffffffffffffffffff1602179055508073ffffffffffffffffffffffffffffffffffffffff16634090cb646040518163ffffffff167c0100000000000000000000000000000000000000000000000000000000028152600401602060405180830381600087803b158015610fb157600080fd5b505af1158015610fc5573d6000803e3d6000fd5b505050506040513d6020811015610fdb57600080fd5b8101908080519060200190929190505050600360006101000a81548173ffffffffffffffffffffffffffffffffffffffff021916908373ffffffffffffffffffffffffffffffffffffffff16021790555050565b6000809054906101000a900473ffffffffffffffffffffffffffffffffffffffff1673ffffffffffffffffffffffffffffffffffffffff163373ffffffffffffffffffffffffffffffffffffffff1614151561108a57600080fd5b6000809054906101000a900473ffffffffffffffffffffffffffffffffffffffff1673ffffffffffffffffffffffffffffffffffffffff167ff8df31144d9c2f0f6b59d69b8b98abd5459d07f2742c4df920b25aae33c6482060405160405180910390a260008060006101000a81548173ffffffffffffffffffffffffffffffffffffffff021916908373ffffffffffffffffffffffffffffffffffffffff160217905550565b600260009054906101000a900473ffffffffffffffffffffffffffffffffffffffff1681565b6000809054906101000a900473ffffffffffffffffffffffffffffffffffffffff1681565b6000600160009054906101000a900473ffffffffffffffffffffffffffffffffffffffff168073ffffffffffffffffffffffffffffffffffffffff163373ffffffffffffffffffffffffffffffffffffffff161415156111db57600080fd5b600460008573ffffffffffffffffffffffffffffffffffffffff1673ffffffffffffffffffffffffffffffffffffffff168152602001908152602001600020600001549150611233838361173190919063ffffffff16565b600460008673ffffffffffffffffffffffffffffffffffffffff1673ffffffffffffffffffffffffffffffffffffffff168152602001908152602001600020600001819055506112ce34600460008773ffffffffffffffffffffffffffffffffffffffff1673ffffffffffffffffffffffffffffffffffffffff1681526020019081526020016000206002015461173190919063ffffffff16565b600460008673ffffffffffffffffffffffffffffffffffffffff1673ffffffffffffffffffffffffffffffffffffffff168152602001908152602001600020600201819055506113ab600460008673ffffffffffffffffffffffffffffffffffffffff1673ffffffffffffffffffffffffffffffffffffffff16815260200190815260200160002060000154600460008773ffffffffffffffffffffffffffffffffffffffff1673ffffffffffffffffffffffffffffffffffffffff1681526020019081526020016000206002015461171b90919063ffffffff16565b600460008673ffffffffffffffffffffffffffffffffffffffff1673ffffffffffffffffffffffffffffffffffffffff16815260200190815260200160002060010181905550346005600082825401925050819055508373ffffffffffffffffffffffffffffffffffffffff167f363f315f930a17d1266b86a20d6dd34b1cfbc5a9db9f13a65d06a689c3a2af8a3485604051808381526020018281526020019250505060405180910390a250505050565b60046020528060005260406000206000915090508060000154908060010154908060020154905083565b600160009054906101000a900473ffffffffffffffffffffffffffffffffffffffff1681565b6000809054906101000a900473ffffffffffffffffffffffffffffffffffffffff1673ffffffffffffffffffffffffffffffffffffffff163373ffffffffffffffffffffffffffffffffffffffff1614151561150857600080fd5b600073ffffffffffffffffffffffffffffffffffffffff168173ffffffffffffffffffffffffffffffffffffffff161415151561154457600080fd5b80600260006101000a81548173ffffffffffffffffffffffffffffffffffffffff021916908373ffffffffffffffffffffffffffffffffffffffff16021790555050565b60055481565b6000809054906101000a900473ffffffffffffffffffffffffffffffffffffffff1673ffffffffffffffffffffffffffffffffffffffff163373ffffffffffffffffffffffffffffffffffffffff161415156115e957600080fd5b600073ffffffffffffffffffffffffffffffffffffffff168173ffffffffffffffffffffffffffffffffffffffff161415151561162557600080fd5b8073ffffffffffffffffffffffffffffffffffffffff166000809054906101000a900473ffffffffffffffffffffffffffffffffffffffff1673ffffffffffffffffffffffffffffffffffffffff167f8be0079c531659141344cd1fd0a4f28419497f9722a3daafe3b4186f6b6457e060405160405180910390a3806000806101000a81548173ffffffffffffffffffffffffffffffffffffffff021916908373ffffffffffffffffffffffffffffffffffffffff16021790555050565b6000808314156116f65760009050611715565b818302905081838281151561170757fe5b0414151561171157fe5b8090505b92915050565b6000818381151561172857fe5b04905092915050565b6000818301905082811015151561174457fe5b80905092915050565b600082821115151561175b57fe5b8183039050929150505600a165627a7a723058202816cd3ee8f500238ce7c6c925b4a4ebda5bda79f971e4d2456e61a4e8cac4c40029608060405260008060146101000a81548160ff0219169083151502179055503480156200002b57600080fd5b5060405160c08062002ce2833981018060405281019080805190602001909291908051906020019092919080519060200190929190805190602001909291908051906020019092919080519060200190929190505050336000806101000a81548173ffffffffffffffffffffffffffffffffffffffff021916908373ffffffffffffffffffffffffffffffffffffffff160217905550600073ffffffffffffffffffffffffffffffffffffffff168673ffffffffffffffffffffffffffffffffffffffff1614151515620000fe57600080fd5b60008260ff161015801562000116575060648260ff16105b15156200012257600080fd5b600073ffffffffffffffffffffffffffffffffffffffff168173ffffffffffffffffffffffffffffffffffffffff16141515156200015f57600080fd5b85600160006101000a81548173ffffffffffffffffffffffffffffffffffffffff021916908373ffffffffffffffffffffffffffffffffffffffff160217905550620001bc85858562000224640100000000026401000000009004565b81600360006101000a81548160ff021916908360ff16021790555080600460006101000a81548173ffffffffffffffffffffffffffffffffffffffff021916908373ffffffffffffffffffffffffffffffffffffffff160217905550505050505050620002f5565b428363ffffffff16101515156200023a57600080fd5b6000821115156200024a57600080fd5b600073ffffffffffffffffffffffffffffffffffffffff168173ffffffffffffffffffffffffffffffffffffffff16141515156200028757600080fd5b82600160146101000a81548163ffffffff021916908363ffffffff1602179055508160028190555080600360016101000a81548173ffffffffffffffffffffffffffffffffffffffff021916908373ffffffffffffffffffffffffffffffffffffffff160217905550505050565b6129dd80620003056000396000f300608060405260043610610133576000357c0100000000000000000000000000000000000000000000000000000000900463ffffffff1680630b97bc861461013d5780630d544ffe146101745780630ee62c77146101f7578063313602d4146102795780633baba4d7146102905780634090cb64146102bb578063521b7499146103125780635641f3c31461036f578063715018a6146103c6578063792c02ea146103dd578063845ddcb2146104085780638abdf5aa146104755780638da5cb5b146104a65780638edd6eb6146104fd5780639bed31e414610554578063a035b1fe146105b1578063b60d4288146105dc578063d0febe4c14610633578063e89e4ed61461063d578063f12585f514610795578063f2fde38b14610817578063f9cbcef01461085a578063fc0c546a146108c5575b61013b61091c565b005b34801561014957600080fd5b50610152610d83565b604051808263ffffffff1663ffffffff16815260200191505060405180910390f35b34801561018057600080fd5b506101f5600480360381019080803590602001908201803590602001919091929391929390803590602001908201803590602001919091929391929390803590602001908201803590602001919091929391929390803590602001908201803590602001919091929391929390505050610d99565b005b34801561020357600080fd5b50610222600480360381019080803590602001909291905050506113fe565b6040518080602001828103825283818151815260200191508051906020019060200280838360005b8381101561026557808201518184015260208101905061024a565b505050509050019250505060405180910390f35b34801561028557600080fd5b5061028e61149c565b005b34801561029c57600080fd5b506102a5611730565b6040518082815260200191505060405180910390f35b3480156102c757600080fd5b506102d061173d565b604051808273ffffffffffffffffffffffffffffffffffffffff1673ffffffffffffffffffffffffffffffffffffffff16815260200191505060405180910390f35b34801561031e57600080fd5b5061036d60048036038101908080359060200190929190803590602001908201803590602001919091929391929390803590602001908201803590602001919091929391929390505050611767565b005b34801561037b57600080fd5b50610384611850565b604051808273ffffffffffffffffffffffffffffffffffffffff1673ffffffffffffffffffffffffffffffffffffffff16815260200191505060405180910390f35b3480156103d257600080fd5b506103db611876565b005b3480156103e957600080fd5b506103f2611978565b6040518082815260200191505060405180910390f35b34801561041457600080fd5b5061043360048036038101908080359060200190929190505050611985565b604051808463ffffffff1663ffffffff1681526020018360ff1660ff1681526020018263ffffffff1663ffffffff168152602001935050505060405180910390f35b34801561048157600080fd5b5061048a6119eb565b604051808260ff1660ff16815260200191505060405180910390f35b3480156104b257600080fd5b506104bb6119fe565b604051808273ffffffffffffffffffffffffffffffffffffffff1673ffffffffffffffffffffffffffffffffffffffff16815260200191505060405180910390f35b34801561050957600080fd5b50610512611a23565b604051808273ffffffffffffffffffffffffffffffffffffffff1673ffffffffffffffffffffffffffffffffffffffff16815260200191505060405180910390f35b34801561056057600080fd5b506105af600480360381019080803563ffffffff16906020019092919080359060200190929190803573ffffffffffffffffffffffffffffffffffffffff169060200190929190505050611a4d565b005b3480156105bd57600080fd5b506105c6611ab8565b6040518082815260200191505060405180910390f35b3480156105e857600080fd5b506105f1611abe565b604051808273ffffffffffffffffffffffffffffffffffffffff1673ffffffffffffffffffffffffffffffffffffffff16815260200191505060405180910390f35b61063b61091c565b005b34801561064957600080fd5b5061066860048036038101908080359060200190929190505050611ae4565b604051808763ffffffff1663ffffffff1681526020018660ff1660ff1681526020018563ffffffff1663ffffffff1681526020018463ffffffff1663ffffffff1681526020018060200180602001838103835285818151815260200191508051906020019080838360005b838110156106ee5780820151818401526020810190506106d3565b50505050905090810190601f16801561071b5780820380516001836020036101000a031916815260200191505b50838103825284818151815260200191508051906020019080838360005b83811015610754578082015181840152602081019050610739565b50505050905090810190601f1680156107815780820380516001836020036101000a031916815260200191505b509850505050505050505060405180910390f35b3480156107a157600080fd5b506107c060048036038101908080359060200190929190505050611c9c565b6040518080602001828103825283818151815260200191508051906020019060200280838360005b838110156108035780820151818401526020810190506107e8565b505050509050019250505060405180910390f35b34801561082357600080fd5b50610858600480360381019080803573ffffffffffffffffffffffffffffffffffffffff169060200190929190505050611d14565b005b34801561086657600080fd5b506108c3600480360381019080803590602001908201803590602001919091929391929390803590602001908201803590602001919091929391929390803590602001908201803590602001919091929391929390505050611e69565b005b3480156108d157600080fd5b506108da61225e565b604051808273ffffffffffffffffffffffffffffffffffffffff1673ffffffffffffffffffffffffffffffffffffffff16815260200191505060405180910390f35b60008060008060008060149054906101000a900460ff1615151561093f57600080fd5b6001600060146101000a81548160ff02191690831515021790555060003411151561096957600080fd5b42600160149054906101000a900463ffffffff1663ffffffff161115151561099057600080fd5b60006005805490501115156109a457600080fd5b6109ac612284565b94509450945060008560ff16116109c5576002546109f4565b6109f360646109e58760640360ff1660025461242090919063ffffffff16565b61245890919063ffffffff16565b5b9150610a346064610a2684610a188760640160ff163461242090919063ffffffff16565b61245890919063ffffffff16565b61245890919063ffffffff16565b9050600160009054906101000a900473ffffffffffffffffffffffffffffffffffffffff1673ffffffffffffffffffffffffffffffffffffffff16639d2e47773383876040518463ffffffff167c0100000000000000000000000000000000000000000000000000000000028152600401808473ffffffffffffffffffffffffffffffffffffffff1673ffffffffffffffffffffffffffffffffffffffff1681526020018381526020018263ffffffff1663ffffffff1681526020019350505050602060405180830381600087803b158015610b0f57600080fd5b505af1158015610b23573d6000803e3d6000fd5b505050506040513d6020811015610b3957600080fd5b81019080805190602001909291905050501515610b5557600080fd5b6000600360009054906101000a900460ff1660ff161115610c1157600360019054906101000a900473ffffffffffffffffffffffffffffffffffffffff1673ffffffffffffffffffffffffffffffffffffffff166108fc610be46064610bd6600360009054906101000a900460ff1660ff163461242090919063ffffffff16565b61245890919063ffffffff16565b9081150290604051600060405180830381858888f19350505050158015610c0f573d6000803e3d6000fd5b505b600460009054906101000a900473ffffffffffffffffffffffffffffffffffffffff1673ffffffffffffffffffffffffffffffffffffffff1663958799cb3073ffffffffffffffffffffffffffffffffffffffff1631620186a09033856040518563ffffffff167c0100000000000000000000000000000000000000000000000000000000028152600401808373ffffffffffffffffffffffffffffffffffffffff1673ffffffffffffffffffffffffffffffffffffffff168152602001828152602001925050506000604051808303818589803b158015610cf257600080fd5b5088f1158015610d06573d6000803e3d6000fd5b5050505050503373ffffffffffffffffffffffffffffffffffffffff167fcd60aa75dea3072fbc07ae6d7d856b5dc5f4eee88854f5b4abf7b680ef8bc50f3483604051808381526020018281526020019250505060405180910390a260008060146101000a81548160ff0219169083151502179055505050505050565b600160149054906101000a900463ffffffff1681565b6000806060806000809054906101000a900473ffffffffffffffffffffffffffffffffffffffff1673ffffffffffffffffffffffffffffffffffffffff163373ffffffffffffffffffffffffffffffffffffffff16141515610dfa57600080fd5b7fffffffffffffffffffffffffffffffffffffffffffffffffffffffffffffffff60ff168c8c905011151515610e2f57600080fd5b60038c8c9050111515610e4157600080fd5b600060038d8d9050811515610e5257fe5b06141515610e5f57600080fd5b87879050610e7a60028c8c905061242090919063ffffffff16565b141515610e8657600080fd5b8b8b9050610ea160038c8c905061242090919063ffffffff16565b141515610ead57600080fd5b60028a8a9050028686905010151515610ec557600080fd5b60066000610ed391906125e5565b60009350600092505b8b8b905060ff168360ff1610156113f057428c8c8560ff168181101515610eff57fe5b9050602002013563ffffffff1663ffffffff16111515610f1e57600080fd5b428c8c6001860160ff168181101515610f3357fe5b9050602002013563ffffffff1663ffffffff16111515610f5257600080fd5b428c8c6002860160ff168181101515610f6757fe5b9050602002013563ffffffff1663ffffffff16111515610f8657600080fd5b858590506110168989600160038860ff16811515610fa057fe5b040160ff168181101515610fb057fe5b9050602002013563ffffffff1663ffffffff166110088b8b60038960ff16811515610fd757fe5b0460ff168181101515610fe657fe5b9050602002013563ffffffff1663ffffffff168861246e90919063ffffffff16565b61246e90919063ffffffff16565b1115151561102357600080fd5b60648a8a60038660ff1681151561103657fe5b0460ff16818110151561104557fe5b9050602002013560ff1660ff1610151561105e57600080fd5b6110da848989600260038860ff1681151561107557fe5b040260ff16818110151561108557fe5b9050602002013563ffffffff1663ffffffff1688888080601f01602080910402602001604051908101604052809392919081815260200183838082843782019150505050505061248a9092919063ffffffff16565b91506111928888600260038760ff168115156110f257fe5b040260ff16818110151561110257fe5b9050602002013563ffffffff1663ffffffff16850189896001600260038960ff1681151561112c57fe5b04020160ff16818110151561113d57fe5b9050602002013563ffffffff1663ffffffff1688888080601f01602080910402602001604051908101604052809392919081815260200183838082843782019150505050505061248a9092919063ffffffff16565b9050600082511115156111a457600080fd5b600081511115156111b457600080fd5b600660c0604051908101604052808e8e8760ff1681811015156111d357fe5b9050602002013563ffffffff1663ffffffff1681526020018c8c60038860ff168115156111fc57fe5b0460ff16818110151561120b57fe5b9050602002013560ff1660ff1681526020018e8e6001880160ff16818110151561123157fe5b9050602002013563ffffffff1663ffffffff1681526020018e8e6002880160ff16818110151561125d57fe5b9050602002013563ffffffff1663ffffffff168152602001848152602001838152509080600181540180825580915050906001820390600052602060002090600302016000909192909190915060008201518160000160006101000a81548163ffffffff021916908363ffffffff16021790555060208201518160000160046101000a81548160ff021916908360ff16021790555060408201518160000160056101000a81548163ffffffff021916908363ffffffff16021790555060608201518160000160096101000a81548163ffffffff021916908363ffffffff160217905550608082015181600101908051906020019061135c929190612609565b5060a0820151816002019080519060200190611379929190612609565b505050508787600160038660ff1681151561139057fe5b040160ff1681811015156113a057fe5b9050602002013563ffffffff16888860038660ff168115156113be57fe5b0460ff1681811015156113cd57fe5b9050602002013563ffffffff160163ffffffff1684019350600383019250610edc565b505050505050505050505050565b606060058281548110151561140f57fe5b906000526020600020906003020160020180548060200260200160405190810160405280929190818152602001828054801561149057602002820191906000526020600020906000905b82829054906101000a900460ff1660ff16815260200190600101906020826000010492830192600103820291508084116114595790505b50505050509050919050565b6000809054906101000a900473ffffffffffffffffffffffffffffffffffffffff1673ffffffffffffffffffffffffffffffffffffffff163373ffffffffffffffffffffffffffffffffffffffff161415156114f757600080fd5b600060058054905014151561150b57600080fd5b600160009054906101000a900473ffffffffffffffffffffffffffffffffffffffff1673ffffffffffffffffffffffffffffffffffffffff1663a9059cbb6000809054906101000a900473ffffffffffffffffffffffffffffffffffffffff16600160009054906101000a900473ffffffffffffffffffffffffffffffffffffffff1673ffffffffffffffffffffffffffffffffffffffff166370a08231306040518263ffffffff167c0100000000000000000000000000000000000000000000000000000000028152600401808273ffffffffffffffffffffffffffffffffffffffff1673ffffffffffffffffffffffffffffffffffffffff168152602001915050602060405180830381600087803b15801561162857600080fd5b505af115801561163c573d6000803e3d6000fd5b505050506040513d602081101561165257600080fd5b81019080805190602001909291905050506040518363ffffffff167c0100000000000000000000000000000000000000000000000000000000028152600401808373ffffffffffffffffffffffffffffffffffffffff1673ffffffffffffffffffffffffffffffffffffffff16815260200182815260200192505050602060405180830381600087803b1580156116e857600080fd5b505af11580156116fc573d6000803e3d6000fd5b505050506040513d602081101561171257600080fd5b8101908080519060200190929190505050151561172e57600080fd5b565b6000600680549050905090565b6000600160009054906101000a900473ffffffffffffffffffffffffffffffffffffffff16905090565b6000809054906101000a900473ffffffffffffffffffffffffffffffffffffffff1673ffffffffffffffffffffffffffffffffffffffff163373ffffffffffffffffffffffffffffffffffffffff161415156117c257600080fd5b81819050848490501415156117d657600080fd5b600580549050851015156117e957600080fd5b83836005878154811015156117fa57fe5b90600052602060002090600302016001019190611818929190612689565b50818160058781548110151561182a57fe5b906000526020600020906003020160020191906118489291906126d6565b505050505050565b600360019054906101000a900473ffffffffffffffffffffffffffffffffffffffff1681565b6000809054906101000a900473ffffffffffffffffffffffffffffffffffffffff1673ffffffffffffffffffffffffffffffffffffffff163373ffffffffffffffffffffffffffffffffffffffff161415156118d157600080fd5b6000809054906101000a900473ffffffffffffffffffffffffffffffffffffffff1673ffffffffffffffffffffffffffffffffffffffff167ff8df31144d9c2f0f6b59d69b8b98abd5459d07f2742c4df920b25aae33c6482060405160405180910390a260008060006101000a81548173ffffffffffffffffffffffffffffffffffffffff021916908373ffffffffffffffffffffffffffffffffffffffff160217905550565b6000600580549050905090565b60058181548110151561199457fe5b90600052602060002090600302016000915090508060000160009054906101000a900463ffffffff16908060000160049054906101000a900460ff16908060000160059054906101000a900463ffffffff16905083565b600360009054906101000a900460ff1681565b6000809054906101000a900473ffffffffffffffffffffffffffffffffffffffff1681565b6000600460009054906101000a900473ffffffffffffffffffffffffffffffffffffffff16905090565b6000809054906101000a900473ffffffffffffffffffffffffffffffffffffffff1673ffffffffffffffffffffffffffffffffffffffff163373ffffffffffffffffffffffffffffffffffffffff16141515611aa857600080fd5b611ab3838383612517565b505050565b60025481565b600460009054906101000a900473ffffffffffffffffffffffffffffffffffffffff1681565b600681815481101515611af357fe5b90600052602060002090600302016000915090508060000160009054906101000a900463ffffffff16908060000160049054906101000a900460ff16908060000160059054906101000a900463ffffffff16908060000160099054906101000a900463ffffffff1690806001018054600181600116156101000203166002900480601f016020809104026020016040519081016040528092919081815260200182805460018160011615610100020316600290048015611bf45780601f10611bc957610100808354040283529160200191611bf4565b820191906000526020600020905b815481529060010190602001808311611bd757829003601f168201915b505050505090806002018054600181600116156101000203166002900480601f016020809104026020016040519081016040528092919081815260200182805460018160011615610100020316600290048015611c925780601f10611c6757610100808354040283529160200191611c92565b820191906000526020600020905b815481529060010190602001808311611c7557829003601f168201915b5050505050905086565b6060600582815481101515611cad57fe5b9060005260206000209060030201600101805480602002602001604051908101604052809291908181526020018280548015611d0857602002820191906000526020600020905b815481526020019060010190808311611cf4575b50505050509050919050565b6000809054906101000a900473ffffffffffffffffffffffffffffffffffffffff1673ffffffffffffffffffffffffffffffffffffffff163373ffffffffffffffffffffffffffffffffffffffff16141515611d6f57600080fd5b600073ffffffffffffffffffffffffffffffffffffffff168173ffffffffffffffffffffffffffffffffffffffff1614151515611dab57600080fd5b8073ffffffffffffffffffffffffffffffffffffffff166000809054906101000a900473ffffffffffffffffffffffffffffffffffffffff1673ffffffffffffffffffffffffffffffffffffffff167f8be0079c531659141344cd1fd0a4f28419497f9722a3daafe3b4186f6b6457e060405160405180910390a3806000806101000a81548173ffffffffffffffffffffffffffffffffffffffff021916908373ffffffffffffffffffffffffffffffffffffffff16021790555050565b6000806000809054906101000a900473ffffffffffffffffffffffffffffffffffffffff1673ffffffffffffffffffffffffffffffffffffffff163373ffffffffffffffffffffffffffffffffffffffff16141515611ec757600080fd5b7fffffffffffffffffffffffffffffffffffffffffffffffffffffffffffffffff60ff168888905011151515611efc57600080fd5b600088889050111515611f0e57600080fd5b8585905088889050141515611f2257600080fd5b8383905088889050141515611f3657600080fd5b8787905091508160ff16600581611f4d9190612780565b50600090505b8160ff168160ff16101561222857600086868360ff168181101515611f7457fe5b9050602002013560ff1660ff1610158015611fac5750606486868360ff168181101515611f9d57fe5b9050602002013560ff1660ff16105b1515611fb757600080fd5b87878260ff168181101515611fc857fe5b9050602002013563ffffffff1663ffffffff16600160149054906101000a900463ffffffff1663ffffffff1610151561200057600080fd5b6001820360ff168160ff1610156120f85787876001830160ff16818110151561202557fe5b9050602002013563ffffffff1663ffffffff1688888360ff16818110151561204957fe5b9050602002013563ffffffff1663ffffffff161015156120f7576040517f08c379a00000000000000000000000000000000000000000000000000000000081526004018080602001828103825260228152602001807f53746167657320617265206e6f7420696e20686973746f726963616c206f726481526020017f657200000000000000000000000000000000000000000000000000000000000081525060400191505060405180910390fd5b5b87878260ff16818110151561210957fe5b9050602002013563ffffffff16600560018385030360ff1681548110151561212d57fe5b906000526020600020906003020160000160006101000a81548163ffffffff021916908363ffffffff16021790555085858260ff16818110151561216d57fe5b9050602002013560ff16600560018385030360ff1681548110151561218e57fe5b906000526020600020906003020160000160046101000a81548160ff021916908360ff16021790555083838260ff1681811015156121c857fe5b9050602002013563ffffffff16600560018385030360ff168154811015156121ec57fe5b906000526020600020906003020160000160056101000a81548163ffffffff021916908363ffffffff1602179055508080600101915050611f53565b7f743961f4e677d1146fbf85d75565b1c5474fd083eb166f8b9595cf5d01a4d6e660405160405180910390a15050505050505050565b600160009054906101000a900473ffffffffffffffffffffffffffffffffffffffff1681565b600080600080600080600060058054905014156122b4576000806000829250819150809050955095509550612418565b60056001600580549050038154811015156122cb57fe5b90600052602060002090600302019250428360000160009054906101000a900463ffffffff1663ffffffff161015156123f35760009350600091506000836001018054905011156123c057600090505b60018360010180549050038110156123bf578134101580156123575750826001018181548110151561234957fe5b906000526020600020015434105b1561239457826002018181548110151561236d57fe5b90600052602060002090602091828204019190069054906101000a900460ff1693506123bf565b82600101818154811015156123a557fe5b90600052602060002001549150808060010191505061231b565b5b8260000160049054906101000a900460ff168360000160059054906101000a900463ffffffff1685955095509550612418565b60058054809190600190036124089190612780565b50612411612284565b9550955095505b505050909192565b6000808314156124335760009050612452565b818302905081838281151561244457fe5b0414151561244e57fe5b8090505b92915050565b6000818381151561246557fe5b04905092915050565b6000818301905082811015151561248157fe5b80905092915050565b60608082840185511015151561249f57600080fd5b8215600081146124ba5760405191506020820160405261250b565b6040519150601f8416801560200281840101858101878315602002848b0101015b818310156124f857805183526020830192506020810190506124db565b50868552601f19601f8301166040525050505b50809150509392505050565b428363ffffffff161015151561252c57600080fd5b60008211151561253b57600080fd5b600073ffffffffffffffffffffffffffffffffffffffff168173ffffffffffffffffffffffffffffffffffffffff161415151561257757600080fd5b82600160146101000a81548163ffffffff021916908363ffffffff1602179055508160028190555080600360016101000a81548173ffffffffffffffffffffffffffffffffffffffff021916908373ffffffffffffffffffffffffffffffffffffffff160217905550505050565b508054600082556003029060005260206000209081019061260691906127b2565b50565b828054600181600116156101000203166002900490600052602060002090601f016020900481019282601f1061264a57805160ff1916838001178555612678565b82800160010185558215612678579182015b8281111561267757825182559160200191906001019061265c565b5b509050612685919061284a565b5090565b8280548282559060005260206000209081019282156126c5579160200282015b828111156126c45782358255916020019190600101906126a9565b5b5090506126d2919061284a565b5090565b82805482825590600052602060002090601f0160209004810192821561276f5791602002820160005b8382111561274057833560ff1683826101000a81548160ff021916908360ff16021790555092602001926001016020816000010492830192600103026126ff565b801561276d5782816101000a81549060ff0219169055600101602081600001049283019260010302612740565b505b50905061277c919061286f565b5090565b8154818355818111156127ad576003028160030283600052602060002091820191016127ac919061289f565b5b505050565b61284791905b8082111561284357600080820160006101000a81549063ffffffff02191690556000820160046101000a81549060ff02191690556000820160056101000a81549063ffffffff02191690556000820160096101000a81549063ffffffff021916905560018201600061282a9190612920565b60028201600061283a9190612920565b506003016127b8565b5090565b90565b61286c91905b80821115612868576000816000905550600101612850565b5090565b90565b61289c91905b8082111561289857600081816101000a81549060ff021916905550600101612875565b5090565b90565b61291d91905b8082111561291957600080820160006101000a81549063ffffffff02191690556000820160046101000a81549060ff02191690556000820160056101000a81549063ffffffff02191690556001820160006129009190612968565b6002820160006129109190612989565b506003016128a5565b5090565b90565b50805460018160011615610100020316600290046000825580601f106129465750612965565b601f016020900490600052602060002090810190612964919061284a565b5b50565b5080546000825590600052602060002090810190612986919061284a565b50565b50805460008255601f0160209004906000526020600020908101906129ae919061284a565b505600a165627a7a723058200bb172fbc46198e5a437bf2a77a9768e3ba9c456164260336b7811c3c13a8bdf0029a165627a7a72305820d4d513704a6a6442d1938231a6d81dfb9899ef3f8f7983290db4303a40eb4a680029",
  "source": "pragma solidity ^0.4.24;\n\nimport \"./W12Crowdsale.sol\";\nimport \"./W12Fund.sol\";\n\n\ncontract W12CrowdsaleFactory is IW12CrowdsaleFactory {\n\n    event CrowdsaleCreated(address indexed owner, address indexed token, uint32 startDate, address crowdsaleAddress, address fundAddress);\n\n    function createCrowdsale(\n        address wTokenAddress,\n        uint32 startDate,\n        uint price,\n        address serviceWallet,\n        uint8 serviceFee,\n        address swap,\n        address owner)\n        external returns (IW12Crowdsale result) {\n\n        W12Fund fund = new W12Fund();\n\n        result = new W12Crowdsale(WToken(wTokenAddress), startDate, price, serviceWallet, serviceFee, fund);\n        Ownable(result).transferOwnership(owner);\n\n        fund.setCrowdsale(result);\n        fund.setSwap(swap);\n        Ownable(fund).transferOwnership(owner);\n\n        emit CrowdsaleCreated(owner, wTokenAddress, startDate, result, fund);\n    }\n}\n",
  "sourcePath": "/home/andrey/Code/w12/platform-contracts/contracts/W12CrowdsaleFactory.sol",
  "compiler": {
    "name": "solc",
    "version": "0.4.24+commit.e67f0147.Emscripten.clang"
  },
  "schemaVersion": "2.0.0",
  "updatedAt": "2018-07-23T19:03:39.472Z"
}