{
  "contractName": "W12Crowdsale",
  "abi": [
    {
      "constant": true,
      "inputs": [],
      "name": "startDate",
      "outputs": [
        {
          "name": "",
          "type": "uint32"
        }
      ],
      "payable": false,
      "stateMutability": "view",
      "type": "function"
    },
    {
      "constant": true,
      "inputs": [],
      "name": "serviceWallet",
      "outputs": [
        {
          "name": "",
          "type": "address"
        }
      ],
      "payable": false,
      "stateMutability": "view",
      "type": "function"
    },
    {
      "constant": false,
      "inputs": [],
      "name": "renounceOwnership",
      "outputs": [],
      "payable": false,
      "stateMutability": "nonpayable",
      "type": "function"
    },
    {
      "constant": true,
      "inputs": [
        {
          "name": "",
          "type": "uint256"
        }
      ],
      "name": "stages",
      "outputs": [
        {
          "name": "endDate",
          "type": "uint32"
        },
        {
          "name": "discount",
          "type": "uint8"
        },
        {
          "name": "vesting",
          "type": "uint32"
        }
      ],
      "payable": false,
      "stateMutability": "view",
      "type": "function"
    },
    {
      "constant": true,
      "inputs": [],
      "name": "serviceFee",
      "outputs": [
        {
          "name": "",
          "type": "uint8"
        }
      ],
      "payable": false,
      "stateMutability": "view",
      "type": "function"
    },
    {
      "constant": true,
      "inputs": [],
      "name": "owner",
      "outputs": [
        {
          "name": "",
          "type": "address"
        }
      ],
      "payable": false,
      "stateMutability": "view",
      "type": "function"
    },
    {
      "constant": true,
      "inputs": [],
      "name": "price",
      "outputs": [
        {
          "name": "",
          "type": "uint256"
        }
      ],
      "payable": false,
      "stateMutability": "view",
      "type": "function"
    },
    {
      "constant": false,
      "inputs": [
        {
          "name": "newOwner",
          "type": "address"
        }
      ],
      "name": "transferOwnership",
      "outputs": [],
      "payable": false,
      "stateMutability": "nonpayable",
      "type": "function"
    },
    {
      "constant": true,
      "inputs": [],
      "name": "token",
      "outputs": [
        {
          "name": "",
          "type": "address"
        }
      ],
      "payable": false,
      "stateMutability": "view",
      "type": "function"
    },
    {
      "inputs": [
        {
          "name": "_token",
          "type": "address"
        },
        {
          "name": "_startDate",
          "type": "uint32"
        },
        {
          "name": "_price",
          "type": "uint256"
        },
        {
          "name": "_serviceWallet",
          "type": "address"
        },
        {
          "name": "_serviceFee",
          "type": "uint8"
        }
      ],
      "payable": false,
      "stateMutability": "nonpayable",
      "type": "constructor"
    },
    {
      "payable": true,
      "stateMutability": "payable",
      "type": "fallback"
    },
    {
      "anonymous": false,
      "inputs": [
        {
          "indexed": true,
          "name": "previousOwner",
          "type": "address"
        }
      ],
      "name": "OwnershipRenounced",
      "type": "event"
    },
    {
      "anonymous": false,
      "inputs": [
        {
          "indexed": true,
          "name": "previousOwner",
          "type": "address"
        },
        {
          "indexed": true,
          "name": "newOwner",
          "type": "address"
        }
      ],
      "name": "OwnershipTransferred",
      "type": "event"
    },
    {
      "constant": false,
      "inputs": [
        {
          "name": "_startDate",
          "type": "uint32"
        },
        {
          "name": "_price",
          "type": "uint256"
        },
        {
          "name": "_serviceWallet",
          "type": "address"
        }
      ],
      "name": "setParameters",
      "outputs": [],
      "payable": false,
      "stateMutability": "nonpayable",
      "type": "function"
    },
    {
      "constant": false,
      "inputs": [
        {
          "name": "stage_endDates",
          "type": "uint32[]"
        },
        {
          "name": "stage_discounts",
          "type": "uint8[]"
        },
        {
          "name": "stage_vestings",
          "type": "uint32[]"
        }
      ],
      "name": "setStages",
      "outputs": [],
      "payable": false,
      "stateMutability": "nonpayable",
      "type": "function"
    },
    {
      "constant": false,
      "inputs": [],
      "name": "buyTokens",
      "outputs": [],
      "payable": true,
      "stateMutability": "payable",
      "type": "function"
    },
    {
      "constant": false,
      "inputs": [],
      "name": "getCurrentStage",
      "outputs": [
        {
          "name": "endDate",
          "type": "uint32"
        },
        {
          "name": "discount",
          "type": "uint8"
        },
        {
          "name": "vesting",
          "type": "uint32"
        }
      ],
      "payable": false,
      "stateMutability": "nonpayable",
      "type": "function"
    }
  ],
  "bytecode": "0x608060405260008060146101000a81548160ff02191690831515021790555034801561002a57600080fd5b5060405160a0806113788339810180604052810190808051906020019092919080519060200190929190805190602001909291908051906020019092919080519060200190929190505050336000806101000a81548173ffffffffffffffffffffffffffffffffffffffff021916908373ffffffffffffffffffffffffffffffffffffffff160217905550600073ffffffffffffffffffffffffffffffffffffffff168573ffffffffffffffffffffffffffffffffffffffff16141515156100f157600080fd5b60008160ff1610158015610108575060648160ff16105b151561011357600080fd5b84600260006101000a81548173ffffffffffffffffffffffffffffffffffffffff021916908373ffffffffffffffffffffffffffffffffffffffff16021790555061016e848484610193640100000000026401000000009004565b80600460006101000a81548160ff021916908360ff16021790555050505050506102bc565b6000809054906101000a900473ffffffffffffffffffffffffffffffffffffffff1673ffffffffffffffffffffffffffffffffffffffff163373ffffffffffffffffffffffffffffffffffffffff161415156101ee57600080fd5b428363ffffffff161015151561020357600080fd5b60008211151561021257600080fd5b600073ffffffffffffffffffffffffffffffffffffffff168173ffffffffffffffffffffffffffffffffffffffff161415151561024e57600080fd5b82600260146101000a81548163ffffffff021916908363ffffffff1602179055508160038190555080600460016101000a81548173ffffffffffffffffffffffffffffffffffffffff021916908373ffffffffffffffffffffffffffffffffffffffff160217905550505050565b6110ad806102cb6000396000f3006080604052600436106100c5576000357c0100000000000000000000000000000000000000000000000000000000900463ffffffff1680630b97bc86146100cf5780635641f3c314610106578063715018a61461015d578063845ddcb2146101745780638abdf5aa146101e15780638da5cb5b146102125780639bed31e414610269578063a035b1fe146102c6578063d0febe4c146102f1578063eedbe31d146102fb578063f2fde38b14610352578063f9cbcef014610395578063fc0c546a14610400575b6100cd610457565b005b3480156100db57600080fd5b506100e461072b565b604051808263ffffffff1663ffffffff16815260200191505060405180910390f35b34801561011257600080fd5b5061011b610741565b604051808273ffffffffffffffffffffffffffffffffffffffff1673ffffffffffffffffffffffffffffffffffffffff16815260200191505060405180910390f35b34801561016957600080fd5b50610172610767565b005b34801561018057600080fd5b5061019f60048036038101908080359060200190929190505050610869565b604051808463ffffffff1663ffffffff1681526020018360ff1660ff1681526020018263ffffffff1663ffffffff168152602001935050505060405180910390f35b3480156101ed57600080fd5b506101f66108cb565b604051808260ff1660ff16815260200191505060405180910390f35b34801561021e57600080fd5b506102276108de565b604051808273ffffffffffffffffffffffffffffffffffffffff1673ffffffffffffffffffffffffffffffffffffffff16815260200191505060405180910390f35b34801561027557600080fd5b506102c4600480360381019080803563ffffffff16906020019092919080359060200190929190803573ffffffffffffffffffffffffffffffffffffffff169060200190929190505050610903565b005b3480156102d257600080fd5b506102db610a2c565b6040518082815260200191505060405180910390f35b6102f9610457565b005b34801561030757600080fd5b50610310610a32565b604051808463ffffffff1663ffffffff1681526020018360ff1660ff1681526020018263ffffffff1663ffffffff168152602001935050505060405180910390f35b34801561035e57600080fd5b50610393600480360381019080803573ffffffffffffffffffffffffffffffffffffffff169060200190929190505050610b7d565b005b3480156103a157600080fd5b506103fe600480360381019080803590602001908201803590602001919091929391929390803590602001908201803590602001919091929391929390803590602001908201803590602001919091929391929390505050610cd2565b005b34801561040c57600080fd5b50610415610f80565b604051808273ffffffffffffffffffffffffffffffffffffffff1673ffffffffffffffffffffffffffffffffffffffff16815260200191505060405180910390f35b60008060008060008060149054906101000a900460ff1615151561047a57600080fd5b6001600060146101000a81548160ff0219169083151502179055506000341115156104a457600080fd5b42600260149054906101000a900463ffffffff1663ffffffff16111515156104cb57600080fd5b6104d3610a32565b94509450945060008460ff16116104ec57600354610518565b61051760646105098660ff16600354610fa690919063ffffffff16565b610fde90919063ffffffff16565b5b915061052d8234610fde90919063ffffffff16565b9050600260009054906101000a900473ffffffffffffffffffffffffffffffffffffffff1673ffffffffffffffffffffffffffffffffffffffff16639d2e47773383866040518463ffffffff167c0100000000000000000000000000000000000000000000000000000000028152600401808473ffffffffffffffffffffffffffffffffffffffff1673ffffffffffffffffffffffffffffffffffffffff1681526020018381526020018263ffffffff1663ffffffff1681526020019350505050602060405180830381600087803b15801561060857600080fd5b505af115801561061c573d6000803e3d6000fd5b505050506040513d602081101561063257600080fd5b8101908080519060200190929190505050151561064e57600080fd5b6000600460009054906101000a900460ff1660ff16111561070a57600460019054906101000a900473ffffffffffffffffffffffffffffffffffffffff1673ffffffffffffffffffffffffffffffffffffffff166108fc6106dd60646106cf600460009054906101000a900460ff1660ff1634610fa690919063ffffffff16565b610fde90919063ffffffff16565b9081150290604051600060405180830381858888f19350505050158015610708573d6000803e3d6000fd5b505b60008060146101000a81548160ff0219169083151502179055505050505050565b600260149054906101000a900463ffffffff1681565b600460019054906101000a900473ffffffffffffffffffffffffffffffffffffffff1681565b6000809054906101000a900473ffffffffffffffffffffffffffffffffffffffff1673ffffffffffffffffffffffffffffffffffffffff163373ffffffffffffffffffffffffffffffffffffffff161415156107c257600080fd5b6000809054906101000a900473ffffffffffffffffffffffffffffffffffffffff1673ffffffffffffffffffffffffffffffffffffffff167ff8df31144d9c2f0f6b59d69b8b98abd5459d07f2742c4df920b25aae33c6482060405160405180910390a260008060006101000a81548173ffffffffffffffffffffffffffffffffffffffff021916908373ffffffffffffffffffffffffffffffffffffffff160217905550565b60018181548110151561087857fe5b906000526020600020016000915090508060000160009054906101000a900463ffffffff16908060000160049054906101000a900460ff16908060000160059054906101000a900463ffffffff16905083565b600460009054906101000a900460ff1681565b6000809054906101000a900473ffffffffffffffffffffffffffffffffffffffff1681565b6000809054906101000a900473ffffffffffffffffffffffffffffffffffffffff1673ffffffffffffffffffffffffffffffffffffffff163373ffffffffffffffffffffffffffffffffffffffff1614151561095e57600080fd5b428363ffffffff161015151561097357600080fd5b60008211151561098257600080fd5b600073ffffffffffffffffffffffffffffffffffffffff168173ffffffffffffffffffffffffffffffffffffffff16141515156109be57600080fd5b82600260146101000a81548163ffffffff021916908363ffffffff1602179055508160038190555080600460016101000a81548173ffffffffffffffffffffffffffffffffffffffff021916908373ffffffffffffffffffffffffffffffffffffffff160217905550505050565b60035481565b6000806000806001805490501415610a79577fffffffffffffffffffffffffffffffffffffffffffffffffffffffffffffffff600080819150809050925092509250610b78565b4260018080549050815481101515610a8d57fe5b9060005260206000200160000160009054906101000a900463ffffffff1663ffffffff16101515610b535760018080549050815481101515610acb57fe5b9060005260206000200160000160009054906101000a900463ffffffff1660018080549050815481101515610afc57fe5b9060005260206000200160000160049054906101000a900460ff1660018080549050815481101515610b2a57fe5b9060005260206000200160000160059054906101000a900463ffffffff16925092509250610b78565b6001805480919060019003610b689190610ff4565b50610b71610a32565b9250925092505b909192565b6000809054906101000a900473ffffffffffffffffffffffffffffffffffffffff1673ffffffffffffffffffffffffffffffffffffffff163373ffffffffffffffffffffffffffffffffffffffff16141515610bd857600080fd5b600073ffffffffffffffffffffffffffffffffffffffff168173ffffffffffffffffffffffffffffffffffffffff1614151515610c1457600080fd5b8073ffffffffffffffffffffffffffffffffffffffff166000809054906101000a900473ffffffffffffffffffffffffffffffffffffffff1673ffffffffffffffffffffffffffffffffffffffff167f8be0079c531659141344cd1fd0a4f28419497f9722a3daafe3b4186f6b6457e060405160405180910390a3806000806101000a81548173ffffffffffffffffffffffffffffffffffffffff021916908373ffffffffffffffffffffffffffffffffffffffff16021790555050565b60008060009054906101000a900473ffffffffffffffffffffffffffffffffffffffff1673ffffffffffffffffffffffffffffffffffffffff163373ffffffffffffffffffffffffffffffffffffffff16141515610d2f57600080fd5b600087879050111515610d4157600080fd5b8484905087879050141515610d5557600080fd5b8484905083839050141515610d6957600080fd5b86869050600181610d7a9190610ff4565b50600090505b868690508160ff161015610f7757600085858360ff168181101515610da157fe5b9050602002013560ff1660ff1610158015610dd95750606485858360ff168181101515610dca57fe5b9050602002013560ff1660ff16105b1515610de457600080fd5b600187879050038160ff161015610e4d5786866001830160ff168181101515610e0957fe5b9050602002013563ffffffff1663ffffffff1687878360ff168181101515610e2d57fe5b9050602002013563ffffffff1663ffffffff16101515610e4c57600080fd5b5b86868260ff168181101515610e5e57fe5b9050602002013563ffffffff166001808360ff168a8a90500303815481101515610e8457fe5b9060005260206000200160000160006101000a81548163ffffffff021916908363ffffffff16021790555084848260ff168181101515610ec057fe5b9050602002013560ff166001808360ff168a8a90500303815481101515610ee357fe5b9060005260206000200160000160046101000a81548160ff021916908360ff16021790555082828260ff168181101515610f1957fe5b9050602002013563ffffffff166001808360ff168a8a90500303815481101515610f3f57fe5b9060005260206000200160000160056101000a81548163ffffffff021916908363ffffffff1602179055508080600101915050610d80565b50505050505050565b600260009054906101000a900473ffffffffffffffffffffffffffffffffffffffff1681565b600080831415610fb95760009050610fd8565b8183029050818382811515610fca57fe5b04141515610fd457fe5b8090505b92915050565b60008183811515610feb57fe5b04905092915050565b81548183558181111561101b5781836000526020600020918201910161101a9190611020565b5b505050565b61107e91905b8082111561107a57600080820160006101000a81549063ffffffff02191690556000820160046101000a81549060ff02191690556000820160056101000a81549063ffffffff021916905550600101611026565b5090565b905600a165627a7a72305820b9adaa9d5ce33ad66deb96bd5de1e5257fd0066174b7b3c6c8af88382c16e78b0029",
  "source": "pragma solidity ^0.4.24;\n\nimport \"../openzeppelin-solidity/contracts/ownership/Ownable.sol\";\nimport \"../openzeppelin-solidity/contracts/ReentrancyGuard.sol\";\nimport \"../openzeppelin-solidity/contracts/math/SafeMath.sol\";\nimport \"./WToken.sol\";\nimport \"./IW12Crowdsale.sol\";\n\n\ncontract W12Crowdsale is IW12Crowdsale, Ownable, ReentrancyGuard {\n    using SafeMath for uint;\n\n    struct Stage {\n        uint32 endDate;\n        uint8 discount;\n        uint32 vesting;\n    }\n\n    Stage[] public stages;\n    WToken public token;\n    uint32 public startDate;\n    uint public price;\n    uint8 public serviceFee;\n    address public serviceWallet;\n\n    constructor (address _token, uint32 _startDate, uint _price, address _serviceWallet, uint8 _serviceFee) public {\n        require(_token != address(0x0));\n        require(_serviceFee >= 0 && _serviceFee < 100);\n\n        token = WToken(_token);\n\n        setParameters(_startDate, _price, _serviceWallet);\n        serviceFee = _serviceFee;\n    }\n\n    function setParameters(uint32 _startDate, uint _price, address _serviceWallet) onlyOwner public {\n        require(_startDate >= now);\n        require(_price > 0);\n        require(_serviceWallet != address(0x0));\n\n        startDate = _startDate;\n        price = _price;\n        serviceWallet = _serviceWallet;\n    }\n\n    function setStages(uint32[] stage_endDates, uint8[] stage_discounts, uint32[] stage_vestings) onlyOwner external {\n        require(stage_endDates.length > 0);\n        require(stage_endDates.length == stage_discounts.length);\n        require(stage_vestings.length == stage_discounts.length);\n\n        stages.length = stage_endDates.length;\n\n        for(uint8 i = 0; i < stage_endDates.length; i++) {\n            require(stage_discounts[i] >= 0 && stage_discounts[i] < 100);\n            // Checking that stages entered in historical order\n            if(i < stage_endDates.length - 1)\n                require(stage_endDates[i] < stage_endDates[i+1]);\n\n\n            // Reverting stage order for future use\n            stages[stage_endDates.length - i - 1].endDate = stage_endDates[i];\n            stages[stage_endDates.length - i - 1].discount = stage_discounts[i];\n            stages[stage_endDates.length - i - 1].vesting = stage_vestings[i];\n        }\n    }\n\n    function buyTokens() payable nonReentrant public {\n        require(msg.value > 0);\n        require(startDate <= now);\n\n        (uint32 endDate, uint8 discount, uint32 vesting) = getCurrentStage();\n\n        uint stagePrice = discount > 0 ? price.mul(discount).div(100) : price;\n\n        uint tokenAmount = msg.value.div(stagePrice);\n        require(token.vestingTransfer(msg.sender, tokenAmount, vesting));\n\n        if(serviceFee > 0)\n            serviceWallet.transfer(msg.value.mul(serviceFee).div(100));\n    }\n\n    function getCurrentStage() public returns(uint32 endDate, uint8 discount, uint32 vesting) {\n        if(stages.length == 0)\n            return (uint32(-1), 0, 0);\n\n        if(stages[stages.length].endDate >= now)\n            return (stages[stages.length].endDate, stages[stages.length].discount, stages[stages.length].vesting);\n\n        stages.length--;\n        return getCurrentStage();\n    }\n\n    function () payable external {\n        buyTokens();\n    }\n}\n",
  "sourcePath": "/home/andrey/Code/w12/platform-contracts/contracts/W12Crowdsale.sol",
  "compiler": {
    "name": "solc",
    "version": "0.4.24+commit.e67f0147.Emscripten.clang"
  },
  "schemaVersion": "2.0.0",
  "updatedAt": "2018-06-30T20:23:22.329Z"
}