{
  "contractName": "W12CrowdsaleFundStub",
  "abi": [
    {
      "constant": false,
      "inputs": [
        {
          "name": "_crowdsale",
          "type": "address"
        }
      ],
      "name": "setCrowdsale",
      "outputs": [],
      "payable": false,
      "stateMutability": "nonpayable",
      "type": "function"
    },
    {
      "constant": false,
      "inputs": [
        {
          "name": "_serviceWallet",
          "type": "address"
        }
      ],
      "name": "setServiceWallet",
      "outputs": [],
      "payable": false,
      "stateMutability": "nonpayable",
      "type": "function"
    },
    {
      "constant": false,
      "inputs": [
        {
          "name": "_swap",
          "type": "address"
        }
      ],
      "name": "setSwap",
      "outputs": [],
      "payable": false,
      "stateMutability": "nonpayable",
      "type": "function"
    },
    {
      "constant": false,
      "inputs": [
        {
          "name": "_address",
          "type": "address"
        }
      ],
      "name": "transferPrimary",
      "outputs": [],
      "payable": false,
      "stateMutability": "nonpayable",
      "type": "function"
    },
    {
      "constant": true,
      "inputs": [
        {
          "name": "account",
          "type": "address"
        }
      ],
      "name": "isAdmin",
      "outputs": [
        {
          "name": "",
          "type": "bool"
        }
      ],
      "payable": false,
      "stateMutability": "view",
      "type": "function"
    },
    {
      "constant": false,
      "inputs": [
        {
          "name": "account",
          "type": "address"
        }
      ],
      "name": "addAdmin",
      "outputs": [],
      "payable": false,
      "stateMutability": "nonpayable",
      "type": "function"
    },
    {
      "constant": false,
      "inputs": [],
      "name": "renounceAdmin",
      "outputs": [],
      "payable": false,
      "stateMutability": "nonpayable",
      "type": "function"
    },
    {
      "constant": false,
      "inputs": [
        {
          "name": "account",
          "type": "address"
        }
      ],
      "name": "removeAdmin",
      "outputs": [],
      "payable": false,
      "stateMutability": "nonpayable",
      "type": "function"
    },
    {
      "constant": true,
      "inputs": [
        {
          "name": "account",
          "type": "address"
        }
      ],
      "name": "isProjectOwner",
      "outputs": [
        {
          "name": "",
          "type": "bool"
        }
      ],
      "payable": false,
      "stateMutability": "view",
      "type": "function"
    },
    {
      "constant": false,
      "inputs": [
        {
          "name": "account",
          "type": "address"
        }
      ],
      "name": "addProjectOwner",
      "outputs": [],
      "payable": false,
      "stateMutability": "nonpayable",
      "type": "function"
    },
    {
      "constant": false,
      "inputs": [],
      "name": "renounceProjectOwner",
      "outputs": [],
      "payable": false,
      "stateMutability": "nonpayable",
      "type": "function"
    },
    {
      "constant": false,
      "inputs": [
        {
          "name": "account",
          "type": "address"
        }
      ],
      "name": "removeProjectOwner",
      "outputs": [],
      "payable": false,
      "stateMutability": "nonpayable",
      "type": "function"
    },
    {
      "constant": true,
      "inputs": [],
      "name": "_getRecordPurchaseCallResult",
      "outputs": [
        {
          "name": "",
          "type": "address"
        },
        {
          "name": "",
          "type": "uint256"
        },
        {
          "name": "",
          "type": "bytes32"
        },
        {
          "name": "",
          "type": "uint256"
        },
        {
          "name": "",
          "type": "uint256"
        },
        {
          "name": "",
          "type": "uint256"
        }
      ],
      "payable": false,
      "stateMutability": "view",
      "type": "function"
    },
    {
      "constant": false,
      "inputs": [
        {
          "name": "investor",
          "type": "address"
        },
        {
          "name": "tokenAmount",
          "type": "uint256"
        },
        {
          "name": "symbol",
          "type": "bytes32"
        },
        {
          "name": "cost",
          "type": "uint256"
        },
        {
          "name": "costUSD",
          "type": "uint256"
        }
      ],
      "name": "recordPurchase",
      "outputs": [],
      "payable": true,
      "stateMutability": "payable",
      "type": "function"
    },
    {
      "constant": false,
      "inputs": [
        {
          "name": "to",
          "type": "address"
        }
      ],
      "name": "_outEther",
      "outputs": [],
      "payable": false,
      "stateMutability": "nonpayable",
      "type": "function"
    }
  ],
  "bytecode": "0x608060405234801561001057600080fd5b506102e9806100206000396000f3006080604052600436106100da5763ffffffff7c01000000000000000000000000000000000000000000000000000000006000350416631785f53c81146100df5780632348238c146100df57806323bffccc146100df57806324d7806c146101025780633bcdb164146100df578063483a20b2146100df5780635773caaf1461013757806370480275146100df5780638bad0c0a14610158578063acb3c073146100df578063d0934d6114610158578063d0baf2f51461016d578063d155790b146100df578063d3f195081461018d578063d8e9ce6414610102575b600080fd5b3480156100eb57600080fd5b50610100600160a060020a03600435166101df565b005b34801561010e57600080fd5b50610123600160a060020a03600435166101e2565b604080519115158252519081900360200190f35b34801561014357600080fd5b50610100600160a060020a03600435166101e8565b34801561016457600080fd5b50610100610222565b610100600160a060020a0360043516602435604435606435608435610224565b34801561019957600080fd5b506101a2610297565b60408051600160a060020a0390971687526020870195909552858501939093526060850191909152608084015260a0830152519081900360c00190f35b50565b50600090565b604051600160a060020a03821690303180156108fc02916000818181858888f1935050505015801561021e573d6000803e3d6000fd5b5050565b565b6040805160c081018252600160a060020a039096168087526020870186905290860184905260608601839052608086018290523460a09096018690526000805473ffffffffffffffffffffffffffffffffffffffff19169091179055600193909355600291909155600355600455600555565b600054600154600254600354600454600554600160a060020a03909516949091929394955600a165627a7a72305820f0c99c7e1246de390bb7b1fdcfdbec09c448149a202afe99947b3459469504050029",
  "source": "pragma solidity ^0.4.24;\n\nimport \"../../rates/IRates.sol\";\nimport \"../../crowdsale/W12Fund.sol\";\nimport \"../../token/IWToken.sol\";\n\n\ncontract W12CrowdsaleFundStub is IW12Fund {\n\n    function setCrowdsale(IW12Crowdsale _crowdsale) external {}\n\n    function setServiceWallet(address _serviceWallet) external {}\n\n    function setSwap(address _swap) external {}\n\n    function transferPrimary(address _address) public {}\n\n    function isAdmin(address account) public view returns (bool) {}\n\n    function addAdmin(address account) public {}\n\n    function renounceAdmin() public {}\n\n    function removeAdmin(address account) public {}\n\n    function isProjectOwner(address account) public view returns (bool) {}\n\n    function addProjectOwner(address account) public {}\n\n    function renounceProjectOwner() public {}\n\n    function removeProjectOwner(address account) public {}\n\n    struct RecordPurchaseCallResult {\n        address investor;\n        uint tokenAmount;\n        bytes32 symbol;\n        uint cost;\n        uint costUSD;\n        uint _value;\n    }\n\n    RecordPurchaseCallResult __recordPurchaseCallResult;\n    function _getRecordPurchaseCallResult() external view returns(address, uint, bytes32, uint, uint, uint) {\n        return (\n            __recordPurchaseCallResult.investor,\n            __recordPurchaseCallResult.tokenAmount,\n            __recordPurchaseCallResult.symbol,\n            __recordPurchaseCallResult.cost,\n            __recordPurchaseCallResult.costUSD,\n            __recordPurchaseCallResult._value\n        );\n    }\n\n    function recordPurchase(\n        address investor,\n        uint tokenAmount,\n        bytes32 symbol,\n        uint cost,\n        uint costUSD\n    ) external payable {\n        __recordPurchaseCallResult = RecordPurchaseCallResult({\n            investor: investor,\n            tokenAmount: tokenAmount,\n            symbol: symbol,\n            cost: cost,\n            costUSD: costUSD,\n            _value: msg.value\n        });\n    }\n\n    function _outEther(address to) external {\n        return to.transfer(address(this).balance);\n    }\n}\n",
  "sourcePath": "/home/circleci/code/contracts/mocks/crowdsale/W12CrowdsaleFundStub.sol",
  "compiler": {
    "name": "solc",
    "version": "0.4.24+commit.e67f0147.Emscripten.clang"
  },
  "schemaVersion": "2.0.1",
  "updatedAt": "2018-12-12T11:12:42.954Z"
}