{
  "contractName": "W12CrowdsaleFactory",
  "abi": [
    {
      "inputs": [
        {
          "name": "version",
          "type": "uint256"
        },
        {
          "name": "_fundFactory",
          "type": "address"
        },
        {
          "name": "_rates",
          "type": "address"
        }
      ],
      "payable": false,
      "stateMutability": "nonpayable",
      "type": "constructor"
    },
    {
      "anonymous": false,
      "inputs": [
        {
          "indexed": true,
          "name": "token",
          "type": "address"
        },
        {
          "indexed": false,
          "name": "crowdsaleAddress",
          "type": "address"
        },
        {
          "indexed": false,
          "name": "fundAddress",
          "type": "address"
        }
      ],
      "name": "CrowdsaleCreated",
      "type": "event"
    },
    {
      "constant": false,
      "inputs": [
        {
          "name": "tokenAddress",
          "type": "address"
        },
        {
          "name": "wTokenAddress",
          "type": "address"
        },
        {
          "name": "price",
          "type": "uint256"
        },
        {
          "name": "serviceWallet",
          "type": "address"
        },
        {
          "name": "serviceFee",
          "type": "uint256"
        },
        {
          "name": "WTokenSaleFeePercent",
          "type": "uint256"
        },
        {
          "name": "trancheFeePercent",
          "type": "uint256"
        },
        {
          "name": "swap",
          "type": "address"
        },
        {
          "name": "owners",
          "type": "address[]"
        }
      ],
      "name": "createCrowdsale",
      "outputs": [
        {
          "name": "result",
          "type": "address"
        }
      ],
      "payable": false,
      "stateMutability": "nonpayable",
      "type": "function"
    }
  ],
  "bytecode": "0x608060405234801561001057600080fd5b50604051606080610f76833981018060405281019080805190602001909291908051906020019092919080519060200190929190505050600073ffffffffffffffffffffffffffffffffffffffff168273ffffffffffffffffffffffffffffffffffffffff161415151561008357600080fd5b600073ffffffffffffffffffffffffffffffffffffffff168173ffffffffffffffffffffffffffffffffffffffff16141515156100bf57600080fd5b816000806101000a81548173ffffffffffffffffffffffffffffffffffffffff021916908373ffffffffffffffffffffffffffffffffffffffff16021790555080600160006101000a81548173ffffffffffffffffffffffffffffffffffffffff021916908373ffffffffffffffffffffffffffffffffffffffff160217905550505050610e24806101526000396000f300608060405260043610610041576000357c0100000000000000000000000000000000000000000000000000000000900463ffffffff168063868b16d914610046575b600080fd5b34801561005257600080fd5b50610127600480360381019080803573ffffffffffffffffffffffffffffffffffffffff169060200190929190803573ffffffffffffffffffffffffffffffffffffffff16906020019092919080359060200190929190803573ffffffffffffffffffffffffffffffffffffffff169060200190929190803590602001909291908035906020019092919080359060200190929190803573ffffffffffffffffffffffffffffffffffffffff169060200190929190803590602001908201803590602001919091929391929390505050610169565b604051808273ffffffffffffffffffffffffffffffffffffffff1673ffffffffffffffffffffffffffffffffffffffff16815260200191505060405180910390f35b60008060008060009054906101000a900473ffffffffffffffffffffffffffffffffffffffff1673ffffffffffffffffffffffffffffffffffffffff166317444626878c8a6040518463ffffffff167c0100000000000000000000000000000000000000000000000000000000028152600401808473ffffffffffffffffffffffffffffffffffffffff1673ffffffffffffffffffffffffffffffffffffffff1681526020018373ffffffffffffffffffffffffffffffffffffffff1673ffffffffffffffffffffffffffffffffffffffff1681526020018281526020019350505050602060405180830381600087803b15801561026657600080fd5b505af115801561027a573d6000803e3d6000fd5b505050506040513d602081101561029057600080fd5b81019080805190602001909291905050509150600260009054906101000a900473ffffffffffffffffffffffffffffffffffffffff1673ffffffffffffffffffffffffffffffffffffffff16632dfc72138e8e8e8e8b8f8f8a600160009054906101000a900473ffffffffffffffffffffffffffffffffffffffff166040518a63ffffffff167c0100000000000000000000000000000000000000000000000000000000028152600401808a73ffffffffffffffffffffffffffffffffffffffff1673ffffffffffffffffffffffffffffffffffffffff1681526020018973ffffffffffffffffffffffffffffffffffffffff1673ffffffffffffffffffffffffffffffffffffffff1681526020018881526020018773ffffffffffffffffffffffffffffffffffffffff1673ffffffffffffffffffffffffffffffffffffffff1681526020018673ffffffffffffffffffffffffffffffffffffffff1673ffffffffffffffffffffffffffffffffffffffff1681526020018581526020018481526020018373ffffffffffffffffffffffffffffffffffffffff1673ffffffffffffffffffffffffffffffffffffffff1681526020018273ffffffffffffffffffffffffffffffffffffffff1673ffffffffffffffffffffffffffffffffffffffff1681526020019950505050505050505050602060405180830381600087803b15801561049e57600080fd5b505af11580156104b2573d6000803e3d6000fd5b505050506040513d60208110156104c857600080fd5b810190808051906020019092919050505092508173ffffffffffffffffffffffffffffffffffffffff1663483a20b2846040518263ffffffff167c0100000000000000000000000000000000000000000000000000000000028152600401808273ffffffffffffffffffffffffffffffffffffffff1673ffffffffffffffffffffffffffffffffffffffff168152602001915050600060405180830381600087803b15801561057657600080fd5b505af115801561058a573d6000803e3d6000fd5b505050508173ffffffffffffffffffffffffffffffffffffffff166370480275846040518263ffffffff167c0100000000000000000000000000000000000000000000000000000000028152600401808273ffffffffffffffffffffffffffffffffffffffff1673ffffffffffffffffffffffffffffffffffffffff168152602001915050600060405180830381600087803b15801561062957600080fd5b505af115801561063d573d6000803e3d6000fd5b50505050600090505b8484905081101561087e57600073ffffffffffffffffffffffffffffffffffffffff16858583818110151561067757fe5b9050602002013573ffffffffffffffffffffffffffffffffffffffff1673ffffffffffffffffffffffffffffffffffffffff16141515156106b757600080fd5b8273ffffffffffffffffffffffffffffffffffffffff16633bcdb16486868481811015156106e157fe5b9050602002013573ffffffffffffffffffffffffffffffffffffffff166040518263ffffffff167c0100000000000000000000000000000000000000000000000000000000028152600401808273ffffffffffffffffffffffffffffffffffffffff1673ffffffffffffffffffffffffffffffffffffffff168152602001915050600060405180830381600087803b15801561077c57600080fd5b505af1158015610790573d6000803e3d6000fd5b505050508173ffffffffffffffffffffffffffffffffffffffff16633bcdb16486868481811015156107be57fe5b9050602002013573ffffffffffffffffffffffffffffffffffffffff166040518263ffffffff167c0100000000000000000000000000000000000000000000000000000000028152600401808273ffffffffffffffffffffffffffffffffffffffff1673ffffffffffffffffffffffffffffffffffffffff168152602001915050600060405180830381600087803b15801561085957600080fd5b505af115801561086d573d6000803e3d6000fd5b505050508080600101915050610646565b8173ffffffffffffffffffffffffffffffffffffffff166370480275336040518263ffffffff167c0100000000000000000000000000000000000000000000000000000000028152600401808273ffffffffffffffffffffffffffffffffffffffff1673ffffffffffffffffffffffffffffffffffffffff168152602001915050600060405180830381600087803b15801561091957600080fd5b505af115801561092d573d6000803e3d6000fd5b505050508173ffffffffffffffffffffffffffffffffffffffff16632348238c336040518263ffffffff167c0100000000000000000000000000000000000000000000000000000000028152600401808273ffffffffffffffffffffffffffffffffffffffff1673ffffffffffffffffffffffffffffffffffffffff168152602001915050600060405180830381600087803b1580156109cc57600080fd5b505af11580156109e0573d6000803e3d6000fd5b505050508173ffffffffffffffffffffffffffffffffffffffff16638bad0c0a6040518163ffffffff167c0100000000000000000000000000000000000000000000000000000000028152600401600060405180830381600087803b158015610a4857600080fd5b505af1158015610a5c573d6000803e3d6000fd5b505050508173ffffffffffffffffffffffffffffffffffffffff1663d0934d616040518163ffffffff167c0100000000000000000000000000000000000000000000000000000000028152600401600060405180830381600087803b158015610ac457600080fd5b505af1158015610ad8573d6000803e3d6000fd5b505050508273ffffffffffffffffffffffffffffffffffffffff166370480275336040518263ffffffff167c0100000000000000000000000000000000000000000000000000000000028152600401808273ffffffffffffffffffffffffffffffffffffffff1673ffffffffffffffffffffffffffffffffffffffff168152602001915050600060405180830381600087803b158015610b7757600080fd5b505af1158015610b8b573d6000803e3d6000fd5b505050508273ffffffffffffffffffffffffffffffffffffffff16632348238c336040518263ffffffff167c0100000000000000000000000000000000000000000000000000000000028152600401808273ffffffffffffffffffffffffffffffffffffffff1673ffffffffffffffffffffffffffffffffffffffff168152602001915050600060405180830381600087803b158015610c2a57600080fd5b505af1158015610c3e573d6000803e3d6000fd5b505050508273ffffffffffffffffffffffffffffffffffffffff16638bad0c0a6040518163ffffffff167c0100000000000000000000000000000000000000000000000000000000028152600401600060405180830381600087803b158015610ca657600080fd5b505af1158015610cba573d6000803e3d6000fd5b505050508273ffffffffffffffffffffffffffffffffffffffff1663d0934d616040518163ffffffff167c0100000000000000000000000000000000000000000000000000000000028152600401600060405180830381600087803b158015610d2257600080fd5b505af1158015610d36573d6000803e3d6000fd5b505050508b73ffffffffffffffffffffffffffffffffffffffff167f50c0bc8e997d259dfe177ef636db3fee4d2e51ba70b0cc2d920e44584a7943268484604051808373ffffffffffffffffffffffffffffffffffffffff1673ffffffffffffffffffffffffffffffffffffffff1681526020018273ffffffffffffffffffffffffffffffffffffffff1673ffffffffffffffffffffffffffffffffffffffff1681526020019250505060405180910390a250509a99505050505050505050505600a165627a7a72305820970e8356de71d6831c67178f64defd5bf2a0b817c293f202b96c78ee9d7089d00029",
  "source": "pragma solidity 0.4.24;\n\nimport \"./IW12CrowdsaleFactory.sol\";\nimport \"./IW12FundFactory.sol\";\nimport \"../../rates/IRates.sol\";\n\nimport \"./IW12CrowdsaleFactory2.sol\";\n\n\n\ncontract W12CrowdsaleFactory is IW12CrowdsaleFactory {\n    IW12FundFactory private fundFactory;\n    IRates private rates;\n\n    IW12CrowdsaleFactory2 base_crowdsale;\n\n    event CrowdsaleCreated(address indexed token, address crowdsaleAddress, address fundAddress);\n\n    constructor(uint version, IW12FundFactory _fundFactory, IRates _rates) public {\n        require(_fundFactory != address(0));\n        require(_rates != address(0));\n\n        fundFactory = _fundFactory;\n        rates = _rates;\n    }\n\n    function createCrowdsale(\n        address tokenAddress,\n        address wTokenAddress,\n        uint price,\n        address serviceWallet,\n        uint serviceFee,\n        uint WTokenSaleFeePercent,\n        uint trancheFeePercent,\n        address swap,\n        address[] owners\n    )\n        external returns (IW12Crowdsale result)\n    {\n        IW12Fund fund = fundFactory.createFund(swap, serviceWallet, trancheFeePercent);\n\n        result = IW12Crowdsale(base_crowdsale.create(\n            tokenAddress,\n            wTokenAddress,\n            price,\n            serviceWallet,\n            swap,\n            serviceFee,\n            WTokenSaleFeePercent,\n            IW12Fund(fund),\n            IRates(rates)\n        ));\n\n        fund.setCrowdsale(result);\n        // make crowdsale a admin\n        fund.addAdmin(address(result));\n\n        // give the project owner role to addresses from owners list\n        for(uint i = 0; i < owners.length; i++) {\n            require(owners[i] != address(0));\n\n            result.addProjectOwner(owners[i]);\n            fund.addProjectOwner(owners[i]);\n        }\n\n        // transfer all permissions to sender\n        fund.addAdmin(msg.sender);\n        fund.transferPrimary(msg.sender);\n        fund.renounceAdmin();\n        fund.renounceProjectOwner();\n\n        // transfer all permissions to sender\n        result.addAdmin(msg.sender);\n        result.transferPrimary(msg.sender);\n        result.renounceAdmin();\n        result.renounceProjectOwner();\n\n        emit CrowdsaleCreated(wTokenAddress, address(result), address(fund));\n    }\n}\n",
  "sourcePath": "/Users/gauss/_games/w12/Protocol/contracts/crowdsale/factories/W12CrowdsaleFactory.sol",
  "compiler": {
    "name": "solc",
    "version": "0.4.24+commit.e67f0147.Emscripten.clang"
  },
  "schemaVersion": "3.0.16",
  "updatedAt": "2019-10-06T23:01:22.059Z",
  "devdoc": {
    "methods": {}
  },
  "userdoc": {
    "methods": {}
  }
}