{
  "contractName": "W12CrowdsaleFactory",
  "abi": [
    {
      "inputs": [
        {
          "name": "_fundFactory",
          "type": "address"
        }
      ],
      "payable": false,
      "stateMutability": "nonpayable",
      "type": "constructor"
    },
    {
      "anonymous": false,
      "inputs": [
        {
          "indexed": true,
          "name": "owner",
          "type": "address"
        },
        {
          "indexed": true,
          "name": "token",
          "type": "address"
        },
        {
          "indexed": false,
          "name": "startDate",
          "type": "uint32"
        },
        {
          "indexed": false,
          "name": "crowdsaleAddress",
          "type": "address"
        },
        {
          "indexed": false,
          "name": "fundAddress",
          "type": "address"
        }
      ],
      "name": "CrowdsaleCreated",
      "type": "event"
    },
    {
      "constant": false,
      "inputs": [
        {
          "name": "wTokenAddress",
          "type": "address"
        },
        {
          "name": "startDate",
          "type": "uint32"
        },
        {
          "name": "price",
          "type": "uint256"
        },
        {
          "name": "serviceWallet",
          "type": "address"
        },
        {
          "name": "serviceFee",
          "type": "uint256"
        },
        {
          "name": "swap",
          "type": "address"
        },
        {
          "name": "owner",
          "type": "address"
        }
      ],
      "name": "createCrowdsale",
      "outputs": [
        {
          "name": "result",
          "type": "address"
        }
      ],
      "payable": false,
      "stateMutability": "nonpayable",
      "type": "function"
    }
  ],
  "bytecode": "0x608060405234801561001057600080fd5b506040516020806144b383398101806040528101908080519060200190929190505050600073ffffffffffffffffffffffffffffffffffffffff168173ffffffffffffffffffffffffffffffffffffffff16141515156100d8576040517f08c379a00000000000000000000000000000000000000000000000000000000081526004018080602001828103825260188152602001807f466163746f72792061646472657373207265717569726564000000000000000081525060200191505060405180910390fd5b806000806101000a81548173ffffffffffffffffffffffffffffffffffffffff021916908373ffffffffffffffffffffffffffffffffffffffff1602179055505061438b806101286000396000f300608060405260043610610041576000357c0100000000000000000000000000000000000000000000000000000000900463ffffffff168063881b5f1814610046575b600080fd5b34801561005257600080fd5b5061010b600480360381019080803573ffffffffffffffffffffffffffffffffffffffff169060200190929190803563ffffffff16906020019092919080359060200190929190803573ffffffffffffffffffffffffffffffffffffffff16906020019092919080359060200190929190803573ffffffffffffffffffffffffffffffffffffffff169060200190929190803573ffffffffffffffffffffffffffffffffffffffff16906020019092919050505061014d565b604051808273ffffffffffffffffffffffffffffffffffffffff1673ffffffffffffffffffffffffffffffffffffffff16815260200191505060405180910390f35b6000806000809054906101000a900473ffffffffffffffffffffffffffffffffffffffff1673ffffffffffffffffffffffffffffffffffffffff1663d7772da2856040518263ffffffff167c0100000000000000000000000000000000000000000000000000000000028152600401808273ffffffffffffffffffffffffffffffffffffffff1673ffffffffffffffffffffffffffffffffffffffff168152602001915050602060405180830381600087803b15801561020c57600080fd5b505af1158015610220573d6000803e3d6000fd5b505050506040513d602081101561023657600080fd5b81019080805190602001909291905050509050888973ffffffffffffffffffffffffffffffffffffffff1663313ce5676040518163ffffffff167c0100000000000000000000000000000000000000000000000000000000028152600401602060405180830381600087803b1580156102ae57600080fd5b505af11580156102c2573d6000803e3d6000fd5b505050506040513d60208110156102d857600080fd5b810190808051906020019092919050505089898989866102f66106db565b808873ffffffffffffffffffffffffffffffffffffffff1673ffffffffffffffffffffffffffffffffffffffff1681526020018760ff1681526020018663ffffffff1663ffffffff1681526020018581526020018473ffffffffffffffffffffffffffffffffffffffff1673ffffffffffffffffffffffffffffffffffffffff1681526020018381526020018273ffffffffffffffffffffffffffffffffffffffff1673ffffffffffffffffffffffffffffffffffffffff168152602001975050505050505050604051809103906000f0801580156103d9573d6000803e3d6000fd5b5091508173ffffffffffffffffffffffffffffffffffffffff1663f2fde38b846040518263ffffffff167c0100000000000000000000000000000000000000000000000000000000028152600401808273ffffffffffffffffffffffffffffffffffffffff1673ffffffffffffffffffffffffffffffffffffffff168152602001915050600060405180830381600087803b15801561047757600080fd5b505af115801561048b573d6000803e3d6000fd5b505050508073ffffffffffffffffffffffffffffffffffffffff1663483a20b2836040518263ffffffff167c0100000000000000000000000000000000000000000000000000000000028152600401808273ffffffffffffffffffffffffffffffffffffffff1673ffffffffffffffffffffffffffffffffffffffff168152602001915050600060405180830381600087803b15801561052a57600080fd5b505af115801561053e573d6000803e3d6000fd5b505050508073ffffffffffffffffffffffffffffffffffffffff1663f2fde38b846040518263ffffffff167c0100000000000000000000000000000000000000000000000000000000028152600401808273ffffffffffffffffffffffffffffffffffffffff1673ffffffffffffffffffffffffffffffffffffffff168152602001915050600060405180830381600087803b1580156105dd57600080fd5b505af11580156105f1573d6000803e3d6000fd5b505050508873ffffffffffffffffffffffffffffffffffffffff168373ffffffffffffffffffffffffffffffffffffffff167fed25eb23596fb8771d2e1e79182ae4c1e2c0e9d7f8718b8e52c92a7ecd154c8c8a600085604051808463ffffffff1663ffffffff1681526020018373ffffffffffffffffffffffffffffffffffffffff1673ffffffffffffffffffffffffffffffffffffffff1681526020018273ffffffffffffffffffffffffffffffffffffffff1673ffffffffffffffffffffffffffffffffffffffff168152602001935050505060405180910390a350979650505050505050565b604051613c74806106ec8339019056006080604052600180553480156200001557600080fd5b5060405160e08062003c7483398101806040528101908080519060200190929190805190602001909291908051906020019092919080519060200190929190805190602001909291908051906020019092919080519060200190929190505050336000806101000a81548173ffffffffffffffffffffffffffffffffffffffff021916908373ffffffffffffffffffffffffffffffffffffffff160217905550600073ffffffffffffffffffffffffffffffffffffffff168773ffffffffffffffffffffffffffffffffffffffff1614151515620000f257600080fd5b62000111826200023e6401000000000262003456176401000000009004565b80156200013c575060646200013a836200025b640100000000026200385c176401000000009004565b105b15156200014857600080fd5b600073ffffffffffffffffffffffffffffffffffffffff168173ffffffffffffffffffffffffffffffffffffffff16141515156200018557600080fd5b86600260006101000a81548173ffffffffffffffffffffffffffffffffffffffff021916908373ffffffffffffffffffffffffffffffffffffffff16021790555085600381905550620001e9858585620002ae640100000000026401000000009004565b8160068190555080600860006101000a81548173ffffffffffffffffffffffffffffffffffffffff021916908373ffffffffffffffffffffffffffffffffffffffff16021790555050505050505050620003ab565b6000606482101580156200025457506127108211155b9050919050565b600062000277826200023e640100000000026401000000009004565b15156200028357600080fd5b620002a76064836200037f6401000000000262003192179091906401000000009004565b9050919050565b428363ffffffff1610151515620002c457600080fd5b600082111515620002d457600080fd5b600073ffffffffffffffffffffffffffffffffffffffff168173ffffffffffffffffffffffffffffffffffffffff16141515156200031157600080fd5b82600460006101000a81548163ffffffff021916908363ffffffff1602179055508160058190555080600760006101000a81548173ffffffffffffffffffffffffffffffffffffffff021916908373ffffffffffffffffffffffffffffffffffffffff160217905550505050565b6000806000831115156200039257600080fd5b82848115156200039e57fe5b0490508091505092915050565b6138b980620003bb6000396000f300608060405260043610610180576000357c0100000000000000000000000000000000000000000000000000000000900463ffffffff1680630b97bc861461018a5780630d544ffe146101c15780630ee62c77146102445780632442e1cb146102c6578063299a017c1461041e5780632c9a4bab14610560578063313602d4146105cb5780633baba4d7146105e25780634090cb641461060d578063521b7499146106645780635641f3c3146106c1578063715018a61461071857806372e6a8811461072f578063792c02ea1461077c578063845ddcb2146107a75780638abdf5aa146108275780638da5cb5b146108525780638edd6eb6146108a95780639bed31e414610900578063a035b1fe1461095d578063a4fd6f5614610988578063b1356488146109b7578063b60d4288146109ee578063d0febe4c14610a45578063d6d65f3d14610a4f578063e89e4ed614610a7a578063eedbe31d14610bd2578063f12585f514610c52578063f2fde38b14610cd4578063fc0c546a14610d17575b610188610d6e565b005b34801561019657600080fd5b5061019f6112b0565b604051808263ffffffff1663ffffffff16815260200191505060405180910390f35b3480156101cd57600080fd5b506102426004803603810190808035906020019082018035906020019190919293919293908035906020019082018035906020019190919293919293908035906020019082018035906020019190919293919293908035906020019082018035906020019190919293919293905050506112c6565b005b34801561025057600080fd5b5061026f60048036038101908080359060200190929190505050611910565b6040518080602001828103825283818151815260200191508051906020019060200280838360005b838110156102b2578082015181840152602081019050610297565b505050509050019250505060405180910390f35b3480156102d257600080fd5b506102f1600480360381019080803590602001909291905050506119ae565b604051808763ffffffff1663ffffffff1681526020018660ff1660ff1681526020018563ffffffff1663ffffffff1681526020018463ffffffff1663ffffffff1681526020018060200180602001838103835285818151815260200191508051906020019080838360005b8381101561037757808201518184015260208101905061035c565b50505050905090810190601f1680156103a45780820380516001836020036101000a031916815260200191505b50838103825284818151815260200191508051906020019080838360005b838110156103dd5780820151818401526020810190506103c2565b50505050905090810190601f16801561040a5780820380516001836020036101000a031916815260200191505b509850505050505050505060405180910390f35b34801561042a57600080fd5b50610433611c05565b604051808763ffffffff1663ffffffff1681526020018660ff1660ff1681526020018563ffffffff1663ffffffff1681526020018463ffffffff1663ffffffff1681526020018060200180602001838103835285818151815260200191508051906020019080838360005b838110156104b957808201518184015260208101905061049e565b50505050905090810190601f1680156104e65780820380516001836020036101000a031916815260200191505b50838103825284818151815260200191508051906020019080838360005b8381101561051f578082015181840152602081019050610504565b50505050905090810190601f16801561054c5780820380516001836020036101000a031916815260200191505b509850505050505050505060405180910390f35b34801561056c57600080fd5b506105c9600480360381019080803590602001908201803590602001919091929391929390803590602001908201803590602001919091929391929390803590602001908201803590602001919091929391929390505050611c38565b005b3480156105d757600080fd5b506105e061240d565b005b3480156105ee57600080fd5b506105f76126a0565b6040518082815260200191505060405180910390f35b34801561061957600080fd5b506106226126ad565b604051808273ffffffffffffffffffffffffffffffffffffffff1673ffffffffffffffffffffffffffffffffffffffff16815260200191505060405180910390f35b34801561067057600080fd5b506106bf600480360381019080803590602001909291908035906020019082018035906020019190919293919293908035906020019082018035906020019190919293919293905050506126d7565b005b3480156106cd57600080fd5b506106d661283e565b604051808273ffffffffffffffffffffffffffffffffffffffff1673ffffffffffffffffffffffffffffffffffffffff16815260200191505060405180910390f35b34801561072457600080fd5b5061072d612864565b005b34801561073b57600080fd5b5061075a60048036038101908080359060200190929190505050612966565b604051808263ffffffff1663ffffffff16815260200191505060405180910390f35b34801561078857600080fd5b5061079161299f565b6040518082815260200191505060405180910390f35b3480156107b357600080fd5b506107d2600480360381019080803590602001909291905050506129ac565b604051808563ffffffff1663ffffffff1681526020018463ffffffff1663ffffffff1681526020018360ff1660ff1681526020018263ffffffff1663ffffffff16815260200194505050505060405180910390f35b34801561083357600080fd5b5061083c612a28565b6040518082815260200191505060405180910390f35b34801561085e57600080fd5b50610867612a2e565b604051808273ffffffffffffffffffffffffffffffffffffffff1673ffffffffffffffffffffffffffffffffffffffff16815260200191505060405180910390f35b3480156108b557600080fd5b506108be612a53565b604051808273ffffffffffffffffffffffffffffffffffffffff1673ffffffffffffffffffffffffffffffffffffffff16815260200191505060405180910390f35b34801561090c57600080fd5b5061095b600480360381019080803563ffffffff16906020019092919080359060200190929190803573ffffffffffffffffffffffffffffffffffffffff169060200190929190505050612a7d565b005b34801561096957600080fd5b50610972612b0e565b6040518082815260200191505060405180910390f35b34801561099457600080fd5b5061099d612b14565b604051808215151515815260200191505060405180910390f35b3480156109c357600080fd5b506109cc612b6b565b604051808263ffffffff1663ffffffff16815260200191505060405180910390f35b3480156109fa57600080fd5b50610a03612bbe565b604051808273ffffffffffffffffffffffffffffffffffffffff1673ffffffffffffffffffffffffffffffffffffffff16815260200191505060405180910390f35b610a4d610d6e565b005b348015610a5b57600080fd5b50610a64612be4565b6040518082815260200191505060405180910390f35b348015610a8657600080fd5b50610aa560048036038101908080359060200190929190505050612c62565b604051808763ffffffff1663ffffffff1681526020018660ff1660ff1681526020018563ffffffff1663ffffffff1681526020018463ffffffff1663ffffffff1681526020018060200180602001838103835285818151815260200191508051906020019080838360005b83811015610b2b578082015181840152602081019050610b10565b50505050905090810190601f168015610b585780820380516001836020036101000a031916815260200191505b50838103825284818151815260200191508051906020019080838360005b83811015610b91578082015181840152602081019050610b76565b50505050905090810190601f168015610bbe5780820380516001836020036101000a031916815260200191505b509850505050505050505060405180910390f35b348015610bde57600080fd5b50610be7612e1a565b604051808560ff1660ff1681526020018463ffffffff1663ffffffff1681526020018360ff1660ff16815260200182600260200280838360005b83811015610c3c578082015181840152602081019050610c21565b5050505090500194505050505060405180910390f35b348015610c5e57600080fd5b50610c7d6004803603810190808035906020019092919050505061304f565b6040518080602001828103825283818151815260200191508051906020019060200280838360005b83811015610cc0578082015181840152602081019050610ca5565b505050509050019250505060405180910390f35b348015610ce057600080fd5b50610d15600480360381019080803573ffffffffffffffffffffffffffffffffffffffff1690602001909291905050506130c7565b005b348015610d2357600080fd5b50610d2c61312e565b604051808273ffffffffffffffffffffffffffffffffffffffff1673ffffffffffffffffffffffffffffffffffffffff16815260200191505060405180910390f35b6000806000610d7b613472565b6000806000600180600082825401925050819055506001549050600034111515610da457600080fd5b42600460009054906101000a900463ffffffff1663ffffffff1611151515610dcb57600080fd5b610dd3612b14565b151515610ddf57600080fd5b6000600980549050111515610df357600080fd5b610dfb612e1a565b965096509650965060006009805490501415610e5d573373ffffffffffffffffffffffffffffffffffffffff166108fc349081150290604051600060405180830381858888f19350505050158015610e57573d6000803e3d6000fd5b50611297565b42846000600281101515610e6d57fe5b602002015163ffffffff1611158015610e9e575042846001600281101515610e9157fe5b602002015163ffffffff16115b1515610f12576040517f08c379a00000000000000000000000000000000000000000000000000000000081526004018080602001828103825260158152602001807f537461676520776173206e6f742073746172746564000000000000000000000081525060200191505060405180910390fd5b60008760ff1611610f2557600554610f54565b610f536064610f458960640360ff1660055461315490919063ffffffff16565b61319290919063ffffffff16565b5b9250610f9b600260035403600a0a610f8d85610f7f8960640160ff163461315490919063ffffffff16565b61319290919063ffffffff16565b61315490919063ffffffff16565b9150600260009054906101000a900473ffffffffffffffffffffffffffffffffffffffff1673ffffffffffffffffffffffffffffffffffffffff16639d2e47773384896040518463ffffffff167c0100000000000000000000000000000000000000000000000000000000028152600401808473ffffffffffffffffffffffffffffffffffffffff1673ffffffffffffffffffffffffffffffffffffffff1681526020018381526020018263ffffffff1663ffffffff1681526020019350505050602060405180830381600087803b15801561107657600080fd5b505af115801561108a573d6000803e3d6000fd5b505050506040513d60208110156110a057600080fd5b810190808051906020019092919050505015156110bc57600080fd5b6000600654111561114557600760009054906101000a900473ffffffffffffffffffffffffffffffffffffffff1673ffffffffffffffffffffffffffffffffffffffff166108fc611118600654346131bc90919063ffffffff16565b9081150290604051600060405180830381858888f19350505050158015611143573d6000803e3d6000fd5b505b600860009054906101000a900473ffffffffffffffffffffffffffffffffffffffff1673ffffffffffffffffffffffffffffffffffffffff1663958799cb3073ffffffffffffffffffffffffffffffffffffffff1631620186a09033866040518563ffffffff167c0100000000000000000000000000000000000000000000000000000000028152600401808373ffffffffffffffffffffffffffffffffffffffff1673ffffffffffffffffffffffffffffffffffffffff168152602001828152602001925050506000604051808303818589803b15801561122657600080fd5b5088f115801561123a573d6000803e3d6000fd5b5050505050503373ffffffffffffffffffffffffffffffffffffffff167fcd60aa75dea3072fbc07ae6d7d856b5dc5f4eee88854f5b4abf7b680ef8bc50f3484604051808381526020018281526020019250505060405180910390a25b600154811415156112a757600080fd5b50505050505050565b600460009054906101000a900463ffffffff1681565b60008060006060806000809054906101000a900473ffffffffffffffffffffffffffffffffffffffff1673ffffffffffffffffffffffffffffffffffffffff163373ffffffffffffffffffffffffffffffffffffffff1614151561132957600080fd5b42600460009054906101000a900463ffffffff1663ffffffff1611151561134f57600080fd5b7fffffffffffffffffffffffffffffffffffffffffffffffffffffffffffffffff60ff168d8d90501115151561138457600080fd5b60038d8d90501015151561139757600080fd5b600060038e8e90508115156113a857fe5b061415156113b557600080fd5b888890506113d060028d8d905061315490919063ffffffff16565b1415156113dc57600080fd5b8c8c90506113f760038d8d905061315490919063ffffffff16565b14151561140357600080fd5b60028b8b905002878790501015151561141b57600080fd5b6000945060009350600092505b8c8c905060ff168360ff1610156118dd57428d8d8560ff16818110151561144b57fe5b9050602002013563ffffffff1663ffffffff1611151561146a57600080fd5b8c8c8460ff16818110151561147b57fe5b9050602002013563ffffffff1663ffffffff168d8d6001860160ff1681811015156114a257fe5b9050602002013563ffffffff1663ffffffff16101515156114c257600080fd5b8c8c6001850160ff1681811015156114d657fe5b9050602002013563ffffffff1663ffffffff168d8d6002860160ff1681811015156114fd57fe5b9050602002013563ffffffff1663ffffffff161015151561151d57600080fd5b611599858a8a600260038860ff1681151561153457fe5b040260ff16818110151561154457fe5b9050602002013563ffffffff1663ffffffff1689898080601f0160208091040260200160405190810160405280939291908181526020018383808284378201915050505050506132019092919063ffffffff16565b91506116518989600260038760ff168115156115b157fe5b040260ff1681811015156115c157fe5b9050602002013563ffffffff1663ffffffff1686018a8a6001600260038960ff168115156115eb57fe5b04020160ff1681811015156115fc57fe5b9050602002013563ffffffff1663ffffffff1689898080601f0160208091040260200160405190810160405280939291908181526020018383808284378201915050505050506132019092919063ffffffff16565b90506000825111151561166357600080fd5b6000815111151561167357600080fd5b600a60c0604051908101604052808f8f8760ff16818110151561169257fe5b9050602002013563ffffffff1663ffffffff1681526020018d8d60038860ff168115156116bb57fe5b0460ff1681811015156116ca57fe5b9050602002013560ff1660ff1681526020018f8f6001880160ff1681811015156116f057fe5b9050602002013563ffffffff1663ffffffff1681526020018f8f6002880160ff16818110151561171c57fe5b9050602002013563ffffffff1663ffffffff168152602001848152602001838152509080600181540180825580915050906001820390600052602060002090600302016000909192909190915060008201518160000160006101000a81548163ffffffff021916908363ffffffff16021790555060208201518160000160046101000a81548160ff021916908360ff16021790555060408201518160000160056101000a81548163ffffffff021916908363ffffffff16021790555060608201518160000160096101000a81548163ffffffff021916908363ffffffff160217905550608082015181600101908051906020019061181b929190613494565b5060a0820151816002019080519060200190611838929190613494565b505050508888600160038660ff1681151561184f57fe5b040160ff16818110151561185f57fe5b9050602002013563ffffffff16898960038660ff1681151561187d57fe5b0460ff16818110151561188c57fe5b9050602002013563ffffffff160163ffffffff16850194508a8a60038560ff168115156118b557fe5b0460ff1681811015156118c457fe5b9050602002013560ff1684019350600383019250611428565b8c8c600b91906118ee929190613514565b5060648460ff1614151561190157600080fd5b50505050505050505050505050565b606060098281548110151561192157fe5b90600052602060002090600302016002018054806020026020016040519081016040528092919081815260200182805480156119a257602002820191906000526020600020906000905b82829054906101000a900460ff1660ff168152602001906001019060208260000104928301926001038202915080841161196b5790505b50505050509050919050565b600080600080606080600a878154811015156119c657fe5b906000526020600020906003020160000160009054906101000a900463ffffffff16600a888154811015156119f757fe5b906000526020600020906003020160000160049054906101000a900460ff16600a89815481101515611a2557fe5b906000526020600020906003020160000160059054906101000a900463ffffffff16600a8a815481101515611a5657fe5b906000526020600020906003020160000160099054906101000a900463ffffffff16600a8b815481101515611a8757fe5b9060005260206000209060030201600101600a8c815481101515611aa757fe5b9060005260206000209060030201600201818054600181600116156101000203166002900480601f016020809104026020016040519081016040528092919081815260200182805460018160011615610100020316600290048015611b4d5780601f10611b2257610100808354040283529160200191611b4d565b820191906000526020600020905b815481529060010190602001808311611b3057829003601f168201915b50505050509150808054600181600116156101000203166002900480601f016020809104026020016040519081016040528092919081815260200182805460018160011615610100020316600290048015611be95780601f10611bbe57610100808354040283529160200191611be9565b820191906000526020600020905b815481529060010190602001808311611bcc57829003601f168201915b5050505050905095509550955095509550955091939550919395565b6000806000806060806000611c18612be4565b9050611c23816119ae565b96509650965096509650965050909192939495565b6000806000809054906101000a900473ffffffffffffffffffffffffffffffffffffffff1673ffffffffffffffffffffffffffffffffffffffff163373ffffffffffffffffffffffffffffffffffffffff16141515611c9657600080fd5b42600460009054906101000a900463ffffffff1663ffffffff16111515611cbc57600080fd5b7fffffffffffffffffffffffffffffffffffffffffffffffffffffffffffffffff60ff168888905011151515611cf157600080fd5b600088889050111515611d0357600080fd5b8585905088889050141515611d1757600080fd5b8383905088889050141515611d2b57600080fd5b8787905091508160ff16600981611d4291906135ca565b50600090505b8160ff168160ff1610156123d757600086868360ff168181101515611d6957fe5b9050602002013560ff1660ff1610158015611da15750606486868360ff168181101515611d9257fe5b9050602002013560ff1660ff16105b1515611e3b576040517f08c379a000000000000000000000000000000000000000000000000000000000815260040180806020018281038252602f8152602001807f537461676520646973636f756e74206973206e6f7420696e20616c6c6f77656481526020017f2072616e6765205b302c2031303029000000000000000000000000000000000081525060400191505060405180910390fd5b87878260ff168181101515611e4c57fe5b9050604002016000600281101515611e6057fe5b602002013563ffffffff1663ffffffff16600460009054906101000a900463ffffffff1663ffffffff1611151515611f26576040517f08c379a00000000000000000000000000000000000000000000000000000000081526004018080602001828103825260308152602001807f53746167652073746172742064617465206d7573742062652067742063726f7781526020017f6473616c6520737461727420646174650000000000000000000000000000000081525060400191505060405180910390fd5b87878260ff168181101515611f3757fe5b9050604002016001600281101515611f4b57fe5b602002013563ffffffff1663ffffffff16600460009054906101000a900463ffffffff1663ffffffff16101515612010576040517f08c379a000000000000000000000000000000000000000000000000000000000815260040180806020018281038252602e8152602001807f537461676520656e642064617465206d7573742062652067742063726f77647381526020017f616c65207374617274206461746500000000000000000000000000000000000081525060400191505060405180910390fd5b87878260ff16818110151561202157fe5b905060400201600160028110151561203557fe5b602002013563ffffffff1663ffffffff1688888360ff16818110151561205757fe5b905060400201600060028110151561206b57fe5b602002013563ffffffff1663ffffffff16101515612117576040517f08c379a00000000000000000000000000000000000000000000000000000000081526004018080602001828103825260248152602001807f53746167652073746172742064617465206d75737420626520677420656e642081526020017f646174650000000000000000000000000000000000000000000000000000000081525060400191505060405180910390fd5b6001820360ff168160ff1610156122335787876001830160ff16818110151561213c57fe5b905060400201600060028110151561215057fe5b602002013563ffffffff1663ffffffff1688888360ff16818110151561217257fe5b905060400201600160028110151561218657fe5b602002013563ffffffff1663ffffffff16101515612232576040517f08c379a00000000000000000000000000000000000000000000000000000000081526004018080602001828103825260228152602001807f53746167657320617265206e6f7420696e20686973746f726963616c206f726481526020017f657200000000000000000000000000000000000000000000000000000000000081525060400191505060405180910390fd5b5b87878260ff16818110151561224457fe5b905060400201600060028110151561225857fe5b602002013563ffffffff1660098260ff1681548110151561227557fe5b906000526020600020906003020160000160006101000a81548163ffffffff021916908363ffffffff16021790555087878260ff1681811015156122b557fe5b90506040020160016002811015156122c957fe5b602002013563ffffffff1660098260ff168154811015156122e657fe5b906000526020600020906003020160000160046101000a81548163ffffffff021916908363ffffffff16021790555085858260ff16818110151561232657fe5b9050602002013560ff1660098260ff1681548110151561234257fe5b906000526020600020906003020160000160086101000a81548160ff021916908360ff16021790555083838260ff16818110151561237c57fe5b9050602002013563ffffffff1660098260ff1681548110151561239b57fe5b906000526020600020906003020160000160096101000a81548163ffffffff021916908363ffffffff1602179055508080600101915050611d48565b7f743961f4e677d1146fbf85d75565b1c5474fd083eb166f8b9595cf5d01a4d6e660405160405180910390a15050505050505050565b6000809054906101000a900473ffffffffffffffffffffffffffffffffffffffff1673ffffffffffffffffffffffffffffffffffffffff163373ffffffffffffffffffffffffffffffffffffffff1614151561246857600080fd5b612470612b14565b151561247b57600080fd5b600260009054906101000a900473ffffffffffffffffffffffffffffffffffffffff1673ffffffffffffffffffffffffffffffffffffffff1663a9059cbb6000809054906101000a900473ffffffffffffffffffffffffffffffffffffffff16600260009054906101000a900473ffffffffffffffffffffffffffffffffffffffff1673ffffffffffffffffffffffffffffffffffffffff166370a08231306040518263ffffffff167c0100000000000000000000000000000000000000000000000000000000028152600401808273ffffffffffffffffffffffffffffffffffffffff1673ffffffffffffffffffffffffffffffffffffffff168152602001915050602060405180830381600087803b15801561259857600080fd5b505af11580156125ac573d6000803e3d6000fd5b505050506040513d60208110156125c257600080fd5b81019080805190602001909291905050506040518363ffffffff167c0100000000000000000000000000000000000000000000000000000000028152600401808373ffffffffffffffffffffffffffffffffffffffff1673ffffffffffffffffffffffffffffffffffffffff16815260200182815260200192505050602060405180830381600087803b15801561265857600080fd5b505af115801561266c573d6000803e3d6000fd5b505050506040513d602081101561268257600080fd5b8101908080519060200190929190505050151561269e57600080fd5b565b6000600a80549050905090565b6000600260009054906101000a900473ffffffffffffffffffffffffffffffffffffffff16905090565b6000809054906101000a900473ffffffffffffffffffffffffffffffffffffffff1673ffffffffffffffffffffffffffffffffffffffff163373ffffffffffffffffffffffffffffffffffffffff1614151561273257600080fd5b42600460009054906101000a900463ffffffff1663ffffffff1611151561275857600080fd5b818190508484905014151561276c57600080fd5b6009805490508510151561277f57600080fd5b60098581548110151561278e57fe5b906000526020600020906003020160010160006127ab91906135fc565b6009858154811015156127ba57fe5b906000526020600020906003020160020160006127d7919061361d565b83836009878154811015156127e857fe5b90600052602060002090600302016001019190612806929190613645565b50818160098781548110151561281857fe5b90600052602060002090600302016002019190612836929190613692565b505050505050565b600760009054906101000a900473ffffffffffffffffffffffffffffffffffffffff1681565b6000809054906101000a900473ffffffffffffffffffffffffffffffffffffffff1673ffffffffffffffffffffffffffffffffffffffff163373ffffffffffffffffffffffffffffffffffffffff161415156128bf57600080fd5b6000809054906101000a900473ffffffffffffffffffffffffffffffffffffffff1673ffffffffffffffffffffffffffffffffffffffff167ff8df31144d9c2f0f6b59d69b8b98abd5459d07f2742c4df920b25aae33c6482060405160405180910390a260008060006101000a81548173ffffffffffffffffffffffffffffffffffffffff021916908373ffffffffffffffffffffffffffffffffffffffff160217905550565b600b8181548110151561297557fe5b9060005260206000209060089182820401919006600402915054906101000a900463ffffffff1681565b6000600980549050905090565b6009818154811015156129bb57fe5b90600052602060002090600302016000915090508060000160009054906101000a900463ffffffff16908060000160049054906101000a900463ffffffff16908060000160089054906101000a900460ff16908060000160099054906101000a900463ffffffff16905084565b60065481565b6000809054906101000a900473ffffffffffffffffffffffffffffffffffffffff1681565b6000600860009054906101000a900473ffffffffffffffffffffffffffffffffffffffff16905090565b6000809054906101000a900473ffffffffffffffffffffffffffffffffffffffff1673ffffffffffffffffffffffffffffffffffffffff163373ffffffffffffffffffffffffffffffffffffffff16141515612ad857600080fd5b42600460009054906101000a900463ffffffff1663ffffffff16111515612afe57600080fd5b612b0983838361328e565b505050565b60055481565b6000806009805490501480612b665750426009600160098054905003815481101515612b3c57fe5b906000526020600020906003020160000160049054906101000a900463ffffffff1663ffffffff16105b905090565b600080600980549050111515612b8057600080fd5b6009600160098054905003815481101515612b9757fe5b906000526020600020906003020160000160049054906101000a900463ffffffff16905090565b600860009054906101000a900473ffffffffffffffffffffffffffffffffffffffff1681565b600080600a8054905090506000811415612bfd57600080fd5b5b6001810382108015612c4c5750600b60038302815481101515612c1d57fe5b90600052602060002090600891828204019190066004029054906101000a900463ffffffff1663ffffffff1642115b15612c5e578180600101925050612bfe565b5090565b600a81815481101515612c7157fe5b90600052602060002090600302016000915090508060000160009054906101000a900463ffffffff16908060000160049054906101000a900460ff16908060000160059054906101000a900463ffffffff16908060000160099054906101000a900463ffffffff1690806001018054600181600116156101000203166002900480601f016020809104026020016040519081016040528092919081815260200182805460018160011615610100020316600290048015612d725780601f10612d4757610100808354040283529160200191612d72565b820191906000526020600020905b815481529060010190602001808311612d5557829003601f168201915b505050505090806002018054600181600116156101000203166002900480601f016020809104026020016040519081016040528092919081815260200182805460018160011615610100020316600290048015612e105780601f10612de557610100808354040283529160200191612e10565b820191906000526020600020905b815481529060010190602001808311612df357829003601f168201915b5050505050905086565b6000806000612e27613472565b600080600080600093505b600980549050841015612fff57600984815481101515612e4e57fe5b90600052602060002090600302019250428360000160009054906101000a900463ffffffff1663ffffffff1611158015612ea15750428360000160049054906101000a900463ffffffff1663ffffffff16115b15612ff2576000955060009150600083600101805490501115612f6857600090505b6001836001018054905003811015612f6757813410158015612eff57508260010181815481101515612ef157fe5b906000526020600020015434105b15612f3c578260020181815481101515612f1557fe5b90600052602060002090602091828204019190069054906101000a900460ff169550612f67565b8260010181815481101515612f4d57fe5b906000526020600020015491508080600101915050612ec3565b5b8260000160089054906101000a900460ff168360000160099054906101000a900463ffffffff168760408051908101604052808760000160009054906101000a900463ffffffff1663ffffffff1663ffffffff1681526020018760000160049054906101000a900463ffffffff1663ffffffff1663ffffffff168152509750975097509750613045565b8380600101945050612e32565b60008060006040805190810160405280600063ffffffff1663ffffffff168152602001600063ffffffff1663ffffffff1681525083935082925081915097509750975097505b5050505090919293565b606060098281548110151561306057fe5b90600052602060002090600302016001018054806020026020016040519081016040528092919081815260200182805480156130bb57602002820191906000526020600020905b8154815260200190600101908083116130a7575b50505050509050919050565b6000809054906101000a900473ffffffffffffffffffffffffffffffffffffffff1673ffffffffffffffffffffffffffffffffffffffff163373ffffffffffffffffffffffffffffffffffffffff1614151561312257600080fd5b61312b8161335c565b50565b600260009054906101000a900473ffffffffffffffffffffffffffffffffffffffff1681565b6000806000841415613169576000915061318b565b828402905082848281151561317a57fe5b0414151561318757600080fd5b8091505b5092915050565b6000806000831115156131a457600080fd5b82848115156131af57fe5b0490508091505092915050565b60006131c782613456565b15156131d257600080fd5b6131f96127106131eb848661315490919063ffffffff16565b61319290919063ffffffff16565b905092915050565b60608082840185511015151561321657600080fd5b82156000811461323157604051915060208201604052613282565b6040519150601f8416801560200281840101858101878315602002848b0101015b8183101561326f5780518352602083019250602081019050613252565b50868552601f19601f8301166040525050505b50809150509392505050565b428363ffffffff16101515156132a357600080fd5b6000821115156132b257600080fd5b600073ffffffffffffffffffffffffffffffffffffffff168173ffffffffffffffffffffffffffffffffffffffff16141515156132ee57600080fd5b82600460006101000a81548163ffffffff021916908363ffffffff1602179055508160058190555080600760006101000a81548173ffffffffffffffffffffffffffffffffffffffff021916908373ffffffffffffffffffffffffffffffffffffffff160217905550505050565b600073ffffffffffffffffffffffffffffffffffffffff168173ffffffffffffffffffffffffffffffffffffffff161415151561339857600080fd5b8073ffffffffffffffffffffffffffffffffffffffff166000809054906101000a900473ffffffffffffffffffffffffffffffffffffffff1673ffffffffffffffffffffffffffffffffffffffff167f8be0079c531659141344cd1fd0a4f28419497f9722a3daafe3b4186f6b6457e060405160405180910390a3806000806101000a81548173ffffffffffffffffffffffffffffffffffffffff021916908373ffffffffffffffffffffffffffffffffffffffff16021790555050565b60006064821015801561346b57506127108211155b9050919050565b6040805190810160405280600290602082028038833980820191505090505090565b828054600181600116156101000203166002900490600052602060002090601f016020900481019282601f106134d557805160ff1916838001178555613503565b82800160010185558215613503579182015b828111156135025782518255916020019190600101906134e7565b5b509050613510919061373c565b5090565b828054828255906000526020600020906007016008900481019282156135b95791602002820160005b8382111561358757833563ffffffff1683826101000a81548163ffffffff021916908363ffffffff160217905550926020019260040160208160030104928301926001030261353d565b80156135b75782816101000a81549063ffffffff0219169055600401602081600301049283019260010302613587565b505b5090506135c69190613761565b5090565b8154818355818111156135f7576003028160030283600052602060002091820191016135f69190613794565b5b505050565b508054600082559060005260206000209081019061361a919061373c565b50565b50805460008255601f016020900490600052602060002090810190613642919061373c565b50565b828054828255906000526020600020908101928215613681579160200282015b82811115613680578235825591602001919060010190613665565b5b50905061368e919061373c565b5090565b82805482825590600052602060002090601f0160209004810192821561372b5791602002820160005b838211156136fc57833560ff1683826101000a81548160ff021916908360ff16021790555092602001926001016020816000010492830192600103026136bb565b80156137295782816101000a81549060ff02191690556001016020816000010492830192600103026136fc565b505b509050613738919061382c565b5090565b61375e91905b8082111561375a576000816000905550600101613742565b5090565b90565b61379191905b8082111561378d57600081816101000a81549063ffffffff021916905550600101613767565b5090565b90565b61382991905b8082111561382557600080820160006101000a81549063ffffffff02191690556000820160046101000a81549063ffffffff02191690556000820160086101000a81549060ff02191690556000820160096101000a81549063ffffffff021916905560018201600061380c91906135fc565b60028201600061381c919061361d565b5060030161379a565b5090565b90565b61385991905b8082111561385557600081816101000a81549060ff021916905550600101613832565b5090565b90565b600061386782613456565b151561387257600080fd5b61388660648361319290919063ffffffff16565b90509190505600a165627a7a72305820d00d5c78ba8792b1d93bbdb465bc01129ffa3a196008bb0872b73846bde4b2000029a165627a7a72305820e824d5ca795240846a193360000ca4f91f7b4f3451b9c1fda598887e5da9bddc0029",
  "source": "pragma solidity ^0.4.24;\n\nimport \"./interfaces/IW12CrowdsaleFactory.sol\";\nimport \"./interfaces/IW12FundFactory.sol\";\nimport \"./W12Crowdsale.sol\";\n\n\ncontract W12CrowdsaleFactory is IW12CrowdsaleFactory {\n    IW12FundFactory private fundFactory;\n\n    event CrowdsaleCreated(address indexed owner, address indexed token, uint32 startDate, address crowdsaleAddress, address fundAddress);\n\n    constructor(IW12FundFactory _fundFactory) public {\n        require(_fundFactory != address(0), \"Factory address required\");\n\n        fundFactory = _fundFactory;\n    }\n\n    function createCrowdsale(address wTokenAddress, uint32 startDate, uint price, address serviceWallet, uint serviceFee, address swap, address owner)\n        external returns (IW12Crowdsale result) {\n        IW12Fund fund = fundFactory.createFund(swap);\n\n        result = new W12Crowdsale(wTokenAddress, DetailedERC20(wTokenAddress).decimals(), startDate, price, serviceWallet, serviceFee, fund);\n        result.transferOwnership(owner);\n\n        fund.setCrowdsale(result);\n        fund.transferOwnership(owner);\n\n        emit CrowdsaleCreated(owner, wTokenAddress, startDate, address(0), fund);\n    }\n}\n",
  "sourcePath": "/c/Users/Mr.Hokid/projects/work/w12-product-contracts/contracts/W12CrowdsaleFactory.sol",
  "compiler": {
    "name": "solc",
    "version": "0.4.24+commit.e67f0147.Emscripten.clang"
  },
  "schemaVersion": "2.0.1",
  "updatedAt": "2018-08-21T16:13:30.415Z"
}