{
  "contractName": "W12CrowdsaleFactory",
  "abi": [
    {
      "constant": true,
      "inputs": [],
      "name": "version",
      "outputs": [
        {
          "name": "",
          "type": "uint256"
        }
      ],
      "payable": false,
      "stateMutability": "view",
      "type": "function"
    },
    {
      "inputs": [
        {
          "name": "version",
          "type": "uint256"
        },
        {
          "name": "_fundFactory",
          "type": "address"
        },
        {
          "name": "_rates",
          "type": "address"
        }
      ],
      "payable": false,
      "stateMutability": "nonpayable",
      "type": "constructor"
    },
    {
      "anonymous": false,
      "inputs": [
        {
          "indexed": true,
          "name": "token",
          "type": "address"
        },
        {
          "indexed": false,
          "name": "crowdsaleAddress",
          "type": "address"
        },
        {
          "indexed": false,
          "name": "fundAddress",
          "type": "address"
        }
      ],
      "name": "CrowdsaleCreated",
      "type": "event"
    },
    {
      "constant": false,
      "inputs": [
        {
          "name": "tokenAddress",
          "type": "address"
        },
        {
          "name": "wTokenAddress",
          "type": "address"
        },
        {
          "name": "price",
          "type": "uint256"
        },
        {
          "name": "serviceWallet",
          "type": "address"
        },
        {
          "name": "serviceFee",
          "type": "uint256"
        },
        {
          "name": "WTokenSaleFeePercent",
          "type": "uint256"
        },
        {
          "name": "trancheFeePercent",
          "type": "uint256"
        },
        {
          "name": "swap",
          "type": "address"
        },
        {
          "name": "owners",
          "type": "address[]"
        }
      ],
      "name": "createCrowdsale",
      "outputs": [
        {
          "name": "result",
          "type": "address"
        }
      ],
      "payable": false,
      "stateMutability": "nonpayable",
      "type": "function"
    }
  ],
  "bytecode": "0x608060405234801561001057600080fd5b50604051606080614b148339810160409081528151602083015191909201516000839055600160a060020a038216151561004957600080fd5b600160a060020a038116151561005e57600080fd5b60018054600160a060020a03938416600160a060020a0319918216179091556002805492909316911617905550614a7a8061009a6000396000f300608060405260043610620000355763ffffffff60e060020a60003504166354fd4d5081146200003a578063868b16d91462000064575b600080fd5b3480156200004757600080fd5b5062000052620000d5565b60408051918252519081900360200190f35b3480156200007157600080fd5b50620000b9600160a060020a036004803582169160248035821692604435926064358116926084359260a4359260c4359260e4359091169161010435918201910135620000db565b60408051600160a060020a039092168252519081900360200190f35b60005481565b600154604080517f17444626000000000000000000000000000000000000000000000000000000008152600160a060020a0386811660048301528a811660248301526044820188905291516000938493849391169163174446269160648082019260209290919082900301818787803b1580156200015857600080fd5b505af11580156200016d573d6000803e3d6000fd5b505050506040513d60208110156200018457600080fd5b5051600054600254919350908e908e908e908e908b908f908f908a90600160a060020a0316620001b36200084b565b998a52600160a060020a0398891660208b01529688166040808b019190915260608a0196909652938716608089015291861660a088015260c087015260e086015283166101008501529116610120830152519081900361014001906000f08015801562000224573d6000803e3d6000fd5b50925081600160a060020a031663483a20b2846040518263ffffffff1660e060020a0281526004018082600160a060020a0316600160a060020a03168152602001915050600060405180830381600087803b1580156200028357600080fd5b505af115801562000298573d6000803e3d6000fd5b5050505081600160a060020a03166370480275846040518263ffffffff1660e060020a0281526004018082600160a060020a0316600160a060020a03168152602001915050600060405180830381600087803b158015620002f857600080fd5b505af11580156200030d573d6000803e3d6000fd5b50505050600090505b83811015620004865760008585838181106200032e57fe5b90506020020135600160a060020a0316600160a060020a0316141515156200035557600080fd5b600160a060020a038316633bcdb1648686848181106200037157fe5b90506020020135600160a060020a03166040518263ffffffff1660e060020a0281526004018082600160a060020a0316600160a060020a03168152602001915050600060405180830381600087803b158015620003cd57600080fd5b505af1158015620003e2573d6000803e3d6000fd5b5050505081600160a060020a0316633bcdb16486868481811015156200040457fe5b90506020020135600160a060020a03166040518263ffffffff1660e060020a0281526004018082600160a060020a0316600160a060020a03168152602001915050600060405180830381600087803b1580156200046057600080fd5b505af115801562000475573d6000803e3d6000fd5b505060019092019150620003169050565b604080517f704802750000000000000000000000000000000000000000000000000000000081523360048201529051600160a060020a03841691637048027591602480830192600092919082900301818387803b158015620004e757600080fd5b505af1158015620004fc573d6000803e3d6000fd5b5050604080517f2348238c0000000000000000000000000000000000000000000000000000000081523360048201529051600160a060020a0386169350632348238c9250602480830192600092919082900301818387803b1580156200056157600080fd5b505af115801562000576573d6000803e3d6000fd5b5050505081600160a060020a0316638bad0c0a6040518163ffffffff1660e060020a028152600401600060405180830381600087803b158015620005b957600080fd5b505af1158015620005ce573d6000803e3d6000fd5b5050505081600160a060020a031663d0934d616040518163ffffffff1660e060020a028152600401600060405180830381600087803b1580156200061157600080fd5b505af115801562000626573d6000803e3d6000fd5b5050604080517f704802750000000000000000000000000000000000000000000000000000000081523360048201529051600160a060020a038716935063704802759250602480830192600092919082900301818387803b1580156200068b57600080fd5b505af1158015620006a0573d6000803e3d6000fd5b5050604080517f2348238c0000000000000000000000000000000000000000000000000000000081523360048201529051600160a060020a0387169350632348238c9250602480830192600092919082900301818387803b1580156200070557600080fd5b505af11580156200071a573d6000803e3d6000fd5b5050505082600160a060020a0316638bad0c0a6040518163ffffffff1660e060020a028152600401600060405180830381600087803b1580156200075d57600080fd5b505af115801562000772573d6000803e3d6000fd5b5050505082600160a060020a031663d0934d616040518163ffffffff1660e060020a028152600401600060405180830381600087803b158015620007b557600080fd5b505af1158015620007ca573d6000803e3d6000fd5b505050508b600160a060020a03167f50c0bc8e997d259dfe177ef636db3fee4d2e51ba70b0cc2d920e44584a79432684846040518083600160a060020a0316600160a060020a0316815260200182600160a060020a0316600160a060020a031681526020019250505060405180910390a250509a9950505050505050505050565b6040516141f2806200085d83390190560060806040523480156200001157600080fd5b5060405161014080620041f283398101604090815281516020830151918301516060840151608085015160a086015160c087015160e088015161010089015161012090990151969895969495939492939192909190896200007b336401000000006200047d810204565b6200008f33640100000000620004cf810204565b60025560038054600160a060020a03191633179081905560408051600160a060020a03929092168252517f4101e71e974f68df5e9730cc223280b41654676bbb052cdcc735c3337e64d2d99181900360200190a16001600455600160a060020a0389161515620000fe57600080fd5b600160a060020a03881615156200011457600080fd5b8373__Percent_______________________________63520b006690916040518263ffffffff167c01000000000000000000000000000000000000000000000000000000000281526004018082815260200191505060206040518083038186803b1580156200018257600080fd5b505af415801562000197573d6000803e3d6000fd5b505050506040513d6020811015620001ae57600080fd5b5051801562000258575060648473__Percent_______________________________630fe9114790916040518263ffffffff167c01000000000000000000000000000000000000000000000000000000000281526004018082815260200191505060206040518083038186803b1580156200022857600080fd5b505af41580156200023d573d6000803e3d6000fd5b505050506040513d60208110156200025457600080fd5b5051105b15156200026457600080fd5b8273__Percent_______________________________63520b006690916040518263ffffffff167c01000000000000000000000000000000000000000000000000000000000281526004018082815260200191505060206040518083038186803b158015620002d257600080fd5b505af4158015620002e7573d6000803e3d6000fd5b505050506040513d6020811015620002fe57600080fd5b50518015620003a8575060648373__Percent_______________________________630fe9114790916040518263ffffffff167c01000000000000000000000000000000000000000000000000000000000281526004018082815260200191505060206040518083038186803b1580156200037857600080fd5b505af41580156200038d573d6000803e3d6000fd5b505050506040513d6020811015620003a457600080fd5b5051105b1515620003b457600080fd5b600160a060020a0382161515620003ca57600080fd5b600160a060020a0385161515620003e057600080fd5b600160a060020a0381161515620003f657600080fd5b6200040b878764010000000062000521810204565b60058054600160a060020a0319908116600160a060020a039a8b16179091556006805482169a8a169a909a17909955600a93909355600d8054891694881694909417909355600b55600780548716928616929092179091556008805490951693169290921790925550620005ff915050565b6200049860008264010000000062003a7c6200056c82021704565b604051600160a060020a038216907f44d6d25963f097ad14f29f06854a01f575648a1ef82f30e562ccd3889717e33990600090a250565b620004ea60018264010000000062003a7c6200056c82021704565b604051600160a060020a038216907f941e31c3e651de34a7fcf0132d9d02c2df9377e6b5f932bec5daf6353c94f90e90600090a250565b600082116200052f57600080fd5b600160a060020a03811615156200054557600080fd5b600991909155600c8054600160a060020a031916600160a060020a03909216919091179055565b600160a060020a03811615156200058257600080fd5b620005978282640100000000620005c7810204565b15620005a257600080fd5b600160a060020a0316600090815260209190915260409020805460ff19166001179055565b6000600160a060020a0382161515620005df57600080fd5b50600160a060020a03166000908152602091909152604090205460ff1690565b613be3806200060f6000396000f3006080604052600436106102845763ffffffff60e060020a60003504166307f5d633811461028957806311eb8c9f1461029957806313096a41146102c557806313303ddf146102f657806314f66d341461030e5780631785f53c1461033c578063208853c91461035d5780632348238c146103875780632442e1cb146103a857806324d7806c146104de5780632784bb7b146104ff5780632c903b37146105325780632e325020146105475780632fbe599014610638578063313602d41461064d5780633baba4d7146106625780633bcdb164146106775780633c9d5c75146106985780633dbd6721146106c35780634090cb64146106db57806343f48fbd146106f057806348b6b16f1461070557806351f5a76d1461075e57806354fd4d5014610779578063550fd7421461078e5780635641f3c3146107f3578063564566a81461080857806359e377491461081d578063704802751461083d578063792c02ea1461085e5780637dd8951a146108735780638119c06514610888578063845ddcb21461089d5780638abdf5aa146108e65780638aea2af8146108fb5780638bad0c0a1461094e5780638edd6eb6146109635780639faf621514610978578063a035b1fe14610a02578063a4fd6f5614610a17578063b135648814610a2c578063b60d428814610a5a578063c6dbdf6114610a6f578063cd151de014610a84578063d0934d6114610ab9578063d155790b14610ace578063d45c160214610aef578063d5b2262314610b04578063d6d65f3d14610b60578063d8e9ce6414610b75578063daa4cf8814610b96578063dc9c9f3314610bab578063e89e4ed614610bc0578063e93b054014610bd8578063f6cf09dc14610bf0578063fc0c546a14610c20575b600080fd5b610297600435602435610c35565b005b3480156102a557600080fd5b506102b1600435610e70565b604080519115158252519081900360200190f35b3480156102d157600080fd5b506102da610f04565b60408051600160a060020a039092168252519081900360200190f35b34801561030257600080fd5b50610297600435610f13565b34801561031a57600080fd5b50610323610f2c565b6040805192835290151560208301528051918290030190f35b34801561034857600080fd5b50610297600160a060020a0360043516610f5f565b34801561036957600080fd5b50610375600435610f7f565b60408051918252519081900360200190f35b34801561039357600080fd5b50610297600160a060020a03600435166110d6565b3480156103b457600080fd5b506103c0600435611169565b604051808763ffffffff1663ffffffff1681526020018681526020018563ffffffff1663ffffffff1681526020018463ffffffff1663ffffffff1681526020018060200180602001838103835285818151815260200191508051906020019080838360005b8381101561043d578181015183820152602001610425565b50505050905090810190601f16801561046a5780820380516001836020036101000a031916815260200191505b50838103825284518152845160209182019186019080838360005b8381101561049d578181015183820152602001610485565b50505050905090810190601f1680156104ca5780820380516001836020036101000a031916815260200191505b509850505050505050505060405180910390f35b3480156104ea57600080fd5b506102b1600160a060020a0360043516611396565b34801561050b57600080fd5b506105176004356113ae565b60408051921515835260208301919091528051918290030190f35b34801561053e57600080fd5b506103756113cc565b34801561055357600080fd5b5061055f6004356113d2565b604051808763ffffffff1663ffffffff1681526020018663ffffffff1663ffffffff1681526020018581526020018463ffffffff1663ffffffff1681526020018060200180602001838103835285818151815260200191508051906020019060200280838360005b838110156105df5781810151838201526020016105c7565b50505050905001838103825284818151815260200191508051906020019060200280838360005b8381101561061e578181015183820152602001610606565b505050509050019850505050505050505060405180910390f35b34801561064457600080fd5b50610375611578565b34801561065957600080fd5b5061029761157e565b34801561066e57600080fd5b50610375611719565b34801561068357600080fd5b50610297600160a060020a0360043516611720565b3480156106a457600080fd5b506106ad61173d565b6040805160ff9092168252519081900360200190f35b3480156106cf57600080fd5b5061037560043561175e565b3480156106e757600080fd5b506102da611795565b3480156106fc57600080fd5b506102da6117a4565b34801561071157600080fd5b506040805160206004803580820135601f81018490048402850184019095528484526102979436949293602493928401919081908401838280828437509497506117b39650505050505050565b34801561076a57600080fd5b5061029760ff600435166117de565b34801561078557600080fd5b50610375611834565b34801561079a57600080fd5b506107a361183a565b60408051602080825283518183015283519192839290830191858101910280838360005b838110156107df5781810151838201526020016107c7565b505050509050019250505060405180910390f35b3480156107ff57600080fd5b506102da611921565b34801561081457600080fd5b506102b1611930565b34801561082957600080fd5b506102976004356024351515604435611946565b34801561084957600080fd5b50610297600160a060020a0360043516611a86565b34801561086a57600080fd5b50610375611aa3565b34801561087f57600080fd5b506106ad611aa9565b34801561089457600080fd5b506102da611aca565b3480156108a957600080fd5b506108b5600435611ad9565b6040805163ffffffff9586168152938516602085015283810192909252909216606082015290519081900360800190f35b3480156108f257600080fd5b50610375611b1f565b34801561090757600080fd5b50610916600435602435611b25565b604051808260a080838360005b8381101561093b578181015183820152602001610923565b5050505090500191505060405180910390f35b34801561095a57600080fd5b50610297611e6a565b34801561096f57600080fd5b506102da611e75565b34801561098457600080fd5b5061098d611e84565b6040805160208082528351818301528351919283929083019185019080838360005b838110156109c75781810151838201526020016109af565b50505050905090810190601f1680156109f45780820380516001836020036101000a031916815260200191505b509250505060405180910390f35b348015610a0e57600080fd5b50610375611f1a565b348015610a2357600080fd5b506102b1611f20565b348015610a3857600080fd5b50610a41611f68565b6040805163ffffffff9092168252519081900360200190f35b348015610a6657600080fd5b506102da611faf565b348015610a7b57600080fd5b506102da611fbe565b348015610a9057600080fd5b50610aa2600435602435604435611fcd565b604080518251815290819083908083836020610923565b348015610ac557600080fd5b5061029761211d565b348015610ada57600080fd5b50610297600160a060020a0360043516612126565b348015610afb57600080fd5b50610375612143565b348015610b1057600080fd5b50610297602460048035828101929082013591813580830192908201359160443580830192908201359160643580830192908201359160843580830192908201359160a435918201910135612149565b348015610b6c57600080fd5b506103236124da565b348015610b8157600080fd5b506102b1600160a060020a0360043516612555565b348015610ba257600080fd5b50610323612568565b348015610bb757600080fd5b5061098d6125eb565b348015610bcc57600080fd5b506103c0600435612679565b348015610be457600080fd5b506102976004356127e7565b348015610bfc57600080fd5b50610c0b600435602435612852565b60405181518152808260808083836020610923565b348015610c2c57600080fd5b506102da612b8a565b6000610c3f613aca565b610c47613ae9565b6004805460010190819055610c5a611930565b1515610c6557600080fd5b6040805160e160020a633bef842b0281526010600482015260248101889052905173__PaymentMethods________________________916377df0856916044808301926020929190829003018186803b158015610cc157600080fd5b505af4158015610cd5573d6000803e3d6000fd5b505050506040513d6020811015610ceb57600080fd5b50511515610cf857600080fd5b85610d01612b99565b14610d96576008546040805160e460020a630b12e441028152600481018990529051600092600160a060020a03169163b12e441091602480830192602092919082900301818787803b158015610d5657600080fd5b505af1158015610d6a573d6000803e3d6000fd5b505050506040513d6020811015610d8057600080fd5b5051600160a060020a03161415610d9657600080fd5b610d9e612568565b509350610dab8686611b25565b80516020820151919450610dbf9188611fcd565b9150610dcb8287612bbd565b610dff8383601387815481101515610ddf57fe5b600091825260209091206002600590920201015463ffffffff1689612daf565b610e0a838388612fc1565b8251602080850151606080870151604080519586529385019290925283830191909152905133927f347f5f0051b895093800553e6e78ef332849e2552639a4f5ffe66535788ae07892908290030190a26004548114610e6857600080fd5b505050505050565b6040805160e160020a633bef842b0281526010600482015260248101839052905160009173__PaymentMethods________________________916377df085691604480820192602092909190829003018186803b158015610ed057600080fd5b505af4158015610ee4573d6000803e3d6000fd5b505050506040513d6020811015610efa57600080fd5b505190505b919050565b600654600160a060020a031681565b610f1c33611396565b1515610f2757600080fd5b600f55565b60145460009081901580610f455750610f43611f20565b155b15610f4f57610f5b565b50506014546000190160015b9091565b610f6833611396565b1515610f7357600080fd5b610f7c8161327e565b50565b600080600080610f8d612568565b92509250811515610f9d576110ce565b6013805484908110610fab57fe5b9060005260206000209060050201905073__PurchaseProcessing____________________63b8005df28683600301846004016040518463ffffffff1660e060020a028152600401808481526020018060200180602001838103835285818154815260200191508054801561103f57602002820191906000526020600020905b81548152602001906001019080831161102b575b5050838103825284818154815260200191508054801561107e57602002820191906000526020600020905b81548152602001906001019080831161106a575b50509550505050505060206040518083038186803b15801561109f57600080fd5b505af41580156110b3573d6000803e3d6000fd5b505050506040513d60208110156110c957600080fd5b505193505b505050919050565b600354600160a060020a031633146110ed57600080fd5b600160a060020a038116151561110257600080fd5b6003805473ffffffffffffffffffffffffffffffffffffffff1916600160a060020a03838116919091179182905560408051929091168252517f4101e71e974f68df5e9730cc223280b41654676bbb052cdcc735c3337e64d2d9916020908290030190a150565b60008060008060608060148781548110151561118157fe5b60009182526020909120600590910201546014805463ffffffff90921691899081106111a957fe5b9060005260206000209060050201600101546014898154811015156111ca57fe5b60009182526020909120600260059092020101546014805463ffffffff909216918b9081106111f557fe5b906000526020600020906005020160020160049054906101000a900463ffffffff1660148b81548110151561122657fe5b906000526020600020906005020160030160148c81548110151561124657fe5b9060005260206000209060050201600401818054600181600116156101000203166002900480601f0160208091040260200160405190810160405280929190818152602001828054600181600116156101000203166002900480156112ec5780601f106112c1576101008083540402835291602001916112ec565b820191906000526020600020905b8154815290600101906020018083116112cf57829003601f168201915b5050845460408051602060026001851615610100026000190190941693909304601f81018490048402820184019092528181529597508694509250840190508282801561137a5780601f1061134f5761010080835404028352916020019161137a565b820191906000526020600020905b81548152906001019060200180831161135d57829003601f168201915b5050505050905095509550955095509550955091939550919395565b60006113a8818363ffffffff6132c616565b92915050565b6000908152601260205260409020805460019091015460ff90911691565b600f5481565b6000806000806060806013878154811015156113ea57fe5b60009182526020909120600590910201546013805463ffffffff909216918990811061141257fe5b906000526020600020906005020160000160049054906101000a900463ffffffff1660138981548110151561144357fe5b90600052602060002090600502016001015460138a81548110151561146457fe5b60009182526020909120600260059092020101546013805463ffffffff909216918c90811061148f57fe5b906000526020600020906005020160030160138c8154811015156114af57fe5b90600052602060002090600502016004018180548060200260200160405190810160405280929190818152602001828054801561150b57602002820191906000526020600020905b8154815260200190600101908083116114f7575b505050505091508080548060200260200160405190810160405280929190818152602001828054801561137a57602002820191906000526020600020905b815481526020019060010190808311611549575050505050905095509550955095509550955091939550919395565b600b5481565b600061158933612555565b151561159457600080fd5b61159c611f20565b15156115a757600080fd5b600554604080517f70a082310000000000000000000000000000000000000000000000000000000081523060048201529051600160a060020a03909216916370a08231916024808201926020929091908290030181600087803b15801561160d57600080fd5b505af1158015611621573d6000803e3d6000fd5b505050506040513d602081101561163757600080fd5b5051600554604080517fa9059cbb000000000000000000000000000000000000000000000000000000008152336004820152602481018490529051929350600160a060020a039091169163a9059cbb916044808201926020929091908290030181600087803b1580156116a957600080fd5b505af11580156116bd573d6000803e3d6000fd5b505050506040513d60208110156116d357600080fd5b505115156116e057600080fd5b60408051828152905133917f26ffb867a6b19bc0240d4e732ed6cfb0f0b6d93143a99cfb24ba5873308861f8919081900360200190a250565b6014545b90565b61172933611396565b151561173457600080fd5b610f7c816132fd565b600d5474010000000000000000000000000000000000000000900460ff1690565b60008181526012602052604081205460ff161561178d5750600081815260126020526040902060010154610eff565b5050600a5490565b600554600160a060020a031690565b600854600160a060020a031681565b6117bc33611396565b15156117c757600080fd5b80516117da90600e906020840190613b04565b5050565b6117e733611396565b15156117f257600080fd5b600d805460ff909216740100000000000000000000000000000000000000000274ff000000000000000000000000000000000000000019909216919091179055565b60025481565b6060601073__PaymentMethods________________________633b3d1a2290916040518263ffffffff1660e060020a0281526004018082815260200191505060006040518083038186803b15801561189157600080fd5b505af41580156118a5573d6000803e3d6000fd5b505050506040513d6000823e601f3d908101601f1916820160405260208110156118ce57600080fd5b8101908080516401000000008111156118e657600080fd5b820160208101848111156118f957600080fd5b815185602082028301116401000000008211171561191657600080fd5b509094505050505090565b600c54600160a060020a031681565b60008061193b612568565b9150508091505b5090565b61194f33611396565b151561195a57600080fd5b8073__Percent_______________________________63520b006690916040518263ffffffff1660e060020a0281526004018082815260200191505060206040518083038186803b1580156119ae57600080fd5b505af41580156119c2573d6000803e3d6000fd5b505050506040513d60208110156119d857600080fd5b50518015611a57575073__Percent_______________________________63d49d51816040518163ffffffff1660e060020a02815260040160206040518083038186803b158015611a2857600080fd5b505af4158015611a3c573d6000803e3d6000fd5b505050506040513d6020811015611a5257600080fd5b505181105b1515611a6257600080fd5b600092835260126020526040909220805460ff191691151591909117815560010155565b611a8f33611396565b1515611a9a57600080fd5b610f7c81613345565b60135490565b600d5474010000000000000000000000000000000000000000900460ff1681565b600d54600160a060020a031681565b6013805482908110611ae757fe5b600091825260209091206005909102018054600182015460029092015463ffffffff8083169450640100000000909204821692911684565b600a5481565b611b2d613aca565b600080611b38613aca565b6040805160e160020a633bef842b0281526010600482015260248101889052905173__PaymentMethods________________________916377df0856916044808301926020929190829003018186803b158015611b9457600080fd5b505af4158015611ba8573d6000803e3d6000fd5b505050506040513d6020811015611bbe57600080fd5b50511515611bcb57600080fd5b611bd3612568565b92509250811515611be357611e61565b85611bec612b99565b14611c79576008546040805160e060020a63cfec719f028152600481018990529051600160a060020a039092169163cfec719f916024808201926020929091908290030181600087803b158015611c4257600080fd5b505af1158015611c56573d6000803e3d6000fd5b505050506040513d6020811015611c6c57600080fd5b50511515611c7957611e61565b611c828661338d565b905073__PurchaseProcessing____________________6391bfca318787601387815481101515611caf57fe5b906000526020600020906005020160010154601388815481101515611cd057fe5b9060005260206000209060050201600301601389815481101515611cf057fe5b6000918252602082206004600590920201019088906020020151886001602002015189600260200201518a600360200201518b600460200201516040518b63ffffffff1660e060020a028152600401808b600019166000191681526020018a8152602001898152602001806020018060200188815260200187815260200186815260200185815260200184815260200183810383528a8181548152602001915080548015611dbd57602002820191906000526020600020905b815481526020019060010190808311611da9575b50508381038252898181548152602001915080548015611dfc57602002820191906000526020600020905b815481526020019060010190808311611de8575b50509c5050505050505050505050505060a06040518083038186803b158015611e2457600080fd5b505af4158015611e38573d6000803e3d6000fd5b505050506040513d601f19601f8201168201806040525060a0811015611e5d57600080fd5b5093505b50505092915050565b611e733361327e565b565b600754600160a060020a031690565b600e8054604080516020601f6002600019610100600188161502019095169490940493840181900481028201810190925282815260609390929091830182828015611f105780601f10611ee557610100808354040283529160200191611f10565b820191906000526020600020905b815481529060010190602001808311611ef357829003601f168201915b5050505050905090565b60095481565b6013546000901580611f635750601380544291906000198101908110611f4257fe5b6000918252602090912060059091020154640100000000900463ffffffff16105b905090565b6013546000908110611f7957600080fd5b601380546000198101908110611f8b57fe5b6000918252602090912060059091020154640100000000900463ffffffff16919050565b600754600160a060020a031681565b600354600160a060020a031690565b611fd5613ae9565b6040805160e160020a633bef842b0281526010600482015260248101849052905173__PaymentMethods________________________916377df0856916044808301926020929190829003018186803b15801561203157600080fd5b505af4158015612045573d6000803e3d6000fd5b505050506040513d602081101561205b57600080fd5b5051151561206857600080fd5b73__PurchaseProcessing____________________636cd5c0568585600b546120908761175e565b6040518563ffffffff1660e060020a02815260040180858152602001848152602001838152602001828152602001945050505050604080518083038186803b1580156120db57600080fd5b505af41580156120ef573d6000803e3d6000fd5b505050506040513d601f19601f82011682018060405250604081101561211457600080fd5b50949350505050565b611e7333613684565b61212f33611396565b151561213a57600080fd5b610f7c81613684565b600f5490565b600061215433612555565b151561215f57600080fd5b6013546000101561219c57426013600081548110151561217b57fe5b600091825260209091206005909102015463ffffffff161161219c57600080fd5b8b15156121a857600080fd5b60ff8c11156121b657600080fd5b60ff8811156121c457600080fd5b6002860488146121d357600080fd5b600284048811156121e357600080fd5b8115156121ef57600080fd5b5060005b8181101561229b57600854600160a060020a0316637d20abf884848481811061221857fe5b6040805160e060020a63ffffffff87160281526020928302949094013560048501525160248085019492935090918290030181600087803b15801561225c57600080fd5b505af1158015612270573d6000803e3d6000fd5b505050506040513d602081101561228657600080fd5b5051151561229357600080fd5b6001016121f3565b6123348d8d808060200260200160405190810160405280939291908181526020016000905b828210156122fc576040805160c081810190925290808402870190600690839083908082843750505091835250506001909101906020016122c0565b50505050508c8c80806020026020016040519081016040528093929190818152602001838360200280828437506136cc945050505050565b6123fb8989808060200260200160405190810160405280939291908181526020016000905b82821015612395576040805160808181019092529080840287019060049083908390808284375050509183525050600190910190602001612359565b50505050508888808060200260200160405190810160405280939291908181526020018383602002808284375050604080516020601f8e018190048102820181019092528c815294508c93508b9250829150840183828082843750613812945050505050565b604080517ff24950e2000000000000000000000000000000000000000000000000000000008152601060048201818152602483019384526044830186905273__PaymentMethods________________________9363f24950e293889288929091606401846020850280828437820191505094505050505060006040518083038186803b15801561248a57600080fd5b505af415801561249e573d6000803e3d6000fd5b50506040517f072792b04aecd99b2250bc76fb25f9bca793c3b7383cb4c7255a7a01e8f5a12e925060009150a150505050505050505050505050565b601454600090819015806124f357506124f1611f20565b155b156124fd57610f5b565b5060015b60145460001901821080156125455750601480548390811061251f57fe5b6000918252602090912060059091020160020154640100000000900463ffffffff164210155b15610f5b57600190910190612501565b60006113a860018363ffffffff6132c616565b60008080805b6013548210156125dd57601380548390811061258657fe5b6000918252602090912060059091020180549091504263ffffffff909116118015906125c1575080544264010000000090910463ffffffff16115b156125d257816001935093506125e5565b60019091019061256e565b600093508392505b50509091565b600e805460408051602060026001851615610100026000190190941693909304601f810184900484028201840190925281815292918301828280156126715780601f1061264657610100808354040283529160200191612671565b820191906000526020600020905b81548152906001019060200180831161265457829003601f168201915b505050505081565b601480548290811061268757fe5b60009182526020918290206005919091020180546001808301546002808501546003860180546040805161010097831615979097026000190190911693909304601f810189900489028601890190935282855263ffffffff958616985092968582169664010000000090920490951694909392919083018282801561274d5780601f106127225761010080835404028352916020019161274d565b820191906000526020600020905b81548152906001019060200180831161273057829003601f168201915b5050505060048301805460408051602060026001851615610100026000190190941693909304601f81018490048402820184019092528181529495949350908301828280156127dd5780601f106127b2576101008083540402835291602001916127dd565b820191906000526020600020905b8154815290600101906020018083116127c057829003601f168201915b5050505050905086565b600354600160a060020a031633146127fe57600080fd5b6013546000101561283b57426013600081548110151561281a57fe5b600091825260209091206005909102015463ffffffff161161283b57600080fd5b600c54610f7c908290600160a060020a03166139c3565b61285a613b7e565b600080612865613aca565b6040805160e160020a633bef842b0281526010600482015260248101889052905173__PaymentMethods________________________916377df0856916044808301926020929190829003018186803b1580156128c157600080fd5b505af41580156128d5573d6000803e3d6000fd5b505050506040513d60208110156128eb57600080fd5b505115156128f857600080fd5b612900612568565b9250925081151561291057611e61565b85612919612b99565b146129a6576008546040805160e060020a63cfec719f028152600481018990529051600160a060020a039092169163cfec719f916024808201926020929091908290030181600087803b15801561296f57600080fd5b505af1158015612983573d6000803e3d6000fd5b505050506040513d602081101561299957600080fd5b505115156129a657611e61565b6129af8661338d565b905073__PurchaseProcessing____________________6391dab42287876013878154811015156129dc57fe5b9060005260206000209060050201600101546013888154811015156129fd57fe5b9060005260206000209060050201600301601389815481101515612a1d57fe5b6000918252602082206004600590920201019088906020020151886001602002015189600260200201518a600360200201518b600460200201516040518b63ffffffff1660e060020a028152600401808b600019166000191681526020018a8152602001898152602001806020018060200188815260200187815260200186815260200185815260200184815260200183810383528a8181548152602001915080548015612aea57602002820191906000526020600020905b815481526020019060010190808311612ad6575b50508381038252898181548152602001915080548015612b2957602002820191906000526020600020905b815481526020019060010190808311612b15575b50509c5050505050505050505050505060806040518083038186803b158015612b5157600080fd5b505af4158015612b65573d6000803e3d6000fd5b505050506040513d601f19601f820116820180604052506080811015611e5d57600080fd5b600554600160a060020a031681565b7f455448000000000000000000000000000000000000000000000000000000000090565b6008546040805160e060020a63cfec719f02815260048101849052905173__PurchaseProcessing____________________92633676737c9286928692600160a060020a03169163cfec719f9160248083019260209291908290030181600087803b158015612c2b57600080fd5b505af1158015612c3f573d6000803e3d6000fd5b505050506040513d6020811015612c5557600080fd5b5051612c62576000612ce0565b6008546040805160e460020a630b12e441028152600481018890529051600160a060020a039092169163b12e4410916024808201926020929091908290030181600087803b158015612cb357600080fd5b505af1158015612cc7573d6000803e3d6000fd5b505050506040513d6020811015612cdd57600080fd5b50515b600554600654600d54600c546040805163ffffffff8a1660e060020a028152600160a060020a0395861695948516949384169390921691600401908190899080838360005b83811015612d3d578181015183820152602001612d25565b50505050919091019788525050600160a060020a039485166020870152928416604080870191909152918416606086015283166080850152911660a08301525160c08083019350600092829003018186803b158015612d9b57600080fd5b505af4158015610e68573d6000803e3d6000fd5b6008546040805160e060020a63cfec719f02815260048101849052905173__PurchaseProcessing____________________92634bb1e9ff928892889288928892600160a060020a039092169163cfec719f916024808201926020929091908290030181600087803b158015612e2457600080fd5b505af1158015612e38573d6000803e3d6000fd5b505050506040513d6020811015612e4e57600080fd5b5051612e5b576000612ed9565b6008546040805160e460020a630b12e441028152600481018a90529051600160a060020a039092169163b12e4410916024808201926020929091908290030181600087803b158015612eac57600080fd5b505af1158015612ec0573d6000803e3d6000fd5b505050506040513d6020811015612ed657600080fd5b50515b60055460405160e060020a63ffffffff8916028152600160a060020a0390911690600401808760a080838360005b83811015612f1f578181015183820152602001612f07565b5050505090500186600260200280838360005b83811015612f4a578181015183820152602001612f32565b50505063ffffffff909816920191825250602081019490945250600160a060020a039182166040808501919091529116606083015251608080830195506000945090925090829003018186803b158015612fa357600080fd5b505af4158015612fb7573d6000803e3d6000fd5b5050505050505050565b612fc9612b99565b81141561309d57600754600160a060020a031663d0baf2f561300184600160200201518660015b60200201519063ffffffff613a1916565b855160208601513391908690613019908a6001612ff0565b89600260200201516040805160e060020a63ffffffff8a16028152600160a060020a03909616600487015260248601949094526044850192909252606484015260848301525160a480830192600092919082900301818588803b15801561307f57600080fd5b505af1158015613093573d6000803e3d6000fd5b5050505050613279565b6008546040805160e460020a630b12e441028152600481018490529051600160a060020a039092169163b12e4410916024808201926020929091908290030181600087803b1580156130ee57600080fd5b505af1158015613102573d6000803e3d6000fd5b505050506040513d602081101561311857600080fd5b5051600754600160a060020a039182169163a9059cbb91166131438560016020020151876001612ff0565b6040518363ffffffff1660e060020a0281526004018083600160a060020a0316600160a060020a0316815260200182815260200192505050602060405180830381600087803b15801561319557600080fd5b505af11580156131a9573d6000803e3d6000fd5b505050506040513d60208110156131bf57600080fd5b505115156131cc57600080fd5b600754600160a060020a031663d0baf2f5338560006020020151846131fa8760016020020151896001612ff0565b88600260200201516040805160e060020a63ffffffff8916028152600160a060020a03909616600487015260248601949094526044850192909252606484015260848301525160a480830192600092919082900301818387803b15801561326057600080fd5b505af1158015613274573d6000803e3d6000fd5b505050505b505050565b61328f60008263ffffffff613a3016565b604051600160a060020a038216907fa3b62bc36326052d97ea62d63c3d60308ed4c3ea8ac079dd8499f1e9c4f80c0f90600090a250565b6000600160a060020a03821615156132dd57600080fd5b50600160a060020a03166000908152602091909152604090205460ff1690565b61330e60018263ffffffff613a7c16565b604051600160a060020a038216907f941e31c3e651de34a7fcf0132d9d02c2df9377e6b5f932bec5daf6353c94f90e90600090a250565b61335660008263ffffffff613a7c16565b604051600160a060020a038216907f44d6d25963f097ad14f29f06854a01f575648a1ef82f30e562ccd3889717e33990600090a250565b613395613aca565b600854604080517f8eaa6ac0000000000000000000000000000000000000000000000000000000008152600481018590529051600160a060020a0390921691638eaa6ac0916024808201926020929091908290030181600087803b1580156133fc57600080fd5b505af1158015613410573d6000803e3d6000fd5b505050506040513d602081101561342657600080fd5b50518152600954602080830191909152600554604080517f313ce5670000000000000000000000000000000000000000000000000000000081529051600160a060020a039092169263313ce567926004808401938290030181600087803b15801561349057600080fd5b505af11580156134a4573d6000803e3d6000fd5b505050506040513d60208110156134ba57600080fd5b505160ff166040820152816134cd612b99565b146135e0576008546040805160e460020a630b12e441028152600481018590529051600160a060020a039092169163b12e4410916024808201926020929091908290030181600087803b15801561352357600080fd5b505af1158015613537573d6000803e3d6000fd5b505050506040513d602081101561354d57600080fd5b5051604080517f313ce5670000000000000000000000000000000000000000000000000000000081529051600160a060020a039092169163313ce567916004808201926020929091908290030181600087803b1580156135ac57600080fd5b505af11580156135c0573d6000803e3d6000fd5b505050506040513d60208110156135d657600080fd5b505160ff166135e3565b60125b6060820152600554604080517f70a082310000000000000000000000000000000000000000000000000000000081523060048201529051600160a060020a03909216916370a08231916024808201926020929091908290030181600087803b15801561364e57600080fd5b505af1158015613662573d6000803e3d6000fd5b505050506040513d602081101561367857600080fd5b50516080820152919050565b61369560018263ffffffff613a3016565b604051600160a060020a038216907fa3bfdef3d8149bacf15b7b64199fca8228c0fd4f8fcdd11cc7871829baf319c390600090a250565b73__Crowdsale_____________________________63ae1c60546013601485856040518563ffffffff1660e060020a0281526004018085815260200184815260200180602001806020018381038352858181518152602001915080516000925b8184101561376e5760208085028401015160c080838360005b8381101561375d578181015183820152602001613745565b50505050905001926001019261372c565b868103855287518152875160209182019450818901935002905080838360005b838110156137a657818101518382015260200161378e565b50505050905001965050505050505060006040518083038186803b1580156137cd57600080fd5b505af41580156137e1573d6000803e3d6000fd5b50506040517f743961f4e677d1146fbf85d75565b1c5474fd083eb166f8b9595cf5d01a4d6e6925060009150a15050565b73__Crowdsale_____________________________63e1231f1e601360148686866040518663ffffffff1660e060020a028152600401808681526020018581526020018060200180602001806020018481038452878181518152602001915080516000925b818410156138b957602080850284010151608080838360005b838110156138a8578181015183820152602001613890565b505050509050019260010192613877565b878103865289518152895160209182019450818b01935002905080838360005b838110156138f15781810151838201526020016138d9565b50505050905001848103825285818151815260200191508051906020019080838360005b8381101561392d578181015183820152602001613915565b50505050905090810190601f16801561395a5780820380516001836020036101000a031916815260200191505b509850505050505050505060006040518083038186803b15801561397d57600080fd5b505af4158015613991573d6000803e3d6000fd5b50506040517f56d9a2e016027a3725bf162ef2779c8b28d4dbec97c679cfba02dbb31a34c7ca925060009150a1505050565b600082116139d057600080fd5b600160a060020a03811615156139e557600080fd5b600991909155600c805473ffffffffffffffffffffffffffffffffffffffff1916600160a060020a03909216919091179055565b60008083831115613a2957600080fd5b5050900390565b600160a060020a0381161515613a4557600080fd5b613a4f82826132c6565b1515613a5a57600080fd5b600160a060020a0316600090815260209190915260409020805460ff19169055565b600160a060020a0381161515613a9157600080fd5b613a9b82826132c6565b15613aa557600080fd5b600160a060020a0316600090815260209190915260409020805460ff19166001179055565b60a0604051908101604052806005906020820280388339509192915050565b60408051808201825290600290829080388339509192915050565b828054600181600116156101000203166002900490600052602060002090601f016020900481019282601f10613b4557805160ff1916838001178555613b72565b82800160010185558215613b72579182015b82811115613b72578251825591602001919060010190613b57565b50611942929150613b9d565b6080604051908101604052806004906020820280388339509192915050565b61171d91905b808211156119425760008155600101613ba35600a165627a7a723058205526be6ce1fc053b64e899e9873c1b21326f6299ceb92edda430b7bf6c352d4a0029a165627a7a72305820cf0ca77a9e1b01470bbedbff1b32de52dbb33fb201819630b20bcd07041e772f0029",
  "source": "pragma solidity 0.4.24;\n\nimport \"./IW12CrowdsaleFactory.sol\";\nimport \"./IW12FundFactory.sol\";\nimport \"../../rates/IRates.sol\";\nimport \"../../versioning/Versionable.sol\";\nimport \"../W12Crowdsale.sol\";\n\n\ncontract W12CrowdsaleFactory is Versionable, IW12CrowdsaleFactory {\n    IW12FundFactory private fundFactory;\n    IRates private rates;\n\n    event CrowdsaleCreated(address indexed token, address crowdsaleAddress, address fundAddress);\n\n    constructor(uint version, IW12FundFactory _fundFactory, IRates _rates) Versionable(version) public {\n        require(_fundFactory != address(0));\n        require(_rates != address(0));\n\n        fundFactory = _fundFactory;\n        rates = _rates;\n    }\n\n    function createCrowdsale(\n        address tokenAddress,\n        address wTokenAddress,\n        uint price,\n        address serviceWallet,\n        uint serviceFee,\n        uint WTokenSaleFeePercent,\n        uint trancheFeePercent,\n        address swap,\n        address[] owners\n    )\n        external returns (IW12Crowdsale result)\n    {\n        IW12Fund fund = fundFactory.createFund(swap, serviceWallet, trancheFeePercent);\n\n        result = new W12Crowdsale(\n            version,\n            tokenAddress,\n            wTokenAddress,\n            price,\n            serviceWallet,\n            swap,\n            serviceFee,\n            WTokenSaleFeePercent,\n            fund,\n            rates\n        );\n\n        fund.setCrowdsale(result);\n        // make crowdsale a admin\n        fund.addAdmin(address(result));\n\n        // give the project owner role to addresses from owners list\n        for(uint i = 0; i < owners.length; i++) {\n            require(owners[i] != address(0));\n\n            result.addProjectOwner(owners[i]);\n            fund.addProjectOwner(owners[i]);\n        }\n\n        // transfer all permissions to sender\n        fund.addAdmin(msg.sender);\n        fund.transferPrimary(msg.sender);\n        fund.renounceAdmin();\n        fund.renounceProjectOwner();\n\n        // transfer all permissions to sender\n        result.addAdmin(msg.sender);\n        result.transferPrimary(msg.sender);\n        result.renounceAdmin();\n        result.renounceProjectOwner();\n\n        emit CrowdsaleCreated(wTokenAddress, address(result), address(fund));\n    }\n}\n",
  "sourcePath": "/Users/gauss/_games/w12/Protocol/contracts/crowdsale/factories/W12CrowdsaleFactory.sol",
  "compiler": {
    "name": "solc",
    "version": "0.4.24+commit.e67f0147.Emscripten.clang"
  },
  "schemaVersion": "2.0.1",
  "updatedAt": "2019-07-31T23:06:31.966Z"
}