{
  "contractName": "W12Crowdsale",
  "abi": [
    {
      "constant": true,
      "inputs": [],
      "name": "startDate",
      "outputs": [
        {
          "name": "",
          "type": "uint32"
        }
      ],
      "payable": false,
      "stateMutability": "view",
      "type": "function"
    },
    {
      "constant": true,
      "inputs": [],
      "name": "serviceWallet",
      "outputs": [
        {
          "name": "",
          "type": "address"
        }
      ],
      "payable": false,
      "stateMutability": "view",
      "type": "function"
    },
    {
      "constant": false,
      "inputs": [],
      "name": "renounceOwnership",
      "outputs": [],
      "payable": false,
      "stateMutability": "nonpayable",
      "type": "function"
    },
    {
      "constant": true,
      "inputs": [
        {
          "name": "",
          "type": "uint256"
        }
      ],
      "name": "stages",
      "outputs": [
        {
          "name": "endDate",
          "type": "uint32"
        },
        {
          "name": "discount",
          "type": "uint8"
        },
        {
          "name": "vesting",
          "type": "uint32"
        }
      ],
      "payable": false,
      "stateMutability": "view",
      "type": "function"
    },
    {
      "constant": true,
      "inputs": [],
      "name": "serviceFee",
      "outputs": [
        {
          "name": "",
          "type": "uint8"
        }
      ],
      "payable": false,
      "stateMutability": "view",
      "type": "function"
    },
    {
      "constant": true,
      "inputs": [],
      "name": "owner",
      "outputs": [
        {
          "name": "",
          "type": "address"
        }
      ],
      "payable": false,
      "stateMutability": "view",
      "type": "function"
    },
    {
      "constant": true,
      "inputs": [],
      "name": "price",
      "outputs": [
        {
          "name": "",
          "type": "uint256"
        }
      ],
      "payable": false,
      "stateMutability": "view",
      "type": "function"
    },
    {
      "constant": true,
      "inputs": [],
      "name": "fund",
      "outputs": [
        {
          "name": "",
          "type": "address"
        }
      ],
      "payable": false,
      "stateMutability": "view",
      "type": "function"
    },
    {
      "constant": true,
      "inputs": [
        {
          "name": "",
          "type": "uint256"
        }
      ],
      "name": "milestones",
      "outputs": [
        {
          "name": "endDate",
          "type": "uint32"
        },
        {
          "name": "tranchePercent",
          "type": "uint8"
        },
        {
          "name": "voteEndDate",
          "type": "uint32"
        }
      ],
      "payable": false,
      "stateMutability": "view",
      "type": "function"
    },
    {
      "constant": false,
      "inputs": [
        {
          "name": "newOwner",
          "type": "address"
        }
      ],
      "name": "transferOwnership",
      "outputs": [],
      "payable": false,
      "stateMutability": "nonpayable",
      "type": "function"
    },
    {
      "constant": true,
      "inputs": [],
      "name": "token",
      "outputs": [
        {
          "name": "",
          "type": "address"
        }
      ],
      "payable": false,
      "stateMutability": "view",
      "type": "function"
    },
    {
      "inputs": [
        {
          "name": "_token",
          "type": "address"
        },
        {
          "name": "_startDate",
          "type": "uint32"
        },
        {
          "name": "_price",
          "type": "uint256"
        },
        {
          "name": "_serviceWallet",
          "type": "address"
        },
        {
          "name": "_serviceFee",
          "type": "uint8"
        },
        {
          "name": "_fund",
          "type": "address"
        }
      ],
      "payable": false,
      "stateMutability": "nonpayable",
      "type": "constructor"
    },
    {
      "payable": true,
      "stateMutability": "payable",
      "type": "fallback"
    },
    {
      "anonymous": false,
      "inputs": [
        {
          "indexed": true,
          "name": "buyer",
          "type": "address"
        },
        {
          "indexed": false,
          "name": "amountPaid",
          "type": "uint256"
        },
        {
          "indexed": false,
          "name": "tokensBought",
          "type": "uint256"
        }
      ],
      "name": "TokenPurchase",
      "type": "event"
    },
    {
      "anonymous": false,
      "inputs": [],
      "name": "StagesUpdated",
      "type": "event"
    },
    {
      "anonymous": false,
      "inputs": [
        {
          "indexed": true,
          "name": "previousOwner",
          "type": "address"
        }
      ],
      "name": "OwnershipRenounced",
      "type": "event"
    },
    {
      "anonymous": false,
      "inputs": [
        {
          "indexed": true,
          "name": "previousOwner",
          "type": "address"
        },
        {
          "indexed": true,
          "name": "newOwner",
          "type": "address"
        }
      ],
      "name": "OwnershipTransferred",
      "type": "event"
    },
    {
      "constant": true,
      "inputs": [],
      "name": "stagesLength",
      "outputs": [
        {
          "name": "",
          "type": "uint256"
        }
      ],
      "payable": false,
      "stateMutability": "view",
      "type": "function"
    },
    {
      "constant": true,
      "inputs": [],
      "name": "milestonesLength",
      "outputs": [
        {
          "name": "",
          "type": "uint256"
        }
      ],
      "payable": false,
      "stateMutability": "view",
      "type": "function"
    },
    {
      "constant": true,
      "inputs": [
        {
          "name": "stageNumber",
          "type": "uint256"
        }
      ],
      "name": "getStageVolumeBoundaries",
      "outputs": [
        {
          "name": "",
          "type": "uint256[]"
        }
      ],
      "payable": false,
      "stateMutability": "view",
      "type": "function"
    },
    {
      "constant": true,
      "inputs": [
        {
          "name": "stageNumber",
          "type": "uint256"
        }
      ],
      "name": "getStageVolumeBonuses",
      "outputs": [
        {
          "name": "",
          "type": "uint8[]"
        }
      ],
      "payable": false,
      "stateMutability": "view",
      "type": "function"
    },
    {
      "constant": false,
      "inputs": [
        {
          "name": "_startDate",
          "type": "uint32"
        },
        {
          "name": "_price",
          "type": "uint256"
        },
        {
          "name": "_serviceWallet",
          "type": "address"
        }
      ],
      "name": "setParameters",
      "outputs": [],
      "payable": false,
      "stateMutability": "nonpayable",
      "type": "function"
    },
    {
      "constant": false,
      "inputs": [
        {
          "name": "stage_endDates",
          "type": "uint32[]"
        },
        {
          "name": "stage_discounts",
          "type": "uint8[]"
        },
        {
          "name": "stage_vestings",
          "type": "uint32[]"
        }
      ],
      "name": "setStages",
      "outputs": [],
      "payable": false,
      "stateMutability": "nonpayable",
      "type": "function"
    },
    {
      "constant": false,
      "inputs": [
        {
          "name": "stage",
          "type": "uint256"
        },
        {
          "name": "volumeBoundaries",
          "type": "uint256[]"
        },
        {
          "name": "volumeBonuses",
          "type": "uint8[]"
        }
      ],
      "name": "setStageVolumeBonuses",
      "outputs": [],
      "payable": false,
      "stateMutability": "nonpayable",
      "type": "function"
    },
    {
      "constant": false,
      "inputs": [
        {
          "name": "endDates",
          "type": "uint32[]"
        },
        {
          "name": "tranchePercents",
          "type": "uint8[]"
        },
        {
          "name": "voteEndDates",
          "type": "uint32[]"
        }
      ],
      "name": "setMilestones",
      "outputs": [],
      "payable": false,
      "stateMutability": "nonpayable",
      "type": "function"
    },
    {
      "constant": false,
      "inputs": [],
      "name": "buyTokens",
      "outputs": [],
      "payable": true,
      "stateMutability": "payable",
      "type": "function"
    },
    {
      "constant": true,
      "inputs": [],
      "name": "getWToken",
      "outputs": [
        {
          "name": "",
          "type": "address"
        }
      ],
      "payable": false,
      "stateMutability": "view",
      "type": "function"
    },
    {
      "constant": false,
      "inputs": [],
      "name": "claimRemainingTokens",
      "outputs": [],
      "payable": false,
      "stateMutability": "nonpayable",
      "type": "function"
    }
  ],
  "bytecode": "0x608060405260008060146101000a81548160ff0219169083151502179055503480156200002b57600080fd5b5060405160c08062002412833981018060405281019080805190602001909291908051906020019092919080519060200190929190805190602001909291908051906020019092919080519060200190929190505050336000806101000a81548173ffffffffffffffffffffffffffffffffffffffff021916908373ffffffffffffffffffffffffffffffffffffffff160217905550600073ffffffffffffffffffffffffffffffffffffffff168673ffffffffffffffffffffffffffffffffffffffff1614151515620000fe57600080fd5b60008260ff161015801562000116575060648260ff16105b15156200012257600080fd5b600073ffffffffffffffffffffffffffffffffffffffff168173ffffffffffffffffffffffffffffffffffffffff16141515156200015f57600080fd5b85600160006101000a81548173ffffffffffffffffffffffffffffffffffffffff021916908373ffffffffffffffffffffffffffffffffffffffff160217905550620001bc85858562000224640100000000026401000000009004565b81600360006101000a81548160ff021916908360ff16021790555080600460006101000a81548173ffffffffffffffffffffffffffffffffffffffff021916908373ffffffffffffffffffffffffffffffffffffffff160217905550505050505050620002f5565b428363ffffffff16101515156200023a57600080fd5b6000821115156200024a57600080fd5b600073ffffffffffffffffffffffffffffffffffffffff168173ffffffffffffffffffffffffffffffffffffffff16141515156200028757600080fd5b82600160146101000a81548163ffffffff021916908363ffffffff1602179055508160028190555080600360016101000a81548173ffffffffffffffffffffffffffffffffffffffff021916908373ffffffffffffffffffffffffffffffffffffffff160217905550505050565b61210d80620003056000396000f300608060405260043610610128576000357c0100000000000000000000000000000000000000000000000000000000900463ffffffff1680630b97bc86146101325780630ee62c7714610169578063313602d4146101eb5780633baba4d7146102025780634090cb641461022d5780634ef94e3414610284578063521b7499146102ef5780635641f3c31461034c578063715018a6146103a3578063792c02ea146103ba578063845ddcb2146103e55780638abdf5aa146104525780638da5cb5b146104835780639bed31e4146104da578063a035b1fe14610537578063b60d428814610562578063d0febe4c146105b9578063e89e4ed6146105c3578063f12585f514610630578063f2fde38b146106b2578063f9cbcef0146106f5578063fc0c546a14610760575b6101306107b7565b005b34801561013e57600080fd5b50610147610c1e565b604051808263ffffffff1663ffffffff16815260200191505060405180910390f35b34801561017557600080fd5b5061019460048036038101908080359060200190929190505050610c34565b6040518080602001828103825283818151815260200191508051906020019060200280838360005b838110156101d75780820151818401526020810190506101bc565b505050509050019250505060405180910390f35b3480156101f757600080fd5b50610200610cd2565b005b34801561020e57600080fd5b50610217610f66565b6040518082815260200191505060405180910390f35b34801561023957600080fd5b50610242610f73565b604051808273ffffffffffffffffffffffffffffffffffffffff1673ffffffffffffffffffffffffffffffffffffffff16815260200191505060405180910390f35b34801561029057600080fd5b506102ed600480360381019080803590602001908201803590602001919091929391929390803590602001908201803590602001919091929391929390803590602001908201803590602001919091929391929390505050610f9d565b005b3480156102fb57600080fd5b5061034a600480360381019080803590602001909291908035906020019082018035906020019190919293919293908035906020019082018035906020019190919293919293905050506111c2565b005b34801561035857600080fd5b506103616112ab565b604051808273ffffffffffffffffffffffffffffffffffffffff1673ffffffffffffffffffffffffffffffffffffffff16815260200191505060405180910390f35b3480156103af57600080fd5b506103b86112d1565b005b3480156103c657600080fd5b506103cf6113d3565b6040518082815260200191505060405180910390f35b3480156103f157600080fd5b50610410600480360381019080803590602001909291905050506113e0565b604051808463ffffffff1663ffffffff1681526020018360ff1660ff1681526020018263ffffffff1663ffffffff168152602001935050505060405180910390f35b34801561045e57600080fd5b50610467611446565b604051808260ff1660ff16815260200191505060405180910390f35b34801561048f57600080fd5b50610498611459565b604051808273ffffffffffffffffffffffffffffffffffffffff1673ffffffffffffffffffffffffffffffffffffffff16815260200191505060405180910390f35b3480156104e657600080fd5b50610535600480360381019080803563ffffffff16906020019092919080359060200190929190803573ffffffffffffffffffffffffffffffffffffffff16906020019092919050505061147e565b005b34801561054357600080fd5b5061054c6114e9565b6040518082815260200191505060405180910390f35b34801561056e57600080fd5b506105776114ef565b604051808273ffffffffffffffffffffffffffffffffffffffff1673ffffffffffffffffffffffffffffffffffffffff16815260200191505060405180910390f35b6105c16107b7565b005b3480156105cf57600080fd5b506105ee60048036038101908080359060200190929190505050611515565b604051808463ffffffff1663ffffffff1681526020018360ff1660ff1681526020018263ffffffff1663ffffffff168152602001935050505060405180910390f35b34801561063c57600080fd5b5061065b60048036038101908080359060200190929190505050611577565b6040518080602001828103825283818151815260200191508051906020019060200280838360005b8381101561069e578082015181840152602081019050610683565b505050509050019250505060405180910390f35b3480156106be57600080fd5b506106f3600480360381019080803573ffffffffffffffffffffffffffffffffffffffff1690602001909291905050506115ef565b005b34801561070157600080fd5b5061075e600480360381019080803590602001908201803590602001919091929391929390803590602001908201803590602001919091929391929390803590602001908201803590602001919091929391929390505050611744565b005b34801561076c57600080fd5b50610775611b39565b604051808273ffffffffffffffffffffffffffffffffffffffff1673ffffffffffffffffffffffffffffffffffffffff16815260200191505060405180910390f35b60008060008060008060149054906101000a900460ff161515156107da57600080fd5b6001600060146101000a81548160ff02191690831515021790555060003411151561080457600080fd5b42600160149054906101000a900463ffffffff1663ffffffff161115151561082b57600080fd5b600060058054905011151561083f57600080fd5b610847611b5f565b94509450945060008560ff16116108605760025461088f565b61088e60646108808760640360ff16600254611cfb90919063ffffffff16565b611d3390919063ffffffff16565b5b91506108cf60646108c1846108b38760640160ff1634611cfb90919063ffffffff16565b611d3390919063ffffffff16565b611d3390919063ffffffff16565b9050600160009054906101000a900473ffffffffffffffffffffffffffffffffffffffff1673ffffffffffffffffffffffffffffffffffffffff16639d2e47773383876040518463ffffffff167c0100000000000000000000000000000000000000000000000000000000028152600401808473ffffffffffffffffffffffffffffffffffffffff1673ffffffffffffffffffffffffffffffffffffffff1681526020018381526020018263ffffffff1663ffffffff1681526020019350505050602060405180830381600087803b1580156109aa57600080fd5b505af11580156109be573d6000803e3d6000fd5b505050506040513d60208110156109d457600080fd5b810190808051906020019092919050505015156109f057600080fd5b6000600360009054906101000a900460ff1660ff161115610aac57600360019054906101000a900473ffffffffffffffffffffffffffffffffffffffff1673ffffffffffffffffffffffffffffffffffffffff166108fc610a7f6064610a71600360009054906101000a900460ff1660ff1634611cfb90919063ffffffff16565b611d3390919063ffffffff16565b9081150290604051600060405180830381858888f19350505050158015610aaa573d6000803e3d6000fd5b505b600460009054906101000a900473ffffffffffffffffffffffffffffffffffffffff1673ffffffffffffffffffffffffffffffffffffffff1663958799cb3073ffffffffffffffffffffffffffffffffffffffff1631620186a09033856040518563ffffffff167c0100000000000000000000000000000000000000000000000000000000028152600401808373ffffffffffffffffffffffffffffffffffffffff1673ffffffffffffffffffffffffffffffffffffffff168152602001828152602001925050506000604051808303818589803b158015610b8d57600080fd5b5088f1158015610ba1573d6000803e3d6000fd5b5050505050503373ffffffffffffffffffffffffffffffffffffffff167fcd60aa75dea3072fbc07ae6d7d856b5dc5f4eee88854f5b4abf7b680ef8bc50f3483604051808381526020018281526020019250505060405180910390a260008060146101000a81548160ff0219169083151502179055505050505050565b600160149054906101000a900463ffffffff1681565b6060600582815481101515610c4557fe5b9060005260206000209060030201600201805480602002602001604051908101604052809291908181526020018280548015610cc657602002820191906000526020600020906000905b82829054906101000a900460ff1660ff1681526020019060010190602082600001049283019260010382029150808411610c8f5790505b50505050509050919050565b6000809054906101000a900473ffffffffffffffffffffffffffffffffffffffff1673ffffffffffffffffffffffffffffffffffffffff163373ffffffffffffffffffffffffffffffffffffffff16141515610d2d57600080fd5b6000600580549050141515610d4157600080fd5b600160009054906101000a900473ffffffffffffffffffffffffffffffffffffffff1673ffffffffffffffffffffffffffffffffffffffff1663a9059cbb6000809054906101000a900473ffffffffffffffffffffffffffffffffffffffff16600160009054906101000a900473ffffffffffffffffffffffffffffffffffffffff1673ffffffffffffffffffffffffffffffffffffffff166370a08231306040518263ffffffff167c0100000000000000000000000000000000000000000000000000000000028152600401808273ffffffffffffffffffffffffffffffffffffffff1673ffffffffffffffffffffffffffffffffffffffff168152602001915050602060405180830381600087803b158015610e5e57600080fd5b505af1158015610e72573d6000803e3d6000fd5b505050506040513d6020811015610e8857600080fd5b81019080805190602001909291905050506040518363ffffffff167c0100000000000000000000000000000000000000000000000000000000028152600401808373ffffffffffffffffffffffffffffffffffffffff1673ffffffffffffffffffffffffffffffffffffffff16815260200182815260200192505050602060405180830381600087803b158015610f1e57600080fd5b505af1158015610f32573d6000803e3d6000fd5b505050506040513d6020811015610f4857600080fd5b81019080805190602001909291905050501515610f6457600080fd5b565b6000600680549050905090565b6000600160009054906101000a900473ffffffffffffffffffffffffffffffffffffffff16905090565b6000806000809054906101000a900473ffffffffffffffffffffffffffffffffffffffff1673ffffffffffffffffffffffffffffffffffffffff163373ffffffffffffffffffffffffffffffffffffffff16141515610ffb57600080fd5b7fffffffffffffffffffffffffffffffffffffffffffffffffffffffffffffffff60ff16888890501115151561103057600080fd5b60008888905011151561104257600080fd5b858590508888905014151561105657600080fd5b838390508888905014151561106a57600080fd5b8787905091506006600061107e9190611e17565b600090505b8160ff168160ff1610156111b85760066060604051908101604052808a8a8560ff1681811015156110b057fe5b9050602002013563ffffffff1663ffffffff16815260200188888560ff1681811015156110d957fe5b9050602002013560ff1660ff16815260200186868560ff1681811015156110fc57fe5b9050602002013563ffffffff1663ffffffff1681525090806001815401808255809150509060018203906000526020600020016000909192909190915060008201518160000160006101000a81548163ffffffff021916908363ffffffff16021790555060208201518160000160046101000a81548160ff021916908360ff16021790555060408201518160000160056101000a81548163ffffffff021916908363ffffffff1602179055505050508080600101915050611083565b5050505050505050565b6000809054906101000a900473ffffffffffffffffffffffffffffffffffffffff1673ffffffffffffffffffffffffffffffffffffffff163373ffffffffffffffffffffffffffffffffffffffff1614151561121d57600080fd5b818190508484905014151561123157600080fd5b6005805490508510151561124457600080fd5b838360058781548110151561125557fe5b90600052602060002090600302016001019190611273929190611e38565b50818160058781548110151561128557fe5b906000526020600020906003020160020191906112a3929190611e85565b505050505050565b600360019054906101000a900473ffffffffffffffffffffffffffffffffffffffff1681565b6000809054906101000a900473ffffffffffffffffffffffffffffffffffffffff1673ffffffffffffffffffffffffffffffffffffffff163373ffffffffffffffffffffffffffffffffffffffff1614151561132c57600080fd5b6000809054906101000a900473ffffffffffffffffffffffffffffffffffffffff1673ffffffffffffffffffffffffffffffffffffffff167ff8df31144d9c2f0f6b59d69b8b98abd5459d07f2742c4df920b25aae33c6482060405160405180910390a260008060006101000a81548173ffffffffffffffffffffffffffffffffffffffff021916908373ffffffffffffffffffffffffffffffffffffffff160217905550565b6000600580549050905090565b6005818154811015156113ef57fe5b90600052602060002090600302016000915090508060000160009054906101000a900463ffffffff16908060000160049054906101000a900460ff16908060000160059054906101000a900463ffffffff16905083565b600360009054906101000a900460ff1681565b6000809054906101000a900473ffffffffffffffffffffffffffffffffffffffff1681565b6000809054906101000a900473ffffffffffffffffffffffffffffffffffffffff1673ffffffffffffffffffffffffffffffffffffffff163373ffffffffffffffffffffffffffffffffffffffff161415156114d957600080fd5b6114e4838383611d49565b505050565b60025481565b600460009054906101000a900473ffffffffffffffffffffffffffffffffffffffff1681565b60068181548110151561152457fe5b906000526020600020016000915090508060000160009054906101000a900463ffffffff16908060000160049054906101000a900460ff16908060000160059054906101000a900463ffffffff16905083565b606060058281548110151561158857fe5b90600052602060002090600302016001018054806020026020016040519081016040528092919081815260200182805480156115e357602002820191906000526020600020905b8154815260200190600101908083116115cf575b50505050509050919050565b6000809054906101000a900473ffffffffffffffffffffffffffffffffffffffff1673ffffffffffffffffffffffffffffffffffffffff163373ffffffffffffffffffffffffffffffffffffffff1614151561164a57600080fd5b600073ffffffffffffffffffffffffffffffffffffffff168173ffffffffffffffffffffffffffffffffffffffff161415151561168657600080fd5b8073ffffffffffffffffffffffffffffffffffffffff166000809054906101000a900473ffffffffffffffffffffffffffffffffffffffff1673ffffffffffffffffffffffffffffffffffffffff167f8be0079c531659141344cd1fd0a4f28419497f9722a3daafe3b4186f6b6457e060405160405180910390a3806000806101000a81548173ffffffffffffffffffffffffffffffffffffffff021916908373ffffffffffffffffffffffffffffffffffffffff16021790555050565b6000806000809054906101000a900473ffffffffffffffffffffffffffffffffffffffff1673ffffffffffffffffffffffffffffffffffffffff163373ffffffffffffffffffffffffffffffffffffffff161415156117a257600080fd5b7fffffffffffffffffffffffffffffffffffffffffffffffffffffffffffffffff60ff1688889050111515156117d757600080fd5b6000888890501115156117e957600080fd5b85859050888890501415156117fd57600080fd5b838390508888905014151561181157600080fd5b8787905091508160ff166005816118289190611f2f565b50600090505b8160ff168160ff161015611b0357600086868360ff16818110151561184f57fe5b9050602002013560ff1660ff16101580156118875750606486868360ff16818110151561187857fe5b9050602002013560ff1660ff16105b151561189257600080fd5b87878260ff1681811015156118a357fe5b9050602002013563ffffffff1663ffffffff16600160149054906101000a900463ffffffff1663ffffffff161015156118db57600080fd5b6001820360ff168160ff1610156119d35787876001830160ff16818110151561190057fe5b9050602002013563ffffffff1663ffffffff1688888360ff16818110151561192457fe5b9050602002013563ffffffff1663ffffffff161015156119d2576040517f08c379a00000000000000000000000000000000000000000000000000000000081526004018080602001828103825260228152602001807f53746167657320617265206e6f7420696e20686973746f726963616c206f726481526020017f657200000000000000000000000000000000000000000000000000000000000081525060400191505060405180910390fd5b5b87878260ff1681811015156119e457fe5b9050602002013563ffffffff16600560018385030360ff16815481101515611a0857fe5b906000526020600020906003020160000160006101000a81548163ffffffff021916908363ffffffff16021790555085858260ff168181101515611a4857fe5b9050602002013560ff16600560018385030360ff16815481101515611a6957fe5b906000526020600020906003020160000160046101000a81548160ff021916908360ff16021790555083838260ff168181101515611aa357fe5b9050602002013563ffffffff16600560018385030360ff16815481101515611ac757fe5b906000526020600020906003020160000160056101000a81548163ffffffff021916908363ffffffff160217905550808060010191505061182e565b7f743961f4e677d1146fbf85d75565b1c5474fd083eb166f8b9595cf5d01a4d6e660405160405180910390a15050505050505050565b600160009054906101000a900473ffffffffffffffffffffffffffffffffffffffff1681565b60008060008060008060006005805490501415611b8f576000806000829250819150809050955095509550611cf3565b6005600160058054905003815481101515611ba657fe5b90600052602060002090600302019250428360000160009054906101000a900463ffffffff1663ffffffff16101515611cce576000935060009150600083600101805490501115611c9b57600090505b6001836001018054905003811015611c9a57813410158015611c3257508260010181815481101515611c2457fe5b906000526020600020015434105b15611c6f578260020181815481101515611c4857fe5b90600052602060002090602091828204019190069054906101000a900460ff169350611c9a565b8260010181815481101515611c8057fe5b906000526020600020015491508080600101915050611bf6565b5b8260000160049054906101000a900460ff168360000160059054906101000a900463ffffffff1685955095509550611cf3565b6005805480919060019003611ce39190611f2f565b50611cec611b5f565b9550955095505b505050909192565b600080831415611d0e5760009050611d2d565b8183029050818382811515611d1f57fe5b04141515611d2957fe5b8090505b92915050565b60008183811515611d4057fe5b04905092915050565b428363ffffffff1610151515611d5e57600080fd5b600082111515611d6d57600080fd5b600073ffffffffffffffffffffffffffffffffffffffff168173ffffffffffffffffffffffffffffffffffffffff1614151515611da957600080fd5b82600160146101000a81548163ffffffff021916908363ffffffff1602179055508160028190555080600360016101000a81548173ffffffffffffffffffffffffffffffffffffffff021916908373ffffffffffffffffffffffffffffffffffffffff160217905550505050565b5080546000825590600052602060002090810190611e359190611f61565b50565b828054828255906000526020600020908101928215611e74579160200282015b82811115611e73578235825591602001919060010190611e58565b5b509050611e819190611fc2565b5090565b82805482825590600052602060002090601f01602090048101928215611f1e5791602002820160005b83821115611eef57833560ff1683826101000a81548160ff021916908360ff1602179055509260200192600101602081600001049283019260010302611eae565b8015611f1c5782816101000a81549060ff0219169055600101602081600001049283019260010302611eef565b505b509050611f2b9190611fe7565b5090565b815481835581811115611f5c57600302816003028360005260206000209182019101611f5b9190612017565b5b505050565b611fbf91905b80821115611fbb57600080820160006101000a81549063ffffffff02191690556000820160046101000a81549060ff02191690556000820160056101000a81549063ffffffff021916905550600101611f67565b5090565b90565b611fe491905b80821115611fe0576000816000905550600101611fc8565b5090565b90565b61201491905b8082111561201057600081816101000a81549060ff021916905550600101611fed565b5090565b90565b61209591905b8082111561209157600080820160006101000a81549063ffffffff02191690556000820160046101000a81549060ff02191690556000820160056101000a81549063ffffffff02191690556001820160006120789190612098565b60028201600061208891906120b9565b5060030161201d565b5090565b90565b50805460008255906000526020600020908101906120b69190611fc2565b50565b50805460008255601f0160209004906000526020600020908101906120de9190611fc2565b505600a165627a7a72305820d230545881ff86bbb9e21aefdb0bb133f27e4f9686a7e0a15c967fb9bd58f5e70029",
  "source": "pragma solidity ^0.4.24;\n\nimport \"../openzeppelin-solidity/contracts/ownership/Ownable.sol\";\nimport \"../openzeppelin-solidity/contracts/ReentrancyGuard.sol\";\nimport \"../openzeppelin-solidity/contracts/math/SafeMath.sol\";\nimport \"./WToken.sol\";\nimport \"./IW12Crowdsale.sol\";\nimport \"./W12Fund.sol\";\n\n\ncontract W12Crowdsale is IW12Crowdsale, Ownable, ReentrancyGuard {\n    using SafeMath for uint;\n\n    struct Stage {\n        uint32 endDate;\n        uint8 discount;\n        uint32 vesting;\n        uint[] volumeBoundaries;\n        uint8[] volumeBonuses;\n    }\n\n    struct Milestone {\n        uint32 endDate;\n        uint8 tranchePercent;\n        uint32 voteEndDate;\n    }\n\n    WToken public token;\n    uint32 public startDate;\n    uint public price;\n    uint8 public serviceFee;\n    address public serviceWallet;\n    W12Fund public fund;\n\n    Stage[] public stages;\n    Milestone[] public milestones;\n\n    event TokenPurchase(address indexed buyer, uint amountPaid, uint tokensBought);\n    event StagesUpdated();\n\n    constructor (address _token, uint32 _startDate, uint _price, address _serviceWallet, uint8 _serviceFee, W12Fund _fund) public {\n        require(_token != address(0));\n        require(_serviceFee >= 0 && _serviceFee < 100);\n        require(_fund != address(0));\n\n        token = WToken(_token);\n\n        __setParameters(_startDate, _price, _serviceWallet);\n        serviceFee = _serviceFee;\n        fund = _fund;\n    }\n\n    function stagesLength() external view returns (uint) {\n        return stages.length;\n    }\n\n    function milestonesLength() external view returns (uint) {\n        return milestones.length;\n    }\n\n    function getStageVolumeBoundaries(uint stageNumber) external view returns (uint[]) {\n        return stages[stageNumber].volumeBoundaries;\n    }\n\n    function getStageVolumeBonuses(uint stageNumber) external view returns (uint8[]) {\n        return stages[stageNumber].volumeBonuses;\n    }\n\n    function __setParameters(uint32 _startDate, uint _price, address _serviceWallet) internal {\n        require(_startDate >= now);\n        require(_price > 0);\n        require(_serviceWallet != address(0));\n\n        startDate = _startDate;\n        price = _price;\n        serviceWallet = _serviceWallet;\n    }\n\n    function setParameters(uint32 _startDate, uint _price, address _serviceWallet) external onlyOwner {\n        __setParameters(_startDate, _price, _serviceWallet);\n    }\n\n    function setStages(uint32[] stage_endDates, uint8[] stage_discounts, uint32[] stage_vestings) external onlyOwner {\n        require(stage_endDates.length <= uint8(-1));\n        require(stage_endDates.length > 0);\n        require(stage_endDates.length == stage_discounts.length);\n        require(stage_endDates.length == stage_vestings.length);\n\n        uint8 stagesCount = uint8(stage_endDates.length);\n        stages.length = stagesCount;\n\n        for(uint8 i = 0; i < stagesCount; i++) {\n            require(stage_discounts[i] >= 0 && stage_discounts[i] < 100);\n            require(startDate < stage_endDates[i]);\n            // Checking that stages entered in historical order\n            if(i < stagesCount - 1)\n                require(stage_endDates[i] < stage_endDates[i+1], \"Stages are not in historical order\");\n\n            // Reverting stage order for future use\n            stages[stagesCount - i - 1].endDate = stage_endDates[i];\n            stages[stagesCount - i - 1].discount = stage_discounts[i];\n            stages[stagesCount - i - 1].vesting = stage_vestings[i];\n        }\n\n        emit StagesUpdated();\n    }\n\n    function setStageVolumeBonuses(uint stage, uint[] volumeBoundaries, uint8[] volumeBonuses) external onlyOwner {\n        require(volumeBoundaries.length == volumeBonuses.length);\n        require(stage < stages.length);\n\n        stages[stage].volumeBoundaries = volumeBoundaries;\n        stages[stage].volumeBonuses = volumeBonuses;\n    }\n\n    function setMilestones(uint32[] endDates, uint8[] tranchePercents, uint32[] voteEndDates) external onlyOwner {\n        require(endDates.length <= uint8(-1));\n        require(endDates.length > 0);\n        require(endDates.length == tranchePercents.length);\n        require(endDates.length == voteEndDates.length);\n\n        uint8 length = uint8(endDates.length);\n        delete milestones;\n\n        for(uint8 i = 0; i < length; i++)\n            milestones.push(Milestone({\n                endDate: endDates[i],\n                tranchePercent: tranchePercents[i],\n                voteEndDate: voteEndDates[i]\n            }));\n    }\n\n    function buyTokens() payable nonReentrant public {\n        require(msg.value > 0);\n        require(startDate <= now);\n        require(stages.length > 0);\n\n        (uint8 discount, uint32 vesting, uint8 volumeBonus) = getCurrentStage();\n\n        uint stagePrice = discount > 0 ? price.mul(100 - discount).div(100) : price;\n\n        uint tokenAmount = msg.value\n            .mul(100 + volumeBonus)\n            .div(stagePrice)\n            .div(100);\n\n        require(token.vestingTransfer(msg.sender, tokenAmount, vesting));\n\n        if(serviceFee > 0)\n            serviceWallet.transfer(msg.value.mul(serviceFee).div(100));\n\n        fund.recordPurchase.value(address(this).balance).gas(100000)(msg.sender, tokenAmount);\n\n        emit TokenPurchase(msg.sender, msg.value, tokenAmount);\n    }\n\n    function getWToken() external view returns(WToken) {\n        return token;\n    }\n\n    function getCurrentStage() internal returns(uint8 discount, uint32 vesting, uint8 volumeBonus) {\n        if(stages.length == 0)\n            return (0, 0, 0);\n\n        Stage storage lastStage = stages[stages.length - 1];\n\n        if(lastStage.endDate >= now) {\n            volumeBonus = 0;\n            uint lastLowerBoundary = 0;\n\n            if(lastStage.volumeBoundaries.length > 0)\n                for (uint i = 0; i < lastStage.volumeBoundaries.length - 1; i++)\n                    if(msg.value >= lastLowerBoundary && msg.value < lastStage.volumeBoundaries[i]) {\n                        volumeBonus = lastStage.volumeBonuses[i];\n                        break;\n                    }\n                    else\n                        lastLowerBoundary = lastStage.volumeBoundaries[i];\n\n            return (lastStage.discount, lastStage.vesting, volumeBonus);\n        }\n\n        stages.length--;\n        return getCurrentStage();\n    }\n\n    function () payable external {\n        buyTokens();\n    }\n\n    function claimRemainingTokens() external onlyOwner {\n        require(stages.length == 0);\n\n        require(token.transfer(owner, token.balanceOf(address(this))));\n    }\n}\n",
  "sourcePath": "/home/andrey/Code/w12/platform-contracts/contracts/W12Crowdsale.sol",
  "compiler": {
    "name": "solc",
    "version": "0.4.24+commit.e67f0147.Emscripten.clang"
  },
  "schemaVersion": "2.0.0",
  "updatedAt": "2018-07-18T14:29:08.551Z"
}