{
  "contractName": "W12Crowdsale",
  "abi": [
    {
      "constant": true,
      "inputs": [],
      "name": "startDate",
      "outputs": [
        {
          "name": "",
          "type": "uint32"
        }
      ],
      "payable": false,
      "stateMutability": "view",
      "type": "function"
    },
    {
      "constant": true,
      "inputs": [],
      "name": "serviceWallet",
      "outputs": [
        {
          "name": "",
          "type": "address"
        }
      ],
      "payable": false,
      "stateMutability": "view",
      "type": "function"
    },
    {
      "constant": false,
      "inputs": [],
      "name": "renounceOwnership",
      "outputs": [],
      "payable": false,
      "stateMutability": "nonpayable",
      "type": "function"
    },
    {
      "constant": true,
      "inputs": [
        {
          "name": "",
          "type": "uint256"
        }
      ],
      "name": "stages",
      "outputs": [
        {
          "name": "endDate",
          "type": "uint32"
        },
        {
          "name": "discount",
          "type": "uint8"
        },
        {
          "name": "vesting",
          "type": "uint32"
        }
      ],
      "payable": false,
      "stateMutability": "view",
      "type": "function"
    },
    {
      "constant": true,
      "inputs": [],
      "name": "serviceFee",
      "outputs": [
        {
          "name": "",
          "type": "uint8"
        }
      ],
      "payable": false,
      "stateMutability": "view",
      "type": "function"
    },
    {
      "constant": true,
      "inputs": [],
      "name": "owner",
      "outputs": [
        {
          "name": "",
          "type": "address"
        }
      ],
      "payable": false,
      "stateMutability": "view",
      "type": "function"
    },
    {
      "constant": true,
      "inputs": [],
      "name": "price",
      "outputs": [
        {
          "name": "",
          "type": "uint256"
        }
      ],
      "payable": false,
      "stateMutability": "view",
      "type": "function"
    },
    {
      "constant": true,
      "inputs": [],
      "name": "fund",
      "outputs": [
        {
          "name": "",
          "type": "address"
        }
      ],
      "payable": false,
      "stateMutability": "view",
      "type": "function"
    },
    {
      "constant": true,
      "inputs": [
        {
          "name": "",
          "type": "uint256"
        }
      ],
      "name": "milestones",
      "outputs": [
        {
          "name": "endDate",
          "type": "uint32"
        },
        {
          "name": "tranchePercent",
          "type": "uint8"
        },
        {
          "name": "voteEndDate",
          "type": "uint32"
        },
        {
          "name": "withdrawalWindow",
          "type": "uint32"
        },
        {
          "name": "name",
          "type": "bytes"
        },
        {
          "name": "description",
          "type": "bytes"
        }
      ],
      "payable": false,
      "stateMutability": "view",
      "type": "function"
    },
    {
      "constant": false,
      "inputs": [
        {
          "name": "_newOwner",
          "type": "address"
        }
      ],
      "name": "transferOwnership",
      "outputs": [],
      "payable": false,
      "stateMutability": "nonpayable",
      "type": "function"
    },
    {
      "constant": true,
      "inputs": [],
      "name": "token",
      "outputs": [
        {
          "name": "",
          "type": "address"
        }
      ],
      "payable": false,
      "stateMutability": "view",
      "type": "function"
    },
    {
      "inputs": [
        {
          "name": "_token",
          "type": "address"
        },
        {
          "name": "_startDate",
          "type": "uint32"
        },
        {
          "name": "_price",
          "type": "uint256"
        },
        {
          "name": "_serviceWallet",
          "type": "address"
        },
        {
          "name": "_serviceFee",
          "type": "uint8"
        },
        {
          "name": "_fund",
          "type": "address"
        }
      ],
      "payable": false,
      "stateMutability": "nonpayable",
      "type": "constructor"
    },
    {
      "payable": true,
      "stateMutability": "payable",
      "type": "fallback"
    },
    {
      "anonymous": false,
      "inputs": [
        {
          "indexed": true,
          "name": "buyer",
          "type": "address"
        },
        {
          "indexed": false,
          "name": "amountPaid",
          "type": "uint256"
        },
        {
          "indexed": false,
          "name": "tokensBought",
          "type": "uint256"
        }
      ],
      "name": "TokenPurchase",
      "type": "event"
    },
    {
      "anonymous": false,
      "inputs": [],
      "name": "StagesUpdated",
      "type": "event"
    },
    {
      "anonymous": false,
      "inputs": [
        {
          "indexed": true,
          "name": "previousOwner",
          "type": "address"
        }
      ],
      "name": "OwnershipRenounced",
      "type": "event"
    },
    {
      "anonymous": false,
      "inputs": [
        {
          "indexed": true,
          "name": "previousOwner",
          "type": "address"
        },
        {
          "indexed": true,
          "name": "newOwner",
          "type": "address"
        }
      ],
      "name": "OwnershipTransferred",
      "type": "event"
    },
    {
      "constant": true,
      "inputs": [],
      "name": "stagesLength",
      "outputs": [
        {
          "name": "",
          "type": "uint256"
        }
      ],
      "payable": false,
      "stateMutability": "view",
      "type": "function"
    },
    {
      "constant": true,
      "inputs": [],
      "name": "milestonesLength",
      "outputs": [
        {
          "name": "",
          "type": "uint256"
        }
      ],
      "payable": false,
      "stateMutability": "view",
      "type": "function"
    },
    {
      "constant": true,
      "inputs": [
        {
          "name": "stageNumber",
          "type": "uint256"
        }
      ],
      "name": "getStageVolumeBoundaries",
      "outputs": [
        {
          "name": "",
          "type": "uint256[]"
        }
      ],
      "payable": false,
      "stateMutability": "view",
      "type": "function"
    },
    {
      "constant": true,
      "inputs": [
        {
          "name": "stageNumber",
          "type": "uint256"
        }
      ],
      "name": "getStageVolumeBonuses",
      "outputs": [
        {
          "name": "",
          "type": "uint8[]"
        }
      ],
      "payable": false,
      "stateMutability": "view",
      "type": "function"
    },
    {
      "constant": false,
      "inputs": [
        {
          "name": "_startDate",
          "type": "uint32"
        },
        {
          "name": "_price",
          "type": "uint256"
        },
        {
          "name": "_serviceWallet",
          "type": "address"
        }
      ],
      "name": "setParameters",
      "outputs": [],
      "payable": false,
      "stateMutability": "nonpayable",
      "type": "function"
    },
    {
      "constant": false,
      "inputs": [
        {
          "name": "stage_endDates",
          "type": "uint32[]"
        },
        {
          "name": "stage_discounts",
          "type": "uint8[]"
        },
        {
          "name": "stage_vestings",
          "type": "uint32[]"
        }
      ],
      "name": "setStages",
      "outputs": [],
      "payable": false,
      "stateMutability": "nonpayable",
      "type": "function"
    },
    {
      "constant": false,
      "inputs": [
        {
          "name": "stage",
          "type": "uint256"
        },
        {
          "name": "volumeBoundaries",
          "type": "uint256[]"
        },
        {
          "name": "volumeBonuses",
          "type": "uint8[]"
        }
      ],
      "name": "setStageVolumeBonuses",
      "outputs": [],
      "payable": false,
      "stateMutability": "nonpayable",
      "type": "function"
    },
    {
      "constant": false,
      "inputs": [
        {
          "name": "dates",
          "type": "uint32[]"
        },
        {
          "name": "tranchePercents",
          "type": "uint8[]"
        },
        {
          "name": "offsets",
          "type": "uint32[]"
        },
        {
          "name": "namesAndDescriptions",
          "type": "bytes"
        }
      ],
      "name": "setMilestones",
      "outputs": [],
      "payable": false,
      "stateMutability": "nonpayable",
      "type": "function"
    },
    {
      "constant": true,
      "inputs": [],
      "name": "getCurrentMilestone",
      "outputs": [
        {
          "name": "",
          "type": "uint32"
        },
        {
          "name": "",
          "type": "uint8"
        },
        {
          "name": "",
          "type": "uint32"
        },
        {
          "name": "",
          "type": "uint32"
        },
        {
          "name": "",
          "type": "bytes"
        },
        {
          "name": "",
          "type": "bytes"
        }
      ],
      "payable": false,
      "stateMutability": "view",
      "type": "function"
    },
    {
      "constant": false,
      "inputs": [],
      "name": "buyTokens",
      "outputs": [],
      "payable": true,
      "stateMutability": "payable",
      "type": "function"
    },
    {
      "constant": true,
      "inputs": [],
      "name": "getWToken",
      "outputs": [
        {
          "name": "",
          "type": "address"
        }
      ],
      "payable": false,
      "stateMutability": "view",
      "type": "function"
    },
    {
      "constant": true,
      "inputs": [],
      "name": "getFund",
      "outputs": [
        {
          "name": "",
          "type": "address"
        }
      ],
      "payable": false,
      "stateMutability": "view",
      "type": "function"
    },
    {
      "constant": false,
      "inputs": [],
      "name": "claimRemainingTokens",
      "outputs": [],
      "payable": false,
      "stateMutability": "nonpayable",
      "type": "function"
    }
  ],
  "bytecode": "0x608060405260008060146101000a81548160ff0219169083151502179055503480156200002b57600080fd5b5060405160c080620034e2833981018060405281019080805190602001909291908051906020019092919080519060200190929190805190602001909291908051906020019092919080519060200190929190505050336000806101000a81548173ffffffffffffffffffffffffffffffffffffffff021916908373ffffffffffffffffffffffffffffffffffffffff160217905550600073ffffffffffffffffffffffffffffffffffffffff168673ffffffffffffffffffffffffffffffffffffffff1614151515620000fe57600080fd5b60008260ff161015801562000116575060648260ff16105b15156200012257600080fd5b600073ffffffffffffffffffffffffffffffffffffffff168173ffffffffffffffffffffffffffffffffffffffff16141515156200015f57600080fd5b85600160006101000a81548173ffffffffffffffffffffffffffffffffffffffff021916908373ffffffffffffffffffffffffffffffffffffffff160217905550600160009054906101000a900473ffffffffffffffffffffffffffffffffffffffff1673ffffffffffffffffffffffffffffffffffffffff1663313ce5676040518163ffffffff167c0100000000000000000000000000000000000000000000000000000000028152600401602060405180830381600087803b1580156200022757600080fd5b505af11580156200023c573d6000803e3d6000fd5b505050506040513d60208110156200025357600080fd5b810190808051906020019092919050505060ff1660028190555062000289858585620002f1640100000000026401000000009004565b81600560006101000a81548160ff021916908360ff16021790555080600660006101000a81548173ffffffffffffffffffffffffffffffffffffffff021916908373ffffffffffffffffffffffffffffffffffffffff160217905550505050505050620003c2565b428363ffffffff16101515156200030757600080fd5b6000821115156200031757600080fd5b600073ffffffffffffffffffffffffffffffffffffffff168173ffffffffffffffffffffffffffffffffffffffff16141515156200035457600080fd5b82600360006101000a81548163ffffffff021916908363ffffffff1602179055508160048190555080600560016101000a81548173ffffffffffffffffffffffffffffffffffffffff021916908373ffffffffffffffffffffffffffffffffffffffff160217905550505050565b61311080620003d26000396000f30060806040526004361061013e576000357c0100000000000000000000000000000000000000000000000000000000900463ffffffff1680630b97bc86146101485780630d544ffe1461017f5780630ee62c7714610202578063299a017c14610284578063313602d4146103c65780633baba4d7146103dd5780634090cb6414610408578063521b74991461045f5780635641f3c3146104bc578063715018a614610513578063792c02ea1461052a578063845ddcb2146105555780638abdf5aa146105c25780638da5cb5b146105f35780638edd6eb61461064a5780639bed31e4146106a1578063a035b1fe146106fe578063b60d428814610729578063d0febe4c14610780578063e89e4ed61461078a578063f12585f5146108e2578063f2fde38b14610964578063f9cbcef0146109a7578063fc0c546a14610a12575b610146610a69565b005b34801561015457600080fd5b5061015d610f2c565b604051808263ffffffff1663ffffffff16815260200191505060405180910390f35b34801561018b57600080fd5b50610200600480360381019080803590602001908201803590602001919091929391929390803590602001908201803590602001919091929391929390803590602001908201803590602001919091929391929390803590602001908201803590602001919091929391929390505050610f42565b005b34801561020e57600080fd5b5061022d600480360381019080803590602001909291905050506115ad565b6040518080602001828103825283818151815260200191508051906020019060200280838360005b83811015610270578082015181840152602081019050610255565b505050509050019250505060405180910390f35b34801561029057600080fd5b5061029961164b565b604051808763ffffffff1663ffffffff1681526020018660ff1660ff1681526020018563ffffffff1663ffffffff1681526020018463ffffffff1663ffffffff1681526020018060200180602001838103835285818151815260200191508051906020019080838360005b8381101561031f578082015181840152602081019050610304565b50505050905090810190601f16801561034c5780820380516001836020036101000a031916815260200191505b50838103825284818151815260200191508051906020019080838360005b8381101561038557808201518184015260208101905061036a565b50505050905090810190601f1680156103b25780820380516001836020036101000a031916815260200191505b509850505050505050505060405180910390f35b3480156103d257600080fd5b506103db611c23565b005b3480156103e957600080fd5b506103f2611eb7565b6040518082815260200191505060405180910390f35b34801561041457600080fd5b5061041d611ec4565b604051808273ffffffffffffffffffffffffffffffffffffffff1673ffffffffffffffffffffffffffffffffffffffff16815260200191505060405180910390f35b34801561046b57600080fd5b506104ba60048036038101908080359060200190929190803590602001908201803590602001919091929391929390803590602001908201803590602001919091929391929390505050611eee565b005b3480156104c857600080fd5b506104d161202f565b604051808273ffffffffffffffffffffffffffffffffffffffff1673ffffffffffffffffffffffffffffffffffffffff16815260200191505060405180910390f35b34801561051f57600080fd5b50610528612055565b005b34801561053657600080fd5b5061053f612157565b6040518082815260200191505060405180910390f35b34801561056157600080fd5b5061058060048036038101908080359060200190929190505050612164565b604051808463ffffffff1663ffffffff1681526020018360ff1660ff1681526020018263ffffffff1663ffffffff168152602001935050505060405180910390f35b3480156105ce57600080fd5b506105d76121ca565b604051808260ff1660ff16815260200191505060405180910390f35b3480156105ff57600080fd5b506106086121dd565b604051808273ffffffffffffffffffffffffffffffffffffffff1673ffffffffffffffffffffffffffffffffffffffff16815260200191505060405180910390f35b34801561065657600080fd5b5061065f612202565b604051808273ffffffffffffffffffffffffffffffffffffffff1673ffffffffffffffffffffffffffffffffffffffff16815260200191505060405180910390f35b3480156106ad57600080fd5b506106fc600480360381019080803563ffffffff16906020019092919080359060200190929190803573ffffffffffffffffffffffffffffffffffffffff16906020019092919050505061222c565b005b34801561070a57600080fd5b50610713612297565b6040518082815260200191505060405180910390f35b34801561073557600080fd5b5061073e61229d565b604051808273ffffffffffffffffffffffffffffffffffffffff1673ffffffffffffffffffffffffffffffffffffffff16815260200191505060405180910390f35b610788610a69565b005b34801561079657600080fd5b506107b5600480360381019080803590602001909291905050506122c3565b604051808763ffffffff1663ffffffff1681526020018660ff1660ff1681526020018563ffffffff1663ffffffff1681526020018463ffffffff1663ffffffff1681526020018060200180602001838103835285818151815260200191508051906020019080838360005b8381101561083b578082015181840152602081019050610820565b50505050905090810190601f1680156108685780820380516001836020036101000a031916815260200191505b50838103825284818151815260200191508051906020019080838360005b838110156108a1578082015181840152602081019050610886565b50505050905090810190601f1680156108ce5780820380516001836020036101000a031916815260200191505b509850505050505050505060405180910390f35b3480156108ee57600080fd5b5061090d6004803603810190808035906020019092919050505061247b565b6040518080602001828103825283818151815260200191508051906020019060200280838360005b83811015610950578082015181840152602081019050610935565b505050509050019250505060405180910390f35b34801561097057600080fd5b506109a5600480360381019080803573ffffffffffffffffffffffffffffffffffffffff1690602001909291905050506124f3565b005b3480156109b357600080fd5b50610a1060048036038101908080359060200190820180359060200191909192939192939080359060200190820180359060200191909192939192939080359060200190820180359060200191909192939192939050505061255a565b005b348015610a1e57600080fd5b50610a2761294f565b604051808273ffffffffffffffffffffffffffffffffffffffff1673ffffffffffffffffffffffffffffffffffffffff16815260200191505060405180910390f35b60008060008060008060149054906101000a900460ff16151515610a8c57600080fd5b6001600060146101000a81548160ff021916908315150217905550600034111515610ab657600080fd5b42600360009054906101000a900463ffffffff1663ffffffff1611151515610add57600080fd5b6000600780549050111515610af157600080fd5b610af9612975565b94509450945060006007805490501415610b55573373ffffffffffffffffffffffffffffffffffffffff166108fc349081150290604051600060405180830381858888f19350505050158015610b53573d6000803e3d6000fd5b505b60008560ff1611610b6857600454610b97565b610b966064610b888760640360ff16600454612b1190919063ffffffff16565b612b4990919063ffffffff16565b5b9150610bdd6002805403600a0a610bcf84610bc18760640160ff1634612b1190919063ffffffff16565b612b4990919063ffffffff16565b612b1190919063ffffffff16565b9050600160009054906101000a900473ffffffffffffffffffffffffffffffffffffffff1673ffffffffffffffffffffffffffffffffffffffff16639d2e47773383876040518463ffffffff167c0100000000000000000000000000000000000000000000000000000000028152600401808473ffffffffffffffffffffffffffffffffffffffff1673ffffffffffffffffffffffffffffffffffffffff1681526020018381526020018263ffffffff1663ffffffff1681526020019350505050602060405180830381600087803b158015610cb857600080fd5b505af1158015610ccc573d6000803e3d6000fd5b505050506040513d6020811015610ce257600080fd5b81019080805190602001909291905050501515610cfe57600080fd5b6000600560009054906101000a900460ff1660ff161115610dba57600560019054906101000a900473ffffffffffffffffffffffffffffffffffffffff1673ffffffffffffffffffffffffffffffffffffffff166108fc610d8d6064610d7f600560009054906101000a900460ff1660ff1634612b1190919063ffffffff16565b612b4990919063ffffffff16565b9081150290604051600060405180830381858888f19350505050158015610db8573d6000803e3d6000fd5b505b600660009054906101000a900473ffffffffffffffffffffffffffffffffffffffff1673ffffffffffffffffffffffffffffffffffffffff1663958799cb3073ffffffffffffffffffffffffffffffffffffffff1631620186a09033856040518563ffffffff167c0100000000000000000000000000000000000000000000000000000000028152600401808373ffffffffffffffffffffffffffffffffffffffff1673ffffffffffffffffffffffffffffffffffffffff168152602001828152602001925050506000604051808303818589803b158015610e9b57600080fd5b5088f1158015610eaf573d6000803e3d6000fd5b5050505050503373ffffffffffffffffffffffffffffffffffffffff167fcd60aa75dea3072fbc07ae6d7d856b5dc5f4eee88854f5b4abf7b680ef8bc50f3483604051808381526020018281526020019250505060405180910390a260008060146101000a81548160ff0219169083151502179055505050505050565b600360009054906101000a900463ffffffff1681565b6000806060806000809054906101000a900473ffffffffffffffffffffffffffffffffffffffff1673ffffffffffffffffffffffffffffffffffffffff163373ffffffffffffffffffffffffffffffffffffffff16141515610fa357600080fd5b6000600880549050141515610fb757600080fd5b7fffffffffffffffffffffffffffffffffffffffffffffffffffffffffffffffff60ff168c8c905011151515610fec57600080fd5b60038c8c9050111515610ffe57600080fd5b600060038d8d905081151561100f57fe5b0614151561101c57600080fd5b8787905061103760028c8c9050612b1190919063ffffffff16565b14151561104357600080fd5b8b8b905061105e60038c8c9050612b1190919063ffffffff16565b14151561106a57600080fd5b60028a8a905002868690501015151561108257600080fd5b60009350600092505b8b8b905060ff168360ff16101561159f57428c8c8560ff1681811015156110ae57fe5b9050602002013563ffffffff1663ffffffff161115156110cd57600080fd5b428c8c6001860160ff1681811015156110e257fe5b9050602002013563ffffffff1663ffffffff1611151561110157600080fd5b428c8c6002860160ff16818110151561111657fe5b9050602002013563ffffffff1663ffffffff1611151561113557600080fd5b858590506111c58989600160038860ff1681151561114f57fe5b040160ff16818110151561115f57fe5b9050602002013563ffffffff1663ffffffff166111b78b8b60038960ff1681151561118657fe5b0460ff16818110151561119557fe5b9050602002013563ffffffff1663ffffffff1688612b5f90919063ffffffff16565b612b5f90919063ffffffff16565b111515156111d257600080fd5b60648a8a60038660ff168115156111e557fe5b0460ff1681811015156111f457fe5b9050602002013560ff1660ff1610151561120d57600080fd5b611289848989600260038860ff1681151561122457fe5b040260ff16818110151561123457fe5b9050602002013563ffffffff1663ffffffff1688888080601f016020809104026020016040519081016040528093929190818152602001838380828437820191505050505050612b7b9092919063ffffffff16565b91506113418888600260038760ff168115156112a157fe5b040260ff1681811015156112b157fe5b9050602002013563ffffffff1663ffffffff16850189896001600260038960ff168115156112db57fe5b04020160ff1681811015156112ec57fe5b9050602002013563ffffffff1663ffffffff1688888080601f016020809104026020016040519081016040528093929190818152602001838380828437820191505050505050612b7b9092919063ffffffff16565b90506000825111151561135357600080fd5b6000815111151561136357600080fd5b600860c0604051908101604052808e8e8760ff16818110151561138257fe5b9050602002013563ffffffff1663ffffffff1681526020018c8c60038860ff168115156113ab57fe5b0460ff1681811015156113ba57fe5b9050602002013560ff1660ff1681526020018e8e6001880160ff1681811015156113e057fe5b9050602002013563ffffffff1663ffffffff1681526020018e8e6002880160ff16818110151561140c57fe5b9050602002013563ffffffff1663ffffffff168152602001848152602001838152509080600181540180825580915050906001820390600052602060002090600302016000909192909190915060008201518160000160006101000a81548163ffffffff021916908363ffffffff16021790555060208201518160000160046101000a81548160ff021916908360ff16021790555060408201518160000160056101000a81548163ffffffff021916908363ffffffff16021790555060608201518160000160096101000a81548163ffffffff021916908363ffffffff160217905550608082015181600101908051906020019061150b929190612dd0565b5060a0820151816002019080519060200190611528929190612dd0565b505050508787600160038660ff1681151561153f57fe5b040160ff16818110151561154f57fe5b9050602002013563ffffffff16888860038660ff1681151561156d57fe5b0460ff16818110151561157c57fe5b9050602002013563ffffffff160163ffffffff168401935060038301925061108b565b505050505050505050505050565b60606007828154811015156115be57fe5b906000526020600020906003020160020180548060200260200160405190810160405280929190818152602001828054801561163f57602002820191906000526020600020906000905b82829054906101000a900460ff1660ff16815260200190600101906020826000010492830192600103820291508084116116085790505b50505050509050919050565b60008060008060608061165c612e50565b6000806008805490501480611688575042600360009054906101000a900463ffffffff1663ffffffff16115b156117205760008060008060006040519080825280601f01601f1916602001820160405280156116c75781602001602082028038833980820191505090505b5060006040519080825280601f01601f1916602001820160405280156116fc5781602001602082028038833980820191505090505b50859550849450839350829250819150809050975097509750975097509750611c19565b600860016008805490500381548110151561173757fe5b906000526020600020906003020160c060405190810160405290816000820160009054906101000a900463ffffffff1663ffffffff1663ffffffff1681526020016000820160049054906101000a900460ff1660ff1660ff1681526020016000820160059054906101000a900463ffffffff1663ffffffff1663ffffffff1681526020016000820160099054906101000a900463ffffffff1663ffffffff1663ffffffff168152602001600182018054600181600116156101000203166002900480601f0160208091040260200160405190810160405280929190818152602001828054600181600116156101000203166002900480156118795780601f1061184e57610100808354040283529160200191611879565b820191906000526020600020905b81548152906001019060200180831161185c57829003601f168201915b50505050508152602001600282018054600181600116156101000203166002900480601f01602080910402602001604051908101604052809291908181526020018280546001816001161561010002031660029004801561191b5780601f106118f05761010080835404028352916020019161191b565b820191906000526020600020905b8154815290600101906020018083116118fe57829003601f168201915b505050505081525050915042826060015163ffffffff16101561196d57816000015182602001518360400151846060015185608001518660a00151819150809050975097509750975097509750611c19565b600090505b600160088054905003811015611c18574260088281548110151561199257fe5b906000526020600020906003020160000160099054906101000a900463ffffffff1663ffffffff16101515611c0b576008818154811015156119d057fe5b906000526020600020906003020160000160009054906101000a900463ffffffff16600882815481101515611a0157fe5b906000526020600020906003020160000160049054906101000a900460ff16600883815481101515611a2f57fe5b906000526020600020906003020160000160059054906101000a900463ffffffff16600884815481101515611a6057fe5b906000526020600020906003020160000160099054906101000a900463ffffffff16600885815481101515611a9157fe5b9060005260206000209060030201600101600886815481101515611ab157fe5b9060005260206000209060030201600201818054600181600116156101000203166002900480601f016020809104026020016040519081016040528092919081815260200182805460018160011615610100020316600290048015611b575780601f10611b2c57610100808354040283529160200191611b57565b820191906000526020600020905b815481529060010190602001808311611b3a57829003601f168201915b50505050509150808054600181600116156101000203166002900480601f016020809104026020016040519081016040528092919081815260200182805460018160011615610100020316600290048015611bf35780601f10611bc857610100808354040283529160200191611bf3565b820191906000526020600020905b815481529060010190602001808311611bd657829003601f168201915b50505050509050975097509750975097509750611c19565b8080600101915050611972565b5b5050909192939495565b6000809054906101000a900473ffffffffffffffffffffffffffffffffffffffff1673ffffffffffffffffffffffffffffffffffffffff163373ffffffffffffffffffffffffffffffffffffffff16141515611c7e57600080fd5b6000600780549050141515611c9257600080fd5b600160009054906101000a900473ffffffffffffffffffffffffffffffffffffffff1673ffffffffffffffffffffffffffffffffffffffff1663a9059cbb6000809054906101000a900473ffffffffffffffffffffffffffffffffffffffff16600160009054906101000a900473ffffffffffffffffffffffffffffffffffffffff1673ffffffffffffffffffffffffffffffffffffffff166370a08231306040518263ffffffff167c0100000000000000000000000000000000000000000000000000000000028152600401808273ffffffffffffffffffffffffffffffffffffffff1673ffffffffffffffffffffffffffffffffffffffff168152602001915050602060405180830381600087803b158015611daf57600080fd5b505af1158015611dc3573d6000803e3d6000fd5b505050506040513d6020811015611dd957600080fd5b81019080805190602001909291905050506040518363ffffffff167c0100000000000000000000000000000000000000000000000000000000028152600401808373ffffffffffffffffffffffffffffffffffffffff1673ffffffffffffffffffffffffffffffffffffffff16815260200182815260200192505050602060405180830381600087803b158015611e6f57600080fd5b505af1158015611e83573d6000803e3d6000fd5b505050506040513d6020811015611e9957600080fd5b81019080805190602001909291905050501515611eb557600080fd5b565b6000600880549050905090565b6000600160009054906101000a900473ffffffffffffffffffffffffffffffffffffffff16905090565b6000809054906101000a900473ffffffffffffffffffffffffffffffffffffffff1673ffffffffffffffffffffffffffffffffffffffff163373ffffffffffffffffffffffffffffffffffffffff16141515611f4957600080fd5b8181905084849050141515611f5d57600080fd5b60078054905085101515611f7057600080fd5b600785815481101515611f7f57fe5b90600052602060002090600302016001016000611f9c9190612e9c565b600785815481101515611fab57fe5b90600052602060002090600302016002016000611fc89190612ebd565b8383600787815481101515611fd957fe5b90600052602060002090600302016001019190611ff7929190612ee5565b50818160078781548110151561200957fe5b90600052602060002090600302016002019190612027929190612f32565b505050505050565b600560019054906101000a900473ffffffffffffffffffffffffffffffffffffffff1681565b6000809054906101000a900473ffffffffffffffffffffffffffffffffffffffff1673ffffffffffffffffffffffffffffffffffffffff163373ffffffffffffffffffffffffffffffffffffffff161415156120b057600080fd5b6000809054906101000a900473ffffffffffffffffffffffffffffffffffffffff1673ffffffffffffffffffffffffffffffffffffffff167ff8df31144d9c2f0f6b59d69b8b98abd5459d07f2742c4df920b25aae33c6482060405160405180910390a260008060006101000a81548173ffffffffffffffffffffffffffffffffffffffff021916908373ffffffffffffffffffffffffffffffffffffffff160217905550565b6000600780549050905090565b60078181548110151561217357fe5b90600052602060002090600302016000915090508060000160009054906101000a900463ffffffff16908060000160049054906101000a900460ff16908060000160059054906101000a900463ffffffff16905083565b600560009054906101000a900460ff1681565b6000809054906101000a900473ffffffffffffffffffffffffffffffffffffffff1681565b6000600660009054906101000a900473ffffffffffffffffffffffffffffffffffffffff16905090565b6000809054906101000a900473ffffffffffffffffffffffffffffffffffffffff1673ffffffffffffffffffffffffffffffffffffffff163373ffffffffffffffffffffffffffffffffffffffff1614151561228757600080fd5b612292838383612c08565b505050565b60045481565b600660009054906101000a900473ffffffffffffffffffffffffffffffffffffffff1681565b6008818154811015156122d257fe5b90600052602060002090600302016000915090508060000160009054906101000a900463ffffffff16908060000160049054906101000a900460ff16908060000160059054906101000a900463ffffffff16908060000160099054906101000a900463ffffffff1690806001018054600181600116156101000203166002900480601f0160208091040260200160405190810160405280929190818152602001828054600181600116156101000203166002900480156123d35780601f106123a8576101008083540402835291602001916123d3565b820191906000526020600020905b8154815290600101906020018083116123b657829003601f168201915b505050505090806002018054600181600116156101000203166002900480601f0160208091040260200160405190810160405280929190818152602001828054600181600116156101000203166002900480156124715780601f1061244657610100808354040283529160200191612471565b820191906000526020600020905b81548152906001019060200180831161245457829003601f168201915b5050505050905086565b606060078281548110151561248c57fe5b90600052602060002090600302016001018054806020026020016040519081016040528092919081815260200182805480156124e757602002820191906000526020600020905b8154815260200190600101908083116124d3575b50505050509050919050565b6000809054906101000a900473ffffffffffffffffffffffffffffffffffffffff1673ffffffffffffffffffffffffffffffffffffffff163373ffffffffffffffffffffffffffffffffffffffff1614151561254e57600080fd5b61255781612cd6565b50565b6000806000809054906101000a900473ffffffffffffffffffffffffffffffffffffffff1673ffffffffffffffffffffffffffffffffffffffff163373ffffffffffffffffffffffffffffffffffffffff161415156125b857600080fd5b7fffffffffffffffffffffffffffffffffffffffffffffffffffffffffffffffff60ff1688889050111515156125ed57600080fd5b6000888890501115156125ff57600080fd5b858590508888905014151561261357600080fd5b838390508888905014151561262757600080fd5b8787905091508160ff1660078161263e9190612fdc565b50600090505b8160ff168160ff16101561291957600086868360ff16818110151561266557fe5b9050602002013560ff1660ff161015801561269d5750606486868360ff16818110151561268e57fe5b9050602002013560ff1660ff16105b15156126a857600080fd5b87878260ff1681811015156126b957fe5b9050602002013563ffffffff1663ffffffff16600360009054906101000a900463ffffffff1663ffffffff161015156126f157600080fd5b6001820360ff168160ff1610156127e95787876001830160ff16818110151561271657fe5b9050602002013563ffffffff1663ffffffff1688888360ff16818110151561273a57fe5b9050602002013563ffffffff1663ffffffff161015156127e8576040517f08c379a00000000000000000000000000000000000000000000000000000000081526004018080602001828103825260228152602001807f53746167657320617265206e6f7420696e20686973746f726963616c206f726481526020017f657200000000000000000000000000000000000000000000000000000000000081525060400191505060405180910390fd5b5b87878260ff1681811015156127fa57fe5b9050602002013563ffffffff16600760018385030360ff1681548110151561281e57fe5b906000526020600020906003020160000160006101000a81548163ffffffff021916908363ffffffff16021790555085858260ff16818110151561285e57fe5b9050602002013560ff16600760018385030360ff1681548110151561287f57fe5b906000526020600020906003020160000160046101000a81548160ff021916908360ff16021790555083838260ff1681811015156128b957fe5b9050602002013563ffffffff16600760018385030360ff168154811015156128dd57fe5b906000526020600020906003020160000160056101000a81548163ffffffff021916908363ffffffff1602179055508080600101915050612644565b7f743961f4e677d1146fbf85d75565b1c5474fd083eb166f8b9595cf5d01a4d6e660405160405180910390a15050505050505050565b600160009054906101000a900473ffffffffffffffffffffffffffffffffffffffff1681565b600080600080600080600060078054905014156129a5576000806000829250819150809050955095509550612b09565b60076001600780549050038154811015156129bc57fe5b90600052602060002090600302019250428360000160009054906101000a900463ffffffff1663ffffffff16101515612ae4576000935060009150600083600101805490501115612ab157600090505b6001836001018054905003811015612ab057813410158015612a4857508260010181815481101515612a3a57fe5b906000526020600020015434105b15612a85578260020181815481101515612a5e57fe5b90600052602060002090602091828204019190069054906101000a900460ff169350612ab0565b8260010181815481101515612a9657fe5b906000526020600020015491508080600101915050612a0c565b5b8260000160049054906101000a900460ff168360000160059054906101000a900463ffffffff1685955095509550612b09565b6007805480919060019003612af99190612fdc565b50612b02612975565b9550955095505b505050909192565b600080831415612b245760009050612b43565b8183029050818382811515612b3557fe5b04141515612b3f57fe5b8090505b92915050565b60008183811515612b5657fe5b04905092915050565b60008183019050828110151515612b7257fe5b80905092915050565b606080828401855110151515612b9057600080fd5b821560008114612bab57604051915060208201604052612bfc565b6040519150601f8416801560200281840101858101878315602002848b0101015b81831015612be95780518352602083019250602081019050612bcc565b50868552601f19601f8301166040525050505b50809150509392505050565b428363ffffffff1610151515612c1d57600080fd5b600082111515612c2c57600080fd5b600073ffffffffffffffffffffffffffffffffffffffff168173ffffffffffffffffffffffffffffffffffffffff1614151515612c6857600080fd5b82600360006101000a81548163ffffffff021916908363ffffffff1602179055508160048190555080600560016101000a81548173ffffffffffffffffffffffffffffffffffffffff021916908373ffffffffffffffffffffffffffffffffffffffff160217905550505050565b600073ffffffffffffffffffffffffffffffffffffffff168173ffffffffffffffffffffffffffffffffffffffff1614151515612d1257600080fd5b8073ffffffffffffffffffffffffffffffffffffffff166000809054906101000a900473ffffffffffffffffffffffffffffffffffffffff1673ffffffffffffffffffffffffffffffffffffffff167f8be0079c531659141344cd1fd0a4f28419497f9722a3daafe3b4186f6b6457e060405160405180910390a3806000806101000a81548173ffffffffffffffffffffffffffffffffffffffff021916908373ffffffffffffffffffffffffffffffffffffffff16021790555050565b828054600181600116156101000203166002900490600052602060002090601f016020900481019282601f10612e1157805160ff1916838001178555612e3f565b82800160010185558215612e3f579182015b82811115612e3e578251825591602001919060010190612e23565b5b509050612e4c919061300e565b5090565b60c060405190810160405280600063ffffffff168152602001600060ff168152602001600063ffffffff168152602001600063ffffffff16815260200160608152602001606081525090565b5080546000825590600052602060002090810190612eba919061300e565b50565b50805460008255601f016020900490600052602060002090810190612ee2919061300e565b50565b828054828255906000526020600020908101928215612f21579160200282015b82811115612f20578235825591602001919060010190612f05565b5b509050612f2e919061300e565b5090565b82805482825590600052602060002090601f01602090048101928215612fcb5791602002820160005b83821115612f9c57833560ff1683826101000a81548160ff021916908360ff1602179055509260200192600101602081600001049283019260010302612f5b565b8015612fc95782816101000a81549060ff0219169055600101602081600001049283019260010302612f9c565b505b509050612fd89190613033565b5090565b815481835581811115613009576003028160030283600052602060002091820191016130089190613063565b5b505050565b61303091905b8082111561302c576000816000905550600101613014565b5090565b90565b61306091905b8082111561305c57600081816101000a81549060ff021916905550600101613039565b5090565b90565b6130e191905b808211156130dd57600080820160006101000a81549063ffffffff02191690556000820160046101000a81549060ff02191690556000820160056101000a81549063ffffffff02191690556001820160006130c49190612e9c565b6002820160006130d49190612ebd565b50600301613069565b5090565b905600a165627a7a723058207c5d28afa8488fdf605522098b72c42a9917c12877091e1b5bb0355d2d7ce67f0029",
  "source": "pragma solidity ^0.4.24;\n\nimport \"../openzeppelin-solidity/contracts/ownership/Ownable.sol\";\nimport \"../openzeppelin-solidity/contracts/ReentrancyGuard.sol\";\nimport \"../openzeppelin-solidity/contracts/math/SafeMath.sol\";\nimport \"../solidity-bytes-utils/contracts/BytesLib.sol\";\nimport \"./WToken.sol\";\nimport \"./IW12Crowdsale.sol\";\nimport \"./W12Fund.sol\";\n\n\ncontract W12Crowdsale is IW12Crowdsale, Ownable, ReentrancyGuard {\n    using SafeMath for uint;\n    using BytesLib for bytes;\n\n    struct Stage {\n        uint32 endDate;\n        uint8 discount;\n        uint32 vesting;\n        uint[] volumeBoundaries;\n        uint8[] volumeBonuses;\n    }\n\n    struct Milestone {\n        uint32 endDate;\n        uint8  tranchePercent;\n        uint32 voteEndDate;\n        uint32 withdrawalWindow;\n        bytes name;\n        bytes description;\n    }\n\n    WToken public token;\n    uint tokenDecimals;\n    uint32 public startDate;\n    uint public price;\n    uint8 public serviceFee;\n    address public serviceWallet;\n    W12Fund public fund;\n\n    Stage[] public stages;\n    Milestone[] public milestones;\n\n    event TokenPurchase(address indexed buyer, uint amountPaid, uint tokensBought);\n    event StagesUpdated();\n\n    constructor (address _token, uint32 _startDate, uint _price, address _serviceWallet, uint8 _serviceFee, W12Fund _fund) public {\n        require(_token != address(0));\n        require(_serviceFee >= 0 && _serviceFee < 100);\n        require(_fund != address(0));\n\n        token = WToken(_token);\n        tokenDecimals = token.decimals();\n\n        __setParameters(_startDate, _price, _serviceWallet);\n        serviceFee = _serviceFee;\n        fund = _fund;\n    }\n\n    function stagesLength() external view returns (uint) {\n        return stages.length;\n    }\n\n    function milestonesLength() external view returns (uint) {\n        return milestones.length;\n    }\n\n    function getStageVolumeBoundaries(uint stageNumber) external view returns (uint[]) {\n        return stages[stageNumber].volumeBoundaries;\n    }\n\n    function getStageVolumeBonuses(uint stageNumber) external view returns (uint8[]) {\n        return stages[stageNumber].volumeBonuses;\n    }\n\n    function __setParameters(uint32 _startDate, uint _price, address _serviceWallet) internal {\n        require(_startDate >= now);\n        require(_price > 0);\n        require(_serviceWallet != address(0));\n\n        startDate = _startDate;\n        price = _price;\n        serviceWallet = _serviceWallet;\n    }\n\n    function setParameters(uint32 _startDate, uint _price, address _serviceWallet) external onlyOwner {\n        __setParameters(_startDate, _price, _serviceWallet);\n    }\n\n    function setStages(uint32[] stage_endDates, uint8[] stage_discounts, uint32[] stage_vestings) external onlyOwner {\n        require(stage_endDates.length <= uint8(-1));\n        require(stage_endDates.length > 0);\n        require(stage_endDates.length == stage_discounts.length);\n        require(stage_endDates.length == stage_vestings.length);\n\n        uint8 stagesCount = uint8(stage_endDates.length);\n        stages.length = stagesCount;\n\n        for(uint8 i = 0; i < stagesCount; i++) {\n            require(stage_discounts[i] >= 0 && stage_discounts[i] < 100);\n            require(startDate < stage_endDates[i]);\n            // Checking that stages entered in historical order\n            if(i < stagesCount - 1)\n                require(stage_endDates[i] < stage_endDates[i+1], \"Stages are not in historical order\");\n\n            // Reverting stage order for future use\n            stages[stagesCount - i - 1].endDate = stage_endDates[i];\n            stages[stagesCount - i - 1].discount = stage_discounts[i];\n            stages[stagesCount - i - 1].vesting = stage_vestings[i];\n        }\n\n        emit StagesUpdated();\n    }\n\n    function setStageVolumeBonuses(uint stage, uint[] volumeBoundaries, uint8[] volumeBonuses) external onlyOwner {\n        require(volumeBoundaries.length == volumeBonuses.length);\n        require(stage < stages.length);\n\n        delete stages[stage].volumeBoundaries;\n        delete stages[stage].volumeBonuses;\n\n        stages[stage].volumeBoundaries = volumeBoundaries;\n        stages[stage].volumeBonuses = volumeBonuses;\n    }\n\n    function setMilestones(uint32[] dates, uint8[] tranchePercents, uint32[] offsets, bytes namesAndDescriptions) external onlyOwner {\n        require(milestones.length == 0);\n        require(dates.length <= uint8(-1));\n        require(dates.length > 3);\n        require(dates.length % 3 == 0);\n        require(tranchePercents.length.mul(2) == offsets.length);\n        require(tranchePercents.length.mul(3) == dates.length);\n        require(namesAndDescriptions.length >= tranchePercents.length * 2);\n\n        uint offset = 0;\n\n        for(uint8 i = 0; i < uint8(dates.length); i += 3) {\n            require(dates[i] > now);\n            require(dates[i + 1] > now);\n            require(dates[i + 2] > now);\n            require(offset.add(offsets[i / 3]).add(offsets[i / 3 + 1]) <= namesAndDescriptions.length);\n            require(tranchePercents[i / 3] < 100);\n\n            bytes memory name = namesAndDescriptions.slice(offset, offsets[i / 3 * 2]);\n            bytes memory description = namesAndDescriptions.slice(offset + offsets[i / 3 * 2], offsets[i / 3 * 2 + 1]);\n\n            require(name.length > 0);\n            require(description.length > 0);\n\n            milestones.push(Milestone({\n                endDate: dates[i],\n                tranchePercent: tranchePercents[i / 3],\n                voteEndDate: dates[i + 1],\n                withdrawalWindow: dates[i + 2],\n                name: name,\n                description: description\n            }));\n\n            offset += offsets[i / 3] + offsets[i / 3 + 1];\n        }\n    }\n\n    // returns last milestone if completely ended or active milestone at now\n    function getCurrentMilestone() external view returns (\n        uint32,\n        uint8,\n        uint32,\n        uint32,\n        bytes,\n        bytes\n    ) {\n        if(milestones.length == 0 || startDate > now)\n            return (0, 0, 0, 0, new bytes(0), new bytes(0));\n\n        Milestone memory last = milestones[milestones.length - 1];\n\n        if (last.withdrawalWindow < now) {\n            return (\n                last.endDate,\n                last.tranchePercent,\n                last.voteEndDate,\n                last.withdrawalWindow,\n                last.name,\n                last.description\n            );\n        }\n\n        for (uint i = 0; i < milestones.length - 1; i++) {\n            if (milestones[i].withdrawalWindow >= now) {\n                return (\n                    milestones[i].endDate,\n                    milestones[i].tranchePercent,\n                    milestones[i].voteEndDate,\n                    milestones[i].withdrawalWindow,\n                    milestones[i].name,\n                    milestones[i].description\n                );\n            }\n        }\n    }\n\n    function buyTokens() payable nonReentrant public {\n        require(msg.value > 0);\n        require(startDate <= now);\n        require(stages.length > 0);\n\n        (uint8 discount, uint32 vesting, uint8 volumeBonus) = getCurrentStage();\n\n        if(stages.length == 0)\n            // return funds if ICO was closed\n            msg.sender.transfer(msg.value);\n\n        uint stagePrice = discount > 0 ? price.mul(100 - discount).div(100) : price;\n\n        uint tokenAmount = msg.value\n            .mul(100 + volumeBonus)\n            .div(stagePrice)\n            .mul(10**(tokenDecimals - 2));\n\n        require(token.vestingTransfer(msg.sender, tokenAmount, vesting));\n\n        if(serviceFee > 0)\n            serviceWallet.transfer(msg.value.mul(serviceFee).div(100));\n\n        fund.recordPurchase.value(address(this).balance).gas(100000)(msg.sender, tokenAmount);\n\n        emit TokenPurchase(msg.sender, msg.value, tokenAmount);\n    }\n\n    function getWToken() external view returns(WToken) {\n        return token;\n    }\n\n    function getFund() external view returns(W12Fund) {\n        return fund;\n    }\n\n    function getCurrentStage() internal returns(uint8 discount, uint32 vesting, uint8 volumeBonus) {\n        if(stages.length == 0)\n            return (0, 0, 0);\n\n        Stage storage lastStage = stages[stages.length - 1];\n\n        if(lastStage.endDate >= now) {\n            volumeBonus = 0;\n            uint lastLowerBoundary = 0;\n\n            if(lastStage.volumeBoundaries.length > 0)\n                for (uint i = 0; i < lastStage.volumeBoundaries.length - 1; i++)\n                    if(msg.value >= lastLowerBoundary && msg.value < lastStage.volumeBoundaries[i]) {\n                        volumeBonus = lastStage.volumeBonuses[i];\n                        break;\n                    }\n                    else\n                        lastLowerBoundary = lastStage.volumeBoundaries[i];\n\n            return (lastStage.discount, lastStage.vesting, volumeBonus);\n        }\n\n        stages.length--;\n        return getCurrentStage();\n    }\n\n    function () payable external {\n        buyTokens();\n    }\n\n    function claimRemainingTokens() external onlyOwner {\n        require(stages.length == 0);\n\n        require(token.transfer(owner, token.balanceOf(address(this))));\n    }\n}\n",
  "sourcePath": "/c/Users/Mr.Hokid/projects/work/w12-product-contracts/contracts/W12Crowdsale.sol",
  "compiler": {
    "name": "solc",
    "version": "0.4.24+commit.e67f0147.Emscripten.clang"
  },
  "schemaVersion": "2.0.0",
  "updatedAt": "2018-07-26T16:20:11.773Z"
}