{
  "contractName": "W12CrowdsaleFactory",
  "abi": [
    {
      "inputs": [
        {
          "name": "_fundFactory",
          "type": "address"
        }
      ],
      "payable": false,
      "stateMutability": "nonpayable",
      "type": "constructor"
    },
    {
      "anonymous": false,
      "inputs": [
        {
          "indexed": true,
          "name": "owner",
          "type": "address"
        },
        {
          "indexed": true,
          "name": "token",
          "type": "address"
        },
        {
          "indexed": false,
          "name": "startDate",
          "type": "uint32"
        },
        {
          "indexed": false,
          "name": "crowdsaleAddress",
          "type": "address"
        },
        {
          "indexed": false,
          "name": "fundAddress",
          "type": "address"
        }
      ],
      "name": "CrowdsaleCreated",
      "type": "event"
    },
    {
      "constant": false,
      "inputs": [
        {
          "name": "wTokenAddress",
          "type": "address"
        },
        {
          "name": "startDate",
          "type": "uint32"
        },
        {
          "name": "price",
          "type": "uint256"
        },
        {
          "name": "serviceWallet",
          "type": "address"
        },
        {
          "name": "serviceFee",
          "type": "uint8"
        },
        {
          "name": "swap",
          "type": "address"
        },
        {
          "name": "owner",
          "type": "address"
        }
      ],
      "name": "createCrowdsale",
      "outputs": [
        {
          "name": "result",
          "type": "address"
        }
      ],
      "payable": false,
      "stateMutability": "nonpayable",
      "type": "function"
    }
  ],
  "bytecode": "0x608060405234801561001057600080fd5b50604051602080613d9983398101806040528101908080519060200190929190505050600073ffffffffffffffffffffffffffffffffffffffff168173ffffffffffffffffffffffffffffffffffffffff16141515156100d8576040517f08c379a00000000000000000000000000000000000000000000000000000000081526004018080602001828103825260188152602001807f466163746f72792061646472657373207265717569726564000000000000000081525060200191505060405180910390fd5b806000806101000a81548173ffffffffffffffffffffffffffffffffffffffff021916908373ffffffffffffffffffffffffffffffffffffffff16021790555050613c71806101286000396000f300608060405260043610610041576000357c0100000000000000000000000000000000000000000000000000000000900463ffffffff168063c56351cd14610046575b600080fd5b34801561005257600080fd5b5061010e600480360381019080803573ffffffffffffffffffffffffffffffffffffffff169060200190929190803563ffffffff16906020019092919080359060200190929190803573ffffffffffffffffffffffffffffffffffffffff169060200190929190803560ff169060200190929190803573ffffffffffffffffffffffffffffffffffffffff169060200190929190803573ffffffffffffffffffffffffffffffffffffffff169060200190929190505050610150565b604051808273ffffffffffffffffffffffffffffffffffffffff1673ffffffffffffffffffffffffffffffffffffffff16815260200191505060405180910390f35b6000806000809054906101000a900473ffffffffffffffffffffffffffffffffffffffff1673ffffffffffffffffffffffffffffffffffffffff1663d7772da2856040518263ffffffff167c0100000000000000000000000000000000000000000000000000000000028152600401808273ffffffffffffffffffffffffffffffffffffffff1673ffffffffffffffffffffffffffffffffffffffff168152602001915050602060405180830381600087803b15801561020f57600080fd5b505af1158015610223573d6000803e3d6000fd5b505050506040513d602081101561023957600080fd5b81019080805190602001909291905050509050888973ffffffffffffffffffffffffffffffffffffffff1663313ce5676040518163ffffffff167c0100000000000000000000000000000000000000000000000000000000028152600401602060405180830381600087803b1580156102b157600080fd5b505af11580156102c5573d6000803e3d6000fd5b505050506040513d60208110156102db57600080fd5b810190808051906020019092919050505089898989866102f96106e4565b808873ffffffffffffffffffffffffffffffffffffffff1673ffffffffffffffffffffffffffffffffffffffff1681526020018760ff1681526020018663ffffffff1663ffffffff1681526020018581526020018473ffffffffffffffffffffffffffffffffffffffff1673ffffffffffffffffffffffffffffffffffffffff1681526020018360ff1660ff1681526020018273ffffffffffffffffffffffffffffffffffffffff1673ffffffffffffffffffffffffffffffffffffffff168152602001975050505050505050604051809103906000f0801580156103e2573d6000803e3d6000fd5b5091508173ffffffffffffffffffffffffffffffffffffffff1663f2fde38b846040518263ffffffff167c0100000000000000000000000000000000000000000000000000000000028152600401808273ffffffffffffffffffffffffffffffffffffffff1673ffffffffffffffffffffffffffffffffffffffff168152602001915050600060405180830381600087803b15801561048057600080fd5b505af1158015610494573d6000803e3d6000fd5b505050508073ffffffffffffffffffffffffffffffffffffffff1663483a20b2836040518263ffffffff167c0100000000000000000000000000000000000000000000000000000000028152600401808273ffffffffffffffffffffffffffffffffffffffff1673ffffffffffffffffffffffffffffffffffffffff168152602001915050600060405180830381600087803b15801561053357600080fd5b505af1158015610547573d6000803e3d6000fd5b505050508073ffffffffffffffffffffffffffffffffffffffff1663f2fde38b846040518263ffffffff167c0100000000000000000000000000000000000000000000000000000000028152600401808273ffffffffffffffffffffffffffffffffffffffff1673ffffffffffffffffffffffffffffffffffffffff168152602001915050600060405180830381600087803b1580156105e657600080fd5b505af11580156105fa573d6000803e3d6000fd5b505050508873ffffffffffffffffffffffffffffffffffffffff168373ffffffffffffffffffffffffffffffffffffffff167fed25eb23596fb8771d2e1e79182ae4c1e2c0e9d7f8718b8e52c92a7ecd154c8c8a600085604051808463ffffffff1663ffffffff1681526020018373ffffffffffffffffffffffffffffffffffffffff1673ffffffffffffffffffffffffffffffffffffffff1681526020018273ffffffffffffffffffffffffffffffffffffffff1673ffffffffffffffffffffffffffffffffffffffff168152602001935050505060405180910390a350979650505050505050565b604051613551806106f5833901905600608060405260008060146101000a81548160ff0219169083151502179055503480156200002b57600080fd5b5060405160e0806200355183398101806040528101908080519060200190929190805190602001909291908051906020019092919080519060200190929190805190602001909291908051906020019092919080519060200190929190505050336000806101000a81548173ffffffffffffffffffffffffffffffffffffffff021916908373ffffffffffffffffffffffffffffffffffffffff160217905550600073ffffffffffffffffffffffffffffffffffffffff168773ffffffffffffffffffffffffffffffffffffffff16141515156200010857600080fd5b60008260ff161015801562000120575060648260ff16105b15156200012c57600080fd5b600073ffffffffffffffffffffffffffffffffffffffff168173ffffffffffffffffffffffffffffffffffffffff16141515156200016957600080fd5b86600160006101000a81548173ffffffffffffffffffffffffffffffffffffffff021916908373ffffffffffffffffffffffffffffffffffffffff16021790555085600281905550620001cd85858562000236640100000000026401000000009004565b81600560006101000a81548160ff021916908360ff16021790555080600660006101000a81548173ffffffffffffffffffffffffffffffffffffffff021916908373ffffffffffffffffffffffffffffffffffffffff1602179055505050505050505062000307565b428363ffffffff16101515156200024c57600080fd5b6000821115156200025c57600080fd5b600073ffffffffffffffffffffffffffffffffffffffff168173ffffffffffffffffffffffffffffffffffffffff16141515156200029957600080fd5b82600360006101000a81548163ffffffff021916908363ffffffff1602179055508160048190555080600560016101000a81548173ffffffffffffffffffffffffffffffffffffffff021916908373ffffffffffffffffffffffffffffffffffffffff160217905550505050565b61323a80620003176000396000f30060806040526004361061016a576000357c0100000000000000000000000000000000000000000000000000000000900463ffffffff1680630b97bc86146101745780630d544ffe146101ab5780630ee62c771461022e5780632442e1cb146102b0578063299a017c14610408578063313602d41461054a5780633baba4d7146105615780634090cb641461058c578063521b7499146105e35780635641f3c314610640578063715018a61461069757806372e6a881146106ae578063792c02ea146106fb578063845ddcb2146107265780638abdf5aa146107935780638da5cb5b146107c45780638edd6eb61461081b5780639bed31e414610872578063a035b1fe146108cf578063a4fd6f56146108fa578063b60d428814610929578063d0febe4c14610980578063d6d65f3d1461098a578063e89e4ed6146109b5578063f12585f514610b0d578063f2fde38b14610b8f578063f9cbcef014610bd2578063fc0c546a14610c3d575b610172610c94565b005b34801561018057600080fd5b5061018961115c565b604051808263ffffffff1663ffffffff16815260200191505060405180910390f35b3480156101b757600080fd5b5061022c600480360381019080803590602001908201803590602001919091929391929390803590602001908201803590602001919091929391929390803590602001908201803590602001919091929391929390803590602001908201803590602001919091929391929390505050611172565b005b34801561023a57600080fd5b5061025960048036038101908080359060200190929190505050611881565b6040518080602001828103825283818151815260200191508051906020019060200280838360005b8381101561029c578082015181840152602081019050610281565b505050509050019250505060405180910390f35b3480156102bc57600080fd5b506102db6004803603810190808035906020019092919050505061191f565b604051808763ffffffff1663ffffffff1681526020018660ff1660ff1681526020018563ffffffff1663ffffffff1681526020018463ffffffff1663ffffffff1681526020018060200180602001838103835285818151815260200191508051906020019080838360005b83811015610361578082015181840152602081019050610346565b50505050905090810190601f16801561038e5780820380516001836020036101000a031916815260200191505b50838103825284818151815260200191508051906020019080838360005b838110156103c75780820151818401526020810190506103ac565b50505050905090810190601f1680156103f45780820380516001836020036101000a031916815260200191505b509850505050505050505060405180910390f35b34801561041457600080fd5b5061041d611b76565b604051808763ffffffff1663ffffffff1681526020018660ff1660ff1681526020018563ffffffff1663ffffffff1681526020018463ffffffff1663ffffffff1681526020018060200180602001838103835285818151815260200191508051906020019080838360005b838110156104a3578082015181840152602081019050610488565b50505050905090810190601f1680156104d05780820380516001836020036101000a031916815260200191505b50838103825284818151815260200191508051906020019080838360005b838110156105095780820151818401526020810190506104ee565b50505050905090810190601f1680156105365780820380516001836020036101000a031916815260200191505b509850505050505050505060405180910390f35b34801561055657600080fd5b5061055f611ba9565b005b34801561056d57600080fd5b50610576611e3c565b6040518082815260200191505060405180910390f35b34801561059857600080fd5b506105a1611e49565b604051808273ffffffffffffffffffffffffffffffffffffffff1673ffffffffffffffffffffffffffffffffffffffff16815260200191505060405180910390f35b3480156105ef57600080fd5b5061063e60048036038101908080359060200190929190803590602001908201803590602001919091929391929390803590602001908201803590602001919091929391929390505050611e73565b005b34801561064c57600080fd5b50610655611fb4565b604051808273ffffffffffffffffffffffffffffffffffffffff1673ffffffffffffffffffffffffffffffffffffffff16815260200191505060405180910390f35b3480156106a357600080fd5b506106ac611fda565b005b3480156106ba57600080fd5b506106d9600480360381019080803590602001909291905050506120dc565b604051808263ffffffff1663ffffffff16815260200191505060405180910390f35b34801561070757600080fd5b50610710612115565b6040518082815260200191505060405180910390f35b34801561073257600080fd5b5061075160048036038101908080359060200190929190505050612122565b604051808463ffffffff1663ffffffff1681526020018360ff1660ff1681526020018263ffffffff1663ffffffff168152602001935050505060405180910390f35b34801561079f57600080fd5b506107a8612188565b604051808260ff1660ff16815260200191505060405180910390f35b3480156107d057600080fd5b506107d961219b565b604051808273ffffffffffffffffffffffffffffffffffffffff1673ffffffffffffffffffffffffffffffffffffffff16815260200191505060405180910390f35b34801561082757600080fd5b506108306121c0565b604051808273ffffffffffffffffffffffffffffffffffffffff1673ffffffffffffffffffffffffffffffffffffffff16815260200191505060405180910390f35b34801561087e57600080fd5b506108cd600480360381019080803563ffffffff16906020019092919080359060200190929190803573ffffffffffffffffffffffffffffffffffffffff1690602001909291905050506121ea565b005b3480156108db57600080fd5b506108e4612255565b6040518082815260200191505060405180910390f35b34801561090657600080fd5b5061090f61225b565b604051808215151515815260200191505060405180910390f35b34801561093557600080fd5b5061093e6122a3565b604051808273ffffffffffffffffffffffffffffffffffffffff1673ffffffffffffffffffffffffffffffffffffffff16815260200191505060405180910390f35b610988610c94565b005b34801561099657600080fd5b5061099f6122c9565b6040518082815260200191505060405180910390f35b3480156109c157600080fd5b506109e06004803603810190808035906020019092919050505061235c565b604051808763ffffffff1663ffffffff1681526020018660ff1660ff1681526020018563ffffffff1663ffffffff1681526020018463ffffffff1663ffffffff1681526020018060200180602001838103835285818151815260200191508051906020019080838360005b83811015610a66578082015181840152602081019050610a4b565b50505050905090810190601f168015610a935780820380516001836020036101000a031916815260200191505b50838103825284818151815260200191508051906020019080838360005b83811015610acc578082015181840152602081019050610ab1565b50505050905090810190601f168015610af95780820380516001836020036101000a031916815260200191505b509850505050505050505060405180910390f35b348015610b1957600080fd5b50610b3860048036038101908080359060200190929190505050612514565b6040518080602001828103825283818151815260200191508051906020019060200280838360005b83811015610b7b578082015181840152602081019050610b60565b505050509050019250505060405180910390f35b348015610b9b57600080fd5b50610bd0600480360381019080803573ffffffffffffffffffffffffffffffffffffffff16906020019092919050505061258c565b005b348015610bde57600080fd5b50610c3b6004803603810190808035906020019082018035906020019190919293919293908035906020019082018035906020019190919293919293908035906020019082018035906020019190919293919293905050506126e1565b005b348015610c4957600080fd5b50610c52612ad6565b604051808273ffffffffffffffffffffffffffffffffffffffff1673ffffffffffffffffffffffffffffffffffffffff16815260200191505060405180910390f35b60008060008060008060149054906101000a900460ff16151515610cb757600080fd5b6001600060146101000a81548160ff021916908315150217905550600034111515610ce157600080fd5b42600360009054906101000a900463ffffffff1663ffffffff1611151515610d0857600080fd5b6000600780549050111515610d1c57600080fd5b610d24612afc565b94509450945060006007805490501415610d84573373ffffffffffffffffffffffffffffffffffffffff166108fc349081150290604051600060405180830381858888f19350505050158015610d7e573d6000803e3d6000fd5b5061113b565b60008560ff1611610d9757600454610dc6565b610dc56064610db78760640360ff16600454612c9890919063ffffffff16565b612cd090919063ffffffff16565b5b9150610e0c6002805403600a0a610dfe84610df08760640160ff1634612c9890919063ffffffff16565b612cd090919063ffffffff16565b612c9890919063ffffffff16565b9050600160009054906101000a900473ffffffffffffffffffffffffffffffffffffffff1673ffffffffffffffffffffffffffffffffffffffff16639d2e47773383876040518463ffffffff167c0100000000000000000000000000000000000000000000000000000000028152600401808473ffffffffffffffffffffffffffffffffffffffff1673ffffffffffffffffffffffffffffffffffffffff1681526020018381526020018263ffffffff1663ffffffff1681526020019350505050602060405180830381600087803b158015610ee757600080fd5b505af1158015610efb573d6000803e3d6000fd5b505050506040513d6020811015610f1157600080fd5b81019080805190602001909291905050501515610f2d57600080fd5b6000600560009054906101000a900460ff1660ff161115610fe957600560019054906101000a900473ffffffffffffffffffffffffffffffffffffffff1673ffffffffffffffffffffffffffffffffffffffff166108fc610fbc6064610fae600560009054906101000a900460ff1660ff1634612c9890919063ffffffff16565b612cd090919063ffffffff16565b9081150290604051600060405180830381858888f19350505050158015610fe7573d6000803e3d6000fd5b505b600660009054906101000a900473ffffffffffffffffffffffffffffffffffffffff1673ffffffffffffffffffffffffffffffffffffffff1663958799cb3073ffffffffffffffffffffffffffffffffffffffff1631620186a09033856040518563ffffffff167c0100000000000000000000000000000000000000000000000000000000028152600401808373ffffffffffffffffffffffffffffffffffffffff1673ffffffffffffffffffffffffffffffffffffffff168152602001828152602001925050506000604051808303818589803b1580156110ca57600080fd5b5088f11580156110de573d6000803e3d6000fd5b5050505050503373ffffffffffffffffffffffffffffffffffffffff167fcd60aa75dea3072fbc07ae6d7d856b5dc5f4eee88854f5b4abf7b680ef8bc50f3483604051808381526020018281526020019250505060405180910390a25b60008060146101000a81548160ff0219169083151502179055505050505050565b600360009054906101000a900463ffffffff1681565b60008060006060806000809054906101000a900473ffffffffffffffffffffffffffffffffffffffff1673ffffffffffffffffffffffffffffffffffffffff163373ffffffffffffffffffffffffffffffffffffffff161415156111d557600080fd5b60006008805490501415156111e957600080fd5b7fffffffffffffffffffffffffffffffffffffffffffffffffffffffffffffffff60ff168d8d90501115151561121e57600080fd5b60038d8d905011151561123057600080fd5b600060038e8e905081151561124157fe5b0614151561124e57600080fd5b8888905061126960028d8d9050612c9890919063ffffffff16565b14151561127557600080fd5b8c8c905061129060038d8d9050612c9890919063ffffffff16565b14151561129c57600080fd5b60028b8b90500287879050101515156112b457600080fd5b6000945060009350600092505b8c8c905060ff168360ff16101561184e57428d8d8560ff1681811015156112e457fe5b9050602002013563ffffffff1663ffffffff1611151561130357600080fd5b8c8c8460ff16818110151561131457fe5b9050602002013563ffffffff1663ffffffff168d8d6001860160ff16818110151561133b57fe5b9050602002013563ffffffff1663ffffffff161015151561135b57600080fd5b8c8c6001850160ff16818110151561136f57fe5b9050602002013563ffffffff1663ffffffff168d8d6002860160ff16818110151561139657fe5b9050602002013563ffffffff1663ffffffff16101515156113b657600080fd5b868690506114468a8a600160038860ff168115156113d057fe5b040160ff1681811015156113e057fe5b9050602002013563ffffffff1663ffffffff166114388c8c60038960ff1681151561140757fe5b0460ff16818110151561141657fe5b9050602002013563ffffffff1663ffffffff1689612ce690919063ffffffff16565b612ce690919063ffffffff16565b1115151561145357600080fd5b60648b8b60038660ff1681151561146657fe5b0460ff16818110151561147557fe5b9050602002013560ff1660ff1610151561148e57600080fd5b61150a858a8a600260038860ff168115156114a557fe5b040260ff1681811015156114b557fe5b9050602002013563ffffffff1663ffffffff1689898080601f016020809104026020016040519081016040528093929190818152602001838380828437820191505050505050612d029092919063ffffffff16565b91506115c28989600260038760ff1681151561152257fe5b040260ff16818110151561153257fe5b9050602002013563ffffffff1663ffffffff1686018a8a6001600260038960ff1681151561155c57fe5b04020160ff16818110151561156d57fe5b9050602002013563ffffffff1663ffffffff1689898080601f016020809104026020016040519081016040528093929190818152602001838380828437820191505050505050612d029092919063ffffffff16565b9050600082511115156115d457600080fd5b600081511115156115e457600080fd5b600860c0604051908101604052808f8f8760ff16818110151561160357fe5b9050602002013563ffffffff1663ffffffff1681526020018d8d60038860ff1681151561162c57fe5b0460ff16818110151561163b57fe5b9050602002013560ff1660ff1681526020018f8f6001880160ff16818110151561166157fe5b9050602002013563ffffffff1663ffffffff1681526020018f8f6002880160ff16818110151561168d57fe5b9050602002013563ffffffff1663ffffffff168152602001848152602001838152509080600181540180825580915050906001820390600052602060002090600302016000909192909190915060008201518160000160006101000a81548163ffffffff021916908363ffffffff16021790555060208201518160000160046101000a81548160ff021916908360ff16021790555060408201518160000160056101000a81548163ffffffff021916908363ffffffff16021790555060608201518160000160096101000a81548163ffffffff021916908363ffffffff160217905550608082015181600101908051906020019061178c929190612e5d565b5060a08201518160020190805190602001906117a9929190612e5d565b505050508888600160038660ff168115156117c057fe5b040160ff1681811015156117d057fe5b9050602002013563ffffffff16898960038660ff168115156117ee57fe5b0460ff1681811015156117fd57fe5b9050602002013563ffffffff160163ffffffff16850194508a8a60038560ff1681151561182657fe5b0460ff16818110151561183557fe5b9050602002013560ff16840193506003830192506112c1565b8c8c6009919061185f929190612edd565b5060648460ff1614151561187257600080fd5b50505050505050505050505050565b606060078281548110151561189257fe5b906000526020600020906003020160020180548060200260200160405190810160405280929190818152602001828054801561191357602002820191906000526020600020906000905b82829054906101000a900460ff1660ff16815260200190600101906020826000010492830192600103820291508084116118dc5790505b50505050509050919050565b60008060008060608060088781548110151561193757fe5b906000526020600020906003020160000160009054906101000a900463ffffffff1660088881548110151561196857fe5b906000526020600020906003020160000160049054906101000a900460ff1660088981548110151561199657fe5b906000526020600020906003020160000160059054906101000a900463ffffffff1660088a8154811015156119c757fe5b906000526020600020906003020160000160099054906101000a900463ffffffff1660088b8154811015156119f857fe5b906000526020600020906003020160010160088c815481101515611a1857fe5b9060005260206000209060030201600201818054600181600116156101000203166002900480601f016020809104026020016040519081016040528092919081815260200182805460018160011615610100020316600290048015611abe5780601f10611a9357610100808354040283529160200191611abe565b820191906000526020600020905b815481529060010190602001808311611aa157829003601f168201915b50505050509150808054600181600116156101000203166002900480601f016020809104026020016040519081016040528092919081815260200182805460018160011615610100020316600290048015611b5a5780601f10611b2f57610100808354040283529160200191611b5a565b820191906000526020600020905b815481529060010190602001808311611b3d57829003601f168201915b5050505050905095509550955095509550955091939550919395565b6000806000806060806000611b896122c9565b9050611b948161191f565b96509650965096509650965050909192939495565b6000809054906101000a900473ffffffffffffffffffffffffffffffffffffffff1673ffffffffffffffffffffffffffffffffffffffff163373ffffffffffffffffffffffffffffffffffffffff16141515611c0457600080fd5b611c0c61225b565b1515611c1757600080fd5b600160009054906101000a900473ffffffffffffffffffffffffffffffffffffffff1673ffffffffffffffffffffffffffffffffffffffff1663a9059cbb6000809054906101000a900473ffffffffffffffffffffffffffffffffffffffff16600160009054906101000a900473ffffffffffffffffffffffffffffffffffffffff1673ffffffffffffffffffffffffffffffffffffffff166370a08231306040518263ffffffff167c0100000000000000000000000000000000000000000000000000000000028152600401808273ffffffffffffffffffffffffffffffffffffffff1673ffffffffffffffffffffffffffffffffffffffff168152602001915050602060405180830381600087803b158015611d3457600080fd5b505af1158015611d48573d6000803e3d6000fd5b505050506040513d6020811015611d5e57600080fd5b81019080805190602001909291905050506040518363ffffffff167c0100000000000000000000000000000000000000000000000000000000028152600401808373ffffffffffffffffffffffffffffffffffffffff1673ffffffffffffffffffffffffffffffffffffffff16815260200182815260200192505050602060405180830381600087803b158015611df457600080fd5b505af1158015611e08573d6000803e3d6000fd5b505050506040513d6020811015611e1e57600080fd5b81019080805190602001909291905050501515611e3a57600080fd5b565b6000600880549050905090565b6000600160009054906101000a900473ffffffffffffffffffffffffffffffffffffffff16905090565b6000809054906101000a900473ffffffffffffffffffffffffffffffffffffffff1673ffffffffffffffffffffffffffffffffffffffff163373ffffffffffffffffffffffffffffffffffffffff16141515611ece57600080fd5b8181905084849050141515611ee257600080fd5b60078054905085101515611ef557600080fd5b600785815481101515611f0457fe5b90600052602060002090600302016001016000611f219190612f93565b600785815481101515611f3057fe5b90600052602060002090600302016002016000611f4d9190612fb4565b8383600787815481101515611f5e57fe5b90600052602060002090600302016001019190611f7c929190612fdc565b508181600787815481101515611f8e57fe5b90600052602060002090600302016002019190611fac929190613029565b505050505050565b600560019054906101000a900473ffffffffffffffffffffffffffffffffffffffff1681565b6000809054906101000a900473ffffffffffffffffffffffffffffffffffffffff1673ffffffffffffffffffffffffffffffffffffffff163373ffffffffffffffffffffffffffffffffffffffff1614151561203557600080fd5b6000809054906101000a900473ffffffffffffffffffffffffffffffffffffffff1673ffffffffffffffffffffffffffffffffffffffff167ff8df31144d9c2f0f6b59d69b8b98abd5459d07f2742c4df920b25aae33c6482060405160405180910390a260008060006101000a81548173ffffffffffffffffffffffffffffffffffffffff021916908373ffffffffffffffffffffffffffffffffffffffff160217905550565b6009818154811015156120eb57fe5b9060005260206000209060089182820401919006600402915054906101000a900463ffffffff1681565b6000600780549050905090565b60078181548110151561213157fe5b90600052602060002090600302016000915090508060000160009054906101000a900463ffffffff16908060000160049054906101000a900460ff16908060000160059054906101000a900463ffffffff16905083565b600560009054906101000a900460ff1681565b6000809054906101000a900473ffffffffffffffffffffffffffffffffffffffff1681565b6000600660009054906101000a900473ffffffffffffffffffffffffffffffffffffffff16905090565b6000809054906101000a900473ffffffffffffffffffffffffffffffffffffffff1673ffffffffffffffffffffffffffffffffffffffff163373ffffffffffffffffffffffffffffffffffffffff1614151561224557600080fd5b612250838383612d8f565b505050565b60045481565b600042600760016007805490500381548110151561227557fe5b906000526020600020906003020160000160009054906101000a900463ffffffff1663ffffffff1610905090565b600660009054906101000a900473ffffffffffffffffffffffffffffffffffffffff1681565b600080600880549050905060008114156122e257600080fd5b600091505b8082108015612332575060096003830281548110151561230357fe5b90600052602060002090600891828204019190066004029054906101000a900463ffffffff1663ffffffff1642115b156123445781806001019250506122e7565b8082141561235757600182039150612358565b5b5090565b60088181548110151561236b57fe5b90600052602060002090600302016000915090508060000160009054906101000a900463ffffffff16908060000160049054906101000a900460ff16908060000160059054906101000a900463ffffffff16908060000160099054906101000a900463ffffffff1690806001018054600181600116156101000203166002900480601f01602080910402602001604051908101604052809291908181526020018280546001816001161561010002031660029004801561246c5780601f106124415761010080835404028352916020019161246c565b820191906000526020600020905b81548152906001019060200180831161244f57829003601f168201915b505050505090806002018054600181600116156101000203166002900480601f01602080910402602001604051908101604052809291908181526020018280546001816001161561010002031660029004801561250a5780601f106124df5761010080835404028352916020019161250a565b820191906000526020600020905b8154815290600101906020018083116124ed57829003601f168201915b5050505050905086565b606060078281548110151561252557fe5b906000526020600020906003020160010180548060200260200160405190810160405280929190818152602001828054801561258057602002820191906000526020600020905b81548152602001906001019080831161256c575b50505050509050919050565b6000809054906101000a900473ffffffffffffffffffffffffffffffffffffffff1673ffffffffffffffffffffffffffffffffffffffff163373ffffffffffffffffffffffffffffffffffffffff161415156125e757600080fd5b600073ffffffffffffffffffffffffffffffffffffffff168173ffffffffffffffffffffffffffffffffffffffff161415151561262357600080fd5b8073ffffffffffffffffffffffffffffffffffffffff166000809054906101000a900473ffffffffffffffffffffffffffffffffffffffff1673ffffffffffffffffffffffffffffffffffffffff167f8be0079c531659141344cd1fd0a4f28419497f9722a3daafe3b4186f6b6457e060405160405180910390a3806000806101000a81548173ffffffffffffffffffffffffffffffffffffffff021916908373ffffffffffffffffffffffffffffffffffffffff16021790555050565b6000806000809054906101000a900473ffffffffffffffffffffffffffffffffffffffff1673ffffffffffffffffffffffffffffffffffffffff163373ffffffffffffffffffffffffffffffffffffffff1614151561273f57600080fd5b7fffffffffffffffffffffffffffffffffffffffffffffffffffffffffffffffff60ff16888890501115151561277457600080fd5b60008888905011151561278657600080fd5b858590508888905014151561279a57600080fd5b83839050888890501415156127ae57600080fd5b8787905091508160ff166007816127c591906130d3565b50600090505b8160ff168160ff161015612aa057600086868360ff1681811015156127ec57fe5b9050602002013560ff1660ff16101580156128245750606486868360ff16818110151561281557fe5b9050602002013560ff1660ff16105b151561282f57600080fd5b87878260ff16818110151561284057fe5b9050602002013563ffffffff1663ffffffff16600360009054906101000a900463ffffffff1663ffffffff1610151561287857600080fd5b6001820360ff168160ff1610156129705787876001830160ff16818110151561289d57fe5b9050602002013563ffffffff1663ffffffff1688888360ff1681811015156128c157fe5b9050602002013563ffffffff1663ffffffff1610151561296f576040517f08c379a00000000000000000000000000000000000000000000000000000000081526004018080602001828103825260228152602001807f53746167657320617265206e6f7420696e20686973746f726963616c206f726481526020017f657200000000000000000000000000000000000000000000000000000000000081525060400191505060405180910390fd5b5b87878260ff16818110151561298157fe5b9050602002013563ffffffff16600760018385030360ff168154811015156129a557fe5b906000526020600020906003020160000160006101000a81548163ffffffff021916908363ffffffff16021790555085858260ff1681811015156129e557fe5b9050602002013560ff16600760018385030360ff16815481101515612a0657fe5b906000526020600020906003020160000160046101000a81548160ff021916908360ff16021790555083838260ff168181101515612a4057fe5b9050602002013563ffffffff16600760018385030360ff16815481101515612a6457fe5b906000526020600020906003020160000160056101000a81548163ffffffff021916908363ffffffff16021790555080806001019150506127cb565b7f743961f4e677d1146fbf85d75565b1c5474fd083eb166f8b9595cf5d01a4d6e660405160405180910390a15050505050505050565b600160009054906101000a900473ffffffffffffffffffffffffffffffffffffffff1681565b60008060008060008060006007805490501415612b2c576000806000829250819150809050955095509550612c90565b6007600160078054905003815481101515612b4357fe5b90600052602060002090600302019250428360000160009054906101000a900463ffffffff1663ffffffff16101515612c6b576000935060009150600083600101805490501115612c3857600090505b6001836001018054905003811015612c3757813410158015612bcf57508260010181815481101515612bc157fe5b906000526020600020015434105b15612c0c578260020181815481101515612be557fe5b90600052602060002090602091828204019190069054906101000a900460ff169350612c37565b8260010181815481101515612c1d57fe5b906000526020600020015491508080600101915050612b93565b5b8260000160049054906101000a900460ff168360000160059054906101000a900463ffffffff1685955095509550612c90565b6007805480919060019003612c8091906130d3565b50612c89612afc565b9550955095505b505050909192565b600080831415612cab5760009050612cca565b8183029050818382811515612cbc57fe5b04141515612cc657fe5b8090505b92915050565b60008183811515612cdd57fe5b04905092915050565b60008183019050828110151515612cf957fe5b80905092915050565b606080828401855110151515612d1757600080fd5b821560008114612d3257604051915060208201604052612d83565b6040519150601f8416801560200281840101858101878315602002848b0101015b81831015612d705780518352602083019250602081019050612d53565b50868552601f19601f8301166040525050505b50809150509392505050565b428363ffffffff1610151515612da457600080fd5b600082111515612db357600080fd5b600073ffffffffffffffffffffffffffffffffffffffff168173ffffffffffffffffffffffffffffffffffffffff1614151515612def57600080fd5b82600360006101000a81548163ffffffff021916908363ffffffff1602179055508160048190555080600560016101000a81548173ffffffffffffffffffffffffffffffffffffffff021916908373ffffffffffffffffffffffffffffffffffffffff160217905550505050565b828054600181600116156101000203166002900490600052602060002090601f016020900481019282601f10612e9e57805160ff1916838001178555612ecc565b82800160010185558215612ecc579182015b82811115612ecb578251825591602001919060010190612eb0565b5b509050612ed99190613105565b5090565b82805482825590600052602060002090600701600890048101928215612f825791602002820160005b83821115612f5057833563ffffffff1683826101000a81548163ffffffff021916908363ffffffff1602179055509260200192600401602081600301049283019260010302612f06565b8015612f805782816101000a81549063ffffffff0219169055600401602081600301049283019260010302612f50565b505b509050612f8f919061312a565b5090565b5080546000825590600052602060002090810190612fb19190613105565b50565b50805460008255601f016020900490600052602060002090810190612fd99190613105565b50565b828054828255906000526020600020908101928215613018579160200282015b82811115613017578235825591602001919060010190612ffc565b5b5090506130259190613105565b5090565b82805482825590600052602060002090601f016020900481019282156130c25791602002820160005b8382111561309357833560ff1683826101000a81548160ff021916908360ff1602179055509260200192600101602081600001049283019260010302613052565b80156130c05782816101000a81549060ff0219169055600101602081600001049283019260010302613093565b505b5090506130cf919061315d565b5090565b815481835581811115613100576003028160030283600052602060002091820191016130ff919061318d565b5b505050565b61312791905b8082111561312357600081600090555060010161310b565b5090565b90565b61315a91905b8082111561315657600081816101000a81549063ffffffff021916905550600101613130565b5090565b90565b61318a91905b8082111561318657600081816101000a81549060ff021916905550600101613163565b5090565b90565b61320b91905b8082111561320757600080820160006101000a81549063ffffffff02191690556000820160046101000a81549060ff02191690556000820160056101000a81549063ffffffff02191690556001820160006131ee9190612f93565b6002820160006131fe9190612fb4565b50600301613193565b5090565b905600a165627a7a72305820b7b21180717eef6988adcd3be65d111f2f11487b7a787f3121297f097bb0d81d0029a165627a7a72305820100e38dadbe396c5d0be4d492bfbc7487cc48b342d5543855d0f433f8ebf996b0029",
  "source": "pragma solidity ^0.4.24;\n\nimport \"./interfaces/IW12CrowdsaleFactory.sol\";\nimport \"./interfaces/IW12FundFactory.sol\";\nimport \"./W12Crowdsale.sol\";\n\n\ncontract W12CrowdsaleFactory is IW12CrowdsaleFactory {\n    IW12FundFactory private fundFactory;\n\n    event CrowdsaleCreated(address indexed owner, address indexed token, uint32 startDate, address crowdsaleAddress, address fundAddress);\n\n    constructor(IW12FundFactory _fundFactory) public {\n        require(_fundFactory != address(0), \"Factory address required\");\n\n        fundFactory = _fundFactory;\n    }\n\n    function createCrowdsale(address wTokenAddress, uint32 startDate, uint price, address serviceWallet, uint8 serviceFee, address swap, address owner)\n        external returns (IW12Crowdsale result) {\n        IW12Fund fund = fundFactory.createFund(swap);\n\n        result = new W12Crowdsale(wTokenAddress, DetailedERC20(wTokenAddress).decimals(), startDate, price, serviceWallet, serviceFee, fund);\n        result.transferOwnership(owner);\n\n        fund.setCrowdsale(result);\n        fund.transferOwnership(owner);\n\n        emit CrowdsaleCreated(owner, wTokenAddress, startDate, address(0), fund);\n    }\n}\n",
  "sourcePath": "/home/andrey/Code/w12/platform-contracts/contracts/W12CrowdsaleFactory.sol",
  "compiler": {
    "name": "solc",
    "version": "0.4.24+commit.e67f0147.Emscripten.clang"
  },
  "schemaVersion": "2.0.1",
  "updatedAt": "2018-08-06T21:09:02.504Z"
}