{
  "contractName": "W12CrowdsaleStub",
  "abi": [
    {
      "constant": false,
      "inputs": [
        {
          "name": "method",
          "type": "bytes32"
        },
        {
          "name": "amount",
          "type": "uint256"
        }
      ],
      "name": "buyTokens",
      "outputs": [],
      "payable": true,
      "stateMutability": "payable",
      "type": "function"
    },
    {
      "constant": true,
      "inputs": [
        {
          "name": "_method",
          "type": "bytes32"
        }
      ],
      "name": "isPaymentMethodAllowed",
      "outputs": [
        {
          "name": "",
          "type": "bool"
        }
      ],
      "payable": false,
      "stateMutability": "view",
      "type": "function"
    },
    {
      "constant": true,
      "inputs": [],
      "name": "originToken",
      "outputs": [
        {
          "name": "",
          "type": "address"
        }
      ],
      "payable": false,
      "stateMutability": "view",
      "type": "function"
    },
    {
      "constant": false,
      "inputs": [
        {
          "name": "val",
          "type": "uint256"
        }
      ],
      "name": "setRefundDate",
      "outputs": [],
      "payable": false,
      "stateMutability": "nonpayable",
      "type": "function"
    },
    {
      "constant": true,
      "inputs": [],
      "name": "getLastMilestoneIndex",
      "outputs": [
        {
          "name": "index",
          "type": "uint256"
        },
        {
          "name": "found",
          "type": "bool"
        }
      ],
      "payable": false,
      "stateMutability": "view",
      "type": "function"
    },
    {
      "constant": false,
      "inputs": [
        {
          "name": "_account",
          "type": "address"
        }
      ],
      "name": "removeAdmin",
      "outputs": [],
      "payable": false,
      "stateMutability": "nonpayable",
      "type": "function"
    },
    {
      "constant": true,
      "inputs": [
        {
          "name": "value",
          "type": "uint256"
        }
      ],
      "name": "getSaleVolumeBonus",
      "outputs": [
        {
          "name": "bonus",
          "type": "uint256"
        }
      ],
      "payable": false,
      "stateMutability": "view",
      "type": "function"
    },
    {
      "constant": false,
      "inputs": [
        {
          "name": "recipient",
          "type": "address"
        }
      ],
      "name": "transferPrimary",
      "outputs": [],
      "payable": false,
      "stateMutability": "nonpayable",
      "type": "function"
    },
    {
      "constant": true,
      "inputs": [
        {
          "name": "index",
          "type": "uint256"
        }
      ],
      "name": "getMilestone",
      "outputs": [
        {
          "name": "",
          "type": "uint32"
        },
        {
          "name": "",
          "type": "uint256"
        },
        {
          "name": "",
          "type": "uint32"
        },
        {
          "name": "",
          "type": "uint32"
        },
        {
          "name": "",
          "type": "bytes"
        },
        {
          "name": "",
          "type": "bytes"
        }
      ],
      "payable": false,
      "stateMutability": "view",
      "type": "function"
    },
    {
      "constant": true,
      "inputs": [
        {
          "name": "account",
          "type": "address"
        }
      ],
      "name": "isAdmin",
      "outputs": [
        {
          "name": "",
          "type": "bool"
        }
      ],
      "payable": false,
      "stateMutability": "view",
      "type": "function"
    },
    {
      "constant": true,
      "inputs": [
        {
          "name": "method",
          "type": "bytes32"
        }
      ],
      "name": "getPurchaseFeeParameterForPaymentMethod",
      "outputs": [
        {
          "name": "",
          "type": "bool"
        },
        {
          "name": "",
          "type": "uint256"
        }
      ],
      "payable": false,
      "stateMutability": "view",
      "type": "function"
    },
    {
      "constant": true,
      "inputs": [],
      "name": "refund_date",
      "outputs": [
        {
          "name": "",
          "type": "uint256"
        }
      ],
      "payable": false,
      "stateMutability": "view",
      "type": "function"
    },
    {
      "constant": true,
      "inputs": [
        {
          "name": "index",
          "type": "uint256"
        }
      ],
      "name": "getStage",
      "outputs": [
        {
          "name": "",
          "type": "uint32"
        },
        {
          "name": "",
          "type": "uint32"
        },
        {
          "name": "",
          "type": "uint256"
        },
        {
          "name": "",
          "type": "uint32"
        },
        {
          "name": "",
          "type": "uint256[]"
        },
        {
          "name": "",
          "type": "uint256[]"
        }
      ],
      "payable": false,
      "stateMutability": "view",
      "type": "function"
    },
    {
      "constant": true,
      "inputs": [],
      "name": "WTokenSaleFeePercent",
      "outputs": [
        {
          "name": "",
          "type": "uint256"
        }
      ],
      "payable": false,
      "stateMutability": "view",
      "type": "function"
    },
    {
      "constant": false,
      "inputs": [],
      "name": "claimRemainingTokens",
      "outputs": [],
      "payable": false,
      "stateMutability": "nonpayable",
      "type": "function"
    },
    {
      "constant": true,
      "inputs": [],
      "name": "milestonesLength",
      "outputs": [
        {
          "name": "",
          "type": "uint256"
        }
      ],
      "payable": false,
      "stateMutability": "view",
      "type": "function"
    },
    {
      "constant": false,
      "inputs": [
        {
          "name": "_account",
          "type": "address"
        }
      ],
      "name": "addProjectOwner",
      "outputs": [],
      "payable": false,
      "stateMutability": "nonpayable",
      "type": "function"
    },
    {
      "constant": true,
      "inputs": [],
      "name": "getProjectType",
      "outputs": [
        {
          "name": "",
          "type": "uint8"
        }
      ],
      "payable": false,
      "stateMutability": "view",
      "type": "function"
    },
    {
      "constant": true,
      "inputs": [
        {
          "name": "method",
          "type": "bytes32"
        }
      ],
      "name": "getPurchaseFeeForPaymentMethod",
      "outputs": [
        {
          "name": "",
          "type": "uint256"
        }
      ],
      "payable": false,
      "stateMutability": "view",
      "type": "function"
    },
    {
      "constant": true,
      "inputs": [],
      "name": "getWToken",
      "outputs": [
        {
          "name": "",
          "type": "address"
        }
      ],
      "payable": false,
      "stateMutability": "view",
      "type": "function"
    },
    {
      "constant": true,
      "inputs": [],
      "name": "rates",
      "outputs": [
        {
          "name": "",
          "type": "address"
        }
      ],
      "payable": false,
      "stateMutability": "view",
      "type": "function"
    },
    {
      "constant": false,
      "inputs": [
        {
          "name": "val_name",
          "type": "string"
        }
      ],
      "name": "setProjectName",
      "outputs": [],
      "payable": false,
      "stateMutability": "nonpayable",
      "type": "function"
    },
    {
      "constant": false,
      "inputs": [
        {
          "name": "val_type",
          "type": "uint8"
        }
      ],
      "name": "setProjectType",
      "outputs": [],
      "payable": false,
      "stateMutability": "nonpayable",
      "type": "function"
    },
    {
      "constant": true,
      "inputs": [],
      "name": "version",
      "outputs": [
        {
          "name": "",
          "type": "uint256"
        }
      ],
      "payable": false,
      "stateMutability": "view",
      "type": "function"
    },
    {
      "constant": true,
      "inputs": [],
      "name": "getPaymentMethodsList",
      "outputs": [
        {
          "name": "",
          "type": "bytes32[]"
        }
      ],
      "payable": false,
      "stateMutability": "view",
      "type": "function"
    },
    {
      "constant": true,
      "inputs": [],
      "name": "serviceWallet",
      "outputs": [
        {
          "name": "",
          "type": "address"
        }
      ],
      "payable": false,
      "stateMutability": "view",
      "type": "function"
    },
    {
      "constant": true,
      "inputs": [],
      "name": "isSaleActive",
      "outputs": [
        {
          "name": "",
          "type": "bool"
        }
      ],
      "payable": false,
      "stateMutability": "view",
      "type": "function"
    },
    {
      "constant": false,
      "inputs": [
        {
          "name": "method",
          "type": "bytes32"
        },
        {
          "name": "has",
          "type": "bool"
        },
        {
          "name": "value",
          "type": "uint256"
        }
      ],
      "name": "updatePurchaseFeeParameterForPaymentMethod",
      "outputs": [],
      "payable": false,
      "stateMutability": "nonpayable",
      "type": "function"
    },
    {
      "constant": false,
      "inputs": [
        {
          "name": "_account",
          "type": "address"
        }
      ],
      "name": "addAdmin",
      "outputs": [],
      "payable": false,
      "stateMutability": "nonpayable",
      "type": "function"
    },
    {
      "constant": true,
      "inputs": [],
      "name": "stagesLength",
      "outputs": [
        {
          "name": "",
          "type": "uint256"
        }
      ],
      "payable": false,
      "stateMutability": "view",
      "type": "function"
    },
    {
      "constant": true,
      "inputs": [],
      "name": "project_type",
      "outputs": [
        {
          "name": "",
          "type": "uint8"
        }
      ],
      "payable": false,
      "stateMutability": "view",
      "type": "function"
    },
    {
      "constant": true,
      "inputs": [],
      "name": "swap",
      "outputs": [
        {
          "name": "",
          "type": "address"
        }
      ],
      "payable": false,
      "stateMutability": "view",
      "type": "function"
    },
    {
      "constant": true,
      "inputs": [
        {
          "name": "",
          "type": "uint256"
        }
      ],
      "name": "stages",
      "outputs": [
        {
          "name": "startDate",
          "type": "uint32"
        },
        {
          "name": "endDate",
          "type": "uint32"
        },
        {
          "name": "discount",
          "type": "uint256"
        },
        {
          "name": "vesting",
          "type": "uint32"
        }
      ],
      "payable": false,
      "stateMutability": "view",
      "type": "function"
    },
    {
      "constant": true,
      "inputs": [],
      "name": "serviceFee",
      "outputs": [
        {
          "name": "",
          "type": "uint256"
        }
      ],
      "payable": false,
      "stateMutability": "view",
      "type": "function"
    },
    {
      "constant": true,
      "inputs": [
        {
          "name": "method",
          "type": "bytes32"
        },
        {
          "name": "amount",
          "type": "uint256"
        }
      ],
      "name": "getInvoice",
      "outputs": [
        {
          "name": "",
          "type": "uint256[5]"
        }
      ],
      "payable": false,
      "stateMutability": "view",
      "type": "function"
    },
    {
      "constant": false,
      "inputs": [],
      "name": "renounceAdmin",
      "outputs": [],
      "payable": false,
      "stateMutability": "nonpayable",
      "type": "function"
    },
    {
      "constant": true,
      "inputs": [],
      "name": "getFund",
      "outputs": [
        {
          "name": "",
          "type": "address"
        }
      ],
      "payable": false,
      "stateMutability": "view",
      "type": "function"
    },
    {
      "constant": true,
      "inputs": [],
      "name": "getProjectName",
      "outputs": [
        {
          "name": "",
          "type": "string"
        }
      ],
      "payable": false,
      "stateMutability": "view",
      "type": "function"
    },
    {
      "constant": true,
      "inputs": [],
      "name": "price",
      "outputs": [
        {
          "name": "",
          "type": "uint256"
        }
      ],
      "payable": false,
      "stateMutability": "view",
      "type": "function"
    },
    {
      "constant": true,
      "inputs": [],
      "name": "isEnded",
      "outputs": [
        {
          "name": "",
          "type": "bool"
        }
      ],
      "payable": false,
      "stateMutability": "view",
      "type": "function"
    },
    {
      "constant": true,
      "inputs": [],
      "name": "getEndDate",
      "outputs": [
        {
          "name": "",
          "type": "uint32"
        }
      ],
      "payable": false,
      "stateMutability": "view",
      "type": "function"
    },
    {
      "constant": true,
      "inputs": [],
      "name": "fund",
      "outputs": [
        {
          "name": "",
          "type": "address"
        }
      ],
      "payable": false,
      "stateMutability": "view",
      "type": "function"
    },
    {
      "constant": true,
      "inputs": [],
      "name": "primary",
      "outputs": [
        {
          "name": "",
          "type": "address"
        }
      ],
      "payable": false,
      "stateMutability": "view",
      "type": "function"
    },
    {
      "constant": true,
      "inputs": [
        {
          "name": "tokenAmount",
          "type": "uint256"
        },
        {
          "name": "cost",
          "type": "uint256"
        },
        {
          "name": "method",
          "type": "bytes32"
        }
      ],
      "name": "getFee",
      "outputs": [
        {
          "name": "",
          "type": "uint256[2]"
        }
      ],
      "payable": false,
      "stateMutability": "view",
      "type": "function"
    },
    {
      "constant": false,
      "inputs": [],
      "name": "renounceProjectOwner",
      "outputs": [],
      "payable": false,
      "stateMutability": "nonpayable",
      "type": "function"
    },
    {
      "constant": false,
      "inputs": [
        {
          "name": "_account",
          "type": "address"
        }
      ],
      "name": "removeProjectOwner",
      "outputs": [],
      "payable": false,
      "stateMutability": "nonpayable",
      "type": "function"
    },
    {
      "constant": true,
      "inputs": [],
      "name": "getRefundDate",
      "outputs": [
        {
          "name": "",
          "type": "uint256"
        }
      ],
      "payable": false,
      "stateMutability": "view",
      "type": "function"
    },
    {
      "constant": false,
      "inputs": [
        {
          "name": "parametersOfStages",
          "type": "uint256[6][]"
        },
        {
          "name": "bonusConditionsOfStages",
          "type": "uint256[]"
        },
        {
          "name": "parametersOfMilestones",
          "type": "uint256[4][]"
        },
        {
          "name": "nameAndDescriptionsOffsetOfMilestones",
          "type": "uint32[]"
        },
        {
          "name": "nameAndDescriptionsOfMilestones",
          "type": "bytes"
        },
        {
          "name": "paymentMethodsList",
          "type": "bytes32[]"
        }
      ],
      "name": "setup",
      "outputs": [],
      "payable": false,
      "stateMutability": "nonpayable",
      "type": "function"
    },
    {
      "constant": true,
      "inputs": [],
      "name": "getCurrentMilestoneIndex",
      "outputs": [
        {
          "name": "index",
          "type": "uint256"
        },
        {
          "name": "found",
          "type": "bool"
        }
      ],
      "payable": false,
      "stateMutability": "view",
      "type": "function"
    },
    {
      "constant": true,
      "inputs": [
        {
          "name": "account",
          "type": "address"
        }
      ],
      "name": "isProjectOwner",
      "outputs": [
        {
          "name": "",
          "type": "bool"
        }
      ],
      "payable": false,
      "stateMutability": "view",
      "type": "function"
    },
    {
      "constant": true,
      "inputs": [],
      "name": "getCurrentStageIndex",
      "outputs": [
        {
          "name": "index",
          "type": "uint256"
        },
        {
          "name": "found",
          "type": "bool"
        }
      ],
      "payable": false,
      "stateMutability": "view",
      "type": "function"
    },
    {
      "constant": true,
      "inputs": [],
      "name": "project_name",
      "outputs": [
        {
          "name": "",
          "type": "string"
        }
      ],
      "payable": false,
      "stateMutability": "view",
      "type": "function"
    },
    {
      "constant": true,
      "inputs": [
        {
          "name": "",
          "type": "uint256"
        }
      ],
      "name": "milestones",
      "outputs": [
        {
          "name": "endDate",
          "type": "uint32"
        },
        {
          "name": "tranchePercent",
          "type": "uint256"
        },
        {
          "name": "voteEndDate",
          "type": "uint32"
        },
        {
          "name": "withdrawalWindow",
          "type": "uint32"
        },
        {
          "name": "name",
          "type": "bytes"
        },
        {
          "name": "description",
          "type": "bytes"
        }
      ],
      "payable": false,
      "stateMutability": "view",
      "type": "function"
    },
    {
      "constant": false,
      "inputs": [
        {
          "name": "_price",
          "type": "uint256"
        }
      ],
      "name": "setParameters",
      "outputs": [],
      "payable": false,
      "stateMutability": "nonpayable",
      "type": "function"
    },
    {
      "constant": true,
      "inputs": [
        {
          "name": "method",
          "type": "bytes32"
        },
        {
          "name": "tokenAmount",
          "type": "uint256"
        }
      ],
      "name": "getInvoiceByTokenAmount",
      "outputs": [
        {
          "name": "",
          "type": "uint256[4]"
        }
      ],
      "payable": false,
      "stateMutability": "view",
      "type": "function"
    },
    {
      "constant": true,
      "inputs": [],
      "name": "token",
      "outputs": [
        {
          "name": "",
          "type": "address"
        }
      ],
      "payable": false,
      "stateMutability": "view",
      "type": "function"
    },
    {
      "inputs": [
        {
          "name": "version",
          "type": "uint256"
        },
        {
          "name": "_originToken",
          "type": "address"
        },
        {
          "name": "_token",
          "type": "address"
        },
        {
          "name": "_price",
          "type": "uint256"
        },
        {
          "name": "_serviceWallet",
          "type": "address"
        },
        {
          "name": "_swap",
          "type": "address"
        },
        {
          "name": "_serviceFee",
          "type": "uint256"
        },
        {
          "name": "_WTokenSaleFeePercent",
          "type": "uint256"
        },
        {
          "name": "_fund",
          "type": "address"
        },
        {
          "name": "_rates",
          "type": "address"
        }
      ],
      "payable": false,
      "stateMutability": "nonpayable",
      "type": "constructor"
    },
    {
      "anonymous": false,
      "inputs": [
        {
          "indexed": true,
          "name": "buyer",
          "type": "address"
        },
        {
          "indexed": false,
          "name": "tokensBought",
          "type": "uint256"
        },
        {
          "indexed": false,
          "name": "cost",
          "type": "uint256"
        },
        {
          "indexed": false,
          "name": "change",
          "type": "uint256"
        }
      ],
      "name": "TokenPurchase",
      "type": "event"
    },
    {
      "anonymous": false,
      "inputs": [],
      "name": "StagesUpdated",
      "type": "event"
    },
    {
      "anonymous": false,
      "inputs": [
        {
          "indexed": false,
          "name": "index",
          "type": "uint256"
        }
      ],
      "name": "StageUpdated",
      "type": "event"
    },
    {
      "anonymous": false,
      "inputs": [],
      "name": "MilestonesUpdated",
      "type": "event"
    },
    {
      "anonymous": false,
      "inputs": [],
      "name": "CrowdsaleSetUpDone",
      "type": "event"
    },
    {
      "anonymous": false,
      "inputs": [
        {
          "indexed": true,
          "name": "owner",
          "type": "address"
        },
        {
          "indexed": false,
          "name": "amount",
          "type": "uint256"
        }
      ],
      "name": "UnsoldTokenReturned",
      "type": "event"
    },
    {
      "anonymous": false,
      "inputs": [
        {
          "indexed": false,
          "name": "recipient",
          "type": "address"
        }
      ],
      "name": "PrimaryTransferred",
      "type": "event"
    },
    {
      "anonymous": false,
      "inputs": [
        {
          "indexed": true,
          "name": "account",
          "type": "address"
        }
      ],
      "name": "ProjectOwnerAdded",
      "type": "event"
    },
    {
      "anonymous": false,
      "inputs": [
        {
          "indexed": true,
          "name": "account",
          "type": "address"
        }
      ],
      "name": "ProjectOwnerRemoved",
      "type": "event"
    },
    {
      "anonymous": false,
      "inputs": [
        {
          "indexed": true,
          "name": "account",
          "type": "address"
        }
      ],
      "name": "AdminAdded",
      "type": "event"
    },
    {
      "anonymous": false,
      "inputs": [
        {
          "indexed": true,
          "name": "account",
          "type": "address"
        }
      ],
      "name": "AdminRemoved",
      "type": "event"
    },
    {
      "constant": false,
      "inputs": [
        {
          "name": "to",
          "type": "address"
        },
        {
          "name": "amount",
          "type": "uint256"
        }
      ],
      "name": "_outTokens",
      "outputs": [
        {
          "name": "",
          "type": "bool"
        }
      ],
      "payable": false,
      "stateMutability": "nonpayable",
      "type": "function"
    },
    {
      "constant": false,
      "inputs": [
        {
          "name": "to",
          "type": "address"
        }
      ],
      "name": "_outEther",
      "outputs": [],
      "payable": false,
      "stateMutability": "nonpayable",
      "type": "function"
    },
    {
      "constant": false,
      "inputs": [
        {
          "name": "_WTokenSaleFeePercent",
          "type": "uint256"
        }
      ],
      "name": "_setState",
      "outputs": [],
      "payable": false,
      "stateMutability": "nonpayable",
      "type": "function"
    }
  ],
  "bytecode": "0x60806040523480156200001157600080fd5b5060405161014080620068dc833981018060405281019080805190602001909291908051906020019092919080519060200190929190805190602001909291908051906020019092919080519060200190929190805190602001909291908051906020019092919080519060200190929190805190602001909291905050508989898989898989898989620000b5336200073a640100000000026401000000009004565b620000cf33620007a4640100000000026401000000009004565b806002819055505033600360006101000a81548173ffffffffffffffffffffffffffffffffffffffff021916908373ffffffffffffffffffffffffffffffffffffffff1602179055507f4101e71e974f68df5e9730cc223280b41654676bbb052cdcc735c3337e64d2d9600360009054906101000a900473ffffffffffffffffffffffffffffffffffffffff16604051808273ffffffffffffffffffffffffffffffffffffffff1673ffffffffffffffffffffffffffffffffffffffff16815260200191505060405180910390a16001600481905550600073ffffffffffffffffffffffffffffffffffffffff168973ffffffffffffffffffffffffffffffffffffffff1614151515620001e257600080fd5b600073ffffffffffffffffffffffffffffffffffffffff168873ffffffffffffffffffffffffffffffffffffffff16141515156200021f57600080fd5b8373__Percent_______________________________63520b006690916040518263ffffffff167c01000000000000000000000000000000000000000000000000000000000281526004018082815260200191505060206040518083038186803b1580156200028d57600080fd5b505af4158015620002a2573d6000803e3d6000fd5b505050506040513d6020811015620002b957600080fd5b8101908080519060200190929190505050801562000381575060648473__Percent_______________________________630fe9114790916040518263ffffffff167c01000000000000000000000000000000000000000000000000000000000281526004018082815260200191505060206040518083038186803b1580156200034257600080fd5b505af415801562000357573d6000803e3d6000fd5b505050506040513d60208110156200036e57600080fd5b8101908080519060200190929190505050105b15156200038d57600080fd5b8273__Percent_______________________________63520b006690916040518263ffffffff167c01000000000000000000000000000000000000000000000000000000000281526004018082815260200191505060206040518083038186803b158015620003fb57600080fd5b505af415801562000410573d6000803e3d6000fd5b505050506040513d60208110156200042757600080fd5b81019080805190602001909291905050508015620004ef575060648373__Percent_______________________________630fe9114790916040518263ffffffff167c01000000000000000000000000000000000000000000000000000000000281526004018082815260200191505060206040518083038186803b158015620004b057600080fd5b505af4158015620004c5573d6000803e3d6000fd5b505050506040513d6020811015620004dc57600080fd5b8101908080519060200190929190505050105b1515620004fb57600080fd5b600073ffffffffffffffffffffffffffffffffffffffff168273ffffffffffffffffffffffffffffffffffffffff16141515156200053857600080fd5b600073ffffffffffffffffffffffffffffffffffffffff168573ffffffffffffffffffffffffffffffffffffffff16141515156200057557600080fd5b600073ffffffffffffffffffffffffffffffffffffffff168173ffffffffffffffffffffffffffffffffffffffff1614151515620005b257600080fd5b620005cd87876200080e640100000000026401000000009004565b87600560006101000a81548173ffffffffffffffffffffffffffffffffffffffff021916908373ffffffffffffffffffffffffffffffffffffffff16021790555088600660006101000a81548173ffffffffffffffffffffffffffffffffffffffff021916908373ffffffffffffffffffffffffffffffffffffffff16021790555083600a8190555084600d60006101000a81548173ffffffffffffffffffffffffffffffffffffffff021916908373ffffffffffffffffffffffffffffffffffffffff16021790555082600b8190555081600760006101000a81548173ffffffffffffffffffffffffffffffffffffffff021916908373ffffffffffffffffffffffffffffffffffffffff16021790555080600860006101000a81548173ffffffffffffffffffffffffffffffffffffffff021916908373ffffffffffffffffffffffffffffffffffffffff1602179055505050505050505050505050505050505050505050620009ff565b6200075e816000620008a76401000000000262005ce4179091906401000000009004565b8073ffffffffffffffffffffffffffffffffffffffff167f44d6d25963f097ad14f29f06854a01f575648a1ef82f30e562ccd3889717e33960405160405180910390a250565b620007c8816001620008a76401000000000262005ce4179091906401000000009004565b8073ffffffffffffffffffffffffffffffffffffffff167f941e31c3e651de34a7fcf0132d9d02c2df9377e6b5f932bec5daf6353c94f90e60405160405180910390a250565b6000821115156200081e57600080fd5b600073ffffffffffffffffffffffffffffffffffffffff168173ffffffffffffffffffffffffffffffffffffffff16141515156200085b57600080fd5b8160098190555080600c60006101000a81548173ffffffffffffffffffffffffffffffffffffffff021916908373ffffffffffffffffffffffffffffffffffffffff1602179055505050565b600073ffffffffffffffffffffffffffffffffffffffff168173ffffffffffffffffffffffffffffffffffffffff1614151515620008e457600080fd5b620008ff82826200096a640100000000026401000000009004565b1515156200090c57600080fd5b60018260000160008373ffffffffffffffffffffffffffffffffffffffff1673ffffffffffffffffffffffffffffffffffffffff16815260200190815260200160002060006101000a81548160ff0219169083151502179055505050565b60008073ffffffffffffffffffffffffffffffffffffffff168273ffffffffffffffffffffffffffffffffffffffff1614151515620009a857600080fd5b8260000160008373ffffffffffffffffffffffffffffffffffffffff1673ffffffffffffffffffffffffffffffffffffffff16815260200190815260200160002060009054906101000a900460ff16905092915050565b615ecd8062000a0f6000396000f3006080604052600436106102bf576000357c0100000000000000000000000000000000000000000000000000000000900463ffffffff16806307f5d633146102c457806311eb8c9f146102f257806313096a411461033b57806313303ddf1461039257806314f66d34146103bf5780631785f53c146103f55780631aecc19f14610438578063208853c91461049d5780632348238c146104de5780632442e1cb1461052157806324d7806c146106735780632784bb7b146106ce5780632c903b371461071e5780632e325020146107495780632fbe599014610853578063313602d41461087e5780633baba4d7146108955780633bcdb164146108c05780633c9d5c75146109035780633dbd6721146109345780634090cb641461097957806343f48fbd146109d057806348b6b16f14610a2757806351f5a76d14610a9057806354fd4d5014610ac0578063550fd74214610aeb5780635641f3c314610b57578063564566a814610bae5780635773caaf14610bdd57806359e3774914610c205780637048027514610c67578063792c02ea14610caa5780637dd8951a14610cd55780638119c06514610d06578063845ddcb214610d5d5780638abdf5aa14610dd75780638aea2af814610e025780638bad0c0a14610e795780638edd6eb614610e905780639faf621514610ee7578063a035b1fe14610f77578063a4fd6f5614610fa2578063b135648814610fd1578063b60d428814611008578063c6dbdf611461105f578063ca7348a3146110b6578063cd151de0146110e3578063d0934d6114611164578063d155790b1461117b578063d45c1602146111be578063d5b22623146111e9578063d6d65f3d1461129c578063d8e9ce64146112d2578063daa4cf881461132d578063dc9c9f3314611363578063e89e4ed6146113f3578063e93b054014611545578063f6cf09dc14611572578063fc0c546a146115e9575b600080fd5b6102f0600480360381019080803560001916906020019092919080359060200190929190505050611640565b005b3480156102fe57600080fd5b5061032160048036038101908080356000191690602001909291905050506119b3565b604051808215151515815260200191505060405180910390f35b34801561034757600080fd5b50610350611a75565b604051808273ffffffffffffffffffffffffffffffffffffffff1673ffffffffffffffffffffffffffffffffffffffff16815260200191505060405180910390f35b34801561039e57600080fd5b506103bd60048036038101908080359060200190929190505050611a9b565b005b3480156103cb57600080fd5b506103d4611aa5565b60405180838152602001821515151581526020019250505060405180910390f35b34801561040157600080fd5b50610436600480360381019080803573ffffffffffffffffffffffffffffffffffffffff169060200190929190505050611adf565b005b34801561044457600080fd5b50610483600480360381019080803573ffffffffffffffffffffffffffffffffffffffff16906020019092919080359060200190929190505050611aeb565b604051808215151515815260200191505060405180910390f35b3480156104a957600080fd5b506104c860048036038101908080359060200190929190505050611bf5565b6040518082815260200191505060405180910390f35b3480156104ea57600080fd5b5061051f600480360381019080803573ffffffffffffffffffffffffffffffffffffffff169060200190929190505050611d75565b005b34801561052d57600080fd5b5061054c60048036038101908080359060200190929190505050611ed6565b604051808763ffffffff1663ffffffff1681526020018681526020018563ffffffff1663ffffffff1681526020018463ffffffff1663ffffffff1681526020018060200180602001838103835285818151815260200191508051906020019080838360005b838110156105cc5780820151818401526020810190506105b1565b50505050905090810190601f1680156105f95780820380516001836020036101000a031916815260200191505b50838103825284818151815260200191508051906020019080838360005b83811015610632578082015181840152602081019050610617565b50505050905090810190601f16801561065f5780820380516001836020036101000a031916815260200191505b509850505050505050505060405180910390f35b34801561067f57600080fd5b506106b4600480360381019080803573ffffffffffffffffffffffffffffffffffffffff169060200190929190505050612120565b604051808215151515815260200191505060405180910390f35b3480156106da57600080fd5b506106fd600480360381019080803560001916906020019092919050505061213d565b60405180831515151581526020018281526020019250505060405180910390f35b34801561072a57600080fd5b50610733612194565b6040518082815260200191505060405180910390f35b34801561075557600080fd5b506107746004803603810190808035906020019092919050505061219a565b604051808763ffffffff1663ffffffff1681526020018663ffffffff1663ffffffff1681526020018581526020018463ffffffff1663ffffffff1681526020018060200180602001838103835285818151815260200191508051906020019060200280838360005b838110156107f75780820151818401526020810190506107dc565b50505050905001838103825284818151815260200191508051906020019060200280838360005b8381101561083957808201518184015260208101905061081e565b505050509050019850505050505050505060405180910390f35b34801561085f57600080fd5b50610868612350565b6040518082815260200191505060405180910390f35b34801561088a57600080fd5b50610893612356565b005b3480156108a157600080fd5b506108aa6125c1565b6040518082815260200191505060405180910390f35b3480156108cc57600080fd5b50610901600480360381019080803573ffffffffffffffffffffffffffffffffffffffff1690602001909291905050506125ce565b005b34801561090f57600080fd5b506109186125da565b604051808260ff1660ff16815260200191505060405180910390f35b34801561094057600080fd5b5061096360048036038101908080356000191690602001909291905050506125f1565b6040518082815260200191505060405180910390f35b34801561098557600080fd5b5061098e612655565b604051808273ffffffffffffffffffffffffffffffffffffffff1673ffffffffffffffffffffffffffffffffffffffff16815260200191505060405180910390f35b3480156109dc57600080fd5b506109e561267f565b604051808273ffffffffffffffffffffffffffffffffffffffff1673ffffffffffffffffffffffffffffffffffffffff16815260200191505060405180910390f35b348015610a3357600080fd5b50610a8e600480360381019080803590602001908201803590602001908080601f01602080910402602001604051908101604052809392919081815260200183838082843782019150505050505091929192905050506126a5565b005b348015610a9c57600080fd5b50610abe600480360381019080803560ff1690602001909291905050506126bf565b005b348015610acc57600080fd5b50610ad56126dd565b6040518082815260200191505060405180910390f35b348015610af757600080fd5b50610b006126e3565b6040518080602001828103825283818151815260200191508051906020019060200280838360005b83811015610b43578082015181840152602081019050610b28565b505050509050019250505060405180910390f35b348015610b6357600080fd5b50610b6c6127e9565b604051808273ffffffffffffffffffffffffffffffffffffffff1673ffffffffffffffffffffffffffffffffffffffff16815260200191505060405180910390f35b348015610bba57600080fd5b50610bc361280f565b604051808215151515815260200191505060405180910390f35b348015610be957600080fd5b50610c1e600480360381019080803573ffffffffffffffffffffffffffffffffffffffff169060200190929190505050612824565b005b348015610c2c57600080fd5b50610c65600480360381019080803560001916906020019092919080351515906020019092919080359060200190929190505050612885565b005b348015610c7357600080fd5b50610ca8600480360381019080803573ffffffffffffffffffffffffffffffffffffffff169060200190929190505050612a3b565b005b348015610cb657600080fd5b50610cbf612a47565b6040518082815260200191505060405180910390f35b348015610ce157600080fd5b50610cea612a54565b604051808260ff1660ff16815260200191505060405180910390f35b348015610d1257600080fd5b50610d1b612a67565b604051808273ffffffffffffffffffffffffffffffffffffffff1673ffffffffffffffffffffffffffffffffffffffff16815260200191505060405180910390f35b348015610d6957600080fd5b50610d8860048036038101908080359060200190929190505050612a8d565b604051808563ffffffff1663ffffffff1681526020018463ffffffff1663ffffffff1681526020018381526020018263ffffffff1663ffffffff16815260200194505050505060405180910390f35b348015610de357600080fd5b50610dec612afc565b6040518082815260200191505060405180910390f35b348015610e0e57600080fd5b50610e3b600480360381019080803560001916906020019092919080359060200190929190505050612b02565b6040518082600560200280838360005b83811015610e66578082015181840152602081019050610e4b565b5050505090500191505060405180910390f35b348015610e8557600080fd5b50610e8e612f35565b005b348015610e9c57600080fd5b50610ea5612f40565b604051808273ffffffffffffffffffffffffffffffffffffffff1673ffffffffffffffffffffffffffffffffffffffff16815260200191505060405180910390f35b348015610ef357600080fd5b50610efc612f6a565b6040518080602001828103825283818151815260200191508051906020019080838360005b83811015610f3c578082015181840152602081019050610f21565b50505050905090810190601f168015610f695780820380516001836020036101000a031916815260200191505b509250505060405180910390f35b348015610f8357600080fd5b50610f8c61300c565b6040518082815260200191505060405180910390f35b348015610fae57600080fd5b50610fb7613012565b604051808215151515815260200191505060405180910390f35b348015610fdd57600080fd5b50610fe6613069565b604051808263ffffffff1663ffffffff16815260200191505060405180910390f35b34801561101457600080fd5b5061101d6130bc565b604051808273ffffffffffffffffffffffffffffffffffffffff1673ffffffffffffffffffffffffffffffffffffffff16815260200191505060405180910390f35b34801561106b57600080fd5b506110746130e2565b604051808273ffffffffffffffffffffffffffffffffffffffff1673ffffffffffffffffffffffffffffffffffffffff16815260200191505060405180910390f35b3480156110c257600080fd5b506110e16004803603810190808035906020019092919050505061310c565b005b3480156110ef57600080fd5b5061112660048036038101908080359060200190929190803590602001909291908035600019169060200190929190505050613116565b6040518082600260200280838360005b83811015611151578082015181840152602081019050611136565b5050505090500191505060405180910390f35b34801561117057600080fd5b506111796132b8565b005b34801561118757600080fd5b506111bc600480360381019080803573ffffffffffffffffffffffffffffffffffffffff1690602001909291905050506132c3565b005b3480156111ca57600080fd5b506111d36132cf565b6040518082815260200191505060405180910390f35b3480156111f557600080fd5b5061129a6004803603810190808035906020019082018035906020019190919293919293908035906020019082018035906020019190919293919293908035906020019082018035906020019190919293919293908035906020019082018035906020019190919293919293908035906020019082018035906020019190919293919293908035906020019082018035906020019190919293919293905050506132d9565b005b3480156112a857600080fd5b506112b1613774565b60405180838152602001821515151581526020019250505060405180910390f35b3480156112de57600080fd5b50611313600480360381019080803573ffffffffffffffffffffffffffffffffffffffff169060200190929190505050613803565b604051808215151515815260200191505060405180910390f35b34801561133957600080fd5b50611342613820565b60405180838152602001821515151581526020019250505060405180910390f35b34801561136f57600080fd5b506113786138c9565b6040518080602001828103825283818151815260200191508051906020019080838360005b838110156113b857808201518184015260208101905061139d565b50505050905090810190601f1680156113e55780820380516001836020036101000a031916815260200191505b509250505060405180910390f35b3480156113ff57600080fd5b5061141e60048036038101908080359060200190929190505050613967565b604051808763ffffffff1663ffffffff1681526020018681526020018563ffffffff1663ffffffff1681526020018463ffffffff1663ffffffff1681526020018060200180602001838103835285818151815260200191508051906020019080838360005b8381101561149e578082015181840152602081019050611483565b50505050905090810190601f1680156114cb5780820380516001836020036101000a031916815260200191505b50838103825284818151815260200191508051906020019080838360005b838110156115045780820151818401526020810190506114e9565b50505050905090810190601f1680156115315780820380516001836020036101000a031916815260200191505b509850505050505050505060405180910390f35b34801561155157600080fd5b5061157060048036038101908080359060200190929190505050613b12565b005b34801561157e57600080fd5b506115ab600480360381019080803560001916906020019092919080359060200190929190505050613bf1565b6040518082600460200280838360005b838110156115d65780820151818401526020810190506115bb565b5050505090500191505060405180910390f35b3480156115f557600080fd5b506115fe614024565b604051808273ffffffffffffffffffffffffffffffffffffffff1673ffffffffffffffffffffffffffffffffffffffff16815260200191505060405180910390f35b600061164a615d94565b611652615db7565b60006001600460008282540192505081905550600454905061167261280f565b151561167d57600080fd5b601073__PaymentMethods________________________6377df08569091886040518363ffffffff167c01000000000000000000000000000000000000000000000000000000000281526004018083815260200182600019166000191681526020019250505060206040518083038186803b1580156116fb57600080fd5b505af415801561170f573d6000803e3d6000fd5b505050506040513d602081101561172557600080fd5b8101908080519060200190929190505050151561174157600080fd5b856000191661174e61404a565b6000191614151561186957600073ffffffffffffffffffffffffffffffffffffffff16600860009054906101000a900473ffffffffffffffffffffffffffffffffffffffff1673ffffffffffffffffffffffffffffffffffffffff1663b12e4410886040518263ffffffff167c0100000000000000000000000000000000000000000000000000000000028152600401808260001916600019168152602001915050602060405180830381600087803b15801561180a57600080fd5b505af115801561181e573d6000803e3d6000fd5b505050506040513d602081101561183457600080fd5b810190808051906020019092919050505073ffffffffffffffffffffffffffffffffffffffff161415151561186857600080fd5b5b611871613820565b50935061187e8686612b02565b92506118b183600060058110151561189257fe5b60200201518460016005811015156118a657fe5b602002015188613116565b91506118bd8287614072565b6118f983836013878154811015156118d157fe5b906000526020600020906005020160020160009054906101000a900463ffffffff1689614470565b6119048383886147b2565b3373ffffffffffffffffffffffffffffffffffffffff167f347f5f0051b895093800553e6e78ef332849e2552639a4f5ffe66535788ae07884600060058110151561194b57fe5b602002015185600160058110151561195f57fe5b602002015186600360058110151561197357fe5b602002015160405180848152602001838152602001828152602001935050505060405180910390a2600454811415156119ab57600080fd5b505050505050565b6000601073__PaymentMethods________________________6377df08569091846040518363ffffffff167c01000000000000000000000000000000000000000000000000000000000281526004018083815260200182600019166000191681526020019250505060206040518083038186803b158015611a3357600080fd5b505af4158015611a47573d6000803e3d6000fd5b505050506040513d6020811015611a5d57600080fd5b81019080805190602001909291905050509050919050565b600660009054906101000a900473ffffffffffffffffffffffffffffffffffffffff1681565b80600f8190555050565b60008060006014805490501480611ac15750611abf613012565b155b15611acb57611adb565b6001905060016014805490500391505b9091565b611ae881614cd9565b50565b6000600560009054906101000a900473ffffffffffffffffffffffffffffffffffffffff1673ffffffffffffffffffffffffffffffffffffffff1663a9059cbb84846040518363ffffffff167c0100000000000000000000000000000000000000000000000000000000028152600401808373ffffffffffffffffffffffffffffffffffffffff1673ffffffffffffffffffffffffffffffffffffffff16815260200182815260200192505050602060405180830381600087803b158015611bb257600080fd5b505af1158015611bc6573d6000803e3d6000fd5b505050506040513d6020811015611bdc57600080fd5b8101908080519060200190929190505050905092915050565b600080600080611c03613820565b92509250811515611c1357611d6d565b601383815481101515611c2257fe5b9060005260206000209060050201905073__PurchaseProcessing____________________63b8005df28683600301846004016040518463ffffffff167c01000000000000000000000000000000000000000000000000000000000281526004018084815260200180602001806020018381038352858181548152602001915080548015611ccf57602002820191906000526020600020905b815481526020019060010190808311611cbb575b50508381038252848181548152602001915080548015611d0e57602002820191906000526020600020905b815481526020019060010190808311611cfa575b50509550505050505060206040518083038186803b158015611d2f57600080fd5b505af4158015611d43573d6000803e3d6000fd5b505050506040513d6020811015611d5957600080fd5b810190808051906020019092919050505093505b505050919050565b600360009054906101000a900473ffffffffffffffffffffffffffffffffffffffff1673ffffffffffffffffffffffffffffffffffffffff163373ffffffffffffffffffffffffffffffffffffffff16141515611dd157600080fd5b600073ffffffffffffffffffffffffffffffffffffffff168173ffffffffffffffffffffffffffffffffffffffff1614151515611e0d57600080fd5b80600360006101000a81548173ffffffffffffffffffffffffffffffffffffffff021916908373ffffffffffffffffffffffffffffffffffffffff1602179055507f4101e71e974f68df5e9730cc223280b41654676bbb052cdcc735c3337e64d2d9600360009054906101000a900473ffffffffffffffffffffffffffffffffffffffff16604051808273ffffffffffffffffffffffffffffffffffffffff1673ffffffffffffffffffffffffffffffffffffffff16815260200191505060405180910390a150565b600080600080606080601487815481101515611eee57fe5b906000526020600020906005020160000160009054906101000a900463ffffffff16601488815481101515611f1f57fe5b906000526020600020906005020160010154601489815481101515611f4057fe5b906000526020600020906005020160020160009054906101000a900463ffffffff1660148a815481101515611f7157fe5b906000526020600020906005020160020160049054906101000a900463ffffffff1660148b815481101515611fa257fe5b906000526020600020906005020160030160148c815481101515611fc257fe5b9060005260206000209060050201600401818054600181600116156101000203166002900480601f0160208091040260200160405190810160405280929190818152602001828054600181600116156101000203166002900480156120685780601f1061203d57610100808354040283529160200191612068565b820191906000526020600020905b81548152906001019060200180831161204b57829003601f168201915b50505050509150808054600181600116156101000203166002900480601f0160208091040260200160405190810160405280929190818152602001828054600181600116156101000203166002900480156121045780601f106120d957610100808354040283529160200191612104565b820191906000526020600020905b8154815290600101906020018083116120e757829003601f168201915b5050505050905095509550955095509550955091939550919395565b6000612136826000614d3390919063ffffffff16565b9050919050565b60008060126000846000191660001916815260200190815260200160002060000160009054906101000a900460ff166012600085600019166000191681526020019081526020016000206001015491509150915091565b600f5481565b6000806000806060806013878154811015156121b257fe5b906000526020600020906005020160000160009054906101000a900463ffffffff166013888154811015156121e357fe5b906000526020600020906005020160000160049054906101000a900463ffffffff1660138981548110151561221457fe5b90600052602060002090600502016001015460138a81548110151561223557fe5b906000526020600020906005020160020160009054906101000a900463ffffffff1660138b81548110151561226657fe5b906000526020600020906005020160030160138c81548110151561228657fe5b9060005260206000209060050201600401818054806020026020016040519081016040528092919081815260200182805480156122e257602002820191906000526020600020905b8154815260200190600101908083116122ce575b505050505091508080548060200260200160405190810160405280929190818152602001828054801561233457602002820191906000526020600020905b815481526020019060010190808311612320575b5050505050905095509550955095509550955091939550919395565b600b5481565b6000612360613012565b151561236b57600080fd5b600560009054906101000a900473ffffffffffffffffffffffffffffffffffffffff1673ffffffffffffffffffffffffffffffffffffffff166370a08231306040518263ffffffff167c0100000000000000000000000000000000000000000000000000000000028152600401808273ffffffffffffffffffffffffffffffffffffffff1673ffffffffffffffffffffffffffffffffffffffff168152602001915050602060405180830381600087803b15801561242857600080fd5b505af115801561243c573d6000803e3d6000fd5b505050506040513d602081101561245257600080fd5b81019080805190602001909291905050509050600560009054906101000a900473ffffffffffffffffffffffffffffffffffffffff1673ffffffffffffffffffffffffffffffffffffffff1663a9059cbb33836040518363ffffffff167c0100000000000000000000000000000000000000000000000000000000028152600401808373ffffffffffffffffffffffffffffffffffffffff1673ffffffffffffffffffffffffffffffffffffffff16815260200182815260200192505050602060405180830381600087803b15801561252a57600080fd5b505af115801561253e573d6000803e3d6000fd5b505050506040513d602081101561255457600080fd5b8101908080519060200190929190505050151561257057600080fd5b3373ffffffffffffffffffffffffffffffffffffffff167f26ffb867a6b19bc0240d4e732ed6cfb0f0b6d93143a99cfb24ba5873308861f8826040518082815260200191505060405180910390a250565b6000601480549050905090565b6125d781614dc7565b50565b6000600d60149054906101000a900460ff16905090565b600060126000836000191660001916815260200190815260200160002060000160009054906101000a900460ff161561264a57601260008360001916600019168152602001908152602001600020600101549050612650565b600a5490505b919050565b6000600560009054906101000a900473ffffffffffffffffffffffffffffffffffffffff16905090565b600860009054906101000a900473ffffffffffffffffffffffffffffffffffffffff1681565b80600e90805190602001906126bb929190615dd9565b5050565b80600d60146101000a81548160ff021916908360ff16021790555050565b60025481565b6060601073__PaymentMethods________________________633b3d1a2290916040518263ffffffff167c01000000000000000000000000000000000000000000000000000000000281526004018082815260200191505060006040518083038186803b15801561275357600080fd5b505af4158015612767573d6000803e3d6000fd5b505050506040513d6000823e3d601f19601f82011682018060405250602081101561279157600080fd5b8101908080516401000000008111156127a957600080fd5b828101905060208101848111156127bf57600080fd5b81518560208202830111640100000000821117156127dc57600080fd5b5050929190505050905090565b600c60009054906101000a900473ffffffffffffffffffffffffffffffffffffffff1681565b60008061281a613820565b9150508091505090565b8073ffffffffffffffffffffffffffffffffffffffff166108fc3073ffffffffffffffffffffffffffffffffffffffff16319081150290604051600060405180830381858888f19350505050158015612881573d6000803e3d6000fd5b5050565b8073__Percent_______________________________63520b006690916040518263ffffffff167c01000000000000000000000000000000000000000000000000000000000281526004018082815260200191505060206040518083038186803b1580156128f257600080fd5b505af4158015612906573d6000803e3d6000fd5b505050506040513d602081101561291c57600080fd5b810190808051906020019092919050505080156129d2575073__Percent_______________________________63d49d51816040518163ffffffff167c010000000000000000000000000000000000000000000000000000000002815260040160206040518083038186803b15801561299457600080fd5b505af41580156129a8573d6000803e3d6000fd5b505050506040513d60208110156129be57600080fd5b810190808051906020019092919050505081105b15156129dd57600080fd5b8160126000856000191660001916815260200190815260200160002060000160006101000a81548160ff0219169083151502179055508060126000856000191660001916815260200190815260200160002060010181905550505050565b612a4481614e21565b50565b6000601380549050905090565b600d60149054906101000a900460ff1681565b600d60009054906101000a900473ffffffffffffffffffffffffffffffffffffffff1681565b601381815481101515612a9c57fe5b90600052602060002090600502016000915090508060000160009054906101000a900463ffffffff16908060000160049054906101000a900463ffffffff16908060010154908060020160009054906101000a900463ffffffff16905084565b600a5481565b612b0a615d94565b600080612b15615d94565b601073__PaymentMethods________________________6377df08569091886040518363ffffffff167c01000000000000000000000000000000000000000000000000000000000281526004018083815260200182600019166000191681526020019250505060206040518083038186803b158015612b9357600080fd5b505af4158015612ba7573d6000803e3d6000fd5b505050506040513d6020811015612bbd57600080fd5b81019080805190602001909291905050501515612bd957600080fd5b612be1613820565b92509250811515612bf157612f2c565b8560001916612bfe61404a565b60001916141515612ce957600860009054906101000a900473ffffffffffffffffffffffffffffffffffffffff1673ffffffffffffffffffffffffffffffffffffffff1663cfec719f876040518263ffffffff167c0100000000000000000000000000000000000000000000000000000000028152600401808260001916600019168152602001915050602060405180830381600087803b158015612ca257600080fd5b505af1158015612cb6573d6000803e3d6000fd5b505050506040513d6020811015612ccc57600080fd5b81019080805190602001909291905050501515612ce857612f2c565b5b612cf286614e7b565b905073__PurchaseProcessing____________________6391bfca318787601387815481101515612d1f57fe5b906000526020600020906005020160010154601388815481101515612d4057fe5b9060005260206000209060050201600301601389815481101515612d6057fe5b9060005260206000209060050201600401876000600581101515612d8057fe5b6020020151886001600581101515612d9457fe5b6020020151896002600581101515612da857fe5b60200201518a6003600581101515612dbc57fe5b60200201518b6004600581101515612dd057fe5b60200201516040518b63ffffffff167c0100000000000000000000000000000000000000000000000000000000028152600401808b600019166000191681526020018a8152602001898152602001806020018060200188815260200187815260200186815260200185815260200184815260200183810383528a8181548152602001915080548015612e8157602002820191906000526020600020905b815481526020019060010190808311612e6d575b50508381038252898181548152602001915080548015612ec057602002820191906000526020600020905b815481526020019060010190808311612eac575b50509c5050505050505050505050505060a06040518083038186803b158015612ee857600080fd5b505af4158015612efc573d6000803e3d6000fd5b505050506040513d601f19601f8201168201806040525060a0811015612f2157600080fd5b810190809190505093505b50505092915050565b612f3e33614cd9565b565b6000600760009054906101000a900473ffffffffffffffffffffffffffffffffffffffff16905090565b6060600e8054600181600116156101000203166002900480601f0160208091040260200160405190810160405280929190818152602001828054600181600116156101000203166002900480156130025780601f10612fd757610100808354040283529160200191613002565b820191906000526020600020905b815481529060010190602001808311612fe557829003601f168201915b5050505050905090565b60095481565b6000806013805490501480613064575042601360016013805490500381548110151561303a57fe5b906000526020600020906005020160000160049054906101000a900463ffffffff1663ffffffff16105b905090565b60008060138054905011151561307e57600080fd5b601360016013805490500381548110151561309557fe5b906000526020600020906005020160000160049054906101000a900463ffffffff16905090565b600760009054906101000a900473ffffffffffffffffffffffffffffffffffffffff1681565b6000600360009054906101000a900473ffffffffffffffffffffffffffffffffffffffff16905090565b80600b8190555050565b61311e615db7565b601073__PaymentMethods________________________6377df08569091846040518363ffffffff167c01000000000000000000000000000000000000000000000000000000000281526004018083815260200182600019166000191681526020019250505060206040518083038186803b15801561319c57600080fd5b505af41580156131b0573d6000803e3d6000fd5b505050506040513d60208110156131c657600080fd5b810190808051906020019092919050505015156131e257600080fd5b73__PurchaseProcessing____________________636cd5c0568585600b5461320a876125f1565b6040518563ffffffff167c010000000000000000000000000000000000000000000000000000000002815260040180858152602001848152602001838152602001828152602001945050505050604080518083038186803b15801561326e57600080fd5b505af4158015613282573d6000803e3d6000fd5b505050506040513d601f19601f8201168201806040525060408110156132a757600080fd5b810190809190505090509392505050565b6132c133615326565b565b6132cc81615326565b50565b6000600f54905090565b600080601380549050111561332e5742601360008154811015156132f957fe5b906000526020600020906005020160000160009054906101000a900463ffffffff1663ffffffff1611151561332d57600080fd5b5b60008d8d90501415151561334157600080fd5b7fffffffffffffffffffffffffffffffffffffffffffffffffffffffffffffffff60ff168d8d90501115151561337657600080fd5b7fffffffffffffffffffffffffffffffffffffffffffffffffffffffffffffffff60ff1689899050111515156133ab57600080fd5b6002878790508115156133ba57fe5b04898990501415156133cb57600080fd5b6002858590508115156133da57fe5b0489899050111515156133ec57600080fd5b600083839050141515156133ff57600080fd5b600090505b8282905081101561351357600860009054906101000a900473ffffffffffffffffffffffffffffffffffffffff1673ffffffffffffffffffffffffffffffffffffffff16637d20abf8848484818110151561345b57fe5b90506020020135600019166040518263ffffffff167c0100000000000000000000000000000000000000000000000000000000028152600401808260001916600019168152602001915050602060405180830381600087803b1580156134c057600080fd5b505af11580156134d4573d6000803e3d6000fd5b505050506040513d60208110156134ea57600080fd5b8101908080519060200190929190505050151561350657600080fd5b8080600101915050613404565b6135b78d8d808060200260200160405190810160405280939291908181526020016000905b8282101561357d57848483905060c002016006806020026040519081016040528092919082600660200280828437820191505050505081526020019060010190613538565b50505050508c8c80806020026020016040519081016040528093929190818152602001838360200280828437820191505050505050615380565b61368e8989808060200260200160405190810160405280939291908181526020016000905b828210156136215784848390506080020160048060200260405190810160405280929190826004602002808284378201915050505050815260200190600101906135dc565b505050505088888080602002602001604051908101604052809392919081815260200183836020028082843782019150505050505087878080601f0160208091040260200160405190810160405280939291908181526020018383808284378201915050505050506154f2565b601073__PaymentMethods________________________63f24950e2909185856040518463ffffffff167c010000000000000000000000000000000000000000000000000000000002815260040180848152602001806020018281038252848482818152602001925060200280828437820191505094505050505060006040518083038186803b15801561372157600080fd5b505af4158015613735573d6000803e3d6000fd5b505050507f072792b04aecd99b2250bc76fb25f9bca793c3b7383cb4c7255a7a01e8f5a12e60405160405180910390a150505050505050505050505050565b60008060006014805490501480613790575061378e613012565b155b1561379a576137ff565b600190505b600160148054905003821080156137ec57506014828154811015156137c057fe5b906000526020600020906005020160020160049054906101000a900463ffffffff1663ffffffff164210155b156137fe57818060010192505061379f565b5b9091565b6000613819826001614d3390919063ffffffff16565b9050919050565b600080600080600091505b6013805490508210156138b85760138281548110151561384757fe5b90600052602060002090600502019050428160000160009054906101000a900463ffffffff1663ffffffff161115801561389a5750428160000160049054906101000a900463ffffffff1663ffffffff16115b156138ab57816001935093506138c3565b818060010192505061382b565b600080819150935093505b50509091565b600e8054600181600116156101000203166002900480601f01602080910402602001604051908101604052809291908181526020018280546001816001161561010002031660029004801561395f5780601f106139345761010080835404028352916020019161395f565b820191906000526020600020905b81548152906001019060200180831161394257829003601f168201915b505050505081565b60148181548110151561397657fe5b90600052602060002090600502016000915090508060000160009054906101000a900463ffffffff16908060010154908060020160009054906101000a900463ffffffff16908060020160049054906101000a900463ffffffff1690806003018054600181600116156101000203166002900480601f016020809104026020016040519081016040528092919081815260200182805460018160011615610100020316600290048015613a6a5780601f10613a3f57610100808354040283529160200191613a6a565b820191906000526020600020905b815481529060010190602001808311613a4d57829003601f168201915b505050505090806004018054600181600116156101000203166002900480601f016020809104026020016040519081016040528092919081815260200182805460018160011615610100020316600290048015613b085780601f10613add57610100808354040283529160200191613b08565b820191906000526020600020905b815481529060010190602001808311613aeb57829003601f168201915b5050505050905086565b600360009054906101000a900473ffffffffffffffffffffffffffffffffffffffff1673ffffffffffffffffffffffffffffffffffffffff163373ffffffffffffffffffffffffffffffffffffffff16141515613b6e57600080fd5b60006013805490501115613bc2574260136000815481101515613b8d57fe5b906000526020600020906005020160000160009054906101000a900463ffffffff1663ffffffff16111515613bc157600080fd5b5b613bee81600c60009054906101000a900473ffffffffffffffffffffffffffffffffffffffff166156d2565b50565b613bf9615e59565b600080613c04615d94565b601073__PaymentMethods________________________6377df08569091886040518363ffffffff167c01000000000000000000000000000000000000000000000000000000000281526004018083815260200182600019166000191681526020019250505060206040518083038186803b158015613c8257600080fd5b505af4158015613c96573d6000803e3d6000fd5b505050506040513d6020811015613cac57600080fd5b81019080805190602001909291905050501515613cc857600080fd5b613cd0613820565b92509250811515613ce05761401b565b8560001916613ced61404a565b60001916141515613dd857600860009054906101000a900473ffffffffffffffffffffffffffffffffffffffff1673ffffffffffffffffffffffffffffffffffffffff1663cfec719f876040518263ffffffff167c0100000000000000000000000000000000000000000000000000000000028152600401808260001916600019168152602001915050602060405180830381600087803b158015613d9157600080fd5b505af1158015613da5573d6000803e3d6000fd5b505050506040513d6020811015613dbb57600080fd5b81019080805190602001909291905050501515613dd75761401b565b5b613de186615769565b905073__PurchaseProcessing____________________6391dab4228787601387815481101515613e0e57fe5b906000526020600020906005020160010154601388815481101515613e2f57fe5b9060005260206000209060050201600301601389815481101515613e4f57fe5b9060005260206000209060050201600401876000600581101515613e6f57fe5b6020020151886001600581101515613e8357fe5b6020020151896002600581101515613e9757fe5b60200201518a6003600581101515613eab57fe5b60200201518b6004600581101515613ebf57fe5b60200201516040518b63ffffffff167c0100000000000000000000000000000000000000000000000000000000028152600401808b600019166000191681526020018a8152602001898152602001806020018060200188815260200187815260200186815260200185815260200184815260200183810383528a8181548152602001915080548015613f7057602002820191906000526020600020905b815481526020019060010190808311613f5c575b50508381038252898181548152602001915080548015613faf57602002820191906000526020600020905b815481526020019060010190808311613f9b575b50509c5050505050505050505050505060806040518083038186803b158015613fd757600080fd5b505af4158015613feb573d6000803e3d6000fd5b505050506040513d601f19601f82011682018060405250608081101561401057600080fd5b810190809190505093505b50505092915050565b600560009054906101000a900473ffffffffffffffffffffffffffffffffffffffff1681565b60007f4554480000000000000000000000000000000000000000000000000000000000905090565b73__PurchaseProcessing____________________633676737c8383600860009054906101000a900473ffffffffffffffffffffffffffffffffffffffff1673ffffffffffffffffffffffffffffffffffffffff1663cfec719f866040518263ffffffff167c0100000000000000000000000000000000000000000000000000000000028152600401808260001916600019168152602001915050602060405180830381600087803b15801561412757600080fd5b505af115801561413b573d6000803e3d6000fd5b505050506040513d602081101561415157600080fd5b810190808051906020019092919050505061416d576000614242565b600860009054906101000a900473ffffffffffffffffffffffffffffffffffffffff1673ffffffffffffffffffffffffffffffffffffffff1663b12e4410866040518263ffffffff167c0100000000000000000000000000000000000000000000000000000000028152600401808260001916600019168152602001915050602060405180830381600087803b15801561420657600080fd5b505af115801561421a573d6000803e3d6000fd5b505050506040513d602081101561423057600080fd5b81019080805190602001909291905050505b600560009054906101000a900473ffffffffffffffffffffffffffffffffffffffff16600660009054906101000a900473ffffffffffffffffffffffffffffffffffffffff16600d60009054906101000a900473ffffffffffffffffffffffffffffffffffffffff16600c60009054906101000a900473ffffffffffffffffffffffffffffffffffffffff166040518863ffffffff167c01000000000000000000000000000000000000000000000000000000000281526004018088600260200280838360005b83811015614324578082015181840152602081019050614309565b5050505090500187600019166000191681526020018673ffffffffffffffffffffffffffffffffffffffff1673ffffffffffffffffffffffffffffffffffffffff1681526020018573ffffffffffffffffffffffffffffffffffffffff1673ffffffffffffffffffffffffffffffffffffffff1681526020018473ffffffffffffffffffffffffffffffffffffffff1673ffffffffffffffffffffffffffffffffffffffff1681526020018373ffffffffffffffffffffffffffffffffffffffff1673ffffffffffffffffffffffffffffffffffffffff1681526020018273ffffffffffffffffffffffffffffffffffffffff1673ffffffffffffffffffffffffffffffffffffffff16815260200197505050505050505060006040518083038186803b15801561445457600080fd5b505af4158015614468573d6000803e3d6000fd5b505050505050565b73__PurchaseProcessing____________________634bb1e9ff85858585600860009054906101000a900473ffffffffffffffffffffffffffffffffffffffff1673ffffffffffffffffffffffffffffffffffffffff1663cfec719f886040518263ffffffff167c0100000000000000000000000000000000000000000000000000000000028152600401808260001916600019168152602001915050602060405180830381600087803b15801561452757600080fd5b505af115801561453b573d6000803e3d6000fd5b505050506040513d602081101561455157600080fd5b810190808051906020019092919050505061456d576000614642565b600860009054906101000a900473ffffffffffffffffffffffffffffffffffffffff1673ffffffffffffffffffffffffffffffffffffffff1663b12e4410886040518263ffffffff167c0100000000000000000000000000000000000000000000000000000000028152600401808260001916600019168152602001915050602060405180830381600087803b15801561460657600080fd5b505af115801561461a573d6000803e3d6000fd5b505050506040513d602081101561463057600080fd5b81019080805190602001909291905050505b600560009054906101000a900473ffffffffffffffffffffffffffffffffffffffff166040518763ffffffff167c01000000000000000000000000000000000000000000000000000000000281526004018087600560200280838360005b838110156146bb5780820151818401526020810190506146a0565b5050505090500186600260200280838360005b838110156146e95780820151818401526020810190506146ce565b505050509050018563ffffffff1663ffffffff16815260200184600019166000191681526020018373ffffffffffffffffffffffffffffffffffffffff1673ffffffffffffffffffffffffffffffffffffffff1681526020018273ffffffffffffffffffffffffffffffffffffffff1673ffffffffffffffffffffffffffffffffffffffff168152602001965050505050505060006040518083038186803b15801561479457600080fd5b505af41580156147a8573d6000803e3d6000fd5b5050505050505050565b6147ba61404a565b600019168160001916141561496257600760009054906101000a900473ffffffffffffffffffffffffffffffffffffffff1673ffffffffffffffffffffffffffffffffffffffff1663d0baf2f561484084600160028110151561481957fe5b602002015186600160058110151561482d57fe5b6020020151615c1490919063ffffffff16565b3386600060058110151561485057fe5b60200201518561488f88600160028110151561486857fe5b60200201518a600160058110151561487c57fe5b6020020151615c1490919063ffffffff16565b89600260058110151561489e57fe5b60200201516040518763ffffffff167c0100000000000000000000000000000000000000000000000000000000028152600401808673ffffffffffffffffffffffffffffffffffffffff1673ffffffffffffffffffffffffffffffffffffffff1681526020018581526020018460001916600019168152602001838152602001828152602001955050505050506000604051808303818588803b15801561494457600080fd5b505af1158015614958573d6000803e3d6000fd5b5050505050614cd4565b600860009054906101000a900473ffffffffffffffffffffffffffffffffffffffff1673ffffffffffffffffffffffffffffffffffffffff1663b12e4410826040518263ffffffff167c0100000000000000000000000000000000000000000000000000000000028152600401808260001916600019168152602001915050602060405180830381600087803b1580156149fb57600080fd5b505af1158015614a0f573d6000803e3d6000fd5b505050506040513d6020811015614a2557600080fd5b810190808051906020019092919050505073ffffffffffffffffffffffffffffffffffffffff1663a9059cbb600760009054906101000a900473ffffffffffffffffffffffffffffffffffffffff16614aad856001600281101515614a8657fe5b6020020151876001600581101515614a9a57fe5b6020020151615c1490919063ffffffff16565b6040518363ffffffff167c0100000000000000000000000000000000000000000000000000000000028152600401808373ffffffffffffffffffffffffffffffffffffffff1673ffffffffffffffffffffffffffffffffffffffff16815260200182815260200192505050602060405180830381600087803b158015614b3257600080fd5b505af1158015614b46573d6000803e3d6000fd5b505050506040513d6020811015614b5c57600080fd5b81019080805190602001909291905050501515614b7857600080fd5b600760009054906101000a900473ffffffffffffffffffffffffffffffffffffffff1673ffffffffffffffffffffffffffffffffffffffff1663d0baf2f533856000600581101515614bc657fe5b602002015184614c05876001600281101515614bde57fe5b6020020151896001600581101515614bf257fe5b6020020151615c1490919063ffffffff16565b886002600581101515614c1457fe5b60200201516040518663ffffffff167c0100000000000000000000000000000000000000000000000000000000028152600401808673ffffffffffffffffffffffffffffffffffffffff1673ffffffffffffffffffffffffffffffffffffffff168152602001858152602001846000191660001916815260200183815260200182815260200195505050505050600060405180830381600087803b158015614cbb57600080fd5b505af1158015614ccf573d6000803e3d6000fd5b505050505b505050565b614ced816000615c3590919063ffffffff16565b8073ffffffffffffffffffffffffffffffffffffffff167fa3b62bc36326052d97ea62d63c3d60308ed4c3ea8ac079dd8499f1e9c4f80c0f60405160405180910390a250565b60008073ffffffffffffffffffffffffffffffffffffffff168273ffffffffffffffffffffffffffffffffffffffff1614151515614d7057600080fd5b8260000160008373ffffffffffffffffffffffffffffffffffffffff1673ffffffffffffffffffffffffffffffffffffffff16815260200190815260200160002060009054906101000a900460ff16905092915050565b614ddb816001615ce490919063ffffffff16565b8073ffffffffffffffffffffffffffffffffffffffff167f941e31c3e651de34a7fcf0132d9d02c2df9377e6b5f932bec5daf6353c94f90e60405160405180910390a250565b614e35816000615ce490919063ffffffff16565b8073ffffffffffffffffffffffffffffffffffffffff167f44d6d25963f097ad14f29f06854a01f575648a1ef82f30e562ccd3889717e33960405160405180910390a250565b614e83615d94565b600860009054906101000a900473ffffffffffffffffffffffffffffffffffffffff1673ffffffffffffffffffffffffffffffffffffffff16638eaa6ac0836040518263ffffffff167c0100000000000000000000000000000000000000000000000000000000028152600401808260001916600019168152602001915050602060405180830381600087803b158015614f1c57600080fd5b505af1158015614f30573d6000803e3d6000fd5b505050506040513d6020811015614f4657600080fd5b8101908080519060200190929190505050816000600581101515614f6657fe5b602002018181525050600954816001600581101515614f8157fe5b602002018181525050600560009054906101000a900473ffffffffffffffffffffffffffffffffffffffff1673ffffffffffffffffffffffffffffffffffffffff1663313ce5676040518163ffffffff167c0100000000000000000000000000000000000000000000000000000000028152600401602060405180830381600087803b15801561501057600080fd5b505af1158015615024573d6000803e3d6000fd5b505050506040513d602081101561503a57600080fd5b810190808051906020019092919050505060ff1681600260058110151561505d57fe5b602002018181525050816000191661507361404a565b60001916146151f657600860009054906101000a900473ffffffffffffffffffffffffffffffffffffffff1673ffffffffffffffffffffffffffffffffffffffff1663b12e4410836040518263ffffffff167c0100000000000000000000000000000000000000000000000000000000028152600401808260001916600019168152602001915050602060405180830381600087803b15801561511557600080fd5b505af1158015615129573d6000803e3d6000fd5b505050506040513d602081101561513f57600080fd5b810190808051906020019092919050505073ffffffffffffffffffffffffffffffffffffffff1663313ce5676040518163ffffffff167c0100000000000000000000000000000000000000000000000000000000028152600401602060405180830381600087803b1580156151b357600080fd5b505af11580156151c7573d6000803e3d6000fd5b505050506040513d60208110156151dd57600080fd5b810190808051906020019092919050505060ff166151f9565b60125b81600360058110151561520857fe5b602002018181525050600560009054906101000a900473ffffffffffffffffffffffffffffffffffffffff1673ffffffffffffffffffffffffffffffffffffffff166370a08231306040518263ffffffff167c0100000000000000000000000000000000000000000000000000000000028152600401808273ffffffffffffffffffffffffffffffffffffffff1673ffffffffffffffffffffffffffffffffffffffff168152602001915050602060405180830381600087803b1580156152ce57600080fd5b505af11580156152e2573d6000803e3d6000fd5b505050506040513d60208110156152f857600080fd5b810190808051906020019092919050505081600460058110151561531857fe5b602002018181525050919050565b61533a816001615c3590919063ffffffff16565b8073ffffffffffffffffffffffffffffffffffffffff167fa3bfdef3d8149bacf15b7b64199fca8228c0fd4f8fcdd11cc7871829baf319c360405160405180910390a250565b73__Crowdsale_____________________________63ae1c60546013601485856040518563ffffffff167c01000000000000000000000000000000000000000000000000000000000281526004018085815260200184815260200180602001806020018381038352858181518152602001915080516000925b8184101561544457828490602001906020020151600660200280838360005b83811015615433578082015181840152602081019050615418565b5050505090500192600101926153f9565b92505050838103825284818151815260200191508051906020019060200280838360005b83811015615483578082015181840152602081019050615468565b50505050905001965050505050505060006040518083038186803b1580156154aa57600080fd5b505af41580156154be573d6000803e3d6000fd5b505050507f743961f4e677d1146fbf85d75565b1c5474fd083eb166f8b9595cf5d01a4d6e660405160405180910390a15050565b73__Crowdsale_____________________________63e1231f1e601360148686866040518663ffffffff167c0100000000000000000000000000000000000000000000000000000000028152600401808681526020018581526020018060200180602001806020018481038452878181518152602001915080516000925b818410156155bb57828490602001906020020151600460200280838360005b838110156155aa57808201518184015260208101905061558f565b505050509050019260010192615570565b92505050848103835286818151815260200191508051906020019060200280838360005b838110156155fa5780820151818401526020810190506155df565b50505050905001848103825285818151815260200191508051906020019080838360005b8381101561563957808201518184015260208101905061561e565b50505050905090810190601f1680156156665780820380516001836020036101000a031916815260200191505b509850505050505050505060006040518083038186803b15801561568957600080fd5b505af415801561569d573d6000803e3d6000fd5b505050507f56d9a2e016027a3725bf162ef2779c8b28d4dbec97c679cfba02dbb31a34c7ca60405160405180910390a1505050565b6000821115156156e157600080fd5b600073ffffffffffffffffffffffffffffffffffffffff168173ffffffffffffffffffffffffffffffffffffffff161415151561571d57600080fd5b8160098190555080600c60006101000a81548173ffffffffffffffffffffffffffffffffffffffff021916908373ffffffffffffffffffffffffffffffffffffffff1602179055505050565b615771615d94565b600860009054906101000a900473ffffffffffffffffffffffffffffffffffffffff1673ffffffffffffffffffffffffffffffffffffffff16638eaa6ac0836040518263ffffffff167c0100000000000000000000000000000000000000000000000000000000028152600401808260001916600019168152602001915050602060405180830381600087803b15801561580a57600080fd5b505af115801561581e573d6000803e3d6000fd5b505050506040513d602081101561583457600080fd5b810190808051906020019092919050505081600060058110151561585457fe5b60200201818152505060095481600160058110151561586f57fe5b602002018181525050600560009054906101000a900473ffffffffffffffffffffffffffffffffffffffff1673ffffffffffffffffffffffffffffffffffffffff1663313ce5676040518163ffffffff167c0100000000000000000000000000000000000000000000000000000000028152600401602060405180830381600087803b1580156158fe57600080fd5b505af1158015615912573d6000803e3d6000fd5b505050506040513d602081101561592857600080fd5b810190808051906020019092919050505060ff1681600260058110151561594b57fe5b602002018181525050816000191661596161404a565b6000191614615ae457600860009054906101000a900473ffffffffffffffffffffffffffffffffffffffff1673ffffffffffffffffffffffffffffffffffffffff1663b12e4410836040518263ffffffff167c0100000000000000000000000000000000000000000000000000000000028152600401808260001916600019168152602001915050602060405180830381600087803b158015615a0357600080fd5b505af1158015615a17573d6000803e3d6000fd5b505050506040513d6020811015615a2d57600080fd5b810190808051906020019092919050505073ffffffffffffffffffffffffffffffffffffffff1663313ce5676040518163ffffffff167c0100000000000000000000000000000000000000000000000000000000028152600401602060405180830381600087803b158015615aa157600080fd5b505af1158015615ab5573d6000803e3d6000fd5b505050506040513d6020811015615acb57600080fd5b810190808051906020019092919050505060ff16615ae7565b60125b816003600581101515615af657fe5b602002018181525050600560009054906101000a900473ffffffffffffffffffffffffffffffffffffffff1673ffffffffffffffffffffffffffffffffffffffff166370a08231306040518263ffffffff167c0100000000000000000000000000000000000000000000000000000000028152600401808273ffffffffffffffffffffffffffffffffffffffff1673ffffffffffffffffffffffffffffffffffffffff168152602001915050602060405180830381600087803b158015615bbc57600080fd5b505af1158015615bd0573d6000803e3d6000fd5b505050506040513d6020811015615be657600080fd5b8101908080519060200190929190505050816004600581101515615c0657fe5b602002018181525050919050565b600080838311151515615c2657600080fd5b82840390508091505092915050565b600073ffffffffffffffffffffffffffffffffffffffff168173ffffffffffffffffffffffffffffffffffffffff1614151515615c7157600080fd5b615c7b8282614d33565b1515615c8657600080fd5b60008260000160008373ffffffffffffffffffffffffffffffffffffffff1673ffffffffffffffffffffffffffffffffffffffff16815260200190815260200160002060006101000a81548160ff0219169083151502179055505050565b600073ffffffffffffffffffffffffffffffffffffffff168173ffffffffffffffffffffffffffffffffffffffff1614151515615d2057600080fd5b615d2a8282614d33565b151515615d3657600080fd5b60018260000160008373ffffffffffffffffffffffffffffffffffffffff1673ffffffffffffffffffffffffffffffffffffffff16815260200190815260200160002060006101000a81548160ff0219169083151502179055505050565b60a060405190810160405280600590602082028038833980820191505090505090565b6040805190810160405280600290602082028038833980820191505090505090565b828054600181600116156101000203166002900490600052602060002090601f016020900481019282601f10615e1a57805160ff1916838001178555615e48565b82800160010185558215615e48579182015b82811115615e47578251825591602001919060010190615e2c565b5b509050615e559190615e7c565b5090565b608060405190810160405280600490602082028038833980820191505090505090565b615e9e91905b80821115615e9a576000816000905550600101615e82565b5090565b905600a165627a7a7230582005ce5a4a7d63f8259e887085ec12c9afc9bc77bbde3c6169609419badc0733450029",
  "source": "pragma solidity 0.4.24;\n\nimport \"../../rates/IRates.sol\";\nimport \"../../crowdsale/W12Crowdsale.sol\";\n\n\ncontract W12CrowdsaleStub is W12Crowdsale {\n    constructor (\n        uint version,\n        address _originToken,\n        address _token,\n        uint _price,\n        address _serviceWallet,\n        address _swap,\n        uint _serviceFee,\n        uint _WTokenSaleFeePercent,\n        IW12Fund _fund,\n        IRates _rates\n    )\n        W12Crowdsale(\n            version,\n            _originToken,\n             _token,\n             _price,\n             _serviceWallet,\n             _swap,\n             _serviceFee,\n            _WTokenSaleFeePercent,\n             _fund,\n            _rates\n        ) public\n    {}\n\n    function _outTokens(address to, uint amount) external returns (bool) {\n        return token.transfer(to, amount);\n    }\n\n    function _outEther(address to) external {\n        return to.transfer(address(this).balance);\n    }\n\n    function _setState(uint _WTokenSaleFeePercent) external {\n        WTokenSaleFeePercent = _WTokenSaleFeePercent;\n    }\n\n    modifier onlyAdmin {\n        _;\n    }\n\n    modifier onlyProjectOwner {\n        _;\n    }\n}\n",
  "sourcePath": "/Users/gauss/_games/w12/Protocol/contracts/mocks/crowdsale/W12CrowdsaleStub.sol",
  "compiler": {
    "name": "solc",
    "version": "0.4.24+commit.e67f0147.Emscripten.clang"
  },
  "schemaVersion": "3.0.16",
  "updatedAt": "2019-10-06T23:01:18.510Z"
}