{
  "contractName": "W12CrowdsaleStub",
  "abi": [
    {
      "constant": false,
      "inputs": [
        {
          "name": "dates",
          "type": "uint32[]"
        },
        {
          "name": "tranchePercents",
          "type": "uint8[]"
        },
        {
          "name": "offsets",
          "type": "uint32[]"
        },
        {
          "name": "namesAndDescriptions",
          "type": "bytes"
        }
      ],
      "name": "setMilestones",
      "outputs": [],
      "payable": false,
      "stateMutability": "nonpayable",
      "type": "function"
    },
    {
      "constant": true,
      "inputs": [
        {
          "name": "stageNumber",
          "type": "uint256"
        }
      ],
      "name": "getStageVolumeBonuses",
      "outputs": [
        {
          "name": "",
          "type": "uint8[]"
        }
      ],
      "payable": false,
      "stateMutability": "view",
      "type": "function"
    },
    {
      "constant": true,
      "inputs": [],
      "name": "originToken",
      "outputs": [
        {
          "name": "",
          "type": "address"
        }
      ],
      "payable": false,
      "stateMutability": "view",
      "type": "function"
    },
    {
      "constant": true,
      "inputs": [
        {
          "name": "value",
          "type": "uint256"
        }
      ],
      "name": "getSaleVolumeBonus",
      "outputs": [
        {
          "name": "bonus",
          "type": "uint256"
        }
      ],
      "payable": false,
      "stateMutability": "view",
      "type": "function"
    },
    {
      "constant": true,
      "inputs": [
        {
          "name": "index",
          "type": "uint256"
        }
      ],
      "name": "getMilestone",
      "outputs": [
        {
          "name": "",
          "type": "uint32"
        },
        {
          "name": "",
          "type": "uint8"
        },
        {
          "name": "",
          "type": "uint32"
        },
        {
          "name": "",
          "type": "uint32"
        },
        {
          "name": "",
          "type": "bytes"
        },
        {
          "name": "",
          "type": "bytes"
        }
      ],
      "payable": false,
      "stateMutability": "view",
      "type": "function"
    },
    {
      "constant": true,
      "inputs": [],
      "name": "getCurrentMilestone",
      "outputs": [
        {
          "name": "",
          "type": "uint32"
        },
        {
          "name": "",
          "type": "uint8"
        },
        {
          "name": "",
          "type": "uint32"
        },
        {
          "name": "",
          "type": "uint32"
        },
        {
          "name": "",
          "type": "bytes"
        },
        {
          "name": "",
          "type": "bytes"
        }
      ],
      "payable": false,
      "stateMutability": "view",
      "type": "function"
    },
    {
      "constant": false,
      "inputs": [
        {
          "name": "dates",
          "type": "uint32[2][]"
        },
        {
          "name": "stage_discounts",
          "type": "uint8[]"
        },
        {
          "name": "stage_vestings",
          "type": "uint32[]"
        }
      ],
      "name": "setStages",
      "outputs": [],
      "payable": false,
      "stateMutability": "nonpayable",
      "type": "function"
    },
    {
      "constant": true,
      "inputs": [],
      "name": "WTokenSaleFeePercent",
      "outputs": [
        {
          "name": "",
          "type": "uint256"
        }
      ],
      "payable": false,
      "stateMutability": "view",
      "type": "function"
    },
    {
      "constant": false,
      "inputs": [],
      "name": "claimRemainingTokens",
      "outputs": [],
      "payable": false,
      "stateMutability": "nonpayable",
      "type": "function"
    },
    {
      "constant": true,
      "inputs": [],
      "name": "milestonesLength",
      "outputs": [
        {
          "name": "",
          "type": "uint256"
        }
      ],
      "payable": false,
      "stateMutability": "view",
      "type": "function"
    },
    {
      "constant": true,
      "inputs": [],
      "name": "getWToken",
      "outputs": [
        {
          "name": "",
          "type": "address"
        }
      ],
      "payable": false,
      "stateMutability": "view",
      "type": "function"
    },
    {
      "constant": false,
      "inputs": [
        {
          "name": "stage",
          "type": "uint256"
        },
        {
          "name": "volumeBoundaries",
          "type": "uint256[]"
        },
        {
          "name": "volumeBonuses",
          "type": "uint8[]"
        }
      ],
      "name": "setStageVolumeBonuses",
      "outputs": [],
      "payable": false,
      "stateMutability": "nonpayable",
      "type": "function"
    },
    {
      "constant": true,
      "inputs": [],
      "name": "serviceWallet",
      "outputs": [
        {
          "name": "",
          "type": "address"
        }
      ],
      "payable": false,
      "stateMutability": "view",
      "type": "function"
    },
    {
      "constant": true,
      "inputs": [],
      "name": "isSaleActive",
      "outputs": [
        {
          "name": "",
          "type": "bool"
        }
      ],
      "payable": false,
      "stateMutability": "view",
      "type": "function"
    },
    {
      "constant": false,
      "inputs": [],
      "name": "renounceOwnership",
      "outputs": [],
      "payable": false,
      "stateMutability": "nonpayable",
      "type": "function"
    },
    {
      "constant": true,
      "inputs": [
        {
          "name": "",
          "type": "uint256"
        }
      ],
      "name": "milestoneDates",
      "outputs": [
        {
          "name": "",
          "type": "uint32"
        }
      ],
      "payable": false,
      "stateMutability": "view",
      "type": "function"
    },
    {
      "constant": true,
      "inputs": [],
      "name": "stagesLength",
      "outputs": [
        {
          "name": "",
          "type": "uint256"
        }
      ],
      "payable": false,
      "stateMutability": "view",
      "type": "function"
    },
    {
      "constant": true,
      "inputs": [],
      "name": "swap",
      "outputs": [
        {
          "name": "",
          "type": "address"
        }
      ],
      "payable": false,
      "stateMutability": "view",
      "type": "function"
    },
    {
      "constant": true,
      "inputs": [
        {
          "name": "",
          "type": "uint256"
        }
      ],
      "name": "stages",
      "outputs": [
        {
          "name": "startDate",
          "type": "uint32"
        },
        {
          "name": "endDate",
          "type": "uint32"
        },
        {
          "name": "discount",
          "type": "uint8"
        },
        {
          "name": "vesting",
          "type": "uint32"
        }
      ],
      "payable": false,
      "stateMutability": "view",
      "type": "function"
    },
    {
      "constant": true,
      "inputs": [],
      "name": "serviceFee",
      "outputs": [
        {
          "name": "",
          "type": "uint256"
        }
      ],
      "payable": false,
      "stateMutability": "view",
      "type": "function"
    },
    {
      "constant": true,
      "inputs": [],
      "name": "owner",
      "outputs": [
        {
          "name": "",
          "type": "address"
        }
      ],
      "payable": false,
      "stateMutability": "view",
      "type": "function"
    },
    {
      "constant": true,
      "inputs": [],
      "name": "getFund",
      "outputs": [
        {
          "name": "",
          "type": "address"
        }
      ],
      "payable": false,
      "stateMutability": "view",
      "type": "function"
    },
    {
      "constant": true,
      "inputs": [],
      "name": "price",
      "outputs": [
        {
          "name": "",
          "type": "uint256"
        }
      ],
      "payable": false,
      "stateMutability": "view",
      "type": "function"
    },
    {
      "constant": true,
      "inputs": [],
      "name": "isEnded",
      "outputs": [
        {
          "name": "",
          "type": "bool"
        }
      ],
      "payable": false,
      "stateMutability": "view",
      "type": "function"
    },
    {
      "constant": true,
      "inputs": [],
      "name": "getEndDate",
      "outputs": [
        {
          "name": "",
          "type": "uint32"
        }
      ],
      "payable": false,
      "stateMutability": "view",
      "type": "function"
    },
    {
      "constant": true,
      "inputs": [],
      "name": "fund",
      "outputs": [
        {
          "name": "",
          "type": "address"
        }
      ],
      "payable": false,
      "stateMutability": "view",
      "type": "function"
    },
    {
      "constant": false,
      "inputs": [],
      "name": "buyTokens",
      "outputs": [],
      "payable": true,
      "stateMutability": "payable",
      "type": "function"
    },
    {
      "constant": true,
      "inputs": [],
      "name": "getCurrentMilestoneIndex",
      "outputs": [
        {
          "name": "index",
          "type": "uint256"
        }
      ],
      "payable": false,
      "stateMutability": "view",
      "type": "function"
    },
    {
      "constant": true,
      "inputs": [],
      "name": "getCurrentStageIndex",
      "outputs": [
        {
          "name": "index",
          "type": "uint256"
        },
        {
          "name": "found",
          "type": "bool"
        }
      ],
      "payable": false,
      "stateMutability": "view",
      "type": "function"
    },
    {
      "constant": true,
      "inputs": [
        {
          "name": "",
          "type": "uint256"
        }
      ],
      "name": "milestones",
      "outputs": [
        {
          "name": "endDate",
          "type": "uint32"
        },
        {
          "name": "tranchePercent",
          "type": "uint8"
        },
        {
          "name": "voteEndDate",
          "type": "uint32"
        },
        {
          "name": "withdrawalWindow",
          "type": "uint32"
        },
        {
          "name": "name",
          "type": "bytes"
        },
        {
          "name": "description",
          "type": "bytes"
        }
      ],
      "payable": false,
      "stateMutability": "view",
      "type": "function"
    },
    {
      "constant": false,
      "inputs": [
        {
          "name": "_price",
          "type": "uint256"
        }
      ],
      "name": "setParameters",
      "outputs": [],
      "payable": false,
      "stateMutability": "nonpayable",
      "type": "function"
    },
    {
      "constant": true,
      "inputs": [
        {
          "name": "stageNumber",
          "type": "uint256"
        }
      ],
      "name": "getStageVolumeBoundaries",
      "outputs": [
        {
          "name": "",
          "type": "uint256[]"
        }
      ],
      "payable": false,
      "stateMutability": "view",
      "type": "function"
    },
    {
      "constant": false,
      "inputs": [
        {
          "name": "_newOwner",
          "type": "address"
        }
      ],
      "name": "transferOwnership",
      "outputs": [],
      "payable": false,
      "stateMutability": "nonpayable",
      "type": "function"
    },
    {
      "constant": true,
      "inputs": [],
      "name": "token",
      "outputs": [
        {
          "name": "",
          "type": "address"
        }
      ],
      "payable": false,
      "stateMutability": "view",
      "type": "function"
    },
    {
      "inputs": [
        {
          "name": "_originToken",
          "type": "address"
        },
        {
          "name": "_token",
          "type": "address"
        },
        {
          "name": "_tokenDecimals",
          "type": "uint256"
        },
        {
          "name": "_price",
          "type": "uint256"
        },
        {
          "name": "_serviceWallet",
          "type": "address"
        },
        {
          "name": "_swap",
          "type": "address"
        },
        {
          "name": "_serviceFee",
          "type": "uint256"
        },
        {
          "name": "_WTokenSaleFeePercent",
          "type": "uint256"
        },
        {
          "name": "_fund",
          "type": "address"
        }
      ],
      "payable": false,
      "stateMutability": "nonpayable",
      "type": "constructor"
    },
    {
      "payable": true,
      "stateMutability": "payable",
      "type": "fallback"
    },
    {
      "anonymous": false,
      "inputs": [
        {
          "indexed": true,
          "name": "buyer",
          "type": "address"
        },
        {
          "indexed": false,
          "name": "amountPaid",
          "type": "uint256"
        },
        {
          "indexed": false,
          "name": "tokensBought",
          "type": "uint256"
        },
        {
          "indexed": false,
          "name": "change",
          "type": "uint256"
        }
      ],
      "name": "TokenPurchase",
      "type": "event"
    },
    {
      "anonymous": false,
      "inputs": [],
      "name": "StagesUpdated",
      "type": "event"
    },
    {
      "anonymous": false,
      "inputs": [],
      "name": "MilestonesSet",
      "type": "event"
    },
    {
      "anonymous": false,
      "inputs": [
        {
          "indexed": false,
          "name": "value",
          "type": "uint256"
        }
      ],
      "name": "debug",
      "type": "event"
    },
    {
      "anonymous": false,
      "inputs": [
        {
          "indexed": true,
          "name": "previousOwner",
          "type": "address"
        }
      ],
      "name": "OwnershipRenounced",
      "type": "event"
    },
    {
      "anonymous": false,
      "inputs": [
        {
          "indexed": true,
          "name": "previousOwner",
          "type": "address"
        },
        {
          "indexed": true,
          "name": "newOwner",
          "type": "address"
        }
      ],
      "name": "OwnershipTransferred",
      "type": "event"
    },
    {
      "constant": false,
      "inputs": [
        {
          "name": "to",
          "type": "address"
        },
        {
          "name": "amount",
          "type": "uint256"
        }
      ],
      "name": "_outTokens",
      "outputs": [
        {
          "name": "",
          "type": "bool"
        }
      ],
      "payable": false,
      "stateMutability": "nonpayable",
      "type": "function"
    },
    {
      "constant": false,
      "inputs": [
        {
          "name": "_WTokenSaleFeePercent",
          "type": "uint256"
        }
      ],
      "name": "_setState",
      "outputs": [],
      "payable": false,
      "stateMutability": "nonpayable",
      "type": "function"
    }
  ],
  "bytecode": "0x6080604052600180553480156200001557600080fd5b506040516101208062004742833981018060405281019080805190602001909291908051906020019092919080519060200190929190805190602001909291908051906020019092919080519060200190929190805190602001909291908051906020019092919080519060200190929190505050888888888888888888336000806101000a81548173ffffffffffffffffffffffffffffffffffffffff021916908373ffffffffffffffffffffffffffffffffffffffff160217905550600073ffffffffffffffffffffffffffffffffffffffff168873ffffffffffffffffffffffffffffffffffffffff16141515156200011057600080fd5b6200012f83620003826401000000000262003e3c176401000000009004565b80156200015a5750606462000158846200039e640100000000026200421f176401000000009004565b105b15156200016657600080fd5b6200018582620003826401000000000262003e3c176401000000009004565b8015620001b057506064620001ae836200039e640100000000026200421f176401000000009004565b105b1515620001bc57600080fd5b600073ffffffffffffffffffffffffffffffffffffffff168173ffffffffffffffffffffffffffffffffffffffff1614151515620001f957600080fd5b600073ffffffffffffffffffffffffffffffffffffffff168473ffffffffffffffffffffffffffffffffffffffff16141515156200023657600080fd5b87600260006101000a81548173ffffffffffffffffffffffffffffffffffffffff021916908373ffffffffffffffffffffffffffffffffffffffff16021790555088600360006101000a81548173ffffffffffffffffffffffffffffffffffffffff021916908373ffffffffffffffffffffffffffffffffffffffff16021790555086600481905550620002da8686620003f1640100000000026401000000009004565b8260068190555083600960006101000a81548173ffffffffffffffffffffffffffffffffffffffff021916908373ffffffffffffffffffffffffffffffffffffffff1602179055508160078190555080600a60006101000a81548173ffffffffffffffffffffffffffffffffffffffff021916908373ffffffffffffffffffffffffffffffffffffffff160217905550505050505050505050505050505050505050620004b6565b60008082101580156200039757506127108211155b9050919050565b6000620003ba8262000382640100000000026401000000009004565b1515620003c657600080fd5b620003ea6064836200048a6401000000000262003e12179091906401000000009004565b9050919050565b6000821115156200040157600080fd5b600073ffffffffffffffffffffffffffffffffffffffff168173ffffffffffffffffffffffffffffffffffffffff16141515156200043e57600080fd5b8160058190555080600860006101000a81548173ffffffffffffffffffffffffffffffffffffffff021916908373ffffffffffffffffffffffffffffffffffffffff1602179055505050565b6000806000831115156200049d57600080fd5b8284811515620004a957fe5b0490508091505092915050565b61427c80620004c66000396000f3006080604052600436106101c2576000357c0100000000000000000000000000000000000000000000000000000000900463ffffffff1680630d544ffe146101cc5780630ee62c771461024f57806313096a41146102d15780631aecc19f14610328578063208853c91461038d5780632442e1cb146103ce578063299a017c146105265780632c9a4bab146106685780632fbe5990146106d3578063313602d4146106fe5780633baba4d7146107155780634090cb6414610740578063521b7499146107975780635641f3c3146107f4578063564566a81461084b578063715018a61461087a57806372e6a88114610891578063792c02ea146108de5780638119c06514610909578063845ddcb2146109605780638abdf5aa146109e05780638da5cb5b14610a0b5780638edd6eb614610a62578063a035b1fe14610ab9578063a4fd6f5614610ae4578063b135648814610b13578063b60d428814610b4a578063ca7348a314610ba1578063d0febe4c14610bce578063d6d65f3d14610bd8578063daa4cf8814610c03578063e89e4ed614610c39578063e93b054014610d91578063f12585f514610dbe578063f2fde38b14610e40578063fc0c546a14610e83575b6101ca610eda565b005b3480156101d857600080fd5b5061024d600480360381019080803590602001908201803590602001919091929391929390803590602001908201803590602001919091929391929390803590602001908201803590602001919091929391929390803590602001908201803590602001919091929391929390505050611656565b005b34801561025b57600080fd5b5061027a60048036038101908080359060200190929190505050611eca565b6040518080602001828103825283818151815260200191508051906020019060200280838360005b838110156102bd5780820151818401526020810190506102a2565b505050509050019250505060405180910390f35b3480156102dd57600080fd5b506102e6611f68565b604051808273ffffffffffffffffffffffffffffffffffffffff1673ffffffffffffffffffffffffffffffffffffffff16815260200191505060405180910390f35b34801561033457600080fd5b50610373600480360381019080803573ffffffffffffffffffffffffffffffffffffffff16906020019092919080359060200190929190505050611f8e565b604051808215151515815260200191505060405180910390f35b34801561039957600080fd5b506103b860048036038101908080359060200190929190505050612098565b6040518082815260200191505060405180910390f35b3480156103da57600080fd5b506103f960048036038101908080359060200190929190505050612194565b604051808763ffffffff1663ffffffff1681526020018660ff1660ff1681526020018563ffffffff1663ffffffff1681526020018463ffffffff1663ffffffff1681526020018060200180602001838103835285818151815260200191508051906020019080838360005b8381101561047f578082015181840152602081019050610464565b50505050905090810190601f1680156104ac5780820380516001836020036101000a031916815260200191505b50838103825284818151815260200191508051906020019080838360005b838110156104e55780820151818401526020810190506104ca565b50505050905090810190601f1680156105125780820380516001836020036101000a031916815260200191505b509850505050505050505060405180910390f35b34801561053257600080fd5b5061053b6123eb565b604051808763ffffffff1663ffffffff1681526020018660ff1660ff1681526020018563ffffffff1663ffffffff1681526020018463ffffffff1663ffffffff1681526020018060200180602001838103835285818151815260200191508051906020019080838360005b838110156105c15780820151818401526020810190506105a6565b50505050905090810190601f1680156105ee5780820380516001836020036101000a031916815260200191505b50838103825284818151815260200191508051906020019080838360005b8381101561062757808201518184015260208101905061060c565b50505050905090810190601f1680156106545780820380516001836020036101000a031916815260200191505b509850505050505050505060405180910390f35b34801561067457600080fd5b506106d160048036038101908080359060200190820180359060200191909192939192939080359060200190820180359060200191909192939192939080359060200190820180359060200191909192939192939050505061241e565b005b3480156106df57600080fd5b506106e8612ba6565b6040518082815260200191505060405180910390f35b34801561070a57600080fd5b50610713612bac565b005b34801561072157600080fd5b5061072a612e3f565b6040518082815260200191505060405180910390f35b34801561074c57600080fd5b50610755612e4c565b604051808273ffffffffffffffffffffffffffffffffffffffff1673ffffffffffffffffffffffffffffffffffffffff16815260200191505060405180910390f35b3480156107a357600080fd5b506107f260048036038101908080359060200190929190803590602001908201803590602001919091929391929390803590602001908201803590602001919091929391929390505050612e76565b005b34801561080057600080fd5b506108096130fd565b604051808273ffffffffffffffffffffffffffffffffffffffff1673ffffffffffffffffffffffffffffffffffffffff16815260200191505060405180910390f35b34801561085757600080fd5b50610860613123565b604051808215151515815260200191505060405180910390f35b34801561088657600080fd5b5061088f6131c7565b005b34801561089d57600080fd5b506108bc600480360381019080803590602001909291905050506132c9565b604051808263ffffffff1663ffffffff16815260200191505060405180910390f35b3480156108ea57600080fd5b506108f3613302565b6040518082815260200191505060405180910390f35b34801561091557600080fd5b5061091e61330f565b604051808273ffffffffffffffffffffffffffffffffffffffff1673ffffffffffffffffffffffffffffffffffffffff16815260200191505060405180910390f35b34801561096c57600080fd5b5061098b60048036038101908080359060200190929190505050613335565b604051808563ffffffff1663ffffffff1681526020018463ffffffff1663ffffffff1681526020018360ff1660ff1681526020018263ffffffff1663ffffffff16815260200194505050505060405180910390f35b3480156109ec57600080fd5b506109f56133b1565b6040518082815260200191505060405180910390f35b348015610a1757600080fd5b50610a206133b7565b604051808273ffffffffffffffffffffffffffffffffffffffff1673ffffffffffffffffffffffffffffffffffffffff16815260200191505060405180910390f35b348015610a6e57600080fd5b50610a776133dc565b604051808273ffffffffffffffffffffffffffffffffffffffff1673ffffffffffffffffffffffffffffffffffffffff16815260200191505060405180910390f35b348015610ac557600080fd5b50610ace613406565b6040518082815260200191505060405180910390f35b348015610af057600080fd5b50610af961340c565b604051808215151515815260200191505060405180910390f35b348015610b1f57600080fd5b50610b28613463565b604051808263ffffffff1663ffffffff16815260200191505060405180910390f35b348015610b5657600080fd5b50610b5f6134b6565b604051808273ffffffffffffffffffffffffffffffffffffffff1673ffffffffffffffffffffffffffffffffffffffff16815260200191505060405180910390f35b348015610bad57600080fd5b50610bcc600480360381019080803590602001909291905050506134dc565b005b610bd6610eda565b005b348015610be457600080fd5b50610bed6134e6565b6040518082815260200191505060405180910390f35b348015610c0f57600080fd5b50610c18613564565b60405180838152602001821515151581526020019250505060405180910390f35b348015610c4557600080fd5b50610c646004803603810190808035906020019092919050505061360d565b604051808763ffffffff1663ffffffff1681526020018660ff1660ff1681526020018563ffffffff1663ffffffff1681526020018463ffffffff1663ffffffff1681526020018060200180602001838103835285818151815260200191508051906020019080838360005b83811015610cea578082015181840152602081019050610ccf565b50505050905090810190601f168015610d175780820380516001836020036101000a031916815260200191505b50838103825284818151815260200191508051906020019080838360005b83811015610d50578082015181840152602081019050610d35565b50505050905090810190601f168015610d7d5780820380516001836020036101000a031916815260200191505b509850505050505050505060405180910390f35b348015610d9d57600080fd5b50610dbc600480360381019080803590602001909291905050506137c5565b005b348015610dca57600080fd5b50610de9600480360381019080803590602001909291905050506138a3565b6040518080602001828103825283818151815260200191508051906020019060200280838360005b83811015610e2c578082015181840152602081019050610e11565b505050509050019250505060405180910390f35b348015610e4c57600080fd5b50610e81600480360381019080803573ffffffffffffffffffffffffffffffffffffffff16906020019092919050505061391b565b005b348015610e8f57600080fd5b50610e98613982565b604051808273ffffffffffffffffffffffffffffffffffffffff1673ffffffffffffffffffffffffffffffffffffffff16815260200191505060405180910390f35b6000806000806000806000806000600180600082825401925050819055506001549050610f05613123565b1515610f79576040517f08c379a00000000000000000000000000000000000000000000000000000000081526004018080602001828103825260178152602001807f53616c65206973206e6f7420737461727465642079657400000000000000000081525060200191505060405180910390fd5b600034111515610f8857600080fd5b610f90613564565b509850600b89815481101515610fa257fe5b906000526020600020906003020160000160089054906101000a900460ff1660ff169750600b89815481101515610fd557fe5b906000526020600020906003020160000160099054906101000a900463ffffffff16965061100234612098565b955061100f3489886139a8565b50945094509450600060075411156112e95761103660075486613b7190919063ffffffff16565b9150600360009054906101000a900473ffffffffffffffffffffffffffffffffffffffff1673ffffffffffffffffffffffffffffffffffffffff166323b872dd600960009054906101000a900473ffffffffffffffffffffffffffffffffffffffff16600860009054906101000a900473ffffffffffffffffffffffffffffffffffffffff16856040518463ffffffff167c0100000000000000000000000000000000000000000000000000000000028152600401808473ffffffffffffffffffffffffffffffffffffffff1673ffffffffffffffffffffffffffffffffffffffff1681526020018373ffffffffffffffffffffffffffffffffffffffff1673ffffffffffffffffffffffffffffffffffffffff1681526020018281526020019350505050602060405180830381600087803b15801561117557600080fd5b505af1158015611189573d6000803e3d6000fd5b505050506040513d602081101561119f57600080fd5b810190808051906020019092919050505015156111bb57600080fd5b600260009054906101000a900473ffffffffffffffffffffffffffffffffffffffff1673ffffffffffffffffffffffffffffffffffffffff1663a9059cbb600960009054906101000a900473ffffffffffffffffffffffffffffffffffffffff16846040518363ffffffff167c0100000000000000000000000000000000000000000000000000000000028152600401808373ffffffffffffffffffffffffffffffffffffffff1673ffffffffffffffffffffffffffffffffffffffff16815260200182815260200192505050602060405180830381600087803b1580156112a257600080fd5b505af11580156112b6573d6000803e3d6000fd5b505050506040513d60208110156112cc57600080fd5b810190808051906020019092919050505015156112e857600080fd5b5b600260009054906101000a900473ffffffffffffffffffffffffffffffffffffffff1673ffffffffffffffffffffffffffffffffffffffff16639d2e477733878a6040518463ffffffff167c0100000000000000000000000000000000000000000000000000000000028152600401808473ffffffffffffffffffffffffffffffffffffffff1673ffffffffffffffffffffffffffffffffffffffff1681526020018381526020018263ffffffff1663ffffffff1681526020019350505050602060405180830381600087803b1580156113c257600080fd5b505af11580156113d6573d6000803e3d6000fd5b505050506040513d60208110156113ec57600080fd5b8101908080519060200190929190505050151561140857600080fd5b6000831115611459573373ffffffffffffffffffffffffffffffffffffffff166108fc849081150290604051600060405180830381858888f19350505050158015611457573d6000803e3d6000fd5b505b600060065411156114e257600860009054906101000a900473ffffffffffffffffffffffffffffffffffffffff1673ffffffffffffffffffffffffffffffffffffffff166108fc6114b560065487613b7190919063ffffffff16565b9081150290604051600060405180830381858888f193505050501580156114e0573d6000803e3d6000fd5b505b600a60009054906101000a900473ffffffffffffffffffffffffffffffffffffffff1673ffffffffffffffffffffffffffffffffffffffff1663958799cb3073ffffffffffffffffffffffffffffffffffffffff1631620186a09033896040518563ffffffff167c0100000000000000000000000000000000000000000000000000000000028152600401808373ffffffffffffffffffffffffffffffffffffffff1673ffffffffffffffffffffffffffffffffffffffff168152602001828152602001925050506000604051808303818589803b1580156115c357600080fd5b5088f11580156115d7573d6000803e3d6000fd5b5050505050503373ffffffffffffffffffffffffffffffffffffffff167f347f5f0051b895093800553e6e78ef332849e2552639a4f5ffe66535788ae07885878660405180848152602001838152602001828152602001935050505060405180910390a26001548114151561164b57600080fd5b505050505050505050565b60008060006060806000809054906101000a900473ffffffffffffffffffffffffffffffffffffffff1673ffffffffffffffffffffffffffffffffffffffff163373ffffffffffffffffffffffffffffffffffffffff161415156116b957600080fd5b6000600b80549050111561170d5742600b60008154811015156116d857fe5b906000526020600020906003020160000160009054906101000a900463ffffffff1663ffffffff1611151561170c57600080fd5b5b7fffffffffffffffffffffffffffffffffffffffffffffffffffffffffffffffff60ff168d8d90501115151561174257600080fd5b60038d8d90501015151561175557600080fd5b600060038e8e905081151561176657fe5b0614151561177357600080fd5b8888905061178e60028d8d9050613bb690919063ffffffff16565b14151561179a57600080fd5b8c8c90506117b560038d8d9050613bb690919063ffffffff16565b1415156117c157600080fd5b60028b8b90500287879050101515156117d957600080fd5b6000600b8054905011156118e4578c8c600081811015156117f657fe5b9050602002013563ffffffff1663ffffffff16600b6001600b805490500381548110151561182057fe5b906000526020600020906003020160000160049054906101000a900463ffffffff1663ffffffff161015156118e3576040517f08c379a00000000000000000000000000000000000000000000000000000000081526004018080602001828103825260358152602001807f4669727374206d696c6573746f6e6520656e6444617465206d7573742062652081526020017f6774206c61737420737461676520656e6444617465000000000000000000000081525060400191505060405180910390fd5b5b6000945060009350600092505b8c8c905060ff168360ff161015611e9757428d8d8560ff16818110151561191457fe5b9050602002013563ffffffff1663ffffffff1611151561193357600080fd5b8c8c8460ff16818110151561194457fe5b9050602002013563ffffffff1663ffffffff168d8d6001860160ff16818110151561196b57fe5b9050602002013563ffffffff1663ffffffff1611151561198a57600080fd5b8c8c6001850160ff16818110151561199e57fe5b9050602002013563ffffffff1663ffffffff168d8d6002860160ff1681811015156119c557fe5b9050602002013563ffffffff1663ffffffff161115156119e457600080fd5b60008360ff161115611ad7578c8c8460ff168181101515611a0157fe5b9050602002013563ffffffff1663ffffffff168d8d6001860360ff168181101515611a2857fe5b9050602002013563ffffffff1663ffffffff16101515611ad6576040517f08c379a00000000000000000000000000000000000000000000000000000000081526004018080602001828103825260298152602001807f4d696c6573746f6e65206461746573206973206e6f7420696e20617363656e6481526020017f696e67206f72646572000000000000000000000000000000000000000000000081525060400191505060405180910390fd5b5b611b53858a8a600260038860ff16811515611aee57fe5b040260ff168181101515611afe57fe5b9050602002013563ffffffff1663ffffffff1689898080601f016020809104026020016040519081016040528093929190818152602001838380828437820191505050505050613bf49092919063ffffffff16565b9150611c0b8989600260038760ff16811515611b6b57fe5b040260ff168181101515611b7b57fe5b9050602002013563ffffffff1663ffffffff1686018a8a6001600260038960ff16811515611ba557fe5b04020160ff168181101515611bb657fe5b9050602002013563ffffffff1663ffffffff1689898080601f016020809104026020016040519081016040528093929190818152602001838380828437820191505050505050613bf49092919063ffffffff16565b905060008251111515611c1d57600080fd5b60008151111515611c2d57600080fd5b600c60c0604051908101604052808f8f8760ff168181101515611c4c57fe5b9050602002013563ffffffff1663ffffffff1681526020018d8d60038860ff16811515611c7557fe5b0460ff168181101515611c8457fe5b9050602002013560ff1660ff1681526020018f8f6001880160ff168181101515611caa57fe5b9050602002013563ffffffff1663ffffffff1681526020018f8f6002880160ff168181101515611cd657fe5b9050602002013563ffffffff1663ffffffff168152602001848152602001838152509080600181540180825580915050906001820390600052602060002090600302016000909192909190915060008201518160000160006101000a81548163ffffffff021916908363ffffffff16021790555060208201518160000160046101000a81548160ff021916908360ff16021790555060408201518160000160056101000a81548163ffffffff021916908363ffffffff16021790555060608201518160000160096101000a81548163ffffffff021916908363ffffffff1602179055506080820151816001019080519060200190611dd5929190613e57565b5060a0820151816002019080519060200190611df2929190613e57565b505050508888600160038660ff16811515611e0957fe5b040160ff168181101515611e1957fe5b9050602002013563ffffffff16898960038660ff16811515611e3757fe5b0460ff168181101515611e4657fe5b9050602002013563ffffffff160163ffffffff16850194508a8a60038560ff16811515611e6f57fe5b0460ff168181101515611e7e57fe5b9050602002013560ff16840193506003830192506118f1565b8c8c600d9190611ea8929190613ed7565b5060648460ff16141515611ebb57600080fd5b50505050505050505050505050565b6060600b82815481101515611edb57fe5b9060005260206000209060030201600201805480602002602001604051908101604052809291908181526020018280548015611f5c57602002820191906000526020600020906000905b82829054906101000a900460ff1660ff1681526020019060010190602082600001049283019260010382029150808411611f255790505b50505050509050919050565b600360009054906101000a900473ffffffffffffffffffffffffffffffffffffffff1681565b6000600260009054906101000a900473ffffffffffffffffffffffffffffffffffffffff1673ffffffffffffffffffffffffffffffffffffffff1663a9059cbb84846040518363ffffffff167c0100000000000000000000000000000000000000000000000000000000028152600401808373ffffffffffffffffffffffffffffffffffffffff1673ffffffffffffffffffffffffffffffffffffffff16815260200182815260200192505050602060405180830381600087803b15801561205557600080fd5b505af1158015612069573d6000803e3d6000fd5b505050506040513d602081101561207f57600080fd5b8101908080519060200190929190505050905092915050565b6000806000806000806120a9613564565b945094508315156120bd576000955061218a565b600b818154811015156120cc57fe5b9060005260206000209060030201925060009150600090505b82600101805490508110156121895781871015801561211e5750826001018181548110151561211057fe5b906000526020600020015487105b1561215e57826002018181548110151561213457fe5b90600052602060002090602091828204019190069054906101000a900460ff1660ff169550612189565b826001018181548110151561216f57fe5b9060005260206000200154915080806001019150506120e5565b5b5050505050919050565b600080600080606080600c878154811015156121ac57fe5b906000526020600020906003020160000160009054906101000a900463ffffffff16600c888154811015156121dd57fe5b906000526020600020906003020160000160049054906101000a900460ff16600c8981548110151561220b57fe5b906000526020600020906003020160000160059054906101000a900463ffffffff16600c8a81548110151561223c57fe5b906000526020600020906003020160000160099054906101000a900463ffffffff16600c8b81548110151561226d57fe5b9060005260206000209060030201600101600c8c81548110151561228d57fe5b9060005260206000209060030201600201818054600181600116156101000203166002900480601f0160208091040260200160405190810160405280929190818152602001828054600181600116156101000203166002900480156123335780601f1061230857610100808354040283529160200191612333565b820191906000526020600020905b81548152906001019060200180831161231657829003601f168201915b50505050509150808054600181600116156101000203166002900480601f0160208091040260200160405190810160405280929190818152602001828054600181600116156101000203166002900480156123cf5780601f106123a4576101008083540402835291602001916123cf565b820191906000526020600020905b8154815290600101906020018083116123b257829003601f168201915b5050505050905095509550955095509550955091939550919395565b60008060008060608060006123fe6134e6565b905061240981612194565b96509650965096509650965050909192939495565b6000806000809054906101000a900473ffffffffffffffffffffffffffffffffffffffff1673ffffffffffffffffffffffffffffffffffffffff163373ffffffffffffffffffffffffffffffffffffffff1614151561247c57600080fd5b6000600b8054905011156124d05742600b600081548110151561249b57fe5b906000526020600020906003020160000160009054906101000a900463ffffffff1663ffffffff161115156124cf57600080fd5b5b7fffffffffffffffffffffffffffffffffffffffffffffffffffffffffffffffff60ff16888890501115151561250557600080fd5b60008888905011151561251757600080fd5b858590508888905014151561252b57600080fd5b838390508888905014151561253f57600080fd5b6000600c80549050111561265a57878760018a8a905003818110151561256157fe5b905060400201600160028110151561257557fe5b602002013563ffffffff1663ffffffff16600c600081548110151561259657fe5b906000526020600020906003020160000160009054906101000a900463ffffffff1663ffffffff16111515612659576040517f08c379a00000000000000000000000000000000000000000000000000000000081526004018080602001828103825260358152602001807f4c61737420737461676520656e6444617465206d757374206265206c7420666981526020017f727374206d696c6573746f6e6520656e6444617465000000000000000000000081525060400191505060405180910390fd5b5b8787905091508160ff16600b816126719190613f8d565b50600090505b8160ff168160ff161015612b7057600086868360ff16818110151561269857fe5b9050602002013560ff1660ff16101580156126d05750606486868360ff1681811015156126c157fe5b9050602002013560ff1660ff16105b151561276a576040517f08c379a000000000000000000000000000000000000000000000000000000000815260040180806020018281038252602f8152602001807f537461676520646973636f756e74206973206e6f7420696e20616c6c6f77656481526020017f2072616e6765205b302c2031303029000000000000000000000000000000000081525060400191505060405180910390fd5b4288888360ff16818110151561277c57fe5b905060400201600060028110151561279057fe5b602002013563ffffffff1663ffffffff161115156127ad57600080fd5b87878260ff1681811015156127be57fe5b90506040020160016002811015156127d257fe5b602002013563ffffffff1663ffffffff1688888360ff1681811015156127f457fe5b905060400201600060028110151561280857fe5b602002013563ffffffff1663ffffffff161015156128b4576040517f08c379a00000000000000000000000000000000000000000000000000000000081526004018080602001828103825260248152602001807f53746167652073746172742064617465206d75737420626520677420656e642081526020017f646174650000000000000000000000000000000000000000000000000000000081525060400191505060405180910390fd5b60008160ff1611156129cc5787878260ff1681811015156128d157fe5b90506040020160006002811015156128e557fe5b602002013563ffffffff1663ffffffff1688886001840360ff16818110151561290a57fe5b905060400201600160028110151561291e57fe5b602002013563ffffffff1663ffffffff16111515156129cb576040517f08c379a00000000000000000000000000000000000000000000000000000000081526004018080602001828103825260228152602001807f53746167657320617265206e6f7420696e20686973746f726963616c206f726481526020017f657200000000000000000000000000000000000000000000000000000000000081525060400191505060405180910390fd5b5b87878260ff1681811015156129dd57fe5b90506040020160006002811015156129f157fe5b602002013563ffffffff16600b8260ff16815481101515612a0e57fe5b906000526020600020906003020160000160006101000a81548163ffffffff021916908363ffffffff16021790555087878260ff168181101515612a4e57fe5b9050604002016001600281101515612a6257fe5b602002013563ffffffff16600b8260ff16815481101515612a7f57fe5b906000526020600020906003020160000160046101000a81548163ffffffff021916908363ffffffff16021790555085858260ff168181101515612abf57fe5b9050602002013560ff16600b8260ff16815481101515612adb57fe5b906000526020600020906003020160000160086101000a81548160ff021916908360ff16021790555083838260ff168181101515612b1557fe5b9050602002013563ffffffff16600b8260ff16815481101515612b3457fe5b906000526020600020906003020160000160096101000a81548163ffffffff021916908363ffffffff1602179055508080600101915050612677565b7f743961f4e677d1146fbf85d75565b1c5474fd083eb166f8b9595cf5d01a4d6e660405160405180910390a15050505050505050565b60075481565b6000809054906101000a900473ffffffffffffffffffffffffffffffffffffffff1673ffffffffffffffffffffffffffffffffffffffff163373ffffffffffffffffffffffffffffffffffffffff16141515612c0757600080fd5b612c0f61340c565b1515612c1a57600080fd5b600260009054906101000a900473ffffffffffffffffffffffffffffffffffffffff1673ffffffffffffffffffffffffffffffffffffffff1663a9059cbb6000809054906101000a900473ffffffffffffffffffffffffffffffffffffffff16600260009054906101000a900473ffffffffffffffffffffffffffffffffffffffff1673ffffffffffffffffffffffffffffffffffffffff166370a08231306040518263ffffffff167c0100000000000000000000000000000000000000000000000000000000028152600401808273ffffffffffffffffffffffffffffffffffffffff1673ffffffffffffffffffffffffffffffffffffffff168152602001915050602060405180830381600087803b158015612d3757600080fd5b505af1158015612d4b573d6000803e3d6000fd5b505050506040513d6020811015612d6157600080fd5b81019080805190602001909291905050506040518363ffffffff167c0100000000000000000000000000000000000000000000000000000000028152600401808373ffffffffffffffffffffffffffffffffffffffff1673ffffffffffffffffffffffffffffffffffffffff16815260200182815260200192505050602060405180830381600087803b158015612df757600080fd5b505af1158015612e0b573d6000803e3d6000fd5b505050506040513d6020811015612e2157600080fd5b81019080805190602001909291905050501515612e3d57600080fd5b565b6000600c80549050905090565b6000600260009054906101000a900473ffffffffffffffffffffffffffffffffffffffff16905090565b60008060009054906101000a900473ffffffffffffffffffffffffffffffffffffffff1673ffffffffffffffffffffffffffffffffffffffff163373ffffffffffffffffffffffffffffffffffffffff16141515612ed357600080fd5b6000600b805490501115612f275742600b6000815481101515612ef257fe5b906000526020600020906003020160000160009054906101000a900463ffffffff1663ffffffff16111515612f2657600080fd5b5b8282905085859050141515612f3b57600080fd5b600b8054905086101515612f4e57600080fd5b600090505b8484905081101561303d576000811115613030578484828181101515612f7557fe5b905060200201358585600184038181101515612f8d57fe5b9050602002013510151561302f576040517f08c379a000000000000000000000000000000000000000000000000000000000815260040180806020018281038252602c8152602001807f566f6c756d6520626f756e646172696573206d75737420626520696e2061736381526020017f656e64696e67206f72646572000000000000000000000000000000000000000081525060400191505060405180910390fd5b5b8080600101915050612f53565b600b8681548110151561304c57fe5b906000526020600020906003020160010160006130699190613fbf565b600b8681548110151561307857fe5b906000526020600020906003020160020160006130959190613fe0565b8484600b888154811015156130a657fe5b906000526020600020906003020160010191906130c4929190614008565b508282600b888154811015156130d657fe5b906000526020600020906003020160020191906130f4929190614055565b50505050505050565b600860009054906101000a900473ffffffffffffffffffffffffffffffffffffffff1681565b6000806000613130613564565b9150915080151561314457600092506131c2565b42600b8381548110151561315457fe5b906000526020600020906003020160000160009054906101000a900463ffffffff1663ffffffff16111580156131bf575042600b8381548110151561319557fe5b906000526020600020906003020160000160049054906101000a900463ffffffff1663ffffffff16115b92505b505090565b6000809054906101000a900473ffffffffffffffffffffffffffffffffffffffff1673ffffffffffffffffffffffffffffffffffffffff163373ffffffffffffffffffffffffffffffffffffffff1614151561322257600080fd5b6000809054906101000a900473ffffffffffffffffffffffffffffffffffffffff1673ffffffffffffffffffffffffffffffffffffffff167ff8df31144d9c2f0f6b59d69b8b98abd5459d07f2742c4df920b25aae33c6482060405160405180910390a260008060006101000a81548173ffffffffffffffffffffffffffffffffffffffff021916908373ffffffffffffffffffffffffffffffffffffffff160217905550565b600d818154811015156132d857fe5b9060005260206000209060089182820401919006600402915054906101000a900463ffffffff1681565b6000600b80549050905090565b600960009054906101000a900473ffffffffffffffffffffffffffffffffffffffff1681565b600b8181548110151561334457fe5b90600052602060002090600302016000915090508060000160009054906101000a900463ffffffff16908060000160049054906101000a900463ffffffff16908060000160089054906101000a900460ff16908060000160099054906101000a900463ffffffff16905084565b60065481565b6000809054906101000a900473ffffffffffffffffffffffffffffffffffffffff1681565b6000600a60009054906101000a900473ffffffffffffffffffffffffffffffffffffffff16905090565b60055481565b600080600b80549050148061345e575042600b6001600b805490500381548110151561343457fe5b906000526020600020906003020160000160049054906101000a900463ffffffff1663ffffffff16105b905090565b600080600b8054905011151561347857600080fd5b600b6001600b805490500381548110151561348f57fe5b906000526020600020906003020160000160049054906101000a900463ffffffff16905090565b600a60009054906101000a900473ffffffffffffffffffffffffffffffffffffffff1681565b8060078190555050565b600080600c80549050905060008114156134ff57600080fd5b5b600181038210801561354e5750600d6003830281548110151561351f57fe5b90600052602060002090600891828204019190066004029054906101000a900463ffffffff1663ffffffff1642115b15613560578180600101925050613500565b5090565b600080600080600091505b600b805490508210156135fc57600b8281548110151561358b57fe5b90600052602060002090600302019050428160000160009054906101000a900463ffffffff1663ffffffff16111580156135de5750428160000160049054906101000a900463ffffffff1663ffffffff16115b156135ef5781600193509350613607565b818060010192505061356f565b600080819150935093505b50509091565b600c8181548110151561361c57fe5b90600052602060002090600302016000915090508060000160009054906101000a900463ffffffff16908060000160049054906101000a900460ff16908060000160059054906101000a900463ffffffff16908060000160099054906101000a900463ffffffff1690806001018054600181600116156101000203166002900480601f01602080910402602001604051908101604052809291908181526020018280546001816001161561010002031660029004801561371d5780601f106136f25761010080835404028352916020019161371d565b820191906000526020600020905b81548152906001019060200180831161370057829003601f168201915b505050505090806002018054600181600116156101000203166002900480601f0160208091040260200160405190810160405280929190818152602001828054600181600116156101000203166002900480156137bb5780601f10613790576101008083540402835291602001916137bb565b820191906000526020600020905b81548152906001019060200180831161379e57829003601f168201915b5050505050905086565b6000809054906101000a900473ffffffffffffffffffffffffffffffffffffffff1673ffffffffffffffffffffffffffffffffffffffff163373ffffffffffffffffffffffffffffffffffffffff1614151561382057600080fd5b6000600b8054905011156138745742600b600081548110151561383f57fe5b906000526020600020906003020160000160009054906101000a900463ffffffff1663ffffffff1611151561387357600080fd5b5b6138a081600860009054906101000a900473ffffffffffffffffffffffffffffffffffffffff16613c81565b50565b6060600b828154811015156138b457fe5b906000526020600020906003020160010180548060200260200160405190810160405280929190818152602001828054801561390f57602002820191906000526020600020905b8154815260200190600101908083116138fb575b50505050509050919050565b6000809054906101000a900473ffffffffffffffffffffffffffffffffffffffff1673ffffffffffffffffffffffffffffffffffffffff163373ffffffffffffffffffffffffffffffffffffffff1614151561397657600080fd5b61397f81613d18565b50565b600260009054906101000a900473ffffffffffffffffffffffffffffffffffffffff1681565b6000806000806000879350600087116139c3576005546139ef565b6139ee60646139e089606403600554613bb690919063ffffffff16565b613e1290919063ffffffff16565b5b9150613a33600260045403600a0a613a2584613a178a6064018d613bb690919063ffffffff16565b613e1290919063ffffffff16565b613bb690919063ffffffff16565b9450600260009054906101000a900473ffffffffffffffffffffffffffffffffffffffff1673ffffffffffffffffffffffffffffffffffffffff166370a08231306040518263ffffffff167c0100000000000000000000000000000000000000000000000000000000028152600401808273ffffffffffffffffffffffffffffffffffffffff1673ffffffffffffffffffffffffffffffffffffffff168152602001915050602060405180830381600087803b158015613af257600080fd5b505af1158015613b06573d6000803e3d6000fd5b505050506040513d6020811015613b1c57600080fd5b8101908080519060200190929190505050905084811015613b6757613b5c85613b4e838b613bb690919063ffffffff16565b613e1290919063ffffffff16565b935083880392508094505b5093509350935093565b6000613b7c82613e3c565b1515613b8757600080fd5b613bae612710613ba08486613bb690919063ffffffff16565b613e1290919063ffffffff16565b905092915050565b6000806000841415613bcb5760009150613bed565b8284029050828482811515613bdc57fe5b04141515613be957600080fd5b8091505b5092915050565b606080828401855110151515613c0957600080fd5b821560008114613c2457604051915060208201604052613c75565b6040519150601f8416801560200281840101858101878315602002848b0101015b81831015613c625780518352602083019250602081019050613c45565b50868552601f19601f8301166040525050505b50809150509392505050565b600082111515613c9057600080fd5b600073ffffffffffffffffffffffffffffffffffffffff168173ffffffffffffffffffffffffffffffffffffffff1614151515613ccc57600080fd5b8160058190555080600860006101000a81548173ffffffffffffffffffffffffffffffffffffffff021916908373ffffffffffffffffffffffffffffffffffffffff1602179055505050565b600073ffffffffffffffffffffffffffffffffffffffff168173ffffffffffffffffffffffffffffffffffffffff1614151515613d5457600080fd5b8073ffffffffffffffffffffffffffffffffffffffff166000809054906101000a900473ffffffffffffffffffffffffffffffffffffffff1673ffffffffffffffffffffffffffffffffffffffff167f8be0079c531659141344cd1fd0a4f28419497f9722a3daafe3b4186f6b6457e060405160405180910390a3806000806101000a81548173ffffffffffffffffffffffffffffffffffffffff021916908373ffffffffffffffffffffffffffffffffffffffff16021790555050565b600080600083111515613e2457600080fd5b8284811515613e2f57fe5b0490508091505092915050565b6000808210158015613e5057506127108211155b9050919050565b828054600181600116156101000203166002900490600052602060002090601f016020900481019282601f10613e9857805160ff1916838001178555613ec6565b82800160010185558215613ec6579182015b82811115613ec5578251825591602001919060010190613eaa565b5b509050613ed391906140ff565b5090565b82805482825590600052602060002090600701600890048101928215613f7c5791602002820160005b83821115613f4a57833563ffffffff1683826101000a81548163ffffffff021916908363ffffffff1602179055509260200192600401602081600301049283019260010302613f00565b8015613f7a5782816101000a81549063ffffffff0219169055600401602081600301049283019260010302613f4a565b505b509050613f899190614124565b5090565b815481835581811115613fba57600302816003028360005260206000209182019101613fb99190614157565b5b505050565b5080546000825590600052602060002090810190613fdd91906140ff565b50565b50805460008255601f01602090049060005260206000209081019061400591906140ff565b50565b828054828255906000526020600020908101928215614044579160200282015b82811115614043578235825591602001919060010190614028565b5b50905061405191906140ff565b5090565b82805482825590600052602060002090601f016020900481019282156140ee5791602002820160005b838211156140bf57833560ff1683826101000a81548160ff021916908360ff160217905550926020019260010160208160000104928301926001030261407e565b80156140ec5782816101000a81549060ff02191690556001016020816000010492830192600103026140bf565b505b5090506140fb91906141ef565b5090565b61412191905b8082111561411d576000816000905550600101614105565b5090565b90565b61415491905b8082111561415057600081816101000a81549063ffffffff02191690555060010161412a565b5090565b90565b6141ec91905b808211156141e857600080820160006101000a81549063ffffffff02191690556000820160046101000a81549063ffffffff02191690556000820160086101000a81549060ff02191690556000820160096101000a81549063ffffffff02191690556001820160006141cf9190613fbf565b6002820160006141df9190613fe0565b5060030161415d565b5090565b90565b61421c91905b8082111561421857600081816101000a81549060ff0219169055506001016141f5565b5090565b90565b600061422a82613e3c565b151561423557600080fd5b614249606483613e1290919063ffffffff16565b90509190505600a165627a7a72305820a0f0d60dfd8b35f59d86fe60d136f06ae2f879231cf0ea15fe0f8a84762f812e0029",
  "source": "pragma solidity ^0.4.24;\n\nimport \"./W12Crowdsale.sol\";\n\n\ncontract W12CrowdsaleStub is W12Crowdsale {\n    constructor (\n        address _originToken,\n        address _token,\n        uint _tokenDecimals,\n        uint _price,\n        address _serviceWallet,\n        address _swap,\n        uint _serviceFee,\n        uint _WTokenSaleFeePercent,\n        IW12Fund _fund\n    )\n        W12Crowdsale(\n            _originToken,\n             _token,\n             _tokenDecimals,\n             _price,\n             _serviceWallet,\n             _swap,\n             _serviceFee,\n            _WTokenSaleFeePercent,\n             _fund\n        ) public\n    {}\n\n    function _outTokens(address to, uint amount) external returns (bool) {\n        return token.transfer(to, amount);\n    }\n\n    function _setState(uint _WTokenSaleFeePercent) external {\n        WTokenSaleFeePercent = _WTokenSaleFeePercent;\n    }\n}\n",
  "sourcePath": "/c/Users/Mr.Hokid/projects/work/w12-product-contracts/contracts/W12CrowdsaleStub.sol",
  "compiler": {
    "name": "solc",
    "version": "0.4.24+commit.e67f0147.Emscripten.clang"
  },
  "schemaVersion": "2.0.1",
  "updatedAt": "2018-08-27T10:14:32.508Z"
}