{
  "contractName": "W12CrowdsaleFactory",
  "abi": [
    {
      "constant": true,
      "inputs": [],
      "name": "version",
      "outputs": [
        {
          "name": "",
          "type": "uint256"
        }
      ],
      "payable": false,
      "stateMutability": "view",
      "type": "function"
    },
    {
      "inputs": [
        {
          "name": "version",
          "type": "uint256"
        },
        {
          "name": "_fundFactory",
          "type": "address"
        }
      ],
      "payable": false,
      "stateMutability": "nonpayable",
      "type": "constructor"
    },
    {
      "anonymous": false,
      "inputs": [
        {
          "indexed": true,
          "name": "owner",
          "type": "address"
        },
        {
          "indexed": true,
          "name": "token",
          "type": "address"
        },
        {
          "indexed": false,
          "name": "crowdsaleAddress",
          "type": "address"
        },
        {
          "indexed": false,
          "name": "fundAddress",
          "type": "address"
        }
      ],
      "name": "CrowdsaleCreated",
      "type": "event"
    },
    {
      "constant": false,
      "inputs": [
        {
          "name": "tokenAddress",
          "type": "address"
        },
        {
          "name": "wTokenAddress",
          "type": "address"
        },
        {
          "name": "price",
          "type": "uint256"
        },
        {
          "name": "serviceWallet",
          "type": "address"
        },
        {
          "name": "serviceFee",
          "type": "uint256"
        },
        {
          "name": "WTokenSaleFeePercent",
          "type": "uint256"
        },
        {
          "name": "trancheFeePercent",
          "type": "uint256"
        },
        {
          "name": "swap",
          "type": "address"
        },
        {
          "name": "owner",
          "type": "address"
        }
      ],
      "name": "createCrowdsale",
      "outputs": [
        {
          "name": "result",
          "type": "address"
        }
      ],
      "payable": false,
      "stateMutability": "nonpayable",
      "type": "function"
    }
  ],
  "bytecode": "0x608060405234801561001057600080fd5b506040516040806137718339810160405280516020909101516000829055600160a060020a03811615156100a557604080517f08c379a000000000000000000000000000000000000000000000000000000000815260206004820152601860248201527f466163746f727920616464726573732072657175697265640000000000000000604482015290519081900360640190fd5b60018054600160a060020a031916600160a060020a03929092169190911790555061369c806100d56000396000f3006080604052600436106100325763ffffffff60e060020a60003504166354fd4d508114610037578063aa1322f71461005e575b600080fd5b34801561004357600080fd5b5061004c6100c4565b60408051918252519081900360200190f35b34801561006a57600080fd5b506100a8600160a060020a03600435811690602435811690604435906064358116906084359060a4359060c4359060e43581169061010435166100ca565b60408051600160a060020a039092168252519081900360200190f35b60005481565b600154604080517f17444626000000000000000000000000000000000000000000000000000000008152600160a060020a038581166004830152898116602483015260448201879052915160009384931691631744462691606480830192602092919082900301818787803b15801561014257600080fd5b505af1158015610156573d6000803e3d6000fd5b505050506040513d602081101561016c57600080fd5b50516000549091508b8b8b8b888c8c886101846103cd565b988952600160a060020a0397881660208a01529587166040808a01919091526060890195909552928616608088015290851660a087015260c086015260e08501529116610100830152519081900361012001906000f0801580156101ec573d6000803e3d6000fd5b50915081600160a060020a031663f2fde38b846040518263ffffffff1660e060020a0281526004018082600160a060020a0316600160a060020a03168152602001915050600060405180830381600087803b15801561024a57600080fd5b505af115801561025e573d6000803e3d6000fd5b5050505080600160a060020a031663483a20b2836040518263ffffffff1660e060020a0281526004018082600160a060020a0316600160a060020a03168152602001915050600060405180830381600087803b1580156102bd57600080fd5b505af11580156102d1573d6000803e3d6000fd5b5050505080600160a060020a031663f2fde38b846040518263ffffffff1660e060020a0281526004018082600160a060020a0316600160a060020a03168152602001915050600060405180830381600087803b15801561033057600080fd5b505af1158015610344573d6000803e3d6000fd5b5050505089600160a060020a031683600160a060020a03167f5c5f2ecd800afaa9861ac6ebf9ef843dfc826dedb68c6fc1447d0879f383629f84846040518083600160a060020a0316600160a060020a0316815260200182600160a060020a0316600160a060020a031681526020019250505060405180910390a3509998505050505050505050565b604051613293806103de833901905600608060405260016002553480156200001657600080fd5b50604051610120806200329383398101604090815281516020830151918301516060840151608085015160a086015160c087015160e088015161010090980151600087905560018054600160a060020a03191633179055959794959394929391929091600160a060020a03881615156200008f57600080fd5b600160a060020a0387161515620000a557600080fd5b620000be836401000000006200289a620001df82021704565b8015620000e357506064620000e18464010000000062002f136200021c82021704565b105b1515620000ef57600080fd5b62000108826401000000006200289a620001df82021704565b80156200012d575060646200012b8364010000000062002f136200021c82021704565b105b15156200013957600080fd5b600160a060020a03811615156200014f57600080fd5b600160a060020a03841615156200016557600080fd5b6200017a86866401000000006200026e810204565b60038054600160a060020a0319908116600160a060020a03998a16179091556004805482169989169990991790985560069290925560098054881693871693909317909255600791909155600a80549095169316929092179092555062000313915050565b6000620001f4640100000000620002b9810204565b821015801562000216575062000212640100000000620002be810204565b8211155b92915050565b60006200023282640100000000620001df810204565b15156200023e57600080fd5b6200021662000255640100000000620002db810204565b8390600a0a64010000000062002885620002e082021704565b600082116200027c57600080fd5b600160a060020a03811615156200029257600080fd5b60059190915560088054600160a060020a031916600160a060020a03909216919091179055565b600090565b6000620002d3640100000000620002f6810204565b600a0a905090565b600290565b60008183811515620002ee57fe5b049392505050565b60006200030b640100000000620002db810204565b600201905090565b612f7080620003236000396000f3006080604052600436106101715763ffffffff60e060020a60003504166313096a41811461017b57806314f66d34146101ac57806317410a07146101da578063208853c91461022a5780632442e1cb146102545780632e3250201461038a5780632fbe59901461047b578063313602d4146104905780633baba4d7146104a55780634090cb64146104ba57806354fd4d50146104cf5780635641f3c3146104e4578063564566a8146104f9578063715018a614610522578063792c02ea146105375780638119c0651461054c578063845ddcb2146105615780638abdf5aa146105aa5780638da5cb5b146105bf5780638edd6eb6146105d4578063a035b1fe146105e9578063a4fd6f56146105fe578063b135648814610613578063b60d428814610641578063d0febe4c14610171578063d6d65f3d14610656578063daa4cf881461066b578063e89e4ed614610680578063e93b054014610698578063f2fde38b146106b0578063fc0c546a146106d1575b6101796106e6565b005b34801561018757600080fd5b50610190610ba3565b60408051600160a060020a039092168252519081900360200190f35b3480156101b857600080fd5b506101c1610bb2565b6040805192835290151560208301528051918290030190f35b3480156101e657600080fd5b506101796024600480358281019290820135918135808301929082013591604435808301929082013591606435808301929082013591608435918201910135610be5565b34801561023657600080fd5b50610242600435610dec565b60408051918252519081900360200190f35b34801561026057600080fd5b5061026c600435610e9a565b604051808763ffffffff1663ffffffff1681526020018681526020018563ffffffff1663ffffffff1681526020018463ffffffff1663ffffffff1681526020018060200180602001838103835285818151815260200191508051906020019080838360005b838110156102e95781810151838201526020016102d1565b50505050905090810190601f1680156103165780820380516001836020036101000a031916815260200191505b50838103825284518152845160209182019186019080838360005b83811015610349578181015183820152602001610331565b50505050905090810190601f1680156103765780820380516001836020036101000a031916815260200191505b509850505050505050505060405180910390f35b34801561039657600080fd5b506103a26004356110c7565b604051808763ffffffff1663ffffffff1681526020018663ffffffff1663ffffffff1681526020018581526020018463ffffffff1663ffffffff1681526020018060200180602001838103835285818151815260200191508051906020019060200280838360005b8381101561042257818101518382015260200161040a565b50505050905001838103825284818151815260200191508051906020019060200280838360005b83811015610461578181015183820152602001610449565b505050509050019850505050505050505060405180910390f35b34801561048757600080fd5b5061024261126d565b34801561049c57600080fd5b50610179611273565b3480156104b157600080fd5b50610242611422565b3480156104c657600080fd5b50610190611429565b3480156104db57600080fd5b50610242611438565b3480156104f057600080fd5b5061019061143e565b34801561050557600080fd5b5061050e61144d565b604080519115158252519081900360200190f35b34801561052e57600080fd5b50610179611463565b34801561054357600080fd5b506102426114d1565b34801561055857600080fd5b506101906114d7565b34801561056d57600080fd5b506105796004356114e6565b6040805163ffffffff9586168152938516602085015283810192909252909216606082015290519081900360800190f35b3480156105b657600080fd5b5061024261152c565b3480156105cb57600080fd5b50610190611532565b3480156105e057600080fd5b50610190611541565b3480156105f557600080fd5b50610242611550565b34801561060a57600080fd5b5061050e611556565b34801561061f57600080fd5b5061062861159e565b6040805163ffffffff9092168252519081900360200190f35b34801561064d57600080fd5b506101906115e5565b34801561066257600080fd5b506101c16115f4565b34801561067757600080fd5b506101c161166f565b34801561068c57600080fd5b5061026c6004356116f2565b3480156106a457600080fd5b50610179600435611860565b3480156106bc57600080fd5b50610179600160a060020a03600435166118ce565b3480156106dd57600080fd5b506101906118ee565b600080600080600080600080600160025414151561070357600080fd5b6002805561070f61144d565b151561077c57604080517f08c379a000000000000000000000000000000000000000000000000000000000815260206004820152601760248201527f53616c65206973206e6f74207374617274656420796574000000000000000000604482015290519081900360640190fd5b6000341161078957600080fd5b61079161166f565b509750600b888154811015156107a357fe5b9060005260206000209060050201600101549650600b888154811015156107c657fe5b600091825260209091206002600590920201015463ffffffff1695506107eb34610dec565b94506107f83488876118fd565b509350935093506000600754111561097e5760075461081e90859063ffffffff611ce716565b60048054600954600854604080517f23b872dd000000000000000000000000000000000000000000000000000000008152600160a060020a03938416958101959095529082166024850152604484018590525193945016916323b872dd916064808201926020929091908290030181600087803b15801561089e57600080fd5b505af11580156108b2573d6000803e3d6000fd5b505050506040513d60208110156108c857600080fd5b505115156108d557600080fd5b600354600954604080517fa9059cbb000000000000000000000000000000000000000000000000000000008152600160a060020a039283166004820152602481018590529051919092169163a9059cbb9160448083019260209291908290030181600087803b15801561094757600080fd5b505af115801561095b573d6000803e3d6000fd5b505050506040513d602081101561097157600080fd5b5051151561097e57600080fd5b600354604080517f9d2e47770000000000000000000000000000000000000000000000000000000081523360048201526024810187905263ffffffff891660448201529051600160a060020a0390921691639d2e4777916064808201926020929091908290030181600087803b1580156109f757600080fd5b505af1158015610a0b573d6000803e3d6000fd5b505050506040513d6020811015610a2157600080fd5b50511515610a2e57600080fd5b6000821115610a6657604051339083156108fc029084906000818181858888f19350505050158015610a64573d6000803e3d6000fd5b505b60006006541115610ac257600854600654600160a060020a03909116906108fc90610a9890869063ffffffff611ce716565b6040518115909202916000818181858888f19350505050158015610ac0573d6000803e3d6000fd5b505b600a54604080517f958799cb000000000000000000000000000000000000000000000000000000008152336004820152602481018790529051600160a060020a039092169163958799cb91620186a09130319160448082019260009290919082900301818589803b158015610b3657600080fd5b5088f1158015610b4a573d6000803e3d6000fd5b505060408051888152602081018a905280820188905290513395507f347f5f0051b895093800553e6e78ef332849e2552639a4f5ffe66535788ae07894509081900360600192509050a250506001600255505050505050565b600454600160a060020a031681565b600c5460009081901580610bcb5750610bc9611556565b155b15610bd557610be1565b5050600c546000190160015b9091565b600154600160a060020a03163314610bfc57600080fd5b600b5460001015610c395742600b6000815481101515610c1857fe5b600091825260209091206005909102015463ffffffff1611610c3957600080fd5b881515610c4557600080fd5b60ff891115610c5357600080fd5b60ff851115610c6157600080fd5b600283048514610c7057600080fd5b60028104851115610c8057600080fd5b610d198a8a808060200260200160405190810160405280939291908181526020016000905b82821015610ce1576040805160c08181019092529080840287019060069083908390808284375050509183525050600190910190602001610ca5565b505050505089898080602002602001604051908101604052809392919081815260200183836020028082843750611d21945050505050565b610de08686808060200260200160405190810160405280939291908181526020016000905b82821015610d7a576040805160808181019092529080840287019060049083908390808284375050509183525050600190910190602001610d3e565b50505050508585808060200260200160405190810160405280939291908181526020018383602002808284375050604080516020601f8b01819004810282018101909252898152945089935088925082915084018382808284375061222a945050505050565b50505050505050505050565b6000806000806000610dfc61166f565b93509350821515610e105760009450610e91565b600b805485908110610e1e57fe5b90600052602060002090600502019150600090505b6003820154811015610e915760038201805482908110610e4f57fe5b906000526020600020015486101515610e845760048201805482908110610e7257fe5b90600052602060002001549450610e89565b610e91565b600101610e33565b50505050919050565b600080600080606080600c87815481101515610eb257fe5b6000918252602090912060059091020154600c805463ffffffff9092169189908110610eda57fe5b906000526020600020906005020160010154600c89815481101515610efb57fe5b6000918252602090912060026005909202010154600c805463ffffffff909216918b908110610f2657fe5b906000526020600020906005020160020160049054906101000a900463ffffffff16600c8b815481101515610f5757fe5b9060005260206000209060050201600301600c8c815481101515610f7757fe5b9060005260206000209060050201600401818054600181600116156101000203166002900480601f01602080910402602001604051908101604052809291908181526020018280546001816001161561010002031660029004801561101d5780601f10610ff25761010080835404028352916020019161101d565b820191906000526020600020905b81548152906001019060200180831161100057829003601f168201915b5050845460408051602060026001851615610100026000190190941693909304601f8101849004840282018401909252818152959750869450925084019050828280156110ab5780601f10611080576101008083540402835291602001916110ab565b820191906000526020600020905b81548152906001019060200180831161108e57829003601f168201915b5050505050905095509550955095509550955091939550919395565b600080600080606080600b878154811015156110df57fe5b6000918252602090912060059091020154600b805463ffffffff909216918990811061110757fe5b906000526020600020906005020160000160049054906101000a900463ffffffff16600b8981548110151561113857fe5b906000526020600020906005020160010154600b8a81548110151561115957fe5b6000918252602090912060026005909202010154600b805463ffffffff909216918c90811061118457fe5b9060005260206000209060050201600301600b8c8154811015156111a457fe5b90600052602060002090600502016004018180548060200260200160405190810160405280929190818152602001828054801561120057602002820191906000526020600020905b8154815260200190600101908083116111ec575b50505050509150808054806020026020016040519081016040528092919081815260200182805480156110ab57602002820191906000526020600020905b81548152602001906001019080831161123e575050505050905095509550955095509550955091939550919395565b60075481565b600154600090600160a060020a0316331461128d57600080fd5b611295611556565b15156112a057600080fd5b600354604080517f70a082310000000000000000000000000000000000000000000000000000000081523060048201529051600160a060020a03909216916370a08231916024808201926020929091908290030181600087803b15801561130657600080fd5b505af115801561131a573d6000803e3d6000fd5b505050506040513d602081101561133057600080fd5b5051600354600154604080517fa9059cbb000000000000000000000000000000000000000000000000000000008152600160a060020a03928316600482015260248101859052905193945091169163a9059cbb916044808201926020929091908290030181600087803b1580156113a657600080fd5b505af11580156113ba573d6000803e3d6000fd5b505050506040513d60208110156113d057600080fd5b505115156113dd57600080fd5b600154604080518381529051600160a060020a03909216917f26ffb867a6b19bc0240d4e732ed6cfb0f0b6d93143a99cfb24ba5873308861f89181900360200190a250565b600c545b90565b600354600160a060020a031690565b60005481565b600854600160a060020a031681565b60008061145861166f565b9150508091505b5090565b600154600160a060020a0316331461147a57600080fd5b600154604051600160a060020a03909116907ff8df31144d9c2f0f6b59d69b8b98abd5459d07f2742c4df920b25aae33c6482090600090a26001805473ffffffffffffffffffffffffffffffffffffffff19169055565b600b5490565b600954600160a060020a031681565b600b8054829081106114f457fe5b600091825260209091206005909102018054600182015460029092015463ffffffff8083169450640100000000909204821692911684565b60065481565b600154600160a060020a031681565b600a54600160a060020a031690565b60055481565b600b5460009015806115995750600b8054429190600019810190811061157857fe5b6000918252602090912060059091020154640100000000900463ffffffff16105b905090565b600b5460009081106115af57600080fd5b600b805460001981019081106115c157fe5b6000918252602090912060059091020154640100000000900463ffffffff16919050565b600a54600160a060020a031681565b600c546000908190158061160d575061160b611556565b155b1561161757610be1565b5060015b600c54600019018210801561165f5750600c80548390811061163957fe5b6000918252602090912060059091020160020154640100000000900463ffffffff164210155b15610be15760019091019061161b565b60008080805b600b548210156116e457600b80548390811061168d57fe5b6000918252602090912060059091020180549091504263ffffffff909116118015906116c8575080544264010000000090910463ffffffff16115b156116d957816001935093506116ec565b600190910190611675565b600093508392505b50509091565b600c80548290811061170057fe5b60009182526020918290206005919091020180546001808301546002808501546003860180546040805161010097831615979097026000190190911693909304601f810189900489028601890190935282855263ffffffff95861698509296858216966401000000009092049095169490939291908301828280156117c65780601f1061179b576101008083540402835291602001916117c6565b820191906000526020600020905b8154815290600101906020018083116117a957829003601f168201915b5050505060048301805460408051602060026001851615610100026000190190941693909304601f81018490048402820184019092528181529495949350908301828280156118565780601f1061182b57610100808354040283529160200191611856565b820191906000526020600020905b81548152906001019060200180831161183957829003601f168201915b5050505050905086565b600154600160a060020a0316331461187757600080fd5b600b54600010156118b45742600b600081548110151561189357fe5b600091825260209091206005909102015463ffffffff16116118b457600080fd5b6008546118cb908290600160a060020a0316612788565b50565b600154600160a060020a031633146118e557600080fd5b6118cb816127de565b600354600160a060020a031681565b600354604080517f70a0823100000000000000000000000000000000000000000000000000000000815230600482015290516000928692849283928392600160a060020a03909116916370a082319160248082019260209290919082900301818787803b15801561196d57600080fd5b505af1158015611981573d6000803e3d6000fd5b505050506040513d602081101561199757600080fd5b5051600354604080517f313ce5670000000000000000000000000000000000000000000000000000000081529051929350600160a060020a039091169163313ce567916004808201926020929091908290030181600087803b1580156119fc57600080fd5b505af1158015611a10573d6000803e3d6000fd5b505050506040513d6020811015611a2657600080fd5b505160ff16600a0a811015611a3a57600080fd5b60008711611a4a57600554611ad2565b611ad28773__Percent_______________________________63d49d51816040518163ffffffff1660e060020a02815260040160206040518083038186803b158015611a9557600080fd5b505af4158015611aa9573d6000803e3d6000fd5b505050506040513d6020811015611abf57600080fd5b505160055491900363ffffffff611ce716565b9150611cb473__Percent_______________________________63d49d51816040518163ffffffff1660e060020a02815260040160206040518083038186803b158015611b1e57600080fd5b505af4158015611b32573d6000803e3d6000fd5b505050506040513d6020811015611b4857600080fd5b5051600354604080517f313ce5670000000000000000000000000000000000000000000000000000000081529051611ca89287928492600160a060020a039092169163313ce567916004808201926020929091908290030181600087803b158015611bb257600080fd5b505af1158015611bc6573d6000803e3d6000fd5b505050506040513d6020811015611bdc57600080fd5b5051604080517fd49d5181000000000000000000000000000000000000000000000000000000008152905160ff909216600a0a91611c9c918e9173__Percent_______________________________9163d49d5181916004808301926020929190829003018186803b158015611c5157600080fd5b505af4158015611c65573d6000803e3d6000fd5b505050506040513d6020811015611c7b57600080fd5b8101908080519060200190929190505050018f61285c90919063ffffffff16565b9063ffffffff61285c16565b9063ffffffff61288516565b945084811015611cdd57611cd285611ca88a8463ffffffff61285c16565b935083880392508094505b5093509350935093565b6000611cf28261289a565b1515611cfd57600080fd5b611d18611d086128bf565b611ca8858563ffffffff61285c16565b90505b92915050565b600c54600090811015611d7e57825183906000198101908110611d4057fe5b6020908102919091018101510151600c80546000908110611d5d57fe5b600091825260209091206005909102015463ffffffff1611611d7e57600080fd5b611d8a600b6000612cef565b5060005b82518160ff1610156121fc57825163ffffffff90849060ff8416908110611db157fe5b6020908102919091010151511115611dc857600080fd5b825163ffffffff90849060ff8416908110611ddf57fe5b60209081029190910181015101511115611df857600080fd5b825163ffffffff90849060ff8416908110611e0f57fe5b6020908102919091010151606001511115611e2957600080fd5b825160ff908490838316908110611e3c57fe5b6020908102919091010151608001511115611e5657600080fd5b825160ff908490838316908110611e6957fe5b602090810291909101015160a001511115611e8357600080fd5b42838260ff16815181101515611e9557fe5b60209081029190910101515111611eab57600080fd5b828160ff16815181101515611ebc57fe5b60209081029190910181015101518351849060ff8416908110611edb57fe5b60209081029190910101515110611ef157600080fd5b60008160ff161115611f4857828160ff16815181101515611f0e57fe5b6020908102919091010151518351849060ff600019850116908110611f2f57fe5b60209081029190910181015101511115611f4857600080fd5b611f73838260ff16815181101515611f5c57fe5b6020908102909101015160025b602002015161289a565b1515611f7e57600080fd5b73__Percent_______________________________63d49d51816040518163ffffffff1660e060020a02815260040160206040518083038186803b158015611fc557600080fd5b505af4158015611fd9573d6000803e3d6000fd5b505050506040513d6020811015611fef57600080fd5b50518351849060ff841690811061200257fe5b6020908102919091010151604001511061201b57600080fd5b600b60c060405190810160405280858460ff1681518110151561203a57fe5b6020908102919091018101515163ffffffff1682528651910190869060ff861690811061206357fe5b602090810290910101516001602002015163ffffffff168152602001858460ff1681518110151561209057fe5b60209081029091010151600260200201518152602001858460ff168151811015156120b757fe5b6020908102919091018101516060015163ffffffff16825260408051600080825281840183528484019190915281518181529283018252920191509052815460018082018085556000948552602094859020845160059094020180548587015163ffffffff1991821663ffffffff9687161767ffffffff00000000191664010000000091871691909102178255604086015193820193909355606085015160028201805490941694169390931790915560808301518051919461218292600385019290910190612d10565b5060a0820151805161219e916004840191602090910190612d10565b505050506121f46001600b8054905003848360ff168151811015156121bf57fe5b6020908102919091010151608001518551869060ff86169081106121df57fe5b602090810291909101015160a00151856128d1565b600101611d8e565b6040517f743961f4e677d1146fbf85d75565b1c5474fd083eb166f8b9595cf5d01a4d6e690600090a1505050565b6000806000806060806000600b8054905011156122975788600081518110151561225057fe5b602090810291909101015151600b8054600019810190811061226e57fe5b6000918252602090912060059091020154640100000000900463ffffffff161061229757600080fd5b6122a3600c6000612d57565b600095506000945060009350600092505b88518360ff1610156126d657885163ffffffff908a9060ff86169081106122d757fe5b60209081029190910101515111156122ee57600080fd5b885163ffffffff908a9060ff861690811061230557fe5b6020908102919091018101510151111561231e57600080fd5b885163ffffffff908a9060ff861690811061233557fe5b602090810291909101015160400151111561234f57600080fd5b42898460ff1681518110151561236157fe5b6020908102919091010151511161237757600080fd5b888360ff1681518110151561238857fe5b60209081029190910101515189518a9060ff86169081106123a557fe5b6020908102919091018101510151116123bd57600080fd5b888360ff168151811015156123ce57fe5b602090810291909101810151015189518a9060ff86169081106123ed57fe5b6020908102919091010151604001511161240657600080fd5b60008360ff16111561245d57888360ff1681518110151561242357fe5b60209081029190910101515189518a9060ff60001987011690811061244457fe5b6020908102919091010151604001511061245d57600080fd5b612482898460ff1681518110151561247157fe5b602090810290910101516003611f69565b151561248d57600080fd5b6124bf86898781518110151561249f57fe5b9060200190602002015163ffffffff1689612c459092919063ffffffff16565b91506124f188868151811015156124d257fe5b9060200190602002015163ffffffff1687612cc690919063ffffffff16565b955061250886898760010181518110151561249f57fe5b905061251e88866001018151811015156124d257fe5b955061253185600263ffffffff612cc616565b945061255d898460ff1681518110151561254757fe5b6020908102919091010151606001518590612cc6565b9350600c60c0604051908101604052808b8660ff1681518110151561257e57fe5b6020908102919091018101515163ffffffff1682528c519101908c9060ff88169081106125a757fe5b602090810290910101516003602002015181526020018b8660ff168151811015156125ce57fe5b602090810290910101516001602002015163ffffffff1681526020018b8660ff168151811015156125fb57fe5b6020908102909101015160026020908102919091015163ffffffff90811683528282018790526040928301869052845460018181018088556000978852968490208651600590930201805492841663ffffffff19938416178155868501519181019190915593850151600285018054606088015185166401000000000267ffffffff00000000199390951693169290921716919091179055608083015180516126aa9260038501920190612d78565b5060a082015180516126c6916004840191602090910190612d78565b5050600190940193506122b49050565b73__Percent_______________________________63d49d51816040518163ffffffff1660e060020a02815260040160206040518083038186803b15801561271d57600080fd5b505af4158015612731573d6000803e3d6000fd5b505050506040513d602081101561274757600080fd5b5051841461275457600080fd5b6040517f56d9a2e016027a3725bf162ef2779c8b28d4dbec97c679cfba02dbb31a34c7ca90600090a1505050505050505050565b6000821161279557600080fd5b600160a060020a03811615156127aa57600080fd5b6005919091556008805473ffffffffffffffffffffffffffffffffffffffff1916600160a060020a03909216919091179055565b600160a060020a03811615156127f357600080fd5b600154604051600160a060020a038084169216907f8be0079c531659141344cd1fd0a4f28419497f9722a3daafe3b4186f6b6457e090600090a36001805473ffffffffffffffffffffffffffffffffffffffff1916600160a060020a0392909216919091179055565b600082151561286d57506000611d1b565b5081810281838281151561287d57fe5b0414611d1b57fe5b6000818381151561289257fe5b049392505050565b60006128a4612cd3565b8210158015611d1b57506128b66128bf565b82111592915050565b60006128c9612cd8565b600a0a905090565b606080600060ff86161580156128e8575060ff8516155b1561297c57604080516000815260208101909152600b805460ff8a1690811061290d57fe5b90600052602060002090600502016003019080519060200190612931929190612d10565b50604080516000815260208101909152600b805460ff8a1690811061295257fe5b90600052602060002090600502016004019080519060200190612976929190612d10565b50612c3c565b835160ff8616111561298d57600080fd5b60ff8086169087161061299f57600080fd5b60018616156129ad57600080fd5b60018516156129bb57600080fd5b600260ff878703160460ff166040519080825280602002602001820160405280156129f0578160200160208202803883390190505b509250600260ff878703160460ff16604051908082528060200260200182016040528015612a28578160200160208202803883390190505b509150600090505b8460ff168660ff161015612bcb57612a64848760010160ff16815181101515612a5557fe5b9060200190602002015161289a565b1515612a6f57600080fd5b73__Percent_______________________________63d49d51816040518163ffffffff1660e060020a02815260040160206040518083038186803b158015612ab657600080fd5b505af4158015612aca573d6000803e3d6000fd5b505050506040513d6020811015612ae057600080fd5b50518451859060ff60018a0116908110612af657fe5b6020908102909101015110612b0a57600080fd5b6000811115612b5357838660ff16815181101515612b2457fe5b906020019060200201518360018303815181101515612b3f57fe5b6020908102909101015110612b5357600080fd5b838660ff16815181101515612b6457fe5b906020019060200201518382815181101515612b7c57fe5b602090810290910101528351849060ff6001890116908110612b9a57fe5b906020019060200201518282815181101515612bb257fe5b6020908102909101015260029590950194600101612a30565b82600b8860ff16815481101515612bde57fe5b90600052602060002090600502016003019080519060200190612c02929190612d10565b5081600b8860ff16815481101515612c1657fe5b90600052602060002090600502016004019080519060200190612c3a929190612d10565b505b50505050505050565b606080828401855110151515612c5a57600080fd5b82158015612c7357604051915060208201604052612cbd565b6040519150601f8416801560200281840101858101878315602002848b0101015b81831015612cac578051835260209283019201612c94565b5050858452601f01601f1916604052505b50949350505050565b81810182811015611d1b57fe5b600090565b6000612ce2612cea565b600201905090565b600290565b50805460008255600502906000526020600020908101906118cb9190612de5565b828054828255906000526020600020908101928215612d4b579160200282015b82811115612d4b578251825591602001919060010190612d30565b5061145f929150612e3e565b50805460008255600502906000526020600020908101906118cb9190612e58565b828054600181600116156101000203166002900490600052602060002090601f016020900481019282601f10612db957805160ff1916838001178555612d4b565b82800160010185558215612d4b5791820182811115612d4b578251825591602001919060010190612d30565b61142691905b8082111561145f57805467ffffffffffffffff1916815560006001820181905560028201805463ffffffff19169055612e276003830182612eb1565b612e35600483016000612eb1565b50600501612deb565b61142691905b8082111561145f5760008155600101612e44565b61142691905b8082111561145f57805463ffffffff1916815560006001820181905560028201805467ffffffffffffffff19169055612e9a6003830182612ecf565b612ea8600483016000612ecf565b50600501612e5e565b50805460008255906000526020600020908101906118cb9190612e3e565b50805460018160011615610100020316600290046000825580601f10612ef557506118cb565b601f0160209004906000526020600020908101906118cb9190612e3e565b6000612f1e8261289a565b1515612f2957600080fd5b611d1b612f34612cea565b8390600a0a63ffffffff612885165600a165627a7a723058203ce0a7818a4cdac0ff4e8080cd0047e30ebc76baace56a05be22828fe323a5670029a165627a7a723058208e068a6e1178a8df77217ca1709aa95d1677c8d924664e23a7d11bfd4bbfd3c30029",
  "source": "pragma solidity ^0.4.24;\n\nimport \"./interfaces/IW12CrowdsaleFactory.sol\";\nimport \"./interfaces/IW12FundFactory.sol\";\nimport \"./W12Crowdsale.sol\";\nimport \"./versioning/Versionable.sol\";\n\n\ncontract W12CrowdsaleFactory is Versionable, IW12CrowdsaleFactory {\n    IW12FundFactory private fundFactory;\n\n    event CrowdsaleCreated(address indexed owner, address indexed token, address crowdsaleAddress, address fundAddress);\n\n    constructor(uint version, IW12FundFactory _fundFactory) Versionable(version) public {\n        require(_fundFactory != address(0), \"Factory address required\");\n\n        fundFactory = _fundFactory;\n    }\n\n    function createCrowdsale(\n        address tokenAddress,\n        address wTokenAddress,\n        uint price,\n        address serviceWallet,\n        uint serviceFee,\n        uint WTokenSaleFeePercent,\n        uint trancheFeePercent,\n        address swap,\n        address owner\n    )\n        external returns (IW12Crowdsale result)\n    {\n        IW12Fund fund = fundFactory.createFund(swap, serviceWallet, trancheFeePercent);\n\n        result = new W12Crowdsale(\n            version,\n            tokenAddress,\n            wTokenAddress,\n            price,\n            serviceWallet,\n            swap,\n            serviceFee,\n            WTokenSaleFeePercent,\n            fund\n        );\n\n        result.transferOwnership(owner);\n\n        fund.setCrowdsale(result);\n        fund.transferOwnership(owner);\n\n        emit CrowdsaleCreated(owner, wTokenAddress, address(result), fund);\n    }\n}\n",
  "sourcePath": "/c/Users/Mr.Hokid/projects/work/w12-product-contracts/contracts/W12CrowdsaleFactory.sol",
  "compiler": {
    "name": "solc",
    "version": "0.4.24+commit.e67f0147.Emscripten.clang"
  },
  "schemaVersion": "2.0.1",
  "updatedAt": "2018-11-14T15:43:09.306Z"
}