{
  "contractName": "W12Crowdsale",
  "abi": [
    {
      "constant": true,
      "inputs": [],
      "name": "originToken",
      "outputs": [
        {
          "name": "",
          "type": "address"
        }
      ],
      "payable": false,
      "stateMutability": "view",
      "type": "function"
    },
    {
      "constant": false,
      "inputs": [
        {
          "name": "recipient",
          "type": "address"
        }
      ],
      "name": "transferPrimary",
      "outputs": [],
      "payable": false,
      "stateMutability": "nonpayable",
      "type": "function"
    },
    {
      "constant": true,
      "inputs": [
        {
          "name": "account",
          "type": "address"
        }
      ],
      "name": "isAdmin",
      "outputs": [
        {
          "name": "",
          "type": "bool"
        }
      ],
      "payable": false,
      "stateMutability": "view",
      "type": "function"
    },
    {
      "constant": true,
      "inputs": [],
      "name": "refund_date",
      "outputs": [
        {
          "name": "",
          "type": "uint256"
        }
      ],
      "payable": false,
      "stateMutability": "view",
      "type": "function"
    },
    {
      "constant": true,
      "inputs": [],
      "name": "WTokenSaleFeePercent",
      "outputs": [
        {
          "name": "",
          "type": "uint256"
        }
      ],
      "payable": false,
      "stateMutability": "view",
      "type": "function"
    },
    {
      "constant": true,
      "inputs": [],
      "name": "rates",
      "outputs": [
        {
          "name": "",
          "type": "address"
        }
      ],
      "payable": false,
      "stateMutability": "view",
      "type": "function"
    },
    {
      "constant": true,
      "inputs": [],
      "name": "version",
      "outputs": [
        {
          "name": "",
          "type": "uint256"
        }
      ],
      "payable": false,
      "stateMutability": "view",
      "type": "function"
    },
    {
      "constant": true,
      "inputs": [],
      "name": "serviceWallet",
      "outputs": [
        {
          "name": "",
          "type": "address"
        }
      ],
      "payable": false,
      "stateMutability": "view",
      "type": "function"
    },
    {
      "constant": true,
      "inputs": [],
      "name": "project_type",
      "outputs": [
        {
          "name": "",
          "type": "uint8"
        }
      ],
      "payable": false,
      "stateMutability": "view",
      "type": "function"
    },
    {
      "constant": true,
      "inputs": [],
      "name": "swap",
      "outputs": [
        {
          "name": "",
          "type": "address"
        }
      ],
      "payable": false,
      "stateMutability": "view",
      "type": "function"
    },
    {
      "constant": true,
      "inputs": [
        {
          "name": "",
          "type": "uint256"
        }
      ],
      "name": "stages",
      "outputs": [
        {
          "name": "startDate",
          "type": "uint32"
        },
        {
          "name": "endDate",
          "type": "uint32"
        },
        {
          "name": "discount",
          "type": "uint256"
        },
        {
          "name": "vesting",
          "type": "uint32"
        }
      ],
      "payable": false,
      "stateMutability": "view",
      "type": "function"
    },
    {
      "constant": true,
      "inputs": [],
      "name": "serviceFee",
      "outputs": [
        {
          "name": "",
          "type": "uint256"
        }
      ],
      "payable": false,
      "stateMutability": "view",
      "type": "function"
    },
    {
      "constant": false,
      "inputs": [],
      "name": "renounceAdmin",
      "outputs": [],
      "payable": false,
      "stateMutability": "nonpayable",
      "type": "function"
    },
    {
      "constant": true,
      "inputs": [],
      "name": "price",
      "outputs": [
        {
          "name": "",
          "type": "uint256"
        }
      ],
      "payable": false,
      "stateMutability": "view",
      "type": "function"
    },
    {
      "constant": true,
      "inputs": [],
      "name": "fund",
      "outputs": [
        {
          "name": "",
          "type": "address"
        }
      ],
      "payable": false,
      "stateMutability": "view",
      "type": "function"
    },
    {
      "constant": true,
      "inputs": [],
      "name": "primary",
      "outputs": [
        {
          "name": "",
          "type": "address"
        }
      ],
      "payable": false,
      "stateMutability": "view",
      "type": "function"
    },
    {
      "constant": false,
      "inputs": [],
      "name": "renounceProjectOwner",
      "outputs": [],
      "payable": false,
      "stateMutability": "nonpayable",
      "type": "function"
    },
    {
      "constant": true,
      "inputs": [
        {
          "name": "account",
          "type": "address"
        }
      ],
      "name": "isProjectOwner",
      "outputs": [
        {
          "name": "",
          "type": "bool"
        }
      ],
      "payable": false,
      "stateMutability": "view",
      "type": "function"
    },
    {
      "constant": true,
      "inputs": [],
      "name": "project_name",
      "outputs": [
        {
          "name": "",
          "type": "string"
        }
      ],
      "payable": false,
      "stateMutability": "view",
      "type": "function"
    },
    {
      "constant": true,
      "inputs": [
        {
          "name": "",
          "type": "uint256"
        }
      ],
      "name": "milestones",
      "outputs": [
        {
          "name": "endDate",
          "type": "uint32"
        },
        {
          "name": "tranchePercent",
          "type": "uint256"
        },
        {
          "name": "voteEndDate",
          "type": "uint32"
        },
        {
          "name": "withdrawalWindow",
          "type": "uint32"
        },
        {
          "name": "name",
          "type": "bytes"
        },
        {
          "name": "description",
          "type": "bytes"
        }
      ],
      "payable": false,
      "stateMutability": "view",
      "type": "function"
    },
    {
      "constant": true,
      "inputs": [],
      "name": "token",
      "outputs": [
        {
          "name": "",
          "type": "address"
        }
      ],
      "payable": false,
      "stateMutability": "view",
      "type": "function"
    },
    {
      "inputs": [
        {
          "name": "version",
          "type": "uint256"
        },
        {
          "name": "_originToken",
          "type": "address"
        },
        {
          "name": "_token",
          "type": "address"
        },
        {
          "name": "_price",
          "type": "uint256"
        },
        {
          "name": "_serviceWallet",
          "type": "address"
        },
        {
          "name": "_swap",
          "type": "address"
        },
        {
          "name": "_serviceFee",
          "type": "uint256"
        },
        {
          "name": "_wTokenSaleFeePercent",
          "type": "uint256"
        },
        {
          "name": "_fund",
          "type": "address"
        },
        {
          "name": "_rates",
          "type": "address"
        }
      ],
      "payable": false,
      "stateMutability": "nonpayable",
      "type": "constructor"
    },
    {
      "anonymous": false,
      "inputs": [
        {
          "indexed": true,
          "name": "buyer",
          "type": "address"
        },
        {
          "indexed": false,
          "name": "tokensBought",
          "type": "uint256"
        },
        {
          "indexed": false,
          "name": "cost",
          "type": "uint256"
        },
        {
          "indexed": false,
          "name": "change",
          "type": "uint256"
        }
      ],
      "name": "TokenPurchase",
      "type": "event"
    },
    {
      "anonymous": false,
      "inputs": [],
      "name": "StagesUpdated",
      "type": "event"
    },
    {
      "anonymous": false,
      "inputs": [
        {
          "indexed": false,
          "name": "index",
          "type": "uint256"
        }
      ],
      "name": "StageUpdated",
      "type": "event"
    },
    {
      "anonymous": false,
      "inputs": [],
      "name": "MilestonesUpdated",
      "type": "event"
    },
    {
      "anonymous": false,
      "inputs": [],
      "name": "CrowdsaleSetUpDone",
      "type": "event"
    },
    {
      "anonymous": false,
      "inputs": [
        {
          "indexed": true,
          "name": "owner",
          "type": "address"
        },
        {
          "indexed": false,
          "name": "amount",
          "type": "uint256"
        }
      ],
      "name": "UnsoldTokenReturned",
      "type": "event"
    },
    {
      "anonymous": false,
      "inputs": [
        {
          "indexed": false,
          "name": "recipient",
          "type": "address"
        }
      ],
      "name": "PrimaryTransferred",
      "type": "event"
    },
    {
      "anonymous": false,
      "inputs": [
        {
          "indexed": true,
          "name": "account",
          "type": "address"
        }
      ],
      "name": "ProjectOwnerAdded",
      "type": "event"
    },
    {
      "anonymous": false,
      "inputs": [
        {
          "indexed": true,
          "name": "account",
          "type": "address"
        }
      ],
      "name": "ProjectOwnerRemoved",
      "type": "event"
    },
    {
      "anonymous": false,
      "inputs": [
        {
          "indexed": true,
          "name": "account",
          "type": "address"
        }
      ],
      "name": "AdminAdded",
      "type": "event"
    },
    {
      "anonymous": false,
      "inputs": [
        {
          "indexed": true,
          "name": "account",
          "type": "address"
        }
      ],
      "name": "AdminRemoved",
      "type": "event"
    },
    {
      "constant": false,
      "inputs": [
        {
          "name": "_price",
          "type": "uint256"
        }
      ],
      "name": "setParameters",
      "outputs": [],
      "payable": false,
      "stateMutability": "nonpayable",
      "type": "function"
    },
    {
      "constant": false,
      "inputs": [
        {
          "name": "parametersOfStages",
          "type": "uint256[6][]"
        },
        {
          "name": "bonusConditionsOfStages",
          "type": "uint256[]"
        },
        {
          "name": "parametersOfMilestones",
          "type": "uint256[4][]"
        },
        {
          "name": "nameAndDescriptionsOffsetOfMilestones",
          "type": "uint32[]"
        },
        {
          "name": "nameAndDescriptionsOfMilestones",
          "type": "bytes"
        },
        {
          "name": "paymentMethodsList",
          "type": "bytes32[]"
        }
      ],
      "name": "setup",
      "outputs": [],
      "payable": false,
      "stateMutability": "nonpayable",
      "type": "function"
    },
    {
      "constant": false,
      "inputs": [],
      "name": "claimRemainingTokens",
      "outputs": [],
      "payable": false,
      "stateMutability": "nonpayable",
      "type": "function"
    },
    {
      "constant": true,
      "inputs": [],
      "name": "stagesLength",
      "outputs": [
        {
          "name": "",
          "type": "uint256"
        }
      ],
      "payable": false,
      "stateMutability": "view",
      "type": "function"
    },
    {
      "constant": true,
      "inputs": [],
      "name": "milestonesLength",
      "outputs": [
        {
          "name": "",
          "type": "uint256"
        }
      ],
      "payable": false,
      "stateMutability": "view",
      "type": "function"
    },
    {
      "constant": true,
      "inputs": [],
      "name": "getEndDate",
      "outputs": [
        {
          "name": "",
          "type": "uint32"
        }
      ],
      "payable": false,
      "stateMutability": "view",
      "type": "function"
    },
    {
      "constant": true,
      "inputs": [],
      "name": "getWToken",
      "outputs": [
        {
          "name": "",
          "type": "address"
        }
      ],
      "payable": false,
      "stateMutability": "view",
      "type": "function"
    },
    {
      "constant": true,
      "inputs": [],
      "name": "getFund",
      "outputs": [
        {
          "name": "",
          "type": "address"
        }
      ],
      "payable": false,
      "stateMutability": "view",
      "type": "function"
    },
    {
      "constant": true,
      "inputs": [],
      "name": "getPaymentMethodsList",
      "outputs": [
        {
          "name": "",
          "type": "bytes32[]"
        }
      ],
      "payable": false,
      "stateMutability": "view",
      "type": "function"
    },
    {
      "constant": true,
      "inputs": [
        {
          "name": "_method",
          "type": "bytes32"
        }
      ],
      "name": "isPaymentMethodAllowed",
      "outputs": [
        {
          "name": "",
          "type": "bool"
        }
      ],
      "payable": false,
      "stateMutability": "view",
      "type": "function"
    },
    {
      "constant": true,
      "inputs": [
        {
          "name": "method",
          "type": "bytes32"
        },
        {
          "name": "amount",
          "type": "uint256"
        }
      ],
      "name": "getInvoice",
      "outputs": [
        {
          "name": "",
          "type": "uint256[5]"
        }
      ],
      "payable": false,
      "stateMutability": "view",
      "type": "function"
    },
    {
      "constant": false,
      "inputs": [
        {
          "name": "_account",
          "type": "address"
        }
      ],
      "name": "addAdmin",
      "outputs": [],
      "payable": false,
      "stateMutability": "nonpayable",
      "type": "function"
    },
    {
      "constant": false,
      "inputs": [
        {
          "name": "_account",
          "type": "address"
        }
      ],
      "name": "removeAdmin",
      "outputs": [],
      "payable": false,
      "stateMutability": "nonpayable",
      "type": "function"
    },
    {
      "constant": false,
      "inputs": [
        {
          "name": "_account",
          "type": "address"
        }
      ],
      "name": "addProjectOwner",
      "outputs": [],
      "payable": false,
      "stateMutability": "nonpayable",
      "type": "function"
    },
    {
      "constant": false,
      "inputs": [
        {
          "name": "_account",
          "type": "address"
        }
      ],
      "name": "removeProjectOwner",
      "outputs": [],
      "payable": false,
      "stateMutability": "nonpayable",
      "type": "function"
    },
    {
      "constant": true,
      "inputs": [
        {
          "name": "index",
          "type": "uint256"
        }
      ],
      "name": "getMilestone",
      "outputs": [
        {
          "name": "",
          "type": "uint32"
        },
        {
          "name": "",
          "type": "uint256"
        },
        {
          "name": "",
          "type": "uint32"
        },
        {
          "name": "",
          "type": "uint32"
        },
        {
          "name": "",
          "type": "bytes"
        },
        {
          "name": "",
          "type": "bytes"
        }
      ],
      "payable": false,
      "stateMutability": "view",
      "type": "function"
    },
    {
      "constant": true,
      "inputs": [
        {
          "name": "index",
          "type": "uint256"
        }
      ],
      "name": "getStage",
      "outputs": [
        {
          "name": "",
          "type": "uint32"
        },
        {
          "name": "",
          "type": "uint32"
        },
        {
          "name": "",
          "type": "uint256"
        },
        {
          "name": "",
          "type": "uint32"
        },
        {
          "name": "",
          "type": "uint256[]"
        },
        {
          "name": "",
          "type": "uint256[]"
        }
      ],
      "payable": false,
      "stateMutability": "view",
      "type": "function"
    },
    {
      "constant": true,
      "inputs": [],
      "name": "getCurrentMilestoneIndex",
      "outputs": [
        {
          "name": "index",
          "type": "uint256"
        },
        {
          "name": "found",
          "type": "bool"
        }
      ],
      "payable": false,
      "stateMutability": "view",
      "type": "function"
    },
    {
      "constant": true,
      "inputs": [],
      "name": "getLastMilestoneIndex",
      "outputs": [
        {
          "name": "index",
          "type": "uint256"
        },
        {
          "name": "found",
          "type": "bool"
        }
      ],
      "payable": false,
      "stateMutability": "view",
      "type": "function"
    },
    {
      "constant": false,
      "inputs": [
        {
          "name": "method",
          "type": "bytes32"
        },
        {
          "name": "has",
          "type": "bool"
        },
        {
          "name": "value",
          "type": "uint256"
        }
      ],
      "name": "updatePurchaseFeeParameterForPaymentMethod",
      "outputs": [],
      "payable": false,
      "stateMutability": "nonpayable",
      "type": "function"
    },
    {
      "constant": true,
      "inputs": [
        {
          "name": "method",
          "type": "bytes32"
        }
      ],
      "name": "getPurchaseFeeParameterForPaymentMethod",
      "outputs": [
        {
          "name": "",
          "type": "bool"
        },
        {
          "name": "",
          "type": "uint256"
        }
      ],
      "payable": false,
      "stateMutability": "view",
      "type": "function"
    },
    {
      "constant": true,
      "inputs": [
        {
          "name": "method",
          "type": "bytes32"
        }
      ],
      "name": "getPurchaseFeeForPaymentMethod",
      "outputs": [
        {
          "name": "",
          "type": "uint256"
        }
      ],
      "payable": false,
      "stateMutability": "view",
      "type": "function"
    },
    {
      "constant": true,
      "inputs": [
        {
          "name": "tokenAmount",
          "type": "uint256"
        },
        {
          "name": "cost",
          "type": "uint256"
        },
        {
          "name": "method",
          "type": "bytes32"
        }
      ],
      "name": "getFee",
      "outputs": [
        {
          "name": "",
          "type": "uint256[2]"
        }
      ],
      "payable": false,
      "stateMutability": "view",
      "type": "function"
    },
    {
      "constant": true,
      "inputs": [
        {
          "name": "value",
          "type": "uint256"
        }
      ],
      "name": "getSaleVolumeBonus",
      "outputs": [
        {
          "name": "bonus",
          "type": "uint256"
        }
      ],
      "payable": false,
      "stateMutability": "view",
      "type": "function"
    },
    {
      "constant": true,
      "inputs": [],
      "name": "getCurrentStageIndex",
      "outputs": [
        {
          "name": "index",
          "type": "uint256"
        },
        {
          "name": "found",
          "type": "bool"
        }
      ],
      "payable": false,
      "stateMutability": "view",
      "type": "function"
    },
    {
      "constant": false,
      "inputs": [
        {
          "name": "method",
          "type": "bytes32"
        },
        {
          "name": "amount",
          "type": "uint256"
        }
      ],
      "name": "buyTokens",
      "outputs": [],
      "payable": true,
      "stateMutability": "payable",
      "type": "function"
    },
    {
      "constant": true,
      "inputs": [
        {
          "name": "method",
          "type": "bytes32"
        },
        {
          "name": "tokenAmount",
          "type": "uint256"
        }
      ],
      "name": "getInvoiceByTokenAmount",
      "outputs": [
        {
          "name": "",
          "type": "uint256[4]"
        }
      ],
      "payable": false,
      "stateMutability": "view",
      "type": "function"
    },
    {
      "constant": true,
      "inputs": [],
      "name": "isEnded",
      "outputs": [
        {
          "name": "",
          "type": "bool"
        }
      ],
      "payable": false,
      "stateMutability": "view",
      "type": "function"
    },
    {
      "constant": true,
      "inputs": [],
      "name": "isSaleActive",
      "outputs": [
        {
          "name": "",
          "type": "bool"
        }
      ],
      "payable": false,
      "stateMutability": "view",
      "type": "function"
    },
    {
      "constant": true,
      "inputs": [],
      "name": "getProjectType",
      "outputs": [
        {
          "name": "",
          "type": "uint8"
        }
      ],
      "payable": false,
      "stateMutability": "view",
      "type": "function"
    },
    {
      "constant": false,
      "inputs": [
        {
          "name": "val_type",
          "type": "uint8"
        }
      ],
      "name": "setProjectType",
      "outputs": [],
      "payable": false,
      "stateMutability": "nonpayable",
      "type": "function"
    },
    {
      "constant": true,
      "inputs": [],
      "name": "getProjectName",
      "outputs": [
        {
          "name": "",
          "type": "string"
        }
      ],
      "payable": false,
      "stateMutability": "view",
      "type": "function"
    },
    {
      "constant": false,
      "inputs": [
        {
          "name": "val_name",
          "type": "string"
        }
      ],
      "name": "setProjectName",
      "outputs": [],
      "payable": false,
      "stateMutability": "nonpayable",
      "type": "function"
    },
    {
      "constant": true,
      "inputs": [],
      "name": "getRefundDate",
      "outputs": [
        {
          "name": "",
          "type": "uint256"
        }
      ],
      "payable": false,
      "stateMutability": "view",
      "type": "function"
    },
    {
      "constant": false,
      "inputs": [
        {
          "name": "val",
          "type": "uint256"
        }
      ],
      "name": "setRefundDate",
      "outputs": [],
      "payable": false,
      "stateMutability": "nonpayable",
      "type": "function"
    }
  ],
  "bytecode": "0x60806040523480156200001157600080fd5b5060405161014080620067268339810180604052810190808051906020019092919080519060200190929190805190602001909291908051906020019092919080519060200190929190805190602001909291908051906020019092919080519060200190929190805190602001909291908051906020019092919050505089620000ab3362000726640100000000026401000000009004565b620000c53362000790640100000000026401000000009004565b806002819055505033600360006101000a81548173ffffffffffffffffffffffffffffffffffffffff021916908373ffffffffffffffffffffffffffffffffffffffff1602179055507f4101e71e974f68df5e9730cc223280b41654676bbb052cdcc735c3337e64d2d9600360009054906101000a900473ffffffffffffffffffffffffffffffffffffffff16604051808273ffffffffffffffffffffffffffffffffffffffff1673ffffffffffffffffffffffffffffffffffffffff16815260200191505060405180910390a16001600481905550600073ffffffffffffffffffffffffffffffffffffffff168973ffffffffffffffffffffffffffffffffffffffff1614151515620001d857600080fd5b600073ffffffffffffffffffffffffffffffffffffffff168873ffffffffffffffffffffffffffffffffffffffff16141515156200021557600080fd5b8373__Percent_______________________________63520b006690916040518263ffffffff167c01000000000000000000000000000000000000000000000000000000000281526004018082815260200191505060206040518083038186803b1580156200028357600080fd5b505af415801562000298573d6000803e3d6000fd5b505050506040513d6020811015620002af57600080fd5b8101908080519060200190929190505050801562000377575060648473__Percent_______________________________630fe9114790916040518263ffffffff167c01000000000000000000000000000000000000000000000000000000000281526004018082815260200191505060206040518083038186803b1580156200033857600080fd5b505af41580156200034d573d6000803e3d6000fd5b505050506040513d60208110156200036457600080fd5b8101908080519060200190929190505050105b15156200038357600080fd5b8273__Percent_______________________________63520b006690916040518263ffffffff167c01000000000000000000000000000000000000000000000000000000000281526004018082815260200191505060206040518083038186803b158015620003f157600080fd5b505af415801562000406573d6000803e3d6000fd5b505050506040513d60208110156200041d57600080fd5b81019080805190602001909291905050508015620004e5575060648373__Percent_______________________________630fe9114790916040518263ffffffff167c01000000000000000000000000000000000000000000000000000000000281526004018082815260200191505060206040518083038186803b158015620004a657600080fd5b505af4158015620004bb573d6000803e3d6000fd5b505050506040513d6020811015620004d257600080fd5b8101908080519060200190929190505050105b1515620004f157600080fd5b600073ffffffffffffffffffffffffffffffffffffffff168273ffffffffffffffffffffffffffffffffffffffff16141515156200052e57600080fd5b600073ffffffffffffffffffffffffffffffffffffffff168573ffffffffffffffffffffffffffffffffffffffff16141515156200056b57600080fd5b600073ffffffffffffffffffffffffffffffffffffffff168173ffffffffffffffffffffffffffffffffffffffff1614151515620005a857600080fd5b620005c38787620007fa640100000000026401000000009004565b87600560006101000a81548173ffffffffffffffffffffffffffffffffffffffff021916908373ffffffffffffffffffffffffffffffffffffffff16021790555088600660006101000a81548173ffffffffffffffffffffffffffffffffffffffff021916908373ffffffffffffffffffffffffffffffffffffffff16021790555083600a8190555084600d60006101000a81548173ffffffffffffffffffffffffffffffffffffffff021916908373ffffffffffffffffffffffffffffffffffffffff16021790555082600b8190555081600760006101000a81548173ffffffffffffffffffffffffffffffffffffffff021916908373ffffffffffffffffffffffffffffffffffffffff16021790555080600860006101000a81548173ffffffffffffffffffffffffffffffffffffffff021916908373ffffffffffffffffffffffffffffffffffffffff16021790555050505050505050505050620009eb565b6200074a816000620008936401000000000262005b42179091906401000000009004565b8073ffffffffffffffffffffffffffffffffffffffff167f44d6d25963f097ad14f29f06854a01f575648a1ef82f30e562ccd3889717e33960405160405180910390a250565b620007b4816001620008936401000000000262005b42179091906401000000009004565b8073ffffffffffffffffffffffffffffffffffffffff167f941e31c3e651de34a7fcf0132d9d02c2df9377e6b5f932bec5daf6353c94f90e60405160405180910390a250565b6000821115156200080a57600080fd5b600073ffffffffffffffffffffffffffffffffffffffff168173ffffffffffffffffffffffffffffffffffffffff16141515156200084757600080fd5b8160098190555080600c60006101000a81548173ffffffffffffffffffffffffffffffffffffffff021916908373ffffffffffffffffffffffffffffffffffffffff1602179055505050565b600073ffffffffffffffffffffffffffffffffffffffff168173ffffffffffffffffffffffffffffffffffffffff1614151515620008d057600080fd5b620008eb828262000956640100000000026401000000009004565b151515620008f857600080fd5b60018260000160008373ffffffffffffffffffffffffffffffffffffffff1673ffffffffffffffffffffffffffffffffffffffff16815260200190815260200160002060006101000a81548160ff0219169083151502179055505050565b60008073ffffffffffffffffffffffffffffffffffffffff168273ffffffffffffffffffffffffffffffffffffffff16141515156200099457600080fd5b8260000160008373ffffffffffffffffffffffffffffffffffffffff1673ffffffffffffffffffffffffffffffffffffffff16815260200190815260200160002060009054906101000a900460ff16905092915050565b615d2b80620009fb6000396000f30060806040526004361061029e576000357c0100000000000000000000000000000000000000000000000000000000900463ffffffff16806307f5d633146102a357806311eb8c9f146102d157806313096a411461031a57806313303ddf1461037157806314f66d341461039e5780631785f53c146103d4578063208853c9146104175780632348238c146104585780632442e1cb1461049b57806324d7806c146105ed5780632784bb7b146106485780632c903b37146106985780632e325020146106c35780632fbe5990146107cd578063313602d4146107f85780633baba4d71461080f5780633bcdb1641461083a5780633c9d5c751461087d5780633dbd6721146108ae5780634090cb64146108f357806343f48fbd1461094a57806348b6b16f146109a157806351f5a76d14610a0a57806354fd4d5014610a3a578063550fd74214610a655780635641f3c314610ad1578063564566a814610b2857806359e3774914610b575780637048027514610b9e578063792c02ea14610be15780637dd8951a14610c0c5780638119c06514610c3d578063845ddcb214610c945780638abdf5aa14610d0e5780638aea2af814610d395780638bad0c0a14610db05780638edd6eb614610dc75780639faf621514610e1e578063a035b1fe14610eae578063a4fd6f5614610ed9578063b135648814610f08578063b60d428814610f3f578063c6dbdf6114610f96578063cd151de014610fed578063d0934d611461106e578063d155790b14611085578063d45c1602146110c8578063d5b22623146110f3578063d6d65f3d146111a6578063d8e9ce64146111dc578063daa4cf8814611237578063dc9c9f331461126d578063e89e4ed6146112fd578063e93b05401461144f578063f6cf09dc1461147c578063fc0c546a146114f3575b600080fd5b6102cf60048036038101908080356000191690602001909291908035906020019092919050505061154a565b005b3480156102dd57600080fd5b5061030060048036038101908080356000191690602001909291905050506118bd565b604051808215151515815260200191505060405180910390f35b34801561032657600080fd5b5061032f61197f565b604051808273ffffffffffffffffffffffffffffffffffffffff1673ffffffffffffffffffffffffffffffffffffffff16815260200191505060405180910390f35b34801561037d57600080fd5b5061039c600480360381019080803590602001909291905050506119a5565b005b3480156103aa57600080fd5b506103b36119c3565b60405180838152602001821515151581526020019250505060405180910390f35b3480156103e057600080fd5b50610415600480360381019080803573ffffffffffffffffffffffffffffffffffffffff1690602001909291905050506119fd565b005b34801561042357600080fd5b5061044260048036038101908080359060200190929190505050611a1d565b6040518082815260200191505060405180910390f35b34801561046457600080fd5b50610499600480360381019080803573ffffffffffffffffffffffffffffffffffffffff169060200190929190505050611b9d565b005b3480156104a757600080fd5b506104c660048036038101908080359060200190929190505050611cfe565b604051808763ffffffff1663ffffffff1681526020018681526020018563ffffffff1663ffffffff1681526020018463ffffffff1663ffffffff1681526020018060200180602001838103835285818151815260200191508051906020019080838360005b8381101561054657808201518184015260208101905061052b565b50505050905090810190601f1680156105735780820380516001836020036101000a031916815260200191505b50838103825284818151815260200191508051906020019080838360005b838110156105ac578082015181840152602081019050610591565b50505050905090810190601f1680156105d95780820380516001836020036101000a031916815260200191505b509850505050505050505060405180910390f35b3480156105f957600080fd5b5061062e600480360381019080803573ffffffffffffffffffffffffffffffffffffffff169060200190929190505050611f48565b604051808215151515815260200191505060405180910390f35b34801561065457600080fd5b506106776004803603810190808035600019169060200190929190505050611f65565b60405180831515151581526020018281526020019250505060405180910390f35b3480156106a457600080fd5b506106ad611fbc565b6040518082815260200191505060405180910390f35b3480156106cf57600080fd5b506106ee60048036038101908080359060200190929190505050611fc2565b604051808763ffffffff1663ffffffff1681526020018663ffffffff1663ffffffff1681526020018581526020018463ffffffff1663ffffffff1681526020018060200180602001838103835285818151815260200191508051906020019060200280838360005b83811015610771578082015181840152602081019050610756565b50505050905001838103825284818151815260200191508051906020019060200280838360005b838110156107b3578082015181840152602081019050610798565b505050509050019850505050505050505060405180910390f35b3480156107d957600080fd5b506107e2612178565b6040518082815260200191505060405180910390f35b34801561080457600080fd5b5061080d61217e565b005b34801561081b57600080fd5b506108246123fd565b6040518082815260200191505060405180910390f35b34801561084657600080fd5b5061087b600480360381019080803573ffffffffffffffffffffffffffffffffffffffff16906020019092919050505061240a565b005b34801561088957600080fd5b5061089261242a565b604051808260ff1660ff16815260200191505060405180910390f35b3480156108ba57600080fd5b506108dd6004803603810190808035600019169060200190929190505050612441565b6040518082815260200191505060405180910390f35b3480156108ff57600080fd5b506109086124a5565b604051808273ffffffffffffffffffffffffffffffffffffffff1673ffffffffffffffffffffffffffffffffffffffff16815260200191505060405180910390f35b34801561095657600080fd5b5061095f6124cf565b604051808273ffffffffffffffffffffffffffffffffffffffff1673ffffffffffffffffffffffffffffffffffffffff16815260200191505060405180910390f35b3480156109ad57600080fd5b50610a08600480360381019080803590602001908201803590602001908080601f01602080910402602001604051908101604052809392919081815260200183838082843782019150505050505091929192905050506124f5565b005b348015610a1657600080fd5b50610a38600480360381019080803560ff169060200190929190505050612523565b005b348015610a4657600080fd5b50610a4f612555565b6040518082815260200191505060405180910390f35b348015610a7157600080fd5b50610a7a61255b565b6040518080602001828103825283818151815260200191508051906020019060200280838360005b83811015610abd578082015181840152602081019050610aa2565b505050509050019250505060405180910390f35b348015610add57600080fd5b50610ae6612661565b604051808273ffffffffffffffffffffffffffffffffffffffff1673ffffffffffffffffffffffffffffffffffffffff16815260200191505060405180910390f35b348015610b3457600080fd5b50610b3d612687565b604051808215151515815260200191505060405180910390f35b348015610b6357600080fd5b50610b9c60048036038101908080356000191690602001909291908035151590602001909291908035906020019092919050505061269c565b005b348015610baa57600080fd5b50610bdf600480360381019080803573ffffffffffffffffffffffffffffffffffffffff169060200190929190505050612866565b005b348015610bed57600080fd5b50610bf6612886565b6040518082815260200191505060405180910390f35b348015610c1857600080fd5b50610c21612893565b604051808260ff1660ff16815260200191505060405180910390f35b348015610c4957600080fd5b50610c526128a6565b604051808273ffffffffffffffffffffffffffffffffffffffff1673ffffffffffffffffffffffffffffffffffffffff16815260200191505060405180910390f35b348015610ca057600080fd5b50610cbf600480360381019080803590602001909291905050506128cc565b604051808563ffffffff1663ffffffff1681526020018463ffffffff1663ffffffff1681526020018381526020018263ffffffff1663ffffffff16815260200194505050505060405180910390f35b348015610d1a57600080fd5b50610d2361293b565b6040518082815260200191505060405180910390f35b348015610d4557600080fd5b50610d72600480360381019080803560001916906020019092919080359060200190929190505050612941565b6040518082600560200280838360005b83811015610d9d578082015181840152602081019050610d82565b5050505090500191505060405180910390f35b348015610dbc57600080fd5b50610dc5612d74565b005b348015610dd357600080fd5b50610ddc612d7f565b604051808273ffffffffffffffffffffffffffffffffffffffff1673ffffffffffffffffffffffffffffffffffffffff16815260200191505060405180910390f35b348015610e2a57600080fd5b50610e33612da9565b6040518080602001828103825283818151815260200191508051906020019080838360005b83811015610e73578082015181840152602081019050610e58565b50505050905090810190601f168015610ea05780820380516001836020036101000a031916815260200191505b509250505060405180910390f35b348015610eba57600080fd5b50610ec3612e4b565b6040518082815260200191505060405180910390f35b348015610ee557600080fd5b50610eee612e51565b604051808215151515815260200191505060405180910390f35b348015610f1457600080fd5b50610f1d612ea8565b604051808263ffffffff1663ffffffff16815260200191505060405180910390f35b348015610f4b57600080fd5b50610f54612efb565b604051808273ffffffffffffffffffffffffffffffffffffffff1673ffffffffffffffffffffffffffffffffffffffff16815260200191505060405180910390f35b348015610fa257600080fd5b50610fab612f21565b604051808273ffffffffffffffffffffffffffffffffffffffff1673ffffffffffffffffffffffffffffffffffffffff16815260200191505060405180910390f35b348015610ff957600080fd5b5061103060048036038101908080359060200190929190803590602001909291908035600019169060200190929190505050612f4b565b6040518082600260200280838360005b8381101561105b578082015181840152602081019050611040565b5050505090500191505060405180910390f35b34801561107a57600080fd5b506110836130ed565b005b34801561109157600080fd5b506110c6600480360381019080803573ffffffffffffffffffffffffffffffffffffffff1690602001909291905050506130f8565b005b3480156110d457600080fd5b506110dd613118565b6040518082815260200191505060405180910390f35b3480156110ff57600080fd5b506111a4600480360381019080803590602001908201803590602001919091929391929390803590602001908201803590602001919091929391929390803590602001908201803590602001919091929391929390803590602001908201803590602001919091929391929390803590602001908201803590602001919091929391929390803590602001908201803590602001919091929391929390505050613122565b005b3480156111b257600080fd5b506111bb6135d2565b60405180838152602001821515151581526020019250505060405180910390f35b3480156111e857600080fd5b5061121d600480360381019080803573ffffffffffffffffffffffffffffffffffffffff169060200190929190505050613661565b604051808215151515815260200191505060405180910390f35b34801561124357600080fd5b5061124c61367e565b60405180838152602001821515151581526020019250505060405180910390f35b34801561127957600080fd5b50611282613727565b6040518080602001828103825283818151815260200191508051906020019080838360005b838110156112c25780820151818401526020810190506112a7565b50505050905090810190601f1680156112ef5780820380516001836020036101000a031916815260200191505b509250505060405180910390f35b34801561130957600080fd5b50611328600480360381019080803590602001909291905050506137c5565b604051808763ffffffff1663ffffffff1681526020018681526020018563ffffffff1663ffffffff1681526020018463ffffffff1663ffffffff1681526020018060200180602001838103835285818151815260200191508051906020019080838360005b838110156113a857808201518184015260208101905061138d565b50505050905090810190601f1680156113d55780820380516001836020036101000a031916815260200191505b50838103825284818151815260200191508051906020019080838360005b8381101561140e5780820151818401526020810190506113f3565b50505050905090810190601f16801561143b5780820380516001836020036101000a031916815260200191505b509850505050505050505060405180910390f35b34801561145b57600080fd5b5061147a60048036038101908080359060200190929190505050613970565b005b34801561148857600080fd5b506114b5600480360381019080803560001916906020019092919080359060200190929190505050613a4f565b6040518082600460200280838360005b838110156114e05780820151818401526020810190506114c5565b5050505090500191505060405180910390f35b3480156114ff57600080fd5b50611508613e82565b604051808273ffffffffffffffffffffffffffffffffffffffff1673ffffffffffffffffffffffffffffffffffffffff16815260200191505060405180910390f35b6000611554615bf2565b61155c615c15565b60006001600460008282540192505081905550600454905061157c612687565b151561158757600080fd5b601073__PaymentMethods________________________6377df08569091886040518363ffffffff167c01000000000000000000000000000000000000000000000000000000000281526004018083815260200182600019166000191681526020019250505060206040518083038186803b15801561160557600080fd5b505af4158015611619573d6000803e3d6000fd5b505050506040513d602081101561162f57600080fd5b8101908080519060200190929190505050151561164b57600080fd5b8560001916611658613ea8565b6000191614151561177357600073ffffffffffffffffffffffffffffffffffffffff16600860009054906101000a900473ffffffffffffffffffffffffffffffffffffffff1673ffffffffffffffffffffffffffffffffffffffff1663b12e4410886040518263ffffffff167c0100000000000000000000000000000000000000000000000000000000028152600401808260001916600019168152602001915050602060405180830381600087803b15801561171457600080fd5b505af1158015611728573d6000803e3d6000fd5b505050506040513d602081101561173e57600080fd5b810190808051906020019092919050505073ffffffffffffffffffffffffffffffffffffffff161415151561177257600080fd5b5b61177b61367e565b5093506117888686612941565b92506117bb83600060058110151561179c57fe5b60200201518460016005811015156117b057fe5b602002015188612f4b565b91506117c78287613ed0565b61180383836013878154811015156117db57fe5b906000526020600020906005020160020160009054906101000a900463ffffffff16896142ce565b61180e838388614610565b3373ffffffffffffffffffffffffffffffffffffffff167f347f5f0051b895093800553e6e78ef332849e2552639a4f5ffe66535788ae07884600060058110151561185557fe5b602002015185600160058110151561186957fe5b602002015186600360058110151561187d57fe5b602002015160405180848152602001838152602001828152602001935050505060405180910390a2600454811415156118b557600080fd5b505050505050565b6000601073__PaymentMethods________________________6377df08569091846040518363ffffffff167c01000000000000000000000000000000000000000000000000000000000281526004018083815260200182600019166000191681526020019250505060206040518083038186803b15801561193d57600080fd5b505af4158015611951573d6000803e3d6000fd5b505050506040513d602081101561196757600080fd5b81019080805190602001909291905050509050919050565b600660009054906101000a900473ffffffffffffffffffffffffffffffffffffffff1681565b6119ae33611f48565b15156119b957600080fd5b80600f8190555050565b600080600060148054905014806119df57506119dd612e51565b155b156119e9576119f9565b6001905060016014805490500391505b9091565b611a0633611f48565b1515611a1157600080fd5b611a1a81614b37565b50565b600080600080611a2b61367e565b92509250811515611a3b57611b95565b601383815481101515611a4a57fe5b9060005260206000209060050201905073__PurchaseProcessing____________________63b8005df28683600301846004016040518463ffffffff167c01000000000000000000000000000000000000000000000000000000000281526004018084815260200180602001806020018381038352858181548152602001915080548015611af757602002820191906000526020600020905b815481526020019060010190808311611ae3575b50508381038252848181548152602001915080548015611b3657602002820191906000526020600020905b815481526020019060010190808311611b22575b50509550505050505060206040518083038186803b158015611b5757600080fd5b505af4158015611b6b573d6000803e3d6000fd5b505050506040513d6020811015611b8157600080fd5b810190808051906020019092919050505093505b505050919050565b600360009054906101000a900473ffffffffffffffffffffffffffffffffffffffff1673ffffffffffffffffffffffffffffffffffffffff163373ffffffffffffffffffffffffffffffffffffffff16141515611bf957600080fd5b600073ffffffffffffffffffffffffffffffffffffffff168173ffffffffffffffffffffffffffffffffffffffff1614151515611c3557600080fd5b80600360006101000a81548173ffffffffffffffffffffffffffffffffffffffff021916908373ffffffffffffffffffffffffffffffffffffffff1602179055507f4101e71e974f68df5e9730cc223280b41654676bbb052cdcc735c3337e64d2d9600360009054906101000a900473ffffffffffffffffffffffffffffffffffffffff16604051808273ffffffffffffffffffffffffffffffffffffffff1673ffffffffffffffffffffffffffffffffffffffff16815260200191505060405180910390a150565b600080600080606080601487815481101515611d1657fe5b906000526020600020906005020160000160009054906101000a900463ffffffff16601488815481101515611d4757fe5b906000526020600020906005020160010154601489815481101515611d6857fe5b906000526020600020906005020160020160009054906101000a900463ffffffff1660148a815481101515611d9957fe5b906000526020600020906005020160020160049054906101000a900463ffffffff1660148b815481101515611dca57fe5b906000526020600020906005020160030160148c815481101515611dea57fe5b9060005260206000209060050201600401818054600181600116156101000203166002900480601f016020809104026020016040519081016040528092919081815260200182805460018160011615610100020316600290048015611e905780601f10611e6557610100808354040283529160200191611e90565b820191906000526020600020905b815481529060010190602001808311611e7357829003601f168201915b50505050509150808054600181600116156101000203166002900480601f016020809104026020016040519081016040528092919081815260200182805460018160011615610100020316600290048015611f2c5780601f10611f0157610100808354040283529160200191611f2c565b820191906000526020600020905b815481529060010190602001808311611f0f57829003601f168201915b5050505050905095509550955095509550955091939550919395565b6000611f5e826000614b9190919063ffffffff16565b9050919050565b60008060126000846000191660001916815260200190815260200160002060000160009054906101000a900460ff166012600085600019166000191681526020019081526020016000206001015491509150915091565b600f5481565b600080600080606080601387815481101515611fda57fe5b906000526020600020906005020160000160009054906101000a900463ffffffff1660138881548110151561200b57fe5b906000526020600020906005020160000160049054906101000a900463ffffffff1660138981548110151561203c57fe5b90600052602060002090600502016001015460138a81548110151561205d57fe5b906000526020600020906005020160020160009054906101000a900463ffffffff1660138b81548110151561208e57fe5b906000526020600020906005020160030160138c8154811015156120ae57fe5b90600052602060002090600502016004018180548060200260200160405190810160405280929190818152602001828054801561210a57602002820191906000526020600020905b8154815260200190600101908083116120f6575b505050505091508080548060200260200160405190810160405280929190818152602001828054801561215c57602002820191906000526020600020905b815481526020019060010190808311612148575b5050505050905095509550955095509550955091939550919395565b600b5481565b600061218933613661565b151561219457600080fd5b61219c612e51565b15156121a757600080fd5b600560009054906101000a900473ffffffffffffffffffffffffffffffffffffffff1673ffffffffffffffffffffffffffffffffffffffff166370a08231306040518263ffffffff167c0100000000000000000000000000000000000000000000000000000000028152600401808273ffffffffffffffffffffffffffffffffffffffff1673ffffffffffffffffffffffffffffffffffffffff168152602001915050602060405180830381600087803b15801561226457600080fd5b505af1158015612278573d6000803e3d6000fd5b505050506040513d602081101561228e57600080fd5b81019080805190602001909291905050509050600560009054906101000a900473ffffffffffffffffffffffffffffffffffffffff1673ffffffffffffffffffffffffffffffffffffffff1663a9059cbb33836040518363ffffffff167c0100000000000000000000000000000000000000000000000000000000028152600401808373ffffffffffffffffffffffffffffffffffffffff1673ffffffffffffffffffffffffffffffffffffffff16815260200182815260200192505050602060405180830381600087803b15801561236657600080fd5b505af115801561237a573d6000803e3d6000fd5b505050506040513d602081101561239057600080fd5b810190808051906020019092919050505015156123ac57600080fd5b3373ffffffffffffffffffffffffffffffffffffffff167f26ffb867a6b19bc0240d4e732ed6cfb0f0b6d93143a99cfb24ba5873308861f8826040518082815260200191505060405180910390a250565b6000601480549050905090565b61241333611f48565b151561241e57600080fd5b61242781614c25565b50565b6000600d60149054906101000a900460ff16905090565b600060126000836000191660001916815260200190815260200160002060000160009054906101000a900460ff161561249a576012600083600019166000191681526020019081526020016000206001015490506124a0565b600a5490505b919050565b6000600560009054906101000a900473ffffffffffffffffffffffffffffffffffffffff16905090565b600860009054906101000a900473ffffffffffffffffffffffffffffffffffffffff1681565b6124fe33611f48565b151561250957600080fd5b80600e908051906020019061251f929190615c37565b5050565b61252c33611f48565b151561253757600080fd5b80600d60146101000a81548160ff021916908360ff16021790555050565b60025481565b6060601073__PaymentMethods________________________633b3d1a2290916040518263ffffffff167c01000000000000000000000000000000000000000000000000000000000281526004018082815260200191505060006040518083038186803b1580156125cb57600080fd5b505af41580156125df573d6000803e3d6000fd5b505050506040513d6000823e3d601f19601f82011682018060405250602081101561260957600080fd5b81019080805164010000000081111561262157600080fd5b8281019050602081018481111561263757600080fd5b815185602082028301116401000000008211171561265457600080fd5b5050929190505050905090565b600c60009054906101000a900473ffffffffffffffffffffffffffffffffffffffff1681565b60008061269261367e565b9150508091505090565b6126a533611f48565b15156126b057600080fd5b8073__Percent_______________________________63520b006690916040518263ffffffff167c01000000000000000000000000000000000000000000000000000000000281526004018082815260200191505060206040518083038186803b15801561271d57600080fd5b505af4158015612731573d6000803e3d6000fd5b505050506040513d602081101561274757600080fd5b810190808051906020019092919050505080156127fd575073__Percent_______________________________63d49d51816040518163ffffffff167c010000000000000000000000000000000000000000000000000000000002815260040160206040518083038186803b1580156127bf57600080fd5b505af41580156127d3573d6000803e3d6000fd5b505050506040513d60208110156127e957600080fd5b810190808051906020019092919050505081105b151561280857600080fd5b8160126000856000191660001916815260200190815260200160002060000160006101000a81548160ff0219169083151502179055508060126000856000191660001916815260200190815260200160002060010181905550505050565b61286f33611f48565b151561287a57600080fd5b61288381614c7f565b50565b6000601380549050905090565b600d60149054906101000a900460ff1681565b600d60009054906101000a900473ffffffffffffffffffffffffffffffffffffffff1681565b6013818154811015156128db57fe5b90600052602060002090600502016000915090508060000160009054906101000a900463ffffffff16908060000160049054906101000a900463ffffffff16908060010154908060020160009054906101000a900463ffffffff16905084565b600a5481565b612949615bf2565b600080612954615bf2565b601073__PaymentMethods________________________6377df08569091886040518363ffffffff167c01000000000000000000000000000000000000000000000000000000000281526004018083815260200182600019166000191681526020019250505060206040518083038186803b1580156129d257600080fd5b505af41580156129e6573d6000803e3d6000fd5b505050506040513d60208110156129fc57600080fd5b81019080805190602001909291905050501515612a1857600080fd5b612a2061367e565b92509250811515612a3057612d6b565b8560001916612a3d613ea8565b60001916141515612b2857600860009054906101000a900473ffffffffffffffffffffffffffffffffffffffff1673ffffffffffffffffffffffffffffffffffffffff1663cfec719f876040518263ffffffff167c0100000000000000000000000000000000000000000000000000000000028152600401808260001916600019168152602001915050602060405180830381600087803b158015612ae157600080fd5b505af1158015612af5573d6000803e3d6000fd5b505050506040513d6020811015612b0b57600080fd5b81019080805190602001909291905050501515612b2757612d6b565b5b612b3186614cd9565b905073__PurchaseProcessing____________________6391bfca318787601387815481101515612b5e57fe5b906000526020600020906005020160010154601388815481101515612b7f57fe5b9060005260206000209060050201600301601389815481101515612b9f57fe5b9060005260206000209060050201600401876000600581101515612bbf57fe5b6020020151886001600581101515612bd357fe5b6020020151896002600581101515612be757fe5b60200201518a6003600581101515612bfb57fe5b60200201518b6004600581101515612c0f57fe5b60200201516040518b63ffffffff167c0100000000000000000000000000000000000000000000000000000000028152600401808b600019166000191681526020018a8152602001898152602001806020018060200188815260200187815260200186815260200185815260200184815260200183810383528a8181548152602001915080548015612cc057602002820191906000526020600020905b815481526020019060010190808311612cac575b50508381038252898181548152602001915080548015612cff57602002820191906000526020600020905b815481526020019060010190808311612ceb575b50509c5050505050505050505050505060a06040518083038186803b158015612d2757600080fd5b505af4158015612d3b573d6000803e3d6000fd5b505050506040513d601f19601f8201168201806040525060a0811015612d6057600080fd5b810190809190505093505b50505092915050565b612d7d33614b37565b565b6000600760009054906101000a900473ffffffffffffffffffffffffffffffffffffffff16905090565b6060600e8054600181600116156101000203166002900480601f016020809104026020016040519081016040528092919081815260200182805460018160011615610100020316600290048015612e415780601f10612e1657610100808354040283529160200191612e41565b820191906000526020600020905b815481529060010190602001808311612e2457829003601f168201915b5050505050905090565b60095481565b6000806013805490501480612ea35750426013600160138054905003815481101515612e7957fe5b906000526020600020906005020160000160049054906101000a900463ffffffff1663ffffffff16105b905090565b600080601380549050111515612ebd57600080fd5b6013600160138054905003815481101515612ed457fe5b906000526020600020906005020160000160049054906101000a900463ffffffff16905090565b600760009054906101000a900473ffffffffffffffffffffffffffffffffffffffff1681565b6000600360009054906101000a900473ffffffffffffffffffffffffffffffffffffffff16905090565b612f53615c15565b601073__PaymentMethods________________________6377df08569091846040518363ffffffff167c01000000000000000000000000000000000000000000000000000000000281526004018083815260200182600019166000191681526020019250505060206040518083038186803b158015612fd157600080fd5b505af4158015612fe5573d6000803e3d6000fd5b505050506040513d6020811015612ffb57600080fd5b8101908080519060200190929190505050151561301757600080fd5b73__PurchaseProcessing____________________636cd5c0568585600b5461303f87612441565b6040518563ffffffff167c010000000000000000000000000000000000000000000000000000000002815260040180858152602001848152602001838152602001828152602001945050505050604080518083038186803b1580156130a357600080fd5b505af41580156130b7573d6000803e3d6000fd5b505050506040513d601f19601f8201168201806040525060408110156130dc57600080fd5b810190809190505090509392505050565b6130f633615184565b565b61310133611f48565b151561310c57600080fd5b61311581615184565b50565b6000600f54905090565b600061312d33613661565b151561313857600080fd5b6000601380549050111561318c57426013600081548110151561315757fe5b906000526020600020906005020160000160009054906101000a900463ffffffff1663ffffffff1611151561318b57600080fd5b5b60008d8d90501415151561319f57600080fd5b7fffffffffffffffffffffffffffffffffffffffffffffffffffffffffffffffff60ff168d8d9050111515156131d457600080fd5b7fffffffffffffffffffffffffffffffffffffffffffffffffffffffffffffffff60ff16898990501115151561320957600080fd5b60028787905081151561321857fe5b048989905014151561322957600080fd5b60028585905081151561323857fe5b04898990501115151561324a57600080fd5b6000838390501415151561325d57600080fd5b600090505b8282905081101561337157600860009054906101000a900473ffffffffffffffffffffffffffffffffffffffff1673ffffffffffffffffffffffffffffffffffffffff16637d20abf884848481811015156132b957fe5b90506020020135600019166040518263ffffffff167c0100000000000000000000000000000000000000000000000000000000028152600401808260001916600019168152602001915050602060405180830381600087803b15801561331e57600080fd5b505af1158015613332573d6000803e3d6000fd5b505050506040513d602081101561334857600080fd5b8101908080519060200190929190505050151561336457600080fd5b8080600101915050613262565b6134158d8d808060200260200160405190810160405280939291908181526020016000905b828210156133db57848483905060c002016006806020026040519081016040528092919082600660200280828437820191505050505081526020019060010190613396565b50505050508c8c808060200260200160405190810160405280939291908181526020018383602002808284378201915050505050506151de565b6134ec8989808060200260200160405190810160405280939291908181526020016000905b8282101561347f57848483905060800201600480602002604051908101604052809291908260046020028082843782019150505050508152602001906001019061343a565b505050505088888080602002602001604051908101604052809392919081815260200183836020028082843782019150505050505087878080601f016020809104026020016040519081016040528093929190818152602001838380828437820191505050505050615350565b601073__PaymentMethods________________________63f24950e2909185856040518463ffffffff167c010000000000000000000000000000000000000000000000000000000002815260040180848152602001806020018281038252848482818152602001925060200280828437820191505094505050505060006040518083038186803b15801561357f57600080fd5b505af4158015613593573d6000803e3d6000fd5b505050507f072792b04aecd99b2250bc76fb25f9bca793c3b7383cb4c7255a7a01e8f5a12e60405160405180910390a150505050505050505050505050565b600080600060148054905014806135ee57506135ec612e51565b155b156135f85761365d565b600190505b6001601480549050038210801561364a575060148281548110151561361e57fe5b906000526020600020906005020160020160049054906101000a900463ffffffff1663ffffffff164210155b1561365c5781806001019250506135fd565b5b9091565b6000613677826001614b9190919063ffffffff16565b9050919050565b600080600080600091505b601380549050821015613716576013828154811015156136a557fe5b90600052602060002090600502019050428160000160009054906101000a900463ffffffff1663ffffffff16111580156136f85750428160000160049054906101000a900463ffffffff1663ffffffff16115b156137095781600193509350613721565b8180600101925050613689565b600080819150935093505b50509091565b600e8054600181600116156101000203166002900480601f0160208091040260200160405190810160405280929190818152602001828054600181600116156101000203166002900480156137bd5780601f10613792576101008083540402835291602001916137bd565b820191906000526020600020905b8154815290600101906020018083116137a057829003601f168201915b505050505081565b6014818154811015156137d457fe5b90600052602060002090600502016000915090508060000160009054906101000a900463ffffffff16908060010154908060020160009054906101000a900463ffffffff16908060020160049054906101000a900463ffffffff1690806003018054600181600116156101000203166002900480601f0160208091040260200160405190810160405280929190818152602001828054600181600116156101000203166002900480156138c85780601f1061389d576101008083540402835291602001916138c8565b820191906000526020600020905b8154815290600101906020018083116138ab57829003601f168201915b505050505090806004018054600181600116156101000203166002900480601f0160208091040260200160405190810160405280929190818152602001828054600181600116156101000203166002900480156139665780601f1061393b57610100808354040283529160200191613966565b820191906000526020600020905b81548152906001019060200180831161394957829003601f168201915b5050505050905086565b600360009054906101000a900473ffffffffffffffffffffffffffffffffffffffff1673ffffffffffffffffffffffffffffffffffffffff163373ffffffffffffffffffffffffffffffffffffffff161415156139cc57600080fd5b60006013805490501115613a205742601360008154811015156139eb57fe5b906000526020600020906005020160000160009054906101000a900463ffffffff1663ffffffff16111515613a1f57600080fd5b5b613a4c81600c60009054906101000a900473ffffffffffffffffffffffffffffffffffffffff16615530565b50565b613a57615cb7565b600080613a62615bf2565b601073__PaymentMethods________________________6377df08569091886040518363ffffffff167c01000000000000000000000000000000000000000000000000000000000281526004018083815260200182600019166000191681526020019250505060206040518083038186803b158015613ae057600080fd5b505af4158015613af4573d6000803e3d6000fd5b505050506040513d6020811015613b0a57600080fd5b81019080805190602001909291905050501515613b2657600080fd5b613b2e61367e565b92509250811515613b3e57613e79565b8560001916613b4b613ea8565b60001916141515613c3657600860009054906101000a900473ffffffffffffffffffffffffffffffffffffffff1673ffffffffffffffffffffffffffffffffffffffff1663cfec719f876040518263ffffffff167c0100000000000000000000000000000000000000000000000000000000028152600401808260001916600019168152602001915050602060405180830381600087803b158015613bef57600080fd5b505af1158015613c03573d6000803e3d6000fd5b505050506040513d6020811015613c1957600080fd5b81019080805190602001909291905050501515613c3557613e79565b5b613c3f866155c7565b905073__PurchaseProcessing____________________6391dab4228787601387815481101515613c6c57fe5b906000526020600020906005020160010154601388815481101515613c8d57fe5b9060005260206000209060050201600301601389815481101515613cad57fe5b9060005260206000209060050201600401876000600581101515613ccd57fe5b6020020151886001600581101515613ce157fe5b6020020151896002600581101515613cf557fe5b60200201518a6003600581101515613d0957fe5b60200201518b6004600581101515613d1d57fe5b60200201516040518b63ffffffff167c0100000000000000000000000000000000000000000000000000000000028152600401808b600019166000191681526020018a8152602001898152602001806020018060200188815260200187815260200186815260200185815260200184815260200183810383528a8181548152602001915080548015613dce57602002820191906000526020600020905b815481526020019060010190808311613dba575b50508381038252898181548152602001915080548015613e0d57602002820191906000526020600020905b815481526020019060010190808311613df9575b50509c5050505050505050505050505060806040518083038186803b158015613e3557600080fd5b505af4158015613e49573d6000803e3d6000fd5b505050506040513d601f19601f820116820180604052506080811015613e6e57600080fd5b810190809190505093505b50505092915050565b600560009054906101000a900473ffffffffffffffffffffffffffffffffffffffff1681565b60007f4554480000000000000000000000000000000000000000000000000000000000905090565b73__PurchaseProcessing____________________633676737c8383600860009054906101000a900473ffffffffffffffffffffffffffffffffffffffff1673ffffffffffffffffffffffffffffffffffffffff1663cfec719f866040518263ffffffff167c0100000000000000000000000000000000000000000000000000000000028152600401808260001916600019168152602001915050602060405180830381600087803b158015613f8557600080fd5b505af1158015613f99573d6000803e3d6000fd5b505050506040513d6020811015613faf57600080fd5b8101908080519060200190929190505050613fcb5760006140a0565b600860009054906101000a900473ffffffffffffffffffffffffffffffffffffffff1673ffffffffffffffffffffffffffffffffffffffff1663b12e4410866040518263ffffffff167c0100000000000000000000000000000000000000000000000000000000028152600401808260001916600019168152602001915050602060405180830381600087803b15801561406457600080fd5b505af1158015614078573d6000803e3d6000fd5b505050506040513d602081101561408e57600080fd5b81019080805190602001909291905050505b600560009054906101000a900473ffffffffffffffffffffffffffffffffffffffff16600660009054906101000a900473ffffffffffffffffffffffffffffffffffffffff16600d60009054906101000a900473ffffffffffffffffffffffffffffffffffffffff16600c60009054906101000a900473ffffffffffffffffffffffffffffffffffffffff166040518863ffffffff167c01000000000000000000000000000000000000000000000000000000000281526004018088600260200280838360005b83811015614182578082015181840152602081019050614167565b5050505090500187600019166000191681526020018673ffffffffffffffffffffffffffffffffffffffff1673ffffffffffffffffffffffffffffffffffffffff1681526020018573ffffffffffffffffffffffffffffffffffffffff1673ffffffffffffffffffffffffffffffffffffffff1681526020018473ffffffffffffffffffffffffffffffffffffffff1673ffffffffffffffffffffffffffffffffffffffff1681526020018373ffffffffffffffffffffffffffffffffffffffff1673ffffffffffffffffffffffffffffffffffffffff1681526020018273ffffffffffffffffffffffffffffffffffffffff1673ffffffffffffffffffffffffffffffffffffffff16815260200197505050505050505060006040518083038186803b1580156142b257600080fd5b505af41580156142c6573d6000803e3d6000fd5b505050505050565b73__PurchaseProcessing____________________634bb1e9ff85858585600860009054906101000a900473ffffffffffffffffffffffffffffffffffffffff1673ffffffffffffffffffffffffffffffffffffffff1663cfec719f886040518263ffffffff167c0100000000000000000000000000000000000000000000000000000000028152600401808260001916600019168152602001915050602060405180830381600087803b15801561438557600080fd5b505af1158015614399573d6000803e3d6000fd5b505050506040513d60208110156143af57600080fd5b81019080805190602001909291905050506143cb5760006144a0565b600860009054906101000a900473ffffffffffffffffffffffffffffffffffffffff1673ffffffffffffffffffffffffffffffffffffffff1663b12e4410886040518263ffffffff167c0100000000000000000000000000000000000000000000000000000000028152600401808260001916600019168152602001915050602060405180830381600087803b15801561446457600080fd5b505af1158015614478573d6000803e3d6000fd5b505050506040513d602081101561448e57600080fd5b81019080805190602001909291905050505b600560009054906101000a900473ffffffffffffffffffffffffffffffffffffffff166040518763ffffffff167c01000000000000000000000000000000000000000000000000000000000281526004018087600560200280838360005b838110156145195780820151818401526020810190506144fe565b5050505090500186600260200280838360005b8381101561454757808201518184015260208101905061452c565b505050509050018563ffffffff1663ffffffff16815260200184600019166000191681526020018373ffffffffffffffffffffffffffffffffffffffff1673ffffffffffffffffffffffffffffffffffffffff1681526020018273ffffffffffffffffffffffffffffffffffffffff1673ffffffffffffffffffffffffffffffffffffffff168152602001965050505050505060006040518083038186803b1580156145f257600080fd5b505af4158015614606573d6000803e3d6000fd5b5050505050505050565b614618613ea8565b60001916816000191614156147c057600760009054906101000a900473ffffffffffffffffffffffffffffffffffffffff1673ffffffffffffffffffffffffffffffffffffffff1663d0baf2f561469e84600160028110151561467757fe5b602002015186600160058110151561468b57fe5b6020020151615a7290919063ffffffff16565b338660006005811015156146ae57fe5b6020020151856146ed8860016002811015156146c657fe5b60200201518a60016005811015156146da57fe5b6020020151615a7290919063ffffffff16565b8960026005811015156146fc57fe5b60200201516040518763ffffffff167c0100000000000000000000000000000000000000000000000000000000028152600401808673ffffffffffffffffffffffffffffffffffffffff1673ffffffffffffffffffffffffffffffffffffffff1681526020018581526020018460001916600019168152602001838152602001828152602001955050505050506000604051808303818588803b1580156147a257600080fd5b505af11580156147b6573d6000803e3d6000fd5b5050505050614b32565b600860009054906101000a900473ffffffffffffffffffffffffffffffffffffffff1673ffffffffffffffffffffffffffffffffffffffff1663b12e4410826040518263ffffffff167c0100000000000000000000000000000000000000000000000000000000028152600401808260001916600019168152602001915050602060405180830381600087803b15801561485957600080fd5b505af115801561486d573d6000803e3d6000fd5b505050506040513d602081101561488357600080fd5b810190808051906020019092919050505073ffffffffffffffffffffffffffffffffffffffff1663a9059cbb600760009054906101000a900473ffffffffffffffffffffffffffffffffffffffff1661490b8560016002811015156148e457fe5b60200201518760016005811015156148f857fe5b6020020151615a7290919063ffffffff16565b6040518363ffffffff167c0100000000000000000000000000000000000000000000000000000000028152600401808373ffffffffffffffffffffffffffffffffffffffff1673ffffffffffffffffffffffffffffffffffffffff16815260200182815260200192505050602060405180830381600087803b15801561499057600080fd5b505af11580156149a4573d6000803e3d6000fd5b505050506040513d60208110156149ba57600080fd5b810190808051906020019092919050505015156149d657600080fd5b600760009054906101000a900473ffffffffffffffffffffffffffffffffffffffff1673ffffffffffffffffffffffffffffffffffffffff1663d0baf2f533856000600581101515614a2457fe5b602002015184614a63876001600281101515614a3c57fe5b6020020151896001600581101515614a5057fe5b6020020151615a7290919063ffffffff16565b886002600581101515614a7257fe5b60200201516040518663ffffffff167c0100000000000000000000000000000000000000000000000000000000028152600401808673ffffffffffffffffffffffffffffffffffffffff1673ffffffffffffffffffffffffffffffffffffffff168152602001858152602001846000191660001916815260200183815260200182815260200195505050505050600060405180830381600087803b158015614b1957600080fd5b505af1158015614b2d573d6000803e3d6000fd5b505050505b505050565b614b4b816000615a9390919063ffffffff16565b8073ffffffffffffffffffffffffffffffffffffffff167fa3b62bc36326052d97ea62d63c3d60308ed4c3ea8ac079dd8499f1e9c4f80c0f60405160405180910390a250565b60008073ffffffffffffffffffffffffffffffffffffffff168273ffffffffffffffffffffffffffffffffffffffff1614151515614bce57600080fd5b8260000160008373ffffffffffffffffffffffffffffffffffffffff1673ffffffffffffffffffffffffffffffffffffffff16815260200190815260200160002060009054906101000a900460ff16905092915050565b614c39816001615b4290919063ffffffff16565b8073ffffffffffffffffffffffffffffffffffffffff167f941e31c3e651de34a7fcf0132d9d02c2df9377e6b5f932bec5daf6353c94f90e60405160405180910390a250565b614c93816000615b4290919063ffffffff16565b8073ffffffffffffffffffffffffffffffffffffffff167f44d6d25963f097ad14f29f06854a01f575648a1ef82f30e562ccd3889717e33960405160405180910390a250565b614ce1615bf2565b600860009054906101000a900473ffffffffffffffffffffffffffffffffffffffff1673ffffffffffffffffffffffffffffffffffffffff16638eaa6ac0836040518263ffffffff167c0100000000000000000000000000000000000000000000000000000000028152600401808260001916600019168152602001915050602060405180830381600087803b158015614d7a57600080fd5b505af1158015614d8e573d6000803e3d6000fd5b505050506040513d6020811015614da457600080fd5b8101908080519060200190929190505050816000600581101515614dc457fe5b602002018181525050600954816001600581101515614ddf57fe5b602002018181525050600560009054906101000a900473ffffffffffffffffffffffffffffffffffffffff1673ffffffffffffffffffffffffffffffffffffffff1663313ce5676040518163ffffffff167c0100000000000000000000000000000000000000000000000000000000028152600401602060405180830381600087803b158015614e6e57600080fd5b505af1158015614e82573d6000803e3d6000fd5b505050506040513d6020811015614e9857600080fd5b810190808051906020019092919050505060ff16816002600581101515614ebb57fe5b6020020181815250508160001916614ed1613ea8565b600019161461505457600860009054906101000a900473ffffffffffffffffffffffffffffffffffffffff1673ffffffffffffffffffffffffffffffffffffffff1663b12e4410836040518263ffffffff167c0100000000000000000000000000000000000000000000000000000000028152600401808260001916600019168152602001915050602060405180830381600087803b158015614f7357600080fd5b505af1158015614f87573d6000803e3d6000fd5b505050506040513d6020811015614f9d57600080fd5b810190808051906020019092919050505073ffffffffffffffffffffffffffffffffffffffff1663313ce5676040518163ffffffff167c0100000000000000000000000000000000000000000000000000000000028152600401602060405180830381600087803b15801561501157600080fd5b505af1158015615025573d6000803e3d6000fd5b505050506040513d602081101561503b57600080fd5b810190808051906020019092919050505060ff16615057565b60125b81600360058110151561506657fe5b602002018181525050600560009054906101000a900473ffffffffffffffffffffffffffffffffffffffff1673ffffffffffffffffffffffffffffffffffffffff166370a08231306040518263ffffffff167c0100000000000000000000000000000000000000000000000000000000028152600401808273ffffffffffffffffffffffffffffffffffffffff1673ffffffffffffffffffffffffffffffffffffffff168152602001915050602060405180830381600087803b15801561512c57600080fd5b505af1158015615140573d6000803e3d6000fd5b505050506040513d602081101561515657600080fd5b810190808051906020019092919050505081600460058110151561517657fe5b602002018181525050919050565b615198816001615a9390919063ffffffff16565b8073ffffffffffffffffffffffffffffffffffffffff167fa3bfdef3d8149bacf15b7b64199fca8228c0fd4f8fcdd11cc7871829baf319c360405160405180910390a250565b73__Crowdsale_____________________________63ae1c60546013601485856040518563ffffffff167c01000000000000000000000000000000000000000000000000000000000281526004018085815260200184815260200180602001806020018381038352858181518152602001915080516000925b818410156152a257828490602001906020020151600660200280838360005b83811015615291578082015181840152602081019050615276565b505050509050019260010192615257565b92505050838103825284818151815260200191508051906020019060200280838360005b838110156152e15780820151818401526020810190506152c6565b50505050905001965050505050505060006040518083038186803b15801561530857600080fd5b505af415801561531c573d6000803e3d6000fd5b505050507f743961f4e677d1146fbf85d75565b1c5474fd083eb166f8b9595cf5d01a4d6e660405160405180910390a15050565b73__Crowdsale_____________________________63e1231f1e601360148686866040518663ffffffff167c0100000000000000000000000000000000000000000000000000000000028152600401808681526020018581526020018060200180602001806020018481038452878181518152602001915080516000925b8184101561541957828490602001906020020151600460200280838360005b838110156154085780820151818401526020810190506153ed565b5050505090500192600101926153ce565b92505050848103835286818151815260200191508051906020019060200280838360005b8381101561545857808201518184015260208101905061543d565b50505050905001848103825285818151815260200191508051906020019080838360005b8381101561549757808201518184015260208101905061547c565b50505050905090810190601f1680156154c45780820380516001836020036101000a031916815260200191505b509850505050505050505060006040518083038186803b1580156154e757600080fd5b505af41580156154fb573d6000803e3d6000fd5b505050507f56d9a2e016027a3725bf162ef2779c8b28d4dbec97c679cfba02dbb31a34c7ca60405160405180910390a1505050565b60008211151561553f57600080fd5b600073ffffffffffffffffffffffffffffffffffffffff168173ffffffffffffffffffffffffffffffffffffffff161415151561557b57600080fd5b8160098190555080600c60006101000a81548173ffffffffffffffffffffffffffffffffffffffff021916908373ffffffffffffffffffffffffffffffffffffffff1602179055505050565b6155cf615bf2565b600860009054906101000a900473ffffffffffffffffffffffffffffffffffffffff1673ffffffffffffffffffffffffffffffffffffffff16638eaa6ac0836040518263ffffffff167c0100000000000000000000000000000000000000000000000000000000028152600401808260001916600019168152602001915050602060405180830381600087803b15801561566857600080fd5b505af115801561567c573d6000803e3d6000fd5b505050506040513d602081101561569257600080fd5b81019080805190602001909291905050508160006005811015156156b257fe5b6020020181815250506009548160016005811015156156cd57fe5b602002018181525050600560009054906101000a900473ffffffffffffffffffffffffffffffffffffffff1673ffffffffffffffffffffffffffffffffffffffff1663313ce5676040518163ffffffff167c0100000000000000000000000000000000000000000000000000000000028152600401602060405180830381600087803b15801561575c57600080fd5b505af1158015615770573d6000803e3d6000fd5b505050506040513d602081101561578657600080fd5b810190808051906020019092919050505060ff168160026005811015156157a957fe5b60200201818152505081600019166157bf613ea8565b600019161461594257600860009054906101000a900473ffffffffffffffffffffffffffffffffffffffff1673ffffffffffffffffffffffffffffffffffffffff1663b12e4410836040518263ffffffff167c0100000000000000000000000000000000000000000000000000000000028152600401808260001916600019168152602001915050602060405180830381600087803b15801561586157600080fd5b505af1158015615875573d6000803e3d6000fd5b505050506040513d602081101561588b57600080fd5b810190808051906020019092919050505073ffffffffffffffffffffffffffffffffffffffff1663313ce5676040518163ffffffff167c0100000000000000000000000000000000000000000000000000000000028152600401602060405180830381600087803b1580156158ff57600080fd5b505af1158015615913573d6000803e3d6000fd5b505050506040513d602081101561592957600080fd5b810190808051906020019092919050505060ff16615945565b60125b81600360058110151561595457fe5b602002018181525050600560009054906101000a900473ffffffffffffffffffffffffffffffffffffffff1673ffffffffffffffffffffffffffffffffffffffff166370a08231306040518263ffffffff167c0100000000000000000000000000000000000000000000000000000000028152600401808273ffffffffffffffffffffffffffffffffffffffff1673ffffffffffffffffffffffffffffffffffffffff168152602001915050602060405180830381600087803b158015615a1a57600080fd5b505af1158015615a2e573d6000803e3d6000fd5b505050506040513d6020811015615a4457600080fd5b8101908080519060200190929190505050816004600581101515615a6457fe5b602002018181525050919050565b600080838311151515615a8457600080fd5b82840390508091505092915050565b600073ffffffffffffffffffffffffffffffffffffffff168173ffffffffffffffffffffffffffffffffffffffff1614151515615acf57600080fd5b615ad98282614b91565b1515615ae457600080fd5b60008260000160008373ffffffffffffffffffffffffffffffffffffffff1673ffffffffffffffffffffffffffffffffffffffff16815260200190815260200160002060006101000a81548160ff0219169083151502179055505050565b600073ffffffffffffffffffffffffffffffffffffffff168173ffffffffffffffffffffffffffffffffffffffff1614151515615b7e57600080fd5b615b888282614b91565b151515615b9457600080fd5b60018260000160008373ffffffffffffffffffffffffffffffffffffffff1673ffffffffffffffffffffffffffffffffffffffff16815260200190815260200160002060006101000a81548160ff0219169083151502179055505050565b60a060405190810160405280600590602082028038833980820191505090505090565b6040805190810160405280600290602082028038833980820191505090505090565b828054600181600116156101000203166002900490600052602060002090601f016020900481019282601f10615c7857805160ff1916838001178555615ca6565b82800160010185558215615ca6579182015b82811115615ca5578251825591602001919060010190615c8a565b5b509050615cb39190615cda565b5090565b608060405190810160405280600490602082028038833980820191505090505090565b615cfc91905b80821115615cf8576000816000905550600101615ce0565b5090565b905600a165627a7a72305820808d645620ce7fbfea446b1dbabdc4428ddb5d673499440d95c14babfb51342c0029",
  "source": "pragma solidity 0.4.24;\n\nimport \"openzeppelin-solidity/contracts/ownership/Secondary.sol\";\nimport \"openzeppelin-solidity/contracts/utils/ReentrancyGuard.sol\";\nimport \"openzeppelin-solidity/contracts/math/SafeMath.sol\";\nimport \"openzeppelin-solidity/contracts/token/ERC20/IERC20.sol\";\nimport \"openzeppelin-solidity/contracts/token/ERC20/ERC20Detailed.sol\";\nimport \"./IW12Crowdsale.sol\";\nimport \"./IW12Fund.sol\";\nimport \"../rates/IRates.sol\";\nimport \"../libs/Percent.sol\";\nimport \"../libs/PaymentMethods.sol\";\nimport \"../libs/PurchaseProcessing.sol\";\nimport \"../libs/Crowdsale.sol\";\nimport \"../versioning/Versionable.sol\";\nimport \"../token/IWToken.sol\";\nimport \"../access/roles/AdminRole.sol\";\nimport \"../access/roles/ProjectOwnerRole.sol\";\n\n\ncontract W12Crowdsale is IW12Crowdsale, AdminRole, ProjectOwnerRole, Versionable, Secondary, ReentrancyGuard {\n    using SafeMath for uint;\n    using SafeMath for uint8;\n    using Percent for uint;\n    using PaymentMethods for PaymentMethods.Methods;\n\n    struct PaymentMethodPurchaseFee {\n        bool has;\n        uint value;\n    }\n\n    IWToken public token;\n    IERC20 public originToken;\n    IW12Fund public fund;\n    IRates public rates;\n    uint public price;\n    uint public serviceFee;\n    // solhint-disable-next-line var-name-mixedcase\n    uint public WTokenSaleFeePercent;\n    address public serviceWallet;\n    address public swap;\n    uint8 public project_type;\n    string public project_name;\n    uint public refund_date;\n\n    // list of payment methods\n    PaymentMethods.Methods private paymentMethods;\n    mapping(bytes32 => PaymentMethodPurchaseFee) private paymentMethodsPurchaseFee;\n\n    Crowdsale.Stage[] public stages;\n    Crowdsale.Milestone[] public milestones;\n\n    event TokenPurchase(address indexed buyer, uint tokensBought, uint cost, uint change);\n\n    event StagesUpdated();\n\n    event StageUpdated(uint index);\n\n    event MilestonesUpdated();\n\n    event CrowdsaleSetUpDone();\n\n    event UnsoldTokenReturned(address indexed owner, uint amount);\n\n    constructor (\n        uint version,\n        address _originToken,\n        address _token,\n        uint _price,\n        address _serviceWallet,\n        address _swap,\n        uint _serviceFee,\n        uint _wTokenSaleFeePercent,\n        IW12Fund _fund,\n        IRates _rates\n    )\n        public Versionable(version)\n    {\n        require(_originToken != address(0));\n        require(_token != address(0));\n        require(_serviceFee.isPercent() && _serviceFee.fromPercent() < 100);\n        require(_wTokenSaleFeePercent.isPercent() && _wTokenSaleFeePercent.fromPercent() < 100);\n        require(_fund != address(0));\n        require(_swap != address(0));\n        require(_rates != address(0));\n\n        __setParameters(_price, _serviceWallet);\n\n        token = IWToken(_token);\n        originToken = IERC20(_originToken);\n        serviceFee = _serviceFee;\n        swap = _swap;\n        WTokenSaleFeePercent = _wTokenSaleFeePercent;\n        fund = _fund;\n        rates = _rates;\n    }\n\n    function setParameters(uint _price) external onlyPrimary beforeSaleStart {\n        __setParameters(_price, serviceWallet);\n    }\n\n    /**\n     * @dev Setup all crowdsale parameters at a time\n     */\n    function setup(\n        uint[6][] parametersOfStages,\n        uint[] bonusConditionsOfStages,\n        uint[4][] parametersOfMilestones,\n        uint32[] nameAndDescriptionsOffsetOfMilestones,\n        bytes nameAndDescriptionsOfMilestones,\n        bytes32[] paymentMethodsList\n    )\n        external onlyProjectOwner beforeSaleStart\n    {\n        // primary check of parameters of stages\n        require(parametersOfStages.length != 0);\n        require(parametersOfStages.length <= uint8(-1));\n\n        // primary check of parameters of milestones\n        require(parametersOfMilestones.length <= uint8(-1));\n        require(parametersOfMilestones.length == nameAndDescriptionsOffsetOfMilestones.length / 2);\n        require(parametersOfMilestones.length <= nameAndDescriptionsOfMilestones.length / 2);\n\n        // check payment methods list\n        require(paymentMethodsList.length != 0);\n\n        for (uint i = 0; i < paymentMethodsList.length; i++) {\n            require(rates.hasSymbol(paymentMethodsList[i]));\n        }\n\n        _setStages(\n            parametersOfStages,\n            bonusConditionsOfStages\n        );\n\n        _setMilestones(\n            parametersOfMilestones,\n            nameAndDescriptionsOffsetOfMilestones,\n            nameAndDescriptionsOfMilestones\n        );\n\n        paymentMethods.update(paymentMethodsList);\n\n        emit CrowdsaleSetUpDone();\n    }\n\n    function claimRemainingTokens() external onlyProjectOwner {\n        require(isEnded());\n\n        uint amount = token.balanceOf(address(this));\n\n        require(token.transfer(msg.sender, amount));\n\n        emit UnsoldTokenReturned(msg.sender, amount);\n    }\n\n    function stagesLength() external view returns (uint) {\n        return stages.length;\n    }\n\n    function milestonesLength() external view returns (uint) {\n        return milestones.length;\n    }\n\n    function getEndDate() external view returns (uint32) {\n        require(stages.length > 0);\n\n        return stages[stages.length - 1].endDate;\n    }\n\n    function getWToken() external view returns (IWToken) {\n        return token;\n    }\n\n    function getFund() external view returns (IW12Fund) {\n        return fund;\n    }\n\n    function getPaymentMethodsList() external view returns (bytes32[]) {\n        return paymentMethods.list();\n    }\n\n    function isPaymentMethodAllowed(bytes32 _method) external view returns (bool) {\n        return paymentMethods.isAllowed(_method);\n    }\n\n    function getInvoice(bytes32 method, uint amount) public view returns (uint[5]) {\n        require(paymentMethods.isAllowed(method));\n\n        (uint index, bool found) = getCurrentStageIndex();\n\n        if (!found) return;\n\n        if (PurchaseProcessing.METHOD_ETH() != method) {\n            if (!rates.isToken(method)) {\n                return;\n            }\n        }\n\n        uint[5] memory lastArguments = _getInvoiceLastArguments(method);\n\n        return PurchaseProcessing.invoice(\n            method,\n            amount,\n            stages[index].discount,\n            stages[index].volumeBoundaries,\n            stages[index].volumeBonuses,\n            lastArguments[0],\n            lastArguments[1],\n            lastArguments[2],\n            lastArguments[3],\n            lastArguments[4]\n        );\n    }\n\n    function addAdmin(address _account) public onlyAdmin {\n        _addAdmin(_account);\n    }\n\n    function removeAdmin(address _account) public onlyAdmin {\n        _removeAdmin(_account);\n    }\n\n    function addProjectOwner(address _account) public onlyAdmin {\n        _addProjectOwner(_account);\n    }\n\n    function removeProjectOwner(address _account) public onlyAdmin {\n        _removeProjectOwner(_account);\n    }\n\n    function getMilestone(uint index) public view returns (uint32, uint, uint32, uint32, bytes, bytes) {\n        return (\n            milestones[index].endDate,\n            milestones[index].tranchePercent,\n            milestones[index].voteEndDate,\n            milestones[index].withdrawalWindow,\n            milestones[index].name,\n            milestones[index].description\n        );\n    }\n\n    function getStage(uint index) public view returns (uint32, uint32, uint, uint32, uint[], uint[]) {\n        return (\n            stages[index].startDate,\n            stages[index].endDate,\n            stages[index].discount,\n            stages[index].vesting,\n            stages[index].volumeBoundaries,\n            stages[index].volumeBonuses\n        );\n    }\n\n    /**\n     * @dev Returns index of active milestone or last milestone\n     */\n    function getCurrentMilestoneIndex() public view returns(uint index, bool found) {\n        if (milestones.length == 0 || !isEnded()) return;\n\n        found = true;\n\n        // from withdrawalWindow begins next milestone\n        while (index < milestones.length - 1 && now >= milestones[index].withdrawalWindow) {\n            index++;\n        }\n    }\n\n    function getLastMilestoneIndex() public view returns(uint index, bool found) {\n        if (milestones.length == 0 || !isEnded()) return;\n\n        found = true;\n        index = milestones.length - 1;\n    }\n\n    function updatePurchaseFeeParameterForPaymentMethod(bytes32 method, bool has, uint value) public onlyAdmin {\n        require(value.isPercent() && value < Percent.MAX());\n        paymentMethodsPurchaseFee[method].has = has;\n        paymentMethodsPurchaseFee[method].value = value;\n    }\n\n    function getPurchaseFeeParameterForPaymentMethod(bytes32 method) public view returns(bool, uint) {\n        return (paymentMethodsPurchaseFee[method].has, paymentMethodsPurchaseFee[method].value);\n    }\n\n    function getPurchaseFeeForPaymentMethod(bytes32 method) public view returns(uint) {\n        if (paymentMethodsPurchaseFee[method].has) {\n            return paymentMethodsPurchaseFee[method].value;\n        }\n        return serviceFee;\n    }\n\n    function getFee(uint tokenAmount, uint cost, bytes32 method) public view returns (uint[2]) {\n        require(paymentMethods.isAllowed(method));\n        return PurchaseProcessing.fee(tokenAmount, cost, WTokenSaleFeePercent, getPurchaseFeeForPaymentMethod(method));\n    }\n\n    function getSaleVolumeBonus(uint value) public view returns (uint bonus) {\n        (uint index, bool found) = getCurrentStageIndex();\n\n        if (!found) return;\n\n        Crowdsale.Stage storage stage = stages[index];\n\n        return PurchaseProcessing.getBonus(value, stage.volumeBoundaries, stage.volumeBonuses);\n    }\n\n    function getCurrentStageIndex() public view returns (uint index, bool found) {\n        for (uint i = 0; i < stages.length; i++) {\n            Crowdsale.Stage storage stage = stages[i];\n\n            if (stage.startDate <= now && stage.endDate > now) {\n                return (i, true);\n            }\n        }\n\n        return (0, false);\n    }\n\n    function buyTokens(bytes32 method, uint amount) public payable nonReentrant onlyWhenSaleActive {\n        require(paymentMethods.isAllowed(method));\n\n        if (PurchaseProcessing.METHOD_ETH() != method) {\n            require(rates.getTokenAddress(method) != address(0));\n        }\n\n        (uint index, /*bool found*/) = getCurrentStageIndex();\n\n        uint[5] memory invoice = getInvoice(method, amount);\n        uint[2] memory fee = getFee(invoice[0], invoice[1], method);\n\n        _transferFee(fee, method);\n        _transferPurchase(invoice, fee, stages[index].vesting, method);\n        _recordPurchase(invoice, fee, method);\n\n        emit TokenPurchase(msg.sender, invoice[0], invoice[1], invoice[3]);\n    }\n\n    function getInvoiceByTokenAmount(bytes32 method, uint tokenAmount) public view returns (uint[4]) {\n        require(paymentMethods.isAllowed(method));\n\n        (uint index, bool found) = getCurrentStageIndex();\n\n        if (!found) return;\n\n        if (PurchaseProcessing.METHOD_ETH() != method) {\n            if (!rates.isToken(method)) {\n                return;\n            }\n        }\n\n        uint[5] memory lastArguments = _getInvoiceByTokenAmountLastArguments(method);\n\n        return PurchaseProcessing.invoiceByTokenAmount(\n            method,\n            tokenAmount,\n            stages[index].discount,\n            stages[index].volumeBoundaries,\n            stages[index].volumeBonuses,\n            lastArguments[0],\n            lastArguments[1],\n            lastArguments[2],\n            lastArguments[3],\n            lastArguments[4]\n        );\n    }\n\n    function isEnded() public view returns (bool) {\n        return stages.length == 0 || stages[stages.length - 1].endDate < now;\n    }\n\n    function isSaleActive() public view returns (bool) {\n        (, bool found) = getCurrentStageIndex();\n\n        return found;\n    }\n\n    /**\n     * @dev Update stages\n     * @param parameters List of primary parameters:\n     * [\n     *   uint32 startDate,\n     *   uint32 endDate,\n     *   uint discount,\n     *   uint32 vesting,\n     *   uint8 startIndexOfBonusConditions\n     *   uint8 endIndexOfBonusConditions\n     * ],\n     * @param bonusConditions List of bonus conditions:\n     * [uint boundary, uint bonus, ...]\n     */\n    function _setStages(uint[6][] parameters, uint[] bonusConditions) internal {\n        Crowdsale.setStages(stages, milestones, parameters, bonusConditions);\n\n        emit StagesUpdated();\n    }\n\n    /**\n     * @dev Update milestones\n     * @param parameters List of primary parameters:\n     * [\n     *   uint32 endDate,\n     *   uint32 voteEndDate,\n     *   uint32 withdrawalWindow,\n     *   uint tranchPercent\n     * ]\n     * @param offsets Offsets of names and descriptions in namesAndDescriptions:\n     * [uint32 offset1, uint32 offset2, ...]\n     * @param namesAndDescriptions Names and descriptions\n     */\n    function _setMilestones(\n        uint[4][] parameters,\n        uint32[] offsets,\n        bytes namesAndDescriptions\n    )\n        internal\n    {\n        Crowdsale.setMilestones(stages, milestones, parameters, offsets, namesAndDescriptions);\n\n        emit MilestonesUpdated();\n    }\n\n    function __setParameters(uint _price, address _serviceWallet) internal {\n        require(_price > 0);\n        require(_serviceWallet != address(0));\n\n        price = _price;\n        serviceWallet = _serviceWallet;\n    }\n\n    function _transferFee(uint[2] _fee, bytes32 method) internal {\n        PurchaseProcessing.transferFee(\n            _fee,\n            method,\n            rates.isToken(method) ? rates.getTokenAddress(method) : address(0),\n            address(token),\n            address(originToken),\n            swap,\n            serviceWallet\n        );\n    }\n\n    function _transferPurchase(uint[5] _invoice, uint[2] _fee, uint32 vesting, bytes32 method) internal {\n        PurchaseProcessing.transferPurchase(\n            _invoice,\n            _fee,\n            vesting,\n            method,\n            rates.isToken(method) ? address(rates.getTokenAddress(method)) : address(0),\n            address(token)\n        );\n    }\n\n    function _recordPurchase(uint[5] _invoice, uint[2] _fee, bytes32 method) internal {\n        if (method == PurchaseProcessing.METHOD_ETH()) {\n            fund.recordPurchase.value(_invoice[1].sub(_fee[1]))(\n                msg.sender, _invoice[0], method, _invoice[1].sub(_fee[1]), _invoice[2]);\n        } else {\n            require(IERC20(rates.getTokenAddress(method)).transfer(address(fund), _invoice[1].sub(_fee[1])));\n            fund.recordPurchase(msg.sender, _invoice[0], method, _invoice[1].sub(_fee[1]), _invoice[2]);\n        }\n    }\n\n    function _getInvoiceLastArguments(bytes32 method) internal view returns(uint[5] result) {\n        result[0] = rates.get(method);\n        result[1] = price;\n        result[2] = uint(token.decimals());\n        result[3] = PurchaseProcessing.METHOD_ETH() == method\n            ? 18\n            : uint(ERC20Detailed(rates.getTokenAddress(method)).decimals());\n        result[4] = token.balanceOf(address(this));\n    }\n\n    function _getInvoiceByTokenAmountLastArguments(bytes32 method) internal view returns (uint[5] result) {\n        result[0] = rates.get(method);\n        result[1] = price;\n        result[2] = uint(token.decimals());\n        result[3] = PurchaseProcessing.METHOD_ETH() == method\n            ? 18\n            : uint(ERC20Detailed(rates.getTokenAddress(method)).decimals());\n        result[4] = token.balanceOf(address(this));\n    }\n\n\n    function getProjectType() public view returns(uint8)\n    {\n        return project_type;\n    }\n\n\n    function setProjectType(uint8 val_type) public onlyAdmin\n    {\n        project_type = val_type;\n    }\n\n\n    function getProjectName() public view returns(string)\n    {\n        return project_name;\n    }\n\n\n    function setProjectName(string val_name) public onlyAdmin\n    {\n        project_name = val_name;\n    }\n\n\n    function getRefundDate() public view returns(uint)\n    {\n        return refund_date;\n    }\n\n\n    function setRefundDate(uint val) public onlyAdmin\n    {\n        refund_date = val;\n    }\n\n\n\n\n    modifier beforeSaleStart() {\n        if (stages.length > 0) {\n            require(stages[0].startDate > now);\n        }\n\n        _;\n    }\n\n    modifier onlyWhenSaleActive() {\n        require(isSaleActive());\n\n        _;\n    }\n}\n",
  "sourcePath": "/Users/gauss/_games/w12/Protocol/contracts/crowdsale/W12Crowdsale.sol",
  "compiler": {
    "name": "solc",
    "version": "0.4.24+commit.e67f0147.Emscripten.clang"
  },
  "schemaVersion": "3.0.16",
  "updatedAt": "2019-10-06T23:01:18.462Z",
  "devdoc": {
    "methods": {
      "getCurrentMilestoneIndex()": {
        "details": "Returns index of active milestone or last milestone"
      },
      "primary()": {
        "return": "the address of the primary."
      },
      "setup(uint256[6][],uint256[],uint256[4][],uint32[],bytes,bytes32[])": {
        "details": "Setup all crowdsale parameters at a time"
      },
      "transferPrimary(address)": {
        "details": "Transfers contract to a new primary.",
        "params": {
          "recipient": "The address of new primary. "
        }
      }
    }
  },
  "userdoc": {
    "methods": {}
  }
}