{
  "contractName": "W12Crowdsale",
  "abi": [
    {
      "constant": true,
      "inputs": [],
      "name": "originToken",
      "outputs": [
        {
          "name": "",
          "type": "address"
        }
      ],
      "payable": false,
      "stateMutability": "view",
      "type": "function"
    },
    {
      "constant": true,
      "inputs": [],
      "name": "WTokenSaleFeePercent",
      "outputs": [
        {
          "name": "",
          "type": "uint256"
        }
      ],
      "payable": false,
      "stateMutability": "view",
      "type": "function"
    },
    {
      "constant": true,
      "inputs": [],
      "name": "version",
      "outputs": [
        {
          "name": "",
          "type": "uint256"
        }
      ],
      "payable": false,
      "stateMutability": "view",
      "type": "function"
    },
    {
      "constant": true,
      "inputs": [],
      "name": "serviceWallet",
      "outputs": [
        {
          "name": "",
          "type": "address"
        }
      ],
      "payable": false,
      "stateMutability": "view",
      "type": "function"
    },
    {
      "constant": false,
      "inputs": [],
      "name": "renounceOwnership",
      "outputs": [],
      "payable": false,
      "stateMutability": "nonpayable",
      "type": "function"
    },
    {
      "constant": true,
      "inputs": [
        {
          "name": "",
          "type": "uint256"
        }
      ],
      "name": "milestoneDates",
      "outputs": [
        {
          "name": "",
          "type": "uint32"
        }
      ],
      "payable": false,
      "stateMutability": "view",
      "type": "function"
    },
    {
      "constant": true,
      "inputs": [],
      "name": "swap",
      "outputs": [
        {
          "name": "",
          "type": "address"
        }
      ],
      "payable": false,
      "stateMutability": "view",
      "type": "function"
    },
    {
      "constant": true,
      "inputs": [
        {
          "name": "",
          "type": "uint256"
        }
      ],
      "name": "stages",
      "outputs": [
        {
          "name": "startDate",
          "type": "uint32"
        },
        {
          "name": "endDate",
          "type": "uint32"
        },
        {
          "name": "discount",
          "type": "uint256"
        },
        {
          "name": "vesting",
          "type": "uint32"
        }
      ],
      "payable": false,
      "stateMutability": "view",
      "type": "function"
    },
    {
      "constant": true,
      "inputs": [],
      "name": "serviceFee",
      "outputs": [
        {
          "name": "",
          "type": "uint256"
        }
      ],
      "payable": false,
      "stateMutability": "view",
      "type": "function"
    },
    {
      "constant": true,
      "inputs": [],
      "name": "owner",
      "outputs": [
        {
          "name": "",
          "type": "address"
        }
      ],
      "payable": false,
      "stateMutability": "view",
      "type": "function"
    },
    {
      "constant": true,
      "inputs": [],
      "name": "price",
      "outputs": [
        {
          "name": "",
          "type": "uint256"
        }
      ],
      "payable": false,
      "stateMutability": "view",
      "type": "function"
    },
    {
      "constant": true,
      "inputs": [],
      "name": "fund",
      "outputs": [
        {
          "name": "",
          "type": "address"
        }
      ],
      "payable": false,
      "stateMutability": "view",
      "type": "function"
    },
    {
      "constant": true,
      "inputs": [
        {
          "name": "",
          "type": "uint256"
        }
      ],
      "name": "milestones",
      "outputs": [
        {
          "name": "endDate",
          "type": "uint32"
        },
        {
          "name": "tranchePercent",
          "type": "uint256"
        },
        {
          "name": "voteEndDate",
          "type": "uint32"
        },
        {
          "name": "withdrawalWindow",
          "type": "uint32"
        },
        {
          "name": "name",
          "type": "bytes"
        },
        {
          "name": "description",
          "type": "bytes"
        }
      ],
      "payable": false,
      "stateMutability": "view",
      "type": "function"
    },
    {
      "constant": false,
      "inputs": [
        {
          "name": "_newOwner",
          "type": "address"
        }
      ],
      "name": "transferOwnership",
      "outputs": [],
      "payable": false,
      "stateMutability": "nonpayable",
      "type": "function"
    },
    {
      "constant": true,
      "inputs": [],
      "name": "token",
      "outputs": [
        {
          "name": "",
          "type": "address"
        }
      ],
      "payable": false,
      "stateMutability": "view",
      "type": "function"
    },
    {
      "inputs": [
        {
          "name": "version",
          "type": "uint256"
        },
        {
          "name": "_originToken",
          "type": "address"
        },
        {
          "name": "_token",
          "type": "address"
        },
        {
          "name": "_price",
          "type": "uint256"
        },
        {
          "name": "_serviceWallet",
          "type": "address"
        },
        {
          "name": "_swap",
          "type": "address"
        },
        {
          "name": "_serviceFee",
          "type": "uint256"
        },
        {
          "name": "_WTokenSaleFeePercent",
          "type": "uint256"
        },
        {
          "name": "_fund",
          "type": "address"
        }
      ],
      "payable": false,
      "stateMutability": "nonpayable",
      "type": "constructor"
    },
    {
      "payable": true,
      "stateMutability": "payable",
      "type": "fallback"
    },
    {
      "anonymous": false,
      "inputs": [
        {
          "indexed": true,
          "name": "buyer",
          "type": "address"
        },
        {
          "indexed": false,
          "name": "amountPaid",
          "type": "uint256"
        },
        {
          "indexed": false,
          "name": "tokensBought",
          "type": "uint256"
        },
        {
          "indexed": false,
          "name": "change",
          "type": "uint256"
        }
      ],
      "name": "TokenPurchase",
      "type": "event"
    },
    {
      "anonymous": false,
      "inputs": [],
      "name": "StagesUpdated",
      "type": "event"
    },
    {
      "anonymous": false,
      "inputs": [
        {
          "indexed": false,
          "name": "index",
          "type": "uint256"
        }
      ],
      "name": "StageUpdated",
      "type": "event"
    },
    {
      "anonymous": false,
      "inputs": [],
      "name": "MilestonesUpdated",
      "type": "event"
    },
    {
      "anonymous": false,
      "inputs": [
        {
          "indexed": true,
          "name": "owner",
          "type": "address"
        },
        {
          "indexed": false,
          "name": "amount",
          "type": "uint256"
        }
      ],
      "name": "UnsoldTokenReturned",
      "type": "event"
    },
    {
      "anonymous": false,
      "inputs": [
        {
          "indexed": false,
          "name": "value",
          "type": "uint256"
        }
      ],
      "name": "debug",
      "type": "event"
    },
    {
      "anonymous": false,
      "inputs": [
        {
          "indexed": true,
          "name": "previousOwner",
          "type": "address"
        }
      ],
      "name": "OwnershipRenounced",
      "type": "event"
    },
    {
      "anonymous": false,
      "inputs": [
        {
          "indexed": true,
          "name": "previousOwner",
          "type": "address"
        },
        {
          "indexed": true,
          "name": "newOwner",
          "type": "address"
        }
      ],
      "name": "OwnershipTransferred",
      "type": "event"
    },
    {
      "constant": true,
      "inputs": [],
      "name": "stagesLength",
      "outputs": [
        {
          "name": "",
          "type": "uint256"
        }
      ],
      "payable": false,
      "stateMutability": "view",
      "type": "function"
    },
    {
      "constant": true,
      "inputs": [],
      "name": "milestonesLength",
      "outputs": [
        {
          "name": "",
          "type": "uint256"
        }
      ],
      "payable": false,
      "stateMutability": "view",
      "type": "function"
    },
    {
      "constant": true,
      "inputs": [
        {
          "name": "index",
          "type": "uint256"
        }
      ],
      "name": "getMilestone",
      "outputs": [
        {
          "name": "",
          "type": "uint32"
        },
        {
          "name": "",
          "type": "uint256"
        },
        {
          "name": "",
          "type": "uint32"
        },
        {
          "name": "",
          "type": "uint32"
        },
        {
          "name": "",
          "type": "bytes"
        },
        {
          "name": "",
          "type": "bytes"
        }
      ],
      "payable": false,
      "stateMutability": "view",
      "type": "function"
    },
    {
      "constant": true,
      "inputs": [
        {
          "name": "index",
          "type": "uint256"
        }
      ],
      "name": "getStage",
      "outputs": [
        {
          "name": "",
          "type": "uint32"
        },
        {
          "name": "",
          "type": "uint32"
        },
        {
          "name": "",
          "type": "uint256"
        },
        {
          "name": "",
          "type": "uint32"
        },
        {
          "name": "",
          "type": "uint256[]"
        },
        {
          "name": "",
          "type": "uint256[]"
        }
      ],
      "payable": false,
      "stateMutability": "view",
      "type": "function"
    },
    {
      "constant": true,
      "inputs": [
        {
          "name": "stageNumber",
          "type": "uint256"
        }
      ],
      "name": "getStageVolumeBoundaries",
      "outputs": [
        {
          "name": "",
          "type": "uint256[]"
        }
      ],
      "payable": false,
      "stateMutability": "view",
      "type": "function"
    },
    {
      "constant": true,
      "inputs": [
        {
          "name": "stageNumber",
          "type": "uint256"
        }
      ],
      "name": "getStageVolumeBonuses",
      "outputs": [
        {
          "name": "",
          "type": "uint256[]"
        }
      ],
      "payable": false,
      "stateMutability": "view",
      "type": "function"
    },
    {
      "constant": true,
      "inputs": [],
      "name": "getEndDate",
      "outputs": [
        {
          "name": "",
          "type": "uint32"
        }
      ],
      "payable": false,
      "stateMutability": "view",
      "type": "function"
    },
    {
      "constant": true,
      "inputs": [],
      "name": "getCurrentMilestoneIndex",
      "outputs": [
        {
          "name": "index",
          "type": "uint256"
        },
        {
          "name": "found",
          "type": "bool"
        }
      ],
      "payable": false,
      "stateMutability": "view",
      "type": "function"
    },
    {
      "constant": true,
      "inputs": [],
      "name": "getLastMilestoneIndex",
      "outputs": [
        {
          "name": "index",
          "type": "uint256"
        },
        {
          "name": "found",
          "type": "bool"
        }
      ],
      "payable": false,
      "stateMutability": "view",
      "type": "function"
    },
    {
      "constant": false,
      "inputs": [
        {
          "name": "_price",
          "type": "uint256"
        }
      ],
      "name": "setParameters",
      "outputs": [],
      "payable": false,
      "stateMutability": "nonpayable",
      "type": "function"
    },
    {
      "constant": false,
      "inputs": [
        {
          "name": "dates",
          "type": "uint32[2][]"
        },
        {
          "name": "stage_discounts",
          "type": "uint256[]"
        },
        {
          "name": "stage_vestings",
          "type": "uint32[]"
        }
      ],
      "name": "setStages",
      "outputs": [],
      "payable": false,
      "stateMutability": "nonpayable",
      "type": "function"
    },
    {
      "constant": false,
      "inputs": [
        {
          "name": "stage",
          "type": "uint256"
        },
        {
          "name": "volumeBoundaries",
          "type": "uint256[]"
        },
        {
          "name": "volumeBonuses",
          "type": "uint256[]"
        }
      ],
      "name": "setStageVolumeBonuses",
      "outputs": [],
      "payable": false,
      "stateMutability": "nonpayable",
      "type": "function"
    },
    {
      "constant": false,
      "inputs": [
        {
          "name": "dates",
          "type": "uint32[]"
        },
        {
          "name": "tranchePercents",
          "type": "uint256[]"
        },
        {
          "name": "offsets",
          "type": "uint32[]"
        },
        {
          "name": "namesAndDescriptions",
          "type": "bytes"
        }
      ],
      "name": "setMilestones",
      "outputs": [],
      "payable": false,
      "stateMutability": "nonpayable",
      "type": "function"
    },
    {
      "constant": false,
      "inputs": [],
      "name": "buyTokens",
      "outputs": [],
      "payable": true,
      "stateMutability": "payable",
      "type": "function"
    },
    {
      "constant": true,
      "inputs": [],
      "name": "getWToken",
      "outputs": [
        {
          "name": "",
          "type": "address"
        }
      ],
      "payable": false,
      "stateMutability": "view",
      "type": "function"
    },
    {
      "constant": true,
      "inputs": [],
      "name": "getFund",
      "outputs": [
        {
          "name": "",
          "type": "address"
        }
      ],
      "payable": false,
      "stateMutability": "view",
      "type": "function"
    },
    {
      "constant": true,
      "inputs": [
        {
          "name": "value",
          "type": "uint256"
        }
      ],
      "name": "getSaleVolumeBonus",
      "outputs": [
        {
          "name": "bonus",
          "type": "uint256"
        }
      ],
      "payable": false,
      "stateMutability": "view",
      "type": "function"
    },
    {
      "constant": true,
      "inputs": [],
      "name": "getCurrentStageIndex",
      "outputs": [
        {
          "name": "index",
          "type": "uint256"
        },
        {
          "name": "found",
          "type": "bool"
        }
      ],
      "payable": false,
      "stateMutability": "view",
      "type": "function"
    },
    {
      "constant": false,
      "inputs": [],
      "name": "claimRemainingTokens",
      "outputs": [],
      "payable": false,
      "stateMutability": "nonpayable",
      "type": "function"
    },
    {
      "constant": true,
      "inputs": [],
      "name": "isEnded",
      "outputs": [
        {
          "name": "",
          "type": "bool"
        }
      ],
      "payable": false,
      "stateMutability": "view",
      "type": "function"
    },
    {
      "constant": true,
      "inputs": [],
      "name": "isSaleActive",
      "outputs": [
        {
          "name": "",
          "type": "bool"
        }
      ],
      "payable": false,
      "stateMutability": "view",
      "type": "function"
    }
  ],
  "bytecode": "0x608060405260016002553480156200001657600080fd5b506040516101208062004ea383398101806040528101908080519060200190929190805190602001909291908051906020019092919080519060200190929190805190602001909291908051906020019092919080519060200190929190805190602001909291908051906020019092919050505088806000819055505033600160006101000a81548173ffffffffffffffffffffffffffffffffffffffff021916908373ffffffffffffffffffffffffffffffffffffffff160217905550600073ffffffffffffffffffffffffffffffffffffffff168773ffffffffffffffffffffffffffffffffffffffff16141515156200011257600080fd5b62000131836200037464010000000002620041e9176401000000009004565b80156200015c575060646200015a84620003be6401000000000262004210176401000000009004565b105b15156200016857600080fd5b62000187826200037464010000000002620041e9176401000000009004565b8015620001b257506064620001b083620003be6401000000000262004210176401000000009004565b105b1515620001be57600080fd5b600073ffffffffffffffffffffffffffffffffffffffff168173ffffffffffffffffffffffffffffffffffffffff1614151515620001fb57600080fd5b600073ffffffffffffffffffffffffffffffffffffffff168473ffffffffffffffffffffffffffffffffffffffff16141515156200023857600080fd5b86600360006101000a81548173ffffffffffffffffffffffffffffffffffffffff021916908373ffffffffffffffffffffffffffffffffffffffff16021790555087600460006101000a81548173ffffffffffffffffffffffffffffffffffffffff021916908373ffffffffffffffffffffffffffffffffffffffff160217905550620002d586866200042b640100000000026401000000009004565b8260068190555083600960006101000a81548173ffffffffffffffffffffffffffffffffffffffff021916908373ffffffffffffffffffffffffffffffffffffffff1602179055508160078190555080600a60006101000a81548173ffffffffffffffffffffffffffffffffffffffff021916908373ffffffffffffffffffffffffffffffffffffffff16021790555050505050505050505062000547565b60006200038f620004c4640100000000026401000000009004565b8210158015620003b75750620003b3620004cc640100000000026401000000009004565b8211155b9050919050565b6000620003da8262000374640100000000026401000000009004565b1515620003e657600080fd5b6200042462000403620004ef640100000000026401000000009004565b600a0a83620004f864010000000002620044a8179091906401000000009004565b9050919050565b6000821115156200043b57600080fd5b600073ffffffffffffffffffffffffffffffffffffffff168173ffffffffffffffffffffffffffffffffffffffff16141515156200047857600080fd5b8160058190555080600860006101000a81548173ffffffffffffffffffffffffffffffffffffffff021916908373ffffffffffffffffffffffffffffffffffffffff1602179055505050565b600080905090565b6000620004e762000524640100000000026401000000009004565b600a0a905090565b60006002905090565b6000806000831115156200050b57600080fd5b82848115156200051757fe5b0490508091505092915050565b60006200053f620004ef640100000000026401000000009004565b600201905090565b61494c80620005576000396000f3006080604052600436106101c2576000357c0100000000000000000000000000000000000000000000000000000000900463ffffffff1680630ee62c77146101cc57806313096a411461024e57806314f66d34146102a5578063208853c9146102db5780632442e1cb1461031c5780632e3250201461046e5780632fbe599014610578578063313602d4146105a35780633baba4d7146105ba5780634090cb64146105e55780634b9b5fab1461063c57806354fd4d50146106a75780635641f3c3146106d2578063564566a814610729578063715018a61461075857806372e6a8811461076f578063792c02ea146107bc5780638119c065146107e7578063845ddcb21461083e5780638abdf5aa146108b85780638da5cb5b146108e35780638edd6eb61461093a578063a035b1fe14610991578063a4fd6f56146109bc578063b1356488146109eb578063b60d428814610a22578063ce48bf2214610a79578063d0febe4c14610ad6578063d6d65f3d14610ae0578063daa4cf8814610b16578063dda71ebe14610b4c578063e89e4ed614610bcf578063e93b054014610d21578063f12585f514610d4e578063f2fde38b14610dd0578063fc0c546a14610e13575b6101ca610e6a565b005b3480156101d857600080fd5b506101f7600480360381019080803590602001909291905050506115d7565b6040518080602001828103825283818151815260200191508051906020019060200280838360005b8381101561023a57808201518184015260208101905061021f565b505050509050019250505060405180910390f35b34801561025a57600080fd5b5061026361164f565b604051808273ffffffffffffffffffffffffffffffffffffffff1673ffffffffffffffffffffffffffffffffffffffff16815260200191505060405180910390f35b3480156102b157600080fd5b506102ba611675565b60405180838152602001821515151581526020019250505060405180910390f35b3480156102e757600080fd5b50610306600480360381019080803590602001909291905050506116b0565b6040518082815260200191505060405180910390f35b34801561032857600080fd5b506103476004803603810190808035906020019092919050505061176a565b604051808763ffffffff1663ffffffff1681526020018681526020018563ffffffff1663ffffffff1681526020018463ffffffff1663ffffffff1681526020018060200180602001838103835285818151815260200191508051906020019080838360005b838110156103c75780820151818401526020810190506103ac565b50505050905090810190601f1680156103f45780820380516001836020036101000a031916815260200191505b50838103825284818151815260200191508051906020019080838360005b8381101561042d578082015181840152602081019050610412565b50505050905090810190601f16801561045a5780820380516001836020036101000a031916815260200191505b509850505050505050505060405180910390f35b34801561047a57600080fd5b50610499600480360381019080803590602001909291905050506119b4565b604051808763ffffffff1663ffffffff1681526020018663ffffffff1663ffffffff1681526020018581526020018463ffffffff1663ffffffff1681526020018060200180602001838103835285818151815260200191508051906020019060200280838360005b8381101561051c578082015181840152602081019050610501565b50505050905001838103825284818151815260200191508051906020019060200280838360005b8381101561055e578082015181840152602081019050610543565b505050509050019850505050505050505060405180910390f35b34801561058457600080fd5b5061058d611b6a565b6040518082815260200191505060405180910390f35b3480156105af57600080fd5b506105b8611b70565b005b3480156105c657600080fd5b506105cf611e7b565b6040518082815260200191505060405180910390f35b3480156105f157600080fd5b506105fa611e88565b604051808273ffffffffffffffffffffffffffffffffffffffff1673ffffffffffffffffffffffffffffffffffffffff16815260200191505060405180910390f35b34801561064857600080fd5b506106a5600480360381019080803590602001908201803590602001919091929391929390803590602001908201803590602001919091929391929390803590602001908201803590602001919091929391929390505050611eb2565b005b3480156106b357600080fd5b506106bc6126bb565b6040518082815260200191505060405180910390f35b3480156106de57600080fd5b506106e76126c1565b604051808273ffffffffffffffffffffffffffffffffffffffff1673ffffffffffffffffffffffffffffffffffffffff16815260200191505060405180910390f35b34801561073557600080fd5b5061073e6126e7565b604051808215151515815260200191505060405180910390f35b34801561076457600080fd5b5061076d6126fc565b005b34801561077b57600080fd5b5061079a60048036038101908080359060200190929190505050612801565b604051808263ffffffff1663ffffffff16815260200191505060405180910390f35b3480156107c857600080fd5b506107d161283a565b6040518082815260200191505060405180910390f35b3480156107f357600080fd5b506107fc612847565b604051808273ffffffffffffffffffffffffffffffffffffffff1673ffffffffffffffffffffffffffffffffffffffff16815260200191505060405180910390f35b34801561084a57600080fd5b506108696004803603810190808035906020019092919050505061286d565b604051808563ffffffff1663ffffffff1681526020018463ffffffff1663ffffffff1681526020018381526020018263ffffffff1663ffffffff16815260200194505050505060405180910390f35b3480156108c457600080fd5b506108cd6128dc565b6040518082815260200191505060405180910390f35b3480156108ef57600080fd5b506108f86128e2565b604051808273ffffffffffffffffffffffffffffffffffffffff1673ffffffffffffffffffffffffffffffffffffffff16815260200191505060405180910390f35b34801561094657600080fd5b5061094f612908565b604051808273ffffffffffffffffffffffffffffffffffffffff1673ffffffffffffffffffffffffffffffffffffffff16815260200191505060405180910390f35b34801561099d57600080fd5b506109a6612932565b6040518082815260200191505060405180910390f35b3480156109c857600080fd5b506109d1612938565b604051808215151515815260200191505060405180910390f35b3480156109f757600080fd5b50610a0061298f565b604051808263ffffffff1663ffffffff16815260200191505060405180910390f35b348015610a2e57600080fd5b50610a376129e2565b604051808273ffffffffffffffffffffffffffffffffffffffff1673ffffffffffffffffffffffffffffffffffffffff16815260200191505060405180910390f35b348015610a8557600080fd5b50610ad460048036038101908080359060200190929190803590602001908201803590602001919091929391929390803590602001908201803590602001919091929391929390505050612a08565b005b610ade610e6a565b005b348015610aec57600080fd5b50610af5612da6565b60405180838152602001821515151581526020019250505060405180910390f35b348015610b2257600080fd5b50610b2b612e43565b60405180838152602001821515151581526020019250505060405180910390f35b348015610b5857600080fd5b50610bcd600480360381019080803590602001908201803590602001919091929391929390803590602001908201803590602001919091929391929390803590602001908201803590602001919091929391929390803590602001908201803590602001919091929391929390505050612eec565b005b348015610bdb57600080fd5b50610bfa600480360381019080803590602001909291905050506138e8565b604051808763ffffffff1663ffffffff1681526020018681526020018563ffffffff1663ffffffff1681526020018463ffffffff1663ffffffff1681526020018060200180602001838103835285818151815260200191508051906020019080838360005b83811015610c7a578082015181840152602081019050610c5f565b50505050905090810190601f168015610ca75780820380516001836020036101000a031916815260200191505b50838103825284818151815260200191508051906020019080838360005b83811015610ce0578082015181840152602081019050610cc5565b50505050905090810190601f168015610d0d5780820380516001836020036101000a031916815260200191505b509850505050505050505060405180910390f35b348015610d2d57600080fd5b50610d4c60048036038101908080359060200190929190505050613a93565b005b348015610d5a57600080fd5b50610d7960048036038101908080359060200190929190505050613b72565b6040518080602001828103825283818151815260200191508051906020019060200280838360005b83811015610dbc578082015181840152602081019050610da1565b505050509050019250505060405180910390f35b348015610ddc57600080fd5b50610e11600480360381019080803573ffffffffffffffffffffffffffffffffffffffff169060200190929190505050613bea565b005b348015610e1f57600080fd5b50610e28613c52565b604051808273ffffffffffffffffffffffffffffffffffffffff1673ffffffffffffffffffffffffffffffffffffffff16815260200191505060405180910390f35b600080600080600080600080600060016002600082825401925050819055506002549050610e966126e7565b1515610f0a576040517f08c379a00000000000000000000000000000000000000000000000000000000081526004018080602001828103825260178152602001807f53616c65206973206e6f7420737461727465642079657400000000000000000081525060200191505060405180910390fd5b600034111515610f1957600080fd5b610f21612e43565b509850600b89815481101515610f3357fe5b9060005260206000209060050201600101549750600b89815481101515610f5657fe5b906000526020600020906005020160020160009054906101000a900463ffffffff169650610f83346116b0565b9550610f90348988613c78565b509450945094506000600754111561126a57610fb76007548661419f90919063ffffffff16565b9150600460009054906101000a900473ffffffffffffffffffffffffffffffffffffffff1673ffffffffffffffffffffffffffffffffffffffff166323b872dd600960009054906101000a900473ffffffffffffffffffffffffffffffffffffffff16600860009054906101000a900473ffffffffffffffffffffffffffffffffffffffff16856040518463ffffffff167c0100000000000000000000000000000000000000000000000000000000028152600401808473ffffffffffffffffffffffffffffffffffffffff1673ffffffffffffffffffffffffffffffffffffffff1681526020018373ffffffffffffffffffffffffffffffffffffffff1673ffffffffffffffffffffffffffffffffffffffff1681526020018281526020019350505050602060405180830381600087803b1580156110f657600080fd5b505af115801561110a573d6000803e3d6000fd5b505050506040513d602081101561112057600080fd5b8101908080519060200190929190505050151561113c57600080fd5b600360009054906101000a900473ffffffffffffffffffffffffffffffffffffffff1673ffffffffffffffffffffffffffffffffffffffff1663a9059cbb600960009054906101000a900473ffffffffffffffffffffffffffffffffffffffff16846040518363ffffffff167c0100000000000000000000000000000000000000000000000000000000028152600401808373ffffffffffffffffffffffffffffffffffffffff1673ffffffffffffffffffffffffffffffffffffffff16815260200182815260200192505050602060405180830381600087803b15801561122357600080fd5b505af1158015611237573d6000803e3d6000fd5b505050506040513d602081101561124d57600080fd5b8101908080519060200190929190505050151561126957600080fd5b5b600360009054906101000a900473ffffffffffffffffffffffffffffffffffffffff1673ffffffffffffffffffffffffffffffffffffffff16639d2e477733878a6040518463ffffffff167c0100000000000000000000000000000000000000000000000000000000028152600401808473ffffffffffffffffffffffffffffffffffffffff1673ffffffffffffffffffffffffffffffffffffffff1681526020018381526020018263ffffffff1663ffffffff1681526020019350505050602060405180830381600087803b15801561134357600080fd5b505af1158015611357573d6000803e3d6000fd5b505050506040513d602081101561136d57600080fd5b8101908080519060200190929190505050151561138957600080fd5b60008311156113da573373ffffffffffffffffffffffffffffffffffffffff166108fc849081150290604051600060405180830381858888f193505050501580156113d8573d6000803e3d6000fd5b505b6000600654111561146357600860009054906101000a900473ffffffffffffffffffffffffffffffffffffffff1673ffffffffffffffffffffffffffffffffffffffff166108fc6114366006548761419f90919063ffffffff16565b9081150290604051600060405180830381858888f19350505050158015611461573d6000803e3d6000fd5b505b600a60009054906101000a900473ffffffffffffffffffffffffffffffffffffffff1673ffffffffffffffffffffffffffffffffffffffff1663958799cb3073ffffffffffffffffffffffffffffffffffffffff1631620186a09033896040518563ffffffff167c0100000000000000000000000000000000000000000000000000000000028152600401808373ffffffffffffffffffffffffffffffffffffffff1673ffffffffffffffffffffffffffffffffffffffff168152602001828152602001925050506000604051808303818589803b15801561154457600080fd5b5088f1158015611558573d6000803e3d6000fd5b5050505050503373ffffffffffffffffffffffffffffffffffffffff167f347f5f0051b895093800553e6e78ef332849e2552639a4f5ffe66535788ae07885878660405180848152602001838152602001828152602001935050505060405180910390a2600254811415156115cc57600080fd5b505050505050505050565b6060600b828154811015156115e857fe5b906000526020600020906005020160040180548060200260200160405190810160405280929190818152602001828054801561164357602002820191906000526020600020905b81548152602001906001019080831161162f575b50505050509050919050565b600460009054906101000a900473ffffffffffffffffffffffffffffffffffffffff1681565b6000806000600c80549050905060008114806116965750611694612938565b155b156116a0576116ab565b600191506001810392505b509091565b60008060008060006116c0612e43565b935093508215156116d45760009450611761565b600b848154811015156116e357fe5b90600052602060002090600502019150600090505b816003018054905081101561176057816003018181548110151561171857fe5b90600052602060002001548610151561174e57816004018181548110151561173c57fe5b90600052602060002001549450611753565b611760565b80806001019150506116f8565b5b50505050919050565b600080600080606080600c8781548110151561178257fe5b906000526020600020906005020160000160009054906101000a900463ffffffff16600c888154811015156117b357fe5b906000526020600020906005020160010154600c898154811015156117d457fe5b906000526020600020906005020160020160009054906101000a900463ffffffff16600c8a81548110151561180557fe5b906000526020600020906005020160020160049054906101000a900463ffffffff16600c8b81548110151561183657fe5b9060005260206000209060050201600301600c8c81548110151561185657fe5b9060005260206000209060050201600401818054600181600116156101000203166002900480601f0160208091040260200160405190810160405280929190818152602001828054600181600116156101000203166002900480156118fc5780601f106118d1576101008083540402835291602001916118fc565b820191906000526020600020905b8154815290600101906020018083116118df57829003601f168201915b50505050509150808054600181600116156101000203166002900480601f0160208091040260200160405190810160405280929190818152602001828054600181600116156101000203166002900480156119985780601f1061196d57610100808354040283529160200191611998565b820191906000526020600020905b81548152906001019060200180831161197b57829003601f168201915b5050505050905095509550955095509550955091939550919395565b600080600080606080600b878154811015156119cc57fe5b906000526020600020906005020160000160009054906101000a900463ffffffff16600b888154811015156119fd57fe5b906000526020600020906005020160000160049054906101000a900463ffffffff16600b89815481101515611a2e57fe5b906000526020600020906005020160010154600b8a815481101515611a4f57fe5b906000526020600020906005020160020160009054906101000a900463ffffffff16600b8b815481101515611a8057fe5b9060005260206000209060050201600301600b8c815481101515611aa057fe5b906000526020600020906005020160040181805480602002602001604051908101604052809291908181526020018280548015611afc57602002820191906000526020600020905b815481526020019060010190808311611ae8575b5050505050915080805480602002602001604051908101604052809291908181526020018280548015611b4e57602002820191906000526020600020905b815481526020019060010190808311611b3a575b5050505050905095509550955095509550955091939550919395565b60075481565b6000600160009054906101000a900473ffffffffffffffffffffffffffffffffffffffff1673ffffffffffffffffffffffffffffffffffffffff163373ffffffffffffffffffffffffffffffffffffffff16141515611bce57600080fd5b611bd6612938565b1515611be157600080fd5b600360009054906101000a900473ffffffffffffffffffffffffffffffffffffffff1673ffffffffffffffffffffffffffffffffffffffff166370a08231306040518263ffffffff167c0100000000000000000000000000000000000000000000000000000000028152600401808273ffffffffffffffffffffffffffffffffffffffff1673ffffffffffffffffffffffffffffffffffffffff168152602001915050602060405180830381600087803b158015611c9e57600080fd5b505af1158015611cb2573d6000803e3d6000fd5b505050506040513d6020811015611cc857600080fd5b81019080805190602001909291905050509050600360009054906101000a900473ffffffffffffffffffffffffffffffffffffffff1673ffffffffffffffffffffffffffffffffffffffff1663a9059cbb600160009054906101000a900473ffffffffffffffffffffffffffffffffffffffff16836040518363ffffffff167c0100000000000000000000000000000000000000000000000000000000028152600401808373ffffffffffffffffffffffffffffffffffffffff1673ffffffffffffffffffffffffffffffffffffffff16815260200182815260200192505050602060405180830381600087803b158015611dc257600080fd5b505af1158015611dd6573d6000803e3d6000fd5b505050506040513d6020811015611dec57600080fd5b81019080805190602001909291905050501515611e0857600080fd5b600160009054906101000a900473ffffffffffffffffffffffffffffffffffffffff1673ffffffffffffffffffffffffffffffffffffffff167f26ffb867a6b19bc0240d4e732ed6cfb0f0b6d93143a99cfb24ba5873308861f8826040518082815260200191505060405180910390a250565b6000600c80549050905090565b6000600360009054906101000a900473ffffffffffffffffffffffffffffffffffffffff16905090565b600080600160009054906101000a900473ffffffffffffffffffffffffffffffffffffffff1673ffffffffffffffffffffffffffffffffffffffff163373ffffffffffffffffffffffffffffffffffffffff16141515611f1157600080fd5b6000600b805490501115611f655742600b6000815481101515611f3057fe5b906000526020600020906005020160000160009054906101000a900463ffffffff1663ffffffff16111515611f6457600080fd5b5b7fffffffffffffffffffffffffffffffffffffffffffffffffffffffffffffffff60ff168888905011151515611f9a57600080fd5b600088889050111515611fac57600080fd5b8585905088889050141515611fc057600080fd5b8383905088889050141515611fd457600080fd5b6000600c8054905011156120ef57878760018a8a9050038181101515611ff657fe5b905060400201600160028110151561200a57fe5b602002013563ffffffff1663ffffffff16600c600081548110151561202b57fe5b906000526020600020906005020160000160009054906101000a900463ffffffff1663ffffffff161115156120ee576040517f08c379a000000000000000000000000000000000000000000000000000000000815260040180806020018281038252603c8152602001807f4c61737420737461676520656e6444617465206d757374206265206c6573732081526020017f7468616e206669727374206d696c6573746f6e6520656e64446174650000000081525060400191505060405180910390fd5b5b878790509150600b60006121039190614507565b600090505b8160ff168160ff1610156126855761213686868360ff16818110151561212a57fe5b905060200201356141e9565b80156121615750606461215f87878460ff16818110151561215357fe5b90506020020135614210565b105b15156121fb576040517f08c379a00000000000000000000000000000000000000000000000000000000081526004018080602001828103825260318152602001807f537461676520646973636f756e74206973206e6f7420696e20616c6c6f77656481526020017f2072616e6765205b302c2039392e39392900000000000000000000000000000081525060400191505060405180910390fd5b4288888360ff16818110151561220d57fe5b905060400201600060028110151561222157fe5b602002013563ffffffff1663ffffffff1611151561223e57600080fd5b87878260ff16818110151561224f57fe5b905060400201600160028110151561226357fe5b602002013563ffffffff1663ffffffff1688888360ff16818110151561228557fe5b905060400201600060028110151561229957fe5b602002013563ffffffff1663ffffffff16101515612345576040517f08c379a00000000000000000000000000000000000000000000000000000000081526004018080602001828103825260248152602001807f53746167652073746172742064617465206d75737420626520677420656e642081526020017f646174650000000000000000000000000000000000000000000000000000000081525060400191505060405180910390fd5b60008160ff16111561245d5787878260ff16818110151561236257fe5b905060400201600060028110151561237657fe5b602002013563ffffffff1663ffffffff1688886001840360ff16818110151561239b57fe5b90506040020160016002811015156123af57fe5b602002013563ffffffff1663ffffffff161115151561245c576040517f08c379a00000000000000000000000000000000000000000000000000000000081526004018080602001828103825260228152602001807f53746167657320617265206e6f7420696e20686973746f726963616c206f726481526020017f657200000000000000000000000000000000000000000000000000000000000081525060400191505060405180910390fd5b5b600b60c0604051908101604052808a8a8560ff16818110151561247c57fe5b905060400201600060028110151561249057fe5b602002013563ffffffff1663ffffffff1681526020018a8a8560ff1681811015156124b757fe5b90506040020160016002811015156124cb57fe5b602002013563ffffffff1663ffffffff16815260200188888560ff1681811015156124f257fe5b90506020020135815260200186868560ff16818110151561250f57fe5b9050602002013563ffffffff1663ffffffff16815260200160006040519080825280602002602001820160405280156125575781602001602082028038833980820191505090505b508152602001600060405190808252806020026020018201604052801561258d5781602001602082028038833980820191505090505b508152509080600181540180825580915050906001820390600052602060002090600502016000909192909190915060008201518160000160006101000a81548163ffffffff021916908363ffffffff16021790555060208201518160000160046101000a81548163ffffffff021916908363ffffffff1602179055506040820151816001015560608201518160020160006101000a81548163ffffffff021916908363ffffffff160217905550608082015181600301908051906020019061265792919061452b565b5060a082015181600401908051906020019061267492919061452b565b505050508080600101915050612108565b7f743961f4e677d1146fbf85d75565b1c5474fd083eb166f8b9595cf5d01a4d6e660405160405180910390a15050505050505050565b60005481565b600860009054906101000a900473ffffffffffffffffffffffffffffffffffffffff1681565b6000806126f2612e43565b9150508091505090565b600160009054906101000a900473ffffffffffffffffffffffffffffffffffffffff1673ffffffffffffffffffffffffffffffffffffffff163373ffffffffffffffffffffffffffffffffffffffff1614151561275857600080fd5b600160009054906101000a900473ffffffffffffffffffffffffffffffffffffffff1673ffffffffffffffffffffffffffffffffffffffff167ff8df31144d9c2f0f6b59d69b8b98abd5459d07f2742c4df920b25aae33c6482060405160405180910390a26000600160006101000a81548173ffffffffffffffffffffffffffffffffffffffff021916908373ffffffffffffffffffffffffffffffffffffffff160217905550565b600d8181548110151561281057fe5b9060005260206000209060089182820401919006600402915054906101000a900463ffffffff1681565b6000600b80549050905090565b600960009054906101000a900473ffffffffffffffffffffffffffffffffffffffff1681565b600b8181548110151561287c57fe5b90600052602060002090600502016000915090508060000160009054906101000a900463ffffffff16908060000160049054906101000a900463ffffffff16908060010154908060020160009054906101000a900463ffffffff16905084565b60065481565b600160009054906101000a900473ffffffffffffffffffffffffffffffffffffffff1681565b6000600a60009054906101000a900473ffffffffffffffffffffffffffffffffffffffff16905090565b60055481565b600080600b80549050148061298a575042600b6001600b805490500381548110151561296057fe5b906000526020600020906005020160000160049054906101000a900463ffffffff1663ffffffff16105b905090565b600080600b805490501115156129a457600080fd5b600b6001600b80549050038154811015156129bb57fe5b906000526020600020906005020160000160049054906101000a900463ffffffff16905090565b600a60009054906101000a900473ffffffffffffffffffffffffffffffffffffffff1681565b6000600160009054906101000a900473ffffffffffffffffffffffffffffffffffffffff1673ffffffffffffffffffffffffffffffffffffffff163373ffffffffffffffffffffffffffffffffffffffff16141515612a6657600080fd5b6000600b805490501115612aba5742600b6000815481101515612a8557fe5b906000526020600020906005020160000160009054906101000a900463ffffffff1663ffffffff16111515612ab957600080fd5b5b8282905085859050141515612ace57600080fd5b600b8054905086101515612ae157600080fd5b600090505b84849050811015612caf57612b0e8383838181101515612b0257fe5b905060200201356141e9565b8015612b3657506064612b348484848181101515612b2857fe5b90506020020135614210565b105b1515612bd0576040517f08c379a00000000000000000000000000000000000000000000000000000000081526004018080602001828103825260308152602001807f426f6e75732070657263656e74206973206e6f7420696e20616c6c6f7765642081526020017f72616e6765205b302c2039392e3939290000000000000000000000000000000081525060400191505060405180910390fd5b6000811115612ca2578484828181101515612be757fe5b905060200201358585600184038181101515612bff57fe5b90506020020135101515612ca1576040517f08c379a000000000000000000000000000000000000000000000000000000000815260040180806020018281038252602c8152602001807f566f6c756d6520626f756e646172696573206d75737420626520696e2061736381526020017f656e64696e67206f72646572000000000000000000000000000000000000000081525060400191505060405180910390fd5b5b8080600101915050612ae6565b600b86815481101515612cbe57fe5b90600052602060002090600502016003016000612cdb9190614578565b600b86815481101515612cea57fe5b90600052602060002090600502016004016000612d079190614578565b8484600b88815481101515612d1857fe5b90600052602060002090600502016003019190612d36929190614599565b508282600b88815481101515612d4857fe5b90600052602060002090600502016004019190612d66929190614599565b507f34cf54504fd39ab670a54acbb37f686c5bd25e6eedfa39889cba899d360bc7d9866040518082815260200191505060405180910390a1505050505050565b6000806000600c8054905090506000811480612dc75750612dc5612938565b155b15612dd157612e3e565b600191505b6001810383108015612e2b5750600d60016003600186010203815481101515612dfb57fe5b90600052602060002090600891828204019190066004029054906101000a900463ffffffff1663ffffffff164210155b15612e3d578280600101935050612dd6565b5b509091565b600080600080600091505b600b80549050821015612edb57600b82815481101515612e6a57fe5b90600052602060002090600502019050428160000160009054906101000a900463ffffffff1663ffffffff1611158015612ebd5750428160000160049054906101000a900463ffffffff1663ffffffff16115b15612ece5781600193509350612ee6565b8180600101925050612e4e565b600080819150935093505b50509091565b6000806000606080600160009054906101000a900473ffffffffffffffffffffffffffffffffffffffff1673ffffffffffffffffffffffffffffffffffffffff163373ffffffffffffffffffffffffffffffffffffffff16141515612f5057600080fd5b6000600b805490501115612fa45742600b6000815481101515612f6f57fe5b906000526020600020906005020160000160009054906101000a900463ffffffff1663ffffffff16111515612fa357600080fd5b5b7fffffffffffffffffffffffffffffffffffffffffffffffffffffffffffffffff60ff168d8d905011151515612fd957600080fd5b60038d8d905010151515612fec57600080fd5b600060038e8e9050811515612ffd57fe5b0614151561300a57600080fd5b8888905061302560028d8d905061424a90919063ffffffff16565b14151561303157600080fd5b8c8c905061304c60038d8d905061424a90919063ffffffff16565b14151561305857600080fd5b60028b8b905002878790501015151561307057600080fd5b6000600b80549050111561317b578c8c6000818110151561308d57fe5b9050602002013563ffffffff1663ffffffff16600b6001600b80549050038154811015156130b757fe5b906000526020600020906005020160000160049054906101000a900463ffffffff1663ffffffff1610151561317a576040517f08c379a000000000000000000000000000000000000000000000000000000000815260040180806020018281038252603f8152602001807f4669727374206d696c6573746f6e6520656e6444617465206d7573742062652081526020017f67726561746572207468616e206c61737420737461676520656e64446174650081525060400191505060405180910390fd5b5b600c600061318991906145e6565b600d6000613197919061460a565b8c8c600d91906131a8929190614632565b506000945060009350600092505b8c8c905060ff168360ff16101561380557613243858a8a600260038860ff168115156131de57fe5b040260ff1681811015156131ee57fe5b9050602002013563ffffffff1663ffffffff1689898080601f0160208091040260200160405190810160405280939291908181526020018383808284378201915050505050506142889092919063ffffffff16565b91506132fb8989600260038760ff1681151561325b57fe5b040260ff16818110151561326b57fe5b9050602002013563ffffffff1663ffffffff1686018a8a6001600260038960ff1681151561329557fe5b04020160ff1681811015156132a657fe5b9050602002013563ffffffff1663ffffffff1689898080601f0160208091040260200160405190810160405280939291908181526020018383808284378201915050505050506142889092919063ffffffff16565b9050428d8d8560ff16818110151561330f57fe5b9050602002013563ffffffff1663ffffffff1611151561332e57600080fd5b8c8c8460ff16818110151561333f57fe5b9050602002013563ffffffff1663ffffffff168d8d6001860160ff16818110151561336657fe5b9050602002013563ffffffff1663ffffffff1611151561338557600080fd5b8c8c6001850160ff16818110151561339957fe5b9050602002013563ffffffff1663ffffffff168d8d6002860160ff1681811015156133c057fe5b9050602002013563ffffffff1663ffffffff161115156133df57600080fd5b600082511115156133ef57600080fd5b600081511115156133ff57600080fd5b61342e8b8b60038660ff1681151561341357fe5b0460ff16818110151561342257fe5b905060200201356141e9565b15156134c8576040517f08c379a00000000000000000000000000000000000000000000000000000000081526004018080602001828103825260308152602001807f5472616e6368652070657263656e74206973206e6f7420696e20616c6c6f776581526020017f642072616e6765205b302c20313030290000000000000000000000000000000081525060400191505060405180910390fd5b60008360ff1611156135bb578c8c8460ff1681811015156134e557fe5b9050602002013563ffffffff1663ffffffff168d8d6001860360ff16818110151561350c57fe5b9050602002013563ffffffff1663ffffffff161015156135ba576040517f08c379a00000000000000000000000000000000000000000000000000000000081526004018080602001828103825260298152602001807f4d696c6573746f6e65206461746573206973206e6f7420696e20617363656e6481526020017f696e67206f72646572000000000000000000000000000000000000000000000081525060400191505060405180910390fd5b5b600c60c0604051908101604052808f8f8760ff1681811015156135da57fe5b9050602002013563ffffffff1663ffffffff1681526020018d8d60038860ff1681151561360357fe5b0460ff16818110151561361257fe5b9050602002013581526020018f8f6001880160ff16818110151561363257fe5b9050602002013563ffffffff1663ffffffff1681526020018f8f6002880160ff16818110151561365e57fe5b9050602002013563ffffffff1663ffffffff168152602001848152602001838152509080600181540180825580915050906001820390600052602060002090600502016000909192909190915060008201518160000160006101000a81548163ffffffff021916908363ffffffff1602179055506020820151816001015560408201518160020160006101000a81548163ffffffff021916908363ffffffff16021790555060608201518160020160046101000a81548163ffffffff021916908363ffffffff16021790555060808201518160030190805190602001906137469291906146e8565b5060a08201518160040190805190602001906137639291906146e8565b505050508888600160038660ff1681151561377a57fe5b040160ff16818110151561378a57fe5b9050602002013563ffffffff16898960038660ff168115156137a857fe5b0460ff1681811015156137b757fe5b9050602002013563ffffffff160163ffffffff16850194508a8a60038560ff168115156137e057fe5b0460ff1681811015156137ef57fe5b90506020020135840193506003830192506131b6565b73__Percent_______________________________63d49d51816040518163ffffffff167c010000000000000000000000000000000000000000000000000000000002815260040160206040518083038186803b15801561386557600080fd5b505af4158015613879573d6000803e3d6000fd5b505050506040513d602081101561388f57600080fd5b8101908080519060200190929190505050841415156138ad57600080fd5b7f56d9a2e016027a3725bf162ef2779c8b28d4dbec97c679cfba02dbb31a34c7ca60405160405180910390a150505050505050505050505050565b600c818154811015156138f757fe5b90600052602060002090600502016000915090508060000160009054906101000a900463ffffffff16908060010154908060020160009054906101000a900463ffffffff16908060020160049054906101000a900463ffffffff1690806003018054600181600116156101000203166002900480601f0160208091040260200160405190810160405280929190818152602001828054600181600116156101000203166002900480156139eb5780601f106139c0576101008083540402835291602001916139eb565b820191906000526020600020905b8154815290600101906020018083116139ce57829003601f168201915b505050505090806004018054600181600116156101000203166002900480601f016020809104026020016040519081016040528092919081815260200182805460018160011615610100020316600290048015613a895780601f10613a5e57610100808354040283529160200191613a89565b820191906000526020600020905b815481529060010190602001808311613a6c57829003601f168201915b5050505050905086565b600160009054906101000a900473ffffffffffffffffffffffffffffffffffffffff1673ffffffffffffffffffffffffffffffffffffffff163373ffffffffffffffffffffffffffffffffffffffff16141515613aef57600080fd5b6000600b805490501115613b435742600b6000815481101515613b0e57fe5b906000526020600020906005020160000160009054906101000a900463ffffffff1663ffffffff16111515613b4257600080fd5b5b613b6f81600860009054906101000a900473ffffffffffffffffffffffffffffffffffffffff16614315565b50565b6060600b82815481101515613b8357fe5b9060005260206000209060050201600301805480602002602001604051908101604052809291908181526020018280548015613bde57602002820191906000526020600020905b815481526020019060010190808311613bca575b50505050509050919050565b600160009054906101000a900473ffffffffffffffffffffffffffffffffffffffff1673ffffffffffffffffffffffffffffffffffffffff163373ffffffffffffffffffffffffffffffffffffffff16141515613c4657600080fd5b613c4f816143ac565b50565b600360009054906101000a900473ffffffffffffffffffffffffffffffffffffffff1681565b6000806000806000879350600360009054906101000a900473ffffffffffffffffffffffffffffffffffffffff1673ffffffffffffffffffffffffffffffffffffffff166370a08231306040518263ffffffff167c0100000000000000000000000000000000000000000000000000000000028152600401808273ffffffffffffffffffffffffffffffffffffffff1673ffffffffffffffffffffffffffffffffffffffff168152602001915050602060405180830381600087803b158015613d4057600080fd5b505af1158015613d54573d6000803e3d6000fd5b505050506040513d6020811015613d6a57600080fd5b81019080805190602001909291905050509050600360009054906101000a900473ffffffffffffffffffffffffffffffffffffffff1673ffffffffffffffffffffffffffffffffffffffff1663313ce5676040518163ffffffff167c0100000000000000000000000000000000000000000000000000000000028152600401602060405180830381600087803b158015613e0357600080fd5b505af1158015613e17573d6000803e3d6000fd5b505050506040513d6020811015613e2d57600080fd5b810190808051906020019092919050505060ff16600a0a8110151515613e5257600080fd5b60008711613e6257600554613f14565b613f138773__Percent_______________________________63d49d51816040518163ffffffff167c010000000000000000000000000000000000000000000000000000000002815260040160206040518083038186803b158015613ec657600080fd5b505af4158015613eda573d6000803e3d6000fd5b505050506040513d6020811015613ef057600080fd5b81019080805190602001909291905050500360055461419f90919063ffffffff16565b5b915061415b73__Percent_______________________________63d49d51816040518163ffffffff167c010000000000000000000000000000000000000000000000000000000002815260040160206040518083038186803b158015613f7957600080fd5b505af4158015613f8d573d6000803e3d6000fd5b505050506040513d6020811015613fa357600080fd5b810190808051906020019092919050505061414d8461413f600360009054906101000a900473ffffffffffffffffffffffffffffffffffffffff1673ffffffffffffffffffffffffffffffffffffffff1663313ce5676040518163ffffffff167c0100000000000000000000000000000000000000000000000000000000028152600401602060405180830381600087803b15801561404157600080fd5b505af1158015614055573d6000803e3d6000fd5b505050506040513d602081101561406b57600080fd5b810190808051906020019092919050505060ff16600a0a6141318c73__Percent_______________________________63d49d51816040518163ffffffff167c010000000000000000000000000000000000000000000000000000000002815260040160206040518083038186803b1580156140e657600080fd5b505af41580156140fa573d6000803e3d6000fd5b505050506040513d602081101561411057600080fd5b8101908080519060200190929190505050018f61424a90919063ffffffff16565b61424a90919063ffffffff16565b6144a890919063ffffffff16565b6144a890919063ffffffff16565b9450848110156141955761418a8561417c838b61424a90919063ffffffff16565b6144a890919063ffffffff16565b935083880392508094505b5093509350935093565b60006141aa826141e9565b15156141b557600080fd5b6141e16141c06144d2565b6141d3848661424a90919063ffffffff16565b6144a890919063ffffffff16565b905092915050565b60006141f36144e4565b821015801561420957506142056144d2565b8211155b9050919050565b600061421b826141e9565b151561422657600080fd5b6142436142316144ec565b600a0a836144a890919063ffffffff16565b9050919050565b600080600084141561425f5760009150614281565b828402905082848281151561427057fe5b0414151561427d57600080fd5b8091505b5092915050565b60608082840185511015151561429d57600080fd5b8215600081146142b857604051915060208201604052614309565b6040519150601f8416801560200281840101858101878315602002848b0101015b818310156142f657805183526020830192506020810190506142d9565b50868552601f19601f8301166040525050505b50809150509392505050565b60008211151561432457600080fd5b600073ffffffffffffffffffffffffffffffffffffffff168173ffffffffffffffffffffffffffffffffffffffff161415151561436057600080fd5b8160058190555080600860006101000a81548173ffffffffffffffffffffffffffffffffffffffff021916908373ffffffffffffffffffffffffffffffffffffffff1602179055505050565b600073ffffffffffffffffffffffffffffffffffffffff168173ffffffffffffffffffffffffffffffffffffffff16141515156143e857600080fd5b8073ffffffffffffffffffffffffffffffffffffffff16600160009054906101000a900473ffffffffffffffffffffffffffffffffffffffff1673ffffffffffffffffffffffffffffffffffffffff167f8be0079c531659141344cd1fd0a4f28419497f9722a3daafe3b4186f6b6457e060405160405180910390a380600160006101000a81548173ffffffffffffffffffffffffffffffffffffffff021916908373ffffffffffffffffffffffffffffffffffffffff16021790555050565b6000806000831115156144ba57600080fd5b82848115156144c557fe5b0490508091505092915050565b60006144dc6144f5565b600a0a905090565b600080905090565b60006002905090565b60006144ff6144ec565b600201905090565b50805460008255600502906000526020600020908101906145289190614768565b50565b828054828255906000526020600020908101928215614567579160200282015b8281111561456657825182559160200191906001019061454b565b5b50905061457491906147f4565b5090565b508054600082559060005260206000209081019061459691906147f4565b50565b8280548282559060005260206000209081019282156145d5579160200282015b828111156145d45782358255916020019190600101906145b9565b5b5090506145e291906147f4565b5090565b50805460008255600502906000526020600020908101906146079190614819565b50565b50805460008255600701600890049060005260206000209081019061462f91906147f4565b50565b828054828255906000526020600020906007016008900481019282156146d75791602002820160005b838211156146a557833563ffffffff1683826101000a81548163ffffffff021916908363ffffffff160217905550926020019260040160208160030104928301926001030261465b565b80156146d55782816101000a81549063ffffffff02191690556004016020816003010492830192600103026146a5565b505b5090506146e491906148a5565b5090565b828054600181600116156101000203166002900490600052602060002090601f016020900481019282601f1061472957805160ff1916838001178555614757565b82800160010185558215614757579182015b8281111561475657825182559160200191906001019061473b565b5b50905061476491906147f4565b5090565b6147f191905b808211156147ed57600080820160006101000a81549063ffffffff02191690556000820160046101000a81549063ffffffff021916905560018201600090556002820160006101000a81549063ffffffff02191690556003820160006147d49190614578565b6004820160006147e49190614578565b5060050161476e565b5090565b90565b61481691905b808211156148125760008160009055506001016147fa565b5090565b90565b6148a291905b8082111561489e57600080820160006101000a81549063ffffffff021916905560018201600090556002820160006101000a81549063ffffffff02191690556002820160046101000a81549063ffffffff021916905560038201600061488591906148d8565b60048201600061489591906148d8565b5060050161481f565b5090565b90565b6148d591905b808211156148d157600081816101000a81549063ffffffff0219169055506001016148ab565b5090565b90565b50805460018160011615610100020316600290046000825580601f106148fe575061491d565b601f01602090049060005260206000209081019061491c91906147f4565b5b505600a165627a7a7230582098f14fa9c7df1531dfac1e860169d025b8b67891dfd9e8a0dab486c700744f350029",
  "source": "pragma solidity ^0.4.24;\n\nimport \"../openzeppelin-solidity/contracts/ownership/Ownable.sol\";\nimport \"../openzeppelin-solidity/contracts/ReentrancyGuard.sol\";\nimport \"../openzeppelin-solidity/contracts/math/SafeMath.sol\";\nimport \"../solidity-bytes-utils/contracts/BytesLib.sol\";\nimport \"./interfaces/IW12Crowdsale.sol\";\nimport \"../openzeppelin-solidity/contracts/token/ERC20/ERC20.sol\";\nimport \"./interfaces/IW12Fund.sol\";\nimport \"./libs/Percent.sol\";\nimport \"./versioning/Versionable.sol\";\n\ncontract W12Crowdsale is Versionable, IW12Crowdsale, Ownable, ReentrancyGuard {\n    using SafeMath for uint;\n    using Percent for uint;\n    using BytesLib for bytes;\n\n    struct Stage {\n        uint32 startDate;\n        uint32 endDate;\n        uint discount;\n        uint32 vesting;\n        uint[] volumeBoundaries;\n        uint[] volumeBonuses;\n    }\n\n    struct Milestone {\n        uint32 endDate;\n        uint  tranchePercent;\n        uint32 voteEndDate;\n        uint32 withdrawalWindow;\n        bytes name;\n        bytes description;\n    }\n\n    WToken public token;\n    ERC20 public originToken;\n    uint public price;\n    uint public serviceFee;\n    uint public WTokenSaleFeePercent;\n    address public serviceWallet;\n    address public swap;\n    IW12Fund public fund;\n\n    Stage[] public stages;\n    Milestone[] public milestones;\n    uint32[] public milestoneDates;\n\n    event TokenPurchase(address indexed buyer, uint amountPaid, uint tokensBought, uint change);\n    event StagesUpdated();\n    event StageUpdated(uint index);\n    event MilestonesUpdated();\n    event UnsoldTokenReturned(address indexed owner, uint amount);\n\n    event debug(uint value);\n\n    constructor (\n        uint version,\n        address _originToken,\n        address _token,\n        uint _price,\n        address _serviceWallet,\n        address _swap,\n        uint _serviceFee,\n        uint _WTokenSaleFeePercent,\n        IW12Fund _fund\n    )\n        Versionable(version) public\n    {\n        require(_token != address(0));\n        require(_serviceFee.isPercent() && _serviceFee.fromPercent() < 100);\n        require(_WTokenSaleFeePercent.isPercent() && _WTokenSaleFeePercent.fromPercent() < 100);\n        require(_fund != address(0));\n        require(_swap != address(0));\n\n        token = WToken(_token);\n        originToken = ERC20(_originToken);\n\n        __setParameters(_price, _serviceWallet);\n        serviceFee = _serviceFee;\n        swap = _swap;\n        WTokenSaleFeePercent = _WTokenSaleFeePercent;\n        fund = _fund;\n    }\n\n    function stagesLength() external view returns (uint) {\n        return stages.length;\n    }\n\n    function milestonesLength() external view returns (uint) {\n        return milestones.length;\n    }\n\n    function getMilestone(uint index) public view returns (uint32, uint, uint32, uint32, bytes, bytes) {\n        return (\n            milestones[index].endDate,\n            milestones[index].tranchePercent,\n            milestones[index].voteEndDate,\n            milestones[index].withdrawalWindow,\n            milestones[index].name,\n            milestones[index].description\n        );\n    }\n\n    function getStage(uint index) public view returns (uint32, uint32, uint, uint32, uint[], uint[]) {\n        return (\n            stages[index].startDate,\n            stages[index].endDate,\n            stages[index].discount,\n            stages[index].vesting,\n            stages[index].volumeBoundaries,\n            stages[index].volumeBonuses\n        );\n    }\n\n    function getStageVolumeBoundaries(uint stageNumber) external view returns (uint[]) {\n        return stages[stageNumber].volumeBoundaries;\n    }\n\n    function getStageVolumeBonuses(uint stageNumber) external view returns (uint[]) {\n        return stages[stageNumber].volumeBonuses;\n    }\n\n    function getEndDate() external view returns (uint32) {\n        require(stages.length > 0);\n\n        return stages[stages.length - 1].endDate;\n    }\n\n    // returns last milestone index if completely ended or active milestone at now\n    function getCurrentMilestoneIndex() public view returns (uint index, bool found) {\n        uint milestonesCount = milestones.length;\n\n        if(milestonesCount == 0 || !isEnded()) return;\n\n        found = true;\n\n        // from withdrawalWindow begins next milestone\n        while(index < milestonesCount - 1 && now >= milestoneDates[(index + 1) * 3 - 1])\n            index++;\n    }\n\n    function getLastMilestoneIndex() public view returns (uint index, bool found) {\n        uint milestonesCount = milestones.length;\n\n        if (milestonesCount == 0 || !isEnded()) return;\n\n        found = true;\n        index = milestonesCount - 1;\n    }\n\n    function __setParameters(uint _price, address _serviceWallet) internal {\n        require(_price > 0);\n        require(_serviceWallet != address(0));\n\n        price = _price;\n        serviceWallet = _serviceWallet;\n    }\n\n    function setParameters(uint _price) external onlyOwner beforeSaleStart {\n        __setParameters(_price, serviceWallet);\n    }\n\n    function setStages(uint32[2][] dates, uint[] stage_discounts, uint32[] stage_vestings) external onlyOwner beforeSaleStart {\n        require(dates.length <= uint8(-1));\n        require(dates.length > 0);\n        require(dates.length == stage_discounts.length);\n        require(dates.length == stage_vestings.length);\n\n        if (milestones.length > 0) {\n            require(milestones[0].endDate > dates[dates.length - 1][1], \"Last stage endDate must be less than first milestone endDate\");\n        }\n\n        uint8 stagesCount = uint8(dates.length);\n\n        delete stages;\n\n        for(uint8 i = 0; i < stagesCount; i++) {\n            require(stage_discounts[i].isPercent() && stage_discounts[i].fromPercent() < 100, \"Stage discount is not in allowed range [0, 99.99)\");\n            require(dates[i][0] > now);\n            require(dates[i][0] < dates[i][1], \"Stage start date must be gt end date\");\n\n            if (i > 0) {\n                require(dates[i - 1][1] <= dates[i][0], \"Stages are not in historical order\");\n            }\n\n            stages.push(Stage({\n                startDate: dates[i][0],\n                endDate: dates[i][1],\n                discount: stage_discounts[i],\n                vesting: stage_vestings[i],\n                volumeBoundaries: new uint[](0),\n                volumeBonuses: new uint[](0)\n            }));\n        }\n\n        emit StagesUpdated();\n    }\n\n    function setStageVolumeBonuses(uint stage, uint[] volumeBoundaries, uint[] volumeBonuses) external onlyOwner beforeSaleStart {\n        require(volumeBoundaries.length == volumeBonuses.length);\n        require(stage < stages.length);\n\n        for(uint i = 0; i < volumeBoundaries.length; i++) {\n            require(volumeBonuses[i].isPercent() && volumeBonuses[i].fromPercent() < 100, \"Bonus percent is not in allowed range [0, 99.99)\");\n\n            if (i > 0) {\n                require(volumeBoundaries[i - 1] < volumeBoundaries[i], \"Volume boundaries must be in ascending order\");\n            }\n        }\n\n        delete stages[stage].volumeBoundaries;\n        delete stages[stage].volumeBonuses;\n\n        stages[stage].volumeBoundaries = volumeBoundaries;\n        stages[stage].volumeBonuses = volumeBonuses;\n\n        emit StageUpdated(stage);\n    }\n\n    function setMilestones(\n        uint32[] dates,\n        uint[] tranchePercents,\n        uint32[] offsets,\n        bytes namesAndDescriptions\n    )\n        external onlyOwner beforeSaleStart\n    {\n        require(dates.length <= uint8(- 1));\n        require(dates.length >= 3);\n        require(dates.length % 3 == 0);\n        require(tranchePercents.length.mul(2) == offsets.length);\n        require(tranchePercents.length.mul(3) == dates.length);\n        require(namesAndDescriptions.length >= tranchePercents.length * 2);\n\n        if (stages.length > 0) {\n            require(\n                stages[stages.length - 1].endDate < dates[0],\n                \"First milestone endDate must be greater than last stage endDate\"\n            );\n        }\n\n        delete milestones;\n        delete milestoneDates;\n\n        milestoneDates = dates;\n\n        uint offset = 0;\n        uint totalPercents = 0;\n\n        for(uint8 i = 0; i < uint8(dates.length); i += 3) {\n            bytes memory name = namesAndDescriptions.slice(offset, offsets[i / 3 * 2]);\n            bytes memory description = namesAndDescriptions.slice(offset + offsets[i / 3 * 2], offsets[i / 3 * 2 + 1]);\n\n            require(dates[i] > now);\n            require(dates[i + 1] > dates[i]);\n            require(dates[i + 2] > dates[i + 1]);\n            require(name.length > 0);\n            require(description.length > 0);\n            require(\n                tranchePercents[i / 3].isPercent(),\n                \"Tranche percent is not in allowed range [0, 100)\"\n            );\n\n            if (i > 0) {\n                require(dates[i - 1] < dates[i], \"Milestone dates is not in ascending order\");\n            }\n\n            milestones.push(Milestone({\n                endDate: dates[i],\n                tranchePercent: tranchePercents[i / 3],\n                voteEndDate: dates[i + 1],\n                withdrawalWindow: dates[i + 2],\n                name: name,\n                description: description\n            }));\n\n            offset += offsets[i / 3] + offsets[i / 3 + 1];\n            totalPercents += tranchePercents[i / 3];\n        }\n\n        require(totalPercents == Percent.MAX());\n\n        emit MilestonesUpdated();\n    }\n\n    function buyTokens() payable public nonReentrant onlyWhenSaleActive {\n        require(msg.value > 0);\n\n        (uint index, ) = getCurrentStageIndex();\n\n        uint discount = stages[index].discount;\n        uint32 vesting = stages[index].vesting;\n        uint volumeBonus = getSaleVolumeBonus(msg.value);\n\n        (uint tokenAmount, uint weiCost, uint change, ) = _purchaseOrder(msg.value, discount, volumeBonus);\n\n        if (WTokenSaleFeePercent > 0) {\n            uint tokensFee = tokenAmount.percent(WTokenSaleFeePercent);\n\n            require(originToken.transferFrom(swap, serviceWallet, tokensFee));\n            require(token.transfer(swap, tokensFee));\n        }\n\n        require(token.vestingTransfer(msg.sender, tokenAmount, vesting));\n\n        if (change > 0) {\n            msg.sender.transfer(change);\n        }\n\n        if(serviceFee > 0)\n            serviceWallet.transfer(weiCost.percent(serviceFee));\n\n        fund.recordPurchase.value(address(this).balance).gas(100000)(msg.sender, tokenAmount);\n\n        emit TokenPurchase(msg.sender, weiCost, tokenAmount, change);\n    }\n\n    function _purchaseOrder(uint _wei, uint discount, uint volumeBonus)\n        internal view returns (uint tokens, uint weiCost, uint change, uint actualPrice)\n    {\n        weiCost = _wei;\n\n        uint balance = token.balanceOf(address(this));\n\n        require(balance >= 10 ** uint(token.decimals()));\n\n        actualPrice = discount > 0\n            ? price.percent(Percent.MAX() - discount)\n            : price;\n\n        tokens = _wei\n            .mul(Percent.MAX() + volumeBonus)\n            .mul(10 ** uint(token.decimals()))\n            .div(actualPrice)\n            .div(Percent.MAX());\n\n        if (balance < tokens) {\n            weiCost = _wei\n                .mul(balance)\n                .div(tokens);\n            change = _wei - weiCost;\n            tokens = balance;\n        }\n    }\n\n    function getWToken() external view returns(WToken) {\n        return token;\n    }\n\n    function getFund() external view returns(IW12Fund) {\n        return fund;\n    }\n\n    function getSaleVolumeBonus(uint value) public view returns(uint bonus) {\n        (uint index, bool found) = getCurrentStageIndex();\n\n        if (!found) return 0;\n\n        Stage storage stage = stages[index];\n\n        for(uint i = 0; i < stage.volumeBoundaries.length; i++) {\n            if (value >= stage.volumeBoundaries[i]) {\n                bonus = stage.volumeBonuses[i];\n            } else {\n                break;\n            }\n        }\n    }\n\n    function getCurrentStageIndex() public view returns (uint index, bool found) {\n        for(uint i = 0; i < stages.length; i++) {\n            Stage storage stage = stages[i];\n\n            if (stage.startDate <= now && stage.endDate > now) {\n                return (i, true);\n            }\n        }\n\n        return (0, false);\n    }\n\n    function claimRemainingTokens() external onlyOwner {\n        require(isEnded());\n\n        uint amount = token.balanceOf(address(this));\n\n        require(token.transfer(owner, amount));\n\n        emit UnsoldTokenReturned(owner, amount);\n    }\n\n    function isEnded() public view returns (bool) {\n        return stages.length == 0 || stages[stages.length - 1].endDate < now;\n    }\n\n    function isSaleActive() public view returns (bool) {\n        (, bool found) = getCurrentStageIndex();\n\n        return found;\n    }\n\n    function() payable external {\n        buyTokens();\n    }\n\n    modifier beforeSaleStart() {\n        if (stages.length > 0) {\n            require(stages[0].startDate > now);\n        }\n\n        _;\n    }\n\n    modifier onlyWhenSaleActive() {\n        require(isSaleActive(), \"Sale is not started yet\");\n\n        _;\n    }\n}\n",
  "sourcePath": "/c/Users/Mr.Hokid/projects/work/w12-product-contracts/contracts/W12Crowdsale.sol",
  "compiler": {
    "name": "solc",
    "version": "0.4.24+commit.e67f0147.Emscripten.clang"
  },
  "schemaVersion": "2.0.1",
  "updatedAt": "2018-09-20T14:43:09.081Z"
}