{
  "contractName": "W12Crowdsale",
  "abi": [
    {
      "constant": true,
      "inputs": [],
      "name": "startDate",
      "outputs": [
        {
          "name": "",
          "type": "uint32"
        }
      ],
      "payable": false,
      "stateMutability": "view",
      "type": "function"
    },
    {
      "constant": true,
      "inputs": [],
      "name": "serviceWallet",
      "outputs": [
        {
          "name": "",
          "type": "address"
        }
      ],
      "payable": false,
      "stateMutability": "view",
      "type": "function"
    },
    {
      "constant": false,
      "inputs": [],
      "name": "renounceOwnership",
      "outputs": [],
      "payable": false,
      "stateMutability": "nonpayable",
      "type": "function"
    },
    {
      "constant": true,
      "inputs": [
        {
          "name": "",
          "type": "uint256"
        }
      ],
      "name": "stages",
      "outputs": [
        {
          "name": "endDate",
          "type": "uint32"
        },
        {
          "name": "discount",
          "type": "uint8"
        },
        {
          "name": "vesting",
          "type": "uint32"
        }
      ],
      "payable": false,
      "stateMutability": "view",
      "type": "function"
    },
    {
      "constant": true,
      "inputs": [],
      "name": "serviceFee",
      "outputs": [
        {
          "name": "",
          "type": "uint8"
        }
      ],
      "payable": false,
      "stateMutability": "view",
      "type": "function"
    },
    {
      "constant": true,
      "inputs": [],
      "name": "owner",
      "outputs": [
        {
          "name": "",
          "type": "address"
        }
      ],
      "payable": false,
      "stateMutability": "view",
      "type": "function"
    },
    {
      "constant": true,
      "inputs": [],
      "name": "price",
      "outputs": [
        {
          "name": "",
          "type": "uint256"
        }
      ],
      "payable": false,
      "stateMutability": "view",
      "type": "function"
    },
    {
      "constant": false,
      "inputs": [
        {
          "name": "newOwner",
          "type": "address"
        }
      ],
      "name": "transferOwnership",
      "outputs": [],
      "payable": false,
      "stateMutability": "nonpayable",
      "type": "function"
    },
    {
      "constant": true,
      "inputs": [],
      "name": "token",
      "outputs": [
        {
          "name": "",
          "type": "address"
        }
      ],
      "payable": false,
      "stateMutability": "view",
      "type": "function"
    },
    {
      "inputs": [
        {
          "name": "_token",
          "type": "address"
        },
        {
          "name": "_startDate",
          "type": "uint32"
        },
        {
          "name": "_price",
          "type": "uint256"
        },
        {
          "name": "_serviceWallet",
          "type": "address"
        },
        {
          "name": "_serviceFee",
          "type": "uint8"
        }
      ],
      "payable": false,
      "stateMutability": "nonpayable",
      "type": "constructor"
    },
    {
      "payable": true,
      "stateMutability": "payable",
      "type": "fallback"
    },
    {
      "anonymous": false,
      "inputs": [
        {
          "indexed": true,
          "name": "buyer",
          "type": "address"
        },
        {
          "indexed": false,
          "name": "amountPaid",
          "type": "uint256"
        },
        {
          "indexed": false,
          "name": "tokensBought",
          "type": "uint256"
        }
      ],
      "name": "TokenPurchase",
      "type": "event"
    },
    {
      "anonymous": false,
      "inputs": [],
      "name": "StagesUpdated",
      "type": "event"
    },
    {
      "anonymous": false,
      "inputs": [
        {
          "indexed": true,
          "name": "previousOwner",
          "type": "address"
        }
      ],
      "name": "OwnershipRenounced",
      "type": "event"
    },
    {
      "anonymous": false,
      "inputs": [
        {
          "indexed": true,
          "name": "previousOwner",
          "type": "address"
        },
        {
          "indexed": true,
          "name": "newOwner",
          "type": "address"
        }
      ],
      "name": "OwnershipTransferred",
      "type": "event"
    },
    {
      "constant": true,
      "inputs": [],
      "name": "stagesLength",
      "outputs": [
        {
          "name": "",
          "type": "uint256"
        }
      ],
      "payable": false,
      "stateMutability": "view",
      "type": "function"
    },
    {
      "constant": false,
      "inputs": [
        {
          "name": "_startDate",
          "type": "uint32"
        },
        {
          "name": "_price",
          "type": "uint256"
        },
        {
          "name": "_serviceWallet",
          "type": "address"
        }
      ],
      "name": "setParameters",
      "outputs": [],
      "payable": false,
      "stateMutability": "nonpayable",
      "type": "function"
    },
    {
      "constant": false,
      "inputs": [
        {
          "name": "stage_endDates",
          "type": "uint32[]"
        },
        {
          "name": "stage_discounts",
          "type": "uint8[]"
        },
        {
          "name": "stage_vestings",
          "type": "uint32[]"
        }
      ],
      "name": "setStages",
      "outputs": [],
      "payable": false,
      "stateMutability": "nonpayable",
      "type": "function"
    },
    {
      "constant": false,
      "inputs": [
        {
          "name": "stage",
          "type": "uint256"
        },
        {
          "name": "volumeBoundaries",
          "type": "uint256[]"
        },
        {
          "name": "volumeBonuses",
          "type": "uint8[]"
        }
      ],
      "name": "setStageVolumeBonuses",
      "outputs": [],
      "payable": false,
      "stateMutability": "nonpayable",
      "type": "function"
    },
    {
      "constant": false,
      "inputs": [],
      "name": "buyTokens",
      "outputs": [],
      "payable": true,
      "stateMutability": "payable",
      "type": "function"
    }
  ],
  "bytecode": "0x608060405260008060146101000a81548160ff02191690831515021790555034801561002a57600080fd5b5060405160a080620018018339810180604052810190808051906020019092919080519060200190929190805190602001909291908051906020019092919080519060200190929190505050336000806101000a81548173ffffffffffffffffffffffffffffffffffffffff021916908373ffffffffffffffffffffffffffffffffffffffff160217905550600073ffffffffffffffffffffffffffffffffffffffff168573ffffffffffffffffffffffffffffffffffffffff16141515156100f257600080fd5b60008160ff1610158015610109575060648160ff16105b151561011457600080fd5b84600260006101000a81548173ffffffffffffffffffffffffffffffffffffffff021916908373ffffffffffffffffffffffffffffffffffffffff16021790555061016f848484610194640100000000026401000000009004565b80600460006101000a81548160ff021916908360ff1602179055505050505050610262565b428363ffffffff16101515156101a957600080fd5b6000821115156101b857600080fd5b600073ffffffffffffffffffffffffffffffffffffffff168173ffffffffffffffffffffffffffffffffffffffff16141515156101f457600080fd5b82600260146101000a81548163ffffffff021916908363ffffffff1602179055508160038190555080600460016101000a81548173ffffffffffffffffffffffffffffffffffffffff021916908373ffffffffffffffffffffffffffffffffffffffff160217905550505050565b61158f80620002726000396000f3006080604052600436106100d0576000357c0100000000000000000000000000000000000000000000000000000000900463ffffffff1680630b97bc86146100da578063521b7499146101115780635641f3c31461016e578063715018a6146101c5578063792c02ea146101dc578063845ddcb2146102075780638abdf5aa146102745780638da5cb5b146102a55780639bed31e4146102fc578063a035b1fe14610359578063d0febe4c14610384578063f2fde38b1461038e578063f9cbcef0146103d1578063fc0c546a1461043c575b6100d8610493565b005b3480156100e657600080fd5b506100ef6107eb565b604051808263ffffffff1663ffffffff16815260200191505060405180910390f35b34801561011d57600080fd5b5061016c60048036038101908080359060200190929190803590602001908201803590602001919091929391929390803590602001908201803590602001919091929391929390505050610801565b005b34801561017a57600080fd5b506101836108ea565b604051808273ffffffffffffffffffffffffffffffffffffffff1673ffffffffffffffffffffffffffffffffffffffff16815260200191505060405180910390f35b3480156101d157600080fd5b506101da610910565b005b3480156101e857600080fd5b506101f1610a12565b6040518082815260200191505060405180910390f35b34801561021357600080fd5b5061023260048036038101908080359060200190929190505050610a1f565b604051808463ffffffff1663ffffffff1681526020018360ff1660ff1681526020018263ffffffff1663ffffffff168152602001935050505060405180910390f35b34801561028057600080fd5b50610289610a85565b604051808260ff1660ff16815260200191505060405180910390f35b3480156102b157600080fd5b506102ba610a98565b604051808273ffffffffffffffffffffffffffffffffffffffff1673ffffffffffffffffffffffffffffffffffffffff16815260200191505060405180910390f35b34801561030857600080fd5b50610357600480360381019080803563ffffffff16906020019092919080359060200190929190803573ffffffffffffffffffffffffffffffffffffffff169060200190929190505050610abd565b005b34801561036557600080fd5b5061036e610b28565b6040518082815260200191505060405180910390f35b61038c610493565b005b34801561039a57600080fd5b506103cf600480360381019080803573ffffffffffffffffffffffffffffffffffffffff169060200190929190505050610b2e565b005b3480156103dd57600080fd5b5061043a600480360381019080803590602001908201803590602001919091929391929390803590602001908201803590602001919091929391929390803590602001908201803590602001919091929391929390505050610c83565b005b34801561044857600080fd5b50610451611040565b604051808273ffffffffffffffffffffffffffffffffffffffff1673ffffffffffffffffffffffffffffffffffffffff16815260200191505060405180910390f35b60008060008060008060149054906101000a900460ff161515156104b657600080fd5b6001600060146101000a81548160ff0219169083151502179055506000341115156104e057600080fd5b42600260149054906101000a900463ffffffff1663ffffffff161115151561050757600080fd5b61050f611066565b94509450945060008560ff161161052857600354610557565b61055660646105488760640360ff166003546111ff90919063ffffffff16565b61123790919063ffffffff16565b5b915061059760646105898461057b8760640160ff16346111ff90919063ffffffff16565b61123790919063ffffffff16565b61123790919063ffffffff16565b9050600260009054906101000a900473ffffffffffffffffffffffffffffffffffffffff1673ffffffffffffffffffffffffffffffffffffffff16639d2e47773383876040518463ffffffff167c0100000000000000000000000000000000000000000000000000000000028152600401808473ffffffffffffffffffffffffffffffffffffffff1673ffffffffffffffffffffffffffffffffffffffff1681526020018381526020018263ffffffff1663ffffffff1681526020019350505050602060405180830381600087803b15801561067257600080fd5b505af1158015610686573d6000803e3d6000fd5b505050506040513d602081101561069c57600080fd5b810190808051906020019092919050505015156106b857600080fd5b6000600460009054906101000a900460ff1660ff16111561077457600460019054906101000a900473ffffffffffffffffffffffffffffffffffffffff1673ffffffffffffffffffffffffffffffffffffffff166108fc6107476064610739600460009054906101000a900460ff1660ff16346111ff90919063ffffffff16565b61123790919063ffffffff16565b9081150290604051600060405180830381858888f19350505050158015610772573d6000803e3d6000fd5b505b3373ffffffffffffffffffffffffffffffffffffffff167fcd60aa75dea3072fbc07ae6d7d856b5dc5f4eee88854f5b4abf7b680ef8bc50f3483604051808381526020018281526020019250505060405180910390a260008060146101000a81548160ff0219169083151502179055505050505050565b600260149054906101000a900463ffffffff1681565b6000809054906101000a900473ffffffffffffffffffffffffffffffffffffffff1673ffffffffffffffffffffffffffffffffffffffff163373ffffffffffffffffffffffffffffffffffffffff1614151561085c57600080fd5b818190508484905014151561087057600080fd5b6001805490508510151561088357600080fd5b838360018781548110151561089457fe5b906000526020600020906003020160010191906108b292919061131b565b5081816001878154811015156108c457fe5b906000526020600020906003020160020191906108e2929190611368565b505050505050565b600460019054906101000a900473ffffffffffffffffffffffffffffffffffffffff1681565b6000809054906101000a900473ffffffffffffffffffffffffffffffffffffffff1673ffffffffffffffffffffffffffffffffffffffff163373ffffffffffffffffffffffffffffffffffffffff1614151561096b57600080fd5b6000809054906101000a900473ffffffffffffffffffffffffffffffffffffffff1673ffffffffffffffffffffffffffffffffffffffff167ff8df31144d9c2f0f6b59d69b8b98abd5459d07f2742c4df920b25aae33c6482060405160405180910390a260008060006101000a81548173ffffffffffffffffffffffffffffffffffffffff021916908373ffffffffffffffffffffffffffffffffffffffff160217905550565b6000600180549050905090565b600181815481101515610a2e57fe5b90600052602060002090600302016000915090508060000160009054906101000a900463ffffffff16908060000160049054906101000a900460ff16908060000160059054906101000a900463ffffffff16905083565b600460009054906101000a900460ff1681565b6000809054906101000a900473ffffffffffffffffffffffffffffffffffffffff1681565b6000809054906101000a900473ffffffffffffffffffffffffffffffffffffffff1673ffffffffffffffffffffffffffffffffffffffff163373ffffffffffffffffffffffffffffffffffffffff16141515610b1857600080fd5b610b2383838361124d565b505050565b60035481565b6000809054906101000a900473ffffffffffffffffffffffffffffffffffffffff1673ffffffffffffffffffffffffffffffffffffffff163373ffffffffffffffffffffffffffffffffffffffff16141515610b8957600080fd5b600073ffffffffffffffffffffffffffffffffffffffff168173ffffffffffffffffffffffffffffffffffffffff1614151515610bc557600080fd5b8073ffffffffffffffffffffffffffffffffffffffff166000809054906101000a900473ffffffffffffffffffffffffffffffffffffffff1673ffffffffffffffffffffffffffffffffffffffff167f8be0079c531659141344cd1fd0a4f28419497f9722a3daafe3b4186f6b6457e060405160405180910390a3806000806101000a81548173ffffffffffffffffffffffffffffffffffffffff021916908373ffffffffffffffffffffffffffffffffffffffff16021790555050565b6000806000809054906101000a900473ffffffffffffffffffffffffffffffffffffffff1673ffffffffffffffffffffffffffffffffffffffff163373ffffffffffffffffffffffffffffffffffffffff16141515610ce157600080fd5b600088889050111515610cf357600080fd5b8585905088889050141515610d0757600080fd5b8383905088889050141515610d1b57600080fd5b8787905091508160ff16600181610d329190611412565b50600090505b8160ff168160ff16101561100a57600086868360ff168181101515610d5957fe5b9050602002013560ff1660ff1610158015610d915750606486868360ff168181101515610d8257fe5b9050602002013560ff1660ff16105b1515610d9c57600080fd5b87878260ff168181101515610dad57fe5b9050602002013563ffffffff1663ffffffff16600260149054906101000a900463ffffffff1663ffffffff16101515610de557600080fd5b6001820360ff168160ff161015610edd5787876001830160ff168181101515610e0a57fe5b9050602002013563ffffffff1663ffffffff1688888360ff168181101515610e2e57fe5b9050602002013563ffffffff1663ffffffff16101515610edc576040517f08c379a00000000000000000000000000000000000000000000000000000000081526004018080602001828103825260228152602001807f53746167657320617265206e6f7420696e20686973746f726963616c206f726481526020017f657200000000000000000000000000000000000000000000000000000000000081525060400191505060405180910390fd5b5b87878260ff168181101515610eee57fe5b9050602002013563ffffffff166001808385030360ff16815481101515610f1157fe5b906000526020600020906003020160000160006101000a81548163ffffffff021916908363ffffffff16021790555085858260ff168181101515610f5157fe5b9050602002013560ff166001808385030360ff16815481101515610f7157fe5b906000526020600020906003020160000160046101000a81548160ff021916908360ff16021790555083838260ff168181101515610fab57fe5b9050602002013563ffffffff166001808385030360ff16815481101515610fce57fe5b906000526020600020906003020160000160056101000a81548163ffffffff021916908363ffffffff1602179055508080600101915050610d38565b7f743961f4e677d1146fbf85d75565b1c5474fd083eb166f8b9595cf5d01a4d6e660405160405180910390a15050505050505050565b600260009054906101000a900473ffffffffffffffffffffffffffffffffffffffff1681565b600080600080600080600060018054905014156110965760008060008292508191508090509550955095506111f7565b6001808080549050038154811015156110ab57fe5b90600052602060002090600302019250428360000160009054906101000a900463ffffffff1663ffffffff161015156111d257600093506000915060008360010180549050111561119f57600090505b600183600101805490500381101561119e5781341180156111365750826001018181548110151561112857fe5b906000526020600020015434105b1561117357826002018181548110151561114c57fe5b90600052602060002090602091828204019190069054906101000a900460ff16935061119e565b826001018181548110151561118457fe5b9060005260206000200154915080806001019150506110fb565b5b8260000160049054906101000a900460ff168360000160059054906101000a900463ffffffff16859550955095506111f7565b60018054809190600190036111e79190611412565b506111f0611066565b9550955095505b505050909192565b6000808314156112125760009050611231565b818302905081838281151561122357fe5b0414151561122d57fe5b8090505b92915050565b6000818381151561124457fe5b04905092915050565b428363ffffffff161015151561126257600080fd5b60008211151561127157600080fd5b600073ffffffffffffffffffffffffffffffffffffffff168173ffffffffffffffffffffffffffffffffffffffff16141515156112ad57600080fd5b82600260146101000a81548163ffffffff021916908363ffffffff1602179055508160038190555080600460016101000a81548173ffffffffffffffffffffffffffffffffffffffff021916908373ffffffffffffffffffffffffffffffffffffffff160217905550505050565b828054828255906000526020600020908101928215611357579160200282015b8281111561135657823582559160200191906001019061133b565b5b5090506113649190611444565b5090565b82805482825590600052602060002090601f016020900481019282156114015791602002820160005b838211156113d257833560ff1683826101000a81548160ff021916908360ff1602179055509260200192600101602081600001049283019260010302611391565b80156113ff5782816101000a81549060ff02191690556001016020816000010492830192600103026113d2565b505b50905061140e9190611469565b5090565b81548183558181111561143f5760030281600302836000526020600020918201910161143e9190611499565b5b505050565b61146691905b8082111561146257600081600090555060010161144a565b5090565b90565b61149691905b8082111561149257600081816101000a81549060ff02191690555060010161146f565b5090565b90565b61151791905b8082111561151357600080820160006101000a81549063ffffffff02191690556000820160046101000a81549060ff02191690556000820160056101000a81549063ffffffff02191690556001820160006114fa919061151a565b60028201600061150a919061153b565b5060030161149f565b5090565b90565b50805460008255906000526020600020908101906115389190611444565b50565b50805460008255601f0160209004906000526020600020908101906115609190611444565b505600a165627a7a72305820e1979aeafc32761e522ccc412193f058894110b27610da7ad1ea98d70b442a800029",
  "source": "pragma solidity ^0.4.24;\n\nimport \"../openzeppelin-solidity/contracts/ownership/Ownable.sol\";\nimport \"../openzeppelin-solidity/contracts/ReentrancyGuard.sol\";\nimport \"../openzeppelin-solidity/contracts/math/SafeMath.sol\";\nimport \"./WToken.sol\";\nimport \"./IW12Crowdsale.sol\";\n\n\ncontract W12Crowdsale is IW12Crowdsale, Ownable, ReentrancyGuard {\n    using SafeMath for uint;\n\n    struct Stage {\n        uint32 endDate;\n        uint8 discount;\n        uint32 vesting;\n        uint[] volumeBoundaries;\n        uint8[] volumeBonuses;\n    }\n\n    Stage[] public stages;\n    WToken public token;\n    uint32 public startDate;\n    uint public price;\n    uint8 public serviceFee;\n    address public serviceWallet;\n\n    event TokenPurchase(address indexed buyer, uint amountPaid, uint tokensBought);\n    event StagesUpdated();\n\n    constructor (address _token, uint32 _startDate, uint _price, address _serviceWallet, uint8 _serviceFee) public {\n        require(_token != address(0x0));\n        require(_serviceFee >= 0 && _serviceFee < 100);\n\n        token = WToken(_token);\n\n        __setParameters(_startDate, _price, _serviceWallet);\n        serviceFee = _serviceFee;\n    }\n\n    function stagesLength() external view returns (uint) {\n        return stages.length;\n    }\n\n    function __setParameters(uint32 _startDate, uint _price, address _serviceWallet) internal {\n        require(_startDate >= now);\n        require(_price > 0);\n        require(_serviceWallet != address(0x0));\n\n        startDate = _startDate;\n        price = _price;\n        serviceWallet = _serviceWallet;\n    }\n\n    function setParameters(uint32 _startDate, uint _price, address _serviceWallet) external onlyOwner {\n        __setParameters(_startDate, _price, _serviceWallet);\n    }\n\n    function setStages(uint32[] stage_endDates, uint8[] stage_discounts, uint32[] stage_vestings) external onlyOwner {\n        require(stage_endDates.length > 0);\n        require(stage_endDates.length == stage_discounts.length);\n        require(stage_endDates.length == stage_vestings.length);\n\n        uint8 stagesCount = uint8(stage_endDates.length);\n        stages.length = stagesCount;\n\n        for(uint8 i = 0; i < stagesCount; i++) {\n            require(stage_discounts[i] >= 0 && stage_discounts[i] < 100);\n            require(startDate < stage_endDates[i]);\n            // Checking that stages entered in historical order\n            if(i < stagesCount - 1)\n                require(stage_endDates[i] < stage_endDates[i+1], \"Stages are not in historical order\");\n\n            // Reverting stage order for future use\n            stages[stagesCount - i - 1].endDate = stage_endDates[i];\n            stages[stagesCount - i - 1].discount = stage_discounts[i];\n            stages[stagesCount - i - 1].vesting = stage_vestings[i];\n        }\n\n        emit StagesUpdated();\n    }\n\n    function setStageVolumeBonuses(uint stage, uint[] volumeBoundaries, uint8[] volumeBonuses) external onlyOwner {\n        require(volumeBoundaries.length == volumeBonuses.length);\n        require(stage < stages.length);\n\n        stages[stage].volumeBoundaries = volumeBoundaries;\n        stages[stage].volumeBonuses = volumeBonuses;\n    }\n\n    function buyTokens() payable nonReentrant public {\n        require(msg.value > 0);\n        require(startDate <= now);\n\n        (uint8 discount, uint32 vesting, uint8 volumeBonus) = getCurrentStage();\n\n        uint stagePrice = discount > 0 ? price.mul(100 - discount).div(100) : price;\n\n        uint tokenAmount = msg.value\n            .mul(100 + volumeBonus)\n            .div(stagePrice)\n            .div(100);\n\n        require(token.vestingTransfer(msg.sender, tokenAmount, vesting));\n\n        if(serviceFee > 0)\n            serviceWallet.transfer(msg.value.mul(serviceFee).div(100));\n\n        emit TokenPurchase(msg.sender, msg.value, tokenAmount);\n    }\n\n    function getCurrentStage() internal returns(uint8 discount, uint32 vesting, uint8 volumeBonus) {\n        if(stages.length == 0)\n            return (0, 0, 0);\n\n        Stage storage lastStage = stages[stages.length - 1];\n\n        if(lastStage.endDate >= now) {\n            volumeBonus = 0;\n            uint lastLowerBoundary = 0;\n\n            if(lastStage.volumeBoundaries.length > 0)\n                for (uint i = 0; i < lastStage.volumeBoundaries.length - 1; i++)\n                    if(msg.value > lastLowerBoundary && msg.value < lastStage.volumeBoundaries[i]) {\n                        volumeBonus = lastStage.volumeBonuses[i];\n                        break;\n                    }\n                    else\n                        lastLowerBoundary = lastStage.volumeBoundaries[i];\n\n            return (lastStage.discount, lastStage.vesting, volumeBonus);\n        }\n\n        stages.length--;\n        return getCurrentStage();\n    }\n\n    function () payable external {\n        buyTokens();\n    }\n}\n",
  "sourcePath": "/home/andrey/Code/w12/platform-contracts/contracts/W12Crowdsale.sol",
  "compiler": {
    "name": "solc",
    "version": "0.4.24+commit.e67f0147.Emscripten.clang"
  },
  "schemaVersion": "2.0.0",
  "updatedAt": "2018-07-01T15:50:30.218Z"
}