{
  "contractName": "W12CrowdsaleStub",
  "abi": [
    {
      "constant": true,
      "inputs": [
        {
          "name": "stageNumber",
          "type": "uint256"
        }
      ],
      "name": "getStageVolumeBonuses",
      "outputs": [
        {
          "name": "",
          "type": "uint256[]"
        }
      ],
      "payable": false,
      "stateMutability": "view",
      "type": "function"
    },
    {
      "constant": true,
      "inputs": [],
      "name": "originToken",
      "outputs": [
        {
          "name": "",
          "type": "address"
        }
      ],
      "payable": false,
      "stateMutability": "view",
      "type": "function"
    },
    {
      "constant": true,
      "inputs": [],
      "name": "getLastMilestoneIndex",
      "outputs": [
        {
          "name": "index",
          "type": "uint256"
        },
        {
          "name": "found",
          "type": "bool"
        }
      ],
      "payable": false,
      "stateMutability": "view",
      "type": "function"
    },
    {
      "constant": true,
      "inputs": [
        {
          "name": "value",
          "type": "uint256"
        }
      ],
      "name": "getSaleVolumeBonus",
      "outputs": [
        {
          "name": "bonus",
          "type": "uint256"
        }
      ],
      "payable": false,
      "stateMutability": "view",
      "type": "function"
    },
    {
      "constant": true,
      "inputs": [
        {
          "name": "index",
          "type": "uint256"
        }
      ],
      "name": "getMilestone",
      "outputs": [
        {
          "name": "",
          "type": "uint32"
        },
        {
          "name": "",
          "type": "uint256"
        },
        {
          "name": "",
          "type": "uint32"
        },
        {
          "name": "",
          "type": "uint32"
        },
        {
          "name": "",
          "type": "bytes"
        },
        {
          "name": "",
          "type": "bytes"
        }
      ],
      "payable": false,
      "stateMutability": "view",
      "type": "function"
    },
    {
      "constant": true,
      "inputs": [
        {
          "name": "index",
          "type": "uint256"
        }
      ],
      "name": "getStage",
      "outputs": [
        {
          "name": "",
          "type": "uint32"
        },
        {
          "name": "",
          "type": "uint32"
        },
        {
          "name": "",
          "type": "uint256"
        },
        {
          "name": "",
          "type": "uint32"
        },
        {
          "name": "",
          "type": "uint256[]"
        },
        {
          "name": "",
          "type": "uint256[]"
        }
      ],
      "payable": false,
      "stateMutability": "view",
      "type": "function"
    },
    {
      "constant": true,
      "inputs": [],
      "name": "WTokenSaleFeePercent",
      "outputs": [
        {
          "name": "",
          "type": "uint256"
        }
      ],
      "payable": false,
      "stateMutability": "view",
      "type": "function"
    },
    {
      "constant": false,
      "inputs": [],
      "name": "claimRemainingTokens",
      "outputs": [],
      "payable": false,
      "stateMutability": "nonpayable",
      "type": "function"
    },
    {
      "constant": true,
      "inputs": [],
      "name": "milestonesLength",
      "outputs": [
        {
          "name": "",
          "type": "uint256"
        }
      ],
      "payable": false,
      "stateMutability": "view",
      "type": "function"
    },
    {
      "constant": true,
      "inputs": [],
      "name": "getWToken",
      "outputs": [
        {
          "name": "",
          "type": "address"
        }
      ],
      "payable": false,
      "stateMutability": "view",
      "type": "function"
    },
    {
      "constant": false,
      "inputs": [
        {
          "name": "dates",
          "type": "uint32[2][]"
        },
        {
          "name": "stage_discounts",
          "type": "uint256[]"
        },
        {
          "name": "stage_vestings",
          "type": "uint32[]"
        }
      ],
      "name": "setStages",
      "outputs": [],
      "payable": false,
      "stateMutability": "nonpayable",
      "type": "function"
    },
    {
      "constant": true,
      "inputs": [],
      "name": "version",
      "outputs": [
        {
          "name": "",
          "type": "uint256"
        }
      ],
      "payable": false,
      "stateMutability": "view",
      "type": "function"
    },
    {
      "constant": true,
      "inputs": [],
      "name": "serviceWallet",
      "outputs": [
        {
          "name": "",
          "type": "address"
        }
      ],
      "payable": false,
      "stateMutability": "view",
      "type": "function"
    },
    {
      "constant": true,
      "inputs": [],
      "name": "isSaleActive",
      "outputs": [
        {
          "name": "",
          "type": "bool"
        }
      ],
      "payable": false,
      "stateMutability": "view",
      "type": "function"
    },
    {
      "constant": false,
      "inputs": [],
      "name": "renounceOwnership",
      "outputs": [],
      "payable": false,
      "stateMutability": "nonpayable",
      "type": "function"
    },
    {
      "constant": true,
      "inputs": [
        {
          "name": "",
          "type": "uint256"
        }
      ],
      "name": "milestoneDates",
      "outputs": [
        {
          "name": "",
          "type": "uint32"
        }
      ],
      "payable": false,
      "stateMutability": "view",
      "type": "function"
    },
    {
      "constant": true,
      "inputs": [],
      "name": "stagesLength",
      "outputs": [
        {
          "name": "",
          "type": "uint256"
        }
      ],
      "payable": false,
      "stateMutability": "view",
      "type": "function"
    },
    {
      "constant": true,
      "inputs": [],
      "name": "swap",
      "outputs": [
        {
          "name": "",
          "type": "address"
        }
      ],
      "payable": false,
      "stateMutability": "view",
      "type": "function"
    },
    {
      "constant": true,
      "inputs": [
        {
          "name": "",
          "type": "uint256"
        }
      ],
      "name": "stages",
      "outputs": [
        {
          "name": "startDate",
          "type": "uint32"
        },
        {
          "name": "endDate",
          "type": "uint32"
        },
        {
          "name": "discount",
          "type": "uint256"
        },
        {
          "name": "vesting",
          "type": "uint32"
        }
      ],
      "payable": false,
      "stateMutability": "view",
      "type": "function"
    },
    {
      "constant": true,
      "inputs": [],
      "name": "serviceFee",
      "outputs": [
        {
          "name": "",
          "type": "uint256"
        }
      ],
      "payable": false,
      "stateMutability": "view",
      "type": "function"
    },
    {
      "constant": true,
      "inputs": [],
      "name": "owner",
      "outputs": [
        {
          "name": "",
          "type": "address"
        }
      ],
      "payable": false,
      "stateMutability": "view",
      "type": "function"
    },
    {
      "constant": true,
      "inputs": [],
      "name": "getFund",
      "outputs": [
        {
          "name": "",
          "type": "address"
        }
      ],
      "payable": false,
      "stateMutability": "view",
      "type": "function"
    },
    {
      "constant": true,
      "inputs": [],
      "name": "price",
      "outputs": [
        {
          "name": "",
          "type": "uint256"
        }
      ],
      "payable": false,
      "stateMutability": "view",
      "type": "function"
    },
    {
      "constant": true,
      "inputs": [],
      "name": "isEnded",
      "outputs": [
        {
          "name": "",
          "type": "bool"
        }
      ],
      "payable": false,
      "stateMutability": "view",
      "type": "function"
    },
    {
      "constant": true,
      "inputs": [],
      "name": "getEndDate",
      "outputs": [
        {
          "name": "",
          "type": "uint32"
        }
      ],
      "payable": false,
      "stateMutability": "view",
      "type": "function"
    },
    {
      "constant": true,
      "inputs": [],
      "name": "fund",
      "outputs": [
        {
          "name": "",
          "type": "address"
        }
      ],
      "payable": false,
      "stateMutability": "view",
      "type": "function"
    },
    {
      "constant": false,
      "inputs": [
        {
          "name": "stage",
          "type": "uint256"
        },
        {
          "name": "volumeBoundaries",
          "type": "uint256[]"
        },
        {
          "name": "volumeBonuses",
          "type": "uint256[]"
        }
      ],
      "name": "setStageVolumeBonuses",
      "outputs": [],
      "payable": false,
      "stateMutability": "nonpayable",
      "type": "function"
    },
    {
      "constant": false,
      "inputs": [],
      "name": "buyTokens",
      "outputs": [],
      "payable": true,
      "stateMutability": "payable",
      "type": "function"
    },
    {
      "constant": true,
      "inputs": [],
      "name": "getCurrentMilestoneIndex",
      "outputs": [
        {
          "name": "index",
          "type": "uint256"
        },
        {
          "name": "found",
          "type": "bool"
        }
      ],
      "payable": false,
      "stateMutability": "view",
      "type": "function"
    },
    {
      "constant": true,
      "inputs": [],
      "name": "getCurrentStageIndex",
      "outputs": [
        {
          "name": "index",
          "type": "uint256"
        },
        {
          "name": "found",
          "type": "bool"
        }
      ],
      "payable": false,
      "stateMutability": "view",
      "type": "function"
    },
    {
      "constant": false,
      "inputs": [
        {
          "name": "dates",
          "type": "uint32[]"
        },
        {
          "name": "tranchePercents",
          "type": "uint256[]"
        },
        {
          "name": "offsets",
          "type": "uint32[]"
        },
        {
          "name": "namesAndDescriptions",
          "type": "bytes"
        }
      ],
      "name": "setMilestones",
      "outputs": [],
      "payable": false,
      "stateMutability": "nonpayable",
      "type": "function"
    },
    {
      "constant": true,
      "inputs": [
        {
          "name": "",
          "type": "uint256"
        }
      ],
      "name": "milestones",
      "outputs": [
        {
          "name": "endDate",
          "type": "uint32"
        },
        {
          "name": "tranchePercent",
          "type": "uint256"
        },
        {
          "name": "voteEndDate",
          "type": "uint32"
        },
        {
          "name": "withdrawalWindow",
          "type": "uint32"
        },
        {
          "name": "name",
          "type": "bytes"
        },
        {
          "name": "description",
          "type": "bytes"
        }
      ],
      "payable": false,
      "stateMutability": "view",
      "type": "function"
    },
    {
      "constant": false,
      "inputs": [
        {
          "name": "_price",
          "type": "uint256"
        }
      ],
      "name": "setParameters",
      "outputs": [],
      "payable": false,
      "stateMutability": "nonpayable",
      "type": "function"
    },
    {
      "constant": true,
      "inputs": [
        {
          "name": "stageNumber",
          "type": "uint256"
        }
      ],
      "name": "getStageVolumeBoundaries",
      "outputs": [
        {
          "name": "",
          "type": "uint256[]"
        }
      ],
      "payable": false,
      "stateMutability": "view",
      "type": "function"
    },
    {
      "constant": false,
      "inputs": [
        {
          "name": "_newOwner",
          "type": "address"
        }
      ],
      "name": "transferOwnership",
      "outputs": [],
      "payable": false,
      "stateMutability": "nonpayable",
      "type": "function"
    },
    {
      "constant": true,
      "inputs": [],
      "name": "token",
      "outputs": [
        {
          "name": "",
          "type": "address"
        }
      ],
      "payable": false,
      "stateMutability": "view",
      "type": "function"
    },
    {
      "inputs": [
        {
          "name": "version",
          "type": "uint256"
        },
        {
          "name": "_originToken",
          "type": "address"
        },
        {
          "name": "_token",
          "type": "address"
        },
        {
          "name": "_price",
          "type": "uint256"
        },
        {
          "name": "_serviceWallet",
          "type": "address"
        },
        {
          "name": "_swap",
          "type": "address"
        },
        {
          "name": "_serviceFee",
          "type": "uint256"
        },
        {
          "name": "_WTokenSaleFeePercent",
          "type": "uint256"
        },
        {
          "name": "_fund",
          "type": "address"
        }
      ],
      "payable": false,
      "stateMutability": "nonpayable",
      "type": "constructor"
    },
    {
      "payable": true,
      "stateMutability": "payable",
      "type": "fallback"
    },
    {
      "anonymous": false,
      "inputs": [
        {
          "indexed": true,
          "name": "buyer",
          "type": "address"
        },
        {
          "indexed": false,
          "name": "amountPaid",
          "type": "uint256"
        },
        {
          "indexed": false,
          "name": "tokensBought",
          "type": "uint256"
        },
        {
          "indexed": false,
          "name": "change",
          "type": "uint256"
        }
      ],
      "name": "TokenPurchase",
      "type": "event"
    },
    {
      "anonymous": false,
      "inputs": [],
      "name": "StagesUpdated",
      "type": "event"
    },
    {
      "anonymous": false,
      "inputs": [
        {
          "indexed": false,
          "name": "index",
          "type": "uint256"
        }
      ],
      "name": "StageUpdated",
      "type": "event"
    },
    {
      "anonymous": false,
      "inputs": [],
      "name": "MilestonesUpdated",
      "type": "event"
    },
    {
      "anonymous": false,
      "inputs": [
        {
          "indexed": true,
          "name": "owner",
          "type": "address"
        },
        {
          "indexed": false,
          "name": "amount",
          "type": "uint256"
        }
      ],
      "name": "UnsoldTokenReturned",
      "type": "event"
    },
    {
      "anonymous": false,
      "inputs": [
        {
          "indexed": false,
          "name": "value",
          "type": "uint256"
        }
      ],
      "name": "debug",
      "type": "event"
    },
    {
      "anonymous": false,
      "inputs": [
        {
          "indexed": true,
          "name": "previousOwner",
          "type": "address"
        }
      ],
      "name": "OwnershipRenounced",
      "type": "event"
    },
    {
      "anonymous": false,
      "inputs": [
        {
          "indexed": true,
          "name": "previousOwner",
          "type": "address"
        },
        {
          "indexed": true,
          "name": "newOwner",
          "type": "address"
        }
      ],
      "name": "OwnershipTransferred",
      "type": "event"
    },
    {
      "constant": false,
      "inputs": [
        {
          "name": "to",
          "type": "address"
        },
        {
          "name": "amount",
          "type": "uint256"
        }
      ],
      "name": "_outTokens",
      "outputs": [
        {
          "name": "",
          "type": "bool"
        }
      ],
      "payable": false,
      "stateMutability": "nonpayable",
      "type": "function"
    },
    {
      "constant": false,
      "inputs": [
        {
          "name": "_WTokenSaleFeePercent",
          "type": "uint256"
        }
      ],
      "name": "_setState",
      "outputs": [],
      "payable": false,
      "stateMutability": "nonpayable",
      "type": "function"
    }
  ],
  "bytecode": "0x608060405260016002553480156200001657600080fd5b50604051610120806200507183398101806040528101908080519060200190929190805190602001909291908051906020019092919080519060200190929190805190602001909291908051906020019092919080519060200190929190805190602001909291908051906020019092919050505088888888888888888888806000819055505033600160006101000a81548173ffffffffffffffffffffffffffffffffffffffff021916908373ffffffffffffffffffffffffffffffffffffffff160217905550600073ffffffffffffffffffffffffffffffffffffffff168773ffffffffffffffffffffffffffffffffffffffff16141515156200011b57600080fd5b6200013a836200038664010000000002620043a5176401000000009004565b801562000165575060646200016384620003d064010000000002620043cc176401000000009004565b105b15156200017157600080fd5b62000190826200038664010000000002620043a5176401000000009004565b8015620001bb57506064620001b983620003d064010000000002620043cc176401000000009004565b105b1515620001c757600080fd5b600073ffffffffffffffffffffffffffffffffffffffff168173ffffffffffffffffffffffffffffffffffffffff16141515156200020457600080fd5b600073ffffffffffffffffffffffffffffffffffffffff168473ffffffffffffffffffffffffffffffffffffffff16141515156200024157600080fd5b86600360006101000a81548173ffffffffffffffffffffffffffffffffffffffff021916908373ffffffffffffffffffffffffffffffffffffffff16021790555087600460006101000a81548173ffffffffffffffffffffffffffffffffffffffff021916908373ffffffffffffffffffffffffffffffffffffffff160217905550620002de86866200043d640100000000026401000000009004565b8260068190555083600960006101000a81548173ffffffffffffffffffffffffffffffffffffffff021916908373ffffffffffffffffffffffffffffffffffffffff1602179055508160078190555080600a60006101000a81548173ffffffffffffffffffffffffffffffffffffffff021916908373ffffffffffffffffffffffffffffffffffffffff16021790555050505050505050505050505050505050505062000559565b6000620003a1620004d6640100000000026401000000009004565b8210158015620003c95750620003c5620004de640100000000026401000000009004565b8211155b9050919050565b6000620003ec8262000386640100000000026401000000009004565b1515620003f857600080fd5b620004366200041562000501640100000000026401000000009004565b600a0a836200050a6401000000000262004664179091906401000000009004565b9050919050565b6000821115156200044d57600080fd5b600073ffffffffffffffffffffffffffffffffffffffff168173ffffffffffffffffffffffffffffffffffffffff16141515156200048a57600080fd5b8160058190555080600860006101000a81548173ffffffffffffffffffffffffffffffffffffffff021916908373ffffffffffffffffffffffffffffffffffffffff1602179055505050565b600080905090565b6000620004f962000536640100000000026401000000009004565b600a0a905090565b60006002905090565b6000806000831115156200051d57600080fd5b82848115156200052957fe5b0490508091505092915050565b60006200055162000501640100000000026401000000009004565b600201905090565b614b0880620005696000396000f3006080604052600436106101d8576000357c0100000000000000000000000000000000000000000000000000000000900463ffffffff1680630ee62c77146101e257806313096a411461026457806314f66d34146102bb5780631aecc19f146102f1578063208853c9146103565780632442e1cb146103975780632e325020146104e95780632fbe5990146105f3578063313602d41461061e5780633baba4d7146106355780634090cb64146106605780634b9b5fab146106b757806354fd4d50146107225780635641f3c31461074d578063564566a8146107a4578063715018a6146107d357806372e6a881146107ea578063792c02ea146108375780638119c06514610862578063845ddcb2146108b95780638abdf5aa146109335780638da5cb5b1461095e5780638edd6eb6146109b5578063a035b1fe14610a0c578063a4fd6f5614610a37578063b135648814610a66578063b60d428814610a9d578063ca7348a314610af4578063ce48bf2214610b21578063d0febe4c14610b7e578063d6d65f3d14610b88578063daa4cf8814610bbe578063dda71ebe14610bf4578063e89e4ed614610c77578063e93b054014610dc9578063f12585f514610df6578063f2fde38b14610e78578063fc0c546a14610ebb575b6101e0610f12565b005b3480156101ee57600080fd5b5061020d6004803603810190808035906020019092919050505061167f565b6040518080602001828103825283818151815260200191508051906020019060200280838360005b83811015610250578082015181840152602081019050610235565b505050509050019250505060405180910390f35b34801561027057600080fd5b506102796116f7565b604051808273ffffffffffffffffffffffffffffffffffffffff1673ffffffffffffffffffffffffffffffffffffffff16815260200191505060405180910390f35b3480156102c757600080fd5b506102d061171d565b60405180838152602001821515151581526020019250505060405180910390f35b3480156102fd57600080fd5b5061033c600480360381019080803573ffffffffffffffffffffffffffffffffffffffff16906020019092919080359060200190929190505050611758565b604051808215151515815260200191505060405180910390f35b34801561036257600080fd5b5061038160048036038101908080359060200190929190505050611862565b6040518082815260200191505060405180910390f35b3480156103a357600080fd5b506103c26004803603810190808035906020019092919050505061191c565b604051808763ffffffff1663ffffffff1681526020018681526020018563ffffffff1663ffffffff1681526020018463ffffffff1663ffffffff1681526020018060200180602001838103835285818151815260200191508051906020019080838360005b83811015610442578082015181840152602081019050610427565b50505050905090810190601f16801561046f5780820380516001836020036101000a031916815260200191505b50838103825284818151815260200191508051906020019080838360005b838110156104a857808201518184015260208101905061048d565b50505050905090810190601f1680156104d55780820380516001836020036101000a031916815260200191505b509850505050505050505060405180910390f35b3480156104f557600080fd5b5061051460048036038101908080359060200190929190505050611b66565b604051808763ffffffff1663ffffffff1681526020018663ffffffff1663ffffffff1681526020018581526020018463ffffffff1663ffffffff1681526020018060200180602001838103835285818151815260200191508051906020019060200280838360005b8381101561059757808201518184015260208101905061057c565b50505050905001838103825284818151815260200191508051906020019060200280838360005b838110156105d95780820151818401526020810190506105be565b505050509050019850505050505050505060405180910390f35b3480156105ff57600080fd5b50610608611d1c565b6040518082815260200191505060405180910390f35b34801561062a57600080fd5b50610633611d22565b005b34801561064157600080fd5b5061064a61202d565b6040518082815260200191505060405180910390f35b34801561066c57600080fd5b5061067561203a565b604051808273ffffffffffffffffffffffffffffffffffffffff1673ffffffffffffffffffffffffffffffffffffffff16815260200191505060405180910390f35b3480156106c357600080fd5b50610720600480360381019080803590602001908201803590602001919091929391929390803590602001908201803590602001919091929391929390803590602001908201803590602001919091929391929390505050612064565b005b34801561072e57600080fd5b5061073761286d565b6040518082815260200191505060405180910390f35b34801561075957600080fd5b50610762612873565b604051808273ffffffffffffffffffffffffffffffffffffffff1673ffffffffffffffffffffffffffffffffffffffff16815260200191505060405180910390f35b3480156107b057600080fd5b506107b9612899565b604051808215151515815260200191505060405180910390f35b3480156107df57600080fd5b506107e86128ae565b005b3480156107f657600080fd5b50610815600480360381019080803590602001909291905050506129b3565b604051808263ffffffff1663ffffffff16815260200191505060405180910390f35b34801561084357600080fd5b5061084c6129ec565b6040518082815260200191505060405180910390f35b34801561086e57600080fd5b506108776129f9565b604051808273ffffffffffffffffffffffffffffffffffffffff1673ffffffffffffffffffffffffffffffffffffffff16815260200191505060405180910390f35b3480156108c557600080fd5b506108e460048036038101908080359060200190929190505050612a1f565b604051808563ffffffff1663ffffffff1681526020018463ffffffff1663ffffffff1681526020018381526020018263ffffffff1663ffffffff16815260200194505050505060405180910390f35b34801561093f57600080fd5b50610948612a8e565b6040518082815260200191505060405180910390f35b34801561096a57600080fd5b50610973612a94565b604051808273ffffffffffffffffffffffffffffffffffffffff1673ffffffffffffffffffffffffffffffffffffffff16815260200191505060405180910390f35b3480156109c157600080fd5b506109ca612aba565b604051808273ffffffffffffffffffffffffffffffffffffffff1673ffffffffffffffffffffffffffffffffffffffff16815260200191505060405180910390f35b348015610a1857600080fd5b50610a21612ae4565b6040518082815260200191505060405180910390f35b348015610a4357600080fd5b50610a4c612aea565b604051808215151515815260200191505060405180910390f35b348015610a7257600080fd5b50610a7b612b41565b604051808263ffffffff1663ffffffff16815260200191505060405180910390f35b348015610aa957600080fd5b50610ab2612b94565b604051808273ffffffffffffffffffffffffffffffffffffffff1673ffffffffffffffffffffffffffffffffffffffff16815260200191505060405180910390f35b348015610b0057600080fd5b50610b1f60048036038101908080359060200190929190505050612bba565b005b348015610b2d57600080fd5b50610b7c60048036038101908080359060200190929190803590602001908201803590602001919091929391929390803590602001908201803590602001919091929391929390505050612bc4565b005b610b86610f12565b005b348015610b9457600080fd5b50610b9d612f62565b60405180838152602001821515151581526020019250505060405180910390f35b348015610bca57600080fd5b50610bd3612fff565b60405180838152602001821515151581526020019250505060405180910390f35b348015610c0057600080fd5b50610c756004803603810190808035906020019082018035906020019190919293919293908035906020019082018035906020019190919293919293908035906020019082018035906020019190919293919293908035906020019082018035906020019190919293919293905050506130a8565b005b348015610c8357600080fd5b50610ca260048036038101908080359060200190929190505050613aa4565b604051808763ffffffff1663ffffffff1681526020018681526020018563ffffffff1663ffffffff1681526020018463ffffffff1663ffffffff1681526020018060200180602001838103835285818151815260200191508051906020019080838360005b83811015610d22578082015181840152602081019050610d07565b50505050905090810190601f168015610d4f5780820380516001836020036101000a031916815260200191505b50838103825284818151815260200191508051906020019080838360005b83811015610d88578082015181840152602081019050610d6d565b50505050905090810190601f168015610db55780820380516001836020036101000a031916815260200191505b509850505050505050505060405180910390f35b348015610dd557600080fd5b50610df460048036038101908080359060200190929190505050613c4f565b005b348015610e0257600080fd5b50610e2160048036038101908080359060200190929190505050613d2e565b6040518080602001828103825283818151815260200191508051906020019060200280838360005b83811015610e64578082015181840152602081019050610e49565b505050509050019250505060405180910390f35b348015610e8457600080fd5b50610eb9600480360381019080803573ffffffffffffffffffffffffffffffffffffffff169060200190929190505050613da6565b005b348015610ec757600080fd5b50610ed0613e0e565b604051808273ffffffffffffffffffffffffffffffffffffffff1673ffffffffffffffffffffffffffffffffffffffff16815260200191505060405180910390f35b600080600080600080600080600060016002600082825401925050819055506002549050610f3e612899565b1515610fb2576040517f08c379a00000000000000000000000000000000000000000000000000000000081526004018080602001828103825260178152602001807f53616c65206973206e6f7420737461727465642079657400000000000000000081525060200191505060405180910390fd5b600034111515610fc157600080fd5b610fc9612fff565b509850600b89815481101515610fdb57fe5b9060005260206000209060050201600101549750600b89815481101515610ffe57fe5b906000526020600020906005020160020160009054906101000a900463ffffffff16965061102b34611862565b9550611038348988613e34565b50945094509450600060075411156113125761105f6007548661435b90919063ffffffff16565b9150600460009054906101000a900473ffffffffffffffffffffffffffffffffffffffff1673ffffffffffffffffffffffffffffffffffffffff166323b872dd600960009054906101000a900473ffffffffffffffffffffffffffffffffffffffff16600860009054906101000a900473ffffffffffffffffffffffffffffffffffffffff16856040518463ffffffff167c0100000000000000000000000000000000000000000000000000000000028152600401808473ffffffffffffffffffffffffffffffffffffffff1673ffffffffffffffffffffffffffffffffffffffff1681526020018373ffffffffffffffffffffffffffffffffffffffff1673ffffffffffffffffffffffffffffffffffffffff1681526020018281526020019350505050602060405180830381600087803b15801561119e57600080fd5b505af11580156111b2573d6000803e3d6000fd5b505050506040513d60208110156111c857600080fd5b810190808051906020019092919050505015156111e457600080fd5b600360009054906101000a900473ffffffffffffffffffffffffffffffffffffffff1673ffffffffffffffffffffffffffffffffffffffff1663a9059cbb600960009054906101000a900473ffffffffffffffffffffffffffffffffffffffff16846040518363ffffffff167c0100000000000000000000000000000000000000000000000000000000028152600401808373ffffffffffffffffffffffffffffffffffffffff1673ffffffffffffffffffffffffffffffffffffffff16815260200182815260200192505050602060405180830381600087803b1580156112cb57600080fd5b505af11580156112df573d6000803e3d6000fd5b505050506040513d60208110156112f557600080fd5b8101908080519060200190929190505050151561131157600080fd5b5b600360009054906101000a900473ffffffffffffffffffffffffffffffffffffffff1673ffffffffffffffffffffffffffffffffffffffff16639d2e477733878a6040518463ffffffff167c0100000000000000000000000000000000000000000000000000000000028152600401808473ffffffffffffffffffffffffffffffffffffffff1673ffffffffffffffffffffffffffffffffffffffff1681526020018381526020018263ffffffff1663ffffffff1681526020019350505050602060405180830381600087803b1580156113eb57600080fd5b505af11580156113ff573d6000803e3d6000fd5b505050506040513d602081101561141557600080fd5b8101908080519060200190929190505050151561143157600080fd5b6000831115611482573373ffffffffffffffffffffffffffffffffffffffff166108fc849081150290604051600060405180830381858888f19350505050158015611480573d6000803e3d6000fd5b505b6000600654111561150b57600860009054906101000a900473ffffffffffffffffffffffffffffffffffffffff1673ffffffffffffffffffffffffffffffffffffffff166108fc6114de6006548761435b90919063ffffffff16565b9081150290604051600060405180830381858888f19350505050158015611509573d6000803e3d6000fd5b505b600a60009054906101000a900473ffffffffffffffffffffffffffffffffffffffff1673ffffffffffffffffffffffffffffffffffffffff1663958799cb3073ffffffffffffffffffffffffffffffffffffffff1631620186a09033896040518563ffffffff167c0100000000000000000000000000000000000000000000000000000000028152600401808373ffffffffffffffffffffffffffffffffffffffff1673ffffffffffffffffffffffffffffffffffffffff168152602001828152602001925050506000604051808303818589803b1580156115ec57600080fd5b5088f1158015611600573d6000803e3d6000fd5b5050505050503373ffffffffffffffffffffffffffffffffffffffff167f347f5f0051b895093800553e6e78ef332849e2552639a4f5ffe66535788ae07885878660405180848152602001838152602001828152602001935050505060405180910390a26002548114151561167457600080fd5b505050505050505050565b6060600b8281548110151561169057fe5b90600052602060002090600502016004018054806020026020016040519081016040528092919081815260200182805480156116eb57602002820191906000526020600020905b8154815260200190600101908083116116d7575b50505050509050919050565b600460009054906101000a900473ffffffffffffffffffffffffffffffffffffffff1681565b6000806000600c805490509050600081148061173e575061173c612aea565b155b1561174857611753565b600191506001810392505b509091565b6000600360009054906101000a900473ffffffffffffffffffffffffffffffffffffffff1673ffffffffffffffffffffffffffffffffffffffff1663a9059cbb84846040518363ffffffff167c0100000000000000000000000000000000000000000000000000000000028152600401808373ffffffffffffffffffffffffffffffffffffffff1673ffffffffffffffffffffffffffffffffffffffff16815260200182815260200192505050602060405180830381600087803b15801561181f57600080fd5b505af1158015611833573d6000803e3d6000fd5b505050506040513d602081101561184957600080fd5b8101908080519060200190929190505050905092915050565b6000806000806000611872612fff565b935093508215156118865760009450611913565b600b8481548110151561189557fe5b90600052602060002090600502019150600090505b81600301805490508110156119125781600301818154811015156118ca57fe5b9060005260206000200154861015156119005781600401818154811015156118ee57fe5b90600052602060002001549450611905565b611912565b80806001019150506118aa565b5b50505050919050565b600080600080606080600c8781548110151561193457fe5b906000526020600020906005020160000160009054906101000a900463ffffffff16600c8881548110151561196557fe5b906000526020600020906005020160010154600c8981548110151561198657fe5b906000526020600020906005020160020160009054906101000a900463ffffffff16600c8a8154811015156119b757fe5b906000526020600020906005020160020160049054906101000a900463ffffffff16600c8b8154811015156119e857fe5b9060005260206000209060050201600301600c8c815481101515611a0857fe5b9060005260206000209060050201600401818054600181600116156101000203166002900480601f016020809104026020016040519081016040528092919081815260200182805460018160011615610100020316600290048015611aae5780601f10611a8357610100808354040283529160200191611aae565b820191906000526020600020905b815481529060010190602001808311611a9157829003601f168201915b50505050509150808054600181600116156101000203166002900480601f016020809104026020016040519081016040528092919081815260200182805460018160011615610100020316600290048015611b4a5780601f10611b1f57610100808354040283529160200191611b4a565b820191906000526020600020905b815481529060010190602001808311611b2d57829003601f168201915b5050505050905095509550955095509550955091939550919395565b600080600080606080600b87815481101515611b7e57fe5b906000526020600020906005020160000160009054906101000a900463ffffffff16600b88815481101515611baf57fe5b906000526020600020906005020160000160049054906101000a900463ffffffff16600b89815481101515611be057fe5b906000526020600020906005020160010154600b8a815481101515611c0157fe5b906000526020600020906005020160020160009054906101000a900463ffffffff16600b8b815481101515611c3257fe5b9060005260206000209060050201600301600b8c815481101515611c5257fe5b906000526020600020906005020160040181805480602002602001604051908101604052809291908181526020018280548015611cae57602002820191906000526020600020905b815481526020019060010190808311611c9a575b5050505050915080805480602002602001604051908101604052809291908181526020018280548015611d0057602002820191906000526020600020905b815481526020019060010190808311611cec575b5050505050905095509550955095509550955091939550919395565b60075481565b6000600160009054906101000a900473ffffffffffffffffffffffffffffffffffffffff1673ffffffffffffffffffffffffffffffffffffffff163373ffffffffffffffffffffffffffffffffffffffff16141515611d8057600080fd5b611d88612aea565b1515611d9357600080fd5b600360009054906101000a900473ffffffffffffffffffffffffffffffffffffffff1673ffffffffffffffffffffffffffffffffffffffff166370a08231306040518263ffffffff167c0100000000000000000000000000000000000000000000000000000000028152600401808273ffffffffffffffffffffffffffffffffffffffff1673ffffffffffffffffffffffffffffffffffffffff168152602001915050602060405180830381600087803b158015611e5057600080fd5b505af1158015611e64573d6000803e3d6000fd5b505050506040513d6020811015611e7a57600080fd5b81019080805190602001909291905050509050600360009054906101000a900473ffffffffffffffffffffffffffffffffffffffff1673ffffffffffffffffffffffffffffffffffffffff1663a9059cbb600160009054906101000a900473ffffffffffffffffffffffffffffffffffffffff16836040518363ffffffff167c0100000000000000000000000000000000000000000000000000000000028152600401808373ffffffffffffffffffffffffffffffffffffffff1673ffffffffffffffffffffffffffffffffffffffff16815260200182815260200192505050602060405180830381600087803b158015611f7457600080fd5b505af1158015611f88573d6000803e3d6000fd5b505050506040513d6020811015611f9e57600080fd5b81019080805190602001909291905050501515611fba57600080fd5b600160009054906101000a900473ffffffffffffffffffffffffffffffffffffffff1673ffffffffffffffffffffffffffffffffffffffff167f26ffb867a6b19bc0240d4e732ed6cfb0f0b6d93143a99cfb24ba5873308861f8826040518082815260200191505060405180910390a250565b6000600c80549050905090565b6000600360009054906101000a900473ffffffffffffffffffffffffffffffffffffffff16905090565b600080600160009054906101000a900473ffffffffffffffffffffffffffffffffffffffff1673ffffffffffffffffffffffffffffffffffffffff163373ffffffffffffffffffffffffffffffffffffffff161415156120c357600080fd5b6000600b8054905011156121175742600b60008154811015156120e257fe5b906000526020600020906005020160000160009054906101000a900463ffffffff1663ffffffff1611151561211657600080fd5b5b7fffffffffffffffffffffffffffffffffffffffffffffffffffffffffffffffff60ff16888890501115151561214c57600080fd5b60008888905011151561215e57600080fd5b858590508888905014151561217257600080fd5b838390508888905014151561218657600080fd5b6000600c8054905011156122a157878760018a8a90500381811015156121a857fe5b90506040020160016002811015156121bc57fe5b602002013563ffffffff1663ffffffff16600c60008154811015156121dd57fe5b906000526020600020906005020160000160009054906101000a900463ffffffff1663ffffffff161115156122a0576040517f08c379a000000000000000000000000000000000000000000000000000000000815260040180806020018281038252603c8152602001807f4c61737420737461676520656e6444617465206d757374206265206c6573732081526020017f7468616e206669727374206d696c6573746f6e6520656e64446174650000000081525060400191505060405180910390fd5b5b878790509150600b60006122b591906146c3565b600090505b8160ff168160ff161015612837576122e886868360ff1681811015156122dc57fe5b905060200201356143a5565b80156123135750606461231187878460ff16818110151561230557fe5b905060200201356143cc565b105b15156123ad576040517f08c379a00000000000000000000000000000000000000000000000000000000081526004018080602001828103825260318152602001807f537461676520646973636f756e74206973206e6f7420696e20616c6c6f77656481526020017f2072616e6765205b302c2039392e39392900000000000000000000000000000081525060400191505060405180910390fd5b4288888360ff1681811015156123bf57fe5b90506040020160006002811015156123d357fe5b602002013563ffffffff1663ffffffff161115156123f057600080fd5b87878260ff16818110151561240157fe5b905060400201600160028110151561241557fe5b602002013563ffffffff1663ffffffff1688888360ff16818110151561243757fe5b905060400201600060028110151561244b57fe5b602002013563ffffffff1663ffffffff161015156124f7576040517f08c379a00000000000000000000000000000000000000000000000000000000081526004018080602001828103825260248152602001807f53746167652073746172742064617465206d75737420626520677420656e642081526020017f646174650000000000000000000000000000000000000000000000000000000081525060400191505060405180910390fd5b60008160ff16111561260f5787878260ff16818110151561251457fe5b905060400201600060028110151561252857fe5b602002013563ffffffff1663ffffffff1688886001840360ff16818110151561254d57fe5b905060400201600160028110151561256157fe5b602002013563ffffffff1663ffffffff161115151561260e576040517f08c379a00000000000000000000000000000000000000000000000000000000081526004018080602001828103825260228152602001807f53746167657320617265206e6f7420696e20686973746f726963616c206f726481526020017f657200000000000000000000000000000000000000000000000000000000000081525060400191505060405180910390fd5b5b600b60c0604051908101604052808a8a8560ff16818110151561262e57fe5b905060400201600060028110151561264257fe5b602002013563ffffffff1663ffffffff1681526020018a8a8560ff16818110151561266957fe5b905060400201600160028110151561267d57fe5b602002013563ffffffff1663ffffffff16815260200188888560ff1681811015156126a457fe5b90506020020135815260200186868560ff1681811015156126c157fe5b9050602002013563ffffffff1663ffffffff16815260200160006040519080825280602002602001820160405280156127095781602001602082028038833980820191505090505b508152602001600060405190808252806020026020018201604052801561273f5781602001602082028038833980820191505090505b508152509080600181540180825580915050906001820390600052602060002090600502016000909192909190915060008201518160000160006101000a81548163ffffffff021916908363ffffffff16021790555060208201518160000160046101000a81548163ffffffff021916908363ffffffff1602179055506040820151816001015560608201518160020160006101000a81548163ffffffff021916908363ffffffff16021790555060808201518160030190805190602001906128099291906146e7565b5060a08201518160040190805190602001906128269291906146e7565b5050505080806001019150506122ba565b7f743961f4e677d1146fbf85d75565b1c5474fd083eb166f8b9595cf5d01a4d6e660405160405180910390a15050505050505050565b60005481565b600860009054906101000a900473ffffffffffffffffffffffffffffffffffffffff1681565b6000806128a4612fff565b9150508091505090565b600160009054906101000a900473ffffffffffffffffffffffffffffffffffffffff1673ffffffffffffffffffffffffffffffffffffffff163373ffffffffffffffffffffffffffffffffffffffff1614151561290a57600080fd5b600160009054906101000a900473ffffffffffffffffffffffffffffffffffffffff1673ffffffffffffffffffffffffffffffffffffffff167ff8df31144d9c2f0f6b59d69b8b98abd5459d07f2742c4df920b25aae33c6482060405160405180910390a26000600160006101000a81548173ffffffffffffffffffffffffffffffffffffffff021916908373ffffffffffffffffffffffffffffffffffffffff160217905550565b600d818154811015156129c257fe5b9060005260206000209060089182820401919006600402915054906101000a900463ffffffff1681565b6000600b80549050905090565b600960009054906101000a900473ffffffffffffffffffffffffffffffffffffffff1681565b600b81815481101515612a2e57fe5b90600052602060002090600502016000915090508060000160009054906101000a900463ffffffff16908060000160049054906101000a900463ffffffff16908060010154908060020160009054906101000a900463ffffffff16905084565b60065481565b600160009054906101000a900473ffffffffffffffffffffffffffffffffffffffff1681565b6000600a60009054906101000a900473ffffffffffffffffffffffffffffffffffffffff16905090565b60055481565b600080600b805490501480612b3c575042600b6001600b8054905003815481101515612b1257fe5b906000526020600020906005020160000160049054906101000a900463ffffffff1663ffffffff16105b905090565b600080600b80549050111515612b5657600080fd5b600b6001600b8054905003815481101515612b6d57fe5b906000526020600020906005020160000160049054906101000a900463ffffffff16905090565b600a60009054906101000a900473ffffffffffffffffffffffffffffffffffffffff1681565b8060078190555050565b6000600160009054906101000a900473ffffffffffffffffffffffffffffffffffffffff1673ffffffffffffffffffffffffffffffffffffffff163373ffffffffffffffffffffffffffffffffffffffff16141515612c2257600080fd5b6000600b805490501115612c765742600b6000815481101515612c4157fe5b906000526020600020906005020160000160009054906101000a900463ffffffff1663ffffffff16111515612c7557600080fd5b5b8282905085859050141515612c8a57600080fd5b600b8054905086101515612c9d57600080fd5b600090505b84849050811015612e6b57612cca8383838181101515612cbe57fe5b905060200201356143a5565b8015612cf257506064612cf08484848181101515612ce457fe5b905060200201356143cc565b105b1515612d8c576040517f08c379a00000000000000000000000000000000000000000000000000000000081526004018080602001828103825260308152602001807f426f6e75732070657263656e74206973206e6f7420696e20616c6c6f7765642081526020017f72616e6765205b302c2039392e3939290000000000000000000000000000000081525060400191505060405180910390fd5b6000811115612e5e578484828181101515612da357fe5b905060200201358585600184038181101515612dbb57fe5b90506020020135101515612e5d576040517f08c379a000000000000000000000000000000000000000000000000000000000815260040180806020018281038252602c8152602001807f566f6c756d6520626f756e646172696573206d75737420626520696e2061736381526020017f656e64696e67206f72646572000000000000000000000000000000000000000081525060400191505060405180910390fd5b5b8080600101915050612ca2565b600b86815481101515612e7a57fe5b90600052602060002090600502016003016000612e979190614734565b600b86815481101515612ea657fe5b90600052602060002090600502016004016000612ec39190614734565b8484600b88815481101515612ed457fe5b90600052602060002090600502016003019190612ef2929190614755565b508282600b88815481101515612f0457fe5b90600052602060002090600502016004019190612f22929190614755565b507f34cf54504fd39ab670a54acbb37f686c5bd25e6eedfa39889cba899d360bc7d9866040518082815260200191505060405180910390a1505050505050565b6000806000600c8054905090506000811480612f835750612f81612aea565b155b15612f8d57612ffa565b600191505b6001810383108015612fe75750600d60016003600186010203815481101515612fb757fe5b90600052602060002090600891828204019190066004029054906101000a900463ffffffff1663ffffffff164210155b15612ff9578280600101935050612f92565b5b509091565b600080600080600091505b600b8054905082101561309757600b8281548110151561302657fe5b90600052602060002090600502019050428160000160009054906101000a900463ffffffff1663ffffffff16111580156130795750428160000160049054906101000a900463ffffffff1663ffffffff16115b1561308a57816001935093506130a2565b818060010192505061300a565b600080819150935093505b50509091565b6000806000606080600160009054906101000a900473ffffffffffffffffffffffffffffffffffffffff1673ffffffffffffffffffffffffffffffffffffffff163373ffffffffffffffffffffffffffffffffffffffff1614151561310c57600080fd5b6000600b8054905011156131605742600b600081548110151561312b57fe5b906000526020600020906005020160000160009054906101000a900463ffffffff1663ffffffff1611151561315f57600080fd5b5b7fffffffffffffffffffffffffffffffffffffffffffffffffffffffffffffffff60ff168d8d90501115151561319557600080fd5b60038d8d9050101515156131a857600080fd5b600060038e8e90508115156131b957fe5b061415156131c657600080fd5b888890506131e160028d8d905061440690919063ffffffff16565b1415156131ed57600080fd5b8c8c905061320860038d8d905061440690919063ffffffff16565b14151561321457600080fd5b60028b8b905002878790501015151561322c57600080fd5b6000600b805490501115613337578c8c6000818110151561324957fe5b9050602002013563ffffffff1663ffffffff16600b6001600b805490500381548110151561327357fe5b906000526020600020906005020160000160049054906101000a900463ffffffff1663ffffffff16101515613336576040517f08c379a000000000000000000000000000000000000000000000000000000000815260040180806020018281038252603f8152602001807f4669727374206d696c6573746f6e6520656e6444617465206d7573742062652081526020017f67726561746572207468616e206c61737420737461676520656e64446174650081525060400191505060405180910390fd5b5b600c600061334591906147a2565b600d600061335391906147c6565b8c8c600d91906133649291906147ee565b506000945060009350600092505b8c8c905060ff168360ff1610156139c1576133ff858a8a600260038860ff1681151561339a57fe5b040260ff1681811015156133aa57fe5b9050602002013563ffffffff1663ffffffff1689898080601f0160208091040260200160405190810160405280939291908181526020018383808284378201915050505050506144449092919063ffffffff16565b91506134b78989600260038760ff1681151561341757fe5b040260ff16818110151561342757fe5b9050602002013563ffffffff1663ffffffff1686018a8a6001600260038960ff1681151561345157fe5b04020160ff16818110151561346257fe5b9050602002013563ffffffff1663ffffffff1689898080601f0160208091040260200160405190810160405280939291908181526020018383808284378201915050505050506144449092919063ffffffff16565b9050428d8d8560ff1681811015156134cb57fe5b9050602002013563ffffffff1663ffffffff161115156134ea57600080fd5b8c8c8460ff1681811015156134fb57fe5b9050602002013563ffffffff1663ffffffff168d8d6001860160ff16818110151561352257fe5b9050602002013563ffffffff1663ffffffff1611151561354157600080fd5b8c8c6001850160ff16818110151561355557fe5b9050602002013563ffffffff1663ffffffff168d8d6002860160ff16818110151561357c57fe5b9050602002013563ffffffff1663ffffffff1611151561359b57600080fd5b600082511115156135ab57600080fd5b600081511115156135bb57600080fd5b6135ea8b8b60038660ff168115156135cf57fe5b0460ff1681811015156135de57fe5b905060200201356143a5565b1515613684576040517f08c379a00000000000000000000000000000000000000000000000000000000081526004018080602001828103825260308152602001807f5472616e6368652070657263656e74206973206e6f7420696e20616c6c6f776581526020017f642072616e6765205b302c20313030290000000000000000000000000000000081525060400191505060405180910390fd5b60008360ff161115613777578c8c8460ff1681811015156136a157fe5b9050602002013563ffffffff1663ffffffff168d8d6001860360ff1681811015156136c857fe5b9050602002013563ffffffff1663ffffffff16101515613776576040517f08c379a00000000000000000000000000000000000000000000000000000000081526004018080602001828103825260298152602001807f4d696c6573746f6e65206461746573206973206e6f7420696e20617363656e6481526020017f696e67206f72646572000000000000000000000000000000000000000000000081525060400191505060405180910390fd5b5b600c60c0604051908101604052808f8f8760ff16818110151561379657fe5b9050602002013563ffffffff1663ffffffff1681526020018d8d60038860ff168115156137bf57fe5b0460ff1681811015156137ce57fe5b9050602002013581526020018f8f6001880160ff1681811015156137ee57fe5b9050602002013563ffffffff1663ffffffff1681526020018f8f6002880160ff16818110151561381a57fe5b9050602002013563ffffffff1663ffffffff168152602001848152602001838152509080600181540180825580915050906001820390600052602060002090600502016000909192909190915060008201518160000160006101000a81548163ffffffff021916908363ffffffff1602179055506020820151816001015560408201518160020160006101000a81548163ffffffff021916908363ffffffff16021790555060608201518160020160046101000a81548163ffffffff021916908363ffffffff16021790555060808201518160030190805190602001906139029291906148a4565b5060a082015181600401908051906020019061391f9291906148a4565b505050508888600160038660ff1681151561393657fe5b040160ff16818110151561394657fe5b9050602002013563ffffffff16898960038660ff1681151561396457fe5b0460ff16818110151561397357fe5b9050602002013563ffffffff160163ffffffff16850194508a8a60038560ff1681151561399c57fe5b0460ff1681811015156139ab57fe5b9050602002013584019350600383019250613372565b73__Percent_______________________________63d49d51816040518163ffffffff167c010000000000000000000000000000000000000000000000000000000002815260040160206040518083038186803b158015613a2157600080fd5b505af4158015613a35573d6000803e3d6000fd5b505050506040513d6020811015613a4b57600080fd5b810190808051906020019092919050505084141515613a6957600080fd5b7f56d9a2e016027a3725bf162ef2779c8b28d4dbec97c679cfba02dbb31a34c7ca60405160405180910390a150505050505050505050505050565b600c81815481101515613ab357fe5b90600052602060002090600502016000915090508060000160009054906101000a900463ffffffff16908060010154908060020160009054906101000a900463ffffffff16908060020160049054906101000a900463ffffffff1690806003018054600181600116156101000203166002900480601f016020809104026020016040519081016040528092919081815260200182805460018160011615610100020316600290048015613ba75780601f10613b7c57610100808354040283529160200191613ba7565b820191906000526020600020905b815481529060010190602001808311613b8a57829003601f168201915b505050505090806004018054600181600116156101000203166002900480601f016020809104026020016040519081016040528092919081815260200182805460018160011615610100020316600290048015613c455780601f10613c1a57610100808354040283529160200191613c45565b820191906000526020600020905b815481529060010190602001808311613c2857829003601f168201915b5050505050905086565b600160009054906101000a900473ffffffffffffffffffffffffffffffffffffffff1673ffffffffffffffffffffffffffffffffffffffff163373ffffffffffffffffffffffffffffffffffffffff16141515613cab57600080fd5b6000600b805490501115613cff5742600b6000815481101515613cca57fe5b906000526020600020906005020160000160009054906101000a900463ffffffff1663ffffffff16111515613cfe57600080fd5b5b613d2b81600860009054906101000a900473ffffffffffffffffffffffffffffffffffffffff166144d1565b50565b6060600b82815481101515613d3f57fe5b9060005260206000209060050201600301805480602002602001604051908101604052809291908181526020018280548015613d9a57602002820191906000526020600020905b815481526020019060010190808311613d86575b50505050509050919050565b600160009054906101000a900473ffffffffffffffffffffffffffffffffffffffff1673ffffffffffffffffffffffffffffffffffffffff163373ffffffffffffffffffffffffffffffffffffffff16141515613e0257600080fd5b613e0b81614568565b50565b600360009054906101000a900473ffffffffffffffffffffffffffffffffffffffff1681565b6000806000806000879350600360009054906101000a900473ffffffffffffffffffffffffffffffffffffffff1673ffffffffffffffffffffffffffffffffffffffff166370a08231306040518263ffffffff167c0100000000000000000000000000000000000000000000000000000000028152600401808273ffffffffffffffffffffffffffffffffffffffff1673ffffffffffffffffffffffffffffffffffffffff168152602001915050602060405180830381600087803b158015613efc57600080fd5b505af1158015613f10573d6000803e3d6000fd5b505050506040513d6020811015613f2657600080fd5b81019080805190602001909291905050509050600360009054906101000a900473ffffffffffffffffffffffffffffffffffffffff1673ffffffffffffffffffffffffffffffffffffffff1663313ce5676040518163ffffffff167c0100000000000000000000000000000000000000000000000000000000028152600401602060405180830381600087803b158015613fbf57600080fd5b505af1158015613fd3573d6000803e3d6000fd5b505050506040513d6020811015613fe957600080fd5b810190808051906020019092919050505060ff16600a0a811015151561400e57600080fd5b6000871161401e576005546140d0565b6140cf8773__Percent_______________________________63d49d51816040518163ffffffff167c010000000000000000000000000000000000000000000000000000000002815260040160206040518083038186803b15801561408257600080fd5b505af4158015614096573d6000803e3d6000fd5b505050506040513d60208110156140ac57600080fd5b81019080805190602001909291905050500360055461435b90919063ffffffff16565b5b915061431773__Percent_______________________________63d49d51816040518163ffffffff167c010000000000000000000000000000000000000000000000000000000002815260040160206040518083038186803b15801561413557600080fd5b505af4158015614149573d6000803e3d6000fd5b505050506040513d602081101561415f57600080fd5b8101908080519060200190929190505050614309846142fb600360009054906101000a900473ffffffffffffffffffffffffffffffffffffffff1673ffffffffffffffffffffffffffffffffffffffff1663313ce5676040518163ffffffff167c0100000000000000000000000000000000000000000000000000000000028152600401602060405180830381600087803b1580156141fd57600080fd5b505af1158015614211573d6000803e3d6000fd5b505050506040513d602081101561422757600080fd5b810190808051906020019092919050505060ff16600a0a6142ed8c73__Percent_______________________________63d49d51816040518163ffffffff167c010000000000000000000000000000000000000000000000000000000002815260040160206040518083038186803b1580156142a257600080fd5b505af41580156142b6573d6000803e3d6000fd5b505050506040513d60208110156142cc57600080fd5b8101908080519060200190929190505050018f61440690919063ffffffff16565b61440690919063ffffffff16565b61466490919063ffffffff16565b61466490919063ffffffff16565b9450848110156143515761434685614338838b61440690919063ffffffff16565b61466490919063ffffffff16565b935083880392508094505b5093509350935093565b6000614366826143a5565b151561437157600080fd5b61439d61437c61468e565b61438f848661440690919063ffffffff16565b61466490919063ffffffff16565b905092915050565b60006143af6146a0565b82101580156143c557506143c161468e565b8211155b9050919050565b60006143d7826143a5565b15156143e257600080fd5b6143ff6143ed6146a8565b600a0a8361466490919063ffffffff16565b9050919050565b600080600084141561441b576000915061443d565b828402905082848281151561442c57fe5b0414151561443957600080fd5b8091505b5092915050565b60608082840185511015151561445957600080fd5b821560008114614474576040519150602082016040526144c5565b6040519150601f8416801560200281840101858101878315602002848b0101015b818310156144b25780518352602083019250602081019050614495565b50868552601f19601f8301166040525050505b50809150509392505050565b6000821115156144e057600080fd5b600073ffffffffffffffffffffffffffffffffffffffff168173ffffffffffffffffffffffffffffffffffffffff161415151561451c57600080fd5b8160058190555080600860006101000a81548173ffffffffffffffffffffffffffffffffffffffff021916908373ffffffffffffffffffffffffffffffffffffffff1602179055505050565b600073ffffffffffffffffffffffffffffffffffffffff168173ffffffffffffffffffffffffffffffffffffffff16141515156145a457600080fd5b8073ffffffffffffffffffffffffffffffffffffffff16600160009054906101000a900473ffffffffffffffffffffffffffffffffffffffff1673ffffffffffffffffffffffffffffffffffffffff167f8be0079c531659141344cd1fd0a4f28419497f9722a3daafe3b4186f6b6457e060405160405180910390a380600160006101000a81548173ffffffffffffffffffffffffffffffffffffffff021916908373ffffffffffffffffffffffffffffffffffffffff16021790555050565b60008060008311151561467657600080fd5b828481151561468157fe5b0490508091505092915050565b60006146986146b1565b600a0a905090565b600080905090565b60006002905090565b60006146bb6146a8565b600201905090565b50805460008255600502906000526020600020908101906146e49190614924565b50565b828054828255906000526020600020908101928215614723579160200282015b82811115614722578251825591602001919060010190614707565b5b50905061473091906149b0565b5090565b508054600082559060005260206000209081019061475291906149b0565b50565b828054828255906000526020600020908101928215614791579160200282015b82811115614790578235825591602001919060010190614775565b5b50905061479e91906149b0565b5090565b50805460008255600502906000526020600020908101906147c391906149d5565b50565b5080546000825560070160089004906000526020600020908101906147eb91906149b0565b50565b828054828255906000526020600020906007016008900481019282156148935791602002820160005b8382111561486157833563ffffffff1683826101000a81548163ffffffff021916908363ffffffff1602179055509260200192600401602081600301049283019260010302614817565b80156148915782816101000a81549063ffffffff0219169055600401602081600301049283019260010302614861565b505b5090506148a09190614a61565b5090565b828054600181600116156101000203166002900490600052602060002090601f016020900481019282601f106148e557805160ff1916838001178555614913565b82800160010185558215614913579182015b828111156149125782518255916020019190600101906148f7565b5b50905061492091906149b0565b5090565b6149ad91905b808211156149a957600080820160006101000a81549063ffffffff02191690556000820160046101000a81549063ffffffff021916905560018201600090556002820160006101000a81549063ffffffff02191690556003820160006149909190614734565b6004820160006149a09190614734565b5060050161492a565b5090565b90565b6149d291905b808211156149ce5760008160009055506001016149b6565b5090565b90565b614a5e91905b80821115614a5a57600080820160006101000a81549063ffffffff021916905560018201600090556002820160006101000a81549063ffffffff02191690556002820160046101000a81549063ffffffff0219169055600382016000614a419190614a94565b600482016000614a519190614a94565b506005016149db565b5090565b90565b614a9191905b80821115614a8d57600081816101000a81549063ffffffff021916905550600101614a67565b5090565b90565b50805460018160011615610100020316600290046000825580601f10614aba5750614ad9565b601f016020900490600052602060002090810190614ad891906149b0565b5b505600a165627a7a72305820deeaee1259da040e81489b2318d12409e445fad059e633a4a0c3f9304d6e26190029",
  "source": "pragma solidity ^0.4.24;\n\nimport \"./W12Crowdsale.sol\";\n\n\ncontract W12CrowdsaleStub is W12Crowdsale {\n    constructor (\n        uint version,\n        address _originToken,\n        address _token,\n        uint _price,\n        address _serviceWallet,\n        address _swap,\n        uint _serviceFee,\n        uint _WTokenSaleFeePercent,\n        IW12Fund _fund\n    )\n        W12Crowdsale(\n            version,\n            _originToken,\n             _token,\n             _price,\n             _serviceWallet,\n             _swap,\n             _serviceFee,\n            _WTokenSaleFeePercent,\n             _fund\n        ) public\n    {}\n\n    function _outTokens(address to, uint amount) external returns (bool) {\n        return token.transfer(to, amount);\n    }\n\n    function _setState(uint _WTokenSaleFeePercent) external {\n        WTokenSaleFeePercent = _WTokenSaleFeePercent;\n    }\n}\n",
  "sourcePath": "/home/circleci/code/contracts/W12CrowdsaleStub.sol",
  "compiler": {
    "name": "solc",
    "version": "0.4.24+commit.e67f0147.Emscripten.clang"
  },
  "schemaVersion": "2.0.1",
  "updatedAt": "2018-09-20T14:57:49.150Z"
}