{
  "contractName": "W12CrowdsaleStub",
  "abi": [
    {
      "constant": false,
      "inputs": [
        {
          "name": "dates",
          "type": "uint32[]"
        },
        {
          "name": "tranchePercents",
          "type": "uint8[]"
        },
        {
          "name": "offsets",
          "type": "uint32[]"
        },
        {
          "name": "namesAndDescriptions",
          "type": "bytes"
        }
      ],
      "name": "setMilestones",
      "outputs": [],
      "payable": false,
      "stateMutability": "nonpayable",
      "type": "function"
    },
    {
      "constant": true,
      "inputs": [
        {
          "name": "stageNumber",
          "type": "uint256"
        }
      ],
      "name": "getStageVolumeBonuses",
      "outputs": [
        {
          "name": "",
          "type": "uint8[]"
        }
      ],
      "payable": false,
      "stateMutability": "view",
      "type": "function"
    },
    {
      "constant": true,
      "inputs": [],
      "name": "originToken",
      "outputs": [
        {
          "name": "",
          "type": "address"
        }
      ],
      "payable": false,
      "stateMutability": "view",
      "type": "function"
    },
    {
      "constant": true,
      "inputs": [
        {
          "name": "value",
          "type": "uint256"
        }
      ],
      "name": "getSaleVolumeBonus",
      "outputs": [
        {
          "name": "bonus",
          "type": "uint256"
        }
      ],
      "payable": false,
      "stateMutability": "view",
      "type": "function"
    },
    {
      "constant": true,
      "inputs": [
        {
          "name": "index",
          "type": "uint256"
        }
      ],
      "name": "getMilestone",
      "outputs": [
        {
          "name": "",
          "type": "uint32"
        },
        {
          "name": "",
          "type": "uint8"
        },
        {
          "name": "",
          "type": "uint32"
        },
        {
          "name": "",
          "type": "uint32"
        },
        {
          "name": "",
          "type": "bytes"
        },
        {
          "name": "",
          "type": "bytes"
        }
      ],
      "payable": false,
      "stateMutability": "view",
      "type": "function"
    },
    {
      "constant": true,
      "inputs": [],
      "name": "getCurrentMilestone",
      "outputs": [
        {
          "name": "",
          "type": "uint32"
        },
        {
          "name": "",
          "type": "uint8"
        },
        {
          "name": "",
          "type": "uint32"
        },
        {
          "name": "",
          "type": "uint32"
        },
        {
          "name": "",
          "type": "bytes"
        },
        {
          "name": "",
          "type": "bytes"
        }
      ],
      "payable": false,
      "stateMutability": "view",
      "type": "function"
    },
    {
      "constant": false,
      "inputs": [
        {
          "name": "dates",
          "type": "uint32[2][]"
        },
        {
          "name": "stage_discounts",
          "type": "uint8[]"
        },
        {
          "name": "stage_vestings",
          "type": "uint32[]"
        }
      ],
      "name": "setStages",
      "outputs": [],
      "payable": false,
      "stateMutability": "nonpayable",
      "type": "function"
    },
    {
      "constant": true,
      "inputs": [],
      "name": "WTokenSaleFeePercent",
      "outputs": [
        {
          "name": "",
          "type": "uint256"
        }
      ],
      "payable": false,
      "stateMutability": "view",
      "type": "function"
    },
    {
      "constant": false,
      "inputs": [],
      "name": "claimRemainingTokens",
      "outputs": [],
      "payable": false,
      "stateMutability": "nonpayable",
      "type": "function"
    },
    {
      "constant": true,
      "inputs": [],
      "name": "milestonesLength",
      "outputs": [
        {
          "name": "",
          "type": "uint256"
        }
      ],
      "payable": false,
      "stateMutability": "view",
      "type": "function"
    },
    {
      "constant": true,
      "inputs": [],
      "name": "getWToken",
      "outputs": [
        {
          "name": "",
          "type": "address"
        }
      ],
      "payable": false,
      "stateMutability": "view",
      "type": "function"
    },
    {
      "constant": false,
      "inputs": [
        {
          "name": "stage",
          "type": "uint256"
        },
        {
          "name": "volumeBoundaries",
          "type": "uint256[]"
        },
        {
          "name": "volumeBonuses",
          "type": "uint8[]"
        }
      ],
      "name": "setStageVolumeBonuses",
      "outputs": [],
      "payable": false,
      "stateMutability": "nonpayable",
      "type": "function"
    },
    {
      "constant": true,
      "inputs": [],
      "name": "serviceWallet",
      "outputs": [
        {
          "name": "",
          "type": "address"
        }
      ],
      "payable": false,
      "stateMutability": "view",
      "type": "function"
    },
    {
      "constant": true,
      "inputs": [],
      "name": "isSaleActive",
      "outputs": [
        {
          "name": "",
          "type": "bool"
        }
      ],
      "payable": false,
      "stateMutability": "view",
      "type": "function"
    },
    {
      "constant": false,
      "inputs": [],
      "name": "renounceOwnership",
      "outputs": [],
      "payable": false,
      "stateMutability": "nonpayable",
      "type": "function"
    },
    {
      "constant": true,
      "inputs": [
        {
          "name": "",
          "type": "uint256"
        }
      ],
      "name": "milestoneDates",
      "outputs": [
        {
          "name": "",
          "type": "uint32"
        }
      ],
      "payable": false,
      "stateMutability": "view",
      "type": "function"
    },
    {
      "constant": true,
      "inputs": [],
      "name": "stagesLength",
      "outputs": [
        {
          "name": "",
          "type": "uint256"
        }
      ],
      "payable": false,
      "stateMutability": "view",
      "type": "function"
    },
    {
      "constant": true,
      "inputs": [],
      "name": "swap",
      "outputs": [
        {
          "name": "",
          "type": "address"
        }
      ],
      "payable": false,
      "stateMutability": "view",
      "type": "function"
    },
    {
      "constant": true,
      "inputs": [
        {
          "name": "",
          "type": "uint256"
        }
      ],
      "name": "stages",
      "outputs": [
        {
          "name": "startDate",
          "type": "uint32"
        },
        {
          "name": "endDate",
          "type": "uint32"
        },
        {
          "name": "discount",
          "type": "uint8"
        },
        {
          "name": "vesting",
          "type": "uint32"
        }
      ],
      "payable": false,
      "stateMutability": "view",
      "type": "function"
    },
    {
      "constant": true,
      "inputs": [],
      "name": "serviceFee",
      "outputs": [
        {
          "name": "",
          "type": "uint256"
        }
      ],
      "payable": false,
      "stateMutability": "view",
      "type": "function"
    },
    {
      "constant": true,
      "inputs": [],
      "name": "owner",
      "outputs": [
        {
          "name": "",
          "type": "address"
        }
      ],
      "payable": false,
      "stateMutability": "view",
      "type": "function"
    },
    {
      "constant": true,
      "inputs": [],
      "name": "getFund",
      "outputs": [
        {
          "name": "",
          "type": "address"
        }
      ],
      "payable": false,
      "stateMutability": "view",
      "type": "function"
    },
    {
      "constant": true,
      "inputs": [],
      "name": "price",
      "outputs": [
        {
          "name": "",
          "type": "uint256"
        }
      ],
      "payable": false,
      "stateMutability": "view",
      "type": "function"
    },
    {
      "constant": true,
      "inputs": [],
      "name": "isEnded",
      "outputs": [
        {
          "name": "",
          "type": "bool"
        }
      ],
      "payable": false,
      "stateMutability": "view",
      "type": "function"
    },
    {
      "constant": true,
      "inputs": [],
      "name": "getEndDate",
      "outputs": [
        {
          "name": "",
          "type": "uint32"
        }
      ],
      "payable": false,
      "stateMutability": "view",
      "type": "function"
    },
    {
      "constant": true,
      "inputs": [],
      "name": "fund",
      "outputs": [
        {
          "name": "",
          "type": "address"
        }
      ],
      "payable": false,
      "stateMutability": "view",
      "type": "function"
    },
    {
      "constant": false,
      "inputs": [],
      "name": "buyTokens",
      "outputs": [],
      "payable": true,
      "stateMutability": "payable",
      "type": "function"
    },
    {
      "constant": true,
      "inputs": [],
      "name": "getCurrentMilestoneIndex",
      "outputs": [
        {
          "name": "index",
          "type": "uint256"
        }
      ],
      "payable": false,
      "stateMutability": "view",
      "type": "function"
    },
    {
      "constant": true,
      "inputs": [],
      "name": "getCurrentStageIndex",
      "outputs": [
        {
          "name": "index",
          "type": "uint256"
        },
        {
          "name": "found",
          "type": "bool"
        }
      ],
      "payable": false,
      "stateMutability": "view",
      "type": "function"
    },
    {
      "constant": true,
      "inputs": [
        {
          "name": "",
          "type": "uint256"
        }
      ],
      "name": "milestones",
      "outputs": [
        {
          "name": "endDate",
          "type": "uint32"
        },
        {
          "name": "tranchePercent",
          "type": "uint8"
        },
        {
          "name": "voteEndDate",
          "type": "uint32"
        },
        {
          "name": "withdrawalWindow",
          "type": "uint32"
        },
        {
          "name": "name",
          "type": "bytes"
        },
        {
          "name": "description",
          "type": "bytes"
        }
      ],
      "payable": false,
      "stateMutability": "view",
      "type": "function"
    },
    {
      "constant": false,
      "inputs": [
        {
          "name": "_price",
          "type": "uint256"
        }
      ],
      "name": "setParameters",
      "outputs": [],
      "payable": false,
      "stateMutability": "nonpayable",
      "type": "function"
    },
    {
      "constant": true,
      "inputs": [
        {
          "name": "stageNumber",
          "type": "uint256"
        }
      ],
      "name": "getStageVolumeBoundaries",
      "outputs": [
        {
          "name": "",
          "type": "uint256[]"
        }
      ],
      "payable": false,
      "stateMutability": "view",
      "type": "function"
    },
    {
      "constant": false,
      "inputs": [
        {
          "name": "_newOwner",
          "type": "address"
        }
      ],
      "name": "transferOwnership",
      "outputs": [],
      "payable": false,
      "stateMutability": "nonpayable",
      "type": "function"
    },
    {
      "constant": true,
      "inputs": [],
      "name": "token",
      "outputs": [
        {
          "name": "",
          "type": "address"
        }
      ],
      "payable": false,
      "stateMutability": "view",
      "type": "function"
    },
    {
      "inputs": [
        {
          "name": "_originToken",
          "type": "address"
        },
        {
          "name": "_token",
          "type": "address"
        },
        {
          "name": "_tokenDecimals",
          "type": "uint256"
        },
        {
          "name": "_price",
          "type": "uint256"
        },
        {
          "name": "_serviceWallet",
          "type": "address"
        },
        {
          "name": "_swap",
          "type": "address"
        },
        {
          "name": "_serviceFee",
          "type": "uint256"
        },
        {
          "name": "_WTokenSaleFeePercent",
          "type": "uint256"
        },
        {
          "name": "_fund",
          "type": "address"
        }
      ],
      "payable": false,
      "stateMutability": "nonpayable",
      "type": "constructor"
    },
    {
      "payable": true,
      "stateMutability": "payable",
      "type": "fallback"
    },
    {
      "anonymous": false,
      "inputs": [
        {
          "indexed": true,
          "name": "buyer",
          "type": "address"
        },
        {
          "indexed": false,
          "name": "amountPaid",
          "type": "uint256"
        },
        {
          "indexed": false,
          "name": "tokensBought",
          "type": "uint256"
        },
        {
          "indexed": false,
          "name": "change",
          "type": "uint256"
        }
      ],
      "name": "TokenPurchase",
      "type": "event"
    },
    {
      "anonymous": false,
      "inputs": [],
      "name": "StagesUpdated",
      "type": "event"
    },
    {
      "anonymous": false,
      "inputs": [],
      "name": "MilestonesSet",
      "type": "event"
    },
    {
      "anonymous": false,
      "inputs": [
        {
          "indexed": true,
          "name": "owner",
          "type": "address"
        },
        {
          "indexed": false,
          "name": "amount",
          "type": "uint256"
        }
      ],
      "name": "UnsoldTokenReturned",
      "type": "event"
    },
    {
      "anonymous": false,
      "inputs": [
        {
          "indexed": false,
          "name": "value",
          "type": "uint256"
        }
      ],
      "name": "debug",
      "type": "event"
    },
    {
      "anonymous": false,
      "inputs": [
        {
          "indexed": true,
          "name": "previousOwner",
          "type": "address"
        }
      ],
      "name": "OwnershipRenounced",
      "type": "event"
    },
    {
      "anonymous": false,
      "inputs": [
        {
          "indexed": true,
          "name": "previousOwner",
          "type": "address"
        },
        {
          "indexed": true,
          "name": "newOwner",
          "type": "address"
        }
      ],
      "name": "OwnershipTransferred",
      "type": "event"
    },
    {
      "constant": false,
      "inputs": [
        {
          "name": "to",
          "type": "address"
        },
        {
          "name": "amount",
          "type": "uint256"
        }
      ],
      "name": "_outTokens",
      "outputs": [
        {
          "name": "",
          "type": "bool"
        }
      ],
      "payable": false,
      "stateMutability": "nonpayable",
      "type": "function"
    },
    {
      "constant": false,
      "inputs": [
        {
          "name": "_WTokenSaleFeePercent",
          "type": "uint256"
        }
      ],
      "name": "_setState",
      "outputs": [],
      "payable": false,
      "stateMutability": "nonpayable",
      "type": "function"
    }
  ],
  "bytecode": "0x6080604052600180553480156200001557600080fd5b506040516101208062004716833981018060405281019080805190602001909291908051906020019092919080519060200190929190805190602001909291908051906020019092919080519060200190929190805190602001909291908051906020019092919080519060200190929190505050888888888888888888336000806101000a81548173ffffffffffffffffffffffffffffffffffffffff021916908373ffffffffffffffffffffffffffffffffffffffff160217905550600073ffffffffffffffffffffffffffffffffffffffff168873ffffffffffffffffffffffffffffffffffffffff16141515156200011057600080fd5b6200012f83620003826401000000000262003e10176401000000009004565b80156200015a5750606462000158846200039e64010000000002620041f3176401000000009004565b105b15156200016657600080fd5b6200018582620003826401000000000262003e10176401000000009004565b8015620001b057506064620001ae836200039e64010000000002620041f3176401000000009004565b105b1515620001bc57600080fd5b600073ffffffffffffffffffffffffffffffffffffffff168173ffffffffffffffffffffffffffffffffffffffff1614151515620001f957600080fd5b600073ffffffffffffffffffffffffffffffffffffffff168473ffffffffffffffffffffffffffffffffffffffff16141515156200023657600080fd5b87600260006101000a81548173ffffffffffffffffffffffffffffffffffffffff021916908373ffffffffffffffffffffffffffffffffffffffff16021790555088600360006101000a81548173ffffffffffffffffffffffffffffffffffffffff021916908373ffffffffffffffffffffffffffffffffffffffff16021790555086600481905550620002da8686620003f1640100000000026401000000009004565b8260068190555083600960006101000a81548173ffffffffffffffffffffffffffffffffffffffff021916908373ffffffffffffffffffffffffffffffffffffffff1602179055508160078190555080600a60006101000a81548173ffffffffffffffffffffffffffffffffffffffff021916908373ffffffffffffffffffffffffffffffffffffffff160217905550505050505050505050505050505050505050620004b6565b60008082101580156200039757506127108211155b9050919050565b6000620003ba8262000382640100000000026401000000009004565b1515620003c657600080fd5b620003ea6064836200048a6401000000000262003de6179091906401000000009004565b9050919050565b6000821115156200040157600080fd5b600073ffffffffffffffffffffffffffffffffffffffff168173ffffffffffffffffffffffffffffffffffffffff16141515156200043e57600080fd5b8160058190555080600860006101000a81548173ffffffffffffffffffffffffffffffffffffffff021916908373ffffffffffffffffffffffffffffffffffffffff1602179055505050565b6000806000831115156200049d57600080fd5b8284811515620004a957fe5b0490508091505092915050565b61425080620004c66000396000f3006080604052600436106101c2576000357c0100000000000000000000000000000000000000000000000000000000900463ffffffff1680630d544ffe146101cc5780630ee62c771461024f57806313096a41146102d15780631aecc19f14610328578063208853c91461038d5780632442e1cb146103ce578063299a017c146105265780632c9a4bab146106685780632fbe5990146106d3578063313602d4146106fe5780633baba4d7146107155780634090cb6414610740578063521b7499146107975780635641f3c3146107f4578063564566a81461084b578063715018a61461087a57806372e6a88114610891578063792c02ea146108de5780638119c06514610909578063845ddcb2146109605780638abdf5aa146109e05780638da5cb5b14610a0b5780638edd6eb614610a62578063a035b1fe14610ab9578063a4fd6f5614610ae4578063b135648814610b13578063b60d428814610b4a578063ca7348a314610ba1578063d0febe4c14610bce578063d6d65f3d14610bd8578063daa4cf8814610c03578063e89e4ed614610c39578063e93b054014610d91578063f12585f514610dbe578063f2fde38b14610e40578063fc0c546a14610e83575b6101ca610eda565b005b3480156101d857600080fd5b5061024d600480360381019080803590602001908201803590602001919091929391929390803590602001908201803590602001919091929391929390803590602001908201803590602001919091929391929390803590602001908201803590602001919091929391929390505050611656565b005b34801561025b57600080fd5b5061027a60048036038101908080359060200190929190505050611eca565b6040518080602001828103825283818151815260200191508051906020019060200280838360005b838110156102bd5780820151818401526020810190506102a2565b505050509050019250505060405180910390f35b3480156102dd57600080fd5b506102e6611f68565b604051808273ffffffffffffffffffffffffffffffffffffffff1673ffffffffffffffffffffffffffffffffffffffff16815260200191505060405180910390f35b34801561033457600080fd5b50610373600480360381019080803573ffffffffffffffffffffffffffffffffffffffff16906020019092919080359060200190929190505050611f8e565b604051808215151515815260200191505060405180910390f35b34801561039957600080fd5b506103b860048036038101908080359060200190929190505050612098565b6040518082815260200191505060405180910390f35b3480156103da57600080fd5b506103f96004803603810190808035906020019092919050505061216a565b604051808763ffffffff1663ffffffff1681526020018660ff1660ff1681526020018563ffffffff1663ffffffff1681526020018463ffffffff1663ffffffff1681526020018060200180602001838103835285818151815260200191508051906020019080838360005b8381101561047f578082015181840152602081019050610464565b50505050905090810190601f1680156104ac5780820380516001836020036101000a031916815260200191505b50838103825284818151815260200191508051906020019080838360005b838110156104e55780820151818401526020810190506104ca565b50505050905090810190601f1680156105125780820380516001836020036101000a031916815260200191505b509850505050505050505060405180910390f35b34801561053257600080fd5b5061053b6123c1565b604051808763ffffffff1663ffffffff1681526020018660ff1660ff1681526020018563ffffffff1663ffffffff1681526020018463ffffffff1663ffffffff1681526020018060200180602001838103835285818151815260200191508051906020019080838360005b838110156105c15780820151818401526020810190506105a6565b50505050905090810190601f1680156105ee5780820380516001836020036101000a031916815260200191505b50838103825284818151815260200191508051906020019080838360005b8381101561062757808201518184015260208101905061060c565b50505050905090810190601f1680156106545780820380516001836020036101000a031916815260200191505b509850505050505050505060405180910390f35b34801561067457600080fd5b506106d16004803603810190808035906020019082018035906020019190919293919293908035906020019082018035906020019190919293919293908035906020019082018035906020019190919293919293905050506123f4565b005b3480156106df57600080fd5b506106e8612b7c565b6040518082815260200191505060405180910390f35b34801561070a57600080fd5b50610713612b82565b005b34801561072157600080fd5b5061072a612e8a565b6040518082815260200191505060405180910390f35b34801561074c57600080fd5b50610755612e97565b604051808273ffffffffffffffffffffffffffffffffffffffff1673ffffffffffffffffffffffffffffffffffffffff16815260200191505060405180910390f35b3480156107a357600080fd5b506107f260048036038101908080359060200190929190803590602001908201803590602001919091929391929390803590602001908201803590602001919091929391929390505050612ec1565b005b34801561080057600080fd5b50610809613148565b604051808273ffffffffffffffffffffffffffffffffffffffff1673ffffffffffffffffffffffffffffffffffffffff16815260200191505060405180910390f35b34801561085757600080fd5b5061086061316e565b604051808215151515815260200191505060405180910390f35b34801561088657600080fd5b5061088f613187565b005b34801561089d57600080fd5b506108bc60048036038101908080359060200190929190505050613289565b604051808263ffffffff1663ffffffff16815260200191505060405180910390f35b3480156108ea57600080fd5b506108f36132c2565b6040518082815260200191505060405180910390f35b34801561091557600080fd5b5061091e6132cf565b604051808273ffffffffffffffffffffffffffffffffffffffff1673ffffffffffffffffffffffffffffffffffffffff16815260200191505060405180910390f35b34801561096c57600080fd5b5061098b600480360381019080803590602001909291905050506132f5565b604051808563ffffffff1663ffffffff1681526020018463ffffffff1663ffffffff1681526020018360ff1660ff1681526020018263ffffffff1663ffffffff16815260200194505050505060405180910390f35b3480156109ec57600080fd5b506109f5613371565b6040518082815260200191505060405180910390f35b348015610a1757600080fd5b50610a20613377565b604051808273ffffffffffffffffffffffffffffffffffffffff1673ffffffffffffffffffffffffffffffffffffffff16815260200191505060405180910390f35b348015610a6e57600080fd5b50610a7761339c565b604051808273ffffffffffffffffffffffffffffffffffffffff1673ffffffffffffffffffffffffffffffffffffffff16815260200191505060405180910390f35b348015610ac557600080fd5b50610ace6133c6565b6040518082815260200191505060405180910390f35b348015610af057600080fd5b50610af96133cc565b604051808215151515815260200191505060405180910390f35b348015610b1f57600080fd5b50610b28613423565b604051808263ffffffff1663ffffffff16815260200191505060405180910390f35b348015610b5657600080fd5b50610b5f613476565b604051808273ffffffffffffffffffffffffffffffffffffffff1673ffffffffffffffffffffffffffffffffffffffff16815260200191505060405180910390f35b348015610bad57600080fd5b50610bcc6004803603810190808035906020019092919050505061349c565b005b610bd6610eda565b005b348015610be457600080fd5b50610bed6134a6565b6040518082815260200191505060405180910390f35b348015610c0f57600080fd5b50610c18613524565b60405180838152602001821515151581526020019250505060405180910390f35b348015610c4557600080fd5b50610c64600480360381019080803590602001909291905050506135cd565b604051808763ffffffff1663ffffffff1681526020018660ff1660ff1681526020018563ffffffff1663ffffffff1681526020018463ffffffff1663ffffffff1681526020018060200180602001838103835285818151815260200191508051906020019080838360005b83811015610cea578082015181840152602081019050610ccf565b50505050905090810190601f168015610d175780820380516001836020036101000a031916815260200191505b50838103825284818151815260200191508051906020019080838360005b83811015610d50578082015181840152602081019050610d35565b50505050905090810190601f168015610d7d5780820380516001836020036101000a031916815260200191505b509850505050505050505060405180910390f35b348015610d9d57600080fd5b50610dbc60048036038101908080359060200190929190505050613785565b005b348015610dca57600080fd5b50610de960048036038101908080359060200190929190505050613863565b6040518080602001828103825283818151815260200191508051906020019060200280838360005b83811015610e2c578082015181840152602081019050610e11565b505050509050019250505060405180910390f35b348015610e4c57600080fd5b50610e81600480360381019080803573ffffffffffffffffffffffffffffffffffffffff1690602001909291905050506138db565b005b348015610e8f57600080fd5b50610e98613942565b604051808273ffffffffffffffffffffffffffffffffffffffff1673ffffffffffffffffffffffffffffffffffffffff16815260200191505060405180910390f35b6000806000806000806000806000600180600082825401925050819055506001549050610f0561316e565b1515610f79576040517f08c379a00000000000000000000000000000000000000000000000000000000081526004018080602001828103825260178152602001807f53616c65206973206e6f7420737461727465642079657400000000000000000081525060200191505060405180910390fd5b600034111515610f8857600080fd5b610f90613524565b509850600b89815481101515610fa257fe5b906000526020600020906003020160000160089054906101000a900460ff1660ff169750600b89815481101515610fd557fe5b906000526020600020906003020160000160099054906101000a900463ffffffff16965061100234612098565b955061100f348988613968565b50945094509450600060075411156112e95761103660075486613b4590919063ffffffff16565b9150600360009054906101000a900473ffffffffffffffffffffffffffffffffffffffff1673ffffffffffffffffffffffffffffffffffffffff166323b872dd600960009054906101000a900473ffffffffffffffffffffffffffffffffffffffff16600860009054906101000a900473ffffffffffffffffffffffffffffffffffffffff16856040518463ffffffff167c0100000000000000000000000000000000000000000000000000000000028152600401808473ffffffffffffffffffffffffffffffffffffffff1673ffffffffffffffffffffffffffffffffffffffff1681526020018373ffffffffffffffffffffffffffffffffffffffff1673ffffffffffffffffffffffffffffffffffffffff1681526020018281526020019350505050602060405180830381600087803b15801561117557600080fd5b505af1158015611189573d6000803e3d6000fd5b505050506040513d602081101561119f57600080fd5b810190808051906020019092919050505015156111bb57600080fd5b600260009054906101000a900473ffffffffffffffffffffffffffffffffffffffff1673ffffffffffffffffffffffffffffffffffffffff1663a9059cbb600960009054906101000a900473ffffffffffffffffffffffffffffffffffffffff16846040518363ffffffff167c0100000000000000000000000000000000000000000000000000000000028152600401808373ffffffffffffffffffffffffffffffffffffffff1673ffffffffffffffffffffffffffffffffffffffff16815260200182815260200192505050602060405180830381600087803b1580156112a257600080fd5b505af11580156112b6573d6000803e3d6000fd5b505050506040513d60208110156112cc57600080fd5b810190808051906020019092919050505015156112e857600080fd5b5b600260009054906101000a900473ffffffffffffffffffffffffffffffffffffffff1673ffffffffffffffffffffffffffffffffffffffff16639d2e477733878a6040518463ffffffff167c0100000000000000000000000000000000000000000000000000000000028152600401808473ffffffffffffffffffffffffffffffffffffffff1673ffffffffffffffffffffffffffffffffffffffff1681526020018381526020018263ffffffff1663ffffffff1681526020019350505050602060405180830381600087803b1580156113c257600080fd5b505af11580156113d6573d6000803e3d6000fd5b505050506040513d60208110156113ec57600080fd5b8101908080519060200190929190505050151561140857600080fd5b6000831115611459573373ffffffffffffffffffffffffffffffffffffffff166108fc849081150290604051600060405180830381858888f19350505050158015611457573d6000803e3d6000fd5b505b600060065411156114e257600860009054906101000a900473ffffffffffffffffffffffffffffffffffffffff1673ffffffffffffffffffffffffffffffffffffffff166108fc6114b560065487613b4590919063ffffffff16565b9081150290604051600060405180830381858888f193505050501580156114e0573d6000803e3d6000fd5b505b600a60009054906101000a900473ffffffffffffffffffffffffffffffffffffffff1673ffffffffffffffffffffffffffffffffffffffff1663958799cb3073ffffffffffffffffffffffffffffffffffffffff1631620186a09033896040518563ffffffff167c0100000000000000000000000000000000000000000000000000000000028152600401808373ffffffffffffffffffffffffffffffffffffffff1673ffffffffffffffffffffffffffffffffffffffff168152602001828152602001925050506000604051808303818589803b1580156115c357600080fd5b5088f11580156115d7573d6000803e3d6000fd5b5050505050503373ffffffffffffffffffffffffffffffffffffffff167f347f5f0051b895093800553e6e78ef332849e2552639a4f5ffe66535788ae07885878660405180848152602001838152602001828152602001935050505060405180910390a26001548114151561164b57600080fd5b505050505050505050565b60008060006060806000809054906101000a900473ffffffffffffffffffffffffffffffffffffffff1673ffffffffffffffffffffffffffffffffffffffff163373ffffffffffffffffffffffffffffffffffffffff161415156116b957600080fd5b6000600b80549050111561170d5742600b60008154811015156116d857fe5b906000526020600020906003020160000160009054906101000a900463ffffffff1663ffffffff1611151561170c57600080fd5b5b7fffffffffffffffffffffffffffffffffffffffffffffffffffffffffffffffff60ff168d8d90501115151561174257600080fd5b60038d8d90501015151561175557600080fd5b600060038e8e905081151561176657fe5b0614151561177357600080fd5b8888905061178e60028d8d9050613b8a90919063ffffffff16565b14151561179a57600080fd5b8c8c90506117b560038d8d9050613b8a90919063ffffffff16565b1415156117c157600080fd5b60028b8b90500287879050101515156117d957600080fd5b6000600b8054905011156118e4578c8c600081811015156117f657fe5b9050602002013563ffffffff1663ffffffff16600b6001600b805490500381548110151561182057fe5b906000526020600020906003020160000160049054906101000a900463ffffffff1663ffffffff161015156118e3576040517f08c379a00000000000000000000000000000000000000000000000000000000081526004018080602001828103825260358152602001807f4669727374206d696c6573746f6e6520656e6444617465206d7573742062652081526020017f6774206c61737420737461676520656e6444617465000000000000000000000081525060400191505060405180910390fd5b5b6000945060009350600092505b8c8c905060ff168360ff161015611e9757428d8d8560ff16818110151561191457fe5b9050602002013563ffffffff1663ffffffff1611151561193357600080fd5b8c8c8460ff16818110151561194457fe5b9050602002013563ffffffff1663ffffffff168d8d6001860160ff16818110151561196b57fe5b9050602002013563ffffffff1663ffffffff1611151561198a57600080fd5b8c8c6001850160ff16818110151561199e57fe5b9050602002013563ffffffff1663ffffffff168d8d6002860160ff1681811015156119c557fe5b9050602002013563ffffffff1663ffffffff161115156119e457600080fd5b60008360ff161115611ad7578c8c8460ff168181101515611a0157fe5b9050602002013563ffffffff1663ffffffff168d8d6001860360ff168181101515611a2857fe5b9050602002013563ffffffff1663ffffffff16101515611ad6576040517f08c379a00000000000000000000000000000000000000000000000000000000081526004018080602001828103825260298152602001807f4d696c6573746f6e65206461746573206973206e6f7420696e20617363656e6481526020017f696e67206f72646572000000000000000000000000000000000000000000000081525060400191505060405180910390fd5b5b611b53858a8a600260038860ff16811515611aee57fe5b040260ff168181101515611afe57fe5b9050602002013563ffffffff1663ffffffff1689898080601f016020809104026020016040519081016040528093929190818152602001838380828437820191505050505050613bc89092919063ffffffff16565b9150611c0b8989600260038760ff16811515611b6b57fe5b040260ff168181101515611b7b57fe5b9050602002013563ffffffff1663ffffffff1686018a8a6001600260038960ff16811515611ba557fe5b04020160ff168181101515611bb657fe5b9050602002013563ffffffff1663ffffffff1689898080601f016020809104026020016040519081016040528093929190818152602001838380828437820191505050505050613bc89092919063ffffffff16565b905060008251111515611c1d57600080fd5b60008151111515611c2d57600080fd5b600c60c0604051908101604052808f8f8760ff168181101515611c4c57fe5b9050602002013563ffffffff1663ffffffff1681526020018d8d60038860ff16811515611c7557fe5b0460ff168181101515611c8457fe5b9050602002013560ff1660ff1681526020018f8f6001880160ff168181101515611caa57fe5b9050602002013563ffffffff1663ffffffff1681526020018f8f6002880160ff168181101515611cd657fe5b9050602002013563ffffffff1663ffffffff168152602001848152602001838152509080600181540180825580915050906001820390600052602060002090600302016000909192909190915060008201518160000160006101000a81548163ffffffff021916908363ffffffff16021790555060208201518160000160046101000a81548160ff021916908360ff16021790555060408201518160000160056101000a81548163ffffffff021916908363ffffffff16021790555060608201518160000160096101000a81548163ffffffff021916908363ffffffff1602179055506080820151816001019080519060200190611dd5929190613e2b565b5060a0820151816002019080519060200190611df2929190613e2b565b505050508888600160038660ff16811515611e0957fe5b040160ff168181101515611e1957fe5b9050602002013563ffffffff16898960038660ff16811515611e3757fe5b0460ff168181101515611e4657fe5b9050602002013563ffffffff160163ffffffff16850194508a8a60038560ff16811515611e6f57fe5b0460ff168181101515611e7e57fe5b9050602002013560ff16840193506003830192506118f1565b8c8c600d9190611ea8929190613eab565b5060648460ff16141515611ebb57600080fd5b50505050505050505050505050565b6060600b82815481101515611edb57fe5b9060005260206000209060030201600201805480602002602001604051908101604052809291908181526020018280548015611f5c57602002820191906000526020600020906000905b82829054906101000a900460ff1660ff1681526020019060010190602082600001049283019260010382029150808411611f255790505b50505050509050919050565b600360009054906101000a900473ffffffffffffffffffffffffffffffffffffffff1681565b6000600260009054906101000a900473ffffffffffffffffffffffffffffffffffffffff1673ffffffffffffffffffffffffffffffffffffffff1663a9059cbb84846040518363ffffffff167c0100000000000000000000000000000000000000000000000000000000028152600401808373ffffffffffffffffffffffffffffffffffffffff1673ffffffffffffffffffffffffffffffffffffffff16815260200182815260200192505050602060405180830381600087803b15801561205557600080fd5b505af1158015612069573d6000803e3d6000fd5b505050506040513d602081101561207f57600080fd5b8101908080519060200190929190505050905092915050565b60008060008060006120a8613524565b935093508215156120bc5760009450612161565b600b818154811015156120cb57fe5b90600052602060002090600302019150600090505b816001018054905081101561216057816001018181548110151561210057fe5b90600052602060002001548610151561214e57816002018181548110151561212457fe5b90600052602060002090602091828204019190069054906101000a900460ff1660ff169450612153565b612160565b80806001019150506120e0565b5b50505050919050565b600080600080606080600c8781548110151561218257fe5b906000526020600020906003020160000160009054906101000a900463ffffffff16600c888154811015156121b357fe5b906000526020600020906003020160000160049054906101000a900460ff16600c898154811015156121e157fe5b906000526020600020906003020160000160059054906101000a900463ffffffff16600c8a81548110151561221257fe5b906000526020600020906003020160000160099054906101000a900463ffffffff16600c8b81548110151561224357fe5b9060005260206000209060030201600101600c8c81548110151561226357fe5b9060005260206000209060030201600201818054600181600116156101000203166002900480601f0160208091040260200160405190810160405280929190818152602001828054600181600116156101000203166002900480156123095780601f106122de57610100808354040283529160200191612309565b820191906000526020600020905b8154815290600101906020018083116122ec57829003601f168201915b50505050509150808054600181600116156101000203166002900480601f0160208091040260200160405190810160405280929190818152602001828054600181600116156101000203166002900480156123a55780601f1061237a576101008083540402835291602001916123a5565b820191906000526020600020905b81548152906001019060200180831161238857829003601f168201915b5050505050905095509550955095509550955091939550919395565b60008060008060608060006123d46134a6565b90506123df8161216a565b96509650965096509650965050909192939495565b6000806000809054906101000a900473ffffffffffffffffffffffffffffffffffffffff1673ffffffffffffffffffffffffffffffffffffffff163373ffffffffffffffffffffffffffffffffffffffff1614151561245257600080fd5b6000600b8054905011156124a65742600b600081548110151561247157fe5b906000526020600020906003020160000160009054906101000a900463ffffffff1663ffffffff161115156124a557600080fd5b5b7fffffffffffffffffffffffffffffffffffffffffffffffffffffffffffffffff60ff1688889050111515156124db57600080fd5b6000888890501115156124ed57600080fd5b858590508888905014151561250157600080fd5b838390508888905014151561251557600080fd5b6000600c80549050111561263057878760018a8a905003818110151561253757fe5b905060400201600160028110151561254b57fe5b602002013563ffffffff1663ffffffff16600c600081548110151561256c57fe5b906000526020600020906003020160000160009054906101000a900463ffffffff1663ffffffff1611151561262f576040517f08c379a00000000000000000000000000000000000000000000000000000000081526004018080602001828103825260358152602001807f4c61737420737461676520656e6444617465206d757374206265206c7420666981526020017f727374206d696c6573746f6e6520656e6444617465000000000000000000000081525060400191505060405180910390fd5b5b8787905091508160ff16600b816126479190613f61565b50600090505b8160ff168160ff161015612b4657600086868360ff16818110151561266e57fe5b9050602002013560ff1660ff16101580156126a65750606486868360ff16818110151561269757fe5b9050602002013560ff1660ff16105b1515612740576040517f08c379a000000000000000000000000000000000000000000000000000000000815260040180806020018281038252602f8152602001807f537461676520646973636f756e74206973206e6f7420696e20616c6c6f77656481526020017f2072616e6765205b302c2031303029000000000000000000000000000000000081525060400191505060405180910390fd5b4288888360ff16818110151561275257fe5b905060400201600060028110151561276657fe5b602002013563ffffffff1663ffffffff1611151561278357600080fd5b87878260ff16818110151561279457fe5b90506040020160016002811015156127a857fe5b602002013563ffffffff1663ffffffff1688888360ff1681811015156127ca57fe5b90506040020160006002811015156127de57fe5b602002013563ffffffff1663ffffffff1610151561288a576040517f08c379a00000000000000000000000000000000000000000000000000000000081526004018080602001828103825260248152602001807f53746167652073746172742064617465206d75737420626520677420656e642081526020017f646174650000000000000000000000000000000000000000000000000000000081525060400191505060405180910390fd5b60008160ff1611156129a25787878260ff1681811015156128a757fe5b90506040020160006002811015156128bb57fe5b602002013563ffffffff1663ffffffff1688886001840360ff1681811015156128e057fe5b90506040020160016002811015156128f457fe5b602002013563ffffffff1663ffffffff16111515156129a1576040517f08c379a00000000000000000000000000000000000000000000000000000000081526004018080602001828103825260228152602001807f53746167657320617265206e6f7420696e20686973746f726963616c206f726481526020017f657200000000000000000000000000000000000000000000000000000000000081525060400191505060405180910390fd5b5b87878260ff1681811015156129b357fe5b90506040020160006002811015156129c757fe5b602002013563ffffffff16600b8260ff168154811015156129e457fe5b906000526020600020906003020160000160006101000a81548163ffffffff021916908363ffffffff16021790555087878260ff168181101515612a2457fe5b9050604002016001600281101515612a3857fe5b602002013563ffffffff16600b8260ff16815481101515612a5557fe5b906000526020600020906003020160000160046101000a81548163ffffffff021916908363ffffffff16021790555085858260ff168181101515612a9557fe5b9050602002013560ff16600b8260ff16815481101515612ab157fe5b906000526020600020906003020160000160086101000a81548160ff021916908360ff16021790555083838260ff168181101515612aeb57fe5b9050602002013563ffffffff16600b8260ff16815481101515612b0a57fe5b906000526020600020906003020160000160096101000a81548163ffffffff021916908363ffffffff160217905550808060010191505061264d565b7f743961f4e677d1146fbf85d75565b1c5474fd083eb166f8b9595cf5d01a4d6e660405160405180910390a15050505050505050565b60075481565b60008060009054906101000a900473ffffffffffffffffffffffffffffffffffffffff1673ffffffffffffffffffffffffffffffffffffffff163373ffffffffffffffffffffffffffffffffffffffff16141515612bdf57600080fd5b612be76133cc565b1515612bf257600080fd5b600260009054906101000a900473ffffffffffffffffffffffffffffffffffffffff1673ffffffffffffffffffffffffffffffffffffffff166370a08231306040518263ffffffff167c0100000000000000000000000000000000000000000000000000000000028152600401808273ffffffffffffffffffffffffffffffffffffffff1673ffffffffffffffffffffffffffffffffffffffff168152602001915050602060405180830381600087803b158015612caf57600080fd5b505af1158015612cc3573d6000803e3d6000fd5b505050506040513d6020811015612cd957600080fd5b81019080805190602001909291905050509050600260009054906101000a900473ffffffffffffffffffffffffffffffffffffffff1673ffffffffffffffffffffffffffffffffffffffff1663a9059cbb6000809054906101000a900473ffffffffffffffffffffffffffffffffffffffff16836040518363ffffffff167c0100000000000000000000000000000000000000000000000000000000028152600401808373ffffffffffffffffffffffffffffffffffffffff1673ffffffffffffffffffffffffffffffffffffffff16815260200182815260200192505050602060405180830381600087803b158015612dd257600080fd5b505af1158015612de6573d6000803e3d6000fd5b505050506040513d6020811015612dfc57600080fd5b81019080805190602001909291905050501515612e1857600080fd5b6000809054906101000a900473ffffffffffffffffffffffffffffffffffffffff1673ffffffffffffffffffffffffffffffffffffffff167f26ffb867a6b19bc0240d4e732ed6cfb0f0b6d93143a99cfb24ba5873308861f8826040518082815260200191505060405180910390a250565b6000600c80549050905090565b6000600260009054906101000a900473ffffffffffffffffffffffffffffffffffffffff16905090565b60008060009054906101000a900473ffffffffffffffffffffffffffffffffffffffff1673ffffffffffffffffffffffffffffffffffffffff163373ffffffffffffffffffffffffffffffffffffffff16141515612f1e57600080fd5b6000600b805490501115612f725742600b6000815481101515612f3d57fe5b906000526020600020906003020160000160009054906101000a900463ffffffff1663ffffffff16111515612f7157600080fd5b5b8282905085859050141515612f8657600080fd5b600b8054905086101515612f9957600080fd5b600090505b8484905081101561308857600081111561307b578484828181101515612fc057fe5b905060200201358585600184038181101515612fd857fe5b9050602002013510151561307a576040517f08c379a000000000000000000000000000000000000000000000000000000000815260040180806020018281038252602c8152602001807f566f6c756d6520626f756e646172696573206d75737420626520696e2061736381526020017f656e64696e67206f72646572000000000000000000000000000000000000000081525060400191505060405180910390fd5b5b8080600101915050612f9e565b600b8681548110151561309757fe5b906000526020600020906003020160010160006130b49190613f93565b600b868154811015156130c357fe5b906000526020600020906003020160020160006130e09190613fb4565b8484600b888154811015156130f157fe5b9060005260206000209060030201600101919061310f929190613fdc565b508282600b8881548110151561312157fe5b9060005260206000209060030201600201919061313f929190614029565b50505050505050565b600860009054906101000a900473ffffffffffffffffffffffffffffffffffffffff1681565b600080600061317b613524565b91509150809250505090565b6000809054906101000a900473ffffffffffffffffffffffffffffffffffffffff1673ffffffffffffffffffffffffffffffffffffffff163373ffffffffffffffffffffffffffffffffffffffff161415156131e257600080fd5b6000809054906101000a900473ffffffffffffffffffffffffffffffffffffffff1673ffffffffffffffffffffffffffffffffffffffff167ff8df31144d9c2f0f6b59d69b8b98abd5459d07f2742c4df920b25aae33c6482060405160405180910390a260008060006101000a81548173ffffffffffffffffffffffffffffffffffffffff021916908373ffffffffffffffffffffffffffffffffffffffff160217905550565b600d8181548110151561329857fe5b9060005260206000209060089182820401919006600402915054906101000a900463ffffffff1681565b6000600b80549050905090565b600960009054906101000a900473ffffffffffffffffffffffffffffffffffffffff1681565b600b8181548110151561330457fe5b90600052602060002090600302016000915090508060000160009054906101000a900463ffffffff16908060000160049054906101000a900463ffffffff16908060000160089054906101000a900460ff16908060000160099054906101000a900463ffffffff16905084565b60065481565b6000809054906101000a900473ffffffffffffffffffffffffffffffffffffffff1681565b6000600a60009054906101000a900473ffffffffffffffffffffffffffffffffffffffff16905090565b60055481565b600080600b80549050148061341e575042600b6001600b80549050038154811015156133f457fe5b906000526020600020906003020160000160049054906101000a900463ffffffff1663ffffffff16105b905090565b600080600b8054905011151561343857600080fd5b600b6001600b805490500381548110151561344f57fe5b906000526020600020906003020160000160049054906101000a900463ffffffff16905090565b600a60009054906101000a900473ffffffffffffffffffffffffffffffffffffffff1681565b8060078190555050565b600080600c80549050905060008114156134bf57600080fd5b5b600181038210801561350e5750600d600383028154811015156134df57fe5b90600052602060002090600891828204019190066004029054906101000a900463ffffffff1663ffffffff1642115b156135205781806001019250506134c0565b5090565b600080600080600091505b600b805490508210156135bc57600b8281548110151561354b57fe5b90600052602060002090600302019050428160000160009054906101000a900463ffffffff1663ffffffff161115801561359e5750428160000160049054906101000a900463ffffffff1663ffffffff16115b156135af57816001935093506135c7565b818060010192505061352f565b600080819150935093505b50509091565b600c818154811015156135dc57fe5b90600052602060002090600302016000915090508060000160009054906101000a900463ffffffff16908060000160049054906101000a900460ff16908060000160059054906101000a900463ffffffff16908060000160099054906101000a900463ffffffff1690806001018054600181600116156101000203166002900480601f0160208091040260200160405190810160405280929190818152602001828054600181600116156101000203166002900480156136dd5780601f106136b2576101008083540402835291602001916136dd565b820191906000526020600020905b8154815290600101906020018083116136c057829003601f168201915b505050505090806002018054600181600116156101000203166002900480601f01602080910402602001604051908101604052809291908181526020018280546001816001161561010002031660029004801561377b5780601f106137505761010080835404028352916020019161377b565b820191906000526020600020905b81548152906001019060200180831161375e57829003601f168201915b5050505050905086565b6000809054906101000a900473ffffffffffffffffffffffffffffffffffffffff1673ffffffffffffffffffffffffffffffffffffffff163373ffffffffffffffffffffffffffffffffffffffff161415156137e057600080fd5b6000600b8054905011156138345742600b60008154811015156137ff57fe5b906000526020600020906003020160000160009054906101000a900463ffffffff1663ffffffff1611151561383357600080fd5b5b61386081600860009054906101000a900473ffffffffffffffffffffffffffffffffffffffff16613c55565b50565b6060600b8281548110151561387457fe5b90600052602060002090600302016001018054806020026020016040519081016040528092919081815260200182805480156138cf57602002820191906000526020600020905b8154815260200190600101908083116138bb575b50505050509050919050565b6000809054906101000a900473ffffffffffffffffffffffffffffffffffffffff1673ffffffffffffffffffffffffffffffffffffffff163373ffffffffffffffffffffffffffffffffffffffff1614151561393657600080fd5b61393f81613cec565b50565b600260009054906101000a900473ffffffffffffffffffffffffffffffffffffffff1681565b6000806000806000879350600260009054906101000a900473ffffffffffffffffffffffffffffffffffffffff1673ffffffffffffffffffffffffffffffffffffffff166370a08231306040518263ffffffff167c0100000000000000000000000000000000000000000000000000000000028152600401808273ffffffffffffffffffffffffffffffffffffffff1673ffffffffffffffffffffffffffffffffffffffff168152602001915050602060405180830381600087803b158015613a3057600080fd5b505af1158015613a44573d6000803e3d6000fd5b505050506040513d6020811015613a5a57600080fd5b81019080805190602001909291905050509050600454600a0a8110151515613a8157600080fd5b60008711613a9157600554613abd565b613abc6064613aae89606403600554613b8a90919063ffffffff16565b613de690919063ffffffff16565b5b9150613b01600260045403600a0a613af384613ae58a6064018d613b8a90919063ffffffff16565b613de690919063ffffffff16565b613b8a90919063ffffffff16565b945084811015613b3b57613b3085613b22838b613b8a90919063ffffffff16565b613de690919063ffffffff16565b935083880392508094505b5093509350935093565b6000613b5082613e10565b1515613b5b57600080fd5b613b82612710613b748486613b8a90919063ffffffff16565b613de690919063ffffffff16565b905092915050565b6000806000841415613b9f5760009150613bc1565b8284029050828482811515613bb057fe5b04141515613bbd57600080fd5b8091505b5092915050565b606080828401855110151515613bdd57600080fd5b821560008114613bf857604051915060208201604052613c49565b6040519150601f8416801560200281840101858101878315602002848b0101015b81831015613c365780518352602083019250602081019050613c19565b50868552601f19601f8301166040525050505b50809150509392505050565b600082111515613c6457600080fd5b600073ffffffffffffffffffffffffffffffffffffffff168173ffffffffffffffffffffffffffffffffffffffff1614151515613ca057600080fd5b8160058190555080600860006101000a81548173ffffffffffffffffffffffffffffffffffffffff021916908373ffffffffffffffffffffffffffffffffffffffff1602179055505050565b600073ffffffffffffffffffffffffffffffffffffffff168173ffffffffffffffffffffffffffffffffffffffff1614151515613d2857600080fd5b8073ffffffffffffffffffffffffffffffffffffffff166000809054906101000a900473ffffffffffffffffffffffffffffffffffffffff1673ffffffffffffffffffffffffffffffffffffffff167f8be0079c531659141344cd1fd0a4f28419497f9722a3daafe3b4186f6b6457e060405160405180910390a3806000806101000a81548173ffffffffffffffffffffffffffffffffffffffff021916908373ffffffffffffffffffffffffffffffffffffffff16021790555050565b600080600083111515613df857600080fd5b8284811515613e0357fe5b0490508091505092915050565b6000808210158015613e2457506127108211155b9050919050565b828054600181600116156101000203166002900490600052602060002090601f016020900481019282601f10613e6c57805160ff1916838001178555613e9a565b82800160010185558215613e9a579182015b82811115613e99578251825591602001919060010190613e7e565b5b509050613ea791906140d3565b5090565b82805482825590600052602060002090600701600890048101928215613f505791602002820160005b83821115613f1e57833563ffffffff1683826101000a81548163ffffffff021916908363ffffffff1602179055509260200192600401602081600301049283019260010302613ed4565b8015613f4e5782816101000a81549063ffffffff0219169055600401602081600301049283019260010302613f1e565b505b509050613f5d91906140f8565b5090565b815481835581811115613f8e57600302816003028360005260206000209182019101613f8d919061412b565b5b505050565b5080546000825590600052602060002090810190613fb191906140d3565b50565b50805460008255601f016020900490600052602060002090810190613fd991906140d3565b50565b828054828255906000526020600020908101928215614018579160200282015b82811115614017578235825591602001919060010190613ffc565b5b50905061402591906140d3565b5090565b82805482825590600052602060002090601f016020900481019282156140c25791602002820160005b8382111561409357833560ff1683826101000a81548160ff021916908360ff1602179055509260200192600101602081600001049283019260010302614052565b80156140c05782816101000a81549060ff0219169055600101602081600001049283019260010302614093565b505b5090506140cf91906141c3565b5090565b6140f591905b808211156140f15760008160009055506001016140d9565b5090565b90565b61412891905b8082111561412457600081816101000a81549063ffffffff0219169055506001016140fe565b5090565b90565b6141c091905b808211156141bc57600080820160006101000a81549063ffffffff02191690556000820160046101000a81549063ffffffff02191690556000820160086101000a81549060ff02191690556000820160096101000a81549063ffffffff02191690556001820160006141a39190613f93565b6002820160006141b39190613fb4565b50600301614131565b5090565b90565b6141f091905b808211156141ec57600081816101000a81549060ff0219169055506001016141c9565b5090565b90565b60006141fe82613e10565b151561420957600080fd5b61421d606483613de690919063ffffffff16565b90509190505600a165627a7a7230582038b960fa5b53b53af15ef378426f78cc64806ff86ff6efd836b237150b83589a0029",
  "source": "pragma solidity ^0.4.24;\n\nimport \"./W12Crowdsale.sol\";\n\n\ncontract W12CrowdsaleStub is W12Crowdsale {\n    constructor (\n        address _originToken,\n        address _token,\n        uint _tokenDecimals,\n        uint _price,\n        address _serviceWallet,\n        address _swap,\n        uint _serviceFee,\n        uint _WTokenSaleFeePercent,\n        IW12Fund _fund\n    )\n        W12Crowdsale(\n            _originToken,\n             _token,\n             _tokenDecimals,\n             _price,\n             _serviceWallet,\n             _swap,\n             _serviceFee,\n            _WTokenSaleFeePercent,\n             _fund\n        ) public\n    {}\n\n    function _outTokens(address to, uint amount) external returns (bool) {\n        return token.transfer(to, amount);\n    }\n\n    function _setState(uint _WTokenSaleFeePercent) external {\n        WTokenSaleFeePercent = _WTokenSaleFeePercent;\n    }\n}\n",
  "sourcePath": "/c/Users/Mr.Hokid/projects/work/w12-product-contracts/contracts/W12CrowdsaleStub.sol",
  "compiler": {
    "name": "solc",
    "version": "0.4.24+commit.e67f0147.Emscripten.clang"
  },
  "schemaVersion": "2.0.1",
  "updatedAt": "2018-08-30T10:18:09.627Z"
}