{
  "contractName": "W12Crowdsale",
  "abi": [
    {
      "constant": true,
      "inputs": [],
      "name": "startDate",
      "outputs": [
        {
          "name": "",
          "type": "uint32"
        }
      ],
      "payable": false,
      "stateMutability": "view",
      "type": "function"
    },
    {
      "constant": true,
      "inputs": [],
      "name": "serviceWallet",
      "outputs": [
        {
          "name": "",
          "type": "address"
        }
      ],
      "payable": false,
      "stateMutability": "view",
      "type": "function"
    },
    {
      "constant": false,
      "inputs": [],
      "name": "renounceOwnership",
      "outputs": [],
      "payable": false,
      "stateMutability": "nonpayable",
      "type": "function"
    },
    {
      "constant": true,
      "inputs": [
        {
          "name": "",
          "type": "uint256"
        }
      ],
      "name": "milestoneDates",
      "outputs": [
        {
          "name": "",
          "type": "uint32"
        }
      ],
      "payable": false,
      "stateMutability": "view",
      "type": "function"
    },
    {
      "constant": true,
      "inputs": [
        {
          "name": "",
          "type": "uint256"
        }
      ],
      "name": "stages",
      "outputs": [
        {
          "name": "endDate",
          "type": "uint32"
        },
        {
          "name": "discount",
          "type": "uint8"
        },
        {
          "name": "vesting",
          "type": "uint32"
        }
      ],
      "payable": false,
      "stateMutability": "view",
      "type": "function"
    },
    {
      "constant": true,
      "inputs": [],
      "name": "serviceFee",
      "outputs": [
        {
          "name": "",
          "type": "uint8"
        }
      ],
      "payable": false,
      "stateMutability": "view",
      "type": "function"
    },
    {
      "constant": true,
      "inputs": [],
      "name": "owner",
      "outputs": [
        {
          "name": "",
          "type": "address"
        }
      ],
      "payable": false,
      "stateMutability": "view",
      "type": "function"
    },
    {
      "constant": true,
      "inputs": [],
      "name": "price",
      "outputs": [
        {
          "name": "",
          "type": "uint256"
        }
      ],
      "payable": false,
      "stateMutability": "view",
      "type": "function"
    },
    {
      "constant": true,
      "inputs": [],
      "name": "fund",
      "outputs": [
        {
          "name": "",
          "type": "address"
        }
      ],
      "payable": false,
      "stateMutability": "view",
      "type": "function"
    },
    {
      "constant": true,
      "inputs": [
        {
          "name": "",
          "type": "uint256"
        }
      ],
      "name": "milestones",
      "outputs": [
        {
          "name": "endDate",
          "type": "uint32"
        },
        {
          "name": "tranchePercent",
          "type": "uint8"
        },
        {
          "name": "voteEndDate",
          "type": "uint32"
        },
        {
          "name": "withdrawalWindow",
          "type": "uint32"
        },
        {
          "name": "name",
          "type": "bytes"
        },
        {
          "name": "description",
          "type": "bytes"
        }
      ],
      "payable": false,
      "stateMutability": "view",
      "type": "function"
    },
    {
      "constant": false,
      "inputs": [
        {
          "name": "_newOwner",
          "type": "address"
        }
      ],
      "name": "transferOwnership",
      "outputs": [],
      "payable": false,
      "stateMutability": "nonpayable",
      "type": "function"
    },
    {
      "constant": true,
      "inputs": [],
      "name": "token",
      "outputs": [
        {
          "name": "",
          "type": "address"
        }
      ],
      "payable": false,
      "stateMutability": "view",
      "type": "function"
    },
    {
      "inputs": [
        {
          "name": "_token",
          "type": "address"
        },
        {
          "name": "_tokenDecimals",
          "type": "uint256"
        },
        {
          "name": "_startDate",
          "type": "uint32"
        },
        {
          "name": "_price",
          "type": "uint256"
        },
        {
          "name": "_serviceWallet",
          "type": "address"
        },
        {
          "name": "_serviceFee",
          "type": "uint8"
        },
        {
          "name": "_fund",
          "type": "address"
        }
      ],
      "payable": false,
      "stateMutability": "nonpayable",
      "type": "constructor"
    },
    {
      "payable": true,
      "stateMutability": "payable",
      "type": "fallback"
    },
    {
      "anonymous": false,
      "inputs": [
        {
          "indexed": true,
          "name": "buyer",
          "type": "address"
        },
        {
          "indexed": false,
          "name": "amountPaid",
          "type": "uint256"
        },
        {
          "indexed": false,
          "name": "tokensBought",
          "type": "uint256"
        }
      ],
      "name": "TokenPurchase",
      "type": "event"
    },
    {
      "anonymous": false,
      "inputs": [],
      "name": "StagesUpdated",
      "type": "event"
    },
    {
      "anonymous": false,
      "inputs": [],
      "name": "MilestonesSet",
      "type": "event"
    },
    {
      "anonymous": false,
      "inputs": [
        {
          "indexed": false,
          "name": "value",
          "type": "uint256"
        }
      ],
      "name": "debug",
      "type": "event"
    },
    {
      "anonymous": false,
      "inputs": [
        {
          "indexed": true,
          "name": "previousOwner",
          "type": "address"
        }
      ],
      "name": "OwnershipRenounced",
      "type": "event"
    },
    {
      "anonymous": false,
      "inputs": [
        {
          "indexed": true,
          "name": "previousOwner",
          "type": "address"
        },
        {
          "indexed": true,
          "name": "newOwner",
          "type": "address"
        }
      ],
      "name": "OwnershipTransferred",
      "type": "event"
    },
    {
      "constant": true,
      "inputs": [],
      "name": "stagesLength",
      "outputs": [
        {
          "name": "",
          "type": "uint256"
        }
      ],
      "payable": false,
      "stateMutability": "view",
      "type": "function"
    },
    {
      "constant": true,
      "inputs": [],
      "name": "milestonesLength",
      "outputs": [
        {
          "name": "",
          "type": "uint256"
        }
      ],
      "payable": false,
      "stateMutability": "view",
      "type": "function"
    },
    {
      "constant": true,
      "inputs": [
        {
          "name": "index",
          "type": "uint256"
        }
      ],
      "name": "getMilestone",
      "outputs": [
        {
          "name": "",
          "type": "uint32"
        },
        {
          "name": "",
          "type": "uint8"
        },
        {
          "name": "",
          "type": "uint32"
        },
        {
          "name": "",
          "type": "uint32"
        },
        {
          "name": "",
          "type": "bytes"
        },
        {
          "name": "",
          "type": "bytes"
        }
      ],
      "payable": false,
      "stateMutability": "view",
      "type": "function"
    },
    {
      "constant": true,
      "inputs": [
        {
          "name": "stageNumber",
          "type": "uint256"
        }
      ],
      "name": "getStageVolumeBoundaries",
      "outputs": [
        {
          "name": "",
          "type": "uint256[]"
        }
      ],
      "payable": false,
      "stateMutability": "view",
      "type": "function"
    },
    {
      "constant": true,
      "inputs": [
        {
          "name": "stageNumber",
          "type": "uint256"
        }
      ],
      "name": "getStageVolumeBonuses",
      "outputs": [
        {
          "name": "",
          "type": "uint8[]"
        }
      ],
      "payable": false,
      "stateMutability": "view",
      "type": "function"
    },
    {
      "constant": false,
      "inputs": [
        {
          "name": "_startDate",
          "type": "uint32"
        },
        {
          "name": "_price",
          "type": "uint256"
        },
        {
          "name": "_serviceWallet",
          "type": "address"
        }
      ],
      "name": "setParameters",
      "outputs": [],
      "payable": false,
      "stateMutability": "nonpayable",
      "type": "function"
    },
    {
      "constant": false,
      "inputs": [
        {
          "name": "stage_endDates",
          "type": "uint32[]"
        },
        {
          "name": "stage_discounts",
          "type": "uint8[]"
        },
        {
          "name": "stage_vestings",
          "type": "uint32[]"
        }
      ],
      "name": "setStages",
      "outputs": [],
      "payable": false,
      "stateMutability": "nonpayable",
      "type": "function"
    },
    {
      "constant": false,
      "inputs": [
        {
          "name": "stage",
          "type": "uint256"
        },
        {
          "name": "volumeBoundaries",
          "type": "uint256[]"
        },
        {
          "name": "volumeBonuses",
          "type": "uint8[]"
        }
      ],
      "name": "setStageVolumeBonuses",
      "outputs": [],
      "payable": false,
      "stateMutability": "nonpayable",
      "type": "function"
    },
    {
      "constant": false,
      "inputs": [
        {
          "name": "dates",
          "type": "uint32[]"
        },
        {
          "name": "tranchePercents",
          "type": "uint8[]"
        },
        {
          "name": "offsets",
          "type": "uint32[]"
        },
        {
          "name": "namesAndDescriptions",
          "type": "bytes"
        }
      ],
      "name": "setMilestones",
      "outputs": [],
      "payable": false,
      "stateMutability": "nonpayable",
      "type": "function"
    },
    {
      "constant": true,
      "inputs": [],
      "name": "getEndDate",
      "outputs": [
        {
          "name": "",
          "type": "uint32"
        }
      ],
      "payable": false,
      "stateMutability": "view",
      "type": "function"
    },
    {
      "constant": true,
      "inputs": [],
      "name": "getCurrentMilestoneIndex",
      "outputs": [
        {
          "name": "index",
          "type": "uint256"
        }
      ],
      "payable": false,
      "stateMutability": "view",
      "type": "function"
    },
    {
      "constant": true,
      "inputs": [],
      "name": "getCurrentMilestone",
      "outputs": [
        {
          "name": "",
          "type": "uint32"
        },
        {
          "name": "",
          "type": "uint8"
        },
        {
          "name": "",
          "type": "uint32"
        },
        {
          "name": "",
          "type": "uint32"
        },
        {
          "name": "",
          "type": "bytes"
        },
        {
          "name": "",
          "type": "bytes"
        }
      ],
      "payable": false,
      "stateMutability": "view",
      "type": "function"
    },
    {
      "constant": false,
      "inputs": [],
      "name": "buyTokens",
      "outputs": [],
      "payable": true,
      "stateMutability": "payable",
      "type": "function"
    },
    {
      "constant": true,
      "inputs": [],
      "name": "getWToken",
      "outputs": [
        {
          "name": "",
          "type": "address"
        }
      ],
      "payable": false,
      "stateMutability": "view",
      "type": "function"
    },
    {
      "constant": true,
      "inputs": [],
      "name": "getFund",
      "outputs": [
        {
          "name": "",
          "type": "address"
        }
      ],
      "payable": false,
      "stateMutability": "view",
      "type": "function"
    },
    {
      "constant": true,
      "inputs": [],
      "name": "isEnded",
      "outputs": [
        {
          "name": "",
          "type": "bool"
        }
      ],
      "payable": false,
      "stateMutability": "view",
      "type": "function"
    },
    {
      "constant": false,
      "inputs": [],
      "name": "claimRemainingTokens",
      "outputs": [],
      "payable": false,
      "stateMutability": "nonpayable",
      "type": "function"
    }
  ],
  "bytecode": "0x6080604052600180553480156200001557600080fd5b5060405160e080620035e883398101806040528101908080519060200190929190805190602001909291908051906020019092919080519060200190929190805190602001909291908051906020019092919080519060200190929190505050336000806101000a81548173ffffffffffffffffffffffffffffffffffffffff021916908373ffffffffffffffffffffffffffffffffffffffff160217905550600073ffffffffffffffffffffffffffffffffffffffff168773ffffffffffffffffffffffffffffffffffffffff1614151515620000f257600080fd5b60008260ff16101580156200010a575060648260ff16105b15156200011657600080fd5b600073ffffffffffffffffffffffffffffffffffffffff168173ffffffffffffffffffffffffffffffffffffffff16141515156200015357600080fd5b86600260006101000a81548173ffffffffffffffffffffffffffffffffffffffff021916908373ffffffffffffffffffffffffffffffffffffffff16021790555085600381905550620001b785858562000220640100000000026401000000009004565b81600660006101000a81548160ff021916908360ff16021790555080600760006101000a81548173ffffffffffffffffffffffffffffffffffffffff021916908373ffffffffffffffffffffffffffffffffffffffff16021790555050505050505050620002f1565b428363ffffffff16101515156200023657600080fd5b6000821115156200024657600080fd5b600073ffffffffffffffffffffffffffffffffffffffff168173ffffffffffffffffffffffffffffffffffffffff16141515156200028357600080fd5b82600460006101000a81548163ffffffff021916908363ffffffff1602179055508160058190555080600660016101000a81548173ffffffffffffffffffffffffffffffffffffffff021916908373ffffffffffffffffffffffffffffffffffffffff160217905550505050565b6132e780620003016000396000f300608060405260043610610175576000357c0100000000000000000000000000000000000000000000000000000000900463ffffffff1680630b97bc861461017f5780630d544ffe146101b65780630ee62c77146102395780632442e1cb146102bb578063299a017c14610413578063313602d4146105555780633baba4d71461056c5780634090cb6414610597578063521b7499146105ee5780635641f3c31461064b578063715018a6146106a257806372e6a881146106b9578063792c02ea14610706578063845ddcb2146107315780638abdf5aa1461079e5780638da5cb5b146107cf5780638edd6eb6146108265780639bed31e41461087d578063a035b1fe146108da578063a4fd6f5614610905578063b135648814610934578063b60d42881461096b578063d0febe4c146109c2578063d6d65f3d146109cc578063e89e4ed6146109f7578063f12585f514610b4f578063f2fde38b14610bd1578063f9cbcef014610c14578063fc0c546a14610c7f575b61017d610cd6565b005b34801561018b57600080fd5b5061019461118a565b604051808263ffffffff1663ffffffff16815260200191505060405180910390f35b3480156101c257600080fd5b506102376004803603810190808035906020019082018035906020019190919293919293908035906020019082018035906020019190919293919293908035906020019082018035906020019190919293919293908035906020019082018035906020019190919293919293905050506111a0565b005b34801561024557600080fd5b50610264600480360381019080803590602001909291905050506118af565b6040518080602001828103825283818151815260200191508051906020019060200280838360005b838110156102a757808201518184015260208101905061028c565b505050509050019250505060405180910390f35b3480156102c757600080fd5b506102e66004803603810190808035906020019092919050505061194d565b604051808763ffffffff1663ffffffff1681526020018660ff1660ff1681526020018563ffffffff1663ffffffff1681526020018463ffffffff1663ffffffff1681526020018060200180602001838103835285818151815260200191508051906020019080838360005b8381101561036c578082015181840152602081019050610351565b50505050905090810190601f1680156103995780820380516001836020036101000a031916815260200191505b50838103825284818151815260200191508051906020019080838360005b838110156103d25780820151818401526020810190506103b7565b50505050905090810190601f1680156103ff5780820380516001836020036101000a031916815260200191505b509850505050505050505060405180910390f35b34801561041f57600080fd5b50610428611ba4565b604051808763ffffffff1663ffffffff1681526020018660ff1660ff1681526020018563ffffffff1663ffffffff1681526020018463ffffffff1663ffffffff1681526020018060200180602001838103835285818151815260200191508051906020019080838360005b838110156104ae578082015181840152602081019050610493565b50505050905090810190601f1680156104db5780820380516001836020036101000a031916815260200191505b50838103825284818151815260200191508051906020019080838360005b838110156105145780820151818401526020810190506104f9565b50505050905090810190601f1680156105415780820380516001836020036101000a031916815260200191505b509850505050505050505060405180910390f35b34801561056157600080fd5b5061056a611bd7565b005b34801561057857600080fd5b50610581611e6a565b6040518082815260200191505060405180910390f35b3480156105a357600080fd5b506105ac611e77565b604051808273ffffffffffffffffffffffffffffffffffffffff1673ffffffffffffffffffffffffffffffffffffffff16815260200191505060405180910390f35b3480156105fa57600080fd5b5061064960048036038101908080359060200190929190803590602001908201803590602001919091929391929390803590602001908201803590602001919091929391929390505050611ea1565b005b34801561065757600080fd5b50610660611fe2565b604051808273ffffffffffffffffffffffffffffffffffffffff1673ffffffffffffffffffffffffffffffffffffffff16815260200191505060405180910390f35b3480156106ae57600080fd5b506106b7612008565b005b3480156106c557600080fd5b506106e46004803603810190808035906020019092919050505061210a565b604051808263ffffffff1663ffffffff16815260200191505060405180910390f35b34801561071257600080fd5b5061071b612143565b6040518082815260200191505060405180910390f35b34801561073d57600080fd5b5061075c60048036038101908080359060200190929190505050612150565b604051808463ffffffff1663ffffffff1681526020018360ff1660ff1681526020018263ffffffff1663ffffffff168152602001935050505060405180910390f35b3480156107aa57600080fd5b506107b36121b6565b604051808260ff1660ff16815260200191505060405180910390f35b3480156107db57600080fd5b506107e46121c9565b604051808273ffffffffffffffffffffffffffffffffffffffff1673ffffffffffffffffffffffffffffffffffffffff16815260200191505060405180910390f35b34801561083257600080fd5b5061083b6121ee565b604051808273ffffffffffffffffffffffffffffffffffffffff1673ffffffffffffffffffffffffffffffffffffffff16815260200191505060405180910390f35b34801561088957600080fd5b506108d8600480360381019080803563ffffffff16906020019092919080359060200190929190803573ffffffffffffffffffffffffffffffffffffffff169060200190929190505050612218565b005b3480156108e657600080fd5b506108ef612283565b6040518082815260200191505060405180910390f35b34801561091157600080fd5b5061091a612289565b604051808215151515815260200191505060405180910390f35b34801561094057600080fd5b506109496122d9565b604051808263ffffffff1663ffffffff16815260200191505060405180910390f35b34801561097757600080fd5b50610980612325565b604051808273ffffffffffffffffffffffffffffffffffffffff1673ffffffffffffffffffffffffffffffffffffffff16815260200191505060405180910390f35b6109ca610cd6565b005b3480156109d857600080fd5b506109e161234b565b6040518082815260200191505060405180910390f35b348015610a0357600080fd5b50610a22600480360381019080803590602001909291905050506123de565b604051808763ffffffff1663ffffffff1681526020018660ff1660ff1681526020018563ffffffff1663ffffffff1681526020018463ffffffff1663ffffffff1681526020018060200180602001838103835285818151815260200191508051906020019080838360005b83811015610aa8578082015181840152602081019050610a8d565b50505050905090810190601f168015610ad55780820380516001836020036101000a031916815260200191505b50838103825284818151815260200191508051906020019080838360005b83811015610b0e578082015181840152602081019050610af3565b50505050905090810190601f168015610b3b5780820380516001836020036101000a031916815260200191505b509850505050505050505060405180910390f35b348015610b5b57600080fd5b50610b7a60048036038101908080359060200190929190505050612596565b6040518080602001828103825283818151815260200191508051906020019060200280838360005b83811015610bbd578082015181840152602081019050610ba2565b505050509050019250505060405180910390f35b348015610bdd57600080fd5b50610c12600480360381019080803573ffffffffffffffffffffffffffffffffffffffff16906020019092919050505061260e565b005b348015610c2057600080fd5b50610c7d600480360381019080803590602001908201803590602001919091929391929390803590602001908201803590602001919091929391929390803590602001908201803590602001919091929391929390505050612675565b005b348015610c8b57600080fd5b50610c94612a6a565b604051808273ffffffffffffffffffffffffffffffffffffffff1673ffffffffffffffffffffffffffffffffffffffff16815260200191505060405180910390f35b600080600080600080600180600082825401925050819055506001549050600034111515610d0357600080fd5b42600460009054906101000a900463ffffffff1663ffffffff1611151515610d2a57600080fd5b610d32612289565b151515610d3e57600080fd5b6000600880549050111515610d5257600080fd5b610d5a612a90565b95509550955060006008805490501415610dba573373ffffffffffffffffffffffffffffffffffffffff166108fc349081150290604051600060405180830381858888f19350505050158015610db4573d6000803e3d6000fd5b50611172565b60008660ff1611610dcd57600554610dfc565b610dfb6064610ded8860640360ff16600554612c2c90919063ffffffff16565b612c6a90919063ffffffff16565b5b9250610e43600260035403600a0a610e3585610e278860640160ff1634612c2c90919063ffffffff16565b612c6a90919063ffffffff16565b612c2c90919063ffffffff16565b9150600260009054906101000a900473ffffffffffffffffffffffffffffffffffffffff1673ffffffffffffffffffffffffffffffffffffffff16639d2e47773384886040518463ffffffff167c0100000000000000000000000000000000000000000000000000000000028152600401808473ffffffffffffffffffffffffffffffffffffffff1673ffffffffffffffffffffffffffffffffffffffff1681526020018381526020018263ffffffff1663ffffffff1681526020019350505050602060405180830381600087803b158015610f1e57600080fd5b505af1158015610f32573d6000803e3d6000fd5b505050506040513d6020811015610f4857600080fd5b81019080805190602001909291905050501515610f6457600080fd5b6000600660009054906101000a900460ff1660ff16111561102057600660019054906101000a900473ffffffffffffffffffffffffffffffffffffffff1673ffffffffffffffffffffffffffffffffffffffff166108fc610ff36064610fe5600660009054906101000a900460ff1660ff1634612c2c90919063ffffffff16565b612c6a90919063ffffffff16565b9081150290604051600060405180830381858888f1935050505015801561101e573d6000803e3d6000fd5b505b600760009054906101000a900473ffffffffffffffffffffffffffffffffffffffff1673ffffffffffffffffffffffffffffffffffffffff1663958799cb3073ffffffffffffffffffffffffffffffffffffffff1631620186a09033866040518563ffffffff167c0100000000000000000000000000000000000000000000000000000000028152600401808373ffffffffffffffffffffffffffffffffffffffff1673ffffffffffffffffffffffffffffffffffffffff168152602001828152602001925050506000604051808303818589803b15801561110157600080fd5b5088f1158015611115573d6000803e3d6000fd5b5050505050503373ffffffffffffffffffffffffffffffffffffffff167fcd60aa75dea3072fbc07ae6d7d856b5dc5f4eee88854f5b4abf7b680ef8bc50f3484604051808381526020018281526020019250505060405180910390a25b6001548114151561118257600080fd5b505050505050565b600460009054906101000a900463ffffffff1681565b60008060006060806000809054906101000a900473ffffffffffffffffffffffffffffffffffffffff1673ffffffffffffffffffffffffffffffffffffffff163373ffffffffffffffffffffffffffffffffffffffff1614151561120357600080fd5b600060098054905014151561121757600080fd5b7fffffffffffffffffffffffffffffffffffffffffffffffffffffffffffffffff60ff168d8d90501115151561124c57600080fd5b60038d8d905011151561125e57600080fd5b600060038e8e905081151561126f57fe5b0614151561127c57600080fd5b8888905061129760028d8d9050612c2c90919063ffffffff16565b1415156112a357600080fd5b8c8c90506112be60038d8d9050612c2c90919063ffffffff16565b1415156112ca57600080fd5b60028b8b90500287879050101515156112e257600080fd5b6000945060009350600092505b8c8c905060ff168360ff16101561187c57428d8d8560ff16818110151561131257fe5b9050602002013563ffffffff1663ffffffff1611151561133157600080fd5b8c8c8460ff16818110151561134257fe5b9050602002013563ffffffff1663ffffffff168d8d6001860160ff16818110151561136957fe5b9050602002013563ffffffff1663ffffffff161015151561138957600080fd5b8c8c6001850160ff16818110151561139d57fe5b9050602002013563ffffffff1663ffffffff168d8d6002860160ff1681811015156113c457fe5b9050602002013563ffffffff1663ffffffff16101515156113e457600080fd5b868690506114748a8a600160038860ff168115156113fe57fe5b040160ff16818110151561140e57fe5b9050602002013563ffffffff1663ffffffff166114668c8c60038960ff1681151561143557fe5b0460ff16818110151561144457fe5b9050602002013563ffffffff1663ffffffff1689612c9490919063ffffffff16565b612c9490919063ffffffff16565b1115151561148157600080fd5b60648b8b60038660ff1681151561149457fe5b0460ff1681811015156114a357fe5b9050602002013560ff1660ff161015156114bc57600080fd5b611538858a8a600260038860ff168115156114d357fe5b040260ff1681811015156114e357fe5b9050602002013563ffffffff1663ffffffff1689898080601f016020809104026020016040519081016040528093929190818152602001838380828437820191505050505050612cb59092919063ffffffff16565b91506115f08989600260038760ff1681151561155057fe5b040260ff16818110151561156057fe5b9050602002013563ffffffff1663ffffffff1686018a8a6001600260038960ff1681151561158a57fe5b04020160ff16818110151561159b57fe5b9050602002013563ffffffff1663ffffffff1689898080601f016020809104026020016040519081016040528093929190818152602001838380828437820191505050505050612cb59092919063ffffffff16565b90506000825111151561160257600080fd5b6000815111151561161257600080fd5b600960c0604051908101604052808f8f8760ff16818110151561163157fe5b9050602002013563ffffffff1663ffffffff1681526020018d8d60038860ff1681151561165a57fe5b0460ff16818110151561166957fe5b9050602002013560ff1660ff1681526020018f8f6001880160ff16818110151561168f57fe5b9050602002013563ffffffff1663ffffffff1681526020018f8f6002880160ff1681811015156116bb57fe5b9050602002013563ffffffff1663ffffffff168152602001848152602001838152509080600181540180825580915050906001820390600052602060002090600302016000909192909190915060008201518160000160006101000a81548163ffffffff021916908363ffffffff16021790555060208201518160000160046101000a81548160ff021916908360ff16021790555060408201518160000160056101000a81548163ffffffff021916908363ffffffff16021790555060608201518160000160096101000a81548163ffffffff021916908363ffffffff16021790555060808201518160010190805190602001906117ba929190612f0a565b5060a08201518160020190805190602001906117d7929190612f0a565b505050508888600160038660ff168115156117ee57fe5b040160ff1681811015156117fe57fe5b9050602002013563ffffffff16898960038660ff1681151561181c57fe5b0460ff16818110151561182b57fe5b9050602002013563ffffffff160163ffffffff16850194508a8a60038560ff1681151561185457fe5b0460ff16818110151561186357fe5b9050602002013560ff16840193506003830192506112ef565b8c8c600a919061188d929190612f8a565b5060648460ff161415156118a057600080fd5b50505050505050505050505050565b60606008828154811015156118c057fe5b906000526020600020906003020160020180548060200260200160405190810160405280929190818152602001828054801561194157602002820191906000526020600020906000905b82829054906101000a900460ff1660ff168152602001906001019060208260000104928301926001038202915080841161190a5790505b50505050509050919050565b60008060008060608060098781548110151561196557fe5b906000526020600020906003020160000160009054906101000a900463ffffffff1660098881548110151561199657fe5b906000526020600020906003020160000160049054906101000a900460ff166009898154811015156119c457fe5b906000526020600020906003020160000160059054906101000a900463ffffffff1660098a8154811015156119f557fe5b906000526020600020906003020160000160099054906101000a900463ffffffff1660098b815481101515611a2657fe5b906000526020600020906003020160010160098c815481101515611a4657fe5b9060005260206000209060030201600201818054600181600116156101000203166002900480601f016020809104026020016040519081016040528092919081815260200182805460018160011615610100020316600290048015611aec5780601f10611ac157610100808354040283529160200191611aec565b820191906000526020600020905b815481529060010190602001808311611acf57829003601f168201915b50505050509150808054600181600116156101000203166002900480601f016020809104026020016040519081016040528092919081815260200182805460018160011615610100020316600290048015611b885780601f10611b5d57610100808354040283529160200191611b88565b820191906000526020600020905b815481529060010190602001808311611b6b57829003601f168201915b5050505050905095509550955095509550955091939550919395565b6000806000806060806000611bb761234b565b9050611bc28161194d565b96509650965096509650965050909192939495565b6000809054906101000a900473ffffffffffffffffffffffffffffffffffffffff1673ffffffffffffffffffffffffffffffffffffffff163373ffffffffffffffffffffffffffffffffffffffff16141515611c3257600080fd5b611c3a612289565b1515611c4557600080fd5b600260009054906101000a900473ffffffffffffffffffffffffffffffffffffffff1673ffffffffffffffffffffffffffffffffffffffff1663a9059cbb6000809054906101000a900473ffffffffffffffffffffffffffffffffffffffff16600260009054906101000a900473ffffffffffffffffffffffffffffffffffffffff1673ffffffffffffffffffffffffffffffffffffffff166370a08231306040518263ffffffff167c0100000000000000000000000000000000000000000000000000000000028152600401808273ffffffffffffffffffffffffffffffffffffffff1673ffffffffffffffffffffffffffffffffffffffff168152602001915050602060405180830381600087803b158015611d6257600080fd5b505af1158015611d76573d6000803e3d6000fd5b505050506040513d6020811015611d8c57600080fd5b81019080805190602001909291905050506040518363ffffffff167c0100000000000000000000000000000000000000000000000000000000028152600401808373ffffffffffffffffffffffffffffffffffffffff1673ffffffffffffffffffffffffffffffffffffffff16815260200182815260200192505050602060405180830381600087803b158015611e2257600080fd5b505af1158015611e36573d6000803e3d6000fd5b505050506040513d6020811015611e4c57600080fd5b81019080805190602001909291905050501515611e6857600080fd5b565b6000600980549050905090565b6000600260009054906101000a900473ffffffffffffffffffffffffffffffffffffffff16905090565b6000809054906101000a900473ffffffffffffffffffffffffffffffffffffffff1673ffffffffffffffffffffffffffffffffffffffff163373ffffffffffffffffffffffffffffffffffffffff16141515611efc57600080fd5b8181905084849050141515611f1057600080fd5b60088054905085101515611f2357600080fd5b600885815481101515611f3257fe5b90600052602060002090600302016001016000611f4f9190613040565b600885815481101515611f5e57fe5b90600052602060002090600302016002016000611f7b9190613061565b8383600887815481101515611f8c57fe5b90600052602060002090600302016001019190611faa929190613089565b508181600887815481101515611fbc57fe5b90600052602060002090600302016002019190611fda9291906130d6565b505050505050565b600660019054906101000a900473ffffffffffffffffffffffffffffffffffffffff1681565b6000809054906101000a900473ffffffffffffffffffffffffffffffffffffffff1673ffffffffffffffffffffffffffffffffffffffff163373ffffffffffffffffffffffffffffffffffffffff1614151561206357600080fd5b6000809054906101000a900473ffffffffffffffffffffffffffffffffffffffff1673ffffffffffffffffffffffffffffffffffffffff167ff8df31144d9c2f0f6b59d69b8b98abd5459d07f2742c4df920b25aae33c6482060405160405180910390a260008060006101000a81548173ffffffffffffffffffffffffffffffffffffffff021916908373ffffffffffffffffffffffffffffffffffffffff160217905550565b600a8181548110151561211957fe5b9060005260206000209060089182820401919006600402915054906101000a900463ffffffff1681565b6000600880549050905090565b60088181548110151561215f57fe5b90600052602060002090600302016000915090508060000160009054906101000a900463ffffffff16908060000160049054906101000a900460ff16908060000160059054906101000a900463ffffffff16905083565b600660009054906101000a900460ff1681565b6000809054906101000a900473ffffffffffffffffffffffffffffffffffffffff1681565b6000600760009054906101000a900473ffffffffffffffffffffffffffffffffffffffff16905090565b6000809054906101000a900473ffffffffffffffffffffffffffffffffffffffff1673ffffffffffffffffffffffffffffffffffffffff163373ffffffffffffffffffffffffffffffffffffffff1614151561227357600080fd5b61227e838383612d42565b505050565b60055481565b60008060088054905014806122d4575042600860008154811015156122aa57fe5b906000526020600020906003020160000160009054906101000a900463ffffffff1663ffffffff16105b905090565b6000806008805490501115156122ee57600080fd5b600860008154811015156122fe57fe5b906000526020600020906003020160000160009054906101000a900463ffffffff16905090565b600760009054906101000a900473ffffffffffffffffffffffffffffffffffffffff1681565b6000806009805490509050600081141561236457600080fd5b600091505b80821080156123b45750600a6003830281548110151561238557fe5b90600052602060002090600891828204019190066004029054906101000a900463ffffffff1663ffffffff1642115b156123c6578180600101925050612369565b808214156123d9576001820391506123da565b5b5090565b6009818154811015156123ed57fe5b90600052602060002090600302016000915090508060000160009054906101000a900463ffffffff16908060000160049054906101000a900460ff16908060000160059054906101000a900463ffffffff16908060000160099054906101000a900463ffffffff1690806001018054600181600116156101000203166002900480601f0160208091040260200160405190810160405280929190818152602001828054600181600116156101000203166002900480156124ee5780601f106124c3576101008083540402835291602001916124ee565b820191906000526020600020905b8154815290600101906020018083116124d157829003601f168201915b505050505090806002018054600181600116156101000203166002900480601f01602080910402602001604051908101604052809291908181526020018280546001816001161561010002031660029004801561258c5780601f106125615761010080835404028352916020019161258c565b820191906000526020600020905b81548152906001019060200180831161256f57829003601f168201915b5050505050905086565b60606008828154811015156125a757fe5b906000526020600020906003020160010180548060200260200160405190810160405280929190818152602001828054801561260257602002820191906000526020600020905b8154815260200190600101908083116125ee575b50505050509050919050565b6000809054906101000a900473ffffffffffffffffffffffffffffffffffffffff1673ffffffffffffffffffffffffffffffffffffffff163373ffffffffffffffffffffffffffffffffffffffff1614151561266957600080fd5b61267281612e10565b50565b6000806000809054906101000a900473ffffffffffffffffffffffffffffffffffffffff1673ffffffffffffffffffffffffffffffffffffffff163373ffffffffffffffffffffffffffffffffffffffff161415156126d357600080fd5b7fffffffffffffffffffffffffffffffffffffffffffffffffffffffffffffffff60ff16888890501115151561270857600080fd5b60008888905011151561271a57600080fd5b858590508888905014151561272e57600080fd5b838390508888905014151561274257600080fd5b8787905091508160ff166008816127599190613180565b50600090505b8160ff168160ff161015612a3457600086868360ff16818110151561278057fe5b9050602002013560ff1660ff16101580156127b85750606486868360ff1681811015156127a957fe5b9050602002013560ff1660ff16105b15156127c357600080fd5b87878260ff1681811015156127d457fe5b9050602002013563ffffffff1663ffffffff16600460009054906101000a900463ffffffff1663ffffffff1610151561280c57600080fd5b6001820360ff168160ff1610156129045787876001830160ff16818110151561283157fe5b9050602002013563ffffffff1663ffffffff1688888360ff16818110151561285557fe5b9050602002013563ffffffff1663ffffffff16101515612903576040517f08c379a00000000000000000000000000000000000000000000000000000000081526004018080602001828103825260228152602001807f53746167657320617265206e6f7420696e20686973746f726963616c206f726481526020017f657200000000000000000000000000000000000000000000000000000000000081525060400191505060405180910390fd5b5b87878260ff16818110151561291557fe5b9050602002013563ffffffff16600860018385030360ff1681548110151561293957fe5b906000526020600020906003020160000160006101000a81548163ffffffff021916908363ffffffff16021790555085858260ff16818110151561297957fe5b9050602002013560ff16600860018385030360ff1681548110151561299a57fe5b906000526020600020906003020160000160046101000a81548160ff021916908360ff16021790555083838260ff1681811015156129d457fe5b9050602002013563ffffffff16600860018385030360ff168154811015156129f857fe5b906000526020600020906003020160000160056101000a81548163ffffffff021916908363ffffffff160217905550808060010191505061275f565b7f743961f4e677d1146fbf85d75565b1c5474fd083eb166f8b9595cf5d01a4d6e660405160405180910390a15050505050505050565b600260009054906101000a900473ffffffffffffffffffffffffffffffffffffffff1681565b60008060008060008060006008805490501415612ac0576000806000829250819150809050955095509550612c24565b6008600160088054905003815481101515612ad757fe5b90600052602060002090600302019250428360000160009054906101000a900463ffffffff1663ffffffff16101515612bff576000935060009150600083600101805490501115612bcc57600090505b6001836001018054905003811015612bcb57813410158015612b6357508260010181815481101515612b5557fe5b906000526020600020015434105b15612ba0578260020181815481101515612b7957fe5b90600052602060002090602091828204019190069054906101000a900460ff169350612bcb565b8260010181815481101515612bb157fe5b906000526020600020015491508080600101915050612b27565b5b8260000160049054906101000a900460ff168360000160059054906101000a900463ffffffff1685955095509550612c24565b6008805480919060019003612c149190613180565b50612c1d612a90565b9550955095505b505050909192565b6000806000841415612c415760009150612c63565b8284029050828482811515612c5257fe5b04141515612c5f57600080fd5b8091505b5092915050565b600080600083111515612c7c57600080fd5b8284811515612c8757fe5b0490508091505092915050565b6000808284019050838110151515612cab57600080fd5b8091505092915050565b606080828401855110151515612cca57600080fd5b821560008114612ce557604051915060208201604052612d36565b6040519150601f8416801560200281840101858101878315602002848b0101015b81831015612d235780518352602083019250602081019050612d06565b50868552601f19601f8301166040525050505b50809150509392505050565b428363ffffffff1610151515612d5757600080fd5b600082111515612d6657600080fd5b600073ffffffffffffffffffffffffffffffffffffffff168173ffffffffffffffffffffffffffffffffffffffff1614151515612da257600080fd5b82600460006101000a81548163ffffffff021916908363ffffffff1602179055508160058190555080600660016101000a81548173ffffffffffffffffffffffffffffffffffffffff021916908373ffffffffffffffffffffffffffffffffffffffff160217905550505050565b600073ffffffffffffffffffffffffffffffffffffffff168173ffffffffffffffffffffffffffffffffffffffff1614151515612e4c57600080fd5b8073ffffffffffffffffffffffffffffffffffffffff166000809054906101000a900473ffffffffffffffffffffffffffffffffffffffff1673ffffffffffffffffffffffffffffffffffffffff167f8be0079c531659141344cd1fd0a4f28419497f9722a3daafe3b4186f6b6457e060405160405180910390a3806000806101000a81548173ffffffffffffffffffffffffffffffffffffffff021916908373ffffffffffffffffffffffffffffffffffffffff16021790555050565b828054600181600116156101000203166002900490600052602060002090601f016020900481019282601f10612f4b57805160ff1916838001178555612f79565b82800160010185558215612f79579182015b82811115612f78578251825591602001919060010190612f5d565b5b509050612f8691906131b2565b5090565b8280548282559060005260206000209060070160089004810192821561302f5791602002820160005b83821115612ffd57833563ffffffff1683826101000a81548163ffffffff021916908363ffffffff1602179055509260200192600401602081600301049283019260010302612fb3565b801561302d5782816101000a81549063ffffffff0219169055600401602081600301049283019260010302612ffd565b505b50905061303c91906131d7565b5090565b508054600082559060005260206000209081019061305e91906131b2565b50565b50805460008255601f01602090049060005260206000209081019061308691906131b2565b50565b8280548282559060005260206000209081019282156130c5579160200282015b828111156130c45782358255916020019190600101906130a9565b5b5090506130d291906131b2565b5090565b82805482825590600052602060002090601f0160209004810192821561316f5791602002820160005b8382111561314057833560ff1683826101000a81548160ff021916908360ff16021790555092602001926001016020816000010492830192600103026130ff565b801561316d5782816101000a81549060ff0219169055600101602081600001049283019260010302613140565b505b50905061317c919061320a565b5090565b8154818355818111156131ad576003028160030283600052602060002091820191016131ac919061323a565b5b505050565b6131d491905b808211156131d05760008160009055506001016131b8565b5090565b90565b61320791905b8082111561320357600081816101000a81549063ffffffff0219169055506001016131dd565b5090565b90565b61323791905b8082111561323357600081816101000a81549060ff021916905550600101613210565b5090565b90565b6132b891905b808211156132b457600080820160006101000a81549063ffffffff02191690556000820160046101000a81549060ff02191690556000820160056101000a81549063ffffffff021916905560018201600061329b9190613040565b6002820160006132ab9190613061565b50600301613240565b5090565b905600a165627a7a72305820c13b6192b19750151baae17003b74002a778f17e814ab7a7db5f7347af5df9500029",
  "source": "pragma solidity ^0.4.24;\n\nimport \"../openzeppelin-solidity/contracts/ownership/Ownable.sol\";\nimport \"../openzeppelin-solidity/contracts/ReentrancyGuard.sol\";\nimport \"../openzeppelin-solidity/contracts/math/SafeMath.sol\";\nimport \"../solidity-bytes-utils/contracts/BytesLib.sol\";\nimport \"./interfaces/IW12Crowdsale.sol\";\nimport \"./interfaces/IW12Fund.sol\";\nimport \"./W12Fund.sol\";\n\n\ncontract W12Crowdsale is IW12Crowdsale, Ownable, ReentrancyGuard {\n    using SafeMath for uint;\n    using BytesLib for bytes;\n\n    struct Stage {\n        uint32 endDate;\n        uint8 discount;\n        uint32 vesting;\n        uint[] volumeBoundaries;\n        uint8[] volumeBonuses;\n    }\n\n    struct Milestone {\n        uint32 endDate;\n        uint8  tranchePercent;\n        uint32 voteEndDate;\n        uint32 withdrawalWindow;\n        bytes name;\n        bytes description;\n    }\n\n    WToken public token;\n    uint tokenDecimals;\n    uint32 public startDate;\n    uint public price;\n    uint8 public serviceFee;\n    address public serviceWallet;\n    IW12Fund public fund;\n\n    Stage[] public stages;\n    Milestone[] public milestones;\n    uint32[] public milestoneDates;\n\n    event TokenPurchase(address indexed buyer, uint amountPaid, uint tokensBought);\n    event StagesUpdated();\n    event MilestonesSet();\n\n    event debug(uint value);\n\n    constructor (address _token, uint _tokenDecimals, uint32 _startDate, uint _price, address _serviceWallet, uint8 _serviceFee, IW12Fund _fund) public {\n        require(_token != address(0));\n        require(_serviceFee >= 0 && _serviceFee < 100);\n        require(_fund != address(0));\n\n        token = WToken(_token);\n        tokenDecimals = _tokenDecimals;\n\n        __setParameters(_startDate, _price, _serviceWallet);\n        serviceFee = _serviceFee;\n        fund = _fund;\n    }\n\n    function stagesLength() external view returns (uint) {\n        return stages.length;\n    }\n\n    function milestonesLength() external view returns (uint) {\n        return milestones.length;\n    }\n\n    function getMilestone(uint index) public view returns (uint32, uint8, uint32, uint32, bytes, bytes) {\n        return (\n            milestones[index].endDate,\n            milestones[index].tranchePercent,\n            milestones[index].voteEndDate,\n            milestones[index].withdrawalWindow,\n            milestones[index].name,\n            milestones[index].description\n        );\n    }\n\n    function getStageVolumeBoundaries(uint stageNumber) external view returns (uint[]) {\n        return stages[stageNumber].volumeBoundaries;\n    }\n\n    function getStageVolumeBonuses(uint stageNumber) external view returns (uint8[]) {\n        return stages[stageNumber].volumeBonuses;\n    }\n\n    function __setParameters(uint32 _startDate, uint _price, address _serviceWallet) internal {\n        require(_startDate >= now);\n        require(_price > 0);\n        require(_serviceWallet != address(0));\n\n        startDate = _startDate;\n        price = _price;\n        serviceWallet = _serviceWallet;\n    }\n\n    function setParameters(uint32 _startDate, uint _price, address _serviceWallet) external onlyOwner {\n        __setParameters(_startDate, _price, _serviceWallet);\n    }\n\n    function setStages(uint32[] stage_endDates, uint8[] stage_discounts, uint32[] stage_vestings) external onlyOwner {\n        require(stage_endDates.length <= uint8(-1));\n        require(stage_endDates.length > 0);\n        require(stage_endDates.length == stage_discounts.length);\n        require(stage_endDates.length == stage_vestings.length);\n\n        uint8 stagesCount = uint8(stage_endDates.length);\n        stages.length = stagesCount;\n\n        for(uint8 i = 0; i < stagesCount; i++) {\n            require(stage_discounts[i] >= 0 && stage_discounts[i] < 100);\n            require(startDate < stage_endDates[i]);\n            // Checking that stages entered in historical order\n            if(i < stagesCount - 1)\n                require(stage_endDates[i] < stage_endDates[i+1], \"Stages are not in historical order\");\n\n            // Reverting stage order for future use\n            stages[stagesCount - i - 1].endDate = stage_endDates[i];\n            stages[stagesCount - i - 1].discount = stage_discounts[i];\n            stages[stagesCount - i - 1].vesting = stage_vestings[i];\n        }\n\n        emit StagesUpdated();\n    }\n\n    function setStageVolumeBonuses(uint stage, uint[] volumeBoundaries, uint8[] volumeBonuses) external onlyOwner {\n        require(volumeBoundaries.length == volumeBonuses.length);\n        require(stage < stages.length);\n\n        delete stages[stage].volumeBoundaries;\n        delete stages[stage].volumeBonuses;\n\n        stages[stage].volumeBoundaries = volumeBoundaries;\n        stages[stage].volumeBonuses = volumeBonuses;\n    }\n\n    function setMilestones(uint32[] dates, uint8[] tranchePercents, uint32[] offsets, bytes namesAndDescriptions) external onlyOwner {\n        require(milestones.length == 0);\n        require(dates.length <= uint8(-1));\n        require(dates.length > 3);\n        require(dates.length % 3 == 0);\n        require(tranchePercents.length.mul(2) == offsets.length);\n        require(tranchePercents.length.mul(3) == dates.length);\n        require(namesAndDescriptions.length >= tranchePercents.length * 2);\n\n        uint offset = 0;\n        uint8 totalPercents = 0;\n\n        for(uint8 i = 0; i < uint8(dates.length); i += 3) {\n            require(dates[i] > now);\n            require(dates[i + 1] >= dates[i]);\n            require(dates[i + 2] >= dates[i + 1]);\n            require(offset.add(offsets[i / 3]).add(offsets[i / 3 + 1]) <= namesAndDescriptions.length);\n            require(tranchePercents[i / 3] < 100);\n\n            bytes memory name = namesAndDescriptions.slice(offset, offsets[i / 3 * 2]);\n            bytes memory description = namesAndDescriptions.slice(offset + offsets[i / 3 * 2], offsets[i / 3 * 2 + 1]);\n\n            require(name.length > 0);\n            require(description.length > 0);\n\n            milestones.push(Milestone({\n                endDate: dates[i],\n                tranchePercent: tranchePercents[i / 3],\n                voteEndDate: dates[i + 1],\n                withdrawalWindow: dates[i + 2],\n                name: name,\n                description: description\n            }));\n\n            offset += offsets[i / 3] + offsets[i / 3 + 1];\n            totalPercents += tranchePercents[i / 3];\n        }\n\n        milestoneDates = dates;\n        require(totalPercents == 100);\n    }\n\n    function getEndDate() external view returns (uint32) {\n        require(stages.length > 0);\n\n        return stages[0].endDate;\n    }\n\n    function getCurrentMilestoneIndex() public view returns (uint index) {\n        uint milestonesCount = milestones.length;\n\n        if(milestonesCount == 0)\n            revert();\n\n        for(index = 0; index < milestonesCount && now > milestoneDates[index * 3]; index++) {}\n\n        if(index == milestonesCount)\n            return index - 1;\n    }\n\n    // returns last milestone if completely ended or active milestone at now\n    function getCurrentMilestone() external view returns (uint32, uint8, uint32, uint32, bytes, bytes) {\n        uint index = getCurrentMilestoneIndex();\n\n        return getMilestone(index);\n    }\n\n    function buyTokens() payable nonReentrant public {\n        require(msg.value > 0);\n        require(startDate <= now);\n        require(!isEnded());\n        require(stages.length > 0);\n\n        (uint8 discount, uint32 vesting, uint8 volumeBonus) = getCurrentStage();\n\n        // return funds if ICO was closed\n        if(stages.length == 0) {\n            msg.sender.transfer(msg.value);\n            return;\n        }\n\n        uint stagePrice = discount > 0 ? price.mul(100 - discount).div(100) : price;\n\n        uint tokenAmount = msg.value\n            .mul(100 + volumeBonus)\n            .div(stagePrice)\n            .mul(10**(tokenDecimals - 2));\n\n        require(token.vestingTransfer(msg.sender, tokenAmount, vesting));\n\n        if(serviceFee > 0)\n            serviceWallet.transfer(msg.value.mul(serviceFee).div(100));\n\n        fund.recordPurchase.value(address(this).balance).gas(100000)(msg.sender, tokenAmount);\n\n        emit TokenPurchase(msg.sender, msg.value, tokenAmount);\n    }\n\n    function getWToken() external view returns(WToken) {\n        return token;\n    }\n\n    function getFund() external view returns(IW12Fund) {\n        return fund;\n    }\n\n    function getCurrentStage() internal returns(uint8 discount, uint32 vesting, uint8 volumeBonus) {\n        if(stages.length == 0)\n            return (0, 0, 0);\n\n        Stage storage lastStage = stages[stages.length - 1];\n\n        if(lastStage.endDate >= now) {\n            volumeBonus = 0;\n            uint lastLowerBoundary = 0;\n\n            if(lastStage.volumeBoundaries.length > 0)\n                for (uint i = 0; i < lastStage.volumeBoundaries.length - 1; i++)\n                    if(msg.value >= lastLowerBoundary && msg.value < lastStage.volumeBoundaries[i]) {\n                        volumeBonus = lastStage.volumeBonuses[i];\n                        break;\n                    }\n                    else\n                        lastLowerBoundary = lastStage.volumeBoundaries[i];\n\n            return (lastStage.discount, lastStage.vesting, volumeBonus);\n        }\n\n        stages.length--;\n        return getCurrentStage();\n    }\n\n    function () payable external {\n        buyTokens();\n    }\n\n    function isEnded() public view returns (bool) {\n        return stages.length == 0 || stages[0].endDate < now;\n    }\n\n    function claimRemainingTokens() external onlyOwner {\n        require(isEnded());\n\n        require(token.transfer(owner, token.balanceOf(address(this))));\n    }\n}\n",
  "sourcePath": "/home/andrey/Code/w12/platform-contracts/contracts/W12Crowdsale.sol",
  "compiler": {
    "name": "solc",
    "version": "0.4.24+commit.e67f0147.Emscripten.clang"
  },
  "schemaVersion": "2.0.1",
  "updatedAt": "2018-08-14T20:45:03.590Z"
}