{
  "contractName": "W12CrowdsaleLib",
  "abi": [
    {
      "constant": false,
      "inputs": [
        {
          "name": "version",
          "type": "uint256"
        },
        {
          "name": "_originToken",
          "type": "address"
        },
        {
          "name": "_token",
          "type": "address"
        },
        {
          "name": "_price",
          "type": "uint256"
        },
        {
          "name": "_serviceWallet",
          "type": "address"
        },
        {
          "name": "_swap",
          "type": "address"
        },
        {
          "name": "_serviceFee",
          "type": "uint256"
        },
        {
          "name": "_wTokenSaleFeePercent",
          "type": "uint256"
        },
        {
          "name": "_fund",
          "type": "IW12Fund"
        },
        {
          "name": "_rates",
          "type": "IRates"
        }
      ],
      "name": "createCrowdsale",
      "outputs": [
        {
          "name": "result",
          "type": "W12Crowdsale"
        }
      ],
      "payable": false,
      "stateMutability": "nonpayable",
      "type": "function"
    }
  ],
  "bytecode": "0x6101e4610030600b82828239805160001a6073146000811461002057610022565bfe5b5030600052607381538281f3007300000000000000000000000000000000000000003014608060405260043610610058576000357c0100000000000000000000000000000000000000000000000000000000900463ffffffff168063709497041461005d575b600080fd5b81801561006957600080fd5b5061016660048036038101908080359060200190929190803573ffffffffffffffffffffffffffffffffffffffff169060200190929190803573ffffffffffffffffffffffffffffffffffffffff16906020019092919080359060200190929190803573ffffffffffffffffffffffffffffffffffffffff169060200190929190803573ffffffffffffffffffffffffffffffffffffffff1690602001909291908035906020019092919080359060200190929190803573ffffffffffffffffffffffffffffffffffffffff169060200190929190803573ffffffffffffffffffffffffffffffffffffffff1690602001909291905050506101a8565b604051808273ffffffffffffffffffffffffffffffffffffffff1673ffffffffffffffffffffffffffffffffffffffff16815260200191505060405180910390f35b60009a99505050505050505050505600a165627a7a72305820c6c7136d43440d69d5d39c93b0d4268339da2ecd08acfe6a2c3c2411eea67c090029",
  "source": "pragma solidity ^0.4.24;\nimport \"../crowdsale/W12Crowdsale.sol\";\nimport \"../crowdsale/IW12Fund.sol\";\nimport \"../rates/IRates.sol\";\n\n\nlibrary W12CrowdsaleLib\n{\n\tfunction createCrowdsale(\n\t\t\t\tuint version,\n        address _originToken,\n        address _token,\n        uint _price,\n        address _serviceWallet,\n        address _swap,\n        uint _serviceFee,\n        uint _wTokenSaleFeePercent,\n        IW12Fund _fund,\n        IRates _rates) public returns(W12Crowdsale result)\n\t{\n\n\t}\n}\n",
  "sourcePath": "/Users/gauss/_games/w12/W12-Product-Blockchain-Protocol/contracts/libs/W12CrowdsaleLib.sol",
  "compiler": {
    "name": "solc",
    "version": "0.4.24+commit.e67f0147.Emscripten.clang"
  },
  "schemaVersion": "3.0.10",
  "updatedAt": "2019-06-27T16:46:04.009Z",
  "devdoc": {
    "methods": {}
  },
  "userdoc": {
    "methods": {}
  }
}