{
  "contractName": "W12Crowdsale",
  "abi": [
    {
      "constant": true,
      "inputs": [],
      "name": "originToken",
      "outputs": [
        {
          "name": "",
          "type": "address"
        }
      ],
      "payable": false,
      "stateMutability": "view",
      "type": "function"
    },
    {
      "constant": true,
      "inputs": [],
      "name": "WTokenSaleFeePercent",
      "outputs": [
        {
          "name": "",
          "type": "uint256"
        }
      ],
      "payable": false,
      "stateMutability": "view",
      "type": "function"
    },
    {
      "constant": true,
      "inputs": [],
      "name": "rates",
      "outputs": [
        {
          "name": "",
          "type": "address"
        }
      ],
      "payable": false,
      "stateMutability": "view",
      "type": "function"
    },
    {
      "constant": true,
      "inputs": [],
      "name": "version",
      "outputs": [
        {
          "name": "",
          "type": "uint256"
        }
      ],
      "payable": false,
      "stateMutability": "view",
      "type": "function"
    },
    {
      "constant": true,
      "inputs": [],
      "name": "serviceWallet",
      "outputs": [
        {
          "name": "",
          "type": "address"
        }
      ],
      "payable": false,
      "stateMutability": "view",
      "type": "function"
    },
    {
      "constant": false,
      "inputs": [],
      "name": "renounceOwnership",
      "outputs": [],
      "payable": false,
      "stateMutability": "nonpayable",
      "type": "function"
    },
    {
      "constant": true,
      "inputs": [],
      "name": "swap",
      "outputs": [
        {
          "name": "",
          "type": "address"
        }
      ],
      "payable": false,
      "stateMutability": "view",
      "type": "function"
    },
    {
      "constant": true,
      "inputs": [
        {
          "name": "",
          "type": "uint256"
        }
      ],
      "name": "stages",
      "outputs": [
        {
          "name": "startDate",
          "type": "uint32"
        },
        {
          "name": "endDate",
          "type": "uint32"
        },
        {
          "name": "discount",
          "type": "uint256"
        },
        {
          "name": "vesting",
          "type": "uint32"
        }
      ],
      "payable": false,
      "stateMutability": "view",
      "type": "function"
    },
    {
      "constant": true,
      "inputs": [],
      "name": "serviceFee",
      "outputs": [
        {
          "name": "",
          "type": "uint256"
        }
      ],
      "payable": false,
      "stateMutability": "view",
      "type": "function"
    },
    {
      "constant": true,
      "inputs": [],
      "name": "owner",
      "outputs": [
        {
          "name": "",
          "type": "address"
        }
      ],
      "payable": false,
      "stateMutability": "view",
      "type": "function"
    },
    {
      "constant": true,
      "inputs": [],
      "name": "price",
      "outputs": [
        {
          "name": "",
          "type": "uint256"
        }
      ],
      "payable": false,
      "stateMutability": "view",
      "type": "function"
    },
    {
      "constant": true,
      "inputs": [],
      "name": "fund",
      "outputs": [
        {
          "name": "",
          "type": "address"
        }
      ],
      "payable": false,
      "stateMutability": "view",
      "type": "function"
    },
    {
      "constant": true,
      "inputs": [
        {
          "name": "",
          "type": "uint256"
        }
      ],
      "name": "milestones",
      "outputs": [
        {
          "name": "endDate",
          "type": "uint32"
        },
        {
          "name": "tranchePercent",
          "type": "uint256"
        },
        {
          "name": "voteEndDate",
          "type": "uint32"
        },
        {
          "name": "withdrawalWindow",
          "type": "uint32"
        },
        {
          "name": "name",
          "type": "bytes"
        },
        {
          "name": "description",
          "type": "bytes"
        }
      ],
      "payable": false,
      "stateMutability": "view",
      "type": "function"
    },
    {
      "constant": false,
      "inputs": [
        {
          "name": "_newOwner",
          "type": "address"
        }
      ],
      "name": "transferOwnership",
      "outputs": [],
      "payable": false,
      "stateMutability": "nonpayable",
      "type": "function"
    },
    {
      "constant": true,
      "inputs": [],
      "name": "token",
      "outputs": [
        {
          "name": "",
          "type": "address"
        }
      ],
      "payable": false,
      "stateMutability": "view",
      "type": "function"
    },
    {
      "inputs": [
        {
          "name": "version",
          "type": "uint256"
        },
        {
          "name": "_originToken",
          "type": "address"
        },
        {
          "name": "_token",
          "type": "address"
        },
        {
          "name": "_price",
          "type": "uint256"
        },
        {
          "name": "_serviceWallet",
          "type": "address"
        },
        {
          "name": "_swap",
          "type": "address"
        },
        {
          "name": "_serviceFee",
          "type": "uint256"
        },
        {
          "name": "_WTokenSaleFeePercent",
          "type": "uint256"
        },
        {
          "name": "_fund",
          "type": "address"
        },
        {
          "name": "_rates",
          "type": "address"
        }
      ],
      "payable": false,
      "stateMutability": "nonpayable",
      "type": "constructor"
    },
    {
      "anonymous": false,
      "inputs": [
        {
          "indexed": true,
          "name": "buyer",
          "type": "address"
        },
        {
          "indexed": false,
          "name": "tokensBought",
          "type": "uint256"
        },
        {
          "indexed": false,
          "name": "cost",
          "type": "uint256"
        },
        {
          "indexed": false,
          "name": "change",
          "type": "uint256"
        }
      ],
      "name": "TokenPurchase",
      "type": "event"
    },
    {
      "anonymous": false,
      "inputs": [],
      "name": "StagesUpdated",
      "type": "event"
    },
    {
      "anonymous": false,
      "inputs": [
        {
          "indexed": false,
          "name": "index",
          "type": "uint256"
        }
      ],
      "name": "StageUpdated",
      "type": "event"
    },
    {
      "anonymous": false,
      "inputs": [],
      "name": "MilestonesUpdated",
      "type": "event"
    },
    {
      "anonymous": false,
      "inputs": [
        {
          "indexed": true,
          "name": "owner",
          "type": "address"
        },
        {
          "indexed": false,
          "name": "amount",
          "type": "uint256"
        }
      ],
      "name": "UnsoldTokenReturned",
      "type": "event"
    },
    {
      "anonymous": false,
      "inputs": [
        {
          "indexed": true,
          "name": "previousOwner",
          "type": "address"
        }
      ],
      "name": "OwnershipRenounced",
      "type": "event"
    },
    {
      "anonymous": false,
      "inputs": [
        {
          "indexed": true,
          "name": "previousOwner",
          "type": "address"
        },
        {
          "indexed": true,
          "name": "newOwner",
          "type": "address"
        }
      ],
      "name": "OwnershipTransferred",
      "type": "event"
    },
    {
      "constant": true,
      "inputs": [],
      "name": "stagesLength",
      "outputs": [
        {
          "name": "",
          "type": "uint256"
        }
      ],
      "payable": false,
      "stateMutability": "view",
      "type": "function"
    },
    {
      "constant": true,
      "inputs": [],
      "name": "milestonesLength",
      "outputs": [
        {
          "name": "",
          "type": "uint256"
        }
      ],
      "payable": false,
      "stateMutability": "view",
      "type": "function"
    },
    {
      "constant": true,
      "inputs": [
        {
          "name": "index",
          "type": "uint256"
        }
      ],
      "name": "getMilestone",
      "outputs": [
        {
          "name": "",
          "type": "uint32"
        },
        {
          "name": "",
          "type": "uint256"
        },
        {
          "name": "",
          "type": "uint32"
        },
        {
          "name": "",
          "type": "uint32"
        },
        {
          "name": "",
          "type": "bytes"
        },
        {
          "name": "",
          "type": "bytes"
        }
      ],
      "payable": false,
      "stateMutability": "view",
      "type": "function"
    },
    {
      "constant": true,
      "inputs": [
        {
          "name": "index",
          "type": "uint256"
        }
      ],
      "name": "getStage",
      "outputs": [
        {
          "name": "",
          "type": "uint32"
        },
        {
          "name": "",
          "type": "uint32"
        },
        {
          "name": "",
          "type": "uint256"
        },
        {
          "name": "",
          "type": "uint32"
        },
        {
          "name": "",
          "type": "uint256[]"
        },
        {
          "name": "",
          "type": "uint256[]"
        }
      ],
      "payable": false,
      "stateMutability": "view",
      "type": "function"
    },
    {
      "constant": true,
      "inputs": [],
      "name": "getEndDate",
      "outputs": [
        {
          "name": "",
          "type": "uint32"
        }
      ],
      "payable": false,
      "stateMutability": "view",
      "type": "function"
    },
    {
      "constant": true,
      "inputs": [],
      "name": "getCurrentMilestoneIndex",
      "outputs": [
        {
          "name": "index",
          "type": "uint256"
        },
        {
          "name": "found",
          "type": "bool"
        }
      ],
      "payable": false,
      "stateMutability": "view",
      "type": "function"
    },
    {
      "constant": true,
      "inputs": [],
      "name": "getLastMilestoneIndex",
      "outputs": [
        {
          "name": "index",
          "type": "uint256"
        },
        {
          "name": "found",
          "type": "bool"
        }
      ],
      "payable": false,
      "stateMutability": "view",
      "type": "function"
    },
    {
      "constant": false,
      "inputs": [
        {
          "name": "_price",
          "type": "uint256"
        }
      ],
      "name": "setParameters",
      "outputs": [],
      "payable": false,
      "stateMutability": "nonpayable",
      "type": "function"
    },
    {
      "constant": false,
      "inputs": [
        {
          "name": "parametersOfStages",
          "type": "uint256[6][]"
        },
        {
          "name": "bonusConditionsOfStages",
          "type": "uint256[]"
        },
        {
          "name": "parametersOfMilestones",
          "type": "uint256[4][]"
        },
        {
          "name": "nameAndDescriptionsOffsetOfMilestones",
          "type": "uint32[]"
        },
        {
          "name": "nameAndDescriptionsOfMilestones",
          "type": "bytes"
        },
        {
          "name": "paymentMethodsList",
          "type": "bytes32[]"
        }
      ],
      "name": "setup",
      "outputs": [],
      "payable": false,
      "stateMutability": "nonpayable",
      "type": "function"
    },
    {
      "constant": false,
      "inputs": [
        {
          "name": "method",
          "type": "bytes32"
        },
        {
          "name": "amount",
          "type": "uint256"
        }
      ],
      "name": "buyTokens",
      "outputs": [],
      "payable": true,
      "stateMutability": "payable",
      "type": "function"
    },
    {
      "constant": true,
      "inputs": [],
      "name": "getWToken",
      "outputs": [
        {
          "name": "",
          "type": "address"
        }
      ],
      "payable": false,
      "stateMutability": "view",
      "type": "function"
    },
    {
      "constant": true,
      "inputs": [],
      "name": "getFund",
      "outputs": [
        {
          "name": "",
          "type": "address"
        }
      ],
      "payable": false,
      "stateMutability": "view",
      "type": "function"
    },
    {
      "constant": true,
      "inputs": [],
      "name": "getPaymentMethodsList",
      "outputs": [
        {
          "name": "",
          "type": "bytes32[]"
        }
      ],
      "payable": false,
      "stateMutability": "view",
      "type": "function"
    },
    {
      "constant": true,
      "inputs": [
        {
          "name": "_method",
          "type": "bytes32"
        }
      ],
      "name": "isPaymentMethodAllowed",
      "outputs": [
        {
          "name": "",
          "type": "bool"
        }
      ],
      "payable": false,
      "stateMutability": "view",
      "type": "function"
    },
    {
      "constant": true,
      "inputs": [
        {
          "name": "method",
          "type": "bytes32"
        },
        {
          "name": "amount",
          "type": "uint256"
        }
      ],
      "name": "getInvoice",
      "outputs": [
        {
          "name": "",
          "type": "uint256[5]"
        }
      ],
      "payable": false,
      "stateMutability": "view",
      "type": "function"
    },
    {
      "constant": true,
      "inputs": [
        {
          "name": "tokenAmount",
          "type": "uint256"
        },
        {
          "name": "cost",
          "type": "uint256"
        }
      ],
      "name": "getFee",
      "outputs": [
        {
          "name": "",
          "type": "uint256[2]"
        }
      ],
      "payable": false,
      "stateMutability": "view",
      "type": "function"
    },
    {
      "constant": true,
      "inputs": [
        {
          "name": "value",
          "type": "uint256"
        }
      ],
      "name": "getSaleVolumeBonus",
      "outputs": [
        {
          "name": "bonus",
          "type": "uint256"
        }
      ],
      "payable": false,
      "stateMutability": "view",
      "type": "function"
    },
    {
      "constant": true,
      "inputs": [],
      "name": "getCurrentStageIndex",
      "outputs": [
        {
          "name": "index",
          "type": "uint256"
        },
        {
          "name": "found",
          "type": "bool"
        }
      ],
      "payable": false,
      "stateMutability": "view",
      "type": "function"
    },
    {
      "constant": false,
      "inputs": [],
      "name": "claimRemainingTokens",
      "outputs": [],
      "payable": false,
      "stateMutability": "nonpayable",
      "type": "function"
    },
    {
      "constant": true,
      "inputs": [],
      "name": "isEnded",
      "outputs": [
        {
          "name": "",
          "type": "bool"
        }
      ],
      "payable": false,
      "stateMutability": "view",
      "type": "function"
    },
    {
      "constant": true,
      "inputs": [],
      "name": "isSaleActive",
      "outputs": [
        {
          "name": "",
          "type": "bool"
        }
      ],
      "payable": false,
      "stateMutability": "view",
      "type": "function"
    }
  ],
  "bytecode": "0x608060405260016002553480156200001657600080fd5b5060405161014080620047f383398101604090815281516020830151918301516060840151608085015160a086015160c087015160e088015161010089015161012090990151600088905560018054600160a060020a03191633179055969895969495939492939192909190600160a060020a03891615156200009857600080fd5b600160a060020a0388161515620000ae57600080fd5b620000c78464010000000062003c116200020b82021704565b8015620000ec57506064620000ea85640100000000620044476200024882021704565b105b1515620000f857600080fd5b620001118364010000000062003c116200020b82021704565b801562000136575060646200013484640100000000620044476200024882021704565b105b15156200014257600080fd5b600160a060020a03821615156200015857600080fd5b600160a060020a03851615156200016e57600080fd5b600160a060020a03811615156200018457600080fd5b6200019987876401000000006200029a810204565b60038054600160a060020a0319908116600160a060020a039a8b16179091556004805482169a8a169a909a17909955600893909355600b80548916948816949094179093556009556005805487169286169290921790915560068054909516931692909217909255506200033f915050565b600062000220640100000000620002e5810204565b82101580156200024257506200023e640100000000620002ea810204565b8211155b92915050565b60006200025e826401000000006200020b810204565b15156200026a57600080fd5b620002426200028164010000000062000307810204565b8390600a0a6401000000006200405f6200030c82021704565b60008211620002a857600080fd5b600160a060020a0381161515620002be57600080fd5b600791909155600a8054600160a060020a031916600160a060020a03909216919091179055565b600090565b6000620002ff64010000000062000322810204565b600a0a905090565b600290565b600081838115156200031a57fe5b049392505050565b60006200033764010000000062000307810204565b600201905090565b6144a4806200034f6000396000f3006080604052600436106101a85763ffffffff60e060020a60003504166307f5d63381146101ad57806311eb8c9f146101bd57806313096a41146101e957806314f66d341461021a578063208853c9146102485780632442e1cb146102725780632e325020146103a85780632fbe599014610499578063313602d4146104ae5780633baba4d7146104c35780634090cb64146104d857806343f48fbd146104ed57806354fd4d5014610502578063550fd742146105175780635641f3c31461057c578063564566a814610591578063715018a6146105a6578063792c02ea146105bb5780638119c065146105d0578063845ddcb2146105e55780638abdf5aa1461062e5780638aea2af8146106435780638da5cb5b146106965780638edd6eb6146106ab578063a035b1fe146106c0578063a4fd6f56146106d5578063b1356488146106ea578063b60d428814610718578063d250185c1461072d578063d5b226231461075f578063d6d65f3d146107bb578063daa4cf88146107d0578063e89e4ed6146107e5578063e93b0540146107fd578063f2fde38b14610815578063fc0c546a14610836575b600080fd5b6101bb60043560243561084b565b005b3480156101c957600080fd5b506101d5600435610a52565b604080519115158252519081900360200190f35b3480156101f557600080fd5b506101fe610a6b565b60408051600160a060020a039092168252519081900360200190f35b34801561022657600080fd5b5061022f610a7a565b6040805192835290151560208301528051918290030190f35b34801561025457600080fd5b50610260600435610aad565b60408051918252519081900360200190f35b34801561027e57600080fd5b5061028a600435610ba3565b604051808763ffffffff1663ffffffff1681526020018681526020018563ffffffff1663ffffffff1681526020018463ffffffff1663ffffffff1681526020018060200180602001838103835285818151815260200191508051906020019080838360005b838110156103075781810151838201526020016102ef565b50505050905090810190601f1680156103345780820380516001836020036101000a031916815260200191505b50838103825284518152845160209182019186019080838360005b8381101561036757818101518382015260200161034f565b50505050905090810190601f1680156103945780820380516001836020036101000a031916815260200191505b509850505050505050505060405180910390f35b3480156103b457600080fd5b506103c0600435610dd0565b604051808763ffffffff1663ffffffff1681526020018663ffffffff1663ffffffff1681526020018581526020018463ffffffff1663ffffffff1681526020018060200180602001838103835285818151815260200191508051906020019060200280838360005b83811015610440578181015183820152602001610428565b50505050905001838103825284818151815260200191508051906020019060200280838360005b8381101561047f578181015183820152602001610467565b505050509050019850505050505050505060405180910390f35b3480156104a557600080fd5b50610260610f76565b3480156104ba57600080fd5b506101bb610f7c565b3480156104cf57600080fd5b5061026061112b565b3480156104e457600080fd5b506101fe611132565b3480156104f957600080fd5b506101fe611141565b34801561050e57600080fd5b50610260611150565b34801561052357600080fd5b5061052c611156565b60408051602080825283518183015283519192839290830191858101910280838360005b83811015610568578181015183820152602001610550565b505050509050019250505060405180910390f35b34801561058857600080fd5b506101fe611167565b34801561059d57600080fd5b506101d5611176565b3480156105b257600080fd5b506101bb61118c565b3480156105c757600080fd5b506102606111fa565b3480156105dc57600080fd5b506101fe611200565b3480156105f157600080fd5b506105fd60043561120f565b6040805163ffffffff9586168152938516602085015283810192909252909216606082015290519081900360800190f35b34801561063a57600080fd5b50610260611255565b34801561064f57600080fd5b5061065e60043560243561125b565b604051808260a080838360005b8381101561068357818101518382015260200161066b565b5050505090500191505060405180910390f35b3480156106a257600080fd5b506101fe61171a565b3480156106b757600080fd5b506101fe611729565b3480156106cc57600080fd5b50610260611738565b3480156106e157600080fd5b506101d561173e565b3480156106f657600080fd5b506106ff611785565b6040805163ffffffff9092168252519081900360200190f35b34801561072457600080fd5b506101fe6117cc565b34801561073957600080fd5b506107486004356024356117db565b60408051825181529081908390808383602061066b565b34801561076b57600080fd5b506101bb602460048035828101929082013591813580830192908201359160443580830192908201359160643580830192908201359160843580830192908201359160a4359182019101356117fa565b3480156107c757600080fd5b5061022f611aff565b3480156107dc57600080fd5b5061022f611b7a565b3480156107f157600080fd5b5061028a600435611bfd565b34801561080957600080fd5b506101bb600435611d6b565b34801561082157600080fd5b506101bb600160a060020a0360043516611dd9565b34801561084257600080fd5b506101fe611df9565b60006108556141ac565b61085d6141cb565b60025460011461086c57600080fd5b60028055610878611176565b15156108e557604080517f08c379a000000000000000000000000000000000000000000000000000000000815260206004820152601760248201527f53616c65206973206e6f74207374617274656420796574000000000000000000604482015290519081900360640190fd5b846108ee611e08565b14610983576006546040805160e460020a630b12e441028152600481018890529051600092600160a060020a03169163b12e441091602480830192602092919082900301818787803b15801561094357600080fd5b505af1158015610957573d6000803e3d6000fd5b505050506040513d602081101561096d57600080fd5b5051600160a060020a0316141561098357600080fd5b61098b611b7a565b509250610998858561125b565b805160208201519193506109ab916117db565b90506109b78186611e2c565b6109eb8282600e868154811015156109cb57fe5b600091825260209091206002600590920201015463ffffffff1688611f7a565b6109f68282876120b9565b8151602080840151606080860151604080519586529385019290925283830191909152905133927f347f5f0051b895093800553e6e78ef332849e2552639a4f5ffe66535788ae07892908290030190a250506001600255505050565b6000610a65600c8363ffffffff61237716565b92915050565b600454600160a060020a031681565b600f5460009081901580610a935750610a9161173e565b155b15610a9d57610aa9565b5050600f546000190160015b9091565b600080600080610abb611b7a565b92509250811515610acb57610b9b565b600e805484908110610ad957fe5b90600052602060002090600502019050610b988582600301805480602002602001604051908101604052809291908181526020018280548015610b3b57602002820191906000526020600020905b815481526020019060010190808311610b27575b505050505083600401805480602002602001604051908101604052809291908181526020018280548015610b8e57602002820191906000526020600020905b815481526020019060010190808311610b7a575b5050505050612390565b93505b505050919050565b600080600080606080600f87815481101515610bbb57fe5b6000918252602090912060059091020154600f805463ffffffff9092169189908110610be357fe5b906000526020600020906005020160010154600f89815481101515610c0457fe5b6000918252602090912060026005909202010154600f805463ffffffff909216918b908110610c2f57fe5b906000526020600020906005020160020160049054906101000a900463ffffffff16600f8b815481101515610c6057fe5b9060005260206000209060050201600301600f8c815481101515610c8057fe5b9060005260206000209060050201600401818054600181600116156101000203166002900480601f016020809104026020016040519081016040528092919081815260200182805460018160011615610100020316600290048015610d265780601f10610cfb57610100808354040283529160200191610d26565b820191906000526020600020905b815481529060010190602001808311610d0957829003601f168201915b5050845460408051602060026001851615610100026000190190941693909304601f810184900484028201840190925281815295975086945092508401905082828015610db45780601f10610d8957610100808354040283529160200191610db4565b820191906000526020600020905b815481529060010190602001808311610d9757829003601f168201915b5050505050905095509550955095509550955091939550919395565b600080600080606080600e87815481101515610de857fe5b6000918252602090912060059091020154600e805463ffffffff9092169189908110610e1057fe5b906000526020600020906005020160000160049054906101000a900463ffffffff16600e89815481101515610e4157fe5b906000526020600020906005020160010154600e8a815481101515610e6257fe5b6000918252602090912060026005909202010154600e805463ffffffff909216918c908110610e8d57fe5b9060005260206000209060050201600301600e8c815481101515610ead57fe5b906000526020600020906005020160040181805480602002602001604051908101604052809291908181526020018280548015610f0957602002820191906000526020600020905b815481526020019060010190808311610ef5575b5050505050915080805480602002602001604051908101604052809291908181526020018280548015610db457602002820191906000526020600020905b815481526020019060010190808311610f47575050505050905095509550955095509550955091939550919395565b60095481565b600154600090600160a060020a03163314610f9657600080fd5b610f9e61173e565b1515610fa957600080fd5b600354604080517f70a082310000000000000000000000000000000000000000000000000000000081523060048201529051600160a060020a03909216916370a08231916024808201926020929091908290030181600087803b15801561100f57600080fd5b505af1158015611023573d6000803e3d6000fd5b505050506040513d602081101561103957600080fd5b5051600354600154604080517fa9059cbb000000000000000000000000000000000000000000000000000000008152600160a060020a03928316600482015260248101859052905193945091169163a9059cbb916044808201926020929091908290030181600087803b1580156110af57600080fd5b505af11580156110c3573d6000803e3d6000fd5b505050506040513d60208110156110d957600080fd5b505115156110e657600080fd5b600154604080518381529051600160a060020a03909216917f26ffb867a6b19bc0240d4e732ed6cfb0f0b6d93143a99cfb24ba5873308861f89181900360200190a250565b600f545b90565b600354600160a060020a031690565b600654600160a060020a031681565b60005481565b6060611162600c6123ef565b905090565b600a54600160a060020a031681565b600080611181611b7a565b9150508091505b5090565b600154600160a060020a031633146111a357600080fd5b600154604051600160a060020a03909116907ff8df31144d9c2f0f6b59d69b8b98abd5459d07f2742c4df920b25aae33c6482090600090a26001805473ffffffffffffffffffffffffffffffffffffffff19169055565b600e5490565b600b54600160a060020a031681565b600e80548290811061121d57fe5b600091825260209091206005909102018054600182015460029092015463ffffffff8083169450640100000000909204821692911684565b60085481565b6112636141ac565b60008061126e611b7a565b9150915080151561127e57611712565b84611287611e08565b1461131c576006546040805160e460020a630b12e441028152600481018890529051600092600160a060020a03169163b12e441091602480830192602092919082900301818787803b1580156112dc57600080fd5b505af11580156112f0573d6000803e3d6000fd5b505050506040513d602081101561130657600080fd5b5051600160a060020a0316141561131c57611712565b61170f8585600e8581548110151561133057fe5b906000526020600020906005020160010154600e8681548110151561135157fe5b90600052602060002090600502016003018054806020026020016040519081016040528092919081815260200182805480156113ac57602002820191906000526020600020905b815481526020019060010190808311611398575b5050505050600e878154811015156113c057fe5b906000526020600020906005020160040180548060200260200160405190810160405280929190818152602001828054801561141b57602002820191906000526020600020905b815481526020019060010190808311611407575b5050505050600660009054906101000a9004600160a060020a0316600160a060020a0316638eaa6ac08c6040518263ffffffff1660e060020a028152600401808260001916600019168152602001915050602060405180830381600087803b15801561148657600080fd5b505af115801561149a573d6000803e3d6000fd5b505050506040513d60208110156114b057600080fd5b5051600754600354604080517f313ce5670000000000000000000000000000000000000000000000000000000081529051600160a060020a039092169163313ce567916004808201926020929091908290030181600087803b15801561151557600080fd5b505af1158015611529573d6000803e3d6000fd5b505050506040513d602081101561153f57600080fd5b505160ff168d61154d611e08565b1461167557600660009054906101000a9004600160a060020a0316600160a060020a031663b12e44108f6040518263ffffffff1660e060020a028152600401808260001916600019168152602001915050602060405180830381600087803b1580156115b857600080fd5b505af11580156115cc573d6000803e3d6000fd5b505050506040513d60208110156115e257600080fd5b5051604080517f313ce5670000000000000000000000000000000000000000000000000000000081529051600160a060020a039092169163313ce567916004808201926020929091908290030181600087803b15801561164157600080fd5b505af1158015611655573d6000803e3d6000fd5b505050506040513d602081101561166b57600080fd5b505160ff16611678565b60125b600354604080517f70a082310000000000000000000000000000000000000000000000000000000081523060048201529051600160a060020a03909216916370a08231916024808201926020929091908290030181600087803b1580156116de57600080fd5b505af11580156116f2573d6000803e3d6000fd5b505050506040513d602081101561170857600080fd5b505161244c565b92505b505092915050565b600154600160a060020a031681565b600554600160a060020a031690565b60075481565b600e5460009015806111625750600e8054429190600019810190811061176057fe5b6000918252602090912060059091020154640100000000900463ffffffff1610919050565b600e54600090811061179657600080fd5b600e805460001981019081106117a857fe5b6000918252602090912060059091020154640100000000900463ffffffff16919050565b600554600160a060020a031681565b6117e36141cb565b6117f38383600854600954612887565b9392505050565b600154600090600160a060020a0316331461181457600080fd5b600e54600010156118515742600e600081548110151561183057fe5b600091825260209091206005909102015463ffffffff161161185157600080fd5b8b151561185d57600080fd5b60ff8c111561186b57600080fd5b60ff88111561187957600080fd5b60028604881461188857600080fd5b6002840488111561189857600080fd5b8115156118a457600080fd5b5060005b8181101561195057600654600160a060020a0316637d20abf88484848181106118cd57fe5b6040805160e060020a63ffffffff87160281526020928302949094013560048501525160248085019492935090918290030181600087803b15801561191157600080fd5b505af1158015611925573d6000803e3d6000fd5b505050506040513d602081101561193b57600080fd5b5051151561194857600080fd5b6001016118a8565b6119e98d8d808060200260200160405190810160405280939291908181526020016000905b828210156119b1576040805160c08181019092529080840287019060069083908390808284375050509183525050600190910190602001611975565b50505050508c8c80806020026020016040519081016040528093929190818152602001838360200280828437506128d2945050505050565b611ab08989808060200260200160405190810160405280939291908181526020016000905b82821015611a4a576040805160808181019092529080840287019060049083908390808284375050509183525050600190910190602001611a0e565b50505050508888808060200260200160405190810160405280939291908181526020018383602002808284375050604080516020601f8e018190048102820181019092528c815294508c93508b9250829150840183828082843750612ddb945050505050565b611af083838080602002602001604051908101604052809392919081815260200183836020028082843750600c9594505063ffffffff6133391692505050565b50505050505050505050505050565b600f5460009081901580611b185750611b1661173e565b155b15611b2257610aa9565b5060015b600f546000190182108015611b6a5750600f805483908110611b4457fe5b6000918252602090912060059091020160020154640100000000900463ffffffff164210155b15610aa957600190910190611b26565b60008080805b600e54821015611bef57600e805483908110611b9857fe5b6000918252602090912060059091020180549091504263ffffffff90911611801590611bd3575080544264010000000090910463ffffffff16115b15611be45781600193509350611bf7565b600190910190611b80565b600093508392505b50509091565b600f805482908110611c0b57fe5b60009182526020918290206005919091020180546001808301546002808501546003860180546040805161010097831615979097026000190190911693909304601f810189900489028601890190935282855263ffffffff9586169850929685821696640100000000909204909516949093929190830182828015611cd15780601f10611ca657610100808354040283529160200191611cd1565b820191906000526020600020905b815481529060010190602001808311611cb457829003601f168201915b5050505060048301805460408051602060026001851615610100026000190190941693909304601f8101849004840282018401909252818152949594935090830182828015611d615780601f10611d3657610100808354040283529160200191611d61565b820191906000526020600020905b815481529060010190602001808311611d4457829003601f168201915b5050505050905086565b600154600160a060020a03163314611d8257600080fd5b600e5460001015611dbf5742600e6000815481101515611d9e57fe5b600091825260209091206005909102015463ffffffff1611611dbf57600080fd5b600a54611dd6908290600160a060020a031661340a565b50565b600154600160a060020a03163314611df057600080fd5b611dd681613460565b600354600160a060020a031681565b7f455448000000000000000000000000000000000000000000000000000000000090565b600654604080517fcfec719f000000000000000000000000000000000000000000000000000000008152600481018490529051611f769285928592600160a060020a039092169163cfec719f916024808201926020929091908290030181600087803b158015611e9b57600080fd5b505af1158015611eaf573d6000803e3d6000fd5b505050506040513d6020811015611ec557600080fd5b5051611ed2576000611f50565b6006546040805160e460020a630b12e441028152600481018790529051600160a060020a039092169163b12e4410916024808201926020929091908290030181600087803b158015611f2357600080fd5b505af1158015611f37573d6000803e3d6000fd5b505050506040513d6020811015611f4d57600080fd5b50515b600354600454600b54600a54600160a060020a03938416939283169291821691166134de565b5050565b600654604080517fcfec719f0000000000000000000000000000000000000000000000000000000081526004810184905290516120b3928792879287928792600160a060020a039091169163cfec719f916024808201926020929091908290030181600087803b158015611fed57600080fd5b505af1158015612001573d6000803e3d6000fd5b505050506040513d602081101561201757600080fd5b50516120245760006120a2565b6006546040805160e460020a630b12e441028152600481018990529051600160a060020a039092169163b12e4410916024808201926020929091908290030181600087803b15801561207557600080fd5b505af1158015612089573d6000803e3d6000fd5b505050506040513d602081101561209f57600080fd5b50515b600354600160a060020a031661386d565b50505050565b6120c1611e08565b81141561219557600554600160a060020a031663d0baf2f56120f984600160200201518660015b60200201519063ffffffff613b5d16565b855160208601513391908690612111908a60016120e8565b89600260200201516040805160e060020a63ffffffff8a16028152600160a060020a03909616600487015260248601949094526044850192909252606484015260848301525160a480830192600092919082900301818588803b15801561217757600080fd5b505af115801561218b573d6000803e3d6000fd5b5050505050612372565b6006546040805160e460020a630b12e441028152600481018490529051600160a060020a039092169163b12e4410916024808201926020929091908290030181600087803b1580156121e657600080fd5b505af11580156121fa573d6000803e3d6000fd5b505050506040513d602081101561221057600080fd5b5051600554600160a060020a039182169163a9059cbb911661223c8560015b60200201518760016120e8565b6040518363ffffffff1660e060020a0281526004018083600160a060020a0316600160a060020a0316815260200182815260200192505050602060405180830381600087803b15801561228e57600080fd5b505af11580156122a2573d6000803e3d6000fd5b505050506040513d60208110156122b857600080fd5b505115156122c557600080fd5b600554600160a060020a031663d0baf2f5338560006020020151846122f387600160200201518960016120e8565b88600260200201516040805160e060020a63ffffffff8916028152600160a060020a03909616600487015260248601949094526044850192909252606484015260848301525160a480830192600092919082900301818387803b15801561235957600080fd5b505af115801561236d573d6000803e3d6000fd5b505050505b505050565b6000908152600191909101602052604090205460ff1690565b6000805b83518110156123e75783818151811015156123ab57fe5b6020908102909101015185106123da5782818151811015156123c957fe5b9060200190602002015191506123df565b6123e7565b600101612394565b509392505050565b60608160000180548060200260200160405190810160405280929190818152602001828054801561244057602002820191906000526020600020905b8154815260019091019060200180831161242b575b50505050509050919050565b6124546141ac565b60006124658c8c8989878a8a613b6f565b151561247057600080fd5b73__Utils_________________________________6376ba78988c868a6040518463ffffffff1660e060020a02815260040180848152602001838152602001828152602001935050505060206040518083038186803b1580156124d257600080fd5b505af41580156124e6573d6000803e3d6000fd5b505050506040513d60208110156124fc57600080fd5b50516040830181905286111561251157600080fd5b6040820151612521908a8a612390565b905060008a1161253157856125b7565b6125b78a73__Percent_______________________________63d49d51816040518163ffffffff1660e060020a02815260040160206040518083038186803b15801561257c57600080fd5b505af4158015612590573d6000803e3d6000fd5b505050506040513d60208110156125a657600080fd5b50518891900363ffffffff613bc716565b82600460200201818152505073__Utils_________________________________63a5a55fcf61266e6126638473__Percent_______________________________63d49d51816040518163ffffffff1660e060020a02815260040160206040518083038186803b15801561262b57600080fd5b505af415801561263f573d6000803e3d6000fd5b505050506040513d602081101561265557600080fd5b50519063ffffffff613bf016565b604086015190613bfd565b8785600460200201516040518463ffffffff1660e060020a02815260040180848152602001838152602001828152602001935050505060206040518083038186803b1580156126bc57600080fd5b505af41580156126d0573d6000803e3d6000fd5b505050506040513d60208110156126e657600080fd5b50518083528310156127a5576080820151604080517f76ba7898000000000000000000000000000000000000000000000000000000008152600481018690526024810188905260448101929092525173__Utils_________________________________916376ba7898916064808301926020929190829003018186803b15801561277057600080fd5b505af4158015612784573d6000803e3d6000fd5b505050506040513d602081101561279a57600080fd5b505160408301528282525b73__Utils_________________________________63a5a55fcf8360026020020151868a6040518463ffffffff1660e060020a02815260040180848152602001838152602001828152602001935050505060206040518083038186803b15801561280e57600080fd5b505af4158015612822573d6000803e3d6000fd5b505050506040513d602081101561283857600080fd5b505160208301819052158061284c57508151155b156128635760008083526020830181905260408301525b6020820151612873908c90613b5d565b6060830152509a9950505050505050505050565b61288f6141cb565b60008311156128ab576128a8858463ffffffff613bfd16565b81525b60008211156128ca576128c4848363ffffffff613bfd16565b60208201525b949350505050565b600f5460009081101561292f578251839060001981019081106128f157fe5b6020908102919091018101510151600f8054600090811061290e57fe5b600091825260209091206005909102015463ffffffff161161292f57600080fd5b61293b600e60006141e6565b5060005b82518160ff161015612dad57825163ffffffff90849060ff841690811061296257fe5b602090810291909101015151111561297957600080fd5b825163ffffffff90849060ff841690811061299057fe5b602090810291909101810151015111156129a957600080fd5b825163ffffffff90849060ff84169081106129c057fe5b60209081029190910101516060015111156129da57600080fd5b825160ff9084908383169081106129ed57fe5b6020908102919091010151608001511115612a0757600080fd5b825160ff908490838316908110612a1a57fe5b602090810291909101015160a001511115612a3457600080fd5b42838260ff16815181101515612a4657fe5b60209081029190910101515111612a5c57600080fd5b828160ff16815181101515612a6d57fe5b60209081029190910181015101518351849060ff8416908110612a8c57fe5b60209081029190910101515110612aa257600080fd5b60008160ff161115612af957828160ff16815181101515612abf57fe5b6020908102919091010151518351849060ff600019850116908110612ae057fe5b60209081029190910181015101511115612af957600080fd5b612b24838260ff16815181101515612b0d57fe5b6020908102909101015160025b6020020151613c11565b1515612b2f57600080fd5b73__Percent_______________________________63d49d51816040518163ffffffff1660e060020a02815260040160206040518083038186803b158015612b7657600080fd5b505af4158015612b8a573d6000803e3d6000fd5b505050506040513d6020811015612ba057600080fd5b50518351849060ff8416908110612bb357fe5b60209081029190910101516040015110612bcc57600080fd5b600e60c060405190810160405280858460ff16815181101515612beb57fe5b6020908102919091018101515163ffffffff1682528651910190869060ff8616908110612c1457fe5b602090810290910101516001602002015163ffffffff168152602001858460ff16815181101515612c4157fe5b60209081029091010151600260200201518152602001858460ff16815181101515612c6857fe5b6020908102919091018101516060015163ffffffff16825260408051600080825281840183528484019190915281518181529283018252920191509052815460018082018085556000948552602094859020845160059094020180548587015163ffffffff1991821663ffffffff9687161767ffffffff000000001916640100000000918716919091021782556040860151938201939093556060850151600282018054909416941693909317909155608083015180519194612d3392600385019290910190614207565b5060a08201518051612d4f916004840191602090910190614207565b50505050612da56001600e8054905003848360ff16815181101515612d7057fe5b6020908102919091010151608001518551869060ff8616908110612d9057fe5b602090810291909101015160a0015185613c36565b60010161293f565b6040517f743961f4e677d1146fbf85d75565b1c5474fd083eb166f8b9595cf5d01a4d6e690600090a1505050565b6000806000806060806000600e805490501115612e4857886000815181101515612e0157fe5b602090810291909101015151600e80546000198101908110612e1f57fe5b6000918252602090912060059091020154640100000000900463ffffffff1610612e4857600080fd5b612e54600f600061424e565b600095506000945060009350600092505b88518360ff16101561328757885163ffffffff908a9060ff8616908110612e8857fe5b6020908102919091010151511115612e9f57600080fd5b885163ffffffff908a9060ff8616908110612eb657fe5b60209081029190910181015101511115612ecf57600080fd5b885163ffffffff908a9060ff8616908110612ee657fe5b6020908102919091010151604001511115612f0057600080fd5b42898460ff16815181101515612f1257fe5b60209081029190910101515111612f2857600080fd5b888360ff16815181101515612f3957fe5b60209081029190910101515189518a9060ff8616908110612f5657fe5b602090810291909101810151015111612f6e57600080fd5b888360ff16815181101515612f7f57fe5b602090810291909101810151015189518a9060ff8616908110612f9e57fe5b60209081029190910101516040015111612fb757600080fd5b60008360ff16111561300e57888360ff16815181101515612fd457fe5b60209081029190910101515189518a9060ff600019870116908110612ff557fe5b6020908102919091010151604001511061300e57600080fd5b613033898460ff1681518110151561302257fe5b602090810290910101516003612b1a565b151561303e57600080fd5b61307086898781518110151561305057fe5b9060200190602002015163ffffffff1689613fa39092919063ffffffff16565b91506130a2888681518110151561308357fe5b9060200190602002015163ffffffff1687613bf090919063ffffffff16565b95506130b986898760010181518110151561305057fe5b90506130cf888660010181518110151561308357fe5b95506130e285600263ffffffff613bf016565b945061310e898460ff168151811015156130f857fe5b6020908102919091010151606001518590613bf0565b9350600f60c0604051908101604052808b8660ff1681518110151561312f57fe5b6020908102919091018101515163ffffffff1682528c519101908c9060ff881690811061315857fe5b602090810290910101516003602002015181526020018b8660ff1681518110151561317f57fe5b602090810290910101516001602002015163ffffffff1681526020018b8660ff168151811015156131ac57fe5b6020908102909101015160026020908102919091015163ffffffff90811683528282018790526040928301869052845460018181018088556000978852968490208651600590930201805492841663ffffffff19938416178155868501519181019190915593850151600285018054606088015185166401000000000267ffffffff000000001993909516931692909217169190911790556080830151805161325b926003850192019061426f565b5060a0820151805161327791600484019160209091019061426f565b505060019094019350612e659050565b73__Percent_______________________________63d49d51816040518163ffffffff1660e060020a02815260040160206040518083038186803b1580156132ce57600080fd5b505af41580156132e2573d6000803e3d6000fd5b505050506040513d60208110156132f857600080fd5b5051841461330557600080fd5b6040517f56d9a2e016027a3725bf162ef2779c8b28d4dbec97c679cfba02dbb31a34c7ca90600090a1505050505050505050565b81546000901561339c575060005b825481101561339c576000836001016000856000018481548110151561336957fe5b60009182526020808320919091015483528201929092526040019020805460ff1916911515919091179055600101613347565b81516133ae90849060208501906142dc565b50815115612372575060005b815181101561237257600183600101600084848151811015156133d957fe5b6020908102919091018101518252810191909152604001600020805460ff19169115159190911790556001016133ba565b6000821161341757600080fd5b600160a060020a038116151561342c57600080fd5b600791909155600a805473ffffffffffffffffffffffffffffffffffffffff1916600160a060020a03909216919091179055565b600160a060020a038116151561347557600080fd5b600154604051600160a060020a038084169216907f8be0079c531659141344cd1fd0a4f28419497f9722a3daafe3b4186f6b6457e090600090a36001805473ffffffffffffffffffffffffffffffffffffffff1916600160a060020a0392909216919091179055565b600160a060020a03831615156134f357600080fd5b600160a060020a038416151561350857600080fd5b600160a060020a038216151561351d57600080fd5b600160a060020a038116151561353257600080fd5b6020870151600010801561354d5750613549611e08565b8614155b1561356757600160a060020a038516151561356757600080fd5b8651600010156136c5578651604080517f23b872dd000000000000000000000000000000000000000000000000000000008152600160a060020a038581166004830152848116602483015260448201939093529051918516916323b872dd916064808201926020929091908290030181600087803b1580156135e857600080fd5b505af11580156135fc573d6000803e3d6000fd5b505050506040513d602081101561361257600080fd5b5051151561361f57600080fd5b8651604080517fa9059cbb000000000000000000000000000000000000000000000000000000008152600160a060020a038581166004830152602482019390935290519186169163a9059cbb916044808201926020929091908290030181600087803b15801561368e57600080fd5b505af11580156136a2573d6000803e3d6000fd5b505050506040513d60208110156136b857600080fd5b505115156136c557600080fd5b60208701516000101561236d576136da611e08565b861415613720576020870151604051600160a060020a0383169180156108fc02916000818181858888f1935050505015801561371a573d6000803e3d6000fd5b5061236d565b602080880151604080517fdd62ed3e00000000000000000000000000000000000000000000000000000000815233600482015230602482015290519192600160a060020a0389169263dd62ed3e9260448082019392918290030181600087803b15801561378c57600080fd5b505af11580156137a0573d6000803e3d6000fd5b505050506040513d60208110156137b657600080fd5b505110156137c357600080fd5b602080880151604080517f23b872dd000000000000000000000000000000000000000000000000000000008152336004820152600160a060020a03858116602483015260448201939093529051918816926323b872dd926064808401938290030181600087803b15801561383657600080fd5b505af115801561384a573d6000803e3d6000fd5b505050506040513d602081101561386057600080fd5b5051151561236d57600080fd5b600160a060020a038116151561388257600080fd5b8551151561388f57600080fd5b6020860151151561389f57600080fd5b84518651116138ad57600080fd5b60208086015190870151116138c157600080fd5b6138c9611e08565b8314156138e15760208601513410156138e157600080fd5b6138e9611e08565b8314613a5c57600160a060020a038216151561390457600080fd5b61390f85600161222f565b604080517fdd62ed3e0000000000000000000000000000000000000000000000000000000081523360048201523060248201529051600160a060020a0385169163dd62ed3e9160448083019260209291908290030181600087803b15801561397657600080fd5b505af115801561398a573d6000803e3d6000fd5b505050506040513d60208110156139a057600080fd5b505110156139ad57600080fd5b600160a060020a0382166323b872dd33306139d189600160200201518b60016120e8565b6040805160e060020a63ffffffff8716028152600160a060020a0394851660048201529290931660248301526044820152905160648083019260209291908290030181600087803b158015613a2557600080fd5b505af1158015613a39573d6000803e3d6000fd5b505050506040513d6020811015613a4f57600080fd5b50511515613a5c57600080fd5b8551604080517f9d2e4777000000000000000000000000000000000000000000000000000000008152336004820152602481019290925263ffffffff8616604483015251600160a060020a03831691639d2e47779160648083019260209291908290030181600087803b158015613ad257600080fd5b505af1158015613ae6573d6000803e3d6000fd5b505050506040513d6020811015613afc57600080fd5b50511515613b0957600080fd5b606086015160001015613b5557613b1e611e08565b831415613b55576060860151604051339180156108fc02916000818181858888f1935050505015801561236d573d6000803e3d6000fd5b505050505050565b600082821115613b6957fe5b50900390565b60008087118015613b805750600086115b8015613b8c5750600085115b8015613b9b575082600a0a8410155b9050613ba5611e08565b881415613bbc57808015613bb95750816012145b90505b979650505050505050565b60006117f3613bd4614024565b613be4858563ffffffff61403616565b9063ffffffff61405f16565b81810182811015610a6557fe5b60006117f38383613c0c614024565b614074565b6000613c1b614190565b8210158015610a655750613c2d614024565b90911115919050565b606080600060ff8616158015613c4d575060ff8516155b15613cdb57604080516000815260208101909152600e805460ff8a16908110613c7257fe5b90600052602060002090600502016003019080519060200190613c96929190614207565b50604080516000815260208101909152600e805460ff8a16908110613cb757fe5b9060005260206000209060050201600401908051906020019061371a929190614207565b835160ff86161115613cec57600080fd5b60ff80861690871610613cfe57600080fd5b6001861615613d0c57600080fd5b6001851615613d1a57600080fd5b600260ff878703160460ff16604051908082528060200260200182016040528015613d4f578160200160208202803883390190505b509250600260ff878703160460ff16604051908082528060200260200182016040528015613d87578160200160208202803883390190505b509150600090505b8460ff168660ff161015613f2a57613dc3848760010160ff16815181101515613db457fe5b90602001906020020151613c11565b1515613dce57600080fd5b73__Percent_______________________________63d49d51816040518163ffffffff1660e060020a02815260040160206040518083038186803b158015613e1557600080fd5b505af4158015613e29573d6000803e3d6000fd5b505050506040513d6020811015613e3f57600080fd5b50518451859060ff60018a0116908110613e5557fe5b6020908102909101015110613e6957600080fd5b6000811115613eb257838660ff16815181101515613e8357fe5b906020019060200201518360018303815181101515613e9e57fe5b6020908102909101015110613eb257600080fd5b838660ff16815181101515613ec357fe5b906020019060200201518382815181101515613edb57fe5b602090810290910101528351849060ff6001890116908110613ef957fe5b906020019060200201518282815181101515613f1157fe5b6020908102909101015260029590950194600101613d8f565b82600e8860ff16815481101515613f3d57fe5b90600052602060002090600502016003019080519060200190613f61929190614207565b5081600e8860ff16815481101515613f7557fe5b90600052602060002090600502016004019080519060200190613f99929190614207565b5050505050505050565b606080828401855110151515613fb857600080fd5b82158015613fd15760405191506020820160405261401b565b6040519150601f8416801560200281840101858101878315602002848b0101015b8183101561400a578051835260209283019201613ff2565b5050858452601f01601f1916604052505b50949350505050565b600061402e614195565b600a0a905090565b600082151561404757506000610a65565b5081810281838281151561405757fe5b0414610a6557fe5b6000818381151561406c57fe5b049392505050565b60008080808085151561408357fe5b87158061408e575086155b1561409857614185565b6140aa6000198863ffffffff61405f16565b92508288116140ce576140c786613be48a8a63ffffffff61403616565b9450614185565b858814156140de57869450614185565b858714156140ee57879450614185565b871561416f578783116141015782614103565b875b9150614115828863ffffffff61403616565b905061413761412a828863ffffffff61405f16565b869063ffffffff613bf016565b9450614156868281151561414757fe5b8691900663ffffffff613bf016565b9350614168888363ffffffff613b5d16565b97506140ee565b61418261412a858863ffffffff61405f16565b94505b505050509392505050565b600090565b600061419f6141a7565b600201905090565b600290565b60a0604051908101604052806005906020820280388339509192915050565b60408051808201825290600290829080388339509192915050565b5080546000825560050290600052602060002090810190611dd69190614319565b828054828255906000526020600020908101928215614242579160200282015b82811115614242578251825591602001919060010190614227565b50611188929150614372565b5080546000825560050290600052602060002090810190611dd6919061438c565b828054600181600116156101000203166002900490600052602060002090601f016020900481019282601f106142b057805160ff1916838001178555614242565b828001600101855582156142425791820182811115614242578251825591602001919060010190614227565b828054828255906000526020600020908101928215614242579160200282015b8281111561424257825182556020909201916001909101906142fc565b61112f91905b8082111561118857805467ffffffffffffffff1916815560006001820181905560028201805463ffffffff1916905561435b60038301826143e5565b6143696004830160006143e5565b5060050161431f565b61112f91905b808211156111885760008155600101614378565b61112f91905b8082111561118857805463ffffffff1916815560006001820181905560028201805467ffffffffffffffff191690556143ce6003830182614403565b6143dc600483016000614403565b50600501614392565b5080546000825590600052602060002090810190611dd69190614372565b50805460018160011615610100020316600290046000825580601f106144295750611dd6565b601f016020900490600052602060002090810190611dd69190614372565b600061445282613c11565b151561445d57600080fd5b610a656144686141a7565b8390600a0a63ffffffff61405f165600a165627a7a723058202342b88ad61b0780c18df5bad6bf46006e8ba44f4e4efd9edf7cf615b579c9400029",
  "source": "pragma solidity ^0.4.24;\n\nimport \"openzeppelin-solidity/contracts/ownership/Ownable.sol\";\nimport \"openzeppelin-solidity/contracts/ReentrancyGuard.sol\";\nimport \"openzeppelin-solidity/contracts/math/SafeMath.sol\";\nimport \"openzeppelin-solidity/contracts/token/ERC20/ERC20.sol\";\nimport \"openzeppelin-solidity/contracts/token/ERC20/DetailedERC20.sol\";\nimport \"solidity-bytes-utils/contracts/BytesLib.sol\";\nimport \"./IW12Crowdsale.sol\";\nimport \"./IW12Fund.sol\";\nimport \"../rates/IRates.sol\";\nimport \"../libs/Percent.sol\";\nimport \"../libs/PaymentMethods.sol\";\nimport \"../libs/PurchaseProcessing.sol\";\nimport \"../versioning/Versionable.sol\";\nimport \"../token/IWToken.sol\";\n\ncontract W12Crowdsale is Versionable, IW12Crowdsale, Ownable, ReentrancyGuard {\n    using SafeMath for uint;\n    using Percent for uint;\n    using BytesLib for bytes;\n    using PaymentMethods for PaymentMethods.Methods;\n\n    IWToken public token;\n    ERC20 public originToken;\n    IW12Fund public fund;\n    IRates public rates;\n    uint public price;\n    uint public serviceFee;\n    uint public WTokenSaleFeePercent;\n    address public serviceWallet;\n    address public swap;\n\n    // list of payment methods\n    PaymentMethods.Methods paymentMethods;\n\n    Stage[] public stages;\n    Milestone[] public milestones;\n\n    struct Stage {\n        uint32 startDate;\n        uint32 endDate;\n        uint discount;\n        uint32 vesting;\n        uint[] volumeBoundaries;\n        uint[] volumeBonuses;\n    }\n\n    struct Milestone {\n        uint32 endDate;\n        uint tranchePercent;\n        uint32 voteEndDate;\n        uint32 withdrawalWindow;\n        bytes name;\n        bytes description;\n    }\n\n    event TokenPurchase(address indexed buyer, uint tokensBought, uint cost, uint change);\n    event StagesUpdated();\n    event StageUpdated(uint index);\n    event MilestonesUpdated();\n    event UnsoldTokenReturned(address indexed owner, uint amount);\n\n    constructor (\n        uint version,\n        address _originToken,\n        address _token,\n        uint _price,\n        address _serviceWallet,\n        address _swap,\n        uint _serviceFee,\n        uint _WTokenSaleFeePercent,\n        IW12Fund _fund,\n        IRates _rates\n    )\n        Versionable(version) public\n    {\n        require(_originToken != address(0));\n        require(_token != address(0));\n        require(_serviceFee.isPercent() && _serviceFee.fromPercent() < 100);\n        require(_WTokenSaleFeePercent.isPercent() && _WTokenSaleFeePercent.fromPercent() < 100);\n        require(_fund != address(0));\n        require(_swap != address(0));\n        require(_rates != address(0));\n\n        __setParameters(_price, _serviceWallet);\n\n        token = IWToken(_token);\n        originToken = ERC20(_originToken);\n        serviceFee = _serviceFee;\n        swap = _swap;\n        WTokenSaleFeePercent = _WTokenSaleFeePercent;\n        fund = _fund;\n        rates = _rates;\n    }\n\n    function stagesLength() external view returns (uint) {\n        return stages.length;\n    }\n\n    function milestonesLength() external view returns (uint) {\n        return milestones.length;\n    }\n\n    function getMilestone(uint index) public view returns (uint32, uint, uint32, uint32, bytes, bytes) {\n        return (\n            milestones[index].endDate,\n            milestones[index].tranchePercent,\n            milestones[index].voteEndDate,\n            milestones[index].withdrawalWindow,\n            milestones[index].name,\n            milestones[index].description\n        );\n    }\n\n    function getStage(uint index) public view returns (uint32, uint32, uint, uint32, uint[], uint[]) {\n        return (\n            stages[index].startDate,\n            stages[index].endDate,\n            stages[index].discount,\n            stages[index].vesting,\n            stages[index].volumeBoundaries,\n            stages[index].volumeBonuses\n        );\n    }\n\n    function getEndDate() external view returns (uint32) {\n        require(stages.length > 0);\n\n        return stages[stages.length - 1].endDate;\n    }\n\n    /**\n     * @dev Returns index of active milestone or last milestone\n     */\n    function getCurrentMilestoneIndex() public view returns (uint index, bool found) {\n        if(milestones.length == 0 || !isEnded()) return;\n\n        found = true;\n\n        // from withdrawalWindow begins next milestone\n        while(index < milestones.length - 1 && now >= milestones[index].withdrawalWindow) {\n            index++;\n        }\n    }\n\n    function getLastMilestoneIndex() public view returns (uint index, bool found) {\n        if (milestones.length == 0 || !isEnded()) return;\n\n        found = true;\n        index = milestones.length - 1;\n    }\n\n    function __setParameters(uint _price, address _serviceWallet) internal {\n        require(_price > 0);\n        require(_serviceWallet != address(0));\n\n        price = _price;\n        serviceWallet = _serviceWallet;\n    }\n\n    function setParameters(uint _price) external onlyOwner beforeSaleStart {\n        __setParameters(_price, serviceWallet);\n    }\n\n    /**\n     * @dev Setup all crowdsale parameters at a time\n     */\n    function setup(\n        uint[6][] parametersOfStages,\n        uint[] bonusConditionsOfStages,\n        uint[4][] parametersOfMilestones,\n        uint32[] nameAndDescriptionsOffsetOfMilestones,\n        bytes nameAndDescriptionsOfMilestones,\n        bytes32[] paymentMethodsList\n    )\n        external onlyOwner beforeSaleStart\n    {\n        // primary check of parameters of stages\n        require(parametersOfStages.length != 0);\n        require(parametersOfStages.length <= uint8(- 1));\n\n        // primary check of parameters of milestones\n        require(parametersOfMilestones.length <= uint8(- 1));\n        require(parametersOfMilestones.length == nameAndDescriptionsOffsetOfMilestones.length / 2);\n        require(parametersOfMilestones.length <= nameAndDescriptionsOfMilestones.length / 2);\n\n        // check payment methods list\n        require(paymentMethodsList.length != 0);\n\n        for (uint i = 0; i < paymentMethodsList.length; i++) {\n            require(rates.hasSymbol(paymentMethodsList[i]));\n        }\n\n        _setStages(\n            parametersOfStages,\n            bonusConditionsOfStages\n        );\n\n        _setMilestones(\n            parametersOfMilestones,\n            nameAndDescriptionsOffsetOfMilestones,\n            nameAndDescriptionsOfMilestones\n        );\n\n        paymentMethods.update(paymentMethodsList);\n    }\n\n    /**\n     * @dev Update stages\n     * @param parameters List of primary parameters:\n     * [\n     *   uint32 startDate,\n     *   uint32 endDate,\n     *   uint discount,\n     *   uint32 vesting,\n     *   uint8 startIndexOfBonusConditions\n     *   uint8 endIndexOfBonusConditions\n     * ],\n     * @param bonusConditions List of bonus conditions:\n     * [uint boundary, uint bonus, ...]\n     */\n    function _setStages(uint[6][] parameters, uint[] bonusConditions) internal {\n        if (milestones.length > 0) {\n            // end date of firs milestone must be greater then end date of last stage\n            require(milestones[0].endDate > parameters[parameters.length - 1][1]);\n        }\n\n        delete stages;\n\n        for (uint8 i = 0; i < parameters.length; i++) {\n            // check overflow\n            require(parameters[i][0] <= uint32(-1));\n            require(parameters[i][1] <= uint32(-1));\n            require(parameters[i][3] <= uint32(-1));\n            require(parameters[i][4] <= uint8(-1));\n            require(parameters[i][5] <= uint8(-1));\n\n            // check dates\n            require(parameters[i][0] > now);\n            require(parameters[i][0] < parameters[i][1]);\n\n            if (i > 0) {\n                require(parameters[i - 1][1] <= parameters[i][0]);\n            }\n\n            // check discount\n            require(parameters[i][2].isPercent());\n            require(parameters[i][2] < Percent.MAX());\n\n            stages.push(Stage({\n                startDate: uint32(parameters[i][0]),\n                endDate: uint32(parameters[i][1]),\n                discount: parameters[i][2],\n                vesting: uint32(parameters[i][3]),\n                volumeBoundaries: new uint[](0),\n                volumeBonuses: new uint[](0)\n            }));\n\n            _setStageBonusConditions(\n                uint8(stages.length - 1),\n                uint8(parameters[i][4]),\n                uint8(parameters[i][5]),\n                bonusConditions\n            );\n        }\n\n        emit StagesUpdated();\n    }\n\n    /**\n     * @dev Set stage bonus conditions by stage index\n     * @param bonusConditions List of bonus conditions:\n     * [uint boundary, uint bonus, ...]\n     */\n    function _setStageBonusConditions(uint8 stageIndex, uint8 start, uint8 end, uint[] bonusConditions) internal {\n        if (start == 0 && end == 0) {\n            stages[stageIndex].volumeBoundaries = new uint[](0);\n            stages[stageIndex].volumeBonuses = new uint[](0);\n\n            return;\n        }\n\n        require(end <= bonusConditions.length);\n        require(start < end);\n        require(start % 2 == 0);\n        require(end % 2 == 0);\n\n        uint[] memory boundaries = new uint[]((end - start) / 2);\n        uint[] memory bonuses = new uint[]((end - start) / 2);\n        uint k = 0;\n\n        while (start < end) {\n            // check bonus\n            require(bonusConditions[start + 1].isPercent());\n            require(bonusConditions[start + 1] < Percent.MAX());\n\n            // check boundary\n            if (k > 0) {\n                require(boundaries[k - 1] < bonusConditions[start]);\n            }\n\n            boundaries[k] = bonusConditions[start];\n            bonuses[k] = bonusConditions[start + 1];\n            k++;\n            start += 2;\n        }\n\n        stages[stageIndex].volumeBoundaries = boundaries;\n        stages[stageIndex].volumeBonuses = bonuses;\n    }\n\n    /**\n     * @dev Update milestones\n     * @param parameters List of primary parameters:\n     * [\n     *   uint32 endDate,\n     *   uint32 voteEndDate,\n     *   uint32 withdrawalWindow,\n     *   uint tranchPercent\n     * ]\n     * @param offsets Offsets of names and descriptions in namesAndDescriptions:\n     * [uint32 offset1, uint32 offset2, ...]\n     * @param namesAndDescriptions Names and descriptions\n     */\n    function _setMilestones(\n        uint[4][] parameters,\n        uint32[] offsets,\n        bytes namesAndDescriptions\n    )\n        internal\n    {\n        if (stages.length > 0) {\n            require(stages[stages.length - 1].endDate < parameters[0][0]);\n        }\n\n        delete milestones;\n\n        uint offset = 0;\n        uint k = 0;\n        uint totalPercents = 0;\n\n        for (uint8 i = 0; i < parameters.length; i++) {\n            // check overflow\n            require(parameters[i][0] <= uint32(- 1));\n            require(parameters[i][1] <= uint32(- 1));\n            require(parameters[i][2] <= uint32(- 1));\n\n            // check dates\n            require(parameters[i][0] > now);\n            require(parameters[i][1] > parameters[i][0]);\n            require(parameters[i][2] > parameters[i][1]);\n\n            if (i > 0) {\n                require(parameters[i - 1][2] < parameters[i][0]);\n            }\n\n            // check tranch percent\n            require(parameters[i][3].isPercent());\n\n            bytes memory name = namesAndDescriptions.slice(offset, offsets[k]);\n            offset = offset.add(offsets[k]);\n            bytes memory description = namesAndDescriptions.slice(offset, offsets[k + 1]);\n            offset = offset.add(offsets[k + 1]);\n            k = k.add(2);\n\n            totalPercents = totalPercents.add(parameters[i][3]);\n\n            milestones.push(Milestone({\n                endDate: uint32(parameters[i][0]),\n                tranchePercent: parameters[i][3],\n                voteEndDate: uint32(parameters[i][1]),\n                withdrawalWindow: uint32(parameters[i][2]),\n                name: name,\n                description: description\n            }));\n        }\n\n        require(totalPercents == Percent.MAX());\n\n        emit MilestonesUpdated();\n    }\n\n    function buyTokens(bytes32 method, uint amount) payable public nonReentrant onlyWhenSaleActive {\n        if (PurchaseProcessing.METHOD_ETH() != method) {\n            require(rates.getTokenAddress(method) != address(0));\n        }\n\n        (uint index, /*bool found*/) = getCurrentStageIndex();\n\n        uint[5] memory invoice = getInvoice(method, amount);\n        uint[2] memory fee = getFee(invoice[0], invoice[1]);\n\n        _transferFee(fee, method);\n        _transferPurchase(invoice, fee, stages[index].vesting, method);\n        _recordPurchase(invoice, fee, method);\n\n        emit TokenPurchase(msg.sender, invoice[0], invoice[1], invoice[3]);\n    }\n\n    function _transferFee(uint[2] _fee, bytes32 method) internal {\n        PurchaseProcessing.transferFee(\n            _fee,\n            method,\n            rates.isToken(method) ? rates.getTokenAddress(method) : address(0),\n            address(token),\n            address(originToken),\n            swap,\n            serviceWallet\n        );\n    }\n\n    function _transferPurchase(uint[5] _invoice, uint[2] _fee, uint32 vesting, bytes32 method) internal {\n        PurchaseProcessing.transferPurchase(\n            _invoice,\n            _fee,\n            vesting,\n            method,\n            rates.isToken(method) ? rates.getTokenAddress(method) : address(0),\n            address(token)\n        );\n    }\n\n    function _recordPurchase(uint[5] _invoice, uint[2] _fee, bytes32 method) internal {\n        if (method == PurchaseProcessing.METHOD_ETH()) {\n            fund.recordPurchase.value(_invoice[1].sub(_fee[1]))(msg.sender, _invoice[0], method, _invoice[1].sub(_fee[1]), _invoice[2]);\n        } else {\n            require(ERC20(rates.getTokenAddress(method)).transfer(address(fund), _invoice[1].sub(_fee[1])));\n            fund.recordPurchase(msg.sender, _invoice[0], method, _invoice[1].sub(_fee[1]), _invoice[2]);\n        }\n    }\n\n    function getWToken() external view returns(IWToken) {\n        return token;\n    }\n\n    function getFund() external view returns(IW12Fund) {\n        return fund;\n    }\n\n    function getPaymentMethodsList() external view returns(bytes32[]) {\n        return paymentMethods.list();\n    }\n\n    function isPaymentMethodAllowed(bytes32 _method) external view returns (bool) {\n        return paymentMethods.isAllowed(_method);\n    }\n\n    function getInvoice(bytes32 method, uint amount) public view returns (uint[5]) {\n        (uint index, bool found) = getCurrentStageIndex();\n\n        if (!found) return;\n\n        if (PurchaseProcessing.METHOD_ETH() != method) {\n            if (rates.getTokenAddress(method) == address(0)) {\n                return;\n            }\n        }\n\n        return PurchaseProcessing.invoice(\n            method,\n            amount,\n            stages[index].discount,\n            stages[index].volumeBoundaries,\n            stages[index].volumeBonuses,\n            rates.get(method),\n            price,\n            uint(token.decimals()),\n            PurchaseProcessing.METHOD_ETH() == method\n                ? 18\n                : uint(DetailedERC20(rates.getTokenAddress(method)).decimals()),\n            token.balanceOf(address(this))\n        );\n    }\n\n    function getFee(uint tokenAmount, uint cost) public view returns(uint[2]) {\n        return PurchaseProcessing.fee(tokenAmount, cost, serviceFee, WTokenSaleFeePercent);\n    }\n\n    function getSaleVolumeBonus(uint value) public view returns(uint bonus) {\n        (uint index, bool found) = getCurrentStageIndex();\n\n        if (!found) return;\n\n        Stage storage stage = stages[index];\n\n        return PurchaseProcessing.getBonus(value, stage.volumeBoundaries, stage.volumeBonuses);\n    }\n\n    function getCurrentStageIndex() public view returns (uint index, bool found) {\n        for(uint i = 0; i < stages.length; i++) {\n            Stage storage stage = stages[i];\n\n            if (stage.startDate <= now && stage.endDate > now) {\n                return (i, true);\n            }\n        }\n\n        return (0, false);\n    }\n\n    function claimRemainingTokens() external onlyOwner {\n        require(isEnded());\n\n        uint amount = token.balanceOf(address(this));\n\n        require(token.transfer(owner, amount));\n\n        emit UnsoldTokenReturned(owner, amount);\n    }\n\n    function isEnded() public view returns (bool) {\n        return stages.length == 0 || stages[stages.length - 1].endDate < now;\n    }\n\n    function isSaleActive() public view returns (bool) {\n        (, bool found) = getCurrentStageIndex();\n\n        return found;\n    }\n\n    modifier beforeSaleStart() {\n        if (stages.length > 0) {\n            require(stages[0].startDate > now);\n        }\n\n        _;\n    }\n\n    modifier onlyWhenSaleActive() {\n        require(isSaleActive(), \"Sale is not started yet\");\n\n        _;\n    }\n}\n",
  "sourcePath": "/home/circleci/code/contracts/crowdsale/W12Crowdsale.sol",
  "compiler": {
    "name": "solc",
    "version": "0.4.24+commit.e67f0147.Emscripten.clang"
  },
  "schemaVersion": "2.0.1",
  "updatedAt": "2018-10-22T07:59:52.102Z"
}