{
  "contractName": "W12Crowdsale",
  "abi": [
    {
      "constant": true,
      "inputs": [],
      "name": "originToken",
      "outputs": [
        {
          "name": "",
          "type": "address"
        }
      ],
      "payable": false,
      "stateMutability": "view",
      "type": "function"
    },
    {
      "constant": true,
      "inputs": [],
      "name": "WTokenSaleFeePercent",
      "outputs": [
        {
          "name": "",
          "type": "uint256"
        }
      ],
      "payable": false,
      "stateMutability": "view",
      "type": "function"
    },
    {
      "constant": true,
      "inputs": [],
      "name": "serviceWallet",
      "outputs": [
        {
          "name": "",
          "type": "address"
        }
      ],
      "payable": false,
      "stateMutability": "view",
      "type": "function"
    },
    {
      "constant": false,
      "inputs": [],
      "name": "renounceOwnership",
      "outputs": [],
      "payable": false,
      "stateMutability": "nonpayable",
      "type": "function"
    },
    {
      "constant": true,
      "inputs": [
        {
          "name": "",
          "type": "uint256"
        }
      ],
      "name": "milestoneDates",
      "outputs": [
        {
          "name": "",
          "type": "uint32"
        }
      ],
      "payable": false,
      "stateMutability": "view",
      "type": "function"
    },
    {
      "constant": true,
      "inputs": [],
      "name": "swap",
      "outputs": [
        {
          "name": "",
          "type": "address"
        }
      ],
      "payable": false,
      "stateMutability": "view",
      "type": "function"
    },
    {
      "constant": true,
      "inputs": [
        {
          "name": "",
          "type": "uint256"
        }
      ],
      "name": "stages",
      "outputs": [
        {
          "name": "startDate",
          "type": "uint32"
        },
        {
          "name": "endDate",
          "type": "uint32"
        },
        {
          "name": "discount",
          "type": "uint8"
        },
        {
          "name": "vesting",
          "type": "uint32"
        }
      ],
      "payable": false,
      "stateMutability": "view",
      "type": "function"
    },
    {
      "constant": true,
      "inputs": [],
      "name": "serviceFee",
      "outputs": [
        {
          "name": "",
          "type": "uint256"
        }
      ],
      "payable": false,
      "stateMutability": "view",
      "type": "function"
    },
    {
      "constant": true,
      "inputs": [],
      "name": "owner",
      "outputs": [
        {
          "name": "",
          "type": "address"
        }
      ],
      "payable": false,
      "stateMutability": "view",
      "type": "function"
    },
    {
      "constant": true,
      "inputs": [],
      "name": "price",
      "outputs": [
        {
          "name": "",
          "type": "uint256"
        }
      ],
      "payable": false,
      "stateMutability": "view",
      "type": "function"
    },
    {
      "constant": true,
      "inputs": [],
      "name": "fund",
      "outputs": [
        {
          "name": "",
          "type": "address"
        }
      ],
      "payable": false,
      "stateMutability": "view",
      "type": "function"
    },
    {
      "constant": true,
      "inputs": [
        {
          "name": "",
          "type": "uint256"
        }
      ],
      "name": "milestones",
      "outputs": [
        {
          "name": "endDate",
          "type": "uint32"
        },
        {
          "name": "tranchePercent",
          "type": "uint8"
        },
        {
          "name": "voteEndDate",
          "type": "uint32"
        },
        {
          "name": "withdrawalWindow",
          "type": "uint32"
        },
        {
          "name": "name",
          "type": "bytes"
        },
        {
          "name": "description",
          "type": "bytes"
        }
      ],
      "payable": false,
      "stateMutability": "view",
      "type": "function"
    },
    {
      "constant": false,
      "inputs": [
        {
          "name": "_newOwner",
          "type": "address"
        }
      ],
      "name": "transferOwnership",
      "outputs": [],
      "payable": false,
      "stateMutability": "nonpayable",
      "type": "function"
    },
    {
      "constant": true,
      "inputs": [],
      "name": "token",
      "outputs": [
        {
          "name": "",
          "type": "address"
        }
      ],
      "payable": false,
      "stateMutability": "view",
      "type": "function"
    },
    {
      "inputs": [
        {
          "name": "_originToken",
          "type": "address"
        },
        {
          "name": "_token",
          "type": "address"
        },
        {
          "name": "_tokenDecimals",
          "type": "uint256"
        },
        {
          "name": "_price",
          "type": "uint256"
        },
        {
          "name": "_serviceWallet",
          "type": "address"
        },
        {
          "name": "_swap",
          "type": "address"
        },
        {
          "name": "_serviceFee",
          "type": "uint256"
        },
        {
          "name": "_WTokenSaleFeePercent",
          "type": "uint256"
        },
        {
          "name": "_fund",
          "type": "address"
        }
      ],
      "payable": false,
      "stateMutability": "nonpayable",
      "type": "constructor"
    },
    {
      "payable": true,
      "stateMutability": "payable",
      "type": "fallback"
    },
    {
      "anonymous": false,
      "inputs": [
        {
          "indexed": true,
          "name": "buyer",
          "type": "address"
        },
        {
          "indexed": false,
          "name": "amountPaid",
          "type": "uint256"
        },
        {
          "indexed": false,
          "name": "tokensBought",
          "type": "uint256"
        },
        {
          "indexed": false,
          "name": "change",
          "type": "uint256"
        }
      ],
      "name": "TokenPurchase",
      "type": "event"
    },
    {
      "anonymous": false,
      "inputs": [],
      "name": "StagesUpdated",
      "type": "event"
    },
    {
      "anonymous": false,
      "inputs": [],
      "name": "MilestonesSet",
      "type": "event"
    },
    {
      "anonymous": false,
      "inputs": [
        {
          "indexed": true,
          "name": "owner",
          "type": "address"
        },
        {
          "indexed": false,
          "name": "amount",
          "type": "uint256"
        }
      ],
      "name": "UnsoldTokenReturned",
      "type": "event"
    },
    {
      "anonymous": false,
      "inputs": [
        {
          "indexed": false,
          "name": "value",
          "type": "uint256"
        }
      ],
      "name": "debug",
      "type": "event"
    },
    {
      "anonymous": false,
      "inputs": [
        {
          "indexed": true,
          "name": "previousOwner",
          "type": "address"
        }
      ],
      "name": "OwnershipRenounced",
      "type": "event"
    },
    {
      "anonymous": false,
      "inputs": [
        {
          "indexed": true,
          "name": "previousOwner",
          "type": "address"
        },
        {
          "indexed": true,
          "name": "newOwner",
          "type": "address"
        }
      ],
      "name": "OwnershipTransferred",
      "type": "event"
    },
    {
      "constant": true,
      "inputs": [],
      "name": "stagesLength",
      "outputs": [
        {
          "name": "",
          "type": "uint256"
        }
      ],
      "payable": false,
      "stateMutability": "view",
      "type": "function"
    },
    {
      "constant": true,
      "inputs": [],
      "name": "milestonesLength",
      "outputs": [
        {
          "name": "",
          "type": "uint256"
        }
      ],
      "payable": false,
      "stateMutability": "view",
      "type": "function"
    },
    {
      "constant": true,
      "inputs": [
        {
          "name": "index",
          "type": "uint256"
        }
      ],
      "name": "getMilestone",
      "outputs": [
        {
          "name": "",
          "type": "uint32"
        },
        {
          "name": "",
          "type": "uint8"
        },
        {
          "name": "",
          "type": "uint32"
        },
        {
          "name": "",
          "type": "uint32"
        },
        {
          "name": "",
          "type": "bytes"
        },
        {
          "name": "",
          "type": "bytes"
        }
      ],
      "payable": false,
      "stateMutability": "view",
      "type": "function"
    },
    {
      "constant": true,
      "inputs": [
        {
          "name": "stageNumber",
          "type": "uint256"
        }
      ],
      "name": "getStageVolumeBoundaries",
      "outputs": [
        {
          "name": "",
          "type": "uint256[]"
        }
      ],
      "payable": false,
      "stateMutability": "view",
      "type": "function"
    },
    {
      "constant": true,
      "inputs": [
        {
          "name": "stageNumber",
          "type": "uint256"
        }
      ],
      "name": "getStageVolumeBonuses",
      "outputs": [
        {
          "name": "",
          "type": "uint8[]"
        }
      ],
      "payable": false,
      "stateMutability": "view",
      "type": "function"
    },
    {
      "constant": true,
      "inputs": [],
      "name": "getEndDate",
      "outputs": [
        {
          "name": "",
          "type": "uint32"
        }
      ],
      "payable": false,
      "stateMutability": "view",
      "type": "function"
    },
    {
      "constant": true,
      "inputs": [],
      "name": "getCurrentMilestoneIndex",
      "outputs": [
        {
          "name": "index",
          "type": "uint256"
        }
      ],
      "payable": false,
      "stateMutability": "view",
      "type": "function"
    },
    {
      "constant": true,
      "inputs": [],
      "name": "getCurrentMilestone",
      "outputs": [
        {
          "name": "",
          "type": "uint32"
        },
        {
          "name": "",
          "type": "uint8"
        },
        {
          "name": "",
          "type": "uint32"
        },
        {
          "name": "",
          "type": "uint32"
        },
        {
          "name": "",
          "type": "bytes"
        },
        {
          "name": "",
          "type": "bytes"
        }
      ],
      "payable": false,
      "stateMutability": "view",
      "type": "function"
    },
    {
      "constant": false,
      "inputs": [
        {
          "name": "_price",
          "type": "uint256"
        }
      ],
      "name": "setParameters",
      "outputs": [],
      "payable": false,
      "stateMutability": "nonpayable",
      "type": "function"
    },
    {
      "constant": false,
      "inputs": [
        {
          "name": "dates",
          "type": "uint32[2][]"
        },
        {
          "name": "stage_discounts",
          "type": "uint8[]"
        },
        {
          "name": "stage_vestings",
          "type": "uint32[]"
        }
      ],
      "name": "setStages",
      "outputs": [],
      "payable": false,
      "stateMutability": "nonpayable",
      "type": "function"
    },
    {
      "constant": false,
      "inputs": [
        {
          "name": "stage",
          "type": "uint256"
        },
        {
          "name": "volumeBoundaries",
          "type": "uint256[]"
        },
        {
          "name": "volumeBonuses",
          "type": "uint8[]"
        }
      ],
      "name": "setStageVolumeBonuses",
      "outputs": [],
      "payable": false,
      "stateMutability": "nonpayable",
      "type": "function"
    },
    {
      "constant": false,
      "inputs": [
        {
          "name": "dates",
          "type": "uint32[]"
        },
        {
          "name": "tranchePercents",
          "type": "uint8[]"
        },
        {
          "name": "offsets",
          "type": "uint32[]"
        },
        {
          "name": "namesAndDescriptions",
          "type": "bytes"
        }
      ],
      "name": "setMilestones",
      "outputs": [],
      "payable": false,
      "stateMutability": "nonpayable",
      "type": "function"
    },
    {
      "constant": false,
      "inputs": [],
      "name": "buyTokens",
      "outputs": [],
      "payable": true,
      "stateMutability": "payable",
      "type": "function"
    },
    {
      "constant": true,
      "inputs": [],
      "name": "getWToken",
      "outputs": [
        {
          "name": "",
          "type": "address"
        }
      ],
      "payable": false,
      "stateMutability": "view",
      "type": "function"
    },
    {
      "constant": true,
      "inputs": [],
      "name": "getFund",
      "outputs": [
        {
          "name": "",
          "type": "address"
        }
      ],
      "payable": false,
      "stateMutability": "view",
      "type": "function"
    },
    {
      "constant": true,
      "inputs": [
        {
          "name": "value",
          "type": "uint256"
        }
      ],
      "name": "getSaleVolumeBonus",
      "outputs": [
        {
          "name": "bonus",
          "type": "uint256"
        }
      ],
      "payable": false,
      "stateMutability": "view",
      "type": "function"
    },
    {
      "constant": true,
      "inputs": [],
      "name": "getCurrentStageIndex",
      "outputs": [
        {
          "name": "index",
          "type": "uint256"
        },
        {
          "name": "found",
          "type": "bool"
        }
      ],
      "payable": false,
      "stateMutability": "view",
      "type": "function"
    },
    {
      "constant": false,
      "inputs": [],
      "name": "claimRemainingTokens",
      "outputs": [],
      "payable": false,
      "stateMutability": "nonpayable",
      "type": "function"
    },
    {
      "constant": true,
      "inputs": [],
      "name": "isEnded",
      "outputs": [
        {
          "name": "",
          "type": "bool"
        }
      ],
      "payable": false,
      "stateMutability": "view",
      "type": "function"
    },
    {
      "constant": true,
      "inputs": [],
      "name": "isSaleActive",
      "outputs": [
        {
          "name": "",
          "type": "bool"
        }
      ],
      "payable": false,
      "stateMutability": "view",
      "type": "function"
    }
  ],
  "bytecode": "0x6080604052600180553480156200001557600080fd5b506040516101208062004548833981018060405281019080805190602001909291908051906020019092919080519060200190929190805190602001909291908051906020019092919080519060200190929190805190602001909291908051906020019092919080519060200190929190505050336000806101000a81548173ffffffffffffffffffffffffffffffffffffffff021916908373ffffffffffffffffffffffffffffffffffffffff160217905550600073ffffffffffffffffffffffffffffffffffffffff168873ffffffffffffffffffffffffffffffffffffffff16141515156200010757600080fd5b6200012683620003706401000000000262003c54176401000000009004565b801562000151575060646200014f846200038c6401000000000262004037176401000000009004565b105b15156200015d57600080fd5b6200017c82620003706401000000000262003c54176401000000009004565b8015620001a757506064620001a5836200038c6401000000000262004037176401000000009004565b105b1515620001b357600080fd5b600073ffffffffffffffffffffffffffffffffffffffff168173ffffffffffffffffffffffffffffffffffffffff1614151515620001f057600080fd5b600073ffffffffffffffffffffffffffffffffffffffff168473ffffffffffffffffffffffffffffffffffffffff16141515156200022d57600080fd5b87600260006101000a81548173ffffffffffffffffffffffffffffffffffffffff021916908373ffffffffffffffffffffffffffffffffffffffff16021790555088600360006101000a81548173ffffffffffffffffffffffffffffffffffffffff021916908373ffffffffffffffffffffffffffffffffffffffff16021790555086600481905550620002d18686620003df640100000000026401000000009004565b8260068190555083600960006101000a81548173ffffffffffffffffffffffffffffffffffffffff021916908373ffffffffffffffffffffffffffffffffffffffff1602179055508160078190555080600a60006101000a81548173ffffffffffffffffffffffffffffffffffffffff021916908373ffffffffffffffffffffffffffffffffffffffff160217905550505050505050505050620004a4565b60008082101580156200038557506127108211155b9050919050565b6000620003a88262000370640100000000026401000000009004565b1515620003b457600080fd5b620003d8606483620004786401000000000262003c2a179091906401000000009004565b9050919050565b600082111515620003ef57600080fd5b600073ffffffffffffffffffffffffffffffffffffffff168173ffffffffffffffffffffffffffffffffffffffff16141515156200042c57600080fd5b8160058190555080600860006101000a81548173ffffffffffffffffffffffffffffffffffffffff021916908373ffffffffffffffffffffffffffffffffffffffff1602179055505050565b6000806000831115156200048b57600080fd5b82848115156200049757fe5b0490508091505092915050565b61409480620004b46000396000f3006080604052600436106101ac576000357c0100000000000000000000000000000000000000000000000000000000900463ffffffff1680630d544ffe146101b65780630ee62c771461023957806313096a41146102bb578063208853c9146103125780632442e1cb14610353578063299a017c146104ab5780632c9a4bab146105ed5780632fbe599014610658578063313602d4146106835780633baba4d71461069a5780634090cb64146106c5578063521b74991461071c5780635641f3c314610779578063564566a8146107d0578063715018a6146107ff57806372e6a88114610816578063792c02ea146108635780638119c0651461088e578063845ddcb2146108e55780638abdf5aa146109655780638da5cb5b146109905780638edd6eb6146109e7578063a035b1fe14610a3e578063a4fd6f5614610a69578063b135648814610a98578063b60d428814610acf578063d0febe4c14610b26578063d6d65f3d14610b30578063daa4cf8814610b5b578063e89e4ed614610b91578063e93b054014610ce9578063f12585f514610d16578063f2fde38b14610d98578063fc0c546a14610ddb575b6101b4610e32565b005b3480156101c257600080fd5b506102376004803603810190808035906020019082018035906020019190919293919293908035906020019082018035906020019190919293919293908035906020019082018035906020019190919293919293908035906020019082018035906020019190919293919293905050506115ae565b005b34801561024557600080fd5b5061026460048036038101908080359060200190929190505050611e22565b6040518080602001828103825283818151815260200191508051906020019060200280838360005b838110156102a757808201518184015260208101905061028c565b505050509050019250505060405180910390f35b3480156102c757600080fd5b506102d0611ec0565b604051808273ffffffffffffffffffffffffffffffffffffffff1673ffffffffffffffffffffffffffffffffffffffff16815260200191505060405180910390f35b34801561031e57600080fd5b5061033d60048036038101908080359060200190929190505050611ee6565b6040518082815260200191505060405180910390f35b34801561035f57600080fd5b5061037e60048036038101908080359060200190929190505050611fb8565b604051808763ffffffff1663ffffffff1681526020018660ff1660ff1681526020018563ffffffff1663ffffffff1681526020018463ffffffff1663ffffffff1681526020018060200180602001838103835285818151815260200191508051906020019080838360005b838110156104045780820151818401526020810190506103e9565b50505050905090810190601f1680156104315780820380516001836020036101000a031916815260200191505b50838103825284818151815260200191508051906020019080838360005b8381101561046a57808201518184015260208101905061044f565b50505050905090810190601f1680156104975780820380516001836020036101000a031916815260200191505b509850505050505050505060405180910390f35b3480156104b757600080fd5b506104c061220f565b604051808763ffffffff1663ffffffff1681526020018660ff1660ff1681526020018563ffffffff1663ffffffff1681526020018463ffffffff1663ffffffff1681526020018060200180602001838103835285818151815260200191508051906020019080838360005b8381101561054657808201518184015260208101905061052b565b50505050905090810190601f1680156105735780820380516001836020036101000a031916815260200191505b50838103825284818151815260200191508051906020019080838360005b838110156105ac578082015181840152602081019050610591565b50505050905090810190601f1680156105d95780820380516001836020036101000a031916815260200191505b509850505050505050505060405180910390f35b3480156105f957600080fd5b50610656600480360381019080803590602001908201803590602001919091929391929390803590602001908201803590602001919091929391929390803590602001908201803590602001919091929391929390505050612242565b005b34801561066457600080fd5b5061066d6129ca565b6040518082815260200191505060405180910390f35b34801561068f57600080fd5b506106986129d0565b005b3480156106a657600080fd5b506106af612cd8565b6040518082815260200191505060405180910390f35b3480156106d157600080fd5b506106da612ce5565b604051808273ffffffffffffffffffffffffffffffffffffffff1673ffffffffffffffffffffffffffffffffffffffff16815260200191505060405180910390f35b34801561072857600080fd5b5061077760048036038101908080359060200190929190803590602001908201803590602001919091929391929390803590602001908201803590602001919091929391929390505050612d0f565b005b34801561078557600080fd5b5061078e612f96565b604051808273ffffffffffffffffffffffffffffffffffffffff1673ffffffffffffffffffffffffffffffffffffffff16815260200191505060405180910390f35b3480156107dc57600080fd5b506107e5612fbc565b604051808215151515815260200191505060405180910390f35b34801561080b57600080fd5b50610814612fd5565b005b34801561082257600080fd5b50610841600480360381019080803590602001909291905050506130d7565b604051808263ffffffff1663ffffffff16815260200191505060405180910390f35b34801561086f57600080fd5b50610878613110565b6040518082815260200191505060405180910390f35b34801561089a57600080fd5b506108a361311d565b604051808273ffffffffffffffffffffffffffffffffffffffff1673ffffffffffffffffffffffffffffffffffffffff16815260200191505060405180910390f35b3480156108f157600080fd5b5061091060048036038101908080359060200190929190505050613143565b604051808563ffffffff1663ffffffff1681526020018463ffffffff1663ffffffff1681526020018360ff1660ff1681526020018263ffffffff1663ffffffff16815260200194505050505060405180910390f35b34801561097157600080fd5b5061097a6131bf565b6040518082815260200191505060405180910390f35b34801561099c57600080fd5b506109a56131c5565b604051808273ffffffffffffffffffffffffffffffffffffffff1673ffffffffffffffffffffffffffffffffffffffff16815260200191505060405180910390f35b3480156109f357600080fd5b506109fc6131ea565b604051808273ffffffffffffffffffffffffffffffffffffffff1673ffffffffffffffffffffffffffffffffffffffff16815260200191505060405180910390f35b348015610a4a57600080fd5b50610a53613214565b6040518082815260200191505060405180910390f35b348015610a7557600080fd5b50610a7e61321a565b604051808215151515815260200191505060405180910390f35b348015610aa457600080fd5b50610aad613271565b604051808263ffffffff1663ffffffff16815260200191505060405180910390f35b348015610adb57600080fd5b50610ae46132c4565b604051808273ffffffffffffffffffffffffffffffffffffffff1673ffffffffffffffffffffffffffffffffffffffff16815260200191505060405180910390f35b610b2e610e32565b005b348015610b3c57600080fd5b50610b456132ea565b6040518082815260200191505060405180910390f35b348015610b6757600080fd5b50610b70613368565b60405180838152602001821515151581526020019250505060405180910390f35b348015610b9d57600080fd5b50610bbc60048036038101908080359060200190929190505050613411565b604051808763ffffffff1663ffffffff1681526020018660ff1660ff1681526020018563ffffffff1663ffffffff1681526020018463ffffffff1663ffffffff1681526020018060200180602001838103835285818151815260200191508051906020019080838360005b83811015610c42578082015181840152602081019050610c27565b50505050905090810190601f168015610c6f5780820380516001836020036101000a031916815260200191505b50838103825284818151815260200191508051906020019080838360005b83811015610ca8578082015181840152602081019050610c8d565b50505050905090810190601f168015610cd55780820380516001836020036101000a031916815260200191505b509850505050505050505060405180910390f35b348015610cf557600080fd5b50610d14600480360381019080803590602001909291905050506135c9565b005b348015610d2257600080fd5b50610d41600480360381019080803590602001909291905050506136a7565b6040518080602001828103825283818151815260200191508051906020019060200280838360005b83811015610d84578082015181840152602081019050610d69565b505050509050019250505060405180910390f35b348015610da457600080fd5b50610dd9600480360381019080803573ffffffffffffffffffffffffffffffffffffffff16906020019092919050505061371f565b005b348015610de757600080fd5b50610df0613786565b604051808273ffffffffffffffffffffffffffffffffffffffff1673ffffffffffffffffffffffffffffffffffffffff16815260200191505060405180910390f35b6000806000806000806000806000600180600082825401925050819055506001549050610e5d612fbc565b1515610ed1576040517f08c379a00000000000000000000000000000000000000000000000000000000081526004018080602001828103825260178152602001807f53616c65206973206e6f7420737461727465642079657400000000000000000081525060200191505060405180910390fd5b600034111515610ee057600080fd5b610ee8613368565b509850600b89815481101515610efa57fe5b906000526020600020906003020160000160089054906101000a900460ff1660ff169750600b89815481101515610f2d57fe5b906000526020600020906003020160000160099054906101000a900463ffffffff169650610f5a34611ee6565b9550610f673489886137ac565b509450945094506000600754111561124157610f8e6007548661398990919063ffffffff16565b9150600360009054906101000a900473ffffffffffffffffffffffffffffffffffffffff1673ffffffffffffffffffffffffffffffffffffffff166323b872dd600960009054906101000a900473ffffffffffffffffffffffffffffffffffffffff16600860009054906101000a900473ffffffffffffffffffffffffffffffffffffffff16856040518463ffffffff167c0100000000000000000000000000000000000000000000000000000000028152600401808473ffffffffffffffffffffffffffffffffffffffff1673ffffffffffffffffffffffffffffffffffffffff1681526020018373ffffffffffffffffffffffffffffffffffffffff1673ffffffffffffffffffffffffffffffffffffffff1681526020018281526020019350505050602060405180830381600087803b1580156110cd57600080fd5b505af11580156110e1573d6000803e3d6000fd5b505050506040513d60208110156110f757600080fd5b8101908080519060200190929190505050151561111357600080fd5b600260009054906101000a900473ffffffffffffffffffffffffffffffffffffffff1673ffffffffffffffffffffffffffffffffffffffff1663a9059cbb600960009054906101000a900473ffffffffffffffffffffffffffffffffffffffff16846040518363ffffffff167c0100000000000000000000000000000000000000000000000000000000028152600401808373ffffffffffffffffffffffffffffffffffffffff1673ffffffffffffffffffffffffffffffffffffffff16815260200182815260200192505050602060405180830381600087803b1580156111fa57600080fd5b505af115801561120e573d6000803e3d6000fd5b505050506040513d602081101561122457600080fd5b8101908080519060200190929190505050151561124057600080fd5b5b600260009054906101000a900473ffffffffffffffffffffffffffffffffffffffff1673ffffffffffffffffffffffffffffffffffffffff16639d2e477733878a6040518463ffffffff167c0100000000000000000000000000000000000000000000000000000000028152600401808473ffffffffffffffffffffffffffffffffffffffff1673ffffffffffffffffffffffffffffffffffffffff1681526020018381526020018263ffffffff1663ffffffff1681526020019350505050602060405180830381600087803b15801561131a57600080fd5b505af115801561132e573d6000803e3d6000fd5b505050506040513d602081101561134457600080fd5b8101908080519060200190929190505050151561136057600080fd5b60008311156113b1573373ffffffffffffffffffffffffffffffffffffffff166108fc849081150290604051600060405180830381858888f193505050501580156113af573d6000803e3d6000fd5b505b6000600654111561143a57600860009054906101000a900473ffffffffffffffffffffffffffffffffffffffff1673ffffffffffffffffffffffffffffffffffffffff166108fc61140d6006548761398990919063ffffffff16565b9081150290604051600060405180830381858888f19350505050158015611438573d6000803e3d6000fd5b505b600a60009054906101000a900473ffffffffffffffffffffffffffffffffffffffff1673ffffffffffffffffffffffffffffffffffffffff1663958799cb3073ffffffffffffffffffffffffffffffffffffffff1631620186a09033896040518563ffffffff167c0100000000000000000000000000000000000000000000000000000000028152600401808373ffffffffffffffffffffffffffffffffffffffff1673ffffffffffffffffffffffffffffffffffffffff168152602001828152602001925050506000604051808303818589803b15801561151b57600080fd5b5088f115801561152f573d6000803e3d6000fd5b5050505050503373ffffffffffffffffffffffffffffffffffffffff167f347f5f0051b895093800553e6e78ef332849e2552639a4f5ffe66535788ae07885878660405180848152602001838152602001828152602001935050505060405180910390a2600154811415156115a357600080fd5b505050505050505050565b60008060006060806000809054906101000a900473ffffffffffffffffffffffffffffffffffffffff1673ffffffffffffffffffffffffffffffffffffffff163373ffffffffffffffffffffffffffffffffffffffff1614151561161157600080fd5b6000600b8054905011156116655742600b600081548110151561163057fe5b906000526020600020906003020160000160009054906101000a900463ffffffff1663ffffffff1611151561166457600080fd5b5b7fffffffffffffffffffffffffffffffffffffffffffffffffffffffffffffffff60ff168d8d90501115151561169a57600080fd5b60038d8d9050101515156116ad57600080fd5b600060038e8e90508115156116be57fe5b061415156116cb57600080fd5b888890506116e660028d8d90506139ce90919063ffffffff16565b1415156116f257600080fd5b8c8c905061170d60038d8d90506139ce90919063ffffffff16565b14151561171957600080fd5b60028b8b905002878790501015151561173157600080fd5b6000600b80549050111561183c578c8c6000818110151561174e57fe5b9050602002013563ffffffff1663ffffffff16600b6001600b805490500381548110151561177857fe5b906000526020600020906003020160000160049054906101000a900463ffffffff1663ffffffff1610151561183b576040517f08c379a00000000000000000000000000000000000000000000000000000000081526004018080602001828103825260358152602001807f4669727374206d696c6573746f6e6520656e6444617465206d7573742062652081526020017f6774206c61737420737461676520656e6444617465000000000000000000000081525060400191505060405180910390fd5b5b6000945060009350600092505b8c8c905060ff168360ff161015611def57428d8d8560ff16818110151561186c57fe5b9050602002013563ffffffff1663ffffffff1611151561188b57600080fd5b8c8c8460ff16818110151561189c57fe5b9050602002013563ffffffff1663ffffffff168d8d6001860160ff1681811015156118c357fe5b9050602002013563ffffffff1663ffffffff161115156118e257600080fd5b8c8c6001850160ff1681811015156118f657fe5b9050602002013563ffffffff1663ffffffff168d8d6002860160ff16818110151561191d57fe5b9050602002013563ffffffff1663ffffffff1611151561193c57600080fd5b60008360ff161115611a2f578c8c8460ff16818110151561195957fe5b9050602002013563ffffffff1663ffffffff168d8d6001860360ff16818110151561198057fe5b9050602002013563ffffffff1663ffffffff16101515611a2e576040517f08c379a00000000000000000000000000000000000000000000000000000000081526004018080602001828103825260298152602001807f4d696c6573746f6e65206461746573206973206e6f7420696e20617363656e6481526020017f696e67206f72646572000000000000000000000000000000000000000000000081525060400191505060405180910390fd5b5b611aab858a8a600260038860ff16811515611a4657fe5b040260ff168181101515611a5657fe5b9050602002013563ffffffff1663ffffffff1689898080601f016020809104026020016040519081016040528093929190818152602001838380828437820191505050505050613a0c9092919063ffffffff16565b9150611b638989600260038760ff16811515611ac357fe5b040260ff168181101515611ad357fe5b9050602002013563ffffffff1663ffffffff1686018a8a6001600260038960ff16811515611afd57fe5b04020160ff168181101515611b0e57fe5b9050602002013563ffffffff1663ffffffff1689898080601f016020809104026020016040519081016040528093929190818152602001838380828437820191505050505050613a0c9092919063ffffffff16565b905060008251111515611b7557600080fd5b60008151111515611b8557600080fd5b600c60c0604051908101604052808f8f8760ff168181101515611ba457fe5b9050602002013563ffffffff1663ffffffff1681526020018d8d60038860ff16811515611bcd57fe5b0460ff168181101515611bdc57fe5b9050602002013560ff1660ff1681526020018f8f6001880160ff168181101515611c0257fe5b9050602002013563ffffffff1663ffffffff1681526020018f8f6002880160ff168181101515611c2e57fe5b9050602002013563ffffffff1663ffffffff168152602001848152602001838152509080600181540180825580915050906001820390600052602060002090600302016000909192909190915060008201518160000160006101000a81548163ffffffff021916908363ffffffff16021790555060208201518160000160046101000a81548160ff021916908360ff16021790555060408201518160000160056101000a81548163ffffffff021916908363ffffffff16021790555060608201518160000160096101000a81548163ffffffff021916908363ffffffff1602179055506080820151816001019080519060200190611d2d929190613c6f565b5060a0820151816002019080519060200190611d4a929190613c6f565b505050508888600160038660ff16811515611d6157fe5b040160ff168181101515611d7157fe5b9050602002013563ffffffff16898960038660ff16811515611d8f57fe5b0460ff168181101515611d9e57fe5b9050602002013563ffffffff160163ffffffff16850194508a8a60038560ff16811515611dc757fe5b0460ff168181101515611dd657fe5b9050602002013560ff1684019350600383019250611849565b8c8c600d9190611e00929190613cef565b5060648460ff16141515611e1357600080fd5b50505050505050505050505050565b6060600b82815481101515611e3357fe5b9060005260206000209060030201600201805480602002602001604051908101604052809291908181526020018280548015611eb457602002820191906000526020600020906000905b82829054906101000a900460ff1660ff1681526020019060010190602082600001049283019260010382029150808411611e7d5790505b50505050509050919050565b600360009054906101000a900473ffffffffffffffffffffffffffffffffffffffff1681565b6000806000806000611ef6613368565b93509350821515611f0a5760009450611faf565b600b81815481101515611f1957fe5b90600052602060002090600302019150600090505b8160010180549050811015611fae578160010181815481101515611f4e57fe5b906000526020600020015486101515611f9c578160020181815481101515611f7257fe5b90600052602060002090602091828204019190069054906101000a900460ff1660ff169450611fa1565b611fae565b8080600101915050611f2e565b5b50505050919050565b600080600080606080600c87815481101515611fd057fe5b906000526020600020906003020160000160009054906101000a900463ffffffff16600c8881548110151561200157fe5b906000526020600020906003020160000160049054906101000a900460ff16600c8981548110151561202f57fe5b906000526020600020906003020160000160059054906101000a900463ffffffff16600c8a81548110151561206057fe5b906000526020600020906003020160000160099054906101000a900463ffffffff16600c8b81548110151561209157fe5b9060005260206000209060030201600101600c8c8154811015156120b157fe5b9060005260206000209060030201600201818054600181600116156101000203166002900480601f0160208091040260200160405190810160405280929190818152602001828054600181600116156101000203166002900480156121575780601f1061212c57610100808354040283529160200191612157565b820191906000526020600020905b81548152906001019060200180831161213a57829003601f168201915b50505050509150808054600181600116156101000203166002900480601f0160208091040260200160405190810160405280929190818152602001828054600181600116156101000203166002900480156121f35780601f106121c8576101008083540402835291602001916121f3565b820191906000526020600020905b8154815290600101906020018083116121d657829003601f168201915b5050505050905095509550955095509550955091939550919395565b60008060008060608060006122226132ea565b905061222d81611fb8565b96509650965096509650965050909192939495565b6000806000809054906101000a900473ffffffffffffffffffffffffffffffffffffffff1673ffffffffffffffffffffffffffffffffffffffff163373ffffffffffffffffffffffffffffffffffffffff161415156122a057600080fd5b6000600b8054905011156122f45742600b60008154811015156122bf57fe5b906000526020600020906003020160000160009054906101000a900463ffffffff1663ffffffff161115156122f357600080fd5b5b7fffffffffffffffffffffffffffffffffffffffffffffffffffffffffffffffff60ff16888890501115151561232957600080fd5b60008888905011151561233b57600080fd5b858590508888905014151561234f57600080fd5b838390508888905014151561236357600080fd5b6000600c80549050111561247e57878760018a8a905003818110151561238557fe5b905060400201600160028110151561239957fe5b602002013563ffffffff1663ffffffff16600c60008154811015156123ba57fe5b906000526020600020906003020160000160009054906101000a900463ffffffff1663ffffffff1611151561247d576040517f08c379a00000000000000000000000000000000000000000000000000000000081526004018080602001828103825260358152602001807f4c61737420737461676520656e6444617465206d757374206265206c7420666981526020017f727374206d696c6573746f6e6520656e6444617465000000000000000000000081525060400191505060405180910390fd5b5b8787905091508160ff16600b816124959190613da5565b50600090505b8160ff168160ff16101561299457600086868360ff1681811015156124bc57fe5b9050602002013560ff1660ff16101580156124f45750606486868360ff1681811015156124e557fe5b9050602002013560ff1660ff16105b151561258e576040517f08c379a000000000000000000000000000000000000000000000000000000000815260040180806020018281038252602f8152602001807f537461676520646973636f756e74206973206e6f7420696e20616c6c6f77656481526020017f2072616e6765205b302c2031303029000000000000000000000000000000000081525060400191505060405180910390fd5b4288888360ff1681811015156125a057fe5b90506040020160006002811015156125b457fe5b602002013563ffffffff1663ffffffff161115156125d157600080fd5b87878260ff1681811015156125e257fe5b90506040020160016002811015156125f657fe5b602002013563ffffffff1663ffffffff1688888360ff16818110151561261857fe5b905060400201600060028110151561262c57fe5b602002013563ffffffff1663ffffffff161015156126d8576040517f08c379a00000000000000000000000000000000000000000000000000000000081526004018080602001828103825260248152602001807f53746167652073746172742064617465206d75737420626520677420656e642081526020017f646174650000000000000000000000000000000000000000000000000000000081525060400191505060405180910390fd5b60008160ff1611156127f05787878260ff1681811015156126f557fe5b905060400201600060028110151561270957fe5b602002013563ffffffff1663ffffffff1688886001840360ff16818110151561272e57fe5b905060400201600160028110151561274257fe5b602002013563ffffffff1663ffffffff16111515156127ef576040517f08c379a00000000000000000000000000000000000000000000000000000000081526004018080602001828103825260228152602001807f53746167657320617265206e6f7420696e20686973746f726963616c206f726481526020017f657200000000000000000000000000000000000000000000000000000000000081525060400191505060405180910390fd5b5b87878260ff16818110151561280157fe5b905060400201600060028110151561281557fe5b602002013563ffffffff16600b8260ff1681548110151561283257fe5b906000526020600020906003020160000160006101000a81548163ffffffff021916908363ffffffff16021790555087878260ff16818110151561287257fe5b905060400201600160028110151561288657fe5b602002013563ffffffff16600b8260ff168154811015156128a357fe5b906000526020600020906003020160000160046101000a81548163ffffffff021916908363ffffffff16021790555085858260ff1681811015156128e357fe5b9050602002013560ff16600b8260ff168154811015156128ff57fe5b906000526020600020906003020160000160086101000a81548160ff021916908360ff16021790555083838260ff16818110151561293957fe5b9050602002013563ffffffff16600b8260ff1681548110151561295857fe5b906000526020600020906003020160000160096101000a81548163ffffffff021916908363ffffffff160217905550808060010191505061249b565b7f743961f4e677d1146fbf85d75565b1c5474fd083eb166f8b9595cf5d01a4d6e660405160405180910390a15050505050505050565b60075481565b60008060009054906101000a900473ffffffffffffffffffffffffffffffffffffffff1673ffffffffffffffffffffffffffffffffffffffff163373ffffffffffffffffffffffffffffffffffffffff16141515612a2d57600080fd5b612a3561321a565b1515612a4057600080fd5b600260009054906101000a900473ffffffffffffffffffffffffffffffffffffffff1673ffffffffffffffffffffffffffffffffffffffff166370a08231306040518263ffffffff167c0100000000000000000000000000000000000000000000000000000000028152600401808273ffffffffffffffffffffffffffffffffffffffff1673ffffffffffffffffffffffffffffffffffffffff168152602001915050602060405180830381600087803b158015612afd57600080fd5b505af1158015612b11573d6000803e3d6000fd5b505050506040513d6020811015612b2757600080fd5b81019080805190602001909291905050509050600260009054906101000a900473ffffffffffffffffffffffffffffffffffffffff1673ffffffffffffffffffffffffffffffffffffffff1663a9059cbb6000809054906101000a900473ffffffffffffffffffffffffffffffffffffffff16836040518363ffffffff167c0100000000000000000000000000000000000000000000000000000000028152600401808373ffffffffffffffffffffffffffffffffffffffff1673ffffffffffffffffffffffffffffffffffffffff16815260200182815260200192505050602060405180830381600087803b158015612c2057600080fd5b505af1158015612c34573d6000803e3d6000fd5b505050506040513d6020811015612c4a57600080fd5b81019080805190602001909291905050501515612c6657600080fd5b6000809054906101000a900473ffffffffffffffffffffffffffffffffffffffff1673ffffffffffffffffffffffffffffffffffffffff167f26ffb867a6b19bc0240d4e732ed6cfb0f0b6d93143a99cfb24ba5873308861f8826040518082815260200191505060405180910390a250565b6000600c80549050905090565b6000600260009054906101000a900473ffffffffffffffffffffffffffffffffffffffff16905090565b60008060009054906101000a900473ffffffffffffffffffffffffffffffffffffffff1673ffffffffffffffffffffffffffffffffffffffff163373ffffffffffffffffffffffffffffffffffffffff16141515612d6c57600080fd5b6000600b805490501115612dc05742600b6000815481101515612d8b57fe5b906000526020600020906003020160000160009054906101000a900463ffffffff1663ffffffff16111515612dbf57600080fd5b5b8282905085859050141515612dd457600080fd5b600b8054905086101515612de757600080fd5b600090505b84849050811015612ed6576000811115612ec9578484828181101515612e0e57fe5b905060200201358585600184038181101515612e2657fe5b90506020020135101515612ec8576040517f08c379a000000000000000000000000000000000000000000000000000000000815260040180806020018281038252602c8152602001807f566f6c756d6520626f756e646172696573206d75737420626520696e2061736381526020017f656e64696e67206f72646572000000000000000000000000000000000000000081525060400191505060405180910390fd5b5b8080600101915050612dec565b600b86815481101515612ee557fe5b90600052602060002090600302016001016000612f029190613dd7565b600b86815481101515612f1157fe5b90600052602060002090600302016002016000612f2e9190613df8565b8484600b88815481101515612f3f57fe5b90600052602060002090600302016001019190612f5d929190613e20565b508282600b88815481101515612f6f57fe5b90600052602060002090600302016002019190612f8d929190613e6d565b50505050505050565b600860009054906101000a900473ffffffffffffffffffffffffffffffffffffffff1681565b6000806000612fc9613368565b91509150809250505090565b6000809054906101000a900473ffffffffffffffffffffffffffffffffffffffff1673ffffffffffffffffffffffffffffffffffffffff163373ffffffffffffffffffffffffffffffffffffffff1614151561303057600080fd5b6000809054906101000a900473ffffffffffffffffffffffffffffffffffffffff1673ffffffffffffffffffffffffffffffffffffffff167ff8df31144d9c2f0f6b59d69b8b98abd5459d07f2742c4df920b25aae33c6482060405160405180910390a260008060006101000a81548173ffffffffffffffffffffffffffffffffffffffff021916908373ffffffffffffffffffffffffffffffffffffffff160217905550565b600d818154811015156130e657fe5b9060005260206000209060089182820401919006600402915054906101000a900463ffffffff1681565b6000600b80549050905090565b600960009054906101000a900473ffffffffffffffffffffffffffffffffffffffff1681565b600b8181548110151561315257fe5b90600052602060002090600302016000915090508060000160009054906101000a900463ffffffff16908060000160049054906101000a900463ffffffff16908060000160089054906101000a900460ff16908060000160099054906101000a900463ffffffff16905084565b60065481565b6000809054906101000a900473ffffffffffffffffffffffffffffffffffffffff1681565b6000600a60009054906101000a900473ffffffffffffffffffffffffffffffffffffffff16905090565b60055481565b600080600b80549050148061326c575042600b6001600b805490500381548110151561324257fe5b906000526020600020906003020160000160049054906101000a900463ffffffff1663ffffffff16105b905090565b600080600b8054905011151561328657600080fd5b600b6001600b805490500381548110151561329d57fe5b906000526020600020906003020160000160049054906101000a900463ffffffff16905090565b600a60009054906101000a900473ffffffffffffffffffffffffffffffffffffffff1681565b600080600c805490509050600081141561330357600080fd5b5b60018103821080156133525750600d6003830281548110151561332357fe5b90600052602060002090600891828204019190066004029054906101000a900463ffffffff1663ffffffff1642115b15613364578180600101925050613304565b5090565b600080600080600091505b600b8054905082101561340057600b8281548110151561338f57fe5b90600052602060002090600302019050428160000160009054906101000a900463ffffffff1663ffffffff16111580156133e25750428160000160049054906101000a900463ffffffff1663ffffffff16115b156133f3578160019350935061340b565b8180600101925050613373565b600080819150935093505b50509091565b600c8181548110151561342057fe5b90600052602060002090600302016000915090508060000160009054906101000a900463ffffffff16908060000160049054906101000a900460ff16908060000160059054906101000a900463ffffffff16908060000160099054906101000a900463ffffffff1690806001018054600181600116156101000203166002900480601f0160208091040260200160405190810160405280929190818152602001828054600181600116156101000203166002900480156135215780601f106134f657610100808354040283529160200191613521565b820191906000526020600020905b81548152906001019060200180831161350457829003601f168201915b505050505090806002018054600181600116156101000203166002900480601f0160208091040260200160405190810160405280929190818152602001828054600181600116156101000203166002900480156135bf5780601f10613594576101008083540402835291602001916135bf565b820191906000526020600020905b8154815290600101906020018083116135a257829003601f168201915b5050505050905086565b6000809054906101000a900473ffffffffffffffffffffffffffffffffffffffff1673ffffffffffffffffffffffffffffffffffffffff163373ffffffffffffffffffffffffffffffffffffffff1614151561362457600080fd5b6000600b8054905011156136785742600b600081548110151561364357fe5b906000526020600020906003020160000160009054906101000a900463ffffffff1663ffffffff1611151561367757600080fd5b5b6136a481600860009054906101000a900473ffffffffffffffffffffffffffffffffffffffff16613a99565b50565b6060600b828154811015156136b857fe5b906000526020600020906003020160010180548060200260200160405190810160405280929190818152602001828054801561371357602002820191906000526020600020905b8154815260200190600101908083116136ff575b50505050509050919050565b6000809054906101000a900473ffffffffffffffffffffffffffffffffffffffff1673ffffffffffffffffffffffffffffffffffffffff163373ffffffffffffffffffffffffffffffffffffffff1614151561377a57600080fd5b61378381613b30565b50565b600260009054906101000a900473ffffffffffffffffffffffffffffffffffffffff1681565b6000806000806000879350600260009054906101000a900473ffffffffffffffffffffffffffffffffffffffff1673ffffffffffffffffffffffffffffffffffffffff166370a08231306040518263ffffffff167c0100000000000000000000000000000000000000000000000000000000028152600401808273ffffffffffffffffffffffffffffffffffffffff1673ffffffffffffffffffffffffffffffffffffffff168152602001915050602060405180830381600087803b15801561387457600080fd5b505af1158015613888573d6000803e3d6000fd5b505050506040513d602081101561389e57600080fd5b81019080805190602001909291905050509050600454600a0a81101515156138c557600080fd5b600087116138d557600554613901565b61390060646138f2896064036005546139ce90919063ffffffff16565b613c2a90919063ffffffff16565b5b9150613945600260045403600a0a613937846139298a6064018d6139ce90919063ffffffff16565b613c2a90919063ffffffff16565b6139ce90919063ffffffff16565b94508481101561397f5761397485613966838b6139ce90919063ffffffff16565b613c2a90919063ffffffff16565b935083880392508094505b5093509350935093565b600061399482613c54565b151561399f57600080fd5b6139c66127106139b884866139ce90919063ffffffff16565b613c2a90919063ffffffff16565b905092915050565b60008060008414156139e35760009150613a05565b82840290508284828115156139f457fe5b04141515613a0157600080fd5b8091505b5092915050565b606080828401855110151515613a2157600080fd5b821560008114613a3c57604051915060208201604052613a8d565b6040519150601f8416801560200281840101858101878315602002848b0101015b81831015613a7a5780518352602083019250602081019050613a5d565b50868552601f19601f8301166040525050505b50809150509392505050565b600082111515613aa857600080fd5b600073ffffffffffffffffffffffffffffffffffffffff168173ffffffffffffffffffffffffffffffffffffffff1614151515613ae457600080fd5b8160058190555080600860006101000a81548173ffffffffffffffffffffffffffffffffffffffff021916908373ffffffffffffffffffffffffffffffffffffffff1602179055505050565b600073ffffffffffffffffffffffffffffffffffffffff168173ffffffffffffffffffffffffffffffffffffffff1614151515613b6c57600080fd5b8073ffffffffffffffffffffffffffffffffffffffff166000809054906101000a900473ffffffffffffffffffffffffffffffffffffffff1673ffffffffffffffffffffffffffffffffffffffff167f8be0079c531659141344cd1fd0a4f28419497f9722a3daafe3b4186f6b6457e060405160405180910390a3806000806101000a81548173ffffffffffffffffffffffffffffffffffffffff021916908373ffffffffffffffffffffffffffffffffffffffff16021790555050565b600080600083111515613c3c57600080fd5b8284811515613c4757fe5b0490508091505092915050565b6000808210158015613c6857506127108211155b9050919050565b828054600181600116156101000203166002900490600052602060002090601f016020900481019282601f10613cb057805160ff1916838001178555613cde565b82800160010185558215613cde579182015b82811115613cdd578251825591602001919060010190613cc2565b5b509050613ceb9190613f17565b5090565b82805482825590600052602060002090600701600890048101928215613d945791602002820160005b83821115613d6257833563ffffffff1683826101000a81548163ffffffff021916908363ffffffff1602179055509260200192600401602081600301049283019260010302613d18565b8015613d925782816101000a81549063ffffffff0219169055600401602081600301049283019260010302613d62565b505b509050613da19190613f3c565b5090565b815481835581811115613dd257600302816003028360005260206000209182019101613dd19190613f6f565b5b505050565b5080546000825590600052602060002090810190613df59190613f17565b50565b50805460008255601f016020900490600052602060002090810190613e1d9190613f17565b50565b828054828255906000526020600020908101928215613e5c579160200282015b82811115613e5b578235825591602001919060010190613e40565b5b509050613e699190613f17565b5090565b82805482825590600052602060002090601f01602090048101928215613f065791602002820160005b83821115613ed757833560ff1683826101000a81548160ff021916908360ff1602179055509260200192600101602081600001049283019260010302613e96565b8015613f045782816101000a81549060ff0219169055600101602081600001049283019260010302613ed7565b505b509050613f139190614007565b5090565b613f3991905b80821115613f35576000816000905550600101613f1d565b5090565b90565b613f6c91905b80821115613f6857600081816101000a81549063ffffffff021916905550600101613f42565b5090565b90565b61400491905b8082111561400057600080820160006101000a81549063ffffffff02191690556000820160046101000a81549063ffffffff02191690556000820160086101000a81549060ff02191690556000820160096101000a81549063ffffffff0219169055600182016000613fe79190613dd7565b600282016000613ff79190613df8565b50600301613f75565b5090565b90565b61403491905b8082111561403057600081816101000a81549060ff02191690555060010161400d565b5090565b90565b600061404282613c54565b151561404d57600080fd5b614061606483613c2a90919063ffffffff16565b90509190505600a165627a7a723058201d6dae4688e1ba420e10e7ae0d5a6bbfc21711457ecef863cc36f52c888606f20029",
  "source": "pragma solidity ^0.4.24;\n\nimport \"../openzeppelin-solidity/contracts/ownership/Ownable.sol\";\nimport \"../openzeppelin-solidity/contracts/ReentrancyGuard.sol\";\nimport \"../openzeppelin-solidity/contracts/math/SafeMath.sol\";\nimport \"../solidity-bytes-utils/contracts/BytesLib.sol\";\nimport \"./interfaces/IW12Crowdsale.sol\";\nimport \"../openzeppelin-solidity/contracts/token/ERC20/ERC20.sol\";\nimport \"./interfaces/IW12Fund.sol\";\nimport \"./libs/Percent.sol\";\n\n\ncontract W12Crowdsale is IW12Crowdsale, Ownable, ReentrancyGuard {\n    using SafeMath for uint;\n    using Percent for uint;\n    using BytesLib for bytes;\n\n    struct Stage {\n        uint32 startDate;\n        uint32 endDate;\n        uint8 discount;\n        uint32 vesting;\n        uint[] volumeBoundaries;\n        uint8[] volumeBonuses;\n    }\n\n    struct Milestone {\n        uint32 endDate;\n        uint8  tranchePercent;\n        uint32 voteEndDate;\n        uint32 withdrawalWindow;\n        bytes name;\n        bytes description;\n    }\n\n    WToken public token;\n    ERC20 public originToken;\n    uint tokenDecimals;\n    uint public price;\n    uint public serviceFee;\n    uint public WTokenSaleFeePercent;\n    address public serviceWallet;\n    address public swap;\n    IW12Fund public fund;\n\n    Stage[] public stages;\n    Milestone[] public milestones;\n    uint32[] public milestoneDates;\n\n    event TokenPurchase(address indexed buyer, uint amountPaid, uint tokensBought, uint change);\n    event StagesUpdated();\n    event MilestonesSet();\n    event UnsoldTokenReturned(address indexed owner, uint amount);\n\n    event debug(uint value);\n\n    constructor (\n        address _originToken,\n        address _token,\n        uint _tokenDecimals,\n        uint _price,\n        address _serviceWallet,\n        address _swap,\n        uint _serviceFee,\n        uint _WTokenSaleFeePercent,\n        IW12Fund _fund\n    )\n        public\n    {\n        require(_token != address(0));\n        require(_serviceFee.isPercent() && _serviceFee.fromPercent() < 100);\n        require(_WTokenSaleFeePercent.isPercent() && _WTokenSaleFeePercent.fromPercent() < 100);\n        require(_fund != address(0));\n        require(_swap != address(0));\n\n        token = WToken(_token);\n        originToken = ERC20(_originToken);\n        tokenDecimals = _tokenDecimals;\n\n        __setParameters(_price, _serviceWallet);\n        serviceFee = _serviceFee;\n        swap = _swap;\n        WTokenSaleFeePercent = _WTokenSaleFeePercent;\n        fund = _fund;\n    }\n\n    function stagesLength() external view returns (uint) {\n        return stages.length;\n    }\n\n    function milestonesLength() external view returns (uint) {\n        return milestones.length;\n    }\n\n    function getMilestone(uint index) public view returns (uint32, uint8, uint32, uint32, bytes, bytes) {\n        return (\n            milestones[index].endDate,\n            milestones[index].tranchePercent,\n            milestones[index].voteEndDate,\n            milestones[index].withdrawalWindow,\n            milestones[index].name,\n            milestones[index].description\n        );\n    }\n\n    function getStageVolumeBoundaries(uint stageNumber) external view returns (uint[]) {\n        return stages[stageNumber].volumeBoundaries;\n    }\n\n    function getStageVolumeBonuses(uint stageNumber) external view returns (uint8[]) {\n        return stages[stageNumber].volumeBonuses;\n    }\n\n    function getEndDate() external view returns (uint32) {\n        require(stages.length > 0);\n\n        return stages[stages.length - 1].endDate;\n    }\n\n    function getCurrentMilestoneIndex() public view returns (uint index) {\n        uint milestonesCount = milestones.length;\n\n        if(milestonesCount == 0)\n            revert();\n\n        while(index < milestonesCount - 1 && now > milestoneDates[index * 3])\n            index++;\n    }\n\n    // returns last milestone if completely ended or active milestone at now\n    function getCurrentMilestone() external view returns (uint32, uint8, uint32, uint32, bytes, bytes) {\n        uint index = getCurrentMilestoneIndex();\n\n        return getMilestone(index);\n    }\n\n    function __setParameters(uint _price, address _serviceWallet) internal {\n        require(_price > 0);\n        require(_serviceWallet != address(0));\n\n        price = _price;\n        serviceWallet = _serviceWallet;\n    }\n\n    function setParameters(uint _price) external onlyOwner beforeSaleStart {\n        __setParameters(_price, serviceWallet);\n    }\n\n    function setStages(uint32[2][] dates, uint8[] stage_discounts, uint32[] stage_vestings) external onlyOwner beforeSaleStart {\n        require(dates.length <= uint8(-1));\n        require(dates.length > 0);\n        require(dates.length == stage_discounts.length);\n        require(dates.length == stage_vestings.length);\n\n        if (milestones.length > 0) {\n            require(milestones[0].endDate > dates[dates.length - 1][1], \"Last stage endDate must be lt first milestone endDate\");\n        }\n\n        uint8 stagesCount = uint8(dates.length);\n        stages.length = stagesCount;\n\n        for(uint8 i = 0; i < stagesCount; i++) {\n            require(stage_discounts[i] >= 0 && stage_discounts[i] < 100, \"Stage discount is not in allowed range [0, 100)\");\n            require(dates[i][0] > now);\n            require(dates[i][0] < dates[i][1], \"Stage start date must be gt end date\");\n\n            if (i > 0) {\n                require(dates[i - 1][1] <= dates[i][0], \"Stages are not in historical order\");\n            }\n\n            stages[i].startDate = dates[i][0];\n            stages[i].endDate = dates[i][1];\n            stages[i].discount = stage_discounts[i];\n            stages[i].vesting = stage_vestings[i];\n        }\n\n        emit StagesUpdated();\n    }\n\n    function setStageVolumeBonuses(uint stage, uint[] volumeBoundaries, uint8[] volumeBonuses) external onlyOwner beforeSaleStart {\n        require(volumeBoundaries.length == volumeBonuses.length);\n        require(stage < stages.length);\n\n        for(uint i = 0; i < volumeBoundaries.length; i++) {\n            if (i > 0) {\n                require(volumeBoundaries[i - 1] < volumeBoundaries[i], \"Volume boundaries must be in ascending order\");\n            }\n        }\n\n        delete stages[stage].volumeBoundaries;\n        delete stages[stage].volumeBonuses;\n\n        stages[stage].volumeBoundaries = volumeBoundaries;\n        stages[stage].volumeBonuses = volumeBonuses;\n    }\n\n    function setMilestones(uint32[] dates, uint8[] tranchePercents, uint32[] offsets, bytes namesAndDescriptions) external onlyOwner beforeSaleStart {\n        require(dates.length <= uint8(-1));\n        require(dates.length >= 3);\n        require(dates.length % 3 == 0);\n        require(tranchePercents.length.mul(2) == offsets.length);\n        require(tranchePercents.length.mul(3) == dates.length);\n        require(namesAndDescriptions.length >= tranchePercents.length * 2);\n\n        if (stages.length > 0) {\n            require(stages[stages.length - 1].endDate < dates[0], \"First milestone endDate must be gt last stage endDate\");\n        }\n\n        uint offset = 0;\n        uint8 totalPercents = 0;\n\n        for(uint8 i = 0; i < uint8(dates.length); i += 3) {\n            require(dates[i] > now);\n            require(dates[i + 1] > dates[i]);\n            require(dates[i + 2] > dates[i + 1]);\n\n            if (i > 0) {\n                require(dates[i - 1] < dates[i], \"Milestone dates is not in ascending order\");\n            }\n\n            bytes memory name = namesAndDescriptions.slice(offset, offsets[i / 3 * 2]);\n            bytes memory description = namesAndDescriptions.slice(offset + offsets[i / 3 * 2], offsets[i / 3 * 2 + 1]);\n\n            require(name.length > 0);\n            require(description.length > 0);\n\n            milestones.push(Milestone({\n                endDate: dates[i],\n                tranchePercent: tranchePercents[i / 3],\n                voteEndDate: dates[i + 1],\n                withdrawalWindow: dates[i + 2],\n                name: name,\n                description: description\n            }));\n\n            offset += offsets[i / 3] + offsets[i / 3 + 1];\n            totalPercents += tranchePercents[i / 3];\n        }\n\n        milestoneDates = dates;\n        require(totalPercents == 100);\n    }\n\n    function buyTokens() payable public nonReentrant onlyWhenSaleActive {\n        require(msg.value > 0);\n\n        (uint index, ) = getCurrentStageIndex();\n\n        uint discount = stages[index].discount;\n        uint32 vesting = stages[index].vesting;\n        uint volumeBonus = getSaleVolumeBonus(msg.value);\n\n        (uint tokenAmount, uint weiCost, uint change, ) = _purchaseOrder(msg.value, discount, volumeBonus);\n\n        if (WTokenSaleFeePercent > 0) {\n            uint tokensFee = tokenAmount.percent(WTokenSaleFeePercent);\n\n            require(originToken.transferFrom(swap, serviceWallet, tokensFee));\n            require(token.transfer(swap, tokensFee));\n        }\n\n        require(token.vestingTransfer(msg.sender, tokenAmount, vesting));\n\n        if (change > 0) {\n            msg.sender.transfer(change);\n        }\n\n        if(serviceFee > 0)\n            serviceWallet.transfer(weiCost.percent(serviceFee));\n\n        fund.recordPurchase.value(address(this).balance).gas(100000)(msg.sender, tokenAmount);\n\n        emit TokenPurchase(msg.sender, weiCost, tokenAmount, change);\n    }\n\n    function _purchaseOrder(uint _wei, uint discount, uint volumeBonus)\n        internal view returns (uint tokens, uint weiCost, uint change, uint actualPrice)\n    {\n        weiCost = _wei;\n\n        uint balance = token.balanceOf(address(this));\n\n        require(balance >= 10 ** tokenDecimals);\n\n        actualPrice = discount > 0\n            ? price.mul(100 - discount).div(100)\n            : price;\n\n        tokens = _wei\n            .mul(100 + volumeBonus)\n            .div(actualPrice)\n            .mul(10 ** (tokenDecimals - 2));\n\n        if (balance < tokens) {\n            weiCost = _wei\n                .mul(balance)\n                .div(tokens);\n            change = _wei - weiCost;\n            tokens = balance;\n        }\n    }\n\n    function getWToken() external view returns(WToken) {\n        return token;\n    }\n\n    function getFund() external view returns(IW12Fund) {\n        return fund;\n    }\n\n    function getSaleVolumeBonus(uint value) public view returns(uint bonus) {\n        (uint index, bool found) = getCurrentStageIndex();\n\n        if (!found) return 0;\n\n        Stage storage stage = stages[i];\n\n        for(uint i = 0; i < stage.volumeBoundaries.length; i++) {\n            if (value >= stage.volumeBoundaries[i]) {\n                bonus = stage.volumeBonuses[i];\n            } else {\n                break;\n            }\n        }\n    }\n\n    function getCurrentStageIndex() public view returns (uint index, bool found) {\n        for(uint i = 0; i < stages.length; i++) {\n            Stage storage stage = stages[i];\n\n            if (stage.startDate <= now && stage.endDate > now) {\n                return (i, true);\n            }\n        }\n\n        return (0, false);\n    }\n\n    function claimRemainingTokens() external onlyOwner {\n        require(isEnded());\n\n        uint amount = token.balanceOf(address(this));\n\n        require(token.transfer(owner, amount));\n\n        emit UnsoldTokenReturned(owner, amount);\n    }\n\n    function isEnded() public view returns (bool) {\n        return stages.length == 0 || stages[stages.length - 1].endDate < now;\n    }\n\n    function isSaleActive() public view returns (bool) {\n        (uint index, bool found) = getCurrentStageIndex();\n\n        return found;\n    }\n\n    function() payable external {\n        buyTokens();\n    }\n\n    modifier beforeSaleStart() {\n        if (stages.length > 0) {\n            require(stages[0].startDate > now);\n        }\n\n        _;\n    }\n\n    modifier onlyWhenSaleActive() {\n        require(isSaleActive(), \"Sale is not started yet\");\n\n        _;\n    }\n}\n",
  "sourcePath": "/c/Users/Mr.Hokid/projects/work/w12-product-contracts/contracts/W12Crowdsale.sol",
  "compiler": {
    "name": "solc",
    "version": "0.4.24+commit.e67f0147.Emscripten.clang"
  },
  "schemaVersion": "2.0.1",
  "updatedAt": "2018-08-30T10:18:09.618Z"
}