{
  "contractName": "W12CrowdsaleFundStub",
  "abi": [
    {
      "constant": false,
      "inputs": [
        {
          "name": "_crowdsale",
          "type": "address"
        }
      ],
      "name": "setCrowdsale",
      "outputs": [],
      "payable": false,
      "stateMutability": "nonpayable",
      "type": "function"
    },
    {
      "constant": false,
      "inputs": [
        {
          "name": "_serviceWallet",
          "type": "address"
        }
      ],
      "name": "setServiceWallet",
      "outputs": [],
      "payable": false,
      "stateMutability": "nonpayable",
      "type": "function"
    },
    {
      "constant": false,
      "inputs": [
        {
          "name": "_swap",
          "type": "address"
        }
      ],
      "name": "setSwap",
      "outputs": [],
      "payable": false,
      "stateMutability": "nonpayable",
      "type": "function"
    },
    {
      "constant": false,
      "inputs": [
        {
          "name": "newOwner",
          "type": "address"
        }
      ],
      "name": "transferOwnership",
      "outputs": [],
      "payable": false,
      "stateMutability": "nonpayable",
      "type": "function"
    },
    {
      "constant": true,
      "inputs": [],
      "name": "_getRecordPurchaseCallResult",
      "outputs": [
        {
          "name": "",
          "type": "address"
        },
        {
          "name": "",
          "type": "uint256"
        },
        {
          "name": "",
          "type": "bytes32"
        },
        {
          "name": "",
          "type": "uint256"
        },
        {
          "name": "",
          "type": "uint256"
        },
        {
          "name": "",
          "type": "uint256"
        }
      ],
      "payable": false,
      "stateMutability": "view",
      "type": "function"
    },
    {
      "constant": false,
      "inputs": [
        {
          "name": "investor",
          "type": "address"
        },
        {
          "name": "tokenAmount",
          "type": "uint256"
        },
        {
          "name": "symbol",
          "type": "bytes32"
        },
        {
          "name": "cost",
          "type": "uint256"
        },
        {
          "name": "costUSD",
          "type": "uint256"
        }
      ],
      "name": "recordPurchase",
      "outputs": [],
      "payable": true,
      "stateMutability": "payable",
      "type": "function"
    },
    {
      "constant": false,
      "inputs": [
        {
          "name": "to",
          "type": "address"
        }
      ],
      "name": "_outEther",
      "outputs": [],
      "payable": false,
      "stateMutability": "nonpayable",
      "type": "function"
    }
  ],
  "bytecode": "0x608060405234801561001057600080fd5b5061023f806100206000396000f3006080604052600436106100825763ffffffff7c010000000000000000000000000000000000000000000000000000000060003504166323bffccc8114610087578063483a20b2146100875780635773caaf146100aa578063acb3c07314610087578063d0baf2f5146100cb578063d3f19508146100eb578063f2fde38b14610087575b600080fd5b34801561009357600080fd5b506100a8600160a060020a036004351661013d565b005b3480156100b657600080fd5b506100a8600160a060020a0360043516610140565b6100a8600160a060020a036004351660243560443560643560843561017a565b3480156100f757600080fd5b506101006101ed565b60408051600160a060020a0390971687526020870195909552858501939093526060850191909152608084015260a0830152519081900360c00190f35b50565b604051600160a060020a03821690303180156108fc02916000818181858888f19350505050158015610176573d6000803e3d6000fd5b5050565b6040805160c081018252600160a060020a039096168087526020870186905290860184905260608601839052608086018290523460a09096018690526000805473ffffffffffffffffffffffffffffffffffffffff19169091179055600193909355600291909155600355600455600555565b600054600154600254600354600454600554600160a060020a03909516949091929394955600a165627a7a72305820a24b83e3602dbec84dea6db52d93775e04d9166443a4247fb543aa4cd3a360d40029",
  "source": "pragma solidity ^0.4.24;\n\nimport \"openzeppelin-solidity/contracts/token/ERC20/ERC20.sol\";\nimport \"../../rates/IRates.sol\";\nimport \"../../crowdsale/W12Fund.sol\";\nimport \"../../token/IWToken.sol\";\n\n\ncontract W12CrowdsaleFundStub is IW12Fund {\n\n    function setCrowdsale(IW12Crowdsale _crowdsale) external {}\n\n    function setServiceWallet(address _serviceWallet) external {}\n\n    function setSwap(address _swap) external {}\n\n    function transferOwnership(address newOwner) external {}\n\n    struct RecordPurchaseCallResult {\n        address investor;\n        uint tokenAmount;\n        bytes32 symbol;\n        uint cost;\n        uint costUSD;\n        uint _value;\n    }\n\n    RecordPurchaseCallResult __recordPurchaseCallResult;\n    function _getRecordPurchaseCallResult() external view returns(address, uint, bytes32, uint, uint, uint) {\n        return (\n            __recordPurchaseCallResult.investor,\n            __recordPurchaseCallResult.tokenAmount,\n            __recordPurchaseCallResult.symbol,\n            __recordPurchaseCallResult.cost,\n            __recordPurchaseCallResult.costUSD,\n            __recordPurchaseCallResult._value\n        );\n    }\n\n    function recordPurchase(\n        address investor,\n        uint tokenAmount,\n        bytes32 symbol,\n        uint cost,\n        uint costUSD\n    ) external payable {\n        __recordPurchaseCallResult = RecordPurchaseCallResult({\n            investor: investor,\n            tokenAmount: tokenAmount,\n            symbol: symbol,\n            cost: cost,\n            costUSD: costUSD,\n            _value: msg.value\n        });\n    }\n\n    function _outEther(address to) external {\n        return to.transfer(address(this).balance);\n    }\n}\n",
  "sourcePath": "/home/circleci/code/contracts/mocks/crowdsale/W12CrowdsaleFundStub.sol",
  "compiler": {
    "name": "solc",
    "version": "0.4.24+commit.e67f0147.Emscripten.clang"
  },
  "schemaVersion": "2.0.1",
  "updatedAt": "2018-10-27T04:51:45.307Z"
}