{
  "contractName": "W12CrowdsaleStub",
  "abi": [
    {
      "constant": false,
      "inputs": [
        {
          "name": "dates",
          "type": "uint32[]"
        },
        {
          "name": "tranchePercents",
          "type": "uint8[]"
        },
        {
          "name": "offsets",
          "type": "uint32[]"
        },
        {
          "name": "namesAndDescriptions",
          "type": "bytes"
        }
      ],
      "name": "setMilestones",
      "outputs": [],
      "payable": false,
      "stateMutability": "nonpayable",
      "type": "function"
    },
    {
      "constant": true,
      "inputs": [
        {
          "name": "stageNumber",
          "type": "uint256"
        }
      ],
      "name": "getStageVolumeBonuses",
      "outputs": [
        {
          "name": "",
          "type": "uint8[]"
        }
      ],
      "payable": false,
      "stateMutability": "view",
      "type": "function"
    },
    {
      "constant": true,
      "inputs": [],
      "name": "originToken",
      "outputs": [
        {
          "name": "",
          "type": "address"
        }
      ],
      "payable": false,
      "stateMutability": "view",
      "type": "function"
    },
    {
      "constant": true,
      "inputs": [
        {
          "name": "value",
          "type": "uint256"
        }
      ],
      "name": "getSaleVolumeBonus",
      "outputs": [
        {
          "name": "bonus",
          "type": "uint256"
        }
      ],
      "payable": false,
      "stateMutability": "view",
      "type": "function"
    },
    {
      "constant": false,
      "inputs": [
        {
          "name": "_price",
          "type": "uint256"
        },
        {
          "name": "_serviceWallet",
          "type": "address"
        }
      ],
      "name": "setParameters",
      "outputs": [],
      "payable": false,
      "stateMutability": "nonpayable",
      "type": "function"
    },
    {
      "constant": true,
      "inputs": [
        {
          "name": "index",
          "type": "uint256"
        }
      ],
      "name": "getMilestone",
      "outputs": [
        {
          "name": "",
          "type": "uint32"
        },
        {
          "name": "",
          "type": "uint8"
        },
        {
          "name": "",
          "type": "uint32"
        },
        {
          "name": "",
          "type": "uint32"
        },
        {
          "name": "",
          "type": "bytes"
        },
        {
          "name": "",
          "type": "bytes"
        }
      ],
      "payable": false,
      "stateMutability": "view",
      "type": "function"
    },
    {
      "constant": true,
      "inputs": [],
      "name": "getCurrentMilestone",
      "outputs": [
        {
          "name": "",
          "type": "uint32"
        },
        {
          "name": "",
          "type": "uint8"
        },
        {
          "name": "",
          "type": "uint32"
        },
        {
          "name": "",
          "type": "uint32"
        },
        {
          "name": "",
          "type": "bytes"
        },
        {
          "name": "",
          "type": "bytes"
        }
      ],
      "payable": false,
      "stateMutability": "view",
      "type": "function"
    },
    {
      "constant": false,
      "inputs": [
        {
          "name": "dates",
          "type": "uint32[2][]"
        },
        {
          "name": "stage_discounts",
          "type": "uint8[]"
        },
        {
          "name": "stage_vestings",
          "type": "uint32[]"
        }
      ],
      "name": "setStages",
      "outputs": [],
      "payable": false,
      "stateMutability": "nonpayable",
      "type": "function"
    },
    {
      "constant": true,
      "inputs": [],
      "name": "WTokenSaleFeePercent",
      "outputs": [
        {
          "name": "",
          "type": "uint256"
        }
      ],
      "payable": false,
      "stateMutability": "view",
      "type": "function"
    },
    {
      "constant": false,
      "inputs": [],
      "name": "claimRemainingTokens",
      "outputs": [],
      "payable": false,
      "stateMutability": "nonpayable",
      "type": "function"
    },
    {
      "constant": true,
      "inputs": [],
      "name": "milestonesLength",
      "outputs": [
        {
          "name": "",
          "type": "uint256"
        }
      ],
      "payable": false,
      "stateMutability": "view",
      "type": "function"
    },
    {
      "constant": true,
      "inputs": [],
      "name": "getWToken",
      "outputs": [
        {
          "name": "",
          "type": "address"
        }
      ],
      "payable": false,
      "stateMutability": "view",
      "type": "function"
    },
    {
      "constant": false,
      "inputs": [
        {
          "name": "stage",
          "type": "uint256"
        },
        {
          "name": "volumeBoundaries",
          "type": "uint256[]"
        },
        {
          "name": "volumeBonuses",
          "type": "uint8[]"
        }
      ],
      "name": "setStageVolumeBonuses",
      "outputs": [],
      "payable": false,
      "stateMutability": "nonpayable",
      "type": "function"
    },
    {
      "constant": true,
      "inputs": [],
      "name": "serviceWallet",
      "outputs": [
        {
          "name": "",
          "type": "address"
        }
      ],
      "payable": false,
      "stateMutability": "view",
      "type": "function"
    },
    {
      "constant": true,
      "inputs": [],
      "name": "isSaleActive",
      "outputs": [
        {
          "name": "",
          "type": "bool"
        }
      ],
      "payable": false,
      "stateMutability": "view",
      "type": "function"
    },
    {
      "constant": false,
      "inputs": [],
      "name": "renounceOwnership",
      "outputs": [],
      "payable": false,
      "stateMutability": "nonpayable",
      "type": "function"
    },
    {
      "constant": true,
      "inputs": [
        {
          "name": "",
          "type": "uint256"
        }
      ],
      "name": "milestoneDates",
      "outputs": [
        {
          "name": "",
          "type": "uint32"
        }
      ],
      "payable": false,
      "stateMutability": "view",
      "type": "function"
    },
    {
      "constant": true,
      "inputs": [],
      "name": "stagesLength",
      "outputs": [
        {
          "name": "",
          "type": "uint256"
        }
      ],
      "payable": false,
      "stateMutability": "view",
      "type": "function"
    },
    {
      "constant": true,
      "inputs": [],
      "name": "swap",
      "outputs": [
        {
          "name": "",
          "type": "address"
        }
      ],
      "payable": false,
      "stateMutability": "view",
      "type": "function"
    },
    {
      "constant": true,
      "inputs": [
        {
          "name": "",
          "type": "uint256"
        }
      ],
      "name": "stages",
      "outputs": [
        {
          "name": "startDate",
          "type": "uint32"
        },
        {
          "name": "endDate",
          "type": "uint32"
        },
        {
          "name": "discount",
          "type": "uint8"
        },
        {
          "name": "vesting",
          "type": "uint32"
        }
      ],
      "payable": false,
      "stateMutability": "view",
      "type": "function"
    },
    {
      "constant": true,
      "inputs": [],
      "name": "serviceFee",
      "outputs": [
        {
          "name": "",
          "type": "uint256"
        }
      ],
      "payable": false,
      "stateMutability": "view",
      "type": "function"
    },
    {
      "constant": true,
      "inputs": [],
      "name": "owner",
      "outputs": [
        {
          "name": "",
          "type": "address"
        }
      ],
      "payable": false,
      "stateMutability": "view",
      "type": "function"
    },
    {
      "constant": true,
      "inputs": [],
      "name": "getFund",
      "outputs": [
        {
          "name": "",
          "type": "address"
        }
      ],
      "payable": false,
      "stateMutability": "view",
      "type": "function"
    },
    {
      "constant": true,
      "inputs": [],
      "name": "price",
      "outputs": [
        {
          "name": "",
          "type": "uint256"
        }
      ],
      "payable": false,
      "stateMutability": "view",
      "type": "function"
    },
    {
      "constant": true,
      "inputs": [],
      "name": "isEnded",
      "outputs": [
        {
          "name": "",
          "type": "bool"
        }
      ],
      "payable": false,
      "stateMutability": "view",
      "type": "function"
    },
    {
      "constant": true,
      "inputs": [],
      "name": "getEndDate",
      "outputs": [
        {
          "name": "",
          "type": "uint32"
        }
      ],
      "payable": false,
      "stateMutability": "view",
      "type": "function"
    },
    {
      "constant": true,
      "inputs": [],
      "name": "fund",
      "outputs": [
        {
          "name": "",
          "type": "address"
        }
      ],
      "payable": false,
      "stateMutability": "view",
      "type": "function"
    },
    {
      "constant": false,
      "inputs": [],
      "name": "buyTokens",
      "outputs": [],
      "payable": true,
      "stateMutability": "payable",
      "type": "function"
    },
    {
      "constant": true,
      "inputs": [],
      "name": "getCurrentMilestoneIndex",
      "outputs": [
        {
          "name": "index",
          "type": "uint256"
        }
      ],
      "payable": false,
      "stateMutability": "view",
      "type": "function"
    },
    {
      "constant": true,
      "inputs": [],
      "name": "getCurrentStageIndex",
      "outputs": [
        {
          "name": "index",
          "type": "uint256"
        },
        {
          "name": "found",
          "type": "bool"
        }
      ],
      "payable": false,
      "stateMutability": "view",
      "type": "function"
    },
    {
      "constant": true,
      "inputs": [
        {
          "name": "",
          "type": "uint256"
        }
      ],
      "name": "milestones",
      "outputs": [
        {
          "name": "endDate",
          "type": "uint32"
        },
        {
          "name": "tranchePercent",
          "type": "uint8"
        },
        {
          "name": "voteEndDate",
          "type": "uint32"
        },
        {
          "name": "withdrawalWindow",
          "type": "uint32"
        },
        {
          "name": "name",
          "type": "bytes"
        },
        {
          "name": "description",
          "type": "bytes"
        }
      ],
      "payable": false,
      "stateMutability": "view",
      "type": "function"
    },
    {
      "constant": true,
      "inputs": [
        {
          "name": "stageNumber",
          "type": "uint256"
        }
      ],
      "name": "getStageVolumeBoundaries",
      "outputs": [
        {
          "name": "",
          "type": "uint256[]"
        }
      ],
      "payable": false,
      "stateMutability": "view",
      "type": "function"
    },
    {
      "constant": false,
      "inputs": [
        {
          "name": "_newOwner",
          "type": "address"
        }
      ],
      "name": "transferOwnership",
      "outputs": [],
      "payable": false,
      "stateMutability": "nonpayable",
      "type": "function"
    },
    {
      "constant": true,
      "inputs": [],
      "name": "token",
      "outputs": [
        {
          "name": "",
          "type": "address"
        }
      ],
      "payable": false,
      "stateMutability": "view",
      "type": "function"
    },
    {
      "inputs": [
        {
          "name": "_originToken",
          "type": "address"
        },
        {
          "name": "_token",
          "type": "address"
        },
        {
          "name": "_tokenDecimals",
          "type": "uint256"
        },
        {
          "name": "_price",
          "type": "uint256"
        },
        {
          "name": "_serviceWallet",
          "type": "address"
        },
        {
          "name": "_swap",
          "type": "address"
        },
        {
          "name": "_serviceFee",
          "type": "uint256"
        },
        {
          "name": "_WTokenSaleFeePercent",
          "type": "uint256"
        },
        {
          "name": "_fund",
          "type": "address"
        }
      ],
      "payable": false,
      "stateMutability": "nonpayable",
      "type": "constructor"
    },
    {
      "payable": true,
      "stateMutability": "payable",
      "type": "fallback"
    },
    {
      "anonymous": false,
      "inputs": [
        {
          "indexed": true,
          "name": "buyer",
          "type": "address"
        },
        {
          "indexed": false,
          "name": "amountPaid",
          "type": "uint256"
        },
        {
          "indexed": false,
          "name": "tokensBought",
          "type": "uint256"
        },
        {
          "indexed": false,
          "name": "change",
          "type": "uint256"
        }
      ],
      "name": "TokenPurchase",
      "type": "event"
    },
    {
      "anonymous": false,
      "inputs": [],
      "name": "StagesUpdated",
      "type": "event"
    },
    {
      "anonymous": false,
      "inputs": [],
      "name": "MilestonesSet",
      "type": "event"
    },
    {
      "anonymous": false,
      "inputs": [
        {
          "indexed": false,
          "name": "value",
          "type": "uint256"
        }
      ],
      "name": "debug",
      "type": "event"
    },
    {
      "anonymous": false,
      "inputs": [
        {
          "indexed": true,
          "name": "previousOwner",
          "type": "address"
        }
      ],
      "name": "OwnershipRenounced",
      "type": "event"
    },
    {
      "anonymous": false,
      "inputs": [
        {
          "indexed": true,
          "name": "previousOwner",
          "type": "address"
        },
        {
          "indexed": true,
          "name": "newOwner",
          "type": "address"
        }
      ],
      "name": "OwnershipTransferred",
      "type": "event"
    },
    {
      "constant": false,
      "inputs": [
        {
          "name": "to",
          "type": "address"
        },
        {
          "name": "amount",
          "type": "uint256"
        }
      ],
      "name": "_outTokens",
      "outputs": [
        {
          "name": "",
          "type": "bool"
        }
      ],
      "payable": false,
      "stateMutability": "nonpayable",
      "type": "function"
    },
    {
      "constant": false,
      "inputs": [
        {
          "name": "_WTokenSaleFeePercent",
          "type": "uint256"
        }
      ],
      "name": "_setState",
      "outputs": [],
      "payable": false,
      "stateMutability": "nonpayable",
      "type": "function"
    }
  ],
  "bytecode": "0x6080604052600180553480156200001557600080fd5b506040516101208062004741833981018060405281019080805190602001909291908051906020019092919080519060200190929190805190602001909291908051906020019092919080519060200190929190805190602001909291908051906020019092919080519060200190929190505050888888888888888888336000806101000a81548173ffffffffffffffffffffffffffffffffffffffff021916908373ffffffffffffffffffffffffffffffffffffffff160217905550600073ffffffffffffffffffffffffffffffffffffffff168873ffffffffffffffffffffffffffffffffffffffff16141515156200011057600080fd5b6200012f83620003826401000000000262003e3b176401000000009004565b80156200015a5750606462000158846200039e640100000000026200421e176401000000009004565b105b15156200016657600080fd5b6200018582620003826401000000000262003e3b176401000000009004565b8015620001b057506064620001ae836200039e640100000000026200421e176401000000009004565b105b1515620001bc57600080fd5b600073ffffffffffffffffffffffffffffffffffffffff168173ffffffffffffffffffffffffffffffffffffffff1614151515620001f957600080fd5b600073ffffffffffffffffffffffffffffffffffffffff168473ffffffffffffffffffffffffffffffffffffffff16141515156200023657600080fd5b87600260006101000a81548173ffffffffffffffffffffffffffffffffffffffff021916908373ffffffffffffffffffffffffffffffffffffffff16021790555088600360006101000a81548173ffffffffffffffffffffffffffffffffffffffff021916908373ffffffffffffffffffffffffffffffffffffffff16021790555086600481905550620002da8686620003f1640100000000026401000000009004565b8260068190555083600960006101000a81548173ffffffffffffffffffffffffffffffffffffffff021916908373ffffffffffffffffffffffffffffffffffffffff1602179055508160078190555080600a60006101000a81548173ffffffffffffffffffffffffffffffffffffffff021916908373ffffffffffffffffffffffffffffffffffffffff160217905550505050505050505050505050505050505050620004b6565b60008082101580156200039757506127108211155b9050919050565b6000620003ba8262000382640100000000026401000000009004565b1515620003c657600080fd5b620003ea6064836200048a6401000000000262003e11179091906401000000009004565b9050919050565b6000821115156200040157600080fd5b600073ffffffffffffffffffffffffffffffffffffffff168173ffffffffffffffffffffffffffffffffffffffff16141515156200043e57600080fd5b8160058190555080600860006101000a81548173ffffffffffffffffffffffffffffffffffffffff021916908373ffffffffffffffffffffffffffffffffffffffff1602179055505050565b6000806000831115156200049d57600080fd5b8284811515620004a957fe5b0490508091505092915050565b61427b80620004c66000396000f3006080604052600436106101c2576000357c0100000000000000000000000000000000000000000000000000000000900463ffffffff1680630d544ffe146101cc5780630ee62c771461024f57806313096a41146102d15780631aecc19f14610328578063208853c91461038d57806323d840f5146103ce5780632442e1cb1461041b578063299a017c146105735780632c9a4bab146106b55780632fbe599014610720578063313602d41461074b5780633baba4d7146107625780634090cb641461078d578063521b7499146107e45780635641f3c314610841578063564566a814610898578063715018a6146108c757806372e6a881146108de578063792c02ea1461092b5780638119c06514610956578063845ddcb2146109ad5780638abdf5aa14610a2d5780638da5cb5b14610a585780638edd6eb614610aaf578063a035b1fe14610b06578063a4fd6f5614610b31578063b135648814610b60578063b60d428814610b97578063ca7348a314610bee578063d0febe4c14610c1b578063d6d65f3d14610c25578063daa4cf8814610c50578063e89e4ed614610c86578063f12585f514610dde578063f2fde38b14610e60578063fc0c546a14610ea3575b6101ca610efa565b005b3480156101d857600080fd5b5061024d600480360381019080803590602001908201803590602001919091929391929390803590602001908201803590602001919091929391929390803590602001908201803590602001919091929391929390803590602001908201803590602001919091929391929390505050611676565b005b34801561025b57600080fd5b5061027a60048036038101908080359060200190929190505050611eea565b6040518080602001828103825283818151815260200191508051906020019060200280838360005b838110156102bd5780820151818401526020810190506102a2565b505050509050019250505060405180910390f35b3480156102dd57600080fd5b506102e6611f88565b604051808273ffffffffffffffffffffffffffffffffffffffff1673ffffffffffffffffffffffffffffffffffffffff16815260200191505060405180910390f35b34801561033457600080fd5b50610373600480360381019080803573ffffffffffffffffffffffffffffffffffffffff16906020019092919080359060200190929190505050611fae565b604051808215151515815260200191505060405180910390f35b34801561039957600080fd5b506103b8600480360381019080803590602001909291905050506120b8565b6040518082815260200191505060405180910390f35b3480156103da57600080fd5b5061041960048036038101908080359060200190929190803573ffffffffffffffffffffffffffffffffffffffff1690602001909291905050506121b4565b005b34801561042757600080fd5b5061044660048036038101908080359060200190929190505050612271565b604051808763ffffffff1663ffffffff1681526020018660ff1660ff1681526020018563ffffffff1663ffffffff1681526020018463ffffffff1663ffffffff1681526020018060200180602001838103835285818151815260200191508051906020019080838360005b838110156104cc5780820151818401526020810190506104b1565b50505050905090810190601f1680156104f95780820380516001836020036101000a031916815260200191505b50838103825284818151815260200191508051906020019080838360005b83811015610532578082015181840152602081019050610517565b50505050905090810190601f16801561055f5780820380516001836020036101000a031916815260200191505b509850505050505050505060405180910390f35b34801561057f57600080fd5b506105886124c8565b604051808763ffffffff1663ffffffff1681526020018660ff1660ff1681526020018563ffffffff1663ffffffff1681526020018463ffffffff1663ffffffff1681526020018060200180602001838103835285818151815260200191508051906020019080838360005b8381101561060e5780820151818401526020810190506105f3565b50505050905090810190601f16801561063b5780820380516001836020036101000a031916815260200191505b50838103825284818151815260200191508051906020019080838360005b83811015610674578082015181840152602081019050610659565b50505050905090810190601f1680156106a15780820380516001836020036101000a031916815260200191505b509850505050505050505060405180910390f35b3480156106c157600080fd5b5061071e6004803603810190808035906020019082018035906020019190919293919293908035906020019082018035906020019190919293919293908035906020019082018035906020019190919293919293905050506124fb565b005b34801561072c57600080fd5b50610735612c83565b6040518082815260200191505060405180910390f35b34801561075757600080fd5b50610760612c89565b005b34801561076e57600080fd5b50610777612f1c565b6040518082815260200191505060405180910390f35b34801561079957600080fd5b506107a2612f29565b604051808273ffffffffffffffffffffffffffffffffffffffff1673ffffffffffffffffffffffffffffffffffffffff16815260200191505060405180910390f35b3480156107f057600080fd5b5061083f60048036038101908080359060200190929190803590602001908201803590602001919091929391929390803590602001908201803590602001919091929391929390505050612f53565b005b34801561084d57600080fd5b506108566131da565b604051808273ffffffffffffffffffffffffffffffffffffffff1673ffffffffffffffffffffffffffffffffffffffff16815260200191505060405180910390f35b3480156108a457600080fd5b506108ad613200565b604051808215151515815260200191505060405180910390f35b3480156108d357600080fd5b506108dc6132a4565b005b3480156108ea57600080fd5b50610909600480360381019080803590602001909291905050506133a6565b604051808263ffffffff1663ffffffff16815260200191505060405180910390f35b34801561093757600080fd5b506109406133df565b6040518082815260200191505060405180910390f35b34801561096257600080fd5b5061096b6133ec565b604051808273ffffffffffffffffffffffffffffffffffffffff1673ffffffffffffffffffffffffffffffffffffffff16815260200191505060405180910390f35b3480156109b957600080fd5b506109d860048036038101908080359060200190929190505050613412565b604051808563ffffffff1663ffffffff1681526020018463ffffffff1663ffffffff1681526020018360ff1660ff1681526020018263ffffffff1663ffffffff16815260200194505050505060405180910390f35b348015610a3957600080fd5b50610a4261348e565b6040518082815260200191505060405180910390f35b348015610a6457600080fd5b50610a6d613494565b604051808273ffffffffffffffffffffffffffffffffffffffff1673ffffffffffffffffffffffffffffffffffffffff16815260200191505060405180910390f35b348015610abb57600080fd5b50610ac46134b9565b604051808273ffffffffffffffffffffffffffffffffffffffff1673ffffffffffffffffffffffffffffffffffffffff16815260200191505060405180910390f35b348015610b1257600080fd5b50610b1b6134e3565b6040518082815260200191505060405180910390f35b348015610b3d57600080fd5b50610b466134e9565b604051808215151515815260200191505060405180910390f35b348015610b6c57600080fd5b50610b75613540565b604051808263ffffffff1663ffffffff16815260200191505060405180910390f35b348015610ba357600080fd5b50610bac613593565b604051808273ffffffffffffffffffffffffffffffffffffffff1673ffffffffffffffffffffffffffffffffffffffff16815260200191505060405180910390f35b348015610bfa57600080fd5b50610c19600480360381019080803590602001909291905050506135b9565b005b610c23610efa565b005b348015610c3157600080fd5b50610c3a6135c3565b6040518082815260200191505060405180910390f35b348015610c5c57600080fd5b50610c65613641565b60405180838152602001821515151581526020019250505060405180910390f35b348015610c9257600080fd5b50610cb1600480360381019080803590602001909291905050506136ea565b604051808763ffffffff1663ffffffff1681526020018660ff1660ff1681526020018563ffffffff1663ffffffff1681526020018463ffffffff1663ffffffff1681526020018060200180602001838103835285818151815260200191508051906020019080838360005b83811015610d37578082015181840152602081019050610d1c565b50505050905090810190601f168015610d645780820380516001836020036101000a031916815260200191505b50838103825284818151815260200191508051906020019080838360005b83811015610d9d578082015181840152602081019050610d82565b50505050905090810190601f168015610dca5780820380516001836020036101000a031916815260200191505b509850505050505050505060405180910390f35b348015610dea57600080fd5b50610e09600480360381019080803590602001909291905050506138a2565b6040518080602001828103825283818151815260200191508051906020019060200280838360005b83811015610e4c578082015181840152602081019050610e31565b505050509050019250505060405180910390f35b348015610e6c57600080fd5b50610ea1600480360381019080803573ffffffffffffffffffffffffffffffffffffffff16906020019092919050505061391a565b005b348015610eaf57600080fd5b50610eb8613981565b604051808273ffffffffffffffffffffffffffffffffffffffff1673ffffffffffffffffffffffffffffffffffffffff16815260200191505060405180910390f35b6000806000806000806000806000600180600082825401925050819055506001549050610f25613200565b1515610f99576040517f08c379a00000000000000000000000000000000000000000000000000000000081526004018080602001828103825260178152602001807f53616c65206973206e6f7420737461727465642079657400000000000000000081525060200191505060405180910390fd5b600034111515610fa857600080fd5b610fb0613641565b509850600b89815481101515610fc257fe5b906000526020600020906003020160000160089054906101000a900460ff1660ff169750600b89815481101515610ff557fe5b906000526020600020906003020160000160099054906101000a900463ffffffff169650611022346120b8565b955061102f3489886139a7565b50945094509450600060075411156113095761105660075486613b7090919063ffffffff16565b9150600360009054906101000a900473ffffffffffffffffffffffffffffffffffffffff1673ffffffffffffffffffffffffffffffffffffffff166323b872dd600960009054906101000a900473ffffffffffffffffffffffffffffffffffffffff16600860009054906101000a900473ffffffffffffffffffffffffffffffffffffffff16856040518463ffffffff167c0100000000000000000000000000000000000000000000000000000000028152600401808473ffffffffffffffffffffffffffffffffffffffff1673ffffffffffffffffffffffffffffffffffffffff1681526020018373ffffffffffffffffffffffffffffffffffffffff1673ffffffffffffffffffffffffffffffffffffffff1681526020018281526020019350505050602060405180830381600087803b15801561119557600080fd5b505af11580156111a9573d6000803e3d6000fd5b505050506040513d60208110156111bf57600080fd5b810190808051906020019092919050505015156111db57600080fd5b600260009054906101000a900473ffffffffffffffffffffffffffffffffffffffff1673ffffffffffffffffffffffffffffffffffffffff1663a9059cbb600960009054906101000a900473ffffffffffffffffffffffffffffffffffffffff16846040518363ffffffff167c0100000000000000000000000000000000000000000000000000000000028152600401808373ffffffffffffffffffffffffffffffffffffffff1673ffffffffffffffffffffffffffffffffffffffff16815260200182815260200192505050602060405180830381600087803b1580156112c257600080fd5b505af11580156112d6573d6000803e3d6000fd5b505050506040513d60208110156112ec57600080fd5b8101908080519060200190929190505050151561130857600080fd5b5b600260009054906101000a900473ffffffffffffffffffffffffffffffffffffffff1673ffffffffffffffffffffffffffffffffffffffff16639d2e477733878a6040518463ffffffff167c0100000000000000000000000000000000000000000000000000000000028152600401808473ffffffffffffffffffffffffffffffffffffffff1673ffffffffffffffffffffffffffffffffffffffff1681526020018381526020018263ffffffff1663ffffffff1681526020019350505050602060405180830381600087803b1580156113e257600080fd5b505af11580156113f6573d6000803e3d6000fd5b505050506040513d602081101561140c57600080fd5b8101908080519060200190929190505050151561142857600080fd5b6000831115611479573373ffffffffffffffffffffffffffffffffffffffff166108fc849081150290604051600060405180830381858888f19350505050158015611477573d6000803e3d6000fd5b505b6000600654111561150257600860009054906101000a900473ffffffffffffffffffffffffffffffffffffffff1673ffffffffffffffffffffffffffffffffffffffff166108fc6114d560065487613b7090919063ffffffff16565b9081150290604051600060405180830381858888f19350505050158015611500573d6000803e3d6000fd5b505b600a60009054906101000a900473ffffffffffffffffffffffffffffffffffffffff1673ffffffffffffffffffffffffffffffffffffffff1663958799cb3073ffffffffffffffffffffffffffffffffffffffff1631620186a09033896040518563ffffffff167c0100000000000000000000000000000000000000000000000000000000028152600401808373ffffffffffffffffffffffffffffffffffffffff1673ffffffffffffffffffffffffffffffffffffffff168152602001828152602001925050506000604051808303818589803b1580156115e357600080fd5b5088f11580156115f7573d6000803e3d6000fd5b5050505050503373ffffffffffffffffffffffffffffffffffffffff167f347f5f0051b895093800553e6e78ef332849e2552639a4f5ffe66535788ae07885878660405180848152602001838152602001828152602001935050505060405180910390a26001548114151561166b57600080fd5b505050505050505050565b60008060006060806000809054906101000a900473ffffffffffffffffffffffffffffffffffffffff1673ffffffffffffffffffffffffffffffffffffffff163373ffffffffffffffffffffffffffffffffffffffff161415156116d957600080fd5b6000600b80549050111561172d5742600b60008154811015156116f857fe5b906000526020600020906003020160000160009054906101000a900463ffffffff1663ffffffff1611151561172c57600080fd5b5b7fffffffffffffffffffffffffffffffffffffffffffffffffffffffffffffffff60ff168d8d90501115151561176257600080fd5b60038d8d90501015151561177557600080fd5b600060038e8e905081151561178657fe5b0614151561179357600080fd5b888890506117ae60028d8d9050613bb590919063ffffffff16565b1415156117ba57600080fd5b8c8c90506117d560038d8d9050613bb590919063ffffffff16565b1415156117e157600080fd5b60028b8b90500287879050101515156117f957600080fd5b6000600b805490501115611904578c8c6000818110151561181657fe5b9050602002013563ffffffff1663ffffffff16600b6001600b805490500381548110151561184057fe5b906000526020600020906003020160000160049054906101000a900463ffffffff1663ffffffff16101515611903576040517f08c379a00000000000000000000000000000000000000000000000000000000081526004018080602001828103825260358152602001807f4669727374206d696c6573746f6e6520656e6444617465206d7573742062652081526020017f6774206c61737420737461676520656e6444617465000000000000000000000081525060400191505060405180910390fd5b5b6000945060009350600092505b8c8c905060ff168360ff161015611eb757428d8d8560ff16818110151561193457fe5b9050602002013563ffffffff1663ffffffff1611151561195357600080fd5b8c8c8460ff16818110151561196457fe5b9050602002013563ffffffff1663ffffffff168d8d6001860160ff16818110151561198b57fe5b9050602002013563ffffffff1663ffffffff161115156119aa57600080fd5b8c8c6001850160ff1681811015156119be57fe5b9050602002013563ffffffff1663ffffffff168d8d6002860160ff1681811015156119e557fe5b9050602002013563ffffffff1663ffffffff16111515611a0457600080fd5b60008360ff161115611af7578c8c8460ff168181101515611a2157fe5b9050602002013563ffffffff1663ffffffff168d8d6001860360ff168181101515611a4857fe5b9050602002013563ffffffff1663ffffffff16101515611af6576040517f08c379a00000000000000000000000000000000000000000000000000000000081526004018080602001828103825260298152602001807f4d696c6573746f6e65206461746573206973206e6f7420696e20617363656e6481526020017f696e67206f72646572000000000000000000000000000000000000000000000081525060400191505060405180910390fd5b5b611b73858a8a600260038860ff16811515611b0e57fe5b040260ff168181101515611b1e57fe5b9050602002013563ffffffff1663ffffffff1689898080601f016020809104026020016040519081016040528093929190818152602001838380828437820191505050505050613bf39092919063ffffffff16565b9150611c2b8989600260038760ff16811515611b8b57fe5b040260ff168181101515611b9b57fe5b9050602002013563ffffffff1663ffffffff1686018a8a6001600260038960ff16811515611bc557fe5b04020160ff168181101515611bd657fe5b9050602002013563ffffffff1663ffffffff1689898080601f016020809104026020016040519081016040528093929190818152602001838380828437820191505050505050613bf39092919063ffffffff16565b905060008251111515611c3d57600080fd5b60008151111515611c4d57600080fd5b600c60c0604051908101604052808f8f8760ff168181101515611c6c57fe5b9050602002013563ffffffff1663ffffffff1681526020018d8d60038860ff16811515611c9557fe5b0460ff168181101515611ca457fe5b9050602002013560ff1660ff1681526020018f8f6001880160ff168181101515611cca57fe5b9050602002013563ffffffff1663ffffffff1681526020018f8f6002880160ff168181101515611cf657fe5b9050602002013563ffffffff1663ffffffff168152602001848152602001838152509080600181540180825580915050906001820390600052602060002090600302016000909192909190915060008201518160000160006101000a81548163ffffffff021916908363ffffffff16021790555060208201518160000160046101000a81548160ff021916908360ff16021790555060408201518160000160056101000a81548163ffffffff021916908363ffffffff16021790555060608201518160000160096101000a81548163ffffffff021916908363ffffffff1602179055506080820151816001019080519060200190611df5929190613e56565b5060a0820151816002019080519060200190611e12929190613e56565b505050508888600160038660ff16811515611e2957fe5b040160ff168181101515611e3957fe5b9050602002013563ffffffff16898960038660ff16811515611e5757fe5b0460ff168181101515611e6657fe5b9050602002013563ffffffff160163ffffffff16850194508a8a60038560ff16811515611e8f57fe5b0460ff168181101515611e9e57fe5b9050602002013560ff1684019350600383019250611911565b8c8c600d9190611ec8929190613ed6565b5060648460ff16141515611edb57600080fd5b50505050505050505050505050565b6060600b82815481101515611efb57fe5b9060005260206000209060030201600201805480602002602001604051908101604052809291908181526020018280548015611f7c57602002820191906000526020600020906000905b82829054906101000a900460ff1660ff1681526020019060010190602082600001049283019260010382029150808411611f455790505b50505050509050919050565b600360009054906101000a900473ffffffffffffffffffffffffffffffffffffffff1681565b6000600260009054906101000a900473ffffffffffffffffffffffffffffffffffffffff1673ffffffffffffffffffffffffffffffffffffffff1663a9059cbb84846040518363ffffffff167c0100000000000000000000000000000000000000000000000000000000028152600401808373ffffffffffffffffffffffffffffffffffffffff1673ffffffffffffffffffffffffffffffffffffffff16815260200182815260200192505050602060405180830381600087803b15801561207557600080fd5b505af1158015612089573d6000803e3d6000fd5b505050506040513d602081101561209f57600080fd5b8101908080519060200190929190505050905092915050565b6000806000806000806120c9613641565b945094508315156120dd57600095506121aa565b600b818154811015156120ec57fe5b9060005260206000209060030201925060009150600090505b82600101805490508110156121a95781871015801561213e5750826001018181548110151561213057fe5b906000526020600020015487105b1561217e57826002018181548110151561215457fe5b90600052602060002090602091828204019190069054906101000a900460ff1660ff1695506121a9565b826001018181548110151561218f57fe5b906000526020600020015491508080600101915050612105565b5b5050505050919050565b6000809054906101000a900473ffffffffffffffffffffffffffffffffffffffff1673ffffffffffffffffffffffffffffffffffffffff163373ffffffffffffffffffffffffffffffffffffffff1614151561220f57600080fd5b6000600b8054905011156122635742600b600081548110151561222e57fe5b906000526020600020906003020160000160009054906101000a900463ffffffff1663ffffffff1611151561226257600080fd5b5b61226d8282613c80565b5050565b600080600080606080600c8781548110151561228957fe5b906000526020600020906003020160000160009054906101000a900463ffffffff16600c888154811015156122ba57fe5b906000526020600020906003020160000160049054906101000a900460ff16600c898154811015156122e857fe5b906000526020600020906003020160000160059054906101000a900463ffffffff16600c8a81548110151561231957fe5b906000526020600020906003020160000160099054906101000a900463ffffffff16600c8b81548110151561234a57fe5b9060005260206000209060030201600101600c8c81548110151561236a57fe5b9060005260206000209060030201600201818054600181600116156101000203166002900480601f0160208091040260200160405190810160405280929190818152602001828054600181600116156101000203166002900480156124105780601f106123e557610100808354040283529160200191612410565b820191906000526020600020905b8154815290600101906020018083116123f357829003601f168201915b50505050509150808054600181600116156101000203166002900480601f0160208091040260200160405190810160405280929190818152602001828054600181600116156101000203166002900480156124ac5780601f10612481576101008083540402835291602001916124ac565b820191906000526020600020905b81548152906001019060200180831161248f57829003601f168201915b5050505050905095509550955095509550955091939550919395565b60008060008060608060006124db6135c3565b90506124e681612271565b96509650965096509650965050909192939495565b6000806000809054906101000a900473ffffffffffffffffffffffffffffffffffffffff1673ffffffffffffffffffffffffffffffffffffffff163373ffffffffffffffffffffffffffffffffffffffff1614151561255957600080fd5b6000600b8054905011156125ad5742600b600081548110151561257857fe5b906000526020600020906003020160000160009054906101000a900463ffffffff1663ffffffff161115156125ac57600080fd5b5b7fffffffffffffffffffffffffffffffffffffffffffffffffffffffffffffffff60ff1688889050111515156125e257600080fd5b6000888890501115156125f457600080fd5b858590508888905014151561260857600080fd5b838390508888905014151561261c57600080fd5b6000600c80549050111561273757878760018a8a905003818110151561263e57fe5b905060400201600160028110151561265257fe5b602002013563ffffffff1663ffffffff16600c600081548110151561267357fe5b906000526020600020906003020160000160009054906101000a900463ffffffff1663ffffffff16111515612736576040517f08c379a00000000000000000000000000000000000000000000000000000000081526004018080602001828103825260358152602001807f4c61737420737461676520656e6444617465206d757374206265206c7420666981526020017f727374206d696c6573746f6e6520656e6444617465000000000000000000000081525060400191505060405180910390fd5b5b8787905091508160ff16600b8161274e9190613f8c565b50600090505b8160ff168160ff161015612c4d57600086868360ff16818110151561277557fe5b9050602002013560ff1660ff16101580156127ad5750606486868360ff16818110151561279e57fe5b9050602002013560ff1660ff16105b1515612847576040517f08c379a000000000000000000000000000000000000000000000000000000000815260040180806020018281038252602f8152602001807f537461676520646973636f756e74206973206e6f7420696e20616c6c6f77656481526020017f2072616e6765205b302c2031303029000000000000000000000000000000000081525060400191505060405180910390fd5b4288888360ff16818110151561285957fe5b905060400201600060028110151561286d57fe5b602002013563ffffffff1663ffffffff1611151561288a57600080fd5b87878260ff16818110151561289b57fe5b90506040020160016002811015156128af57fe5b602002013563ffffffff1663ffffffff1688888360ff1681811015156128d157fe5b90506040020160006002811015156128e557fe5b602002013563ffffffff1663ffffffff16101515612991576040517f08c379a00000000000000000000000000000000000000000000000000000000081526004018080602001828103825260248152602001807f53746167652073746172742064617465206d75737420626520677420656e642081526020017f646174650000000000000000000000000000000000000000000000000000000081525060400191505060405180910390fd5b60008160ff161115612aa95787878260ff1681811015156129ae57fe5b90506040020160006002811015156129c257fe5b602002013563ffffffff1663ffffffff1688886001840360ff1681811015156129e757fe5b90506040020160016002811015156129fb57fe5b602002013563ffffffff1663ffffffff1611151515612aa8576040517f08c379a00000000000000000000000000000000000000000000000000000000081526004018080602001828103825260228152602001807f53746167657320617265206e6f7420696e20686973746f726963616c206f726481526020017f657200000000000000000000000000000000000000000000000000000000000081525060400191505060405180910390fd5b5b87878260ff168181101515612aba57fe5b9050604002016000600281101515612ace57fe5b602002013563ffffffff16600b8260ff16815481101515612aeb57fe5b906000526020600020906003020160000160006101000a81548163ffffffff021916908363ffffffff16021790555087878260ff168181101515612b2b57fe5b9050604002016001600281101515612b3f57fe5b602002013563ffffffff16600b8260ff16815481101515612b5c57fe5b906000526020600020906003020160000160046101000a81548163ffffffff021916908363ffffffff16021790555085858260ff168181101515612b9c57fe5b9050602002013560ff16600b8260ff16815481101515612bb857fe5b906000526020600020906003020160000160086101000a81548160ff021916908360ff16021790555083838260ff168181101515612bf257fe5b9050602002013563ffffffff16600b8260ff16815481101515612c1157fe5b906000526020600020906003020160000160096101000a81548163ffffffff021916908363ffffffff1602179055508080600101915050612754565b7f743961f4e677d1146fbf85d75565b1c5474fd083eb166f8b9595cf5d01a4d6e660405160405180910390a15050505050505050565b60075481565b6000809054906101000a900473ffffffffffffffffffffffffffffffffffffffff1673ffffffffffffffffffffffffffffffffffffffff163373ffffffffffffffffffffffffffffffffffffffff16141515612ce457600080fd5b612cec6134e9565b1515612cf757600080fd5b600260009054906101000a900473ffffffffffffffffffffffffffffffffffffffff1673ffffffffffffffffffffffffffffffffffffffff1663a9059cbb6000809054906101000a900473ffffffffffffffffffffffffffffffffffffffff16600260009054906101000a900473ffffffffffffffffffffffffffffffffffffffff1673ffffffffffffffffffffffffffffffffffffffff166370a08231306040518263ffffffff167c0100000000000000000000000000000000000000000000000000000000028152600401808273ffffffffffffffffffffffffffffffffffffffff1673ffffffffffffffffffffffffffffffffffffffff168152602001915050602060405180830381600087803b158015612e1457600080fd5b505af1158015612e28573d6000803e3d6000fd5b505050506040513d6020811015612e3e57600080fd5b81019080805190602001909291905050506040518363ffffffff167c0100000000000000000000000000000000000000000000000000000000028152600401808373ffffffffffffffffffffffffffffffffffffffff1673ffffffffffffffffffffffffffffffffffffffff16815260200182815260200192505050602060405180830381600087803b158015612ed457600080fd5b505af1158015612ee8573d6000803e3d6000fd5b505050506040513d6020811015612efe57600080fd5b81019080805190602001909291905050501515612f1a57600080fd5b565b6000600c80549050905090565b6000600260009054906101000a900473ffffffffffffffffffffffffffffffffffffffff16905090565b60008060009054906101000a900473ffffffffffffffffffffffffffffffffffffffff1673ffffffffffffffffffffffffffffffffffffffff163373ffffffffffffffffffffffffffffffffffffffff16141515612fb057600080fd5b6000600b8054905011156130045742600b6000815481101515612fcf57fe5b906000526020600020906003020160000160009054906101000a900463ffffffff1663ffffffff1611151561300357600080fd5b5b828290508585905014151561301857600080fd5b600b805490508610151561302b57600080fd5b600090505b8484905081101561311a57600081111561310d57848482818110151561305257fe5b90506020020135858560018403818110151561306a57fe5b9050602002013510151561310c576040517f08c379a000000000000000000000000000000000000000000000000000000000815260040180806020018281038252602c8152602001807f566f6c756d6520626f756e646172696573206d75737420626520696e2061736381526020017f656e64696e67206f72646572000000000000000000000000000000000000000081525060400191505060405180910390fd5b5b8080600101915050613030565b600b8681548110151561312957fe5b906000526020600020906003020160010160006131469190613fbe565b600b8681548110151561315557fe5b906000526020600020906003020160020160006131729190613fdf565b8484600b8881548110151561318357fe5b906000526020600020906003020160010191906131a1929190614007565b508282600b888154811015156131b357fe5b906000526020600020906003020160020191906131d1929190614054565b50505050505050565b600860009054906101000a900473ffffffffffffffffffffffffffffffffffffffff1681565b600080600061320d613641565b91509150801515613221576000925061329f565b42600b8381548110151561323157fe5b906000526020600020906003020160000160009054906101000a900463ffffffff1663ffffffff161115801561329c575042600b8381548110151561327257fe5b906000526020600020906003020160000160049054906101000a900463ffffffff1663ffffffff16115b92505b505090565b6000809054906101000a900473ffffffffffffffffffffffffffffffffffffffff1673ffffffffffffffffffffffffffffffffffffffff163373ffffffffffffffffffffffffffffffffffffffff161415156132ff57600080fd5b6000809054906101000a900473ffffffffffffffffffffffffffffffffffffffff1673ffffffffffffffffffffffffffffffffffffffff167ff8df31144d9c2f0f6b59d69b8b98abd5459d07f2742c4df920b25aae33c6482060405160405180910390a260008060006101000a81548173ffffffffffffffffffffffffffffffffffffffff021916908373ffffffffffffffffffffffffffffffffffffffff160217905550565b600d818154811015156133b557fe5b9060005260206000209060089182820401919006600402915054906101000a900463ffffffff1681565b6000600b80549050905090565b600960009054906101000a900473ffffffffffffffffffffffffffffffffffffffff1681565b600b8181548110151561342157fe5b90600052602060002090600302016000915090508060000160009054906101000a900463ffffffff16908060000160049054906101000a900463ffffffff16908060000160089054906101000a900460ff16908060000160099054906101000a900463ffffffff16905084565b60065481565b6000809054906101000a900473ffffffffffffffffffffffffffffffffffffffff1681565b6000600a60009054906101000a900473ffffffffffffffffffffffffffffffffffffffff16905090565b60055481565b600080600b80549050148061353b575042600b6001600b805490500381548110151561351157fe5b906000526020600020906003020160000160049054906101000a900463ffffffff1663ffffffff16105b905090565b600080600b8054905011151561355557600080fd5b600b6001600b805490500381548110151561356c57fe5b906000526020600020906003020160000160049054906101000a900463ffffffff16905090565b600a60009054906101000a900473ffffffffffffffffffffffffffffffffffffffff1681565b8060078190555050565b600080600c80549050905060008114156135dc57600080fd5b5b600181038210801561362b5750600d600383028154811015156135fc57fe5b90600052602060002090600891828204019190066004029054906101000a900463ffffffff1663ffffffff1642115b1561363d5781806001019250506135dd565b5090565b600080600080600091505b600b805490508210156136d957600b8281548110151561366857fe5b90600052602060002090600302019050428160000160009054906101000a900463ffffffff1663ffffffff16111580156136bb5750428160000160049054906101000a900463ffffffff1663ffffffff16115b156136cc57816001935093506136e4565b818060010192505061364c565b600080819150935093505b50509091565b600c818154811015156136f957fe5b90600052602060002090600302016000915090508060000160009054906101000a900463ffffffff16908060000160049054906101000a900460ff16908060000160059054906101000a900463ffffffff16908060000160099054906101000a900463ffffffff1690806001018054600181600116156101000203166002900480601f0160208091040260200160405190810160405280929190818152602001828054600181600116156101000203166002900480156137fa5780601f106137cf576101008083540402835291602001916137fa565b820191906000526020600020905b8154815290600101906020018083116137dd57829003601f168201915b505050505090806002018054600181600116156101000203166002900480601f0160208091040260200160405190810160405280929190818152602001828054600181600116156101000203166002900480156138985780601f1061386d57610100808354040283529160200191613898565b820191906000526020600020905b81548152906001019060200180831161387b57829003601f168201915b5050505050905086565b6060600b828154811015156138b357fe5b906000526020600020906003020160010180548060200260200160405190810160405280929190818152602001828054801561390e57602002820191906000526020600020905b8154815260200190600101908083116138fa575b50505050509050919050565b6000809054906101000a900473ffffffffffffffffffffffffffffffffffffffff1673ffffffffffffffffffffffffffffffffffffffff163373ffffffffffffffffffffffffffffffffffffffff1614151561397557600080fd5b61397e81613d17565b50565b600260009054906101000a900473ffffffffffffffffffffffffffffffffffffffff1681565b6000806000806000879350600087116139c2576005546139ee565b6139ed60646139df89606403600554613bb590919063ffffffff16565b613e1190919063ffffffff16565b5b9150613a32600260045403600a0a613a2484613a168a6064018d613bb590919063ffffffff16565b613e1190919063ffffffff16565b613bb590919063ffffffff16565b9450600260009054906101000a900473ffffffffffffffffffffffffffffffffffffffff1673ffffffffffffffffffffffffffffffffffffffff166370a08231306040518263ffffffff167c0100000000000000000000000000000000000000000000000000000000028152600401808273ffffffffffffffffffffffffffffffffffffffff1673ffffffffffffffffffffffffffffffffffffffff168152602001915050602060405180830381600087803b158015613af157600080fd5b505af1158015613b05573d6000803e3d6000fd5b505050506040513d6020811015613b1b57600080fd5b8101908080519060200190929190505050905084811015613b6657613b5b85613b4d838b613bb590919063ffffffff16565b613e1190919063ffffffff16565b935083880392508094505b5093509350935093565b6000613b7b82613e3b565b1515613b8657600080fd5b613bad612710613b9f8486613bb590919063ffffffff16565b613e1190919063ffffffff16565b905092915050565b6000806000841415613bca5760009150613bec565b8284029050828482811515613bdb57fe5b04141515613be857600080fd5b8091505b5092915050565b606080828401855110151515613c0857600080fd5b821560008114613c2357604051915060208201604052613c74565b6040519150601f8416801560200281840101858101878315602002848b0101015b81831015613c615780518352602083019250602081019050613c44565b50868552601f19601f8301166040525050505b50809150509392505050565b600082111515613c8f57600080fd5b600073ffffffffffffffffffffffffffffffffffffffff168173ffffffffffffffffffffffffffffffffffffffff1614151515613ccb57600080fd5b8160058190555080600860006101000a81548173ffffffffffffffffffffffffffffffffffffffff021916908373ffffffffffffffffffffffffffffffffffffffff1602179055505050565b600073ffffffffffffffffffffffffffffffffffffffff168173ffffffffffffffffffffffffffffffffffffffff1614151515613d5357600080fd5b8073ffffffffffffffffffffffffffffffffffffffff166000809054906101000a900473ffffffffffffffffffffffffffffffffffffffff1673ffffffffffffffffffffffffffffffffffffffff167f8be0079c531659141344cd1fd0a4f28419497f9722a3daafe3b4186f6b6457e060405160405180910390a3806000806101000a81548173ffffffffffffffffffffffffffffffffffffffff021916908373ffffffffffffffffffffffffffffffffffffffff16021790555050565b600080600083111515613e2357600080fd5b8284811515613e2e57fe5b0490508091505092915050565b6000808210158015613e4f57506127108211155b9050919050565b828054600181600116156101000203166002900490600052602060002090601f016020900481019282601f10613e9757805160ff1916838001178555613ec5565b82800160010185558215613ec5579182015b82811115613ec4578251825591602001919060010190613ea9565b5b509050613ed291906140fe565b5090565b82805482825590600052602060002090600701600890048101928215613f7b5791602002820160005b83821115613f4957833563ffffffff1683826101000a81548163ffffffff021916908363ffffffff1602179055509260200192600401602081600301049283019260010302613eff565b8015613f795782816101000a81549063ffffffff0219169055600401602081600301049283019260010302613f49565b505b509050613f889190614123565b5090565b815481835581811115613fb957600302816003028360005260206000209182019101613fb89190614156565b5b505050565b5080546000825590600052602060002090810190613fdc91906140fe565b50565b50805460008255601f01602090049060005260206000209081019061400491906140fe565b50565b828054828255906000526020600020908101928215614043579160200282015b82811115614042578235825591602001919060010190614027565b5b50905061405091906140fe565b5090565b82805482825590600052602060002090601f016020900481019282156140ed5791602002820160005b838211156140be57833560ff1683826101000a81548160ff021916908360ff160217905550926020019260010160208160000104928301926001030261407d565b80156140eb5782816101000a81549060ff02191690556001016020816000010492830192600103026140be565b505b5090506140fa91906141ee565b5090565b61412091905b8082111561411c576000816000905550600101614104565b5090565b90565b61415391905b8082111561414f57600081816101000a81549063ffffffff021916905550600101614129565b5090565b90565b6141eb91905b808211156141e757600080820160006101000a81549063ffffffff02191690556000820160046101000a81549063ffffffff02191690556000820160086101000a81549060ff02191690556000820160096101000a81549063ffffffff02191690556001820160006141ce9190613fbe565b6002820160006141de9190613fdf565b5060030161415c565b5090565b90565b61421b91905b8082111561421757600081816101000a81549060ff0219169055506001016141f4565b5090565b90565b600061422982613e3b565b151561423457600080fd5b614248606483613e1190919063ffffffff16565b90509190505600a165627a7a72305820492d0e63a40f887894698bb25a135a669af9fa16f3a62dee9d70023d862398d20029",
  "source": "pragma solidity ^0.4.24;\n\nimport \"./W12Crowdsale.sol\";\n\n\ncontract W12CrowdsaleStub is W12Crowdsale {\n    constructor (\n        address _originToken,\n        address _token,\n        uint _tokenDecimals,\n        uint _price,\n        address _serviceWallet,\n        address _swap,\n        uint _serviceFee,\n        uint _WTokenSaleFeePercent,\n        IW12Fund _fund\n    )\n        W12Crowdsale(\n            _originToken,\n             _token,\n             _tokenDecimals,\n             _price,\n             _serviceWallet,\n             _swap,\n             _serviceFee,\n            _WTokenSaleFeePercent,\n             _fund\n        ) public\n    {}\n\n    function _outTokens(address to, uint amount) external returns (bool) {\n        return token.transfer(to, amount);\n    }\n\n    function _setState(uint _WTokenSaleFeePercent) external {\n        WTokenSaleFeePercent = _WTokenSaleFeePercent;\n    }\n}\n",
  "sourcePath": "/c/Users/Mr.Hokid/projects/work/w12-product-contracts/contracts/W12CrowdsaleStub.sol",
  "compiler": {
    "name": "solc",
    "version": "0.4.24+commit.e67f0147.Emscripten.clang"
  },
  "schemaVersion": "2.0.1",
  "updatedAt": "2018-08-24T16:22:08.108Z"
}