{
  "contractName": "W12Crowdsale",
  "abi": [
    {
      "constant": true,
      "inputs": [],
      "name": "startDate",
      "outputs": [
        {
          "name": "",
          "type": "uint32"
        }
      ],
      "payable": false,
      "stateMutability": "view",
      "type": "function"
    },
    {
      "constant": true,
      "inputs": [],
      "name": "originToken",
      "outputs": [
        {
          "name": "",
          "type": "address"
        }
      ],
      "payable": false,
      "stateMutability": "view",
      "type": "function"
    },
    {
      "constant": true,
      "inputs": [],
      "name": "WTokenSaleFeePercent",
      "outputs": [
        {
          "name": "",
          "type": "uint256"
        }
      ],
      "payable": false,
      "stateMutability": "view",
      "type": "function"
    },
    {
      "constant": true,
      "inputs": [],
      "name": "serviceWallet",
      "outputs": [
        {
          "name": "",
          "type": "address"
        }
      ],
      "payable": false,
      "stateMutability": "view",
      "type": "function"
    },
    {
      "constant": false,
      "inputs": [],
      "name": "renounceOwnership",
      "outputs": [],
      "payable": false,
      "stateMutability": "nonpayable",
      "type": "function"
    },
    {
      "constant": true,
      "inputs": [
        {
          "name": "",
          "type": "uint256"
        }
      ],
      "name": "milestoneDates",
      "outputs": [
        {
          "name": "",
          "type": "uint32"
        }
      ],
      "payable": false,
      "stateMutability": "view",
      "type": "function"
    },
    {
      "constant": true,
      "inputs": [],
      "name": "swap",
      "outputs": [
        {
          "name": "",
          "type": "address"
        }
      ],
      "payable": false,
      "stateMutability": "view",
      "type": "function"
    },
    {
      "constant": true,
      "inputs": [
        {
          "name": "",
          "type": "uint256"
        }
      ],
      "name": "stages",
      "outputs": [
        {
          "name": "startDate",
          "type": "uint32"
        },
        {
          "name": "endDate",
          "type": "uint32"
        },
        {
          "name": "discount",
          "type": "uint8"
        },
        {
          "name": "vesting",
          "type": "uint32"
        }
      ],
      "payable": false,
      "stateMutability": "view",
      "type": "function"
    },
    {
      "constant": true,
      "inputs": [],
      "name": "serviceFee",
      "outputs": [
        {
          "name": "",
          "type": "uint256"
        }
      ],
      "payable": false,
      "stateMutability": "view",
      "type": "function"
    },
    {
      "constant": true,
      "inputs": [],
      "name": "owner",
      "outputs": [
        {
          "name": "",
          "type": "address"
        }
      ],
      "payable": false,
      "stateMutability": "view",
      "type": "function"
    },
    {
      "constant": true,
      "inputs": [],
      "name": "price",
      "outputs": [
        {
          "name": "",
          "type": "uint256"
        }
      ],
      "payable": false,
      "stateMutability": "view",
      "type": "function"
    },
    {
      "constant": true,
      "inputs": [],
      "name": "fund",
      "outputs": [
        {
          "name": "",
          "type": "address"
        }
      ],
      "payable": false,
      "stateMutability": "view",
      "type": "function"
    },
    {
      "constant": true,
      "inputs": [
        {
          "name": "",
          "type": "uint256"
        }
      ],
      "name": "milestones",
      "outputs": [
        {
          "name": "endDate",
          "type": "uint32"
        },
        {
          "name": "tranchePercent",
          "type": "uint8"
        },
        {
          "name": "voteEndDate",
          "type": "uint32"
        },
        {
          "name": "withdrawalWindow",
          "type": "uint32"
        },
        {
          "name": "name",
          "type": "bytes"
        },
        {
          "name": "description",
          "type": "bytes"
        }
      ],
      "payable": false,
      "stateMutability": "view",
      "type": "function"
    },
    {
      "constant": false,
      "inputs": [
        {
          "name": "_newOwner",
          "type": "address"
        }
      ],
      "name": "transferOwnership",
      "outputs": [],
      "payable": false,
      "stateMutability": "nonpayable",
      "type": "function"
    },
    {
      "constant": true,
      "inputs": [],
      "name": "token",
      "outputs": [
        {
          "name": "",
          "type": "address"
        }
      ],
      "payable": false,
      "stateMutability": "view",
      "type": "function"
    },
    {
      "inputs": [
        {
          "name": "_originToken",
          "type": "address"
        },
        {
          "name": "_token",
          "type": "address"
        },
        {
          "name": "_tokenDecimals",
          "type": "uint256"
        },
        {
          "name": "_startDate",
          "type": "uint32"
        },
        {
          "name": "_price",
          "type": "uint256"
        },
        {
          "name": "_serviceWallet",
          "type": "address"
        },
        {
          "name": "_swap",
          "type": "address"
        },
        {
          "name": "_serviceFee",
          "type": "uint256"
        },
        {
          "name": "_WTokenSaleFeePercent",
          "type": "uint256"
        },
        {
          "name": "_fund",
          "type": "address"
        }
      ],
      "payable": false,
      "stateMutability": "nonpayable",
      "type": "constructor"
    },
    {
      "payable": true,
      "stateMutability": "payable",
      "type": "fallback"
    },
    {
      "anonymous": false,
      "inputs": [
        {
          "indexed": true,
          "name": "buyer",
          "type": "address"
        },
        {
          "indexed": false,
          "name": "amountPaid",
          "type": "uint256"
        },
        {
          "indexed": false,
          "name": "tokensBought",
          "type": "uint256"
        }
      ],
      "name": "TokenPurchase",
      "type": "event"
    },
    {
      "anonymous": false,
      "inputs": [],
      "name": "StagesUpdated",
      "type": "event"
    },
    {
      "anonymous": false,
      "inputs": [],
      "name": "MilestonesSet",
      "type": "event"
    },
    {
      "anonymous": false,
      "inputs": [
        {
          "indexed": false,
          "name": "value",
          "type": "uint256"
        }
      ],
      "name": "debug",
      "type": "event"
    },
    {
      "anonymous": false,
      "inputs": [
        {
          "indexed": true,
          "name": "previousOwner",
          "type": "address"
        }
      ],
      "name": "OwnershipRenounced",
      "type": "event"
    },
    {
      "anonymous": false,
      "inputs": [
        {
          "indexed": true,
          "name": "previousOwner",
          "type": "address"
        },
        {
          "indexed": true,
          "name": "newOwner",
          "type": "address"
        }
      ],
      "name": "OwnershipTransferred",
      "type": "event"
    },
    {
      "constant": true,
      "inputs": [],
      "name": "stagesLength",
      "outputs": [
        {
          "name": "",
          "type": "uint256"
        }
      ],
      "payable": false,
      "stateMutability": "view",
      "type": "function"
    },
    {
      "constant": true,
      "inputs": [],
      "name": "milestonesLength",
      "outputs": [
        {
          "name": "",
          "type": "uint256"
        }
      ],
      "payable": false,
      "stateMutability": "view",
      "type": "function"
    },
    {
      "constant": true,
      "inputs": [
        {
          "name": "index",
          "type": "uint256"
        }
      ],
      "name": "getMilestone",
      "outputs": [
        {
          "name": "",
          "type": "uint32"
        },
        {
          "name": "",
          "type": "uint8"
        },
        {
          "name": "",
          "type": "uint32"
        },
        {
          "name": "",
          "type": "uint32"
        },
        {
          "name": "",
          "type": "bytes"
        },
        {
          "name": "",
          "type": "bytes"
        }
      ],
      "payable": false,
      "stateMutability": "view",
      "type": "function"
    },
    {
      "constant": true,
      "inputs": [
        {
          "name": "stageNumber",
          "type": "uint256"
        }
      ],
      "name": "getStageVolumeBoundaries",
      "outputs": [
        {
          "name": "",
          "type": "uint256[]"
        }
      ],
      "payable": false,
      "stateMutability": "view",
      "type": "function"
    },
    {
      "constant": true,
      "inputs": [
        {
          "name": "stageNumber",
          "type": "uint256"
        }
      ],
      "name": "getStageVolumeBonuses",
      "outputs": [
        {
          "name": "",
          "type": "uint8[]"
        }
      ],
      "payable": false,
      "stateMutability": "view",
      "type": "function"
    },
    {
      "constant": true,
      "inputs": [],
      "name": "getEndDate",
      "outputs": [
        {
          "name": "",
          "type": "uint32"
        }
      ],
      "payable": false,
      "stateMutability": "view",
      "type": "function"
    },
    {
      "constant": true,
      "inputs": [],
      "name": "getCurrentMilestoneIndex",
      "outputs": [
        {
          "name": "index",
          "type": "uint256"
        }
      ],
      "payable": false,
      "stateMutability": "view",
      "type": "function"
    },
    {
      "constant": true,
      "inputs": [],
      "name": "getCurrentMilestone",
      "outputs": [
        {
          "name": "",
          "type": "uint32"
        },
        {
          "name": "",
          "type": "uint8"
        },
        {
          "name": "",
          "type": "uint32"
        },
        {
          "name": "",
          "type": "uint32"
        },
        {
          "name": "",
          "type": "bytes"
        },
        {
          "name": "",
          "type": "bytes"
        }
      ],
      "payable": false,
      "stateMutability": "view",
      "type": "function"
    },
    {
      "constant": false,
      "inputs": [
        {
          "name": "_startDate",
          "type": "uint32"
        },
        {
          "name": "_price",
          "type": "uint256"
        },
        {
          "name": "_serviceWallet",
          "type": "address"
        }
      ],
      "name": "setParameters",
      "outputs": [],
      "payable": false,
      "stateMutability": "nonpayable",
      "type": "function"
    },
    {
      "constant": false,
      "inputs": [
        {
          "name": "dates",
          "type": "uint32[2][]"
        },
        {
          "name": "stage_discounts",
          "type": "uint8[]"
        },
        {
          "name": "stage_vestings",
          "type": "uint32[]"
        }
      ],
      "name": "setStages",
      "outputs": [],
      "payable": false,
      "stateMutability": "nonpayable",
      "type": "function"
    },
    {
      "constant": false,
      "inputs": [
        {
          "name": "stage",
          "type": "uint256"
        },
        {
          "name": "volumeBoundaries",
          "type": "uint256[]"
        },
        {
          "name": "volumeBonuses",
          "type": "uint8[]"
        }
      ],
      "name": "setStageVolumeBonuses",
      "outputs": [],
      "payable": false,
      "stateMutability": "nonpayable",
      "type": "function"
    },
    {
      "constant": false,
      "inputs": [
        {
          "name": "dates",
          "type": "uint32[]"
        },
        {
          "name": "tranchePercents",
          "type": "uint8[]"
        },
        {
          "name": "offsets",
          "type": "uint32[]"
        },
        {
          "name": "namesAndDescriptions",
          "type": "bytes"
        }
      ],
      "name": "setMilestones",
      "outputs": [],
      "payable": false,
      "stateMutability": "nonpayable",
      "type": "function"
    },
    {
      "constant": false,
      "inputs": [],
      "name": "buyTokens",
      "outputs": [],
      "payable": true,
      "stateMutability": "payable",
      "type": "function"
    },
    {
      "constant": true,
      "inputs": [],
      "name": "getWToken",
      "outputs": [
        {
          "name": "",
          "type": "address"
        }
      ],
      "payable": false,
      "stateMutability": "view",
      "type": "function"
    },
    {
      "constant": true,
      "inputs": [],
      "name": "getFund",
      "outputs": [
        {
          "name": "",
          "type": "address"
        }
      ],
      "payable": false,
      "stateMutability": "view",
      "type": "function"
    },
    {
      "constant": true,
      "inputs": [],
      "name": "getCurrentStage",
      "outputs": [
        {
          "name": "discount",
          "type": "uint8"
        },
        {
          "name": "vesting",
          "type": "uint32"
        },
        {
          "name": "volumeBonus",
          "type": "uint8"
        },
        {
          "name": "dates",
          "type": "uint32[2]"
        }
      ],
      "payable": false,
      "stateMutability": "view",
      "type": "function"
    },
    {
      "constant": true,
      "inputs": [],
      "name": "isEnded",
      "outputs": [
        {
          "name": "",
          "type": "bool"
        }
      ],
      "payable": false,
      "stateMutability": "view",
      "type": "function"
    },
    {
      "constant": false,
      "inputs": [],
      "name": "claimRemainingTokens",
      "outputs": [],
      "payable": false,
      "stateMutability": "nonpayable",
      "type": "function"
    }
  ],
  "bytecode": "0x6080604052600180553480156200001557600080fd5b5060405161014080620041d183398101806040528101908080519060200190929190805190602001909291908051906020019092919080519060200190929190805190602001909291908051906020019092919080519060200190929190805190602001909291908051906020019092919080519060200190929190505050336000806101000a81548173ffffffffffffffffffffffffffffffffffffffff021916908373ffffffffffffffffffffffffffffffffffffffff160217905550600073ffffffffffffffffffffffffffffffffffffffff168973ffffffffffffffffffffffffffffffffffffffff16141515156200011157600080fd5b62000130836200037c6401000000000262003877176401000000009004565b80156200015b575060646200015984620003986401000000000262003c7c176401000000009004565b105b15156200016757600080fd5b62000186826200037c6401000000000262003877176401000000009004565b8015620001b157506064620001af83620003986401000000000262003c7c176401000000009004565b105b1515620001bd57600080fd5b600073ffffffffffffffffffffffffffffffffffffffff168173ffffffffffffffffffffffffffffffffffffffff1614151515620001fa57600080fd5b600073ffffffffffffffffffffffffffffffffffffffff168473ffffffffffffffffffffffffffffffffffffffff16141515156200023757600080fd5b88600260006101000a81548173ffffffffffffffffffffffffffffffffffffffff021916908373ffffffffffffffffffffffffffffffffffffffff16021790555089600360006101000a81548173ffffffffffffffffffffffffffffffffffffffff021916908373ffffffffffffffffffffffffffffffffffffffff16021790555087600481905550620002dc878787620003eb640100000000026401000000009004565b8260078190555083600a60006101000a81548173ffffffffffffffffffffffffffffffffffffffff021916908373ffffffffffffffffffffffffffffffffffffffff1602179055508160088190555080600b60006101000a81548173ffffffffffffffffffffffffffffffffffffffff021916908373ffffffffffffffffffffffffffffffffffffffff16021790555050505050505050505050620004e8565b60008082101580156200039157506127108211155b9050919050565b6000620003b4826200037c640100000000026401000000009004565b1515620003c057600080fd5b620003e4606483620004bc64010000000002620035b3179091906401000000009004565b9050919050565b428363ffffffff16101515156200040157600080fd5b6000821115156200041157600080fd5b600073ffffffffffffffffffffffffffffffffffffffff168173ffffffffffffffffffffffffffffffffffffffff16141515156200044e57600080fd5b82600560006101000a81548163ffffffff021916908363ffffffff1602179055508160068190555080600960006101000a81548173ffffffffffffffffffffffffffffffffffffffff021916908373ffffffffffffffffffffffffffffffffffffffff160217905550505050565b600080600083111515620004cf57600080fd5b8284811515620004db57fe5b0490508091505092915050565b613cd980620004f86000396000f3006080604052600436106101a1576000357c0100000000000000000000000000000000000000000000000000000000900463ffffffff1680630b97bc86146101ab5780630d544ffe146101e25780630ee62c771461026557806313096a41146102e75780632442e1cb1461033e578063299a017c146104965780632c9a4bab146105d85780632fbe599014610643578063313602d41461066e5780633baba4d7146106855780634090cb64146106b0578063521b7499146107075780635641f3c314610764578063715018a6146107bb57806372e6a881146107d2578063792c02ea1461081f5780638119c0651461084a578063845ddcb2146108a15780638abdf5aa146109215780638da5cb5b1461094c5780638edd6eb6146109a35780639bed31e4146109fa578063a035b1fe14610a57578063a4fd6f5614610a82578063b135648814610ab1578063b60d428814610ae8578063d0febe4c14610b3f578063d6d65f3d14610b49578063e89e4ed614610b74578063eedbe31d14610ccc578063f12585f514610d4c578063f2fde38b14610dce578063fc0c546a14610e11575b6101a9610e68565b005b3480156101b757600080fd5b506101c061167f565b604051808263ffffffff1663ffffffff16815260200191505060405180910390f35b3480156101ee57600080fd5b50610263600480360381019080803590602001908201803590602001919091929391929390803590602001908201803590602001919091929391929390803590602001908201803590602001919091929391929390803590602001908201803590602001919091929391929390505050611695565b005b34801561027157600080fd5b5061029060048036038101908080359060200190929190505050611cdf565b6040518080602001828103825283818151815260200191508051906020019060200280838360005b838110156102d35780820151818401526020810190506102b8565b505050509050019250505060405180910390f35b3480156102f357600080fd5b506102fc611d7d565b604051808273ffffffffffffffffffffffffffffffffffffffff1673ffffffffffffffffffffffffffffffffffffffff16815260200191505060405180910390f35b34801561034a57600080fd5b5061036960048036038101908080359060200190929190505050611da3565b604051808763ffffffff1663ffffffff1681526020018660ff1660ff1681526020018563ffffffff1663ffffffff1681526020018463ffffffff1663ffffffff1681526020018060200180602001838103835285818151815260200191508051906020019080838360005b838110156103ef5780820151818401526020810190506103d4565b50505050905090810190601f16801561041c5780820380516001836020036101000a031916815260200191505b50838103825284818151815260200191508051906020019080838360005b8381101561045557808201518184015260208101905061043a565b50505050905090810190601f1680156104825780820380516001836020036101000a031916815260200191505b509850505050505050505060405180910390f35b3480156104a257600080fd5b506104ab611ffa565b604051808763ffffffff1663ffffffff1681526020018660ff1660ff1681526020018563ffffffff1663ffffffff1681526020018463ffffffff1663ffffffff1681526020018060200180602001838103835285818151815260200191508051906020019080838360005b83811015610531578082015181840152602081019050610516565b50505050905090810190601f16801561055e5780820380516001836020036101000a031916815260200191505b50838103825284818151815260200191508051906020019080838360005b8381101561059757808201518184015260208101905061057c565b50505050905090810190601f1680156105c45780820380516001836020036101000a031916815260200191505b509850505050505050505060405180910390f35b3480156105e457600080fd5b5061064160048036038101908080359060200190820180359060200191909192939192939080359060200190820180359060200191909192939192939080359060200190820180359060200191909192939192939050505061202d565b005b34801561064f57600080fd5b50610658612802565b6040518082815260200191505060405180910390f35b34801561067a57600080fd5b50610683612808565b005b34801561069157600080fd5b5061069a612a9b565b6040518082815260200191505060405180910390f35b3480156106bc57600080fd5b506106c5612aa8565b604051808273ffffffffffffffffffffffffffffffffffffffff1673ffffffffffffffffffffffffffffffffffffffff16815260200191505060405180910390f35b34801561071357600080fd5b5061076260048036038101908080359060200190929190803590602001908201803590602001919091929391929390803590602001908201803590602001919091929391929390505050612ad2565b005b34801561077057600080fd5b50610779612c39565b604051808273ffffffffffffffffffffffffffffffffffffffff1673ffffffffffffffffffffffffffffffffffffffff16815260200191505060405180910390f35b3480156107c757600080fd5b506107d0612c5f565b005b3480156107de57600080fd5b506107fd60048036038101908080359060200190929190505050612d61565b604051808263ffffffff1663ffffffff16815260200191505060405180910390f35b34801561082b57600080fd5b50610834612d9a565b6040518082815260200191505060405180910390f35b34801561085657600080fd5b5061085f612da7565b604051808273ffffffffffffffffffffffffffffffffffffffff1673ffffffffffffffffffffffffffffffffffffffff16815260200191505060405180910390f35b3480156108ad57600080fd5b506108cc60048036038101908080359060200190929190505050612dcd565b604051808563ffffffff1663ffffffff1681526020018463ffffffff1663ffffffff1681526020018360ff1660ff1681526020018263ffffffff1663ffffffff16815260200194505050505060405180910390f35b34801561092d57600080fd5b50610936612e49565b6040518082815260200191505060405180910390f35b34801561095857600080fd5b50610961612e4f565b604051808273ffffffffffffffffffffffffffffffffffffffff1673ffffffffffffffffffffffffffffffffffffffff16815260200191505060405180910390f35b3480156109af57600080fd5b506109b8612e74565b604051808273ffffffffffffffffffffffffffffffffffffffff1673ffffffffffffffffffffffffffffffffffffffff16815260200191505060405180910390f35b348015610a0657600080fd5b50610a55600480360381019080803563ffffffff16906020019092919080359060200190929190803573ffffffffffffffffffffffffffffffffffffffff169060200190929190505050612e9e565b005b348015610a6357600080fd5b50610a6c612f2f565b6040518082815260200191505060405180910390f35b348015610a8e57600080fd5b50610a97612f35565b604051808215151515815260200191505060405180910390f35b348015610abd57600080fd5b50610ac6612f8c565b604051808263ffffffff1663ffffffff16815260200191505060405180910390f35b348015610af457600080fd5b50610afd612fdf565b604051808273ffffffffffffffffffffffffffffffffffffffff1673ffffffffffffffffffffffffffffffffffffffff16815260200191505060405180910390f35b610b47610e68565b005b348015610b5557600080fd5b50610b5e613005565b6040518082815260200191505060405180910390f35b348015610b8057600080fd5b50610b9f60048036038101908080359060200190929190505050613083565b604051808763ffffffff1663ffffffff1681526020018660ff1660ff1681526020018563ffffffff1663ffffffff1681526020018463ffffffff1663ffffffff1681526020018060200180602001838103835285818151815260200191508051906020019080838360005b83811015610c25578082015181840152602081019050610c0a565b50505050905090810190601f168015610c525780820380516001836020036101000a031916815260200191505b50838103825284818151815260200191508051906020019080838360005b83811015610c8b578082015181840152602081019050610c70565b50505050905090810190601f168015610cb85780820380516001836020036101000a031916815260200191505b509850505050505050505060405180910390f35b348015610cd857600080fd5b50610ce161323b565b604051808560ff1660ff1681526020018463ffffffff1663ffffffff1681526020018360ff1660ff16815260200182600260200280838360005b83811015610d36578082015181840152602081019050610d1b565b5050505090500194505050505060405180910390f35b348015610d5857600080fd5b50610d7760048036038101908080359060200190929190505050613470565b6040518080602001828103825283818151815260200191508051906020019060200280838360005b83811015610dba578082015181840152602081019050610d9f565b505050509050019250505060405180910390f35b348015610dda57600080fd5b50610e0f600480360381019080803573ffffffffffffffffffffffffffffffffffffffff1690602001909291905050506134e8565b005b348015610e1d57600080fd5b50610e2661354f565b604051808273ffffffffffffffffffffffffffffffffffffffff1673ffffffffffffffffffffffffffffffffffffffff16815260200191505060405180910390f35b6000806000610e75613892565b600080600080600180600082825401925050819055506001549050600034111515610e9f57600080fd5b42600560009054906101000a900463ffffffff1663ffffffff1611151515610ec657600080fd5b610ece612f35565b151515610eda57600080fd5b6000600c80549050111515610eee57600080fd5b610ef661323b565b97509750975097506000600c805490501415610f58573373ffffffffffffffffffffffffffffffffffffffff166108fc349081150290604051600060405180830381858888f19350505050158015610f52573d6000803e3d6000fd5b50611665565b42856000600281101515610f6857fe5b602002015163ffffffff1611158015610f99575042856001600281101515610f8c57fe5b602002015163ffffffff16115b151561100d576040517f08c379a00000000000000000000000000000000000000000000000000000000081526004018080602001828103825260158152602001807f537461676520776173206e6f742073746172746564000000000000000000000081525060200191505060405180910390fd5b60008860ff16116110205760065461104f565b61104e60646110408a60640360ff1660065461357590919063ffffffff16565b6135b390919063ffffffff16565b5b9350611096600260045403600a0a6110888661107a8a60640160ff163461357590919063ffffffff16565b6135b390919063ffffffff16565b61357590919063ffffffff16565b92506000600854111561136b576110b8600854846135dd90919063ffffffff16565b9150600360009054906101000a900473ffffffffffffffffffffffffffffffffffffffff1673ffffffffffffffffffffffffffffffffffffffff166323b872dd600a60009054906101000a900473ffffffffffffffffffffffffffffffffffffffff16600960009054906101000a900473ffffffffffffffffffffffffffffffffffffffff16856040518463ffffffff167c0100000000000000000000000000000000000000000000000000000000028152600401808473ffffffffffffffffffffffffffffffffffffffff1673ffffffffffffffffffffffffffffffffffffffff1681526020018373ffffffffffffffffffffffffffffffffffffffff1673ffffffffffffffffffffffffffffffffffffffff1681526020018281526020019350505050602060405180830381600087803b1580156111f757600080fd5b505af115801561120b573d6000803e3d6000fd5b505050506040513d602081101561122157600080fd5b8101908080519060200190929190505050151561123d57600080fd5b600260009054906101000a900473ffffffffffffffffffffffffffffffffffffffff1673ffffffffffffffffffffffffffffffffffffffff1663a9059cbb600a60009054906101000a900473ffffffffffffffffffffffffffffffffffffffff16846040518363ffffffff167c0100000000000000000000000000000000000000000000000000000000028152600401808373ffffffffffffffffffffffffffffffffffffffff1673ffffffffffffffffffffffffffffffffffffffff16815260200182815260200192505050602060405180830381600087803b15801561132457600080fd5b505af1158015611338573d6000803e3d6000fd5b505050506040513d602081101561134e57600080fd5b8101908080519060200190929190505050151561136a57600080fd5b5b600260009054906101000a900473ffffffffffffffffffffffffffffffffffffffff1673ffffffffffffffffffffffffffffffffffffffff16639d2e477733858a6040518463ffffffff167c0100000000000000000000000000000000000000000000000000000000028152600401808473ffffffffffffffffffffffffffffffffffffffff1673ffffffffffffffffffffffffffffffffffffffff1681526020018381526020018263ffffffff1663ffffffff1681526020019350505050602060405180830381600087803b15801561144457600080fd5b505af1158015611458573d6000803e3d6000fd5b505050506040513d602081101561146e57600080fd5b8101908080519060200190929190505050151561148a57600080fd5b6000600754111561151357600960009054906101000a900473ffffffffffffffffffffffffffffffffffffffff1673ffffffffffffffffffffffffffffffffffffffff166108fc6114e6600754346135dd90919063ffffffff16565b9081150290604051600060405180830381858888f19350505050158015611511573d6000803e3d6000fd5b505b600b60009054906101000a900473ffffffffffffffffffffffffffffffffffffffff1673ffffffffffffffffffffffffffffffffffffffff1663958799cb3073ffffffffffffffffffffffffffffffffffffffff1631620186a09033876040518563ffffffff167c0100000000000000000000000000000000000000000000000000000000028152600401808373ffffffffffffffffffffffffffffffffffffffff1673ffffffffffffffffffffffffffffffffffffffff168152602001828152602001925050506000604051808303818589803b1580156115f457600080fd5b5088f1158015611608573d6000803e3d6000fd5b5050505050503373ffffffffffffffffffffffffffffffffffffffff167fcd60aa75dea3072fbc07ae6d7d856b5dc5f4eee88854f5b4abf7b680ef8bc50f3485604051808381526020018281526020019250505060405180910390a25b6001548114151561167557600080fd5b5050505050505050565b600560009054906101000a900463ffffffff1681565b60008060006060806000809054906101000a900473ffffffffffffffffffffffffffffffffffffffff1673ffffffffffffffffffffffffffffffffffffffff163373ffffffffffffffffffffffffffffffffffffffff161415156116f857600080fd5b42600560009054906101000a900463ffffffff1663ffffffff1611151561171e57600080fd5b7fffffffffffffffffffffffffffffffffffffffffffffffffffffffffffffffff60ff168d8d90501115151561175357600080fd5b60038d8d90501015151561176657600080fd5b600060038e8e905081151561177757fe5b0614151561178457600080fd5b8888905061179f60028d8d905061357590919063ffffffff16565b1415156117ab57600080fd5b8c8c90506117c660038d8d905061357590919063ffffffff16565b1415156117d257600080fd5b60028b8b90500287879050101515156117ea57600080fd5b6000945060009350600092505b8c8c905060ff168360ff161015611cac57428d8d8560ff16818110151561181a57fe5b9050602002013563ffffffff1663ffffffff1611151561183957600080fd5b8c8c8460ff16818110151561184a57fe5b9050602002013563ffffffff1663ffffffff168d8d6001860160ff16818110151561187157fe5b9050602002013563ffffffff1663ffffffff161015151561189157600080fd5b8c8c6001850160ff1681811015156118a557fe5b9050602002013563ffffffff1663ffffffff168d8d6002860160ff1681811015156118cc57fe5b9050602002013563ffffffff1663ffffffff16101515156118ec57600080fd5b611968858a8a600260038860ff1681151561190357fe5b040260ff16818110151561191357fe5b9050602002013563ffffffff1663ffffffff1689898080601f0160208091040260200160405190810160405280939291908181526020018383808284378201915050505050506136229092919063ffffffff16565b9150611a208989600260038760ff1681151561198057fe5b040260ff16818110151561199057fe5b9050602002013563ffffffff1663ffffffff1686018a8a6001600260038960ff168115156119ba57fe5b04020160ff1681811015156119cb57fe5b9050602002013563ffffffff1663ffffffff1689898080601f0160208091040260200160405190810160405280939291908181526020018383808284378201915050505050506136229092919063ffffffff16565b905060008251111515611a3257600080fd5b60008151111515611a4257600080fd5b600d60c0604051908101604052808f8f8760ff168181101515611a6157fe5b9050602002013563ffffffff1663ffffffff1681526020018d8d60038860ff16811515611a8a57fe5b0460ff168181101515611a9957fe5b9050602002013560ff1660ff1681526020018f8f6001880160ff168181101515611abf57fe5b9050602002013563ffffffff1663ffffffff1681526020018f8f6002880160ff168181101515611aeb57fe5b9050602002013563ffffffff1663ffffffff168152602001848152602001838152509080600181540180825580915050906001820390600052602060002090600302016000909192909190915060008201518160000160006101000a81548163ffffffff021916908363ffffffff16021790555060208201518160000160046101000a81548160ff021916908360ff16021790555060408201518160000160056101000a81548163ffffffff021916908363ffffffff16021790555060608201518160000160096101000a81548163ffffffff021916908363ffffffff1602179055506080820151816001019080519060200190611bea9291906138b4565b5060a0820151816002019080519060200190611c079291906138b4565b505050508888600160038660ff16811515611c1e57fe5b040160ff168181101515611c2e57fe5b9050602002013563ffffffff16898960038660ff16811515611c4c57fe5b0460ff168181101515611c5b57fe5b9050602002013563ffffffff160163ffffffff16850194508a8a60038560ff16811515611c8457fe5b0460ff168181101515611c9357fe5b9050602002013560ff16840193506003830192506117f7565b8c8c600e9190611cbd929190613934565b5060648460ff16141515611cd057600080fd5b50505050505050505050505050565b6060600c82815481101515611cf057fe5b9060005260206000209060030201600201805480602002602001604051908101604052809291908181526020018280548015611d7157602002820191906000526020600020906000905b82829054906101000a900460ff1660ff1681526020019060010190602082600001049283019260010382029150808411611d3a5790505b50505050509050919050565b600360009054906101000a900473ffffffffffffffffffffffffffffffffffffffff1681565b600080600080606080600d87815481101515611dbb57fe5b906000526020600020906003020160000160009054906101000a900463ffffffff16600d88815481101515611dec57fe5b906000526020600020906003020160000160049054906101000a900460ff16600d89815481101515611e1a57fe5b906000526020600020906003020160000160059054906101000a900463ffffffff16600d8a815481101515611e4b57fe5b906000526020600020906003020160000160099054906101000a900463ffffffff16600d8b815481101515611e7c57fe5b9060005260206000209060030201600101600d8c815481101515611e9c57fe5b9060005260206000209060030201600201818054600181600116156101000203166002900480601f016020809104026020016040519081016040528092919081815260200182805460018160011615610100020316600290048015611f425780601f10611f1757610100808354040283529160200191611f42565b820191906000526020600020905b815481529060010190602001808311611f2557829003601f168201915b50505050509150808054600181600116156101000203166002900480601f016020809104026020016040519081016040528092919081815260200182805460018160011615610100020316600290048015611fde5780601f10611fb357610100808354040283529160200191611fde565b820191906000526020600020905b815481529060010190602001808311611fc157829003601f168201915b5050505050905095509550955095509550955091939550919395565b600080600080606080600061200d613005565b905061201881611da3565b96509650965096509650965050909192939495565b6000806000809054906101000a900473ffffffffffffffffffffffffffffffffffffffff1673ffffffffffffffffffffffffffffffffffffffff163373ffffffffffffffffffffffffffffffffffffffff1614151561208b57600080fd5b42600560009054906101000a900463ffffffff1663ffffffff161115156120b157600080fd5b7fffffffffffffffffffffffffffffffffffffffffffffffffffffffffffffffff60ff1688889050111515156120e657600080fd5b6000888890501115156120f857600080fd5b858590508888905014151561210c57600080fd5b838390508888905014151561212057600080fd5b8787905091508160ff16600c8161213791906139ea565b50600090505b8160ff168160ff1610156127cc57600086868360ff16818110151561215e57fe5b9050602002013560ff1660ff16101580156121965750606486868360ff16818110151561218757fe5b9050602002013560ff1660ff16105b1515612230576040517f08c379a000000000000000000000000000000000000000000000000000000000815260040180806020018281038252602f8152602001807f537461676520646973636f756e74206973206e6f7420696e20616c6c6f77656481526020017f2072616e6765205b302c2031303029000000000000000000000000000000000081525060400191505060405180910390fd5b87878260ff16818110151561224157fe5b905060400201600060028110151561225557fe5b602002013563ffffffff1663ffffffff16600560009054906101000a900463ffffffff1663ffffffff161115151561231b576040517f08c379a00000000000000000000000000000000000000000000000000000000081526004018080602001828103825260308152602001807f53746167652073746172742064617465206d7573742062652067742063726f7781526020017f6473616c6520737461727420646174650000000000000000000000000000000081525060400191505060405180910390fd5b87878260ff16818110151561232c57fe5b905060400201600160028110151561234057fe5b602002013563ffffffff1663ffffffff16600560009054906101000a900463ffffffff1663ffffffff16101515612405576040517f08c379a000000000000000000000000000000000000000000000000000000000815260040180806020018281038252602e8152602001807f537461676520656e642064617465206d7573742062652067742063726f77647381526020017f616c65207374617274206461746500000000000000000000000000000000000081525060400191505060405180910390fd5b87878260ff16818110151561241657fe5b905060400201600160028110151561242a57fe5b602002013563ffffffff1663ffffffff1688888360ff16818110151561244c57fe5b905060400201600060028110151561246057fe5b602002013563ffffffff1663ffffffff1610151561250c576040517f08c379a00000000000000000000000000000000000000000000000000000000081526004018080602001828103825260248152602001807f53746167652073746172742064617465206d75737420626520677420656e642081526020017f646174650000000000000000000000000000000000000000000000000000000081525060400191505060405180910390fd5b6001820360ff168160ff1610156126285787876001830160ff16818110151561253157fe5b905060400201600060028110151561254557fe5b602002013563ffffffff1663ffffffff1688888360ff16818110151561256757fe5b905060400201600160028110151561257b57fe5b602002013563ffffffff1663ffffffff16101515612627576040517f08c379a00000000000000000000000000000000000000000000000000000000081526004018080602001828103825260228152602001807f53746167657320617265206e6f7420696e20686973746f726963616c206f726481526020017f657200000000000000000000000000000000000000000000000000000000000081525060400191505060405180910390fd5b5b87878260ff16818110151561263957fe5b905060400201600060028110151561264d57fe5b602002013563ffffffff16600c8260ff1681548110151561266a57fe5b906000526020600020906003020160000160006101000a81548163ffffffff021916908363ffffffff16021790555087878260ff1681811015156126aa57fe5b90506040020160016002811015156126be57fe5b602002013563ffffffff16600c8260ff168154811015156126db57fe5b906000526020600020906003020160000160046101000a81548163ffffffff021916908363ffffffff16021790555085858260ff16818110151561271b57fe5b9050602002013560ff16600c8260ff1681548110151561273757fe5b906000526020600020906003020160000160086101000a81548160ff021916908360ff16021790555083838260ff16818110151561277157fe5b9050602002013563ffffffff16600c8260ff1681548110151561279057fe5b906000526020600020906003020160000160096101000a81548163ffffffff021916908363ffffffff160217905550808060010191505061213d565b7f743961f4e677d1146fbf85d75565b1c5474fd083eb166f8b9595cf5d01a4d6e660405160405180910390a15050505050505050565b60085481565b6000809054906101000a900473ffffffffffffffffffffffffffffffffffffffff1673ffffffffffffffffffffffffffffffffffffffff163373ffffffffffffffffffffffffffffffffffffffff1614151561286357600080fd5b61286b612f35565b151561287657600080fd5b600260009054906101000a900473ffffffffffffffffffffffffffffffffffffffff1673ffffffffffffffffffffffffffffffffffffffff1663a9059cbb6000809054906101000a900473ffffffffffffffffffffffffffffffffffffffff16600260009054906101000a900473ffffffffffffffffffffffffffffffffffffffff1673ffffffffffffffffffffffffffffffffffffffff166370a08231306040518263ffffffff167c0100000000000000000000000000000000000000000000000000000000028152600401808273ffffffffffffffffffffffffffffffffffffffff1673ffffffffffffffffffffffffffffffffffffffff168152602001915050602060405180830381600087803b15801561299357600080fd5b505af11580156129a7573d6000803e3d6000fd5b505050506040513d60208110156129bd57600080fd5b81019080805190602001909291905050506040518363ffffffff167c0100000000000000000000000000000000000000000000000000000000028152600401808373ffffffffffffffffffffffffffffffffffffffff1673ffffffffffffffffffffffffffffffffffffffff16815260200182815260200192505050602060405180830381600087803b158015612a5357600080fd5b505af1158015612a67573d6000803e3d6000fd5b505050506040513d6020811015612a7d57600080fd5b81019080805190602001909291905050501515612a9957600080fd5b565b6000600d80549050905090565b6000600260009054906101000a900473ffffffffffffffffffffffffffffffffffffffff16905090565b6000809054906101000a900473ffffffffffffffffffffffffffffffffffffffff1673ffffffffffffffffffffffffffffffffffffffff163373ffffffffffffffffffffffffffffffffffffffff16141515612b2d57600080fd5b42600560009054906101000a900463ffffffff1663ffffffff16111515612b5357600080fd5b8181905084849050141515612b6757600080fd5b600c8054905085101515612b7a57600080fd5b600c85815481101515612b8957fe5b90600052602060002090600302016001016000612ba69190613a1c565b600c85815481101515612bb557fe5b90600052602060002090600302016002016000612bd29190613a3d565b8383600c87815481101515612be357fe5b90600052602060002090600302016001019190612c01929190613a65565b508181600c87815481101515612c1357fe5b90600052602060002090600302016002019190612c31929190613ab2565b505050505050565b600960009054906101000a900473ffffffffffffffffffffffffffffffffffffffff1681565b6000809054906101000a900473ffffffffffffffffffffffffffffffffffffffff1673ffffffffffffffffffffffffffffffffffffffff163373ffffffffffffffffffffffffffffffffffffffff16141515612cba57600080fd5b6000809054906101000a900473ffffffffffffffffffffffffffffffffffffffff1673ffffffffffffffffffffffffffffffffffffffff167ff8df31144d9c2f0f6b59d69b8b98abd5459d07f2742c4df920b25aae33c6482060405160405180910390a260008060006101000a81548173ffffffffffffffffffffffffffffffffffffffff021916908373ffffffffffffffffffffffffffffffffffffffff160217905550565b600e81815481101515612d7057fe5b9060005260206000209060089182820401919006600402915054906101000a900463ffffffff1681565b6000600c80549050905090565b600a60009054906101000a900473ffffffffffffffffffffffffffffffffffffffff1681565b600c81815481101515612ddc57fe5b90600052602060002090600302016000915090508060000160009054906101000a900463ffffffff16908060000160049054906101000a900463ffffffff16908060000160089054906101000a900460ff16908060000160099054906101000a900463ffffffff16905084565b60075481565b6000809054906101000a900473ffffffffffffffffffffffffffffffffffffffff1681565b6000600b60009054906101000a900473ffffffffffffffffffffffffffffffffffffffff16905090565b6000809054906101000a900473ffffffffffffffffffffffffffffffffffffffff1673ffffffffffffffffffffffffffffffffffffffff163373ffffffffffffffffffffffffffffffffffffffff16141515612ef957600080fd5b42600560009054906101000a900463ffffffff1663ffffffff16111515612f1f57600080fd5b612f2a8383836136af565b505050565b60065481565b600080600c805490501480612f87575042600c6001600c8054905003815481101515612f5d57fe5b906000526020600020906003020160000160049054906101000a900463ffffffff1663ffffffff16105b905090565b600080600c80549050111515612fa157600080fd5b600c6001600c8054905003815481101515612fb857fe5b906000526020600020906003020160000160049054906101000a900463ffffffff16905090565b600b60009054906101000a900473ffffffffffffffffffffffffffffffffffffffff1681565b600080600d805490509050600081141561301e57600080fd5b5b600181038210801561306d5750600e6003830281548110151561303e57fe5b90600052602060002090600891828204019190066004029054906101000a900463ffffffff1663ffffffff1642115b1561307f57818060010192505061301f565b5090565b600d8181548110151561309257fe5b90600052602060002090600302016000915090508060000160009054906101000a900463ffffffff16908060000160049054906101000a900460ff16908060000160059054906101000a900463ffffffff16908060000160099054906101000a900463ffffffff1690806001018054600181600116156101000203166002900480601f0160208091040260200160405190810160405280929190818152602001828054600181600116156101000203166002900480156131935780601f1061316857610100808354040283529160200191613193565b820191906000526020600020905b81548152906001019060200180831161317657829003601f168201915b505050505090806002018054600181600116156101000203166002900480601f0160208091040260200160405190810160405280929190818152602001828054600181600116156101000203166002900480156132315780601f1061320657610100808354040283529160200191613231565b820191906000526020600020905b81548152906001019060200180831161321457829003601f168201915b5050505050905086565b6000806000613248613892565b600080600080600093505b600c8054905084101561342057600c8481548110151561326f57fe5b90600052602060002090600302019250428360000160009054906101000a900463ffffffff1663ffffffff16111580156132c25750428360000160049054906101000a900463ffffffff1663ffffffff16115b1561341357600095506000915060008360010180549050111561338957600090505b6001836001018054905003811015613388578134101580156133205750826001018181548110151561331257fe5b906000526020600020015434105b1561335d57826002018181548110151561333657fe5b90600052602060002090602091828204019190069054906101000a900460ff169550613388565b826001018181548110151561336e57fe5b9060005260206000200154915080806001019150506132e4565b5b8260000160089054906101000a900460ff168360000160099054906101000a900463ffffffff168760408051908101604052808760000160009054906101000a900463ffffffff1663ffffffff1663ffffffff1681526020018760000160049054906101000a900463ffffffff1663ffffffff1663ffffffff168152509750975097509750613466565b8380600101945050613253565b60008060006040805190810160405280600063ffffffff1663ffffffff168152602001600063ffffffff1663ffffffff1681525083935082925081915097509750975097505b5050505090919293565b6060600c8281548110151561348157fe5b90600052602060002090600302016001018054806020026020016040519081016040528092919081815260200182805480156134dc57602002820191906000526020600020905b8154815260200190600101908083116134c8575b50505050509050919050565b6000809054906101000a900473ffffffffffffffffffffffffffffffffffffffff1673ffffffffffffffffffffffffffffffffffffffff163373ffffffffffffffffffffffffffffffffffffffff1614151561354357600080fd5b61354c8161377d565b50565b600260009054906101000a900473ffffffffffffffffffffffffffffffffffffffff1681565b600080600084141561358a57600091506135ac565b828402905082848281151561359b57fe5b041415156135a857600080fd5b8091505b5092915050565b6000806000831115156135c557600080fd5b82848115156135d057fe5b0490508091505092915050565b60006135e882613877565b15156135f357600080fd5b61361a61271061360c848661357590919063ffffffff16565b6135b390919063ffffffff16565b905092915050565b60608082840185511015151561363757600080fd5b821560008114613652576040519150602082016040526136a3565b6040519150601f8416801560200281840101858101878315602002848b0101015b818310156136905780518352602083019250602081019050613673565b50868552601f19601f8301166040525050505b50809150509392505050565b428363ffffffff16101515156136c457600080fd5b6000821115156136d357600080fd5b600073ffffffffffffffffffffffffffffffffffffffff168173ffffffffffffffffffffffffffffffffffffffff161415151561370f57600080fd5b82600560006101000a81548163ffffffff021916908363ffffffff1602179055508160068190555080600960006101000a81548173ffffffffffffffffffffffffffffffffffffffff021916908373ffffffffffffffffffffffffffffffffffffffff160217905550505050565b600073ffffffffffffffffffffffffffffffffffffffff168173ffffffffffffffffffffffffffffffffffffffff16141515156137b957600080fd5b8073ffffffffffffffffffffffffffffffffffffffff166000809054906101000a900473ffffffffffffffffffffffffffffffffffffffff1673ffffffffffffffffffffffffffffffffffffffff167f8be0079c531659141344cd1fd0a4f28419497f9722a3daafe3b4186f6b6457e060405160405180910390a3806000806101000a81548173ffffffffffffffffffffffffffffffffffffffff021916908373ffffffffffffffffffffffffffffffffffffffff16021790555050565b600080821015801561388b57506127108211155b9050919050565b6040805190810160405280600290602082028038833980820191505090505090565b828054600181600116156101000203166002900490600052602060002090601f016020900481019282601f106138f557805160ff1916838001178555613923565b82800160010185558215613923579182015b82811115613922578251825591602001919060010190613907565b5b5090506139309190613b5c565b5090565b828054828255906000526020600020906007016008900481019282156139d95791602002820160005b838211156139a757833563ffffffff1683826101000a81548163ffffffff021916908363ffffffff160217905550926020019260040160208160030104928301926001030261395d565b80156139d75782816101000a81549063ffffffff02191690556004016020816003010492830192600103026139a7565b505b5090506139e69190613b81565b5090565b815481835581811115613a1757600302816003028360005260206000209182019101613a169190613bb4565b5b505050565b5080546000825590600052602060002090810190613a3a9190613b5c565b50565b50805460008255601f016020900490600052602060002090810190613a629190613b5c565b50565b828054828255906000526020600020908101928215613aa1579160200282015b82811115613aa0578235825591602001919060010190613a85565b5b509050613aae9190613b5c565b5090565b82805482825590600052602060002090601f01602090048101928215613b4b5791602002820160005b83821115613b1c57833560ff1683826101000a81548160ff021916908360ff1602179055509260200192600101602081600001049283019260010302613adb565b8015613b495782816101000a81549060ff0219169055600101602081600001049283019260010302613b1c565b505b509050613b589190613c4c565b5090565b613b7e91905b80821115613b7a576000816000905550600101613b62565b5090565b90565b613bb191905b80821115613bad57600081816101000a81549063ffffffff021916905550600101613b87565b5090565b90565b613c4991905b80821115613c4557600080820160006101000a81549063ffffffff02191690556000820160046101000a81549063ffffffff02191690556000820160086101000a81549060ff02191690556000820160096101000a81549063ffffffff0219169055600182016000613c2c9190613a1c565b600282016000613c3c9190613a3d565b50600301613bba565b5090565b90565b613c7991905b80821115613c7557600081816101000a81549060ff021916905550600101613c52565b5090565b90565b6000613c8782613877565b1515613c9257600080fd5b613ca66064836135b390919063ffffffff16565b90509190505600a165627a7a723058207563d76fe72744cc47c86e85a1798dfdb844d61dde5744ddb5ac8a397052df280029",
  "source": "pragma solidity ^0.4.24;\n\nimport \"../openzeppelin-solidity/contracts/ownership/Ownable.sol\";\nimport \"../openzeppelin-solidity/contracts/ReentrancyGuard.sol\";\nimport \"../openzeppelin-solidity/contracts/math/SafeMath.sol\";\nimport \"../solidity-bytes-utils/contracts/BytesLib.sol\";\nimport \"./interfaces/IW12Crowdsale.sol\";\nimport \"../openzeppelin-solidity/contracts/token/ERC20/ERC20.sol\";\nimport \"./interfaces/IW12Fund.sol\";\nimport \"./libs/Percent.sol\";\n\n\ncontract W12Crowdsale is IW12Crowdsale, Ownable, ReentrancyGuard {\n    using SafeMath for uint;\n    using Percent for uint;\n    using BytesLib for bytes;\n\n    struct Stage {\n        uint32 startDate;\n        uint32 endDate;\n        uint8 discount;\n        uint32 vesting;\n        uint[] volumeBoundaries;\n        uint8[] volumeBonuses;\n    }\n\n    struct Milestone {\n        uint32 endDate;\n        uint8  tranchePercent;\n        uint32 voteEndDate;\n        uint32 withdrawalWindow;\n        bytes name;\n        bytes description;\n    }\n\n    WToken public token;\n    ERC20 public originToken;\n    uint tokenDecimals;\n    uint32 public startDate;\n    uint public price;\n    uint public serviceFee;\n    uint public WTokenSaleFeePercent;\n    address public serviceWallet;\n    address public swap;\n    IW12Fund public fund;\n\n    Stage[] public stages;\n    Milestone[] public milestones;\n    uint32[] public milestoneDates;\n\n    event TokenPurchase(address indexed buyer, uint amountPaid, uint tokensBought);\n    event StagesUpdated();\n    event MilestonesSet();\n\n    event debug(uint value);\n\n    constructor (\n        address _originToken,\n        address _token,\n        uint _tokenDecimals,\n        uint32 _startDate,\n        uint _price,\n        address _serviceWallet,\n        address _swap,\n        uint _serviceFee,\n        uint _WTokenSaleFeePercent,\n        IW12Fund _fund\n    )\n        public\n    {\n        require(_token != address(0));\n        require(_serviceFee.isPercent() && _serviceFee.fromPercent() < 100);\n        require(_WTokenSaleFeePercent.isPercent() && _WTokenSaleFeePercent.fromPercent() < 100);\n        require(_fund != address(0));\n        require(_swap != address(0));\n\n        token = WToken(_token);\n        originToken = ERC20(_originToken);\n        tokenDecimals = _tokenDecimals;\n\n        __setParameters(_startDate, _price, _serviceWallet);\n        serviceFee = _serviceFee;\n        swap = _swap;\n        WTokenSaleFeePercent = _WTokenSaleFeePercent;\n        fund = _fund;\n    }\n\n    function stagesLength() external view returns (uint) {\n        return stages.length;\n    }\n\n    function milestonesLength() external view returns (uint) {\n        return milestones.length;\n    }\n\n    function getMilestone(uint index) public view returns (uint32, uint8, uint32, uint32, bytes, bytes) {\n        return (\n            milestones[index].endDate,\n            milestones[index].tranchePercent,\n            milestones[index].voteEndDate,\n            milestones[index].withdrawalWindow,\n            milestones[index].name,\n            milestones[index].description\n        );\n    }\n\n    function getStageVolumeBoundaries(uint stageNumber) external view returns (uint[]) {\n        return stages[stageNumber].volumeBoundaries;\n    }\n\n    function getStageVolumeBonuses(uint stageNumber) external view returns (uint8[]) {\n        return stages[stageNumber].volumeBonuses;\n    }\n\n    function getEndDate() external view returns (uint32) {\n        require(stages.length > 0);\n\n        return stages[stages.length - 1].endDate;\n    }\n\n    function getCurrentMilestoneIndex() public view returns (uint index) {\n        uint milestonesCount = milestones.length;\n\n        if(milestonesCount == 0)\n            revert();\n\n        while(index < milestonesCount - 1 && now > milestoneDates[index * 3])\n            index++;\n    }\n\n    // returns last milestone if completely ended or active milestone at now\n    function getCurrentMilestone() external view returns (uint32, uint8, uint32, uint32, bytes, bytes) {\n        uint index = getCurrentMilestoneIndex();\n\n        return getMilestone(index);\n    }\n\n    function __setParameters(uint32 _startDate, uint _price, address _serviceWallet) internal {\n        require(_startDate >= now);\n        require(_price > 0);\n        require(_serviceWallet != address(0));\n\n        startDate = _startDate;\n        price = _price;\n        serviceWallet = _serviceWallet;\n    }\n\n    function setParameters(uint32 _startDate, uint _price, address _serviceWallet) external onlyOwner beforeStart {\n        __setParameters(_startDate, _price, _serviceWallet);\n    }\n\n    function setStages(uint32[2][] dates, uint8[] stage_discounts, uint32[] stage_vestings) external onlyOwner beforeStart {\n        require(dates.length <= uint8(-1));\n        require(dates.length > 0);\n        require(dates.length == stage_discounts.length);\n        require(dates.length == stage_vestings.length);\n\n        uint8 stagesCount = uint8(dates.length);\n        stages.length = stagesCount;\n\n        for(uint8 i = 0; i < stagesCount; i++) {\n            require(stage_discounts[i] >= 0 && stage_discounts[i] < 100, \"Stage discount is not in allowed range [0, 100)\");\n            require(startDate <= dates[i][0], \"Stage start date must be gt crowdsale start date\");\n            require(startDate < dates[i][1], \"Stage end date must be gt crowdsale start date\");\n            require(dates[i][0] < dates[i][1], \"Stage start date must be gt end date\");\n            // Checking that stages entered in historical order\n            if(i < stagesCount - 1)\n                require(dates[i][1] < dates[i+1][0], \"Stages are not in historical order\");\n\n            stages[i].startDate = dates[i][0];\n            stages[i].endDate = dates[i][1];\n            stages[i].discount = stage_discounts[i];\n            stages[i].vesting = stage_vestings[i];\n        }\n\n        emit StagesUpdated();\n    }\n\n    function setStageVolumeBonuses(uint stage, uint[] volumeBoundaries, uint8[] volumeBonuses) external onlyOwner beforeStart {\n        require(volumeBoundaries.length == volumeBonuses.length);\n        require(stage < stages.length);\n\n        delete stages[stage].volumeBoundaries;\n        delete stages[stage].volumeBonuses;\n\n        stages[stage].volumeBoundaries = volumeBoundaries;\n        stages[stage].volumeBonuses = volumeBonuses;\n    }\n\n    function setMilestones(uint32[] dates, uint8[] tranchePercents, uint32[] offsets, bytes namesAndDescriptions) external onlyOwner beforeStart {\n        require(dates.length <= uint8(-1));\n        require(dates.length >= 3);\n        require(dates.length % 3 == 0);\n        require(tranchePercents.length.mul(2) == offsets.length);\n        require(tranchePercents.length.mul(3) == dates.length);\n        require(namesAndDescriptions.length >= tranchePercents.length * 2);\n\n        uint offset = 0;\n        uint8 totalPercents = 0;\n\n        for(uint8 i = 0; i < uint8(dates.length); i += 3) {\n            require(dates[i] > now);\n            require(dates[i + 1] >= dates[i]);\n            require(dates[i + 2] >= dates[i + 1]);\n\n            bytes memory name = namesAndDescriptions.slice(offset, offsets[i / 3 * 2]);\n            bytes memory description = namesAndDescriptions.slice(offset + offsets[i / 3 * 2], offsets[i / 3 * 2 + 1]);\n\n            require(name.length > 0);\n            require(description.length > 0);\n\n            milestones.push(Milestone({\n                endDate: dates[i],\n                tranchePercent: tranchePercents[i / 3],\n                voteEndDate: dates[i + 1],\n                withdrawalWindow: dates[i + 2],\n                name: name,\n                description: description\n            }));\n\n            offset += offsets[i / 3] + offsets[i / 3 + 1];\n            totalPercents += tranchePercents[i / 3];\n        }\n\n        milestoneDates = dates;\n        require(totalPercents == 100);\n    }\n\n    function buyTokens() payable nonReentrant public {\n        require(msg.value > 0);\n        require(startDate <= now);\n        require(!isEnded());\n        require(stages.length > 0);\n\n        (uint8 discount, uint32 vesting, uint8 volumeBonus, uint32[2] memory dates) = getCurrentStage();\n\n        // return funds if ICO was closed\n        if(stages.length == 0) {\n            msg.sender.transfer(msg.value);\n            return;\n        }\n\n        require(dates[0] <= now && dates[1] > now, \"Stage was not started\");\n\n        uint stagePrice = discount > 0 ? price.mul(100 - discount).div(100) : price;\n\n        uint tokenAmount = msg.value\n            .mul(100 + volumeBonus)\n            .div(stagePrice)\n            .mul(10**(tokenDecimals - 2));\n\n        if (WTokenSaleFeePercent > 0) {\n            uint tokensFee = tokenAmount.percent(WTokenSaleFeePercent);\n\n            require(originToken.transferFrom(swap, serviceWallet, tokensFee));\n            require(token.transfer(swap, tokensFee));\n        }\n\n        require(token.vestingTransfer(msg.sender, tokenAmount, vesting));\n\n        if(serviceFee > 0)\n            serviceWallet.transfer(msg.value.percent(serviceFee));\n\n        fund.recordPurchase.value(address(this).balance).gas(100000)(msg.sender, tokenAmount);\n\n        emit TokenPurchase(msg.sender, msg.value, tokenAmount);\n    }\n\n    function getWToken() external view returns(WToken) {\n        return token;\n    }\n\n    function getFund() external view returns(IW12Fund) {\n        return fund;\n    }\n\n    function getCurrentStage() public view returns(uint8 discount, uint32 vesting, uint8 volumeBonus, uint32[2] dates) {\n        for(uint i = 0; i < stages.length; i++) {\n            Stage storage stage = stages[i];\n\n            if (stage.startDate <= now && stage.endDate > now) {\n                volumeBonus = 0;\n                uint lastLowerBoundary = 0;\n\n                if (stage.volumeBoundaries.length > 0) {\n                    for (uint j = 0; j < stage.volumeBoundaries.length - 1; j++) {\n                        if (msg.value >= lastLowerBoundary && msg.value < stage.volumeBoundaries[j]) {\n                            volumeBonus = stage.volumeBonuses[j];\n                            break;\n                        } else {\n                            lastLowerBoundary = stage.volumeBoundaries[j];\n                        }\n                    }\n                }\n\n                return (stage.discount, stage.vesting, volumeBonus, [stage.startDate, stage.endDate]);\n            }\n        }\n\n        return (0, 0, 0, [uint32(0), uint32(0)]);\n    }\n\n    function () payable external {\n        buyTokens();\n    }\n\n    function isEnded() public view returns (bool) {\n        return stages.length == 0 || stages[stages.length - 1].endDate < now;\n    }\n\n    modifier beforeStart() {\n        require(startDate > now);\n\n        _;\n    }\n\n    function claimRemainingTokens() external onlyOwner {\n        require(isEnded());\n\n        require(token.transfer(owner, token.balanceOf(address(this))));\n    }\n}\n",
  "sourcePath": "/c/Users/Mr.Hokid/projects/work/w12-product-contracts/contracts/W12Crowdsale.sol",
  "compiler": {
    "name": "solc",
    "version": "0.4.24+commit.e67f0147.Emscripten.clang"
  },
  "schemaVersion": "2.0.1",
  "updatedAt": "2018-08-23T14:09:08.126Z"
}