{
  "contractName": "W12Crowdsale",
  "abi": [
    {
      "constant": true,
      "inputs": [],
      "name": "startDate",
      "outputs": [
        {
          "name": "",
          "type": "uint32"
        }
      ],
      "payable": false,
      "stateMutability": "view",
      "type": "function"
    },
    {
      "constant": true,
      "inputs": [],
      "name": "serviceWallet",
      "outputs": [
        {
          "name": "",
          "type": "address"
        }
      ],
      "payable": false,
      "stateMutability": "view",
      "type": "function"
    },
    {
      "constant": false,
      "inputs": [],
      "name": "renounceOwnership",
      "outputs": [],
      "payable": false,
      "stateMutability": "nonpayable",
      "type": "function"
    },
    {
      "constant": true,
      "inputs": [
        {
          "name": "",
          "type": "uint256"
        }
      ],
      "name": "stages",
      "outputs": [
        {
          "name": "endDate",
          "type": "uint32"
        },
        {
          "name": "discount",
          "type": "uint8"
        },
        {
          "name": "vesting",
          "type": "uint32"
        }
      ],
      "payable": false,
      "stateMutability": "view",
      "type": "function"
    },
    {
      "constant": true,
      "inputs": [],
      "name": "serviceFee",
      "outputs": [
        {
          "name": "",
          "type": "uint8"
        }
      ],
      "payable": false,
      "stateMutability": "view",
      "type": "function"
    },
    {
      "constant": true,
      "inputs": [],
      "name": "owner",
      "outputs": [
        {
          "name": "",
          "type": "address"
        }
      ],
      "payable": false,
      "stateMutability": "view",
      "type": "function"
    },
    {
      "constant": true,
      "inputs": [
        {
          "name": "",
          "type": "address"
        }
      ],
      "name": "buyers",
      "outputs": [
        {
          "name": "totalBought",
          "type": "uint256"
        },
        {
          "name": "averagePrice",
          "type": "uint256"
        }
      ],
      "payable": false,
      "stateMutability": "view",
      "type": "function"
    },
    {
      "constant": true,
      "inputs": [],
      "name": "price",
      "outputs": [
        {
          "name": "",
          "type": "uint256"
        }
      ],
      "payable": false,
      "stateMutability": "view",
      "type": "function"
    },
    {
      "constant": true,
      "inputs": [],
      "name": "fund",
      "outputs": [
        {
          "name": "",
          "type": "address"
        }
      ],
      "payable": false,
      "stateMutability": "view",
      "type": "function"
    },
    {
      "constant": true,
      "inputs": [
        {
          "name": "",
          "type": "uint256"
        }
      ],
      "name": "milestones",
      "outputs": [
        {
          "name": "endDate",
          "type": "uint32"
        },
        {
          "name": "tranchePercent",
          "type": "uint8"
        },
        {
          "name": "voteEndDate",
          "type": "uint32"
        }
      ],
      "payable": false,
      "stateMutability": "view",
      "type": "function"
    },
    {
      "constant": false,
      "inputs": [
        {
          "name": "newOwner",
          "type": "address"
        }
      ],
      "name": "transferOwnership",
      "outputs": [],
      "payable": false,
      "stateMutability": "nonpayable",
      "type": "function"
    },
    {
      "constant": true,
      "inputs": [],
      "name": "token",
      "outputs": [
        {
          "name": "",
          "type": "address"
        }
      ],
      "payable": false,
      "stateMutability": "view",
      "type": "function"
    },
    {
      "inputs": [
        {
          "name": "_token",
          "type": "address"
        },
        {
          "name": "_startDate",
          "type": "uint32"
        },
        {
          "name": "_price",
          "type": "uint256"
        },
        {
          "name": "_serviceWallet",
          "type": "address"
        },
        {
          "name": "_serviceFee",
          "type": "uint8"
        },
        {
          "name": "_fund",
          "type": "address"
        }
      ],
      "payable": false,
      "stateMutability": "nonpayable",
      "type": "constructor"
    },
    {
      "payable": true,
      "stateMutability": "payable",
      "type": "fallback"
    },
    {
      "anonymous": false,
      "inputs": [
        {
          "indexed": true,
          "name": "buyer",
          "type": "address"
        },
        {
          "indexed": false,
          "name": "amountPaid",
          "type": "uint256"
        },
        {
          "indexed": false,
          "name": "tokensBought",
          "type": "uint256"
        }
      ],
      "name": "TokenPurchase",
      "type": "event"
    },
    {
      "anonymous": false,
      "inputs": [],
      "name": "StagesUpdated",
      "type": "event"
    },
    {
      "anonymous": false,
      "inputs": [
        {
          "indexed": true,
          "name": "previousOwner",
          "type": "address"
        }
      ],
      "name": "OwnershipRenounced",
      "type": "event"
    },
    {
      "anonymous": false,
      "inputs": [
        {
          "indexed": true,
          "name": "previousOwner",
          "type": "address"
        },
        {
          "indexed": true,
          "name": "newOwner",
          "type": "address"
        }
      ],
      "name": "OwnershipTransferred",
      "type": "event"
    },
    {
      "constant": true,
      "inputs": [],
      "name": "stagesLength",
      "outputs": [
        {
          "name": "",
          "type": "uint256"
        }
      ],
      "payable": false,
      "stateMutability": "view",
      "type": "function"
    },
    {
      "constant": true,
      "inputs": [],
      "name": "milestonesLength",
      "outputs": [
        {
          "name": "",
          "type": "uint256"
        }
      ],
      "payable": false,
      "stateMutability": "view",
      "type": "function"
    },
    {
      "constant": true,
      "inputs": [
        {
          "name": "stageNumber",
          "type": "uint256"
        }
      ],
      "name": "getStageVolumeBoundaries",
      "outputs": [
        {
          "name": "",
          "type": "uint256[]"
        }
      ],
      "payable": false,
      "stateMutability": "view",
      "type": "function"
    },
    {
      "constant": true,
      "inputs": [
        {
          "name": "stageNumber",
          "type": "uint256"
        }
      ],
      "name": "getStageVolumeBonuses",
      "outputs": [
        {
          "name": "",
          "type": "uint8[]"
        }
      ],
      "payable": false,
      "stateMutability": "view",
      "type": "function"
    },
    {
      "constant": false,
      "inputs": [
        {
          "name": "_startDate",
          "type": "uint32"
        },
        {
          "name": "_price",
          "type": "uint256"
        },
        {
          "name": "_serviceWallet",
          "type": "address"
        }
      ],
      "name": "setParameters",
      "outputs": [],
      "payable": false,
      "stateMutability": "nonpayable",
      "type": "function"
    },
    {
      "constant": false,
      "inputs": [
        {
          "name": "stage_endDates",
          "type": "uint32[]"
        },
        {
          "name": "stage_discounts",
          "type": "uint8[]"
        },
        {
          "name": "stage_vestings",
          "type": "uint32[]"
        }
      ],
      "name": "setStages",
      "outputs": [],
      "payable": false,
      "stateMutability": "nonpayable",
      "type": "function"
    },
    {
      "constant": false,
      "inputs": [
        {
          "name": "stage",
          "type": "uint256"
        },
        {
          "name": "volumeBoundaries",
          "type": "uint256[]"
        },
        {
          "name": "volumeBonuses",
          "type": "uint8[]"
        }
      ],
      "name": "setStageVolumeBonuses",
      "outputs": [],
      "payable": false,
      "stateMutability": "nonpayable",
      "type": "function"
    },
    {
      "constant": false,
      "inputs": [
        {
          "name": "endDates",
          "type": "uint32[]"
        },
        {
          "name": "tranchePercents",
          "type": "uint8[]"
        },
        {
          "name": "voteEndDates",
          "type": "uint32[]"
        }
      ],
      "name": "setMilestones",
      "outputs": [],
      "payable": false,
      "stateMutability": "nonpayable",
      "type": "function"
    },
    {
      "constant": false,
      "inputs": [],
      "name": "buyTokens",
      "outputs": [],
      "payable": true,
      "stateMutability": "payable",
      "type": "function"
    }
  ],
  "bytecode": "0x608060405260008060146101000a81548160ff0219169083151502179055503480156200002b57600080fd5b5060405160c0806200231f833981018060405281019080805190602001909291908051906020019092919080519060200190929190805190602001909291908051906020019092919080519060200190929190505050336000806101000a81548173ffffffffffffffffffffffffffffffffffffffff021916908373ffffffffffffffffffffffffffffffffffffffff160217905550600073ffffffffffffffffffffffffffffffffffffffff168673ffffffffffffffffffffffffffffffffffffffff1614151515620000fe57600080fd5b60008260ff161015801562000116575060648260ff16105b15156200012257600080fd5b600073ffffffffffffffffffffffffffffffffffffffff168173ffffffffffffffffffffffffffffffffffffffff16141515156200015f57600080fd5b85600160006101000a81548173ffffffffffffffffffffffffffffffffffffffff021916908373ffffffffffffffffffffffffffffffffffffffff160217905550620001bc85858562000224640100000000026401000000009004565b81600360006101000a81548160ff021916908360ff16021790555080600460006101000a81548173ffffffffffffffffffffffffffffffffffffffff021916908373ffffffffffffffffffffffffffffffffffffffff160217905550505050505050620002f5565b428363ffffffff16101515156200023a57600080fd5b6000821115156200024a57600080fd5b600073ffffffffffffffffffffffffffffffffffffffff168173ffffffffffffffffffffffffffffffffffffffff16141515156200028757600080fd5b82600160146101000a81548163ffffffff021916908363ffffffff1602179055508160028190555080600360016101000a81548173ffffffffffffffffffffffffffffffffffffffff021916908373ffffffffffffffffffffffffffffffffffffffff160217905550505050565b61201a80620003056000396000f30060806040526004361061011d576000357c0100000000000000000000000000000000000000000000000000000000900463ffffffff1680630b97bc86146101275780630ee62c771461015e5780633baba4d7146101e05780634ef94e341461020b578063521b7499146102765780635641f3c3146102d3578063715018a61461032a578063792c02ea14610341578063845ddcb21461036c5780638abdf5aa146103d95780638da5cb5b1461040a57806397a993aa146104615780639bed31e4146104bf578063a035b1fe1461051c578063b60d428814610547578063d0febe4c1461059e578063e89e4ed6146105a8578063f12585f514610615578063f2fde38b14610697578063f9cbcef0146106da578063fc0c546a14610745575b61012561079c565b005b34801561013357600080fd5b5061013c610cd6565b604051808263ffffffff1663ffffffff16815260200191505060405180910390f35b34801561016a57600080fd5b5061018960048036038101908080359060200190929190505050610cec565b6040518080602001828103825283818151815260200191508051906020019060200280838360005b838110156101cc5780820151818401526020810190506101b1565b505050509050019250505060405180910390f35b3480156101ec57600080fd5b506101f5610d8a565b6040518082815260200191505060405180910390f35b34801561021757600080fd5b50610274600480360381019080803590602001908201803590602001919091929391929390803590602001908201803590602001919091929391929390803590602001908201803590602001919091929391929390505050610d97565b005b34801561028257600080fd5b506102d160048036038101908080359060200190929190803590602001908201803590602001919091929391929390803590602001908201803590602001919091929391929390505050610fc2565b005b3480156102df57600080fd5b506102e86110ab565b604051808273ffffffffffffffffffffffffffffffffffffffff1673ffffffffffffffffffffffffffffffffffffffff16815260200191505060405180910390f35b34801561033657600080fd5b5061033f6110d1565b005b34801561034d57600080fd5b506103566111d3565b6040518082815260200191505060405180910390f35b34801561037857600080fd5b50610397600480360381019080803590602001909291905050506111e0565b604051808463ffffffff1663ffffffff1681526020018360ff1660ff1681526020018263ffffffff1663ffffffff168152602001935050505060405180910390f35b3480156103e557600080fd5b506103ee611246565b604051808260ff1660ff16815260200191505060405180910390f35b34801561041657600080fd5b5061041f611259565b604051808273ffffffffffffffffffffffffffffffffffffffff1673ffffffffffffffffffffffffffffffffffffffff16815260200191505060405180910390f35b34801561046d57600080fd5b506104a2600480360381019080803573ffffffffffffffffffffffffffffffffffffffff16906020019092919050505061127e565b604051808381526020018281526020019250505060405180910390f35b3480156104cb57600080fd5b5061051a600480360381019080803563ffffffff16906020019092919080359060200190929190803573ffffffffffffffffffffffffffffffffffffffff1690602001909291905050506112a2565b005b34801561052857600080fd5b5061053161130d565b6040518082815260200191505060405180910390f35b34801561055357600080fd5b5061055c611313565b604051808273ffffffffffffffffffffffffffffffffffffffff1673ffffffffffffffffffffffffffffffffffffffff16815260200191505060405180910390f35b6105a661079c565b005b3480156105b457600080fd5b506105d360048036038101908080359060200190929190505050611339565b604051808463ffffffff1663ffffffff1681526020018360ff1660ff1681526020018263ffffffff1663ffffffff168152602001935050505060405180910390f35b34801561062157600080fd5b506106406004803603810190808035906020019092919050505061139b565b6040518080602001828103825283818151815260200191508051906020019060200280838360005b83811015610683578082015181840152602081019050610668565b505050509050019250505060405180910390f35b3480156106a357600080fd5b506106d8600480360381019080803573ffffffffffffffffffffffffffffffffffffffff169060200190929190505050611413565b005b3480156106e657600080fd5b50610743600480360381019080803590602001908201803590602001919091929391929390803590602001908201803590602001919091929391929390803590602001908201803590602001919091929391929390505050611568565b005b34801561075157600080fd5b5061075a61195d565b604051808273ffffffffffffffffffffffffffffffffffffffff1673ffffffffffffffffffffffffffffffffffffffff16815260200191505060405180910390f35b600080600080600080600060149054906101000a900460ff161515156107c157600080fd5b6001600060146101000a81548160ff0219169083151502179055506000341115156107eb57600080fd5b42600160149054906101000a900463ffffffff1663ffffffff161115151561081257600080fd5b61081a611983565b95509550955060008660ff161161083357600254610862565b61086160646108538860640360ff16600254611b1f90919063ffffffff16565b611b5790919063ffffffff16565b5b92506108a26064610894856108868860640160ff1634611b1f90919063ffffffff16565b611b5790919063ffffffff16565b611b5790919063ffffffff16565b9150600160009054906101000a900473ffffffffffffffffffffffffffffffffffffffff1673ffffffffffffffffffffffffffffffffffffffff16639d2e47773384886040518463ffffffff167c0100000000000000000000000000000000000000000000000000000000028152600401808473ffffffffffffffffffffffffffffffffffffffff1673ffffffffffffffffffffffffffffffffffffffff1681526020018381526020018263ffffffff1663ffffffff1681526020019350505050602060405180830381600087803b15801561097d57600080fd5b505af1158015610991573d6000803e3d6000fd5b505050506040513d60208110156109a757600080fd5b810190808051906020019092919050505015156109c357600080fd5b6000600360009054906101000a900460ff1660ff161115610a7f57600360019054906101000a900473ffffffffffffffffffffffffffffffffffffffff1673ffffffffffffffffffffffffffffffffffffffff166108fc610a526064610a44600360009054906101000a900460ff1660ff1634611b1f90919063ffffffff16565b611b5790919063ffffffff16565b9081150290604051600060405180830381858888f19350505050158015610a7d573d6000803e3d6000fd5b505b600460009054906101000a900473ffffffffffffffffffffffffffffffffffffffff1673ffffffffffffffffffffffffffffffffffffffff166108fc3073ffffffffffffffffffffffffffffffffffffffff16319081150290604051600060405180830381858888f19350505050158015610afe573d6000803e3d6000fd5b50600760003373ffffffffffffffffffffffffffffffffffffffff1673ffffffffffffffffffffffffffffffffffffffff168152602001908152602001600020600001549050610bbf610b5a8383611b6d90919063ffffffff16565b610bb13484600760003373ffffffffffffffffffffffffffffffffffffffff1673ffffffffffffffffffffffffffffffffffffffff1681526020019081526020016000206001015402611b6d90919063ffffffff16565b611b5790919063ffffffff16565b600760003373ffffffffffffffffffffffffffffffffffffffff1673ffffffffffffffffffffffffffffffffffffffff16815260200190815260200160002060010181905550610c188282611b6d90919063ffffffff16565b600760003373ffffffffffffffffffffffffffffffffffffffff1673ffffffffffffffffffffffffffffffffffffffff168152602001908152602001600020600001819055503373ffffffffffffffffffffffffffffffffffffffff167fcd60aa75dea3072fbc07ae6d7d856b5dc5f4eee88854f5b4abf7b680ef8bc50f3484604051808381526020018281526020019250505060405180910390a260008060146101000a81548160ff021916908315150217905550505050505050565b600160149054906101000a900463ffffffff1681565b6060600582815481101515610cfd57fe5b9060005260206000209060030201600201805480602002602001604051908101604052809291908181526020018280548015610d7e57602002820191906000526020600020906000905b82829054906101000a900460ff1660ff1681526020019060010190602082600001049283019260010382029150808411610d475790505b50505050509050919050565b6000600680549050905090565b60008060008060009054906101000a900473ffffffffffffffffffffffffffffffffffffffff1673ffffffffffffffffffffffffffffffffffffffff163373ffffffffffffffffffffffffffffffffffffffff16141515610df757600080fd5b7fffffffffffffffffffffffffffffffffffffffffffffffffffffffffffffffff60ff168989905011151515610e2c57600080fd5b600089899050111515610e3e57600080fd5b8686905089899050141515610e5257600080fd5b8484905089899050141515610e6657600080fd5b888890509250600090505b8260ff168160ff161015610fa557816060604051908101604052808b8b8560ff168181101515610e9d57fe5b9050602002013563ffffffff1663ffffffff16815260200189898560ff168181101515610ec657fe5b9050602002013560ff1660ff16815260200187878560ff168181101515610ee957fe5b9050602002013563ffffffff1663ffffffff1681525090806001815401808255809150509060018203906000526020600020016000909192909190915060008201518160000160006101000a81548163ffffffff021916908363ffffffff16021790555060208201518160000160046101000a81548160ff021916908360ff16021790555060408201518160000160056101000a81548163ffffffff021916908363ffffffff1602179055505050508080600101915050610e71565b816006908054610fb6929190611c57565b50505050505050505050565b6000809054906101000a900473ffffffffffffffffffffffffffffffffffffffff1673ffffffffffffffffffffffffffffffffffffffff163373ffffffffffffffffffffffffffffffffffffffff1614151561101d57600080fd5b818190508484905014151561103157600080fd5b6005805490508510151561104457600080fd5b838360058781548110151561105557fe5b90600052602060002090600302016001019190611073929190611d45565b50818160058781548110151561108557fe5b906000526020600020906003020160020191906110a3929190611d92565b505050505050565b600360019054906101000a900473ffffffffffffffffffffffffffffffffffffffff1681565b6000809054906101000a900473ffffffffffffffffffffffffffffffffffffffff1673ffffffffffffffffffffffffffffffffffffffff163373ffffffffffffffffffffffffffffffffffffffff1614151561112c57600080fd5b6000809054906101000a900473ffffffffffffffffffffffffffffffffffffffff1673ffffffffffffffffffffffffffffffffffffffff167ff8df31144d9c2f0f6b59d69b8b98abd5459d07f2742c4df920b25aae33c6482060405160405180910390a260008060006101000a81548173ffffffffffffffffffffffffffffffffffffffff021916908373ffffffffffffffffffffffffffffffffffffffff160217905550565b6000600580549050905090565b6005818154811015156111ef57fe5b90600052602060002090600302016000915090508060000160009054906101000a900463ffffffff16908060000160049054906101000a900460ff16908060000160059054906101000a900463ffffffff16905083565b600360009054906101000a900460ff1681565b6000809054906101000a900473ffffffffffffffffffffffffffffffffffffffff1681565b60076020528060005260406000206000915090508060000154908060010154905082565b6000809054906101000a900473ffffffffffffffffffffffffffffffffffffffff1673ffffffffffffffffffffffffffffffffffffffff163373ffffffffffffffffffffffffffffffffffffffff161415156112fd57600080fd5b611308838383611b89565b505050565b60025481565b600460009054906101000a900473ffffffffffffffffffffffffffffffffffffffff1681565b60068181548110151561134857fe5b906000526020600020016000915090508060000160009054906101000a900463ffffffff16908060000160049054906101000a900460ff16908060000160059054906101000a900463ffffffff16905083565b60606005828154811015156113ac57fe5b906000526020600020906003020160010180548060200260200160405190810160405280929190818152602001828054801561140757602002820191906000526020600020905b8154815260200190600101908083116113f3575b50505050509050919050565b6000809054906101000a900473ffffffffffffffffffffffffffffffffffffffff1673ffffffffffffffffffffffffffffffffffffffff163373ffffffffffffffffffffffffffffffffffffffff1614151561146e57600080fd5b600073ffffffffffffffffffffffffffffffffffffffff168173ffffffffffffffffffffffffffffffffffffffff16141515156114aa57600080fd5b8073ffffffffffffffffffffffffffffffffffffffff166000809054906101000a900473ffffffffffffffffffffffffffffffffffffffff1673ffffffffffffffffffffffffffffffffffffffff167f8be0079c531659141344cd1fd0a4f28419497f9722a3daafe3b4186f6b6457e060405160405180910390a3806000806101000a81548173ffffffffffffffffffffffffffffffffffffffff021916908373ffffffffffffffffffffffffffffffffffffffff16021790555050565b6000806000809054906101000a900473ffffffffffffffffffffffffffffffffffffffff1673ffffffffffffffffffffffffffffffffffffffff163373ffffffffffffffffffffffffffffffffffffffff161415156115c657600080fd5b7fffffffffffffffffffffffffffffffffffffffffffffffffffffffffffffffff60ff1688889050111515156115fb57600080fd5b60008888905011151561160d57600080fd5b858590508888905014151561162157600080fd5b838390508888905014151561163557600080fd5b8787905091508160ff1660058161164c9190611e3c565b50600090505b8160ff168160ff16101561192757600086868360ff16818110151561167357fe5b9050602002013560ff1660ff16101580156116ab5750606486868360ff16818110151561169c57fe5b9050602002013560ff1660ff16105b15156116b657600080fd5b87878260ff1681811015156116c757fe5b9050602002013563ffffffff1663ffffffff16600160149054906101000a900463ffffffff1663ffffffff161015156116ff57600080fd5b6001820360ff168160ff1610156117f75787876001830160ff16818110151561172457fe5b9050602002013563ffffffff1663ffffffff1688888360ff16818110151561174857fe5b9050602002013563ffffffff1663ffffffff161015156117f6576040517f08c379a00000000000000000000000000000000000000000000000000000000081526004018080602001828103825260228152602001807f53746167657320617265206e6f7420696e20686973746f726963616c206f726481526020017f657200000000000000000000000000000000000000000000000000000000000081525060400191505060405180910390fd5b5b87878260ff16818110151561180857fe5b9050602002013563ffffffff16600560018385030360ff1681548110151561182c57fe5b906000526020600020906003020160000160006101000a81548163ffffffff021916908363ffffffff16021790555085858260ff16818110151561186c57fe5b9050602002013560ff16600560018385030360ff1681548110151561188d57fe5b906000526020600020906003020160000160046101000a81548160ff021916908360ff16021790555083838260ff1681811015156118c757fe5b9050602002013563ffffffff16600560018385030360ff168154811015156118eb57fe5b906000526020600020906003020160000160056101000a81548163ffffffff021916908363ffffffff1602179055508080600101915050611652565b7f743961f4e677d1146fbf85d75565b1c5474fd083eb166f8b9595cf5d01a4d6e660405160405180910390a15050505050505050565b600160009054906101000a900473ffffffffffffffffffffffffffffffffffffffff1681565b600080600080600080600060058054905014156119b3576000806000829250819150809050955095509550611b17565b60056001600580549050038154811015156119ca57fe5b90600052602060002090600302019250428360000160009054906101000a900463ffffffff1663ffffffff16101515611af2576000935060009150600083600101805490501115611abf57600090505b6001836001018054905003811015611abe57813410158015611a5657508260010181815481101515611a4857fe5b906000526020600020015434105b15611a93578260020181815481101515611a6c57fe5b90600052602060002090602091828204019190069054906101000a900460ff169350611abe565b8260010181815481101515611aa457fe5b906000526020600020015491508080600101915050611a1a565b5b8260000160049054906101000a900460ff168360000160059054906101000a900463ffffffff1685955095509550611b17565b6005805480919060019003611b079190611e3c565b50611b10611983565b9550955095505b505050909192565b600080831415611b325760009050611b51565b8183029050818382811515611b4357fe5b04141515611b4d57fe5b8090505b92915050565b60008183811515611b6457fe5b04905092915050565b60008183019050828110151515611b8057fe5b80905092915050565b428363ffffffff1610151515611b9e57600080fd5b600082111515611bad57600080fd5b600073ffffffffffffffffffffffffffffffffffffffff168173ffffffffffffffffffffffffffffffffffffffff1614151515611be957600080fd5b82600160146101000a81548163ffffffff021916908363ffffffff1602179055508160028190555080600360016101000a81548173ffffffffffffffffffffffffffffffffffffffff021916908373ffffffffffffffffffffffffffffffffffffffff160217905550505050565b828054828255906000526020600020908101928215611d345760005260206000209182015b82811115611d335782826000820160009054906101000a900463ffffffff168160000160006101000a81548163ffffffff021916908363ffffffff1602179055506000820160049054906101000a900460ff168160000160046101000a81548160ff021916908360ff1602179055506000820160059054906101000a900463ffffffff168160000160056101000a81548163ffffffff021916908363ffffffff160217905550505091600101919060010190611c7c565b5b509050611d419190611e6e565b5090565b828054828255906000526020600020908101928215611d81579160200282015b82811115611d80578235825591602001919060010190611d65565b5b509050611d8e9190611ecf565b5090565b82805482825590600052602060002090601f01602090048101928215611e2b5791602002820160005b83821115611dfc57833560ff1683826101000a81548160ff021916908360ff1602179055509260200192600101602081600001049283019260010302611dbb565b8015611e295782816101000a81549060ff0219169055600101602081600001049283019260010302611dfc565b505b509050611e389190611ef4565b5090565b815481835581811115611e6957600302816003028360005260206000209182019101611e689190611f24565b5b505050565b611ecc91905b80821115611ec857600080820160006101000a81549063ffffffff02191690556000820160046101000a81549060ff02191690556000820160056101000a81549063ffffffff021916905550600101611e74565b5090565b90565b611ef191905b80821115611eed576000816000905550600101611ed5565b5090565b90565b611f2191905b80821115611f1d57600081816101000a81549060ff021916905550600101611efa565b5090565b90565b611fa291905b80821115611f9e57600080820160006101000a81549063ffffffff02191690556000820160046101000a81549060ff02191690556000820160056101000a81549063ffffffff0219169055600182016000611f859190611fa5565b600282016000611f959190611fc6565b50600301611f2a565b5090565b90565b5080546000825590600052602060002090810190611fc39190611ecf565b50565b50805460008255601f016020900490600052602060002090810190611feb9190611ecf565b505600a165627a7a72305820c5bf60d2f08ac6f96bcc51ba0a6ed35a7a97284beb04a0bc18995c77bb4cc9560029",
  "source": "pragma solidity ^0.4.24;\n\nimport \"../openzeppelin-solidity/contracts/ownership/Ownable.sol\";\nimport \"../openzeppelin-solidity/contracts/ReentrancyGuard.sol\";\nimport \"../openzeppelin-solidity/contracts/math/SafeMath.sol\";\nimport \"./WToken.sol\";\nimport \"./IW12Crowdsale.sol\";\n\n\ncontract W12Crowdsale is IW12Crowdsale, Ownable, ReentrancyGuard {\n    using SafeMath for uint;\n\n    struct Stage {\n        uint32 endDate;\n        uint8 discount;\n        uint32 vesting;\n        uint[] volumeBoundaries;\n        uint8[] volumeBonuses;\n    }\n\n    struct Milestone {\n        uint32 endDate;\n        uint8 tranchePercent;\n        uint32 voteEndDate;\n    }\n\n    struct TokenPrice {\n        uint totalBought;\n        uint averagePrice;\n    }\n\n    WToken public token;\n    uint32 public startDate;\n    uint public price;\n    uint8 public serviceFee;\n    address public serviceWallet;\n    address public fund;\n\n    Stage[] public stages;\n    Milestone[] public milestones;\n\n    mapping (address=>TokenPrice) public buyers;\n\n    event TokenPurchase(address indexed buyer, uint amountPaid, uint tokensBought);\n    event StagesUpdated();\n\n    constructor (address _token, uint32 _startDate, uint _price, address _serviceWallet, uint8 _serviceFee, address _fund) public {\n        require(_token != address(0));\n        require(_serviceFee >= 0 && _serviceFee < 100);\n        require(_fund != address(0));\n\n        token = WToken(_token);\n\n        __setParameters(_startDate, _price, _serviceWallet);\n        serviceFee = _serviceFee;\n        fund = _fund;\n    }\n\n    function stagesLength() external view returns (uint) {\n        return stages.length;\n    }\n\n    function milestonesLength() external view returns (uint) {\n        return milestones.length;\n    }\n\n    function getStageVolumeBoundaries(uint stageNumber) external view returns (uint[]) {\n        return stages[stageNumber].volumeBoundaries;\n    }\n\n    function getStageVolumeBonuses(uint stageNumber) external view returns (uint8[]) {\n        return stages[stageNumber].volumeBonuses;\n    }\n\n    function __setParameters(uint32 _startDate, uint _price, address _serviceWallet) internal {\n        require(_startDate >= now);\n        require(_price > 0);\n        require(_serviceWallet != address(0));\n\n        startDate = _startDate;\n        price = _price;\n        serviceWallet = _serviceWallet;\n    }\n\n    function setParameters(uint32 _startDate, uint _price, address _serviceWallet) external onlyOwner {\n        __setParameters(_startDate, _price, _serviceWallet);\n    }\n\n    function setStages(uint32[] stage_endDates, uint8[] stage_discounts, uint32[] stage_vestings) external onlyOwner {\n        require(stage_endDates.length <= uint8(-1));\n        require(stage_endDates.length > 0);\n        require(stage_endDates.length == stage_discounts.length);\n        require(stage_endDates.length == stage_vestings.length);\n\n        uint8 stagesCount = uint8(stage_endDates.length);\n        stages.length = stagesCount;\n\n        for(uint8 i = 0; i < stagesCount; i++) {\n            require(stage_discounts[i] >= 0 && stage_discounts[i] < 100);\n            require(startDate < stage_endDates[i]);\n            // Checking that stages entered in historical order\n            if(i < stagesCount - 1)\n                require(stage_endDates[i] < stage_endDates[i+1], \"Stages are not in historical order\");\n\n            // Reverting stage order for future use\n            stages[stagesCount - i - 1].endDate = stage_endDates[i];\n            stages[stagesCount - i - 1].discount = stage_discounts[i];\n            stages[stagesCount - i - 1].vesting = stage_vestings[i];\n        }\n\n        emit StagesUpdated();\n    }\n\n    function setStageVolumeBonuses(uint stage, uint[] volumeBoundaries, uint8[] volumeBonuses) external onlyOwner {\n        require(volumeBoundaries.length == volumeBonuses.length);\n        require(stage < stages.length);\n\n        stages[stage].volumeBoundaries = volumeBoundaries;\n        stages[stage].volumeBonuses = volumeBonuses;\n    }\n\n    function setMilestones(uint32[] endDates, uint8[] tranchePercents, uint32[] voteEndDates) external onlyOwner {\n        require(endDates.length <= uint8(-1));\n        require(endDates.length > 0);\n        require(endDates.length == tranchePercents.length);\n        require(endDates.length == voteEndDates.length);\n\n        uint8 length = uint8(endDates.length);\n        Milestone[] storage newMilestones;\n\n        for(uint8 i = 0; i < length; i++)\n            newMilestones.push(Milestone({\n                endDate: endDates[i],\n                tranchePercent: tranchePercents[i],\n                voteEndDate: voteEndDates[i]\n            }));\n\n        milestones = newMilestones;\n    }\n\n    function buyTokens() payable nonReentrant public {\n        require(msg.value > 0);\n        require(startDate <= now);\n\n        (uint8 discount, uint32 vesting, uint8 volumeBonus) = getCurrentStage();\n\n        uint stagePrice = discount > 0 ? price.mul(100 - discount).div(100) : price;\n\n        uint tokenAmount = msg.value\n            .mul(100 + volumeBonus)\n            .div(stagePrice)\n            .div(100);\n\n        require(token.vestingTransfer(msg.sender, tokenAmount, vesting));\n\n        if(serviceFee > 0)\n            serviceWallet.transfer(msg.value.mul(serviceFee).div(100));\n\n        fund.transfer(address(this).balance);\n\n        uint tokensBoughtBefore = buyers[msg.sender].totalBought;\n\n        buyers[msg.sender].averagePrice = (buyers[msg.sender].averagePrice * tokensBoughtBefore)\n            .add(msg.value)\n            .div(tokensBoughtBefore.add(tokenAmount));\n        buyers[msg.sender].totalBought = tokensBoughtBefore.add(tokenAmount);\n\n        emit TokenPurchase(msg.sender, msg.value, tokenAmount);\n    }\n\n    function getCurrentStage() internal returns(uint8 discount, uint32 vesting, uint8 volumeBonus) {\n        if(stages.length == 0)\n            return (0, 0, 0);\n\n        Stage storage lastStage = stages[stages.length - 1];\n\n        if(lastStage.endDate >= now) {\n            volumeBonus = 0;\n            uint lastLowerBoundary = 0;\n\n            if(lastStage.volumeBoundaries.length > 0)\n                for (uint i = 0; i < lastStage.volumeBoundaries.length - 1; i++)\n                    if(msg.value >= lastLowerBoundary && msg.value < lastStage.volumeBoundaries[i]) {\n                        volumeBonus = lastStage.volumeBonuses[i];\n                        break;\n                    }\n                    else\n                        lastLowerBoundary = lastStage.volumeBoundaries[i];\n\n            return (lastStage.discount, lastStage.vesting, volumeBonus);\n        }\n\n        stages.length--;\n        return getCurrentStage();\n    }\n\n    function () payable external {\n        buyTokens();\n    }\n}\n",
  "sourcePath": "/home/andrey/Code/w12/platform-contracts/contracts/W12Crowdsale.sol",
  "compiler": {
    "name": "solc",
    "version": "0.4.24+commit.e67f0147.Emscripten.clang"
  },
  "schemaVersion": "2.0.0",
  "updatedAt": "2018-07-14T16:43:48.890Z"
}