{
  "contractName": "W12CrowdsaleFactory",
  "abi": [
    {
      "constant": true,
      "inputs": [],
      "name": "version",
      "outputs": [
        {
          "name": "",
          "type": "uint256"
        }
      ],
      "payable": false,
      "stateMutability": "view",
      "type": "function"
    },
    {
      "inputs": [
        {
          "name": "version",
          "type": "uint256"
        },
        {
          "name": "_fundFactory",
          "type": "address"
        },
        {
          "name": "_rates",
          "type": "address"
        }
      ],
      "payable": false,
      "stateMutability": "nonpayable",
      "type": "constructor"
    },
    {
      "anonymous": false,
      "inputs": [
        {
          "indexed": true,
          "name": "token",
          "type": "address"
        },
        {
          "indexed": false,
          "name": "crowdsaleAddress",
          "type": "address"
        },
        {
          "indexed": false,
          "name": "fundAddress",
          "type": "address"
        }
      ],
      "name": "CrowdsaleCreated",
      "type": "event"
    },
    {
      "constant": false,
      "inputs": [
        {
          "name": "tokenAddress",
          "type": "address"
        },
        {
          "name": "wTokenAddress",
          "type": "address"
        },
        {
          "name": "price",
          "type": "uint256"
        },
        {
          "name": "serviceWallet",
          "type": "address"
        },
        {
          "name": "serviceFee",
          "type": "uint256"
        },
        {
          "name": "WTokenSaleFeePercent",
          "type": "uint256"
        },
        {
          "name": "trancheFeePercent",
          "type": "uint256"
        },
        {
          "name": "swap",
          "type": "address"
        },
        {
          "name": "owners",
          "type": "address[]"
        }
      ],
      "name": "createCrowdsale",
      "outputs": [
        {
          "name": "result",
          "type": "address"
        }
      ],
      "payable": false,
      "stateMutability": "nonpayable",
      "type": "function"
    }
  ],
  "bytecode": "0x608060405234801561001057600080fd5b506040516060806170f1833981018060405281019080805190602001909291908051906020019092919080519060200190929190505050828060008190555050600073ffffffffffffffffffffffffffffffffffffffff168273ffffffffffffffffffffffffffffffffffffffff161415151561008c57600080fd5b600073ffffffffffffffffffffffffffffffffffffffff168173ffffffffffffffffffffffffffffffffffffffff16141515156100c857600080fd5b81600160006101000a81548173ffffffffffffffffffffffffffffffffffffffff021916908373ffffffffffffffffffffffffffffffffffffffff16021790555080600260006101000a81548173ffffffffffffffffffffffffffffffffffffffff021916908373ffffffffffffffffffffffffffffffffffffffff160217905550505050616f958061015c6000396000f3006080604052600436106200004f576000357c0100000000000000000000000000000000000000000000000000000000900463ffffffff16806354fd4d501462000054578063868b16d91462000082575b600080fd5b3480156200006157600080fd5b506200006c620001a8565b6040518082815260200191505060405180910390f35b3480156200008f57600080fd5b5062000166600480360381019080803573ffffffffffffffffffffffffffffffffffffffff169060200190929190803573ffffffffffffffffffffffffffffffffffffffff16906020019092919080359060200190929190803573ffffffffffffffffffffffffffffffffffffffff169060200190929190803590602001909291908035906020019092919080359060200190929190803573ffffffffffffffffffffffffffffffffffffffff169060200190929190803590602001908201803590602001919091929391929390505050620001ae565b604051808273ffffffffffffffffffffffffffffffffffffffff1673ffffffffffffffffffffffffffffffffffffffff16815260200191505060405180910390f35b60005481565b6000806000600160009054906101000a900473ffffffffffffffffffffffffffffffffffffffff1673ffffffffffffffffffffffffffffffffffffffff166317444626878c8a6040518463ffffffff167c0100000000000000000000000000000000000000000000000000000000028152600401808473ffffffffffffffffffffffffffffffffffffffff1673ffffffffffffffffffffffffffffffffffffffff1681526020018373ffffffffffffffffffffffffffffffffffffffff1673ffffffffffffffffffffffffffffffffffffffff1681526020018281526020019350505050602060405180830381600087803b158015620002ad57600080fd5b505af1158015620002c2573d6000803e3d6000fd5b505050506040513d6020811015620002d957600080fd5b810190808051906020019092919050505091506000548d8d8d8d8a8e8e89600260009054906101000a900473ffffffffffffffffffffffffffffffffffffffff166200032462000dd0565b808b81526020018a73ffffffffffffffffffffffffffffffffffffffff1673ffffffffffffffffffffffffffffffffffffffff1681526020018973ffffffffffffffffffffffffffffffffffffffff1673ffffffffffffffffffffffffffffffffffffffff1681526020018881526020018773ffffffffffffffffffffffffffffffffffffffff1673ffffffffffffffffffffffffffffffffffffffff1681526020018673ffffffffffffffffffffffffffffffffffffffff1673ffffffffffffffffffffffffffffffffffffffff1681526020018581526020018481526020018373ffffffffffffffffffffffffffffffffffffffff1673ffffffffffffffffffffffffffffffffffffffff1681526020018273ffffffffffffffffffffffffffffffffffffffff1673ffffffffffffffffffffffffffffffffffffffff1681526020019a5050505050505050505050604051809103906000f08015801562000492573d6000803e3d6000fd5b5092508173ffffffffffffffffffffffffffffffffffffffff1663483a20b2846040518263ffffffff167c0100000000000000000000000000000000000000000000000000000000028152600401808273ffffffffffffffffffffffffffffffffffffffff1673ffffffffffffffffffffffffffffffffffffffff168152602001915050600060405180830381600087803b1580156200053157600080fd5b505af115801562000546573d6000803e3d6000fd5b505050508173ffffffffffffffffffffffffffffffffffffffff166370480275846040518263ffffffff167c0100000000000000000000000000000000000000000000000000000000028152600401808273ffffffffffffffffffffffffffffffffffffffff1673ffffffffffffffffffffffffffffffffffffffff168152602001915050600060405180830381600087803b158015620005e657600080fd5b505af1158015620005fb573d6000803e3d6000fd5b50505050600090505b848490508110156200084657600073ffffffffffffffffffffffffffffffffffffffff1685858381811015156200063757fe5b9050602002013573ffffffffffffffffffffffffffffffffffffffff1673ffffffffffffffffffffffffffffffffffffffff16141515156200067857600080fd5b8273ffffffffffffffffffffffffffffffffffffffff16633bcdb1648686848181101515620006a357fe5b9050602002013573ffffffffffffffffffffffffffffffffffffffff166040518263ffffffff167c0100000000000000000000000000000000000000000000000000000000028152600401808273ffffffffffffffffffffffffffffffffffffffff1673ffffffffffffffffffffffffffffffffffffffff168152602001915050600060405180830381600087803b1580156200073f57600080fd5b505af115801562000754573d6000803e3d6000fd5b505050508173ffffffffffffffffffffffffffffffffffffffff16633bcdb16486868481811015156200078357fe5b9050602002013573ffffffffffffffffffffffffffffffffffffffff166040518263ffffffff167c0100000000000000000000000000000000000000000000000000000000028152600401808273ffffffffffffffffffffffffffffffffffffffff1673ffffffffffffffffffffffffffffffffffffffff168152602001915050600060405180830381600087803b1580156200081f57600080fd5b505af115801562000834573d6000803e3d6000fd5b50505050808060010191505062000604565b8173ffffffffffffffffffffffffffffffffffffffff166370480275336040518263ffffffff167c0100000000000000000000000000000000000000000000000000000000028152600401808273ffffffffffffffffffffffffffffffffffffffff1673ffffffffffffffffffffffffffffffffffffffff168152602001915050600060405180830381600087803b158015620008e257600080fd5b505af1158015620008f7573d6000803e3d6000fd5b505050508173ffffffffffffffffffffffffffffffffffffffff16632348238c336040518263ffffffff167c0100000000000000000000000000000000000000000000000000000000028152600401808273ffffffffffffffffffffffffffffffffffffffff1673ffffffffffffffffffffffffffffffffffffffff168152602001915050600060405180830381600087803b1580156200099757600080fd5b505af1158015620009ac573d6000803e3d6000fd5b505050508173ffffffffffffffffffffffffffffffffffffffff16638bad0c0a6040518163ffffffff167c0100000000000000000000000000000000000000000000000000000000028152600401600060405180830381600087803b15801562000a1557600080fd5b505af115801562000a2a573d6000803e3d6000fd5b505050508173ffffffffffffffffffffffffffffffffffffffff1663d0934d616040518163ffffffff167c0100000000000000000000000000000000000000000000000000000000028152600401600060405180830381600087803b15801562000a9357600080fd5b505af115801562000aa8573d6000803e3d6000fd5b505050508273ffffffffffffffffffffffffffffffffffffffff166370480275336040518263ffffffff167c0100000000000000000000000000000000000000000000000000000000028152600401808273ffffffffffffffffffffffffffffffffffffffff1673ffffffffffffffffffffffffffffffffffffffff168152602001915050600060405180830381600087803b15801562000b4857600080fd5b505af115801562000b5d573d6000803e3d6000fd5b505050508273ffffffffffffffffffffffffffffffffffffffff16632348238c336040518263ffffffff167c0100000000000000000000000000000000000000000000000000000000028152600401808273ffffffffffffffffffffffffffffffffffffffff1673ffffffffffffffffffffffffffffffffffffffff168152602001915050600060405180830381600087803b15801562000bfd57600080fd5b505af115801562000c12573d6000803e3d6000fd5b505050508273ffffffffffffffffffffffffffffffffffffffff16638bad0c0a6040518163ffffffff167c0100000000000000000000000000000000000000000000000000000000028152600401600060405180830381600087803b15801562000c7b57600080fd5b505af115801562000c90573d6000803e3d6000fd5b505050508273ffffffffffffffffffffffffffffffffffffffff1663d0934d616040518163ffffffff167c0100000000000000000000000000000000000000000000000000000000028152600401600060405180830381600087803b15801562000cf957600080fd5b505af115801562000d0e573d6000803e3d6000fd5b505050508b73ffffffffffffffffffffffffffffffffffffffff167f50c0bc8e997d259dfe177ef636db3fee4d2e51ba70b0cc2d920e44584a7943268484604051808373ffffffffffffffffffffffffffffffffffffffff1673ffffffffffffffffffffffffffffffffffffffff1681526020018273ffffffffffffffffffffffffffffffffffffffff1673ffffffffffffffffffffffffffffffffffffffff1681526020019250505060405180910390a250509a9950505050505050505050565b6040516161888062000de283390190560060806040523480156200001157600080fd5b5060405161014080620061888339810180604052810190808051906020019092919080519060200190929190805190602001909291908051906020019092919080519060200190929190805190602001909291908051906020019092919080519060200190929190805190602001909291908051906020019092919050505089620000ab3362000726640100000000026401000000009004565b620000c53362000790640100000000026401000000009004565b806002819055505033600360006101000a81548173ffffffffffffffffffffffffffffffffffffffff021916908373ffffffffffffffffffffffffffffffffffffffff1602179055507f4101e71e974f68df5e9730cc223280b41654676bbb052cdcc735c3337e64d2d9600360009054906101000a900473ffffffffffffffffffffffffffffffffffffffff16604051808273ffffffffffffffffffffffffffffffffffffffff1673ffffffffffffffffffffffffffffffffffffffff16815260200191505060405180910390a16001600481905550600073ffffffffffffffffffffffffffffffffffffffff168973ffffffffffffffffffffffffffffffffffffffff1614151515620001d857600080fd5b600073ffffffffffffffffffffffffffffffffffffffff168873ffffffffffffffffffffffffffffffffffffffff16141515156200021557600080fd5b8373__Percent_______________________________63520b006690916040518263ffffffff167c01000000000000000000000000000000000000000000000000000000000281526004018082815260200191505060206040518083038186803b1580156200028357600080fd5b505af415801562000298573d6000803e3d6000fd5b505050506040513d6020811015620002af57600080fd5b8101908080519060200190929190505050801562000377575060648473__Percent_______________________________630fe9114790916040518263ffffffff167c01000000000000000000000000000000000000000000000000000000000281526004018082815260200191505060206040518083038186803b1580156200033857600080fd5b505af41580156200034d573d6000803e3d6000fd5b505050506040513d60208110156200036457600080fd5b8101908080519060200190929190505050105b15156200038357600080fd5b8273__Percent_______________________________63520b006690916040518263ffffffff167c01000000000000000000000000000000000000000000000000000000000281526004018082815260200191505060206040518083038186803b158015620003f157600080fd5b505af415801562000406573d6000803e3d6000fd5b505050506040513d60208110156200041d57600080fd5b81019080805190602001909291905050508015620004e5575060648373__Percent_______________________________630fe9114790916040518263ffffffff167c01000000000000000000000000000000000000000000000000000000000281526004018082815260200191505060206040518083038186803b158015620004a657600080fd5b505af4158015620004bb573d6000803e3d6000fd5b505050506040513d6020811015620004d257600080fd5b8101908080519060200190929190505050105b1515620004f157600080fd5b600073ffffffffffffffffffffffffffffffffffffffff168273ffffffffffffffffffffffffffffffffffffffff16141515156200052e57600080fd5b600073ffffffffffffffffffffffffffffffffffffffff168573ffffffffffffffffffffffffffffffffffffffff16141515156200056b57600080fd5b600073ffffffffffffffffffffffffffffffffffffffff168173ffffffffffffffffffffffffffffffffffffffff1614151515620005a857600080fd5b620005c38787620007fa640100000000026401000000009004565b87600560006101000a81548173ffffffffffffffffffffffffffffffffffffffff021916908373ffffffffffffffffffffffffffffffffffffffff16021790555088600660006101000a81548173ffffffffffffffffffffffffffffffffffffffff021916908373ffffffffffffffffffffffffffffffffffffffff16021790555083600a8190555084600d60006101000a81548173ffffffffffffffffffffffffffffffffffffffff021916908373ffffffffffffffffffffffffffffffffffffffff16021790555082600b8190555081600760006101000a81548173ffffffffffffffffffffffffffffffffffffffff021916908373ffffffffffffffffffffffffffffffffffffffff16021790555080600860006101000a81548173ffffffffffffffffffffffffffffffffffffffff021916908373ffffffffffffffffffffffffffffffffffffffff16021790555050505050505050505050620009eb565b6200074a816000620008936401000000000262005649179091906401000000009004565b8073ffffffffffffffffffffffffffffffffffffffff167f44d6d25963f097ad14f29f06854a01f575648a1ef82f30e562ccd3889717e33960405160405180910390a250565b620007b4816001620008936401000000000262005649179091906401000000009004565b8073ffffffffffffffffffffffffffffffffffffffff167f941e31c3e651de34a7fcf0132d9d02c2df9377e6b5f932bec5daf6353c94f90e60405160405180910390a250565b6000821115156200080a57600080fd5b600073ffffffffffffffffffffffffffffffffffffffff168173ffffffffffffffffffffffffffffffffffffffff16141515156200084757600080fd5b8160098190555080600c60006101000a81548173ffffffffffffffffffffffffffffffffffffffff021916908373ffffffffffffffffffffffffffffffffffffffff1602179055505050565b600073ffffffffffffffffffffffffffffffffffffffff168173ffffffffffffffffffffffffffffffffffffffff1614151515620008d057600080fd5b620008eb828262000956640100000000026401000000009004565b151515620008f857600080fd5b60018260000160008373ffffffffffffffffffffffffffffffffffffffff1673ffffffffffffffffffffffffffffffffffffffff16815260200190815260200160002060006101000a81548160ff0219169083151502179055505050565b60008073ffffffffffffffffffffffffffffffffffffffff168273ffffffffffffffffffffffffffffffffffffffff16141515156200099457600080fd5b8260000160008373ffffffffffffffffffffffffffffffffffffffff1673ffffffffffffffffffffffffffffffffffffffff16815260200190815260200160002060009054906101000a900460ff16905092915050565b61578d80620009fb6000396000f30060806040526004361061023b576000357c0100000000000000000000000000000000000000000000000000000000900463ffffffff16806307f5d6331461024057806311eb8c9f1461026e57806313096a41146102b757806314f66d341461030e5780631785f53c14610344578063208853c9146103875780632348238c146103c85780632442e1cb1461040b57806324d7806c1461055d5780632784bb7b146105b85780632e325020146106085780632fbe599014610712578063313602d41461073d5780633baba4d7146107545780633bcdb1641461077f5780633dbd6721146107c25780634090cb641461080757806343f48fbd1461085e57806354fd4d50146108b5578063550fd742146108e05780635641f3c31461094c578063564566a8146109a357806359e37749146109d25780637048027514610a19578063792c02ea14610a5c5780638119c06514610a87578063845ddcb214610ade5780638abdf5aa14610b585780638aea2af814610b835780638bad0c0a14610bfa5780638edd6eb614610c11578063a035b1fe14610c68578063a4fd6f5614610c93578063b135648814610cc2578063b60d428814610cf9578063c6dbdf6114610d50578063cd151de014610da7578063d0934d6114610e28578063d155790b14610e3f578063d5b2262314610e82578063d6d65f3d14610f35578063d8e9ce6414610f6b578063daa4cf8814610fc6578063e89e4ed614610ffc578063e93b05401461114e578063f6cf09dc1461117b578063fc0c546a146111f2575b600080fd5b61026c600480360381019080803560001916906020019092919080359060200190929190505050611249565b005b34801561027a57600080fd5b5061029d60048036038101908080356000191690602001909291905050506115bc565b604051808215151515815260200191505060405180910390f35b3480156102c357600080fd5b506102cc61167e565b604051808273ffffffffffffffffffffffffffffffffffffffff1673ffffffffffffffffffffffffffffffffffffffff16815260200191505060405180910390f35b34801561031a57600080fd5b506103236116a4565b60405180838152602001821515151581526020019250505060405180910390f35b34801561035057600080fd5b50610385600480360381019080803573ffffffffffffffffffffffffffffffffffffffff1690602001909291905050506116de565b005b34801561039357600080fd5b506103b2600480360381019080803590602001909291905050506116fe565b6040518082815260200191505060405180910390f35b3480156103d457600080fd5b50610409600480360381019080803573ffffffffffffffffffffffffffffffffffffffff16906020019092919050505061187e565b005b34801561041757600080fd5b50610436600480360381019080803590602001909291905050506119df565b604051808763ffffffff1663ffffffff1681526020018681526020018563ffffffff1663ffffffff1681526020018463ffffffff1663ffffffff1681526020018060200180602001838103835285818151815260200191508051906020019080838360005b838110156104b657808201518184015260208101905061049b565b50505050905090810190601f1680156104e35780820380516001836020036101000a031916815260200191505b50838103825284818151815260200191508051906020019080838360005b8381101561051c578082015181840152602081019050610501565b50505050905090810190601f1680156105495780820380516001836020036101000a031916815260200191505b509850505050505050505060405180910390f35b34801561056957600080fd5b5061059e600480360381019080803573ffffffffffffffffffffffffffffffffffffffff169060200190929190505050611c29565b604051808215151515815260200191505060405180910390f35b3480156105c457600080fd5b506105e76004803603810190808035600019169060200190929190505050611c46565b60405180831515151581526020018281526020019250505060405180910390f35b34801561061457600080fd5b5061063360048036038101908080359060200190929190505050611c9d565b604051808763ffffffff1663ffffffff1681526020018663ffffffff1663ffffffff1681526020018581526020018463ffffffff1663ffffffff1681526020018060200180602001838103835285818151815260200191508051906020019060200280838360005b838110156106b657808201518184015260208101905061069b565b50505050905001838103825284818151815260200191508051906020019060200280838360005b838110156106f85780820151818401526020810190506106dd565b505050509050019850505050505050505060405180910390f35b34801561071e57600080fd5b50610727611e53565b6040518082815260200191505060405180910390f35b34801561074957600080fd5b50610752611e59565b005b34801561076057600080fd5b506107696120d8565b6040518082815260200191505060405180910390f35b34801561078b57600080fd5b506107c0600480360381019080803573ffffffffffffffffffffffffffffffffffffffff1690602001909291905050506120e5565b005b3480156107ce57600080fd5b506107f16004803603810190808035600019169060200190929190505050612105565b6040518082815260200191505060405180910390f35b34801561081357600080fd5b5061081c612169565b604051808273ffffffffffffffffffffffffffffffffffffffff1673ffffffffffffffffffffffffffffffffffffffff16815260200191505060405180910390f35b34801561086a57600080fd5b50610873612193565b604051808273ffffffffffffffffffffffffffffffffffffffff1673ffffffffffffffffffffffffffffffffffffffff16815260200191505060405180910390f35b3480156108c157600080fd5b506108ca6121b9565b6040518082815260200191505060405180910390f35b3480156108ec57600080fd5b506108f56121bf565b6040518080602001828103825283818151815260200191508051906020019060200280838360005b8381101561093857808201518184015260208101905061091d565b505050509050019250505060405180910390f35b34801561095857600080fd5b506109616122c5565b604051808273ffffffffffffffffffffffffffffffffffffffff1673ffffffffffffffffffffffffffffffffffffffff16815260200191505060405180910390f35b3480156109af57600080fd5b506109b86122eb565b604051808215151515815260200191505060405180910390f35b3480156109de57600080fd5b50610a17600480360381019080803560001916906020019092919080351515906020019092919080359060200190929190505050612300565b005b348015610a2557600080fd5b50610a5a600480360381019080803573ffffffffffffffffffffffffffffffffffffffff1690602001909291905050506124ca565b005b348015610a6857600080fd5b50610a716124ea565b6040518082815260200191505060405180910390f35b348015610a9357600080fd5b50610a9c6124f7565b604051808273ffffffffffffffffffffffffffffffffffffffff1673ffffffffffffffffffffffffffffffffffffffff16815260200191505060405180910390f35b348015610aea57600080fd5b50610b096004803603810190808035906020019092919050505061251d565b604051808563ffffffff1663ffffffff1681526020018463ffffffff1663ffffffff1681526020018381526020018263ffffffff1663ffffffff16815260200194505050505060405180910390f35b348015610b6457600080fd5b50610b6d61258c565b6040518082815260200191505060405180910390f35b348015610b8f57600080fd5b50610bbc600480360381019080803560001916906020019092919080359060200190929190505050612592565b6040518082600560200280838360005b83811015610be7578082015181840152602081019050610bcc565b5050505090500191505060405180910390f35b348015610c0657600080fd5b50610c0f6129c5565b005b348015610c1d57600080fd5b50610c266129d0565b604051808273ffffffffffffffffffffffffffffffffffffffff1673ffffffffffffffffffffffffffffffffffffffff16815260200191505060405180910390f35b348015610c7457600080fd5b50610c7d6129fa565b6040518082815260200191505060405180910390f35b348015610c9f57600080fd5b50610ca8612a00565b604051808215151515815260200191505060405180910390f35b348015610cce57600080fd5b50610cd7612a57565b604051808263ffffffff1663ffffffff16815260200191505060405180910390f35b348015610d0557600080fd5b50610d0e612aaa565b604051808273ffffffffffffffffffffffffffffffffffffffff1673ffffffffffffffffffffffffffffffffffffffff16815260200191505060405180910390f35b348015610d5c57600080fd5b50610d65612ad0565b604051808273ffffffffffffffffffffffffffffffffffffffff1673ffffffffffffffffffffffffffffffffffffffff16815260200191505060405180910390f35b348015610db357600080fd5b50610dea60048036038101908080359060200190929190803590602001909291908035600019169060200190929190505050612afa565b6040518082600260200280838360005b83811015610e15578082015181840152602081019050610dfa565b5050505090500191505060405180910390f35b348015610e3457600080fd5b50610e3d612c9c565b005b348015610e4b57600080fd5b50610e80600480360381019080803573ffffffffffffffffffffffffffffffffffffffff169060200190929190505050612ca7565b005b348015610e8e57600080fd5b50610f33600480360381019080803590602001908201803590602001919091929391929390803590602001908201803590602001919091929391929390803590602001908201803590602001919091929391929390803590602001908201803590602001919091929391929390803590602001908201803590602001919091929391929390803590602001908201803590602001919091929391929390505050612cc7565b005b348015610f4157600080fd5b50610f4a613177565b60405180838152602001821515151581526020019250505060405180910390f35b348015610f7757600080fd5b50610fac600480360381019080803573ffffffffffffffffffffffffffffffffffffffff169060200190929190505050613206565b604051808215151515815260200191505060405180910390f35b348015610fd257600080fd5b50610fdb613223565b60405180838152602001821515151581526020019250505060405180910390f35b34801561100857600080fd5b50611027600480360381019080803590602001909291905050506132cc565b604051808763ffffffff1663ffffffff1681526020018681526020018563ffffffff1663ffffffff1681526020018463ffffffff1663ffffffff1681526020018060200180602001838103835285818151815260200191508051906020019080838360005b838110156110a757808201518184015260208101905061108c565b50505050905090810190601f1680156110d45780820380516001836020036101000a031916815260200191505b50838103825284818151815260200191508051906020019080838360005b8381101561110d5780820151818401526020810190506110f2565b50505050905090810190601f16801561113a5780820380516001836020036101000a031916815260200191505b509850505050505050505060405180910390f35b34801561115a57600080fd5b5061117960048036038101908080359060200190929190505050613477565b005b34801561118757600080fd5b506111b4600480360381019080803560001916906020019092919080359060200190929190505050613556565b6040518082600460200280838360005b838110156111df5780820151818401526020810190506111c4565b5050505090500191505060405180910390f35b3480156111fe57600080fd5b50611207613989565b604051808273ffffffffffffffffffffffffffffffffffffffff1673ffffffffffffffffffffffffffffffffffffffff16815260200191505060405180910390f35b60006112536156f9565b61125b61571c565b60006001600460008282540192505081905550600454905061127b6122eb565b151561128657600080fd5b600e73__PaymentMethods________________________6377df08569091886040518363ffffffff167c01000000000000000000000000000000000000000000000000000000000281526004018083815260200182600019166000191681526020019250505060206040518083038186803b15801561130457600080fd5b505af4158015611318573d6000803e3d6000fd5b505050506040513d602081101561132e57600080fd5b8101908080519060200190929190505050151561134a57600080fd5b85600019166113576139af565b6000191614151561147257600073ffffffffffffffffffffffffffffffffffffffff16600860009054906101000a900473ffffffffffffffffffffffffffffffffffffffff1673ffffffffffffffffffffffffffffffffffffffff1663b12e4410886040518263ffffffff167c0100000000000000000000000000000000000000000000000000000000028152600401808260001916600019168152602001915050602060405180830381600087803b15801561141357600080fd5b505af1158015611427573d6000803e3d6000fd5b505050506040513d602081101561143d57600080fd5b810190808051906020019092919050505073ffffffffffffffffffffffffffffffffffffffff161415151561147157600080fd5b5b61147a613223565b5093506114878686612592565b92506114ba83600060058110151561149b57fe5b60200201518460016005811015156114af57fe5b602002015188612afa565b91506114c682876139d7565b61150283836011878154811015156114da57fe5b906000526020600020906005020160020160009054906101000a900463ffffffff1689613dd5565b61150d838388614117565b3373ffffffffffffffffffffffffffffffffffffffff167f347f5f0051b895093800553e6e78ef332849e2552639a4f5ffe66535788ae07884600060058110151561155457fe5b602002015185600160058110151561156857fe5b602002015186600360058110151561157c57fe5b602002015160405180848152602001838152602001828152602001935050505060405180910390a2600454811415156115b457600080fd5b505050505050565b6000600e73__PaymentMethods________________________6377df08569091846040518363ffffffff167c01000000000000000000000000000000000000000000000000000000000281526004018083815260200182600019166000191681526020019250505060206040518083038186803b15801561163c57600080fd5b505af4158015611650573d6000803e3d6000fd5b505050506040513d602081101561166657600080fd5b81019080805190602001909291905050509050919050565b600660009054906101000a900473ffffffffffffffffffffffffffffffffffffffff1681565b600080600060128054905014806116c057506116be612a00565b155b156116ca576116da565b6001905060016012805490500391505b9091565b6116e733611c29565b15156116f257600080fd5b6116fb8161463e565b50565b60008060008061170c613223565b9250925081151561171c57611876565b60118381548110151561172b57fe5b9060005260206000209060050201905073__PurchaseProcessing____________________63b8005df28683600301846004016040518463ffffffff167c010000000000000000000000000000000000000000000000000000000002815260040180848152602001806020018060200183810383528581815481526020019150805480156117d857602002820191906000526020600020905b8154815260200190600101908083116117c4575b5050838103825284818154815260200191508054801561181757602002820191906000526020600020905b815481526020019060010190808311611803575b50509550505050505060206040518083038186803b15801561183857600080fd5b505af415801561184c573d6000803e3d6000fd5b505050506040513d602081101561186257600080fd5b810190808051906020019092919050505093505b505050919050565b600360009054906101000a900473ffffffffffffffffffffffffffffffffffffffff1673ffffffffffffffffffffffffffffffffffffffff163373ffffffffffffffffffffffffffffffffffffffff161415156118da57600080fd5b600073ffffffffffffffffffffffffffffffffffffffff168173ffffffffffffffffffffffffffffffffffffffff161415151561191657600080fd5b80600360006101000a81548173ffffffffffffffffffffffffffffffffffffffff021916908373ffffffffffffffffffffffffffffffffffffffff1602179055507f4101e71e974f68df5e9730cc223280b41654676bbb052cdcc735c3337e64d2d9600360009054906101000a900473ffffffffffffffffffffffffffffffffffffffff16604051808273ffffffffffffffffffffffffffffffffffffffff1673ffffffffffffffffffffffffffffffffffffffff16815260200191505060405180910390a150565b6000806000806060806012878154811015156119f757fe5b906000526020600020906005020160000160009054906101000a900463ffffffff16601288815481101515611a2857fe5b906000526020600020906005020160010154601289815481101515611a4957fe5b906000526020600020906005020160020160009054906101000a900463ffffffff1660128a815481101515611a7a57fe5b906000526020600020906005020160020160049054906101000a900463ffffffff1660128b815481101515611aab57fe5b906000526020600020906005020160030160128c815481101515611acb57fe5b9060005260206000209060050201600401818054600181600116156101000203166002900480601f016020809104026020016040519081016040528092919081815260200182805460018160011615610100020316600290048015611b715780601f10611b4657610100808354040283529160200191611b71565b820191906000526020600020905b815481529060010190602001808311611b5457829003601f168201915b50505050509150808054600181600116156101000203166002900480601f016020809104026020016040519081016040528092919081815260200182805460018160011615610100020316600290048015611c0d5780601f10611be257610100808354040283529160200191611c0d565b820191906000526020600020905b815481529060010190602001808311611bf057829003601f168201915b5050505050905095509550955095509550955091939550919395565b6000611c3f82600061469890919063ffffffff16565b9050919050565b60008060106000846000191660001916815260200190815260200160002060000160009054906101000a900460ff166010600085600019166000191681526020019081526020016000206001015491509150915091565b600080600080606080601187815481101515611cb557fe5b906000526020600020906005020160000160009054906101000a900463ffffffff16601188815481101515611ce657fe5b906000526020600020906005020160000160049054906101000a900463ffffffff16601189815481101515611d1757fe5b90600052602060002090600502016001015460118a815481101515611d3857fe5b906000526020600020906005020160020160009054906101000a900463ffffffff1660118b815481101515611d6957fe5b906000526020600020906005020160030160118c815481101515611d8957fe5b906000526020600020906005020160040181805480602002602001604051908101604052809291908181526020018280548015611de557602002820191906000526020600020905b815481526020019060010190808311611dd1575b5050505050915080805480602002602001604051908101604052809291908181526020018280548015611e3757602002820191906000526020600020905b815481526020019060010190808311611e23575b5050505050905095509550955095509550955091939550919395565b600b5481565b6000611e6433613206565b1515611e6f57600080fd5b611e77612a00565b1515611e8257600080fd5b600560009054906101000a900473ffffffffffffffffffffffffffffffffffffffff1673ffffffffffffffffffffffffffffffffffffffff166370a08231306040518263ffffffff167c0100000000000000000000000000000000000000000000000000000000028152600401808273ffffffffffffffffffffffffffffffffffffffff1673ffffffffffffffffffffffffffffffffffffffff168152602001915050602060405180830381600087803b158015611f3f57600080fd5b505af1158015611f53573d6000803e3d6000fd5b505050506040513d6020811015611f6957600080fd5b81019080805190602001909291905050509050600560009054906101000a900473ffffffffffffffffffffffffffffffffffffffff1673ffffffffffffffffffffffffffffffffffffffff1663a9059cbb33836040518363ffffffff167c0100000000000000000000000000000000000000000000000000000000028152600401808373ffffffffffffffffffffffffffffffffffffffff1673ffffffffffffffffffffffffffffffffffffffff16815260200182815260200192505050602060405180830381600087803b15801561204157600080fd5b505af1158015612055573d6000803e3d6000fd5b505050506040513d602081101561206b57600080fd5b8101908080519060200190929190505050151561208757600080fd5b3373ffffffffffffffffffffffffffffffffffffffff167f26ffb867a6b19bc0240d4e732ed6cfb0f0b6d93143a99cfb24ba5873308861f8826040518082815260200191505060405180910390a250565b6000601280549050905090565b6120ee33611c29565b15156120f957600080fd5b6121028161472c565b50565b600060106000836000191660001916815260200190815260200160002060000160009054906101000a900460ff161561215e57601060008360001916600019168152602001908152602001600020600101549050612164565b600a5490505b919050565b6000600560009054906101000a900473ffffffffffffffffffffffffffffffffffffffff16905090565b600860009054906101000a900473ffffffffffffffffffffffffffffffffffffffff1681565b60025481565b6060600e73__PaymentMethods________________________633b3d1a2290916040518263ffffffff167c01000000000000000000000000000000000000000000000000000000000281526004018082815260200191505060006040518083038186803b15801561222f57600080fd5b505af4158015612243573d6000803e3d6000fd5b505050506040513d6000823e3d601f19601f82011682018060405250602081101561226d57600080fd5b81019080805164010000000081111561228557600080fd5b8281019050602081018481111561229b57600080fd5b81518560208202830111640100000000821117156122b857600080fd5b5050929190505050905090565b600c60009054906101000a900473ffffffffffffffffffffffffffffffffffffffff1681565b6000806122f6613223565b9150508091505090565b61230933611c29565b151561231457600080fd5b8073__Percent_______________________________63520b006690916040518263ffffffff167c01000000000000000000000000000000000000000000000000000000000281526004018082815260200191505060206040518083038186803b15801561238157600080fd5b505af4158015612395573d6000803e3d6000fd5b505050506040513d60208110156123ab57600080fd5b81019080805190602001909291905050508015612461575073__Percent_______________________________63d49d51816040518163ffffffff167c010000000000000000000000000000000000000000000000000000000002815260040160206040518083038186803b15801561242357600080fd5b505af4158015612437573d6000803e3d6000fd5b505050506040513d602081101561244d57600080fd5b810190808051906020019092919050505081105b151561246c57600080fd5b8160106000856000191660001916815260200190815260200160002060000160006101000a81548160ff0219169083151502179055508060106000856000191660001916815260200190815260200160002060010181905550505050565b6124d333611c29565b15156124de57600080fd5b6124e781614786565b50565b6000601180549050905090565b600d60009054906101000a900473ffffffffffffffffffffffffffffffffffffffff1681565b60118181548110151561252c57fe5b90600052602060002090600502016000915090508060000160009054906101000a900463ffffffff16908060000160049054906101000a900463ffffffff16908060010154908060020160009054906101000a900463ffffffff16905084565b600a5481565b61259a6156f9565b6000806125a56156f9565b600e73__PaymentMethods________________________6377df08569091886040518363ffffffff167c01000000000000000000000000000000000000000000000000000000000281526004018083815260200182600019166000191681526020019250505060206040518083038186803b15801561262357600080fd5b505af4158015612637573d6000803e3d6000fd5b505050506040513d602081101561264d57600080fd5b8101908080519060200190929190505050151561266957600080fd5b612671613223565b92509250811515612681576129bc565b856000191661268e6139af565b6000191614151561277957600860009054906101000a900473ffffffffffffffffffffffffffffffffffffffff1673ffffffffffffffffffffffffffffffffffffffff1663cfec719f876040518263ffffffff167c0100000000000000000000000000000000000000000000000000000000028152600401808260001916600019168152602001915050602060405180830381600087803b15801561273257600080fd5b505af1158015612746573d6000803e3d6000fd5b505050506040513d602081101561275c57600080fd5b81019080805190602001909291905050501515612778576129bc565b5b612782866147e0565b905073__PurchaseProcessing____________________6391bfca3187876011878154811015156127af57fe5b9060005260206000209060050201600101546011888154811015156127d057fe5b90600052602060002090600502016003016011898154811015156127f057fe5b906000526020600020906005020160040187600060058110151561281057fe5b602002015188600160058110151561282457fe5b602002015189600260058110151561283857fe5b60200201518a600360058110151561284c57fe5b60200201518b600460058110151561286057fe5b60200201516040518b63ffffffff167c0100000000000000000000000000000000000000000000000000000000028152600401808b600019166000191681526020018a8152602001898152602001806020018060200188815260200187815260200186815260200185815260200184815260200183810383528a818154815260200191508054801561291157602002820191906000526020600020905b8154815260200190600101908083116128fd575b5050838103825289818154815260200191508054801561295057602002820191906000526020600020905b81548152602001906001019080831161293c575b50509c5050505050505050505050505060a06040518083038186803b15801561297857600080fd5b505af415801561298c573d6000803e3d6000fd5b505050506040513d601f19601f8201168201806040525060a08110156129b157600080fd5b810190809190505093505b50505092915050565b6129ce3361463e565b565b6000600760009054906101000a900473ffffffffffffffffffffffffffffffffffffffff16905090565b60095481565b6000806011805490501480612a525750426011600160118054905003815481101515612a2857fe5b906000526020600020906005020160000160049054906101000a900463ffffffff1663ffffffff16105b905090565b600080601180549050111515612a6c57600080fd5b6011600160118054905003815481101515612a8357fe5b906000526020600020906005020160000160049054906101000a900463ffffffff16905090565b600760009054906101000a900473ffffffffffffffffffffffffffffffffffffffff1681565b6000600360009054906101000a900473ffffffffffffffffffffffffffffffffffffffff16905090565b612b0261571c565b600e73__PaymentMethods________________________6377df08569091846040518363ffffffff167c01000000000000000000000000000000000000000000000000000000000281526004018083815260200182600019166000191681526020019250505060206040518083038186803b158015612b8057600080fd5b505af4158015612b94573d6000803e3d6000fd5b505050506040513d6020811015612baa57600080fd5b81019080805190602001909291905050501515612bc657600080fd5b73__PurchaseProcessing____________________636cd5c0568585600b54612bee87612105565b6040518563ffffffff167c010000000000000000000000000000000000000000000000000000000002815260040180858152602001848152602001838152602001828152602001945050505050604080518083038186803b158015612c5257600080fd5b505af4158015612c66573d6000803e3d6000fd5b505050506040513d601f19601f820116820180604052506040811015612c8b57600080fd5b810190809190505090509392505050565b612ca533614c8b565b565b612cb033611c29565b1515612cbb57600080fd5b612cc481614c8b565b50565b6000612cd233613206565b1515612cdd57600080fd5b60006011805490501115612d31574260116000815481101515612cfc57fe5b906000526020600020906005020160000160009054906101000a900463ffffffff1663ffffffff16111515612d3057600080fd5b5b60008d8d905014151515612d4457600080fd5b7fffffffffffffffffffffffffffffffffffffffffffffffffffffffffffffffff60ff168d8d905011151515612d7957600080fd5b7fffffffffffffffffffffffffffffffffffffffffffffffffffffffffffffffff60ff168989905011151515612dae57600080fd5b600287879050811515612dbd57fe5b0489899050141515612dce57600080fd5b600285859050811515612ddd57fe5b048989905011151515612def57600080fd5b60008383905014151515612e0257600080fd5b600090505b82829050811015612f1657600860009054906101000a900473ffffffffffffffffffffffffffffffffffffffff1673ffffffffffffffffffffffffffffffffffffffff16637d20abf88484848181101515612e5e57fe5b90506020020135600019166040518263ffffffff167c0100000000000000000000000000000000000000000000000000000000028152600401808260001916600019168152602001915050602060405180830381600087803b158015612ec357600080fd5b505af1158015612ed7573d6000803e3d6000fd5b505050506040513d6020811015612eed57600080fd5b81019080805190602001909291905050501515612f0957600080fd5b8080600101915050612e07565b612fba8d8d808060200260200160405190810160405280939291908181526020016000905b82821015612f8057848483905060c002016006806020026040519081016040528092919082600660200280828437820191505050505081526020019060010190612f3b565b50505050508c8c80806020026020016040519081016040528093929190818152602001838360200280828437820191505050505050614ce5565b6130918989808060200260200160405190810160405280939291908181526020016000905b82821015613024578484839050608002016004806020026040519081016040528092919082600460200280828437820191505050505081526020019060010190612fdf565b505050505088888080602002602001604051908101604052809392919081815260200183836020028082843782019150505050505087878080601f016020809104026020016040519081016040528093929190818152602001838380828437820191505050505050614e57565b600e73__PaymentMethods________________________63f24950e2909185856040518463ffffffff167c010000000000000000000000000000000000000000000000000000000002815260040180848152602001806020018281038252848482818152602001925060200280828437820191505094505050505060006040518083038186803b15801561312457600080fd5b505af4158015613138573d6000803e3d6000fd5b505050507f072792b04aecd99b2250bc76fb25f9bca793c3b7383cb4c7255a7a01e8f5a12e60405160405180910390a150505050505050505050505050565b600080600060128054905014806131935750613191612a00565b155b1561319d57613202565b600190505b600160128054905003821080156131ef57506012828154811015156131c357fe5b906000526020600020906005020160020160049054906101000a900463ffffffff1663ffffffff164210155b156132015781806001019250506131a2565b5b9091565b600061321c82600161469890919063ffffffff16565b9050919050565b600080600080600091505b6011805490508210156132bb5760118281548110151561324a57fe5b90600052602060002090600502019050428160000160009054906101000a900463ffffffff1663ffffffff161115801561329d5750428160000160049054906101000a900463ffffffff1663ffffffff16115b156132ae57816001935093506132c6565b818060010192505061322e565b600080819150935093505b50509091565b6012818154811015156132db57fe5b90600052602060002090600502016000915090508060000160009054906101000a900463ffffffff16908060010154908060020160009054906101000a900463ffffffff16908060020160049054906101000a900463ffffffff1690806003018054600181600116156101000203166002900480601f0160208091040260200160405190810160405280929190818152602001828054600181600116156101000203166002900480156133cf5780601f106133a4576101008083540402835291602001916133cf565b820191906000526020600020905b8154815290600101906020018083116133b257829003601f168201915b505050505090806004018054600181600116156101000203166002900480601f01602080910402602001604051908101604052809291908181526020018280546001816001161561010002031660029004801561346d5780601f106134425761010080835404028352916020019161346d565b820191906000526020600020905b81548152906001019060200180831161345057829003601f168201915b5050505050905086565b600360009054906101000a900473ffffffffffffffffffffffffffffffffffffffff1673ffffffffffffffffffffffffffffffffffffffff163373ffffffffffffffffffffffffffffffffffffffff161415156134d357600080fd5b600060118054905011156135275742601160008154811015156134f257fe5b906000526020600020906005020160000160009054906101000a900463ffffffff1663ffffffff1611151561352657600080fd5b5b61355381600c60009054906101000a900473ffffffffffffffffffffffffffffffffffffffff16615037565b50565b61355e61573e565b6000806135696156f9565b600e73__PaymentMethods________________________6377df08569091886040518363ffffffff167c01000000000000000000000000000000000000000000000000000000000281526004018083815260200182600019166000191681526020019250505060206040518083038186803b1580156135e757600080fd5b505af41580156135fb573d6000803e3d6000fd5b505050506040513d602081101561361157600080fd5b8101908080519060200190929190505050151561362d57600080fd5b613635613223565b9250925081151561364557613980565b85600019166136526139af565b6000191614151561373d57600860009054906101000a900473ffffffffffffffffffffffffffffffffffffffff1673ffffffffffffffffffffffffffffffffffffffff1663cfec719f876040518263ffffffff167c0100000000000000000000000000000000000000000000000000000000028152600401808260001916600019168152602001915050602060405180830381600087803b1580156136f657600080fd5b505af115801561370a573d6000803e3d6000fd5b505050506040513d602081101561372057600080fd5b8101908080519060200190929190505050151561373c57613980565b5b613746866150ce565b905073__PurchaseProcessing____________________6391dab422878760118781548110151561377357fe5b90600052602060002090600502016001015460118881548110151561379457fe5b90600052602060002090600502016003016011898154811015156137b457fe5b90600052602060002090600502016004018760006005811015156137d457fe5b60200201518860016005811015156137e857fe5b60200201518960026005811015156137fc57fe5b60200201518a600360058110151561381057fe5b60200201518b600460058110151561382457fe5b60200201516040518b63ffffffff167c0100000000000000000000000000000000000000000000000000000000028152600401808b600019166000191681526020018a8152602001898152602001806020018060200188815260200187815260200186815260200185815260200184815260200183810383528a81815481526020019150805480156138d557602002820191906000526020600020905b8154815260200190600101908083116138c1575b5050838103825289818154815260200191508054801561391457602002820191906000526020600020905b815481526020019060010190808311613900575b50509c5050505050505050505050505060806040518083038186803b15801561393c57600080fd5b505af4158015613950573d6000803e3d6000fd5b505050506040513d601f19601f82011682018060405250608081101561397557600080fd5b810190809190505093505b50505092915050565b600560009054906101000a900473ffffffffffffffffffffffffffffffffffffffff1681565b60007f4554480000000000000000000000000000000000000000000000000000000000905090565b73__PurchaseProcessing____________________633676737c8383600860009054906101000a900473ffffffffffffffffffffffffffffffffffffffff1673ffffffffffffffffffffffffffffffffffffffff1663cfec719f866040518263ffffffff167c0100000000000000000000000000000000000000000000000000000000028152600401808260001916600019168152602001915050602060405180830381600087803b158015613a8c57600080fd5b505af1158015613aa0573d6000803e3d6000fd5b505050506040513d6020811015613ab657600080fd5b8101908080519060200190929190505050613ad2576000613ba7565b600860009054906101000a900473ffffffffffffffffffffffffffffffffffffffff1673ffffffffffffffffffffffffffffffffffffffff1663b12e4410866040518263ffffffff167c0100000000000000000000000000000000000000000000000000000000028152600401808260001916600019168152602001915050602060405180830381600087803b158015613b6b57600080fd5b505af1158015613b7f573d6000803e3d6000fd5b505050506040513d6020811015613b9557600080fd5b81019080805190602001909291905050505b600560009054906101000a900473ffffffffffffffffffffffffffffffffffffffff16600660009054906101000a900473ffffffffffffffffffffffffffffffffffffffff16600d60009054906101000a900473ffffffffffffffffffffffffffffffffffffffff16600c60009054906101000a900473ffffffffffffffffffffffffffffffffffffffff166040518863ffffffff167c01000000000000000000000000000000000000000000000000000000000281526004018088600260200280838360005b83811015613c89578082015181840152602081019050613c6e565b5050505090500187600019166000191681526020018673ffffffffffffffffffffffffffffffffffffffff1673ffffffffffffffffffffffffffffffffffffffff1681526020018573ffffffffffffffffffffffffffffffffffffffff1673ffffffffffffffffffffffffffffffffffffffff1681526020018473ffffffffffffffffffffffffffffffffffffffff1673ffffffffffffffffffffffffffffffffffffffff1681526020018373ffffffffffffffffffffffffffffffffffffffff1673ffffffffffffffffffffffffffffffffffffffff1681526020018273ffffffffffffffffffffffffffffffffffffffff1673ffffffffffffffffffffffffffffffffffffffff16815260200197505050505050505060006040518083038186803b158015613db957600080fd5b505af4158015613dcd573d6000803e3d6000fd5b505050505050565b73__PurchaseProcessing____________________634bb1e9ff85858585600860009054906101000a900473ffffffffffffffffffffffffffffffffffffffff1673ffffffffffffffffffffffffffffffffffffffff1663cfec719f886040518263ffffffff167c0100000000000000000000000000000000000000000000000000000000028152600401808260001916600019168152602001915050602060405180830381600087803b158015613e8c57600080fd5b505af1158015613ea0573d6000803e3d6000fd5b505050506040513d6020811015613eb657600080fd5b8101908080519060200190929190505050613ed2576000613fa7565b600860009054906101000a900473ffffffffffffffffffffffffffffffffffffffff1673ffffffffffffffffffffffffffffffffffffffff1663b12e4410886040518263ffffffff167c0100000000000000000000000000000000000000000000000000000000028152600401808260001916600019168152602001915050602060405180830381600087803b158015613f6b57600080fd5b505af1158015613f7f573d6000803e3d6000fd5b505050506040513d6020811015613f9557600080fd5b81019080805190602001909291905050505b600560009054906101000a900473ffffffffffffffffffffffffffffffffffffffff166040518763ffffffff167c01000000000000000000000000000000000000000000000000000000000281526004018087600560200280838360005b83811015614020578082015181840152602081019050614005565b5050505090500186600260200280838360005b8381101561404e578082015181840152602081019050614033565b505050509050018563ffffffff1663ffffffff16815260200184600019166000191681526020018373ffffffffffffffffffffffffffffffffffffffff1673ffffffffffffffffffffffffffffffffffffffff1681526020018273ffffffffffffffffffffffffffffffffffffffff1673ffffffffffffffffffffffffffffffffffffffff168152602001965050505050505060006040518083038186803b1580156140f957600080fd5b505af415801561410d573d6000803e3d6000fd5b5050505050505050565b61411f6139af565b60001916816000191614156142c757600760009054906101000a900473ffffffffffffffffffffffffffffffffffffffff1673ffffffffffffffffffffffffffffffffffffffff1663d0baf2f56141a584600160028110151561417e57fe5b602002015186600160058110151561419257fe5b602002015161557990919063ffffffff16565b338660006005811015156141b557fe5b6020020151856141f48860016002811015156141cd57fe5b60200201518a60016005811015156141e157fe5b602002015161557990919063ffffffff16565b89600260058110151561420357fe5b60200201516040518763ffffffff167c0100000000000000000000000000000000000000000000000000000000028152600401808673ffffffffffffffffffffffffffffffffffffffff1673ffffffffffffffffffffffffffffffffffffffff1681526020018581526020018460001916600019168152602001838152602001828152602001955050505050506000604051808303818588803b1580156142a957600080fd5b505af11580156142bd573d6000803e3d6000fd5b5050505050614639565b600860009054906101000a900473ffffffffffffffffffffffffffffffffffffffff1673ffffffffffffffffffffffffffffffffffffffff1663b12e4410826040518263ffffffff167c0100000000000000000000000000000000000000000000000000000000028152600401808260001916600019168152602001915050602060405180830381600087803b15801561436057600080fd5b505af1158015614374573d6000803e3d6000fd5b505050506040513d602081101561438a57600080fd5b810190808051906020019092919050505073ffffffffffffffffffffffffffffffffffffffff1663a9059cbb600760009054906101000a900473ffffffffffffffffffffffffffffffffffffffff166144128560016002811015156143eb57fe5b60200201518760016005811015156143ff57fe5b602002015161557990919063ffffffff16565b6040518363ffffffff167c0100000000000000000000000000000000000000000000000000000000028152600401808373ffffffffffffffffffffffffffffffffffffffff1673ffffffffffffffffffffffffffffffffffffffff16815260200182815260200192505050602060405180830381600087803b15801561449757600080fd5b505af11580156144ab573d6000803e3d6000fd5b505050506040513d60208110156144c157600080fd5b810190808051906020019092919050505015156144dd57600080fd5b600760009054906101000a900473ffffffffffffffffffffffffffffffffffffffff1673ffffffffffffffffffffffffffffffffffffffff1663d0baf2f53385600060058110151561452b57fe5b60200201518461456a87600160028110151561454357fe5b602002015189600160058110151561455757fe5b602002015161557990919063ffffffff16565b88600260058110151561457957fe5b60200201516040518663ffffffff167c0100000000000000000000000000000000000000000000000000000000028152600401808673ffffffffffffffffffffffffffffffffffffffff1673ffffffffffffffffffffffffffffffffffffffff168152602001858152602001846000191660001916815260200183815260200182815260200195505050505050600060405180830381600087803b15801561462057600080fd5b505af1158015614634573d6000803e3d6000fd5b505050505b505050565b61465281600061559a90919063ffffffff16565b8073ffffffffffffffffffffffffffffffffffffffff167fa3b62bc36326052d97ea62d63c3d60308ed4c3ea8ac079dd8499f1e9c4f80c0f60405160405180910390a250565b60008073ffffffffffffffffffffffffffffffffffffffff168273ffffffffffffffffffffffffffffffffffffffff16141515156146d557600080fd5b8260000160008373ffffffffffffffffffffffffffffffffffffffff1673ffffffffffffffffffffffffffffffffffffffff16815260200190815260200160002060009054906101000a900460ff16905092915050565b61474081600161564990919063ffffffff16565b8073ffffffffffffffffffffffffffffffffffffffff167f941e31c3e651de34a7fcf0132d9d02c2df9377e6b5f932bec5daf6353c94f90e60405160405180910390a250565b61479a81600061564990919063ffffffff16565b8073ffffffffffffffffffffffffffffffffffffffff167f44d6d25963f097ad14f29f06854a01f575648a1ef82f30e562ccd3889717e33960405160405180910390a250565b6147e86156f9565b600860009054906101000a900473ffffffffffffffffffffffffffffffffffffffff1673ffffffffffffffffffffffffffffffffffffffff16638eaa6ac0836040518263ffffffff167c0100000000000000000000000000000000000000000000000000000000028152600401808260001916600019168152602001915050602060405180830381600087803b15801561488157600080fd5b505af1158015614895573d6000803e3d6000fd5b505050506040513d60208110156148ab57600080fd5b81019080805190602001909291905050508160006005811015156148cb57fe5b6020020181815250506009548160016005811015156148e657fe5b602002018181525050600560009054906101000a900473ffffffffffffffffffffffffffffffffffffffff1673ffffffffffffffffffffffffffffffffffffffff1663313ce5676040518163ffffffff167c0100000000000000000000000000000000000000000000000000000000028152600401602060405180830381600087803b15801561497557600080fd5b505af1158015614989573d6000803e3d6000fd5b505050506040513d602081101561499f57600080fd5b810190808051906020019092919050505060ff168160026005811015156149c257fe5b60200201818152505081600019166149d86139af565b6000191614614b5b57600860009054906101000a900473ffffffffffffffffffffffffffffffffffffffff1673ffffffffffffffffffffffffffffffffffffffff1663b12e4410836040518263ffffffff167c0100000000000000000000000000000000000000000000000000000000028152600401808260001916600019168152602001915050602060405180830381600087803b158015614a7a57600080fd5b505af1158015614a8e573d6000803e3d6000fd5b505050506040513d6020811015614aa457600080fd5b810190808051906020019092919050505073ffffffffffffffffffffffffffffffffffffffff1663313ce5676040518163ffffffff167c0100000000000000000000000000000000000000000000000000000000028152600401602060405180830381600087803b158015614b1857600080fd5b505af1158015614b2c573d6000803e3d6000fd5b505050506040513d6020811015614b4257600080fd5b810190808051906020019092919050505060ff16614b5e565b60125b816003600581101515614b6d57fe5b602002018181525050600560009054906101000a900473ffffffffffffffffffffffffffffffffffffffff1673ffffffffffffffffffffffffffffffffffffffff166370a08231306040518263ffffffff167c0100000000000000000000000000000000000000000000000000000000028152600401808273ffffffffffffffffffffffffffffffffffffffff1673ffffffffffffffffffffffffffffffffffffffff168152602001915050602060405180830381600087803b158015614c3357600080fd5b505af1158015614c47573d6000803e3d6000fd5b505050506040513d6020811015614c5d57600080fd5b8101908080519060200190929190505050816004600581101515614c7d57fe5b602002018181525050919050565b614c9f81600161559a90919063ffffffff16565b8073ffffffffffffffffffffffffffffffffffffffff167fa3bfdef3d8149bacf15b7b64199fca8228c0fd4f8fcdd11cc7871829baf319c360405160405180910390a250565b73__Crowdsale_____________________________63ae1c60546011601285856040518563ffffffff167c01000000000000000000000000000000000000000000000000000000000281526004018085815260200184815260200180602001806020018381038352858181518152602001915080516000925b81841015614da957828490602001906020020151600660200280838360005b83811015614d98578082015181840152602081019050614d7d565b505050509050019260010192614d5e565b92505050838103825284818151815260200191508051906020019060200280838360005b83811015614de8578082015181840152602081019050614dcd565b50505050905001965050505050505060006040518083038186803b158015614e0f57600080fd5b505af4158015614e23573d6000803e3d6000fd5b505050507f743961f4e677d1146fbf85d75565b1c5474fd083eb166f8b9595cf5d01a4d6e660405160405180910390a15050565b73__Crowdsale_____________________________63e1231f1e601160128686866040518663ffffffff167c0100000000000000000000000000000000000000000000000000000000028152600401808681526020018581526020018060200180602001806020018481038452878181518152602001915080516000925b81841015614f2057828490602001906020020151600460200280838360005b83811015614f0f578082015181840152602081019050614ef4565b505050509050019260010192614ed5565b92505050848103835286818151815260200191508051906020019060200280838360005b83811015614f5f578082015181840152602081019050614f44565b50505050905001848103825285818151815260200191508051906020019080838360005b83811015614f9e578082015181840152602081019050614f83565b50505050905090810190601f168015614fcb5780820380516001836020036101000a031916815260200191505b509850505050505050505060006040518083038186803b158015614fee57600080fd5b505af4158015615002573d6000803e3d6000fd5b505050507f56d9a2e016027a3725bf162ef2779c8b28d4dbec97c679cfba02dbb31a34c7ca60405160405180910390a1505050565b60008211151561504657600080fd5b600073ffffffffffffffffffffffffffffffffffffffff168173ffffffffffffffffffffffffffffffffffffffff161415151561508257600080fd5b8160098190555080600c60006101000a81548173ffffffffffffffffffffffffffffffffffffffff021916908373ffffffffffffffffffffffffffffffffffffffff1602179055505050565b6150d66156f9565b600860009054906101000a900473ffffffffffffffffffffffffffffffffffffffff1673ffffffffffffffffffffffffffffffffffffffff16638eaa6ac0836040518263ffffffff167c0100000000000000000000000000000000000000000000000000000000028152600401808260001916600019168152602001915050602060405180830381600087803b15801561516f57600080fd5b505af1158015615183573d6000803e3d6000fd5b505050506040513d602081101561519957600080fd5b81019080805190602001909291905050508160006005811015156151b957fe5b6020020181815250506009548160016005811015156151d457fe5b602002018181525050600560009054906101000a900473ffffffffffffffffffffffffffffffffffffffff1673ffffffffffffffffffffffffffffffffffffffff1663313ce5676040518163ffffffff167c0100000000000000000000000000000000000000000000000000000000028152600401602060405180830381600087803b15801561526357600080fd5b505af1158015615277573d6000803e3d6000fd5b505050506040513d602081101561528d57600080fd5b810190808051906020019092919050505060ff168160026005811015156152b057fe5b60200201818152505081600019166152c66139af565b600019161461544957600860009054906101000a900473ffffffffffffffffffffffffffffffffffffffff1673ffffffffffffffffffffffffffffffffffffffff1663b12e4410836040518263ffffffff167c0100000000000000000000000000000000000000000000000000000000028152600401808260001916600019168152602001915050602060405180830381600087803b15801561536857600080fd5b505af115801561537c573d6000803e3d6000fd5b505050506040513d602081101561539257600080fd5b810190808051906020019092919050505073ffffffffffffffffffffffffffffffffffffffff1663313ce5676040518163ffffffff167c0100000000000000000000000000000000000000000000000000000000028152600401602060405180830381600087803b15801561540657600080fd5b505af115801561541a573d6000803e3d6000fd5b505050506040513d602081101561543057600080fd5b810190808051906020019092919050505060ff1661544c565b60125b81600360058110151561545b57fe5b602002018181525050600560009054906101000a900473ffffffffffffffffffffffffffffffffffffffff1673ffffffffffffffffffffffffffffffffffffffff166370a08231306040518263ffffffff167c0100000000000000000000000000000000000000000000000000000000028152600401808273ffffffffffffffffffffffffffffffffffffffff1673ffffffffffffffffffffffffffffffffffffffff168152602001915050602060405180830381600087803b15801561552157600080fd5b505af1158015615535573d6000803e3d6000fd5b505050506040513d602081101561554b57600080fd5b810190808051906020019092919050505081600460058110151561556b57fe5b602002018181525050919050565b60008083831115151561558b57600080fd5b82840390508091505092915050565b600073ffffffffffffffffffffffffffffffffffffffff168173ffffffffffffffffffffffffffffffffffffffff16141515156155d657600080fd5b6155e08282614698565b15156155eb57600080fd5b60008260000160008373ffffffffffffffffffffffffffffffffffffffff1673ffffffffffffffffffffffffffffffffffffffff16815260200190815260200160002060006101000a81548160ff0219169083151502179055505050565b600073ffffffffffffffffffffffffffffffffffffffff168173ffffffffffffffffffffffffffffffffffffffff161415151561568557600080fd5b61568f8282614698565b15151561569b57600080fd5b60018260000160008373ffffffffffffffffffffffffffffffffffffffff1673ffffffffffffffffffffffffffffffffffffffff16815260200190815260200160002060006101000a81548160ff0219169083151502179055505050565b60a060405190810160405280600590602082028038833980820191505090505090565b6040805190810160405280600290602082028038833980820191505090505090565b6080604051908101604052806004906020820280388339808201915050905050905600a165627a7a723058203ebab3a6660eedad46bccba736df754ce4398362e9e341316e08e8dbbcfe7d370029a165627a7a72305820b6c2a6c74c131d4473d278992694071291adb437dca62e7c0da0a207b5f516bc0029",
  "source": "pragma solidity 0.4.24;\n\nimport \"./IW12CrowdsaleFactory.sol\";\nimport \"./IW12FundFactory.sol\";\nimport \"../../rates/IRates.sol\";\nimport \"../../versioning/Versionable.sol\";\nimport \"../W12Crowdsale.sol\";\n\n\ncontract W12CrowdsaleFactory is Versionable, IW12CrowdsaleFactory {\n    IW12FundFactory private fundFactory;\n    IRates private rates;\n\n    event CrowdsaleCreated(address indexed token, address crowdsaleAddress, address fundAddress);\n\n    constructor(uint version, IW12FundFactory _fundFactory, IRates _rates) Versionable(version) public {\n        require(_fundFactory != address(0));\n        require(_rates != address(0));\n\n        fundFactory = _fundFactory;\n        rates = _rates;\n    }\n\n    function createCrowdsale(\n        address tokenAddress,\n        address wTokenAddress,\n        uint price,\n        address serviceWallet,\n        uint serviceFee,\n        uint WTokenSaleFeePercent,\n        uint trancheFeePercent,\n        address swap,\n        address[] owners\n    )\n        external returns (IW12Crowdsale result)\n    {\n        IW12Fund fund = fundFactory.createFund(swap, serviceWallet, trancheFeePercent);\n\n        result = new W12Crowdsale(\n            version,\n            tokenAddress,\n            wTokenAddress,\n            price,\n            serviceWallet,\n            swap,\n            serviceFee,\n            WTokenSaleFeePercent,\n            fund,\n            rates\n        );\n\n        fund.setCrowdsale(result);\n        // make crowdsale a admin\n        fund.addAdmin(address(result));\n\n        // give the project owner role to addresses from owners list\n        for(uint i = 0; i < owners.length; i++) {\n            require(owners[i] != address(0));\n\n            result.addProjectOwner(owners[i]);\n            fund.addProjectOwner(owners[i]);\n        }\n\n        // transfer all permissions to sender\n        fund.addAdmin(msg.sender);\n        fund.transferPrimary(msg.sender);\n        fund.renounceAdmin();\n        fund.renounceProjectOwner();\n\n        // transfer all permissions to sender\n        result.addAdmin(msg.sender);\n        result.transferPrimary(msg.sender);\n        result.renounceAdmin();\n        result.renounceProjectOwner();\n\n        emit CrowdsaleCreated(wTokenAddress, address(result), address(fund));\n    }\n}\n",
  "sourcePath": "/Users/gauss/_games/w12/W12-Product-Blockchain-Protocol/contracts/crowdsale/factories/W12CrowdsaleFactory.sol",
  "compiler": {
    "name": "solc",
    "version": "0.4.24+commit.e67f0147.Emscripten.clang"
  },
  "schemaVersion": "3.0.10",
  "updatedAt": "2019-06-17T16:23:09.106Z",
  "devdoc": {
    "methods": {}
  },
  "userdoc": {
    "methods": {}
  }
}