{
  "contractName": "W12Crowdsale",
  "abi": [
    {
      "constant": true,
      "inputs": [],
      "name": "originToken",
      "outputs": [
        {
          "name": "",
          "type": "address"
        }
      ],
      "payable": false,
      "stateMutability": "view",
      "type": "function"
    },
    {
      "constant": false,
      "inputs": [
        {
          "name": "recipient",
          "type": "address"
        }
      ],
      "name": "transferPrimary",
      "outputs": [],
      "payable": false,
      "stateMutability": "nonpayable",
      "type": "function"
    },
    {
      "constant": true,
      "inputs": [
        {
          "name": "account",
          "type": "address"
        }
      ],
      "name": "isAdmin",
      "outputs": [
        {
          "name": "",
          "type": "bool"
        }
      ],
      "payable": false,
      "stateMutability": "view",
      "type": "function"
    },
    {
      "constant": true,
      "inputs": [],
      "name": "WTokenSaleFeePercent",
      "outputs": [
        {
          "name": "",
          "type": "uint256"
        }
      ],
      "payable": false,
      "stateMutability": "view",
      "type": "function"
    },
    {
      "constant": true,
      "inputs": [],
      "name": "rates",
      "outputs": [
        {
          "name": "",
          "type": "address"
        }
      ],
      "payable": false,
      "stateMutability": "view",
      "type": "function"
    },
    {
      "constant": true,
      "inputs": [],
      "name": "version",
      "outputs": [
        {
          "name": "",
          "type": "uint256"
        }
      ],
      "payable": false,
      "stateMutability": "view",
      "type": "function"
    },
    {
      "constant": true,
      "inputs": [],
      "name": "serviceWallet",
      "outputs": [
        {
          "name": "",
          "type": "address"
        }
      ],
      "payable": false,
      "stateMutability": "view",
      "type": "function"
    },
    {
      "constant": true,
      "inputs": [],
      "name": "swap",
      "outputs": [
        {
          "name": "",
          "type": "address"
        }
      ],
      "payable": false,
      "stateMutability": "view",
      "type": "function"
    },
    {
      "constant": true,
      "inputs": [
        {
          "name": "",
          "type": "uint256"
        }
      ],
      "name": "stages",
      "outputs": [
        {
          "name": "startDate",
          "type": "uint32"
        },
        {
          "name": "endDate",
          "type": "uint32"
        },
        {
          "name": "discount",
          "type": "uint256"
        },
        {
          "name": "vesting",
          "type": "uint32"
        }
      ],
      "payable": false,
      "stateMutability": "view",
      "type": "function"
    },
    {
      "constant": true,
      "inputs": [],
      "name": "serviceFee",
      "outputs": [
        {
          "name": "",
          "type": "uint256"
        }
      ],
      "payable": false,
      "stateMutability": "view",
      "type": "function"
    },
    {
      "constant": false,
      "inputs": [],
      "name": "renounceAdmin",
      "outputs": [],
      "payable": false,
      "stateMutability": "nonpayable",
      "type": "function"
    },
    {
      "constant": true,
      "inputs": [],
      "name": "price",
      "outputs": [
        {
          "name": "",
          "type": "uint256"
        }
      ],
      "payable": false,
      "stateMutability": "view",
      "type": "function"
    },
    {
      "constant": true,
      "inputs": [],
      "name": "fund",
      "outputs": [
        {
          "name": "",
          "type": "address"
        }
      ],
      "payable": false,
      "stateMutability": "view",
      "type": "function"
    },
    {
      "constant": true,
      "inputs": [],
      "name": "primary",
      "outputs": [
        {
          "name": "",
          "type": "address"
        }
      ],
      "payable": false,
      "stateMutability": "view",
      "type": "function"
    },
    {
      "constant": false,
      "inputs": [],
      "name": "renounceProjectOwner",
      "outputs": [],
      "payable": false,
      "stateMutability": "nonpayable",
      "type": "function"
    },
    {
      "constant": true,
      "inputs": [
        {
          "name": "account",
          "type": "address"
        }
      ],
      "name": "isProjectOwner",
      "outputs": [
        {
          "name": "",
          "type": "bool"
        }
      ],
      "payable": false,
      "stateMutability": "view",
      "type": "function"
    },
    {
      "constant": true,
      "inputs": [
        {
          "name": "",
          "type": "uint256"
        }
      ],
      "name": "milestones",
      "outputs": [
        {
          "name": "endDate",
          "type": "uint32"
        },
        {
          "name": "tranchePercent",
          "type": "uint256"
        },
        {
          "name": "voteEndDate",
          "type": "uint32"
        },
        {
          "name": "withdrawalWindow",
          "type": "uint32"
        },
        {
          "name": "name",
          "type": "bytes"
        },
        {
          "name": "description",
          "type": "bytes"
        }
      ],
      "payable": false,
      "stateMutability": "view",
      "type": "function"
    },
    {
      "constant": true,
      "inputs": [],
      "name": "token",
      "outputs": [
        {
          "name": "",
          "type": "address"
        }
      ],
      "payable": false,
      "stateMutability": "view",
      "type": "function"
    },
    {
      "inputs": [
        {
          "name": "version",
          "type": "uint256"
        },
        {
          "name": "_originToken",
          "type": "address"
        },
        {
          "name": "_token",
          "type": "address"
        },
        {
          "name": "_price",
          "type": "uint256"
        },
        {
          "name": "_serviceWallet",
          "type": "address"
        },
        {
          "name": "_swap",
          "type": "address"
        },
        {
          "name": "_serviceFee",
          "type": "uint256"
        },
        {
          "name": "_WTokenSaleFeePercent",
          "type": "uint256"
        },
        {
          "name": "_fund",
          "type": "address"
        },
        {
          "name": "_rates",
          "type": "address"
        }
      ],
      "payable": false,
      "stateMutability": "nonpayable",
      "type": "constructor"
    },
    {
      "anonymous": false,
      "inputs": [
        {
          "indexed": true,
          "name": "buyer",
          "type": "address"
        },
        {
          "indexed": false,
          "name": "tokensBought",
          "type": "uint256"
        },
        {
          "indexed": false,
          "name": "cost",
          "type": "uint256"
        },
        {
          "indexed": false,
          "name": "change",
          "type": "uint256"
        }
      ],
      "name": "TokenPurchase",
      "type": "event"
    },
    {
      "anonymous": false,
      "inputs": [],
      "name": "StagesUpdated",
      "type": "event"
    },
    {
      "anonymous": false,
      "inputs": [
        {
          "indexed": false,
          "name": "index",
          "type": "uint256"
        }
      ],
      "name": "StageUpdated",
      "type": "event"
    },
    {
      "anonymous": false,
      "inputs": [],
      "name": "MilestonesUpdated",
      "type": "event"
    },
    {
      "anonymous": false,
      "inputs": [],
      "name": "CrowdsaleSetUpDone",
      "type": "event"
    },
    {
      "anonymous": false,
      "inputs": [
        {
          "indexed": true,
          "name": "owner",
          "type": "address"
        },
        {
          "indexed": false,
          "name": "amount",
          "type": "uint256"
        }
      ],
      "name": "UnsoldTokenReturned",
      "type": "event"
    },
    {
      "anonymous": false,
      "inputs": [
        {
          "indexed": false,
          "name": "recipient",
          "type": "address"
        }
      ],
      "name": "PrimaryTransferred",
      "type": "event"
    },
    {
      "anonymous": false,
      "inputs": [
        {
          "indexed": true,
          "name": "account",
          "type": "address"
        }
      ],
      "name": "ProjectOwnerAdded",
      "type": "event"
    },
    {
      "anonymous": false,
      "inputs": [
        {
          "indexed": true,
          "name": "account",
          "type": "address"
        }
      ],
      "name": "ProjectOwnerRemoved",
      "type": "event"
    },
    {
      "anonymous": false,
      "inputs": [
        {
          "indexed": true,
          "name": "account",
          "type": "address"
        }
      ],
      "name": "AdminAdded",
      "type": "event"
    },
    {
      "anonymous": false,
      "inputs": [
        {
          "indexed": true,
          "name": "account",
          "type": "address"
        }
      ],
      "name": "AdminRemoved",
      "type": "event"
    },
    {
      "constant": false,
      "inputs": [
        {
          "name": "_account",
          "type": "address"
        }
      ],
      "name": "addAdmin",
      "outputs": [],
      "payable": false,
      "stateMutability": "nonpayable",
      "type": "function"
    },
    {
      "constant": false,
      "inputs": [
        {
          "name": "_account",
          "type": "address"
        }
      ],
      "name": "removeAdmin",
      "outputs": [],
      "payable": false,
      "stateMutability": "nonpayable",
      "type": "function"
    },
    {
      "constant": false,
      "inputs": [
        {
          "name": "_account",
          "type": "address"
        }
      ],
      "name": "addProjectOwner",
      "outputs": [],
      "payable": false,
      "stateMutability": "nonpayable",
      "type": "function"
    },
    {
      "constant": false,
      "inputs": [
        {
          "name": "_account",
          "type": "address"
        }
      ],
      "name": "removeProjectOwner",
      "outputs": [],
      "payable": false,
      "stateMutability": "nonpayable",
      "type": "function"
    },
    {
      "constant": true,
      "inputs": [],
      "name": "stagesLength",
      "outputs": [
        {
          "name": "",
          "type": "uint256"
        }
      ],
      "payable": false,
      "stateMutability": "view",
      "type": "function"
    },
    {
      "constant": true,
      "inputs": [],
      "name": "milestonesLength",
      "outputs": [
        {
          "name": "",
          "type": "uint256"
        }
      ],
      "payable": false,
      "stateMutability": "view",
      "type": "function"
    },
    {
      "constant": true,
      "inputs": [
        {
          "name": "index",
          "type": "uint256"
        }
      ],
      "name": "getMilestone",
      "outputs": [
        {
          "name": "",
          "type": "uint32"
        },
        {
          "name": "",
          "type": "uint256"
        },
        {
          "name": "",
          "type": "uint32"
        },
        {
          "name": "",
          "type": "uint32"
        },
        {
          "name": "",
          "type": "bytes"
        },
        {
          "name": "",
          "type": "bytes"
        }
      ],
      "payable": false,
      "stateMutability": "view",
      "type": "function"
    },
    {
      "constant": true,
      "inputs": [
        {
          "name": "index",
          "type": "uint256"
        }
      ],
      "name": "getStage",
      "outputs": [
        {
          "name": "",
          "type": "uint32"
        },
        {
          "name": "",
          "type": "uint32"
        },
        {
          "name": "",
          "type": "uint256"
        },
        {
          "name": "",
          "type": "uint32"
        },
        {
          "name": "",
          "type": "uint256[]"
        },
        {
          "name": "",
          "type": "uint256[]"
        }
      ],
      "payable": false,
      "stateMutability": "view",
      "type": "function"
    },
    {
      "constant": true,
      "inputs": [],
      "name": "getEndDate",
      "outputs": [
        {
          "name": "",
          "type": "uint32"
        }
      ],
      "payable": false,
      "stateMutability": "view",
      "type": "function"
    },
    {
      "constant": true,
      "inputs": [],
      "name": "getCurrentMilestoneIndex",
      "outputs": [
        {
          "name": "index",
          "type": "uint256"
        },
        {
          "name": "found",
          "type": "bool"
        }
      ],
      "payable": false,
      "stateMutability": "view",
      "type": "function"
    },
    {
      "constant": true,
      "inputs": [],
      "name": "getLastMilestoneIndex",
      "outputs": [
        {
          "name": "index",
          "type": "uint256"
        },
        {
          "name": "found",
          "type": "bool"
        }
      ],
      "payable": false,
      "stateMutability": "view",
      "type": "function"
    },
    {
      "constant": false,
      "inputs": [
        {
          "name": "_price",
          "type": "uint256"
        }
      ],
      "name": "setParameters",
      "outputs": [],
      "payable": false,
      "stateMutability": "nonpayable",
      "type": "function"
    },
    {
      "constant": false,
      "inputs": [
        {
          "name": "parametersOfStages",
          "type": "uint256[6][]"
        },
        {
          "name": "bonusConditionsOfStages",
          "type": "uint256[]"
        },
        {
          "name": "parametersOfMilestones",
          "type": "uint256[4][]"
        },
        {
          "name": "nameAndDescriptionsOffsetOfMilestones",
          "type": "uint32[]"
        },
        {
          "name": "nameAndDescriptionsOfMilestones",
          "type": "bytes"
        },
        {
          "name": "paymentMethodsList",
          "type": "bytes32[]"
        }
      ],
      "name": "setup",
      "outputs": [],
      "payable": false,
      "stateMutability": "nonpayable",
      "type": "function"
    },
    {
      "constant": false,
      "inputs": [
        {
          "name": "method",
          "type": "bytes32"
        },
        {
          "name": "amount",
          "type": "uint256"
        }
      ],
      "name": "buyTokens",
      "outputs": [],
      "payable": true,
      "stateMutability": "payable",
      "type": "function"
    },
    {
      "constant": true,
      "inputs": [],
      "name": "getWToken",
      "outputs": [
        {
          "name": "",
          "type": "address"
        }
      ],
      "payable": false,
      "stateMutability": "view",
      "type": "function"
    },
    {
      "constant": true,
      "inputs": [],
      "name": "getFund",
      "outputs": [
        {
          "name": "",
          "type": "address"
        }
      ],
      "payable": false,
      "stateMutability": "view",
      "type": "function"
    },
    {
      "constant": true,
      "inputs": [],
      "name": "getPaymentMethodsList",
      "outputs": [
        {
          "name": "",
          "type": "bytes32[]"
        }
      ],
      "payable": false,
      "stateMutability": "view",
      "type": "function"
    },
    {
      "constant": true,
      "inputs": [
        {
          "name": "_method",
          "type": "bytes32"
        }
      ],
      "name": "isPaymentMethodAllowed",
      "outputs": [
        {
          "name": "",
          "type": "bool"
        }
      ],
      "payable": false,
      "stateMutability": "view",
      "type": "function"
    },
    {
      "constant": true,
      "inputs": [
        {
          "name": "method",
          "type": "bytes32"
        },
        {
          "name": "amount",
          "type": "uint256"
        }
      ],
      "name": "getInvoice",
      "outputs": [
        {
          "name": "",
          "type": "uint256[5]"
        }
      ],
      "payable": false,
      "stateMutability": "view",
      "type": "function"
    },
    {
      "constant": true,
      "inputs": [
        {
          "name": "method",
          "type": "bytes32"
        },
        {
          "name": "tokenAmount",
          "type": "uint256"
        }
      ],
      "name": "getInvoiceByTokenAmount",
      "outputs": [
        {
          "name": "",
          "type": "uint256[4]"
        }
      ],
      "payable": false,
      "stateMutability": "view",
      "type": "function"
    },
    {
      "constant": true,
      "inputs": [
        {
          "name": "tokenAmount",
          "type": "uint256"
        },
        {
          "name": "cost",
          "type": "uint256"
        }
      ],
      "name": "getFee",
      "outputs": [
        {
          "name": "",
          "type": "uint256[2]"
        }
      ],
      "payable": false,
      "stateMutability": "view",
      "type": "function"
    },
    {
      "constant": true,
      "inputs": [
        {
          "name": "value",
          "type": "uint256"
        }
      ],
      "name": "getSaleVolumeBonus",
      "outputs": [
        {
          "name": "bonus",
          "type": "uint256"
        }
      ],
      "payable": false,
      "stateMutability": "view",
      "type": "function"
    },
    {
      "constant": true,
      "inputs": [],
      "name": "getCurrentStageIndex",
      "outputs": [
        {
          "name": "index",
          "type": "uint256"
        },
        {
          "name": "found",
          "type": "bool"
        }
      ],
      "payable": false,
      "stateMutability": "view",
      "type": "function"
    },
    {
      "constant": false,
      "inputs": [],
      "name": "claimRemainingTokens",
      "outputs": [],
      "payable": false,
      "stateMutability": "nonpayable",
      "type": "function"
    },
    {
      "constant": true,
      "inputs": [],
      "name": "isEnded",
      "outputs": [
        {
          "name": "",
          "type": "bool"
        }
      ],
      "payable": false,
      "stateMutability": "view",
      "type": "function"
    },
    {
      "constant": true,
      "inputs": [],
      "name": "isSaleActive",
      "outputs": [
        {
          "name": "",
          "type": "bool"
        }
      ],
      "payable": false,
      "stateMutability": "view",
      "type": "function"
    }
  ],
  "bytecode": "0x60806040523480156200001157600080fd5b5060405161014080620038f183398101604090815281516020830151918301516060840151608085015160a086015160c087015160e088015161010089015161012090990151969895969495939492939192909190896200007b336401000000006200047d810204565b6200008f33640100000000620004cf810204565b60025560038054600160a060020a03191633179081905560408051600160a060020a03929092168252517f4101e71e974f68df5e9730cc223280b41654676bbb052cdcc735c3337e64d2d99181900360200190a16001600455600160a060020a0389161515620000fe57600080fd5b600160a060020a03881615156200011457600080fd5b8373__Percent_______________________________63520b006690916040518263ffffffff167c01000000000000000000000000000000000000000000000000000000000281526004018082815260200191505060206040518083038186803b1580156200018257600080fd5b505af415801562000197573d6000803e3d6000fd5b505050506040513d6020811015620001ae57600080fd5b5051801562000258575060648473__Percent_______________________________630fe9114790916040518263ffffffff167c01000000000000000000000000000000000000000000000000000000000281526004018082815260200191505060206040518083038186803b1580156200022857600080fd5b505af41580156200023d573d6000803e3d6000fd5b505050506040513d60208110156200025457600080fd5b5051105b15156200026457600080fd5b8273__Percent_______________________________63520b006690916040518263ffffffff167c01000000000000000000000000000000000000000000000000000000000281526004018082815260200191505060206040518083038186803b158015620002d257600080fd5b505af4158015620002e7573d6000803e3d6000fd5b505050506040513d6020811015620002fe57600080fd5b50518015620003a8575060648373__Percent_______________________________630fe9114790916040518263ffffffff167c01000000000000000000000000000000000000000000000000000000000281526004018082815260200191505060206040518083038186803b1580156200037857600080fd5b505af41580156200038d573d6000803e3d6000fd5b505050506040513d6020811015620003a457600080fd5b5051105b1515620003b457600080fd5b600160a060020a0382161515620003ca57600080fd5b600160a060020a0385161515620003e057600080fd5b600160a060020a0381161515620003f657600080fd5b6200040b878764010000000062000521810204565b60058054600160a060020a0319908116600160a060020a039a8b16179091556006805482169a8a169a909a17909955600a93909355600d8054891694881694909417909355600b55600780548716928616929092179091556008805490951693169290921790925550620005ff915050565b620004986000826401000000006200320f6200056c82021704565b604051600160a060020a038216907f44d6d25963f097ad14f29f06854a01f575648a1ef82f30e562ccd3889717e33990600090a250565b620004ea6001826401000000006200320f6200056c82021704565b604051600160a060020a038216907f941e31c3e651de34a7fcf0132d9d02c2df9377e6b5f932bec5daf6353c94f90e90600090a250565b600082116200052f57600080fd5b600160a060020a03811615156200054557600080fd5b600991909155600c8054600160a060020a031916600160a060020a03909216919091179055565b600160a060020a03811615156200058257600080fd5b620005978282640100000000620005c7810204565b15620005a257600080fd5b600160a060020a0316600090815260209190915260409020805460ff19166001179055565b6000600160a060020a0382161515620005df57600080fd5b50600160a060020a03166000908152602091909152604090205460ff1690565b6132e2806200060f6000396000f3006080604052600436106102005763ffffffff60e060020a60003504166307f5d633811461020557806311eb8c9f1461021557806313096a411461024157806314f66d34146102725780631785f53c146102a0578063208853c9146102c15780632348238c146102eb5780632442e1cb1461030c57806324d7806c146104425780632e325020146104635780632fbe599014610554578063313602d4146105695780633baba4d71461057e5780633bcdb164146105935780634090cb64146105b457806343f48fbd146105c957806354fd4d50146105de578063550fd742146105f35780635641f3c314610658578063564566a81461066d5780637048027514610682578063792c02ea146106a35780638119c065146106b8578063845ddcb2146106cd5780638abdf5aa146107165780638aea2af81461072b5780638bad0c0a1461077e5780638edd6eb614610793578063a035b1fe146107a8578063a4fd6f56146107bd578063b1356488146107d2578063b60d428814610800578063c6dbdf6114610815578063d0934d611461082a578063d155790b1461083f578063d250185c14610860578063d5b2262314610892578063d6d65f3d146108ee578063d8e9ce6414610903578063daa4cf8814610924578063e89e4ed614610939578063e93b054014610951578063f6cf09dc14610969578063fc0c546a14610999575b600080fd5b6102136004356024356109ae565b005b34801561022157600080fd5b5061022d600435610b55565b604080519115158252519081900360200190f35b34801561024d57600080fd5b50610256610bfd565b60408051600160a060020a039092168252519081900360200190f35b34801561027e57600080fd5b50610287610c0c565b6040805192835290151560208301528051918290030190f35b3480156102ac57600080fd5b50610213600160a060020a0360043516610c3f565b3480156102cd57600080fd5b506102d9600435610c5f565b60408051918252519081900360200190f35b3480156102f757600080fd5b50610213600160a060020a0360043516610db6565b34801561031857600080fd5b50610324600435610e49565b604051808763ffffffff1663ffffffff1681526020018681526020018563ffffffff1663ffffffff1681526020018463ffffffff1663ffffffff1681526020018060200180602001838103835285818151815260200191508051906020019080838360005b838110156103a1578181015183820152602001610389565b50505050905090810190601f1680156103ce5780820380516001836020036101000a031916815260200191505b50838103825284518152845160209182019186019080838360005b838110156104015781810151838201526020016103e9565b50505050905090810190601f16801561042e5780820380516001836020036101000a031916815260200191505b509850505050505050505060405180910390f35b34801561044e57600080fd5b5061022d600160a060020a0360043516611076565b34801561046f57600080fd5b5061047b60043561108e565b604051808763ffffffff1663ffffffff1681526020018663ffffffff1663ffffffff1681526020018581526020018463ffffffff1663ffffffff1681526020018060200180602001838103835285818151815260200191508051906020019060200280838360005b838110156104fb5781810151838201526020016104e3565b50505050905001838103825284818151815260200191508051906020019060200280838360005b8381101561053a578181015183820152602001610522565b505050509050019850505050505050505060405180910390f35b34801561056057600080fd5b506102d9611234565b34801561057557600080fd5b5061021361123a565b34801561058a57600080fd5b506102d96113d5565b34801561059f57600080fd5b50610213600160a060020a03600435166113db565b3480156105c057600080fd5b506102566113f8565b3480156105d557600080fd5b50610256611407565b3480156105ea57600080fd5b506102d9611416565b3480156105ff57600080fd5b5061060861141c565b60408051602080825283518183015283519192839290830191858101910280838360005b8381101561064457818101518382015260200161062c565b505050509050019250505060405180910390f35b34801561066457600080fd5b50610256611503565b34801561067957600080fd5b5061022d611512565b34801561068e57600080fd5b50610213600160a060020a0360043516611524565b3480156106af57600080fd5b506102d9611541565b3480156106c457600080fd5b50610256611547565b3480156106d957600080fd5b506106e5600435611556565b6040805163ffffffff9586168152938516602085015283810192909252909216606082015290519081900360800190f35b34801561072257600080fd5b506102d961159c565b34801561073757600080fd5b506107466004356024356115a2565b604051808260a080838360005b8381101561076b578181015183820152602001610753565b5050505090500191505060405180910390f35b34801561078a57600080fd5b50610213611854565b34801561079f57600080fd5b5061025661185f565b3480156107b457600080fd5b506102d961186e565b3480156107c957600080fd5b5061022d611874565b3480156107de57600080fd5b506107e76118bc565b6040805163ffffffff9092168252519081900360200190f35b34801561080c57600080fd5b50610256611903565b34801561082157600080fd5b50610256611912565b34801561083657600080fd5b50610213611921565b34801561084b57600080fd5b50610213600160a060020a036004351661192a565b34801561086c57600080fd5b5061087b600435602435611947565b604080518251815290819083908083836020610753565b34801561089e57600080fd5b50610213602460048035828101929082013591813580830192908201359160443580830192908201359160643580830192908201359160843580830192908201359160a4359182019101356119fd565b3480156108fa57600080fd5b50610287611d8e565b34801561090f57600080fd5b5061022d600160a060020a0360043516611e09565b34801561093057600080fd5b50610287611e1c565b34801561094557600080fd5b50610324600435611e9f565b34801561095d57600080fd5b5061021360043561200d565b34801561097557600080fd5b50610984600435602435612078565b60405181518152808260808083836020610753565b3480156109a557600080fd5b5061025661231d565b60006109b861325d565b6109c061327c565b60048054600101908190556109d3611512565b15156109de57600080fd5b856109e761232c565b14610a7c576008546040805160e460020a630b12e441028152600481018990529051600092600160a060020a03169163b12e441091602480830192602092919082900301818787803b158015610a3c57600080fd5b505af1158015610a50573d6000803e3d6000fd5b505050506040513d6020811015610a6657600080fd5b5051600160a060020a03161415610a7c57600080fd5b610a84611e1c565b509350610a9186866115a2565b80516020820151919450610aa491611947565b9150610ab08287612350565b610ae48383601087815481101515610ac457fe5b600091825260209091206002600590920201015463ffffffff1689612542565b610aef838388612754565b8251602080850151606080870151604080519586529385019290925283830191909152905133927f347f5f0051b895093800553e6e78ef332849e2552639a4f5ffe66535788ae07892908290030190a26004548114610b4d57600080fd5b505050505050565b604080517f77df0856000000000000000000000000000000000000000000000000000000008152600e600482015260248101839052905160009173__PaymentMethods________________________916377df085691604480820192602092909190829003018186803b158015610bcb57600080fd5b505af4158015610bdf573d6000803e3d6000fd5b505050506040513d6020811015610bf557600080fd5b505192915050565b600654600160a060020a031681565b60115460009081901580610c255750610c23611874565b155b15610c2f57610c3b565b50506011546000190160015b9091565b610c4833611076565b1515610c5357600080fd5b610c5c81612a11565b50565b600080600080610c6d611e1c565b92509250811515610c7d57610dae565b6010805484908110610c8b57fe5b9060005260206000209060050201905073__PurchaseProcessing____________________63b8005df28683600301846004016040518463ffffffff1660e060020a0281526004018084815260200180602001806020018381038352858181548152602001915080548015610d1f57602002820191906000526020600020905b815481526020019060010190808311610d0b575b50508381038252848181548152602001915080548015610d5e57602002820191906000526020600020905b815481526020019060010190808311610d4a575b50509550505050505060206040518083038186803b158015610d7f57600080fd5b505af4158015610d93573d6000803e3d6000fd5b505050506040513d6020811015610da957600080fd5b505193505b505050919050565b600354600160a060020a03163314610dcd57600080fd5b600160a060020a0381161515610de257600080fd5b6003805473ffffffffffffffffffffffffffffffffffffffff1916600160a060020a03838116919091179182905560408051929091168252517f4101e71e974f68df5e9730cc223280b41654676bbb052cdcc735c3337e64d2d9916020908290030190a150565b600080600080606080601187815481101515610e6157fe5b60009182526020909120600590910201546011805463ffffffff9092169189908110610e8957fe5b906000526020600020906005020160010154601189815481101515610eaa57fe5b60009182526020909120600260059092020101546011805463ffffffff909216918b908110610ed557fe5b906000526020600020906005020160020160049054906101000a900463ffffffff1660118b815481101515610f0657fe5b906000526020600020906005020160030160118c815481101515610f2657fe5b9060005260206000209060050201600401818054600181600116156101000203166002900480601f016020809104026020016040519081016040528092919081815260200182805460018160011615610100020316600290048015610fcc5780601f10610fa157610100808354040283529160200191610fcc565b820191906000526020600020905b815481529060010190602001808311610faf57829003601f168201915b5050845460408051602060026001851615610100026000190190941693909304601f81018490048402820184019092528181529597508694509250840190508282801561105a5780601f1061102f5761010080835404028352916020019161105a565b820191906000526020600020905b81548152906001019060200180831161103d57829003601f168201915b5050505050905095509550955095509550955091939550919395565b6000611088818363ffffffff612a5916565b92915050565b6000806000806060806010878154811015156110a657fe5b60009182526020909120600590910201546010805463ffffffff90921691899081106110ce57fe5b906000526020600020906005020160000160049054906101000a900463ffffffff166010898154811015156110ff57fe5b90600052602060002090600502016001015460108a81548110151561112057fe5b60009182526020909120600260059092020101546010805463ffffffff909216918c90811061114b57fe5b906000526020600020906005020160030160108c81548110151561116b57fe5b9060005260206000209060050201600401818054806020026020016040519081016040528092919081815260200182805480156111c757602002820191906000526020600020905b8154815260200190600101908083116111b3575b505050505091508080548060200260200160405190810160405280929190818152602001828054801561105a57602002820191906000526020600020905b815481526020019060010190808311611205575050505050905095509550955095509550955091939550919395565b600b5481565b600061124533611e09565b151561125057600080fd5b611258611874565b151561126357600080fd5b600554604080517f70a082310000000000000000000000000000000000000000000000000000000081523060048201529051600160a060020a03909216916370a08231916024808201926020929091908290030181600087803b1580156112c957600080fd5b505af11580156112dd573d6000803e3d6000fd5b505050506040513d60208110156112f357600080fd5b5051600554604080517fa9059cbb000000000000000000000000000000000000000000000000000000008152336004820152602481018490529051929350600160a060020a039091169163a9059cbb916044808201926020929091908290030181600087803b15801561136557600080fd5b505af1158015611379573d6000803e3d6000fd5b505050506040513d602081101561138f57600080fd5b5051151561139c57600080fd5b60408051828152905133917f26ffb867a6b19bc0240d4e732ed6cfb0f0b6d93143a99cfb24ba5873308861f8919081900360200190a250565b60115490565b6113e433611076565b15156113ef57600080fd5b610c5c81612a90565b600554600160a060020a031690565b600854600160a060020a031681565b60025481565b6060600e73__PaymentMethods________________________633b3d1a2290916040518263ffffffff1660e060020a0281526004018082815260200191505060006040518083038186803b15801561147357600080fd5b505af4158015611487573d6000803e3d6000fd5b505050506040513d6000823e601f3d908101601f1916820160405260208110156114b057600080fd5b8101908080516401000000008111156114c857600080fd5b820160208101848111156114db57600080fd5b81518560208202830111640100000000821117156114f857600080fd5b509094505050505090565b600c54600160a060020a031681565b60008061151d611e1c565b9392505050565b61152d33611076565b151561153857600080fd5b610c5c81612ad8565b60105490565b600d54600160a060020a031681565b601080548290811061156457fe5b600091825260209091206005909102018054600182015460029092015463ffffffff8083169450640100000000909204821692911684565b600a5481565b6115aa61325d565b6000806115b561325d565b6115bd611e1c565b925092508115156115cd5761184b565b856115d661232c565b14611663576008546040805160e060020a63cfec719f028152600481018990529051600160a060020a039092169163cfec719f916024808201926020929091908290030181600087803b15801561162c57600080fd5b505af1158015611640573d6000803e3d6000fd5b505050506040513d602081101561165657600080fd5b505115156116635761184b565b61166c86612b20565b905073__PurchaseProcessing____________________6391bfca31878760108781548110151561169957fe5b9060005260206000209060050201600101546010888154811015156116ba57fe5b90600052602060002090600502016003016010898154811015156116da57fe5b6000918252602082206004600590920201019088906020020151886001602002015189600260200201518a600360200201518b600460200201516040518b63ffffffff1660e060020a028152600401808b600019166000191681526020018a8152602001898152602001806020018060200188815260200187815260200186815260200185815260200184815260200183810383528a81815481526020019150805480156117a757602002820191906000526020600020905b815481526020019060010190808311611793575b505083810382528981815481526020019150805480156117e657602002820191906000526020600020905b8154815260200190600101908083116117d2575b50509c5050505050505050505050505060a06040518083038186803b15801561180e57600080fd5b505af4158015611822573d6000803e3d6000fd5b505050506040513d601f19601f8201168201806040525060a081101561184757600080fd5b5093505b50505092915050565b61185d33612a11565b565b600754600160a060020a031690565b60095481565b60105460009015806118b7575060108054429190600019810190811061189657fe5b6000918252602090912060059091020154640100000000900463ffffffff16105b905090565b60105460009081106118cd57600080fd5b6010805460001981019081106118df57fe5b6000918252602090912060059091020154640100000000900463ffffffff16919050565b600754600160a060020a031681565b600354600160a060020a031690565b61185d33612e17565b61193333611076565b151561193e57600080fd5b610c5c81612e17565b61194f61327c565b73__PurchaseProcessing____________________636cd5c0568484600a54600b546040518563ffffffff1660e060020a02815260040180858152602001848152602001838152602001828152602001945050505050604080518083038186803b1580156119bc57600080fd5b505af41580156119d0573d6000803e3d6000fd5b505050506040513d601f19601f8201168201806040525060408110156119f557600080fd5b509392505050565b6000611a0833611e09565b1515611a1357600080fd5b60105460001015611a50574260106000815481101515611a2f57fe5b600091825260209091206005909102015463ffffffff1611611a5057600080fd5b8b1515611a5c57600080fd5b60ff8c1115611a6a57600080fd5b60ff881115611a7857600080fd5b600286048814611a8757600080fd5b60028404881115611a9757600080fd5b811515611aa357600080fd5b5060005b81811015611b4f57600854600160a060020a0316637d20abf8848484818110611acc57fe5b6040805160e060020a63ffffffff87160281526020928302949094013560048501525160248085019492935090918290030181600087803b158015611b1057600080fd5b505af1158015611b24573d6000803e3d6000fd5b505050506040513d6020811015611b3a57600080fd5b50511515611b4757600080fd5b600101611aa7565b611be88d8d808060200260200160405190810160405280939291908181526020016000905b82821015611bb0576040805160c08181019092529080840287019060069083908390808284375050509183525050600190910190602001611b74565b50505050508c8c8080602002602001604051908101604052809392919081815260200183836020028082843750612e5f945050505050565b611caf8989808060200260200160405190810160405280939291908181526020016000905b82821015611c49576040805160808181019092529080840287019060049083908390808284375050509183525050600190910190602001611c0d565b50505050508888808060200260200160405190810160405280939291908181526020018383602002808284375050604080516020601f8e018190048102820181019092528c815294508c93508b9250829150840183828082843750612fa5945050505050565b604080517ff24950e2000000000000000000000000000000000000000000000000000000008152600e60048201818152602483019384526044830186905273__PaymentMethods________________________9363f24950e293889288929091606401846020850280828437820191505094505050505060006040518083038186803b158015611d3e57600080fd5b505af4158015611d52573d6000803e3d6000fd5b50506040517f072792b04aecd99b2250bc76fb25f9bca793c3b7383cb4c7255a7a01e8f5a12e925060009150a150505050505050505050505050565b60115460009081901580611da75750611da5611874565b155b15611db157610c3b565b5060015b6011546000190182108015611df957506011805483908110611dd357fe5b6000918252602090912060059091020160020154640100000000900463ffffffff164210155b15610c3b57600190910190611db5565b600061108860018363ffffffff612a5916565b60008080805b601054821015611e91576010805483908110611e3a57fe5b6000918252602090912060059091020180549091504263ffffffff90911611801590611e75575080544264010000000090910463ffffffff16115b15611e865781600193509350611e99565b600190910190611e22565b600093508392505b50509091565b6011805482908110611ead57fe5b60009182526020918290206005919091020180546001808301546002808501546003860180546040805161010097831615979097026000190190911693909304601f810189900489028601890190935282855263ffffffff9586169850929685821696640100000000909204909516949093929190830182828015611f735780601f10611f4857610100808354040283529160200191611f73565b820191906000526020600020905b815481529060010190602001808311611f5657829003601f168201915b5050505060048301805460408051602060026001851615610100026000190190941693909304601f81018490048402820184019092528181529495949350908301828280156120035780601f10611fd857610100808354040283529160200191612003565b820191906000526020600020905b815481529060010190602001808311611fe657829003601f168201915b5050505050905086565b600354600160a060020a0316331461202457600080fd5b6010546000101561206157426010600081548110151561204057fe5b600091825260209091206005909102015463ffffffff161161206157600080fd5b600c54610c5c908290600160a060020a0316613156565b612080613297565b60008061208b61325d565b612093611e1c565b925092508115156120a35761184b565b856120ac61232c565b14612139576008546040805160e060020a63cfec719f028152600481018990529051600160a060020a039092169163cfec719f916024808201926020929091908290030181600087803b15801561210257600080fd5b505af1158015612116573d6000803e3d6000fd5b505050506040513d602081101561212c57600080fd5b505115156121395761184b565b61214286612b20565b905073__PurchaseProcessing____________________6391dab422878760108781548110151561216f57fe5b90600052602060002090600502016001015460108881548110151561219057fe5b90600052602060002090600502016003016010898154811015156121b057fe5b6000918252602082206004600590920201019088906020020151886001602002015189600260200201518a600360200201518b600460200201516040518b63ffffffff1660e060020a028152600401808b600019166000191681526020018a8152602001898152602001806020018060200188815260200187815260200186815260200185815260200184815260200183810383528a818154815260200191508054801561227d57602002820191906000526020600020905b815481526020019060010190808311612269575b505083810382528981815481526020019150805480156122bc57602002820191906000526020600020905b8154815260200190600101908083116122a8575b50509c5050505050505050505050505060806040518083038186803b1580156122e457600080fd5b505af41580156122f8573d6000803e3d6000fd5b505050506040513d601f19601f82011682018060405250608081101561184757600080fd5b600554600160a060020a031681565b7f455448000000000000000000000000000000000000000000000000000000000090565b6008546040805160e060020a63cfec719f02815260048101849052905173__PurchaseProcessing____________________92633676737c9286928692600160a060020a03169163cfec719f9160248083019260209291908290030181600087803b1580156123be57600080fd5b505af11580156123d2573d6000803e3d6000fd5b505050506040513d60208110156123e857600080fd5b50516123f5576000612473565b6008546040805160e460020a630b12e441028152600481018890529051600160a060020a039092169163b12e4410916024808201926020929091908290030181600087803b15801561244657600080fd5b505af115801561245a573d6000803e3d6000fd5b505050506040513d602081101561247057600080fd5b50515b600554600654600d54600c546040805163ffffffff8a1660e060020a028152600160a060020a0395861695948516949384169390921691600401908190899080838360005b838110156124d05781810151838201526020016124b8565b50505050919091019788525050600160a060020a039485166020870152928416604080870191909152918416606086015283166080850152911660a08301525160c08083019350600092829003018186803b15801561252e57600080fd5b505af4158015610b4d573d6000803e3d6000fd5b6008546040805160e060020a63cfec719f02815260048101849052905173__PurchaseProcessing____________________92634bb1e9ff928892889288928892600160a060020a039092169163cfec719f916024808201926020929091908290030181600087803b1580156125b757600080fd5b505af11580156125cb573d6000803e3d6000fd5b505050506040513d60208110156125e157600080fd5b50516125ee57600061266c565b6008546040805160e460020a630b12e441028152600481018a90529051600160a060020a039092169163b12e4410916024808201926020929091908290030181600087803b15801561263f57600080fd5b505af1158015612653573d6000803e3d6000fd5b505050506040513d602081101561266957600080fd5b50515b60055460405160e060020a63ffffffff8916028152600160a060020a0390911690600401808760a080838360005b838110156126b257818101518382015260200161269a565b5050505090500186600260200280838360005b838110156126dd5781810151838201526020016126c5565b50505063ffffffff909816920191825250602081019490945250600160a060020a039182166040808501919091529116606083015251608080830195506000945090925090829003018186803b15801561273657600080fd5b505af415801561274a573d6000803e3d6000fd5b5050505050505050565b61275c61232c565b81141561283057600754600160a060020a031663d0baf2f561279484600160200201518660015b60200201519063ffffffff6131ac16565b8551602086015133919086906127ac908a6001612783565b89600260200201516040805160e060020a63ffffffff8a16028152600160a060020a03909616600487015260248601949094526044850192909252606484015260848301525160a480830192600092919082900301818588803b15801561281257600080fd5b505af1158015612826573d6000803e3d6000fd5b5050505050612a0c565b6008546040805160e460020a630b12e441028152600481018490529051600160a060020a039092169163b12e4410916024808201926020929091908290030181600087803b15801561288157600080fd5b505af1158015612895573d6000803e3d6000fd5b505050506040513d60208110156128ab57600080fd5b5051600754600160a060020a039182169163a9059cbb91166128d68560016020020151876001612783565b6040518363ffffffff1660e060020a0281526004018083600160a060020a0316600160a060020a0316815260200182815260200192505050602060405180830381600087803b15801561292857600080fd5b505af115801561293c573d6000803e3d6000fd5b505050506040513d602081101561295257600080fd5b5051151561295f57600080fd5b600754600160a060020a031663d0baf2f53385600060200201518461298d8760016020020151896001612783565b88600260200201516040805160e060020a63ffffffff8916028152600160a060020a03909616600487015260248601949094526044850192909252606484015260848301525160a480830192600092919082900301818387803b1580156129f357600080fd5b505af1158015612a07573d6000803e3d6000fd5b505050505b505050565b612a2260008263ffffffff6131c316565b604051600160a060020a038216907fa3b62bc36326052d97ea62d63c3d60308ed4c3ea8ac079dd8499f1e9c4f80c0f90600090a250565b6000600160a060020a0382161515612a7057600080fd5b50600160a060020a03166000908152602091909152604090205460ff1690565b612aa160018263ffffffff61320f16565b604051600160a060020a038216907f941e31c3e651de34a7fcf0132d9d02c2df9377e6b5f932bec5daf6353c94f90e90600090a250565b612ae960008263ffffffff61320f16565b604051600160a060020a038216907f44d6d25963f097ad14f29f06854a01f575648a1ef82f30e562ccd3889717e33990600090a250565b612b2861325d565b600854604080517f8eaa6ac0000000000000000000000000000000000000000000000000000000008152600481018590529051600160a060020a0390921691638eaa6ac0916024808201926020929091908290030181600087803b158015612b8f57600080fd5b505af1158015612ba3573d6000803e3d6000fd5b505050506040513d6020811015612bb957600080fd5b50518152600954602080830191909152600554604080517f313ce5670000000000000000000000000000000000000000000000000000000081529051600160a060020a039092169263313ce567926004808401938290030181600087803b158015612c2357600080fd5b505af1158015612c37573d6000803e3d6000fd5b505050506040513d6020811015612c4d57600080fd5b505160ff16604082015281612c6061232c565b14612d73576008546040805160e460020a630b12e441028152600481018590529051600160a060020a039092169163b12e4410916024808201926020929091908290030181600087803b158015612cb657600080fd5b505af1158015612cca573d6000803e3d6000fd5b505050506040513d6020811015612ce057600080fd5b5051604080517f313ce5670000000000000000000000000000000000000000000000000000000081529051600160a060020a039092169163313ce567916004808201926020929091908290030181600087803b158015612d3f57600080fd5b505af1158015612d53573d6000803e3d6000fd5b505050506040513d6020811015612d6957600080fd5b505160ff16612d76565b60125b6060820152600554604080517f70a082310000000000000000000000000000000000000000000000000000000081523060048201529051600160a060020a03909216916370a08231916024808201926020929091908290030181600087803b158015612de157600080fd5b505af1158015612df5573d6000803e3d6000fd5b505050506040513d6020811015612e0b57600080fd5b50516080820152919050565b612e2860018263ffffffff6131c316565b604051600160a060020a038216907fa3bfdef3d8149bacf15b7b64199fca8228c0fd4f8fcdd11cc7871829baf319c390600090a250565b73__Crowdsale_____________________________63ae1c60546010601185856040518563ffffffff1660e060020a0281526004018085815260200184815260200180602001806020018381038352858181518152602001915080516000925b81841015612f015760208085028401015160c080838360005b83811015612ef0578181015183820152602001612ed8565b505050509050019260010192612ebf565b868103855287518152875160209182019450818901935002905080838360005b83811015612f39578181015183820152602001612f21565b50505050905001965050505050505060006040518083038186803b158015612f6057600080fd5b505af4158015612f74573d6000803e3d6000fd5b50506040517f743961f4e677d1146fbf85d75565b1c5474fd083eb166f8b9595cf5d01a4d6e6925060009150a15050565b73__Crowdsale_____________________________63e1231f1e601060118686866040518663ffffffff1660e060020a028152600401808681526020018581526020018060200180602001806020018481038452878181518152602001915080516000925b8184101561304c57602080850284010151608080838360005b8381101561303b578181015183820152602001613023565b50505050905001926001019261300a565b878103865289518152895160209182019450818b01935002905080838360005b8381101561308457818101518382015260200161306c565b50505050905001848103825285818151815260200191508051906020019080838360005b838110156130c05781810151838201526020016130a8565b50505050905090810190601f1680156130ed5780820380516001836020036101000a031916815260200191505b509850505050505050505060006040518083038186803b15801561311057600080fd5b505af4158015613124573d6000803e3d6000fd5b50506040517f56d9a2e016027a3725bf162ef2779c8b28d4dbec97c679cfba02dbb31a34c7ca925060009150a1505050565b6000821161316357600080fd5b600160a060020a038116151561317857600080fd5b600991909155600c805473ffffffffffffffffffffffffffffffffffffffff1916600160a060020a03909216919091179055565b600080838311156131bc57600080fd5b5050900390565b600160a060020a03811615156131d857600080fd5b6131e28282612a59565b15156131ed57600080fd5b600160a060020a0316600090815260209190915260409020805460ff19169055565b600160a060020a038116151561322457600080fd5b61322e8282612a59565b1561323857600080fd5b600160a060020a0316600090815260209190915260409020805460ff19166001179055565b60a0604051908101604052806005906020820280388339509192915050565b60408051808201825290600290829080388339509192915050565b60806040519081016040528060049060208202803883395091929150505600a165627a7a723058205764eaf376f5cb24c4af6d62f551ccb0be08befceceb38c1563d18ddec1d03270029",
  "source": "pragma solidity ^0.4.24;\n\nimport \"openzeppelin-solidity/contracts/ownership/Secondary.sol\";\nimport \"openzeppelin-solidity/contracts/utils/ReentrancyGuard.sol\";\nimport \"openzeppelin-solidity/contracts/math/SafeMath.sol\";\nimport \"openzeppelin-solidity/contracts/token/ERC20/IERC20.sol\";\nimport \"openzeppelin-solidity/contracts/token/ERC20/ERC20Detailed.sol\";\nimport \"./IW12Crowdsale.sol\";\nimport \"./IW12Fund.sol\";\nimport \"../rates/IRates.sol\";\nimport \"../libs/Percent.sol\";\nimport \"../libs/PaymentMethods.sol\";\nimport \"../libs/PurchaseProcessing.sol\";\nimport \"../libs/Crowdsale.sol\";\nimport \"../versioning/Versionable.sol\";\nimport \"../token/IWToken.sol\";\nimport \"../access/roles/AdminRole.sol\";\nimport \"../access/roles/ProjectOwnerRole.sol\";\n\ncontract W12Crowdsale is IW12Crowdsale, AdminRole, ProjectOwnerRole, Versionable, Secondary, ReentrancyGuard {\n    using SafeMath for uint;\n    using SafeMath for uint8;\n    using Percent for uint;\n    using PaymentMethods for PaymentMethods.Methods;\n\n    IWToken public token;\n    IERC20 public originToken;\n    IW12Fund public fund;\n    IRates public rates;\n    uint public price;\n    uint public serviceFee;\n    uint public WTokenSaleFeePercent;\n    address public serviceWallet;\n    address public swap;\n\n    // list of payment methods\n    PaymentMethods.Methods paymentMethods;\n\n    Crowdsale.Stage[] public stages;\n    Crowdsale.Milestone[] public milestones;\n\n    event TokenPurchase(address indexed buyer, uint tokensBought, uint cost, uint change);\n    event StagesUpdated();\n    event StageUpdated(uint index);\n    event MilestonesUpdated();\n    event CrowdsaleSetUpDone();\n    event UnsoldTokenReturned(address indexed owner, uint amount);\n\n    constructor (\n        uint version,\n        address _originToken,\n        address _token,\n        uint _price,\n        address _serviceWallet,\n        address _swap,\n        uint _serviceFee,\n        uint _WTokenSaleFeePercent,\n        IW12Fund _fund,\n        IRates _rates\n    )\n        Versionable(version) public\n    {\n        require(_originToken != address(0));\n        require(_token != address(0));\n        require(_serviceFee.isPercent() && _serviceFee.fromPercent() < 100);\n        require(_WTokenSaleFeePercent.isPercent() && _WTokenSaleFeePercent.fromPercent() < 100);\n        require(_fund != address(0));\n        require(_swap != address(0));\n        require(_rates != address(0));\n\n        __setParameters(_price, _serviceWallet);\n\n        token = IWToken(_token);\n        originToken = IERC20(_originToken);\n        serviceFee = _serviceFee;\n        swap = _swap;\n        WTokenSaleFeePercent = _WTokenSaleFeePercent;\n        fund = _fund;\n        rates = _rates;\n    }\n\n    function addAdmin(address _account) public onlyAdmin {\n        _addAdmin(_account);\n    }\n\n    function removeAdmin(address _account) public onlyAdmin {\n        _removeAdmin(_account);\n    }\n\n    function addProjectOwner(address _account) public onlyAdmin {\n        _addProjectOwner(_account);\n    }\n\n    function removeProjectOwner(address _account) public onlyAdmin {\n        _removeProjectOwner(_account);\n    }\n\n    function stagesLength() external view returns (uint) {\n        return stages.length;\n    }\n\n    function milestonesLength() external view returns (uint) {\n        return milestones.length;\n    }\n\n    function getMilestone(uint index) public view returns (uint32, uint, uint32, uint32, bytes, bytes) {\n        return (\n            milestones[index].endDate,\n            milestones[index].tranchePercent,\n            milestones[index].voteEndDate,\n            milestones[index].withdrawalWindow,\n            milestones[index].name,\n            milestones[index].description\n        );\n    }\n\n    function getStage(uint index) public view returns (uint32, uint32, uint, uint32, uint[], uint[]) {\n        return (\n            stages[index].startDate,\n            stages[index].endDate,\n            stages[index].discount,\n            stages[index].vesting,\n            stages[index].volumeBoundaries,\n            stages[index].volumeBonuses\n        );\n    }\n\n    function getEndDate() external view returns (uint32) {\n        require(stages.length > 0);\n\n        return stages[stages.length - 1].endDate;\n    }\n\n    /**\n     * @dev Returns index of active milestone or last milestone\n     */\n    function getCurrentMilestoneIndex() public view returns (uint index, bool found) {\n        if(milestones.length == 0 || !isEnded()) return;\n\n        found = true;\n\n        // from withdrawalWindow begins next milestone\n        while(index < milestones.length - 1 && now >= milestones[index].withdrawalWindow) {\n            index++;\n        }\n    }\n\n    function getLastMilestoneIndex() public view returns (uint index, bool found) {\n        if (milestones.length == 0 || !isEnded()) return;\n\n        found = true;\n        index = milestones.length - 1;\n    }\n\n    function __setParameters(uint _price, address _serviceWallet) internal {\n        require(_price > 0);\n        require(_serviceWallet != address(0));\n\n        price = _price;\n        serviceWallet = _serviceWallet;\n    }\n\n    function setParameters(uint _price) external onlyPrimary beforeSaleStart {\n        __setParameters(_price, serviceWallet);\n    }\n\n    /**\n     * @dev Setup all crowdsale parameters at a time\n     */\n    function setup(\n        uint[6][] parametersOfStages,\n        uint[] bonusConditionsOfStages,\n        uint[4][] parametersOfMilestones,\n        uint32[] nameAndDescriptionsOffsetOfMilestones,\n        bytes nameAndDescriptionsOfMilestones,\n        bytes32[] paymentMethodsList\n    )\n        external onlyProjectOwner beforeSaleStart\n    {\n        // primary check of parameters of stages\n        require(parametersOfStages.length != 0);\n        require(parametersOfStages.length <= uint8(- 1));\n\n        // primary check of parameters of milestones\n        require(parametersOfMilestones.length <= uint8(- 1));\n        require(parametersOfMilestones.length == nameAndDescriptionsOffsetOfMilestones.length / 2);\n        require(parametersOfMilestones.length <= nameAndDescriptionsOfMilestones.length / 2);\n\n        // check payment methods list\n        require(paymentMethodsList.length != 0);\n\n        for (uint i = 0; i < paymentMethodsList.length; i++) {\n            require(rates.hasSymbol(paymentMethodsList[i]));\n        }\n\n        _setStages(\n            parametersOfStages,\n            bonusConditionsOfStages\n        );\n\n        _setMilestones(\n            parametersOfMilestones,\n            nameAndDescriptionsOffsetOfMilestones,\n            nameAndDescriptionsOfMilestones\n        );\n\n        paymentMethods.update(paymentMethodsList);\n\n        emit CrowdsaleSetUpDone();\n    }\n\n    /**\n     * @dev Update stages\n     * @param parameters List of primary parameters:\n     * [\n     *   uint32 startDate,\n     *   uint32 endDate,\n     *   uint discount,\n     *   uint32 vesting,\n     *   uint8 startIndexOfBonusConditions\n     *   uint8 endIndexOfBonusConditions\n     * ],\n     * @param bonusConditions List of bonus conditions:\n     * [uint boundary, uint bonus, ...]\n     */\n    function _setStages(uint[6][] parameters, uint[] bonusConditions) internal {\n        Crowdsale.setStages(stages, milestones, parameters, bonusConditions);\n\n        emit StagesUpdated();\n    }\n\n    /**\n     * @dev Update milestones\n     * @param parameters List of primary parameters:\n     * [\n     *   uint32 endDate,\n     *   uint32 voteEndDate,\n     *   uint32 withdrawalWindow,\n     *   uint tranchPercent\n     * ]\n     * @param offsets Offsets of names and descriptions in namesAndDescriptions:\n     * [uint32 offset1, uint32 offset2, ...]\n     * @param namesAndDescriptions Names and descriptions\n     */\n    function _setMilestones(\n        uint[4][] parameters,\n        uint32[] offsets,\n        bytes namesAndDescriptions\n    )\n        internal\n    {\n        Crowdsale.setMilestones(stages, milestones, parameters, offsets, namesAndDescriptions);\n\n        emit MilestonesUpdated();\n    }\n\n    function buyTokens(bytes32 method, uint amount) payable public nonReentrant onlyWhenSaleActive {\n        if (PurchaseProcessing.METHOD_ETH() != method) {\n            require(rates.getTokenAddress(method) != address(0));\n        }\n\n        (uint index, /*bool found*/) = getCurrentStageIndex();\n\n        uint[5] memory invoice = getInvoice(method, amount);\n        uint[2] memory fee = getFee(invoice[0], invoice[1]);\n\n        _transferFee(fee, method);\n        _transferPurchase(invoice, fee, stages[index].vesting, method);\n        _recordPurchase(invoice, fee, method);\n\n        emit TokenPurchase(msg.sender, invoice[0], invoice[1], invoice[3]);\n    }\n\n    function _transferFee(uint[2] _fee, bytes32 method) internal {\n        PurchaseProcessing.transferFee(\n            _fee,\n            method,\n            rates.isToken(method) ? rates.getTokenAddress(method) : address(0),\n            address(token),\n            address(originToken),\n            swap,\n            serviceWallet\n        );\n    }\n\n    function _transferPurchase(uint[5] _invoice, uint[2] _fee, uint32 vesting, bytes32 method) internal {\n        PurchaseProcessing.transferPurchase(\n            _invoice,\n            _fee,\n            vesting,\n            method,\n            rates.isToken(method) ? address(rates.getTokenAddress(method)) : address(0),\n            address(token)\n        );\n    }\n\n    function _recordPurchase(uint[5] _invoice, uint[2] _fee, bytes32 method) internal {\n        if (method == PurchaseProcessing.METHOD_ETH()) {\n            fund.recordPurchase.value(_invoice[1].sub(_fee[1]))(msg.sender, _invoice[0], method, _invoice[1].sub(_fee[1]), _invoice[2]);\n        } else {\n            require(IERC20(rates.getTokenAddress(method)).transfer(address(fund), _invoice[1].sub(_fee[1])));\n            fund.recordPurchase(msg.sender, _invoice[0], method, _invoice[1].sub(_fee[1]), _invoice[2]);\n        }\n    }\n\n    function getWToken() external view returns(IWToken) {\n        return token;\n    }\n\n    function getFund() external view returns(IW12Fund) {\n        return fund;\n    }\n\n    function getPaymentMethodsList() external view returns(bytes32[]) {\n        return paymentMethods.list();\n    }\n\n    function isPaymentMethodAllowed(bytes32 _method) external view returns (bool) {\n        return paymentMethods.isAllowed(_method);\n    }\n\n    function getInvoice(bytes32 method, uint amount) public view returns (uint[5]) {\n        (uint index, bool found) = getCurrentStageIndex();\n\n        if (!found) return;\n\n        if (PurchaseProcessing.METHOD_ETH() != method) {\n            if (!rates.isToken(method)) {\n                return;\n            }\n        }\n\n        uint[5] memory lastArguments = _getInvoiceLastArguments(method);\n\n        return PurchaseProcessing.invoice(\n            method,\n            amount,\n            stages[index].discount,\n            stages[index].volumeBoundaries,\n            stages[index].volumeBonuses,\n            lastArguments[0],\n            lastArguments[1],\n            lastArguments[2],\n            lastArguments[3],\n            lastArguments[4]\n        );\n    }\n\n    function _getInvoiceLastArguments(bytes32 method) internal view returns(uint[5] result) {\n        result[0] = rates.get(method);\n        result[1] = price;\n        result[2] = uint(token.decimals());\n        result[3] = PurchaseProcessing.METHOD_ETH() == method\n            ? 18\n            : uint(ERC20Detailed(rates.getTokenAddress(method)).decimals());\n        result[4] = token.balanceOf(address(this));\n    }\n\n    function getInvoiceByTokenAmount(bytes32 method, uint tokenAmount) public view returns (uint[4]) {\n        (uint index, bool found) = getCurrentStageIndex();\n\n        if (!found) return;\n\n        if (PurchaseProcessing.METHOD_ETH() != method) {\n            if (!rates.isToken(method)) {\n                return;\n            }\n        }\n\n        uint[5] memory lastArguments = _getInvoiceByTokenAmountLastArguments(method);\n\n        return PurchaseProcessing.invoiceByTokenAmount(\n            method,\n            tokenAmount,\n            stages[index].discount,\n            stages[index].volumeBoundaries,\n            stages[index].volumeBonuses,\n            lastArguments[0],\n            lastArguments[1],\n            lastArguments[2],\n            lastArguments[3],\n            lastArguments[4]\n        );\n    }\n\n    function _getInvoiceByTokenAmountLastArguments(bytes32 method) internal view returns (uint[5] result) {\n        result[0] = rates.get(method);\n        result[1] = price;\n        result[2] = uint(token.decimals());\n        result[3] = PurchaseProcessing.METHOD_ETH() == method\n            ? 18\n            : uint(ERC20Detailed(rates.getTokenAddress(method)).decimals());\n        result[4] = token.balanceOf(address(this));\n    }\n\n    function getFee(uint tokenAmount, uint cost) public view returns(uint[2]) {\n        return PurchaseProcessing.fee(tokenAmount, cost, serviceFee, WTokenSaleFeePercent);\n    }\n\n    function getSaleVolumeBonus(uint value) public view returns(uint bonus) {\n        (uint index, bool found) = getCurrentStageIndex();\n\n        if (!found) return;\n\n        Crowdsale.Stage storage stage = stages[index];\n\n        return PurchaseProcessing.getBonus(value, stage.volumeBoundaries, stage.volumeBonuses);\n    }\n\n    function getCurrentStageIndex() public view returns (uint index, bool found) {\n        for(uint i = 0; i < stages.length; i++) {\n            Crowdsale.Stage storage stage = stages[i];\n\n            if (stage.startDate <= now && stage.endDate > now) {\n                return (i, true);\n            }\n        }\n\n        return (0, false);\n    }\n\n    function claimRemainingTokens() external onlyProjectOwner {\n        require(isEnded());\n\n        uint amount = token.balanceOf(address(this));\n\n        require(token.transfer(msg.sender, amount));\n\n        emit UnsoldTokenReturned(msg.sender, amount);\n    }\n\n    function isEnded() public view returns (bool) {\n        return stages.length == 0 || stages[stages.length - 1].endDate < now;\n    }\n\n    function isSaleActive() public view returns (bool) {\n        (, bool found) = getCurrentStageIndex();\n\n        return found;\n    }\n\n    modifier beforeSaleStart() {\n        if (stages.length > 0) {\n            require(stages[0].startDate > now);\n        }\n\n        _;\n    }\n\n    modifier onlyWhenSaleActive() {\n        require(isSaleActive());\n\n        _;\n    }\n}\n",
  "sourcePath": "/home/circleci/code/contracts/crowdsale/W12Crowdsale.sol",
  "compiler": {
    "name": "solc",
    "version": "0.4.24+commit.e67f0147.Emscripten.clang"
  },
  "schemaVersion": "2.0.1",
  "updatedAt": "2018-12-06T13:18:18.818Z"
}