{
  "contractName": "W12Crowdsale",
  "abi": [
    {
      "constant": true,
      "inputs": [],
      "name": "originToken",
      "outputs": [
        {
          "name": "",
          "type": "address"
        }
      ],
      "payable": false,
      "stateMutability": "view",
      "type": "function"
    },
    {
      "constant": false,
      "inputs": [
        {
          "name": "recipient",
          "type": "address"
        }
      ],
      "name": "transferPrimary",
      "outputs": [],
      "payable": false,
      "stateMutability": "nonpayable",
      "type": "function"
    },
    {
      "constant": true,
      "inputs": [
        {
          "name": "account",
          "type": "address"
        }
      ],
      "name": "isAdmin",
      "outputs": [
        {
          "name": "",
          "type": "bool"
        }
      ],
      "payable": false,
      "stateMutability": "view",
      "type": "function"
    },
    {
      "constant": true,
      "inputs": [],
      "name": "WTokenSaleFeePercent",
      "outputs": [
        {
          "name": "",
          "type": "uint256"
        }
      ],
      "payable": false,
      "stateMutability": "view",
      "type": "function"
    },
    {
      "constant": true,
      "inputs": [],
      "name": "rates",
      "outputs": [
        {
          "name": "",
          "type": "address"
        }
      ],
      "payable": false,
      "stateMutability": "view",
      "type": "function"
    },
    {
      "constant": true,
      "inputs": [],
      "name": "version",
      "outputs": [
        {
          "name": "",
          "type": "uint256"
        }
      ],
      "payable": false,
      "stateMutability": "view",
      "type": "function"
    },
    {
      "constant": true,
      "inputs": [],
      "name": "serviceWallet",
      "outputs": [
        {
          "name": "",
          "type": "address"
        }
      ],
      "payable": false,
      "stateMutability": "view",
      "type": "function"
    },
    {
      "constant": true,
      "inputs": [],
      "name": "swap",
      "outputs": [
        {
          "name": "",
          "type": "address"
        }
      ],
      "payable": false,
      "stateMutability": "view",
      "type": "function"
    },
    {
      "constant": true,
      "inputs": [
        {
          "name": "",
          "type": "uint256"
        }
      ],
      "name": "stages",
      "outputs": [
        {
          "name": "startDate",
          "type": "uint32"
        },
        {
          "name": "endDate",
          "type": "uint32"
        },
        {
          "name": "discount",
          "type": "uint256"
        },
        {
          "name": "vesting",
          "type": "uint32"
        }
      ],
      "payable": false,
      "stateMutability": "view",
      "type": "function"
    },
    {
      "constant": true,
      "inputs": [],
      "name": "serviceFee",
      "outputs": [
        {
          "name": "",
          "type": "uint256"
        }
      ],
      "payable": false,
      "stateMutability": "view",
      "type": "function"
    },
    {
      "constant": false,
      "inputs": [],
      "name": "renounceAdmin",
      "outputs": [],
      "payable": false,
      "stateMutability": "nonpayable",
      "type": "function"
    },
    {
      "constant": true,
      "inputs": [],
      "name": "price",
      "outputs": [
        {
          "name": "",
          "type": "uint256"
        }
      ],
      "payable": false,
      "stateMutability": "view",
      "type": "function"
    },
    {
      "constant": true,
      "inputs": [],
      "name": "fund",
      "outputs": [
        {
          "name": "",
          "type": "address"
        }
      ],
      "payable": false,
      "stateMutability": "view",
      "type": "function"
    },
    {
      "constant": true,
      "inputs": [],
      "name": "primary",
      "outputs": [
        {
          "name": "",
          "type": "address"
        }
      ],
      "payable": false,
      "stateMutability": "view",
      "type": "function"
    },
    {
      "constant": false,
      "inputs": [],
      "name": "renounceProjectOwner",
      "outputs": [],
      "payable": false,
      "stateMutability": "nonpayable",
      "type": "function"
    },
    {
      "constant": true,
      "inputs": [
        {
          "name": "account",
          "type": "address"
        }
      ],
      "name": "isProjectOwner",
      "outputs": [
        {
          "name": "",
          "type": "bool"
        }
      ],
      "payable": false,
      "stateMutability": "view",
      "type": "function"
    },
    {
      "constant": true,
      "inputs": [
        {
          "name": "",
          "type": "uint256"
        }
      ],
      "name": "milestones",
      "outputs": [
        {
          "name": "endDate",
          "type": "uint32"
        },
        {
          "name": "tranchePercent",
          "type": "uint256"
        },
        {
          "name": "voteEndDate",
          "type": "uint32"
        },
        {
          "name": "withdrawalWindow",
          "type": "uint32"
        },
        {
          "name": "name",
          "type": "bytes"
        },
        {
          "name": "description",
          "type": "bytes"
        }
      ],
      "payable": false,
      "stateMutability": "view",
      "type": "function"
    },
    {
      "constant": true,
      "inputs": [],
      "name": "token",
      "outputs": [
        {
          "name": "",
          "type": "address"
        }
      ],
      "payable": false,
      "stateMutability": "view",
      "type": "function"
    },
    {
      "inputs": [
        {
          "name": "version",
          "type": "uint256"
        },
        {
          "name": "_originToken",
          "type": "address"
        },
        {
          "name": "_token",
          "type": "address"
        },
        {
          "name": "_price",
          "type": "uint256"
        },
        {
          "name": "_serviceWallet",
          "type": "address"
        },
        {
          "name": "_swap",
          "type": "address"
        },
        {
          "name": "_serviceFee",
          "type": "uint256"
        },
        {
          "name": "_wTokenSaleFeePercent",
          "type": "uint256"
        },
        {
          "name": "_fund",
          "type": "address"
        },
        {
          "name": "_rates",
          "type": "address"
        }
      ],
      "payable": false,
      "stateMutability": "nonpayable",
      "type": "constructor"
    },
    {
      "anonymous": false,
      "inputs": [
        {
          "indexed": true,
          "name": "buyer",
          "type": "address"
        },
        {
          "indexed": false,
          "name": "tokensBought",
          "type": "uint256"
        },
        {
          "indexed": false,
          "name": "cost",
          "type": "uint256"
        },
        {
          "indexed": false,
          "name": "change",
          "type": "uint256"
        }
      ],
      "name": "TokenPurchase",
      "type": "event"
    },
    {
      "anonymous": false,
      "inputs": [],
      "name": "StagesUpdated",
      "type": "event"
    },
    {
      "anonymous": false,
      "inputs": [
        {
          "indexed": false,
          "name": "index",
          "type": "uint256"
        }
      ],
      "name": "StageUpdated",
      "type": "event"
    },
    {
      "anonymous": false,
      "inputs": [],
      "name": "MilestonesUpdated",
      "type": "event"
    },
    {
      "anonymous": false,
      "inputs": [],
      "name": "CrowdsaleSetUpDone",
      "type": "event"
    },
    {
      "anonymous": false,
      "inputs": [
        {
          "indexed": true,
          "name": "owner",
          "type": "address"
        },
        {
          "indexed": false,
          "name": "amount",
          "type": "uint256"
        }
      ],
      "name": "UnsoldTokenReturned",
      "type": "event"
    },
    {
      "anonymous": false,
      "inputs": [
        {
          "indexed": false,
          "name": "recipient",
          "type": "address"
        }
      ],
      "name": "PrimaryTransferred",
      "type": "event"
    },
    {
      "anonymous": false,
      "inputs": [
        {
          "indexed": true,
          "name": "account",
          "type": "address"
        }
      ],
      "name": "ProjectOwnerAdded",
      "type": "event"
    },
    {
      "anonymous": false,
      "inputs": [
        {
          "indexed": true,
          "name": "account",
          "type": "address"
        }
      ],
      "name": "ProjectOwnerRemoved",
      "type": "event"
    },
    {
      "anonymous": false,
      "inputs": [
        {
          "indexed": true,
          "name": "account",
          "type": "address"
        }
      ],
      "name": "AdminAdded",
      "type": "event"
    },
    {
      "anonymous": false,
      "inputs": [
        {
          "indexed": true,
          "name": "account",
          "type": "address"
        }
      ],
      "name": "AdminRemoved",
      "type": "event"
    },
    {
      "constant": false,
      "inputs": [
        {
          "name": "_price",
          "type": "uint256"
        }
      ],
      "name": "setParameters",
      "outputs": [],
      "payable": false,
      "stateMutability": "nonpayable",
      "type": "function"
    },
    {
      "constant": false,
      "inputs": [
        {
          "name": "parametersOfStages",
          "type": "uint256[6][]"
        },
        {
          "name": "bonusConditionsOfStages",
          "type": "uint256[]"
        },
        {
          "name": "parametersOfMilestones",
          "type": "uint256[4][]"
        },
        {
          "name": "nameAndDescriptionsOffsetOfMilestones",
          "type": "uint32[]"
        },
        {
          "name": "nameAndDescriptionsOfMilestones",
          "type": "bytes"
        },
        {
          "name": "paymentMethodsList",
          "type": "bytes32[]"
        }
      ],
      "name": "setup",
      "outputs": [],
      "payable": false,
      "stateMutability": "nonpayable",
      "type": "function"
    },
    {
      "constant": false,
      "inputs": [],
      "name": "claimRemainingTokens",
      "outputs": [],
      "payable": false,
      "stateMutability": "nonpayable",
      "type": "function"
    },
    {
      "constant": true,
      "inputs": [],
      "name": "stagesLength",
      "outputs": [
        {
          "name": "",
          "type": "uint256"
        }
      ],
      "payable": false,
      "stateMutability": "view",
      "type": "function"
    },
    {
      "constant": true,
      "inputs": [],
      "name": "milestonesLength",
      "outputs": [
        {
          "name": "",
          "type": "uint256"
        }
      ],
      "payable": false,
      "stateMutability": "view",
      "type": "function"
    },
    {
      "constant": true,
      "inputs": [],
      "name": "getEndDate",
      "outputs": [
        {
          "name": "",
          "type": "uint32"
        }
      ],
      "payable": false,
      "stateMutability": "view",
      "type": "function"
    },
    {
      "constant": true,
      "inputs": [],
      "name": "getWToken",
      "outputs": [
        {
          "name": "",
          "type": "address"
        }
      ],
      "payable": false,
      "stateMutability": "view",
      "type": "function"
    },
    {
      "constant": true,
      "inputs": [],
      "name": "getFund",
      "outputs": [
        {
          "name": "",
          "type": "address"
        }
      ],
      "payable": false,
      "stateMutability": "view",
      "type": "function"
    },
    {
      "constant": true,
      "inputs": [],
      "name": "getPaymentMethodsList",
      "outputs": [
        {
          "name": "",
          "type": "bytes32[]"
        }
      ],
      "payable": false,
      "stateMutability": "view",
      "type": "function"
    },
    {
      "constant": true,
      "inputs": [
        {
          "name": "_method",
          "type": "bytes32"
        }
      ],
      "name": "isPaymentMethodAllowed",
      "outputs": [
        {
          "name": "",
          "type": "bool"
        }
      ],
      "payable": false,
      "stateMutability": "view",
      "type": "function"
    },
    {
      "constant": true,
      "inputs": [
        {
          "name": "method",
          "type": "bytes32"
        },
        {
          "name": "amount",
          "type": "uint256"
        }
      ],
      "name": "getInvoice",
      "outputs": [
        {
          "name": "",
          "type": "uint256[5]"
        }
      ],
      "payable": false,
      "stateMutability": "view",
      "type": "function"
    },
    {
      "constant": false,
      "inputs": [
        {
          "name": "_account",
          "type": "address"
        }
      ],
      "name": "addAdmin",
      "outputs": [],
      "payable": false,
      "stateMutability": "nonpayable",
      "type": "function"
    },
    {
      "constant": false,
      "inputs": [
        {
          "name": "_account",
          "type": "address"
        }
      ],
      "name": "removeAdmin",
      "outputs": [],
      "payable": false,
      "stateMutability": "nonpayable",
      "type": "function"
    },
    {
      "constant": false,
      "inputs": [
        {
          "name": "_account",
          "type": "address"
        }
      ],
      "name": "addProjectOwner",
      "outputs": [],
      "payable": false,
      "stateMutability": "nonpayable",
      "type": "function"
    },
    {
      "constant": false,
      "inputs": [
        {
          "name": "_account",
          "type": "address"
        }
      ],
      "name": "removeProjectOwner",
      "outputs": [],
      "payable": false,
      "stateMutability": "nonpayable",
      "type": "function"
    },
    {
      "constant": true,
      "inputs": [
        {
          "name": "index",
          "type": "uint256"
        }
      ],
      "name": "getMilestone",
      "outputs": [
        {
          "name": "",
          "type": "uint32"
        },
        {
          "name": "",
          "type": "uint256"
        },
        {
          "name": "",
          "type": "uint32"
        },
        {
          "name": "",
          "type": "uint32"
        },
        {
          "name": "",
          "type": "bytes"
        },
        {
          "name": "",
          "type": "bytes"
        }
      ],
      "payable": false,
      "stateMutability": "view",
      "type": "function"
    },
    {
      "constant": true,
      "inputs": [
        {
          "name": "index",
          "type": "uint256"
        }
      ],
      "name": "getStage",
      "outputs": [
        {
          "name": "",
          "type": "uint32"
        },
        {
          "name": "",
          "type": "uint32"
        },
        {
          "name": "",
          "type": "uint256"
        },
        {
          "name": "",
          "type": "uint32"
        },
        {
          "name": "",
          "type": "uint256[]"
        },
        {
          "name": "",
          "type": "uint256[]"
        }
      ],
      "payable": false,
      "stateMutability": "view",
      "type": "function"
    },
    {
      "constant": true,
      "inputs": [],
      "name": "getCurrentMilestoneIndex",
      "outputs": [
        {
          "name": "index",
          "type": "uint256"
        },
        {
          "name": "found",
          "type": "bool"
        }
      ],
      "payable": false,
      "stateMutability": "view",
      "type": "function"
    },
    {
      "constant": true,
      "inputs": [],
      "name": "getLastMilestoneIndex",
      "outputs": [
        {
          "name": "index",
          "type": "uint256"
        },
        {
          "name": "found",
          "type": "bool"
        }
      ],
      "payable": false,
      "stateMutability": "view",
      "type": "function"
    },
    {
      "constant": false,
      "inputs": [
        {
          "name": "method",
          "type": "bytes32"
        },
        {
          "name": "has",
          "type": "bool"
        },
        {
          "name": "value",
          "type": "uint256"
        }
      ],
      "name": "updatePurchaseFeeParameterForPaymentMethod",
      "outputs": [],
      "payable": false,
      "stateMutability": "nonpayable",
      "type": "function"
    },
    {
      "constant": true,
      "inputs": [
        {
          "name": "method",
          "type": "bytes32"
        }
      ],
      "name": "getPurchaseFeeParameterForPaymentMethod",
      "outputs": [
        {
          "name": "",
          "type": "bool"
        },
        {
          "name": "",
          "type": "uint256"
        }
      ],
      "payable": false,
      "stateMutability": "view",
      "type": "function"
    },
    {
      "constant": true,
      "inputs": [
        {
          "name": "method",
          "type": "bytes32"
        }
      ],
      "name": "getPurchaseFeeForPaymentMethod",
      "outputs": [
        {
          "name": "",
          "type": "uint256"
        }
      ],
      "payable": false,
      "stateMutability": "view",
      "type": "function"
    },
    {
      "constant": true,
      "inputs": [
        {
          "name": "tokenAmount",
          "type": "uint256"
        },
        {
          "name": "cost",
          "type": "uint256"
        },
        {
          "name": "method",
          "type": "bytes32"
        }
      ],
      "name": "getFee",
      "outputs": [
        {
          "name": "",
          "type": "uint256[2]"
        }
      ],
      "payable": false,
      "stateMutability": "view",
      "type": "function"
    },
    {
      "constant": true,
      "inputs": [
        {
          "name": "value",
          "type": "uint256"
        }
      ],
      "name": "getSaleVolumeBonus",
      "outputs": [
        {
          "name": "bonus",
          "type": "uint256"
        }
      ],
      "payable": false,
      "stateMutability": "view",
      "type": "function"
    },
    {
      "constant": true,
      "inputs": [],
      "name": "getCurrentStageIndex",
      "outputs": [
        {
          "name": "index",
          "type": "uint256"
        },
        {
          "name": "found",
          "type": "bool"
        }
      ],
      "payable": false,
      "stateMutability": "view",
      "type": "function"
    },
    {
      "constant": false,
      "inputs": [
        {
          "name": "method",
          "type": "bytes32"
        },
        {
          "name": "amount",
          "type": "uint256"
        }
      ],
      "name": "buyTokens",
      "outputs": [],
      "payable": true,
      "stateMutability": "payable",
      "type": "function"
    },
    {
      "constant": true,
      "inputs": [
        {
          "name": "method",
          "type": "bytes32"
        },
        {
          "name": "tokenAmount",
          "type": "uint256"
        }
      ],
      "name": "getInvoiceByTokenAmount",
      "outputs": [
        {
          "name": "",
          "type": "uint256[4]"
        }
      ],
      "payable": false,
      "stateMutability": "view",
      "type": "function"
    },
    {
      "constant": true,
      "inputs": [],
      "name": "isEnded",
      "outputs": [
        {
          "name": "",
          "type": "bool"
        }
      ],
      "payable": false,
      "stateMutability": "view",
      "type": "function"
    },
    {
      "constant": true,
      "inputs": [],
      "name": "isSaleActive",
      "outputs": [
        {
          "name": "",
          "type": "bool"
        }
      ],
      "payable": false,
      "stateMutability": "view",
      "type": "function"
    }
  ],
  "bytecode": "0x60806040523480156200001157600080fd5b506040516101408062003d5583398101604090815281516020830151918301516060840151608085015160a086015160c087015160e088015161010089015161012090990151969895969495939492939192909190896200007b336401000000006200047d810204565b6200008f33640100000000620004cf810204565b60025560038054600160a060020a03191633179081905560408051600160a060020a03929092168252517f4101e71e974f68df5e9730cc223280b41654676bbb052cdcc735c3337e64d2d99181900360200190a16001600455600160a060020a0389161515620000fe57600080fd5b600160a060020a03881615156200011457600080fd5b8373__Percent_______________________________63520b006690916040518263ffffffff167c01000000000000000000000000000000000000000000000000000000000281526004018082815260200191505060206040518083038186803b1580156200018257600080fd5b505af415801562000197573d6000803e3d6000fd5b505050506040513d6020811015620001ae57600080fd5b5051801562000258575060648473__Percent_______________________________630fe9114790916040518263ffffffff167c01000000000000000000000000000000000000000000000000000000000281526004018082815260200191505060206040518083038186803b1580156200022857600080fd5b505af41580156200023d573d6000803e3d6000fd5b505050506040513d60208110156200025457600080fd5b5051105b15156200026457600080fd5b8273__Percent_______________________________63520b006690916040518263ffffffff167c01000000000000000000000000000000000000000000000000000000000281526004018082815260200191505060206040518083038186803b158015620002d257600080fd5b505af4158015620002e7573d6000803e3d6000fd5b505050506040513d6020811015620002fe57600080fd5b50518015620003a8575060648373__Percent_______________________________630fe9114790916040518263ffffffff167c01000000000000000000000000000000000000000000000000000000000281526004018082815260200191505060206040518083038186803b1580156200037857600080fd5b505af41580156200038d573d6000803e3d6000fd5b505050506040513d6020811015620003a457600080fd5b5051105b1515620003b457600080fd5b600160a060020a0382161515620003ca57600080fd5b600160a060020a0385161515620003e057600080fd5b600160a060020a0381161515620003f657600080fd5b6200040b878764010000000062000521810204565b60058054600160a060020a0319908116600160a060020a039a8b16179091556006805482169a8a169a909a17909955600a93909355600d8054891694881694909417909355600b55600780548716928616929092179091556008805490951693169290921790925550620005ff915050565b62000498600082640100000000620036736200056c82021704565b604051600160a060020a038216907f44d6d25963f097ad14f29f06854a01f575648a1ef82f30e562ccd3889717e33990600090a250565b620004ea600182640100000000620036736200056c82021704565b604051600160a060020a038216907f941e31c3e651de34a7fcf0132d9d02c2df9377e6b5f932bec5daf6353c94f90e90600090a250565b600082116200052f57600080fd5b600160a060020a03811615156200054557600080fd5b600991909155600c8054600160a060020a031916600160a060020a03909216919091179055565b600160a060020a03811615156200058257600080fd5b620005978282640100000000620005c7810204565b15620005a257600080fd5b600160a060020a0316600090815260209190915260409020805460ff19166001179055565b6000600160a060020a0382161515620005df57600080fd5b50600160a060020a03166000908152602091909152604090205460ff1690565b613746806200060f6000396000f3006080604052600436106102215763ffffffff60e060020a60003504166307f5d633811461022657806311eb8c9f1461023657806313096a411461026257806314f66d34146102935780631785f53c146102c1578063208853c9146102e25780632348238c1461030c5780632442e1cb1461032d57806324d7806c146104635780632784bb7b146104845780632e325020146104b75780632fbe5990146105a8578063313602d4146105bd5780633baba4d7146105d25780633bcdb164146105e75780633dbd6721146106085780634090cb641461062057806343f48fbd1461063557806354fd4d501461064a578063550fd7421461065f5780635641f3c3146106c4578063564566a8146106d957806359e37749146106ee578063704802751461070e578063792c02ea1461072f5780638119c06514610744578063845ddcb2146107595780638abdf5aa146107a25780638aea2af8146107b75780638bad0c0a1461080a5780638edd6eb61461081f578063a035b1fe14610834578063a4fd6f5614610849578063b13564881461085e578063b60d42881461088c578063c6dbdf61146108a1578063cd151de0146108b6578063d0934d61146108eb578063d155790b14610900578063d5b2262314610921578063d6d65f3d1461097d578063d8e9ce6414610992578063daa4cf88146109b3578063e89e4ed6146109c8578063e93b0540146109e0578063f6cf09dc146109f8578063fc0c546a14610a28575b600080fd5b610234600435602435610a3d565b005b34801561024257600080fd5b5061024e600435610c78565b604080519115158252519081900360200190f35b34801561026e57600080fd5b50610277610d0c565b60408051600160a060020a039092168252519081900360200190f35b34801561029f57600080fd5b506102a8610d1b565b6040805192835290151560208301528051918290030190f35b3480156102cd57600080fd5b50610234600160a060020a0360043516610d4e565b3480156102ee57600080fd5b506102fa600435610d6e565b60408051918252519081900360200190f35b34801561031857600080fd5b50610234600160a060020a0360043516610ec5565b34801561033957600080fd5b50610345600435610f58565b604051808763ffffffff1663ffffffff1681526020018681526020018563ffffffff1663ffffffff1681526020018463ffffffff1663ffffffff1681526020018060200180602001838103835285818151815260200191508051906020019080838360005b838110156103c25781810151838201526020016103aa565b50505050905090810190601f1680156103ef5780820380516001836020036101000a031916815260200191505b50838103825284518152845160209182019186019080838360005b8381101561042257818101518382015260200161040a565b50505050905090810190601f16801561044f5780820380516001836020036101000a031916815260200191505b509850505050505050505060405180910390f35b34801561046f57600080fd5b5061024e600160a060020a0360043516611185565b34801561049057600080fd5b5061049c60043561119d565b60408051921515835260208301919091528051918290030190f35b3480156104c357600080fd5b506104cf6004356111bb565b604051808763ffffffff1663ffffffff1681526020018663ffffffff1663ffffffff1681526020018581526020018463ffffffff1663ffffffff1681526020018060200180602001838103835285818151815260200191508051906020019060200280838360005b8381101561054f578181015183820152602001610537565b50505050905001838103825284818151815260200191508051906020019060200280838360005b8381101561058e578181015183820152602001610576565b505050509050019850505050505050505060405180910390f35b3480156105b457600080fd5b506102fa611361565b3480156105c957600080fd5b50610234611367565b3480156105de57600080fd5b506102fa611502565b3480156105f357600080fd5b50610234600160a060020a0360043516611508565b34801561061457600080fd5b506102fa600435611525565b34801561062c57600080fd5b5061027761155c565b34801561064157600080fd5b5061027761156b565b34801561065657600080fd5b506102fa61157a565b34801561066b57600080fd5b50610674611580565b60408051602080825283518183015283519192839290830191858101910280838360005b838110156106b0578181015183820152602001610698565b505050509050019250505060405180910390f35b3480156106d057600080fd5b50610277611667565b3480156106e557600080fd5b5061024e611676565b3480156106fa57600080fd5b506102346004356024351515604435611688565b34801561071a57600080fd5b50610234600160a060020a03600435166117c8565b34801561073b57600080fd5b506102fa6117e5565b34801561075057600080fd5b506102776117eb565b34801561076557600080fd5b506107716004356117fa565b6040805163ffffffff9586168152938516602085015283810192909252909216606082015290519081900360800190f35b3480156107ae57600080fd5b506102fa611840565b3480156107c357600080fd5b506107d2600435602435611846565b604051808260a080838360005b838110156107f75781810151838201526020016107df565b5050505090500191505060405180910390f35b34801561081657600080fd5b50610234611b8b565b34801561082b57600080fd5b50610277611b96565b34801561084057600080fd5b506102fa611ba5565b34801561085557600080fd5b5061024e611bab565b34801561086a57600080fd5b50610873611bf3565b6040805163ffffffff9092168252519081900360200190f35b34801561089857600080fd5b50610277611c3a565b3480156108ad57600080fd5b50610277611c49565b3480156108c257600080fd5b506108d4600435602435604435611c58565b6040805182518152908190839080838360206107df565b3480156108f757600080fd5b50610234611da8565b34801561090c57600080fd5b50610234600160a060020a0360043516611db1565b34801561092d57600080fd5b50610234602460048035828101929082013591813580830192908201359160443580830192908201359160643580830192908201359160843580830192908201359160a435918201910135611dce565b34801561098957600080fd5b506102a861215f565b34801561099e57600080fd5b5061024e600160a060020a03600435166121da565b3480156109bf57600080fd5b506102a86121ed565b3480156109d457600080fd5b50610345600435612270565b3480156109ec57600080fd5b506102346004356123de565b348015610a0457600080fd5b50610a13600435602435612449565b604051815181528082608080838360206107df565b348015610a3457600080fd5b50610277612781565b6000610a476136c1565b610a4f6136e0565b6004805460010190819055610a62611676565b1515610a6d57600080fd5b6040805160e160020a633bef842b028152600e600482015260248101889052905173__PaymentMethods________________________916377df0856916044808301926020929190829003018186803b158015610ac957600080fd5b505af4158015610add573d6000803e3d6000fd5b505050506040513d6020811015610af357600080fd5b50511515610b0057600080fd5b85610b09612790565b14610b9e576008546040805160e460020a630b12e441028152600481018990529051600092600160a060020a03169163b12e441091602480830192602092919082900301818787803b158015610b5e57600080fd5b505af1158015610b72573d6000803e3d6000fd5b505050506040513d6020811015610b8857600080fd5b5051600160a060020a03161415610b9e57600080fd5b610ba66121ed565b509350610bb38686611846565b80516020820151919450610bc79188611c58565b9150610bd382876127b4565b610c078383601187815481101515610be757fe5b600091825260209091206002600590920201015463ffffffff16896129a6565b610c12838388612bb8565b8251602080850151606080870151604080519586529385019290925283830191909152905133927f347f5f0051b895093800553e6e78ef332849e2552639a4f5ffe66535788ae07892908290030190a26004548114610c7057600080fd5b505050505050565b6040805160e160020a633bef842b028152600e600482015260248101839052905160009173__PaymentMethods________________________916377df085691604480820192602092909190829003018186803b158015610cd857600080fd5b505af4158015610cec573d6000803e3d6000fd5b505050506040513d6020811015610d0257600080fd5b505190505b919050565b600654600160a060020a031681565b60125460009081901580610d345750610d32611bab565b155b15610d3e57610d4a565b50506012546000190160015b9091565b610d5733611185565b1515610d6257600080fd5b610d6b81612e75565b50565b600080600080610d7c6121ed565b92509250811515610d8c57610ebd565b6011805484908110610d9a57fe5b9060005260206000209060050201905073__PurchaseProcessing____________________63b8005df28683600301846004016040518463ffffffff1660e060020a0281526004018084815260200180602001806020018381038352858181548152602001915080548015610e2e57602002820191906000526020600020905b815481526020019060010190808311610e1a575b50508381038252848181548152602001915080548015610e6d57602002820191906000526020600020905b815481526020019060010190808311610e59575b50509550505050505060206040518083038186803b158015610e8e57600080fd5b505af4158015610ea2573d6000803e3d6000fd5b505050506040513d6020811015610eb857600080fd5b505193505b505050919050565b600354600160a060020a03163314610edc57600080fd5b600160a060020a0381161515610ef157600080fd5b6003805473ffffffffffffffffffffffffffffffffffffffff1916600160a060020a03838116919091179182905560408051929091168252517f4101e71e974f68df5e9730cc223280b41654676bbb052cdcc735c3337e64d2d9916020908290030190a150565b600080600080606080601287815481101515610f7057fe5b60009182526020909120600590910201546012805463ffffffff9092169189908110610f9857fe5b906000526020600020906005020160010154601289815481101515610fb957fe5b60009182526020909120600260059092020101546012805463ffffffff909216918b908110610fe457fe5b906000526020600020906005020160020160049054906101000a900463ffffffff1660128b81548110151561101557fe5b906000526020600020906005020160030160128c81548110151561103557fe5b9060005260206000209060050201600401818054600181600116156101000203166002900480601f0160208091040260200160405190810160405280929190818152602001828054600181600116156101000203166002900480156110db5780601f106110b0576101008083540402835291602001916110db565b820191906000526020600020905b8154815290600101906020018083116110be57829003601f168201915b5050845460408051602060026001851615610100026000190190941693909304601f8101849004840282018401909252818152959750869450925084019050828280156111695780601f1061113e57610100808354040283529160200191611169565b820191906000526020600020905b81548152906001019060200180831161114c57829003601f168201915b5050505050905095509550955095509550955091939550919395565b6000611197818363ffffffff612ebd16565b92915050565b6000908152601060205260409020805460019091015460ff90911691565b6000806000806060806011878154811015156111d357fe5b60009182526020909120600590910201546011805463ffffffff90921691899081106111fb57fe5b906000526020600020906005020160000160049054906101000a900463ffffffff1660118981548110151561122c57fe5b90600052602060002090600502016001015460118a81548110151561124d57fe5b60009182526020909120600260059092020101546011805463ffffffff909216918c90811061127857fe5b906000526020600020906005020160030160118c81548110151561129857fe5b9060005260206000209060050201600401818054806020026020016040519081016040528092919081815260200182805480156112f457602002820191906000526020600020905b8154815260200190600101908083116112e0575b505050505091508080548060200260200160405190810160405280929190818152602001828054801561116957602002820191906000526020600020905b815481526020019060010190808311611332575050505050905095509550955095509550955091939550919395565b600b5481565b6000611372336121da565b151561137d57600080fd5b611385611bab565b151561139057600080fd5b600554604080517f70a082310000000000000000000000000000000000000000000000000000000081523060048201529051600160a060020a03909216916370a08231916024808201926020929091908290030181600087803b1580156113f657600080fd5b505af115801561140a573d6000803e3d6000fd5b505050506040513d602081101561142057600080fd5b5051600554604080517fa9059cbb000000000000000000000000000000000000000000000000000000008152336004820152602481018490529051929350600160a060020a039091169163a9059cbb916044808201926020929091908290030181600087803b15801561149257600080fd5b505af11580156114a6573d6000803e3d6000fd5b505050506040513d60208110156114bc57600080fd5b505115156114c957600080fd5b60408051828152905133917f26ffb867a6b19bc0240d4e732ed6cfb0f0b6d93143a99cfb24ba5873308861f8919081900360200190a250565b60125490565b61151133611185565b151561151c57600080fd5b610d6b81612ef4565b60008181526010602052604081205460ff16156115545750600081815260106020526040902060010154610d07565b5050600a5490565b600554600160a060020a031690565b600854600160a060020a031681565b60025481565b6060600e73__PaymentMethods________________________633b3d1a2290916040518263ffffffff1660e060020a0281526004018082815260200191505060006040518083038186803b1580156115d757600080fd5b505af41580156115eb573d6000803e3d6000fd5b505050506040513d6000823e601f3d908101601f19168201604052602081101561161457600080fd5b81019080805164010000000081111561162c57600080fd5b8201602081018481111561163f57600080fd5b815185602082028301116401000000008211171561165c57600080fd5b509094505050505090565b600c54600160a060020a031681565b6000806116816121ed565b9392505050565b61169133611185565b151561169c57600080fd5b8073__Percent_______________________________63520b006690916040518263ffffffff1660e060020a0281526004018082815260200191505060206040518083038186803b1580156116f057600080fd5b505af4158015611704573d6000803e3d6000fd5b505050506040513d602081101561171a57600080fd5b50518015611799575073__Percent_______________________________63d49d51816040518163ffffffff1660e060020a02815260040160206040518083038186803b15801561176a57600080fd5b505af415801561177e573d6000803e3d6000fd5b505050506040513d602081101561179457600080fd5b505181105b15156117a457600080fd5b600092835260106020526040909220805460ff191691151591909117815560010155565b6117d133611185565b15156117dc57600080fd5b610d6b81612f3c565b60115490565b600d54600160a060020a031681565b601180548290811061180857fe5b600091825260209091206005909102018054600182015460029092015463ffffffff8083169450640100000000909204821692911684565b600a5481565b61184e6136c1565b6000806118596136c1565b6040805160e160020a633bef842b028152600e600482015260248101889052905173__PaymentMethods________________________916377df0856916044808301926020929190829003018186803b1580156118b557600080fd5b505af41580156118c9573d6000803e3d6000fd5b505050506040513d60208110156118df57600080fd5b505115156118ec57600080fd5b6118f46121ed565b9250925081151561190457611b82565b8561190d612790565b1461199a576008546040805160e060020a63cfec719f028152600481018990529051600160a060020a039092169163cfec719f916024808201926020929091908290030181600087803b15801561196357600080fd5b505af1158015611977573d6000803e3d6000fd5b505050506040513d602081101561198d57600080fd5b5051151561199a57611b82565b6119a386612f84565b905073__PurchaseProcessing____________________6391bfca3187876011878154811015156119d057fe5b9060005260206000209060050201600101546011888154811015156119f157fe5b9060005260206000209060050201600301601189815481101515611a1157fe5b6000918252602082206004600590920201019088906020020151886001602002015189600260200201518a600360200201518b600460200201516040518b63ffffffff1660e060020a028152600401808b600019166000191681526020018a8152602001898152602001806020018060200188815260200187815260200186815260200185815260200184815260200183810383528a8181548152602001915080548015611ade57602002820191906000526020600020905b815481526020019060010190808311611aca575b50508381038252898181548152602001915080548015611b1d57602002820191906000526020600020905b815481526020019060010190808311611b09575b50509c5050505050505050505050505060a06040518083038186803b158015611b4557600080fd5b505af4158015611b59573d6000803e3d6000fd5b505050506040513d601f19601f8201168201806040525060a0811015611b7e57600080fd5b5093505b50505092915050565b611b9433612e75565b565b600754600160a060020a031690565b60095481565b6011546000901580611bee5750601180544291906000198101908110611bcd57fe5b6000918252602090912060059091020154640100000000900463ffffffff16105b905090565b6011546000908110611c0457600080fd5b601180546000198101908110611c1657fe5b6000918252602090912060059091020154640100000000900463ffffffff16919050565b600754600160a060020a031681565b600354600160a060020a031690565b611c606136e0565b6040805160e160020a633bef842b028152600e600482015260248101849052905173__PaymentMethods________________________916377df0856916044808301926020929190829003018186803b158015611cbc57600080fd5b505af4158015611cd0573d6000803e3d6000fd5b505050506040513d6020811015611ce657600080fd5b50511515611cf357600080fd5b73__PurchaseProcessing____________________636cd5c0568585600b54611d1b87611525565b6040518563ffffffff1660e060020a02815260040180858152602001848152602001838152602001828152602001945050505050604080518083038186803b158015611d6657600080fd5b505af4158015611d7a573d6000803e3d6000fd5b505050506040513d601f19601f820116820180604052506040811015611d9f57600080fd5b50949350505050565b611b943361327b565b611dba33611185565b1515611dc557600080fd5b610d6b8161327b565b6000611dd9336121da565b1515611de457600080fd5b60115460001015611e21574260116000815481101515611e0057fe5b600091825260209091206005909102015463ffffffff1611611e2157600080fd5b8b1515611e2d57600080fd5b60ff8c1115611e3b57600080fd5b60ff881115611e4957600080fd5b600286048814611e5857600080fd5b60028404881115611e6857600080fd5b811515611e7457600080fd5b5060005b81811015611f2057600854600160a060020a0316637d20abf8848484818110611e9d57fe5b6040805160e060020a63ffffffff87160281526020928302949094013560048501525160248085019492935090918290030181600087803b158015611ee157600080fd5b505af1158015611ef5573d6000803e3d6000fd5b505050506040513d6020811015611f0b57600080fd5b50511515611f1857600080fd5b600101611e78565b611fb98d8d808060200260200160405190810160405280939291908181526020016000905b82821015611f81576040805160c08181019092529080840287019060069083908390808284375050509183525050600190910190602001611f45565b50505050508c8c80806020026020016040519081016040528093929190818152602001838360200280828437506132c3945050505050565b6120808989808060200260200160405190810160405280939291908181526020016000905b8282101561201a576040805160808181019092529080840287019060049083908390808284375050509183525050600190910190602001611fde565b50505050508888808060200260200160405190810160405280939291908181526020018383602002808284375050604080516020601f8e018190048102820181019092528c815294508c93508b9250829150840183828082843750613409945050505050565b604080517ff24950e2000000000000000000000000000000000000000000000000000000008152600e60048201818152602483019384526044830186905273__PaymentMethods________________________9363f24950e293889288929091606401846020850280828437820191505094505050505060006040518083038186803b15801561210f57600080fd5b505af4158015612123573d6000803e3d6000fd5b50506040517f072792b04aecd99b2250bc76fb25f9bca793c3b7383cb4c7255a7a01e8f5a12e925060009150a150505050505050505050505050565b601254600090819015806121785750612176611bab565b155b1561218257610d4a565b5060015b60125460001901821080156121ca575060128054839081106121a457fe5b6000918252602090912060059091020160020154640100000000900463ffffffff164210155b15610d4a57600190910190612186565b600061119760018363ffffffff612ebd16565b60008080805b60115482101561226257601180548390811061220b57fe5b6000918252602090912060059091020180549091504263ffffffff90911611801590612246575080544264010000000090910463ffffffff16115b15612257578160019350935061226a565b6001909101906121f3565b600093508392505b50509091565b601280548290811061227e57fe5b60009182526020918290206005919091020180546001808301546002808501546003860180546040805161010097831615979097026000190190911693909304601f810189900489028601890190935282855263ffffffff95861698509296858216966401000000009092049095169490939291908301828280156123445780601f1061231957610100808354040283529160200191612344565b820191906000526020600020905b81548152906001019060200180831161232757829003601f168201915b5050505060048301805460408051602060026001851615610100026000190190941693909304601f81018490048402820184019092528181529495949350908301828280156123d45780601f106123a9576101008083540402835291602001916123d4565b820191906000526020600020905b8154815290600101906020018083116123b757829003601f168201915b5050505050905086565b600354600160a060020a031633146123f557600080fd5b6011546000101561243257426011600081548110151561241157fe5b600091825260209091206005909102015463ffffffff161161243257600080fd5b600c54610d6b908290600160a060020a03166135ba565b6124516136fb565b60008061245c6136c1565b6040805160e160020a633bef842b028152600e600482015260248101889052905173__PaymentMethods________________________916377df0856916044808301926020929190829003018186803b1580156124b857600080fd5b505af41580156124cc573d6000803e3d6000fd5b505050506040513d60208110156124e257600080fd5b505115156124ef57600080fd5b6124f76121ed565b9250925081151561250757611b82565b85612510612790565b1461259d576008546040805160e060020a63cfec719f028152600481018990529051600160a060020a039092169163cfec719f916024808201926020929091908290030181600087803b15801561256657600080fd5b505af115801561257a573d6000803e3d6000fd5b505050506040513d602081101561259057600080fd5b5051151561259d57611b82565b6125a686612f84565b905073__PurchaseProcessing____________________6391dab42287876011878154811015156125d357fe5b9060005260206000209060050201600101546011888154811015156125f457fe5b906000526020600020906005020160030160118981548110151561261457fe5b6000918252602082206004600590920201019088906020020151886001602002015189600260200201518a600360200201518b600460200201516040518b63ffffffff1660e060020a028152600401808b600019166000191681526020018a8152602001898152602001806020018060200188815260200187815260200186815260200185815260200184815260200183810383528a81815481526020019150805480156126e157602002820191906000526020600020905b8154815260200190600101908083116126cd575b5050838103825289818154815260200191508054801561272057602002820191906000526020600020905b81548152602001906001019080831161270c575b50509c5050505050505050505050505060806040518083038186803b15801561274857600080fd5b505af415801561275c573d6000803e3d6000fd5b505050506040513d601f19601f820116820180604052506080811015611b7e57600080fd5b600554600160a060020a031681565b7f455448000000000000000000000000000000000000000000000000000000000090565b6008546040805160e060020a63cfec719f02815260048101849052905173__PurchaseProcessing____________________92633676737c9286928692600160a060020a03169163cfec719f9160248083019260209291908290030181600087803b15801561282257600080fd5b505af1158015612836573d6000803e3d6000fd5b505050506040513d602081101561284c57600080fd5b50516128595760006128d7565b6008546040805160e460020a630b12e441028152600481018890529051600160a060020a039092169163b12e4410916024808201926020929091908290030181600087803b1580156128aa57600080fd5b505af11580156128be573d6000803e3d6000fd5b505050506040513d60208110156128d457600080fd5b50515b600554600654600d54600c546040805163ffffffff8a1660e060020a028152600160a060020a0395861695948516949384169390921691600401908190899080838360005b8381101561293457818101518382015260200161291c565b50505050919091019788525050600160a060020a039485166020870152928416604080870191909152918416606086015283166080850152911660a08301525160c08083019350600092829003018186803b15801561299257600080fd5b505af4158015610c70573d6000803e3d6000fd5b6008546040805160e060020a63cfec719f02815260048101849052905173__PurchaseProcessing____________________92634bb1e9ff928892889288928892600160a060020a039092169163cfec719f916024808201926020929091908290030181600087803b158015612a1b57600080fd5b505af1158015612a2f573d6000803e3d6000fd5b505050506040513d6020811015612a4557600080fd5b5051612a52576000612ad0565b6008546040805160e460020a630b12e441028152600481018a90529051600160a060020a039092169163b12e4410916024808201926020929091908290030181600087803b158015612aa357600080fd5b505af1158015612ab7573d6000803e3d6000fd5b505050506040513d6020811015612acd57600080fd5b50515b60055460405160e060020a63ffffffff8916028152600160a060020a0390911690600401808760a080838360005b83811015612b16578181015183820152602001612afe565b5050505090500186600260200280838360005b83811015612b41578181015183820152602001612b29565b50505063ffffffff909816920191825250602081019490945250600160a060020a039182166040808501919091529116606083015251608080830195506000945090925090829003018186803b158015612b9a57600080fd5b505af4158015612bae573d6000803e3d6000fd5b5050505050505050565b612bc0612790565b811415612c9457600754600160a060020a031663d0baf2f5612bf884600160200201518660015b60200201519063ffffffff61361016565b855160208601513391908690612c10908a6001612be7565b89600260200201516040805160e060020a63ffffffff8a16028152600160a060020a03909616600487015260248601949094526044850192909252606484015260848301525160a480830192600092919082900301818588803b158015612c7657600080fd5b505af1158015612c8a573d6000803e3d6000fd5b5050505050612e70565b6008546040805160e460020a630b12e441028152600481018490529051600160a060020a039092169163b12e4410916024808201926020929091908290030181600087803b158015612ce557600080fd5b505af1158015612cf9573d6000803e3d6000fd5b505050506040513d6020811015612d0f57600080fd5b5051600754600160a060020a039182169163a9059cbb9116612d3a8560016020020151876001612be7565b6040518363ffffffff1660e060020a0281526004018083600160a060020a0316600160a060020a0316815260200182815260200192505050602060405180830381600087803b158015612d8c57600080fd5b505af1158015612da0573d6000803e3d6000fd5b505050506040513d6020811015612db657600080fd5b50511515612dc357600080fd5b600754600160a060020a031663d0baf2f533856000602002015184612df18760016020020151896001612be7565b88600260200201516040805160e060020a63ffffffff8916028152600160a060020a03909616600487015260248601949094526044850192909252606484015260848301525160a480830192600092919082900301818387803b158015612e5757600080fd5b505af1158015612e6b573d6000803e3d6000fd5b505050505b505050565b612e8660008263ffffffff61362716565b604051600160a060020a038216907fa3b62bc36326052d97ea62d63c3d60308ed4c3ea8ac079dd8499f1e9c4f80c0f90600090a250565b6000600160a060020a0382161515612ed457600080fd5b50600160a060020a03166000908152602091909152604090205460ff1690565b612f0560018263ffffffff61367316565b604051600160a060020a038216907f941e31c3e651de34a7fcf0132d9d02c2df9377e6b5f932bec5daf6353c94f90e90600090a250565b612f4d60008263ffffffff61367316565b604051600160a060020a038216907f44d6d25963f097ad14f29f06854a01f575648a1ef82f30e562ccd3889717e33990600090a250565b612f8c6136c1565b600854604080517f8eaa6ac0000000000000000000000000000000000000000000000000000000008152600481018590529051600160a060020a0390921691638eaa6ac0916024808201926020929091908290030181600087803b158015612ff357600080fd5b505af1158015613007573d6000803e3d6000fd5b505050506040513d602081101561301d57600080fd5b50518152600954602080830191909152600554604080517f313ce5670000000000000000000000000000000000000000000000000000000081529051600160a060020a039092169263313ce567926004808401938290030181600087803b15801561308757600080fd5b505af115801561309b573d6000803e3d6000fd5b505050506040513d60208110156130b157600080fd5b505160ff166040820152816130c4612790565b146131d7576008546040805160e460020a630b12e441028152600481018590529051600160a060020a039092169163b12e4410916024808201926020929091908290030181600087803b15801561311a57600080fd5b505af115801561312e573d6000803e3d6000fd5b505050506040513d602081101561314457600080fd5b5051604080517f313ce5670000000000000000000000000000000000000000000000000000000081529051600160a060020a039092169163313ce567916004808201926020929091908290030181600087803b1580156131a357600080fd5b505af11580156131b7573d6000803e3d6000fd5b505050506040513d60208110156131cd57600080fd5b505160ff166131da565b60125b6060820152600554604080517f70a082310000000000000000000000000000000000000000000000000000000081523060048201529051600160a060020a03909216916370a08231916024808201926020929091908290030181600087803b15801561324557600080fd5b505af1158015613259573d6000803e3d6000fd5b505050506040513d602081101561326f57600080fd5b50516080820152919050565b61328c60018263ffffffff61362716565b604051600160a060020a038216907fa3bfdef3d8149bacf15b7b64199fca8228c0fd4f8fcdd11cc7871829baf319c390600090a250565b73__Crowdsale_____________________________63ae1c60546011601285856040518563ffffffff1660e060020a0281526004018085815260200184815260200180602001806020018381038352858181518152602001915080516000925b818410156133655760208085028401015160c080838360005b8381101561335457818101518382015260200161333c565b505050509050019260010192613323565b868103855287518152875160209182019450818901935002905080838360005b8381101561339d578181015183820152602001613385565b50505050905001965050505050505060006040518083038186803b1580156133c457600080fd5b505af41580156133d8573d6000803e3d6000fd5b50506040517f743961f4e677d1146fbf85d75565b1c5474fd083eb166f8b9595cf5d01a4d6e6925060009150a15050565b73__Crowdsale_____________________________63e1231f1e601160128686866040518663ffffffff1660e060020a028152600401808681526020018581526020018060200180602001806020018481038452878181518152602001915080516000925b818410156134b057602080850284010151608080838360005b8381101561349f578181015183820152602001613487565b50505050905001926001019261346e565b878103865289518152895160209182019450818b01935002905080838360005b838110156134e85781810151838201526020016134d0565b50505050905001848103825285818151815260200191508051906020019080838360005b8381101561352457818101518382015260200161350c565b50505050905090810190601f1680156135515780820380516001836020036101000a031916815260200191505b509850505050505050505060006040518083038186803b15801561357457600080fd5b505af4158015613588573d6000803e3d6000fd5b50506040517f56d9a2e016027a3725bf162ef2779c8b28d4dbec97c679cfba02dbb31a34c7ca925060009150a1505050565b600082116135c757600080fd5b600160a060020a03811615156135dc57600080fd5b600991909155600c805473ffffffffffffffffffffffffffffffffffffffff1916600160a060020a03909216919091179055565b6000808383111561362057600080fd5b5050900390565b600160a060020a038116151561363c57600080fd5b6136468282612ebd565b151561365157600080fd5b600160a060020a0316600090815260209190915260409020805460ff19169055565b600160a060020a038116151561368857600080fd5b6136928282612ebd565b1561369c57600080fd5b600160a060020a0316600090815260209190915260409020805460ff19166001179055565b60a0604051908101604052806005906020820280388339509192915050565b60408051808201825290600290829080388339509192915050565b60806040519081016040528060049060208202803883395091929150505600a165627a7a72305820409fd0d1b351a6afe56d59b88e6658e1eb04705b10257a4afd6842856c0dc8550029",
  "source": "pragma solidity 0.4.24;\n\nimport \"openzeppelin-solidity/contracts/ownership/Secondary.sol\";\nimport \"openzeppelin-solidity/contracts/utils/ReentrancyGuard.sol\";\nimport \"openzeppelin-solidity/contracts/math/SafeMath.sol\";\nimport \"openzeppelin-solidity/contracts/token/ERC20/IERC20.sol\";\nimport \"openzeppelin-solidity/contracts/token/ERC20/ERC20Detailed.sol\";\nimport \"./IW12Crowdsale.sol\";\nimport \"./IW12Fund.sol\";\nimport \"../rates/IRates.sol\";\nimport \"../libs/Percent.sol\";\nimport \"../libs/PaymentMethods.sol\";\nimport \"../libs/PurchaseProcessing.sol\";\nimport \"../libs/Crowdsale.sol\";\nimport \"../versioning/Versionable.sol\";\nimport \"../token/IWToken.sol\";\nimport \"../access/roles/AdminRole.sol\";\nimport \"../access/roles/ProjectOwnerRole.sol\";\n\n\ncontract W12Crowdsale is IW12Crowdsale, AdminRole, ProjectOwnerRole, Versionable, Secondary, ReentrancyGuard {\n    using SafeMath for uint;\n    using SafeMath for uint8;\n    using Percent for uint;\n    using PaymentMethods for PaymentMethods.Methods;\n\n    struct PaymentMethodPurchaseFee {\n        bool has;\n        uint value;\n    }\n\n    IWToken public token;\n    IERC20 public originToken;\n    IW12Fund public fund;\n    IRates public rates;\n    uint public price;\n    uint public serviceFee;\n    // solhint-disable-next-line var-name-mixedcase\n    uint public WTokenSaleFeePercent;\n    address public serviceWallet;\n    address public swap;\n\n    // list of payment methods\n    PaymentMethods.Methods private paymentMethods;\n    mapping(bytes32 => PaymentMethodPurchaseFee) private paymentMethodsPurchaseFee;\n\n    Crowdsale.Stage[] public stages;\n    Crowdsale.Milestone[] public milestones;\n\n    event TokenPurchase(address indexed buyer, uint tokensBought, uint cost, uint change);\n\n    event StagesUpdated();\n\n    event StageUpdated(uint index);\n\n    event MilestonesUpdated();\n\n    event CrowdsaleSetUpDone();\n\n    event UnsoldTokenReturned(address indexed owner, uint amount);\n\n    constructor (\n        uint version,\n        address _originToken,\n        address _token,\n        uint _price,\n        address _serviceWallet,\n        address _swap,\n        uint _serviceFee,\n        uint _wTokenSaleFeePercent,\n        IW12Fund _fund,\n        IRates _rates\n    )\n        public Versionable(version)\n    {\n        require(_originToken != address(0));\n        require(_token != address(0));\n        require(_serviceFee.isPercent() && _serviceFee.fromPercent() < 100);\n        require(_wTokenSaleFeePercent.isPercent() && _wTokenSaleFeePercent.fromPercent() < 100);\n        require(_fund != address(0));\n        require(_swap != address(0));\n        require(_rates != address(0));\n\n        __setParameters(_price, _serviceWallet);\n\n        token = IWToken(_token);\n        originToken = IERC20(_originToken);\n        serviceFee = _serviceFee;\n        swap = _swap;\n        WTokenSaleFeePercent = _wTokenSaleFeePercent;\n        fund = _fund;\n        rates = _rates;\n    }\n\n    function setParameters(uint _price) external onlyPrimary beforeSaleStart {\n        __setParameters(_price, serviceWallet);\n    }\n\n    /**\n     * @dev Setup all crowdsale parameters at a time\n     */\n    function setup(\n        uint[6][] parametersOfStages,\n        uint[] bonusConditionsOfStages,\n        uint[4][] parametersOfMilestones,\n        uint32[] nameAndDescriptionsOffsetOfMilestones,\n        bytes nameAndDescriptionsOfMilestones,\n        bytes32[] paymentMethodsList\n    )\n        external onlyProjectOwner beforeSaleStart\n    {\n        // primary check of parameters of stages\n        require(parametersOfStages.length != 0);\n        require(parametersOfStages.length <= uint8(-1));\n\n        // primary check of parameters of milestones\n        require(parametersOfMilestones.length <= uint8(-1));\n        require(parametersOfMilestones.length == nameAndDescriptionsOffsetOfMilestones.length / 2);\n        require(parametersOfMilestones.length <= nameAndDescriptionsOfMilestones.length / 2);\n\n        // check payment methods list\n        require(paymentMethodsList.length != 0);\n\n        for (uint i = 0; i < paymentMethodsList.length; i++) {\n            require(rates.hasSymbol(paymentMethodsList[i]));\n        }\n\n        _setStages(\n            parametersOfStages,\n            bonusConditionsOfStages\n        );\n\n        _setMilestones(\n            parametersOfMilestones,\n            nameAndDescriptionsOffsetOfMilestones,\n            nameAndDescriptionsOfMilestones\n        );\n\n        paymentMethods.update(paymentMethodsList);\n\n        emit CrowdsaleSetUpDone();\n    }\n\n    function claimRemainingTokens() external onlyProjectOwner {\n        require(isEnded());\n\n        uint amount = token.balanceOf(address(this));\n\n        require(token.transfer(msg.sender, amount));\n\n        emit UnsoldTokenReturned(msg.sender, amount);\n    }\n\n    function stagesLength() external view returns (uint) {\n        return stages.length;\n    }\n\n    function milestonesLength() external view returns (uint) {\n        return milestones.length;\n    }\n\n    function getEndDate() external view returns (uint32) {\n        require(stages.length > 0);\n\n        return stages[stages.length - 1].endDate;\n    }\n\n    function getWToken() external view returns (IWToken) {\n        return token;\n    }\n\n    function getFund() external view returns (IW12Fund) {\n        return fund;\n    }\n\n    function getPaymentMethodsList() external view returns (bytes32[]) {\n        return paymentMethods.list();\n    }\n\n    function isPaymentMethodAllowed(bytes32 _method) external view returns (bool) {\n        return paymentMethods.isAllowed(_method);\n    }\n\n    function getInvoice(bytes32 method, uint amount) public view returns (uint[5]) {\n        require(paymentMethods.isAllowed(method));\n\n        (uint index, bool found) = getCurrentStageIndex();\n\n        if (!found) return;\n\n        if (PurchaseProcessing.METHOD_ETH() != method) {\n            if (!rates.isToken(method)) {\n                return;\n            }\n        }\n\n        uint[5] memory lastArguments = _getInvoiceLastArguments(method);\n\n        return PurchaseProcessing.invoice(\n            method,\n            amount,\n            stages[index].discount,\n            stages[index].volumeBoundaries,\n            stages[index].volumeBonuses,\n            lastArguments[0],\n            lastArguments[1],\n            lastArguments[2],\n            lastArguments[3],\n            lastArguments[4]\n        );\n    }\n\n    function addAdmin(address _account) public onlyAdmin {\n        _addAdmin(_account);\n    }\n\n    function removeAdmin(address _account) public onlyAdmin {\n        _removeAdmin(_account);\n    }\n\n    function addProjectOwner(address _account) public onlyAdmin {\n        _addProjectOwner(_account);\n    }\n\n    function removeProjectOwner(address _account) public onlyAdmin {\n        _removeProjectOwner(_account);\n    }\n\n    function getMilestone(uint index) public view returns (uint32, uint, uint32, uint32, bytes, bytes) {\n        return (\n            milestones[index].endDate,\n            milestones[index].tranchePercent,\n            milestones[index].voteEndDate,\n            milestones[index].withdrawalWindow,\n            milestones[index].name,\n            milestones[index].description\n        );\n    }\n\n    function getStage(uint index) public view returns (uint32, uint32, uint, uint32, uint[], uint[]) {\n        return (\n            stages[index].startDate,\n            stages[index].endDate,\n            stages[index].discount,\n            stages[index].vesting,\n            stages[index].volumeBoundaries,\n            stages[index].volumeBonuses\n        );\n    }\n\n    /**\n     * @dev Returns index of active milestone or last milestone\n     */\n    function getCurrentMilestoneIndex() public view returns(uint index, bool found) {\n        if (milestones.length == 0 || !isEnded()) return;\n\n        found = true;\n\n        // from withdrawalWindow begins next milestone\n        while (index < milestones.length - 1 && now >= milestones[index].withdrawalWindow) {\n            index++;\n        }\n    }\n\n    function getLastMilestoneIndex() public view returns(uint index, bool found) {\n        if (milestones.length == 0 || !isEnded()) return;\n\n        found = true;\n        index = milestones.length - 1;\n    }\n\n    function updatePurchaseFeeParameterForPaymentMethod(bytes32 method, bool has, uint value) public onlyAdmin {\n        require(value.isPercent() && value < Percent.MAX());\n        paymentMethodsPurchaseFee[method].has = has;\n        paymentMethodsPurchaseFee[method].value = value;\n    }\n\n    function getPurchaseFeeParameterForPaymentMethod(bytes32 method) public view returns(bool, uint) {\n        return (paymentMethodsPurchaseFee[method].has, paymentMethodsPurchaseFee[method].value);\n    }\n\n    function getPurchaseFeeForPaymentMethod(bytes32 method) public view returns(uint) {\n        if (paymentMethodsPurchaseFee[method].has) {\n            return paymentMethodsPurchaseFee[method].value;\n        }\n        return serviceFee;\n    }\n\n    function getFee(uint tokenAmount, uint cost, bytes32 method) public view returns (uint[2]) {\n        require(paymentMethods.isAllowed(method));\n        return PurchaseProcessing.fee(tokenAmount, cost, WTokenSaleFeePercent, getPurchaseFeeForPaymentMethod(method));\n    }\n\n    function getSaleVolumeBonus(uint value) public view returns (uint bonus) {\n        (uint index, bool found) = getCurrentStageIndex();\n\n        if (!found) return;\n\n        Crowdsale.Stage storage stage = stages[index];\n\n        return PurchaseProcessing.getBonus(value, stage.volumeBoundaries, stage.volumeBonuses);\n    }\n\n    function getCurrentStageIndex() public view returns (uint index, bool found) {\n        for (uint i = 0; i < stages.length; i++) {\n            Crowdsale.Stage storage stage = stages[i];\n\n            if (stage.startDate <= now && stage.endDate > now) {\n                return (i, true);\n            }\n        }\n\n        return (0, false);\n    }\n\n    function buyTokens(bytes32 method, uint amount) public payable nonReentrant onlyWhenSaleActive {\n        require(paymentMethods.isAllowed(method));\n\n        if (PurchaseProcessing.METHOD_ETH() != method) {\n            require(rates.getTokenAddress(method) != address(0));\n        }\n\n        (uint index, /*bool found*/) = getCurrentStageIndex();\n\n        uint[5] memory invoice = getInvoice(method, amount);\n        uint[2] memory fee = getFee(invoice[0], invoice[1], method);\n\n        _transferFee(fee, method);\n        _transferPurchase(invoice, fee, stages[index].vesting, method);\n        _recordPurchase(invoice, fee, method);\n\n        emit TokenPurchase(msg.sender, invoice[0], invoice[1], invoice[3]);\n    }\n\n    function getInvoiceByTokenAmount(bytes32 method, uint tokenAmount) public view returns (uint[4]) {\n        require(paymentMethods.isAllowed(method));\n\n        (uint index, bool found) = getCurrentStageIndex();\n\n        if (!found) return;\n\n        if (PurchaseProcessing.METHOD_ETH() != method) {\n            if (!rates.isToken(method)) {\n                return;\n            }\n        }\n\n        uint[5] memory lastArguments = _getInvoiceByTokenAmountLastArguments(method);\n\n        return PurchaseProcessing.invoiceByTokenAmount(\n            method,\n            tokenAmount,\n            stages[index].discount,\n            stages[index].volumeBoundaries,\n            stages[index].volumeBonuses,\n            lastArguments[0],\n            lastArguments[1],\n            lastArguments[2],\n            lastArguments[3],\n            lastArguments[4]\n        );\n    }\n\n    function isEnded() public view returns (bool) {\n        return stages.length == 0 || stages[stages.length - 1].endDate < now;\n    }\n\n    function isSaleActive() public view returns (bool) {\n        (, bool found) = getCurrentStageIndex();\n\n        return found;\n    }\n\n    /**\n     * @dev Update stages\n     * @param parameters List of primary parameters:\n     * [\n     *   uint32 startDate,\n     *   uint32 endDate,\n     *   uint discount,\n     *   uint32 vesting,\n     *   uint8 startIndexOfBonusConditions\n     *   uint8 endIndexOfBonusConditions\n     * ],\n     * @param bonusConditions List of bonus conditions:\n     * [uint boundary, uint bonus, ...]\n     */\n    function _setStages(uint[6][] parameters, uint[] bonusConditions) internal {\n        Crowdsale.setStages(stages, milestones, parameters, bonusConditions);\n\n        emit StagesUpdated();\n    }\n\n    /**\n     * @dev Update milestones\n     * @param parameters List of primary parameters:\n     * [\n     *   uint32 endDate,\n     *   uint32 voteEndDate,\n     *   uint32 withdrawalWindow,\n     *   uint tranchPercent\n     * ]\n     * @param offsets Offsets of names and descriptions in namesAndDescriptions:\n     * [uint32 offset1, uint32 offset2, ...]\n     * @param namesAndDescriptions Names and descriptions\n     */\n    function _setMilestones(\n        uint[4][] parameters,\n        uint32[] offsets,\n        bytes namesAndDescriptions\n    )\n        internal\n    {\n        Crowdsale.setMilestones(stages, milestones, parameters, offsets, namesAndDescriptions);\n\n        emit MilestonesUpdated();\n    }\n\n    function __setParameters(uint _price, address _serviceWallet) internal {\n        require(_price > 0);\n        require(_serviceWallet != address(0));\n\n        price = _price;\n        serviceWallet = _serviceWallet;\n    }\n\n    function _transferFee(uint[2] _fee, bytes32 method) internal {\n        PurchaseProcessing.transferFee(\n            _fee,\n            method,\n            rates.isToken(method) ? rates.getTokenAddress(method) : address(0),\n            address(token),\n            address(originToken),\n            swap,\n            serviceWallet\n        );\n    }\n\n    function _transferPurchase(uint[5] _invoice, uint[2] _fee, uint32 vesting, bytes32 method) internal {\n        PurchaseProcessing.transferPurchase(\n            _invoice,\n            _fee,\n            vesting,\n            method,\n            rates.isToken(method) ? address(rates.getTokenAddress(method)) : address(0),\n            address(token)\n        );\n    }\n\n    function _recordPurchase(uint[5] _invoice, uint[2] _fee, bytes32 method) internal {\n        if (method == PurchaseProcessing.METHOD_ETH()) {\n            fund.recordPurchase.value(_invoice[1].sub(_fee[1]))(\n                msg.sender, _invoice[0], method, _invoice[1].sub(_fee[1]), _invoice[2]);\n        } else {\n            require(IERC20(rates.getTokenAddress(method)).transfer(address(fund), _invoice[1].sub(_fee[1])));\n            fund.recordPurchase(msg.sender, _invoice[0], method, _invoice[1].sub(_fee[1]), _invoice[2]);\n        }\n    }\n\n    function _getInvoiceLastArguments(bytes32 method) internal view returns(uint[5] result) {\n        result[0] = rates.get(method);\n        result[1] = price;\n        result[2] = uint(token.decimals());\n        result[3] = PurchaseProcessing.METHOD_ETH() == method\n            ? 18\n            : uint(ERC20Detailed(rates.getTokenAddress(method)).decimals());\n        result[4] = token.balanceOf(address(this));\n    }\n\n    function _getInvoiceByTokenAmountLastArguments(bytes32 method) internal view returns (uint[5] result) {\n        result[0] = rates.get(method);\n        result[1] = price;\n        result[2] = uint(token.decimals());\n        result[3] = PurchaseProcessing.METHOD_ETH() == method\n            ? 18\n            : uint(ERC20Detailed(rates.getTokenAddress(method)).decimals());\n        result[4] = token.balanceOf(address(this));\n    }\n\n    modifier beforeSaleStart() {\n        if (stages.length > 0) {\n            require(stages[0].startDate > now);\n        }\n\n        _;\n    }\n\n    modifier onlyWhenSaleActive() {\n        require(isSaleActive());\n\n        _;\n    }\n}\n",
  "sourcePath": "/home/andrey/Code/w12/platform-contracts/contracts/crowdsale/W12Crowdsale.sol",
  "compiler": {
    "name": "solc",
    "version": "0.4.24+commit.e67f0147.Emscripten.clang"
  },
  "schemaVersion": "2.0.1",
  "updatedAt": "2019-03-06T08:53:21.001Z"
}