{
  "contractName": "W12Crowdsale",
  "abi": [
    {
      "constant": true,
      "inputs": [],
      "name": "startDate",
      "outputs": [
        {
          "name": "",
          "type": "uint32"
        }
      ],
      "payable": false,
      "stateMutability": "view",
      "type": "function"
    },
    {
      "constant": true,
      "inputs": [],
      "name": "serviceWallet",
      "outputs": [
        {
          "name": "",
          "type": "address"
        }
      ],
      "payable": false,
      "stateMutability": "view",
      "type": "function"
    },
    {
      "constant": false,
      "inputs": [],
      "name": "renounceOwnership",
      "outputs": [],
      "payable": false,
      "stateMutability": "nonpayable",
      "type": "function"
    },
    {
      "constant": true,
      "inputs": [
        {
          "name": "",
          "type": "uint256"
        }
      ],
      "name": "stages",
      "outputs": [
        {
          "name": "endDate",
          "type": "uint32"
        },
        {
          "name": "discount",
          "type": "uint8"
        },
        {
          "name": "vesting",
          "type": "uint32"
        }
      ],
      "payable": false,
      "stateMutability": "view",
      "type": "function"
    },
    {
      "constant": true,
      "inputs": [],
      "name": "serviceFee",
      "outputs": [
        {
          "name": "",
          "type": "uint8"
        }
      ],
      "payable": false,
      "stateMutability": "view",
      "type": "function"
    },
    {
      "constant": true,
      "inputs": [],
      "name": "owner",
      "outputs": [
        {
          "name": "",
          "type": "address"
        }
      ],
      "payable": false,
      "stateMutability": "view",
      "type": "function"
    },
    {
      "constant": true,
      "inputs": [],
      "name": "price",
      "outputs": [
        {
          "name": "",
          "type": "uint256"
        }
      ],
      "payable": false,
      "stateMutability": "view",
      "type": "function"
    },
    {
      "constant": true,
      "inputs": [],
      "name": "fund",
      "outputs": [
        {
          "name": "",
          "type": "address"
        }
      ],
      "payable": false,
      "stateMutability": "view",
      "type": "function"
    },
    {
      "constant": true,
      "inputs": [
        {
          "name": "",
          "type": "uint256"
        }
      ],
      "name": "milestones",
      "outputs": [
        {
          "name": "endDate",
          "type": "uint32"
        },
        {
          "name": "tranchePercent",
          "type": "uint8"
        },
        {
          "name": "voteEndDate",
          "type": "uint32"
        },
        {
          "name": "withdrawalWindow",
          "type": "uint32"
        },
        {
          "name": "name",
          "type": "bytes"
        },
        {
          "name": "description",
          "type": "bytes"
        }
      ],
      "payable": false,
      "stateMutability": "view",
      "type": "function"
    },
    {
      "constant": false,
      "inputs": [
        {
          "name": "newOwner",
          "type": "address"
        }
      ],
      "name": "transferOwnership",
      "outputs": [],
      "payable": false,
      "stateMutability": "nonpayable",
      "type": "function"
    },
    {
      "constant": true,
      "inputs": [],
      "name": "token",
      "outputs": [
        {
          "name": "",
          "type": "address"
        }
      ],
      "payable": false,
      "stateMutability": "view",
      "type": "function"
    },
    {
      "inputs": [
        {
          "name": "_token",
          "type": "address"
        },
        {
          "name": "_startDate",
          "type": "uint32"
        },
        {
          "name": "_price",
          "type": "uint256"
        },
        {
          "name": "_serviceWallet",
          "type": "address"
        },
        {
          "name": "_serviceFee",
          "type": "uint8"
        },
        {
          "name": "_fund",
          "type": "address"
        }
      ],
      "payable": false,
      "stateMutability": "nonpayable",
      "type": "constructor"
    },
    {
      "payable": true,
      "stateMutability": "payable",
      "type": "fallback"
    },
    {
      "anonymous": false,
      "inputs": [
        {
          "indexed": true,
          "name": "buyer",
          "type": "address"
        },
        {
          "indexed": false,
          "name": "amountPaid",
          "type": "uint256"
        },
        {
          "indexed": false,
          "name": "tokensBought",
          "type": "uint256"
        }
      ],
      "name": "TokenPurchase",
      "type": "event"
    },
    {
      "anonymous": false,
      "inputs": [],
      "name": "StagesUpdated",
      "type": "event"
    },
    {
      "anonymous": false,
      "inputs": [
        {
          "indexed": true,
          "name": "previousOwner",
          "type": "address"
        }
      ],
      "name": "OwnershipRenounced",
      "type": "event"
    },
    {
      "anonymous": false,
      "inputs": [
        {
          "indexed": true,
          "name": "previousOwner",
          "type": "address"
        },
        {
          "indexed": true,
          "name": "newOwner",
          "type": "address"
        }
      ],
      "name": "OwnershipTransferred",
      "type": "event"
    },
    {
      "constant": true,
      "inputs": [],
      "name": "stagesLength",
      "outputs": [
        {
          "name": "",
          "type": "uint256"
        }
      ],
      "payable": false,
      "stateMutability": "view",
      "type": "function"
    },
    {
      "constant": true,
      "inputs": [],
      "name": "milestonesLength",
      "outputs": [
        {
          "name": "",
          "type": "uint256"
        }
      ],
      "payable": false,
      "stateMutability": "view",
      "type": "function"
    },
    {
      "constant": true,
      "inputs": [
        {
          "name": "stageNumber",
          "type": "uint256"
        }
      ],
      "name": "getStageVolumeBoundaries",
      "outputs": [
        {
          "name": "",
          "type": "uint256[]"
        }
      ],
      "payable": false,
      "stateMutability": "view",
      "type": "function"
    },
    {
      "constant": true,
      "inputs": [
        {
          "name": "stageNumber",
          "type": "uint256"
        }
      ],
      "name": "getStageVolumeBonuses",
      "outputs": [
        {
          "name": "",
          "type": "uint8[]"
        }
      ],
      "payable": false,
      "stateMutability": "view",
      "type": "function"
    },
    {
      "constant": false,
      "inputs": [
        {
          "name": "_startDate",
          "type": "uint32"
        },
        {
          "name": "_price",
          "type": "uint256"
        },
        {
          "name": "_serviceWallet",
          "type": "address"
        }
      ],
      "name": "setParameters",
      "outputs": [],
      "payable": false,
      "stateMutability": "nonpayable",
      "type": "function"
    },
    {
      "constant": false,
      "inputs": [
        {
          "name": "stage_endDates",
          "type": "uint32[]"
        },
        {
          "name": "stage_discounts",
          "type": "uint8[]"
        },
        {
          "name": "stage_vestings",
          "type": "uint32[]"
        }
      ],
      "name": "setStages",
      "outputs": [],
      "payable": false,
      "stateMutability": "nonpayable",
      "type": "function"
    },
    {
      "constant": false,
      "inputs": [
        {
          "name": "stage",
          "type": "uint256"
        },
        {
          "name": "volumeBoundaries",
          "type": "uint256[]"
        },
        {
          "name": "volumeBonuses",
          "type": "uint8[]"
        }
      ],
      "name": "setStageVolumeBonuses",
      "outputs": [],
      "payable": false,
      "stateMutability": "nonpayable",
      "type": "function"
    },
    {
      "constant": false,
      "inputs": [
        {
          "name": "dates",
          "type": "uint32[]"
        },
        {
          "name": "tranchePercents",
          "type": "uint8[]"
        },
        {
          "name": "offsets",
          "type": "uint32[]"
        },
        {
          "name": "namesAndDescriptions",
          "type": "bytes"
        }
      ],
      "name": "setMilestones",
      "outputs": [],
      "payable": false,
      "stateMutability": "nonpayable",
      "type": "function"
    },
    {
      "constant": false,
      "inputs": [],
      "name": "buyTokens",
      "outputs": [],
      "payable": true,
      "stateMutability": "payable",
      "type": "function"
    },
    {
      "constant": true,
      "inputs": [],
      "name": "getWToken",
      "outputs": [
        {
          "name": "",
          "type": "address"
        }
      ],
      "payable": false,
      "stateMutability": "view",
      "type": "function"
    },
    {
      "constant": true,
      "inputs": [],
      "name": "getFund",
      "outputs": [
        {
          "name": "",
          "type": "address"
        }
      ],
      "payable": false,
      "stateMutability": "view",
      "type": "function"
    },
    {
      "constant": false,
      "inputs": [],
      "name": "claimRemainingTokens",
      "outputs": [],
      "payable": false,
      "stateMutability": "nonpayable",
      "type": "function"
    }
  ],
  "bytecode": "0x608060405260008060146101000a81548160ff0219169083151502179055503480156200002b57600080fd5b5060405160c08062002c3c833981018060405281019080805190602001909291908051906020019092919080519060200190929190805190602001909291908051906020019092919080519060200190929190505050336000806101000a81548173ffffffffffffffffffffffffffffffffffffffff021916908373ffffffffffffffffffffffffffffffffffffffff160217905550600073ffffffffffffffffffffffffffffffffffffffff168673ffffffffffffffffffffffffffffffffffffffff1614151515620000fe57600080fd5b60008260ff161015801562000116575060648260ff16105b15156200012257600080fd5b600073ffffffffffffffffffffffffffffffffffffffff168173ffffffffffffffffffffffffffffffffffffffff16141515156200015f57600080fd5b85600160006101000a81548173ffffffffffffffffffffffffffffffffffffffff021916908373ffffffffffffffffffffffffffffffffffffffff160217905550620001bc85858562000224640100000000026401000000009004565b81600360006101000a81548160ff021916908360ff16021790555080600460006101000a81548173ffffffffffffffffffffffffffffffffffffffff021916908373ffffffffffffffffffffffffffffffffffffffff160217905550505050505050620002f5565b428363ffffffff16101515156200023a57600080fd5b6000821115156200024a57600080fd5b600073ffffffffffffffffffffffffffffffffffffffff168173ffffffffffffffffffffffffffffffffffffffff16141515156200028757600080fd5b82600160146101000a81548163ffffffff021916908363ffffffff1602179055508160028190555080600360016101000a81548173ffffffffffffffffffffffffffffffffffffffff021916908373ffffffffffffffffffffffffffffffffffffffff160217905550505050565b61293780620003056000396000f300608060405260043610610133576000357c0100000000000000000000000000000000000000000000000000000000900463ffffffff1680630b97bc861461013d5780630d544ffe146101745780630ee62c77146101f7578063313602d4146102795780633baba4d7146102905780634090cb64146102bb578063521b7499146103125780635641f3c31461036f578063715018a6146103c6578063792c02ea146103dd578063845ddcb2146104085780638abdf5aa146104755780638da5cb5b146104a65780638edd6eb6146104fd5780639bed31e414610554578063a035b1fe146105b1578063b60d4288146105dc578063d0febe4c14610633578063e89e4ed61461063d578063f12585f514610795578063f2fde38b14610817578063f9cbcef01461085a578063fc0c546a146108c5575b61013b61091c565b005b34801561014957600080fd5b50610152610d83565b604051808263ffffffff1663ffffffff16815260200191505060405180910390f35b34801561018057600080fd5b506101f5600480360381019080803590602001908201803590602001919091929391929390803590602001908201803590602001919091929391929390803590602001908201803590602001919091929391929390803590602001908201803590602001919091929391929390505050610d99565b005b34801561020357600080fd5b5061022260048036038101908080359060200190929190505050611404565b6040518080602001828103825283818151815260200191508051906020019060200280838360005b8381101561026557808201518184015260208101905061024a565b505050509050019250505060405180910390f35b34801561028557600080fd5b5061028e6114a2565b005b34801561029c57600080fd5b506102a5611736565b6040518082815260200191505060405180910390f35b3480156102c757600080fd5b506102d0611743565b604051808273ffffffffffffffffffffffffffffffffffffffff1673ffffffffffffffffffffffffffffffffffffffff16815260200191505060405180910390f35b34801561031e57600080fd5b5061036d6004803603810190808035906020019092919080359060200190820180359060200191909192939192939080359060200190820180359060200191909192939192939050505061176d565b005b34801561037b57600080fd5b506103846118ae565b604051808273ffffffffffffffffffffffffffffffffffffffff1673ffffffffffffffffffffffffffffffffffffffff16815260200191505060405180910390f35b3480156103d257600080fd5b506103db6118d4565b005b3480156103e957600080fd5b506103f26119d6565b6040518082815260200191505060405180910390f35b34801561041457600080fd5b50610433600480360381019080803590602001909291905050506119e3565b604051808463ffffffff1663ffffffff1681526020018360ff1660ff1681526020018263ffffffff1663ffffffff168152602001935050505060405180910390f35b34801561048157600080fd5b5061048a611a49565b604051808260ff1660ff16815260200191505060405180910390f35b3480156104b257600080fd5b506104bb611a5c565b604051808273ffffffffffffffffffffffffffffffffffffffff1673ffffffffffffffffffffffffffffffffffffffff16815260200191505060405180910390f35b34801561050957600080fd5b50610512611a81565b604051808273ffffffffffffffffffffffffffffffffffffffff1673ffffffffffffffffffffffffffffffffffffffff16815260200191505060405180910390f35b34801561056057600080fd5b506105af600480360381019080803563ffffffff16906020019092919080359060200190929190803573ffffffffffffffffffffffffffffffffffffffff169060200190929190505050611aab565b005b3480156105bd57600080fd5b506105c6611b16565b6040518082815260200191505060405180910390f35b3480156105e857600080fd5b506105f1611b1c565b604051808273ffffffffffffffffffffffffffffffffffffffff1673ffffffffffffffffffffffffffffffffffffffff16815260200191505060405180910390f35b61063b61091c565b005b34801561064957600080fd5b5061066860048036038101908080359060200190929190505050611b42565b604051808763ffffffff1663ffffffff1681526020018660ff1660ff1681526020018563ffffffff1663ffffffff1681526020018463ffffffff1663ffffffff1681526020018060200180602001838103835285818151815260200191508051906020019080838360005b838110156106ee5780820151818401526020810190506106d3565b50505050905090810190601f16801561071b5780820380516001836020036101000a031916815260200191505b50838103825284818151815260200191508051906020019080838360005b83811015610754578082015181840152602081019050610739565b50505050905090810190601f1680156107815780820380516001836020036101000a031916815260200191505b509850505050505050505060405180910390f35b3480156107a157600080fd5b506107c060048036038101908080359060200190929190505050611cfa565b6040518080602001828103825283818151815260200191508051906020019060200280838360005b838110156108035780820151818401526020810190506107e8565b505050509050019250505060405180910390f35b34801561082357600080fd5b50610858600480360381019080803573ffffffffffffffffffffffffffffffffffffffff169060200190929190505050611d72565b005b34801561086657600080fd5b506108c3600480360381019080803590602001908201803590602001919091929391929390803590602001908201803590602001919091929391929390803590602001908201803590602001919091929391929390505050611ec7565b005b3480156108d157600080fd5b506108da6122bc565b604051808273ffffffffffffffffffffffffffffffffffffffff1673ffffffffffffffffffffffffffffffffffffffff16815260200191505060405180910390f35b60008060008060008060149054906101000a900460ff1615151561093f57600080fd5b6001600060146101000a81548160ff02191690831515021790555060003411151561096957600080fd5b42600160149054906101000a900463ffffffff1663ffffffff161115151561099057600080fd5b60006005805490501115156109a457600080fd5b6109ac6122e2565b94509450945060008560ff16116109c5576002546109f4565b6109f360646109e58760640360ff1660025461247e90919063ffffffff16565b6124b690919063ffffffff16565b5b9150610a346064610a2684610a188760640160ff163461247e90919063ffffffff16565b6124b690919063ffffffff16565b6124b690919063ffffffff16565b9050600160009054906101000a900473ffffffffffffffffffffffffffffffffffffffff1673ffffffffffffffffffffffffffffffffffffffff16639d2e47773383876040518463ffffffff167c0100000000000000000000000000000000000000000000000000000000028152600401808473ffffffffffffffffffffffffffffffffffffffff1673ffffffffffffffffffffffffffffffffffffffff1681526020018381526020018263ffffffff1663ffffffff1681526020019350505050602060405180830381600087803b158015610b0f57600080fd5b505af1158015610b23573d6000803e3d6000fd5b505050506040513d6020811015610b3957600080fd5b81019080805190602001909291905050501515610b5557600080fd5b6000600360009054906101000a900460ff1660ff161115610c1157600360019054906101000a900473ffffffffffffffffffffffffffffffffffffffff1673ffffffffffffffffffffffffffffffffffffffff166108fc610be46064610bd6600360009054906101000a900460ff1660ff163461247e90919063ffffffff16565b6124b690919063ffffffff16565b9081150290604051600060405180830381858888f19350505050158015610c0f573d6000803e3d6000fd5b505b600460009054906101000a900473ffffffffffffffffffffffffffffffffffffffff1673ffffffffffffffffffffffffffffffffffffffff1663958799cb3073ffffffffffffffffffffffffffffffffffffffff1631620186a09033856040518563ffffffff167c0100000000000000000000000000000000000000000000000000000000028152600401808373ffffffffffffffffffffffffffffffffffffffff1673ffffffffffffffffffffffffffffffffffffffff168152602001828152602001925050506000604051808303818589803b158015610cf257600080fd5b5088f1158015610d06573d6000803e3d6000fd5b5050505050503373ffffffffffffffffffffffffffffffffffffffff167fcd60aa75dea3072fbc07ae6d7d856b5dc5f4eee88854f5b4abf7b680ef8bc50f3483604051808381526020018281526020019250505060405180910390a260008060146101000a81548160ff0219169083151502179055505050505050565b600160149054906101000a900463ffffffff1681565b6000806060806000809054906101000a900473ffffffffffffffffffffffffffffffffffffffff1673ffffffffffffffffffffffffffffffffffffffff163373ffffffffffffffffffffffffffffffffffffffff16141515610dfa57600080fd5b6000600680549050141515610e0e57600080fd5b7fffffffffffffffffffffffffffffffffffffffffffffffffffffffffffffffff60ff168c8c905011151515610e4357600080fd5b60038c8c9050111515610e5557600080fd5b600060038d8d9050811515610e6657fe5b06141515610e7357600080fd5b87879050610e8e60028c8c905061247e90919063ffffffff16565b141515610e9a57600080fd5b8b8b9050610eb560038c8c905061247e90919063ffffffff16565b141515610ec157600080fd5b60028a8a9050028686905010151515610ed957600080fd5b60009350600092505b8b8b905060ff168360ff1610156113f657428c8c8560ff168181101515610f0557fe5b9050602002013563ffffffff1663ffffffff16111515610f2457600080fd5b428c8c6001860160ff168181101515610f3957fe5b9050602002013563ffffffff1663ffffffff16111515610f5857600080fd5b428c8c6002860160ff168181101515610f6d57fe5b9050602002013563ffffffff1663ffffffff16111515610f8c57600080fd5b8585905061101c8989600160038860ff16811515610fa657fe5b040160ff168181101515610fb657fe5b9050602002013563ffffffff1663ffffffff1661100e8b8b60038960ff16811515610fdd57fe5b0460ff168181101515610fec57fe5b9050602002013563ffffffff1663ffffffff16886124cc90919063ffffffff16565b6124cc90919063ffffffff16565b1115151561102957600080fd5b60648a8a60038660ff1681151561103c57fe5b0460ff16818110151561104b57fe5b9050602002013560ff1660ff1610151561106457600080fd5b6110e0848989600260038860ff1681151561107b57fe5b040260ff16818110151561108b57fe5b9050602002013563ffffffff1663ffffffff1688888080601f0160208091040260200160405190810160405280939291908181526020018383808284378201915050505050506124e89092919063ffffffff16565b91506111988888600260038760ff168115156110f857fe5b040260ff16818110151561110857fe5b9050602002013563ffffffff1663ffffffff16850189896001600260038960ff1681151561113257fe5b04020160ff16818110151561114357fe5b9050602002013563ffffffff1663ffffffff1688888080601f0160208091040260200160405190810160405280939291908181526020018383808284378201915050505050506124e89092919063ffffffff16565b9050600082511115156111aa57600080fd5b600081511115156111ba57600080fd5b600660c0604051908101604052808e8e8760ff1681811015156111d957fe5b9050602002013563ffffffff1663ffffffff1681526020018c8c60038860ff1681151561120257fe5b0460ff16818110151561121157fe5b9050602002013560ff1660ff1681526020018e8e6001880160ff16818110151561123757fe5b9050602002013563ffffffff1663ffffffff1681526020018e8e6002880160ff16818110151561126357fe5b9050602002013563ffffffff1663ffffffff168152602001848152602001838152509080600181540180825580915050906001820390600052602060002090600302016000909192909190915060008201518160000160006101000a81548163ffffffff021916908363ffffffff16021790555060208201518160000160046101000a81548160ff021916908360ff16021790555060408201518160000160056101000a81548163ffffffff021916908363ffffffff16021790555060608201518160000160096101000a81548163ffffffff021916908363ffffffff1602179055506080820151816001019080519060200190611362929190612643565b5060a082015181600201908051906020019061137f929190612643565b505050508787600160038660ff1681151561139657fe5b040160ff1681811015156113a657fe5b9050602002013563ffffffff16888860038660ff168115156113c457fe5b0460ff1681811015156113d357fe5b9050602002013563ffffffff160163ffffffff1684019350600383019250610ee2565b505050505050505050505050565b606060058281548110151561141557fe5b906000526020600020906003020160020180548060200260200160405190810160405280929190818152602001828054801561149657602002820191906000526020600020906000905b82829054906101000a900460ff1660ff168152602001906001019060208260000104928301926001038202915080841161145f5790505b50505050509050919050565b6000809054906101000a900473ffffffffffffffffffffffffffffffffffffffff1673ffffffffffffffffffffffffffffffffffffffff163373ffffffffffffffffffffffffffffffffffffffff161415156114fd57600080fd5b600060058054905014151561151157600080fd5b600160009054906101000a900473ffffffffffffffffffffffffffffffffffffffff1673ffffffffffffffffffffffffffffffffffffffff1663a9059cbb6000809054906101000a900473ffffffffffffffffffffffffffffffffffffffff16600160009054906101000a900473ffffffffffffffffffffffffffffffffffffffff1673ffffffffffffffffffffffffffffffffffffffff166370a08231306040518263ffffffff167c0100000000000000000000000000000000000000000000000000000000028152600401808273ffffffffffffffffffffffffffffffffffffffff1673ffffffffffffffffffffffffffffffffffffffff168152602001915050602060405180830381600087803b15801561162e57600080fd5b505af1158015611642573d6000803e3d6000fd5b505050506040513d602081101561165857600080fd5b81019080805190602001909291905050506040518363ffffffff167c0100000000000000000000000000000000000000000000000000000000028152600401808373ffffffffffffffffffffffffffffffffffffffff1673ffffffffffffffffffffffffffffffffffffffff16815260200182815260200192505050602060405180830381600087803b1580156116ee57600080fd5b505af1158015611702573d6000803e3d6000fd5b505050506040513d602081101561171857600080fd5b8101908080519060200190929190505050151561173457600080fd5b565b6000600680549050905090565b6000600160009054906101000a900473ffffffffffffffffffffffffffffffffffffffff16905090565b6000809054906101000a900473ffffffffffffffffffffffffffffffffffffffff1673ffffffffffffffffffffffffffffffffffffffff163373ffffffffffffffffffffffffffffffffffffffff161415156117c857600080fd5b81819050848490501415156117dc57600080fd5b600580549050851015156117ef57600080fd5b6005858154811015156117fe57fe5b9060005260206000209060030201600101600061181b91906126c3565b60058581548110151561182a57fe5b9060005260206000209060030201600201600061184791906126e4565b838360058781548110151561185857fe5b9060005260206000209060030201600101919061187692919061270c565b50818160058781548110151561188857fe5b906000526020600020906003020160020191906118a6929190612759565b505050505050565b600360019054906101000a900473ffffffffffffffffffffffffffffffffffffffff1681565b6000809054906101000a900473ffffffffffffffffffffffffffffffffffffffff1673ffffffffffffffffffffffffffffffffffffffff163373ffffffffffffffffffffffffffffffffffffffff1614151561192f57600080fd5b6000809054906101000a900473ffffffffffffffffffffffffffffffffffffffff1673ffffffffffffffffffffffffffffffffffffffff167ff8df31144d9c2f0f6b59d69b8b98abd5459d07f2742c4df920b25aae33c6482060405160405180910390a260008060006101000a81548173ffffffffffffffffffffffffffffffffffffffff021916908373ffffffffffffffffffffffffffffffffffffffff160217905550565b6000600580549050905090565b6005818154811015156119f257fe5b90600052602060002090600302016000915090508060000160009054906101000a900463ffffffff16908060000160049054906101000a900460ff16908060000160059054906101000a900463ffffffff16905083565b600360009054906101000a900460ff1681565b6000809054906101000a900473ffffffffffffffffffffffffffffffffffffffff1681565b6000600460009054906101000a900473ffffffffffffffffffffffffffffffffffffffff16905090565b6000809054906101000a900473ffffffffffffffffffffffffffffffffffffffff1673ffffffffffffffffffffffffffffffffffffffff163373ffffffffffffffffffffffffffffffffffffffff16141515611b0657600080fd5b611b11838383612575565b505050565b60025481565b600460009054906101000a900473ffffffffffffffffffffffffffffffffffffffff1681565b600681815481101515611b5157fe5b90600052602060002090600302016000915090508060000160009054906101000a900463ffffffff16908060000160049054906101000a900460ff16908060000160059054906101000a900463ffffffff16908060000160099054906101000a900463ffffffff1690806001018054600181600116156101000203166002900480601f016020809104026020016040519081016040528092919081815260200182805460018160011615610100020316600290048015611c525780601f10611c2757610100808354040283529160200191611c52565b820191906000526020600020905b815481529060010190602001808311611c3557829003601f168201915b505050505090806002018054600181600116156101000203166002900480601f016020809104026020016040519081016040528092919081815260200182805460018160011615610100020316600290048015611cf05780601f10611cc557610100808354040283529160200191611cf0565b820191906000526020600020905b815481529060010190602001808311611cd357829003601f168201915b5050505050905086565b6060600582815481101515611d0b57fe5b9060005260206000209060030201600101805480602002602001604051908101604052809291908181526020018280548015611d6657602002820191906000526020600020905b815481526020019060010190808311611d52575b50505050509050919050565b6000809054906101000a900473ffffffffffffffffffffffffffffffffffffffff1673ffffffffffffffffffffffffffffffffffffffff163373ffffffffffffffffffffffffffffffffffffffff16141515611dcd57600080fd5b600073ffffffffffffffffffffffffffffffffffffffff168173ffffffffffffffffffffffffffffffffffffffff1614151515611e0957600080fd5b8073ffffffffffffffffffffffffffffffffffffffff166000809054906101000a900473ffffffffffffffffffffffffffffffffffffffff1673ffffffffffffffffffffffffffffffffffffffff167f8be0079c531659141344cd1fd0a4f28419497f9722a3daafe3b4186f6b6457e060405160405180910390a3806000806101000a81548173ffffffffffffffffffffffffffffffffffffffff021916908373ffffffffffffffffffffffffffffffffffffffff16021790555050565b6000806000809054906101000a900473ffffffffffffffffffffffffffffffffffffffff1673ffffffffffffffffffffffffffffffffffffffff163373ffffffffffffffffffffffffffffffffffffffff16141515611f2557600080fd5b7fffffffffffffffffffffffffffffffffffffffffffffffffffffffffffffffff60ff168888905011151515611f5a57600080fd5b600088889050111515611f6c57600080fd5b8585905088889050141515611f8057600080fd5b8383905088889050141515611f9457600080fd5b8787905091508160ff16600581611fab9190612803565b50600090505b8160ff168160ff16101561228657600086868360ff168181101515611fd257fe5b9050602002013560ff1660ff161015801561200a5750606486868360ff168181101515611ffb57fe5b9050602002013560ff1660ff16105b151561201557600080fd5b87878260ff16818110151561202657fe5b9050602002013563ffffffff1663ffffffff16600160149054906101000a900463ffffffff1663ffffffff1610151561205e57600080fd5b6001820360ff168160ff1610156121565787876001830160ff16818110151561208357fe5b9050602002013563ffffffff1663ffffffff1688888360ff1681811015156120a757fe5b9050602002013563ffffffff1663ffffffff16101515612155576040517f08c379a00000000000000000000000000000000000000000000000000000000081526004018080602001828103825260228152602001807f53746167657320617265206e6f7420696e20686973746f726963616c206f726481526020017f657200000000000000000000000000000000000000000000000000000000000081525060400191505060405180910390fd5b5b87878260ff16818110151561216757fe5b9050602002013563ffffffff16600560018385030360ff1681548110151561218b57fe5b906000526020600020906003020160000160006101000a81548163ffffffff021916908363ffffffff16021790555085858260ff1681811015156121cb57fe5b9050602002013560ff16600560018385030360ff168154811015156121ec57fe5b906000526020600020906003020160000160046101000a81548160ff021916908360ff16021790555083838260ff16818110151561222657fe5b9050602002013563ffffffff16600560018385030360ff1681548110151561224a57fe5b906000526020600020906003020160000160056101000a81548163ffffffff021916908363ffffffff1602179055508080600101915050611fb1565b7f743961f4e677d1146fbf85d75565b1c5474fd083eb166f8b9595cf5d01a4d6e660405160405180910390a15050505050505050565b600160009054906101000a900473ffffffffffffffffffffffffffffffffffffffff1681565b60008060008060008060006005805490501415612312576000806000829250819150809050955095509550612476565b600560016005805490500381548110151561232957fe5b90600052602060002090600302019250428360000160009054906101000a900463ffffffff1663ffffffff1610151561245157600093506000915060008360010180549050111561241e57600090505b600183600101805490500381101561241d578134101580156123b5575082600101818154811015156123a757fe5b906000526020600020015434105b156123f25782600201818154811015156123cb57fe5b90600052602060002090602091828204019190069054906101000a900460ff16935061241d565b826001018181548110151561240357fe5b906000526020600020015491508080600101915050612379565b5b8260000160049054906101000a900460ff168360000160059054906101000a900463ffffffff1685955095509550612476565b60058054809190600190036124669190612803565b5061246f6122e2565b9550955095505b505050909192565b60008083141561249157600090506124b0565b81830290508183828115156124a257fe5b041415156124ac57fe5b8090505b92915050565b600081838115156124c357fe5b04905092915050565b600081830190508281101515156124df57fe5b80905092915050565b6060808284018551101515156124fd57600080fd5b82156000811461251857604051915060208201604052612569565b6040519150601f8416801560200281840101858101878315602002848b0101015b818310156125565780518352602083019250602081019050612539565b50868552601f19601f8301166040525050505b50809150509392505050565b428363ffffffff161015151561258a57600080fd5b60008211151561259957600080fd5b600073ffffffffffffffffffffffffffffffffffffffff168173ffffffffffffffffffffffffffffffffffffffff16141515156125d557600080fd5b82600160146101000a81548163ffffffff021916908363ffffffff1602179055508160028190555080600360016101000a81548173ffffffffffffffffffffffffffffffffffffffff021916908373ffffffffffffffffffffffffffffffffffffffff160217905550505050565b828054600181600116156101000203166002900490600052602060002090601f016020900481019282601f1061268457805160ff19168380011785556126b2565b828001600101855582156126b2579182015b828111156126b1578251825591602001919060010190612696565b5b5090506126bf9190612835565b5090565b50805460008255906000526020600020908101906126e19190612835565b50565b50805460008255601f0160209004906000526020600020908101906127099190612835565b50565b828054828255906000526020600020908101928215612748579160200282015b8281111561274757823582559160200191906001019061272c565b5b5090506127559190612835565b5090565b82805482825590600052602060002090601f016020900481019282156127f25791602002820160005b838211156127c357833560ff1683826101000a81548160ff021916908360ff1602179055509260200192600101602081600001049283019260010302612782565b80156127f05782816101000a81549060ff02191690556001016020816000010492830192600103026127c3565b505b5090506127ff919061285a565b5090565b8154818355818111156128305760030281600302836000526020600020918201910161282f919061288a565b5b505050565b61285791905b8082111561285357600081600090555060010161283b565b5090565b90565b61288791905b8082111561288357600081816101000a81549060ff021916905550600101612860565b5090565b90565b61290891905b8082111561290457600080820160006101000a81549063ffffffff02191690556000820160046101000a81549060ff02191690556000820160056101000a81549063ffffffff02191690556001820160006128eb91906126c3565b6002820160006128fb91906126e4565b50600301612890565b5090565b905600a165627a7a72305820031977ddbd891c27589f4d84bbebcc90579e46a93985966e8218932532549b0f0029",
  "source": "pragma solidity ^0.4.24;\n\nimport \"../openzeppelin-solidity/contracts/ownership/Ownable.sol\";\nimport \"../openzeppelin-solidity/contracts/ReentrancyGuard.sol\";\nimport \"../openzeppelin-solidity/contracts/math/SafeMath.sol\";\nimport \"../solidity-bytes-utils/contracts/BytesLib.sol\";\nimport \"./WToken.sol\";\nimport \"./IW12Crowdsale.sol\";\nimport \"./W12Fund.sol\";\n\n\ncontract W12Crowdsale is IW12Crowdsale, Ownable, ReentrancyGuard {\n    using SafeMath for uint;\n    using BytesLib for bytes;\n\n\n    struct Stage {\n        uint32 endDate;\n        uint8 discount;\n        uint32 vesting;\n        uint[] volumeBoundaries;\n        uint8[] volumeBonuses;\n    }\n\n    struct Milestone {\n        uint32 endDate;\n        uint8  tranchePercent;\n        uint32 voteEndDate;\n        uint32 withdrawalWindow;\n        bytes name;\n        bytes description;\n    }\n\n    WToken public token;\n    uint32 public startDate;\n    uint public price;\n    uint8 public serviceFee;\n    address public serviceWallet;\n    W12Fund public fund;\n\n    Stage[] public stages;\n    Milestone[] public milestones;\n\n    event TokenPurchase(address indexed buyer, uint amountPaid, uint tokensBought);\n    event StagesUpdated();\n\n    constructor (address _token, uint32 _startDate, uint _price, address _serviceWallet, uint8 _serviceFee, W12Fund _fund) public {\n        require(_token != address(0));\n        require(_serviceFee >= 0 && _serviceFee < 100);\n        require(_fund != address(0));\n\n        token = WToken(_token);\n\n        __setParameters(_startDate, _price, _serviceWallet);\n        serviceFee = _serviceFee;\n        fund = _fund;\n    }\n\n    function stagesLength() external view returns (uint) {\n        return stages.length;\n    }\n\n    function milestonesLength() external view returns (uint) {\n        return milestones.length;\n    }\n\n    function getStageVolumeBoundaries(uint stageNumber) external view returns (uint[]) {\n        return stages[stageNumber].volumeBoundaries;\n    }\n\n    function getStageVolumeBonuses(uint stageNumber) external view returns (uint8[]) {\n        return stages[stageNumber].volumeBonuses;\n    }\n\n    function __setParameters(uint32 _startDate, uint _price, address _serviceWallet) internal {\n        require(_startDate >= now);\n        require(_price > 0);\n        require(_serviceWallet != address(0));\n\n        startDate = _startDate;\n        price = _price;\n        serviceWallet = _serviceWallet;\n    }\n\n    function setParameters(uint32 _startDate, uint _price, address _serviceWallet) external onlyOwner {\n        __setParameters(_startDate, _price, _serviceWallet);\n    }\n\n    function setStages(uint32[] stage_endDates, uint8[] stage_discounts, uint32[] stage_vestings) external onlyOwner {\n        require(stage_endDates.length <= uint8(-1));\n        require(stage_endDates.length > 0);\n        require(stage_endDates.length == stage_discounts.length);\n        require(stage_endDates.length == stage_vestings.length);\n\n        uint8 stagesCount = uint8(stage_endDates.length);\n        stages.length = stagesCount;\n\n        for(uint8 i = 0; i < stagesCount; i++) {\n            require(stage_discounts[i] >= 0 && stage_discounts[i] < 100);\n            require(startDate < stage_endDates[i]);\n            // Checking that stages entered in historical order\n            if(i < stagesCount - 1)\n                require(stage_endDates[i] < stage_endDates[i+1], \"Stages are not in historical order\");\n\n            // Reverting stage order for future use\n            stages[stagesCount - i - 1].endDate = stage_endDates[i];\n            stages[stagesCount - i - 1].discount = stage_discounts[i];\n            stages[stagesCount - i - 1].vesting = stage_vestings[i];\n        }\n\n        emit StagesUpdated();\n    }\n\n    function setStageVolumeBonuses(uint stage, uint[] volumeBoundaries, uint8[] volumeBonuses) external onlyOwner {\n        require(volumeBoundaries.length == volumeBonuses.length);\n        require(stage < stages.length);\n\n        delete stages[stage].volumeBoundaries;\n        delete stages[stage].volumeBonuses;\n\n        stages[stage].volumeBoundaries = volumeBoundaries;\n        stages[stage].volumeBonuses = volumeBonuses;\n    }\n\n    function setMilestones(uint32[] dates, uint8[] tranchePercents, uint32[] offsets, bytes namesAndDescriptions) external onlyOwner {\n        require(milestones.length == 0);\n        require(dates.length <= uint8(-1));\n        require(dates.length > 3);\n        require(dates.length % 3 == 0);\n        require(tranchePercents.length.mul(2) == offsets.length);\n        require(tranchePercents.length.mul(3) == dates.length);\n        require(namesAndDescriptions.length >= tranchePercents.length * 2);\n\n        uint offset = 0;\n\n        for(uint8 i = 0; i < uint8(dates.length); i += 3) {\n            require(dates[i] > now);\n            require(dates[i + 1] > now);\n            require(dates[i + 2] > now);\n            require(offset.add(offsets[i / 3]).add(offsets[i / 3 + 1]) <= namesAndDescriptions.length);\n            require(tranchePercents[i / 3] < 100);\n\n            bytes memory name = namesAndDescriptions.slice(offset, offsets[i / 3 * 2]);\n            bytes memory description = namesAndDescriptions.slice(offset + offsets[i / 3 * 2], offsets[i / 3 * 2 + 1]);\n\n            require(name.length > 0);\n            require(description.length > 0);\n\n            milestones.push(Milestone({\n                endDate: dates[i],\n                tranchePercent: tranchePercents[i / 3],\n                voteEndDate: dates[i + 1],\n                withdrawalWindow: dates[i + 2],\n                name: name,\n                description: description\n            }));\n\n            offset += offsets[i / 3] + offsets[i / 3 + 1];\n        }\n    }\n\n    function buyTokens() payable nonReentrant public {\n        require(msg.value > 0);\n        require(startDate <= now);\n        require(stages.length > 0);\n\n        (uint8 discount, uint32 vesting, uint8 volumeBonus) = getCurrentStage();\n\n        uint stagePrice = discount > 0 ? price.mul(100 - discount).div(100) : price;\n\n        uint tokenAmount = msg.value\n            .mul(100 + volumeBonus)\n            .div(stagePrice)\n            .div(100);\n\n        require(token.vestingTransfer(msg.sender, tokenAmount, vesting));\n\n        if(serviceFee > 0)\n            serviceWallet.transfer(msg.value.mul(serviceFee).div(100));\n\n        fund.recordPurchase.value(address(this).balance).gas(100000)(msg.sender, tokenAmount);\n\n        emit TokenPurchase(msg.sender, msg.value, tokenAmount);\n    }\n\n    function getWToken() external view returns(WToken) {\n        return token;\n    }\n\n    function getFund() external view returns(W12Fund) {\n        return fund;\n    }\n\n    function getCurrentStage() internal returns(uint8 discount, uint32 vesting, uint8 volumeBonus) {\n        if(stages.length == 0)\n            return (0, 0, 0);\n\n        Stage storage lastStage = stages[stages.length - 1];\n\n        if(lastStage.endDate >= now) {\n            volumeBonus = 0;\n            uint lastLowerBoundary = 0;\n\n            if(lastStage.volumeBoundaries.length > 0)\n                for (uint i = 0; i < lastStage.volumeBoundaries.length - 1; i++)\n                    if(msg.value >= lastLowerBoundary && msg.value < lastStage.volumeBoundaries[i]) {\n                        volumeBonus = lastStage.volumeBonuses[i];\n                        break;\n                    }\n                    else\n                        lastLowerBoundary = lastStage.volumeBoundaries[i];\n\n            return (lastStage.discount, lastStage.vesting, volumeBonus);\n        }\n\n        stages.length--;\n        return getCurrentStage();\n    }\n\n    function () payable external {\n        buyTokens();\n    }\n\n    function claimRemainingTokens() external onlyOwner {\n        require(stages.length == 0);\n\n        require(token.transfer(owner, token.balanceOf(address(this))));\n    }\n}\n",
  "sourcePath": "/home/andrey/Code/w12/platform-contracts/contracts/W12Crowdsale.sol",
  "compiler": {
    "name": "solc",
    "version": "0.4.24+commit.e67f0147.Emscripten.clang"
  },
  "schemaVersion": "2.0.0",
  "updatedAt": "2018-07-23T20:55:35.237Z"
}