{
  "contractName": "W12Crowdsale",
  "abi": [
    {
      "constant": true,
      "inputs": [],
      "name": "originToken",
      "outputs": [
        {
          "name": "",
          "type": "address"
        }
      ],
      "payable": false,
      "stateMutability": "view",
      "type": "function"
    },
    {
      "constant": true,
      "inputs": [],
      "name": "WTokenSaleFeePercent",
      "outputs": [
        {
          "name": "",
          "type": "uint256"
        }
      ],
      "payable": false,
      "stateMutability": "view",
      "type": "function"
    },
    {
      "constant": true,
      "inputs": [],
      "name": "serviceWallet",
      "outputs": [
        {
          "name": "",
          "type": "address"
        }
      ],
      "payable": false,
      "stateMutability": "view",
      "type": "function"
    },
    {
      "constant": false,
      "inputs": [],
      "name": "renounceOwnership",
      "outputs": [],
      "payable": false,
      "stateMutability": "nonpayable",
      "type": "function"
    },
    {
      "constant": true,
      "inputs": [
        {
          "name": "",
          "type": "uint256"
        }
      ],
      "name": "milestoneDates",
      "outputs": [
        {
          "name": "",
          "type": "uint32"
        }
      ],
      "payable": false,
      "stateMutability": "view",
      "type": "function"
    },
    {
      "constant": true,
      "inputs": [],
      "name": "swap",
      "outputs": [
        {
          "name": "",
          "type": "address"
        }
      ],
      "payable": false,
      "stateMutability": "view",
      "type": "function"
    },
    {
      "constant": true,
      "inputs": [
        {
          "name": "",
          "type": "uint256"
        }
      ],
      "name": "stages",
      "outputs": [
        {
          "name": "startDate",
          "type": "uint32"
        },
        {
          "name": "endDate",
          "type": "uint32"
        },
        {
          "name": "discount",
          "type": "uint8"
        },
        {
          "name": "vesting",
          "type": "uint32"
        }
      ],
      "payable": false,
      "stateMutability": "view",
      "type": "function"
    },
    {
      "constant": true,
      "inputs": [],
      "name": "serviceFee",
      "outputs": [
        {
          "name": "",
          "type": "uint256"
        }
      ],
      "payable": false,
      "stateMutability": "view",
      "type": "function"
    },
    {
      "constant": true,
      "inputs": [],
      "name": "owner",
      "outputs": [
        {
          "name": "",
          "type": "address"
        }
      ],
      "payable": false,
      "stateMutability": "view",
      "type": "function"
    },
    {
      "constant": true,
      "inputs": [],
      "name": "price",
      "outputs": [
        {
          "name": "",
          "type": "uint256"
        }
      ],
      "payable": false,
      "stateMutability": "view",
      "type": "function"
    },
    {
      "constant": true,
      "inputs": [],
      "name": "fund",
      "outputs": [
        {
          "name": "",
          "type": "address"
        }
      ],
      "payable": false,
      "stateMutability": "view",
      "type": "function"
    },
    {
      "constant": true,
      "inputs": [
        {
          "name": "",
          "type": "uint256"
        }
      ],
      "name": "milestones",
      "outputs": [
        {
          "name": "endDate",
          "type": "uint32"
        },
        {
          "name": "tranchePercent",
          "type": "uint8"
        },
        {
          "name": "voteEndDate",
          "type": "uint32"
        },
        {
          "name": "withdrawalWindow",
          "type": "uint32"
        },
        {
          "name": "name",
          "type": "bytes"
        },
        {
          "name": "description",
          "type": "bytes"
        }
      ],
      "payable": false,
      "stateMutability": "view",
      "type": "function"
    },
    {
      "constant": false,
      "inputs": [
        {
          "name": "_newOwner",
          "type": "address"
        }
      ],
      "name": "transferOwnership",
      "outputs": [],
      "payable": false,
      "stateMutability": "nonpayable",
      "type": "function"
    },
    {
      "constant": true,
      "inputs": [],
      "name": "token",
      "outputs": [
        {
          "name": "",
          "type": "address"
        }
      ],
      "payable": false,
      "stateMutability": "view",
      "type": "function"
    },
    {
      "inputs": [
        {
          "name": "_originToken",
          "type": "address"
        },
        {
          "name": "_token",
          "type": "address"
        },
        {
          "name": "_tokenDecimals",
          "type": "uint256"
        },
        {
          "name": "_price",
          "type": "uint256"
        },
        {
          "name": "_serviceWallet",
          "type": "address"
        },
        {
          "name": "_swap",
          "type": "address"
        },
        {
          "name": "_serviceFee",
          "type": "uint256"
        },
        {
          "name": "_WTokenSaleFeePercent",
          "type": "uint256"
        },
        {
          "name": "_fund",
          "type": "address"
        }
      ],
      "payable": false,
      "stateMutability": "nonpayable",
      "type": "constructor"
    },
    {
      "payable": true,
      "stateMutability": "payable",
      "type": "fallback"
    },
    {
      "anonymous": false,
      "inputs": [
        {
          "indexed": true,
          "name": "buyer",
          "type": "address"
        },
        {
          "indexed": false,
          "name": "amountPaid",
          "type": "uint256"
        },
        {
          "indexed": false,
          "name": "tokensBought",
          "type": "uint256"
        },
        {
          "indexed": false,
          "name": "change",
          "type": "uint256"
        }
      ],
      "name": "TokenPurchase",
      "type": "event"
    },
    {
      "anonymous": false,
      "inputs": [],
      "name": "StagesUpdated",
      "type": "event"
    },
    {
      "anonymous": false,
      "inputs": [],
      "name": "MilestonesSet",
      "type": "event"
    },
    {
      "anonymous": false,
      "inputs": [
        {
          "indexed": false,
          "name": "value",
          "type": "uint256"
        }
      ],
      "name": "debug",
      "type": "event"
    },
    {
      "anonymous": false,
      "inputs": [
        {
          "indexed": true,
          "name": "previousOwner",
          "type": "address"
        }
      ],
      "name": "OwnershipRenounced",
      "type": "event"
    },
    {
      "anonymous": false,
      "inputs": [
        {
          "indexed": true,
          "name": "previousOwner",
          "type": "address"
        },
        {
          "indexed": true,
          "name": "newOwner",
          "type": "address"
        }
      ],
      "name": "OwnershipTransferred",
      "type": "event"
    },
    {
      "constant": true,
      "inputs": [],
      "name": "stagesLength",
      "outputs": [
        {
          "name": "",
          "type": "uint256"
        }
      ],
      "payable": false,
      "stateMutability": "view",
      "type": "function"
    },
    {
      "constant": true,
      "inputs": [],
      "name": "milestonesLength",
      "outputs": [
        {
          "name": "",
          "type": "uint256"
        }
      ],
      "payable": false,
      "stateMutability": "view",
      "type": "function"
    },
    {
      "constant": true,
      "inputs": [
        {
          "name": "index",
          "type": "uint256"
        }
      ],
      "name": "getMilestone",
      "outputs": [
        {
          "name": "",
          "type": "uint32"
        },
        {
          "name": "",
          "type": "uint8"
        },
        {
          "name": "",
          "type": "uint32"
        },
        {
          "name": "",
          "type": "uint32"
        },
        {
          "name": "",
          "type": "bytes"
        },
        {
          "name": "",
          "type": "bytes"
        }
      ],
      "payable": false,
      "stateMutability": "view",
      "type": "function"
    },
    {
      "constant": true,
      "inputs": [
        {
          "name": "stageNumber",
          "type": "uint256"
        }
      ],
      "name": "getStageVolumeBoundaries",
      "outputs": [
        {
          "name": "",
          "type": "uint256[]"
        }
      ],
      "payable": false,
      "stateMutability": "view",
      "type": "function"
    },
    {
      "constant": true,
      "inputs": [
        {
          "name": "stageNumber",
          "type": "uint256"
        }
      ],
      "name": "getStageVolumeBonuses",
      "outputs": [
        {
          "name": "",
          "type": "uint8[]"
        }
      ],
      "payable": false,
      "stateMutability": "view",
      "type": "function"
    },
    {
      "constant": true,
      "inputs": [],
      "name": "getEndDate",
      "outputs": [
        {
          "name": "",
          "type": "uint32"
        }
      ],
      "payable": false,
      "stateMutability": "view",
      "type": "function"
    },
    {
      "constant": true,
      "inputs": [],
      "name": "getCurrentMilestoneIndex",
      "outputs": [
        {
          "name": "index",
          "type": "uint256"
        }
      ],
      "payable": false,
      "stateMutability": "view",
      "type": "function"
    },
    {
      "constant": true,
      "inputs": [],
      "name": "getCurrentMilestone",
      "outputs": [
        {
          "name": "",
          "type": "uint32"
        },
        {
          "name": "",
          "type": "uint8"
        },
        {
          "name": "",
          "type": "uint32"
        },
        {
          "name": "",
          "type": "uint32"
        },
        {
          "name": "",
          "type": "bytes"
        },
        {
          "name": "",
          "type": "bytes"
        }
      ],
      "payable": false,
      "stateMutability": "view",
      "type": "function"
    },
    {
      "constant": false,
      "inputs": [
        {
          "name": "_price",
          "type": "uint256"
        },
        {
          "name": "_serviceWallet",
          "type": "address"
        }
      ],
      "name": "setParameters",
      "outputs": [],
      "payable": false,
      "stateMutability": "nonpayable",
      "type": "function"
    },
    {
      "constant": false,
      "inputs": [
        {
          "name": "dates",
          "type": "uint32[2][]"
        },
        {
          "name": "stage_discounts",
          "type": "uint8[]"
        },
        {
          "name": "stage_vestings",
          "type": "uint32[]"
        }
      ],
      "name": "setStages",
      "outputs": [],
      "payable": false,
      "stateMutability": "nonpayable",
      "type": "function"
    },
    {
      "constant": false,
      "inputs": [
        {
          "name": "stage",
          "type": "uint256"
        },
        {
          "name": "volumeBoundaries",
          "type": "uint256[]"
        },
        {
          "name": "volumeBonuses",
          "type": "uint8[]"
        }
      ],
      "name": "setStageVolumeBonuses",
      "outputs": [],
      "payable": false,
      "stateMutability": "nonpayable",
      "type": "function"
    },
    {
      "constant": false,
      "inputs": [
        {
          "name": "dates",
          "type": "uint32[]"
        },
        {
          "name": "tranchePercents",
          "type": "uint8[]"
        },
        {
          "name": "offsets",
          "type": "uint32[]"
        },
        {
          "name": "namesAndDescriptions",
          "type": "bytes"
        }
      ],
      "name": "setMilestones",
      "outputs": [],
      "payable": false,
      "stateMutability": "nonpayable",
      "type": "function"
    },
    {
      "constant": false,
      "inputs": [],
      "name": "buyTokens",
      "outputs": [],
      "payable": true,
      "stateMutability": "payable",
      "type": "function"
    },
    {
      "constant": true,
      "inputs": [],
      "name": "getWToken",
      "outputs": [
        {
          "name": "",
          "type": "address"
        }
      ],
      "payable": false,
      "stateMutability": "view",
      "type": "function"
    },
    {
      "constant": true,
      "inputs": [],
      "name": "getFund",
      "outputs": [
        {
          "name": "",
          "type": "address"
        }
      ],
      "payable": false,
      "stateMutability": "view",
      "type": "function"
    },
    {
      "constant": true,
      "inputs": [
        {
          "name": "value",
          "type": "uint256"
        }
      ],
      "name": "getSaleVolumeBonus",
      "outputs": [
        {
          "name": "bonus",
          "type": "uint256"
        }
      ],
      "payable": false,
      "stateMutability": "view",
      "type": "function"
    },
    {
      "constant": true,
      "inputs": [],
      "name": "getCurrentStageIndex",
      "outputs": [
        {
          "name": "index",
          "type": "uint256"
        },
        {
          "name": "found",
          "type": "bool"
        }
      ],
      "payable": false,
      "stateMutability": "view",
      "type": "function"
    },
    {
      "constant": false,
      "inputs": [],
      "name": "claimRemainingTokens",
      "outputs": [],
      "payable": false,
      "stateMutability": "nonpayable",
      "type": "function"
    },
    {
      "constant": true,
      "inputs": [],
      "name": "isEnded",
      "outputs": [
        {
          "name": "",
          "type": "bool"
        }
      ],
      "payable": false,
      "stateMutability": "view",
      "type": "function"
    },
    {
      "constant": true,
      "inputs": [],
      "name": "isSaleActive",
      "outputs": [
        {
          "name": "",
          "type": "bool"
        }
      ],
      "payable": false,
      "stateMutability": "view",
      "type": "function"
    }
  ],
  "bytecode": "0x6080604052600180553480156200001557600080fd5b506040516101208062004573833981018060405281019080805190602001909291908051906020019092919080519060200190929190805190602001909291908051906020019092919080519060200190929190805190602001909291908051906020019092919080519060200190929190505050336000806101000a81548173ffffffffffffffffffffffffffffffffffffffff021916908373ffffffffffffffffffffffffffffffffffffffff160217905550600073ffffffffffffffffffffffffffffffffffffffff168873ffffffffffffffffffffffffffffffffffffffff16141515156200010757600080fd5b6200012683620003706401000000000262003c7f176401000000009004565b801562000151575060646200014f846200038c6401000000000262004062176401000000009004565b105b15156200015d57600080fd5b6200017c82620003706401000000000262003c7f176401000000009004565b8015620001a757506064620001a5836200038c6401000000000262004062176401000000009004565b105b1515620001b357600080fd5b600073ffffffffffffffffffffffffffffffffffffffff168173ffffffffffffffffffffffffffffffffffffffff1614151515620001f057600080fd5b600073ffffffffffffffffffffffffffffffffffffffff168473ffffffffffffffffffffffffffffffffffffffff16141515156200022d57600080fd5b87600260006101000a81548173ffffffffffffffffffffffffffffffffffffffff021916908373ffffffffffffffffffffffffffffffffffffffff16021790555088600360006101000a81548173ffffffffffffffffffffffffffffffffffffffff021916908373ffffffffffffffffffffffffffffffffffffffff16021790555086600481905550620002d18686620003df640100000000026401000000009004565b8260068190555083600960006101000a81548173ffffffffffffffffffffffffffffffffffffffff021916908373ffffffffffffffffffffffffffffffffffffffff1602179055508160078190555080600a60006101000a81548173ffffffffffffffffffffffffffffffffffffffff021916908373ffffffffffffffffffffffffffffffffffffffff160217905550505050505050505050620004a4565b60008082101580156200038557506127108211155b9050919050565b6000620003a88262000370640100000000026401000000009004565b1515620003b457600080fd5b620003d8606483620004786401000000000262003c55179091906401000000009004565b9050919050565b600082111515620003ef57600080fd5b600073ffffffffffffffffffffffffffffffffffffffff168173ffffffffffffffffffffffffffffffffffffffff16141515156200042c57600080fd5b8160058190555080600860006101000a81548173ffffffffffffffffffffffffffffffffffffffff021916908373ffffffffffffffffffffffffffffffffffffffff1602179055505050565b6000806000831115156200048b57600080fd5b82848115156200049757fe5b0490508091505092915050565b6140bf80620004b46000396000f3006080604052600436106101ac576000357c0100000000000000000000000000000000000000000000000000000000900463ffffffff1680630d544ffe146101b65780630ee62c771461023957806313096a41146102bb578063208853c91461031257806323d840f5146103535780632442e1cb146103a0578063299a017c146104f85780632c9a4bab1461063a5780632fbe5990146106a5578063313602d4146106d05780633baba4d7146106e75780634090cb6414610712578063521b7499146107695780635641f3c3146107c6578063564566a81461081d578063715018a61461084c57806372e6a88114610863578063792c02ea146108b05780638119c065146108db578063845ddcb2146109325780638abdf5aa146109b25780638da5cb5b146109dd5780638edd6eb614610a34578063a035b1fe14610a8b578063a4fd6f5614610ab6578063b135648814610ae5578063b60d428814610b1c578063d0febe4c14610b73578063d6d65f3d14610b7d578063daa4cf8814610ba8578063e89e4ed614610bde578063f12585f514610d36578063f2fde38b14610db8578063fc0c546a14610dfb575b6101b4610e52565b005b3480156101c257600080fd5b506102376004803603810190808035906020019082018035906020019190919293919293908035906020019082018035906020019190919293919293908035906020019082018035906020019190919293919293908035906020019082018035906020019190919293919293905050506115ce565b005b34801561024557600080fd5b5061026460048036038101908080359060200190929190505050611e42565b6040518080602001828103825283818151815260200191508051906020019060200280838360005b838110156102a757808201518184015260208101905061028c565b505050509050019250505060405180910390f35b3480156102c757600080fd5b506102d0611ee0565b604051808273ffffffffffffffffffffffffffffffffffffffff1673ffffffffffffffffffffffffffffffffffffffff16815260200191505060405180910390f35b34801561031e57600080fd5b5061033d60048036038101908080359060200190929190505050611f06565b6040518082815260200191505060405180910390f35b34801561035f57600080fd5b5061039e60048036038101908080359060200190929190803573ffffffffffffffffffffffffffffffffffffffff169060200190929190505050612002565b005b3480156103ac57600080fd5b506103cb600480360381019080803590602001909291905050506120bf565b604051808763ffffffff1663ffffffff1681526020018660ff1660ff1681526020018563ffffffff1663ffffffff1681526020018463ffffffff1663ffffffff1681526020018060200180602001838103835285818151815260200191508051906020019080838360005b83811015610451578082015181840152602081019050610436565b50505050905090810190601f16801561047e5780820380516001836020036101000a031916815260200191505b50838103825284818151815260200191508051906020019080838360005b838110156104b757808201518184015260208101905061049c565b50505050905090810190601f1680156104e45780820380516001836020036101000a031916815260200191505b509850505050505050505060405180910390f35b34801561050457600080fd5b5061050d612316565b604051808763ffffffff1663ffffffff1681526020018660ff1660ff1681526020018563ffffffff1663ffffffff1681526020018463ffffffff1663ffffffff1681526020018060200180602001838103835285818151815260200191508051906020019080838360005b83811015610593578082015181840152602081019050610578565b50505050905090810190601f1680156105c05780820380516001836020036101000a031916815260200191505b50838103825284818151815260200191508051906020019080838360005b838110156105f95780820151818401526020810190506105de565b50505050905090810190601f1680156106265780820380516001836020036101000a031916815260200191505b509850505050505050505060405180910390f35b34801561064657600080fd5b506106a3600480360381019080803590602001908201803590602001919091929391929390803590602001908201803590602001919091929391929390803590602001908201803590602001919091929391929390505050612349565b005b3480156106b157600080fd5b506106ba612ad1565b6040518082815260200191505060405180910390f35b3480156106dc57600080fd5b506106e5612ad7565b005b3480156106f357600080fd5b506106fc612d6a565b6040518082815260200191505060405180910390f35b34801561071e57600080fd5b50610727612d77565b604051808273ffffffffffffffffffffffffffffffffffffffff1673ffffffffffffffffffffffffffffffffffffffff16815260200191505060405180910390f35b34801561077557600080fd5b506107c460048036038101908080359060200190929190803590602001908201803590602001919091929391929390803590602001908201803590602001919091929391929390505050612da1565b005b3480156107d257600080fd5b506107db613028565b604051808273ffffffffffffffffffffffffffffffffffffffff1673ffffffffffffffffffffffffffffffffffffffff16815260200191505060405180910390f35b34801561082957600080fd5b5061083261304e565b604051808215151515815260200191505060405180910390f35b34801561085857600080fd5b506108616130f2565b005b34801561086f57600080fd5b5061088e600480360381019080803590602001909291905050506131f4565b604051808263ffffffff1663ffffffff16815260200191505060405180910390f35b3480156108bc57600080fd5b506108c561322d565b6040518082815260200191505060405180910390f35b3480156108e757600080fd5b506108f061323a565b604051808273ffffffffffffffffffffffffffffffffffffffff1673ffffffffffffffffffffffffffffffffffffffff16815260200191505060405180910390f35b34801561093e57600080fd5b5061095d60048036038101908080359060200190929190505050613260565b604051808563ffffffff1663ffffffff1681526020018463ffffffff1663ffffffff1681526020018360ff1660ff1681526020018263ffffffff1663ffffffff16815260200194505050505060405180910390f35b3480156109be57600080fd5b506109c76132dc565b6040518082815260200191505060405180910390f35b3480156109e957600080fd5b506109f26132e2565b604051808273ffffffffffffffffffffffffffffffffffffffff1673ffffffffffffffffffffffffffffffffffffffff16815260200191505060405180910390f35b348015610a4057600080fd5b50610a49613307565b604051808273ffffffffffffffffffffffffffffffffffffffff1673ffffffffffffffffffffffffffffffffffffffff16815260200191505060405180910390f35b348015610a9757600080fd5b50610aa0613331565b6040518082815260200191505060405180910390f35b348015610ac257600080fd5b50610acb613337565b604051808215151515815260200191505060405180910390f35b348015610af157600080fd5b50610afa61338e565b604051808263ffffffff1663ffffffff16815260200191505060405180910390f35b348015610b2857600080fd5b50610b316133e1565b604051808273ffffffffffffffffffffffffffffffffffffffff1673ffffffffffffffffffffffffffffffffffffffff16815260200191505060405180910390f35b610b7b610e52565b005b348015610b8957600080fd5b50610b92613407565b6040518082815260200191505060405180910390f35b348015610bb457600080fd5b50610bbd613485565b60405180838152602001821515151581526020019250505060405180910390f35b348015610bea57600080fd5b50610c096004803603810190808035906020019092919050505061352e565b604051808763ffffffff1663ffffffff1681526020018660ff1660ff1681526020018563ffffffff1663ffffffff1681526020018463ffffffff1663ffffffff1681526020018060200180602001838103835285818151815260200191508051906020019080838360005b83811015610c8f578082015181840152602081019050610c74565b50505050905090810190601f168015610cbc5780820380516001836020036101000a031916815260200191505b50838103825284818151815260200191508051906020019080838360005b83811015610cf5578082015181840152602081019050610cda565b50505050905090810190601f168015610d225780820380516001836020036101000a031916815260200191505b509850505050505050505060405180910390f35b348015610d4257600080fd5b50610d61600480360381019080803590602001909291905050506136e6565b6040518080602001828103825283818151815260200191508051906020019060200280838360005b83811015610da4578082015181840152602081019050610d89565b505050509050019250505060405180910390f35b348015610dc457600080fd5b50610df9600480360381019080803573ffffffffffffffffffffffffffffffffffffffff16906020019092919050505061375e565b005b348015610e0757600080fd5b50610e106137c5565b604051808273ffffffffffffffffffffffffffffffffffffffff1673ffffffffffffffffffffffffffffffffffffffff16815260200191505060405180910390f35b6000806000806000806000806000600180600082825401925050819055506001549050610e7d61304e565b1515610ef1576040517f08c379a00000000000000000000000000000000000000000000000000000000081526004018080602001828103825260178152602001807f53616c65206973206e6f7420737461727465642079657400000000000000000081525060200191505060405180910390fd5b600034111515610f0057600080fd5b610f08613485565b509850600b89815481101515610f1a57fe5b906000526020600020906003020160000160089054906101000a900460ff1660ff169750600b89815481101515610f4d57fe5b906000526020600020906003020160000160099054906101000a900463ffffffff169650610f7a34611f06565b9550610f873489886137eb565b509450945094506000600754111561126157610fae600754866139b490919063ffffffff16565b9150600360009054906101000a900473ffffffffffffffffffffffffffffffffffffffff1673ffffffffffffffffffffffffffffffffffffffff166323b872dd600960009054906101000a900473ffffffffffffffffffffffffffffffffffffffff16600860009054906101000a900473ffffffffffffffffffffffffffffffffffffffff16856040518463ffffffff167c0100000000000000000000000000000000000000000000000000000000028152600401808473ffffffffffffffffffffffffffffffffffffffff1673ffffffffffffffffffffffffffffffffffffffff1681526020018373ffffffffffffffffffffffffffffffffffffffff1673ffffffffffffffffffffffffffffffffffffffff1681526020018281526020019350505050602060405180830381600087803b1580156110ed57600080fd5b505af1158015611101573d6000803e3d6000fd5b505050506040513d602081101561111757600080fd5b8101908080519060200190929190505050151561113357600080fd5b600260009054906101000a900473ffffffffffffffffffffffffffffffffffffffff1673ffffffffffffffffffffffffffffffffffffffff1663a9059cbb600960009054906101000a900473ffffffffffffffffffffffffffffffffffffffff16846040518363ffffffff167c0100000000000000000000000000000000000000000000000000000000028152600401808373ffffffffffffffffffffffffffffffffffffffff1673ffffffffffffffffffffffffffffffffffffffff16815260200182815260200192505050602060405180830381600087803b15801561121a57600080fd5b505af115801561122e573d6000803e3d6000fd5b505050506040513d602081101561124457600080fd5b8101908080519060200190929190505050151561126057600080fd5b5b600260009054906101000a900473ffffffffffffffffffffffffffffffffffffffff1673ffffffffffffffffffffffffffffffffffffffff16639d2e477733878a6040518463ffffffff167c0100000000000000000000000000000000000000000000000000000000028152600401808473ffffffffffffffffffffffffffffffffffffffff1673ffffffffffffffffffffffffffffffffffffffff1681526020018381526020018263ffffffff1663ffffffff1681526020019350505050602060405180830381600087803b15801561133a57600080fd5b505af115801561134e573d6000803e3d6000fd5b505050506040513d602081101561136457600080fd5b8101908080519060200190929190505050151561138057600080fd5b60008311156113d1573373ffffffffffffffffffffffffffffffffffffffff166108fc849081150290604051600060405180830381858888f193505050501580156113cf573d6000803e3d6000fd5b505b6000600654111561145a57600860009054906101000a900473ffffffffffffffffffffffffffffffffffffffff1673ffffffffffffffffffffffffffffffffffffffff166108fc61142d600654876139b490919063ffffffff16565b9081150290604051600060405180830381858888f19350505050158015611458573d6000803e3d6000fd5b505b600a60009054906101000a900473ffffffffffffffffffffffffffffffffffffffff1673ffffffffffffffffffffffffffffffffffffffff1663958799cb3073ffffffffffffffffffffffffffffffffffffffff1631620186a09033896040518563ffffffff167c0100000000000000000000000000000000000000000000000000000000028152600401808373ffffffffffffffffffffffffffffffffffffffff1673ffffffffffffffffffffffffffffffffffffffff168152602001828152602001925050506000604051808303818589803b15801561153b57600080fd5b5088f115801561154f573d6000803e3d6000fd5b5050505050503373ffffffffffffffffffffffffffffffffffffffff167f347f5f0051b895093800553e6e78ef332849e2552639a4f5ffe66535788ae07885878660405180848152602001838152602001828152602001935050505060405180910390a2600154811415156115c357600080fd5b505050505050505050565b60008060006060806000809054906101000a900473ffffffffffffffffffffffffffffffffffffffff1673ffffffffffffffffffffffffffffffffffffffff163373ffffffffffffffffffffffffffffffffffffffff1614151561163157600080fd5b6000600b8054905011156116855742600b600081548110151561165057fe5b906000526020600020906003020160000160009054906101000a900463ffffffff1663ffffffff1611151561168457600080fd5b5b7fffffffffffffffffffffffffffffffffffffffffffffffffffffffffffffffff60ff168d8d9050111515156116ba57600080fd5b60038d8d9050101515156116cd57600080fd5b600060038e8e90508115156116de57fe5b061415156116eb57600080fd5b8888905061170660028d8d90506139f990919063ffffffff16565b14151561171257600080fd5b8c8c905061172d60038d8d90506139f990919063ffffffff16565b14151561173957600080fd5b60028b8b905002878790501015151561175157600080fd5b6000600b80549050111561185c578c8c6000818110151561176e57fe5b9050602002013563ffffffff1663ffffffff16600b6001600b805490500381548110151561179857fe5b906000526020600020906003020160000160049054906101000a900463ffffffff1663ffffffff1610151561185b576040517f08c379a00000000000000000000000000000000000000000000000000000000081526004018080602001828103825260358152602001807f4669727374206d696c6573746f6e6520656e6444617465206d7573742062652081526020017f6774206c61737420737461676520656e6444617465000000000000000000000081525060400191505060405180910390fd5b5b6000945060009350600092505b8c8c905060ff168360ff161015611e0f57428d8d8560ff16818110151561188c57fe5b9050602002013563ffffffff1663ffffffff161115156118ab57600080fd5b8c8c8460ff1681811015156118bc57fe5b9050602002013563ffffffff1663ffffffff168d8d6001860160ff1681811015156118e357fe5b9050602002013563ffffffff1663ffffffff1611151561190257600080fd5b8c8c6001850160ff16818110151561191657fe5b9050602002013563ffffffff1663ffffffff168d8d6002860160ff16818110151561193d57fe5b9050602002013563ffffffff1663ffffffff1611151561195c57600080fd5b60008360ff161115611a4f578c8c8460ff16818110151561197957fe5b9050602002013563ffffffff1663ffffffff168d8d6001860360ff1681811015156119a057fe5b9050602002013563ffffffff1663ffffffff16101515611a4e576040517f08c379a00000000000000000000000000000000000000000000000000000000081526004018080602001828103825260298152602001807f4d696c6573746f6e65206461746573206973206e6f7420696e20617363656e6481526020017f696e67206f72646572000000000000000000000000000000000000000000000081525060400191505060405180910390fd5b5b611acb858a8a600260038860ff16811515611a6657fe5b040260ff168181101515611a7657fe5b9050602002013563ffffffff1663ffffffff1689898080601f016020809104026020016040519081016040528093929190818152602001838380828437820191505050505050613a379092919063ffffffff16565b9150611b838989600260038760ff16811515611ae357fe5b040260ff168181101515611af357fe5b9050602002013563ffffffff1663ffffffff1686018a8a6001600260038960ff16811515611b1d57fe5b04020160ff168181101515611b2e57fe5b9050602002013563ffffffff1663ffffffff1689898080601f016020809104026020016040519081016040528093929190818152602001838380828437820191505050505050613a379092919063ffffffff16565b905060008251111515611b9557600080fd5b60008151111515611ba557600080fd5b600c60c0604051908101604052808f8f8760ff168181101515611bc457fe5b9050602002013563ffffffff1663ffffffff1681526020018d8d60038860ff16811515611bed57fe5b0460ff168181101515611bfc57fe5b9050602002013560ff1660ff1681526020018f8f6001880160ff168181101515611c2257fe5b9050602002013563ffffffff1663ffffffff1681526020018f8f6002880160ff168181101515611c4e57fe5b9050602002013563ffffffff1663ffffffff168152602001848152602001838152509080600181540180825580915050906001820390600052602060002090600302016000909192909190915060008201518160000160006101000a81548163ffffffff021916908363ffffffff16021790555060208201518160000160046101000a81548160ff021916908360ff16021790555060408201518160000160056101000a81548163ffffffff021916908363ffffffff16021790555060608201518160000160096101000a81548163ffffffff021916908363ffffffff1602179055506080820151816001019080519060200190611d4d929190613c9a565b5060a0820151816002019080519060200190611d6a929190613c9a565b505050508888600160038660ff16811515611d8157fe5b040160ff168181101515611d9157fe5b9050602002013563ffffffff16898960038660ff16811515611daf57fe5b0460ff168181101515611dbe57fe5b9050602002013563ffffffff160163ffffffff16850194508a8a60038560ff16811515611de757fe5b0460ff168181101515611df657fe5b9050602002013560ff1684019350600383019250611869565b8c8c600d9190611e20929190613d1a565b5060648460ff16141515611e3357600080fd5b50505050505050505050505050565b6060600b82815481101515611e5357fe5b9060005260206000209060030201600201805480602002602001604051908101604052809291908181526020018280548015611ed457602002820191906000526020600020906000905b82829054906101000a900460ff1660ff1681526020019060010190602082600001049283019260010382029150808411611e9d5790505b50505050509050919050565b600360009054906101000a900473ffffffffffffffffffffffffffffffffffffffff1681565b600080600080600080611f17613485565b94509450831515611f2b5760009550611ff8565b600b81815481101515611f3a57fe5b9060005260206000209060030201925060009150600090505b8260010180549050811015611ff757818710158015611f8c57508260010181815481101515611f7e57fe5b906000526020600020015487105b15611fcc578260020181815481101515611fa257fe5b90600052602060002090602091828204019190069054906101000a900460ff1660ff169550611ff7565b8260010181815481101515611fdd57fe5b906000526020600020015491508080600101915050611f53565b5b5050505050919050565b6000809054906101000a900473ffffffffffffffffffffffffffffffffffffffff1673ffffffffffffffffffffffffffffffffffffffff163373ffffffffffffffffffffffffffffffffffffffff1614151561205d57600080fd5b6000600b8054905011156120b15742600b600081548110151561207c57fe5b906000526020600020906003020160000160009054906101000a900463ffffffff1663ffffffff161115156120b057600080fd5b5b6120bb8282613ac4565b5050565b600080600080606080600c878154811015156120d757fe5b906000526020600020906003020160000160009054906101000a900463ffffffff16600c8881548110151561210857fe5b906000526020600020906003020160000160049054906101000a900460ff16600c8981548110151561213657fe5b906000526020600020906003020160000160059054906101000a900463ffffffff16600c8a81548110151561216757fe5b906000526020600020906003020160000160099054906101000a900463ffffffff16600c8b81548110151561219857fe5b9060005260206000209060030201600101600c8c8154811015156121b857fe5b9060005260206000209060030201600201818054600181600116156101000203166002900480601f01602080910402602001604051908101604052809291908181526020018280546001816001161561010002031660029004801561225e5780601f106122335761010080835404028352916020019161225e565b820191906000526020600020905b81548152906001019060200180831161224157829003601f168201915b50505050509150808054600181600116156101000203166002900480601f0160208091040260200160405190810160405280929190818152602001828054600181600116156101000203166002900480156122fa5780601f106122cf576101008083540402835291602001916122fa565b820191906000526020600020905b8154815290600101906020018083116122dd57829003601f168201915b5050505050905095509550955095509550955091939550919395565b6000806000806060806000612329613407565b9050612334816120bf565b96509650965096509650965050909192939495565b6000806000809054906101000a900473ffffffffffffffffffffffffffffffffffffffff1673ffffffffffffffffffffffffffffffffffffffff163373ffffffffffffffffffffffffffffffffffffffff161415156123a757600080fd5b6000600b8054905011156123fb5742600b60008154811015156123c657fe5b906000526020600020906003020160000160009054906101000a900463ffffffff1663ffffffff161115156123fa57600080fd5b5b7fffffffffffffffffffffffffffffffffffffffffffffffffffffffffffffffff60ff16888890501115151561243057600080fd5b60008888905011151561244257600080fd5b858590508888905014151561245657600080fd5b838390508888905014151561246a57600080fd5b6000600c80549050111561258557878760018a8a905003818110151561248c57fe5b90506040020160016002811015156124a057fe5b602002013563ffffffff1663ffffffff16600c60008154811015156124c157fe5b906000526020600020906003020160000160009054906101000a900463ffffffff1663ffffffff16111515612584576040517f08c379a00000000000000000000000000000000000000000000000000000000081526004018080602001828103825260358152602001807f4c61737420737461676520656e6444617465206d757374206265206c7420666981526020017f727374206d696c6573746f6e6520656e6444617465000000000000000000000081525060400191505060405180910390fd5b5b8787905091508160ff16600b8161259c9190613dd0565b50600090505b8160ff168160ff161015612a9b57600086868360ff1681811015156125c357fe5b9050602002013560ff1660ff16101580156125fb5750606486868360ff1681811015156125ec57fe5b9050602002013560ff1660ff16105b1515612695576040517f08c379a000000000000000000000000000000000000000000000000000000000815260040180806020018281038252602f8152602001807f537461676520646973636f756e74206973206e6f7420696e20616c6c6f77656481526020017f2072616e6765205b302c2031303029000000000000000000000000000000000081525060400191505060405180910390fd5b4288888360ff1681811015156126a757fe5b90506040020160006002811015156126bb57fe5b602002013563ffffffff1663ffffffff161115156126d857600080fd5b87878260ff1681811015156126e957fe5b90506040020160016002811015156126fd57fe5b602002013563ffffffff1663ffffffff1688888360ff16818110151561271f57fe5b905060400201600060028110151561273357fe5b602002013563ffffffff1663ffffffff161015156127df576040517f08c379a00000000000000000000000000000000000000000000000000000000081526004018080602001828103825260248152602001807f53746167652073746172742064617465206d75737420626520677420656e642081526020017f646174650000000000000000000000000000000000000000000000000000000081525060400191505060405180910390fd5b60008160ff1611156128f75787878260ff1681811015156127fc57fe5b905060400201600060028110151561281057fe5b602002013563ffffffff1663ffffffff1688886001840360ff16818110151561283557fe5b905060400201600160028110151561284957fe5b602002013563ffffffff1663ffffffff16111515156128f6576040517f08c379a00000000000000000000000000000000000000000000000000000000081526004018080602001828103825260228152602001807f53746167657320617265206e6f7420696e20686973746f726963616c206f726481526020017f657200000000000000000000000000000000000000000000000000000000000081525060400191505060405180910390fd5b5b87878260ff16818110151561290857fe5b905060400201600060028110151561291c57fe5b602002013563ffffffff16600b8260ff1681548110151561293957fe5b906000526020600020906003020160000160006101000a81548163ffffffff021916908363ffffffff16021790555087878260ff16818110151561297957fe5b905060400201600160028110151561298d57fe5b602002013563ffffffff16600b8260ff168154811015156129aa57fe5b906000526020600020906003020160000160046101000a81548163ffffffff021916908363ffffffff16021790555085858260ff1681811015156129ea57fe5b9050602002013560ff16600b8260ff16815481101515612a0657fe5b906000526020600020906003020160000160086101000a81548160ff021916908360ff16021790555083838260ff168181101515612a4057fe5b9050602002013563ffffffff16600b8260ff16815481101515612a5f57fe5b906000526020600020906003020160000160096101000a81548163ffffffff021916908363ffffffff16021790555080806001019150506125a2565b7f743961f4e677d1146fbf85d75565b1c5474fd083eb166f8b9595cf5d01a4d6e660405160405180910390a15050505050505050565b60075481565b6000809054906101000a900473ffffffffffffffffffffffffffffffffffffffff1673ffffffffffffffffffffffffffffffffffffffff163373ffffffffffffffffffffffffffffffffffffffff16141515612b3257600080fd5b612b3a613337565b1515612b4557600080fd5b600260009054906101000a900473ffffffffffffffffffffffffffffffffffffffff1673ffffffffffffffffffffffffffffffffffffffff1663a9059cbb6000809054906101000a900473ffffffffffffffffffffffffffffffffffffffff16600260009054906101000a900473ffffffffffffffffffffffffffffffffffffffff1673ffffffffffffffffffffffffffffffffffffffff166370a08231306040518263ffffffff167c0100000000000000000000000000000000000000000000000000000000028152600401808273ffffffffffffffffffffffffffffffffffffffff1673ffffffffffffffffffffffffffffffffffffffff168152602001915050602060405180830381600087803b158015612c6257600080fd5b505af1158015612c76573d6000803e3d6000fd5b505050506040513d6020811015612c8c57600080fd5b81019080805190602001909291905050506040518363ffffffff167c0100000000000000000000000000000000000000000000000000000000028152600401808373ffffffffffffffffffffffffffffffffffffffff1673ffffffffffffffffffffffffffffffffffffffff16815260200182815260200192505050602060405180830381600087803b158015612d2257600080fd5b505af1158015612d36573d6000803e3d6000fd5b505050506040513d6020811015612d4c57600080fd5b81019080805190602001909291905050501515612d6857600080fd5b565b6000600c80549050905090565b6000600260009054906101000a900473ffffffffffffffffffffffffffffffffffffffff16905090565b60008060009054906101000a900473ffffffffffffffffffffffffffffffffffffffff1673ffffffffffffffffffffffffffffffffffffffff163373ffffffffffffffffffffffffffffffffffffffff16141515612dfe57600080fd5b6000600b805490501115612e525742600b6000815481101515612e1d57fe5b906000526020600020906003020160000160009054906101000a900463ffffffff1663ffffffff16111515612e5157600080fd5b5b8282905085859050141515612e6657600080fd5b600b8054905086101515612e7957600080fd5b600090505b84849050811015612f68576000811115612f5b578484828181101515612ea057fe5b905060200201358585600184038181101515612eb857fe5b90506020020135101515612f5a576040517f08c379a000000000000000000000000000000000000000000000000000000000815260040180806020018281038252602c8152602001807f566f6c756d6520626f756e646172696573206d75737420626520696e2061736381526020017f656e64696e67206f72646572000000000000000000000000000000000000000081525060400191505060405180910390fd5b5b8080600101915050612e7e565b600b86815481101515612f7757fe5b90600052602060002090600302016001016000612f949190613e02565b600b86815481101515612fa357fe5b90600052602060002090600302016002016000612fc09190613e23565b8484600b88815481101515612fd157fe5b90600052602060002090600302016001019190612fef929190613e4b565b508282600b8881548110151561300157fe5b9060005260206000209060030201600201919061301f929190613e98565b50505050505050565b600860009054906101000a900473ffffffffffffffffffffffffffffffffffffffff1681565b600080600061305b613485565b9150915080151561306f57600092506130ed565b42600b8381548110151561307f57fe5b906000526020600020906003020160000160009054906101000a900463ffffffff1663ffffffff16111580156130ea575042600b838154811015156130c057fe5b906000526020600020906003020160000160049054906101000a900463ffffffff1663ffffffff16115b92505b505090565b6000809054906101000a900473ffffffffffffffffffffffffffffffffffffffff1673ffffffffffffffffffffffffffffffffffffffff163373ffffffffffffffffffffffffffffffffffffffff1614151561314d57600080fd5b6000809054906101000a900473ffffffffffffffffffffffffffffffffffffffff1673ffffffffffffffffffffffffffffffffffffffff167ff8df31144d9c2f0f6b59d69b8b98abd5459d07f2742c4df920b25aae33c6482060405160405180910390a260008060006101000a81548173ffffffffffffffffffffffffffffffffffffffff021916908373ffffffffffffffffffffffffffffffffffffffff160217905550565b600d8181548110151561320357fe5b9060005260206000209060089182820401919006600402915054906101000a900463ffffffff1681565b6000600b80549050905090565b600960009054906101000a900473ffffffffffffffffffffffffffffffffffffffff1681565b600b8181548110151561326f57fe5b90600052602060002090600302016000915090508060000160009054906101000a900463ffffffff16908060000160049054906101000a900463ffffffff16908060000160089054906101000a900460ff16908060000160099054906101000a900463ffffffff16905084565b60065481565b6000809054906101000a900473ffffffffffffffffffffffffffffffffffffffff1681565b6000600a60009054906101000a900473ffffffffffffffffffffffffffffffffffffffff16905090565b60055481565b600080600b805490501480613389575042600b6001600b805490500381548110151561335f57fe5b906000526020600020906003020160000160049054906101000a900463ffffffff1663ffffffff16105b905090565b600080600b805490501115156133a357600080fd5b600b6001600b80549050038154811015156133ba57fe5b906000526020600020906003020160000160049054906101000a900463ffffffff16905090565b600a60009054906101000a900473ffffffffffffffffffffffffffffffffffffffff1681565b600080600c805490509050600081141561342057600080fd5b5b600181038210801561346f5750600d6003830281548110151561344057fe5b90600052602060002090600891828204019190066004029054906101000a900463ffffffff1663ffffffff1642115b15613481578180600101925050613421565b5090565b600080600080600091505b600b8054905082101561351d57600b828154811015156134ac57fe5b90600052602060002090600302019050428160000160009054906101000a900463ffffffff1663ffffffff16111580156134ff5750428160000160049054906101000a900463ffffffff1663ffffffff16115b156135105781600193509350613528565b8180600101925050613490565b600080819150935093505b50509091565b600c8181548110151561353d57fe5b90600052602060002090600302016000915090508060000160009054906101000a900463ffffffff16908060000160049054906101000a900460ff16908060000160059054906101000a900463ffffffff16908060000160099054906101000a900463ffffffff1690806001018054600181600116156101000203166002900480601f01602080910402602001604051908101604052809291908181526020018280546001816001161561010002031660029004801561363e5780601f106136135761010080835404028352916020019161363e565b820191906000526020600020905b81548152906001019060200180831161362157829003601f168201915b505050505090806002018054600181600116156101000203166002900480601f0160208091040260200160405190810160405280929190818152602001828054600181600116156101000203166002900480156136dc5780601f106136b1576101008083540402835291602001916136dc565b820191906000526020600020905b8154815290600101906020018083116136bf57829003601f168201915b5050505050905086565b6060600b828154811015156136f757fe5b906000526020600020906003020160010180548060200260200160405190810160405280929190818152602001828054801561375257602002820191906000526020600020905b81548152602001906001019080831161373e575b50505050509050919050565b6000809054906101000a900473ffffffffffffffffffffffffffffffffffffffff1673ffffffffffffffffffffffffffffffffffffffff163373ffffffffffffffffffffffffffffffffffffffff161415156137b957600080fd5b6137c281613b5b565b50565b600260009054906101000a900473ffffffffffffffffffffffffffffffffffffffff1681565b60008060008060008793506000871161380657600554613832565b6138316064613823896064036005546139f990919063ffffffff16565b613c5590919063ffffffff16565b5b9150613876600260045403600a0a6138688461385a8a6064018d6139f990919063ffffffff16565b613c5590919063ffffffff16565b6139f990919063ffffffff16565b9450600260009054906101000a900473ffffffffffffffffffffffffffffffffffffffff1673ffffffffffffffffffffffffffffffffffffffff166370a08231306040518263ffffffff167c0100000000000000000000000000000000000000000000000000000000028152600401808273ffffffffffffffffffffffffffffffffffffffff1673ffffffffffffffffffffffffffffffffffffffff168152602001915050602060405180830381600087803b15801561393557600080fd5b505af1158015613949573d6000803e3d6000fd5b505050506040513d602081101561395f57600080fd5b81019080805190602001909291905050509050848110156139aa5761399f85613991838b6139f990919063ffffffff16565b613c5590919063ffffffff16565b935083880392508094505b5093509350935093565b60006139bf82613c7f565b15156139ca57600080fd5b6139f16127106139e384866139f990919063ffffffff16565b613c5590919063ffffffff16565b905092915050565b6000806000841415613a0e5760009150613a30565b8284029050828482811515613a1f57fe5b04141515613a2c57600080fd5b8091505b5092915050565b606080828401855110151515613a4c57600080fd5b821560008114613a6757604051915060208201604052613ab8565b6040519150601f8416801560200281840101858101878315602002848b0101015b81831015613aa55780518352602083019250602081019050613a88565b50868552601f19601f8301166040525050505b50809150509392505050565b600082111515613ad357600080fd5b600073ffffffffffffffffffffffffffffffffffffffff168173ffffffffffffffffffffffffffffffffffffffff1614151515613b0f57600080fd5b8160058190555080600860006101000a81548173ffffffffffffffffffffffffffffffffffffffff021916908373ffffffffffffffffffffffffffffffffffffffff1602179055505050565b600073ffffffffffffffffffffffffffffffffffffffff168173ffffffffffffffffffffffffffffffffffffffff1614151515613b9757600080fd5b8073ffffffffffffffffffffffffffffffffffffffff166000809054906101000a900473ffffffffffffffffffffffffffffffffffffffff1673ffffffffffffffffffffffffffffffffffffffff167f8be0079c531659141344cd1fd0a4f28419497f9722a3daafe3b4186f6b6457e060405160405180910390a3806000806101000a81548173ffffffffffffffffffffffffffffffffffffffff021916908373ffffffffffffffffffffffffffffffffffffffff16021790555050565b600080600083111515613c6757600080fd5b8284811515613c7257fe5b0490508091505092915050565b6000808210158015613c9357506127108211155b9050919050565b828054600181600116156101000203166002900490600052602060002090601f016020900481019282601f10613cdb57805160ff1916838001178555613d09565b82800160010185558215613d09579182015b82811115613d08578251825591602001919060010190613ced565b5b509050613d169190613f42565b5090565b82805482825590600052602060002090600701600890048101928215613dbf5791602002820160005b83821115613d8d57833563ffffffff1683826101000a81548163ffffffff021916908363ffffffff1602179055509260200192600401602081600301049283019260010302613d43565b8015613dbd5782816101000a81549063ffffffff0219169055600401602081600301049283019260010302613d8d565b505b509050613dcc9190613f67565b5090565b815481835581811115613dfd57600302816003028360005260206000209182019101613dfc9190613f9a565b5b505050565b5080546000825590600052602060002090810190613e209190613f42565b50565b50805460008255601f016020900490600052602060002090810190613e489190613f42565b50565b828054828255906000526020600020908101928215613e87579160200282015b82811115613e86578235825591602001919060010190613e6b565b5b509050613e949190613f42565b5090565b82805482825590600052602060002090601f01602090048101928215613f315791602002820160005b83821115613f0257833560ff1683826101000a81548160ff021916908360ff1602179055509260200192600101602081600001049283019260010302613ec1565b8015613f2f5782816101000a81549060ff0219169055600101602081600001049283019260010302613f02565b505b509050613f3e9190614032565b5090565b613f6491905b80821115613f60576000816000905550600101613f48565b5090565b90565b613f9791905b80821115613f9357600081816101000a81549063ffffffff021916905550600101613f6d565b5090565b90565b61402f91905b8082111561402b57600080820160006101000a81549063ffffffff02191690556000820160046101000a81549063ffffffff02191690556000820160086101000a81549060ff02191690556000820160096101000a81549063ffffffff02191690556001820160006140129190613e02565b6002820160006140229190613e23565b50600301613fa0565b5090565b90565b61405f91905b8082111561405b57600081816101000a81549060ff021916905550600101614038565b5090565b90565b600061406d82613c7f565b151561407857600080fd5b61408c606483613c5590919063ffffffff16565b90509190505600a165627a7a72305820acf6adcd124bdedeb5883ddecc3ce6d06839c55676b0233d1702f7122d606fa00029",
  "source": "pragma solidity ^0.4.24;\n\nimport \"../openzeppelin-solidity/contracts/ownership/Ownable.sol\";\nimport \"../openzeppelin-solidity/contracts/ReentrancyGuard.sol\";\nimport \"../openzeppelin-solidity/contracts/math/SafeMath.sol\";\nimport \"../solidity-bytes-utils/contracts/BytesLib.sol\";\nimport \"./interfaces/IW12Crowdsale.sol\";\nimport \"../openzeppelin-solidity/contracts/token/ERC20/ERC20.sol\";\nimport \"./interfaces/IW12Fund.sol\";\nimport \"./libs/Percent.sol\";\n\n\ncontract W12Crowdsale is IW12Crowdsale, Ownable, ReentrancyGuard {\n    using SafeMath for uint;\n    using Percent for uint;\n    using BytesLib for bytes;\n\n    struct Stage {\n        uint32 startDate;\n        uint32 endDate;\n        uint8 discount;\n        uint32 vesting;\n        uint[] volumeBoundaries;\n        uint8[] volumeBonuses;\n    }\n\n    struct Milestone {\n        uint32 endDate;\n        uint8  tranchePercent;\n        uint32 voteEndDate;\n        uint32 withdrawalWindow;\n        bytes name;\n        bytes description;\n    }\n\n    WToken public token;\n    ERC20 public originToken;\n    uint tokenDecimals;\n    uint public price;\n    uint public serviceFee;\n    uint public WTokenSaleFeePercent;\n    address public serviceWallet;\n    address public swap;\n    IW12Fund public fund;\n\n    Stage[] public stages;\n    Milestone[] public milestones;\n    uint32[] public milestoneDates;\n\n    event TokenPurchase(address indexed buyer, uint amountPaid, uint tokensBought, uint change);\n    event StagesUpdated();\n    event MilestonesSet();\n\n    event debug(uint value);\n\n    constructor (\n        address _originToken,\n        address _token,\n        uint _tokenDecimals,\n        uint _price,\n        address _serviceWallet,\n        address _swap,\n        uint _serviceFee,\n        uint _WTokenSaleFeePercent,\n        IW12Fund _fund\n    )\n        public\n    {\n        require(_token != address(0));\n        require(_serviceFee.isPercent() && _serviceFee.fromPercent() < 100);\n        require(_WTokenSaleFeePercent.isPercent() && _WTokenSaleFeePercent.fromPercent() < 100);\n        require(_fund != address(0));\n        require(_swap != address(0));\n\n        token = WToken(_token);\n        originToken = ERC20(_originToken);\n        tokenDecimals = _tokenDecimals;\n\n        __setParameters(_price, _serviceWallet);\n        serviceFee = _serviceFee;\n        swap = _swap;\n        WTokenSaleFeePercent = _WTokenSaleFeePercent;\n        fund = _fund;\n    }\n\n    function stagesLength() external view returns (uint) {\n        return stages.length;\n    }\n\n    function milestonesLength() external view returns (uint) {\n        return milestones.length;\n    }\n\n    function getMilestone(uint index) public view returns (uint32, uint8, uint32, uint32, bytes, bytes) {\n        return (\n            milestones[index].endDate,\n            milestones[index].tranchePercent,\n            milestones[index].voteEndDate,\n            milestones[index].withdrawalWindow,\n            milestones[index].name,\n            milestones[index].description\n        );\n    }\n\n    function getStageVolumeBoundaries(uint stageNumber) external view returns (uint[]) {\n        return stages[stageNumber].volumeBoundaries;\n    }\n\n    function getStageVolumeBonuses(uint stageNumber) external view returns (uint8[]) {\n        return stages[stageNumber].volumeBonuses;\n    }\n\n    function getEndDate() external view returns (uint32) {\n        require(stages.length > 0);\n\n        return stages[stages.length - 1].endDate;\n    }\n\n    function getCurrentMilestoneIndex() public view returns (uint index) {\n        uint milestonesCount = milestones.length;\n\n        if(milestonesCount == 0)\n            revert();\n\n        while(index < milestonesCount - 1 && now > milestoneDates[index * 3])\n            index++;\n    }\n\n    // returns last milestone if completely ended or active milestone at now\n    function getCurrentMilestone() external view returns (uint32, uint8, uint32, uint32, bytes, bytes) {\n        uint index = getCurrentMilestoneIndex();\n\n        return getMilestone(index);\n    }\n\n    function __setParameters(uint _price, address _serviceWallet) internal {\n        require(_price > 0);\n        require(_serviceWallet != address(0));\n\n        price = _price;\n        serviceWallet = _serviceWallet;\n    }\n\n    function setParameters(uint _price, address _serviceWallet) external onlyOwner beforeSaleStart {\n        __setParameters(_price, _serviceWallet);\n    }\n\n    function setStages(uint32[2][] dates, uint8[] stage_discounts, uint32[] stage_vestings) external onlyOwner beforeSaleStart {\n        require(dates.length <= uint8(-1));\n        require(dates.length > 0);\n        require(dates.length == stage_discounts.length);\n        require(dates.length == stage_vestings.length);\n\n        if (milestones.length > 0) {\n            require(milestones[0].endDate > dates[dates.length - 1][1], \"Last stage endDate must be lt first milestone endDate\");\n        }\n\n        uint8 stagesCount = uint8(dates.length);\n        stages.length = stagesCount;\n\n        for(uint8 i = 0; i < stagesCount; i++) {\n            require(stage_discounts[i] >= 0 && stage_discounts[i] < 100, \"Stage discount is not in allowed range [0, 100)\");\n            require(dates[i][0] > now);\n            require(dates[i][0] < dates[i][1], \"Stage start date must be gt end date\");\n\n            if (i > 0) {\n                require(dates[i - 1][1] <= dates[i][0], \"Stages are not in historical order\");\n            }\n\n            stages[i].startDate = dates[i][0];\n            stages[i].endDate = dates[i][1];\n            stages[i].discount = stage_discounts[i];\n            stages[i].vesting = stage_vestings[i];\n        }\n\n        emit StagesUpdated();\n    }\n\n    function setStageVolumeBonuses(uint stage, uint[] volumeBoundaries, uint8[] volumeBonuses) external onlyOwner beforeSaleStart {\n        require(volumeBoundaries.length == volumeBonuses.length);\n        require(stage < stages.length);\n\n        for(uint i = 0; i < volumeBoundaries.length; i++) {\n            if (i > 0) {\n                require(volumeBoundaries[i - 1] < volumeBoundaries[i], \"Volume boundaries must be in ascending order\");\n            }\n        }\n\n        delete stages[stage].volumeBoundaries;\n        delete stages[stage].volumeBonuses;\n\n        stages[stage].volumeBoundaries = volumeBoundaries;\n        stages[stage].volumeBonuses = volumeBonuses;\n    }\n\n    function setMilestones(uint32[] dates, uint8[] tranchePercents, uint32[] offsets, bytes namesAndDescriptions) external onlyOwner beforeSaleStart {\n        require(dates.length <= uint8(-1));\n        require(dates.length >= 3);\n        require(dates.length % 3 == 0);\n        require(tranchePercents.length.mul(2) == offsets.length);\n        require(tranchePercents.length.mul(3) == dates.length);\n        require(namesAndDescriptions.length >= tranchePercents.length * 2);\n\n        if (stages.length > 0) {\n            require(stages[stages.length - 1].endDate < dates[0], \"First milestone endDate must be gt last stage endDate\");\n        }\n\n        uint offset = 0;\n        uint8 totalPercents = 0;\n\n        for(uint8 i = 0; i < uint8(dates.length); i += 3) {\n            require(dates[i] > now);\n            require(dates[i + 1] > dates[i]);\n            require(dates[i + 2] > dates[i + 1]);\n\n            if (i > 0) {\n                require(dates[i - 1] < dates[i], \"Milestone dates is not in ascending order\");\n            }\n\n            bytes memory name = namesAndDescriptions.slice(offset, offsets[i / 3 * 2]);\n            bytes memory description = namesAndDescriptions.slice(offset + offsets[i / 3 * 2], offsets[i / 3 * 2 + 1]);\n\n            require(name.length > 0);\n            require(description.length > 0);\n\n            milestones.push(Milestone({\n                endDate: dates[i],\n                tranchePercent: tranchePercents[i / 3],\n                voteEndDate: dates[i + 1],\n                withdrawalWindow: dates[i + 2],\n                name: name,\n                description: description\n            }));\n\n            offset += offsets[i / 3] + offsets[i / 3 + 1];\n            totalPercents += tranchePercents[i / 3];\n        }\n\n        milestoneDates = dates;\n        require(totalPercents == 100);\n    }\n\n    function buyTokens() payable public nonReentrant onlyWhenSaleActive {\n        require(msg.value > 0);\n\n        (uint index, ) = getCurrentStageIndex();\n\n        uint discount = stages[index].discount;\n        uint32 vesting = stages[index].vesting;\n        uint volumeBonus = getSaleVolumeBonus(msg.value);\n\n        (uint tokenAmount, uint weiCost, uint change, ) = _purchaseOrder(msg.value, discount, volumeBonus);\n\n        if (WTokenSaleFeePercent > 0) {\n            uint tokensFee = tokenAmount.percent(WTokenSaleFeePercent);\n\n            require(originToken.transferFrom(swap, serviceWallet, tokensFee));\n            require(token.transfer(swap, tokensFee));\n        }\n\n        require(token.vestingTransfer(msg.sender, tokenAmount, vesting));\n\n        if (change > 0) {\n            msg.sender.transfer(change);\n        }\n\n        if(serviceFee > 0)\n            serviceWallet.transfer(weiCost.percent(serviceFee));\n\n        fund.recordPurchase.value(address(this).balance).gas(100000)(msg.sender, tokenAmount);\n\n        emit TokenPurchase(msg.sender, weiCost, tokenAmount, change);\n    }\n\n    function _purchaseOrder(uint _wei, uint discount, uint volumeBonus)\n        internal view returns (uint tokens, uint weiCost, uint change, uint actualPrice)\n    {\n        weiCost = _wei;\n\n        actualPrice = discount > 0\n            ? price.mul(100 - discount).div(100)\n            : price;\n\n        tokens = _wei\n            .mul(100 + volumeBonus)\n            .div(actualPrice)\n            .mul(10 ** (tokenDecimals - 2));\n\n        uint balance = token.balanceOf(address(this));\n\n        if (balance < tokens) {\n            weiCost = _wei\n                .mul(balance)\n                .div(tokens);\n            change = _wei - weiCost;\n            tokens = balance;\n        }\n    }\n\n    function getWToken() external view returns(WToken) {\n        return token;\n    }\n\n    function getFund() external view returns(IW12Fund) {\n        return fund;\n    }\n\n    function getSaleVolumeBonus(uint value) public view returns(uint bonus) {\n        (uint index, bool found) = getCurrentStageIndex();\n\n        if (!found) return 0;\n\n        Stage storage stage = stages[i];\n\n        uint lastBoundary = 0;\n\n        for(uint i = 0; i < stage.volumeBoundaries.length; i++) {\n            if (value >= lastBoundary && value < stage.volumeBoundaries[i]) {\n                bonus = stage.volumeBonuses[i];\n                break;\n            }\n\n            lastBoundary = stage.volumeBoundaries[i];\n        }\n    }\n\n    function getCurrentStageIndex() public view returns (uint index, bool found) {\n        for(uint i = 0; i < stages.length; i++) {\n            Stage storage stage = stages[i];\n\n            if (stage.startDate <= now && stage.endDate > now) {\n                return (i, true);\n            }\n        }\n\n        return (0, false);\n    }\n\n    function claimRemainingTokens() external onlyOwner {\n        require(isEnded());\n\n        require(token.transfer(owner, token.balanceOf(address(this))));\n    }\n\n    function isEnded() public view returns (bool) {\n        return stages.length == 0 || stages[stages.length - 1].endDate < now;\n    }\n\n    function isSaleActive() public view returns (bool) {\n        (uint index, bool found) = getCurrentStageIndex();\n\n        if (!found) return false;\n\n        return stages[index].startDate <= now && stages[index].endDate > now;\n    }\n\n    function() payable external {\n        buyTokens();\n    }\n\n    modifier beforeSaleStart() {\n        if (stages.length > 0) {\n            require(stages[0].startDate > now);\n        }\n\n        _;\n    }\n\n    modifier onlyWhenSaleActive() {\n        require(isSaleActive(), \"Sale is not started yet\");\n\n        _;\n    }\n}\n",
  "sourcePath": "/c/Users/Mr.Hokid/projects/work/w12-product-contracts/contracts/W12Crowdsale.sol",
  "compiler": {
    "name": "solc",
    "version": "0.4.24+commit.e67f0147.Emscripten.clang"
  },
  "schemaVersion": "2.0.1",
  "updatedAt": "2018-08-24T16:22:08.130Z"
}