{
  "contractName": "W12Crowdsale",
  "abi": [
    {
      "constant": true,
      "inputs": [],
      "name": "startDate",
      "outputs": [
        {
          "name": "",
          "type": "uint32"
        }
      ],
      "payable": false,
      "stateMutability": "view",
      "type": "function"
    },
    {
      "constant": true,
      "inputs": [],
      "name": "serviceWallet",
      "outputs": [
        {
          "name": "",
          "type": "address"
        }
      ],
      "payable": false,
      "stateMutability": "view",
      "type": "function"
    },
    {
      "constant": false,
      "inputs": [],
      "name": "renounceOwnership",
      "outputs": [],
      "payable": false,
      "stateMutability": "nonpayable",
      "type": "function"
    },
    {
      "constant": true,
      "inputs": [
        {
          "name": "",
          "type": "uint256"
        }
      ],
      "name": "stages",
      "outputs": [
        {
          "name": "endDate",
          "type": "uint32"
        },
        {
          "name": "discount",
          "type": "uint8"
        },
        {
          "name": "vesting",
          "type": "uint32"
        }
      ],
      "payable": false,
      "stateMutability": "view",
      "type": "function"
    },
    {
      "constant": true,
      "inputs": [],
      "name": "serviceFee",
      "outputs": [
        {
          "name": "",
          "type": "uint8"
        }
      ],
      "payable": false,
      "stateMutability": "view",
      "type": "function"
    },
    {
      "constant": true,
      "inputs": [],
      "name": "owner",
      "outputs": [
        {
          "name": "",
          "type": "address"
        }
      ],
      "payable": false,
      "stateMutability": "view",
      "type": "function"
    },
    {
      "constant": true,
      "inputs": [],
      "name": "price",
      "outputs": [
        {
          "name": "",
          "type": "uint256"
        }
      ],
      "payable": false,
      "stateMutability": "view",
      "type": "function"
    },
    {
      "constant": false,
      "inputs": [
        {
          "name": "newOwner",
          "type": "address"
        }
      ],
      "name": "transferOwnership",
      "outputs": [],
      "payable": false,
      "stateMutability": "nonpayable",
      "type": "function"
    },
    {
      "constant": true,
      "inputs": [],
      "name": "token",
      "outputs": [
        {
          "name": "",
          "type": "address"
        }
      ],
      "payable": false,
      "stateMutability": "view",
      "type": "function"
    },
    {
      "inputs": [
        {
          "name": "_token",
          "type": "address"
        },
        {
          "name": "_startDate",
          "type": "uint32"
        },
        {
          "name": "_price",
          "type": "uint256"
        },
        {
          "name": "_serviceWallet",
          "type": "address"
        },
        {
          "name": "_serviceFee",
          "type": "uint8"
        }
      ],
      "payable": false,
      "stateMutability": "nonpayable",
      "type": "constructor"
    },
    {
      "payable": true,
      "stateMutability": "payable",
      "type": "fallback"
    },
    {
      "anonymous": false,
      "inputs": [
        {
          "indexed": true,
          "name": "previousOwner",
          "type": "address"
        }
      ],
      "name": "OwnershipRenounced",
      "type": "event"
    },
    {
      "anonymous": false,
      "inputs": [
        {
          "indexed": true,
          "name": "previousOwner",
          "type": "address"
        },
        {
          "indexed": true,
          "name": "newOwner",
          "type": "address"
        }
      ],
      "name": "OwnershipTransferred",
      "type": "event"
    },
    {
      "constant": false,
      "inputs": [
        {
          "name": "_startDate",
          "type": "uint32"
        },
        {
          "name": "_price",
          "type": "uint256"
        },
        {
          "name": "_serviceWallet",
          "type": "address"
        },
        {
          "name": "_serviceFee",
          "type": "uint8"
        }
      ],
      "name": "setParameters",
      "outputs": [],
      "payable": false,
      "stateMutability": "nonpayable",
      "type": "function"
    },
    {
      "constant": false,
      "inputs": [
        {
          "name": "stage_endDates",
          "type": "uint32[]"
        },
        {
          "name": "stage_discounts",
          "type": "uint8[]"
        },
        {
          "name": "stage_vestings",
          "type": "uint32[]"
        }
      ],
      "name": "setStages",
      "outputs": [],
      "payable": false,
      "stateMutability": "nonpayable",
      "type": "function"
    },
    {
      "constant": false,
      "inputs": [],
      "name": "buyTokens",
      "outputs": [],
      "payable": true,
      "stateMutability": "payable",
      "type": "function"
    },
    {
      "constant": false,
      "inputs": [],
      "name": "getCurrentStage",
      "outputs": [
        {
          "name": "endDate",
          "type": "uint32"
        },
        {
          "name": "discount",
          "type": "uint8"
        },
        {
          "name": "vesting",
          "type": "uint32"
        }
      ],
      "payable": false,
      "stateMutability": "nonpayable",
      "type": "function"
    }
  ],
  "bytecode": "0x608060405260008060146101000a81548160ff02191690831515021790555034801561002a57600080fd5b5060405160a0806113c58339810180604052810190808051906020019092919080519060200190929190805190602001909291908051906020019092919080519060200190929190505050336000806101000a81548173ffffffffffffffffffffffffffffffffffffffff021916908373ffffffffffffffffffffffffffffffffffffffff160217905550600073ffffffffffffffffffffffffffffffffffffffff168573ffffffffffffffffffffffffffffffffffffffff16141515156100f157600080fd5b84600260006101000a81548173ffffffffffffffffffffffffffffffffffffffff021916908373ffffffffffffffffffffffffffffffffffffffff16021790555061014d84848484610157640100000000026401000000009004565b50505050506102be565b6000809054906101000a900473ffffffffffffffffffffffffffffffffffffffff1673ffffffffffffffffffffffffffffffffffffffff163373ffffffffffffffffffffffffffffffffffffffff161415156101b257600080fd5b428463ffffffff16101515156101c757600080fd5b6000831115156101d657600080fd5b600073ffffffffffffffffffffffffffffffffffffffff168273ffffffffffffffffffffffffffffffffffffffff161415151561021257600080fd5b60008160ff1610158015610229575060648160ff16105b151561023457600080fd5b83600260146101000a81548163ffffffff021916908363ffffffff1602179055508260038190555081600460016101000a81548173ffffffffffffffffffffffffffffffffffffffff021916908373ffffffffffffffffffffffffffffffffffffffff16021790555080600460006101000a81548160ff021916908360ff16021790555050505050565b6110f8806102cd6000396000f3006080604052600436106100c5576000357c0100000000000000000000000000000000000000000000000000000000900463ffffffff1680630b97bc86146100cf5780634803c4f9146101065780635641f3c314610170578063715018a6146101c7578063845ddcb2146101de5780638abdf5aa1461024b5780638da5cb5b1461027c578063a035b1fe146102d3578063d0febe4c146102fe578063eedbe31d14610308578063f2fde38b1461035f578063f9cbcef0146103a2578063fc0c546a1461040d575b6100cd610464565b005b3480156100db57600080fd5b506100e4610738565b604051808263ffffffff1663ffffffff16815260200191505060405180910390f35b34801561011257600080fd5b5061016e600480360381019080803563ffffffff16906020019092919080359060200190929190803573ffffffffffffffffffffffffffffffffffffffff169060200190929190803560ff16906020019092919050505061074e565b005b34801561017c57600080fd5b506101856108b5565b604051808273ffffffffffffffffffffffffffffffffffffffff1673ffffffffffffffffffffffffffffffffffffffff16815260200191505060405180910390f35b3480156101d357600080fd5b506101dc6108db565b005b3480156101ea57600080fd5b50610209600480360381019080803590602001909291905050506109dd565b604051808463ffffffff1663ffffffff1681526020018360ff1660ff1681526020018263ffffffff1663ffffffff168152602001935050505060405180910390f35b34801561025757600080fd5b50610260610a3f565b604051808260ff1660ff16815260200191505060405180910390f35b34801561028857600080fd5b50610291610a52565b604051808273ffffffffffffffffffffffffffffffffffffffff1673ffffffffffffffffffffffffffffffffffffffff16815260200191505060405180910390f35b3480156102df57600080fd5b506102e8610a77565b6040518082815260200191505060405180910390f35b610306610464565b005b34801561031457600080fd5b5061031d610a7d565b604051808463ffffffff1663ffffffff1681526020018360ff1660ff1681526020018263ffffffff1663ffffffff168152602001935050505060405180910390f35b34801561036b57600080fd5b506103a0600480360381019080803573ffffffffffffffffffffffffffffffffffffffff169060200190929190505050610bc8565b005b3480156103ae57600080fd5b5061040b600480360381019080803590602001908201803590602001919091929391929390803590602001908201803590602001919091929391929390803590602001908201803590602001919091929391929390505050610d1d565b005b34801561041957600080fd5b50610422610fcb565b604051808273ffffffffffffffffffffffffffffffffffffffff1673ffffffffffffffffffffffffffffffffffffffff16815260200191505060405180910390f35b60008060008060008060149054906101000a900460ff1615151561048757600080fd5b6001600060146101000a81548160ff0219169083151502179055506000341115156104b157600080fd5b42600260149054906101000a900463ffffffff1663ffffffff16111515156104d857600080fd5b6104e0610a7d565b94509450945060008460ff16116104f957600354610525565b61052460646105168660ff16600354610ff190919063ffffffff16565b61102990919063ffffffff16565b5b915061053a823461102990919063ffffffff16565b9050600260009054906101000a900473ffffffffffffffffffffffffffffffffffffffff1673ffffffffffffffffffffffffffffffffffffffff16639d2e47773383866040518463ffffffff167c0100000000000000000000000000000000000000000000000000000000028152600401808473ffffffffffffffffffffffffffffffffffffffff1673ffffffffffffffffffffffffffffffffffffffff1681526020018381526020018263ffffffff1663ffffffff1681526020019350505050602060405180830381600087803b15801561061557600080fd5b505af1158015610629573d6000803e3d6000fd5b505050506040513d602081101561063f57600080fd5b8101908080519060200190929190505050151561065b57600080fd5b6000600460009054906101000a900460ff1660ff16111561071757600460019054906101000a900473ffffffffffffffffffffffffffffffffffffffff1673ffffffffffffffffffffffffffffffffffffffff166108fc6106ea60646106dc600460009054906101000a900460ff1660ff1634610ff190919063ffffffff16565b61102990919063ffffffff16565b9081150290604051600060405180830381858888f19350505050158015610715573d6000803e3d6000fd5b505b60008060146101000a81548160ff0219169083151502179055505050505050565b600260149054906101000a900463ffffffff1681565b6000809054906101000a900473ffffffffffffffffffffffffffffffffffffffff1673ffffffffffffffffffffffffffffffffffffffff163373ffffffffffffffffffffffffffffffffffffffff161415156107a957600080fd5b428463ffffffff16101515156107be57600080fd5b6000831115156107cd57600080fd5b600073ffffffffffffffffffffffffffffffffffffffff168273ffffffffffffffffffffffffffffffffffffffff161415151561080957600080fd5b60008160ff1610158015610820575060648160ff16105b151561082b57600080fd5b83600260146101000a81548163ffffffff021916908363ffffffff1602179055508260038190555081600460016101000a81548173ffffffffffffffffffffffffffffffffffffffff021916908373ffffffffffffffffffffffffffffffffffffffff16021790555080600460006101000a81548160ff021916908360ff16021790555050505050565b600460019054906101000a900473ffffffffffffffffffffffffffffffffffffffff1681565b6000809054906101000a900473ffffffffffffffffffffffffffffffffffffffff1673ffffffffffffffffffffffffffffffffffffffff163373ffffffffffffffffffffffffffffffffffffffff1614151561093657600080fd5b6000809054906101000a900473ffffffffffffffffffffffffffffffffffffffff1673ffffffffffffffffffffffffffffffffffffffff167ff8df31144d9c2f0f6b59d69b8b98abd5459d07f2742c4df920b25aae33c6482060405160405180910390a260008060006101000a81548173ffffffffffffffffffffffffffffffffffffffff021916908373ffffffffffffffffffffffffffffffffffffffff160217905550565b6001818154811015156109ec57fe5b906000526020600020016000915090508060000160009054906101000a900463ffffffff16908060000160049054906101000a900460ff16908060000160059054906101000a900463ffffffff16905083565b600460009054906101000a900460ff1681565b6000809054906101000a900473ffffffffffffffffffffffffffffffffffffffff1681565b60035481565b6000806000806001805490501415610ac4577fffffffffffffffffffffffffffffffffffffffffffffffffffffffffffffffff600080819150809050925092509250610bc3565b4260018080549050815481101515610ad857fe5b9060005260206000200160000160009054906101000a900463ffffffff1663ffffffff16101515610b9e5760018080549050815481101515610b1657fe5b9060005260206000200160000160009054906101000a900463ffffffff1660018080549050815481101515610b4757fe5b9060005260206000200160000160049054906101000a900460ff1660018080549050815481101515610b7557fe5b9060005260206000200160000160059054906101000a900463ffffffff16925092509250610bc3565b6001805480919060019003610bb3919061103f565b50610bbc610a7d565b9250925092505b909192565b6000809054906101000a900473ffffffffffffffffffffffffffffffffffffffff1673ffffffffffffffffffffffffffffffffffffffff163373ffffffffffffffffffffffffffffffffffffffff16141515610c2357600080fd5b600073ffffffffffffffffffffffffffffffffffffffff168173ffffffffffffffffffffffffffffffffffffffff1614151515610c5f57600080fd5b8073ffffffffffffffffffffffffffffffffffffffff166000809054906101000a900473ffffffffffffffffffffffffffffffffffffffff1673ffffffffffffffffffffffffffffffffffffffff167f8be0079c531659141344cd1fd0a4f28419497f9722a3daafe3b4186f6b6457e060405160405180910390a3806000806101000a81548173ffffffffffffffffffffffffffffffffffffffff021916908373ffffffffffffffffffffffffffffffffffffffff16021790555050565b60008060009054906101000a900473ffffffffffffffffffffffffffffffffffffffff1673ffffffffffffffffffffffffffffffffffffffff163373ffffffffffffffffffffffffffffffffffffffff16141515610d7a57600080fd5b600087879050111515610d8c57600080fd5b8484905087879050141515610da057600080fd5b8484905083839050141515610db457600080fd5b86869050600181610dc5919061103f565b50600090505b868690508160ff161015610fc257600085858360ff168181101515610dec57fe5b9050602002013560ff1660ff1610158015610e245750606485858360ff168181101515610e1557fe5b9050602002013560ff1660ff16105b1515610e2f57600080fd5b600187879050038160ff161015610e985786866001830160ff168181101515610e5457fe5b9050602002013563ffffffff1663ffffffff1687878360ff168181101515610e7857fe5b9050602002013563ffffffff1663ffffffff16101515610e9757600080fd5b5b86868260ff168181101515610ea957fe5b9050602002013563ffffffff166001808360ff168a8a90500303815481101515610ecf57fe5b9060005260206000200160000160006101000a81548163ffffffff021916908363ffffffff16021790555084848260ff168181101515610f0b57fe5b9050602002013560ff166001808360ff168a8a90500303815481101515610f2e57fe5b9060005260206000200160000160046101000a81548160ff021916908360ff16021790555082828260ff168181101515610f6457fe5b9050602002013563ffffffff166001808360ff168a8a90500303815481101515610f8a57fe5b9060005260206000200160000160056101000a81548163ffffffff021916908363ffffffff1602179055508080600101915050610dcb565b50505050505050565b600260009054906101000a900473ffffffffffffffffffffffffffffffffffffffff1681565b6000808314156110045760009050611023565b818302905081838281151561101557fe5b0414151561101f57fe5b8090505b92915050565b6000818381151561103657fe5b04905092915050565b81548183558181111561106657818360005260206000209182019101611065919061106b565b5b505050565b6110c991905b808211156110c557600080820160006101000a81549063ffffffff02191690556000820160046101000a81549060ff02191690556000820160056101000a81549063ffffffff021916905550600101611071565b5090565b905600a165627a7a723058208165f41bebc9389c6d76d4ccd7927ef9c01d87b7a20cb17341a515a5a4dded3d0029",
  "source": "pragma solidity ^0.4.24;\n\nimport \"../openzeppelin-solidity/contracts/ownership/Ownable.sol\";\nimport \"../openzeppelin-solidity/contracts/ReentrancyGuard.sol\";\nimport \"../openzeppelin-solidity/contracts/math/SafeMath.sol\";\nimport \"./WToken.sol\";\nimport \"./IW12Crowdsale.sol\";\n\n\ncontract W12Crowdsale is IW12Crowdsale, Ownable, ReentrancyGuard {\n    using SafeMath for uint;\n\n    struct Stage {\n        uint32 endDate;\n        uint8 discount;\n        uint32 vesting;\n    }\n\n    Stage[] public stages;\n    WToken public token;\n    uint32 public startDate;\n    uint public price;\n    uint8 public serviceFee;\n    address public serviceWallet;\n\n    constructor (address _token, uint32 _startDate, uint _price, address _serviceWallet, uint8 _serviceFee) public {\n        require(_token != address(0x0));\n\n        token = WToken(_token);\n\n        setParameters(_startDate, _price, _serviceWallet, _serviceFee);\n    }\n\n    function setParameters(uint32 _startDate, uint _price, address _serviceWallet, uint8 _serviceFee) onlyOwner public {\n        require(_startDate >= now);\n        require(_price > 0);\n        require(_serviceWallet != address(0x0));\n        require(_serviceFee >= 0 && _serviceFee < 100);\n\n        startDate = _startDate;\n        price = _price;\n        serviceWallet = _serviceWallet;\n        serviceFee = _serviceFee;\n    }\n\n    function setStages(uint32[] stage_endDates, uint8[] stage_discounts, uint32[] stage_vestings) onlyOwner external {\n        require(stage_endDates.length > 0);\n        require(stage_endDates.length == stage_discounts.length);\n        require(stage_vestings.length == stage_discounts.length);\n\n        stages.length = stage_endDates.length;\n\n        for(uint8 i = 0; i < stage_endDates.length; i++) {\n            require(stage_discounts[i] >= 0 && stage_discounts[i] < 100);\n            // Checking that stages entered in historical order\n            if(i < stage_endDates.length - 1)\n                require(stage_endDates[i] < stage_endDates[i+1]);\n\n\n            // Reverting stage order for future use\n            stages[stage_endDates.length - i - 1].endDate = stage_endDates[i];\n            stages[stage_endDates.length - i - 1].discount = stage_discounts[i];\n            stages[stage_endDates.length - i - 1].vesting = stage_vestings[i];\n        }\n    }\n\n    function buyTokens() payable nonReentrant public {\n        require(msg.value > 0);\n        require(startDate <= now);\n\n        (uint32 endDate, uint8 discount, uint32 vesting) = getCurrentStage();\n\n        uint stagePrice = discount > 0 ? price.mul(discount).div(100) : price;\n\n        uint tokenAmount = msg.value.div(stagePrice);\n        require(token.vestingTransfer(msg.sender, tokenAmount, vesting));\n\n        if(serviceFee > 0)\n            serviceWallet.transfer(msg.value.mul(serviceFee).div(100));\n    }\n\n    function getCurrentStage() public returns(uint32 endDate, uint8 discount, uint32 vesting) {\n        if(stages.length == 0)\n            return (uint32(-1), 0, 0);\n\n        if(stages[stages.length].endDate >= now)\n            return (stages[stages.length].endDate, stages[stages.length].discount, stages[stages.length].vesting);\n\n        stages.length--;\n        return getCurrentStage();\n    }\n\n    function () payable external {\n        buyTokens();\n    }\n}\n",
  "sourcePath": "/home/andrey/Code/w12/platform-contracts/contracts/W12Crowdsale.sol",
  "compiler": {
    "name": "solc",
    "version": "0.4.24+commit.e67f0147.Emscripten.clang"
  },
  "schemaVersion": "2.0.0",
  "updatedAt": "2018-06-30T13:25:14.155Z"
}