{
  "contractName": "W12CrowdsaleStub",
  "abi": [
    {
      "constant": false,
      "inputs": [
        {
          "name": "dates",
          "type": "uint32[]"
        },
        {
          "name": "tranchePercents",
          "type": "uint8[]"
        },
        {
          "name": "offsets",
          "type": "uint32[]"
        },
        {
          "name": "namesAndDescriptions",
          "type": "bytes"
        }
      ],
      "name": "setMilestones",
      "outputs": [],
      "payable": false,
      "stateMutability": "nonpayable",
      "type": "function"
    },
    {
      "constant": true,
      "inputs": [
        {
          "name": "stageNumber",
          "type": "uint256"
        }
      ],
      "name": "getStageVolumeBonuses",
      "outputs": [
        {
          "name": "",
          "type": "uint8[]"
        }
      ],
      "payable": false,
      "stateMutability": "view",
      "type": "function"
    },
    {
      "constant": true,
      "inputs": [],
      "name": "originToken",
      "outputs": [
        {
          "name": "",
          "type": "address"
        }
      ],
      "payable": false,
      "stateMutability": "view",
      "type": "function"
    },
    {
      "constant": true,
      "inputs": [],
      "name": "getLastMilestoneIndex",
      "outputs": [
        {
          "name": "index",
          "type": "uint256"
        },
        {
          "name": "found",
          "type": "bool"
        }
      ],
      "payable": false,
      "stateMutability": "view",
      "type": "function"
    },
    {
      "constant": true,
      "inputs": [
        {
          "name": "value",
          "type": "uint256"
        }
      ],
      "name": "getSaleVolumeBonus",
      "outputs": [
        {
          "name": "bonus",
          "type": "uint256"
        }
      ],
      "payable": false,
      "stateMutability": "view",
      "type": "function"
    },
    {
      "constant": true,
      "inputs": [
        {
          "name": "index",
          "type": "uint256"
        }
      ],
      "name": "getMilestone",
      "outputs": [
        {
          "name": "",
          "type": "uint32"
        },
        {
          "name": "",
          "type": "uint8"
        },
        {
          "name": "",
          "type": "uint32"
        },
        {
          "name": "",
          "type": "uint32"
        },
        {
          "name": "",
          "type": "bytes"
        },
        {
          "name": "",
          "type": "bytes"
        }
      ],
      "payable": false,
      "stateMutability": "view",
      "type": "function"
    },
    {
      "constant": false,
      "inputs": [
        {
          "name": "dates",
          "type": "uint32[2][]"
        },
        {
          "name": "stage_discounts",
          "type": "uint8[]"
        },
        {
          "name": "stage_vestings",
          "type": "uint32[]"
        }
      ],
      "name": "setStages",
      "outputs": [],
      "payable": false,
      "stateMutability": "nonpayable",
      "type": "function"
    },
    {
      "constant": true,
      "inputs": [
        {
          "name": "index",
          "type": "uint256"
        }
      ],
      "name": "getStage",
      "outputs": [
        {
          "name": "",
          "type": "uint32"
        },
        {
          "name": "",
          "type": "uint32"
        },
        {
          "name": "",
          "type": "uint8"
        },
        {
          "name": "",
          "type": "uint32"
        },
        {
          "name": "",
          "type": "uint256[]"
        },
        {
          "name": "",
          "type": "uint8[]"
        }
      ],
      "payable": false,
      "stateMutability": "view",
      "type": "function"
    },
    {
      "constant": true,
      "inputs": [],
      "name": "WTokenSaleFeePercent",
      "outputs": [
        {
          "name": "",
          "type": "uint256"
        }
      ],
      "payable": false,
      "stateMutability": "view",
      "type": "function"
    },
    {
      "constant": false,
      "inputs": [],
      "name": "claimRemainingTokens",
      "outputs": [],
      "payable": false,
      "stateMutability": "nonpayable",
      "type": "function"
    },
    {
      "constant": true,
      "inputs": [],
      "name": "milestonesLength",
      "outputs": [
        {
          "name": "",
          "type": "uint256"
        }
      ],
      "payable": false,
      "stateMutability": "view",
      "type": "function"
    },
    {
      "constant": true,
      "inputs": [],
      "name": "getWToken",
      "outputs": [
        {
          "name": "",
          "type": "address"
        }
      ],
      "payable": false,
      "stateMutability": "view",
      "type": "function"
    },
    {
      "constant": false,
      "inputs": [
        {
          "name": "stage",
          "type": "uint256"
        },
        {
          "name": "volumeBoundaries",
          "type": "uint256[]"
        },
        {
          "name": "volumeBonuses",
          "type": "uint8[]"
        }
      ],
      "name": "setStageVolumeBonuses",
      "outputs": [],
      "payable": false,
      "stateMutability": "nonpayable",
      "type": "function"
    },
    {
      "constant": true,
      "inputs": [],
      "name": "serviceWallet",
      "outputs": [
        {
          "name": "",
          "type": "address"
        }
      ],
      "payable": false,
      "stateMutability": "view",
      "type": "function"
    },
    {
      "constant": true,
      "inputs": [],
      "name": "isSaleActive",
      "outputs": [
        {
          "name": "",
          "type": "bool"
        }
      ],
      "payable": false,
      "stateMutability": "view",
      "type": "function"
    },
    {
      "constant": false,
      "inputs": [],
      "name": "renounceOwnership",
      "outputs": [],
      "payable": false,
      "stateMutability": "nonpayable",
      "type": "function"
    },
    {
      "constant": true,
      "inputs": [
        {
          "name": "",
          "type": "uint256"
        }
      ],
      "name": "milestoneDates",
      "outputs": [
        {
          "name": "",
          "type": "uint32"
        }
      ],
      "payable": false,
      "stateMutability": "view",
      "type": "function"
    },
    {
      "constant": true,
      "inputs": [],
      "name": "stagesLength",
      "outputs": [
        {
          "name": "",
          "type": "uint256"
        }
      ],
      "payable": false,
      "stateMutability": "view",
      "type": "function"
    },
    {
      "constant": true,
      "inputs": [],
      "name": "swap",
      "outputs": [
        {
          "name": "",
          "type": "address"
        }
      ],
      "payable": false,
      "stateMutability": "view",
      "type": "function"
    },
    {
      "constant": true,
      "inputs": [
        {
          "name": "",
          "type": "uint256"
        }
      ],
      "name": "stages",
      "outputs": [
        {
          "name": "startDate",
          "type": "uint32"
        },
        {
          "name": "endDate",
          "type": "uint32"
        },
        {
          "name": "discount",
          "type": "uint8"
        },
        {
          "name": "vesting",
          "type": "uint32"
        }
      ],
      "payable": false,
      "stateMutability": "view",
      "type": "function"
    },
    {
      "constant": true,
      "inputs": [],
      "name": "serviceFee",
      "outputs": [
        {
          "name": "",
          "type": "uint256"
        }
      ],
      "payable": false,
      "stateMutability": "view",
      "type": "function"
    },
    {
      "constant": true,
      "inputs": [],
      "name": "owner",
      "outputs": [
        {
          "name": "",
          "type": "address"
        }
      ],
      "payable": false,
      "stateMutability": "view",
      "type": "function"
    },
    {
      "constant": true,
      "inputs": [],
      "name": "getFund",
      "outputs": [
        {
          "name": "",
          "type": "address"
        }
      ],
      "payable": false,
      "stateMutability": "view",
      "type": "function"
    },
    {
      "constant": true,
      "inputs": [],
      "name": "price",
      "outputs": [
        {
          "name": "",
          "type": "uint256"
        }
      ],
      "payable": false,
      "stateMutability": "view",
      "type": "function"
    },
    {
      "constant": true,
      "inputs": [],
      "name": "isEnded",
      "outputs": [
        {
          "name": "",
          "type": "bool"
        }
      ],
      "payable": false,
      "stateMutability": "view",
      "type": "function"
    },
    {
      "constant": true,
      "inputs": [],
      "name": "getEndDate",
      "outputs": [
        {
          "name": "",
          "type": "uint32"
        }
      ],
      "payable": false,
      "stateMutability": "view",
      "type": "function"
    },
    {
      "constant": true,
      "inputs": [],
      "name": "fund",
      "outputs": [
        {
          "name": "",
          "type": "address"
        }
      ],
      "payable": false,
      "stateMutability": "view",
      "type": "function"
    },
    {
      "constant": false,
      "inputs": [],
      "name": "buyTokens",
      "outputs": [],
      "payable": true,
      "stateMutability": "payable",
      "type": "function"
    },
    {
      "constant": true,
      "inputs": [],
      "name": "getCurrentMilestoneIndex",
      "outputs": [
        {
          "name": "index",
          "type": "uint256"
        },
        {
          "name": "found",
          "type": "bool"
        }
      ],
      "payable": false,
      "stateMutability": "view",
      "type": "function"
    },
    {
      "constant": true,
      "inputs": [],
      "name": "getCurrentStageIndex",
      "outputs": [
        {
          "name": "index",
          "type": "uint256"
        },
        {
          "name": "found",
          "type": "bool"
        }
      ],
      "payable": false,
      "stateMutability": "view",
      "type": "function"
    },
    {
      "constant": true,
      "inputs": [
        {
          "name": "",
          "type": "uint256"
        }
      ],
      "name": "milestones",
      "outputs": [
        {
          "name": "endDate",
          "type": "uint32"
        },
        {
          "name": "tranchePercent",
          "type": "uint8"
        },
        {
          "name": "voteEndDate",
          "type": "uint32"
        },
        {
          "name": "withdrawalWindow",
          "type": "uint32"
        },
        {
          "name": "name",
          "type": "bytes"
        },
        {
          "name": "description",
          "type": "bytes"
        }
      ],
      "payable": false,
      "stateMutability": "view",
      "type": "function"
    },
    {
      "constant": false,
      "inputs": [
        {
          "name": "_price",
          "type": "uint256"
        }
      ],
      "name": "setParameters",
      "outputs": [],
      "payable": false,
      "stateMutability": "nonpayable",
      "type": "function"
    },
    {
      "constant": true,
      "inputs": [
        {
          "name": "stageNumber",
          "type": "uint256"
        }
      ],
      "name": "getStageVolumeBoundaries",
      "outputs": [
        {
          "name": "",
          "type": "uint256[]"
        }
      ],
      "payable": false,
      "stateMutability": "view",
      "type": "function"
    },
    {
      "constant": false,
      "inputs": [
        {
          "name": "_newOwner",
          "type": "address"
        }
      ],
      "name": "transferOwnership",
      "outputs": [],
      "payable": false,
      "stateMutability": "nonpayable",
      "type": "function"
    },
    {
      "constant": true,
      "inputs": [],
      "name": "token",
      "outputs": [
        {
          "name": "",
          "type": "address"
        }
      ],
      "payable": false,
      "stateMutability": "view",
      "type": "function"
    },
    {
      "inputs": [
        {
          "name": "_originToken",
          "type": "address"
        },
        {
          "name": "_token",
          "type": "address"
        },
        {
          "name": "_tokenDecimals",
          "type": "uint256"
        },
        {
          "name": "_price",
          "type": "uint256"
        },
        {
          "name": "_serviceWallet",
          "type": "address"
        },
        {
          "name": "_swap",
          "type": "address"
        },
        {
          "name": "_serviceFee",
          "type": "uint256"
        },
        {
          "name": "_WTokenSaleFeePercent",
          "type": "uint256"
        },
        {
          "name": "_fund",
          "type": "address"
        }
      ],
      "payable": false,
      "stateMutability": "nonpayable",
      "type": "constructor"
    },
    {
      "payable": true,
      "stateMutability": "payable",
      "type": "fallback"
    },
    {
      "anonymous": false,
      "inputs": [
        {
          "indexed": true,
          "name": "buyer",
          "type": "address"
        },
        {
          "indexed": false,
          "name": "amountPaid",
          "type": "uint256"
        },
        {
          "indexed": false,
          "name": "tokensBought",
          "type": "uint256"
        },
        {
          "indexed": false,
          "name": "change",
          "type": "uint256"
        }
      ],
      "name": "TokenPurchase",
      "type": "event"
    },
    {
      "anonymous": false,
      "inputs": [],
      "name": "StagesUpdated",
      "type": "event"
    },
    {
      "anonymous": false,
      "inputs": [
        {
          "indexed": false,
          "name": "index",
          "type": "uint256"
        }
      ],
      "name": "StageUpdated",
      "type": "event"
    },
    {
      "anonymous": false,
      "inputs": [],
      "name": "MilestonesUpdated",
      "type": "event"
    },
    {
      "anonymous": false,
      "inputs": [
        {
          "indexed": true,
          "name": "owner",
          "type": "address"
        },
        {
          "indexed": false,
          "name": "amount",
          "type": "uint256"
        }
      ],
      "name": "UnsoldTokenReturned",
      "type": "event"
    },
    {
      "anonymous": false,
      "inputs": [
        {
          "indexed": false,
          "name": "value",
          "type": "uint256"
        }
      ],
      "name": "debug",
      "type": "event"
    },
    {
      "anonymous": false,
      "inputs": [
        {
          "indexed": true,
          "name": "previousOwner",
          "type": "address"
        }
      ],
      "name": "OwnershipRenounced",
      "type": "event"
    },
    {
      "anonymous": false,
      "inputs": [
        {
          "indexed": true,
          "name": "previousOwner",
          "type": "address"
        },
        {
          "indexed": true,
          "name": "newOwner",
          "type": "address"
        }
      ],
      "name": "OwnershipTransferred",
      "type": "event"
    },
    {
      "constant": false,
      "inputs": [
        {
          "name": "to",
          "type": "address"
        },
        {
          "name": "amount",
          "type": "uint256"
        }
      ],
      "name": "_outTokens",
      "outputs": [
        {
          "name": "",
          "type": "bool"
        }
      ],
      "payable": false,
      "stateMutability": "nonpayable",
      "type": "function"
    },
    {
      "constant": false,
      "inputs": [
        {
          "name": "_WTokenSaleFeePercent",
          "type": "uint256"
        }
      ],
      "name": "_setState",
      "outputs": [],
      "payable": false,
      "stateMutability": "nonpayable",
      "type": "function"
    }
  ],
  "bytecode": "0x6080604052600180553480156200001557600080fd5b506040516101208062004c6e833981018060405281019080805190602001909291908051906020019092919080519060200190929190805190602001909291908051906020019092919080519060200190929190805190602001909291908051906020019092919080519060200190929190505050888888888888888888336000806101000a81548173ffffffffffffffffffffffffffffffffffffffff021916908373ffffffffffffffffffffffffffffffffffffffff160217905550600073ffffffffffffffffffffffffffffffffffffffff168873ffffffffffffffffffffffffffffffffffffffff16141515156200011057600080fd5b6200012f83620003826401000000000262004156176401000000009004565b80156200015a5750606462000158846200039e640100000000026200474b176401000000009004565b105b15156200016657600080fd5b6200018582620003826401000000000262004156176401000000009004565b8015620001b057506064620001ae836200039e640100000000026200474b176401000000009004565b105b1515620001bc57600080fd5b600073ffffffffffffffffffffffffffffffffffffffff168173ffffffffffffffffffffffffffffffffffffffff1614151515620001f957600080fd5b600073ffffffffffffffffffffffffffffffffffffffff168473ffffffffffffffffffffffffffffffffffffffff16141515156200023657600080fd5b87600260006101000a81548173ffffffffffffffffffffffffffffffffffffffff021916908373ffffffffffffffffffffffffffffffffffffffff16021790555088600360006101000a81548173ffffffffffffffffffffffffffffffffffffffff021916908373ffffffffffffffffffffffffffffffffffffffff16021790555086600481905550620002da8686620003f1640100000000026401000000009004565b8260068190555083600960006101000a81548173ffffffffffffffffffffffffffffffffffffffff021916908373ffffffffffffffffffffffffffffffffffffffff1602179055508160078190555080600a60006101000a81548173ffffffffffffffffffffffffffffffffffffffff021916908373ffffffffffffffffffffffffffffffffffffffff160217905550505050505050505050505050505050505050620004b6565b60008082101580156200039757506127108211155b9050919050565b6000620003ba8262000382640100000000026401000000009004565b1515620003c657600080fd5b620003ea6064836200048a640100000000026200412c179091906401000000009004565b9050919050565b6000821115156200040157600080fd5b600073ffffffffffffffffffffffffffffffffffffffff168173ffffffffffffffffffffffffffffffffffffffff16141515156200043e57600080fd5b8160058190555080600860006101000a81548173ffffffffffffffffffffffffffffffffffffffff021916908373ffffffffffffffffffffffffffffffffffffffff1602179055505050565b6000806000831115156200049d57600080fd5b8284811515620004a957fe5b0490508091505092915050565b6147a880620004c66000396000f3006080604052600436106101cd576000357c0100000000000000000000000000000000000000000000000000000000900463ffffffff1680630d544ffe146101d75780630ee62c771461025a57806313096a41146102dc57806314f66d34146103335780631aecc19f14610369578063208853c9146103ce5780632442e1cb1461040f5780632c9a4bab146105675780632e325020146105d25780632fbe5990146106e2578063313602d41461070d5780633baba4d7146107245780634090cb641461074f578063521b7499146107a65780635641f3c314610803578063564566a81461085a578063715018a61461088957806372e6a881146108a0578063792c02ea146108ed5780638119c06514610918578063845ddcb21461096f5780638abdf5aa146109ef5780638da5cb5b14610a1a5780638edd6eb614610a71578063a035b1fe14610ac8578063a4fd6f5614610af3578063b135648814610b22578063b60d428814610b59578063ca7348a314610bb0578063d0febe4c14610bdd578063d6d65f3d14610be7578063daa4cf8814610c1d578063e89e4ed614610c53578063e93b054014610dab578063f12585f514610dd8578063f2fde38b14610e5a578063fc0c546a14610e9d575b6101d5610ef4565b005b3480156101e357600080fd5b50610258600480360381019080803590602001908201803590602001919091929391929390803590602001908201803590602001919091929391929390803590602001908201803590602001919091929391929390803590602001908201803590602001919091929391929390505050611670565b005b34801561026657600080fd5b5061028560048036038101908080359060200190929190505050611f2c565b6040518080602001828103825283818151815260200191508051906020019060200280838360005b838110156102c85780820151818401526020810190506102ad565b505050509050019250505060405180910390f35b3480156102e857600080fd5b506102f1611fca565b604051808273ffffffffffffffffffffffffffffffffffffffff1673ffffffffffffffffffffffffffffffffffffffff16815260200191505060405180910390f35b34801561033f57600080fd5b50610348611ff0565b60405180838152602001821515151581526020019250505060405180910390f35b34801561037557600080fd5b506103b4600480360381019080803573ffffffffffffffffffffffffffffffffffffffff1690602001909291908035906020019092919050505061202b565b604051808215151515815260200191505060405180910390f35b3480156103da57600080fd5b506103f960048036038101908080359060200190929190505050612135565b6040518082815260200191505060405180910390f35b34801561041b57600080fd5b5061043a60048036038101908080359060200190929190505050612207565b604051808763ffffffff1663ffffffff1681526020018660ff1660ff1681526020018563ffffffff1663ffffffff1681526020018463ffffffff1663ffffffff1681526020018060200180602001838103835285818151815260200191508051906020019080838360005b838110156104c05780820151818401526020810190506104a5565b50505050905090810190601f1680156104ed5780820380516001836020036101000a031916815260200191505b50838103825284818151815260200191508051906020019080838360005b8381101561052657808201518184015260208101905061050b565b50505050905090810190601f1680156105535780820380516001836020036101000a031916815260200191505b509850505050505050505060405180910390f35b34801561057357600080fd5b506105d060048036038101908080359060200190820180359060200191909192939192939080359060200190820180359060200191909192939192939080359060200190820180359060200191909192939192939050505061245e565b005b3480156105de57600080fd5b506105fd60048036038101908080359060200190929190505050612c83565b604051808763ffffffff1663ffffffff1681526020018663ffffffff1663ffffffff1681526020018560ff1660ff1681526020018463ffffffff1663ffffffff1681526020018060200180602001838103835285818151815260200191508051906020019060200280838360005b8381101561068657808201518184015260208101905061066b565b50505050905001838103825284818151815260200191508051906020019060200280838360005b838110156106c85780820151818401526020810190506106ad565b505050509050019850505050505050505060405180910390f35b3480156106ee57600080fd5b506106f7612e6c565b6040518082815260200191505060405180910390f35b34801561071957600080fd5b50610722612e72565b005b34801561073057600080fd5b5061073961317a565b6040518082815260200191505060405180910390f35b34801561075b57600080fd5b50610764613187565b604051808273ffffffffffffffffffffffffffffffffffffffff1673ffffffffffffffffffffffffffffffffffffffff16815260200191505060405180910390f35b3480156107b257600080fd5b50610801600480360381019080803590602001909291908035906020019082018035906020019190919293919293908035906020019082018035906020019190919293919293905050506131b1565b005b34801561080f57600080fd5b5061081861346f565b604051808273ffffffffffffffffffffffffffffffffffffffff1673ffffffffffffffffffffffffffffffffffffffff16815260200191505060405180910390f35b34801561086657600080fd5b5061086f613495565b604051808215151515815260200191505060405180910390f35b34801561089557600080fd5b5061089e6134ae565b005b3480156108ac57600080fd5b506108cb600480360381019080803590602001909291905050506135b0565b604051808263ffffffff1663ffffffff16815260200191505060405180910390f35b3480156108f957600080fd5b506109026135e9565b6040518082815260200191505060405180910390f35b34801561092457600080fd5b5061092d6135f6565b604051808273ffffffffffffffffffffffffffffffffffffffff1673ffffffffffffffffffffffffffffffffffffffff16815260200191505060405180910390f35b34801561097b57600080fd5b5061099a6004803603810190808035906020019092919050505061361c565b604051808563ffffffff1663ffffffff1681526020018463ffffffff1663ffffffff1681526020018360ff1660ff1681526020018263ffffffff1663ffffffff16815260200194505050505060405180910390f35b3480156109fb57600080fd5b50610a04613698565b6040518082815260200191505060405180910390f35b348015610a2657600080fd5b50610a2f61369e565b604051808273ffffffffffffffffffffffffffffffffffffffff1673ffffffffffffffffffffffffffffffffffffffff16815260200191505060405180910390f35b348015610a7d57600080fd5b50610a866136c3565b604051808273ffffffffffffffffffffffffffffffffffffffff1673ffffffffffffffffffffffffffffffffffffffff16815260200191505060405180910390f35b348015610ad457600080fd5b50610add6136ed565b6040518082815260200191505060405180910390f35b348015610aff57600080fd5b50610b086136f3565b604051808215151515815260200191505060405180910390f35b348015610b2e57600080fd5b50610b3761374a565b604051808263ffffffff1663ffffffff16815260200191505060405180910390f35b348015610b6557600080fd5b50610b6e61379d565b604051808273ffffffffffffffffffffffffffffffffffffffff1673ffffffffffffffffffffffffffffffffffffffff16815260200191505060405180910390f35b348015610bbc57600080fd5b50610bdb600480360381019080803590602001909291905050506137c3565b005b610be5610ef4565b005b348015610bf357600080fd5b50610bfc6137cd565b60405180838152602001821515151581526020019250505060405180910390f35b348015610c2957600080fd5b50610c3261386a565b60405180838152602001821515151581526020019250505060405180910390f35b348015610c5f57600080fd5b50610c7e60048036038101908080359060200190929190505050613913565b604051808763ffffffff1663ffffffff1681526020018660ff1660ff1681526020018563ffffffff1663ffffffff1681526020018463ffffffff1663ffffffff1681526020018060200180602001838103835285818151815260200191508051906020019080838360005b83811015610d04578082015181840152602081019050610ce9565b50505050905090810190601f168015610d315780820380516001836020036101000a031916815260200191505b50838103825284818151815260200191508051906020019080838360005b83811015610d6a578082015181840152602081019050610d4f565b50505050905090810190601f168015610d975780820380516001836020036101000a031916815260200191505b509850505050505050505060405180910390f35b348015610db757600080fd5b50610dd660048036038101908080359060200190929190505050613acb565b005b348015610de457600080fd5b50610e0360048036038101908080359060200190929190505050613ba9565b6040518080602001828103825283818151815260200191508051906020019060200280838360005b83811015610e46578082015181840152602081019050610e2b565b505050509050019250505060405180910390f35b348015610e6657600080fd5b50610e9b600480360381019080803573ffffffffffffffffffffffffffffffffffffffff169060200190929190505050613c21565b005b348015610ea957600080fd5b50610eb2613c88565b604051808273ffffffffffffffffffffffffffffffffffffffff1673ffffffffffffffffffffffffffffffffffffffff16815260200191505060405180910390f35b6000806000806000806000806000600180600082825401925050819055506001549050610f1f613495565b1515610f93576040517f08c379a00000000000000000000000000000000000000000000000000000000081526004018080602001828103825260178152602001807f53616c65206973206e6f7420737461727465642079657400000000000000000081525060200191505060405180910390fd5b600034111515610fa257600080fd5b610faa61386a565b509850600b89815481101515610fbc57fe5b906000526020600020906003020160000160089054906101000a900460ff1660ff169750600b89815481101515610fef57fe5b906000526020600020906003020160000160099054906101000a900463ffffffff16965061101c34612135565b9550611029348988613cae565b50945094509450600060075411156113035761105060075486613e8b90919063ffffffff16565b9150600360009054906101000a900473ffffffffffffffffffffffffffffffffffffffff1673ffffffffffffffffffffffffffffffffffffffff166323b872dd600960009054906101000a900473ffffffffffffffffffffffffffffffffffffffff16600860009054906101000a900473ffffffffffffffffffffffffffffffffffffffff16856040518463ffffffff167c0100000000000000000000000000000000000000000000000000000000028152600401808473ffffffffffffffffffffffffffffffffffffffff1673ffffffffffffffffffffffffffffffffffffffff1681526020018373ffffffffffffffffffffffffffffffffffffffff1673ffffffffffffffffffffffffffffffffffffffff1681526020018281526020019350505050602060405180830381600087803b15801561118f57600080fd5b505af11580156111a3573d6000803e3d6000fd5b505050506040513d60208110156111b957600080fd5b810190808051906020019092919050505015156111d557600080fd5b600260009054906101000a900473ffffffffffffffffffffffffffffffffffffffff1673ffffffffffffffffffffffffffffffffffffffff1663a9059cbb600960009054906101000a900473ffffffffffffffffffffffffffffffffffffffff16846040518363ffffffff167c0100000000000000000000000000000000000000000000000000000000028152600401808373ffffffffffffffffffffffffffffffffffffffff1673ffffffffffffffffffffffffffffffffffffffff16815260200182815260200192505050602060405180830381600087803b1580156112bc57600080fd5b505af11580156112d0573d6000803e3d6000fd5b505050506040513d60208110156112e657600080fd5b8101908080519060200190929190505050151561130257600080fd5b5b600260009054906101000a900473ffffffffffffffffffffffffffffffffffffffff1673ffffffffffffffffffffffffffffffffffffffff16639d2e477733878a6040518463ffffffff167c0100000000000000000000000000000000000000000000000000000000028152600401808473ffffffffffffffffffffffffffffffffffffffff1673ffffffffffffffffffffffffffffffffffffffff1681526020018381526020018263ffffffff1663ffffffff1681526020019350505050602060405180830381600087803b1580156113dc57600080fd5b505af11580156113f0573d6000803e3d6000fd5b505050506040513d602081101561140657600080fd5b8101908080519060200190929190505050151561142257600080fd5b6000831115611473573373ffffffffffffffffffffffffffffffffffffffff166108fc849081150290604051600060405180830381858888f19350505050158015611471573d6000803e3d6000fd5b505b600060065411156114fc57600860009054906101000a900473ffffffffffffffffffffffffffffffffffffffff1673ffffffffffffffffffffffffffffffffffffffff166108fc6114cf60065487613e8b90919063ffffffff16565b9081150290604051600060405180830381858888f193505050501580156114fa573d6000803e3d6000fd5b505b600a60009054906101000a900473ffffffffffffffffffffffffffffffffffffffff1673ffffffffffffffffffffffffffffffffffffffff1663958799cb3073ffffffffffffffffffffffffffffffffffffffff1631620186a09033896040518563ffffffff167c0100000000000000000000000000000000000000000000000000000000028152600401808373ffffffffffffffffffffffffffffffffffffffff1673ffffffffffffffffffffffffffffffffffffffff168152602001828152602001925050506000604051808303818589803b1580156115dd57600080fd5b5088f11580156115f1573d6000803e3d6000fd5b5050505050503373ffffffffffffffffffffffffffffffffffffffff167f347f5f0051b895093800553e6e78ef332849e2552639a4f5ffe66535788ae07885878660405180848152602001838152602001828152602001935050505060405180910390a26001548114151561166557600080fd5b505050505050505050565b60008060006060806000809054906101000a900473ffffffffffffffffffffffffffffffffffffffff1673ffffffffffffffffffffffffffffffffffffffff163373ffffffffffffffffffffffffffffffffffffffff161415156116d357600080fd5b6000600b8054905011156117275742600b60008154811015156116f257fe5b906000526020600020906003020160000160009054906101000a900463ffffffff1663ffffffff1611151561172657600080fd5b5b7fffffffffffffffffffffffffffffffffffffffffffffffffffffffffffffffff60ff168d8d90501115151561175c57600080fd5b60038d8d90501015151561176f57600080fd5b600060038e8e905081151561178057fe5b0614151561178d57600080fd5b888890506117a860028d8d9050613ed090919063ffffffff16565b1415156117b457600080fd5b8c8c90506117cf60038d8d9050613ed090919063ffffffff16565b1415156117db57600080fd5b60028b8b90500287879050101515156117f357600080fd5b6000600b8054905011156118fe578c8c6000818110151561181057fe5b9050602002013563ffffffff1663ffffffff16600b6001600b805490500381548110151561183a57fe5b906000526020600020906003020160000160049054906101000a900463ffffffff1663ffffffff161015156118fd576040517f08c379a000000000000000000000000000000000000000000000000000000000815260040180806020018281038252603f8152602001807f4669727374206d696c6573746f6e6520656e6444617465206d7573742062652081526020017f67726561746572207468616e206c61737420737461676520656e64446174650081525060400191505060405180910390fd5b5b6000945060009350600c60006119149190614171565b600d60006119229190614195565b600092505b8c8c905060ff168360ff161015611ecd57428d8d8560ff16818110151561194a57fe5b9050602002013563ffffffff1663ffffffff1611151561196957600080fd5b8c8c8460ff16818110151561197a57fe5b9050602002013563ffffffff1663ffffffff168d8d6001860160ff1681811015156119a157fe5b9050602002013563ffffffff1663ffffffff161115156119c057600080fd5b8c8c6001850160ff1681811015156119d457fe5b9050602002013563ffffffff1663ffffffff168d8d6002860160ff1681811015156119fb57fe5b9050602002013563ffffffff1663ffffffff16111515611a1a57600080fd5b60008360ff161115611b0d578c8c8460ff168181101515611a3757fe5b9050602002013563ffffffff1663ffffffff168d8d6001860360ff168181101515611a5e57fe5b9050602002013563ffffffff1663ffffffff16101515611b0c576040517f08c379a00000000000000000000000000000000000000000000000000000000081526004018080602001828103825260298152602001807f4d696c6573746f6e65206461746573206973206e6f7420696e20617363656e6481526020017f696e67206f72646572000000000000000000000000000000000000000000000081525060400191505060405180910390fd5b5b611b89858a8a600260038860ff16811515611b2457fe5b040260ff168181101515611b3457fe5b9050602002013563ffffffff1663ffffffff1689898080601f016020809104026020016040519081016040528093929190818152602001838380828437820191505050505050613f0e9092919063ffffffff16565b9150611c418989600260038760ff16811515611ba157fe5b040260ff168181101515611bb157fe5b9050602002013563ffffffff1663ffffffff1686018a8a6001600260038960ff16811515611bdb57fe5b04020160ff168181101515611bec57fe5b9050602002013563ffffffff1663ffffffff1689898080601f016020809104026020016040519081016040528093929190818152602001838380828437820191505050505050613f0e9092919063ffffffff16565b905060008251111515611c5357600080fd5b60008151111515611c6357600080fd5b600c60c0604051908101604052808f8f8760ff168181101515611c8257fe5b9050602002013563ffffffff1663ffffffff1681526020018d8d60038860ff16811515611cab57fe5b0460ff168181101515611cba57fe5b9050602002013560ff1660ff1681526020018f8f6001880160ff168181101515611ce057fe5b9050602002013563ffffffff1663ffffffff1681526020018f8f6002880160ff168181101515611d0c57fe5b9050602002013563ffffffff1663ffffffff168152602001848152602001838152509080600181540180825580915050906001820390600052602060002090600302016000909192909190915060008201518160000160006101000a81548163ffffffff021916908363ffffffff16021790555060208201518160000160046101000a81548160ff021916908360ff16021790555060408201518160000160056101000a81548163ffffffff021916908363ffffffff16021790555060608201518160000160096101000a81548163ffffffff021916908363ffffffff1602179055506080820151816001019080519060200190611e0b9291906141bd565b5060a0820151816002019080519060200190611e289291906141bd565b505050508888600160038660ff16811515611e3f57fe5b040160ff168181101515611e4f57fe5b9050602002013563ffffffff16898960038660ff16811515611e6d57fe5b0460ff168181101515611e7c57fe5b9050602002013563ffffffff160163ffffffff16850194508a8a60038560ff16811515611ea557fe5b0460ff168181101515611eb457fe5b9050602002013560ff1684019350600383019250611927565b8c8c600d9190611ede92919061423d565b5060648460ff16141515611ef157600080fd5b7f56d9a2e016027a3725bf162ef2779c8b28d4dbec97c679cfba02dbb31a34c7ca60405160405180910390a150505050505050505050505050565b6060600b82815481101515611f3d57fe5b9060005260206000209060030201600201805480602002602001604051908101604052809291908181526020018280548015611fbe57602002820191906000526020600020906000905b82829054906101000a900460ff1660ff1681526020019060010190602082600001049283019260010382029150808411611f875790505b50505050509050919050565b600360009054906101000a900473ffffffffffffffffffffffffffffffffffffffff1681565b6000806000600c8054905090506000811480612011575061200f6136f3565b155b1561201b57612026565b600191506001810392505b509091565b6000600260009054906101000a900473ffffffffffffffffffffffffffffffffffffffff1673ffffffffffffffffffffffffffffffffffffffff1663a9059cbb84846040518363ffffffff167c0100000000000000000000000000000000000000000000000000000000028152600401808373ffffffffffffffffffffffffffffffffffffffff1673ffffffffffffffffffffffffffffffffffffffff16815260200182815260200192505050602060405180830381600087803b1580156120f257600080fd5b505af1158015612106573d6000803e3d6000fd5b505050506040513d602081101561211c57600080fd5b8101908080519060200190929190505050905092915050565b600080600080600061214561386a565b9350935082151561215957600094506121fe565b600b8181548110151561216857fe5b90600052602060002090600302019150600090505b81600101805490508110156121fd57816001018181548110151561219d57fe5b9060005260206000200154861015156121eb5781600201818154811015156121c157fe5b90600052602060002090602091828204019190069054906101000a900460ff1660ff1694506121f0565b6121fd565b808060010191505061217d565b5b50505050919050565b600080600080606080600c8781548110151561221f57fe5b906000526020600020906003020160000160009054906101000a900463ffffffff16600c8881548110151561225057fe5b906000526020600020906003020160000160049054906101000a900460ff16600c8981548110151561227e57fe5b906000526020600020906003020160000160059054906101000a900463ffffffff16600c8a8154811015156122af57fe5b906000526020600020906003020160000160099054906101000a900463ffffffff16600c8b8154811015156122e057fe5b9060005260206000209060030201600101600c8c81548110151561230057fe5b9060005260206000209060030201600201818054600181600116156101000203166002900480601f0160208091040260200160405190810160405280929190818152602001828054600181600116156101000203166002900480156123a65780601f1061237b576101008083540402835291602001916123a6565b820191906000526020600020905b81548152906001019060200180831161238957829003601f168201915b50505050509150808054600181600116156101000203166002900480601f0160208091040260200160405190810160405280929190818152602001828054600181600116156101000203166002900480156124425780601f1061241757610100808354040283529160200191612442565b820191906000526020600020905b81548152906001019060200180831161242557829003601f168201915b5050505050905095509550955095509550955091939550919395565b6000806000809054906101000a900473ffffffffffffffffffffffffffffffffffffffff1673ffffffffffffffffffffffffffffffffffffffff163373ffffffffffffffffffffffffffffffffffffffff161415156124bc57600080fd5b6000600b8054905011156125105742600b60008154811015156124db57fe5b906000526020600020906003020160000160009054906101000a900463ffffffff1663ffffffff1611151561250f57600080fd5b5b7fffffffffffffffffffffffffffffffffffffffffffffffffffffffffffffffff60ff16888890501115151561254557600080fd5b60008888905011151561255757600080fd5b858590508888905014151561256b57600080fd5b838390508888905014151561257f57600080fd5b6000600c80549050111561269a57878760018a8a90500381811015156125a157fe5b90506040020160016002811015156125b557fe5b602002013563ffffffff1663ffffffff16600c60008154811015156125d657fe5b906000526020600020906003020160000160009054906101000a900463ffffffff1663ffffffff16111515612699576040517f08c379a000000000000000000000000000000000000000000000000000000000815260040180806020018281038252603c8152602001807f4c61737420737461676520656e6444617465206d757374206265206c6573732081526020017f7468616e206669727374206d696c6573746f6e6520656e64446174650000000081525060400191505060405180910390fd5b5b878790509150600b60006126ae91906142f3565b600090505b8160ff168160ff161015612c4d57600086868360ff1681811015156126d457fe5b9050602002013560ff1660ff161015801561270c5750606486868360ff1681811015156126fd57fe5b9050602002013560ff1660ff16105b15156127a6576040517f08c379a000000000000000000000000000000000000000000000000000000000815260040180806020018281038252602f8152602001807f537461676520646973636f756e74206973206e6f7420696e20616c6c6f77656481526020017f2072616e6765205b302c2031303029000000000000000000000000000000000081525060400191505060405180910390fd5b4288888360ff1681811015156127b857fe5b90506040020160006002811015156127cc57fe5b602002013563ffffffff1663ffffffff161115156127e957600080fd5b87878260ff1681811015156127fa57fe5b905060400201600160028110151561280e57fe5b602002013563ffffffff1663ffffffff1688888360ff16818110151561283057fe5b905060400201600060028110151561284457fe5b602002013563ffffffff1663ffffffff161015156128f0576040517f08c379a00000000000000000000000000000000000000000000000000000000081526004018080602001828103825260248152602001807f53746167652073746172742064617465206d75737420626520677420656e642081526020017f646174650000000000000000000000000000000000000000000000000000000081525060400191505060405180910390fd5b60008160ff161115612a085787878260ff16818110151561290d57fe5b905060400201600060028110151561292157fe5b602002013563ffffffff1663ffffffff1688886001840360ff16818110151561294657fe5b905060400201600160028110151561295a57fe5b602002013563ffffffff1663ffffffff1611151515612a07576040517f08c379a00000000000000000000000000000000000000000000000000000000081526004018080602001828103825260228152602001807f53746167657320617265206e6f7420696e20686973746f726963616c206f726481526020017f657200000000000000000000000000000000000000000000000000000000000081525060400191505060405180910390fd5b5b600b60c0604051908101604052808a8a8560ff168181101515612a2757fe5b9050604002016000600281101515612a3b57fe5b602002013563ffffffff1663ffffffff1681526020018a8a8560ff168181101515612a6257fe5b9050604002016001600281101515612a7657fe5b602002013563ffffffff1663ffffffff16815260200188888560ff168181101515612a9d57fe5b9050602002013560ff1660ff16815260200186868560ff168181101515612ac057fe5b9050602002013563ffffffff1663ffffffff1681526020016000604051908082528060200260200182016040528015612b085781602001602082028038833980820191505090505b5081526020016000604051908082528060200260200182016040528015612b3e5781602001602082028038833980820191505090505b508152509080600181540180825580915050906001820390600052602060002090600302016000909192909190915060008201518160000160006101000a81548163ffffffff021916908363ffffffff16021790555060208201518160000160046101000a81548163ffffffff021916908363ffffffff16021790555060408201518160000160086101000a81548160ff021916908360ff16021790555060608201518160000160096101000a81548163ffffffff021916908363ffffffff1602179055506080820151816001019080519060200190612c1f929190614317565b5060a0820151816002019080519060200190612c3c929190614364565b5050505080806001019150506126b3565b7f743961f4e677d1146fbf85d75565b1c5474fd083eb166f8b9595cf5d01a4d6e660405160405180910390a15050505050505050565b600080600080606080600b87815481101515612c9b57fe5b906000526020600020906003020160000160009054906101000a900463ffffffff16600b88815481101515612ccc57fe5b906000526020600020906003020160000160049054906101000a900463ffffffff16600b89815481101515612cfd57fe5b906000526020600020906003020160000160089054906101000a900460ff16600b8a815481101515612d2b57fe5b906000526020600020906003020160000160099054906101000a900463ffffffff16600b8b815481101515612d5c57fe5b9060005260206000209060030201600101600b8c815481101515612d7c57fe5b906000526020600020906003020160020181805480602002602001604051908101604052809291908181526020018280548015612dd857602002820191906000526020600020905b815481526020019060010190808311612dc4575b5050505050915080805480602002602001604051908101604052809291908181526020018280548015612e5057602002820191906000526020600020906000905b82829054906101000a900460ff1660ff1681526020019060010190602082600001049283019260010382029150808411612e195790505b5050505050905095509550955095509550955091939550919395565b60075481565b60008060009054906101000a900473ffffffffffffffffffffffffffffffffffffffff1673ffffffffffffffffffffffffffffffffffffffff163373ffffffffffffffffffffffffffffffffffffffff16141515612ecf57600080fd5b612ed76136f3565b1515612ee257600080fd5b600260009054906101000a900473ffffffffffffffffffffffffffffffffffffffff1673ffffffffffffffffffffffffffffffffffffffff166370a08231306040518263ffffffff167c0100000000000000000000000000000000000000000000000000000000028152600401808273ffffffffffffffffffffffffffffffffffffffff1673ffffffffffffffffffffffffffffffffffffffff168152602001915050602060405180830381600087803b158015612f9f57600080fd5b505af1158015612fb3573d6000803e3d6000fd5b505050506040513d6020811015612fc957600080fd5b81019080805190602001909291905050509050600260009054906101000a900473ffffffffffffffffffffffffffffffffffffffff1673ffffffffffffffffffffffffffffffffffffffff1663a9059cbb6000809054906101000a900473ffffffffffffffffffffffffffffffffffffffff16836040518363ffffffff167c0100000000000000000000000000000000000000000000000000000000028152600401808373ffffffffffffffffffffffffffffffffffffffff1673ffffffffffffffffffffffffffffffffffffffff16815260200182815260200192505050602060405180830381600087803b1580156130c257600080fd5b505af11580156130d6573d6000803e3d6000fd5b505050506040513d60208110156130ec57600080fd5b8101908080519060200190929190505050151561310857600080fd5b6000809054906101000a900473ffffffffffffffffffffffffffffffffffffffff1673ffffffffffffffffffffffffffffffffffffffff167f26ffb867a6b19bc0240d4e732ed6cfb0f0b6d93143a99cfb24ba5873308861f8826040518082815260200191505060405180910390a250565b6000600c80549050905090565b6000600260009054906101000a900473ffffffffffffffffffffffffffffffffffffffff16905090565b60008060009054906101000a900473ffffffffffffffffffffffffffffffffffffffff1673ffffffffffffffffffffffffffffffffffffffff163373ffffffffffffffffffffffffffffffffffffffff1614151561320e57600080fd5b6000600b8054905011156132625742600b600081548110151561322d57fe5b906000526020600020906003020160000160009054906101000a900463ffffffff1663ffffffff1611151561326157600080fd5b5b828290508585905014151561327657600080fd5b600b805490508610151561328957600080fd5b600090505b8484905081101561337857600081111561336b5784848281811015156132b057fe5b9050602002013585856001840381811015156132c857fe5b9050602002013510151561336a576040517f08c379a000000000000000000000000000000000000000000000000000000000815260040180806020018281038252602c8152602001807f566f6c756d6520626f756e646172696573206d75737420626520696e2061736381526020017f656e64696e67206f72646572000000000000000000000000000000000000000081525060400191505060405180910390fd5b5b808060010191505061328e565b600b8681548110151561338757fe5b906000526020600020906003020160010160006133a4919061440b565b600b868154811015156133b357fe5b906000526020600020906003020160020160006133d0919061442c565b8484600b888154811015156133e157fe5b906000526020600020906003020160010191906133ff929190614454565b508282600b8881548110151561341157fe5b9060005260206000209060030201600201919061342f9291906144a1565b507f34cf54504fd39ab670a54acbb37f686c5bd25e6eedfa39889cba899d360bc7d9866040518082815260200191505060405180910390a1505050505050565b600860009054906101000a900473ffffffffffffffffffffffffffffffffffffffff1681565b60008060006134a261386a565b91509150809250505090565b6000809054906101000a900473ffffffffffffffffffffffffffffffffffffffff1673ffffffffffffffffffffffffffffffffffffffff163373ffffffffffffffffffffffffffffffffffffffff1614151561350957600080fd5b6000809054906101000a900473ffffffffffffffffffffffffffffffffffffffff1673ffffffffffffffffffffffffffffffffffffffff167ff8df31144d9c2f0f6b59d69b8b98abd5459d07f2742c4df920b25aae33c6482060405160405180910390a260008060006101000a81548173ffffffffffffffffffffffffffffffffffffffff021916908373ffffffffffffffffffffffffffffffffffffffff160217905550565b600d818154811015156135bf57fe5b9060005260206000209060089182820401919006600402915054906101000a900463ffffffff1681565b6000600b80549050905090565b600960009054906101000a900473ffffffffffffffffffffffffffffffffffffffff1681565b600b8181548110151561362b57fe5b90600052602060002090600302016000915090508060000160009054906101000a900463ffffffff16908060000160049054906101000a900463ffffffff16908060000160089054906101000a900460ff16908060000160099054906101000a900463ffffffff16905084565b60065481565b6000809054906101000a900473ffffffffffffffffffffffffffffffffffffffff1681565b6000600a60009054906101000a900473ffffffffffffffffffffffffffffffffffffffff16905090565b60055481565b600080600b805490501480613745575042600b6001600b805490500381548110151561371b57fe5b906000526020600020906003020160000160049054906101000a900463ffffffff1663ffffffff16105b905090565b600080600b8054905011151561375f57600080fd5b600b6001600b805490500381548110151561377657fe5b906000526020600020906003020160000160049054906101000a900463ffffffff16905090565b600a60009054906101000a900473ffffffffffffffffffffffffffffffffffffffff1681565b8060078190555050565b6000806000600c80549050905060008114806137ee57506137ec6136f3565b155b156137f857613865565b600191505b60018103831080156138525750600d6001600360018601020381548110151561382257fe5b90600052602060002090600891828204019190066004029054906101000a900463ffffffff1663ffffffff164210155b156138645782806001019350506137fd565b5b509091565b600080600080600091505b600b8054905082101561390257600b8281548110151561389157fe5b90600052602060002090600302019050428160000160009054906101000a900463ffffffff1663ffffffff16111580156138e45750428160000160049054906101000a900463ffffffff1663ffffffff16115b156138f5578160019350935061390d565b8180600101925050613875565b600080819150935093505b50509091565b600c8181548110151561392257fe5b90600052602060002090600302016000915090508060000160009054906101000a900463ffffffff16908060000160049054906101000a900460ff16908060000160059054906101000a900463ffffffff16908060000160099054906101000a900463ffffffff1690806001018054600181600116156101000203166002900480601f016020809104026020016040519081016040528092919081815260200182805460018160011615610100020316600290048015613a235780601f106139f857610100808354040283529160200191613a23565b820191906000526020600020905b815481529060010190602001808311613a0657829003601f168201915b505050505090806002018054600181600116156101000203166002900480601f016020809104026020016040519081016040528092919081815260200182805460018160011615610100020316600290048015613ac15780601f10613a9657610100808354040283529160200191613ac1565b820191906000526020600020905b815481529060010190602001808311613aa457829003601f168201915b5050505050905086565b6000809054906101000a900473ffffffffffffffffffffffffffffffffffffffff1673ffffffffffffffffffffffffffffffffffffffff163373ffffffffffffffffffffffffffffffffffffffff16141515613b2657600080fd5b6000600b805490501115613b7a5742600b6000815481101515613b4557fe5b906000526020600020906003020160000160009054906101000a900463ffffffff1663ffffffff16111515613b7957600080fd5b5b613ba681600860009054906101000a900473ffffffffffffffffffffffffffffffffffffffff16613f9b565b50565b6060600b82815481101515613bba57fe5b9060005260206000209060030201600101805480602002602001604051908101604052809291908181526020018280548015613c1557602002820191906000526020600020905b815481526020019060010190808311613c01575b50505050509050919050565b6000809054906101000a900473ffffffffffffffffffffffffffffffffffffffff1673ffffffffffffffffffffffffffffffffffffffff163373ffffffffffffffffffffffffffffffffffffffff16141515613c7c57600080fd5b613c8581614032565b50565b600260009054906101000a900473ffffffffffffffffffffffffffffffffffffffff1681565b6000806000806000879350600260009054906101000a900473ffffffffffffffffffffffffffffffffffffffff1673ffffffffffffffffffffffffffffffffffffffff166370a08231306040518263ffffffff167c0100000000000000000000000000000000000000000000000000000000028152600401808273ffffffffffffffffffffffffffffffffffffffff1673ffffffffffffffffffffffffffffffffffffffff168152602001915050602060405180830381600087803b158015613d7657600080fd5b505af1158015613d8a573d6000803e3d6000fd5b505050506040513d6020811015613da057600080fd5b81019080805190602001909291905050509050600454600a0a8110151515613dc757600080fd5b60008711613dd757600554613e03565b613e026064613df489606403600554613ed090919063ffffffff16565b61412c90919063ffffffff16565b5b9150613e47600260045403600a0a613e3984613e2b8a6064018d613ed090919063ffffffff16565b61412c90919063ffffffff16565b613ed090919063ffffffff16565b945084811015613e8157613e7685613e68838b613ed090919063ffffffff16565b61412c90919063ffffffff16565b935083880392508094505b5093509350935093565b6000613e9682614156565b1515613ea157600080fd5b613ec8612710613eba8486613ed090919063ffffffff16565b61412c90919063ffffffff16565b905092915050565b6000806000841415613ee55760009150613f07565b8284029050828482811515613ef657fe5b04141515613f0357600080fd5b8091505b5092915050565b606080828401855110151515613f2357600080fd5b821560008114613f3e57604051915060208201604052613f8f565b6040519150601f8416801560200281840101858101878315602002848b0101015b81831015613f7c5780518352602083019250602081019050613f5f565b50868552601f19601f8301166040525050505b50809150509392505050565b600082111515613faa57600080fd5b600073ffffffffffffffffffffffffffffffffffffffff168173ffffffffffffffffffffffffffffffffffffffff1614151515613fe657600080fd5b8160058190555080600860006101000a81548173ffffffffffffffffffffffffffffffffffffffff021916908373ffffffffffffffffffffffffffffffffffffffff1602179055505050565b600073ffffffffffffffffffffffffffffffffffffffff168173ffffffffffffffffffffffffffffffffffffffff161415151561406e57600080fd5b8073ffffffffffffffffffffffffffffffffffffffff166000809054906101000a900473ffffffffffffffffffffffffffffffffffffffff1673ffffffffffffffffffffffffffffffffffffffff167f8be0079c531659141344cd1fd0a4f28419497f9722a3daafe3b4186f6b6457e060405160405180910390a3806000806101000a81548173ffffffffffffffffffffffffffffffffffffffff021916908373ffffffffffffffffffffffffffffffffffffffff16021790555050565b60008060008311151561413e57600080fd5b828481151561414957fe5b0490508091505092915050565b600080821015801561416a57506127108211155b9050919050565b5080546000825560030290600052602060002090810190614192919061454b565b50565b5080546000825560070160089004906000526020600020908101906141ba91906145e3565b50565b828054600181600116156101000203166002900490600052602060002090601f016020900481019282601f106141fe57805160ff191683800117855561422c565b8280016001018555821561422c579182015b8281111561422b578251825591602001919060010190614210565b5b50905061423991906145e3565b5090565b828054828255906000526020600020906007016008900481019282156142e25791602002820160005b838211156142b057833563ffffffff1683826101000a81548163ffffffff021916908363ffffffff1602179055509260200192600401602081600301049283019260010302614266565b80156142e05782816101000a81549063ffffffff02191690556004016020816003010492830192600103026142b0565b505b5090506142ef9190614608565b5090565b5080546000825560030290600052602060002090810190614314919061463b565b50565b828054828255906000526020600020908101928215614353579160200282015b82811115614352578251825591602001919060010190614337565b5b50905061436091906145e3565b5090565b82805482825590600052602060002090601f016020900481019282156143fa5791602002820160005b838211156143cb57835183826101000a81548160ff021916908360ff160217905550926020019260010160208160000104928301926001030261438d565b80156143f85782816101000a81549060ff02191690556001016020816000010492830192600103026143cb565b505b50905061440791906146d3565b5090565b508054600082559060005260206000209081019061442991906145e3565b50565b50805460008255601f01602090049060005260206000209081019061445191906145e3565b50565b828054828255906000526020600020908101928215614490579160200282015b8281111561448f578235825591602001919060010190614474565b5b50905061449d91906145e3565b5090565b82805482825590600052602060002090601f0160209004810192821561453a5791602002820160005b8382111561450b57833560ff1683826101000a81548160ff021916908360ff16021790555092602001926001016020816000010492830192600103026144ca565b80156145385782816101000a81549060ff021916905560010160208160000104928301926001030261450b565b505b50905061454791906146d3565b5090565b6145e091905b808211156145dc57600080820160006101000a81549063ffffffff02191690556000820160046101000a81549060ff02191690556000820160056101000a81549063ffffffff02191690556000820160096101000a81549063ffffffff02191690556001820160006145c39190614703565b6002820160006145d39190614703565b50600301614551565b5090565b90565b61460591905b808211156146015760008160009055506001016145e9565b5090565b90565b61463891905b8082111561463457600081816101000a81549063ffffffff02191690555060010161460e565b5090565b90565b6146d091905b808211156146cc57600080820160006101000a81549063ffffffff02191690556000820160046101000a81549063ffffffff02191690556000820160086101000a81549060ff02191690556000820160096101000a81549063ffffffff02191690556001820160006146b3919061440b565b6002820160006146c3919061442c565b50600301614641565b5090565b90565b61470091905b808211156146fc57600081816101000a81549060ff0219169055506001016146d9565b5090565b90565b50805460018160011615610100020316600290046000825580601f106147295750614748565b601f01602090049060005260206000209081019061474791906145e3565b5b50565b600061475682614156565b151561476157600080fd5b61477560648361412c90919063ffffffff16565b90509190505600a165627a7a723058209476110786f2dca0c27a4ba2670c148552a74ce26538c52954b08d0eb69e6f5d0029",
  "source": "pragma solidity ^0.4.24;\n\nimport \"./W12Crowdsale.sol\";\n\n\ncontract W12CrowdsaleStub is W12Crowdsale {\n    constructor (\n        address _originToken,\n        address _token,\n        uint _tokenDecimals,\n        uint _price,\n        address _serviceWallet,\n        address _swap,\n        uint _serviceFee,\n        uint _WTokenSaleFeePercent,\n        IW12Fund _fund\n    )\n        W12Crowdsale(\n            _originToken,\n             _token,\n             _tokenDecimals,\n             _price,\n             _serviceWallet,\n             _swap,\n             _serviceFee,\n            _WTokenSaleFeePercent,\n             _fund\n        ) public\n    {}\n\n    function _outTokens(address to, uint amount) external returns (bool) {\n        return token.transfer(to, amount);\n    }\n\n    function _setState(uint _WTokenSaleFeePercent) external {\n        WTokenSaleFeePercent = _WTokenSaleFeePercent;\n    }\n}\n",
  "sourcePath": "/home/andrey/Code/w12/platform-contracts/contracts/W12CrowdsaleStub.sol",
  "compiler": {
    "name": "solc",
    "version": "0.4.24+commit.e67f0147.Emscripten.clang"
  },
  "schemaVersion": "2.0.1",
  "updatedAt": "2018-09-12T06:57:34.468Z"
}