{
  "contractName": "W12Crowdsale",
  "abi": [
    {
      "constant": true,
      "inputs": [],
      "name": "originToken",
      "outputs": [
        {
          "name": "",
          "type": "address"
        }
      ],
      "payable": false,
      "stateMutability": "view",
      "type": "function"
    },
    {
      "constant": true,
      "inputs": [],
      "name": "WTokenSaleFeePercent",
      "outputs": [
        {
          "name": "",
          "type": "uint256"
        }
      ],
      "payable": false,
      "stateMutability": "view",
      "type": "function"
    },
    {
      "constant": true,
      "inputs": [],
      "name": "serviceWallet",
      "outputs": [
        {
          "name": "",
          "type": "address"
        }
      ],
      "payable": false,
      "stateMutability": "view",
      "type": "function"
    },
    {
      "constant": false,
      "inputs": [],
      "name": "renounceOwnership",
      "outputs": [],
      "payable": false,
      "stateMutability": "nonpayable",
      "type": "function"
    },
    {
      "constant": true,
      "inputs": [
        {
          "name": "",
          "type": "uint256"
        }
      ],
      "name": "milestoneDates",
      "outputs": [
        {
          "name": "",
          "type": "uint32"
        }
      ],
      "payable": false,
      "stateMutability": "view",
      "type": "function"
    },
    {
      "constant": true,
      "inputs": [],
      "name": "swap",
      "outputs": [
        {
          "name": "",
          "type": "address"
        }
      ],
      "payable": false,
      "stateMutability": "view",
      "type": "function"
    },
    {
      "constant": true,
      "inputs": [
        {
          "name": "",
          "type": "uint256"
        }
      ],
      "name": "stages",
      "outputs": [
        {
          "name": "startDate",
          "type": "uint32"
        },
        {
          "name": "endDate",
          "type": "uint32"
        },
        {
          "name": "discount",
          "type": "uint8"
        },
        {
          "name": "vesting",
          "type": "uint32"
        }
      ],
      "payable": false,
      "stateMutability": "view",
      "type": "function"
    },
    {
      "constant": true,
      "inputs": [],
      "name": "serviceFee",
      "outputs": [
        {
          "name": "",
          "type": "uint256"
        }
      ],
      "payable": false,
      "stateMutability": "view",
      "type": "function"
    },
    {
      "constant": true,
      "inputs": [],
      "name": "owner",
      "outputs": [
        {
          "name": "",
          "type": "address"
        }
      ],
      "payable": false,
      "stateMutability": "view",
      "type": "function"
    },
    {
      "constant": true,
      "inputs": [],
      "name": "price",
      "outputs": [
        {
          "name": "",
          "type": "uint256"
        }
      ],
      "payable": false,
      "stateMutability": "view",
      "type": "function"
    },
    {
      "constant": true,
      "inputs": [],
      "name": "fund",
      "outputs": [
        {
          "name": "",
          "type": "address"
        }
      ],
      "payable": false,
      "stateMutability": "view",
      "type": "function"
    },
    {
      "constant": true,
      "inputs": [
        {
          "name": "",
          "type": "uint256"
        }
      ],
      "name": "milestones",
      "outputs": [
        {
          "name": "endDate",
          "type": "uint32"
        },
        {
          "name": "tranchePercent",
          "type": "uint8"
        },
        {
          "name": "voteEndDate",
          "type": "uint32"
        },
        {
          "name": "withdrawalWindow",
          "type": "uint32"
        },
        {
          "name": "name",
          "type": "bytes"
        },
        {
          "name": "description",
          "type": "bytes"
        }
      ],
      "payable": false,
      "stateMutability": "view",
      "type": "function"
    },
    {
      "constant": false,
      "inputs": [
        {
          "name": "_newOwner",
          "type": "address"
        }
      ],
      "name": "transferOwnership",
      "outputs": [],
      "payable": false,
      "stateMutability": "nonpayable",
      "type": "function"
    },
    {
      "constant": true,
      "inputs": [],
      "name": "token",
      "outputs": [
        {
          "name": "",
          "type": "address"
        }
      ],
      "payable": false,
      "stateMutability": "view",
      "type": "function"
    },
    {
      "inputs": [
        {
          "name": "_originToken",
          "type": "address"
        },
        {
          "name": "_token",
          "type": "address"
        },
        {
          "name": "_tokenDecimals",
          "type": "uint256"
        },
        {
          "name": "_price",
          "type": "uint256"
        },
        {
          "name": "_serviceWallet",
          "type": "address"
        },
        {
          "name": "_swap",
          "type": "address"
        },
        {
          "name": "_serviceFee",
          "type": "uint256"
        },
        {
          "name": "_WTokenSaleFeePercent",
          "type": "uint256"
        },
        {
          "name": "_fund",
          "type": "address"
        }
      ],
      "payable": false,
      "stateMutability": "nonpayable",
      "type": "constructor"
    },
    {
      "payable": true,
      "stateMutability": "payable",
      "type": "fallback"
    },
    {
      "anonymous": false,
      "inputs": [
        {
          "indexed": true,
          "name": "buyer",
          "type": "address"
        },
        {
          "indexed": false,
          "name": "amountPaid",
          "type": "uint256"
        },
        {
          "indexed": false,
          "name": "tokensBought",
          "type": "uint256"
        },
        {
          "indexed": false,
          "name": "change",
          "type": "uint256"
        }
      ],
      "name": "TokenPurchase",
      "type": "event"
    },
    {
      "anonymous": false,
      "inputs": [],
      "name": "StagesUpdated",
      "type": "event"
    },
    {
      "anonymous": false,
      "inputs": [
        {
          "indexed": false,
          "name": "index",
          "type": "uint256"
        }
      ],
      "name": "StageUpdated",
      "type": "event"
    },
    {
      "anonymous": false,
      "inputs": [],
      "name": "MilestonesUpdated",
      "type": "event"
    },
    {
      "anonymous": false,
      "inputs": [
        {
          "indexed": true,
          "name": "owner",
          "type": "address"
        },
        {
          "indexed": false,
          "name": "amount",
          "type": "uint256"
        }
      ],
      "name": "UnsoldTokenReturned",
      "type": "event"
    },
    {
      "anonymous": false,
      "inputs": [
        {
          "indexed": false,
          "name": "value",
          "type": "uint256"
        }
      ],
      "name": "debug",
      "type": "event"
    },
    {
      "anonymous": false,
      "inputs": [
        {
          "indexed": true,
          "name": "previousOwner",
          "type": "address"
        }
      ],
      "name": "OwnershipRenounced",
      "type": "event"
    },
    {
      "anonymous": false,
      "inputs": [
        {
          "indexed": true,
          "name": "previousOwner",
          "type": "address"
        },
        {
          "indexed": true,
          "name": "newOwner",
          "type": "address"
        }
      ],
      "name": "OwnershipTransferred",
      "type": "event"
    },
    {
      "constant": true,
      "inputs": [],
      "name": "stagesLength",
      "outputs": [
        {
          "name": "",
          "type": "uint256"
        }
      ],
      "payable": false,
      "stateMutability": "view",
      "type": "function"
    },
    {
      "constant": true,
      "inputs": [],
      "name": "milestonesLength",
      "outputs": [
        {
          "name": "",
          "type": "uint256"
        }
      ],
      "payable": false,
      "stateMutability": "view",
      "type": "function"
    },
    {
      "constant": true,
      "inputs": [
        {
          "name": "index",
          "type": "uint256"
        }
      ],
      "name": "getMilestone",
      "outputs": [
        {
          "name": "",
          "type": "uint32"
        },
        {
          "name": "",
          "type": "uint8"
        },
        {
          "name": "",
          "type": "uint32"
        },
        {
          "name": "",
          "type": "uint32"
        },
        {
          "name": "",
          "type": "bytes"
        },
        {
          "name": "",
          "type": "bytes"
        }
      ],
      "payable": false,
      "stateMutability": "view",
      "type": "function"
    },
    {
      "constant": true,
      "inputs": [
        {
          "name": "index",
          "type": "uint256"
        }
      ],
      "name": "getStage",
      "outputs": [
        {
          "name": "",
          "type": "uint32"
        },
        {
          "name": "",
          "type": "uint32"
        },
        {
          "name": "",
          "type": "uint8"
        },
        {
          "name": "",
          "type": "uint32"
        },
        {
          "name": "",
          "type": "uint256[]"
        },
        {
          "name": "",
          "type": "uint8[]"
        }
      ],
      "payable": false,
      "stateMutability": "view",
      "type": "function"
    },
    {
      "constant": true,
      "inputs": [
        {
          "name": "stageNumber",
          "type": "uint256"
        }
      ],
      "name": "getStageVolumeBoundaries",
      "outputs": [
        {
          "name": "",
          "type": "uint256[]"
        }
      ],
      "payable": false,
      "stateMutability": "view",
      "type": "function"
    },
    {
      "constant": true,
      "inputs": [
        {
          "name": "stageNumber",
          "type": "uint256"
        }
      ],
      "name": "getStageVolumeBonuses",
      "outputs": [
        {
          "name": "",
          "type": "uint8[]"
        }
      ],
      "payable": false,
      "stateMutability": "view",
      "type": "function"
    },
    {
      "constant": true,
      "inputs": [],
      "name": "getEndDate",
      "outputs": [
        {
          "name": "",
          "type": "uint32"
        }
      ],
      "payable": false,
      "stateMutability": "view",
      "type": "function"
    },
    {
      "constant": true,
      "inputs": [],
      "name": "getCurrentMilestoneIndex",
      "outputs": [
        {
          "name": "index",
          "type": "uint256"
        },
        {
          "name": "found",
          "type": "bool"
        }
      ],
      "payable": false,
      "stateMutability": "view",
      "type": "function"
    },
    {
      "constant": true,
      "inputs": [],
      "name": "getLastMilestoneIndex",
      "outputs": [
        {
          "name": "index",
          "type": "uint256"
        },
        {
          "name": "found",
          "type": "bool"
        }
      ],
      "payable": false,
      "stateMutability": "view",
      "type": "function"
    },
    {
      "constant": false,
      "inputs": [
        {
          "name": "_price",
          "type": "uint256"
        }
      ],
      "name": "setParameters",
      "outputs": [],
      "payable": false,
      "stateMutability": "nonpayable",
      "type": "function"
    },
    {
      "constant": false,
      "inputs": [
        {
          "name": "dates",
          "type": "uint32[2][]"
        },
        {
          "name": "stage_discounts",
          "type": "uint8[]"
        },
        {
          "name": "stage_vestings",
          "type": "uint32[]"
        }
      ],
      "name": "setStages",
      "outputs": [],
      "payable": false,
      "stateMutability": "nonpayable",
      "type": "function"
    },
    {
      "constant": false,
      "inputs": [
        {
          "name": "stage",
          "type": "uint256"
        },
        {
          "name": "volumeBoundaries",
          "type": "uint256[]"
        },
        {
          "name": "volumeBonuses",
          "type": "uint8[]"
        }
      ],
      "name": "setStageVolumeBonuses",
      "outputs": [],
      "payable": false,
      "stateMutability": "nonpayable",
      "type": "function"
    },
    {
      "constant": false,
      "inputs": [
        {
          "name": "dates",
          "type": "uint32[]"
        },
        {
          "name": "tranchePercents",
          "type": "uint8[]"
        },
        {
          "name": "offsets",
          "type": "uint32[]"
        },
        {
          "name": "namesAndDescriptions",
          "type": "bytes"
        }
      ],
      "name": "setMilestones",
      "outputs": [],
      "payable": false,
      "stateMutability": "nonpayable",
      "type": "function"
    },
    {
      "constant": false,
      "inputs": [],
      "name": "buyTokens",
      "outputs": [],
      "payable": true,
      "stateMutability": "payable",
      "type": "function"
    },
    {
      "constant": true,
      "inputs": [],
      "name": "getWToken",
      "outputs": [
        {
          "name": "",
          "type": "address"
        }
      ],
      "payable": false,
      "stateMutability": "view",
      "type": "function"
    },
    {
      "constant": true,
      "inputs": [],
      "name": "getFund",
      "outputs": [
        {
          "name": "",
          "type": "address"
        }
      ],
      "payable": false,
      "stateMutability": "view",
      "type": "function"
    },
    {
      "constant": true,
      "inputs": [
        {
          "name": "value",
          "type": "uint256"
        }
      ],
      "name": "getSaleVolumeBonus",
      "outputs": [
        {
          "name": "bonus",
          "type": "uint256"
        }
      ],
      "payable": false,
      "stateMutability": "view",
      "type": "function"
    },
    {
      "constant": true,
      "inputs": [],
      "name": "getCurrentStageIndex",
      "outputs": [
        {
          "name": "index",
          "type": "uint256"
        },
        {
          "name": "found",
          "type": "bool"
        }
      ],
      "payable": false,
      "stateMutability": "view",
      "type": "function"
    },
    {
      "constant": false,
      "inputs": [],
      "name": "claimRemainingTokens",
      "outputs": [],
      "payable": false,
      "stateMutability": "nonpayable",
      "type": "function"
    },
    {
      "constant": true,
      "inputs": [],
      "name": "isEnded",
      "outputs": [
        {
          "name": "",
          "type": "bool"
        }
      ],
      "payable": false,
      "stateMutability": "view",
      "type": "function"
    },
    {
      "constant": true,
      "inputs": [],
      "name": "isSaleActive",
      "outputs": [
        {
          "name": "",
          "type": "bool"
        }
      ],
      "payable": false,
      "stateMutability": "view",
      "type": "function"
    }
  ],
  "bytecode": "0x6080604052600180553480156200001557600080fd5b506040516101208062004a9c833981018060405281019080805190602001909291908051906020019092919080519060200190929190805190602001909291908051906020019092919080519060200190929190805190602001909291908051906020019092919080519060200190929190505050336000806101000a81548173ffffffffffffffffffffffffffffffffffffffff021916908373ffffffffffffffffffffffffffffffffffffffff160217905550600073ffffffffffffffffffffffffffffffffffffffff168873ffffffffffffffffffffffffffffffffffffffff16141515156200010757600080fd5b6200012683620003706401000000000262003f96176401000000009004565b801562000151575060646200014f846200038c640100000000026200458b176401000000009004565b105b15156200015d57600080fd5b6200017c82620003706401000000000262003f96176401000000009004565b8015620001a757506064620001a5836200038c640100000000026200458b176401000000009004565b105b1515620001b357600080fd5b600073ffffffffffffffffffffffffffffffffffffffff168173ffffffffffffffffffffffffffffffffffffffff1614151515620001f057600080fd5b600073ffffffffffffffffffffffffffffffffffffffff168473ffffffffffffffffffffffffffffffffffffffff16141515156200022d57600080fd5b87600260006101000a81548173ffffffffffffffffffffffffffffffffffffffff021916908373ffffffffffffffffffffffffffffffffffffffff16021790555088600360006101000a81548173ffffffffffffffffffffffffffffffffffffffff021916908373ffffffffffffffffffffffffffffffffffffffff16021790555086600481905550620002d18686620003df640100000000026401000000009004565b8260068190555083600960006101000a81548173ffffffffffffffffffffffffffffffffffffffff021916908373ffffffffffffffffffffffffffffffffffffffff1602179055508160078190555080600a60006101000a81548173ffffffffffffffffffffffffffffffffffffffff021916908373ffffffffffffffffffffffffffffffffffffffff160217905550505050505050505050620004a4565b60008082101580156200038557506127108211155b9050919050565b6000620003a88262000370640100000000026401000000009004565b1515620003b457600080fd5b620003d8606483620004786401000000000262003f6c179091906401000000009004565b9050919050565b600082111515620003ef57600080fd5b600073ffffffffffffffffffffffffffffffffffffffff168173ffffffffffffffffffffffffffffffffffffffff16141515156200042c57600080fd5b8160058190555080600860006101000a81548173ffffffffffffffffffffffffffffffffffffffff021916908373ffffffffffffffffffffffffffffffffffffffff1602179055505050565b6000806000831115156200048b57600080fd5b82848115156200049757fe5b0490508091505092915050565b6145e880620004b46000396000f3006080604052600436106101b7576000357c0100000000000000000000000000000000000000000000000000000000900463ffffffff1680630d544ffe146101c15780630ee62c771461024457806313096a41146102c657806314f66d341461031d578063208853c9146103535780632442e1cb146103945780632c9a4bab146104ec5780632e325020146105575780632fbe599014610667578063313602d4146106925780633baba4d7146106a95780634090cb64146106d4578063521b74991461072b5780635641f3c314610788578063564566a8146107df578063715018a61461080e57806372e6a88114610825578063792c02ea146108725780638119c0651461089d578063845ddcb2146108f45780638abdf5aa146109745780638da5cb5b1461099f5780638edd6eb6146109f6578063a035b1fe14610a4d578063a4fd6f5614610a78578063b135648814610aa7578063b60d428814610ade578063d0febe4c14610b35578063d6d65f3d14610b3f578063daa4cf8814610b75578063e89e4ed614610bab578063e93b054014610d03578063f12585f514610d30578063f2fde38b14610db2578063fc0c546a14610df5575b6101bf610e4c565b005b3480156101cd57600080fd5b506102426004803603810190808035906020019082018035906020019190919293919293908035906020019082018035906020019190919293919293908035906020019082018035906020019190919293919293908035906020019082018035906020019190919293919293905050506115c8565b005b34801561025057600080fd5b5061026f60048036038101908080359060200190929190505050611e84565b6040518080602001828103825283818151815260200191508051906020019060200280838360005b838110156102b2578082015181840152602081019050610297565b505050509050019250505060405180910390f35b3480156102d257600080fd5b506102db611f22565b604051808273ffffffffffffffffffffffffffffffffffffffff1673ffffffffffffffffffffffffffffffffffffffff16815260200191505060405180910390f35b34801561032957600080fd5b50610332611f48565b60405180838152602001821515151581526020019250505060405180910390f35b34801561035f57600080fd5b5061037e60048036038101908080359060200190929190505050611f83565b6040518082815260200191505060405180910390f35b3480156103a057600080fd5b506103bf60048036038101908080359060200190929190505050612055565b604051808763ffffffff1663ffffffff1681526020018660ff1660ff1681526020018563ffffffff1663ffffffff1681526020018463ffffffff1663ffffffff1681526020018060200180602001838103835285818151815260200191508051906020019080838360005b8381101561044557808201518184015260208101905061042a565b50505050905090810190601f1680156104725780820380516001836020036101000a031916815260200191505b50838103825284818151815260200191508051906020019080838360005b838110156104ab578082015181840152602081019050610490565b50505050905090810190601f1680156104d85780820380516001836020036101000a031916815260200191505b509850505050505050505060405180910390f35b3480156104f857600080fd5b506105556004803603810190808035906020019082018035906020019190919293919293908035906020019082018035906020019190919293919293908035906020019082018035906020019190919293919293905050506122ac565b005b34801561056357600080fd5b5061058260048036038101908080359060200190929190505050612ad1565b604051808763ffffffff1663ffffffff1681526020018663ffffffff1663ffffffff1681526020018560ff1660ff1681526020018463ffffffff1663ffffffff1681526020018060200180602001838103835285818151815260200191508051906020019060200280838360005b8381101561060b5780820151818401526020810190506105f0565b50505050905001838103825284818151815260200191508051906020019060200280838360005b8381101561064d578082015181840152602081019050610632565b505050509050019850505050505050505060405180910390f35b34801561067357600080fd5b5061067c612cba565b6040518082815260200191505060405180910390f35b34801561069e57600080fd5b506106a7612cc0565b005b3480156106b557600080fd5b506106be612fc8565b6040518082815260200191505060405180910390f35b3480156106e057600080fd5b506106e9612fd5565b604051808273ffffffffffffffffffffffffffffffffffffffff1673ffffffffffffffffffffffffffffffffffffffff16815260200191505060405180910390f35b34801561073757600080fd5b5061078660048036038101908080359060200190929190803590602001908201803590602001919091929391929390803590602001908201803590602001919091929391929390505050612fff565b005b34801561079457600080fd5b5061079d6132bd565b604051808273ffffffffffffffffffffffffffffffffffffffff1673ffffffffffffffffffffffffffffffffffffffff16815260200191505060405180910390f35b3480156107eb57600080fd5b506107f46132e3565b604051808215151515815260200191505060405180910390f35b34801561081a57600080fd5b506108236132f8565b005b34801561083157600080fd5b50610850600480360381019080803590602001909291905050506133fa565b604051808263ffffffff1663ffffffff16815260200191505060405180910390f35b34801561087e57600080fd5b50610887613433565b6040518082815260200191505060405180910390f35b3480156108a957600080fd5b506108b2613440565b604051808273ffffffffffffffffffffffffffffffffffffffff1673ffffffffffffffffffffffffffffffffffffffff16815260200191505060405180910390f35b34801561090057600080fd5b5061091f60048036038101908080359060200190929190505050613466565b604051808563ffffffff1663ffffffff1681526020018463ffffffff1663ffffffff1681526020018360ff1660ff1681526020018263ffffffff1663ffffffff16815260200194505050505060405180910390f35b34801561098057600080fd5b506109896134e2565b6040518082815260200191505060405180910390f35b3480156109ab57600080fd5b506109b46134e8565b604051808273ffffffffffffffffffffffffffffffffffffffff1673ffffffffffffffffffffffffffffffffffffffff16815260200191505060405180910390f35b348015610a0257600080fd5b50610a0b61350d565b604051808273ffffffffffffffffffffffffffffffffffffffff1673ffffffffffffffffffffffffffffffffffffffff16815260200191505060405180910390f35b348015610a5957600080fd5b50610a62613537565b6040518082815260200191505060405180910390f35b348015610a8457600080fd5b50610a8d61353d565b604051808215151515815260200191505060405180910390f35b348015610ab357600080fd5b50610abc613594565b604051808263ffffffff1663ffffffff16815260200191505060405180910390f35b348015610aea57600080fd5b50610af36135e7565b604051808273ffffffffffffffffffffffffffffffffffffffff1673ffffffffffffffffffffffffffffffffffffffff16815260200191505060405180910390f35b610b3d610e4c565b005b348015610b4b57600080fd5b50610b5461360d565b60405180838152602001821515151581526020019250505060405180910390f35b348015610b8157600080fd5b50610b8a6136aa565b60405180838152602001821515151581526020019250505060405180910390f35b348015610bb757600080fd5b50610bd660048036038101908080359060200190929190505050613753565b604051808763ffffffff1663ffffffff1681526020018660ff1660ff1681526020018563ffffffff1663ffffffff1681526020018463ffffffff1663ffffffff1681526020018060200180602001838103835285818151815260200191508051906020019080838360005b83811015610c5c578082015181840152602081019050610c41565b50505050905090810190601f168015610c895780820380516001836020036101000a031916815260200191505b50838103825284818151815260200191508051906020019080838360005b83811015610cc2578082015181840152602081019050610ca7565b50505050905090810190601f168015610cef5780820380516001836020036101000a031916815260200191505b509850505050505050505060405180910390f35b348015610d0f57600080fd5b50610d2e6004803603810190808035906020019092919050505061390b565b005b348015610d3c57600080fd5b50610d5b600480360381019080803590602001909291905050506139e9565b6040518080602001828103825283818151815260200191508051906020019060200280838360005b83811015610d9e578082015181840152602081019050610d83565b505050509050019250505060405180910390f35b348015610dbe57600080fd5b50610df3600480360381019080803573ffffffffffffffffffffffffffffffffffffffff169060200190929190505050613a61565b005b348015610e0157600080fd5b50610e0a613ac8565b604051808273ffffffffffffffffffffffffffffffffffffffff1673ffffffffffffffffffffffffffffffffffffffff16815260200191505060405180910390f35b6000806000806000806000806000600180600082825401925050819055506001549050610e776132e3565b1515610eeb576040517f08c379a00000000000000000000000000000000000000000000000000000000081526004018080602001828103825260178152602001807f53616c65206973206e6f7420737461727465642079657400000000000000000081525060200191505060405180910390fd5b600034111515610efa57600080fd5b610f026136aa565b509850600b89815481101515610f1457fe5b906000526020600020906003020160000160089054906101000a900460ff1660ff169750600b89815481101515610f4757fe5b906000526020600020906003020160000160099054906101000a900463ffffffff169650610f7434611f83565b9550610f81348988613aee565b509450945094506000600754111561125b57610fa860075486613ccb90919063ffffffff16565b9150600360009054906101000a900473ffffffffffffffffffffffffffffffffffffffff1673ffffffffffffffffffffffffffffffffffffffff166323b872dd600960009054906101000a900473ffffffffffffffffffffffffffffffffffffffff16600860009054906101000a900473ffffffffffffffffffffffffffffffffffffffff16856040518463ffffffff167c0100000000000000000000000000000000000000000000000000000000028152600401808473ffffffffffffffffffffffffffffffffffffffff1673ffffffffffffffffffffffffffffffffffffffff1681526020018373ffffffffffffffffffffffffffffffffffffffff1673ffffffffffffffffffffffffffffffffffffffff1681526020018281526020019350505050602060405180830381600087803b1580156110e757600080fd5b505af11580156110fb573d6000803e3d6000fd5b505050506040513d602081101561111157600080fd5b8101908080519060200190929190505050151561112d57600080fd5b600260009054906101000a900473ffffffffffffffffffffffffffffffffffffffff1673ffffffffffffffffffffffffffffffffffffffff1663a9059cbb600960009054906101000a900473ffffffffffffffffffffffffffffffffffffffff16846040518363ffffffff167c0100000000000000000000000000000000000000000000000000000000028152600401808373ffffffffffffffffffffffffffffffffffffffff1673ffffffffffffffffffffffffffffffffffffffff16815260200182815260200192505050602060405180830381600087803b15801561121457600080fd5b505af1158015611228573d6000803e3d6000fd5b505050506040513d602081101561123e57600080fd5b8101908080519060200190929190505050151561125a57600080fd5b5b600260009054906101000a900473ffffffffffffffffffffffffffffffffffffffff1673ffffffffffffffffffffffffffffffffffffffff16639d2e477733878a6040518463ffffffff167c0100000000000000000000000000000000000000000000000000000000028152600401808473ffffffffffffffffffffffffffffffffffffffff1673ffffffffffffffffffffffffffffffffffffffff1681526020018381526020018263ffffffff1663ffffffff1681526020019350505050602060405180830381600087803b15801561133457600080fd5b505af1158015611348573d6000803e3d6000fd5b505050506040513d602081101561135e57600080fd5b8101908080519060200190929190505050151561137a57600080fd5b60008311156113cb573373ffffffffffffffffffffffffffffffffffffffff166108fc849081150290604051600060405180830381858888f193505050501580156113c9573d6000803e3d6000fd5b505b6000600654111561145457600860009054906101000a900473ffffffffffffffffffffffffffffffffffffffff1673ffffffffffffffffffffffffffffffffffffffff166108fc61142760065487613ccb90919063ffffffff16565b9081150290604051600060405180830381858888f19350505050158015611452573d6000803e3d6000fd5b505b600a60009054906101000a900473ffffffffffffffffffffffffffffffffffffffff1673ffffffffffffffffffffffffffffffffffffffff1663958799cb3073ffffffffffffffffffffffffffffffffffffffff1631620186a09033896040518563ffffffff167c0100000000000000000000000000000000000000000000000000000000028152600401808373ffffffffffffffffffffffffffffffffffffffff1673ffffffffffffffffffffffffffffffffffffffff168152602001828152602001925050506000604051808303818589803b15801561153557600080fd5b5088f1158015611549573d6000803e3d6000fd5b5050505050503373ffffffffffffffffffffffffffffffffffffffff167f347f5f0051b895093800553e6e78ef332849e2552639a4f5ffe66535788ae07885878660405180848152602001838152602001828152602001935050505060405180910390a2600154811415156115bd57600080fd5b505050505050505050565b60008060006060806000809054906101000a900473ffffffffffffffffffffffffffffffffffffffff1673ffffffffffffffffffffffffffffffffffffffff163373ffffffffffffffffffffffffffffffffffffffff1614151561162b57600080fd5b6000600b80549050111561167f5742600b600081548110151561164a57fe5b906000526020600020906003020160000160009054906101000a900463ffffffff1663ffffffff1611151561167e57600080fd5b5b7fffffffffffffffffffffffffffffffffffffffffffffffffffffffffffffffff60ff168d8d9050111515156116b457600080fd5b60038d8d9050101515156116c757600080fd5b600060038e8e90508115156116d857fe5b061415156116e557600080fd5b8888905061170060028d8d9050613d1090919063ffffffff16565b14151561170c57600080fd5b8c8c905061172760038d8d9050613d1090919063ffffffff16565b14151561173357600080fd5b60028b8b905002878790501015151561174b57600080fd5b6000600b805490501115611856578c8c6000818110151561176857fe5b9050602002013563ffffffff1663ffffffff16600b6001600b805490500381548110151561179257fe5b906000526020600020906003020160000160049054906101000a900463ffffffff1663ffffffff16101515611855576040517f08c379a000000000000000000000000000000000000000000000000000000000815260040180806020018281038252603f8152602001807f4669727374206d696c6573746f6e6520656e6444617465206d7573742062652081526020017f67726561746572207468616e206c61737420737461676520656e64446174650081525060400191505060405180910390fd5b5b6000945060009350600c600061186c9190613fb1565b600d600061187a9190613fd5565b600092505b8c8c905060ff168360ff161015611e2557428d8d8560ff1681811015156118a257fe5b9050602002013563ffffffff1663ffffffff161115156118c157600080fd5b8c8c8460ff1681811015156118d257fe5b9050602002013563ffffffff1663ffffffff168d8d6001860160ff1681811015156118f957fe5b9050602002013563ffffffff1663ffffffff1611151561191857600080fd5b8c8c6001850160ff16818110151561192c57fe5b9050602002013563ffffffff1663ffffffff168d8d6002860160ff16818110151561195357fe5b9050602002013563ffffffff1663ffffffff1611151561197257600080fd5b60008360ff161115611a65578c8c8460ff16818110151561198f57fe5b9050602002013563ffffffff1663ffffffff168d8d6001860360ff1681811015156119b657fe5b9050602002013563ffffffff1663ffffffff16101515611a64576040517f08c379a00000000000000000000000000000000000000000000000000000000081526004018080602001828103825260298152602001807f4d696c6573746f6e65206461746573206973206e6f7420696e20617363656e6481526020017f696e67206f72646572000000000000000000000000000000000000000000000081525060400191505060405180910390fd5b5b611ae1858a8a600260038860ff16811515611a7c57fe5b040260ff168181101515611a8c57fe5b9050602002013563ffffffff1663ffffffff1689898080601f016020809104026020016040519081016040528093929190818152602001838380828437820191505050505050613d4e9092919063ffffffff16565b9150611b998989600260038760ff16811515611af957fe5b040260ff168181101515611b0957fe5b9050602002013563ffffffff1663ffffffff1686018a8a6001600260038960ff16811515611b3357fe5b04020160ff168181101515611b4457fe5b9050602002013563ffffffff1663ffffffff1689898080601f016020809104026020016040519081016040528093929190818152602001838380828437820191505050505050613d4e9092919063ffffffff16565b905060008251111515611bab57600080fd5b60008151111515611bbb57600080fd5b600c60c0604051908101604052808f8f8760ff168181101515611bda57fe5b9050602002013563ffffffff1663ffffffff1681526020018d8d60038860ff16811515611c0357fe5b0460ff168181101515611c1257fe5b9050602002013560ff1660ff1681526020018f8f6001880160ff168181101515611c3857fe5b9050602002013563ffffffff1663ffffffff1681526020018f8f6002880160ff168181101515611c6457fe5b9050602002013563ffffffff1663ffffffff168152602001848152602001838152509080600181540180825580915050906001820390600052602060002090600302016000909192909190915060008201518160000160006101000a81548163ffffffff021916908363ffffffff16021790555060208201518160000160046101000a81548160ff021916908360ff16021790555060408201518160000160056101000a81548163ffffffff021916908363ffffffff16021790555060608201518160000160096101000a81548163ffffffff021916908363ffffffff1602179055506080820151816001019080519060200190611d63929190613ffd565b5060a0820151816002019080519060200190611d80929190613ffd565b505050508888600160038660ff16811515611d9757fe5b040160ff168181101515611da757fe5b9050602002013563ffffffff16898960038660ff16811515611dc557fe5b0460ff168181101515611dd457fe5b9050602002013563ffffffff160163ffffffff16850194508a8a60038560ff16811515611dfd57fe5b0460ff168181101515611e0c57fe5b9050602002013560ff168401935060038301925061187f565b8c8c600d9190611e3692919061407d565b5060648460ff16141515611e4957600080fd5b7f56d9a2e016027a3725bf162ef2779c8b28d4dbec97c679cfba02dbb31a34c7ca60405160405180910390a150505050505050505050505050565b6060600b82815481101515611e9557fe5b9060005260206000209060030201600201805480602002602001604051908101604052809291908181526020018280548015611f1657602002820191906000526020600020906000905b82829054906101000a900460ff1660ff1681526020019060010190602082600001049283019260010382029150808411611edf5790505b50505050509050919050565b600360009054906101000a900473ffffffffffffffffffffffffffffffffffffffff1681565b6000806000600c8054905090506000811480611f695750611f6761353d565b155b15611f7357611f7e565b600191506001810392505b509091565b6000806000806000611f936136aa565b93509350821515611fa7576000945061204c565b600b84815481101515611fb657fe5b90600052602060002090600302019150600090505b816001018054905081101561204b578160010181815481101515611feb57fe5b90600052602060002001548610151561203957816002018181548110151561200f57fe5b90600052602060002090602091828204019190069054906101000a900460ff1660ff16945061203e565b61204b565b8080600101915050611fcb565b5b50505050919050565b600080600080606080600c8781548110151561206d57fe5b906000526020600020906003020160000160009054906101000a900463ffffffff16600c8881548110151561209e57fe5b906000526020600020906003020160000160049054906101000a900460ff16600c898154811015156120cc57fe5b906000526020600020906003020160000160059054906101000a900463ffffffff16600c8a8154811015156120fd57fe5b906000526020600020906003020160000160099054906101000a900463ffffffff16600c8b81548110151561212e57fe5b9060005260206000209060030201600101600c8c81548110151561214e57fe5b9060005260206000209060030201600201818054600181600116156101000203166002900480601f0160208091040260200160405190810160405280929190818152602001828054600181600116156101000203166002900480156121f45780601f106121c9576101008083540402835291602001916121f4565b820191906000526020600020905b8154815290600101906020018083116121d757829003601f168201915b50505050509150808054600181600116156101000203166002900480601f0160208091040260200160405190810160405280929190818152602001828054600181600116156101000203166002900480156122905780601f1061226557610100808354040283529160200191612290565b820191906000526020600020905b81548152906001019060200180831161227357829003601f168201915b5050505050905095509550955095509550955091939550919395565b6000806000809054906101000a900473ffffffffffffffffffffffffffffffffffffffff1673ffffffffffffffffffffffffffffffffffffffff163373ffffffffffffffffffffffffffffffffffffffff1614151561230a57600080fd5b6000600b80549050111561235e5742600b600081548110151561232957fe5b906000526020600020906003020160000160009054906101000a900463ffffffff1663ffffffff1611151561235d57600080fd5b5b7fffffffffffffffffffffffffffffffffffffffffffffffffffffffffffffffff60ff16888890501115151561239357600080fd5b6000888890501115156123a557600080fd5b85859050888890501415156123b957600080fd5b83839050888890501415156123cd57600080fd5b6000600c8054905011156124e857878760018a8a90500381811015156123ef57fe5b905060400201600160028110151561240357fe5b602002013563ffffffff1663ffffffff16600c600081548110151561242457fe5b906000526020600020906003020160000160009054906101000a900463ffffffff1663ffffffff161115156124e7576040517f08c379a000000000000000000000000000000000000000000000000000000000815260040180806020018281038252603c8152602001807f4c61737420737461676520656e6444617465206d757374206265206c6573732081526020017f7468616e206669727374206d696c6573746f6e6520656e64446174650000000081525060400191505060405180910390fd5b5b878790509150600b60006124fc9190614133565b600090505b8160ff168160ff161015612a9b57600086868360ff16818110151561252257fe5b9050602002013560ff1660ff161015801561255a5750606486868360ff16818110151561254b57fe5b9050602002013560ff1660ff16105b15156125f4576040517f08c379a000000000000000000000000000000000000000000000000000000000815260040180806020018281038252602f8152602001807f537461676520646973636f756e74206973206e6f7420696e20616c6c6f77656481526020017f2072616e6765205b302c2031303029000000000000000000000000000000000081525060400191505060405180910390fd5b4288888360ff16818110151561260657fe5b905060400201600060028110151561261a57fe5b602002013563ffffffff1663ffffffff1611151561263757600080fd5b87878260ff16818110151561264857fe5b905060400201600160028110151561265c57fe5b602002013563ffffffff1663ffffffff1688888360ff16818110151561267e57fe5b905060400201600060028110151561269257fe5b602002013563ffffffff1663ffffffff1610151561273e576040517f08c379a00000000000000000000000000000000000000000000000000000000081526004018080602001828103825260248152602001807f53746167652073746172742064617465206d75737420626520677420656e642081526020017f646174650000000000000000000000000000000000000000000000000000000081525060400191505060405180910390fd5b60008160ff1611156128565787878260ff16818110151561275b57fe5b905060400201600060028110151561276f57fe5b602002013563ffffffff1663ffffffff1688886001840360ff16818110151561279457fe5b90506040020160016002811015156127a857fe5b602002013563ffffffff1663ffffffff1611151515612855576040517f08c379a00000000000000000000000000000000000000000000000000000000081526004018080602001828103825260228152602001807f53746167657320617265206e6f7420696e20686973746f726963616c206f726481526020017f657200000000000000000000000000000000000000000000000000000000000081525060400191505060405180910390fd5b5b600b60c0604051908101604052808a8a8560ff16818110151561287557fe5b905060400201600060028110151561288957fe5b602002013563ffffffff1663ffffffff1681526020018a8a8560ff1681811015156128b057fe5b90506040020160016002811015156128c457fe5b602002013563ffffffff1663ffffffff16815260200188888560ff1681811015156128eb57fe5b9050602002013560ff1660ff16815260200186868560ff16818110151561290e57fe5b9050602002013563ffffffff1663ffffffff16815260200160006040519080825280602002602001820160405280156129565781602001602082028038833980820191505090505b508152602001600060405190808252806020026020018201604052801561298c5781602001602082028038833980820191505090505b508152509080600181540180825580915050906001820390600052602060002090600302016000909192909190915060008201518160000160006101000a81548163ffffffff021916908363ffffffff16021790555060208201518160000160046101000a81548163ffffffff021916908363ffffffff16021790555060408201518160000160086101000a81548160ff021916908360ff16021790555060608201518160000160096101000a81548163ffffffff021916908363ffffffff1602179055506080820151816001019080519060200190612a6d929190614157565b5060a0820151816002019080519060200190612a8a9291906141a4565b505050508080600101915050612501565b7f743961f4e677d1146fbf85d75565b1c5474fd083eb166f8b9595cf5d01a4d6e660405160405180910390a15050505050505050565b600080600080606080600b87815481101515612ae957fe5b906000526020600020906003020160000160009054906101000a900463ffffffff16600b88815481101515612b1a57fe5b906000526020600020906003020160000160049054906101000a900463ffffffff16600b89815481101515612b4b57fe5b906000526020600020906003020160000160089054906101000a900460ff16600b8a815481101515612b7957fe5b906000526020600020906003020160000160099054906101000a900463ffffffff16600b8b815481101515612baa57fe5b9060005260206000209060030201600101600b8c815481101515612bca57fe5b906000526020600020906003020160020181805480602002602001604051908101604052809291908181526020018280548015612c2657602002820191906000526020600020905b815481526020019060010190808311612c12575b5050505050915080805480602002602001604051908101604052809291908181526020018280548015612c9e57602002820191906000526020600020906000905b82829054906101000a900460ff1660ff1681526020019060010190602082600001049283019260010382029150808411612c675790505b5050505050905095509550955095509550955091939550919395565b60075481565b60008060009054906101000a900473ffffffffffffffffffffffffffffffffffffffff1673ffffffffffffffffffffffffffffffffffffffff163373ffffffffffffffffffffffffffffffffffffffff16141515612d1d57600080fd5b612d2561353d565b1515612d3057600080fd5b600260009054906101000a900473ffffffffffffffffffffffffffffffffffffffff1673ffffffffffffffffffffffffffffffffffffffff166370a08231306040518263ffffffff167c0100000000000000000000000000000000000000000000000000000000028152600401808273ffffffffffffffffffffffffffffffffffffffff1673ffffffffffffffffffffffffffffffffffffffff168152602001915050602060405180830381600087803b158015612ded57600080fd5b505af1158015612e01573d6000803e3d6000fd5b505050506040513d6020811015612e1757600080fd5b81019080805190602001909291905050509050600260009054906101000a900473ffffffffffffffffffffffffffffffffffffffff1673ffffffffffffffffffffffffffffffffffffffff1663a9059cbb6000809054906101000a900473ffffffffffffffffffffffffffffffffffffffff16836040518363ffffffff167c0100000000000000000000000000000000000000000000000000000000028152600401808373ffffffffffffffffffffffffffffffffffffffff1673ffffffffffffffffffffffffffffffffffffffff16815260200182815260200192505050602060405180830381600087803b158015612f1057600080fd5b505af1158015612f24573d6000803e3d6000fd5b505050506040513d6020811015612f3a57600080fd5b81019080805190602001909291905050501515612f5657600080fd5b6000809054906101000a900473ffffffffffffffffffffffffffffffffffffffff1673ffffffffffffffffffffffffffffffffffffffff167f26ffb867a6b19bc0240d4e732ed6cfb0f0b6d93143a99cfb24ba5873308861f8826040518082815260200191505060405180910390a250565b6000600c80549050905090565b6000600260009054906101000a900473ffffffffffffffffffffffffffffffffffffffff16905090565b60008060009054906101000a900473ffffffffffffffffffffffffffffffffffffffff1673ffffffffffffffffffffffffffffffffffffffff163373ffffffffffffffffffffffffffffffffffffffff1614151561305c57600080fd5b6000600b8054905011156130b05742600b600081548110151561307b57fe5b906000526020600020906003020160000160009054906101000a900463ffffffff1663ffffffff161115156130af57600080fd5b5b82829050858590501415156130c457600080fd5b600b80549050861015156130d757600080fd5b600090505b848490508110156131c65760008111156131b95784848281811015156130fe57fe5b90506020020135858560018403818110151561311657fe5b905060200201351015156131b8576040517f08c379a000000000000000000000000000000000000000000000000000000000815260040180806020018281038252602c8152602001807f566f6c756d6520626f756e646172696573206d75737420626520696e2061736381526020017f656e64696e67206f72646572000000000000000000000000000000000000000081525060400191505060405180910390fd5b5b80806001019150506130dc565b600b868154811015156131d557fe5b906000526020600020906003020160010160006131f2919061424b565b600b8681548110151561320157fe5b9060005260206000209060030201600201600061321e919061426c565b8484600b8881548110151561322f57fe5b9060005260206000209060030201600101919061324d929190614294565b508282600b8881548110151561325f57fe5b9060005260206000209060030201600201919061327d9291906142e1565b507f34cf54504fd39ab670a54acbb37f686c5bd25e6eedfa39889cba899d360bc7d9866040518082815260200191505060405180910390a1505050505050565b600860009054906101000a900473ffffffffffffffffffffffffffffffffffffffff1681565b6000806132ee6136aa565b9150508091505090565b6000809054906101000a900473ffffffffffffffffffffffffffffffffffffffff1673ffffffffffffffffffffffffffffffffffffffff163373ffffffffffffffffffffffffffffffffffffffff1614151561335357600080fd5b6000809054906101000a900473ffffffffffffffffffffffffffffffffffffffff1673ffffffffffffffffffffffffffffffffffffffff167ff8df31144d9c2f0f6b59d69b8b98abd5459d07f2742c4df920b25aae33c6482060405160405180910390a260008060006101000a81548173ffffffffffffffffffffffffffffffffffffffff021916908373ffffffffffffffffffffffffffffffffffffffff160217905550565b600d8181548110151561340957fe5b9060005260206000209060089182820401919006600402915054906101000a900463ffffffff1681565b6000600b80549050905090565b600960009054906101000a900473ffffffffffffffffffffffffffffffffffffffff1681565b600b8181548110151561347557fe5b90600052602060002090600302016000915090508060000160009054906101000a900463ffffffff16908060000160049054906101000a900463ffffffff16908060000160089054906101000a900460ff16908060000160099054906101000a900463ffffffff16905084565b60065481565b6000809054906101000a900473ffffffffffffffffffffffffffffffffffffffff1681565b6000600a60009054906101000a900473ffffffffffffffffffffffffffffffffffffffff16905090565b60055481565b600080600b80549050148061358f575042600b6001600b805490500381548110151561356557fe5b906000526020600020906003020160000160049054906101000a900463ffffffff1663ffffffff16105b905090565b600080600b805490501115156135a957600080fd5b600b6001600b80549050038154811015156135c057fe5b906000526020600020906003020160000160049054906101000a900463ffffffff16905090565b600a60009054906101000a900473ffffffffffffffffffffffffffffffffffffffff1681565b6000806000600c805490509050600081148061362e575061362c61353d565b155b15613638576136a5565b600191505b60018103831080156136925750600d6001600360018601020381548110151561366257fe5b90600052602060002090600891828204019190066004029054906101000a900463ffffffff1663ffffffff164210155b156136a457828060010193505061363d565b5b509091565b600080600080600091505b600b8054905082101561374257600b828154811015156136d157fe5b90600052602060002090600302019050428160000160009054906101000a900463ffffffff1663ffffffff16111580156137245750428160000160049054906101000a900463ffffffff1663ffffffff16115b15613735578160019350935061374d565b81806001019250506136b5565b600080819150935093505b50509091565b600c8181548110151561376257fe5b90600052602060002090600302016000915090508060000160009054906101000a900463ffffffff16908060000160049054906101000a900460ff16908060000160059054906101000a900463ffffffff16908060000160099054906101000a900463ffffffff1690806001018054600181600116156101000203166002900480601f0160208091040260200160405190810160405280929190818152602001828054600181600116156101000203166002900480156138635780601f1061383857610100808354040283529160200191613863565b820191906000526020600020905b81548152906001019060200180831161384657829003601f168201915b505050505090806002018054600181600116156101000203166002900480601f0160208091040260200160405190810160405280929190818152602001828054600181600116156101000203166002900480156139015780601f106138d657610100808354040283529160200191613901565b820191906000526020600020905b8154815290600101906020018083116138e457829003601f168201915b5050505050905086565b6000809054906101000a900473ffffffffffffffffffffffffffffffffffffffff1673ffffffffffffffffffffffffffffffffffffffff163373ffffffffffffffffffffffffffffffffffffffff1614151561396657600080fd5b6000600b8054905011156139ba5742600b600081548110151561398557fe5b906000526020600020906003020160000160009054906101000a900463ffffffff1663ffffffff161115156139b957600080fd5b5b6139e681600860009054906101000a900473ffffffffffffffffffffffffffffffffffffffff16613ddb565b50565b6060600b828154811015156139fa57fe5b9060005260206000209060030201600101805480602002602001604051908101604052809291908181526020018280548015613a5557602002820191906000526020600020905b815481526020019060010190808311613a41575b50505050509050919050565b6000809054906101000a900473ffffffffffffffffffffffffffffffffffffffff1673ffffffffffffffffffffffffffffffffffffffff163373ffffffffffffffffffffffffffffffffffffffff16141515613abc57600080fd5b613ac581613e72565b50565b600260009054906101000a900473ffffffffffffffffffffffffffffffffffffffff1681565b6000806000806000879350600260009054906101000a900473ffffffffffffffffffffffffffffffffffffffff1673ffffffffffffffffffffffffffffffffffffffff166370a08231306040518263ffffffff167c0100000000000000000000000000000000000000000000000000000000028152600401808273ffffffffffffffffffffffffffffffffffffffff1673ffffffffffffffffffffffffffffffffffffffff168152602001915050602060405180830381600087803b158015613bb657600080fd5b505af1158015613bca573d6000803e3d6000fd5b505050506040513d6020811015613be057600080fd5b81019080805190602001909291905050509050600454600a0a8110151515613c0757600080fd5b60008711613c1757600554613c43565b613c426064613c3489606403600554613d1090919063ffffffff16565b613f6c90919063ffffffff16565b5b9150613c87600260045403600a0a613c7984613c6b8a6064018d613d1090919063ffffffff16565b613f6c90919063ffffffff16565b613d1090919063ffffffff16565b945084811015613cc157613cb685613ca8838b613d1090919063ffffffff16565b613f6c90919063ffffffff16565b935083880392508094505b5093509350935093565b6000613cd682613f96565b1515613ce157600080fd5b613d08612710613cfa8486613d1090919063ffffffff16565b613f6c90919063ffffffff16565b905092915050565b6000806000841415613d255760009150613d47565b8284029050828482811515613d3657fe5b04141515613d4357600080fd5b8091505b5092915050565b606080828401855110151515613d6357600080fd5b821560008114613d7e57604051915060208201604052613dcf565b6040519150601f8416801560200281840101858101878315602002848b0101015b81831015613dbc5780518352602083019250602081019050613d9f565b50868552601f19601f8301166040525050505b50809150509392505050565b600082111515613dea57600080fd5b600073ffffffffffffffffffffffffffffffffffffffff168173ffffffffffffffffffffffffffffffffffffffff1614151515613e2657600080fd5b8160058190555080600860006101000a81548173ffffffffffffffffffffffffffffffffffffffff021916908373ffffffffffffffffffffffffffffffffffffffff1602179055505050565b600073ffffffffffffffffffffffffffffffffffffffff168173ffffffffffffffffffffffffffffffffffffffff1614151515613eae57600080fd5b8073ffffffffffffffffffffffffffffffffffffffff166000809054906101000a900473ffffffffffffffffffffffffffffffffffffffff1673ffffffffffffffffffffffffffffffffffffffff167f8be0079c531659141344cd1fd0a4f28419497f9722a3daafe3b4186f6b6457e060405160405180910390a3806000806101000a81548173ffffffffffffffffffffffffffffffffffffffff021916908373ffffffffffffffffffffffffffffffffffffffff16021790555050565b600080600083111515613f7e57600080fd5b8284811515613f8957fe5b0490508091505092915050565b6000808210158015613faa57506127108211155b9050919050565b5080546000825560030290600052602060002090810190613fd2919061438b565b50565b508054600082556007016008900490600052602060002090810190613ffa9190614423565b50565b828054600181600116156101000203166002900490600052602060002090601f016020900481019282601f1061403e57805160ff191683800117855561406c565b8280016001018555821561406c579182015b8281111561406b578251825591602001919060010190614050565b5b5090506140799190614423565b5090565b828054828255906000526020600020906007016008900481019282156141225791602002820160005b838211156140f057833563ffffffff1683826101000a81548163ffffffff021916908363ffffffff16021790555092602001926004016020816003010492830192600103026140a6565b80156141205782816101000a81549063ffffffff02191690556004016020816003010492830192600103026140f0565b505b50905061412f9190614448565b5090565b5080546000825560030290600052602060002090810190614154919061447b565b50565b828054828255906000526020600020908101928215614193579160200282015b82811115614192578251825591602001919060010190614177565b5b5090506141a09190614423565b5090565b82805482825590600052602060002090601f0160209004810192821561423a5791602002820160005b8382111561420b57835183826101000a81548160ff021916908360ff16021790555092602001926001016020816000010492830192600103026141cd565b80156142385782816101000a81549060ff021916905560010160208160000104928301926001030261420b565b505b5090506142479190614513565b5090565b50805460008255906000526020600020908101906142699190614423565b50565b50805460008255601f0160209004906000526020600020908101906142919190614423565b50565b8280548282559060005260206000209081019282156142d0579160200282015b828111156142cf5782358255916020019190600101906142b4565b5b5090506142dd9190614423565b5090565b82805482825590600052602060002090601f0160209004810192821561437a5791602002820160005b8382111561434b57833560ff1683826101000a81548160ff021916908360ff160217905550926020019260010160208160000104928301926001030261430a565b80156143785782816101000a81549060ff021916905560010160208160000104928301926001030261434b565b505b5090506143879190614513565b5090565b61442091905b8082111561441c57600080820160006101000a81549063ffffffff02191690556000820160046101000a81549060ff02191690556000820160056101000a81549063ffffffff02191690556000820160096101000a81549063ffffffff02191690556001820160006144039190614543565b6002820160006144139190614543565b50600301614391565b5090565b90565b61444591905b80821115614441576000816000905550600101614429565b5090565b90565b61447891905b8082111561447457600081816101000a81549063ffffffff02191690555060010161444e565b5090565b90565b61451091905b8082111561450c57600080820160006101000a81549063ffffffff02191690556000820160046101000a81549063ffffffff02191690556000820160086101000a81549060ff02191690556000820160096101000a81549063ffffffff02191690556001820160006144f3919061424b565b600282016000614503919061426c565b50600301614481565b5090565b90565b61454091905b8082111561453c57600081816101000a81549060ff021916905550600101614519565b5090565b90565b50805460018160011615610100020316600290046000825580601f106145695750614588565b601f0160209004906000526020600020908101906145879190614423565b5b50565b600061459682613f96565b15156145a157600080fd5b6145b5606483613f6c90919063ffffffff16565b90509190505600a165627a7a7230582059e28808fa05fbeaaf7c386dcfffebe72ec8484556e41e7deed4bba099222b550029",
  "source": "pragma solidity ^0.4.24;\n\nimport \"../openzeppelin-solidity/contracts/ownership/Ownable.sol\";\nimport \"../openzeppelin-solidity/contracts/ReentrancyGuard.sol\";\nimport \"../openzeppelin-solidity/contracts/math/SafeMath.sol\";\nimport \"../solidity-bytes-utils/contracts/BytesLib.sol\";\nimport \"./interfaces/IW12Crowdsale.sol\";\nimport \"../openzeppelin-solidity/contracts/token/ERC20/ERC20.sol\";\nimport \"./interfaces/IW12Fund.sol\";\nimport \"./libs/Percent.sol\";\n\n\ncontract W12Crowdsale is IW12Crowdsale, Ownable, ReentrancyGuard {\n    using SafeMath for uint;\n    using Percent for uint;\n    using BytesLib for bytes;\n\n    struct Stage {\n        uint32 startDate;\n        uint32 endDate;\n        uint8 discount;\n        uint32 vesting;\n        uint[] volumeBoundaries;\n        uint8[] volumeBonuses;\n    }\n\n    struct Milestone {\n        uint32 endDate;\n        uint8  tranchePercent;\n        uint32 voteEndDate;\n        uint32 withdrawalWindow;\n        bytes name;\n        bytes description;\n    }\n\n    WToken public token;\n    ERC20 public originToken;\n    uint tokenDecimals;\n    uint public price;\n    uint public serviceFee;\n    uint public WTokenSaleFeePercent;\n    address public serviceWallet;\n    address public swap;\n    IW12Fund public fund;\n\n    Stage[] public stages;\n    Milestone[] public milestones;\n    uint32[] public milestoneDates;\n\n    event TokenPurchase(address indexed buyer, uint amountPaid, uint tokensBought, uint change);\n    event StagesUpdated();\n    event StageUpdated(uint index);\n    event MilestonesUpdated();\n    event UnsoldTokenReturned(address indexed owner, uint amount);\n\n    event debug(uint value);\n\n    constructor (\n        address _originToken,\n        address _token,\n        uint _tokenDecimals,\n        uint _price,\n        address _serviceWallet,\n        address _swap,\n        uint _serviceFee,\n        uint _WTokenSaleFeePercent,\n        IW12Fund _fund\n    )\n        public\n    {\n        require(_token != address(0));\n        require(_serviceFee.isPercent() && _serviceFee.fromPercent() < 100);\n        require(_WTokenSaleFeePercent.isPercent() && _WTokenSaleFeePercent.fromPercent() < 100);\n        require(_fund != address(0));\n        require(_swap != address(0));\n\n        token = WToken(_token);\n        originToken = ERC20(_originToken);\n        tokenDecimals = _tokenDecimals;\n\n        __setParameters(_price, _serviceWallet);\n        serviceFee = _serviceFee;\n        swap = _swap;\n        WTokenSaleFeePercent = _WTokenSaleFeePercent;\n        fund = _fund;\n    }\n\n    function stagesLength() external view returns (uint) {\n        return stages.length;\n    }\n\n    function milestonesLength() external view returns (uint) {\n        return milestones.length;\n    }\n\n    function getMilestone(uint index) public view returns (uint32, uint8, uint32, uint32, bytes, bytes) {\n        return (\n            milestones[index].endDate,\n            milestones[index].tranchePercent,\n            milestones[index].voteEndDate,\n            milestones[index].withdrawalWindow,\n            milestones[index].name,\n            milestones[index].description\n        );\n    }\n\n    function getStage(uint index) public view returns (uint32, uint32, uint8, uint32, uint[], uint8[]) {\n        return (\n            stages[index].startDate,\n            stages[index].endDate,\n            stages[index].discount,\n            stages[index].vesting,\n            stages[index].volumeBoundaries,\n            stages[index].volumeBonuses\n        );\n    }\n\n    function getStageVolumeBoundaries(uint stageNumber) external view returns (uint[]) {\n        return stages[stageNumber].volumeBoundaries;\n    }\n\n    function getStageVolumeBonuses(uint stageNumber) external view returns (uint8[]) {\n        return stages[stageNumber].volumeBonuses;\n    }\n\n    function getEndDate() external view returns (uint32) {\n        require(stages.length > 0);\n\n        return stages[stages.length - 1].endDate;\n    }\n\n    // returns last milestone index if completely ended or active milestone at now\n    function getCurrentMilestoneIndex() public view returns (uint index, bool found) {\n        uint milestonesCount = milestones.length;\n\n        if(milestonesCount == 0 || !isEnded()) return;\n\n        found = true;\n\n        // from withdrawalWindow begins next milestone\n        while(index < milestonesCount - 1 && now >= milestoneDates[(index + 1) * 3 - 1])\n            index++;\n    }\n\n    function getLastMilestoneIndex() public view returns (uint index, bool found) {\n        uint milestonesCount = milestones.length;\n\n        if (milestonesCount == 0 || !isEnded()) return;\n\n        found = true;\n        index = milestonesCount - 1;\n    }\n\n    function __setParameters(uint _price, address _serviceWallet) internal {\n        require(_price > 0);\n        require(_serviceWallet != address(0));\n\n        price = _price;\n        serviceWallet = _serviceWallet;\n    }\n\n    function setParameters(uint _price) external onlyOwner beforeSaleStart {\n        __setParameters(_price, serviceWallet);\n    }\n\n    function setStages(uint32[2][] dates, uint8[] stage_discounts, uint32[] stage_vestings) external onlyOwner beforeSaleStart {\n        require(dates.length <= uint8(-1));\n        require(dates.length > 0);\n        require(dates.length == stage_discounts.length);\n        require(dates.length == stage_vestings.length);\n\n        if (milestones.length > 0) {\n            require(milestones[0].endDate > dates[dates.length - 1][1], \"Last stage endDate must be less than first milestone endDate\");\n        }\n\n        uint8 stagesCount = uint8(dates.length);\n\n        delete stages;\n\n        for(uint8 i = 0; i < stagesCount; i++) {\n            require(stage_discounts[i] >= 0 && stage_discounts[i] < 100, \"Stage discount is not in allowed range [0, 100)\");\n            require(dates[i][0] > now);\n            require(dates[i][0] < dates[i][1], \"Stage start date must be gt end date\");\n\n            if (i > 0) {\n                require(dates[i - 1][1] <= dates[i][0], \"Stages are not in historical order\");\n            }\n\n            stages.push(Stage({\n                startDate: dates[i][0],\n                endDate: dates[i][1],\n                discount: stage_discounts[i],\n                vesting: stage_vestings[i],\n                volumeBoundaries: new uint[](0),\n                volumeBonuses: new uint8[](0)\n            }));\n        }\n\n        emit StagesUpdated();\n    }\n\n    function setStageVolumeBonuses(uint stage, uint[] volumeBoundaries, uint8[] volumeBonuses) external onlyOwner beforeSaleStart {\n        require(volumeBoundaries.length == volumeBonuses.length);\n        require(stage < stages.length);\n\n        for(uint i = 0; i < volumeBoundaries.length; i++) {\n            if (i > 0) {\n                require(volumeBoundaries[i - 1] < volumeBoundaries[i], \"Volume boundaries must be in ascending order\");\n            }\n        }\n\n        delete stages[stage].volumeBoundaries;\n        delete stages[stage].volumeBonuses;\n\n        stages[stage].volumeBoundaries = volumeBoundaries;\n        stages[stage].volumeBonuses = volumeBonuses;\n\n        emit StageUpdated(stage);\n    }\n\n    function setMilestones(uint32[] dates, uint8[] tranchePercents, uint32[] offsets, bytes namesAndDescriptions) external onlyOwner beforeSaleStart {\n        require(dates.length <= uint8(-1));\n        require(dates.length >= 3);\n        require(dates.length % 3 == 0);\n        require(tranchePercents.length.mul(2) == offsets.length);\n        require(tranchePercents.length.mul(3) == dates.length);\n        require(namesAndDescriptions.length >= tranchePercents.length * 2);\n\n        if (stages.length > 0) {\n            require(stages[stages.length - 1].endDate < dates[0], \"First milestone endDate must be greater than last stage endDate\");\n        }\n\n        uint offset = 0;\n        uint8 totalPercents = 0;\n\n        delete milestones;\n        delete milestoneDates;\n\n        for(uint8 i = 0; i < uint8(dates.length); i += 3) {\n            require(dates[i] > now);\n            require(dates[i + 1] > dates[i]);\n            require(dates[i + 2] > dates[i + 1]);\n\n            if (i > 0) {\n                require(dates[i - 1] < dates[i], \"Milestone dates is not in ascending order\");\n            }\n\n            bytes memory name = namesAndDescriptions.slice(offset, offsets[i / 3 * 2]);\n            bytes memory description = namesAndDescriptions.slice(offset + offsets[i / 3 * 2], offsets[i / 3 * 2 + 1]);\n\n            require(name.length > 0);\n            require(description.length > 0);\n\n            milestones.push(Milestone({\n                endDate: dates[i],\n                tranchePercent: tranchePercents[i / 3],\n                voteEndDate: dates[i + 1],\n                withdrawalWindow: dates[i + 2],\n                name: name,\n                description: description\n            }));\n\n            offset += offsets[i / 3] + offsets[i / 3 + 1];\n            totalPercents += tranchePercents[i / 3];\n        }\n\n        milestoneDates = dates;\n        require(totalPercents == 100);\n\n        emit MilestonesUpdated();\n    }\n\n    function buyTokens() payable public nonReentrant onlyWhenSaleActive {\n        require(msg.value > 0);\n\n        (uint index, ) = getCurrentStageIndex();\n\n        uint discount = stages[index].discount;\n        uint32 vesting = stages[index].vesting;\n        uint volumeBonus = getSaleVolumeBonus(msg.value);\n\n        (uint tokenAmount, uint weiCost, uint change, ) = _purchaseOrder(msg.value, discount, volumeBonus);\n\n        if (WTokenSaleFeePercent > 0) {\n            uint tokensFee = tokenAmount.percent(WTokenSaleFeePercent);\n\n            require(originToken.transferFrom(swap, serviceWallet, tokensFee));\n            require(token.transfer(swap, tokensFee));\n        }\n\n        require(token.vestingTransfer(msg.sender, tokenAmount, vesting));\n\n        if (change > 0) {\n            msg.sender.transfer(change);\n        }\n\n        if(serviceFee > 0)\n            serviceWallet.transfer(weiCost.percent(serviceFee));\n\n        fund.recordPurchase.value(address(this).balance).gas(100000)(msg.sender, tokenAmount);\n\n        emit TokenPurchase(msg.sender, weiCost, tokenAmount, change);\n    }\n\n    function _purchaseOrder(uint _wei, uint discount, uint volumeBonus)\n        internal view returns (uint tokens, uint weiCost, uint change, uint actualPrice)\n    {\n        weiCost = _wei;\n\n        uint balance = token.balanceOf(address(this));\n\n        require(balance >= 10 ** tokenDecimals);\n\n        actualPrice = discount > 0\n            ? price.mul(100 - discount).div(100)\n            : price;\n\n        tokens = _wei\n            .mul(100 + volumeBonus)\n            .div(actualPrice)\n            .mul(10 ** (tokenDecimals - 2));\n\n        if (balance < tokens) {\n            weiCost = _wei\n                .mul(balance)\n                .div(tokens);\n            change = _wei - weiCost;\n            tokens = balance;\n        }\n    }\n\n    function getWToken() external view returns(WToken) {\n        return token;\n    }\n\n    function getFund() external view returns(IW12Fund) {\n        return fund;\n    }\n\n    function getSaleVolumeBonus(uint value) public view returns(uint bonus) {\n        (uint index, bool found) = getCurrentStageIndex();\n\n        if (!found) return 0;\n\n        Stage storage stage = stages[index];\n\n        for(uint i = 0; i < stage.volumeBoundaries.length; i++) {\n            if (value >= stage.volumeBoundaries[i]) {\n                bonus = stage.volumeBonuses[i];\n            } else {\n                break;\n            }\n        }\n    }\n\n    function getCurrentStageIndex() public view returns (uint index, bool found) {\n        for(uint i = 0; i < stages.length; i++) {\n            Stage storage stage = stages[i];\n\n            if (stage.startDate <= now && stage.endDate > now) {\n                return (i, true);\n            }\n        }\n\n        return (0, false);\n    }\n\n    function claimRemainingTokens() external onlyOwner {\n        require(isEnded());\n\n        uint amount = token.balanceOf(address(this));\n\n        require(token.transfer(owner, amount));\n\n        emit UnsoldTokenReturned(owner, amount);\n    }\n\n    function isEnded() public view returns (bool) {\n        return stages.length == 0 || stages[stages.length - 1].endDate < now;\n    }\n\n    function isSaleActive() public view returns (bool) {\n        (, bool found) = getCurrentStageIndex();\n\n        return found;\n    }\n\n    function() payable external {\n        buyTokens();\n    }\n\n    modifier beforeSaleStart() {\n        if (stages.length > 0) {\n            require(stages[0].startDate > now);\n        }\n\n        _;\n    }\n\n    modifier onlyWhenSaleActive() {\n        require(isSaleActive(), \"Sale is not started yet\");\n\n        _;\n    }\n}\n",
  "sourcePath": "/home/andrey/Code/w12/platform-contracts/contracts/W12Crowdsale.sol",
  "compiler": {
    "name": "solc",
    "version": "0.4.24+commit.e67f0147.Emscripten.clang"
  },
  "schemaVersion": "2.0.1",
  "updatedAt": "2018-09-12T09:23:19.560Z"
}