{
  "contractName": "W12CrowdsaleStub",
  "abi": [
    {
      "constant": false,
      "inputs": [
        {
          "name": "method",
          "type": "bytes32"
        },
        {
          "name": "amount",
          "type": "uint256"
        }
      ],
      "name": "buyTokens",
      "outputs": [],
      "payable": true,
      "stateMutability": "payable",
      "type": "function"
    },
    {
      "constant": true,
      "inputs": [
        {
          "name": "_method",
          "type": "bytes32"
        }
      ],
      "name": "isPaymentMethodAllowed",
      "outputs": [
        {
          "name": "",
          "type": "bool"
        }
      ],
      "payable": false,
      "stateMutability": "view",
      "type": "function"
    },
    {
      "constant": true,
      "inputs": [],
      "name": "originToken",
      "outputs": [
        {
          "name": "",
          "type": "address"
        }
      ],
      "payable": false,
      "stateMutability": "view",
      "type": "function"
    },
    {
      "constant": true,
      "inputs": [],
      "name": "getLastMilestoneIndex",
      "outputs": [
        {
          "name": "index",
          "type": "uint256"
        },
        {
          "name": "found",
          "type": "bool"
        }
      ],
      "payable": false,
      "stateMutability": "view",
      "type": "function"
    },
    {
      "constant": true,
      "inputs": [
        {
          "name": "value",
          "type": "uint256"
        }
      ],
      "name": "getSaleVolumeBonus",
      "outputs": [
        {
          "name": "bonus",
          "type": "uint256"
        }
      ],
      "payable": false,
      "stateMutability": "view",
      "type": "function"
    },
    {
      "constant": true,
      "inputs": [
        {
          "name": "index",
          "type": "uint256"
        }
      ],
      "name": "getMilestone",
      "outputs": [
        {
          "name": "",
          "type": "uint32"
        },
        {
          "name": "",
          "type": "uint256"
        },
        {
          "name": "",
          "type": "uint32"
        },
        {
          "name": "",
          "type": "uint32"
        },
        {
          "name": "",
          "type": "bytes"
        },
        {
          "name": "",
          "type": "bytes"
        }
      ],
      "payable": false,
      "stateMutability": "view",
      "type": "function"
    },
    {
      "constant": true,
      "inputs": [
        {
          "name": "index",
          "type": "uint256"
        }
      ],
      "name": "getStage",
      "outputs": [
        {
          "name": "",
          "type": "uint32"
        },
        {
          "name": "",
          "type": "uint32"
        },
        {
          "name": "",
          "type": "uint256"
        },
        {
          "name": "",
          "type": "uint32"
        },
        {
          "name": "",
          "type": "uint256[]"
        },
        {
          "name": "",
          "type": "uint256[]"
        }
      ],
      "payable": false,
      "stateMutability": "view",
      "type": "function"
    },
    {
      "constant": true,
      "inputs": [],
      "name": "WTokenSaleFeePercent",
      "outputs": [
        {
          "name": "",
          "type": "uint256"
        }
      ],
      "payable": false,
      "stateMutability": "view",
      "type": "function"
    },
    {
      "constant": false,
      "inputs": [],
      "name": "claimRemainingTokens",
      "outputs": [],
      "payable": false,
      "stateMutability": "nonpayable",
      "type": "function"
    },
    {
      "constant": true,
      "inputs": [],
      "name": "milestonesLength",
      "outputs": [
        {
          "name": "",
          "type": "uint256"
        }
      ],
      "payable": false,
      "stateMutability": "view",
      "type": "function"
    },
    {
      "constant": true,
      "inputs": [],
      "name": "getWToken",
      "outputs": [
        {
          "name": "",
          "type": "address"
        }
      ],
      "payable": false,
      "stateMutability": "view",
      "type": "function"
    },
    {
      "constant": true,
      "inputs": [],
      "name": "rates",
      "outputs": [
        {
          "name": "",
          "type": "address"
        }
      ],
      "payable": false,
      "stateMutability": "view",
      "type": "function"
    },
    {
      "constant": true,
      "inputs": [],
      "name": "version",
      "outputs": [
        {
          "name": "",
          "type": "uint256"
        }
      ],
      "payable": false,
      "stateMutability": "view",
      "type": "function"
    },
    {
      "constant": true,
      "inputs": [],
      "name": "getPaymentMethodsList",
      "outputs": [
        {
          "name": "",
          "type": "bytes32[]"
        }
      ],
      "payable": false,
      "stateMutability": "view",
      "type": "function"
    },
    {
      "constant": true,
      "inputs": [],
      "name": "serviceWallet",
      "outputs": [
        {
          "name": "",
          "type": "address"
        }
      ],
      "payable": false,
      "stateMutability": "view",
      "type": "function"
    },
    {
      "constant": true,
      "inputs": [],
      "name": "isSaleActive",
      "outputs": [
        {
          "name": "",
          "type": "bool"
        }
      ],
      "payable": false,
      "stateMutability": "view",
      "type": "function"
    },
    {
      "constant": false,
      "inputs": [],
      "name": "renounceOwnership",
      "outputs": [],
      "payable": false,
      "stateMutability": "nonpayable",
      "type": "function"
    },
    {
      "constant": true,
      "inputs": [],
      "name": "stagesLength",
      "outputs": [
        {
          "name": "",
          "type": "uint256"
        }
      ],
      "payable": false,
      "stateMutability": "view",
      "type": "function"
    },
    {
      "constant": true,
      "inputs": [],
      "name": "swap",
      "outputs": [
        {
          "name": "",
          "type": "address"
        }
      ],
      "payable": false,
      "stateMutability": "view",
      "type": "function"
    },
    {
      "constant": true,
      "inputs": [
        {
          "name": "",
          "type": "uint256"
        }
      ],
      "name": "stages",
      "outputs": [
        {
          "name": "startDate",
          "type": "uint32"
        },
        {
          "name": "endDate",
          "type": "uint32"
        },
        {
          "name": "discount",
          "type": "uint256"
        },
        {
          "name": "vesting",
          "type": "uint32"
        }
      ],
      "payable": false,
      "stateMutability": "view",
      "type": "function"
    },
    {
      "constant": true,
      "inputs": [],
      "name": "serviceFee",
      "outputs": [
        {
          "name": "",
          "type": "uint256"
        }
      ],
      "payable": false,
      "stateMutability": "view",
      "type": "function"
    },
    {
      "constant": true,
      "inputs": [
        {
          "name": "method",
          "type": "bytes32"
        },
        {
          "name": "amount",
          "type": "uint256"
        }
      ],
      "name": "getInvoice",
      "outputs": [
        {
          "name": "",
          "type": "uint256[5]"
        }
      ],
      "payable": false,
      "stateMutability": "view",
      "type": "function"
    },
    {
      "constant": true,
      "inputs": [],
      "name": "owner",
      "outputs": [
        {
          "name": "",
          "type": "address"
        }
      ],
      "payable": false,
      "stateMutability": "view",
      "type": "function"
    },
    {
      "constant": true,
      "inputs": [],
      "name": "getFund",
      "outputs": [
        {
          "name": "",
          "type": "address"
        }
      ],
      "payable": false,
      "stateMutability": "view",
      "type": "function"
    },
    {
      "constant": true,
      "inputs": [],
      "name": "price",
      "outputs": [
        {
          "name": "",
          "type": "uint256"
        }
      ],
      "payable": false,
      "stateMutability": "view",
      "type": "function"
    },
    {
      "constant": true,
      "inputs": [],
      "name": "isEnded",
      "outputs": [
        {
          "name": "",
          "type": "bool"
        }
      ],
      "payable": false,
      "stateMutability": "view",
      "type": "function"
    },
    {
      "constant": true,
      "inputs": [],
      "name": "getEndDate",
      "outputs": [
        {
          "name": "",
          "type": "uint32"
        }
      ],
      "payable": false,
      "stateMutability": "view",
      "type": "function"
    },
    {
      "constant": true,
      "inputs": [],
      "name": "fund",
      "outputs": [
        {
          "name": "",
          "type": "address"
        }
      ],
      "payable": false,
      "stateMutability": "view",
      "type": "function"
    },
    {
      "constant": true,
      "inputs": [
        {
          "name": "tokenAmount",
          "type": "uint256"
        },
        {
          "name": "cost",
          "type": "uint256"
        }
      ],
      "name": "getFee",
      "outputs": [
        {
          "name": "",
          "type": "uint256[2]"
        }
      ],
      "payable": false,
      "stateMutability": "view",
      "type": "function"
    },
    {
      "constant": false,
      "inputs": [
        {
          "name": "parametersOfStages",
          "type": "uint256[6][]"
        },
        {
          "name": "bonusConditionsOfStages",
          "type": "uint256[]"
        },
        {
          "name": "parametersOfMilestones",
          "type": "uint256[4][]"
        },
        {
          "name": "nameAndDescriptionsOffsetOfMilestones",
          "type": "uint32[]"
        },
        {
          "name": "nameAndDescriptionsOfMilestones",
          "type": "bytes"
        },
        {
          "name": "paymentMethodsList",
          "type": "bytes32[]"
        }
      ],
      "name": "setup",
      "outputs": [],
      "payable": false,
      "stateMutability": "nonpayable",
      "type": "function"
    },
    {
      "constant": true,
      "inputs": [],
      "name": "getCurrentMilestoneIndex",
      "outputs": [
        {
          "name": "index",
          "type": "uint256"
        },
        {
          "name": "found",
          "type": "bool"
        }
      ],
      "payable": false,
      "stateMutability": "view",
      "type": "function"
    },
    {
      "constant": true,
      "inputs": [],
      "name": "getCurrentStageIndex",
      "outputs": [
        {
          "name": "index",
          "type": "uint256"
        },
        {
          "name": "found",
          "type": "bool"
        }
      ],
      "payable": false,
      "stateMutability": "view",
      "type": "function"
    },
    {
      "constant": true,
      "inputs": [
        {
          "name": "",
          "type": "uint256"
        }
      ],
      "name": "milestones",
      "outputs": [
        {
          "name": "endDate",
          "type": "uint32"
        },
        {
          "name": "tranchePercent",
          "type": "uint256"
        },
        {
          "name": "voteEndDate",
          "type": "uint32"
        },
        {
          "name": "withdrawalWindow",
          "type": "uint32"
        },
        {
          "name": "name",
          "type": "bytes"
        },
        {
          "name": "description",
          "type": "bytes"
        }
      ],
      "payable": false,
      "stateMutability": "view",
      "type": "function"
    },
    {
      "constant": false,
      "inputs": [
        {
          "name": "_price",
          "type": "uint256"
        }
      ],
      "name": "setParameters",
      "outputs": [],
      "payable": false,
      "stateMutability": "nonpayable",
      "type": "function"
    },
    {
      "constant": false,
      "inputs": [
        {
          "name": "_newOwner",
          "type": "address"
        }
      ],
      "name": "transferOwnership",
      "outputs": [],
      "payable": false,
      "stateMutability": "nonpayable",
      "type": "function"
    },
    {
      "constant": true,
      "inputs": [
        {
          "name": "method",
          "type": "bytes32"
        },
        {
          "name": "tokenAmount",
          "type": "uint256"
        }
      ],
      "name": "getInvoiceByTokenAmount",
      "outputs": [
        {
          "name": "",
          "type": "uint256[4]"
        }
      ],
      "payable": false,
      "stateMutability": "view",
      "type": "function"
    },
    {
      "constant": true,
      "inputs": [],
      "name": "token",
      "outputs": [
        {
          "name": "",
          "type": "address"
        }
      ],
      "payable": false,
      "stateMutability": "view",
      "type": "function"
    },
    {
      "inputs": [
        {
          "name": "version",
          "type": "uint256"
        },
        {
          "name": "_originToken",
          "type": "address"
        },
        {
          "name": "_token",
          "type": "address"
        },
        {
          "name": "_price",
          "type": "uint256"
        },
        {
          "name": "_serviceWallet",
          "type": "address"
        },
        {
          "name": "_swap",
          "type": "address"
        },
        {
          "name": "_serviceFee",
          "type": "uint256"
        },
        {
          "name": "_WTokenSaleFeePercent",
          "type": "uint256"
        },
        {
          "name": "_fund",
          "type": "address"
        },
        {
          "name": "_rates",
          "type": "address"
        }
      ],
      "payable": false,
      "stateMutability": "nonpayable",
      "type": "constructor"
    },
    {
      "anonymous": false,
      "inputs": [
        {
          "indexed": true,
          "name": "buyer",
          "type": "address"
        },
        {
          "indexed": false,
          "name": "tokensBought",
          "type": "uint256"
        },
        {
          "indexed": false,
          "name": "cost",
          "type": "uint256"
        },
        {
          "indexed": false,
          "name": "change",
          "type": "uint256"
        }
      ],
      "name": "TokenPurchase",
      "type": "event"
    },
    {
      "anonymous": false,
      "inputs": [],
      "name": "StagesUpdated",
      "type": "event"
    },
    {
      "anonymous": false,
      "inputs": [
        {
          "indexed": false,
          "name": "index",
          "type": "uint256"
        }
      ],
      "name": "StageUpdated",
      "type": "event"
    },
    {
      "anonymous": false,
      "inputs": [],
      "name": "MilestonesUpdated",
      "type": "event"
    },
    {
      "anonymous": false,
      "inputs": [],
      "name": "CrowdsaleSetUpDone",
      "type": "event"
    },
    {
      "anonymous": false,
      "inputs": [
        {
          "indexed": true,
          "name": "owner",
          "type": "address"
        },
        {
          "indexed": false,
          "name": "amount",
          "type": "uint256"
        }
      ],
      "name": "UnsoldTokenReturned",
      "type": "event"
    },
    {
      "anonymous": false,
      "inputs": [
        {
          "indexed": true,
          "name": "previousOwner",
          "type": "address"
        }
      ],
      "name": "OwnershipRenounced",
      "type": "event"
    },
    {
      "anonymous": false,
      "inputs": [
        {
          "indexed": true,
          "name": "previousOwner",
          "type": "address"
        },
        {
          "indexed": true,
          "name": "newOwner",
          "type": "address"
        }
      ],
      "name": "OwnershipTransferred",
      "type": "event"
    },
    {
      "constant": false,
      "inputs": [
        {
          "name": "to",
          "type": "address"
        },
        {
          "name": "amount",
          "type": "uint256"
        }
      ],
      "name": "_outTokens",
      "outputs": [
        {
          "name": "",
          "type": "bool"
        }
      ],
      "payable": false,
      "stateMutability": "nonpayable",
      "type": "function"
    },
    {
      "constant": false,
      "inputs": [
        {
          "name": "to",
          "type": "address"
        }
      ],
      "name": "_outEther",
      "outputs": [],
      "payable": false,
      "stateMutability": "nonpayable",
      "type": "function"
    },
    {
      "constant": false,
      "inputs": [
        {
          "name": "_WTokenSaleFeePercent",
          "type": "uint256"
        }
      ],
      "name": "_setState",
      "outputs": [],
      "payable": false,
      "stateMutability": "nonpayable",
      "type": "function"
    }
  ],
  "bytecode": "0x608060405260016002553480156200001657600080fd5b50604051610140806200507e83398101604090815281516020830151918301516060840151608085015160a086015160c087015160e088015161010089015161012090990151600088905560018054600160a060020a0319163317905596989596949593949293919290919089898989898989898989600160a060020a0389161515620000a257600080fd5b600160a060020a0388161515620000b857600080fd5b620000d184640100000000620044696200021f82021704565b8015620000f657506064620000f48564010000000062004cbe6200025c82021704565b105b15156200010257600080fd5b6200011b83640100000000620044696200021f82021704565b801562000140575060646200013e8464010000000062004cbe6200025c82021704565b105b15156200014c57600080fd5b600160a060020a03821615156200016257600080fd5b600160a060020a03851615156200017857600080fd5b600160a060020a03811615156200018e57600080fd5b620001a38787640100000000620002ae810204565b60038054600160a060020a0319908116600160a060020a039a8b16179091556004805482169a8a169a909a17909955600893909355600b8054891694881694909417909355600955600580548716928616929092179091556006805490951693169290921790925550620003539b505050505050505050505050565b600062000234640100000000620002f9810204565b821015801562000256575062000252640100000000620002fe810204565b8211155b92915050565b600062000272826401000000006200021f810204565b15156200027e57600080fd5b62000256620002956401000000006200031b810204565b8390600a0a640100000000620048b76200032082021704565b60008211620002bc57600080fd5b600160a060020a0381161515620002d257600080fd5b600791909155600a8054600160a060020a031916600160a060020a03909216919091179055565b600090565b60006200031364010000000062000336810204565b600a0a905090565b600290565b600081838115156200032e57fe5b049392505050565b60006200034b6401000000006200031b810204565b600201905090565b614d1b80620003636000396000f3006080604052600436106101d45763ffffffff60e060020a60003504166307f5d63381146101d957806311eb8c9f146101e957806313096a411461021557806314f66d34146102465780631aecc19f14610274578063208853c9146102985780632442e1cb146102c25780632e325020146103f85780632fbe5990146104e9578063313602d4146104fe5780633baba4d7146105135780634090cb641461052857806343f48fbd1461053d57806354fd4d5014610552578063550fd742146105675780635641f3c3146105cc578063564566a8146105e15780635773caaf146105f6578063715018a614610617578063792c02ea1461062c5780638119c06514610641578063845ddcb2146106565780638abdf5aa1461069f5780638aea2af8146106b45780638da5cb5b146107075780638edd6eb61461071c578063a035b1fe14610731578063a4fd6f5614610746578063b13564881461075b578063b60d428814610789578063ca7348a31461079e578063d250185c146107b6578063d5b22623146107e8578063d6d65f3d14610844578063daa4cf8814610859578063e89e4ed61461086e578063e93b054014610886578063f2fde38b1461089e578063f6cf09dc146108bf578063fc0c546a146108ef575b600080fd5b6101e7600435602435610904565b005b3480156101f557600080fd5b50610201600435610b0b565b604080519115158252519081900360200190f35b34801561022157600080fd5b5061022a610b24565b60408051600160a060020a039092168252519081900360200190f35b34801561025257600080fd5b5061025b610b33565b6040805192835290151560208301528051918290030190f35b34801561028057600080fd5b50610201600160a060020a0360043516602435610b66565b3480156102a457600080fd5b506102b0600435610c0b565b60408051918252519081900360200190f35b3480156102ce57600080fd5b506102da600435610d01565b604051808763ffffffff1663ffffffff1681526020018681526020018563ffffffff1663ffffffff1681526020018463ffffffff1663ffffffff1681526020018060200180602001838103835285818151815260200191508051906020019080838360005b8381101561035757818101518382015260200161033f565b50505050905090810190601f1680156103845780820380516001836020036101000a031916815260200191505b50838103825284518152845160209182019186019080838360005b838110156103b757818101518382015260200161039f565b50505050905090810190601f1680156103e45780820380516001836020036101000a031916815260200191505b509850505050505050505060405180910390f35b34801561040457600080fd5b50610410600435610f2e565b604051808763ffffffff1663ffffffff1681526020018663ffffffff1663ffffffff1681526020018581526020018463ffffffff1663ffffffff1681526020018060200180602001838103835285818151815260200191508051906020019060200280838360005b83811015610490578181015183820152602001610478565b50505050905001838103825284818151815260200191508051906020019060200280838360005b838110156104cf5781810151838201526020016104b7565b505050509050019850505050505050505060405180910390f35b3480156104f557600080fd5b506102b06110d4565b34801561050a57600080fd5b506101e76110da565b34801561051f57600080fd5b506102b0611289565b34801561053457600080fd5b5061022a611290565b34801561054957600080fd5b5061022a61129f565b34801561055e57600080fd5b506102b06112ae565b34801561057357600080fd5b5061057c6112b4565b60408051602080825283518183015283519192839290830191858101910280838360005b838110156105b85781810151838201526020016105a0565b505050509050019250505060405180910390f35b3480156105d857600080fd5b5061022a6112c5565b3480156105ed57600080fd5b506102016112d4565b34801561060257600080fd5b506101e7600160a060020a03600435166112ea565b34801561062357600080fd5b506101e7611325565b34801561063857600080fd5b506102b0611393565b34801561064d57600080fd5b5061022a611399565b34801561066257600080fd5b5061066e6004356113a8565b6040805163ffffffff9586168152938516602085015283810192909252909216606082015290519081900360800190f35b3480156106ab57600080fd5b506102b06113ee565b3480156106c057600080fd5b506106cf6004356024356113f4565b604051808260a080838360005b838110156106f45781810151838201526020016106dc565b5050505090500191505060405180910390f35b34801561071357600080fd5b5061022a61187f565b34801561072857600080fd5b5061022a61188e565b34801561073d57600080fd5b506102b061189d565b34801561075257600080fd5b506102016118a3565b34801561076757600080fd5b506107706118ea565b6040805163ffffffff9092168252519081900360200190f35b34801561079557600080fd5b5061022a611931565b3480156107aa57600080fd5b506101e7600435611940565b3480156107c257600080fd5b506107d1600435602435611945565b6040805182518152908190839080838360206106dc565b3480156107f457600080fd5b506101e7602460048035828101929082013591813580830192908201359160443580830192908201359160643580830192908201359160843580830192908201359160a435918201910135611964565b34801561085057600080fd5b5061025b611c92565b34801561086557600080fd5b5061025b611d0d565b34801561087a57600080fd5b506102da600435611d90565b34801561089257600080fd5b506101e7600435611efe565b3480156108aa57600080fd5b506101e7600160a060020a0360043516611f69565b3480156108cb57600080fd5b506108da600435602435611f89565b604051815181528082608080838360206106dc565b3480156108fb57600080fd5b5061022a612409565b600061090e614a04565b610916614a23565b60025460011461092557600080fd5b600280556109316112d4565b151561099e57604080517f08c379a000000000000000000000000000000000000000000000000000000000815260206004820152601760248201527f53616c65206973206e6f74207374617274656420796574000000000000000000604482015290519081900360640190fd5b846109a7612418565b14610a3c576006546040805160e460020a630b12e441028152600481018890529051600092600160a060020a03169163b12e441091602480830192602092919082900301818787803b1580156109fc57600080fd5b505af1158015610a10573d6000803e3d6000fd5b505050506040513d6020811015610a2657600080fd5b5051600160a060020a03161415610a3c57600080fd5b610a44611d0d565b509250610a5185856113f4565b80516020820151919350610a6491611945565b9050610a70818661243c565b610aa48282600e86815481101515610a8457fe5b600091825260209091206002600590920201015463ffffffff1688612570565b610aaf828287612699565b8151602080840151606080860151604080519586529385019290925283830191909152905133927f347f5f0051b895093800553e6e78ef332849e2552639a4f5ffe66535788ae07892908290030190a250506001600255505050565b6000610b1e600c8363ffffffff61295716565b92915050565b600454600160a060020a031681565b600f5460009081901580610b4c5750610b4a6118a3565b155b15610b5657610b62565b5050600f546000190160015b9091565b600354604080517fa9059cbb000000000000000000000000000000000000000000000000000000008152600160a060020a038581166004830152602482018590529151600093929092169163a9059cbb9160448082019260209290919082900301818787803b158015610bd857600080fd5b505af1158015610bec573d6000803e3d6000fd5b505050506040513d6020811015610c0257600080fd5b50519392505050565b600080600080610c19611d0d565b92509250811515610c2957610cf9565b600e805484908110610c3757fe5b90600052602060002090600502019050610cf68582600301805480602002602001604051908101604052809291908181526020018280548015610c9957602002820191906000526020600020905b815481526020019060010190808311610c85575b505050505083600401805480602002602001604051908101604052809291908181526020018280548015610cec57602002820191906000526020600020905b815481526020019060010190808311610cd8575b5050505050612970565b93505b505050919050565b600080600080606080600f87815481101515610d1957fe5b6000918252602090912060059091020154600f805463ffffffff9092169189908110610d4157fe5b906000526020600020906005020160010154600f89815481101515610d6257fe5b6000918252602090912060026005909202010154600f805463ffffffff909216918b908110610d8d57fe5b906000526020600020906005020160020160049054906101000a900463ffffffff16600f8b815481101515610dbe57fe5b9060005260206000209060050201600301600f8c815481101515610dde57fe5b9060005260206000209060050201600401818054600181600116156101000203166002900480601f016020809104026020016040519081016040528092919081815260200182805460018160011615610100020316600290048015610e845780601f10610e5957610100808354040283529160200191610e84565b820191906000526020600020905b815481529060010190602001808311610e6757829003601f168201915b5050845460408051602060026001851615610100026000190190941693909304601f810184900484028201840190925281815295975086945092508401905082828015610f125780601f10610ee757610100808354040283529160200191610f12565b820191906000526020600020905b815481529060010190602001808311610ef557829003601f168201915b5050505050905095509550955095509550955091939550919395565b600080600080606080600e87815481101515610f4657fe5b6000918252602090912060059091020154600e805463ffffffff9092169189908110610f6e57fe5b906000526020600020906005020160000160049054906101000a900463ffffffff16600e89815481101515610f9f57fe5b906000526020600020906005020160010154600e8a815481101515610fc057fe5b6000918252602090912060026005909202010154600e805463ffffffff909216918c908110610feb57fe5b9060005260206000209060050201600301600e8c81548110151561100b57fe5b90600052602060002090600502016004018180548060200260200160405190810160405280929190818152602001828054801561106757602002820191906000526020600020905b815481526020019060010190808311611053575b5050505050915080805480602002602001604051908101604052809291908181526020018280548015610f1257602002820191906000526020600020905b8154815260200190600101908083116110a5575050505050905095509550955095509550955091939550919395565b60095481565b600154600090600160a060020a031633146110f457600080fd5b6110fc6118a3565b151561110757600080fd5b600354604080517f70a082310000000000000000000000000000000000000000000000000000000081523060048201529051600160a060020a03909216916370a08231916024808201926020929091908290030181600087803b15801561116d57600080fd5b505af1158015611181573d6000803e3d6000fd5b505050506040513d602081101561119757600080fd5b5051600354600154604080517fa9059cbb000000000000000000000000000000000000000000000000000000008152600160a060020a03928316600482015260248101859052905193945091169163a9059cbb916044808201926020929091908290030181600087803b15801561120d57600080fd5b505af1158015611221573d6000803e3d6000fd5b505050506040513d602081101561123757600080fd5b5051151561124457600080fd5b600154604080518381529051600160a060020a03909216917f26ffb867a6b19bc0240d4e732ed6cfb0f0b6d93143a99cfb24ba5873308861f89181900360200190a250565b600f545b90565b600354600160a060020a031690565b600654600160a060020a031681565b60005481565b60606112c0600c6129cf565b905090565b600a54600160a060020a031681565b6000806112df611d0d565b9150508091505b5090565b604051600160a060020a03821690303180156108fc02916000818181858888f19350505050158015611320573d6000803e3d6000fd5b505b50565b600154600160a060020a0316331461133c57600080fd5b600154604051600160a060020a03909116907ff8df31144d9c2f0f6b59d69b8b98abd5459d07f2742c4df920b25aae33c6482090600090a26001805473ffffffffffffffffffffffffffffffffffffffff19169055565b600e5490565b600b54600160a060020a031681565b600e8054829081106113b657fe5b600091825260209091206005909102018054600182015460029092015463ffffffff8083169450640100000000909204821692911684565b60085481565b6113fc614a04565b600080611407611d0d565b9150915080151561141757611877565b84611420612418565b146114ad576006546040805160e060020a63cfec719f028152600481018890529051600160a060020a039092169163cfec719f916024808201926020929091908290030181600087803b15801561147657600080fd5b505af115801561148a573d6000803e3d6000fd5b505050506040513d60208110156114a057600080fd5b505115156114ad57611877565b6118748585600e858154811015156114c157fe5b906000526020600020906005020160010154600e868154811015156114e257fe5b906000526020600020906005020160030180548060200260200160405190810160405280929190818152602001828054801561153d57602002820191906000526020600020905b815481526020019060010190808311611529575b5050505050600e8781548110151561155157fe5b90600052602060002090600502016004018054806020026020016040519081016040528092919081815260200182805480156115ac57602002820191906000526020600020905b815481526020019060010190808311611598575b5050505050600660009054906101000a9004600160a060020a0316600160a060020a0316638eaa6ac08c6040518263ffffffff1660e060020a028152600401808260001916600019168152602001915050602060405180830381600087803b15801561161757600080fd5b505af115801561162b573d6000803e3d6000fd5b505050506040513d602081101561164157600080fd5b50516007546003546040805160e060020a63313ce5670281529051600160a060020a039092169163313ce567916004808201926020929091908290030181600087803b15801561169057600080fd5b505af11580156116a4573d6000803e3d6000fd5b505050506040513d60208110156116ba57600080fd5b505160ff168d6116c8612418565b146117da57600660009054906101000a9004600160a060020a0316600160a060020a031663b12e44108f6040518263ffffffff1660e060020a028152600401808260001916600019168152602001915050602060405180830381600087803b15801561173357600080fd5b505af1158015611747573d6000803e3d6000fd5b505050506040513d602081101561175d57600080fd5b50516040805160e060020a63313ce5670281529051600160a060020a039092169163313ce567916004808201926020929091908290030181600087803b1580156117a657600080fd5b505af11580156117ba573d6000803e3d6000fd5b505050506040513d60208110156117d057600080fd5b505160ff166117dd565b60125b600354604080517f70a082310000000000000000000000000000000000000000000000000000000081523060048201529051600160a060020a03909216916370a08231916024808201926020929091908290030181600087803b15801561184357600080fd5b505af1158015611857573d6000803e3d6000fd5b505050506040513d602081101561186d57600080fd5b5051612a2c565b92505b505092915050565b600154600160a060020a031681565b600554600160a060020a031690565b60075481565b600e5460009015806112c05750600e805442919060001981019081106118c557fe5b6000918252602090912060059091020154640100000000900463ffffffff1610919050565b600e5460009081106118fb57600080fd5b600e8054600019810190811061190d57fe5b6000918252602090912060059091020154640100000000900463ffffffff16919050565b600554600160a060020a031681565b600955565b61194d614a23565b61195d8383600854600954612e6a565b9392505050565b600154600090600160a060020a0316331461197e57600080fd5b600e54600010156119bb5742600e600081548110151561199a57fe5b600091825260209091206005909102015463ffffffff16116119bb57600080fd5b8b15156119c757600080fd5b60ff8c11156119d557600080fd5b60ff8811156119e357600080fd5b6002860488146119f257600080fd5b60028404881115611a0257600080fd5b811515611a0e57600080fd5b5060005b81811015611aba57600654600160a060020a0316637d20abf8848484818110611a3757fe5b6040805160e060020a63ffffffff87160281526020928302949094013560048501525160248085019492935090918290030181600087803b158015611a7b57600080fd5b505af1158015611a8f573d6000803e3d6000fd5b505050506040513d6020811015611aa557600080fd5b50511515611ab257600080fd5b600101611a12565b611b538d8d808060200260200160405190810160405280939291908181526020016000905b82821015611b1b576040805160c08181019092529080840287019060069083908390808284375050509183525050600190910190602001611adf565b50505050508c8c8080602002602001604051908101604052809392919081815260200183836020028082843750612eb5945050505050565b611c1a8989808060200260200160405190810160405280939291908181526020016000905b82821015611bb4576040805160808181019092529080840287019060049083908390808284375050509183525050600190910190602001611b78565b50505050508888808060200260200160405190810160405280939291908181526020018383602002808284375050604080516020601f8e018190048102820181019092528c815294508c93508b92508291508401838280828437506133be945050505050565b611c5a83838080602002602001604051908101604052809392919081815260200183836020028082843750600c9594505063ffffffff61391c1692505050565b6040517f072792b04aecd99b2250bc76fb25f9bca793c3b7383cb4c7255a7a01e8f5a12e90600090a150505050505050505050505050565b600f5460009081901580611cab5750611ca96118a3565b155b15611cb557610b62565b5060015b600f546000190182108015611cfd5750600f805483908110611cd757fe5b6000918252602090912060059091020160020154640100000000900463ffffffff164210155b15610b6257600190910190611cb9565b60008080805b600e54821015611d8257600e805483908110611d2b57fe5b6000918252602090912060059091020180549091504263ffffffff90911611801590611d66575080544264010000000090910463ffffffff16115b15611d775781600193509350611d8a565b600190910190611d13565b600093508392505b50509091565b600f805482908110611d9e57fe5b60009182526020918290206005919091020180546001808301546002808501546003860180546040805161010097831615979097026000190190911693909304601f810189900489028601890190935282855263ffffffff9586169850929685821696640100000000909204909516949093929190830182828015611e645780601f10611e3957610100808354040283529160200191611e64565b820191906000526020600020905b815481529060010190602001808311611e4757829003601f168201915b5050505060048301805460408051602060026001851615610100026000190190941693909304601f8101849004840282018401909252818152949594935090830182828015611ef45780601f10611ec957610100808354040283529160200191611ef4565b820191906000526020600020905b815481529060010190602001808311611ed757829003601f168201915b5050505050905086565b600154600160a060020a03163314611f1557600080fd5b600e5460001015611f525742600e6000815481101515611f3157fe5b600091825260209091206005909102015463ffffffff1611611f5257600080fd5b600a54611322908290600160a060020a03166139ed565b600154600160a060020a03163314611f8057600080fd5b61132281613a43565b611f91614a3e565b600080611f9c611d0d565b91509150801515611fac57611877565b84611fb5612418565b14612042576006546040805160e060020a63cfec719f028152600481018890529051600160a060020a039092169163cfec719f916024808201926020929091908290030181600087803b15801561200b57600080fd5b505af115801561201f573d6000803e3d6000fd5b505050506040513d602081101561203557600080fd5b5051151561204257611877565b6118748585600e8581548110151561205657fe5b906000526020600020906005020160010154600e8681548110151561207757fe5b90600052602060002090600502016003018054806020026020016040519081016040528092919081815260200182805480156120d257602002820191906000526020600020905b8154815260200190600101908083116120be575b5050505050600e878154811015156120e657fe5b906000526020600020906005020160040180548060200260200160405190810160405280929190818152602001828054801561214157602002820191906000526020600020905b81548152602001906001019080831161212d575b5050505050600660009054906101000a9004600160a060020a0316600160a060020a0316638eaa6ac08c6040518263ffffffff1660e060020a028152600401808260001916600019168152602001915050602060405180830381600087803b1580156121ac57600080fd5b505af11580156121c0573d6000803e3d6000fd5b505050506040513d60208110156121d657600080fd5b50516007546003546040805160e060020a63313ce5670281529051600160a060020a039092169163313ce567916004808201926020929091908290030181600087803b15801561222557600080fd5b505af1158015612239573d6000803e3d6000fd5b505050506040513d602081101561224f57600080fd5b505160ff168d61225d612418565b1461236f57600660009054906101000a9004600160a060020a0316600160a060020a031663b12e44108f6040518263ffffffff1660e060020a028152600401808260001916600019168152602001915050602060405180830381600087803b1580156122c857600080fd5b505af11580156122dc573d6000803e3d6000fd5b505050506040513d60208110156122f257600080fd5b50516040805160e060020a63313ce5670281529051600160a060020a039092169163313ce567916004808201926020929091908290030181600087803b15801561233b57600080fd5b505af115801561234f573d6000803e3d6000fd5b505050506040513d602081101561236557600080fd5b505160ff16612372565b60125b600354604080517f70a082310000000000000000000000000000000000000000000000000000000081523060048201529051600160a060020a03909216916370a08231916024808201926020929091908290030181600087803b1580156123d857600080fd5b505af11580156123ec573d6000803e3d6000fd5b505050506040513d602081101561240257600080fd5b5051613ac1565b600354600160a060020a031681565b7f455448000000000000000000000000000000000000000000000000000000000090565b6006546040805160e060020a63cfec719f0281526004810184905290516113209285928592600160a060020a039092169163cfec719f916024808201926020929091908290030181600087803b15801561249557600080fd5b505af11580156124a9573d6000803e3d6000fd5b505050506040513d60208110156124bf57600080fd5b50516124cc57600061254a565b6006546040805160e460020a630b12e441028152600481018790529051600160a060020a039092169163b12e4410916024808201926020929091908290030181600087803b15801561251d57600080fd5b505af1158015612531573d6000803e3d6000fd5b505050506040513d602081101561254757600080fd5b50515b600354600454600b54600a54600160a060020a0393841693928316929182169116613d36565b6006546040805160e060020a63cfec719f028152600481018490529051612693928792879287928792600160a060020a039091169163cfec719f916024808201926020929091908290030181600087803b1580156125cd57600080fd5b505af11580156125e1573d6000803e3d6000fd5b505050506040513d60208110156125f757600080fd5b5051612604576000612682565b6006546040805160e460020a630b12e441028152600481018990529051600160a060020a039092169163b12e4410916024808201926020929091908290030181600087803b15801561265557600080fd5b505af1158015612669573d6000803e3d6000fd5b505050506040513d602081101561267f57600080fd5b50515b600354600160a060020a03166140c5565b50505050565b6126a1612418565b81141561277557600554600160a060020a031663d0baf2f56126d984600160200201518660015b60200201519063ffffffff6143b516565b8551602086015133919086906126f1908a60016126c8565b89600260200201516040805160e060020a63ffffffff8a16028152600160a060020a03909616600487015260248601949094526044850192909252606484015260848301525160a480830192600092919082900301818588803b15801561275757600080fd5b505af115801561276b573d6000803e3d6000fd5b5050505050612952565b6006546040805160e460020a630b12e441028152600481018490529051600160a060020a039092169163b12e4410916024808201926020929091908290030181600087803b1580156127c657600080fd5b505af11580156127da573d6000803e3d6000fd5b505050506040513d60208110156127f057600080fd5b5051600554600160a060020a039182169163a9059cbb911661281c8560015b60200201518760016126c8565b6040518363ffffffff1660e060020a0281526004018083600160a060020a0316600160a060020a0316815260200182815260200192505050602060405180830381600087803b15801561286e57600080fd5b505af1158015612882573d6000803e3d6000fd5b505050506040513d602081101561289857600080fd5b505115156128a557600080fd5b600554600160a060020a031663d0baf2f5338560006020020151846128d387600160200201518960016126c8565b88600260200201516040805160e060020a63ffffffff8916028152600160a060020a03909616600487015260248601949094526044850192909252606484015260848301525160a480830192600092919082900301818387803b15801561293957600080fd5b505af115801561294d573d6000803e3d6000fd5b505050505b505050565b6000908152600191909101602052604090205460ff1690565b6000805b83518110156129c757838181518110151561298b57fe5b6020908102909101015185106129ba5782818151811015156129a957fe5b9060200190602002015191506129bf565b6129c7565b600101612974565b509392505050565b606081600001805480602002602001604051908101604052809291908181526020018280548015612a2057602002820191906000526020600020905b81548152600190910190602001808311612a0b575b50505050509050919050565b612a34614a04565b6000612a458c8c8989878a8a6143c7565b1515612a5057600080fd5b73__Utils_________________________________6376ba78988c868a6040518463ffffffff1660e060020a02815260040180848152602001838152602001828152602001935050505060206040518083038186803b158015612ab257600080fd5b505af4158015612ac6573d6000803e3d6000fd5b505050506040513d6020811015612adc57600080fd5b505160408301819052861115612af157600080fd5b612b048260025b60200201518a8a612970565b905060008a11612b145785612b9a565b612b9a8a73__Percent_______________________________63d49d51816040518163ffffffff1660e060020a02815260040160206040518083038186803b158015612b5f57600080fd5b505af4158015612b73573d6000803e3d6000fd5b505050506040513d6020811015612b8957600080fd5b50518891900363ffffffff61441f16565b82600460200201818152505073__Utils_________________________________63a5a55fcf612c51612c468473__Percent_______________________________63d49d51816040518163ffffffff1660e060020a02815260040160206040518083038186803b158015612c0e57600080fd5b505af4158015612c22573d6000803e3d6000fd5b505050506040513d6020811015612c3857600080fd5b50519063ffffffff61444816565b604086015190614455565b8785600460200201516040518463ffffffff1660e060020a02815260040180848152602001838152602001828152602001935050505060206040518083038186803b158015612c9f57600080fd5b505af4158015612cb3573d6000803e3d6000fd5b505050506040513d6020811015612cc957600080fd5b5051808352831015612d88576080820151604080517f76ba7898000000000000000000000000000000000000000000000000000000008152600481018690526024810188905260448101929092525173__Utils_________________________________916376ba7898916064808301926020929190829003018186803b158015612d5357600080fd5b505af4158015612d67573d6000803e3d6000fd5b505050506040513d6020811015612d7d57600080fd5b505160408301528282525b73__Utils_________________________________63a5a55fcf8360026020020151868a6040518463ffffffff1660e060020a02815260040180848152602001838152602001828152602001935050505060206040518083038186803b158015612df157600080fd5b505af4158015612e05573d6000803e3d6000fd5b505050506040513d6020811015612e1b57600080fd5b5051602083018190521580612e2f57508151155b15612e465760008083526020830181905260408301525b6020820151612e56908c906143b5565b6060830152509a9950505050505050505050565b612e72614a23565b6000831115612e8e57612e8b858463ffffffff61445516565b81525b6000821115612ead57612ea7848363ffffffff61445516565b60208201525b949350505050565b600f54600090811015612f1257825183906000198101908110612ed457fe5b6020908102919091018101510151600f80546000908110612ef157fe5b600091825260209091206005909102015463ffffffff1611612f1257600080fd5b612f1e600e6000614a5d565b5060005b82518160ff16101561339057825163ffffffff90849060ff8416908110612f4557fe5b6020908102919091010151511115612f5c57600080fd5b825163ffffffff90849060ff8416908110612f7357fe5b60209081029190910181015101511115612f8c57600080fd5b825163ffffffff90849060ff8416908110612fa357fe5b6020908102919091010151606001511115612fbd57600080fd5b825160ff908490838316908110612fd057fe5b6020908102919091010151608001511115612fea57600080fd5b825160ff908490838316908110612ffd57fe5b602090810291909101015160a00151111561301757600080fd5b42838260ff1681518110151561302957fe5b6020908102919091010151511161303f57600080fd5b828160ff1681518110151561305057fe5b60209081029190910181015101518351849060ff841690811061306f57fe5b6020908102919091010151511061308557600080fd5b60008160ff1611156130dc57828160ff168151811015156130a257fe5b6020908102919091010151518351849060ff6000198501169081106130c357fe5b602090810291909101810151015111156130dc57600080fd5b613107838260ff168151811015156130f057fe5b6020908102909101015160025b6020020151614469565b151561311257600080fd5b73__Percent_______________________________63d49d51816040518163ffffffff1660e060020a02815260040160206040518083038186803b15801561315957600080fd5b505af415801561316d573d6000803e3d6000fd5b505050506040513d602081101561318357600080fd5b50518351849060ff841690811061319657fe5b602090810291909101015160400151106131af57600080fd5b600e60c060405190810160405280858460ff168151811015156131ce57fe5b6020908102919091018101515163ffffffff1682528651910190869060ff86169081106131f757fe5b602090810290910101516001602002015163ffffffff168152602001858460ff1681518110151561322457fe5b60209081029091010151600260200201518152602001858460ff1681518110151561324b57fe5b6020908102919091018101516060015163ffffffff16825260408051600080825281840183528484019190915281518181529283018252920191509052815460018082018085556000948552602094859020845160059094020180548587015163ffffffff1991821663ffffffff9687161767ffffffff00000000191664010000000091871691909102178255604086015193820193909355606085015160028201805490941694169390931790915560808301518051919461331692600385019290910190614a7e565b5060a08201518051613332916004840191602090910190614a7e565b505050506133886001600e8054905003848360ff1681518110151561335357fe5b6020908102919091010151608001518551869060ff861690811061337357fe5b602090810291909101015160a001518561448e565b600101612f22565b6040517f743961f4e677d1146fbf85d75565b1c5474fd083eb166f8b9595cf5d01a4d6e690600090a1505050565b6000806000806060806000600e80549050111561342b578860008151811015156133e457fe5b602090810291909101015151600e8054600019810190811061340257fe5b6000918252602090912060059091020154640100000000900463ffffffff161061342b57600080fd5b613437600f6000614ac5565b600095506000945060009350600092505b88518360ff16101561386a57885163ffffffff908a9060ff861690811061346b57fe5b602090810291909101015151111561348257600080fd5b885163ffffffff908a9060ff861690811061349957fe5b602090810291909101810151015111156134b257600080fd5b885163ffffffff908a9060ff86169081106134c957fe5b60209081029190910101516040015111156134e357600080fd5b42898460ff168151811015156134f557fe5b6020908102919091010151511161350b57600080fd5b888360ff1681518110151561351c57fe5b60209081029190910101515189518a9060ff861690811061353957fe5b60209081029190910181015101511161355157600080fd5b888360ff1681518110151561356257fe5b602090810291909101810151015189518a9060ff861690811061358157fe5b6020908102919091010151604001511161359a57600080fd5b60008360ff1611156135f157888360ff168151811015156135b757fe5b60209081029190910101515189518a9060ff6000198701169081106135d857fe5b602090810291909101015160400151106135f157600080fd5b613616898460ff1681518110151561360557fe5b6020908102909101015160036130fd565b151561362157600080fd5b61365386898781518110151561363357fe5b9060200190602002015163ffffffff16896147fb9092919063ffffffff16565b9150613685888681518110151561366657fe5b9060200190602002015163ffffffff168761444890919063ffffffff16565b955061369c86898760010181518110151561363357fe5b90506136b2888660010181518110151561366657fe5b95506136c585600263ffffffff61444816565b94506136f1898460ff168151811015156136db57fe5b6020908102919091010151606001518590614448565b9350600f60c0604051908101604052808b8660ff1681518110151561371257fe5b6020908102919091018101515163ffffffff1682528c519101908c9060ff881690811061373b57fe5b602090810290910101516003602002015181526020018b8660ff1681518110151561376257fe5b602090810290910101516001602002015163ffffffff1681526020018b8660ff1681518110151561378f57fe5b6020908102909101015160026020908102919091015163ffffffff90811683528282018790526040928301869052845460018181018088556000978852968490208651600590930201805492841663ffffffff19938416178155868501519181019190915593850151600285018054606088015185166401000000000267ffffffff000000001993909516931692909217169190911790556080830151805161383e9260038501920190614ae6565b5060a0820151805161385a916004840191602090910190614ae6565b5050600190940193506134489050565b73__Percent_______________________________63d49d51816040518163ffffffff1660e060020a02815260040160206040518083038186803b1580156138b157600080fd5b505af41580156138c5573d6000803e3d6000fd5b505050506040513d60208110156138db57600080fd5b505184146138e857600080fd5b6040517f56d9a2e016027a3725bf162ef2779c8b28d4dbec97c679cfba02dbb31a34c7ca90600090a1505050505050505050565b81546000901561397f575060005b825481101561397f576000836001016000856000018481548110151561394c57fe5b60009182526020808320919091015483528201929092526040019020805460ff191691151591909117905560010161392a565b81516139919084906020850190614b53565b50815115612952575060005b815181101561295257600183600101600084848151811015156139bc57fe5b6020908102919091018101518252810191909152604001600020805460ff191691151591909117905560010161399d565b600082116139fa57600080fd5b600160a060020a0381161515613a0f57600080fd5b600791909155600a805473ffffffffffffffffffffffffffffffffffffffff1916600160a060020a03909216919091179055565b600160a060020a0381161515613a5857600080fd5b600154604051600160a060020a038084169216907f8be0079c531659141344cd1fd0a4f28419497f9722a3daafe3b4186f6b6457e090600090a36001805473ffffffffffffffffffffffffffffffffffffffff1916600160a060020a0392909216919091179055565b613ac9614a3e565b6000613ada8c8c8989878a8a6143c7565b1515613ae557600080fd5b8a831015613af157829a505b8a825260008a11613b025785613b4d565b613b4d8a73__Percent_______________________________63d49d51816040518163ffffffff1660e060020a02815260040160206040518083038186803b158015612b5f57600080fd5b60608301819052604080517f76ba7898000000000000000000000000000000000000000000000000000000008152600481018e90526024810188905260448101929092525173__Utils_________________________________916376ba7898916064808301926020929190829003018186803b158015613bcd57600080fd5b505af4158015613be1573d6000803e3d6000fd5b505050506040513d6020811015613bf757600080fd5b505160408301819052861115613c0c57600080fd5b613c17826002612af8565b905073__Utils_________________________________63a5a55fcf836002602002015186613c97613c8a8673__Percent_______________________________63d49d51816040518163ffffffff1660e060020a02815260040160206040518083038186803b158015612c0e57600080fd5b8c9063ffffffff61445516565b6040518463ffffffff1660e060020a02815260040180848152602001838152602001828152602001935050505060206040518083038186803b158015613cdc57600080fd5b505af4158015613cf0573d6000803e3d6000fd5b505050506040513d6020811015613d0657600080fd5b5051602083018190521515613d275760008083526020830181905260408301525b509a9950505050505050505050565b600160a060020a0383161515613d4b57600080fd5b600160a060020a0384161515613d6057600080fd5b600160a060020a0382161515613d7557600080fd5b600160a060020a0381161515613d8a57600080fd5b60208701516000108015613da55750613da1612418565b8614155b15613dbf57600160a060020a0385161515613dbf57600080fd5b865160001015613f1d578651604080517f23b872dd000000000000000000000000000000000000000000000000000000008152600160a060020a038581166004830152848116602483015260448201939093529051918516916323b872dd916064808201926020929091908290030181600087803b158015613e4057600080fd5b505af1158015613e54573d6000803e3d6000fd5b505050506040513d6020811015613e6a57600080fd5b50511515613e7757600080fd5b8651604080517fa9059cbb000000000000000000000000000000000000000000000000000000008152600160a060020a038581166004830152602482019390935290519186169163a9059cbb916044808201926020929091908290030181600087803b158015613ee657600080fd5b505af1158015613efa573d6000803e3d6000fd5b505050506040513d6020811015613f1057600080fd5b50511515613f1d57600080fd5b60208701516000101561294d57613f32612418565b861415613f78576020870151604051600160a060020a0383169180156108fc02916000818181858888f19350505050158015613f72573d6000803e3d6000fd5b5061294d565b602080880151604080517fdd62ed3e00000000000000000000000000000000000000000000000000000000815233600482015230602482015290519192600160a060020a0389169263dd62ed3e9260448082019392918290030181600087803b158015613fe457600080fd5b505af1158015613ff8573d6000803e3d6000fd5b505050506040513d602081101561400e57600080fd5b5051101561401b57600080fd5b602080880151604080517f23b872dd000000000000000000000000000000000000000000000000000000008152336004820152600160a060020a03858116602483015260448201939093529051918816926323b872dd926064808401938290030181600087803b15801561408e57600080fd5b505af11580156140a2573d6000803e3d6000fd5b505050506040513d60208110156140b857600080fd5b5051151561294d57600080fd5b600160a060020a03811615156140da57600080fd5b855115156140e757600080fd5b602086015115156140f757600080fd5b845186511161410557600080fd5b602080860151908701511161411957600080fd5b614121612418565b83141561413957602086015134101561413957600080fd5b614141612418565b83146142b457600160a060020a038216151561415c57600080fd5b61416785600161280f565b604080517fdd62ed3e0000000000000000000000000000000000000000000000000000000081523360048201523060248201529051600160a060020a0385169163dd62ed3e9160448083019260209291908290030181600087803b1580156141ce57600080fd5b505af11580156141e2573d6000803e3d6000fd5b505050506040513d60208110156141f857600080fd5b5051101561420557600080fd5b600160a060020a0382166323b872dd333061422989600160200201518b60016126c8565b6040805160e060020a63ffffffff8716028152600160a060020a0394851660048201529290931660248301526044820152905160648083019260209291908290030181600087803b15801561427d57600080fd5b505af1158015614291573d6000803e3d6000fd5b505050506040513d60208110156142a757600080fd5b505115156142b457600080fd5b8551604080517f9d2e4777000000000000000000000000000000000000000000000000000000008152336004820152602481019290925263ffffffff8616604483015251600160a060020a03831691639d2e47779160648083019260209291908290030181600087803b15801561432a57600080fd5b505af115801561433e573d6000803e3d6000fd5b505050506040513d602081101561435457600080fd5b5051151561436157600080fd5b6060860151600010156143ad57614376612418565b8314156143ad576060860151604051339180156108fc02916000818181858888f1935050505015801561294d573d6000803e3d6000fd5b505050505050565b6000828211156143c157fe5b50900390565b600080871180156143d85750600086115b80156143e45750600085115b80156143f3575082600a0a8410155b90506143fd612418565b881415614414578080156144115750816012145b90505b979650505050505050565b600061195d61442c61487c565b61443c858563ffffffff61488e16565b9063ffffffff6148b716565b81810182811015610b1e57fe5b600061195d838361446461487c565b6148cc565b60006144736149e8565b8210158015610b1e575061448561487c565b90911115919050565b606080600060ff86161580156144a5575060ff8516155b1561453357604080516000815260208101909152600e805460ff8a169081106144ca57fe5b906000526020600020906005020160030190805190602001906144ee929190614a7e565b50604080516000815260208101909152600e805460ff8a1690811061450f57fe5b90600052602060002090600502016004019080519060200190613f72929190614a7e565b835160ff8616111561454457600080fd5b60ff8086169087161061455657600080fd5b600186161561456457600080fd5b600185161561457257600080fd5b600260ff878703160460ff166040519080825280602002602001820160405280156145a7578160200160208202803883390190505b509250600260ff878703160460ff166040519080825280602002602001820160405280156145df578160200160208202803883390190505b509150600090505b8460ff168660ff1610156147825761461b848760010160ff1681518110151561460c57fe5b90602001906020020151614469565b151561462657600080fd5b73__Percent_______________________________63d49d51816040518163ffffffff1660e060020a02815260040160206040518083038186803b15801561466d57600080fd5b505af4158015614681573d6000803e3d6000fd5b505050506040513d602081101561469757600080fd5b50518451859060ff60018a01169081106146ad57fe5b60209081029091010151106146c157600080fd5b600081111561470a57838660ff168151811015156146db57fe5b9060200190602002015183600183038151811015156146f657fe5b602090810290910101511061470a57600080fd5b838660ff1681518110151561471b57fe5b90602001906020020151838281518110151561473357fe5b602090810290910101528351849060ff600189011690811061475157fe5b90602001906020020151828281518110151561476957fe5b60209081029091010152600295909501946001016145e7565b82600e8860ff1681548110151561479557fe5b906000526020600020906005020160030190805190602001906147b9929190614a7e565b5081600e8860ff168154811015156147cd57fe5b906000526020600020906005020160040190805190602001906147f1929190614a7e565b5050505050505050565b60608082840185511015151561481057600080fd5b8215801561482957604051915060208201604052614873565b6040519150601f8416801560200281840101858101878315602002848b0101015b8183101561486257805183526020928301920161484a565b5050858452601f01601f1916604052505b50949350505050565b60006148866149ed565b600a0a905090565b600082151561489f57506000610b1e565b508181028183828115156148af57fe5b0414610b1e57fe5b600081838115156148c457fe5b049392505050565b6000808080808515156148db57fe5b8715806148e6575086155b156148f0576149dd565b6149026000198863ffffffff6148b716565b92508288116149265761491f8661443c8a8a63ffffffff61488e16565b94506149dd565b85881415614936578694506149dd565b85871415614946578794506149dd565b87156149c757878311614959578261495b565b875b915061496d828863ffffffff61488e16565b905061498f614982828863ffffffff6148b716565b869063ffffffff61444816565b94506149ae868281151561499f57fe5b8691900663ffffffff61444816565b93506149c0888363ffffffff6143b516565b9750614946565b6149da614982858863ffffffff6148b716565b94505b505050509392505050565b600090565b60006149f76149ff565b600201905090565b600290565b60a0604051908101604052806005906020820280388339509192915050565b60408051808201825290600290829080388339509192915050565b6080604051908101604052806004906020820280388339509192915050565b50805460008255600502906000526020600020908101906113229190614b90565b828054828255906000526020600020908101928215614ab9579160200282015b82811115614ab9578251825591602001919060010190614a9e565b506112e6929150614be9565b50805460008255600502906000526020600020908101906113229190614c03565b828054600181600116156101000203166002900490600052602060002090601f016020900481019282601f10614b2757805160ff1916838001178555614ab9565b82800160010185558215614ab95791820182811115614ab9578251825591602001919060010190614a9e565b828054828255906000526020600020908101928215614ab9579160200282015b82811115614ab95782518255602090920191600190910190614b73565b61128d91905b808211156112e657805467ffffffffffffffff1916815560006001820181905560028201805463ffffffff19169055614bd26003830182614c5c565b614be0600483016000614c5c565b50600501614b96565b61128d91905b808211156112e65760008155600101614bef565b61128d91905b808211156112e657805463ffffffff1916815560006001820181905560028201805467ffffffffffffffff19169055614c456003830182614c7a565b614c53600483016000614c7a565b50600501614c09565b50805460008255906000526020600020908101906113229190614be9565b50805460018160011615610100020316600290046000825580601f10614ca05750611322565b601f0160209004906000526020600020908101906113229190614be9565b6000614cc982614469565b1515614cd457600080fd5b610b1e614cdf6149ff565b8390600a0a63ffffffff6148b7165600a165627a7a72305820180bd1cbabb6d625e6ac040d898b9b4a50b883ae11610f18584ef5c66350772b0029",
  "source": "pragma solidity ^0.4.24;\n\nimport \"../../rates/IRates.sol\";\nimport \"../../crowdsale/W12Crowdsale.sol\";\n\ncontract W12CrowdsaleStub is W12Crowdsale {\n    constructor (\n        uint version,\n        address _originToken,\n        address _token,\n        uint _price,\n        address _serviceWallet,\n        address _swap,\n        uint _serviceFee,\n        uint _WTokenSaleFeePercent,\n        IW12Fund _fund,\n        IRates _rates\n    )\n        W12Crowdsale(\n            version,\n            _originToken,\n             _token,\n             _price,\n             _serviceWallet,\n             _swap,\n             _serviceFee,\n            _WTokenSaleFeePercent,\n             _fund,\n            _rates\n        ) public\n    {}\n\n    function _outTokens(address to, uint amount) external returns (bool) {\n        return token.transfer(to, amount);\n    }\n\n    function _outEther(address to) external {\n        return to.transfer(address(this).balance);\n    }\n\n    function _setState(uint _WTokenSaleFeePercent) external {\n        WTokenSaleFeePercent = _WTokenSaleFeePercent;\n    }\n}\n",
  "sourcePath": "/home/circleci/code/contracts/mocks/crowdsale/W12CrowdsaleStub.sol",
  "compiler": {
    "name": "solc",
    "version": "0.4.24+commit.e67f0147.Emscripten.clang"
  },
  "schemaVersion": "2.0.1",
  "updatedAt": "2018-10-27T04:55:06.459Z"
}