{
  "contractName": "W12CrowdsaleStub",
  "abi": [
    {
      "constant": false,
      "inputs": [
        {
          "name": "method",
          "type": "bytes32"
        },
        {
          "name": "amount",
          "type": "uint256"
        }
      ],
      "name": "buyTokens",
      "outputs": [],
      "payable": true,
      "stateMutability": "payable",
      "type": "function"
    },
    {
      "constant": true,
      "inputs": [
        {
          "name": "_method",
          "type": "bytes32"
        }
      ],
      "name": "isPaymentMethodAllowed",
      "outputs": [
        {
          "name": "",
          "type": "bool"
        }
      ],
      "payable": false,
      "stateMutability": "view",
      "type": "function"
    },
    {
      "constant": true,
      "inputs": [],
      "name": "originToken",
      "outputs": [
        {
          "name": "",
          "type": "address"
        }
      ],
      "payable": false,
      "stateMutability": "view",
      "type": "function"
    },
    {
      "constant": true,
      "inputs": [],
      "name": "getLastMilestoneIndex",
      "outputs": [
        {
          "name": "index",
          "type": "uint256"
        },
        {
          "name": "found",
          "type": "bool"
        }
      ],
      "payable": false,
      "stateMutability": "view",
      "type": "function"
    },
    {
      "constant": false,
      "inputs": [
        {
          "name": "_account",
          "type": "address"
        }
      ],
      "name": "removeAdmin",
      "outputs": [],
      "payable": false,
      "stateMutability": "nonpayable",
      "type": "function"
    },
    {
      "constant": true,
      "inputs": [
        {
          "name": "value",
          "type": "uint256"
        }
      ],
      "name": "getSaleVolumeBonus",
      "outputs": [
        {
          "name": "bonus",
          "type": "uint256"
        }
      ],
      "payable": false,
      "stateMutability": "view",
      "type": "function"
    },
    {
      "constant": false,
      "inputs": [
        {
          "name": "recipient",
          "type": "address"
        }
      ],
      "name": "transferPrimary",
      "outputs": [],
      "payable": false,
      "stateMutability": "nonpayable",
      "type": "function"
    },
    {
      "constant": true,
      "inputs": [
        {
          "name": "index",
          "type": "uint256"
        }
      ],
      "name": "getMilestone",
      "outputs": [
        {
          "name": "",
          "type": "uint32"
        },
        {
          "name": "",
          "type": "uint256"
        },
        {
          "name": "",
          "type": "uint32"
        },
        {
          "name": "",
          "type": "uint32"
        },
        {
          "name": "",
          "type": "bytes"
        },
        {
          "name": "",
          "type": "bytes"
        }
      ],
      "payable": false,
      "stateMutability": "view",
      "type": "function"
    },
    {
      "constant": true,
      "inputs": [
        {
          "name": "account",
          "type": "address"
        }
      ],
      "name": "isAdmin",
      "outputs": [
        {
          "name": "",
          "type": "bool"
        }
      ],
      "payable": false,
      "stateMutability": "view",
      "type": "function"
    },
    {
      "constant": true,
      "inputs": [
        {
          "name": "index",
          "type": "uint256"
        }
      ],
      "name": "getStage",
      "outputs": [
        {
          "name": "",
          "type": "uint32"
        },
        {
          "name": "",
          "type": "uint32"
        },
        {
          "name": "",
          "type": "uint256"
        },
        {
          "name": "",
          "type": "uint32"
        },
        {
          "name": "",
          "type": "uint256[]"
        },
        {
          "name": "",
          "type": "uint256[]"
        }
      ],
      "payable": false,
      "stateMutability": "view",
      "type": "function"
    },
    {
      "constant": true,
      "inputs": [],
      "name": "WTokenSaleFeePercent",
      "outputs": [
        {
          "name": "",
          "type": "uint256"
        }
      ],
      "payable": false,
      "stateMutability": "view",
      "type": "function"
    },
    {
      "constant": false,
      "inputs": [],
      "name": "claimRemainingTokens",
      "outputs": [],
      "payable": false,
      "stateMutability": "nonpayable",
      "type": "function"
    },
    {
      "constant": true,
      "inputs": [],
      "name": "milestonesLength",
      "outputs": [
        {
          "name": "",
          "type": "uint256"
        }
      ],
      "payable": false,
      "stateMutability": "view",
      "type": "function"
    },
    {
      "constant": false,
      "inputs": [
        {
          "name": "_account",
          "type": "address"
        }
      ],
      "name": "addProjectOwner",
      "outputs": [],
      "payable": false,
      "stateMutability": "nonpayable",
      "type": "function"
    },
    {
      "constant": true,
      "inputs": [],
      "name": "getWToken",
      "outputs": [
        {
          "name": "",
          "type": "address"
        }
      ],
      "payable": false,
      "stateMutability": "view",
      "type": "function"
    },
    {
      "constant": true,
      "inputs": [],
      "name": "rates",
      "outputs": [
        {
          "name": "",
          "type": "address"
        }
      ],
      "payable": false,
      "stateMutability": "view",
      "type": "function"
    },
    {
      "constant": true,
      "inputs": [],
      "name": "version",
      "outputs": [
        {
          "name": "",
          "type": "uint256"
        }
      ],
      "payable": false,
      "stateMutability": "view",
      "type": "function"
    },
    {
      "constant": true,
      "inputs": [],
      "name": "getPaymentMethodsList",
      "outputs": [
        {
          "name": "",
          "type": "bytes32[]"
        }
      ],
      "payable": false,
      "stateMutability": "view",
      "type": "function"
    },
    {
      "constant": true,
      "inputs": [],
      "name": "serviceWallet",
      "outputs": [
        {
          "name": "",
          "type": "address"
        }
      ],
      "payable": false,
      "stateMutability": "view",
      "type": "function"
    },
    {
      "constant": true,
      "inputs": [],
      "name": "isSaleActive",
      "outputs": [
        {
          "name": "",
          "type": "bool"
        }
      ],
      "payable": false,
      "stateMutability": "view",
      "type": "function"
    },
    {
      "constant": false,
      "inputs": [
        {
          "name": "_account",
          "type": "address"
        }
      ],
      "name": "addAdmin",
      "outputs": [],
      "payable": false,
      "stateMutability": "nonpayable",
      "type": "function"
    },
    {
      "constant": true,
      "inputs": [],
      "name": "stagesLength",
      "outputs": [
        {
          "name": "",
          "type": "uint256"
        }
      ],
      "payable": false,
      "stateMutability": "view",
      "type": "function"
    },
    {
      "constant": true,
      "inputs": [],
      "name": "swap",
      "outputs": [
        {
          "name": "",
          "type": "address"
        }
      ],
      "payable": false,
      "stateMutability": "view",
      "type": "function"
    },
    {
      "constant": true,
      "inputs": [
        {
          "name": "",
          "type": "uint256"
        }
      ],
      "name": "stages",
      "outputs": [
        {
          "name": "startDate",
          "type": "uint32"
        },
        {
          "name": "endDate",
          "type": "uint32"
        },
        {
          "name": "discount",
          "type": "uint256"
        },
        {
          "name": "vesting",
          "type": "uint32"
        }
      ],
      "payable": false,
      "stateMutability": "view",
      "type": "function"
    },
    {
      "constant": true,
      "inputs": [],
      "name": "serviceFee",
      "outputs": [
        {
          "name": "",
          "type": "uint256"
        }
      ],
      "payable": false,
      "stateMutability": "view",
      "type": "function"
    },
    {
      "constant": true,
      "inputs": [
        {
          "name": "method",
          "type": "bytes32"
        },
        {
          "name": "amount",
          "type": "uint256"
        }
      ],
      "name": "getInvoice",
      "outputs": [
        {
          "name": "",
          "type": "uint256[5]"
        }
      ],
      "payable": false,
      "stateMutability": "view",
      "type": "function"
    },
    {
      "constant": false,
      "inputs": [],
      "name": "renounceAdmin",
      "outputs": [],
      "payable": false,
      "stateMutability": "nonpayable",
      "type": "function"
    },
    {
      "constant": true,
      "inputs": [],
      "name": "getFund",
      "outputs": [
        {
          "name": "",
          "type": "address"
        }
      ],
      "payable": false,
      "stateMutability": "view",
      "type": "function"
    },
    {
      "constant": true,
      "inputs": [],
      "name": "price",
      "outputs": [
        {
          "name": "",
          "type": "uint256"
        }
      ],
      "payable": false,
      "stateMutability": "view",
      "type": "function"
    },
    {
      "constant": true,
      "inputs": [],
      "name": "isEnded",
      "outputs": [
        {
          "name": "",
          "type": "bool"
        }
      ],
      "payable": false,
      "stateMutability": "view",
      "type": "function"
    },
    {
      "constant": true,
      "inputs": [],
      "name": "getEndDate",
      "outputs": [
        {
          "name": "",
          "type": "uint32"
        }
      ],
      "payable": false,
      "stateMutability": "view",
      "type": "function"
    },
    {
      "constant": true,
      "inputs": [],
      "name": "fund",
      "outputs": [
        {
          "name": "",
          "type": "address"
        }
      ],
      "payable": false,
      "stateMutability": "view",
      "type": "function"
    },
    {
      "constant": true,
      "inputs": [],
      "name": "primary",
      "outputs": [
        {
          "name": "",
          "type": "address"
        }
      ],
      "payable": false,
      "stateMutability": "view",
      "type": "function"
    },
    {
      "constant": false,
      "inputs": [],
      "name": "renounceProjectOwner",
      "outputs": [],
      "payable": false,
      "stateMutability": "nonpayable",
      "type": "function"
    },
    {
      "constant": false,
      "inputs": [
        {
          "name": "_account",
          "type": "address"
        }
      ],
      "name": "removeProjectOwner",
      "outputs": [],
      "payable": false,
      "stateMutability": "nonpayable",
      "type": "function"
    },
    {
      "constant": true,
      "inputs": [
        {
          "name": "tokenAmount",
          "type": "uint256"
        },
        {
          "name": "cost",
          "type": "uint256"
        }
      ],
      "name": "getFee",
      "outputs": [
        {
          "name": "",
          "type": "uint256[2]"
        }
      ],
      "payable": false,
      "stateMutability": "view",
      "type": "function"
    },
    {
      "constant": false,
      "inputs": [
        {
          "name": "parametersOfStages",
          "type": "uint256[6][]"
        },
        {
          "name": "bonusConditionsOfStages",
          "type": "uint256[]"
        },
        {
          "name": "parametersOfMilestones",
          "type": "uint256[4][]"
        },
        {
          "name": "nameAndDescriptionsOffsetOfMilestones",
          "type": "uint32[]"
        },
        {
          "name": "nameAndDescriptionsOfMilestones",
          "type": "bytes"
        },
        {
          "name": "paymentMethodsList",
          "type": "bytes32[]"
        }
      ],
      "name": "setup",
      "outputs": [],
      "payable": false,
      "stateMutability": "nonpayable",
      "type": "function"
    },
    {
      "constant": true,
      "inputs": [],
      "name": "getCurrentMilestoneIndex",
      "outputs": [
        {
          "name": "index",
          "type": "uint256"
        },
        {
          "name": "found",
          "type": "bool"
        }
      ],
      "payable": false,
      "stateMutability": "view",
      "type": "function"
    },
    {
      "constant": true,
      "inputs": [
        {
          "name": "account",
          "type": "address"
        }
      ],
      "name": "isProjectOwner",
      "outputs": [
        {
          "name": "",
          "type": "bool"
        }
      ],
      "payable": false,
      "stateMutability": "view",
      "type": "function"
    },
    {
      "constant": true,
      "inputs": [],
      "name": "getCurrentStageIndex",
      "outputs": [
        {
          "name": "index",
          "type": "uint256"
        },
        {
          "name": "found",
          "type": "bool"
        }
      ],
      "payable": false,
      "stateMutability": "view",
      "type": "function"
    },
    {
      "constant": true,
      "inputs": [
        {
          "name": "",
          "type": "uint256"
        }
      ],
      "name": "milestones",
      "outputs": [
        {
          "name": "endDate",
          "type": "uint32"
        },
        {
          "name": "tranchePercent",
          "type": "uint256"
        },
        {
          "name": "voteEndDate",
          "type": "uint32"
        },
        {
          "name": "withdrawalWindow",
          "type": "uint32"
        },
        {
          "name": "name",
          "type": "bytes"
        },
        {
          "name": "description",
          "type": "bytes"
        }
      ],
      "payable": false,
      "stateMutability": "view",
      "type": "function"
    },
    {
      "constant": false,
      "inputs": [
        {
          "name": "_price",
          "type": "uint256"
        }
      ],
      "name": "setParameters",
      "outputs": [],
      "payable": false,
      "stateMutability": "nonpayable",
      "type": "function"
    },
    {
      "constant": true,
      "inputs": [
        {
          "name": "method",
          "type": "bytes32"
        },
        {
          "name": "tokenAmount",
          "type": "uint256"
        }
      ],
      "name": "getInvoiceByTokenAmount",
      "outputs": [
        {
          "name": "",
          "type": "uint256[4]"
        }
      ],
      "payable": false,
      "stateMutability": "view",
      "type": "function"
    },
    {
      "constant": true,
      "inputs": [],
      "name": "token",
      "outputs": [
        {
          "name": "",
          "type": "address"
        }
      ],
      "payable": false,
      "stateMutability": "view",
      "type": "function"
    },
    {
      "inputs": [
        {
          "name": "version",
          "type": "uint256"
        },
        {
          "name": "_originToken",
          "type": "address"
        },
        {
          "name": "_token",
          "type": "address"
        },
        {
          "name": "_price",
          "type": "uint256"
        },
        {
          "name": "_serviceWallet",
          "type": "address"
        },
        {
          "name": "_swap",
          "type": "address"
        },
        {
          "name": "_serviceFee",
          "type": "uint256"
        },
        {
          "name": "_WTokenSaleFeePercent",
          "type": "uint256"
        },
        {
          "name": "_fund",
          "type": "address"
        },
        {
          "name": "_rates",
          "type": "address"
        }
      ],
      "payable": false,
      "stateMutability": "nonpayable",
      "type": "constructor"
    },
    {
      "anonymous": false,
      "inputs": [
        {
          "indexed": true,
          "name": "buyer",
          "type": "address"
        },
        {
          "indexed": false,
          "name": "tokensBought",
          "type": "uint256"
        },
        {
          "indexed": false,
          "name": "cost",
          "type": "uint256"
        },
        {
          "indexed": false,
          "name": "change",
          "type": "uint256"
        }
      ],
      "name": "TokenPurchase",
      "type": "event"
    },
    {
      "anonymous": false,
      "inputs": [],
      "name": "StagesUpdated",
      "type": "event"
    },
    {
      "anonymous": false,
      "inputs": [
        {
          "indexed": false,
          "name": "index",
          "type": "uint256"
        }
      ],
      "name": "StageUpdated",
      "type": "event"
    },
    {
      "anonymous": false,
      "inputs": [],
      "name": "MilestonesUpdated",
      "type": "event"
    },
    {
      "anonymous": false,
      "inputs": [],
      "name": "CrowdsaleSetUpDone",
      "type": "event"
    },
    {
      "anonymous": false,
      "inputs": [
        {
          "indexed": true,
          "name": "owner",
          "type": "address"
        },
        {
          "indexed": false,
          "name": "amount",
          "type": "uint256"
        }
      ],
      "name": "UnsoldTokenReturned",
      "type": "event"
    },
    {
      "anonymous": false,
      "inputs": [
        {
          "indexed": false,
          "name": "recipient",
          "type": "address"
        }
      ],
      "name": "PrimaryTransferred",
      "type": "event"
    },
    {
      "anonymous": false,
      "inputs": [
        {
          "indexed": true,
          "name": "account",
          "type": "address"
        }
      ],
      "name": "ProjectOwnerAdded",
      "type": "event"
    },
    {
      "anonymous": false,
      "inputs": [
        {
          "indexed": true,
          "name": "account",
          "type": "address"
        }
      ],
      "name": "ProjectOwnerRemoved",
      "type": "event"
    },
    {
      "anonymous": false,
      "inputs": [
        {
          "indexed": true,
          "name": "account",
          "type": "address"
        }
      ],
      "name": "AdminAdded",
      "type": "event"
    },
    {
      "anonymous": false,
      "inputs": [
        {
          "indexed": true,
          "name": "account",
          "type": "address"
        }
      ],
      "name": "AdminRemoved",
      "type": "event"
    },
    {
      "constant": false,
      "inputs": [
        {
          "name": "to",
          "type": "address"
        },
        {
          "name": "amount",
          "type": "uint256"
        }
      ],
      "name": "_outTokens",
      "outputs": [
        {
          "name": "",
          "type": "bool"
        }
      ],
      "payable": false,
      "stateMutability": "nonpayable",
      "type": "function"
    },
    {
      "constant": false,
      "inputs": [
        {
          "name": "to",
          "type": "address"
        }
      ],
      "name": "_outEther",
      "outputs": [],
      "payable": false,
      "stateMutability": "nonpayable",
      "type": "function"
    },
    {
      "constant": false,
      "inputs": [
        {
          "name": "_WTokenSaleFeePercent",
          "type": "uint256"
        }
      ],
      "name": "_setState",
      "outputs": [],
      "payable": false,
      "stateMutability": "nonpayable",
      "type": "function"
    }
  ],
  "bytecode": "0x60806040523480156200001157600080fd5b5060405161014080620039ef83398101604090815281516020830151918301516060840151608085015160a086015160c087015160e0880151610100890151610120909901519698959694959394929391929091908989898989898989898989620000853364010000000062000491810204565b6200009933640100000000620004e3810204565b60025560038054600160a060020a03191633179081905560408051600160a060020a03929092168252517f4101e71e974f68df5e9730cc223280b41654676bbb052cdcc735c3337e64d2d99181900360200190a16001600455600160a060020a03891615156200010857600080fd5b600160a060020a03881615156200011e57600080fd5b8373__Percent_______________________________63520b006690916040518263ffffffff167c01000000000000000000000000000000000000000000000000000000000281526004018082815260200191505060206040518083038186803b1580156200018c57600080fd5b505af4158015620001a1573d6000803e3d6000fd5b505050506040513d6020811015620001b857600080fd5b5051801562000262575060648473__Percent_______________________________630fe9114790916040518263ffffffff167c01000000000000000000000000000000000000000000000000000000000281526004018082815260200191505060206040518083038186803b1580156200023257600080fd5b505af415801562000247573d6000803e3d6000fd5b505050506040513d60208110156200025e57600080fd5b5051105b15156200026e57600080fd5b8273__Percent_______________________________63520b006690916040518263ffffffff167c01000000000000000000000000000000000000000000000000000000000281526004018082815260200191505060206040518083038186803b158015620002dc57600080fd5b505af4158015620002f1573d6000803e3d6000fd5b505050506040513d60208110156200030857600080fd5b50518015620003b2575060648373__Percent_______________________________630fe9114790916040518263ffffffff167c01000000000000000000000000000000000000000000000000000000000281526004018082815260200191505060206040518083038186803b1580156200038257600080fd5b505af415801562000397573d6000803e3d6000fd5b505050506040513d6020811015620003ae57600080fd5b5051105b1515620003be57600080fd5b600160a060020a0382161515620003d457600080fd5b600160a060020a0385161515620003ea57600080fd5b600160a060020a03811615156200040057600080fd5b62000415878764010000000062000535810204565b60058054600160a060020a0319908116600160a060020a039a8b16179091556006805482169a8a169a909a17909955600a93909355600d8054891694881694909417909355600b55600780548716928616929092179091556008805490951693169290921790925550620006139b505050505050505050505050565b620004ac600082640100000000620032f96200058082021704565b604051600160a060020a038216907f44d6d25963f097ad14f29f06854a01f575648a1ef82f30e562ccd3889717e33990600090a250565b620004fe600182640100000000620032f96200058082021704565b604051600160a060020a038216907f941e31c3e651de34a7fcf0132d9d02c2df9377e6b5f932bec5daf6353c94f90e90600090a250565b600082116200054357600080fd5b600160a060020a03811615156200055957600080fd5b600991909155600c8054600160a060020a031916600160a060020a03909216919091179055565b600160a060020a03811615156200059657600080fd5b620005ab8282640100000000620005db810204565b15620005b657600080fd5b600160a060020a0316600090815260209190915260409020805460ff19166001179055565b6000600160a060020a0382161515620005f357600080fd5b50600160a060020a03166000908152602091909152604090205460ff1690565b6133cc80620006236000396000f3006080604052600436106102215763ffffffff60e060020a60003504166307f5d633811461022657806311eb8c9f1461023657806313096a411461026257806314f66d34146102935780631785f53c146102c15780631aecc19f146102e2578063208853c9146103065780632348238c146103305780632442e1cb1461035157806324d7806c146104875780632e325020146104a85780632fbe599014610599578063313602d4146105ae5780633baba4d7146105c35780633bcdb164146105d85780634090cb64146105f957806343f48fbd1461060e57806354fd4d5014610623578063550fd742146106385780635641f3c31461069d578063564566a8146106b25780635773caaf146106c757806370480275146106e8578063792c02ea146107095780638119c0651461071e578063845ddcb2146107335780638abdf5aa1461077c5780638aea2af8146107915780638bad0c0a146107e45780638edd6eb6146107f9578063a035b1fe1461080e578063a4fd6f5614610823578063b135648814610838578063b60d428814610866578063c6dbdf611461087b578063ca7348a314610890578063d0934d61146108a8578063d155790b146108bd578063d250185c146108de578063d5b2262314610910578063d6d65f3d1461096c578063d8e9ce6414610981578063daa4cf88146109a2578063e89e4ed6146109b7578063e93b0540146109cf578063f6cf09dc146109e7578063fc0c546a14610a17575b600080fd5b610234600435602435610a2c565b005b34801561024257600080fd5b5061024e600435610bd3565b604080519115158252519081900360200190f35b34801561026e57600080fd5b50610277610c7b565b60408051600160a060020a039092168252519081900360200190f35b34801561029f57600080fd5b506102a8610c8a565b6040805192835290151560208301528051918290030190f35b3480156102cd57600080fd5b50610234600160a060020a0360043516610cbd565b3480156102ee57600080fd5b5061024e600160a060020a0360043516602435610cc9565b34801561031257600080fd5b5061031e600435610d6e565b60408051918252519081900360200190f35b34801561033c57600080fd5b50610234600160a060020a0360043516610ec5565b34801561035d57600080fd5b50610369600435610f58565b604051808763ffffffff1663ffffffff1681526020018681526020018563ffffffff1663ffffffff1681526020018463ffffffff1663ffffffff1681526020018060200180602001838103835285818151815260200191508051906020019080838360005b838110156103e65781810151838201526020016103ce565b50505050905090810190601f1680156104135780820380516001836020036101000a031916815260200191505b50838103825284518152845160209182019186019080838360005b8381101561044657818101518382015260200161042e565b50505050905090810190601f1680156104735780820380516001836020036101000a031916815260200191505b509850505050505050505060405180910390f35b34801561049357600080fd5b5061024e600160a060020a0360043516611185565b3480156104b457600080fd5b506104c060043561119d565b604051808763ffffffff1663ffffffff1681526020018663ffffffff1663ffffffff1681526020018581526020018463ffffffff1663ffffffff1681526020018060200180602001838103835285818151815260200191508051906020019060200280838360005b83811015610540578181015183820152602001610528565b50505050905001838103825284818151815260200191508051906020019060200280838360005b8381101561057f578181015183820152602001610567565b505050509050019850505050505050505060405180910390f35b3480156105a557600080fd5b5061031e611343565b3480156105ba57600080fd5b50610234611349565b3480156105cf57600080fd5b5061031e6114d0565b3480156105e457600080fd5b50610234600160a060020a03600435166114d6565b34801561060557600080fd5b506102776114df565b34801561061a57600080fd5b506102776114ee565b34801561062f57600080fd5b5061031e6114fd565b34801561064457600080fd5b5061064d611503565b60408051602080825283518183015283519192839290830191858101910280838360005b83811015610689578181015183820152602001610671565b505050509050019250505060405180910390f35b3480156106a957600080fd5b506102776115ea565b3480156106be57600080fd5b5061024e6115f9565b3480156106d357600080fd5b50610234600160a060020a036004351661160b565b3480156106f457600080fd5b50610234600160a060020a0360043516611645565b34801561071557600080fd5b5061031e61164e565b34801561072a57600080fd5b50610277611654565b34801561073f57600080fd5b5061074b600435611663565b6040805163ffffffff9586168152938516602085015283810192909252909216606082015290519081900360800190f35b34801561078857600080fd5b5061031e6116a9565b34801561079d57600080fd5b506107ac6004356024356116af565b604051808260a080838360005b838110156107d15781810151838201526020016107b9565b5050505090500191505060405180910390f35b3480156107f057600080fd5b50610234611961565b34801561080557600080fd5b5061027761196c565b34801561081a57600080fd5b5061031e61197b565b34801561082f57600080fd5b5061024e611981565b34801561084457600080fd5b5061084d6119c9565b6040805163ffffffff9092168252519081900360200190f35b34801561087257600080fd5b50610277611a10565b34801561088757600080fd5b50610277611a1f565b34801561089c57600080fd5b50610234600435611a2e565b3480156108b457600080fd5b50610234611a33565b3480156108c957600080fd5b50610234600160a060020a0360043516611a3c565b3480156108ea57600080fd5b506108f9600435602435611a45565b6040805182518152908190839080838360206107b9565b34801561091c57600080fd5b50610234602460048035828101929082013591813580830192908201359160443580830192908201359160643580830192908201359160843580830192908201359160a435918201910135611afb565b34801561097857600080fd5b506102a8611e78565b34801561098d57600080fd5b5061024e600160a060020a0360043516611ef3565b3480156109ae57600080fd5b506102a8611f06565b3480156109c357600080fd5b50610369600435611f89565b3480156109db57600080fd5b506102346004356120f7565b3480156109f357600080fd5b50610a02600435602435612162565b604051815181528082608080838360206107b9565b348015610a2357600080fd5b50610277612407565b6000610a36613347565b610a3e613366565b6004805460010190819055610a516115f9565b1515610a5c57600080fd5b85610a65612416565b14610afa576008546040805160e460020a630b12e441028152600481018990529051600092600160a060020a03169163b12e441091602480830192602092919082900301818787803b158015610aba57600080fd5b505af1158015610ace573d6000803e3d6000fd5b505050506040513d6020811015610ae457600080fd5b5051600160a060020a03161415610afa57600080fd5b610b02611f06565b509350610b0f86866116af565b80516020820151919450610b2291611a45565b9150610b2e828761243a565b610b628383601087815481101515610b4257fe5b600091825260209091206002600590920201015463ffffffff168961262c565b610b6d83838861283e565b8251602080850151606080870151604080519586529385019290925283830191909152905133927f347f5f0051b895093800553e6e78ef332849e2552639a4f5ffe66535788ae07892908290030190a26004548114610bcb57600080fd5b505050505050565b604080517f77df0856000000000000000000000000000000000000000000000000000000008152600e600482015260248101839052905160009173__PaymentMethods________________________916377df085691604480820192602092909190829003018186803b158015610c4957600080fd5b505af4158015610c5d573d6000803e3d6000fd5b505050506040513d6020811015610c7357600080fd5b505192915050565b600654600160a060020a031681565b60115460009081901580610ca35750610ca1611981565b155b15610cad57610cb9565b50506011546000190160015b9091565b610cc681612afb565b50565b600554604080517fa9059cbb000000000000000000000000000000000000000000000000000000008152600160a060020a038581166004830152602482018590529151600093929092169163a9059cbb9160448082019260209290919082900301818787803b158015610d3b57600080fd5b505af1158015610d4f573d6000803e3d6000fd5b505050506040513d6020811015610d6557600080fd5b50519392505050565b600080600080610d7c611f06565b92509250811515610d8c57610ebd565b6010805484908110610d9a57fe5b9060005260206000209060050201905073__PurchaseProcessing____________________63b8005df28683600301846004016040518463ffffffff1660e060020a0281526004018084815260200180602001806020018381038352858181548152602001915080548015610e2e57602002820191906000526020600020905b815481526020019060010190808311610e1a575b50508381038252848181548152602001915080548015610e6d57602002820191906000526020600020905b815481526020019060010190808311610e59575b50509550505050505060206040518083038186803b158015610e8e57600080fd5b505af4158015610ea2573d6000803e3d6000fd5b505050506040513d6020811015610eb857600080fd5b505193505b505050919050565b600354600160a060020a03163314610edc57600080fd5b600160a060020a0381161515610ef157600080fd5b6003805473ffffffffffffffffffffffffffffffffffffffff1916600160a060020a03838116919091179182905560408051929091168252517f4101e71e974f68df5e9730cc223280b41654676bbb052cdcc735c3337e64d2d9916020908290030190a150565b600080600080606080601187815481101515610f7057fe5b60009182526020909120600590910201546011805463ffffffff9092169189908110610f9857fe5b906000526020600020906005020160010154601189815481101515610fb957fe5b60009182526020909120600260059092020101546011805463ffffffff909216918b908110610fe457fe5b906000526020600020906005020160020160049054906101000a900463ffffffff1660118b81548110151561101557fe5b906000526020600020906005020160030160118c81548110151561103557fe5b9060005260206000209060050201600401818054600181600116156101000203166002900480601f0160208091040260200160405190810160405280929190818152602001828054600181600116156101000203166002900480156110db5780601f106110b0576101008083540402835291602001916110db565b820191906000526020600020905b8154815290600101906020018083116110be57829003601f168201915b5050845460408051602060026001851615610100026000190190941693909304601f8101849004840282018401909252818152959750869450925084019050828280156111695780601f1061113e57610100808354040283529160200191611169565b820191906000526020600020905b81548152906001019060200180831161114c57829003601f168201915b5050505050905095509550955095509550955091939550919395565b6000611197818363ffffffff612b4316565b92915050565b6000806000806060806010878154811015156111b557fe5b60009182526020909120600590910201546010805463ffffffff90921691899081106111dd57fe5b906000526020600020906005020160000160049054906101000a900463ffffffff1660108981548110151561120e57fe5b90600052602060002090600502016001015460108a81548110151561122f57fe5b60009182526020909120600260059092020101546010805463ffffffff909216918c90811061125a57fe5b906000526020600020906005020160030160108c81548110151561127a57fe5b9060005260206000209060050201600401818054806020026020016040519081016040528092919081815260200182805480156112d657602002820191906000526020600020905b8154815260200190600101908083116112c2575b505050505091508080548060200260200160405190810160405280929190818152602001828054801561116957602002820191906000526020600020905b815481526020019060010190808311611314575050505050905095509550955095509550955091939550919395565b600b5481565b6000611353611981565b151561135e57600080fd5b600554604080517f70a082310000000000000000000000000000000000000000000000000000000081523060048201529051600160a060020a03909216916370a08231916024808201926020929091908290030181600087803b1580156113c457600080fd5b505af11580156113d8573d6000803e3d6000fd5b505050506040513d60208110156113ee57600080fd5b5051600554604080517fa9059cbb000000000000000000000000000000000000000000000000000000008152336004820152602481018490529051929350600160a060020a039091169163a9059cbb916044808201926020929091908290030181600087803b15801561146057600080fd5b505af1158015611474573d6000803e3d6000fd5b505050506040513d602081101561148a57600080fd5b5051151561149757600080fd5b60408051828152905133917f26ffb867a6b19bc0240d4e732ed6cfb0f0b6d93143a99cfb24ba5873308861f8919081900360200190a250565b60115490565b610cc681612b7a565b600554600160a060020a031690565b600854600160a060020a031681565b60025481565b6060600e73__PaymentMethods________________________633b3d1a2290916040518263ffffffff1660e060020a0281526004018082815260200191505060006040518083038186803b15801561155a57600080fd5b505af415801561156e573d6000803e3d6000fd5b505050506040513d6000823e601f3d908101601f19168201604052602081101561159757600080fd5b8101908080516401000000008111156115af57600080fd5b820160208101848111156115c257600080fd5b81518560208202830111640100000000821117156115df57600080fd5b509094505050505090565b600c54600160a060020a031681565b600080611604611f06565b9392505050565b604051600160a060020a03821690303180156108fc02916000818181858888f19350505050158015611641573d6000803e3d6000fd5b5050565b610cc681612bc2565b60105490565b600d54600160a060020a031681565b601080548290811061167157fe5b600091825260209091206005909102018054600182015460029092015463ffffffff8083169450640100000000909204821692911684565b600a5481565b6116b7613347565b6000806116c2613347565b6116ca611f06565b925092508115156116da57611958565b856116e3612416565b14611770576008546040805160e060020a63cfec719f028152600481018990529051600160a060020a039092169163cfec719f916024808201926020929091908290030181600087803b15801561173957600080fd5b505af115801561174d573d6000803e3d6000fd5b505050506040513d602081101561176357600080fd5b5051151561177057611958565b61177986612c0a565b905073__PurchaseProcessing____________________6391bfca3187876010878154811015156117a657fe5b9060005260206000209060050201600101546010888154811015156117c757fe5b90600052602060002090600502016003016010898154811015156117e757fe5b6000918252602082206004600590920201019088906020020151886001602002015189600260200201518a600360200201518b600460200201516040518b63ffffffff1660e060020a028152600401808b600019166000191681526020018a8152602001898152602001806020018060200188815260200187815260200186815260200185815260200184815260200183810383528a81815481526020019150805480156118b457602002820191906000526020600020905b8154815260200190600101908083116118a0575b505083810382528981815481526020019150805480156118f357602002820191906000526020600020905b8154815260200190600101908083116118df575b50509c5050505050505050505050505060a06040518083038186803b15801561191b57600080fd5b505af415801561192f573d6000803e3d6000fd5b505050506040513d601f19601f8201168201806040525060a081101561195457600080fd5b5093505b50505092915050565b61196a33612afb565b565b600754600160a060020a031690565b60095481565b60105460009015806119c457506010805442919060001981019081106119a357fe5b6000918252602090912060059091020154640100000000900463ffffffff16105b905090565b60105460009081106119da57600080fd5b6010805460001981019081106119ec57fe5b6000918252602090912060059091020154640100000000900463ffffffff16919050565b600754600160a060020a031681565b600354600160a060020a031690565b600b55565b61196a33612f01565b610cc681612f01565b611a4d613366565b73__PurchaseProcessing____________________636cd5c0568484600a54600b546040518563ffffffff1660e060020a02815260040180858152602001848152602001838152602001828152602001945050505050604080518083038186803b158015611aba57600080fd5b505af4158015611ace573d6000803e3d6000fd5b505050506040513d601f19601f820116820180604052506040811015611af357600080fd5b509392505050565b601054600090811015611b3a574260106000815481101515611b1957fe5b600091825260209091206005909102015463ffffffff1611611b3a57600080fd5b8b1515611b4657600080fd5b60ff8c1115611b5457600080fd5b60ff881115611b6257600080fd5b600286048814611b7157600080fd5b60028404881115611b8157600080fd5b811515611b8d57600080fd5b5060005b81811015611c3957600854600160a060020a0316637d20abf8848484818110611bb657fe5b6040805160e060020a63ffffffff87160281526020928302949094013560048501525160248085019492935090918290030181600087803b158015611bfa57600080fd5b505af1158015611c0e573d6000803e3d6000fd5b505050506040513d6020811015611c2457600080fd5b50511515611c3157600080fd5b600101611b91565b611cd28d8d808060200260200160405190810160405280939291908181526020016000905b82821015611c9a576040805160c08181019092529080840287019060069083908390808284375050509183525050600190910190602001611c5e565b50505050508c8c8080602002602001604051908101604052809392919081815260200183836020028082843750612f49945050505050565b611d998989808060200260200160405190810160405280939291908181526020016000905b82821015611d33576040805160808181019092529080840287019060049083908390808284375050509183525050600190910190602001611cf7565b50505050508888808060200260200160405190810160405280939291908181526020018383602002808284375050604080516020601f8e018190048102820181019092528c815294508c93508b925082915084018382808284375061308f945050505050565b604080517ff24950e2000000000000000000000000000000000000000000000000000000008152600e60048201818152602483019384526044830186905273__PaymentMethods________________________9363f24950e293889288929091606401846020850280828437820191505094505050505060006040518083038186803b158015611e2857600080fd5b505af4158015611e3c573d6000803e3d6000fd5b50506040517f072792b04aecd99b2250bc76fb25f9bca793c3b7383cb4c7255a7a01e8f5a12e925060009150a150505050505050505050505050565b60115460009081901580611e915750611e8f611981565b155b15611e9b57610cb9565b5060015b6011546000190182108015611ee357506011805483908110611ebd57fe5b6000918252602090912060059091020160020154640100000000900463ffffffff164210155b15610cb957600190910190611e9f565b600061119760018363ffffffff612b4316565b60008080805b601054821015611f7b576010805483908110611f2457fe5b6000918252602090912060059091020180549091504263ffffffff90911611801590611f5f575080544264010000000090910463ffffffff16115b15611f705781600193509350611f83565b600190910190611f0c565b600093508392505b50509091565b6011805482908110611f9757fe5b60009182526020918290206005919091020180546001808301546002808501546003860180546040805161010097831615979097026000190190911693909304601f810189900489028601890190935282855263ffffffff958616985092968582169664010000000090920490951694909392919083018282801561205d5780601f106120325761010080835404028352916020019161205d565b820191906000526020600020905b81548152906001019060200180831161204057829003601f168201915b5050505060048301805460408051602060026001851615610100026000190190941693909304601f81018490048402820184019092528181529495949350908301828280156120ed5780601f106120c2576101008083540402835291602001916120ed565b820191906000526020600020905b8154815290600101906020018083116120d057829003601f168201915b5050505050905086565b600354600160a060020a0316331461210e57600080fd5b6010546000101561214b57426010600081548110151561212a57fe5b600091825260209091206005909102015463ffffffff161161214b57600080fd5b600c54610cc6908290600160a060020a0316613240565b61216a613381565b600080612175613347565b61217d611f06565b9250925081151561218d57611958565b85612196612416565b14612223576008546040805160e060020a63cfec719f028152600481018990529051600160a060020a039092169163cfec719f916024808201926020929091908290030181600087803b1580156121ec57600080fd5b505af1158015612200573d6000803e3d6000fd5b505050506040513d602081101561221657600080fd5b5051151561222357611958565b61222c86612c0a565b905073__PurchaseProcessing____________________6391dab422878760108781548110151561225957fe5b90600052602060002090600502016001015460108881548110151561227a57fe5b906000526020600020906005020160030160108981548110151561229a57fe5b6000918252602082206004600590920201019088906020020151886001602002015189600260200201518a600360200201518b600460200201516040518b63ffffffff1660e060020a028152600401808b600019166000191681526020018a8152602001898152602001806020018060200188815260200187815260200186815260200185815260200184815260200183810383528a818154815260200191508054801561236757602002820191906000526020600020905b815481526020019060010190808311612353575b505083810382528981815481526020019150805480156123a657602002820191906000526020600020905b815481526020019060010190808311612392575b50509c5050505050505050505050505060806040518083038186803b1580156123ce57600080fd5b505af41580156123e2573d6000803e3d6000fd5b505050506040513d601f19601f82011682018060405250608081101561195457600080fd5b600554600160a060020a031681565b7f455448000000000000000000000000000000000000000000000000000000000090565b6008546040805160e060020a63cfec719f02815260048101849052905173__PurchaseProcessing____________________92633676737c9286928692600160a060020a03169163cfec719f9160248083019260209291908290030181600087803b1580156124a857600080fd5b505af11580156124bc573d6000803e3d6000fd5b505050506040513d60208110156124d257600080fd5b50516124df57600061255d565b6008546040805160e460020a630b12e441028152600481018890529051600160a060020a039092169163b12e4410916024808201926020929091908290030181600087803b15801561253057600080fd5b505af1158015612544573d6000803e3d6000fd5b505050506040513d602081101561255a57600080fd5b50515b600554600654600d54600c546040805163ffffffff8a1660e060020a028152600160a060020a0395861695948516949384169390921691600401908190899080838360005b838110156125ba5781810151838201526020016125a2565b50505050919091019788525050600160a060020a039485166020870152928416604080870191909152918416606086015283166080850152911660a08301525160c08083019350600092829003018186803b15801561261857600080fd5b505af4158015610bcb573d6000803e3d6000fd5b6008546040805160e060020a63cfec719f02815260048101849052905173__PurchaseProcessing____________________92634bb1e9ff928892889288928892600160a060020a039092169163cfec719f916024808201926020929091908290030181600087803b1580156126a157600080fd5b505af11580156126b5573d6000803e3d6000fd5b505050506040513d60208110156126cb57600080fd5b50516126d8576000612756565b6008546040805160e460020a630b12e441028152600481018a90529051600160a060020a039092169163b12e4410916024808201926020929091908290030181600087803b15801561272957600080fd5b505af115801561273d573d6000803e3d6000fd5b505050506040513d602081101561275357600080fd5b50515b60055460405160e060020a63ffffffff8916028152600160a060020a0390911690600401808760a080838360005b8381101561279c578181015183820152602001612784565b5050505090500186600260200280838360005b838110156127c75781810151838201526020016127af565b50505063ffffffff909816920191825250602081019490945250600160a060020a039182166040808501919091529116606083015251608080830195506000945090925090829003018186803b15801561282057600080fd5b505af4158015612834573d6000803e3d6000fd5b5050505050505050565b612846612416565b81141561291a57600754600160a060020a031663d0baf2f561287e84600160200201518660015b60200201519063ffffffff61329616565b855160208601513391908690612896908a600161286d565b89600260200201516040805160e060020a63ffffffff8a16028152600160a060020a03909616600487015260248601949094526044850192909252606484015260848301525160a480830192600092919082900301818588803b1580156128fc57600080fd5b505af1158015612910573d6000803e3d6000fd5b5050505050612af6565b6008546040805160e460020a630b12e441028152600481018490529051600160a060020a039092169163b12e4410916024808201926020929091908290030181600087803b15801561296b57600080fd5b505af115801561297f573d6000803e3d6000fd5b505050506040513d602081101561299557600080fd5b5051600754600160a060020a039182169163a9059cbb91166129c0856001602002015187600161286d565b6040518363ffffffff1660e060020a0281526004018083600160a060020a0316600160a060020a0316815260200182815260200192505050602060405180830381600087803b158015612a1257600080fd5b505af1158015612a26573d6000803e3d6000fd5b505050506040513d6020811015612a3c57600080fd5b50511515612a4957600080fd5b600754600160a060020a031663d0baf2f533856000602002015184612a77876001602002015189600161286d565b88600260200201516040805160e060020a63ffffffff8916028152600160a060020a03909616600487015260248601949094526044850192909252606484015260848301525160a480830192600092919082900301818387803b158015612add57600080fd5b505af1158015612af1573d6000803e3d6000fd5b505050505b505050565b612b0c60008263ffffffff6132ad16565b604051600160a060020a038216907fa3b62bc36326052d97ea62d63c3d60308ed4c3ea8ac079dd8499f1e9c4f80c0f90600090a250565b6000600160a060020a0382161515612b5a57600080fd5b50600160a060020a03166000908152602091909152604090205460ff1690565b612b8b60018263ffffffff6132f916565b604051600160a060020a038216907f941e31c3e651de34a7fcf0132d9d02c2df9377e6b5f932bec5daf6353c94f90e90600090a250565b612bd360008263ffffffff6132f916565b604051600160a060020a038216907f44d6d25963f097ad14f29f06854a01f575648a1ef82f30e562ccd3889717e33990600090a250565b612c12613347565b600854604080517f8eaa6ac0000000000000000000000000000000000000000000000000000000008152600481018590529051600160a060020a0390921691638eaa6ac0916024808201926020929091908290030181600087803b158015612c7957600080fd5b505af1158015612c8d573d6000803e3d6000fd5b505050506040513d6020811015612ca357600080fd5b50518152600954602080830191909152600554604080517f313ce5670000000000000000000000000000000000000000000000000000000081529051600160a060020a039092169263313ce567926004808401938290030181600087803b158015612d0d57600080fd5b505af1158015612d21573d6000803e3d6000fd5b505050506040513d6020811015612d3757600080fd5b505160ff16604082015281612d4a612416565b14612e5d576008546040805160e460020a630b12e441028152600481018590529051600160a060020a039092169163b12e4410916024808201926020929091908290030181600087803b158015612da057600080fd5b505af1158015612db4573d6000803e3d6000fd5b505050506040513d6020811015612dca57600080fd5b5051604080517f313ce5670000000000000000000000000000000000000000000000000000000081529051600160a060020a039092169163313ce567916004808201926020929091908290030181600087803b158015612e2957600080fd5b505af1158015612e3d573d6000803e3d6000fd5b505050506040513d6020811015612e5357600080fd5b505160ff16612e60565b60125b6060820152600554604080517f70a082310000000000000000000000000000000000000000000000000000000081523060048201529051600160a060020a03909216916370a08231916024808201926020929091908290030181600087803b158015612ecb57600080fd5b505af1158015612edf573d6000803e3d6000fd5b505050506040513d6020811015612ef557600080fd5b50516080820152919050565b612f1260018263ffffffff6132ad16565b604051600160a060020a038216907fa3bfdef3d8149bacf15b7b64199fca8228c0fd4f8fcdd11cc7871829baf319c390600090a250565b73__Crowdsale_____________________________63ae1c60546010601185856040518563ffffffff1660e060020a0281526004018085815260200184815260200180602001806020018381038352858181518152602001915080516000925b81841015612feb5760208085028401015160c080838360005b83811015612fda578181015183820152602001612fc2565b505050509050019260010192612fa9565b868103855287518152875160209182019450818901935002905080838360005b8381101561302357818101518382015260200161300b565b50505050905001965050505050505060006040518083038186803b15801561304a57600080fd5b505af415801561305e573d6000803e3d6000fd5b50506040517f743961f4e677d1146fbf85d75565b1c5474fd083eb166f8b9595cf5d01a4d6e6925060009150a15050565b73__Crowdsale_____________________________63e1231f1e601060118686866040518663ffffffff1660e060020a028152600401808681526020018581526020018060200180602001806020018481038452878181518152602001915080516000925b8184101561313657602080850284010151608080838360005b8381101561312557818101518382015260200161310d565b5050505090500192600101926130f4565b878103865289518152895160209182019450818b01935002905080838360005b8381101561316e578181015183820152602001613156565b50505050905001848103825285818151815260200191508051906020019080838360005b838110156131aa578181015183820152602001613192565b50505050905090810190601f1680156131d75780820380516001836020036101000a031916815260200191505b509850505050505050505060006040518083038186803b1580156131fa57600080fd5b505af415801561320e573d6000803e3d6000fd5b50506040517f56d9a2e016027a3725bf162ef2779c8b28d4dbec97c679cfba02dbb31a34c7ca925060009150a1505050565b6000821161324d57600080fd5b600160a060020a038116151561326257600080fd5b600991909155600c805473ffffffffffffffffffffffffffffffffffffffff1916600160a060020a03909216919091179055565b600080838311156132a657600080fd5b5050900390565b600160a060020a03811615156132c257600080fd5b6132cc8282612b43565b15156132d757600080fd5b600160a060020a0316600090815260209190915260409020805460ff19169055565b600160a060020a038116151561330e57600080fd5b6133188282612b43565b1561332257600080fd5b600160a060020a0316600090815260209190915260409020805460ff19166001179055565b60a0604051908101604052806005906020820280388339509192915050565b60408051808201825290600290829080388339509192915050565b60806040519081016040528060049060208202803883395091929150505600a165627a7a72305820af7d82c03761396098e260777f4c702f09bd1bebac91f11dcb0f433cf687adb30029",
  "source": "pragma solidity ^0.4.24;\n\nimport \"../../rates/IRates.sol\";\nimport \"../../crowdsale/W12Crowdsale.sol\";\n\ncontract W12CrowdsaleStub is W12Crowdsale {\n    constructor (\n        uint version,\n        address _originToken,\n        address _token,\n        uint _price,\n        address _serviceWallet,\n        address _swap,\n        uint _serviceFee,\n        uint _WTokenSaleFeePercent,\n        IW12Fund _fund,\n        IRates _rates\n    )\n        W12Crowdsale(\n            version,\n            _originToken,\n             _token,\n             _price,\n             _serviceWallet,\n             _swap,\n             _serviceFee,\n            _WTokenSaleFeePercent,\n             _fund,\n            _rates\n        ) public\n    {}\n\n    function _outTokens(address to, uint amount) external returns (bool) {\n        return token.transfer(to, amount);\n    }\n\n    function _outEther(address to) external {\n        return to.transfer(address(this).balance);\n    }\n\n    function _setState(uint _WTokenSaleFeePercent) external {\n        WTokenSaleFeePercent = _WTokenSaleFeePercent;\n    }\n\n    modifier onlyAdmin {\n        _;\n    }\n\n    modifier onlyProjectOwner {\n        _;\n    }\n}\n",
  "sourcePath": "/home/circleci/code/contracts/mocks/crowdsale/W12CrowdsaleStub.sol",
  "compiler": {
    "name": "solc",
    "version": "0.4.24+commit.e67f0147.Emscripten.clang"
  },
  "schemaVersion": "2.0.1",
  "updatedAt": "2018-12-06T13:18:18.791Z"
}