{
  "contractName": "W12CrowdsaleStub",
  "abi": [
    {
      "constant": false,
      "inputs": [
        {
          "name": "method",
          "type": "bytes32"
        },
        {
          "name": "amount",
          "type": "uint256"
        }
      ],
      "name": "buyTokens",
      "outputs": [],
      "payable": true,
      "stateMutability": "payable",
      "type": "function"
    },
    {
      "constant": true,
      "inputs": [
        {
          "name": "_method",
          "type": "bytes32"
        }
      ],
      "name": "isPaymentMethodAllowed",
      "outputs": [
        {
          "name": "",
          "type": "bool"
        }
      ],
      "payable": false,
      "stateMutability": "view",
      "type": "function"
    },
    {
      "constant": true,
      "inputs": [],
      "name": "originToken",
      "outputs": [
        {
          "name": "",
          "type": "address"
        }
      ],
      "payable": false,
      "stateMutability": "view",
      "type": "function"
    },
    {
      "constant": true,
      "inputs": [],
      "name": "getLastMilestoneIndex",
      "outputs": [
        {
          "name": "index",
          "type": "uint256"
        },
        {
          "name": "found",
          "type": "bool"
        }
      ],
      "payable": false,
      "stateMutability": "view",
      "type": "function"
    },
    {
      "constant": true,
      "inputs": [
        {
          "name": "value",
          "type": "uint256"
        }
      ],
      "name": "getSaleVolumeBonus",
      "outputs": [
        {
          "name": "bonus",
          "type": "uint256"
        }
      ],
      "payable": false,
      "stateMutability": "view",
      "type": "function"
    },
    {
      "constant": true,
      "inputs": [
        {
          "name": "index",
          "type": "uint256"
        }
      ],
      "name": "getMilestone",
      "outputs": [
        {
          "name": "",
          "type": "uint32"
        },
        {
          "name": "",
          "type": "uint256"
        },
        {
          "name": "",
          "type": "uint32"
        },
        {
          "name": "",
          "type": "uint32"
        },
        {
          "name": "",
          "type": "bytes"
        },
        {
          "name": "",
          "type": "bytes"
        }
      ],
      "payable": false,
      "stateMutability": "view",
      "type": "function"
    },
    {
      "constant": true,
      "inputs": [
        {
          "name": "index",
          "type": "uint256"
        }
      ],
      "name": "getStage",
      "outputs": [
        {
          "name": "",
          "type": "uint32"
        },
        {
          "name": "",
          "type": "uint32"
        },
        {
          "name": "",
          "type": "uint256"
        },
        {
          "name": "",
          "type": "uint32"
        },
        {
          "name": "",
          "type": "uint256[]"
        },
        {
          "name": "",
          "type": "uint256[]"
        }
      ],
      "payable": false,
      "stateMutability": "view",
      "type": "function"
    },
    {
      "constant": true,
      "inputs": [],
      "name": "WTokenSaleFeePercent",
      "outputs": [
        {
          "name": "",
          "type": "uint256"
        }
      ],
      "payable": false,
      "stateMutability": "view",
      "type": "function"
    },
    {
      "constant": false,
      "inputs": [],
      "name": "claimRemainingTokens",
      "outputs": [],
      "payable": false,
      "stateMutability": "nonpayable",
      "type": "function"
    },
    {
      "constant": true,
      "inputs": [],
      "name": "milestonesLength",
      "outputs": [
        {
          "name": "",
          "type": "uint256"
        }
      ],
      "payable": false,
      "stateMutability": "view",
      "type": "function"
    },
    {
      "constant": true,
      "inputs": [],
      "name": "getWToken",
      "outputs": [
        {
          "name": "",
          "type": "address"
        }
      ],
      "payable": false,
      "stateMutability": "view",
      "type": "function"
    },
    {
      "constant": true,
      "inputs": [],
      "name": "rates",
      "outputs": [
        {
          "name": "",
          "type": "address"
        }
      ],
      "payable": false,
      "stateMutability": "view",
      "type": "function"
    },
    {
      "constant": true,
      "inputs": [],
      "name": "version",
      "outputs": [
        {
          "name": "",
          "type": "uint256"
        }
      ],
      "payable": false,
      "stateMutability": "view",
      "type": "function"
    },
    {
      "constant": true,
      "inputs": [],
      "name": "getPaymentMethodsList",
      "outputs": [
        {
          "name": "",
          "type": "bytes32[]"
        }
      ],
      "payable": false,
      "stateMutability": "view",
      "type": "function"
    },
    {
      "constant": true,
      "inputs": [],
      "name": "serviceWallet",
      "outputs": [
        {
          "name": "",
          "type": "address"
        }
      ],
      "payable": false,
      "stateMutability": "view",
      "type": "function"
    },
    {
      "constant": true,
      "inputs": [],
      "name": "isSaleActive",
      "outputs": [
        {
          "name": "",
          "type": "bool"
        }
      ],
      "payable": false,
      "stateMutability": "view",
      "type": "function"
    },
    {
      "constant": false,
      "inputs": [],
      "name": "renounceOwnership",
      "outputs": [],
      "payable": false,
      "stateMutability": "nonpayable",
      "type": "function"
    },
    {
      "constant": true,
      "inputs": [],
      "name": "stagesLength",
      "outputs": [
        {
          "name": "",
          "type": "uint256"
        }
      ],
      "payable": false,
      "stateMutability": "view",
      "type": "function"
    },
    {
      "constant": true,
      "inputs": [],
      "name": "swap",
      "outputs": [
        {
          "name": "",
          "type": "address"
        }
      ],
      "payable": false,
      "stateMutability": "view",
      "type": "function"
    },
    {
      "constant": true,
      "inputs": [
        {
          "name": "",
          "type": "uint256"
        }
      ],
      "name": "stages",
      "outputs": [
        {
          "name": "startDate",
          "type": "uint32"
        },
        {
          "name": "endDate",
          "type": "uint32"
        },
        {
          "name": "discount",
          "type": "uint256"
        },
        {
          "name": "vesting",
          "type": "uint32"
        }
      ],
      "payable": false,
      "stateMutability": "view",
      "type": "function"
    },
    {
      "constant": true,
      "inputs": [],
      "name": "serviceFee",
      "outputs": [
        {
          "name": "",
          "type": "uint256"
        }
      ],
      "payable": false,
      "stateMutability": "view",
      "type": "function"
    },
    {
      "constant": true,
      "inputs": [
        {
          "name": "method",
          "type": "bytes32"
        },
        {
          "name": "amount",
          "type": "uint256"
        }
      ],
      "name": "getInvoice",
      "outputs": [
        {
          "name": "",
          "type": "uint256[5]"
        }
      ],
      "payable": false,
      "stateMutability": "view",
      "type": "function"
    },
    {
      "constant": true,
      "inputs": [],
      "name": "owner",
      "outputs": [
        {
          "name": "",
          "type": "address"
        }
      ],
      "payable": false,
      "stateMutability": "view",
      "type": "function"
    },
    {
      "constant": true,
      "inputs": [],
      "name": "getFund",
      "outputs": [
        {
          "name": "",
          "type": "address"
        }
      ],
      "payable": false,
      "stateMutability": "view",
      "type": "function"
    },
    {
      "constant": true,
      "inputs": [],
      "name": "price",
      "outputs": [
        {
          "name": "",
          "type": "uint256"
        }
      ],
      "payable": false,
      "stateMutability": "view",
      "type": "function"
    },
    {
      "constant": true,
      "inputs": [],
      "name": "isEnded",
      "outputs": [
        {
          "name": "",
          "type": "bool"
        }
      ],
      "payable": false,
      "stateMutability": "view",
      "type": "function"
    },
    {
      "constant": true,
      "inputs": [],
      "name": "getEndDate",
      "outputs": [
        {
          "name": "",
          "type": "uint32"
        }
      ],
      "payable": false,
      "stateMutability": "view",
      "type": "function"
    },
    {
      "constant": true,
      "inputs": [],
      "name": "fund",
      "outputs": [
        {
          "name": "",
          "type": "address"
        }
      ],
      "payable": false,
      "stateMutability": "view",
      "type": "function"
    },
    {
      "constant": true,
      "inputs": [
        {
          "name": "tokenAmount",
          "type": "uint256"
        },
        {
          "name": "cost",
          "type": "uint256"
        }
      ],
      "name": "getFee",
      "outputs": [
        {
          "name": "",
          "type": "uint256[2]"
        }
      ],
      "payable": false,
      "stateMutability": "view",
      "type": "function"
    },
    {
      "constant": false,
      "inputs": [
        {
          "name": "parametersOfStages",
          "type": "uint256[6][]"
        },
        {
          "name": "bonusConditionsOfStages",
          "type": "uint256[]"
        },
        {
          "name": "parametersOfMilestones",
          "type": "uint256[4][]"
        },
        {
          "name": "nameAndDescriptionsOffsetOfMilestones",
          "type": "uint32[]"
        },
        {
          "name": "nameAndDescriptionsOfMilestones",
          "type": "bytes"
        },
        {
          "name": "paymentMethodsList",
          "type": "bytes32[]"
        }
      ],
      "name": "setup",
      "outputs": [],
      "payable": false,
      "stateMutability": "nonpayable",
      "type": "function"
    },
    {
      "constant": true,
      "inputs": [],
      "name": "getCurrentMilestoneIndex",
      "outputs": [
        {
          "name": "index",
          "type": "uint256"
        },
        {
          "name": "found",
          "type": "bool"
        }
      ],
      "payable": false,
      "stateMutability": "view",
      "type": "function"
    },
    {
      "constant": true,
      "inputs": [],
      "name": "getCurrentStageIndex",
      "outputs": [
        {
          "name": "index",
          "type": "uint256"
        },
        {
          "name": "found",
          "type": "bool"
        }
      ],
      "payable": false,
      "stateMutability": "view",
      "type": "function"
    },
    {
      "constant": true,
      "inputs": [
        {
          "name": "",
          "type": "uint256"
        }
      ],
      "name": "milestones",
      "outputs": [
        {
          "name": "endDate",
          "type": "uint32"
        },
        {
          "name": "tranchePercent",
          "type": "uint256"
        },
        {
          "name": "voteEndDate",
          "type": "uint32"
        },
        {
          "name": "withdrawalWindow",
          "type": "uint32"
        },
        {
          "name": "name",
          "type": "bytes"
        },
        {
          "name": "description",
          "type": "bytes"
        }
      ],
      "payable": false,
      "stateMutability": "view",
      "type": "function"
    },
    {
      "constant": false,
      "inputs": [
        {
          "name": "_price",
          "type": "uint256"
        }
      ],
      "name": "setParameters",
      "outputs": [],
      "payable": false,
      "stateMutability": "nonpayable",
      "type": "function"
    },
    {
      "constant": false,
      "inputs": [
        {
          "name": "_newOwner",
          "type": "address"
        }
      ],
      "name": "transferOwnership",
      "outputs": [],
      "payable": false,
      "stateMutability": "nonpayable",
      "type": "function"
    },
    {
      "constant": true,
      "inputs": [],
      "name": "token",
      "outputs": [
        {
          "name": "",
          "type": "address"
        }
      ],
      "payable": false,
      "stateMutability": "view",
      "type": "function"
    },
    {
      "inputs": [
        {
          "name": "version",
          "type": "uint256"
        },
        {
          "name": "_originToken",
          "type": "address"
        },
        {
          "name": "_token",
          "type": "address"
        },
        {
          "name": "_price",
          "type": "uint256"
        },
        {
          "name": "_serviceWallet",
          "type": "address"
        },
        {
          "name": "_swap",
          "type": "address"
        },
        {
          "name": "_serviceFee",
          "type": "uint256"
        },
        {
          "name": "_WTokenSaleFeePercent",
          "type": "uint256"
        },
        {
          "name": "_fund",
          "type": "address"
        },
        {
          "name": "_rates",
          "type": "address"
        }
      ],
      "payable": false,
      "stateMutability": "nonpayable",
      "type": "constructor"
    },
    {
      "anonymous": false,
      "inputs": [
        {
          "indexed": true,
          "name": "buyer",
          "type": "address"
        },
        {
          "indexed": false,
          "name": "tokensBought",
          "type": "uint256"
        },
        {
          "indexed": false,
          "name": "cost",
          "type": "uint256"
        },
        {
          "indexed": false,
          "name": "change",
          "type": "uint256"
        }
      ],
      "name": "TokenPurchase",
      "type": "event"
    },
    {
      "anonymous": false,
      "inputs": [],
      "name": "StagesUpdated",
      "type": "event"
    },
    {
      "anonymous": false,
      "inputs": [
        {
          "indexed": false,
          "name": "index",
          "type": "uint256"
        }
      ],
      "name": "StageUpdated",
      "type": "event"
    },
    {
      "anonymous": false,
      "inputs": [],
      "name": "MilestonesUpdated",
      "type": "event"
    },
    {
      "anonymous": false,
      "inputs": [
        {
          "indexed": true,
          "name": "owner",
          "type": "address"
        },
        {
          "indexed": false,
          "name": "amount",
          "type": "uint256"
        }
      ],
      "name": "UnsoldTokenReturned",
      "type": "event"
    },
    {
      "anonymous": false,
      "inputs": [
        {
          "indexed": true,
          "name": "previousOwner",
          "type": "address"
        }
      ],
      "name": "OwnershipRenounced",
      "type": "event"
    },
    {
      "anonymous": false,
      "inputs": [
        {
          "indexed": true,
          "name": "previousOwner",
          "type": "address"
        },
        {
          "indexed": true,
          "name": "newOwner",
          "type": "address"
        }
      ],
      "name": "OwnershipTransferred",
      "type": "event"
    },
    {
      "constant": false,
      "inputs": [
        {
          "name": "to",
          "type": "address"
        },
        {
          "name": "amount",
          "type": "uint256"
        }
      ],
      "name": "_outTokens",
      "outputs": [
        {
          "name": "",
          "type": "bool"
        }
      ],
      "payable": false,
      "stateMutability": "nonpayable",
      "type": "function"
    },
    {
      "constant": false,
      "inputs": [
        {
          "name": "to",
          "type": "address"
        }
      ],
      "name": "_outEther",
      "outputs": [],
      "payable": false,
      "stateMutability": "nonpayable",
      "type": "function"
    },
    {
      "constant": false,
      "inputs": [
        {
          "name": "_WTokenSaleFeePercent",
          "type": "uint256"
        }
      ],
      "name": "_setState",
      "outputs": [],
      "payable": false,
      "stateMutability": "nonpayable",
      "type": "function"
    }
  ],
  "bytecode": "0x608060405260016002553480156200001657600080fd5b50604051610140806200496383398101604090815281516020830151918301516060840151608085015160a086015160c087015160e088015161010089015161012090990151600088905560018054600160a060020a0319163317905596989596949593949293919290919089898989898989898989600160a060020a0389161515620000a257600080fd5b600160a060020a0388161515620000b857600080fd5b620000d18464010000000062003d6d6200021f82021704565b8015620000f657506064620000f485640100000000620045a36200025c82021704565b105b15156200010257600080fd5b6200011b8364010000000062003d6d6200021f82021704565b801562000140575060646200013e84640100000000620045a36200025c82021704565b105b15156200014c57600080fd5b600160a060020a03821615156200016257600080fd5b600160a060020a03851615156200017857600080fd5b600160a060020a03811615156200018e57600080fd5b620001a38787640100000000620002ae810204565b60038054600160a060020a0319908116600160a060020a039a8b16179091556004805482169a8a169a909a17909955600893909355600b8054891694881694909417909355600955600580548716928616929092179091556006805490951693169290921790925550620003539b505050505050505050505050565b600062000234640100000000620002f9810204565b821015801562000256575062000252640100000000620002fe810204565b8211155b92915050565b600062000272826401000000006200021f810204565b15156200027e57600080fd5b62000256620002956401000000006200031b810204565b8390600a0a640100000000620041bb6200032082021704565b60008211620002bc57600080fd5b600160a060020a0381161515620002d257600080fd5b600791909155600a8054600160a060020a031916600160a060020a03909216919091179055565b600090565b60006200031364010000000062000336810204565b600a0a905090565b600290565b600081838115156200032e57fe5b049392505050565b60006200034b6401000000006200031b810204565b600201905090565b61460080620003636000396000f3006080604052600436106101c95763ffffffff60e060020a60003504166307f5d63381146101ce57806311eb8c9f146101de57806313096a411461020a57806314f66d341461023b5780631aecc19f14610269578063208853c91461028d5780632442e1cb146102b75780632e325020146103ed5780632fbe5990146104de578063313602d4146104f35780633baba4d7146105085780634090cb641461051d57806343f48fbd1461053257806354fd4d5014610547578063550fd7421461055c5780635641f3c3146105c1578063564566a8146105d65780635773caaf146105eb578063715018a61461060c578063792c02ea146106215780638119c06514610636578063845ddcb21461064b5780638abdf5aa146106945780638aea2af8146106a95780638da5cb5b146106fc5780638edd6eb614610711578063a035b1fe14610726578063a4fd6f561461073b578063b135648814610750578063b60d42881461077e578063ca7348a314610793578063d250185c146107ab578063d5b22623146107dd578063d6d65f3d14610839578063daa4cf881461084e578063e89e4ed614610863578063e93b05401461087b578063f2fde38b14610893578063fc0c546a146108b4575b600080fd5b6101dc6004356024356108c9565b005b3480156101ea57600080fd5b506101f6600435610ad0565b604080519115158252519081900360200190f35b34801561021657600080fd5b5061021f610ae9565b60408051600160a060020a039092168252519081900360200190f35b34801561024757600080fd5b50610250610af8565b6040805192835290151560208301528051918290030190f35b34801561027557600080fd5b506101f6600160a060020a0360043516602435610b2b565b34801561029957600080fd5b506102a5600435610bd0565b60408051918252519081900360200190f35b3480156102c357600080fd5b506102cf600435610cc6565b604051808763ffffffff1663ffffffff1681526020018681526020018563ffffffff1663ffffffff1681526020018463ffffffff1663ffffffff1681526020018060200180602001838103835285818151815260200191508051906020019080838360005b8381101561034c578181015183820152602001610334565b50505050905090810190601f1680156103795780820380516001836020036101000a031916815260200191505b50838103825284518152845160209182019186019080838360005b838110156103ac578181015183820152602001610394565b50505050905090810190601f1680156103d95780820380516001836020036101000a031916815260200191505b509850505050505050505060405180910390f35b3480156103f957600080fd5b50610405600435610ef3565b604051808763ffffffff1663ffffffff1681526020018663ffffffff1663ffffffff1681526020018581526020018463ffffffff1663ffffffff1681526020018060200180602001838103835285818151815260200191508051906020019060200280838360005b8381101561048557818101518382015260200161046d565b50505050905001838103825284818151815260200191508051906020019060200280838360005b838110156104c45781810151838201526020016104ac565b505050509050019850505050505050505060405180910390f35b3480156104ea57600080fd5b506102a5611099565b3480156104ff57600080fd5b506101dc61109f565b34801561051457600080fd5b506102a561124e565b34801561052957600080fd5b5061021f611255565b34801561053e57600080fd5b5061021f611264565b34801561055357600080fd5b506102a5611273565b34801561056857600080fd5b50610571611279565b60408051602080825283518183015283519192839290830191858101910280838360005b838110156105ad578181015183820152602001610595565b505050509050019250505060405180910390f35b3480156105cd57600080fd5b5061021f61128a565b3480156105e257600080fd5b506101f6611299565b3480156105f757600080fd5b506101dc600160a060020a03600435166112af565b34801561061857600080fd5b506101dc6112ea565b34801561062d57600080fd5b506102a5611358565b34801561064257600080fd5b5061021f61135e565b34801561065757600080fd5b5061066360043561136d565b6040805163ffffffff9586168152938516602085015283810192909252909216606082015290519081900360800190f35b3480156106a057600080fd5b506102a56113b3565b3480156106b557600080fd5b506106c46004356024356113b9565b604051808260a080838360005b838110156106e95781810151838201526020016106d1565b5050505090500191505060405180910390f35b34801561070857600080fd5b5061021f611878565b34801561071d57600080fd5b5061021f611887565b34801561073257600080fd5b506102a5611896565b34801561074757600080fd5b506101f661189c565b34801561075c57600080fd5b506107656118e3565b6040805163ffffffff9092168252519081900360200190f35b34801561078a57600080fd5b5061021f61192a565b34801561079f57600080fd5b506101dc600435611939565b3480156107b757600080fd5b506107c660043560243561193e565b6040805182518152908190839080838360206106d1565b3480156107e957600080fd5b506101dc602460048035828101929082013591813580830192908201359160443580830192908201359160643580830192908201359160843580830192908201359160a43591820191013561195d565b34801561084557600080fd5b50610250611c62565b34801561085a57600080fd5b50610250611cdd565b34801561086f57600080fd5b506102cf600435611d60565b34801561088757600080fd5b506101dc600435611ece565b34801561089f57600080fd5b506101dc600160a060020a0360043516611f39565b3480156108c057600080fd5b5061021f611f59565b60006108d3614308565b6108db614327565b6002546001146108ea57600080fd5b600280556108f6611299565b151561096357604080517f08c379a000000000000000000000000000000000000000000000000000000000815260206004820152601760248201527f53616c65206973206e6f74207374617274656420796574000000000000000000604482015290519081900360640190fd5b8461096c611f68565b14610a01576006546040805160e460020a630b12e441028152600481018890529051600092600160a060020a03169163b12e441091602480830192602092919082900301818787803b1580156109c157600080fd5b505af11580156109d5573d6000803e3d6000fd5b505050506040513d60208110156109eb57600080fd5b5051600160a060020a03161415610a0157600080fd5b610a09611cdd565b509250610a1685856113b9565b80516020820151919350610a299161193e565b9050610a358186611f8c565b610a698282600e86815481101515610a4957fe5b600091825260209091206002600590920201015463ffffffff16886120d6565b610a74828287612215565b8151602080840151606080860151604080519586529385019290925283830191909152905133927f347f5f0051b895093800553e6e78ef332849e2552639a4f5ffe66535788ae07892908290030190a250506001600255505050565b6000610ae3600c8363ffffffff6124d316565b92915050565b600454600160a060020a031681565b600f5460009081901580610b115750610b0f61189c565b155b15610b1b57610b27565b5050600f546000190160015b9091565b600354604080517fa9059cbb000000000000000000000000000000000000000000000000000000008152600160a060020a038581166004830152602482018590529151600093929092169163a9059cbb9160448082019260209290919082900301818787803b158015610b9d57600080fd5b505af1158015610bb1573d6000803e3d6000fd5b505050506040513d6020811015610bc757600080fd5b50519392505050565b600080600080610bde611cdd565b92509250811515610bee57610cbe565b600e805484908110610bfc57fe5b90600052602060002090600502019050610cbb8582600301805480602002602001604051908101604052809291908181526020018280548015610c5e57602002820191906000526020600020905b815481526020019060010190808311610c4a575b505050505083600401805480602002602001604051908101604052809291908181526020018280548015610cb157602002820191906000526020600020905b815481526020019060010190808311610c9d575b50505050506124ec565b93505b505050919050565b600080600080606080600f87815481101515610cde57fe5b6000918252602090912060059091020154600f805463ffffffff9092169189908110610d0657fe5b906000526020600020906005020160010154600f89815481101515610d2757fe5b6000918252602090912060026005909202010154600f805463ffffffff909216918b908110610d5257fe5b906000526020600020906005020160020160049054906101000a900463ffffffff16600f8b815481101515610d8357fe5b9060005260206000209060050201600301600f8c815481101515610da357fe5b9060005260206000209060050201600401818054600181600116156101000203166002900480601f016020809104026020016040519081016040528092919081815260200182805460018160011615610100020316600290048015610e495780601f10610e1e57610100808354040283529160200191610e49565b820191906000526020600020905b815481529060010190602001808311610e2c57829003601f168201915b5050845460408051602060026001851615610100026000190190941693909304601f810184900484028201840190925281815295975086945092508401905082828015610ed75780601f10610eac57610100808354040283529160200191610ed7565b820191906000526020600020905b815481529060010190602001808311610eba57829003601f168201915b5050505050905095509550955095509550955091939550919395565b600080600080606080600e87815481101515610f0b57fe5b6000918252602090912060059091020154600e805463ffffffff9092169189908110610f3357fe5b906000526020600020906005020160000160049054906101000a900463ffffffff16600e89815481101515610f6457fe5b906000526020600020906005020160010154600e8a815481101515610f8557fe5b6000918252602090912060026005909202010154600e805463ffffffff909216918c908110610fb057fe5b9060005260206000209060050201600301600e8c815481101515610fd057fe5b90600052602060002090600502016004018180548060200260200160405190810160405280929190818152602001828054801561102c57602002820191906000526020600020905b815481526020019060010190808311611018575b5050505050915080805480602002602001604051908101604052809291908181526020018280548015610ed757602002820191906000526020600020905b81548152602001906001019080831161106a575050505050905095509550955095509550955091939550919395565b60095481565b600154600090600160a060020a031633146110b957600080fd5b6110c161189c565b15156110cc57600080fd5b600354604080517f70a082310000000000000000000000000000000000000000000000000000000081523060048201529051600160a060020a03909216916370a08231916024808201926020929091908290030181600087803b15801561113257600080fd5b505af1158015611146573d6000803e3d6000fd5b505050506040513d602081101561115c57600080fd5b5051600354600154604080517fa9059cbb000000000000000000000000000000000000000000000000000000008152600160a060020a03928316600482015260248101859052905193945091169163a9059cbb916044808201926020929091908290030181600087803b1580156111d257600080fd5b505af11580156111e6573d6000803e3d6000fd5b505050506040513d60208110156111fc57600080fd5b5051151561120957600080fd5b600154604080518381529051600160a060020a03909216917f26ffb867a6b19bc0240d4e732ed6cfb0f0b6d93143a99cfb24ba5873308861f89181900360200190a250565b600f545b90565b600354600160a060020a031690565b600654600160a060020a031681565b60005481565b6060611285600c61254b565b905090565b600a54600160a060020a031681565b6000806112a4611cdd565b9150508091505b5090565b604051600160a060020a03821690303180156108fc02916000818181858888f193505050501580156112e5573d6000803e3d6000fd5b505b50565b600154600160a060020a0316331461130157600080fd5b600154604051600160a060020a03909116907ff8df31144d9c2f0f6b59d69b8b98abd5459d07f2742c4df920b25aae33c6482090600090a26001805473ffffffffffffffffffffffffffffffffffffffff19169055565b600e5490565b600b54600160a060020a031681565b600e80548290811061137b57fe5b600091825260209091206005909102018054600182015460029092015463ffffffff8083169450640100000000909204821692911684565b60085481565b6113c1614308565b6000806113cc611cdd565b915091508015156113dc57611870565b846113e5611f68565b1461147a576006546040805160e460020a630b12e441028152600481018890529051600092600160a060020a03169163b12e441091602480830192602092919082900301818787803b15801561143a57600080fd5b505af115801561144e573d6000803e3d6000fd5b505050506040513d602081101561146457600080fd5b5051600160a060020a0316141561147a57611870565b61186d8585600e8581548110151561148e57fe5b906000526020600020906005020160010154600e868154811015156114af57fe5b906000526020600020906005020160030180548060200260200160405190810160405280929190818152602001828054801561150a57602002820191906000526020600020905b8154815260200190600101908083116114f6575b5050505050600e8781548110151561151e57fe5b906000526020600020906005020160040180548060200260200160405190810160405280929190818152602001828054801561157957602002820191906000526020600020905b815481526020019060010190808311611565575b5050505050600660009054906101000a9004600160a060020a0316600160a060020a0316638eaa6ac08c6040518263ffffffff1660e060020a028152600401808260001916600019168152602001915050602060405180830381600087803b1580156115e457600080fd5b505af11580156115f8573d6000803e3d6000fd5b505050506040513d602081101561160e57600080fd5b5051600754600354604080517f313ce5670000000000000000000000000000000000000000000000000000000081529051600160a060020a039092169163313ce567916004808201926020929091908290030181600087803b15801561167357600080fd5b505af1158015611687573d6000803e3d6000fd5b505050506040513d602081101561169d57600080fd5b505160ff168d6116ab611f68565b146117d357600660009054906101000a9004600160a060020a0316600160a060020a031663b12e44108f6040518263ffffffff1660e060020a028152600401808260001916600019168152602001915050602060405180830381600087803b15801561171657600080fd5b505af115801561172a573d6000803e3d6000fd5b505050506040513d602081101561174057600080fd5b5051604080517f313ce5670000000000000000000000000000000000000000000000000000000081529051600160a060020a039092169163313ce567916004808201926020929091908290030181600087803b15801561179f57600080fd5b505af11580156117b3573d6000803e3d6000fd5b505050506040513d60208110156117c957600080fd5b505160ff166117d6565b60125b600354604080517f70a082310000000000000000000000000000000000000000000000000000000081523060048201529051600160a060020a03909216916370a08231916024808201926020929091908290030181600087803b15801561183c57600080fd5b505af1158015611850573d6000803e3d6000fd5b505050506040513d602081101561186657600080fd5b50516125a8565b92505b505092915050565b600154600160a060020a031681565b600554600160a060020a031690565b60075481565b600e5460009015806112855750600e805442919060001981019081106118be57fe5b6000918252602090912060059091020154640100000000900463ffffffff1610919050565b600e5460009081106118f457600080fd5b600e8054600019810190811061190657fe5b6000918252602090912060059091020154640100000000900463ffffffff16919050565b600554600160a060020a031681565b600955565b611946614327565b61195683836008546009546129e3565b9392505050565b600154600090600160a060020a0316331461197757600080fd5b600e54600010156119b45742600e600081548110151561199357fe5b600091825260209091206005909102015463ffffffff16116119b457600080fd5b8b15156119c057600080fd5b60ff8c11156119ce57600080fd5b60ff8811156119dc57600080fd5b6002860488146119eb57600080fd5b600284048811156119fb57600080fd5b811515611a0757600080fd5b5060005b81811015611ab357600654600160a060020a0316637d20abf8848484818110611a3057fe5b6040805160e060020a63ffffffff87160281526020928302949094013560048501525160248085019492935090918290030181600087803b158015611a7457600080fd5b505af1158015611a88573d6000803e3d6000fd5b505050506040513d6020811015611a9e57600080fd5b50511515611aab57600080fd5b600101611a0b565b611b4c8d8d808060200260200160405190810160405280939291908181526020016000905b82821015611b14576040805160c08181019092529080840287019060069083908390808284375050509183525050600190910190602001611ad8565b50505050508c8c8080602002602001604051908101604052809392919081815260200183836020028082843750612a2e945050505050565b611c138989808060200260200160405190810160405280939291908181526020016000905b82821015611bad576040805160808181019092529080840287019060049083908390808284375050509183525050600190910190602001611b71565b50505050508888808060200260200160405190810160405280939291908181526020018383602002808284375050604080516020601f8e018190048102820181019092528c815294508c93508b9250829150840183828082843750612f37945050505050565b611c5383838080602002602001604051908101604052809392919081815260200183836020028082843750600c9594505063ffffffff6134951692505050565b50505050505050505050505050565b600f5460009081901580611c7b5750611c7961189c565b155b15611c8557610b27565b5060015b600f546000190182108015611ccd5750600f805483908110611ca757fe5b6000918252602090912060059091020160020154640100000000900463ffffffff164210155b15610b2757600190910190611c89565b60008080805b600e54821015611d5257600e805483908110611cfb57fe5b6000918252602090912060059091020180549091504263ffffffff90911611801590611d36575080544264010000000090910463ffffffff16115b15611d475781600193509350611d5a565b600190910190611ce3565b600093508392505b50509091565b600f805482908110611d6e57fe5b60009182526020918290206005919091020180546001808301546002808501546003860180546040805161010097831615979097026000190190911693909304601f810189900489028601890190935282855263ffffffff9586169850929685821696640100000000909204909516949093929190830182828015611e345780601f10611e0957610100808354040283529160200191611e34565b820191906000526020600020905b815481529060010190602001808311611e1757829003601f168201915b5050505060048301805460408051602060026001851615610100026000190190941693909304601f8101849004840282018401909252818152949594935090830182828015611ec45780601f10611e9957610100808354040283529160200191611ec4565b820191906000526020600020905b815481529060010190602001808311611ea757829003601f168201915b5050505050905086565b600154600160a060020a03163314611ee557600080fd5b600e5460001015611f225742600e6000815481101515611f0157fe5b600091825260209091206005909102015463ffffffff1611611f2257600080fd5b600a546112e7908290600160a060020a0316613566565b600154600160a060020a03163314611f5057600080fd5b6112e7816135bc565b600354600160a060020a031681565b7f455448000000000000000000000000000000000000000000000000000000000090565b600654604080517fcfec719f0000000000000000000000000000000000000000000000000000000081526004810184905290516112e59285928592600160a060020a039092169163cfec719f916024808201926020929091908290030181600087803b158015611ffb57600080fd5b505af115801561200f573d6000803e3d6000fd5b505050506040513d602081101561202557600080fd5b50516120325760006120b0565b6006546040805160e460020a630b12e441028152600481018790529051600160a060020a039092169163b12e4410916024808201926020929091908290030181600087803b15801561208357600080fd5b505af1158015612097573d6000803e3d6000fd5b505050506040513d60208110156120ad57600080fd5b50515b600354600454600b54600a54600160a060020a039384169392831692918216911661363a565b600654604080517fcfec719f00000000000000000000000000000000000000000000000000000000815260048101849052905161220f928792879287928792600160a060020a039091169163cfec719f916024808201926020929091908290030181600087803b15801561214957600080fd5b505af115801561215d573d6000803e3d6000fd5b505050506040513d602081101561217357600080fd5b50516121805760006121fe565b6006546040805160e460020a630b12e441028152600481018990529051600160a060020a039092169163b12e4410916024808201926020929091908290030181600087803b1580156121d157600080fd5b505af11580156121e5573d6000803e3d6000fd5b505050506040513d60208110156121fb57600080fd5b50515b600354600160a060020a03166139c9565b50505050565b61221d611f68565b8114156122f157600554600160a060020a031663d0baf2f561225584600160200201518660015b60200201519063ffffffff613cb916565b85516020860151339190869061226d908a6001612244565b89600260200201516040805160e060020a63ffffffff8a16028152600160a060020a03909616600487015260248601949094526044850192909252606484015260848301525160a480830192600092919082900301818588803b1580156122d357600080fd5b505af11580156122e7573d6000803e3d6000fd5b50505050506124ce565b6006546040805160e460020a630b12e441028152600481018490529051600160a060020a039092169163b12e4410916024808201926020929091908290030181600087803b15801561234257600080fd5b505af1158015612356573d6000803e3d6000fd5b505050506040513d602081101561236c57600080fd5b5051600554600160a060020a039182169163a9059cbb91166123988560015b6020020151876001612244565b6040518363ffffffff1660e060020a0281526004018083600160a060020a0316600160a060020a0316815260200182815260200192505050602060405180830381600087803b1580156123ea57600080fd5b505af11580156123fe573d6000803e3d6000fd5b505050506040513d602081101561241457600080fd5b5051151561242157600080fd5b600554600160a060020a031663d0baf2f53385600060200201518461244f8760016020020151896001612244565b88600260200201516040805160e060020a63ffffffff8916028152600160a060020a03909616600487015260248601949094526044850192909252606484015260848301525160a480830192600092919082900301818387803b1580156124b557600080fd5b505af11580156124c9573d6000803e3d6000fd5b505050505b505050565b6000908152600191909101602052604090205460ff1690565b6000805b835181101561254357838181518110151561250757fe5b60209081029091010151851061253657828181518110151561252557fe5b90602001906020020151915061253b565b612543565b6001016124f0565b509392505050565b60608160000180548060200260200160405190810160405280929190818152602001828054801561259c57602002820191906000526020600020905b81548152600190910190602001808311612587575b50505050509050919050565b6125b0614308565b60006125c18c8c8989878a8a613ccb565b15156125cc57600080fd5b73__Utils_________________________________6376ba78988c868a6040518463ffffffff1660e060020a02815260040180848152602001838152602001828152602001935050505060206040518083038186803b15801561262e57600080fd5b505af4158015612642573d6000803e3d6000fd5b505050506040513d602081101561265857600080fd5b50516040830181905286111561266d57600080fd5b604082015161267d908a8a6124ec565b905060008a1161268d5785612713565b6127138a73__Percent_______________________________63d49d51816040518163ffffffff1660e060020a02815260040160206040518083038186803b1580156126d857600080fd5b505af41580156126ec573d6000803e3d6000fd5b505050506040513d602081101561270257600080fd5b50518891900363ffffffff613d2316565b82600460200201818152505073__Utils_________________________________63a5a55fcf6127ca6127bf8473__Percent_______________________________63d49d51816040518163ffffffff1660e060020a02815260040160206040518083038186803b15801561278757600080fd5b505af415801561279b573d6000803e3d6000fd5b505050506040513d60208110156127b157600080fd5b50519063ffffffff613d4c16565b604086015190613d59565b8785600460200201516040518463ffffffff1660e060020a02815260040180848152602001838152602001828152602001935050505060206040518083038186803b15801561281857600080fd5b505af415801561282c573d6000803e3d6000fd5b505050506040513d602081101561284257600080fd5b5051808352831015612901576080820151604080517f76ba7898000000000000000000000000000000000000000000000000000000008152600481018690526024810188905260448101929092525173__Utils_________________________________916376ba7898916064808301926020929190829003018186803b1580156128cc57600080fd5b505af41580156128e0573d6000803e3d6000fd5b505050506040513d60208110156128f657600080fd5b505160408301528282525b73__Utils_________________________________63a5a55fcf8360026020020151868a6040518463ffffffff1660e060020a02815260040180848152602001838152602001828152602001935050505060206040518083038186803b15801561296a57600080fd5b505af415801561297e573d6000803e3d6000fd5b505050506040513d602081101561299457600080fd5b50516020830181905215806129a857508151155b156129bf5760008083526020830181905260408301525b60208201516129cf908c90613cb9565b6060830152509a9950505050505050505050565b6129eb614327565b6000831115612a0757612a04858463ffffffff613d5916565b81525b6000821115612a2657612a20848363ffffffff613d5916565b60208201525b949350505050565b600f54600090811015612a8b57825183906000198101908110612a4d57fe5b6020908102919091018101510151600f80546000908110612a6a57fe5b600091825260209091206005909102015463ffffffff1611612a8b57600080fd5b612a97600e6000614342565b5060005b82518160ff161015612f0957825163ffffffff90849060ff8416908110612abe57fe5b6020908102919091010151511115612ad557600080fd5b825163ffffffff90849060ff8416908110612aec57fe5b60209081029190910181015101511115612b0557600080fd5b825163ffffffff90849060ff8416908110612b1c57fe5b6020908102919091010151606001511115612b3657600080fd5b825160ff908490838316908110612b4957fe5b6020908102919091010151608001511115612b6357600080fd5b825160ff908490838316908110612b7657fe5b602090810291909101015160a001511115612b9057600080fd5b42838260ff16815181101515612ba257fe5b60209081029190910101515111612bb857600080fd5b828160ff16815181101515612bc957fe5b60209081029190910181015101518351849060ff8416908110612be857fe5b60209081029190910101515110612bfe57600080fd5b60008160ff161115612c5557828160ff16815181101515612c1b57fe5b6020908102919091010151518351849060ff600019850116908110612c3c57fe5b60209081029190910181015101511115612c5557600080fd5b612c80838260ff16815181101515612c6957fe5b6020908102909101015160025b6020020151613d6d565b1515612c8b57600080fd5b73__Percent_______________________________63d49d51816040518163ffffffff1660e060020a02815260040160206040518083038186803b158015612cd257600080fd5b505af4158015612ce6573d6000803e3d6000fd5b505050506040513d6020811015612cfc57600080fd5b50518351849060ff8416908110612d0f57fe5b60209081029190910101516040015110612d2857600080fd5b600e60c060405190810160405280858460ff16815181101515612d4757fe5b6020908102919091018101515163ffffffff1682528651910190869060ff8616908110612d7057fe5b602090810290910101516001602002015163ffffffff168152602001858460ff16815181101515612d9d57fe5b60209081029091010151600260200201518152602001858460ff16815181101515612dc457fe5b6020908102919091018101516060015163ffffffff16825260408051600080825281840183528484019190915281518181529283018252920191509052815460018082018085556000948552602094859020845160059094020180548587015163ffffffff1991821663ffffffff9687161767ffffffff000000001916640100000000918716919091021782556040860151938201939093556060850151600282018054909416941693909317909155608083015180519194612e8f92600385019290910190614363565b5060a08201518051612eab916004840191602090910190614363565b50505050612f016001600e8054905003848360ff16815181101515612ecc57fe5b6020908102919091010151608001518551869060ff8616908110612eec57fe5b602090810291909101015160a0015185613d92565b600101612a9b565b6040517f743961f4e677d1146fbf85d75565b1c5474fd083eb166f8b9595cf5d01a4d6e690600090a1505050565b6000806000806060806000600e805490501115612fa457886000815181101515612f5d57fe5b602090810291909101015151600e80546000198101908110612f7b57fe5b6000918252602090912060059091020154640100000000900463ffffffff1610612fa457600080fd5b612fb0600f60006143aa565b600095506000945060009350600092505b88518360ff1610156133e357885163ffffffff908a9060ff8616908110612fe457fe5b6020908102919091010151511115612ffb57600080fd5b885163ffffffff908a9060ff861690811061301257fe5b6020908102919091018101510151111561302b57600080fd5b885163ffffffff908a9060ff861690811061304257fe5b602090810291909101015160400151111561305c57600080fd5b42898460ff1681518110151561306e57fe5b6020908102919091010151511161308457600080fd5b888360ff1681518110151561309557fe5b60209081029190910101515189518a9060ff86169081106130b257fe5b6020908102919091018101510151116130ca57600080fd5b888360ff168151811015156130db57fe5b602090810291909101810151015189518a9060ff86169081106130fa57fe5b6020908102919091010151604001511161311357600080fd5b60008360ff16111561316a57888360ff1681518110151561313057fe5b60209081029190910101515189518a9060ff60001987011690811061315157fe5b6020908102919091010151604001511061316a57600080fd5b61318f898460ff1681518110151561317e57fe5b602090810290910101516003612c76565b151561319a57600080fd5b6131cc8689878151811015156131ac57fe5b9060200190602002015163ffffffff16896140ff9092919063ffffffff16565b91506131fe88868151811015156131df57fe5b9060200190602002015163ffffffff1687613d4c90919063ffffffff16565b95506132158689876001018151811015156131ac57fe5b905061322b88866001018151811015156131df57fe5b955061323e85600263ffffffff613d4c16565b945061326a898460ff1681518110151561325457fe5b6020908102919091010151606001518590613d4c565b9350600f60c0604051908101604052808b8660ff1681518110151561328b57fe5b6020908102919091018101515163ffffffff1682528c519101908c9060ff88169081106132b457fe5b602090810290910101516003602002015181526020018b8660ff168151811015156132db57fe5b602090810290910101516001602002015163ffffffff1681526020018b8660ff1681518110151561330857fe5b6020908102909101015160026020908102919091015163ffffffff90811683528282018790526040928301869052845460018181018088556000978852968490208651600590930201805492841663ffffffff19938416178155868501519181019190915593850151600285018054606088015185166401000000000267ffffffff00000000199390951693169290921716919091179055608083015180516133b792600385019201906143cb565b5060a082015180516133d39160048401916020909101906143cb565b505060019094019350612fc19050565b73__Percent_______________________________63d49d51816040518163ffffffff1660e060020a02815260040160206040518083038186803b15801561342a57600080fd5b505af415801561343e573d6000803e3d6000fd5b505050506040513d602081101561345457600080fd5b5051841461346157600080fd5b6040517f56d9a2e016027a3725bf162ef2779c8b28d4dbec97c679cfba02dbb31a34c7ca90600090a1505050505050505050565b8154600090156134f8575060005b82548110156134f857600083600101600085600001848154811015156134c557fe5b60009182526020808320919091015483528201929092526040019020805460ff19169115159190911790556001016134a3565b815161350a9084906020850190614438565b508151156124ce575060005b81518110156124ce576001836001016000848481518110151561353557fe5b6020908102919091018101518252810191909152604001600020805460ff1916911515919091179055600101613516565b6000821161357357600080fd5b600160a060020a038116151561358857600080fd5b600791909155600a805473ffffffffffffffffffffffffffffffffffffffff1916600160a060020a03909216919091179055565b600160a060020a03811615156135d157600080fd5b600154604051600160a060020a038084169216907f8be0079c531659141344cd1fd0a4f28419497f9722a3daafe3b4186f6b6457e090600090a36001805473ffffffffffffffffffffffffffffffffffffffff1916600160a060020a0392909216919091179055565b600160a060020a038316151561364f57600080fd5b600160a060020a038416151561366457600080fd5b600160a060020a038216151561367957600080fd5b600160a060020a038116151561368e57600080fd5b602087015160001080156136a957506136a5611f68565b8614155b156136c357600160a060020a03851615156136c357600080fd5b865160001015613821578651604080517f23b872dd000000000000000000000000000000000000000000000000000000008152600160a060020a038581166004830152848116602483015260448201939093529051918516916323b872dd916064808201926020929091908290030181600087803b15801561374457600080fd5b505af1158015613758573d6000803e3d6000fd5b505050506040513d602081101561376e57600080fd5b5051151561377b57600080fd5b8651604080517fa9059cbb000000000000000000000000000000000000000000000000000000008152600160a060020a038581166004830152602482019390935290519186169163a9059cbb916044808201926020929091908290030181600087803b1580156137ea57600080fd5b505af11580156137fe573d6000803e3d6000fd5b505050506040513d602081101561381457600080fd5b5051151561382157600080fd5b6020870151600010156124c957613836611f68565b86141561387c576020870151604051600160a060020a0383169180156108fc02916000818181858888f19350505050158015613876573d6000803e3d6000fd5b506124c9565b602080880151604080517fdd62ed3e00000000000000000000000000000000000000000000000000000000815233600482015230602482015290519192600160a060020a0389169263dd62ed3e9260448082019392918290030181600087803b1580156138e857600080fd5b505af11580156138fc573d6000803e3d6000fd5b505050506040513d602081101561391257600080fd5b5051101561391f57600080fd5b602080880151604080517f23b872dd000000000000000000000000000000000000000000000000000000008152336004820152600160a060020a03858116602483015260448201939093529051918816926323b872dd926064808401938290030181600087803b15801561399257600080fd5b505af11580156139a6573d6000803e3d6000fd5b505050506040513d60208110156139bc57600080fd5b505115156124c957600080fd5b600160a060020a03811615156139de57600080fd5b855115156139eb57600080fd5b602086015115156139fb57600080fd5b8451865111613a0957600080fd5b6020808601519087015111613a1d57600080fd5b613a25611f68565b831415613a3d576020860151341015613a3d57600080fd5b613a45611f68565b8314613bb857600160a060020a0382161515613a6057600080fd5b613a6b85600161238b565b604080517fdd62ed3e0000000000000000000000000000000000000000000000000000000081523360048201523060248201529051600160a060020a0385169163dd62ed3e9160448083019260209291908290030181600087803b158015613ad257600080fd5b505af1158015613ae6573d6000803e3d6000fd5b505050506040513d6020811015613afc57600080fd5b50511015613b0957600080fd5b600160a060020a0382166323b872dd3330613b2d89600160200201518b6001612244565b6040805160e060020a63ffffffff8716028152600160a060020a0394851660048201529290931660248301526044820152905160648083019260209291908290030181600087803b158015613b8157600080fd5b505af1158015613b95573d6000803e3d6000fd5b505050506040513d6020811015613bab57600080fd5b50511515613bb857600080fd5b8551604080517f9d2e4777000000000000000000000000000000000000000000000000000000008152336004820152602481019290925263ffffffff8616604483015251600160a060020a03831691639d2e47779160648083019260209291908290030181600087803b158015613c2e57600080fd5b505af1158015613c42573d6000803e3d6000fd5b505050506040513d6020811015613c5857600080fd5b50511515613c6557600080fd5b606086015160001015613cb157613c7a611f68565b831415613cb1576060860151604051339180156108fc02916000818181858888f193505050501580156124c9573d6000803e3d6000fd5b505050505050565b600082821115613cc557fe5b50900390565b60008087118015613cdc5750600086115b8015613ce85750600085115b8015613cf7575082600a0a8410155b9050613d01611f68565b881415613d1857808015613d155750816012145b90505b979650505050505050565b6000611956613d30614180565b613d40858563ffffffff61419216565b9063ffffffff6141bb16565b81810182811015610ae357fe5b60006119568383613d68614180565b6141d0565b6000613d776142ec565b8210158015610ae35750613d89614180565b90911115919050565b606080600060ff8616158015613da9575060ff8516155b15613e3757604080516000815260208101909152600e805460ff8a16908110613dce57fe5b90600052602060002090600502016003019080519060200190613df2929190614363565b50604080516000815260208101909152600e805460ff8a16908110613e1357fe5b90600052602060002090600502016004019080519060200190613876929190614363565b835160ff86161115613e4857600080fd5b60ff80861690871610613e5a57600080fd5b6001861615613e6857600080fd5b6001851615613e7657600080fd5b600260ff878703160460ff16604051908082528060200260200182016040528015613eab578160200160208202803883390190505b509250600260ff878703160460ff16604051908082528060200260200182016040528015613ee3578160200160208202803883390190505b509150600090505b8460ff168660ff16101561408657613f1f848760010160ff16815181101515613f1057fe5b90602001906020020151613d6d565b1515613f2a57600080fd5b73__Percent_______________________________63d49d51816040518163ffffffff1660e060020a02815260040160206040518083038186803b158015613f7157600080fd5b505af4158015613f85573d6000803e3d6000fd5b505050506040513d6020811015613f9b57600080fd5b50518451859060ff60018a0116908110613fb157fe5b6020908102909101015110613fc557600080fd5b600081111561400e57838660ff16815181101515613fdf57fe5b906020019060200201518360018303815181101515613ffa57fe5b602090810290910101511061400e57600080fd5b838660ff1681518110151561401f57fe5b90602001906020020151838281518110151561403757fe5b602090810290910101528351849060ff600189011690811061405557fe5b90602001906020020151828281518110151561406d57fe5b6020908102909101015260029590950194600101613eeb565b82600e8860ff1681548110151561409957fe5b906000526020600020906005020160030190805190602001906140bd929190614363565b5081600e8860ff168154811015156140d157fe5b906000526020600020906005020160040190805190602001906140f5929190614363565b5050505050505050565b60608082840185511015151561411457600080fd5b8215801561412d57604051915060208201604052614177565b6040519150601f8416801560200281840101858101878315602002848b0101015b8183101561416657805183526020928301920161414e565b5050858452601f01601f1916604052505b50949350505050565b600061418a6142f1565b600a0a905090565b60008215156141a357506000610ae3565b508181028183828115156141b357fe5b0414610ae357fe5b600081838115156141c857fe5b049392505050565b6000808080808515156141df57fe5b8715806141ea575086155b156141f4576142e1565b6142066000198863ffffffff6141bb16565b925082881161422a5761422386613d408a8a63ffffffff61419216565b94506142e1565b8588141561423a578694506142e1565b8587141561424a578794506142e1565b87156142cb5787831161425d578261425f565b875b9150614271828863ffffffff61419216565b9050614293614286828863ffffffff6141bb16565b869063ffffffff613d4c16565b94506142b286828115156142a357fe5b8691900663ffffffff613d4c16565b93506142c4888363ffffffff613cb916565b975061424a565b6142de614286858863ffffffff6141bb16565b94505b505050509392505050565b600090565b60006142fb614303565b600201905090565b600290565b60a0604051908101604052806005906020820280388339509192915050565b60408051808201825290600290829080388339509192915050565b50805460008255600502906000526020600020908101906112e79190614475565b82805482825590600052602060002090810192821561439e579160200282015b8281111561439e578251825591602001919060010190614383565b506112ab9291506144ce565b50805460008255600502906000526020600020908101906112e791906144e8565b828054600181600116156101000203166002900490600052602060002090601f016020900481019282601f1061440c57805160ff191683800117855561439e565b8280016001018555821561439e579182018281111561439e578251825591602001919060010190614383565b82805482825590600052602060002090810192821561439e579160200282015b8281111561439e5782518255602090920191600190910190614458565b61125291905b808211156112ab57805467ffffffffffffffff1916815560006001820181905560028201805463ffffffff191690556144b76003830182614541565b6144c5600483016000614541565b5060050161447b565b61125291905b808211156112ab57600081556001016144d4565b61125291905b808211156112ab57805463ffffffff1916815560006001820181905560028201805467ffffffffffffffff1916905561452a600383018261455f565b61453860048301600061455f565b506005016144ee565b50805460008255906000526020600020908101906112e791906144ce565b50805460018160011615610100020316600290046000825580601f1061458557506112e7565b601f0160209004906000526020600020908101906112e791906144ce565b60006145ae82613d6d565b15156145b957600080fd5b610ae36145c4614303565b8390600a0a63ffffffff6141bb165600a165627a7a72305820dc6b5424e78cffe92da71089aab7b1a9f8683b59cf38c681b0caca8f6e38b8be0029",
  "source": "pragma solidity ^0.4.24;\n\nimport \"../../rates/IRates.sol\";\nimport \"../../crowdsale/W12Crowdsale.sol\";\n\ncontract W12CrowdsaleStub is W12Crowdsale {\n    constructor (\n        uint version,\n        address _originToken,\n        address _token,\n        uint _price,\n        address _serviceWallet,\n        address _swap,\n        uint _serviceFee,\n        uint _WTokenSaleFeePercent,\n        IW12Fund _fund,\n        IRates _rates\n    )\n        W12Crowdsale(\n            version,\n            _originToken,\n             _token,\n             _price,\n             _serviceWallet,\n             _swap,\n             _serviceFee,\n            _WTokenSaleFeePercent,\n             _fund,\n            _rates\n        ) public\n    {}\n\n    function _outTokens(address to, uint amount) external returns (bool) {\n        return token.transfer(to, amount);\n    }\n\n    function _outEther(address to) external {\n        return to.transfer(address(this).balance);\n    }\n\n    function _setState(uint _WTokenSaleFeePercent) external {\n        WTokenSaleFeePercent = _WTokenSaleFeePercent;\n    }\n}\n",
  "sourcePath": "/home/circleci/code/contracts/mocks/crowdsale/W12CrowdsaleStub.sol",
  "compiler": {
    "name": "solc",
    "version": "0.4.24+commit.e67f0147.Emscripten.clang"
  },
  "schemaVersion": "2.0.1",
  "updatedAt": "2018-10-22T07:59:52.059Z"
}