{
  "contractName": "W12CrowdsaleStub",
  "abi": [
    {
      "constant": true,
      "inputs": [
        {
          "name": "stageNumber",
          "type": "uint256"
        }
      ],
      "name": "getStageVolumeBonuses",
      "outputs": [
        {
          "name": "",
          "type": "uint256[]"
        }
      ],
      "payable": false,
      "stateMutability": "view",
      "type": "function"
    },
    {
      "constant": true,
      "inputs": [],
      "name": "originToken",
      "outputs": [
        {
          "name": "",
          "type": "address"
        }
      ],
      "payable": false,
      "stateMutability": "view",
      "type": "function"
    },
    {
      "constant": true,
      "inputs": [],
      "name": "getLastMilestoneIndex",
      "outputs": [
        {
          "name": "index",
          "type": "uint256"
        },
        {
          "name": "found",
          "type": "bool"
        }
      ],
      "payable": false,
      "stateMutability": "view",
      "type": "function"
    },
    {
      "constant": true,
      "inputs": [
        {
          "name": "value",
          "type": "uint256"
        }
      ],
      "name": "getSaleVolumeBonus",
      "outputs": [
        {
          "name": "bonus",
          "type": "uint256"
        }
      ],
      "payable": false,
      "stateMutability": "view",
      "type": "function"
    },
    {
      "constant": true,
      "inputs": [
        {
          "name": "index",
          "type": "uint256"
        }
      ],
      "name": "getMilestone",
      "outputs": [
        {
          "name": "",
          "type": "uint32"
        },
        {
          "name": "",
          "type": "uint256"
        },
        {
          "name": "",
          "type": "uint32"
        },
        {
          "name": "",
          "type": "uint32"
        },
        {
          "name": "",
          "type": "bytes"
        },
        {
          "name": "",
          "type": "bytes"
        }
      ],
      "payable": false,
      "stateMutability": "view",
      "type": "function"
    },
    {
      "constant": true,
      "inputs": [
        {
          "name": "index",
          "type": "uint256"
        }
      ],
      "name": "getStage",
      "outputs": [
        {
          "name": "",
          "type": "uint32"
        },
        {
          "name": "",
          "type": "uint32"
        },
        {
          "name": "",
          "type": "uint256"
        },
        {
          "name": "",
          "type": "uint32"
        },
        {
          "name": "",
          "type": "uint256[]"
        },
        {
          "name": "",
          "type": "uint256[]"
        }
      ],
      "payable": false,
      "stateMutability": "view",
      "type": "function"
    },
    {
      "constant": true,
      "inputs": [],
      "name": "WTokenSaleFeePercent",
      "outputs": [
        {
          "name": "",
          "type": "uint256"
        }
      ],
      "payable": false,
      "stateMutability": "view",
      "type": "function"
    },
    {
      "constant": false,
      "inputs": [],
      "name": "claimRemainingTokens",
      "outputs": [],
      "payable": false,
      "stateMutability": "nonpayable",
      "type": "function"
    },
    {
      "constant": true,
      "inputs": [],
      "name": "milestonesLength",
      "outputs": [
        {
          "name": "",
          "type": "uint256"
        }
      ],
      "payable": false,
      "stateMutability": "view",
      "type": "function"
    },
    {
      "constant": true,
      "inputs": [],
      "name": "getWToken",
      "outputs": [
        {
          "name": "",
          "type": "address"
        }
      ],
      "payable": false,
      "stateMutability": "view",
      "type": "function"
    },
    {
      "constant": false,
      "inputs": [
        {
          "name": "dates",
          "type": "uint32[2][]"
        },
        {
          "name": "stage_discounts",
          "type": "uint256[]"
        },
        {
          "name": "stage_vestings",
          "type": "uint32[]"
        }
      ],
      "name": "setStages",
      "outputs": [],
      "payable": false,
      "stateMutability": "nonpayable",
      "type": "function"
    },
    {
      "constant": true,
      "inputs": [],
      "name": "version",
      "outputs": [
        {
          "name": "",
          "type": "uint256"
        }
      ],
      "payable": false,
      "stateMutability": "view",
      "type": "function"
    },
    {
      "constant": true,
      "inputs": [],
      "name": "serviceWallet",
      "outputs": [
        {
          "name": "",
          "type": "address"
        }
      ],
      "payable": false,
      "stateMutability": "view",
      "type": "function"
    },
    {
      "constant": true,
      "inputs": [],
      "name": "isSaleActive",
      "outputs": [
        {
          "name": "",
          "type": "bool"
        }
      ],
      "payable": false,
      "stateMutability": "view",
      "type": "function"
    },
    {
      "constant": false,
      "inputs": [],
      "name": "renounceOwnership",
      "outputs": [],
      "payable": false,
      "stateMutability": "nonpayable",
      "type": "function"
    },
    {
      "constant": true,
      "inputs": [
        {
          "name": "",
          "type": "uint256"
        }
      ],
      "name": "milestoneDates",
      "outputs": [
        {
          "name": "",
          "type": "uint32"
        }
      ],
      "payable": false,
      "stateMutability": "view",
      "type": "function"
    },
    {
      "constant": true,
      "inputs": [],
      "name": "stagesLength",
      "outputs": [
        {
          "name": "",
          "type": "uint256"
        }
      ],
      "payable": false,
      "stateMutability": "view",
      "type": "function"
    },
    {
      "constant": true,
      "inputs": [],
      "name": "swap",
      "outputs": [
        {
          "name": "",
          "type": "address"
        }
      ],
      "payable": false,
      "stateMutability": "view",
      "type": "function"
    },
    {
      "constant": true,
      "inputs": [
        {
          "name": "",
          "type": "uint256"
        }
      ],
      "name": "stages",
      "outputs": [
        {
          "name": "startDate",
          "type": "uint32"
        },
        {
          "name": "endDate",
          "type": "uint32"
        },
        {
          "name": "discount",
          "type": "uint256"
        },
        {
          "name": "vesting",
          "type": "uint32"
        }
      ],
      "payable": false,
      "stateMutability": "view",
      "type": "function"
    },
    {
      "constant": true,
      "inputs": [],
      "name": "serviceFee",
      "outputs": [
        {
          "name": "",
          "type": "uint256"
        }
      ],
      "payable": false,
      "stateMutability": "view",
      "type": "function"
    },
    {
      "constant": true,
      "inputs": [],
      "name": "owner",
      "outputs": [
        {
          "name": "",
          "type": "address"
        }
      ],
      "payable": false,
      "stateMutability": "view",
      "type": "function"
    },
    {
      "constant": true,
      "inputs": [],
      "name": "getFund",
      "outputs": [
        {
          "name": "",
          "type": "address"
        }
      ],
      "payable": false,
      "stateMutability": "view",
      "type": "function"
    },
    {
      "constant": true,
      "inputs": [],
      "name": "price",
      "outputs": [
        {
          "name": "",
          "type": "uint256"
        }
      ],
      "payable": false,
      "stateMutability": "view",
      "type": "function"
    },
    {
      "constant": true,
      "inputs": [],
      "name": "isEnded",
      "outputs": [
        {
          "name": "",
          "type": "bool"
        }
      ],
      "payable": false,
      "stateMutability": "view",
      "type": "function"
    },
    {
      "constant": true,
      "inputs": [],
      "name": "getEndDate",
      "outputs": [
        {
          "name": "",
          "type": "uint32"
        }
      ],
      "payable": false,
      "stateMutability": "view",
      "type": "function"
    },
    {
      "constant": true,
      "inputs": [],
      "name": "fund",
      "outputs": [
        {
          "name": "",
          "type": "address"
        }
      ],
      "payable": false,
      "stateMutability": "view",
      "type": "function"
    },
    {
      "constant": false,
      "inputs": [
        {
          "name": "stage",
          "type": "uint256"
        },
        {
          "name": "volumeBoundaries",
          "type": "uint256[]"
        },
        {
          "name": "volumeBonuses",
          "type": "uint256[]"
        }
      ],
      "name": "setStageVolumeBonuses",
      "outputs": [],
      "payable": false,
      "stateMutability": "nonpayable",
      "type": "function"
    },
    {
      "constant": false,
      "inputs": [],
      "name": "buyTokens",
      "outputs": [],
      "payable": true,
      "stateMutability": "payable",
      "type": "function"
    },
    {
      "constant": true,
      "inputs": [],
      "name": "getCurrentMilestoneIndex",
      "outputs": [
        {
          "name": "index",
          "type": "uint256"
        },
        {
          "name": "found",
          "type": "bool"
        }
      ],
      "payable": false,
      "stateMutability": "view",
      "type": "function"
    },
    {
      "constant": true,
      "inputs": [],
      "name": "getCurrentStageIndex",
      "outputs": [
        {
          "name": "index",
          "type": "uint256"
        },
        {
          "name": "found",
          "type": "bool"
        }
      ],
      "payable": false,
      "stateMutability": "view",
      "type": "function"
    },
    {
      "constant": false,
      "inputs": [
        {
          "name": "dates",
          "type": "uint32[]"
        },
        {
          "name": "tranchePercents",
          "type": "uint256[]"
        },
        {
          "name": "offsets",
          "type": "uint32[]"
        },
        {
          "name": "namesAndDescriptions",
          "type": "bytes"
        }
      ],
      "name": "setMilestones",
      "outputs": [],
      "payable": false,
      "stateMutability": "nonpayable",
      "type": "function"
    },
    {
      "constant": true,
      "inputs": [
        {
          "name": "",
          "type": "uint256"
        }
      ],
      "name": "milestones",
      "outputs": [
        {
          "name": "endDate",
          "type": "uint32"
        },
        {
          "name": "tranchePercent",
          "type": "uint256"
        },
        {
          "name": "voteEndDate",
          "type": "uint32"
        },
        {
          "name": "withdrawalWindow",
          "type": "uint32"
        },
        {
          "name": "name",
          "type": "bytes"
        },
        {
          "name": "description",
          "type": "bytes"
        }
      ],
      "payable": false,
      "stateMutability": "view",
      "type": "function"
    },
    {
      "constant": false,
      "inputs": [
        {
          "name": "_price",
          "type": "uint256"
        }
      ],
      "name": "setParameters",
      "outputs": [],
      "payable": false,
      "stateMutability": "nonpayable",
      "type": "function"
    },
    {
      "constant": true,
      "inputs": [
        {
          "name": "stageNumber",
          "type": "uint256"
        }
      ],
      "name": "getStageVolumeBoundaries",
      "outputs": [
        {
          "name": "",
          "type": "uint256[]"
        }
      ],
      "payable": false,
      "stateMutability": "view",
      "type": "function"
    },
    {
      "constant": false,
      "inputs": [
        {
          "name": "_newOwner",
          "type": "address"
        }
      ],
      "name": "transferOwnership",
      "outputs": [],
      "payable": false,
      "stateMutability": "nonpayable",
      "type": "function"
    },
    {
      "constant": true,
      "inputs": [],
      "name": "token",
      "outputs": [
        {
          "name": "",
          "type": "address"
        }
      ],
      "payable": false,
      "stateMutability": "view",
      "type": "function"
    },
    {
      "inputs": [
        {
          "name": "version",
          "type": "uint256"
        },
        {
          "name": "_originToken",
          "type": "address"
        },
        {
          "name": "_token",
          "type": "address"
        },
        {
          "name": "_price",
          "type": "uint256"
        },
        {
          "name": "_serviceWallet",
          "type": "address"
        },
        {
          "name": "_swap",
          "type": "address"
        },
        {
          "name": "_serviceFee",
          "type": "uint256"
        },
        {
          "name": "_WTokenSaleFeePercent",
          "type": "uint256"
        },
        {
          "name": "_fund",
          "type": "address"
        }
      ],
      "payable": false,
      "stateMutability": "nonpayable",
      "type": "constructor"
    },
    {
      "payable": true,
      "stateMutability": "payable",
      "type": "fallback"
    },
    {
      "anonymous": false,
      "inputs": [
        {
          "indexed": true,
          "name": "buyer",
          "type": "address"
        },
        {
          "indexed": false,
          "name": "amountPaid",
          "type": "uint256"
        },
        {
          "indexed": false,
          "name": "tokensBought",
          "type": "uint256"
        },
        {
          "indexed": false,
          "name": "change",
          "type": "uint256"
        }
      ],
      "name": "TokenPurchase",
      "type": "event"
    },
    {
      "anonymous": false,
      "inputs": [],
      "name": "StagesUpdated",
      "type": "event"
    },
    {
      "anonymous": false,
      "inputs": [
        {
          "indexed": false,
          "name": "index",
          "type": "uint256"
        }
      ],
      "name": "StageUpdated",
      "type": "event"
    },
    {
      "anonymous": false,
      "inputs": [],
      "name": "MilestonesUpdated",
      "type": "event"
    },
    {
      "anonymous": false,
      "inputs": [
        {
          "indexed": true,
          "name": "owner",
          "type": "address"
        },
        {
          "indexed": false,
          "name": "amount",
          "type": "uint256"
        }
      ],
      "name": "UnsoldTokenReturned",
      "type": "event"
    },
    {
      "anonymous": false,
      "inputs": [
        {
          "indexed": false,
          "name": "value",
          "type": "uint256"
        }
      ],
      "name": "debug",
      "type": "event"
    },
    {
      "anonymous": false,
      "inputs": [
        {
          "indexed": true,
          "name": "previousOwner",
          "type": "address"
        }
      ],
      "name": "OwnershipRenounced",
      "type": "event"
    },
    {
      "anonymous": false,
      "inputs": [
        {
          "indexed": true,
          "name": "previousOwner",
          "type": "address"
        },
        {
          "indexed": true,
          "name": "newOwner",
          "type": "address"
        }
      ],
      "name": "OwnershipTransferred",
      "type": "event"
    },
    {
      "constant": false,
      "inputs": [
        {
          "name": "to",
          "type": "address"
        },
        {
          "name": "amount",
          "type": "uint256"
        }
      ],
      "name": "_outTokens",
      "outputs": [
        {
          "name": "",
          "type": "bool"
        }
      ],
      "payable": false,
      "stateMutability": "nonpayable",
      "type": "function"
    },
    {
      "constant": false,
      "inputs": [
        {
          "name": "_WTokenSaleFeePercent",
          "type": "uint256"
        }
      ],
      "name": "_setState",
      "outputs": [],
      "payable": false,
      "stateMutability": "nonpayable",
      "type": "function"
    }
  ],
  "bytecode": "0x608060405260016002553480156200001657600080fd5b50604051610120806200503983398101806040528101908080519060200190929190805190602001909291908051906020019092919080519060200190929190805190602001909291908051906020019092919080519060200190929190805190602001909291908051906020019092919050505088888888888888888888806000819055505033600160006101000a81548173ffffffffffffffffffffffffffffffffffffffff021916908373ffffffffffffffffffffffffffffffffffffffff160217905550600073ffffffffffffffffffffffffffffffffffffffff168773ffffffffffffffffffffffffffffffffffffffff16141515156200011b57600080fd5b6200013a8362000386640100000000026200439c176401000000009004565b801562000165575060646200016384620003d064010000000002620043c3176401000000009004565b105b15156200017157600080fd5b620001908262000386640100000000026200439c176401000000009004565b8015620001bb57506064620001b983620003d064010000000002620043c3176401000000009004565b105b1515620001c757600080fd5b600073ffffffffffffffffffffffffffffffffffffffff168173ffffffffffffffffffffffffffffffffffffffff16141515156200020457600080fd5b600073ffffffffffffffffffffffffffffffffffffffff168473ffffffffffffffffffffffffffffffffffffffff16141515156200024157600080fd5b86600360006101000a81548173ffffffffffffffffffffffffffffffffffffffff021916908373ffffffffffffffffffffffffffffffffffffffff16021790555087600460006101000a81548173ffffffffffffffffffffffffffffffffffffffff021916908373ffffffffffffffffffffffffffffffffffffffff160217905550620002de86866200043d640100000000026401000000009004565b8260068190555083600960006101000a81548173ffffffffffffffffffffffffffffffffffffffff021916908373ffffffffffffffffffffffffffffffffffffffff1602179055508160078190555080600a60006101000a81548173ffffffffffffffffffffffffffffffffffffffff021916908373ffffffffffffffffffffffffffffffffffffffff16021790555050505050505050505050505050505050505062000544565b6000620003a1620004d6640100000000026401000000009004565b8210158015620003c95750620003c5620004de640100000000026401000000009004565b8211155b9050919050565b6000620003ec8262000386640100000000026401000000009004565b1515620003f857600080fd5b620004366200041562000501640100000000026401000000009004565b600a0a836200050a6401000000000262004655179091906401000000009004565b9050919050565b6000821115156200044d57600080fd5b600073ffffffffffffffffffffffffffffffffffffffff168173ffffffffffffffffffffffffffffffffffffffff16141515156200048a57600080fd5b8160058190555080600860006101000a81548173ffffffffffffffffffffffffffffffffffffffff021916908373ffffffffffffffffffffffffffffffffffffffff1602179055505050565b600080905090565b6000620004f962000521640100000000026401000000009004565b600a0a905090565b60006002905090565b600081838115156200051857fe5b04905092915050565b60006200053c62000501640100000000026401000000009004565b600201905090565b614ae580620005546000396000f3006080604052600436106101d8576000357c0100000000000000000000000000000000000000000000000000000000900463ffffffff1680630ee62c77146101e257806313096a411461026457806314f66d34146102bb5780631aecc19f146102f1578063208853c9146103565780632442e1cb146103975780632e325020146104e95780632fbe5990146105f3578063313602d41461061e5780633baba4d7146106355780634090cb64146106605780634b9b5fab146106b757806354fd4d50146107225780635641f3c31461074d578063564566a8146107a4578063715018a6146107d357806372e6a881146107ea578063792c02ea146108375780638119c06514610862578063845ddcb2146108b95780638abdf5aa146109335780638da5cb5b1461095e5780638edd6eb6146109b5578063a035b1fe14610a0c578063a4fd6f5614610a37578063b135648814610a66578063b60d428814610a9d578063ca7348a314610af4578063ce48bf2214610b21578063d0febe4c14610b7e578063d6d65f3d14610b88578063daa4cf8814610bbe578063dda71ebe14610bf4578063e89e4ed614610c77578063e93b054014610dc9578063f12585f514610df6578063f2fde38b14610e78578063fc0c546a14610ebb575b6101e0610f12565b005b3480156101ee57600080fd5b5061020d60048036038101908080359060200190929190505050611676565b6040518080602001828103825283818151815260200191508051906020019060200280838360005b83811015610250578082015181840152602081019050610235565b505050509050019250505060405180910390f35b34801561027057600080fd5b506102796116ee565b604051808273ffffffffffffffffffffffffffffffffffffffff1673ffffffffffffffffffffffffffffffffffffffff16815260200191505060405180910390f35b3480156102c757600080fd5b506102d0611714565b60405180838152602001821515151581526020019250505060405180910390f35b3480156102fd57600080fd5b5061033c600480360381019080803573ffffffffffffffffffffffffffffffffffffffff1690602001909291908035906020019092919050505061174f565b604051808215151515815260200191505060405180910390f35b34801561036257600080fd5b5061038160048036038101908080359060200190929190505050611859565b6040518082815260200191505060405180910390f35b3480156103a357600080fd5b506103c260048036038101908080359060200190929190505050611913565b604051808763ffffffff1663ffffffff1681526020018681526020018563ffffffff1663ffffffff1681526020018463ffffffff1663ffffffff1681526020018060200180602001838103835285818151815260200191508051906020019080838360005b83811015610442578082015181840152602081019050610427565b50505050905090810190601f16801561046f5780820380516001836020036101000a031916815260200191505b50838103825284818151815260200191508051906020019080838360005b838110156104a857808201518184015260208101905061048d565b50505050905090810190601f1680156104d55780820380516001836020036101000a031916815260200191505b509850505050505050505060405180910390f35b3480156104f557600080fd5b5061051460048036038101908080359060200190929190505050611b5d565b604051808763ffffffff1663ffffffff1681526020018663ffffffff1663ffffffff1681526020018581526020018463ffffffff1663ffffffff1681526020018060200180602001838103835285818151815260200191508051906020019060200280838360005b8381101561059757808201518184015260208101905061057c565b50505050905001838103825284818151815260200191508051906020019060200280838360005b838110156105d95780820151818401526020810190506105be565b505050509050019850505050505050505060405180910390f35b3480156105ff57600080fd5b50610608611d13565b6040518082815260200191505060405180910390f35b34801561062a57600080fd5b50610633611d19565b005b34801561064157600080fd5b5061064a612024565b6040518082815260200191505060405180910390f35b34801561066c57600080fd5b50610675612031565b604051808273ffffffffffffffffffffffffffffffffffffffff1673ffffffffffffffffffffffffffffffffffffffff16815260200191505060405180910390f35b3480156106c357600080fd5b5061072060048036038101908080359060200190820180359060200191909192939192939080359060200190820180359060200191909192939192939080359060200190820180359060200191909192939192939050505061205b565b005b34801561072e57600080fd5b50610737612864565b6040518082815260200191505060405180910390f35b34801561075957600080fd5b5061076261286a565b604051808273ffffffffffffffffffffffffffffffffffffffff1673ffffffffffffffffffffffffffffffffffffffff16815260200191505060405180910390f35b3480156107b057600080fd5b506107b9612890565b604051808215151515815260200191505060405180910390f35b3480156107df57600080fd5b506107e86128a5565b005b3480156107f657600080fd5b50610815600480360381019080803590602001909291905050506129aa565b604051808263ffffffff1663ffffffff16815260200191505060405180910390f35b34801561084357600080fd5b5061084c6129e3565b6040518082815260200191505060405180910390f35b34801561086e57600080fd5b506108776129f0565b604051808273ffffffffffffffffffffffffffffffffffffffff1673ffffffffffffffffffffffffffffffffffffffff16815260200191505060405180910390f35b3480156108c557600080fd5b506108e460048036038101908080359060200190929190505050612a16565b604051808563ffffffff1663ffffffff1681526020018463ffffffff1663ffffffff1681526020018381526020018263ffffffff1663ffffffff16815260200194505050505060405180910390f35b34801561093f57600080fd5b50610948612a85565b6040518082815260200191505060405180910390f35b34801561096a57600080fd5b50610973612a8b565b604051808273ffffffffffffffffffffffffffffffffffffffff1673ffffffffffffffffffffffffffffffffffffffff16815260200191505060405180910390f35b3480156109c157600080fd5b506109ca612ab1565b604051808273ffffffffffffffffffffffffffffffffffffffff1673ffffffffffffffffffffffffffffffffffffffff16815260200191505060405180910390f35b348015610a1857600080fd5b50610a21612adb565b6040518082815260200191505060405180910390f35b348015610a4357600080fd5b50610a4c612ae1565b604051808215151515815260200191505060405180910390f35b348015610a7257600080fd5b50610a7b612b38565b604051808263ffffffff1663ffffffff16815260200191505060405180910390f35b348015610aa957600080fd5b50610ab2612b8b565b604051808273ffffffffffffffffffffffffffffffffffffffff1673ffffffffffffffffffffffffffffffffffffffff16815260200191505060405180910390f35b348015610b0057600080fd5b50610b1f60048036038101908080359060200190929190505050612bb1565b005b348015610b2d57600080fd5b50610b7c60048036038101908080359060200190929190803590602001908201803590602001919091929391929390803590602001908201803590602001919091929391929390505050612bbb565b005b610b86610f12565b005b348015610b9457600080fd5b50610b9d612f59565b60405180838152602001821515151581526020019250505060405180910390f35b348015610bca57600080fd5b50610bd3612ff6565b60405180838152602001821515151581526020019250505060405180910390f35b348015610c0057600080fd5b50610c7560048036038101908080359060200190820180359060200191909192939192939080359060200190820180359060200191909192939192939080359060200190820180359060200191909192939192939080359060200190820180359060200191909192939192939050505061309f565b005b348015610c8357600080fd5b50610ca260048036038101908080359060200190929190505050613a9b565b604051808763ffffffff1663ffffffff1681526020018681526020018563ffffffff1663ffffffff1681526020018463ffffffff1663ffffffff1681526020018060200180602001838103835285818151815260200191508051906020019080838360005b83811015610d22578082015181840152602081019050610d07565b50505050905090810190601f168015610d4f5780820380516001836020036101000a031916815260200191505b50838103825284818151815260200191508051906020019080838360005b83811015610d88578082015181840152602081019050610d6d565b50505050905090810190601f168015610db55780820380516001836020036101000a031916815260200191505b509850505050505050505060405180910390f35b348015610dd557600080fd5b50610df460048036038101908080359060200190929190505050613c46565b005b348015610e0257600080fd5b50610e2160048036038101908080359060200190929190505050613d25565b6040518080602001828103825283818151815260200191508051906020019060200280838360005b83811015610e64578082015181840152602081019050610e49565b505050509050019250505060405180910390f35b348015610e8457600080fd5b50610eb9600480360381019080803573ffffffffffffffffffffffffffffffffffffffff169060200190929190505050613d9d565b005b348015610ec757600080fd5b50610ed0613e05565b604051808273ffffffffffffffffffffffffffffffffffffffff1673ffffffffffffffffffffffffffffffffffffffff16815260200191505060405180910390f35b6000806000806000806000806001600254141515610f2f57600080fd5b60028081905550610f3e612890565b1515610fb2576040517f08c379a00000000000000000000000000000000000000000000000000000000081526004018080602001828103825260178152602001807f53616c65206973206e6f7420737461727465642079657400000000000000000081525060200191505060405180910390fd5b600034111515610fc157600080fd5b610fc9612ff6565b509750600b88815481101515610fdb57fe5b9060005260206000209060050201600101549650600b88815481101515610ffe57fe5b906000526020600020906005020160020160009054906101000a900463ffffffff16955061102b34611859565b9450611038348887613e2b565b50935093509350600060075411156113125761105f6007548561435290919063ffffffff16565b9050600460009054906101000a900473ffffffffffffffffffffffffffffffffffffffff1673ffffffffffffffffffffffffffffffffffffffff166323b872dd600960009054906101000a900473ffffffffffffffffffffffffffffffffffffffff16600860009054906101000a900473ffffffffffffffffffffffffffffffffffffffff16846040518463ffffffff167c0100000000000000000000000000000000000000000000000000000000028152600401808473ffffffffffffffffffffffffffffffffffffffff1673ffffffffffffffffffffffffffffffffffffffff1681526020018373ffffffffffffffffffffffffffffffffffffffff1673ffffffffffffffffffffffffffffffffffffffff1681526020018281526020019350505050602060405180830381600087803b15801561119e57600080fd5b505af11580156111b2573d6000803e3d6000fd5b505050506040513d60208110156111c857600080fd5b810190808051906020019092919050505015156111e457600080fd5b600360009054906101000a900473ffffffffffffffffffffffffffffffffffffffff1673ffffffffffffffffffffffffffffffffffffffff1663a9059cbb600960009054906101000a900473ffffffffffffffffffffffffffffffffffffffff16836040518363ffffffff167c0100000000000000000000000000000000000000000000000000000000028152600401808373ffffffffffffffffffffffffffffffffffffffff1673ffffffffffffffffffffffffffffffffffffffff16815260200182815260200192505050602060405180830381600087803b1580156112cb57600080fd5b505af11580156112df573d6000803e3d6000fd5b505050506040513d60208110156112f557600080fd5b8101908080519060200190929190505050151561131157600080fd5b5b600360009054906101000a900473ffffffffffffffffffffffffffffffffffffffff1673ffffffffffffffffffffffffffffffffffffffff16639d2e47773386896040518463ffffffff167c0100000000000000000000000000000000000000000000000000000000028152600401808473ffffffffffffffffffffffffffffffffffffffff1673ffffffffffffffffffffffffffffffffffffffff1681526020018381526020018263ffffffff1663ffffffff1681526020019350505050602060405180830381600087803b1580156113eb57600080fd5b505af11580156113ff573d6000803e3d6000fd5b505050506040513d602081101561141557600080fd5b8101908080519060200190929190505050151561143157600080fd5b6000821115611482573373ffffffffffffffffffffffffffffffffffffffff166108fc839081150290604051600060405180830381858888f19350505050158015611480573d6000803e3d6000fd5b505b6000600654111561150b57600860009054906101000a900473ffffffffffffffffffffffffffffffffffffffff1673ffffffffffffffffffffffffffffffffffffffff166108fc6114de6006548661435290919063ffffffff16565b9081150290604051600060405180830381858888f19350505050158015611509573d6000803e3d6000fd5b505b600a60009054906101000a900473ffffffffffffffffffffffffffffffffffffffff1673ffffffffffffffffffffffffffffffffffffffff1663958799cb3073ffffffffffffffffffffffffffffffffffffffff1631620186a09033886040518563ffffffff167c0100000000000000000000000000000000000000000000000000000000028152600401808373ffffffffffffffffffffffffffffffffffffffff1673ffffffffffffffffffffffffffffffffffffffff168152602001828152602001925050506000604051808303818589803b1580156115ec57600080fd5b5088f1158015611600573d6000803e3d6000fd5b5050505050503373ffffffffffffffffffffffffffffffffffffffff167f347f5f0051b895093800553e6e78ef332849e2552639a4f5ffe66535788ae07884868560405180848152602001838152602001828152602001935050505060405180910390a260016002819055505050505050505050565b6060600b8281548110151561168757fe5b90600052602060002090600502016004018054806020026020016040519081016040528092919081815260200182805480156116e257602002820191906000526020600020905b8154815260200190600101908083116116ce575b50505050509050919050565b600460009054906101000a900473ffffffffffffffffffffffffffffffffffffffff1681565b6000806000600c80549050905060008114806117355750611733612ae1565b155b1561173f5761174a565b600191506001810392505b509091565b6000600360009054906101000a900473ffffffffffffffffffffffffffffffffffffffff1673ffffffffffffffffffffffffffffffffffffffff1663a9059cbb84846040518363ffffffff167c0100000000000000000000000000000000000000000000000000000000028152600401808373ffffffffffffffffffffffffffffffffffffffff1673ffffffffffffffffffffffffffffffffffffffff16815260200182815260200192505050602060405180830381600087803b15801561181657600080fd5b505af115801561182a573d6000803e3d6000fd5b505050506040513d602081101561184057600080fd5b8101908080519060200190929190505050905092915050565b6000806000806000611869612ff6565b9350935082151561187d576000945061190a565b600b8481548110151561188c57fe5b90600052602060002090600502019150600090505b81600301805490508110156119095781600301818154811015156118c157fe5b9060005260206000200154861015156118f75781600401818154811015156118e557fe5b906000526020600020015494506118fc565b611909565b80806001019150506118a1565b5b50505050919050565b600080600080606080600c8781548110151561192b57fe5b906000526020600020906005020160000160009054906101000a900463ffffffff16600c8881548110151561195c57fe5b906000526020600020906005020160010154600c8981548110151561197d57fe5b906000526020600020906005020160020160009054906101000a900463ffffffff16600c8a8154811015156119ae57fe5b906000526020600020906005020160020160049054906101000a900463ffffffff16600c8b8154811015156119df57fe5b9060005260206000209060050201600301600c8c8154811015156119ff57fe5b9060005260206000209060050201600401818054600181600116156101000203166002900480601f016020809104026020016040519081016040528092919081815260200182805460018160011615610100020316600290048015611aa55780601f10611a7a57610100808354040283529160200191611aa5565b820191906000526020600020905b815481529060010190602001808311611a8857829003601f168201915b50505050509150808054600181600116156101000203166002900480601f016020809104026020016040519081016040528092919081815260200182805460018160011615610100020316600290048015611b415780601f10611b1657610100808354040283529160200191611b41565b820191906000526020600020905b815481529060010190602001808311611b2457829003601f168201915b5050505050905095509550955095509550955091939550919395565b600080600080606080600b87815481101515611b7557fe5b906000526020600020906005020160000160009054906101000a900463ffffffff16600b88815481101515611ba657fe5b906000526020600020906005020160000160049054906101000a900463ffffffff16600b89815481101515611bd757fe5b906000526020600020906005020160010154600b8a815481101515611bf857fe5b906000526020600020906005020160020160009054906101000a900463ffffffff16600b8b815481101515611c2957fe5b9060005260206000209060050201600301600b8c815481101515611c4957fe5b906000526020600020906005020160040181805480602002602001604051908101604052809291908181526020018280548015611ca557602002820191906000526020600020905b815481526020019060010190808311611c91575b5050505050915080805480602002602001604051908101604052809291908181526020018280548015611cf757602002820191906000526020600020905b815481526020019060010190808311611ce3575b5050505050905095509550955095509550955091939550919395565b60075481565b6000600160009054906101000a900473ffffffffffffffffffffffffffffffffffffffff1673ffffffffffffffffffffffffffffffffffffffff163373ffffffffffffffffffffffffffffffffffffffff16141515611d7757600080fd5b611d7f612ae1565b1515611d8a57600080fd5b600360009054906101000a900473ffffffffffffffffffffffffffffffffffffffff1673ffffffffffffffffffffffffffffffffffffffff166370a08231306040518263ffffffff167c0100000000000000000000000000000000000000000000000000000000028152600401808273ffffffffffffffffffffffffffffffffffffffff1673ffffffffffffffffffffffffffffffffffffffff168152602001915050602060405180830381600087803b158015611e4757600080fd5b505af1158015611e5b573d6000803e3d6000fd5b505050506040513d6020811015611e7157600080fd5b81019080805190602001909291905050509050600360009054906101000a900473ffffffffffffffffffffffffffffffffffffffff1673ffffffffffffffffffffffffffffffffffffffff1663a9059cbb600160009054906101000a900473ffffffffffffffffffffffffffffffffffffffff16836040518363ffffffff167c0100000000000000000000000000000000000000000000000000000000028152600401808373ffffffffffffffffffffffffffffffffffffffff1673ffffffffffffffffffffffffffffffffffffffff16815260200182815260200192505050602060405180830381600087803b158015611f6b57600080fd5b505af1158015611f7f573d6000803e3d6000fd5b505050506040513d6020811015611f9557600080fd5b81019080805190602001909291905050501515611fb157600080fd5b600160009054906101000a900473ffffffffffffffffffffffffffffffffffffffff1673ffffffffffffffffffffffffffffffffffffffff167f26ffb867a6b19bc0240d4e732ed6cfb0f0b6d93143a99cfb24ba5873308861f8826040518082815260200191505060405180910390a250565b6000600c80549050905090565b6000600360009054906101000a900473ffffffffffffffffffffffffffffffffffffffff16905090565b600080600160009054906101000a900473ffffffffffffffffffffffffffffffffffffffff1673ffffffffffffffffffffffffffffffffffffffff163373ffffffffffffffffffffffffffffffffffffffff161415156120ba57600080fd5b6000600b80549050111561210e5742600b60008154811015156120d957fe5b906000526020600020906005020160000160009054906101000a900463ffffffff1663ffffffff1611151561210d57600080fd5b5b7fffffffffffffffffffffffffffffffffffffffffffffffffffffffffffffffff60ff16888890501115151561214357600080fd5b60008888905011151561215557600080fd5b858590508888905014151561216957600080fd5b838390508888905014151561217d57600080fd5b6000600c80549050111561229857878760018a8a905003818110151561219f57fe5b90506040020160016002811015156121b357fe5b602002013563ffffffff1663ffffffff16600c60008154811015156121d457fe5b906000526020600020906005020160000160009054906101000a900463ffffffff1663ffffffff16111515612297576040517f08c379a000000000000000000000000000000000000000000000000000000000815260040180806020018281038252603c8152602001807f4c61737420737461676520656e6444617465206d757374206265206c6573732081526020017f7468616e206669727374206d696c6573746f6e6520656e64446174650000000081525060400191505060405180910390fd5b5b878790509150600b60006122ac91906146a0565b600090505b8160ff168160ff16101561282e576122df86868360ff1681811015156122d357fe5b9050602002013561439c565b801561230a5750606461230887878460ff1681811015156122fc57fe5b905060200201356143c3565b105b15156123a4576040517f08c379a00000000000000000000000000000000000000000000000000000000081526004018080602001828103825260318152602001807f537461676520646973636f756e74206973206e6f7420696e20616c6c6f77656481526020017f2072616e6765205b302c2039392e39392900000000000000000000000000000081525060400191505060405180910390fd5b4288888360ff1681811015156123b657fe5b90506040020160006002811015156123ca57fe5b602002013563ffffffff1663ffffffff161115156123e757600080fd5b87878260ff1681811015156123f857fe5b905060400201600160028110151561240c57fe5b602002013563ffffffff1663ffffffff1688888360ff16818110151561242e57fe5b905060400201600060028110151561244257fe5b602002013563ffffffff1663ffffffff161015156124ee576040517f08c379a00000000000000000000000000000000000000000000000000000000081526004018080602001828103825260248152602001807f53746167652073746172742064617465206d75737420626520677420656e642081526020017f646174650000000000000000000000000000000000000000000000000000000081525060400191505060405180910390fd5b60008160ff1611156126065787878260ff16818110151561250b57fe5b905060400201600060028110151561251f57fe5b602002013563ffffffff1663ffffffff1688886001840360ff16818110151561254457fe5b905060400201600160028110151561255857fe5b602002013563ffffffff1663ffffffff1611151515612605576040517f08c379a00000000000000000000000000000000000000000000000000000000081526004018080602001828103825260228152602001807f53746167657320617265206e6f7420696e20686973746f726963616c206f726481526020017f657200000000000000000000000000000000000000000000000000000000000081525060400191505060405180910390fd5b5b600b60c0604051908101604052808a8a8560ff16818110151561262557fe5b905060400201600060028110151561263957fe5b602002013563ffffffff1663ffffffff1681526020018a8a8560ff16818110151561266057fe5b905060400201600160028110151561267457fe5b602002013563ffffffff1663ffffffff16815260200188888560ff16818110151561269b57fe5b90506020020135815260200186868560ff1681811015156126b857fe5b9050602002013563ffffffff1663ffffffff16815260200160006040519080825280602002602001820160405280156127005781602001602082028038833980820191505090505b50815260200160006040519080825280602002602001820160405280156127365781602001602082028038833980820191505090505b508152509080600181540180825580915050906001820390600052602060002090600502016000909192909190915060008201518160000160006101000a81548163ffffffff021916908363ffffffff16021790555060208201518160000160046101000a81548163ffffffff021916908363ffffffff1602179055506040820151816001015560608201518160020160006101000a81548163ffffffff021916908363ffffffff16021790555060808201518160030190805190602001906128009291906146c4565b5060a082015181600401908051906020019061281d9291906146c4565b5050505080806001019150506122b1565b7f743961f4e677d1146fbf85d75565b1c5474fd083eb166f8b9595cf5d01a4d6e660405160405180910390a15050505050505050565b60005481565b600860009054906101000a900473ffffffffffffffffffffffffffffffffffffffff1681565b60008061289b612ff6565b9150508091505090565b600160009054906101000a900473ffffffffffffffffffffffffffffffffffffffff1673ffffffffffffffffffffffffffffffffffffffff163373ffffffffffffffffffffffffffffffffffffffff1614151561290157600080fd5b600160009054906101000a900473ffffffffffffffffffffffffffffffffffffffff1673ffffffffffffffffffffffffffffffffffffffff167ff8df31144d9c2f0f6b59d69b8b98abd5459d07f2742c4df920b25aae33c6482060405160405180910390a26000600160006101000a81548173ffffffffffffffffffffffffffffffffffffffff021916908373ffffffffffffffffffffffffffffffffffffffff160217905550565b600d818154811015156129b957fe5b9060005260206000209060089182820401919006600402915054906101000a900463ffffffff1681565b6000600b80549050905090565b600960009054906101000a900473ffffffffffffffffffffffffffffffffffffffff1681565b600b81815481101515612a2557fe5b90600052602060002090600502016000915090508060000160009054906101000a900463ffffffff16908060000160049054906101000a900463ffffffff16908060010154908060020160009054906101000a900463ffffffff16905084565b60065481565b600160009054906101000a900473ffffffffffffffffffffffffffffffffffffffff1681565b6000600a60009054906101000a900473ffffffffffffffffffffffffffffffffffffffff16905090565b60055481565b600080600b805490501480612b33575042600b6001600b8054905003815481101515612b0957fe5b906000526020600020906005020160000160049054906101000a900463ffffffff1663ffffffff16105b905090565b600080600b80549050111515612b4d57600080fd5b600b6001600b8054905003815481101515612b6457fe5b906000526020600020906005020160000160049054906101000a900463ffffffff16905090565b600a60009054906101000a900473ffffffffffffffffffffffffffffffffffffffff1681565b8060078190555050565b6000600160009054906101000a900473ffffffffffffffffffffffffffffffffffffffff1673ffffffffffffffffffffffffffffffffffffffff163373ffffffffffffffffffffffffffffffffffffffff16141515612c1957600080fd5b6000600b805490501115612c6d5742600b6000815481101515612c3857fe5b906000526020600020906005020160000160009054906101000a900463ffffffff1663ffffffff16111515612c6c57600080fd5b5b8282905085859050141515612c8157600080fd5b600b8054905086101515612c9457600080fd5b600090505b84849050811015612e6257612cc18383838181101515612cb557fe5b9050602002013561439c565b8015612ce957506064612ce78484848181101515612cdb57fe5b905060200201356143c3565b105b1515612d83576040517f08c379a00000000000000000000000000000000000000000000000000000000081526004018080602001828103825260308152602001807f426f6e75732070657263656e74206973206e6f7420696e20616c6c6f7765642081526020017f72616e6765205b302c2039392e3939290000000000000000000000000000000081525060400191505060405180910390fd5b6000811115612e55578484828181101515612d9a57fe5b905060200201358585600184038181101515612db257fe5b90506020020135101515612e54576040517f08c379a000000000000000000000000000000000000000000000000000000000815260040180806020018281038252602c8152602001807f566f6c756d6520626f756e646172696573206d75737420626520696e2061736381526020017f656e64696e67206f72646572000000000000000000000000000000000000000081525060400191505060405180910390fd5b5b8080600101915050612c99565b600b86815481101515612e7157fe5b90600052602060002090600502016003016000612e8e9190614711565b600b86815481101515612e9d57fe5b90600052602060002090600502016004016000612eba9190614711565b8484600b88815481101515612ecb57fe5b90600052602060002090600502016003019190612ee9929190614732565b508282600b88815481101515612efb57fe5b90600052602060002090600502016004019190612f19929190614732565b507f34cf54504fd39ab670a54acbb37f686c5bd25e6eedfa39889cba899d360bc7d9866040518082815260200191505060405180910390a1505050505050565b6000806000600c8054905090506000811480612f7a5750612f78612ae1565b155b15612f8457612ff1565b600191505b6001810383108015612fde5750600d60016003600186010203815481101515612fae57fe5b90600052602060002090600891828204019190066004029054906101000a900463ffffffff1663ffffffff164210155b15612ff0578280600101935050612f89565b5b509091565b600080600080600091505b600b8054905082101561308e57600b8281548110151561301d57fe5b90600052602060002090600502019050428160000160009054906101000a900463ffffffff1663ffffffff16111580156130705750428160000160049054906101000a900463ffffffff1663ffffffff16115b156130815781600193509350613099565b8180600101925050613001565b600080819150935093505b50509091565b6000806000606080600160009054906101000a900473ffffffffffffffffffffffffffffffffffffffff1673ffffffffffffffffffffffffffffffffffffffff163373ffffffffffffffffffffffffffffffffffffffff1614151561310357600080fd5b6000600b8054905011156131575742600b600081548110151561312257fe5b906000526020600020906005020160000160009054906101000a900463ffffffff1663ffffffff1611151561315657600080fd5b5b7fffffffffffffffffffffffffffffffffffffffffffffffffffffffffffffffff60ff168d8d90501115151561318c57600080fd5b60038d8d90501015151561319f57600080fd5b600060038e8e90508115156131b057fe5b061415156131bd57600080fd5b888890506131d860028d8d90506143fd90919063ffffffff16565b1415156131e457600080fd5b8c8c90506131ff60038d8d90506143fd90919063ffffffff16565b14151561320b57600080fd5b60028b8b905002878790501015151561322357600080fd5b6000600b80549050111561332e578c8c6000818110151561324057fe5b9050602002013563ffffffff1663ffffffff16600b6001600b805490500381548110151561326a57fe5b906000526020600020906005020160000160049054906101000a900463ffffffff1663ffffffff1610151561332d576040517f08c379a000000000000000000000000000000000000000000000000000000000815260040180806020018281038252603f8152602001807f4669727374206d696c6573746f6e6520656e6444617465206d7573742062652081526020017f67726561746572207468616e206c61737420737461676520656e64446174650081525060400191505060405180910390fd5b5b600c600061333c919061477f565b600d600061334a91906147a3565b8c8c600d919061335b9291906147cb565b506000945060009350600092505b8c8c905060ff168360ff1610156139b8576133f6858a8a600260038860ff1681151561339157fe5b040260ff1681811015156133a157fe5b9050602002013563ffffffff1663ffffffff1689898080601f0160208091040260200160405190810160405280939291908181526020018383808284378201915050505050506144359092919063ffffffff16565b91506134ae8989600260038760ff1681151561340e57fe5b040260ff16818110151561341e57fe5b9050602002013563ffffffff1663ffffffff1686018a8a6001600260038960ff1681151561344857fe5b04020160ff16818110151561345957fe5b9050602002013563ffffffff1663ffffffff1689898080601f0160208091040260200160405190810160405280939291908181526020018383808284378201915050505050506144359092919063ffffffff16565b9050428d8d8560ff1681811015156134c257fe5b9050602002013563ffffffff1663ffffffff161115156134e157600080fd5b8c8c8460ff1681811015156134f257fe5b9050602002013563ffffffff1663ffffffff168d8d6001860160ff16818110151561351957fe5b9050602002013563ffffffff1663ffffffff1611151561353857600080fd5b8c8c6001850160ff16818110151561354c57fe5b9050602002013563ffffffff1663ffffffff168d8d6002860160ff16818110151561357357fe5b9050602002013563ffffffff1663ffffffff1611151561359257600080fd5b600082511115156135a257600080fd5b600081511115156135b257600080fd5b6135e18b8b60038660ff168115156135c657fe5b0460ff1681811015156135d557fe5b9050602002013561439c565b151561367b576040517f08c379a00000000000000000000000000000000000000000000000000000000081526004018080602001828103825260308152602001807f5472616e6368652070657263656e74206973206e6f7420696e20616c6c6f776581526020017f642072616e6765205b302c20313030290000000000000000000000000000000081525060400191505060405180910390fd5b60008360ff16111561376e578c8c8460ff16818110151561369857fe5b9050602002013563ffffffff1663ffffffff168d8d6001860360ff1681811015156136bf57fe5b9050602002013563ffffffff1663ffffffff1610151561376d576040517f08c379a00000000000000000000000000000000000000000000000000000000081526004018080602001828103825260298152602001807f4d696c6573746f6e65206461746573206973206e6f7420696e20617363656e6481526020017f696e67206f72646572000000000000000000000000000000000000000000000081525060400191505060405180910390fd5b5b600c60c0604051908101604052808f8f8760ff16818110151561378d57fe5b9050602002013563ffffffff1663ffffffff1681526020018d8d60038860ff168115156137b657fe5b0460ff1681811015156137c557fe5b9050602002013581526020018f8f6001880160ff1681811015156137e557fe5b9050602002013563ffffffff1663ffffffff1681526020018f8f6002880160ff16818110151561381157fe5b9050602002013563ffffffff1663ffffffff168152602001848152602001838152509080600181540180825580915050906001820390600052602060002090600502016000909192909190915060008201518160000160006101000a81548163ffffffff021916908363ffffffff1602179055506020820151816001015560408201518160020160006101000a81548163ffffffff021916908363ffffffff16021790555060608201518160020160046101000a81548163ffffffff021916908363ffffffff16021790555060808201518160030190805190602001906138f9929190614881565b5060a0820151816004019080519060200190613916929190614881565b505050508888600160038660ff1681151561392d57fe5b040160ff16818110151561393d57fe5b9050602002013563ffffffff16898960038660ff1681151561395b57fe5b0460ff16818110151561396a57fe5b9050602002013563ffffffff160163ffffffff16850194508a8a60038560ff1681151561399357fe5b0460ff1681811015156139a257fe5b9050602002013584019350600383019250613369565b73__Percent_______________________________63d49d51816040518163ffffffff167c010000000000000000000000000000000000000000000000000000000002815260040160206040518083038186803b158015613a1857600080fd5b505af4158015613a2c573d6000803e3d6000fd5b505050506040513d6020811015613a4257600080fd5b810190808051906020019092919050505084141515613a6057600080fd5b7f56d9a2e016027a3725bf162ef2779c8b28d4dbec97c679cfba02dbb31a34c7ca60405160405180910390a150505050505050505050505050565b600c81815481101515613aaa57fe5b90600052602060002090600502016000915090508060000160009054906101000a900463ffffffff16908060010154908060020160009054906101000a900463ffffffff16908060020160049054906101000a900463ffffffff1690806003018054600181600116156101000203166002900480601f016020809104026020016040519081016040528092919081815260200182805460018160011615610100020316600290048015613b9e5780601f10613b7357610100808354040283529160200191613b9e565b820191906000526020600020905b815481529060010190602001808311613b8157829003601f168201915b505050505090806004018054600181600116156101000203166002900480601f016020809104026020016040519081016040528092919081815260200182805460018160011615610100020316600290048015613c3c5780601f10613c1157610100808354040283529160200191613c3c565b820191906000526020600020905b815481529060010190602001808311613c1f57829003601f168201915b5050505050905086565b600160009054906101000a900473ffffffffffffffffffffffffffffffffffffffff1673ffffffffffffffffffffffffffffffffffffffff163373ffffffffffffffffffffffffffffffffffffffff16141515613ca257600080fd5b6000600b805490501115613cf65742600b6000815481101515613cc157fe5b906000526020600020906005020160000160009054906101000a900463ffffffff1663ffffffff16111515613cf557600080fd5b5b613d2281600860009054906101000a900473ffffffffffffffffffffffffffffffffffffffff166144c2565b50565b6060600b82815481101515613d3657fe5b9060005260206000209060050201600301805480602002602001604051908101604052809291908181526020018280548015613d9157602002820191906000526020600020905b815481526020019060010190808311613d7d575b50505050509050919050565b600160009054906101000a900473ffffffffffffffffffffffffffffffffffffffff1673ffffffffffffffffffffffffffffffffffffffff163373ffffffffffffffffffffffffffffffffffffffff16141515613df957600080fd5b613e0281614559565b50565b600360009054906101000a900473ffffffffffffffffffffffffffffffffffffffff1681565b6000806000806000879350600360009054906101000a900473ffffffffffffffffffffffffffffffffffffffff1673ffffffffffffffffffffffffffffffffffffffff166370a08231306040518263ffffffff167c0100000000000000000000000000000000000000000000000000000000028152600401808273ffffffffffffffffffffffffffffffffffffffff1673ffffffffffffffffffffffffffffffffffffffff168152602001915050602060405180830381600087803b158015613ef357600080fd5b505af1158015613f07573d6000803e3d6000fd5b505050506040513d6020811015613f1d57600080fd5b81019080805190602001909291905050509050600360009054906101000a900473ffffffffffffffffffffffffffffffffffffffff1673ffffffffffffffffffffffffffffffffffffffff1663313ce5676040518163ffffffff167c0100000000000000000000000000000000000000000000000000000000028152600401602060405180830381600087803b158015613fb657600080fd5b505af1158015613fca573d6000803e3d6000fd5b505050506040513d6020811015613fe057600080fd5b810190808051906020019092919050505060ff16600a0a811015151561400557600080fd5b60008711614015576005546140c7565b6140c68773__Percent_______________________________63d49d51816040518163ffffffff167c010000000000000000000000000000000000000000000000000000000002815260040160206040518083038186803b15801561407957600080fd5b505af415801561408d573d6000803e3d6000fd5b505050506040513d60208110156140a357600080fd5b81019080805190602001909291905050500360055461435290919063ffffffff16565b5b915061430e73__Percent_______________________________63d49d51816040518163ffffffff167c010000000000000000000000000000000000000000000000000000000002815260040160206040518083038186803b15801561412c57600080fd5b505af4158015614140573d6000803e3d6000fd5b505050506040513d602081101561415657600080fd5b8101908080519060200190929190505050614300846142f2600360009054906101000a900473ffffffffffffffffffffffffffffffffffffffff1673ffffffffffffffffffffffffffffffffffffffff1663313ce5676040518163ffffffff167c0100000000000000000000000000000000000000000000000000000000028152600401602060405180830381600087803b1580156141f457600080fd5b505af1158015614208573d6000803e3d6000fd5b505050506040513d602081101561421e57600080fd5b810190808051906020019092919050505060ff16600a0a6142e48c73__Percent_______________________________63d49d51816040518163ffffffff167c010000000000000000000000000000000000000000000000000000000002815260040160206040518083038186803b15801561429957600080fd5b505af41580156142ad573d6000803e3d6000fd5b505050506040513d60208110156142c357600080fd5b8101908080519060200190929190505050018f6143fd90919063ffffffff16565b6143fd90919063ffffffff16565b61465590919063ffffffff16565b61465590919063ffffffff16565b9450848110156143485761433d8561432f838b6143fd90919063ffffffff16565b61465590919063ffffffff16565b935083880392508094505b5093509350935093565b600061435d8261439c565b151561436857600080fd5b61439461437361466b565b61438684866143fd90919063ffffffff16565b61465590919063ffffffff16565b905092915050565b60006143a661467d565b82101580156143bc57506143b861466b565b8211155b9050919050565b60006143ce8261439c565b15156143d957600080fd5b6143f66143e4614685565b600a0a8361465590919063ffffffff16565b9050919050565b600080831415614410576000905061442f565b818302905081838281151561442157fe5b0414151561442b57fe5b8090505b92915050565b60608082840185511015151561444a57600080fd5b821560008114614465576040519150602082016040526144b6565b6040519150601f8416801560200281840101858101878315602002848b0101015b818310156144a35780518352602083019250602081019050614486565b50868552601f19601f8301166040525050505b50809150509392505050565b6000821115156144d157600080fd5b600073ffffffffffffffffffffffffffffffffffffffff168173ffffffffffffffffffffffffffffffffffffffff161415151561450d57600080fd5b8160058190555080600860006101000a81548173ffffffffffffffffffffffffffffffffffffffff021916908373ffffffffffffffffffffffffffffffffffffffff1602179055505050565b600073ffffffffffffffffffffffffffffffffffffffff168173ffffffffffffffffffffffffffffffffffffffff161415151561459557600080fd5b8073ffffffffffffffffffffffffffffffffffffffff16600160009054906101000a900473ffffffffffffffffffffffffffffffffffffffff1673ffffffffffffffffffffffffffffffffffffffff167f8be0079c531659141344cd1fd0a4f28419497f9722a3daafe3b4186f6b6457e060405160405180910390a380600160006101000a81548173ffffffffffffffffffffffffffffffffffffffff021916908373ffffffffffffffffffffffffffffffffffffffff16021790555050565b6000818381151561466257fe5b04905092915050565b600061467561468e565b600a0a905090565b600080905090565b60006002905090565b6000614698614685565b600201905090565b50805460008255600502906000526020600020908101906146c19190614901565b50565b828054828255906000526020600020908101928215614700579160200282015b828111156146ff5782518255916020019190600101906146e4565b5b50905061470d919061498d565b5090565b508054600082559060005260206000209081019061472f919061498d565b50565b82805482825590600052602060002090810192821561476e579160200282015b8281111561476d578235825591602001919060010190614752565b5b50905061477b919061498d565b5090565b50805460008255600502906000526020600020908101906147a091906149b2565b50565b5080546000825560070160089004906000526020600020908101906147c8919061498d565b50565b828054828255906000526020600020906007016008900481019282156148705791602002820160005b8382111561483e57833563ffffffff1683826101000a81548163ffffffff021916908363ffffffff16021790555092602001926004016020816003010492830192600103026147f4565b801561486e5782816101000a81549063ffffffff021916905560040160208160030104928301926001030261483e565b505b50905061487d9190614a3e565b5090565b828054600181600116156101000203166002900490600052602060002090601f016020900481019282601f106148c257805160ff19168380011785556148f0565b828001600101855582156148f0579182015b828111156148ef5782518255916020019190600101906148d4565b5b5090506148fd919061498d565b5090565b61498a91905b8082111561498657600080820160006101000a81549063ffffffff02191690556000820160046101000a81549063ffffffff021916905560018201600090556002820160006101000a81549063ffffffff021916905560038201600061496d9190614711565b60048201600061497d9190614711565b50600501614907565b5090565b90565b6149af91905b808211156149ab576000816000905550600101614993565b5090565b90565b614a3b91905b80821115614a3757600080820160006101000a81549063ffffffff021916905560018201600090556002820160006101000a81549063ffffffff02191690556002820160046101000a81549063ffffffff0219169055600382016000614a1e9190614a71565b600482016000614a2e9190614a71565b506005016149b8565b5090565b90565b614a6e91905b80821115614a6a57600081816101000a81549063ffffffff021916905550600101614a44565b5090565b90565b50805460018160011615610100020316600290046000825580601f10614a975750614ab6565b601f016020900490600052602060002090810190614ab5919061498d565b5b505600a165627a7a723058202a044fd292c8493081506d43d126de347c73fe4c6e4d6aa3d5e49e62644ac8a90029",
  "source": "pragma solidity ^0.4.24;\n\nimport \"./W12Crowdsale.sol\";\n\n\ncontract W12CrowdsaleStub is W12Crowdsale {\n    constructor (\n        uint version,\n        address _originToken,\n        address _token,\n        uint _price,\n        address _serviceWallet,\n        address _swap,\n        uint _serviceFee,\n        uint _WTokenSaleFeePercent,\n        IW12Fund _fund\n    )\n        W12Crowdsale(\n            version,\n            _originToken,\n             _token,\n             _price,\n             _serviceWallet,\n             _swap,\n             _serviceFee,\n            _WTokenSaleFeePercent,\n             _fund\n        ) public\n    {}\n\n    function _outTokens(address to, uint amount) external returns (bool) {\n        return token.transfer(to, amount);\n    }\n\n    function _setState(uint _WTokenSaleFeePercent) external {\n        WTokenSaleFeePercent = _WTokenSaleFeePercent;\n    }\n}\n",
  "sourcePath": "/home/circleci/code/contracts/W12CrowdsaleStub.sol",
  "compiler": {
    "name": "solc",
    "version": "0.4.24+commit.e67f0147.Emscripten.clang"
  },
  "schemaVersion": "2.0.1",
  "updatedAt": "2018-09-28T12:13:35.887Z"
}