{
  "contractName": "W12Crowdsale",
  "abi": [
    {
      "constant": true,
      "inputs": [],
      "name": "originToken",
      "outputs": [
        {
          "name": "",
          "type": "address"
        }
      ],
      "payable": false,
      "stateMutability": "view",
      "type": "function"
    },
    {
      "constant": true,
      "inputs": [],
      "name": "WTokenSaleFeePercent",
      "outputs": [
        {
          "name": "",
          "type": "uint256"
        }
      ],
      "payable": false,
      "stateMutability": "view",
      "type": "function"
    },
    {
      "constant": true,
      "inputs": [],
      "name": "rates",
      "outputs": [
        {
          "name": "",
          "type": "address"
        }
      ],
      "payable": false,
      "stateMutability": "view",
      "type": "function"
    },
    {
      "constant": true,
      "inputs": [],
      "name": "version",
      "outputs": [
        {
          "name": "",
          "type": "uint256"
        }
      ],
      "payable": false,
      "stateMutability": "view",
      "type": "function"
    },
    {
      "constant": true,
      "inputs": [],
      "name": "serviceWallet",
      "outputs": [
        {
          "name": "",
          "type": "address"
        }
      ],
      "payable": false,
      "stateMutability": "view",
      "type": "function"
    },
    {
      "constant": false,
      "inputs": [],
      "name": "renounceOwnership",
      "outputs": [],
      "payable": false,
      "stateMutability": "nonpayable",
      "type": "function"
    },
    {
      "constant": true,
      "inputs": [],
      "name": "swap",
      "outputs": [
        {
          "name": "",
          "type": "address"
        }
      ],
      "payable": false,
      "stateMutability": "view",
      "type": "function"
    },
    {
      "constant": true,
      "inputs": [
        {
          "name": "",
          "type": "uint256"
        }
      ],
      "name": "stages",
      "outputs": [
        {
          "name": "startDate",
          "type": "uint32"
        },
        {
          "name": "endDate",
          "type": "uint32"
        },
        {
          "name": "discount",
          "type": "uint256"
        },
        {
          "name": "vesting",
          "type": "uint32"
        }
      ],
      "payable": false,
      "stateMutability": "view",
      "type": "function"
    },
    {
      "constant": true,
      "inputs": [],
      "name": "serviceFee",
      "outputs": [
        {
          "name": "",
          "type": "uint256"
        }
      ],
      "payable": false,
      "stateMutability": "view",
      "type": "function"
    },
    {
      "constant": true,
      "inputs": [],
      "name": "owner",
      "outputs": [
        {
          "name": "",
          "type": "address"
        }
      ],
      "payable": false,
      "stateMutability": "view",
      "type": "function"
    },
    {
      "constant": true,
      "inputs": [],
      "name": "price",
      "outputs": [
        {
          "name": "",
          "type": "uint256"
        }
      ],
      "payable": false,
      "stateMutability": "view",
      "type": "function"
    },
    {
      "constant": true,
      "inputs": [],
      "name": "fund",
      "outputs": [
        {
          "name": "",
          "type": "address"
        }
      ],
      "payable": false,
      "stateMutability": "view",
      "type": "function"
    },
    {
      "constant": true,
      "inputs": [
        {
          "name": "",
          "type": "uint256"
        }
      ],
      "name": "milestones",
      "outputs": [
        {
          "name": "endDate",
          "type": "uint32"
        },
        {
          "name": "tranchePercent",
          "type": "uint256"
        },
        {
          "name": "voteEndDate",
          "type": "uint32"
        },
        {
          "name": "withdrawalWindow",
          "type": "uint32"
        },
        {
          "name": "name",
          "type": "bytes"
        },
        {
          "name": "description",
          "type": "bytes"
        }
      ],
      "payable": false,
      "stateMutability": "view",
      "type": "function"
    },
    {
      "constant": false,
      "inputs": [
        {
          "name": "_newOwner",
          "type": "address"
        }
      ],
      "name": "transferOwnership",
      "outputs": [],
      "payable": false,
      "stateMutability": "nonpayable",
      "type": "function"
    },
    {
      "constant": true,
      "inputs": [],
      "name": "token",
      "outputs": [
        {
          "name": "",
          "type": "address"
        }
      ],
      "payable": false,
      "stateMutability": "view",
      "type": "function"
    },
    {
      "inputs": [
        {
          "name": "version",
          "type": "uint256"
        },
        {
          "name": "_originToken",
          "type": "address"
        },
        {
          "name": "_token",
          "type": "address"
        },
        {
          "name": "_price",
          "type": "uint256"
        },
        {
          "name": "_serviceWallet",
          "type": "address"
        },
        {
          "name": "_swap",
          "type": "address"
        },
        {
          "name": "_serviceFee",
          "type": "uint256"
        },
        {
          "name": "_WTokenSaleFeePercent",
          "type": "uint256"
        },
        {
          "name": "_fund",
          "type": "address"
        },
        {
          "name": "_rates",
          "type": "address"
        }
      ],
      "payable": false,
      "stateMutability": "nonpayable",
      "type": "constructor"
    },
    {
      "anonymous": false,
      "inputs": [
        {
          "indexed": true,
          "name": "buyer",
          "type": "address"
        },
        {
          "indexed": false,
          "name": "tokensBought",
          "type": "uint256"
        },
        {
          "indexed": false,
          "name": "cost",
          "type": "uint256"
        },
        {
          "indexed": false,
          "name": "change",
          "type": "uint256"
        }
      ],
      "name": "TokenPurchase",
      "type": "event"
    },
    {
      "anonymous": false,
      "inputs": [],
      "name": "StagesUpdated",
      "type": "event"
    },
    {
      "anonymous": false,
      "inputs": [
        {
          "indexed": false,
          "name": "index",
          "type": "uint256"
        }
      ],
      "name": "StageUpdated",
      "type": "event"
    },
    {
      "anonymous": false,
      "inputs": [],
      "name": "MilestonesUpdated",
      "type": "event"
    },
    {
      "anonymous": false,
      "inputs": [],
      "name": "CrowdsaleSetUpDone",
      "type": "event"
    },
    {
      "anonymous": false,
      "inputs": [
        {
          "indexed": true,
          "name": "owner",
          "type": "address"
        },
        {
          "indexed": false,
          "name": "amount",
          "type": "uint256"
        }
      ],
      "name": "UnsoldTokenReturned",
      "type": "event"
    },
    {
      "anonymous": false,
      "inputs": [
        {
          "indexed": true,
          "name": "previousOwner",
          "type": "address"
        }
      ],
      "name": "OwnershipRenounced",
      "type": "event"
    },
    {
      "anonymous": false,
      "inputs": [
        {
          "indexed": true,
          "name": "previousOwner",
          "type": "address"
        },
        {
          "indexed": true,
          "name": "newOwner",
          "type": "address"
        }
      ],
      "name": "OwnershipTransferred",
      "type": "event"
    },
    {
      "constant": true,
      "inputs": [],
      "name": "stagesLength",
      "outputs": [
        {
          "name": "",
          "type": "uint256"
        }
      ],
      "payable": false,
      "stateMutability": "view",
      "type": "function"
    },
    {
      "constant": true,
      "inputs": [],
      "name": "milestonesLength",
      "outputs": [
        {
          "name": "",
          "type": "uint256"
        }
      ],
      "payable": false,
      "stateMutability": "view",
      "type": "function"
    },
    {
      "constant": true,
      "inputs": [
        {
          "name": "index",
          "type": "uint256"
        }
      ],
      "name": "getMilestone",
      "outputs": [
        {
          "name": "",
          "type": "uint32"
        },
        {
          "name": "",
          "type": "uint256"
        },
        {
          "name": "",
          "type": "uint32"
        },
        {
          "name": "",
          "type": "uint32"
        },
        {
          "name": "",
          "type": "bytes"
        },
        {
          "name": "",
          "type": "bytes"
        }
      ],
      "payable": false,
      "stateMutability": "view",
      "type": "function"
    },
    {
      "constant": true,
      "inputs": [
        {
          "name": "index",
          "type": "uint256"
        }
      ],
      "name": "getStage",
      "outputs": [
        {
          "name": "",
          "type": "uint32"
        },
        {
          "name": "",
          "type": "uint32"
        },
        {
          "name": "",
          "type": "uint256"
        },
        {
          "name": "",
          "type": "uint32"
        },
        {
          "name": "",
          "type": "uint256[]"
        },
        {
          "name": "",
          "type": "uint256[]"
        }
      ],
      "payable": false,
      "stateMutability": "view",
      "type": "function"
    },
    {
      "constant": true,
      "inputs": [],
      "name": "getEndDate",
      "outputs": [
        {
          "name": "",
          "type": "uint32"
        }
      ],
      "payable": false,
      "stateMutability": "view",
      "type": "function"
    },
    {
      "constant": true,
      "inputs": [],
      "name": "getCurrentMilestoneIndex",
      "outputs": [
        {
          "name": "index",
          "type": "uint256"
        },
        {
          "name": "found",
          "type": "bool"
        }
      ],
      "payable": false,
      "stateMutability": "view",
      "type": "function"
    },
    {
      "constant": true,
      "inputs": [],
      "name": "getLastMilestoneIndex",
      "outputs": [
        {
          "name": "index",
          "type": "uint256"
        },
        {
          "name": "found",
          "type": "bool"
        }
      ],
      "payable": false,
      "stateMutability": "view",
      "type": "function"
    },
    {
      "constant": false,
      "inputs": [
        {
          "name": "_price",
          "type": "uint256"
        }
      ],
      "name": "setParameters",
      "outputs": [],
      "payable": false,
      "stateMutability": "nonpayable",
      "type": "function"
    },
    {
      "constant": false,
      "inputs": [
        {
          "name": "parametersOfStages",
          "type": "uint256[6][]"
        },
        {
          "name": "bonusConditionsOfStages",
          "type": "uint256[]"
        },
        {
          "name": "parametersOfMilestones",
          "type": "uint256[4][]"
        },
        {
          "name": "nameAndDescriptionsOffsetOfMilestones",
          "type": "uint32[]"
        },
        {
          "name": "nameAndDescriptionsOfMilestones",
          "type": "bytes"
        },
        {
          "name": "paymentMethodsList",
          "type": "bytes32[]"
        }
      ],
      "name": "setup",
      "outputs": [],
      "payable": false,
      "stateMutability": "nonpayable",
      "type": "function"
    },
    {
      "constant": false,
      "inputs": [
        {
          "name": "method",
          "type": "bytes32"
        },
        {
          "name": "amount",
          "type": "uint256"
        }
      ],
      "name": "buyTokens",
      "outputs": [],
      "payable": true,
      "stateMutability": "payable",
      "type": "function"
    },
    {
      "constant": true,
      "inputs": [],
      "name": "getWToken",
      "outputs": [
        {
          "name": "",
          "type": "address"
        }
      ],
      "payable": false,
      "stateMutability": "view",
      "type": "function"
    },
    {
      "constant": true,
      "inputs": [],
      "name": "getFund",
      "outputs": [
        {
          "name": "",
          "type": "address"
        }
      ],
      "payable": false,
      "stateMutability": "view",
      "type": "function"
    },
    {
      "constant": true,
      "inputs": [],
      "name": "getPaymentMethodsList",
      "outputs": [
        {
          "name": "",
          "type": "bytes32[]"
        }
      ],
      "payable": false,
      "stateMutability": "view",
      "type": "function"
    },
    {
      "constant": true,
      "inputs": [
        {
          "name": "_method",
          "type": "bytes32"
        }
      ],
      "name": "isPaymentMethodAllowed",
      "outputs": [
        {
          "name": "",
          "type": "bool"
        }
      ],
      "payable": false,
      "stateMutability": "view",
      "type": "function"
    },
    {
      "constant": true,
      "inputs": [
        {
          "name": "method",
          "type": "bytes32"
        },
        {
          "name": "amount",
          "type": "uint256"
        }
      ],
      "name": "getInvoice",
      "outputs": [
        {
          "name": "",
          "type": "uint256[5]"
        }
      ],
      "payable": false,
      "stateMutability": "view",
      "type": "function"
    },
    {
      "constant": true,
      "inputs": [
        {
          "name": "method",
          "type": "bytes32"
        },
        {
          "name": "tokenAmount",
          "type": "uint256"
        }
      ],
      "name": "getInvoiceByTokenAmount",
      "outputs": [
        {
          "name": "",
          "type": "uint256[4]"
        }
      ],
      "payable": false,
      "stateMutability": "view",
      "type": "function"
    },
    {
      "constant": true,
      "inputs": [
        {
          "name": "tokenAmount",
          "type": "uint256"
        },
        {
          "name": "cost",
          "type": "uint256"
        }
      ],
      "name": "getFee",
      "outputs": [
        {
          "name": "",
          "type": "uint256[2]"
        }
      ],
      "payable": false,
      "stateMutability": "view",
      "type": "function"
    },
    {
      "constant": true,
      "inputs": [
        {
          "name": "value",
          "type": "uint256"
        }
      ],
      "name": "getSaleVolumeBonus",
      "outputs": [
        {
          "name": "bonus",
          "type": "uint256"
        }
      ],
      "payable": false,
      "stateMutability": "view",
      "type": "function"
    },
    {
      "constant": true,
      "inputs": [],
      "name": "getCurrentStageIndex",
      "outputs": [
        {
          "name": "index",
          "type": "uint256"
        },
        {
          "name": "found",
          "type": "bool"
        }
      ],
      "payable": false,
      "stateMutability": "view",
      "type": "function"
    },
    {
      "constant": false,
      "inputs": [],
      "name": "claimRemainingTokens",
      "outputs": [],
      "payable": false,
      "stateMutability": "nonpayable",
      "type": "function"
    },
    {
      "constant": true,
      "inputs": [],
      "name": "isEnded",
      "outputs": [
        {
          "name": "",
          "type": "bool"
        }
      ],
      "payable": false,
      "stateMutability": "view",
      "type": "function"
    },
    {
      "constant": true,
      "inputs": [],
      "name": "isSaleActive",
      "outputs": [
        {
          "name": "",
          "type": "bool"
        }
      ],
      "payable": false,
      "stateMutability": "view",
      "type": "function"
    }
  ],
  "bytecode": "0x608060405260016002553480156200001657600080fd5b506040516101408062004f0e83398101604090815281516020830151918301516060840151608085015160a086015160c087015160e088015161010089015161012090990151600088905560018054600160a060020a03191633179055969895969495939492939192909190600160a060020a03891615156200009857600080fd5b600160a060020a0388161515620000ae57600080fd5b620000c7846401000000006200430d6200020b82021704565b8015620000ec57506064620000ea8564010000000062004b626200024882021704565b105b1515620000f857600080fd5b62000111836401000000006200430d6200020b82021704565b80156200013657506064620001348464010000000062004b626200024882021704565b105b15156200014257600080fd5b600160a060020a03821615156200015857600080fd5b600160a060020a03851615156200016e57600080fd5b600160a060020a03811615156200018457600080fd5b6200019987876401000000006200029a810204565b60038054600160a060020a0319908116600160a060020a039a8b16179091556004805482169a8a169a909a17909955600893909355600b80548916948816949094179093556009556005805487169286169290921790915560068054909516931692909217909255506200033f915050565b600062000220640100000000620002e5810204565b82101580156200024257506200023e640100000000620002ea810204565b8211155b92915050565b60006200025e826401000000006200020b810204565b15156200026a57600080fd5b620002426200028164010000000062000307810204565b8390600a0a6401000000006200475b6200030c82021704565b60008211620002a857600080fd5b600160a060020a0381161515620002be57600080fd5b600791909155600a8054600160a060020a031916600160a060020a03909216919091179055565b600090565b6000620002ff64010000000062000322810204565b600a0a905090565b600290565b600081838115156200031a57fe5b049392505050565b60006200033764010000000062000307810204565b600201905090565b614bbf806200034f6000396000f3006080604052600436106101b35763ffffffff60e060020a60003504166307f5d63381146101b857806311eb8c9f146101c857806313096a41146101f457806314f66d3414610225578063208853c9146102535780632442e1cb1461027d5780632e325020146103b35780632fbe5990146104a4578063313602d4146104b95780633baba4d7146104ce5780634090cb64146104e357806343f48fbd146104f857806354fd4d501461050d578063550fd742146105225780635641f3c314610587578063564566a81461059c578063715018a6146105b1578063792c02ea146105c65780638119c065146105db578063845ddcb2146105f05780638abdf5aa146106395780638aea2af81461064e5780638da5cb5b146106a15780638edd6eb6146106b6578063a035b1fe146106cb578063a4fd6f56146106e0578063b1356488146106f5578063b60d428814610723578063d250185c14610738578063d5b226231461076a578063d6d65f3d146107c6578063daa4cf88146107db578063e89e4ed6146107f0578063e93b054014610808578063f2fde38b14610820578063f6cf09dc14610841578063fc0c546a14610871575b600080fd5b6101c6600435602435610886565b005b3480156101d457600080fd5b506101e0600435610a8d565b604080519115158252519081900360200190f35b34801561020057600080fd5b50610209610aa6565b60408051600160a060020a039092168252519081900360200190f35b34801561023157600080fd5b5061023a610ab5565b6040805192835290151560208301528051918290030190f35b34801561025f57600080fd5b5061026b600435610ae8565b60408051918252519081900360200190f35b34801561028957600080fd5b50610295600435610bde565b604051808763ffffffff1663ffffffff1681526020018681526020018563ffffffff1663ffffffff1681526020018463ffffffff1663ffffffff1681526020018060200180602001838103835285818151815260200191508051906020019080838360005b838110156103125781810151838201526020016102fa565b50505050905090810190601f16801561033f5780820380516001836020036101000a031916815260200191505b50838103825284518152845160209182019186019080838360005b8381101561037257818101518382015260200161035a565b50505050905090810190601f16801561039f5780820380516001836020036101000a031916815260200191505b509850505050505050505060405180910390f35b3480156103bf57600080fd5b506103cb600435610e0b565b604051808763ffffffff1663ffffffff1681526020018663ffffffff1663ffffffff1681526020018581526020018463ffffffff1663ffffffff1681526020018060200180602001838103835285818151815260200191508051906020019060200280838360005b8381101561044b578181015183820152602001610433565b50505050905001838103825284818151815260200191508051906020019060200280838360005b8381101561048a578181015183820152602001610472565b505050509050019850505050505050505060405180910390f35b3480156104b057600080fd5b5061026b610fb1565b3480156104c557600080fd5b506101c6610fb7565b3480156104da57600080fd5b5061026b611166565b3480156104ef57600080fd5b5061020961116d565b34801561050457600080fd5b5061020961117c565b34801561051957600080fd5b5061026b61118b565b34801561052e57600080fd5b50610537611191565b60408051602080825283518183015283519192839290830191858101910280838360005b8381101561057357818101518382015260200161055b565b505050509050019250505060405180910390f35b34801561059357600080fd5b506102096111a2565b3480156105a857600080fd5b506101e06111b1565b3480156105bd57600080fd5b506101c66111c7565b3480156105d257600080fd5b5061026b611235565b3480156105e757600080fd5b5061020961123b565b3480156105fc57600080fd5b5061060860043561124a565b6040805163ffffffff9586168152938516602085015283810192909252909216606082015290519081900360800190f35b34801561064557600080fd5b5061026b611290565b34801561065a57600080fd5b50610669600435602435611296565b604051808260a080838360005b8381101561068e578181015183820152602001610676565b5050505090500191505060405180910390f35b3480156106ad57600080fd5b50610209611721565b3480156106c257600080fd5b50610209611730565b3480156106d757600080fd5b5061026b61173f565b3480156106ec57600080fd5b506101e0611745565b34801561070157600080fd5b5061070a61178c565b6040805163ffffffff9092168252519081900360200190f35b34801561072f57600080fd5b506102096117d3565b34801561074457600080fd5b506107536004356024356117e2565b604080518251815290819083908083836020610676565b34801561077657600080fd5b506101c6602460048035828101929082013591813580830192908201359160443580830192908201359160643580830192908201359160843580830192908201359160a435918201910135611801565b3480156107d257600080fd5b5061023a611b2f565b3480156107e757600080fd5b5061023a611baa565b3480156107fc57600080fd5b50610295600435611c2d565b34801561081457600080fd5b506101c6600435611d9b565b34801561082c57600080fd5b506101c6600160a060020a0360043516611e09565b34801561084d57600080fd5b5061085c600435602435611e29565b60405181518152808260808083836020610676565b34801561087d57600080fd5b506102096122a9565b60006108906148a8565b6108986148c7565b6002546001146108a757600080fd5b600280556108b36111b1565b151561092057604080517f08c379a000000000000000000000000000000000000000000000000000000000815260206004820152601760248201527f53616c65206973206e6f74207374617274656420796574000000000000000000604482015290519081900360640190fd5b846109296122b8565b146109be576006546040805160e460020a630b12e441028152600481018890529051600092600160a060020a03169163b12e441091602480830192602092919082900301818787803b15801561097e57600080fd5b505af1158015610992573d6000803e3d6000fd5b505050506040513d60208110156109a857600080fd5b5051600160a060020a031614156109be57600080fd5b6109c6611baa565b5092506109d38585611296565b805160208201519193506109e6916117e2565b90506109f281866122dc565b610a268282600e86815481101515610a0657fe5b600091825260209091206002600590920201015463ffffffff1688612414565b610a3182828761253d565b8151602080840151606080860151604080519586529385019290925283830191909152905133927f347f5f0051b895093800553e6e78ef332849e2552639a4f5ffe66535788ae07892908290030190a250506001600255505050565b6000610aa0600c8363ffffffff6127fb16565b92915050565b600454600160a060020a031681565b600f5460009081901580610ace5750610acc611745565b155b15610ad857610ae4565b5050600f546000190160015b9091565b600080600080610af6611baa565b92509250811515610b0657610bd6565b600e805484908110610b1457fe5b90600052602060002090600502019050610bd38582600301805480602002602001604051908101604052809291908181526020018280548015610b7657602002820191906000526020600020905b815481526020019060010190808311610b62575b505050505083600401805480602002602001604051908101604052809291908181526020018280548015610bc957602002820191906000526020600020905b815481526020019060010190808311610bb5575b5050505050612814565b93505b505050919050565b600080600080606080600f87815481101515610bf657fe5b6000918252602090912060059091020154600f805463ffffffff9092169189908110610c1e57fe5b906000526020600020906005020160010154600f89815481101515610c3f57fe5b6000918252602090912060026005909202010154600f805463ffffffff909216918b908110610c6a57fe5b906000526020600020906005020160020160049054906101000a900463ffffffff16600f8b815481101515610c9b57fe5b9060005260206000209060050201600301600f8c815481101515610cbb57fe5b9060005260206000209060050201600401818054600181600116156101000203166002900480601f016020809104026020016040519081016040528092919081815260200182805460018160011615610100020316600290048015610d615780601f10610d3657610100808354040283529160200191610d61565b820191906000526020600020905b815481529060010190602001808311610d4457829003601f168201915b5050845460408051602060026001851615610100026000190190941693909304601f810184900484028201840190925281815295975086945092508401905082828015610def5780601f10610dc457610100808354040283529160200191610def565b820191906000526020600020905b815481529060010190602001808311610dd257829003601f168201915b5050505050905095509550955095509550955091939550919395565b600080600080606080600e87815481101515610e2357fe5b6000918252602090912060059091020154600e805463ffffffff9092169189908110610e4b57fe5b906000526020600020906005020160000160049054906101000a900463ffffffff16600e89815481101515610e7c57fe5b906000526020600020906005020160010154600e8a815481101515610e9d57fe5b6000918252602090912060026005909202010154600e805463ffffffff909216918c908110610ec857fe5b9060005260206000209060050201600301600e8c815481101515610ee857fe5b906000526020600020906005020160040181805480602002602001604051908101604052809291908181526020018280548015610f4457602002820191906000526020600020905b815481526020019060010190808311610f30575b5050505050915080805480602002602001604051908101604052809291908181526020018280548015610def57602002820191906000526020600020905b815481526020019060010190808311610f82575050505050905095509550955095509550955091939550919395565b60095481565b600154600090600160a060020a03163314610fd157600080fd5b610fd9611745565b1515610fe457600080fd5b600354604080517f70a082310000000000000000000000000000000000000000000000000000000081523060048201529051600160a060020a03909216916370a08231916024808201926020929091908290030181600087803b15801561104a57600080fd5b505af115801561105e573d6000803e3d6000fd5b505050506040513d602081101561107457600080fd5b5051600354600154604080517fa9059cbb000000000000000000000000000000000000000000000000000000008152600160a060020a03928316600482015260248101859052905193945091169163a9059cbb916044808201926020929091908290030181600087803b1580156110ea57600080fd5b505af11580156110fe573d6000803e3d6000fd5b505050506040513d602081101561111457600080fd5b5051151561112157600080fd5b600154604080518381529051600160a060020a03909216917f26ffb867a6b19bc0240d4e732ed6cfb0f0b6d93143a99cfb24ba5873308861f89181900360200190a250565b600f545b90565b600354600160a060020a031690565b600654600160a060020a031681565b60005481565b606061119d600c612873565b905090565b600a54600160a060020a031681565b6000806111bc611baa565b9150508091505b5090565b600154600160a060020a031633146111de57600080fd5b600154604051600160a060020a03909116907ff8df31144d9c2f0f6b59d69b8b98abd5459d07f2742c4df920b25aae33c6482090600090a26001805473ffffffffffffffffffffffffffffffffffffffff19169055565b600e5490565b600b54600160a060020a031681565b600e80548290811061125857fe5b600091825260209091206005909102018054600182015460029092015463ffffffff8083169450640100000000909204821692911684565b60085481565b61129e6148a8565b6000806112a9611baa565b915091508015156112b957611719565b846112c26122b8565b1461134f576006546040805160e060020a63cfec719f028152600481018890529051600160a060020a039092169163cfec719f916024808201926020929091908290030181600087803b15801561131857600080fd5b505af115801561132c573d6000803e3d6000fd5b505050506040513d602081101561134257600080fd5b5051151561134f57611719565b6117168585600e8581548110151561136357fe5b906000526020600020906005020160010154600e8681548110151561138457fe5b90600052602060002090600502016003018054806020026020016040519081016040528092919081815260200182805480156113df57602002820191906000526020600020905b8154815260200190600101908083116113cb575b5050505050600e878154811015156113f357fe5b906000526020600020906005020160040180548060200260200160405190810160405280929190818152602001828054801561144e57602002820191906000526020600020905b81548152602001906001019080831161143a575b5050505050600660009054906101000a9004600160a060020a0316600160a060020a0316638eaa6ac08c6040518263ffffffff1660e060020a028152600401808260001916600019168152602001915050602060405180830381600087803b1580156114b957600080fd5b505af11580156114cd573d6000803e3d6000fd5b505050506040513d60208110156114e357600080fd5b50516007546003546040805160e060020a63313ce5670281529051600160a060020a039092169163313ce567916004808201926020929091908290030181600087803b15801561153257600080fd5b505af1158015611546573d6000803e3d6000fd5b505050506040513d602081101561155c57600080fd5b505160ff168d61156a6122b8565b1461167c57600660009054906101000a9004600160a060020a0316600160a060020a031663b12e44108f6040518263ffffffff1660e060020a028152600401808260001916600019168152602001915050602060405180830381600087803b1580156115d557600080fd5b505af11580156115e9573d6000803e3d6000fd5b505050506040513d60208110156115ff57600080fd5b50516040805160e060020a63313ce5670281529051600160a060020a039092169163313ce567916004808201926020929091908290030181600087803b15801561164857600080fd5b505af115801561165c573d6000803e3d6000fd5b505050506040513d602081101561167257600080fd5b505160ff1661167f565b60125b600354604080517f70a082310000000000000000000000000000000000000000000000000000000081523060048201529051600160a060020a03909216916370a08231916024808201926020929091908290030181600087803b1580156116e557600080fd5b505af11580156116f9573d6000803e3d6000fd5b505050506040513d602081101561170f57600080fd5b50516128d0565b92505b505092915050565b600154600160a060020a031681565b600554600160a060020a031690565b60075481565b600e54600090158061119d5750600e8054429190600019810190811061176757fe5b6000918252602090912060059091020154640100000000900463ffffffff1610919050565b600e54600090811061179d57600080fd5b600e805460001981019081106117af57fe5b6000918252602090912060059091020154640100000000900463ffffffff16919050565b600554600160a060020a031681565b6117ea6148c7565b6117fa8383600854600954612d0e565b9392505050565b600154600090600160a060020a0316331461181b57600080fd5b600e54600010156118585742600e600081548110151561183757fe5b600091825260209091206005909102015463ffffffff161161185857600080fd5b8b151561186457600080fd5b60ff8c111561187257600080fd5b60ff88111561188057600080fd5b60028604881461188f57600080fd5b6002840488111561189f57600080fd5b8115156118ab57600080fd5b5060005b8181101561195757600654600160a060020a0316637d20abf88484848181106118d457fe5b6040805160e060020a63ffffffff87160281526020928302949094013560048501525160248085019492935090918290030181600087803b15801561191857600080fd5b505af115801561192c573d6000803e3d6000fd5b505050506040513d602081101561194257600080fd5b5051151561194f57600080fd5b6001016118af565b6119f08d8d808060200260200160405190810160405280939291908181526020016000905b828210156119b8576040805160c0818101909252908084028701906006908390839080828437505050918352505060019091019060200161197c565b50505050508c8c8080602002602001604051908101604052809392919081815260200183836020028082843750612d59945050505050565b611ab78989808060200260200160405190810160405280939291908181526020016000905b82821015611a51576040805160808181019092529080840287019060049083908390808284375050509183525050600190910190602001611a15565b50505050508888808060200260200160405190810160405280939291908181526020018383602002808284375050604080516020601f8e018190048102820181019092528c815294508c93508b9250829150840183828082843750613262945050505050565b611af783838080602002602001604051908101604052809392919081815260200183836020028082843750600c9594505063ffffffff6137c01692505050565b6040517f072792b04aecd99b2250bc76fb25f9bca793c3b7383cb4c7255a7a01e8f5a12e90600090a150505050505050505050505050565b600f5460009081901580611b485750611b46611745565b155b15611b5257610ae4565b5060015b600f546000190182108015611b9a5750600f805483908110611b7457fe5b6000918252602090912060059091020160020154640100000000900463ffffffff164210155b15610ae457600190910190611b56565b60008080805b600e54821015611c1f57600e805483908110611bc857fe5b6000918252602090912060059091020180549091504263ffffffff90911611801590611c03575080544264010000000090910463ffffffff16115b15611c145781600193509350611c27565b600190910190611bb0565b600093508392505b50509091565b600f805482908110611c3b57fe5b60009182526020918290206005919091020180546001808301546002808501546003860180546040805161010097831615979097026000190190911693909304601f810189900489028601890190935282855263ffffffff9586169850929685821696640100000000909204909516949093929190830182828015611d015780601f10611cd657610100808354040283529160200191611d01565b820191906000526020600020905b815481529060010190602001808311611ce457829003601f168201915b5050505060048301805460408051602060026001851615610100026000190190941693909304601f8101849004840282018401909252818152949594935090830182828015611d915780601f10611d6657610100808354040283529160200191611d91565b820191906000526020600020905b815481529060010190602001808311611d7457829003601f168201915b5050505050905086565b600154600160a060020a03163314611db257600080fd5b600e5460001015611def5742600e6000815481101515611dce57fe5b600091825260209091206005909102015463ffffffff1611611def57600080fd5b600a54611e06908290600160a060020a0316613891565b50565b600154600160a060020a03163314611e2057600080fd5b611e06816138e7565b611e316148e2565b600080611e3c611baa565b91509150801515611e4c57611719565b84611e556122b8565b14611ee2576006546040805160e060020a63cfec719f028152600481018890529051600160a060020a039092169163cfec719f916024808201926020929091908290030181600087803b158015611eab57600080fd5b505af1158015611ebf573d6000803e3d6000fd5b505050506040513d6020811015611ed557600080fd5b50511515611ee257611719565b6117168585600e85815481101515611ef657fe5b906000526020600020906005020160010154600e86815481101515611f1757fe5b9060005260206000209060050201600301805480602002602001604051908101604052809291908181526020018280548015611f7257602002820191906000526020600020905b815481526020019060010190808311611f5e575b5050505050600e87815481101515611f8657fe5b9060005260206000209060050201600401805480602002602001604051908101604052809291908181526020018280548015611fe157602002820191906000526020600020905b815481526020019060010190808311611fcd575b5050505050600660009054906101000a9004600160a060020a0316600160a060020a0316638eaa6ac08c6040518263ffffffff1660e060020a028152600401808260001916600019168152602001915050602060405180830381600087803b15801561204c57600080fd5b505af1158015612060573d6000803e3d6000fd5b505050506040513d602081101561207657600080fd5b50516007546003546040805160e060020a63313ce5670281529051600160a060020a039092169163313ce567916004808201926020929091908290030181600087803b1580156120c557600080fd5b505af11580156120d9573d6000803e3d6000fd5b505050506040513d60208110156120ef57600080fd5b505160ff168d6120fd6122b8565b1461220f57600660009054906101000a9004600160a060020a0316600160a060020a031663b12e44108f6040518263ffffffff1660e060020a028152600401808260001916600019168152602001915050602060405180830381600087803b15801561216857600080fd5b505af115801561217c573d6000803e3d6000fd5b505050506040513d602081101561219257600080fd5b50516040805160e060020a63313ce5670281529051600160a060020a039092169163313ce567916004808201926020929091908290030181600087803b1580156121db57600080fd5b505af11580156121ef573d6000803e3d6000fd5b505050506040513d602081101561220557600080fd5b505160ff16612212565b60125b600354604080517f70a082310000000000000000000000000000000000000000000000000000000081523060048201529051600160a060020a03909216916370a08231916024808201926020929091908290030181600087803b15801561227857600080fd5b505af115801561228c573d6000803e3d6000fd5b505050506040513d60208110156122a257600080fd5b5051613965565b600354600160a060020a031681565b7f455448000000000000000000000000000000000000000000000000000000000090565b6006546040805160e060020a63cfec719f0281526004810184905290516124109285928592600160a060020a039092169163cfec719f916024808201926020929091908290030181600087803b15801561233557600080fd5b505af1158015612349573d6000803e3d6000fd5b505050506040513d602081101561235f57600080fd5b505161236c5760006123ea565b6006546040805160e460020a630b12e441028152600481018790529051600160a060020a039092169163b12e4410916024808201926020929091908290030181600087803b1580156123bd57600080fd5b505af11580156123d1573d6000803e3d6000fd5b505050506040513d60208110156123e757600080fd5b50515b600354600454600b54600a54600160a060020a0393841693928316929182169116613bda565b5050565b6006546040805160e060020a63cfec719f028152600481018490529051612537928792879287928792600160a060020a039091169163cfec719f916024808201926020929091908290030181600087803b15801561247157600080fd5b505af1158015612485573d6000803e3d6000fd5b505050506040513d602081101561249b57600080fd5b50516124a8576000612526565b6006546040805160e460020a630b12e441028152600481018990529051600160a060020a039092169163b12e4410916024808201926020929091908290030181600087803b1580156124f957600080fd5b505af115801561250d573d6000803e3d6000fd5b505050506040513d602081101561252357600080fd5b50515b600354600160a060020a0316613f69565b50505050565b6125456122b8565b81141561261957600554600160a060020a031663d0baf2f561257d84600160200201518660015b60200201519063ffffffff61425916565b855160208601513391908690612595908a600161256c565b89600260200201516040805160e060020a63ffffffff8a16028152600160a060020a03909616600487015260248601949094526044850192909252606484015260848301525160a480830192600092919082900301818588803b1580156125fb57600080fd5b505af115801561260f573d6000803e3d6000fd5b50505050506127f6565b6006546040805160e460020a630b12e441028152600481018490529051600160a060020a039092169163b12e4410916024808201926020929091908290030181600087803b15801561266a57600080fd5b505af115801561267e573d6000803e3d6000fd5b505050506040513d602081101561269457600080fd5b5051600554600160a060020a039182169163a9059cbb91166126c08560015b602002015187600161256c565b6040518363ffffffff1660e060020a0281526004018083600160a060020a0316600160a060020a0316815260200182815260200192505050602060405180830381600087803b15801561271257600080fd5b505af1158015612726573d6000803e3d6000fd5b505050506040513d602081101561273c57600080fd5b5051151561274957600080fd5b600554600160a060020a031663d0baf2f533856000602002015184612777876001602002015189600161256c565b88600260200201516040805160e060020a63ffffffff8916028152600160a060020a03909616600487015260248601949094526044850192909252606484015260848301525160a480830192600092919082900301818387803b1580156127dd57600080fd5b505af11580156127f1573d6000803e3d6000fd5b505050505b505050565b6000908152600191909101602052604090205460ff1690565b6000805b835181101561286b57838181518110151561282f57fe5b60209081029091010151851061285e57828181518110151561284d57fe5b906020019060200201519150612863565b61286b565b600101612818565b509392505050565b6060816000018054806020026020016040519081016040528092919081815260200182805480156128c457602002820191906000526020600020905b815481526001909101906020018083116128af575b50505050509050919050565b6128d86148a8565b60006128e98c8c8989878a8a61426b565b15156128f457600080fd5b73__Utils_________________________________6376ba78988c868a6040518463ffffffff1660e060020a02815260040180848152602001838152602001828152602001935050505060206040518083038186803b15801561295657600080fd5b505af415801561296a573d6000803e3d6000fd5b505050506040513d602081101561298057600080fd5b50516040830181905286111561299557600080fd5b6129a88260025b60200201518a8a612814565b905060008a116129b85785612a3e565b612a3e8a73__Percent_______________________________63d49d51816040518163ffffffff1660e060020a02815260040160206040518083038186803b158015612a0357600080fd5b505af4158015612a17573d6000803e3d6000fd5b505050506040513d6020811015612a2d57600080fd5b50518891900363ffffffff6142c316565b82600460200201818152505073__Utils_________________________________63a5a55fcf612af5612aea8473__Percent_______________________________63d49d51816040518163ffffffff1660e060020a02815260040160206040518083038186803b158015612ab257600080fd5b505af4158015612ac6573d6000803e3d6000fd5b505050506040513d6020811015612adc57600080fd5b50519063ffffffff6142ec16565b6040860151906142f9565b8785600460200201516040518463ffffffff1660e060020a02815260040180848152602001838152602001828152602001935050505060206040518083038186803b158015612b4357600080fd5b505af4158015612b57573d6000803e3d6000fd5b505050506040513d6020811015612b6d57600080fd5b5051808352831015612c2c576080820151604080517f76ba7898000000000000000000000000000000000000000000000000000000008152600481018690526024810188905260448101929092525173__Utils_________________________________916376ba7898916064808301926020929190829003018186803b158015612bf757600080fd5b505af4158015612c0b573d6000803e3d6000fd5b505050506040513d6020811015612c2157600080fd5b505160408301528282525b73__Utils_________________________________63a5a55fcf8360026020020151868a6040518463ffffffff1660e060020a02815260040180848152602001838152602001828152602001935050505060206040518083038186803b158015612c9557600080fd5b505af4158015612ca9573d6000803e3d6000fd5b505050506040513d6020811015612cbf57600080fd5b5051602083018190521580612cd357508151155b15612cea5760008083526020830181905260408301525b6020820151612cfa908c90614259565b6060830152509a9950505050505050505050565b612d166148c7565b6000831115612d3257612d2f858463ffffffff6142f916565b81525b6000821115612d5157612d4b848363ffffffff6142f916565b60208201525b949350505050565b600f54600090811015612db657825183906000198101908110612d7857fe5b6020908102919091018101510151600f80546000908110612d9557fe5b600091825260209091206005909102015463ffffffff1611612db657600080fd5b612dc2600e6000614901565b5060005b82518160ff16101561323457825163ffffffff90849060ff8416908110612de957fe5b6020908102919091010151511115612e0057600080fd5b825163ffffffff90849060ff8416908110612e1757fe5b60209081029190910181015101511115612e3057600080fd5b825163ffffffff90849060ff8416908110612e4757fe5b6020908102919091010151606001511115612e6157600080fd5b825160ff908490838316908110612e7457fe5b6020908102919091010151608001511115612e8e57600080fd5b825160ff908490838316908110612ea157fe5b602090810291909101015160a001511115612ebb57600080fd5b42838260ff16815181101515612ecd57fe5b60209081029190910101515111612ee357600080fd5b828160ff16815181101515612ef457fe5b60209081029190910181015101518351849060ff8416908110612f1357fe5b60209081029190910101515110612f2957600080fd5b60008160ff161115612f8057828160ff16815181101515612f4657fe5b6020908102919091010151518351849060ff600019850116908110612f6757fe5b60209081029190910181015101511115612f8057600080fd5b612fab838260ff16815181101515612f9457fe5b6020908102909101015160025b602002015161430d565b1515612fb657600080fd5b73__Percent_______________________________63d49d51816040518163ffffffff1660e060020a02815260040160206040518083038186803b158015612ffd57600080fd5b505af4158015613011573d6000803e3d6000fd5b505050506040513d602081101561302757600080fd5b50518351849060ff841690811061303a57fe5b6020908102919091010151604001511061305357600080fd5b600e60c060405190810160405280858460ff1681518110151561307257fe5b6020908102919091018101515163ffffffff1682528651910190869060ff861690811061309b57fe5b602090810290910101516001602002015163ffffffff168152602001858460ff168151811015156130c857fe5b60209081029091010151600260200201518152602001858460ff168151811015156130ef57fe5b6020908102919091018101516060015163ffffffff16825260408051600080825281840183528484019190915281518181529283018252920191509052815460018082018085556000948552602094859020845160059094020180548587015163ffffffff1991821663ffffffff9687161767ffffffff0000000019166401000000009187169190910217825560408601519382019390935560608501516002820180549094169416939093179091556080830151805191946131ba92600385019290910190614922565b5060a082015180516131d6916004840191602090910190614922565b5050505061322c6001600e8054905003848360ff168151811015156131f757fe5b6020908102919091010151608001518551869060ff861690811061321757fe5b602090810291909101015160a0015185614332565b600101612dc6565b6040517f743961f4e677d1146fbf85d75565b1c5474fd083eb166f8b9595cf5d01a4d6e690600090a1505050565b6000806000806060806000600e8054905011156132cf5788600081518110151561328857fe5b602090810291909101015151600e805460001981019081106132a657fe5b6000918252602090912060059091020154640100000000900463ffffffff16106132cf57600080fd5b6132db600f6000614969565b600095506000945060009350600092505b88518360ff16101561370e57885163ffffffff908a9060ff861690811061330f57fe5b602090810291909101015151111561332657600080fd5b885163ffffffff908a9060ff861690811061333d57fe5b6020908102919091018101510151111561335657600080fd5b885163ffffffff908a9060ff861690811061336d57fe5b602090810291909101015160400151111561338757600080fd5b42898460ff1681518110151561339957fe5b602090810291909101015151116133af57600080fd5b888360ff168151811015156133c057fe5b60209081029190910101515189518a9060ff86169081106133dd57fe5b6020908102919091018101510151116133f557600080fd5b888360ff1681518110151561340657fe5b602090810291909101810151015189518a9060ff861690811061342557fe5b6020908102919091010151604001511161343e57600080fd5b60008360ff16111561349557888360ff1681518110151561345b57fe5b60209081029190910101515189518a9060ff60001987011690811061347c57fe5b6020908102919091010151604001511061349557600080fd5b6134ba898460ff168151811015156134a957fe5b602090810290910101516003612fa1565b15156134c557600080fd5b6134f78689878151811015156134d757fe5b9060200190602002015163ffffffff168961469f9092919063ffffffff16565b9150613529888681518110151561350a57fe5b9060200190602002015163ffffffff16876142ec90919063ffffffff16565b95506135408689876001018151811015156134d757fe5b9050613556888660010181518110151561350a57fe5b955061356985600263ffffffff6142ec16565b9450613595898460ff1681518110151561357f57fe5b60209081029190910101516060015185906142ec565b9350600f60c0604051908101604052808b8660ff168151811015156135b657fe5b6020908102919091018101515163ffffffff1682528c519101908c9060ff88169081106135df57fe5b602090810290910101516003602002015181526020018b8660ff1681518110151561360657fe5b602090810290910101516001602002015163ffffffff1681526020018b8660ff1681518110151561363357fe5b6020908102909101015160026020908102919091015163ffffffff90811683528282018790526040928301869052845460018181018088556000978852968490208651600590930201805492841663ffffffff19938416178155868501519181019190915593850151600285018054606088015185166401000000000267ffffffff00000000199390951693169290921716919091179055608083015180516136e2926003850192019061498a565b5060a082015180516136fe91600484019160209091019061498a565b5050600190940193506132ec9050565b73__Percent_______________________________63d49d51816040518163ffffffff1660e060020a02815260040160206040518083038186803b15801561375557600080fd5b505af4158015613769573d6000803e3d6000fd5b505050506040513d602081101561377f57600080fd5b5051841461378c57600080fd5b6040517f56d9a2e016027a3725bf162ef2779c8b28d4dbec97c679cfba02dbb31a34c7ca90600090a1505050505050505050565b815460009015613823575060005b825481101561382357600083600101600085600001848154811015156137f057fe5b60009182526020808320919091015483528201929092526040019020805460ff19169115159190911790556001016137ce565b815161383590849060208501906149f7565b508151156127f6575060005b81518110156127f6576001836001016000848481518110151561386057fe5b6020908102919091018101518252810191909152604001600020805460ff1916911515919091179055600101613841565b6000821161389e57600080fd5b600160a060020a03811615156138b357600080fd5b600791909155600a805473ffffffffffffffffffffffffffffffffffffffff1916600160a060020a03909216919091179055565b600160a060020a03811615156138fc57600080fd5b600154604051600160a060020a038084169216907f8be0079c531659141344cd1fd0a4f28419497f9722a3daafe3b4186f6b6457e090600090a36001805473ffffffffffffffffffffffffffffffffffffffff1916600160a060020a0392909216919091179055565b61396d6148e2565b600061397e8c8c8989878a8a61426b565b151561398957600080fd5b8a83101561399557829a505b8a825260008a116139a657856139f1565b6139f18a73__Percent_______________________________63d49d51816040518163ffffffff1660e060020a02815260040160206040518083038186803b158015612a0357600080fd5b60608301819052604080517f76ba7898000000000000000000000000000000000000000000000000000000008152600481018e90526024810188905260448101929092525173__Utils_________________________________916376ba7898916064808301926020929190829003018186803b158015613a7157600080fd5b505af4158015613a85573d6000803e3d6000fd5b505050506040513d6020811015613a9b57600080fd5b505160408301819052861115613ab057600080fd5b613abb82600261299c565b905073__Utils_________________________________63a5a55fcf836002602002015186613b3b613b2e8673__Percent_______________________________63d49d51816040518163ffffffff1660e060020a02815260040160206040518083038186803b158015612ab257600080fd5b8c9063ffffffff6142f916565b6040518463ffffffff1660e060020a02815260040180848152602001838152602001828152602001935050505060206040518083038186803b158015613b8057600080fd5b505af4158015613b94573d6000803e3d6000fd5b505050506040513d6020811015613baa57600080fd5b5051602083018190521515613bcb5760008083526020830181905260408301525b509a9950505050505050505050565b600160a060020a0383161515613bef57600080fd5b600160a060020a0384161515613c0457600080fd5b600160a060020a0382161515613c1957600080fd5b600160a060020a0381161515613c2e57600080fd5b60208701516000108015613c495750613c456122b8565b8614155b15613c6357600160a060020a0385161515613c6357600080fd5b865160001015613dc1578651604080517f23b872dd000000000000000000000000000000000000000000000000000000008152600160a060020a038581166004830152848116602483015260448201939093529051918516916323b872dd916064808201926020929091908290030181600087803b158015613ce457600080fd5b505af1158015613cf8573d6000803e3d6000fd5b505050506040513d6020811015613d0e57600080fd5b50511515613d1b57600080fd5b8651604080517fa9059cbb000000000000000000000000000000000000000000000000000000008152600160a060020a038581166004830152602482019390935290519186169163a9059cbb916044808201926020929091908290030181600087803b158015613d8a57600080fd5b505af1158015613d9e573d6000803e3d6000fd5b505050506040513d6020811015613db457600080fd5b50511515613dc157600080fd5b6020870151600010156127f157613dd66122b8565b861415613e1c576020870151604051600160a060020a0383169180156108fc02916000818181858888f19350505050158015613e16573d6000803e3d6000fd5b506127f1565b602080880151604080517fdd62ed3e00000000000000000000000000000000000000000000000000000000815233600482015230602482015290519192600160a060020a0389169263dd62ed3e9260448082019392918290030181600087803b158015613e8857600080fd5b505af1158015613e9c573d6000803e3d6000fd5b505050506040513d6020811015613eb257600080fd5b50511015613ebf57600080fd5b602080880151604080517f23b872dd000000000000000000000000000000000000000000000000000000008152336004820152600160a060020a03858116602483015260448201939093529051918816926323b872dd926064808401938290030181600087803b158015613f3257600080fd5b505af1158015613f46573d6000803e3d6000fd5b505050506040513d6020811015613f5c57600080fd5b505115156127f157600080fd5b600160a060020a0381161515613f7e57600080fd5b85511515613f8b57600080fd5b60208601511515613f9b57600080fd5b8451865111613fa957600080fd5b6020808601519087015111613fbd57600080fd5b613fc56122b8565b831415613fdd576020860151341015613fdd57600080fd5b613fe56122b8565b831461415857600160a060020a038216151561400057600080fd5b61400b8560016126b3565b604080517fdd62ed3e0000000000000000000000000000000000000000000000000000000081523360048201523060248201529051600160a060020a0385169163dd62ed3e9160448083019260209291908290030181600087803b15801561407257600080fd5b505af1158015614086573d6000803e3d6000fd5b505050506040513d602081101561409c57600080fd5b505110156140a957600080fd5b600160a060020a0382166323b872dd33306140cd89600160200201518b600161256c565b6040805160e060020a63ffffffff8716028152600160a060020a0394851660048201529290931660248301526044820152905160648083019260209291908290030181600087803b15801561412157600080fd5b505af1158015614135573d6000803e3d6000fd5b505050506040513d602081101561414b57600080fd5b5051151561415857600080fd5b8551604080517f9d2e4777000000000000000000000000000000000000000000000000000000008152336004820152602481019290925263ffffffff8616604483015251600160a060020a03831691639d2e47779160648083019260209291908290030181600087803b1580156141ce57600080fd5b505af11580156141e2573d6000803e3d6000fd5b505050506040513d60208110156141f857600080fd5b5051151561420557600080fd5b6060860151600010156142515761421a6122b8565b831415614251576060860151604051339180156108fc02916000818181858888f193505050501580156127f1573d6000803e3d6000fd5b505050505050565b60008282111561426557fe5b50900390565b6000808711801561427c5750600086115b80156142885750600085115b8015614297575082600a0a8410155b90506142a16122b8565b8814156142b8578080156142b55750816012145b90505b979650505050505050565b60006117fa6142d0614720565b6142e0858563ffffffff61473216565b9063ffffffff61475b16565b81810182811015610aa057fe5b60006117fa8383614308614720565b614770565b600061431761488c565b8210158015610aa05750614329614720565b90911115919050565b606080600060ff8616158015614349575060ff8516155b156143d757604080516000815260208101909152600e805460ff8a1690811061436e57fe5b90600052602060002090600502016003019080519060200190614392929190614922565b50604080516000815260208101909152600e805460ff8a169081106143b357fe5b90600052602060002090600502016004019080519060200190613e16929190614922565b835160ff861611156143e857600080fd5b60ff808616908716106143fa57600080fd5b600186161561440857600080fd5b600185161561441657600080fd5b600260ff878703160460ff1660405190808252806020026020018201604052801561444b578160200160208202803883390190505b509250600260ff878703160460ff16604051908082528060200260200182016040528015614483578160200160208202803883390190505b509150600090505b8460ff168660ff161015614626576144bf848760010160ff168151811015156144b057fe5b9060200190602002015161430d565b15156144ca57600080fd5b73__Percent_______________________________63d49d51816040518163ffffffff1660e060020a02815260040160206040518083038186803b15801561451157600080fd5b505af4158015614525573d6000803e3d6000fd5b505050506040513d602081101561453b57600080fd5b50518451859060ff60018a011690811061455157fe5b602090810290910101511061456557600080fd5b60008111156145ae57838660ff1681518110151561457f57fe5b90602001906020020151836001830381518110151561459a57fe5b60209081029091010151106145ae57600080fd5b838660ff168151811015156145bf57fe5b9060200190602002015183828151811015156145d757fe5b602090810290910101528351849060ff60018901169081106145f557fe5b90602001906020020151828281518110151561460d57fe5b602090810290910101526002959095019460010161448b565b82600e8860ff1681548110151561463957fe5b9060005260206000209060050201600301908051906020019061465d929190614922565b5081600e8860ff1681548110151561467157fe5b90600052602060002090600502016004019080519060200190614695929190614922565b5050505050505050565b6060808284018551101515156146b457600080fd5b821580156146cd57604051915060208201604052614717565b6040519150601f8416801560200281840101858101878315602002848b0101015b818310156147065780518352602092830192016146ee565b5050858452601f01601f1916604052505b50949350505050565b600061472a614891565b600a0a905090565b600082151561474357506000610aa0565b5081810281838281151561475357fe5b0414610aa057fe5b6000818381151561476857fe5b049392505050565b60008080808085151561477f57fe5b87158061478a575086155b1561479457614881565b6147a66000198863ffffffff61475b16565b92508288116147ca576147c3866142e08a8a63ffffffff61473216565b9450614881565b858814156147da57869450614881565b858714156147ea57879450614881565b871561486b578783116147fd57826147ff565b875b9150614811828863ffffffff61473216565b9050614833614826828863ffffffff61475b16565b869063ffffffff6142ec16565b9450614852868281151561484357fe5b8691900663ffffffff6142ec16565b9350614864888363ffffffff61425916565b97506147ea565b61487e614826858863ffffffff61475b16565b94505b505050509392505050565b600090565b600061489b6148a3565b600201905090565b600290565b60a0604051908101604052806005906020820280388339509192915050565b60408051808201825290600290829080388339509192915050565b6080604051908101604052806004906020820280388339509192915050565b5080546000825560050290600052602060002090810190611e069190614a34565b82805482825590600052602060002090810192821561495d579160200282015b8281111561495d578251825591602001919060010190614942565b506111c3929150614a8d565b5080546000825560050290600052602060002090810190611e069190614aa7565b828054600181600116156101000203166002900490600052602060002090601f016020900481019282601f106149cb57805160ff191683800117855561495d565b8280016001018555821561495d579182018281111561495d578251825591602001919060010190614942565b82805482825590600052602060002090810192821561495d579160200282015b8281111561495d5782518255602090920191600190910190614a17565b61116a91905b808211156111c357805467ffffffffffffffff1916815560006001820181905560028201805463ffffffff19169055614a766003830182614b00565b614a84600483016000614b00565b50600501614a3a565b61116a91905b808211156111c35760008155600101614a93565b61116a91905b808211156111c357805463ffffffff1916815560006001820181905560028201805467ffffffffffffffff19169055614ae96003830182614b1e565b614af7600483016000614b1e565b50600501614aad565b5080546000825590600052602060002090810190611e069190614a8d565b50805460018160011615610100020316600290046000825580601f10614b445750611e06565b601f016020900490600052602060002090810190611e069190614a8d565b6000614b6d8261430d565b1515614b7857600080fd5b610aa0614b836148a3565b8390600a0a63ffffffff61475b165600a165627a7a72305820938dc08c061efee504c137c642d16f82d63109e65a90ce6e561fb602a775adc90029",
  "source": "pragma solidity ^0.4.24;\n\nimport \"openzeppelin-solidity/contracts/ownership/Ownable.sol\";\nimport \"openzeppelin-solidity/contracts/ReentrancyGuard.sol\";\nimport \"openzeppelin-solidity/contracts/math/SafeMath.sol\";\nimport \"openzeppelin-solidity/contracts/token/ERC20/ERC20.sol\";\nimport \"openzeppelin-solidity/contracts/token/ERC20/DetailedERC20.sol\";\nimport \"solidity-bytes-utils/contracts/BytesLib.sol\";\nimport \"./IW12Crowdsale.sol\";\nimport \"./IW12Fund.sol\";\nimport \"../rates/IRates.sol\";\nimport \"../libs/Percent.sol\";\nimport \"../libs/PaymentMethods.sol\";\nimport \"../libs/PurchaseProcessing.sol\";\nimport \"../versioning/Versionable.sol\";\nimport \"../token/IWToken.sol\";\n\ncontract W12Crowdsale is Versionable, IW12Crowdsale, Ownable, ReentrancyGuard {\n    using SafeMath for uint;\n    using Percent for uint;\n    using BytesLib for bytes;\n    using PaymentMethods for PaymentMethods.Methods;\n\n    IWToken public token;\n    ERC20 public originToken;\n    IW12Fund public fund;\n    IRates public rates;\n    uint public price;\n    uint public serviceFee;\n    uint public WTokenSaleFeePercent;\n    address public serviceWallet;\n    address public swap;\n\n    // list of payment methods\n    PaymentMethods.Methods paymentMethods;\n\n    Stage[] public stages;\n    Milestone[] public milestones;\n\n    struct Stage {\n        uint32 startDate;\n        uint32 endDate;\n        uint discount;\n        uint32 vesting;\n        uint[] volumeBoundaries;\n        uint[] volumeBonuses;\n    }\n\n    struct Milestone {\n        uint32 endDate;\n        uint tranchePercent;\n        uint32 voteEndDate;\n        uint32 withdrawalWindow;\n        bytes name;\n        bytes description;\n    }\n\n    event TokenPurchase(address indexed buyer, uint tokensBought, uint cost, uint change);\n    event StagesUpdated();\n    event StageUpdated(uint index);\n    event MilestonesUpdated();\n    event CrowdsaleSetUpDone();\n    event UnsoldTokenReturned(address indexed owner, uint amount);\n\n    constructor (\n        uint version,\n        address _originToken,\n        address _token,\n        uint _price,\n        address _serviceWallet,\n        address _swap,\n        uint _serviceFee,\n        uint _WTokenSaleFeePercent,\n        IW12Fund _fund,\n        IRates _rates\n    )\n        Versionable(version) public\n    {\n        require(_originToken != address(0));\n        require(_token != address(0));\n        require(_serviceFee.isPercent() && _serviceFee.fromPercent() < 100);\n        require(_WTokenSaleFeePercent.isPercent() && _WTokenSaleFeePercent.fromPercent() < 100);\n        require(_fund != address(0));\n        require(_swap != address(0));\n        require(_rates != address(0));\n\n        __setParameters(_price, _serviceWallet);\n\n        token = IWToken(_token);\n        originToken = ERC20(_originToken);\n        serviceFee = _serviceFee;\n        swap = _swap;\n        WTokenSaleFeePercent = _WTokenSaleFeePercent;\n        fund = _fund;\n        rates = _rates;\n    }\n\n    function stagesLength() external view returns (uint) {\n        return stages.length;\n    }\n\n    function milestonesLength() external view returns (uint) {\n        return milestones.length;\n    }\n\n    function getMilestone(uint index) public view returns (uint32, uint, uint32, uint32, bytes, bytes) {\n        return (\n            milestones[index].endDate,\n            milestones[index].tranchePercent,\n            milestones[index].voteEndDate,\n            milestones[index].withdrawalWindow,\n            milestones[index].name,\n            milestones[index].description\n        );\n    }\n\n    function getStage(uint index) public view returns (uint32, uint32, uint, uint32, uint[], uint[]) {\n        return (\n            stages[index].startDate,\n            stages[index].endDate,\n            stages[index].discount,\n            stages[index].vesting,\n            stages[index].volumeBoundaries,\n            stages[index].volumeBonuses\n        );\n    }\n\n    function getEndDate() external view returns (uint32) {\n        require(stages.length > 0);\n\n        return stages[stages.length - 1].endDate;\n    }\n\n    /**\n     * @dev Returns index of active milestone or last milestone\n     */\n    function getCurrentMilestoneIndex() public view returns (uint index, bool found) {\n        if(milestones.length == 0 || !isEnded()) return;\n\n        found = true;\n\n        // from withdrawalWindow begins next milestone\n        while(index < milestones.length - 1 && now >= milestones[index].withdrawalWindow) {\n            index++;\n        }\n    }\n\n    function getLastMilestoneIndex() public view returns (uint index, bool found) {\n        if (milestones.length == 0 || !isEnded()) return;\n\n        found = true;\n        index = milestones.length - 1;\n    }\n\n    function __setParameters(uint _price, address _serviceWallet) internal {\n        require(_price > 0);\n        require(_serviceWallet != address(0));\n\n        price = _price;\n        serviceWallet = _serviceWallet;\n    }\n\n    function setParameters(uint _price) external onlyOwner beforeSaleStart {\n        __setParameters(_price, serviceWallet);\n    }\n\n    /**\n     * @dev Setup all crowdsale parameters at a time\n     */\n    function setup(\n        uint[6][] parametersOfStages,\n        uint[] bonusConditionsOfStages,\n        uint[4][] parametersOfMilestones,\n        uint32[] nameAndDescriptionsOffsetOfMilestones,\n        bytes nameAndDescriptionsOfMilestones,\n        bytes32[] paymentMethodsList\n    )\n        external onlyOwner beforeSaleStart\n    {\n        // primary check of parameters of stages\n        require(parametersOfStages.length != 0);\n        require(parametersOfStages.length <= uint8(- 1));\n\n        // primary check of parameters of milestones\n        require(parametersOfMilestones.length <= uint8(- 1));\n        require(parametersOfMilestones.length == nameAndDescriptionsOffsetOfMilestones.length / 2);\n        require(parametersOfMilestones.length <= nameAndDescriptionsOfMilestones.length / 2);\n\n        // check payment methods list\n        require(paymentMethodsList.length != 0);\n\n        for (uint i = 0; i < paymentMethodsList.length; i++) {\n            require(rates.hasSymbol(paymentMethodsList[i]));\n        }\n\n        _setStages(\n            parametersOfStages,\n            bonusConditionsOfStages\n        );\n\n        _setMilestones(\n            parametersOfMilestones,\n            nameAndDescriptionsOffsetOfMilestones,\n            nameAndDescriptionsOfMilestones\n        );\n\n        paymentMethods.update(paymentMethodsList);\n\n        emit CrowdsaleSetUpDone();\n    }\n\n    /**\n     * @dev Update stages\n     * @param parameters List of primary parameters:\n     * [\n     *   uint32 startDate,\n     *   uint32 endDate,\n     *   uint discount,\n     *   uint32 vesting,\n     *   uint8 startIndexOfBonusConditions\n     *   uint8 endIndexOfBonusConditions\n     * ],\n     * @param bonusConditions List of bonus conditions:\n     * [uint boundary, uint bonus, ...]\n     */\n    function _setStages(uint[6][] parameters, uint[] bonusConditions) internal {\n        if (milestones.length > 0) {\n            // end date of firs milestone must be greater then end date of last stage\n            require(milestones[0].endDate > parameters[parameters.length - 1][1]);\n        }\n\n        delete stages;\n\n        for (uint8 i = 0; i < parameters.length; i++) {\n            // check overflow\n            require(parameters[i][0] <= uint32(-1));\n            require(parameters[i][1] <= uint32(-1));\n            require(parameters[i][3] <= uint32(-1));\n            require(parameters[i][4] <= uint8(-1));\n            require(parameters[i][5] <= uint8(-1));\n\n            // check dates\n            require(parameters[i][0] > now);\n            require(parameters[i][0] < parameters[i][1]);\n\n            if (i > 0) {\n                require(parameters[i - 1][1] <= parameters[i][0]);\n            }\n\n            // check discount\n            require(parameters[i][2].isPercent());\n            require(parameters[i][2] < Percent.MAX());\n\n            stages.push(Stage({\n                startDate: uint32(parameters[i][0]),\n                endDate: uint32(parameters[i][1]),\n                discount: parameters[i][2],\n                vesting: uint32(parameters[i][3]),\n                volumeBoundaries: new uint[](0),\n                volumeBonuses: new uint[](0)\n            }));\n\n            _setStageBonusConditions(\n                uint8(stages.length - 1),\n                uint8(parameters[i][4]),\n                uint8(parameters[i][5]),\n                bonusConditions\n            );\n        }\n\n        emit StagesUpdated();\n    }\n\n    /**\n     * @dev Set stage bonus conditions by stage index\n     * @param bonusConditions List of bonus conditions:\n     * [uint boundary, uint bonus, ...]\n     */\n    function _setStageBonusConditions(uint8 stageIndex, uint8 start, uint8 end, uint[] bonusConditions) internal {\n        if (start == 0 && end == 0) {\n            stages[stageIndex].volumeBoundaries = new uint[](0);\n            stages[stageIndex].volumeBonuses = new uint[](0);\n\n            return;\n        }\n\n        require(end <= bonusConditions.length);\n        require(start < end);\n        require(start % 2 == 0);\n        require(end % 2 == 0);\n\n        uint[] memory boundaries = new uint[]((end - start) / 2);\n        uint[] memory bonuses = new uint[]((end - start) / 2);\n        uint k = 0;\n\n        while (start < end) {\n            // check bonus\n            require(bonusConditions[start + 1].isPercent());\n            require(bonusConditions[start + 1] < Percent.MAX());\n\n            // check boundary\n            if (k > 0) {\n                require(boundaries[k - 1] < bonusConditions[start]);\n            }\n\n            boundaries[k] = bonusConditions[start];\n            bonuses[k] = bonusConditions[start + 1];\n            k++;\n            start += 2;\n        }\n\n        stages[stageIndex].volumeBoundaries = boundaries;\n        stages[stageIndex].volumeBonuses = bonuses;\n    }\n\n    /**\n     * @dev Update milestones\n     * @param parameters List of primary parameters:\n     * [\n     *   uint32 endDate,\n     *   uint32 voteEndDate,\n     *   uint32 withdrawalWindow,\n     *   uint tranchPercent\n     * ]\n     * @param offsets Offsets of names and descriptions in namesAndDescriptions:\n     * [uint32 offset1, uint32 offset2, ...]\n     * @param namesAndDescriptions Names and descriptions\n     */\n    function _setMilestones(\n        uint[4][] parameters,\n        uint32[] offsets,\n        bytes namesAndDescriptions\n    )\n        internal\n    {\n        if (stages.length > 0) {\n            require(stages[stages.length - 1].endDate < parameters[0][0]);\n        }\n\n        delete milestones;\n\n        uint offset = 0;\n        uint k = 0;\n        uint totalPercents = 0;\n\n        for (uint8 i = 0; i < parameters.length; i++) {\n            // check overflow\n            require(parameters[i][0] <= uint32(- 1));\n            require(parameters[i][1] <= uint32(- 1));\n            require(parameters[i][2] <= uint32(- 1));\n\n            // check dates\n            require(parameters[i][0] > now);\n            require(parameters[i][1] > parameters[i][0]);\n            require(parameters[i][2] > parameters[i][1]);\n\n            if (i > 0) {\n                require(parameters[i - 1][2] < parameters[i][0]);\n            }\n\n            // check tranch percent\n            require(parameters[i][3].isPercent());\n\n            bytes memory name = namesAndDescriptions.slice(offset, offsets[k]);\n            offset = offset.add(offsets[k]);\n            bytes memory description = namesAndDescriptions.slice(offset, offsets[k + 1]);\n            offset = offset.add(offsets[k + 1]);\n            k = k.add(2);\n\n            totalPercents = totalPercents.add(parameters[i][3]);\n\n            milestones.push(Milestone({\n                endDate: uint32(parameters[i][0]),\n                tranchePercent: parameters[i][3],\n                voteEndDate: uint32(parameters[i][1]),\n                withdrawalWindow: uint32(parameters[i][2]),\n                name: name,\n                description: description\n            }));\n        }\n\n        require(totalPercents == Percent.MAX());\n\n        emit MilestonesUpdated();\n    }\n\n    function buyTokens(bytes32 method, uint amount) payable public nonReentrant onlyWhenSaleActive {\n        if (PurchaseProcessing.METHOD_ETH() != method) {\n            require(rates.getTokenAddress(method) != address(0));\n        }\n\n        (uint index, /*bool found*/) = getCurrentStageIndex();\n\n        uint[5] memory invoice = getInvoice(method, amount);\n        uint[2] memory fee = getFee(invoice[0], invoice[1]);\n\n        _transferFee(fee, method);\n        _transferPurchase(invoice, fee, stages[index].vesting, method);\n        _recordPurchase(invoice, fee, method);\n\n        emit TokenPurchase(msg.sender, invoice[0], invoice[1], invoice[3]);\n    }\n\n    function _transferFee(uint[2] _fee, bytes32 method) internal {\n        PurchaseProcessing.transferFee(\n            _fee,\n            method,\n            rates.isToken(method) ? rates.getTokenAddress(method) : address(0),\n            address(token),\n            address(originToken),\n            swap,\n            serviceWallet\n        );\n    }\n\n    function _transferPurchase(uint[5] _invoice, uint[2] _fee, uint32 vesting, bytes32 method) internal {\n        PurchaseProcessing.transferPurchase(\n            _invoice,\n            _fee,\n            vesting,\n            method,\n            rates.isToken(method) ? rates.getTokenAddress(method) : address(0),\n            address(token)\n        );\n    }\n\n    function _recordPurchase(uint[5] _invoice, uint[2] _fee, bytes32 method) internal {\n        if (method == PurchaseProcessing.METHOD_ETH()) {\n            fund.recordPurchase.value(_invoice[1].sub(_fee[1]))(msg.sender, _invoice[0], method, _invoice[1].sub(_fee[1]), _invoice[2]);\n        } else {\n            require(ERC20(rates.getTokenAddress(method)).transfer(address(fund), _invoice[1].sub(_fee[1])));\n            fund.recordPurchase(msg.sender, _invoice[0], method, _invoice[1].sub(_fee[1]), _invoice[2]);\n        }\n    }\n\n    function getWToken() external view returns(IWToken) {\n        return token;\n    }\n\n    function getFund() external view returns(IW12Fund) {\n        return fund;\n    }\n\n    function getPaymentMethodsList() external view returns(bytes32[]) {\n        return paymentMethods.list();\n    }\n\n    function isPaymentMethodAllowed(bytes32 _method) external view returns (bool) {\n        return paymentMethods.isAllowed(_method);\n    }\n\n    function getInvoice(bytes32 method, uint amount) public view returns (uint[5]) {\n        (uint index, bool found) = getCurrentStageIndex();\n\n        if (!found) return;\n\n        if (PurchaseProcessing.METHOD_ETH() != method) {\n            if (!rates.isToken(method)) {\n                return;\n            }\n        }\n\n        return PurchaseProcessing.invoice(\n            method,\n            amount,\n            stages[index].discount,\n            stages[index].volumeBoundaries,\n            stages[index].volumeBonuses,\n            rates.get(method),\n            price,\n            uint(token.decimals()),\n            PurchaseProcessing.METHOD_ETH() == method\n                ? 18\n                : uint(DetailedERC20(rates.getTokenAddress(method)).decimals()),\n            token.balanceOf(address(this))\n        );\n    }\n\n    function getInvoiceByTokenAmount(bytes32 method, uint tokenAmount) public view returns (uint[4]) {\n        (uint index, bool found) = getCurrentStageIndex();\n\n        if (!found) return;\n\n        if (PurchaseProcessing.METHOD_ETH() != method) {\n            if (!rates.isToken(method)) {\n                return;\n            }\n        }\n\n        return PurchaseProcessing.invoiceByTokenAmount(\n            method,\n            tokenAmount,\n            stages[index].discount,\n            stages[index].volumeBoundaries,\n            stages[index].volumeBonuses,\n            rates.get(method),\n            price,\n            uint(token.decimals()),\n            PurchaseProcessing.METHOD_ETH() == method\n                ? 18\n                : uint(DetailedERC20(rates.getTokenAddress(method)).decimals()),\n            token.balanceOf(address(this))\n        );\n    }\n\n    function getFee(uint tokenAmount, uint cost) public view returns(uint[2]) {\n        return PurchaseProcessing.fee(tokenAmount, cost, serviceFee, WTokenSaleFeePercent);\n    }\n\n    function getSaleVolumeBonus(uint value) public view returns(uint bonus) {\n        (uint index, bool found) = getCurrentStageIndex();\n\n        if (!found) return;\n\n        Stage storage stage = stages[index];\n\n        return PurchaseProcessing.getBonus(value, stage.volumeBoundaries, stage.volumeBonuses);\n    }\n\n    function getCurrentStageIndex() public view returns (uint index, bool found) {\n        for(uint i = 0; i < stages.length; i++) {\n            Stage storage stage = stages[i];\n\n            if (stage.startDate <= now && stage.endDate > now) {\n                return (i, true);\n            }\n        }\n\n        return (0, false);\n    }\n\n    function claimRemainingTokens() external onlyOwner {\n        require(isEnded());\n\n        uint amount = token.balanceOf(address(this));\n\n        require(token.transfer(owner, amount));\n\n        emit UnsoldTokenReturned(owner, amount);\n    }\n\n    function isEnded() public view returns (bool) {\n        return stages.length == 0 || stages[stages.length - 1].endDate < now;\n    }\n\n    function isSaleActive() public view returns (bool) {\n        (, bool found) = getCurrentStageIndex();\n\n        return found;\n    }\n\n    modifier beforeSaleStart() {\n        if (stages.length > 0) {\n            require(stages[0].startDate > now);\n        }\n\n        _;\n    }\n\n    modifier onlyWhenSaleActive() {\n        require(isSaleActive(), \"Sale is not started yet\");\n\n        _;\n    }\n}\n",
  "sourcePath": "/home/circleci/code/contracts/crowdsale/W12Crowdsale.sol",
  "compiler": {
    "name": "solc",
    "version": "0.4.24+commit.e67f0147.Emscripten.clang"
  },
  "schemaVersion": "2.0.1",
  "updatedAt": "2018-10-27T04:55:06.446Z"
}