{
  "contractName": "W12CrowdsaleStub",
  "abi": [
    {
      "constant": false,
      "inputs": [
        {
          "name": "method",
          "type": "bytes32"
        },
        {
          "name": "amount",
          "type": "uint256"
        }
      ],
      "name": "buyTokens",
      "outputs": [],
      "payable": true,
      "stateMutability": "payable",
      "type": "function"
    },
    {
      "constant": true,
      "inputs": [
        {
          "name": "_method",
          "type": "bytes32"
        }
      ],
      "name": "isPaymentMethodAllowed",
      "outputs": [
        {
          "name": "",
          "type": "bool"
        }
      ],
      "payable": false,
      "stateMutability": "view",
      "type": "function"
    },
    {
      "constant": true,
      "inputs": [],
      "name": "originToken",
      "outputs": [
        {
          "name": "",
          "type": "address"
        }
      ],
      "payable": false,
      "stateMutability": "view",
      "type": "function"
    },
    {
      "constant": true,
      "inputs": [],
      "name": "getLastMilestoneIndex",
      "outputs": [
        {
          "name": "index",
          "type": "uint256"
        },
        {
          "name": "found",
          "type": "bool"
        }
      ],
      "payable": false,
      "stateMutability": "view",
      "type": "function"
    },
    {
      "constant": false,
      "inputs": [
        {
          "name": "_account",
          "type": "address"
        }
      ],
      "name": "removeAdmin",
      "outputs": [],
      "payable": false,
      "stateMutability": "nonpayable",
      "type": "function"
    },
    {
      "constant": true,
      "inputs": [
        {
          "name": "value",
          "type": "uint256"
        }
      ],
      "name": "getSaleVolumeBonus",
      "outputs": [
        {
          "name": "bonus",
          "type": "uint256"
        }
      ],
      "payable": false,
      "stateMutability": "view",
      "type": "function"
    },
    {
      "constant": false,
      "inputs": [
        {
          "name": "recipient",
          "type": "address"
        }
      ],
      "name": "transferPrimary",
      "outputs": [],
      "payable": false,
      "stateMutability": "nonpayable",
      "type": "function"
    },
    {
      "constant": true,
      "inputs": [
        {
          "name": "index",
          "type": "uint256"
        }
      ],
      "name": "getMilestone",
      "outputs": [
        {
          "name": "",
          "type": "uint32"
        },
        {
          "name": "",
          "type": "uint256"
        },
        {
          "name": "",
          "type": "uint32"
        },
        {
          "name": "",
          "type": "uint32"
        },
        {
          "name": "",
          "type": "bytes"
        },
        {
          "name": "",
          "type": "bytes"
        }
      ],
      "payable": false,
      "stateMutability": "view",
      "type": "function"
    },
    {
      "constant": true,
      "inputs": [
        {
          "name": "account",
          "type": "address"
        }
      ],
      "name": "isAdmin",
      "outputs": [
        {
          "name": "",
          "type": "bool"
        }
      ],
      "payable": false,
      "stateMutability": "view",
      "type": "function"
    },
    {
      "constant": true,
      "inputs": [
        {
          "name": "method",
          "type": "bytes32"
        }
      ],
      "name": "getPurchaseFeeParameterForPaymentMethod",
      "outputs": [
        {
          "name": "",
          "type": "bool"
        },
        {
          "name": "",
          "type": "uint256"
        }
      ],
      "payable": false,
      "stateMutability": "view",
      "type": "function"
    },
    {
      "constant": true,
      "inputs": [
        {
          "name": "index",
          "type": "uint256"
        }
      ],
      "name": "getStage",
      "outputs": [
        {
          "name": "",
          "type": "uint32"
        },
        {
          "name": "",
          "type": "uint32"
        },
        {
          "name": "",
          "type": "uint256"
        },
        {
          "name": "",
          "type": "uint32"
        },
        {
          "name": "",
          "type": "uint256[]"
        },
        {
          "name": "",
          "type": "uint256[]"
        }
      ],
      "payable": false,
      "stateMutability": "view",
      "type": "function"
    },
    {
      "constant": true,
      "inputs": [],
      "name": "WTokenSaleFeePercent",
      "outputs": [
        {
          "name": "",
          "type": "uint256"
        }
      ],
      "payable": false,
      "stateMutability": "view",
      "type": "function"
    },
    {
      "constant": false,
      "inputs": [],
      "name": "claimRemainingTokens",
      "outputs": [],
      "payable": false,
      "stateMutability": "nonpayable",
      "type": "function"
    },
    {
      "constant": true,
      "inputs": [],
      "name": "milestonesLength",
      "outputs": [
        {
          "name": "",
          "type": "uint256"
        }
      ],
      "payable": false,
      "stateMutability": "view",
      "type": "function"
    },
    {
      "constant": false,
      "inputs": [
        {
          "name": "_account",
          "type": "address"
        }
      ],
      "name": "addProjectOwner",
      "outputs": [],
      "payable": false,
      "stateMutability": "nonpayable",
      "type": "function"
    },
    {
      "constant": true,
      "inputs": [
        {
          "name": "method",
          "type": "bytes32"
        }
      ],
      "name": "getPurchaseFeeForPaymentMethod",
      "outputs": [
        {
          "name": "",
          "type": "uint256"
        }
      ],
      "payable": false,
      "stateMutability": "view",
      "type": "function"
    },
    {
      "constant": true,
      "inputs": [],
      "name": "getWToken",
      "outputs": [
        {
          "name": "",
          "type": "address"
        }
      ],
      "payable": false,
      "stateMutability": "view",
      "type": "function"
    },
    {
      "constant": true,
      "inputs": [],
      "name": "rates",
      "outputs": [
        {
          "name": "",
          "type": "address"
        }
      ],
      "payable": false,
      "stateMutability": "view",
      "type": "function"
    },
    {
      "constant": true,
      "inputs": [],
      "name": "version",
      "outputs": [
        {
          "name": "",
          "type": "uint256"
        }
      ],
      "payable": false,
      "stateMutability": "view",
      "type": "function"
    },
    {
      "constant": true,
      "inputs": [],
      "name": "getPaymentMethodsList",
      "outputs": [
        {
          "name": "",
          "type": "bytes32[]"
        }
      ],
      "payable": false,
      "stateMutability": "view",
      "type": "function"
    },
    {
      "constant": true,
      "inputs": [],
      "name": "serviceWallet",
      "outputs": [
        {
          "name": "",
          "type": "address"
        }
      ],
      "payable": false,
      "stateMutability": "view",
      "type": "function"
    },
    {
      "constant": true,
      "inputs": [],
      "name": "isSaleActive",
      "outputs": [
        {
          "name": "",
          "type": "bool"
        }
      ],
      "payable": false,
      "stateMutability": "view",
      "type": "function"
    },
    {
      "constant": false,
      "inputs": [
        {
          "name": "method",
          "type": "bytes32"
        },
        {
          "name": "has",
          "type": "bool"
        },
        {
          "name": "value",
          "type": "uint256"
        }
      ],
      "name": "updatePurchaseFeeParameterForPaymentMethod",
      "outputs": [],
      "payable": false,
      "stateMutability": "nonpayable",
      "type": "function"
    },
    {
      "constant": false,
      "inputs": [
        {
          "name": "_account",
          "type": "address"
        }
      ],
      "name": "addAdmin",
      "outputs": [],
      "payable": false,
      "stateMutability": "nonpayable",
      "type": "function"
    },
    {
      "constant": true,
      "inputs": [],
      "name": "stagesLength",
      "outputs": [
        {
          "name": "",
          "type": "uint256"
        }
      ],
      "payable": false,
      "stateMutability": "view",
      "type": "function"
    },
    {
      "constant": true,
      "inputs": [],
      "name": "swap",
      "outputs": [
        {
          "name": "",
          "type": "address"
        }
      ],
      "payable": false,
      "stateMutability": "view",
      "type": "function"
    },
    {
      "constant": true,
      "inputs": [
        {
          "name": "",
          "type": "uint256"
        }
      ],
      "name": "stages",
      "outputs": [
        {
          "name": "startDate",
          "type": "uint32"
        },
        {
          "name": "endDate",
          "type": "uint32"
        },
        {
          "name": "discount",
          "type": "uint256"
        },
        {
          "name": "vesting",
          "type": "uint32"
        }
      ],
      "payable": false,
      "stateMutability": "view",
      "type": "function"
    },
    {
      "constant": true,
      "inputs": [],
      "name": "serviceFee",
      "outputs": [
        {
          "name": "",
          "type": "uint256"
        }
      ],
      "payable": false,
      "stateMutability": "view",
      "type": "function"
    },
    {
      "constant": true,
      "inputs": [
        {
          "name": "method",
          "type": "bytes32"
        },
        {
          "name": "amount",
          "type": "uint256"
        }
      ],
      "name": "getInvoice",
      "outputs": [
        {
          "name": "",
          "type": "uint256[5]"
        }
      ],
      "payable": false,
      "stateMutability": "view",
      "type": "function"
    },
    {
      "constant": false,
      "inputs": [],
      "name": "renounceAdmin",
      "outputs": [],
      "payable": false,
      "stateMutability": "nonpayable",
      "type": "function"
    },
    {
      "constant": true,
      "inputs": [],
      "name": "getFund",
      "outputs": [
        {
          "name": "",
          "type": "address"
        }
      ],
      "payable": false,
      "stateMutability": "view",
      "type": "function"
    },
    {
      "constant": true,
      "inputs": [],
      "name": "price",
      "outputs": [
        {
          "name": "",
          "type": "uint256"
        }
      ],
      "payable": false,
      "stateMutability": "view",
      "type": "function"
    },
    {
      "constant": true,
      "inputs": [],
      "name": "isEnded",
      "outputs": [
        {
          "name": "",
          "type": "bool"
        }
      ],
      "payable": false,
      "stateMutability": "view",
      "type": "function"
    },
    {
      "constant": true,
      "inputs": [],
      "name": "getEndDate",
      "outputs": [
        {
          "name": "",
          "type": "uint32"
        }
      ],
      "payable": false,
      "stateMutability": "view",
      "type": "function"
    },
    {
      "constant": true,
      "inputs": [],
      "name": "fund",
      "outputs": [
        {
          "name": "",
          "type": "address"
        }
      ],
      "payable": false,
      "stateMutability": "view",
      "type": "function"
    },
    {
      "constant": true,
      "inputs": [],
      "name": "primary",
      "outputs": [
        {
          "name": "",
          "type": "address"
        }
      ],
      "payable": false,
      "stateMutability": "view",
      "type": "function"
    },
    {
      "constant": true,
      "inputs": [
        {
          "name": "tokenAmount",
          "type": "uint256"
        },
        {
          "name": "cost",
          "type": "uint256"
        },
        {
          "name": "method",
          "type": "bytes32"
        }
      ],
      "name": "getFee",
      "outputs": [
        {
          "name": "",
          "type": "uint256[2]"
        }
      ],
      "payable": false,
      "stateMutability": "view",
      "type": "function"
    },
    {
      "constant": false,
      "inputs": [],
      "name": "renounceProjectOwner",
      "outputs": [],
      "payable": false,
      "stateMutability": "nonpayable",
      "type": "function"
    },
    {
      "constant": false,
      "inputs": [
        {
          "name": "_account",
          "type": "address"
        }
      ],
      "name": "removeProjectOwner",
      "outputs": [],
      "payable": false,
      "stateMutability": "nonpayable",
      "type": "function"
    },
    {
      "constant": false,
      "inputs": [
        {
          "name": "parametersOfStages",
          "type": "uint256[6][]"
        },
        {
          "name": "bonusConditionsOfStages",
          "type": "uint256[]"
        },
        {
          "name": "parametersOfMilestones",
          "type": "uint256[4][]"
        },
        {
          "name": "nameAndDescriptionsOffsetOfMilestones",
          "type": "uint32[]"
        },
        {
          "name": "nameAndDescriptionsOfMilestones",
          "type": "bytes"
        },
        {
          "name": "paymentMethodsList",
          "type": "bytes32[]"
        }
      ],
      "name": "setup",
      "outputs": [],
      "payable": false,
      "stateMutability": "nonpayable",
      "type": "function"
    },
    {
      "constant": true,
      "inputs": [],
      "name": "getCurrentMilestoneIndex",
      "outputs": [
        {
          "name": "index",
          "type": "uint256"
        },
        {
          "name": "found",
          "type": "bool"
        }
      ],
      "payable": false,
      "stateMutability": "view",
      "type": "function"
    },
    {
      "constant": true,
      "inputs": [
        {
          "name": "account",
          "type": "address"
        }
      ],
      "name": "isProjectOwner",
      "outputs": [
        {
          "name": "",
          "type": "bool"
        }
      ],
      "payable": false,
      "stateMutability": "view",
      "type": "function"
    },
    {
      "constant": true,
      "inputs": [],
      "name": "getCurrentStageIndex",
      "outputs": [
        {
          "name": "index",
          "type": "uint256"
        },
        {
          "name": "found",
          "type": "bool"
        }
      ],
      "payable": false,
      "stateMutability": "view",
      "type": "function"
    },
    {
      "constant": true,
      "inputs": [
        {
          "name": "",
          "type": "uint256"
        }
      ],
      "name": "milestones",
      "outputs": [
        {
          "name": "endDate",
          "type": "uint32"
        },
        {
          "name": "tranchePercent",
          "type": "uint256"
        },
        {
          "name": "voteEndDate",
          "type": "uint32"
        },
        {
          "name": "withdrawalWindow",
          "type": "uint32"
        },
        {
          "name": "name",
          "type": "bytes"
        },
        {
          "name": "description",
          "type": "bytes"
        }
      ],
      "payable": false,
      "stateMutability": "view",
      "type": "function"
    },
    {
      "constant": false,
      "inputs": [
        {
          "name": "_price",
          "type": "uint256"
        }
      ],
      "name": "setParameters",
      "outputs": [],
      "payable": false,
      "stateMutability": "nonpayable",
      "type": "function"
    },
    {
      "constant": true,
      "inputs": [
        {
          "name": "method",
          "type": "bytes32"
        },
        {
          "name": "tokenAmount",
          "type": "uint256"
        }
      ],
      "name": "getInvoiceByTokenAmount",
      "outputs": [
        {
          "name": "",
          "type": "uint256[4]"
        }
      ],
      "payable": false,
      "stateMutability": "view",
      "type": "function"
    },
    {
      "constant": true,
      "inputs": [],
      "name": "token",
      "outputs": [
        {
          "name": "",
          "type": "address"
        }
      ],
      "payable": false,
      "stateMutability": "view",
      "type": "function"
    },
    {
      "inputs": [
        {
          "name": "version",
          "type": "uint256"
        },
        {
          "name": "_originToken",
          "type": "address"
        },
        {
          "name": "_token",
          "type": "address"
        },
        {
          "name": "_price",
          "type": "uint256"
        },
        {
          "name": "_serviceWallet",
          "type": "address"
        },
        {
          "name": "_swap",
          "type": "address"
        },
        {
          "name": "_serviceFee",
          "type": "uint256"
        },
        {
          "name": "_WTokenSaleFeePercent",
          "type": "uint256"
        },
        {
          "name": "_fund",
          "type": "address"
        },
        {
          "name": "_rates",
          "type": "address"
        }
      ],
      "payable": false,
      "stateMutability": "nonpayable",
      "type": "constructor"
    },
    {
      "anonymous": false,
      "inputs": [
        {
          "indexed": true,
          "name": "buyer",
          "type": "address"
        },
        {
          "indexed": false,
          "name": "tokensBought",
          "type": "uint256"
        },
        {
          "indexed": false,
          "name": "cost",
          "type": "uint256"
        },
        {
          "indexed": false,
          "name": "change",
          "type": "uint256"
        }
      ],
      "name": "TokenPurchase",
      "type": "event"
    },
    {
      "anonymous": false,
      "inputs": [],
      "name": "StagesUpdated",
      "type": "event"
    },
    {
      "anonymous": false,
      "inputs": [
        {
          "indexed": false,
          "name": "index",
          "type": "uint256"
        }
      ],
      "name": "StageUpdated",
      "type": "event"
    },
    {
      "anonymous": false,
      "inputs": [],
      "name": "MilestonesUpdated",
      "type": "event"
    },
    {
      "anonymous": false,
      "inputs": [],
      "name": "CrowdsaleSetUpDone",
      "type": "event"
    },
    {
      "anonymous": false,
      "inputs": [
        {
          "indexed": true,
          "name": "owner",
          "type": "address"
        },
        {
          "indexed": false,
          "name": "amount",
          "type": "uint256"
        }
      ],
      "name": "UnsoldTokenReturned",
      "type": "event"
    },
    {
      "anonymous": false,
      "inputs": [
        {
          "indexed": false,
          "name": "recipient",
          "type": "address"
        }
      ],
      "name": "PrimaryTransferred",
      "type": "event"
    },
    {
      "anonymous": false,
      "inputs": [
        {
          "indexed": true,
          "name": "account",
          "type": "address"
        }
      ],
      "name": "ProjectOwnerAdded",
      "type": "event"
    },
    {
      "anonymous": false,
      "inputs": [
        {
          "indexed": true,
          "name": "account",
          "type": "address"
        }
      ],
      "name": "ProjectOwnerRemoved",
      "type": "event"
    },
    {
      "anonymous": false,
      "inputs": [
        {
          "indexed": true,
          "name": "account",
          "type": "address"
        }
      ],
      "name": "AdminAdded",
      "type": "event"
    },
    {
      "anonymous": false,
      "inputs": [
        {
          "indexed": true,
          "name": "account",
          "type": "address"
        }
      ],
      "name": "AdminRemoved",
      "type": "event"
    },
    {
      "constant": false,
      "inputs": [
        {
          "name": "to",
          "type": "address"
        },
        {
          "name": "amount",
          "type": "uint256"
        }
      ],
      "name": "_outTokens",
      "outputs": [
        {
          "name": "",
          "type": "bool"
        }
      ],
      "payable": false,
      "stateMutability": "nonpayable",
      "type": "function"
    },
    {
      "constant": false,
      "inputs": [
        {
          "name": "to",
          "type": "address"
        }
      ],
      "name": "_outEther",
      "outputs": [],
      "payable": false,
      "stateMutability": "nonpayable",
      "type": "function"
    },
    {
      "constant": false,
      "inputs": [
        {
          "name": "_WTokenSaleFeePercent",
          "type": "uint256"
        }
      ],
      "name": "_setState",
      "outputs": [],
      "payable": false,
      "stateMutability": "nonpayable",
      "type": "function"
    }
  ],
  "bytecode": "0x60806040523480156200001157600080fd5b50604051610140806200637a833981018060405281019080805190602001909291908051906020019092919080519060200190929190805190602001909291908051906020019092919080519060200190929190805190602001909291908051906020019092919080519060200190929190805190602001909291905050508989898989898989898989620000b5336200073a640100000000026401000000009004565b620000cf33620007a4640100000000026401000000009004565b806002819055505033600360006101000a81548173ffffffffffffffffffffffffffffffffffffffff021916908373ffffffffffffffffffffffffffffffffffffffff1602179055507f4101e71e974f68df5e9730cc223280b41654676bbb052cdcc735c3337e64d2d9600360009054906101000a900473ffffffffffffffffffffffffffffffffffffffff16604051808273ffffffffffffffffffffffffffffffffffffffff1673ffffffffffffffffffffffffffffffffffffffff16815260200191505060405180910390a16001600481905550600073ffffffffffffffffffffffffffffffffffffffff168973ffffffffffffffffffffffffffffffffffffffff1614151515620001e257600080fd5b600073ffffffffffffffffffffffffffffffffffffffff168873ffffffffffffffffffffffffffffffffffffffff16141515156200021f57600080fd5b8373__Percent_______________________________63520b006690916040518263ffffffff167c01000000000000000000000000000000000000000000000000000000000281526004018082815260200191505060206040518083038186803b1580156200028d57600080fd5b505af4158015620002a2573d6000803e3d6000fd5b505050506040513d6020811015620002b957600080fd5b8101908080519060200190929190505050801562000381575060648473__Percent_______________________________630fe9114790916040518263ffffffff167c01000000000000000000000000000000000000000000000000000000000281526004018082815260200191505060206040518083038186803b1580156200034257600080fd5b505af415801562000357573d6000803e3d6000fd5b505050506040513d60208110156200036e57600080fd5b8101908080519060200190929190505050105b15156200038d57600080fd5b8273__Percent_______________________________63520b006690916040518263ffffffff167c01000000000000000000000000000000000000000000000000000000000281526004018082815260200191505060206040518083038186803b158015620003fb57600080fd5b505af415801562000410573d6000803e3d6000fd5b505050506040513d60208110156200042757600080fd5b81019080805190602001909291905050508015620004ef575060648373__Percent_______________________________630fe9114790916040518263ffffffff167c01000000000000000000000000000000000000000000000000000000000281526004018082815260200191505060206040518083038186803b158015620004b057600080fd5b505af4158015620004c5573d6000803e3d6000fd5b505050506040513d6020811015620004dc57600080fd5b8101908080519060200190929190505050105b1515620004fb57600080fd5b600073ffffffffffffffffffffffffffffffffffffffff168273ffffffffffffffffffffffffffffffffffffffff16141515156200053857600080fd5b600073ffffffffffffffffffffffffffffffffffffffff168573ffffffffffffffffffffffffffffffffffffffff16141515156200057557600080fd5b600073ffffffffffffffffffffffffffffffffffffffff168173ffffffffffffffffffffffffffffffffffffffff1614151515620005b257600080fd5b620005cd87876200080e640100000000026401000000009004565b87600560006101000a81548173ffffffffffffffffffffffffffffffffffffffff021916908373ffffffffffffffffffffffffffffffffffffffff16021790555088600660006101000a81548173ffffffffffffffffffffffffffffffffffffffff021916908373ffffffffffffffffffffffffffffffffffffffff16021790555083600a8190555084600d60006101000a81548173ffffffffffffffffffffffffffffffffffffffff021916908373ffffffffffffffffffffffffffffffffffffffff16021790555082600b8190555081600760006101000a81548173ffffffffffffffffffffffffffffffffffffffff021916908373ffffffffffffffffffffffffffffffffffffffff16021790555080600860006101000a81548173ffffffffffffffffffffffffffffffffffffffff021916908373ffffffffffffffffffffffffffffffffffffffff1602179055505050505050505050505050505050505050505050620009ff565b6200075e816000620008a76401000000000262005827179091906401000000009004565b8073ffffffffffffffffffffffffffffffffffffffff167f44d6d25963f097ad14f29f06854a01f575648a1ef82f30e562ccd3889717e33960405160405180910390a250565b620007c8816001620008a76401000000000262005827179091906401000000009004565b8073ffffffffffffffffffffffffffffffffffffffff167f941e31c3e651de34a7fcf0132d9d02c2df9377e6b5f932bec5daf6353c94f90e60405160405180910390a250565b6000821115156200081e57600080fd5b600073ffffffffffffffffffffffffffffffffffffffff168173ffffffffffffffffffffffffffffffffffffffff16141515156200085b57600080fd5b8160098190555080600c60006101000a81548173ffffffffffffffffffffffffffffffffffffffff021916908373ffffffffffffffffffffffffffffffffffffffff1602179055505050565b600073ffffffffffffffffffffffffffffffffffffffff168173ffffffffffffffffffffffffffffffffffffffff1614151515620008e457600080fd5b620008ff82826200096a640100000000026401000000009004565b1515156200090c57600080fd5b60018260000160008373ffffffffffffffffffffffffffffffffffffffff1673ffffffffffffffffffffffffffffffffffffffff16815260200190815260200160002060006101000a81548160ff0219169083151502179055505050565b60008073ffffffffffffffffffffffffffffffffffffffff168273ffffffffffffffffffffffffffffffffffffffff1614151515620009a857600080fd5b8260000160008373ffffffffffffffffffffffffffffffffffffffff1673ffffffffffffffffffffffffffffffffffffffff16815260200190815260200160002060009054906101000a900460ff16905092915050565b61596b8062000a0f6000396000f30060806040526004361061025c576000357c0100000000000000000000000000000000000000000000000000000000900463ffffffff16806307f5d6331461026157806311eb8c9f1461028f57806313096a41146102d857806314f66d341461032f5780631785f53c146103655780631aecc19f146103a8578063208853c91461040d5780632348238c1461044e5780632442e1cb1461049157806324d7806c146105e35780632784bb7b1461063e5780632e3250201461068e5780632fbe599014610798578063313602d4146107c35780633baba4d7146107da5780633bcdb164146108055780633dbd6721146108485780634090cb641461088d57806343f48fbd146108e457806354fd4d501461093b578063550fd742146109665780635641f3c3146109d2578063564566a814610a295780635773caaf14610a5857806359e3774914610a9b5780637048027514610ae2578063792c02ea14610b255780638119c06514610b50578063845ddcb214610ba75780638abdf5aa14610c215780638aea2af814610c4c5780638bad0c0a14610cc35780638edd6eb614610cda578063a035b1fe14610d31578063a4fd6f5614610d5c578063b135648814610d8b578063b60d428814610dc2578063c6dbdf6114610e19578063ca7348a314610e70578063cd151de014610e9d578063d0934d6114610f1e578063d155790b14610f35578063d5b2262314610f78578063d6d65f3d1461102b578063d8e9ce6414611061578063daa4cf88146110bc578063e89e4ed6146110f2578063e93b054014611244578063f6cf09dc14611271578063fc0c546a146112e8575b600080fd5b61028d60048036038101908080356000191690602001909291908035906020019092919050505061133f565b005b34801561029b57600080fd5b506102be60048036038101908080356000191690602001909291905050506116b2565b604051808215151515815260200191505060405180910390f35b3480156102e457600080fd5b506102ed611774565b604051808273ffffffffffffffffffffffffffffffffffffffff1673ffffffffffffffffffffffffffffffffffffffff16815260200191505060405180910390f35b34801561033b57600080fd5b5061034461179a565b60405180838152602001821515151581526020019250505060405180910390f35b34801561037157600080fd5b506103a6600480360381019080803573ffffffffffffffffffffffffffffffffffffffff1690602001909291905050506117d4565b005b3480156103b457600080fd5b506103f3600480360381019080803573ffffffffffffffffffffffffffffffffffffffff169060200190929190803590602001909291905050506117e0565b604051808215151515815260200191505060405180910390f35b34801561041957600080fd5b50610438600480360381019080803590602001909291905050506118ea565b6040518082815260200191505060405180910390f35b34801561045a57600080fd5b5061048f600480360381019080803573ffffffffffffffffffffffffffffffffffffffff169060200190929190505050611a6a565b005b34801561049d57600080fd5b506104bc60048036038101908080359060200190929190505050611bcb565b604051808763ffffffff1663ffffffff1681526020018681526020018563ffffffff1663ffffffff1681526020018463ffffffff1663ffffffff1681526020018060200180602001838103835285818151815260200191508051906020019080838360005b8381101561053c578082015181840152602081019050610521565b50505050905090810190601f1680156105695780820380516001836020036101000a031916815260200191505b50838103825284818151815260200191508051906020019080838360005b838110156105a2578082015181840152602081019050610587565b50505050905090810190601f1680156105cf5780820380516001836020036101000a031916815260200191505b509850505050505050505060405180910390f35b3480156105ef57600080fd5b50610624600480360381019080803573ffffffffffffffffffffffffffffffffffffffff169060200190929190505050611e15565b604051808215151515815260200191505060405180910390f35b34801561064a57600080fd5b5061066d6004803603810190808035600019169060200190929190505050611e32565b60405180831515151581526020018281526020019250505060405180910390f35b34801561069a57600080fd5b506106b960048036038101908080359060200190929190505050611e89565b604051808763ffffffff1663ffffffff1681526020018663ffffffff1663ffffffff1681526020018581526020018463ffffffff1663ffffffff1681526020018060200180602001838103835285818151815260200191508051906020019060200280838360005b8381101561073c578082015181840152602081019050610721565b50505050905001838103825284818151815260200191508051906020019060200280838360005b8381101561077e578082015181840152602081019050610763565b505050509050019850505050505050505060405180910390f35b3480156107a457600080fd5b506107ad61203f565b6040518082815260200191505060405180910390f35b3480156107cf57600080fd5b506107d8612045565b005b3480156107e657600080fd5b506107ef6122b0565b6040518082815260200191505060405180910390f35b34801561081157600080fd5b50610846600480360381019080803573ffffffffffffffffffffffffffffffffffffffff1690602001909291905050506122bd565b005b34801561085457600080fd5b5061087760048036038101908080356000191690602001909291905050506122c9565b6040518082815260200191505060405180910390f35b34801561089957600080fd5b506108a261232d565b604051808273ffffffffffffffffffffffffffffffffffffffff1673ffffffffffffffffffffffffffffffffffffffff16815260200191505060405180910390f35b3480156108f057600080fd5b506108f9612357565b604051808273ffffffffffffffffffffffffffffffffffffffff1673ffffffffffffffffffffffffffffffffffffffff16815260200191505060405180910390f35b34801561094757600080fd5b5061095061237d565b6040518082815260200191505060405180910390f35b34801561097257600080fd5b5061097b612383565b6040518080602001828103825283818151815260200191508051906020019060200280838360005b838110156109be5780820151818401526020810190506109a3565b505050509050019250505060405180910390f35b3480156109de57600080fd5b506109e7612489565b604051808273ffffffffffffffffffffffffffffffffffffffff1673ffffffffffffffffffffffffffffffffffffffff16815260200191505060405180910390f35b348015610a3557600080fd5b50610a3e6124af565b604051808215151515815260200191505060405180910390f35b348015610a6457600080fd5b50610a99600480360381019080803573ffffffffffffffffffffffffffffffffffffffff1690602001909291905050506124c4565b005b348015610aa757600080fd5b50610ae0600480360381019080803560001916906020019092919080351515906020019092919080359060200190929190505050612525565b005b348015610aee57600080fd5b50610b23600480360381019080803573ffffffffffffffffffffffffffffffffffffffff1690602001909291905050506126db565b005b348015610b3157600080fd5b50610b3a6126e7565b6040518082815260200191505060405180910390f35b348015610b5c57600080fd5b50610b656126f4565b604051808273ffffffffffffffffffffffffffffffffffffffff1673ffffffffffffffffffffffffffffffffffffffff16815260200191505060405180910390f35b348015610bb357600080fd5b50610bd26004803603810190808035906020019092919050505061271a565b604051808563ffffffff1663ffffffff1681526020018463ffffffff1663ffffffff1681526020018381526020018263ffffffff1663ffffffff16815260200194505050505060405180910390f35b348015610c2d57600080fd5b50610c36612789565b6040518082815260200191505060405180910390f35b348015610c5857600080fd5b50610c8560048036038101908080356000191690602001909291908035906020019092919050505061278f565b6040518082600560200280838360005b83811015610cb0578082015181840152602081019050610c95565b5050505090500191505060405180910390f35b348015610ccf57600080fd5b50610cd8612bc2565b005b348015610ce657600080fd5b50610cef612bcd565b604051808273ffffffffffffffffffffffffffffffffffffffff1673ffffffffffffffffffffffffffffffffffffffff16815260200191505060405180910390f35b348015610d3d57600080fd5b50610d46612bf7565b6040518082815260200191505060405180910390f35b348015610d6857600080fd5b50610d71612bfd565b604051808215151515815260200191505060405180910390f35b348015610d9757600080fd5b50610da0612c54565b604051808263ffffffff1663ffffffff16815260200191505060405180910390f35b348015610dce57600080fd5b50610dd7612ca7565b604051808273ffffffffffffffffffffffffffffffffffffffff1673ffffffffffffffffffffffffffffffffffffffff16815260200191505060405180910390f35b348015610e2557600080fd5b50610e2e612ccd565b604051808273ffffffffffffffffffffffffffffffffffffffff1673ffffffffffffffffffffffffffffffffffffffff16815260200191505060405180910390f35b348015610e7c57600080fd5b50610e9b60048036038101908080359060200190929190505050612cf7565b005b348015610ea957600080fd5b50610ee060048036038101908080359060200190929190803590602001909291908035600019169060200190929190505050612d01565b6040518082600260200280838360005b83811015610f0b578082015181840152602081019050610ef0565b5050505090500191505060405180910390f35b348015610f2a57600080fd5b50610f33612ea3565b005b348015610f4157600080fd5b50610f76600480360381019080803573ffffffffffffffffffffffffffffffffffffffff169060200190929190505050612eae565b005b348015610f8457600080fd5b50611029600480360381019080803590602001908201803590602001919091929391929390803590602001908201803590602001919091929391929390803590602001908201803590602001919091929391929390803590602001908201803590602001919091929391929390803590602001908201803590602001919091929391929390803590602001908201803590602001919091929391929390505050612eba565b005b34801561103757600080fd5b50611040613355565b60405180838152602001821515151581526020019250505060405180910390f35b34801561106d57600080fd5b506110a2600480360381019080803573ffffffffffffffffffffffffffffffffffffffff1690602001909291905050506133e4565b604051808215151515815260200191505060405180910390f35b3480156110c857600080fd5b506110d1613401565b60405180838152602001821515151581526020019250505060405180910390f35b3480156110fe57600080fd5b5061111d600480360381019080803590602001909291905050506134aa565b604051808763ffffffff1663ffffffff1681526020018681526020018563ffffffff1663ffffffff1681526020018463ffffffff1663ffffffff1681526020018060200180602001838103835285818151815260200191508051906020019080838360005b8381101561119d578082015181840152602081019050611182565b50505050905090810190601f1680156111ca5780820380516001836020036101000a031916815260200191505b50838103825284818151815260200191508051906020019080838360005b838110156112035780820151818401526020810190506111e8565b50505050905090810190601f1680156112305780820380516001836020036101000a031916815260200191505b509850505050505050505060405180910390f35b34801561125057600080fd5b5061126f60048036038101908080359060200190929190505050613655565b005b34801561127d57600080fd5b506112aa600480360381019080803560001916906020019092919080359060200190929190505050613734565b6040518082600460200280838360005b838110156112d55780820151818401526020810190506112ba565b5050505090500191505060405180910390f35b3480156112f457600080fd5b506112fd613b67565b604051808273ffffffffffffffffffffffffffffffffffffffff1673ffffffffffffffffffffffffffffffffffffffff16815260200191505060405180910390f35b60006113496158d7565b6113516158fa565b6000600160046000828254019250508190555060045490506113716124af565b151561137c57600080fd5b600e73__PaymentMethods________________________6377df08569091886040518363ffffffff167c01000000000000000000000000000000000000000000000000000000000281526004018083815260200182600019166000191681526020019250505060206040518083038186803b1580156113fa57600080fd5b505af415801561140e573d6000803e3d6000fd5b505050506040513d602081101561142457600080fd5b8101908080519060200190929190505050151561144057600080fd5b856000191661144d613b8d565b6000191614151561156857600073ffffffffffffffffffffffffffffffffffffffff16600860009054906101000a900473ffffffffffffffffffffffffffffffffffffffff1673ffffffffffffffffffffffffffffffffffffffff1663b12e4410886040518263ffffffff167c0100000000000000000000000000000000000000000000000000000000028152600401808260001916600019168152602001915050602060405180830381600087803b15801561150957600080fd5b505af115801561151d573d6000803e3d6000fd5b505050506040513d602081101561153357600080fd5b810190808051906020019092919050505073ffffffffffffffffffffffffffffffffffffffff161415151561156757600080fd5b5b611570613401565b50935061157d868661278f565b92506115b083600060058110151561159157fe5b60200201518460016005811015156115a557fe5b602002015188612d01565b91506115bc8287613bb5565b6115f883836011878154811015156115d057fe5b906000526020600020906005020160020160009054906101000a900463ffffffff1689613fb3565b6116038383886142f5565b3373ffffffffffffffffffffffffffffffffffffffff167f347f5f0051b895093800553e6e78ef332849e2552639a4f5ffe66535788ae07884600060058110151561164a57fe5b602002015185600160058110151561165e57fe5b602002015186600360058110151561167257fe5b602002015160405180848152602001838152602001828152602001935050505060405180910390a2600454811415156116aa57600080fd5b505050505050565b6000600e73__PaymentMethods________________________6377df08569091846040518363ffffffff167c01000000000000000000000000000000000000000000000000000000000281526004018083815260200182600019166000191681526020019250505060206040518083038186803b15801561173257600080fd5b505af4158015611746573d6000803e3d6000fd5b505050506040513d602081101561175c57600080fd5b81019080805190602001909291905050509050919050565b600660009054906101000a900473ffffffffffffffffffffffffffffffffffffffff1681565b600080600060128054905014806117b657506117b4612bfd565b155b156117c0576117d0565b6001905060016012805490500391505b9091565b6117dd8161481c565b50565b6000600560009054906101000a900473ffffffffffffffffffffffffffffffffffffffff1673ffffffffffffffffffffffffffffffffffffffff1663a9059cbb84846040518363ffffffff167c0100000000000000000000000000000000000000000000000000000000028152600401808373ffffffffffffffffffffffffffffffffffffffff1673ffffffffffffffffffffffffffffffffffffffff16815260200182815260200192505050602060405180830381600087803b1580156118a757600080fd5b505af11580156118bb573d6000803e3d6000fd5b505050506040513d60208110156118d157600080fd5b8101908080519060200190929190505050905092915050565b6000806000806118f8613401565b9250925081151561190857611a62565b60118381548110151561191757fe5b9060005260206000209060050201905073__PurchaseProcessing____________________63b8005df28683600301846004016040518463ffffffff167c010000000000000000000000000000000000000000000000000000000002815260040180848152602001806020018060200183810383528581815481526020019150805480156119c457602002820191906000526020600020905b8154815260200190600101908083116119b0575b50508381038252848181548152602001915080548015611a0357602002820191906000526020600020905b8154815260200190600101908083116119ef575b50509550505050505060206040518083038186803b158015611a2457600080fd5b505af4158015611a38573d6000803e3d6000fd5b505050506040513d6020811015611a4e57600080fd5b810190808051906020019092919050505093505b505050919050565b600360009054906101000a900473ffffffffffffffffffffffffffffffffffffffff1673ffffffffffffffffffffffffffffffffffffffff163373ffffffffffffffffffffffffffffffffffffffff16141515611ac657600080fd5b600073ffffffffffffffffffffffffffffffffffffffff168173ffffffffffffffffffffffffffffffffffffffff1614151515611b0257600080fd5b80600360006101000a81548173ffffffffffffffffffffffffffffffffffffffff021916908373ffffffffffffffffffffffffffffffffffffffff1602179055507f4101e71e974f68df5e9730cc223280b41654676bbb052cdcc735c3337e64d2d9600360009054906101000a900473ffffffffffffffffffffffffffffffffffffffff16604051808273ffffffffffffffffffffffffffffffffffffffff1673ffffffffffffffffffffffffffffffffffffffff16815260200191505060405180910390a150565b600080600080606080601287815481101515611be357fe5b906000526020600020906005020160000160009054906101000a900463ffffffff16601288815481101515611c1457fe5b906000526020600020906005020160010154601289815481101515611c3557fe5b906000526020600020906005020160020160009054906101000a900463ffffffff1660128a815481101515611c6657fe5b906000526020600020906005020160020160049054906101000a900463ffffffff1660128b815481101515611c9757fe5b906000526020600020906005020160030160128c815481101515611cb757fe5b9060005260206000209060050201600401818054600181600116156101000203166002900480601f016020809104026020016040519081016040528092919081815260200182805460018160011615610100020316600290048015611d5d5780601f10611d3257610100808354040283529160200191611d5d565b820191906000526020600020905b815481529060010190602001808311611d4057829003601f168201915b50505050509150808054600181600116156101000203166002900480601f016020809104026020016040519081016040528092919081815260200182805460018160011615610100020316600290048015611df95780601f10611dce57610100808354040283529160200191611df9565b820191906000526020600020905b815481529060010190602001808311611ddc57829003601f168201915b5050505050905095509550955095509550955091939550919395565b6000611e2b82600061487690919063ffffffff16565b9050919050565b60008060106000846000191660001916815260200190815260200160002060000160009054906101000a900460ff166010600085600019166000191681526020019081526020016000206001015491509150915091565b600080600080606080601187815481101515611ea157fe5b906000526020600020906005020160000160009054906101000a900463ffffffff16601188815481101515611ed257fe5b906000526020600020906005020160000160049054906101000a900463ffffffff16601189815481101515611f0357fe5b90600052602060002090600502016001015460118a815481101515611f2457fe5b906000526020600020906005020160020160009054906101000a900463ffffffff1660118b815481101515611f5557fe5b906000526020600020906005020160030160118c815481101515611f7557fe5b906000526020600020906005020160040181805480602002602001604051908101604052809291908181526020018280548015611fd157602002820191906000526020600020905b815481526020019060010190808311611fbd575b505050505091508080548060200260200160405190810160405280929190818152602001828054801561202357602002820191906000526020600020905b81548152602001906001019080831161200f575b5050505050905095509550955095509550955091939550919395565b600b5481565b600061204f612bfd565b151561205a57600080fd5b600560009054906101000a900473ffffffffffffffffffffffffffffffffffffffff1673ffffffffffffffffffffffffffffffffffffffff166370a08231306040518263ffffffff167c0100000000000000000000000000000000000000000000000000000000028152600401808273ffffffffffffffffffffffffffffffffffffffff1673ffffffffffffffffffffffffffffffffffffffff168152602001915050602060405180830381600087803b15801561211757600080fd5b505af115801561212b573d6000803e3d6000fd5b505050506040513d602081101561214157600080fd5b81019080805190602001909291905050509050600560009054906101000a900473ffffffffffffffffffffffffffffffffffffffff1673ffffffffffffffffffffffffffffffffffffffff1663a9059cbb33836040518363ffffffff167c0100000000000000000000000000000000000000000000000000000000028152600401808373ffffffffffffffffffffffffffffffffffffffff1673ffffffffffffffffffffffffffffffffffffffff16815260200182815260200192505050602060405180830381600087803b15801561221957600080fd5b505af115801561222d573d6000803e3d6000fd5b505050506040513d602081101561224357600080fd5b8101908080519060200190929190505050151561225f57600080fd5b3373ffffffffffffffffffffffffffffffffffffffff167f26ffb867a6b19bc0240d4e732ed6cfb0f0b6d93143a99cfb24ba5873308861f8826040518082815260200191505060405180910390a250565b6000601280549050905090565b6122c68161490a565b50565b600060106000836000191660001916815260200190815260200160002060000160009054906101000a900460ff161561232257601060008360001916600019168152602001908152602001600020600101549050612328565b600a5490505b919050565b6000600560009054906101000a900473ffffffffffffffffffffffffffffffffffffffff16905090565b600860009054906101000a900473ffffffffffffffffffffffffffffffffffffffff1681565b60025481565b6060600e73__PaymentMethods________________________633b3d1a2290916040518263ffffffff167c01000000000000000000000000000000000000000000000000000000000281526004018082815260200191505060006040518083038186803b1580156123f357600080fd5b505af4158015612407573d6000803e3d6000fd5b505050506040513d6000823e3d601f19601f82011682018060405250602081101561243157600080fd5b81019080805164010000000081111561244957600080fd5b8281019050602081018481111561245f57600080fd5b815185602082028301116401000000008211171561247c57600080fd5b5050929190505050905090565b600c60009054906101000a900473ffffffffffffffffffffffffffffffffffffffff1681565b6000806124ba613401565b9150508091505090565b8073ffffffffffffffffffffffffffffffffffffffff166108fc3073ffffffffffffffffffffffffffffffffffffffff16319081150290604051600060405180830381858888f19350505050158015612521573d6000803e3d6000fd5b5050565b8073__Percent_______________________________63520b006690916040518263ffffffff167c01000000000000000000000000000000000000000000000000000000000281526004018082815260200191505060206040518083038186803b15801561259257600080fd5b505af41580156125a6573d6000803e3d6000fd5b505050506040513d60208110156125bc57600080fd5b81019080805190602001909291905050508015612672575073__Percent_______________________________63d49d51816040518163ffffffff167c010000000000000000000000000000000000000000000000000000000002815260040160206040518083038186803b15801561263457600080fd5b505af4158015612648573d6000803e3d6000fd5b505050506040513d602081101561265e57600080fd5b810190808051906020019092919050505081105b151561267d57600080fd5b8160106000856000191660001916815260200190815260200160002060000160006101000a81548160ff0219169083151502179055508060106000856000191660001916815260200190815260200160002060010181905550505050565b6126e481614964565b50565b6000601180549050905090565b600d60009054906101000a900473ffffffffffffffffffffffffffffffffffffffff1681565b60118181548110151561272957fe5b90600052602060002090600502016000915090508060000160009054906101000a900463ffffffff16908060000160049054906101000a900463ffffffff16908060010154908060020160009054906101000a900463ffffffff16905084565b600a5481565b6127976158d7565b6000806127a26158d7565b600e73__PaymentMethods________________________6377df08569091886040518363ffffffff167c01000000000000000000000000000000000000000000000000000000000281526004018083815260200182600019166000191681526020019250505060206040518083038186803b15801561282057600080fd5b505af4158015612834573d6000803e3d6000fd5b505050506040513d602081101561284a57600080fd5b8101908080519060200190929190505050151561286657600080fd5b61286e613401565b9250925081151561287e57612bb9565b856000191661288b613b8d565b6000191614151561297657600860009054906101000a900473ffffffffffffffffffffffffffffffffffffffff1673ffffffffffffffffffffffffffffffffffffffff1663cfec719f876040518263ffffffff167c0100000000000000000000000000000000000000000000000000000000028152600401808260001916600019168152602001915050602060405180830381600087803b15801561292f57600080fd5b505af1158015612943573d6000803e3d6000fd5b505050506040513d602081101561295957600080fd5b8101908080519060200190929190505050151561297557612bb9565b5b61297f866149be565b905073__PurchaseProcessing____________________6391bfca3187876011878154811015156129ac57fe5b9060005260206000209060050201600101546011888154811015156129cd57fe5b90600052602060002090600502016003016011898154811015156129ed57fe5b9060005260206000209060050201600401876000600581101515612a0d57fe5b6020020151886001600581101515612a2157fe5b6020020151896002600581101515612a3557fe5b60200201518a6003600581101515612a4957fe5b60200201518b6004600581101515612a5d57fe5b60200201516040518b63ffffffff167c0100000000000000000000000000000000000000000000000000000000028152600401808b600019166000191681526020018a8152602001898152602001806020018060200188815260200187815260200186815260200185815260200184815260200183810383528a8181548152602001915080548015612b0e57602002820191906000526020600020905b815481526020019060010190808311612afa575b50508381038252898181548152602001915080548015612b4d57602002820191906000526020600020905b815481526020019060010190808311612b39575b50509c5050505050505050505050505060a06040518083038186803b158015612b7557600080fd5b505af4158015612b89573d6000803e3d6000fd5b505050506040513d601f19601f8201168201806040525060a0811015612bae57600080fd5b810190809190505093505b50505092915050565b612bcb3361481c565b565b6000600760009054906101000a900473ffffffffffffffffffffffffffffffffffffffff16905090565b60095481565b6000806011805490501480612c4f5750426011600160118054905003815481101515612c2557fe5b906000526020600020906005020160000160049054906101000a900463ffffffff1663ffffffff16105b905090565b600080601180549050111515612c6957600080fd5b6011600160118054905003815481101515612c8057fe5b906000526020600020906005020160000160049054906101000a900463ffffffff16905090565b600760009054906101000a900473ffffffffffffffffffffffffffffffffffffffff1681565b6000600360009054906101000a900473ffffffffffffffffffffffffffffffffffffffff16905090565b80600b8190555050565b612d096158fa565b600e73__PaymentMethods________________________6377df08569091846040518363ffffffff167c01000000000000000000000000000000000000000000000000000000000281526004018083815260200182600019166000191681526020019250505060206040518083038186803b158015612d8757600080fd5b505af4158015612d9b573d6000803e3d6000fd5b505050506040513d6020811015612db157600080fd5b81019080805190602001909291905050501515612dcd57600080fd5b73__PurchaseProcessing____________________636cd5c0568585600b54612df5876122c9565b6040518563ffffffff167c010000000000000000000000000000000000000000000000000000000002815260040180858152602001848152602001838152602001828152602001945050505050604080518083038186803b158015612e5957600080fd5b505af4158015612e6d573d6000803e3d6000fd5b505050506040513d601f19601f820116820180604052506040811015612e9257600080fd5b810190809190505090509392505050565b612eac33614e69565b565b612eb781614e69565b50565b6000806011805490501115612f0f574260116000815481101515612eda57fe5b906000526020600020906005020160000160009054906101000a900463ffffffff1663ffffffff16111515612f0e57600080fd5b5b60008d8d905014151515612f2257600080fd5b7fffffffffffffffffffffffffffffffffffffffffffffffffffffffffffffffff60ff168d8d905011151515612f5757600080fd5b7fffffffffffffffffffffffffffffffffffffffffffffffffffffffffffffffff60ff168989905011151515612f8c57600080fd5b600287879050811515612f9b57fe5b0489899050141515612fac57600080fd5b600285859050811515612fbb57fe5b048989905011151515612fcd57600080fd5b60008383905014151515612fe057600080fd5b600090505b828290508110156130f457600860009054906101000a900473ffffffffffffffffffffffffffffffffffffffff1673ffffffffffffffffffffffffffffffffffffffff16637d20abf8848484818110151561303c57fe5b90506020020135600019166040518263ffffffff167c0100000000000000000000000000000000000000000000000000000000028152600401808260001916600019168152602001915050602060405180830381600087803b1580156130a157600080fd5b505af11580156130b5573d6000803e3d6000fd5b505050506040513d60208110156130cb57600080fd5b810190808051906020019092919050505015156130e757600080fd5b8080600101915050612fe5565b6131988d8d808060200260200160405190810160405280939291908181526020016000905b8282101561315e57848483905060c002016006806020026040519081016040528092919082600660200280828437820191505050505081526020019060010190613119565b50505050508c8c80806020026020016040519081016040528093929190818152602001838360200280828437820191505050505050614ec3565b61326f8989808060200260200160405190810160405280939291908181526020016000905b828210156132025784848390506080020160048060200260405190810160405280929190826004602002808284378201915050505050815260200190600101906131bd565b505050505088888080602002602001604051908101604052809392919081815260200183836020028082843782019150505050505087878080601f016020809104026020016040519081016040528093929190818152602001838380828437820191505050505050615035565b600e73__PaymentMethods________________________63f24950e2909185856040518463ffffffff167c010000000000000000000000000000000000000000000000000000000002815260040180848152602001806020018281038252848482818152602001925060200280828437820191505094505050505060006040518083038186803b15801561330257600080fd5b505af4158015613316573d6000803e3d6000fd5b505050507f072792b04aecd99b2250bc76fb25f9bca793c3b7383cb4c7255a7a01e8f5a12e60405160405180910390a150505050505050505050505050565b60008060006012805490501480613371575061336f612bfd565b155b1561337b576133e0565b600190505b600160128054905003821080156133cd57506012828154811015156133a157fe5b906000526020600020906005020160020160049054906101000a900463ffffffff1663ffffffff164210155b156133df578180600101925050613380565b5b9091565b60006133fa82600161487690919063ffffffff16565b9050919050565b600080600080600091505b6011805490508210156134995760118281548110151561342857fe5b90600052602060002090600502019050428160000160009054906101000a900463ffffffff1663ffffffff161115801561347b5750428160000160049054906101000a900463ffffffff1663ffffffff16115b1561348c57816001935093506134a4565b818060010192505061340c565b600080819150935093505b50509091565b6012818154811015156134b957fe5b90600052602060002090600502016000915090508060000160009054906101000a900463ffffffff16908060010154908060020160009054906101000a900463ffffffff16908060020160049054906101000a900463ffffffff1690806003018054600181600116156101000203166002900480601f0160208091040260200160405190810160405280929190818152602001828054600181600116156101000203166002900480156135ad5780601f10613582576101008083540402835291602001916135ad565b820191906000526020600020905b81548152906001019060200180831161359057829003601f168201915b505050505090806004018054600181600116156101000203166002900480601f01602080910402602001604051908101604052809291908181526020018280546001816001161561010002031660029004801561364b5780601f106136205761010080835404028352916020019161364b565b820191906000526020600020905b81548152906001019060200180831161362e57829003601f168201915b5050505050905086565b600360009054906101000a900473ffffffffffffffffffffffffffffffffffffffff1673ffffffffffffffffffffffffffffffffffffffff163373ffffffffffffffffffffffffffffffffffffffff161415156136b157600080fd5b600060118054905011156137055742601160008154811015156136d057fe5b906000526020600020906005020160000160009054906101000a900463ffffffff1663ffffffff1611151561370457600080fd5b5b61373181600c60009054906101000a900473ffffffffffffffffffffffffffffffffffffffff16615215565b50565b61373c61591c565b6000806137476158d7565b600e73__PaymentMethods________________________6377df08569091886040518363ffffffff167c01000000000000000000000000000000000000000000000000000000000281526004018083815260200182600019166000191681526020019250505060206040518083038186803b1580156137c557600080fd5b505af41580156137d9573d6000803e3d6000fd5b505050506040513d60208110156137ef57600080fd5b8101908080519060200190929190505050151561380b57600080fd5b613813613401565b9250925081151561382357613b5e565b8560001916613830613b8d565b6000191614151561391b57600860009054906101000a900473ffffffffffffffffffffffffffffffffffffffff1673ffffffffffffffffffffffffffffffffffffffff1663cfec719f876040518263ffffffff167c0100000000000000000000000000000000000000000000000000000000028152600401808260001916600019168152602001915050602060405180830381600087803b1580156138d457600080fd5b505af11580156138e8573d6000803e3d6000fd5b505050506040513d60208110156138fe57600080fd5b8101908080519060200190929190505050151561391a57613b5e565b5b613924866152ac565b905073__PurchaseProcessing____________________6391dab422878760118781548110151561395157fe5b90600052602060002090600502016001015460118881548110151561397257fe5b906000526020600020906005020160030160118981548110151561399257fe5b90600052602060002090600502016004018760006005811015156139b257fe5b60200201518860016005811015156139c657fe5b60200201518960026005811015156139da57fe5b60200201518a60036005811015156139ee57fe5b60200201518b6004600581101515613a0257fe5b60200201516040518b63ffffffff167c0100000000000000000000000000000000000000000000000000000000028152600401808b600019166000191681526020018a8152602001898152602001806020018060200188815260200187815260200186815260200185815260200184815260200183810383528a8181548152602001915080548015613ab357602002820191906000526020600020905b815481526020019060010190808311613a9f575b50508381038252898181548152602001915080548015613af257602002820191906000526020600020905b815481526020019060010190808311613ade575b50509c5050505050505050505050505060806040518083038186803b158015613b1a57600080fd5b505af4158015613b2e573d6000803e3d6000fd5b505050506040513d601f19601f820116820180604052506080811015613b5357600080fd5b810190809190505093505b50505092915050565b600560009054906101000a900473ffffffffffffffffffffffffffffffffffffffff1681565b60007f4554480000000000000000000000000000000000000000000000000000000000905090565b73__PurchaseProcessing____________________633676737c8383600860009054906101000a900473ffffffffffffffffffffffffffffffffffffffff1673ffffffffffffffffffffffffffffffffffffffff1663cfec719f866040518263ffffffff167c0100000000000000000000000000000000000000000000000000000000028152600401808260001916600019168152602001915050602060405180830381600087803b158015613c6a57600080fd5b505af1158015613c7e573d6000803e3d6000fd5b505050506040513d6020811015613c9457600080fd5b8101908080519060200190929190505050613cb0576000613d85565b600860009054906101000a900473ffffffffffffffffffffffffffffffffffffffff1673ffffffffffffffffffffffffffffffffffffffff1663b12e4410866040518263ffffffff167c0100000000000000000000000000000000000000000000000000000000028152600401808260001916600019168152602001915050602060405180830381600087803b158015613d4957600080fd5b505af1158015613d5d573d6000803e3d6000fd5b505050506040513d6020811015613d7357600080fd5b81019080805190602001909291905050505b600560009054906101000a900473ffffffffffffffffffffffffffffffffffffffff16600660009054906101000a900473ffffffffffffffffffffffffffffffffffffffff16600d60009054906101000a900473ffffffffffffffffffffffffffffffffffffffff16600c60009054906101000a900473ffffffffffffffffffffffffffffffffffffffff166040518863ffffffff167c01000000000000000000000000000000000000000000000000000000000281526004018088600260200280838360005b83811015613e67578082015181840152602081019050613e4c565b5050505090500187600019166000191681526020018673ffffffffffffffffffffffffffffffffffffffff1673ffffffffffffffffffffffffffffffffffffffff1681526020018573ffffffffffffffffffffffffffffffffffffffff1673ffffffffffffffffffffffffffffffffffffffff1681526020018473ffffffffffffffffffffffffffffffffffffffff1673ffffffffffffffffffffffffffffffffffffffff1681526020018373ffffffffffffffffffffffffffffffffffffffff1673ffffffffffffffffffffffffffffffffffffffff1681526020018273ffffffffffffffffffffffffffffffffffffffff1673ffffffffffffffffffffffffffffffffffffffff16815260200197505050505050505060006040518083038186803b158015613f9757600080fd5b505af4158015613fab573d6000803e3d6000fd5b505050505050565b73__PurchaseProcessing____________________634bb1e9ff85858585600860009054906101000a900473ffffffffffffffffffffffffffffffffffffffff1673ffffffffffffffffffffffffffffffffffffffff1663cfec719f886040518263ffffffff167c0100000000000000000000000000000000000000000000000000000000028152600401808260001916600019168152602001915050602060405180830381600087803b15801561406a57600080fd5b505af115801561407e573d6000803e3d6000fd5b505050506040513d602081101561409457600080fd5b81019080805190602001909291905050506140b0576000614185565b600860009054906101000a900473ffffffffffffffffffffffffffffffffffffffff1673ffffffffffffffffffffffffffffffffffffffff1663b12e4410886040518263ffffffff167c0100000000000000000000000000000000000000000000000000000000028152600401808260001916600019168152602001915050602060405180830381600087803b15801561414957600080fd5b505af115801561415d573d6000803e3d6000fd5b505050506040513d602081101561417357600080fd5b81019080805190602001909291905050505b600560009054906101000a900473ffffffffffffffffffffffffffffffffffffffff166040518763ffffffff167c01000000000000000000000000000000000000000000000000000000000281526004018087600560200280838360005b838110156141fe5780820151818401526020810190506141e3565b5050505090500186600260200280838360005b8381101561422c578082015181840152602081019050614211565b505050509050018563ffffffff1663ffffffff16815260200184600019166000191681526020018373ffffffffffffffffffffffffffffffffffffffff1673ffffffffffffffffffffffffffffffffffffffff1681526020018273ffffffffffffffffffffffffffffffffffffffff1673ffffffffffffffffffffffffffffffffffffffff168152602001965050505050505060006040518083038186803b1580156142d757600080fd5b505af41580156142eb573d6000803e3d6000fd5b5050505050505050565b6142fd613b8d565b60001916816000191614156144a557600760009054906101000a900473ffffffffffffffffffffffffffffffffffffffff1673ffffffffffffffffffffffffffffffffffffffff1663d0baf2f561438384600160028110151561435c57fe5b602002015186600160058110151561437057fe5b602002015161575790919063ffffffff16565b3386600060058110151561439357fe5b6020020151856143d28860016002811015156143ab57fe5b60200201518a60016005811015156143bf57fe5b602002015161575790919063ffffffff16565b8960026005811015156143e157fe5b60200201516040518763ffffffff167c0100000000000000000000000000000000000000000000000000000000028152600401808673ffffffffffffffffffffffffffffffffffffffff1673ffffffffffffffffffffffffffffffffffffffff1681526020018581526020018460001916600019168152602001838152602001828152602001955050505050506000604051808303818588803b15801561448757600080fd5b505af115801561449b573d6000803e3d6000fd5b5050505050614817565b600860009054906101000a900473ffffffffffffffffffffffffffffffffffffffff1673ffffffffffffffffffffffffffffffffffffffff1663b12e4410826040518263ffffffff167c0100000000000000000000000000000000000000000000000000000000028152600401808260001916600019168152602001915050602060405180830381600087803b15801561453e57600080fd5b505af1158015614552573d6000803e3d6000fd5b505050506040513d602081101561456857600080fd5b810190808051906020019092919050505073ffffffffffffffffffffffffffffffffffffffff1663a9059cbb600760009054906101000a900473ffffffffffffffffffffffffffffffffffffffff166145f08560016002811015156145c957fe5b60200201518760016005811015156145dd57fe5b602002015161575790919063ffffffff16565b6040518363ffffffff167c0100000000000000000000000000000000000000000000000000000000028152600401808373ffffffffffffffffffffffffffffffffffffffff1673ffffffffffffffffffffffffffffffffffffffff16815260200182815260200192505050602060405180830381600087803b15801561467557600080fd5b505af1158015614689573d6000803e3d6000fd5b505050506040513d602081101561469f57600080fd5b810190808051906020019092919050505015156146bb57600080fd5b600760009054906101000a900473ffffffffffffffffffffffffffffffffffffffff1673ffffffffffffffffffffffffffffffffffffffff1663d0baf2f53385600060058110151561470957fe5b60200201518461474887600160028110151561472157fe5b602002015189600160058110151561473557fe5b602002015161575790919063ffffffff16565b88600260058110151561475757fe5b60200201516040518663ffffffff167c0100000000000000000000000000000000000000000000000000000000028152600401808673ffffffffffffffffffffffffffffffffffffffff1673ffffffffffffffffffffffffffffffffffffffff168152602001858152602001846000191660001916815260200183815260200182815260200195505050505050600060405180830381600087803b1580156147fe57600080fd5b505af1158015614812573d6000803e3d6000fd5b505050505b505050565b61483081600061577890919063ffffffff16565b8073ffffffffffffffffffffffffffffffffffffffff167fa3b62bc36326052d97ea62d63c3d60308ed4c3ea8ac079dd8499f1e9c4f80c0f60405160405180910390a250565b60008073ffffffffffffffffffffffffffffffffffffffff168273ffffffffffffffffffffffffffffffffffffffff16141515156148b357600080fd5b8260000160008373ffffffffffffffffffffffffffffffffffffffff1673ffffffffffffffffffffffffffffffffffffffff16815260200190815260200160002060009054906101000a900460ff16905092915050565b61491e81600161582790919063ffffffff16565b8073ffffffffffffffffffffffffffffffffffffffff167f941e31c3e651de34a7fcf0132d9d02c2df9377e6b5f932bec5daf6353c94f90e60405160405180910390a250565b61497881600061582790919063ffffffff16565b8073ffffffffffffffffffffffffffffffffffffffff167f44d6d25963f097ad14f29f06854a01f575648a1ef82f30e562ccd3889717e33960405160405180910390a250565b6149c66158d7565b600860009054906101000a900473ffffffffffffffffffffffffffffffffffffffff1673ffffffffffffffffffffffffffffffffffffffff16638eaa6ac0836040518263ffffffff167c0100000000000000000000000000000000000000000000000000000000028152600401808260001916600019168152602001915050602060405180830381600087803b158015614a5f57600080fd5b505af1158015614a73573d6000803e3d6000fd5b505050506040513d6020811015614a8957600080fd5b8101908080519060200190929190505050816000600581101515614aa957fe5b602002018181525050600954816001600581101515614ac457fe5b602002018181525050600560009054906101000a900473ffffffffffffffffffffffffffffffffffffffff1673ffffffffffffffffffffffffffffffffffffffff1663313ce5676040518163ffffffff167c0100000000000000000000000000000000000000000000000000000000028152600401602060405180830381600087803b158015614b5357600080fd5b505af1158015614b67573d6000803e3d6000fd5b505050506040513d6020811015614b7d57600080fd5b810190808051906020019092919050505060ff16816002600581101515614ba057fe5b6020020181815250508160001916614bb6613b8d565b6000191614614d3957600860009054906101000a900473ffffffffffffffffffffffffffffffffffffffff1673ffffffffffffffffffffffffffffffffffffffff1663b12e4410836040518263ffffffff167c0100000000000000000000000000000000000000000000000000000000028152600401808260001916600019168152602001915050602060405180830381600087803b158015614c5857600080fd5b505af1158015614c6c573d6000803e3d6000fd5b505050506040513d6020811015614c8257600080fd5b810190808051906020019092919050505073ffffffffffffffffffffffffffffffffffffffff1663313ce5676040518163ffffffff167c0100000000000000000000000000000000000000000000000000000000028152600401602060405180830381600087803b158015614cf657600080fd5b505af1158015614d0a573d6000803e3d6000fd5b505050506040513d6020811015614d2057600080fd5b810190808051906020019092919050505060ff16614d3c565b60125b816003600581101515614d4b57fe5b602002018181525050600560009054906101000a900473ffffffffffffffffffffffffffffffffffffffff1673ffffffffffffffffffffffffffffffffffffffff166370a08231306040518263ffffffff167c0100000000000000000000000000000000000000000000000000000000028152600401808273ffffffffffffffffffffffffffffffffffffffff1673ffffffffffffffffffffffffffffffffffffffff168152602001915050602060405180830381600087803b158015614e1157600080fd5b505af1158015614e25573d6000803e3d6000fd5b505050506040513d6020811015614e3b57600080fd5b8101908080519060200190929190505050816004600581101515614e5b57fe5b602002018181525050919050565b614e7d81600161577890919063ffffffff16565b8073ffffffffffffffffffffffffffffffffffffffff167fa3bfdef3d8149bacf15b7b64199fca8228c0fd4f8fcdd11cc7871829baf319c360405160405180910390a250565b73__Crowdsale_____________________________63ae1c60546011601285856040518563ffffffff167c01000000000000000000000000000000000000000000000000000000000281526004018085815260200184815260200180602001806020018381038352858181518152602001915080516000925b81841015614f8757828490602001906020020151600660200280838360005b83811015614f76578082015181840152602081019050614f5b565b505050509050019260010192614f3c565b92505050838103825284818151815260200191508051906020019060200280838360005b83811015614fc6578082015181840152602081019050614fab565b50505050905001965050505050505060006040518083038186803b158015614fed57600080fd5b505af4158015615001573d6000803e3d6000fd5b505050507f743961f4e677d1146fbf85d75565b1c5474fd083eb166f8b9595cf5d01a4d6e660405160405180910390a15050565b73__Crowdsale_____________________________63e1231f1e601160128686866040518663ffffffff167c0100000000000000000000000000000000000000000000000000000000028152600401808681526020018581526020018060200180602001806020018481038452878181518152602001915080516000925b818410156150fe57828490602001906020020151600460200280838360005b838110156150ed5780820151818401526020810190506150d2565b5050505090500192600101926150b3565b92505050848103835286818151815260200191508051906020019060200280838360005b8381101561513d578082015181840152602081019050615122565b50505050905001848103825285818151815260200191508051906020019080838360005b8381101561517c578082015181840152602081019050615161565b50505050905090810190601f1680156151a95780820380516001836020036101000a031916815260200191505b509850505050505050505060006040518083038186803b1580156151cc57600080fd5b505af41580156151e0573d6000803e3d6000fd5b505050507f56d9a2e016027a3725bf162ef2779c8b28d4dbec97c679cfba02dbb31a34c7ca60405160405180910390a1505050565b60008211151561522457600080fd5b600073ffffffffffffffffffffffffffffffffffffffff168173ffffffffffffffffffffffffffffffffffffffff161415151561526057600080fd5b8160098190555080600c60006101000a81548173ffffffffffffffffffffffffffffffffffffffff021916908373ffffffffffffffffffffffffffffffffffffffff1602179055505050565b6152b46158d7565b600860009054906101000a900473ffffffffffffffffffffffffffffffffffffffff1673ffffffffffffffffffffffffffffffffffffffff16638eaa6ac0836040518263ffffffff167c0100000000000000000000000000000000000000000000000000000000028152600401808260001916600019168152602001915050602060405180830381600087803b15801561534d57600080fd5b505af1158015615361573d6000803e3d6000fd5b505050506040513d602081101561537757600080fd5b810190808051906020019092919050505081600060058110151561539757fe5b6020020181815250506009548160016005811015156153b257fe5b602002018181525050600560009054906101000a900473ffffffffffffffffffffffffffffffffffffffff1673ffffffffffffffffffffffffffffffffffffffff1663313ce5676040518163ffffffff167c0100000000000000000000000000000000000000000000000000000000028152600401602060405180830381600087803b15801561544157600080fd5b505af1158015615455573d6000803e3d6000fd5b505050506040513d602081101561546b57600080fd5b810190808051906020019092919050505060ff1681600260058110151561548e57fe5b60200201818152505081600019166154a4613b8d565b600019161461562757600860009054906101000a900473ffffffffffffffffffffffffffffffffffffffff1673ffffffffffffffffffffffffffffffffffffffff1663b12e4410836040518263ffffffff167c0100000000000000000000000000000000000000000000000000000000028152600401808260001916600019168152602001915050602060405180830381600087803b15801561554657600080fd5b505af115801561555a573d6000803e3d6000fd5b505050506040513d602081101561557057600080fd5b810190808051906020019092919050505073ffffffffffffffffffffffffffffffffffffffff1663313ce5676040518163ffffffff167c0100000000000000000000000000000000000000000000000000000000028152600401602060405180830381600087803b1580156155e457600080fd5b505af11580156155f8573d6000803e3d6000fd5b505050506040513d602081101561560e57600080fd5b810190808051906020019092919050505060ff1661562a565b60125b81600360058110151561563957fe5b602002018181525050600560009054906101000a900473ffffffffffffffffffffffffffffffffffffffff1673ffffffffffffffffffffffffffffffffffffffff166370a08231306040518263ffffffff167c0100000000000000000000000000000000000000000000000000000000028152600401808273ffffffffffffffffffffffffffffffffffffffff1673ffffffffffffffffffffffffffffffffffffffff168152602001915050602060405180830381600087803b1580156156ff57600080fd5b505af1158015615713573d6000803e3d6000fd5b505050506040513d602081101561572957600080fd5b810190808051906020019092919050505081600460058110151561574957fe5b602002018181525050919050565b60008083831115151561576957600080fd5b82840390508091505092915050565b600073ffffffffffffffffffffffffffffffffffffffff168173ffffffffffffffffffffffffffffffffffffffff16141515156157b457600080fd5b6157be8282614876565b15156157c957600080fd5b60008260000160008373ffffffffffffffffffffffffffffffffffffffff1673ffffffffffffffffffffffffffffffffffffffff16815260200190815260200160002060006101000a81548160ff0219169083151502179055505050565b600073ffffffffffffffffffffffffffffffffffffffff168173ffffffffffffffffffffffffffffffffffffffff161415151561586357600080fd5b61586d8282614876565b15151561587957600080fd5b60018260000160008373ffffffffffffffffffffffffffffffffffffffff1673ffffffffffffffffffffffffffffffffffffffff16815260200190815260200160002060006101000a81548160ff0219169083151502179055505050565b60a060405190810160405280600590602082028038833980820191505090505090565b6040805190810160405280600290602082028038833980820191505090505090565b6080604051908101604052806004906020820280388339808201915050905050905600a165627a7a723058203acc5be8c50e2c954986a191faa2ea2e01eb7148d53b0e3955f1d6fb25005cda0029",
  "source": "pragma solidity 0.4.24;\n\nimport \"../../rates/IRates.sol\";\nimport \"../../crowdsale/W12Crowdsale.sol\";\n\n\ncontract W12CrowdsaleStub is W12Crowdsale {\n    constructor (\n        uint version,\n        address _originToken,\n        address _token,\n        uint _price,\n        address _serviceWallet,\n        address _swap,\n        uint _serviceFee,\n        uint _WTokenSaleFeePercent,\n        IW12Fund _fund,\n        IRates _rates\n    )\n        W12Crowdsale(\n            version,\n            _originToken,\n             _token,\n             _price,\n             _serviceWallet,\n             _swap,\n             _serviceFee,\n            _WTokenSaleFeePercent,\n             _fund,\n            _rates\n        ) public\n    {}\n\n    function _outTokens(address to, uint amount) external returns (bool) {\n        return token.transfer(to, amount);\n    }\n\n    function _outEther(address to) external {\n        return to.transfer(address(this).balance);\n    }\n\n    function _setState(uint _WTokenSaleFeePercent) external {\n        WTokenSaleFeePercent = _WTokenSaleFeePercent;\n    }\n\n    modifier onlyAdmin {\n        _;\n    }\n\n    modifier onlyProjectOwner {\n        _;\n    }\n}\n",
  "sourcePath": "/Users/gauss/_games/w12/W12-Product-Blockchain-Protocol/contracts/mocks/crowdsale/W12CrowdsaleStub.sol",
  "compiler": {
    "name": "solc",
    "version": "0.4.24+commit.e67f0147.Emscripten.clang"
  },
  "schemaVersion": "3.0.10",
  "updatedAt": "2019-06-17T16:23:09.152Z",
  "devdoc": {
    "methods": {
      "getCurrentMilestoneIndex()": {
        "details": "Returns index of active milestone or last milestone"
      },
      "primary()": {
        "return": "the address of the primary."
      },
      "setup(uint256[6][],uint256[],uint256[4][],uint32[],bytes,bytes32[])": {
        "details": "Setup all crowdsale parameters at a time"
      },
      "transferPrimary(address)": {
        "details": "Transfers contract to a new primary.",
        "params": {
          "recipient": "The address of new primary. "
        }
      }
    }
  },
  "userdoc": {
    "methods": {}
  }
}