{
  "contractName": "W12Fund",
  "abi": [
    {
      "constant": true,
      "inputs": [],
      "name": "wToken",
      "outputs": [
        {
          "name": "",
          "type": "address"
        }
      ],
      "payable": false,
      "stateMutability": "view",
      "type": "function"
    },
    {
      "constant": false,
      "inputs": [
        {
          "name": "recipient",
          "type": "address"
        }
      ],
      "name": "transferPrimary",
      "outputs": [],
      "payable": false,
      "stateMutability": "nonpayable",
      "type": "function"
    },
    {
      "constant": true,
      "inputs": [
        {
          "name": "account",
          "type": "address"
        }
      ],
      "name": "isAdmin",
      "outputs": [
        {
          "name": "",
          "type": "bool"
        }
      ],
      "payable": false,
      "stateMutability": "view",
      "type": "function"
    },
    {
      "constant": true,
      "inputs": [],
      "name": "rates",
      "outputs": [
        {
          "name": "",
          "type": "address"
        }
      ],
      "payable": false,
      "stateMutability": "view",
      "type": "function"
    },
    {
      "constant": true,
      "inputs": [],
      "name": "version",
      "outputs": [
        {
          "name": "",
          "type": "uint256"
        }
      ],
      "payable": false,
      "stateMutability": "view",
      "type": "function"
    },
    {
      "constant": true,
      "inputs": [],
      "name": "serviceWallet",
      "outputs": [
        {
          "name": "",
          "type": "address"
        }
      ],
      "payable": false,
      "stateMutability": "view",
      "type": "function"
    },
    {
      "constant": true,
      "inputs": [],
      "name": "swap",
      "outputs": [
        {
          "name": "",
          "type": "address"
        }
      ],
      "payable": false,
      "stateMutability": "view",
      "type": "function"
    },
    {
      "constant": false,
      "inputs": [],
      "name": "renounceAdmin",
      "outputs": [],
      "payable": false,
      "stateMutability": "nonpayable",
      "type": "function"
    },
    {
      "constant": true,
      "inputs": [],
      "name": "crowdsale",
      "outputs": [
        {
          "name": "",
          "type": "address"
        }
      ],
      "payable": false,
      "stateMutability": "view",
      "type": "function"
    },
    {
      "constant": true,
      "inputs": [],
      "name": "trancheFeePercent",
      "outputs": [
        {
          "name": "",
          "type": "uint256"
        }
      ],
      "payable": false,
      "stateMutability": "view",
      "type": "function"
    },
    {
      "constant": true,
      "inputs": [],
      "name": "primary",
      "outputs": [
        {
          "name": "",
          "type": "address"
        }
      ],
      "payable": false,
      "stateMutability": "view",
      "type": "function"
    },
    {
      "constant": false,
      "inputs": [],
      "name": "renounceProjectOwner",
      "outputs": [],
      "payable": false,
      "stateMutability": "nonpayable",
      "type": "function"
    },
    {
      "constant": true,
      "inputs": [
        {
          "name": "account",
          "type": "address"
        }
      ],
      "name": "isProjectOwner",
      "outputs": [
        {
          "name": "",
          "type": "bool"
        }
      ],
      "payable": false,
      "stateMutability": "view",
      "type": "function"
    },
    {
      "inputs": [
        {
          "name": "version",
          "type": "uint256"
        },
        {
          "name": "_trancheFeePercent",
          "type": "uint256"
        },
        {
          "name": "_rates",
          "type": "address"
        }
      ],
      "payable": false,
      "stateMutability": "nonpayable",
      "type": "constructor"
    },
    {
      "anonymous": false,
      "inputs": [
        {
          "indexed": true,
          "name": "investor",
          "type": "address"
        },
        {
          "indexed": false,
          "name": "tokenAmount",
          "type": "uint256"
        },
        {
          "indexed": false,
          "name": "symbol",
          "type": "bytes32"
        },
        {
          "indexed": false,
          "name": "cost",
          "type": "uint256"
        }
      ],
      "name": "FundsReceived",
      "type": "event"
    },
    {
      "anonymous": false,
      "inputs": [
        {
          "indexed": true,
          "name": "investor",
          "type": "address"
        },
        {
          "indexed": false,
          "name": "symbol",
          "type": "bytes32"
        },
        {
          "indexed": false,
          "name": "amount",
          "type": "uint256"
        }
      ],
      "name": "AssetRefunded",
      "type": "event"
    },
    {
      "anonymous": false,
      "inputs": [
        {
          "indexed": true,
          "name": "investor",
          "type": "address"
        },
        {
          "indexed": false,
          "name": "tokenAmount",
          "type": "uint256"
        }
      ],
      "name": "TokenRefunded",
      "type": "event"
    },
    {
      "anonymous": false,
      "inputs": [
        {
          "indexed": true,
          "name": "receiver",
          "type": "address"
        },
        {
          "indexed": false,
          "name": "symbol",
          "type": "bytes32"
        },
        {
          "indexed": false,
          "name": "amount",
          "type": "uint256"
        }
      ],
      "name": "TrancheTransferred",
      "type": "event"
    },
    {
      "anonymous": false,
      "inputs": [
        {
          "indexed": true,
          "name": "receiver",
          "type": "address"
        },
        {
          "indexed": false,
          "name": "percent",
          "type": "uint256"
        }
      ],
      "name": "TrancheReleased",
      "type": "event"
    },
    {
      "anonymous": false,
      "inputs": [
        {
          "indexed": false,
          "name": "recipient",
          "type": "address"
        }
      ],
      "name": "PrimaryTransferred",
      "type": "event"
    },
    {
      "anonymous": false,
      "inputs": [
        {
          "indexed": true,
          "name": "account",
          "type": "address"
        }
      ],
      "name": "ProjectOwnerAdded",
      "type": "event"
    },
    {
      "anonymous": false,
      "inputs": [
        {
          "indexed": true,
          "name": "account",
          "type": "address"
        }
      ],
      "name": "ProjectOwnerRemoved",
      "type": "event"
    },
    {
      "anonymous": false,
      "inputs": [
        {
          "indexed": true,
          "name": "account",
          "type": "address"
        }
      ],
      "name": "AdminAdded",
      "type": "event"
    },
    {
      "anonymous": false,
      "inputs": [
        {
          "indexed": true,
          "name": "account",
          "type": "address"
        }
      ],
      "name": "AdminRemoved",
      "type": "event"
    },
    {
      "constant": false,
      "inputs": [
        {
          "name": "_crowdsale",
          "type": "address"
        }
      ],
      "name": "setCrowdsale",
      "outputs": [],
      "payable": false,
      "stateMutability": "nonpayable",
      "type": "function"
    },
    {
      "constant": false,
      "inputs": [
        {
          "name": "_swap",
          "type": "address"
        }
      ],
      "name": "setSwap",
      "outputs": [],
      "payable": false,
      "stateMutability": "nonpayable",
      "type": "function"
    },
    {
      "constant": false,
      "inputs": [
        {
          "name": "_serviceWallet",
          "type": "address"
        }
      ],
      "name": "setServiceWallet",
      "outputs": [],
      "payable": false,
      "stateMutability": "nonpayable",
      "type": "function"
    },
    {
      "constant": false,
      "inputs": [
        {
          "name": "investor",
          "type": "address"
        },
        {
          "name": "tokenAmount",
          "type": "uint256"
        },
        {
          "name": "symbol",
          "type": "bytes32"
        },
        {
          "name": "cost",
          "type": "uint256"
        },
        {
          "name": "costUSD",
          "type": "uint256"
        }
      ],
      "name": "recordPurchase",
      "outputs": [],
      "payable": true,
      "stateMutability": "payable",
      "type": "function"
    },
    {
      "constant": false,
      "inputs": [],
      "name": "tranche",
      "outputs": [],
      "payable": false,
      "stateMutability": "nonpayable",
      "type": "function"
    },
    {
      "constant": false,
      "inputs": [
        {
          "name": "tokenAmount",
          "type": "uint256"
        }
      ],
      "name": "refund",
      "outputs": [],
      "payable": false,
      "stateMutability": "nonpayable",
      "type": "function"
    },
    {
      "constant": false,
      "inputs": [
        {
          "name": "_account",
          "type": "address"
        }
      ],
      "name": "addAdmin",
      "outputs": [],
      "payable": false,
      "stateMutability": "nonpayable",
      "type": "function"
    },
    {
      "constant": false,
      "inputs": [
        {
          "name": "_account",
          "type": "address"
        }
      ],
      "name": "removeAdmin",
      "outputs": [],
      "payable": false,
      "stateMutability": "nonpayable",
      "type": "function"
    },
    {
      "constant": false,
      "inputs": [
        {
          "name": "_account",
          "type": "address"
        }
      ],
      "name": "addProjectOwner",
      "outputs": [],
      "payable": false,
      "stateMutability": "nonpayable",
      "type": "function"
    },
    {
      "constant": false,
      "inputs": [
        {
          "name": "_account",
          "type": "address"
        }
      ],
      "name": "removeProjectOwner",
      "outputs": [],
      "payable": false,
      "stateMutability": "nonpayable",
      "type": "function"
    },
    {
      "constant": true,
      "inputs": [],
      "name": "totalTranchePercentReleased",
      "outputs": [
        {
          "name": "",
          "type": "uint256"
        }
      ],
      "payable": false,
      "stateMutability": "view",
      "type": "function"
    },
    {
      "constant": true,
      "inputs": [
        {
          "name": "milestoneIndex",
          "type": "uint256"
        }
      ],
      "name": "completedTranches",
      "outputs": [
        {
          "name": "",
          "type": "bool"
        }
      ],
      "payable": false,
      "stateMutability": "view",
      "type": "function"
    },
    {
      "constant": true,
      "inputs": [],
      "name": "totalTokenBought",
      "outputs": [
        {
          "name": "",
          "type": "uint256"
        }
      ],
      "payable": false,
      "stateMutability": "view",
      "type": "function"
    },
    {
      "constant": true,
      "inputs": [],
      "name": "totalTokenRefunded",
      "outputs": [
        {
          "name": "",
          "type": "uint256"
        }
      ],
      "payable": false,
      "stateMutability": "view",
      "type": "function"
    },
    {
      "constant": true,
      "inputs": [
        {
          "name": "_investor",
          "type": "address"
        },
        {
          "name": "_symbol",
          "type": "bytes32"
        }
      ],
      "name": "getInvestorFundedAmount",
      "outputs": [
        {
          "name": "",
          "type": "uint256"
        }
      ],
      "payable": false,
      "stateMutability": "view",
      "type": "function"
    },
    {
      "constant": true,
      "inputs": [
        {
          "name": "_investor",
          "type": "address"
        }
      ],
      "name": "getInvestorFundedAssetsSymbols",
      "outputs": [
        {
          "name": "",
          "type": "bytes32[]"
        }
      ],
      "payable": false,
      "stateMutability": "view",
      "type": "function"
    },
    {
      "constant": true,
      "inputs": [
        {
          "name": "_investor",
          "type": "address"
        }
      ],
      "name": "getInvestorTokenBoughtAmount",
      "outputs": [
        {
          "name": "",
          "type": "uint256"
        }
      ],
      "payable": false,
      "stateMutability": "view",
      "type": "function"
    },
    {
      "constant": true,
      "inputs": [
        {
          "name": "_symbol",
          "type": "bytes32"
        }
      ],
      "name": "getTotalFundedAmount",
      "outputs": [
        {
          "name": "",
          "type": "uint256"
        }
      ],
      "payable": false,
      "stateMutability": "view",
      "type": "function"
    },
    {
      "constant": true,
      "inputs": [],
      "name": "getTotalFundedAssetsSymbols",
      "outputs": [
        {
          "name": "",
          "type": "bytes32[]"
        }
      ],
      "payable": false,
      "stateMutability": "view",
      "type": "function"
    },
    {
      "constant": true,
      "inputs": [
        {
          "name": "_symbol",
          "type": "bytes32"
        }
      ],
      "name": "getTotalFundedReleased",
      "outputs": [
        {
          "name": "",
          "type": "uint256"
        }
      ],
      "payable": false,
      "stateMutability": "view",
      "type": "function"
    },
    {
      "constant": true,
      "inputs": [],
      "name": "getTrancheInvoice",
      "outputs": [
        {
          "name": "result",
          "type": "uint256[3]"
        }
      ],
      "payable": false,
      "stateMutability": "view",
      "type": "function"
    },
    {
      "constant": true,
      "inputs": [],
      "name": "tokenRefundAllowed",
      "outputs": [
        {
          "name": "",
          "type": "bool"
        }
      ],
      "payable": false,
      "stateMutability": "view",
      "type": "function"
    },
    {
      "constant": true,
      "inputs": [],
      "name": "trancheTransferAllowed",
      "outputs": [
        {
          "name": "",
          "type": "bool"
        }
      ],
      "payable": false,
      "stateMutability": "view",
      "type": "function"
    },
    {
      "constant": true,
      "inputs": [],
      "name": "isWithdrawalWindowActive",
      "outputs": [
        {
          "name": "",
          "type": "bool"
        }
      ],
      "payable": false,
      "stateMutability": "view",
      "type": "function"
    }
  ],
  "bytecode": "0x60806040523480156200001157600080fd5b50604051606080620033e483398101806040528101908080519060200190929190805190602001909291908051906020019092919050505082620000643362000350640100000000026401000000009004565b6200007e33620003ba640100000000026401000000009004565b806002819055505033600360006101000a81548173ffffffffffffffffffffffffffffffffffffffff021916908373ffffffffffffffffffffffffffffffffffffffff1602179055507f4101e71e974f68df5e9730cc223280b41654676bbb052cdcc735c3337e64d2d9600360009054906101000a900473ffffffffffffffffffffffffffffffffffffffff16604051808273ffffffffffffffffffffffffffffffffffffffff1673ffffffffffffffffffffffffffffffffffffffff16815260200191505060405180910390a160016004819055508173__Percent_______________________________63520b006690916040518263ffffffff167c01000000000000000000000000000000000000000000000000000000000281526004018082815260200191505060206040518083038186803b158015620001c257600080fd5b505af4158015620001d7573d6000803e3d6000fd5b505050506040513d6020811015620001ee57600080fd5b81019080805190602001909291905050508015620002b6575060648273__Percent_______________________________630fe9114790916040518263ffffffff167c01000000000000000000000000000000000000000000000000000000000281526004018082815260200191505060206040518083038186803b1580156200027757600080fd5b505af41580156200028c573d6000803e3d6000fd5b505050506040513d6020811015620002a357600080fd5b8101908080519060200190929190505050105b1515620002c257600080fd5b600073ffffffffffffffffffffffffffffffffffffffff168173ffffffffffffffffffffffffffffffffffffffff1614151515620002ff57600080fd5b81600a8190555080600760006101000a81548173ffffffffffffffffffffffffffffffffffffffff021916908373ffffffffffffffffffffffffffffffffffffffff1602179055505050506200057c565b62000374816000620004246401000000000262002d59179091906401000000009004565b8073ffffffffffffffffffffffffffffffffffffffff167f44d6d25963f097ad14f29f06854a01f575648a1ef82f30e562ccd3889717e33960405160405180910390a250565b620003de816001620004246401000000000262002d59179091906401000000009004565b8073ffffffffffffffffffffffffffffffffffffffff167f941e31c3e651de34a7fcf0132d9d02c2df9377e6b5f932bec5daf6353c94f90e60405160405180910390a250565b600073ffffffffffffffffffffffffffffffffffffffff168173ffffffffffffffffffffffffffffffffffffffff16141515156200046157600080fd5b6200047c8282620004e7640100000000026401000000009004565b1515156200048957600080fd5b60018260000160008373ffffffffffffffffffffffffffffffffffffffff1673ffffffffffffffffffffffffffffffffffffffff16815260200190815260200160002060006101000a81548160ff0219169083151502179055505050565b60008073ffffffffffffffffffffffffffffffffffffffff168273ffffffffffffffffffffffffffffffffffffffff16141515156200052557600080fd5b8260000160008373ffffffffffffffffffffffffffffffffffffffff1673ffffffffffffffffffffffffffffffffffffffff16815260200190815260200160002060009054906101000a900460ff16905092915050565b612e58806200058c6000396000f3006080604052600436106101cd576000357c0100000000000000000000000000000000000000000000000000000000900463ffffffff168063015dd28c146101d25780630babd8641461023e5780631785f53c1461029557806319ae48ed146102d85780632348238c1461030357806323585f961461034657806323bffccc1461038b57806324d7806c146103ce578063278ecde1146104295780633bcdb1641461045657806343f48fbd14610499578063483a20b2146104f057806354fd4d50146105335780635641f3c31461055e5780636b90d6d2146105b55780636ebc0af1146105e457806370480275146105fb5780637a1c2da31461063e5780638119c065146106835780638429fffe146106da5780638bad0c0a146107095780639124a789146107205780639ab269a6146107775780639c1e03a0146107bc5780639e80baac14610813578063a328665a14610842578063a3b768e11461086d578063acb3c073146108c0578063adb9dd0814610903578063b4105a3e1461099b578063c6dbdf61146109c6578063d0934d6114610a1d578063d0baf2f514610a34578063d155790b14610a96578063d8e9ce6414610ad9578063f206cb6414610b34578063fb2814c414610b99575b600080fd5b3480156101de57600080fd5b506101e7610bc4565b6040518080602001828103825283818151815260200191508051906020019060200280838360005b8381101561022a57808201518184015260208101905061020f565b505050509050019250505060405180910390f35b34801561024a57600080fd5b50610253610ccd565b604051808273ffffffffffffffffffffffffffffffffffffffff1673ffffffffffffffffffffffffffffffffffffffff16815260200191505060405180910390f35b3480156102a157600080fd5b506102d6600480360381019080803573ffffffffffffffffffffffffffffffffffffffff169060200190929190505050610cf3565b005b3480156102e457600080fd5b506102ed610d13565b6040518082815260200191505060405180910390f35b34801561030f57600080fd5b50610344600480360381019080803573ffffffffffffffffffffffffffffffffffffffff169060200190929190505050610d20565b005b34801561035257600080fd5b5061037160048036038101908080359060200190929190505050610e81565b604051808215151515815260200191505060405180910390f35b34801561039757600080fd5b506103cc600480360381019080803573ffffffffffffffffffffffffffffffffffffffff169060200190929190505050610eae565b005b3480156103da57600080fd5b5061040f600480360381019080803573ffffffffffffffffffffffffffffffffffffffff169060200190929190505050610f42565b604051808215151515815260200191505060405180910390f35b34801561043557600080fd5b5061045460048036038101908080359060200190929190505050610f5f565b005b34801561046257600080fd5b50610497600480360381019080803573ffffffffffffffffffffffffffffffffffffffff1690602001909291905050506114b3565b005b3480156104a557600080fd5b506104ae6114d3565b604051808273ffffffffffffffffffffffffffffffffffffffff1673ffffffffffffffffffffffffffffffffffffffff16815260200191505060405180910390f35b3480156104fc57600080fd5b50610531600480360381019080803573ffffffffffffffffffffffffffffffffffffffff1690602001909291905050506114f9565b005b34801561053f57600080fd5b50610548611746565b6040518082815260200191505060405180910390f35b34801561056a57600080fd5b5061057361174c565b604051808273ffffffffffffffffffffffffffffffffffffffff1673ffffffffffffffffffffffffffffffffffffffff16815260200191505060405180910390f35b3480156105c157600080fd5b506105ca611772565b604051808215151515815260200191505060405180910390f35b3480156105f057600080fd5b506105f9611a18565b005b34801561060757600080fd5b5061063c600480360381019080803573ffffffffffffffffffffffffffffffffffffffff169060200190929190505050611c91565b005b34801561064a57600080fd5b5061066d6004803603810190808035600019169060200190929190505050611cb1565b6040518082815260200191505060405180910390f35b34801561068f57600080fd5b50610698611cd9565b604051808273ffffffffffffffffffffffffffffffffffffffff1673ffffffffffffffffffffffffffffffffffffffff16815260200191505060405180910390f35b3480156106e657600080fd5b506106ef611cff565b604051808215151515815260200191505060405180910390f35b34801561071557600080fd5b5061071e611fb1565b005b34801561072c57600080fd5b50610761600480360381019080803573ffffffffffffffffffffffffffffffffffffffff169060200190929190505050611fbc565b6040518082815260200191505060405180910390f35b34801561078357600080fd5b506107a66004803603810190808035600019169060200190929190505050612008565b6040518082815260200191505060405180910390f35b3480156107c857600080fd5b506107d16120cd565b604051808273ffffffffffffffffffffffffffffffffffffffff1673ffffffffffffffffffffffffffffffffffffffff16815260200191505060405180910390f35b34801561081f57600080fd5b506108286120f3565b604051808215151515815260200191505060405180910390f35b34801561084e57600080fd5b506108576121ed565b6040518082815260200191505060405180910390f35b34801561087957600080fd5b506108826121f3565b6040518082600360200280838360005b838110156108ad578082015181840152602081019050610892565b5050505090500191505060405180910390f35b3480156108cc57600080fd5b50610901600480360381019080803573ffffffffffffffffffffffffffffffffffffffff169060200190929190505050612316565b005b34801561090f57600080fd5b50610944600480360381019080803573ffffffffffffffffffffffffffffffffffffffff1690602001909291905050506123aa565b6040518080602001828103825283818151815260200191508051906020019060200280838360005b8381101561098757808201518184015260208101905061096c565b505050509050019250505060405180910390f35b3480156109a757600080fd5b506109b06124f2565b6040518082815260200191505060405180910390f35b3480156109d257600080fd5b506109db6124ff565b604051808273ffffffffffffffffffffffffffffffffffffffff1673ffffffffffffffffffffffffffffffffffffffff16815260200191505060405180910390f35b348015610a2957600080fd5b50610a32612529565b005b610a94600480360381019080803573ffffffffffffffffffffffffffffffffffffffff1690602001909291908035906020019092919080356000191690602001909291908035906020019092919080359060200190929190505050612534565b005b348015610aa257600080fd5b50610ad7600480360381019080803573ffffffffffffffffffffffffffffffffffffffff1690602001909291905050506126cd565b005b348015610ae557600080fd5b50610b1a600480360381019080803573ffffffffffffffffffffffffffffffffffffffff1690602001909291905050506126ed565b604051808215151515815260200191505060405180910390f35b348015610b4057600080fd5b50610b83600480360381019080803573ffffffffffffffffffffffffffffffffffffffff169060200190929190803560001916906020019092919050505061270a565b6040518082815260200191505060405180910390f35b348015610ba557600080fd5b50610bae61280d565b6040518082815260200191505060405180910390f35b6060600b60020173__FundAccount___________________________6320e1e1d190916040518263ffffffff167c01000000000000000000000000000000000000000000000000000000000281526004018082815260200191505060006040518083038186803b158015610c3757600080fd5b505af4158015610c4b573d6000803e3d6000fd5b505050506040513d6000823e3d601f19601f820116820180604052506020811015610c7557600080fd5b810190808051640100000000811115610c8d57600080fd5b82810190506020810184811115610ca357600080fd5b8151856020820283011164010000000082111715610cc057600080fd5b5050929190505050905090565b600660009054906101000a900473ffffffffffffffffffffffffffffffffffffffff1681565b610cfc33610f42565b1515610d0757600080fd5b610d108161281a565b50565b6000600b60010154905090565b600360009054906101000a900473ffffffffffffffffffffffffffffffffffffffff1673ffffffffffffffffffffffffffffffffffffffff163373ffffffffffffffffffffffffffffffffffffffff16141515610d7c57600080fd5b600073ffffffffffffffffffffffffffffffffffffffff168173ffffffffffffffffffffffffffffffffffffffff1614151515610db857600080fd5b80600360006101000a81548173ffffffffffffffffffffffffffffffffffffffff021916908373ffffffffffffffffffffffffffffffffffffffff1602179055507f4101e71e974f68df5e9730cc223280b41654676bbb052cdcc735c3337e64d2d9600360009054906101000a900473ffffffffffffffffffffffffffffffffffffffff16604051808273ffffffffffffffffffffffffffffffffffffffff1673ffffffffffffffffffffffffffffffffffffffff16815260200191505060405180910390a150565b6000600b600001600083815260200190815260200160002060009054906101000a900460ff169050919050565b610eb733610f42565b1515610ec257600080fd5b600073ffffffffffffffffffffffffffffffffffffffff168173ffffffffffffffffffffffffffffffffffffffff1614151515610efe57600080fd5b80600960006101000a81548173ffffffffffffffffffffffffffffffffffffffff021916908373ffffffffffffffffffffffffffffffffffffffff16021790555050565b6000610f5882600061287490919063ffffffff16565b9050919050565b600060016004600082825401925050819055506004549050610f7f611772565b1515610f8a57600080fd5b60008214151515610f9a57600080fd5b81600b60080160003373ffffffffffffffffffffffffffffffffffffffff1673ffffffffffffffffffffffffffffffffffffffff1681526020019081526020016000205410151515610feb57600080fd5b81600660009054906101000a900473ffffffffffffffffffffffffffffffffffffffff1673ffffffffffffffffffffffffffffffffffffffff166370a08231336040518263ffffffff167c0100000000000000000000000000000000000000000000000000000000028152600401808273ffffffffffffffffffffffffffffffffffffffff1673ffffffffffffffffffffffffffffffffffffffff168152602001915050602060405180830381600087803b1580156110a957600080fd5b505af11580156110bd573d6000803e3d6000fd5b505050506040513d60208110156110d357600080fd5b8101908080519060200190929190505050101515156110f157600080fd5b81600660009054906101000a900473ffffffffffffffffffffffffffffffffffffffff1673ffffffffffffffffffffffffffffffffffffffff1663dd62ed3e33306040518363ffffffff167c0100000000000000000000000000000000000000000000000000000000028152600401808373ffffffffffffffffffffffffffffffffffffffff1673ffffffffffffffffffffffffffffffffffffffff1681526020018273ffffffffffffffffffffffffffffffffffffffff1673ffffffffffffffffffffffffffffffffffffffff16815260200192505050602060405180830381600087803b1580156111e357600080fd5b505af11580156111f7573d6000803e3d6000fd5b505050506040513d602081101561120d57600080fd5b81019080805190602001909291905050501015151561122b57600080fd5b61123482612908565b61124c82600b600701546129ed90919063ffffffff16565b600b600701819055506112aa82600b60080160003373ffffffffffffffffffffffffffffffffffffffff1673ffffffffffffffffffffffffffffffffffffffff16815260200190815260200160002054612a0e90919063ffffffff16565b600b60080160003373ffffffffffffffffffffffffffffffffffffffff1673ffffffffffffffffffffffffffffffffffffffff16815260200190815260200160002081905550600660009054906101000a900473ffffffffffffffffffffffffffffffffffffffff1673ffffffffffffffffffffffffffffffffffffffff166323b872dd33600860009054906101000a900473ffffffffffffffffffffffffffffffffffffffff16856040518463ffffffff167c0100000000000000000000000000000000000000000000000000000000028152600401808473ffffffffffffffffffffffffffffffffffffffff1673ffffffffffffffffffffffffffffffffffffffff1681526020018373ffffffffffffffffffffffffffffffffffffffff1673ffffffffffffffffffffffffffffffffffffffff1681526020018281526020019350505050602060405180830381600087803b15801561140b57600080fd5b505af115801561141f573d6000803e3d6000fd5b505050506040513d602081101561143557600080fd5b8101908080519060200190929190505050151561145157600080fd5b3373ffffffffffffffffffffffffffffffffffffffff167fb7feb6c1d7169f40790388a31c0160d8f962a2b6c31970c28bd8cdfefa25ea29836040518082815260200191505060405180910390a2600454811415156114af57600080fd5b5050565b6114bc33610f42565b15156114c757600080fd5b6114d081612a2f565b50565b600760009054906101000a900473ffffffffffffffffffffffffffffffffffffffff1681565b61150233610f42565b151561150d57600080fd5b600073ffffffffffffffffffffffffffffffffffffffff168173ffffffffffffffffffffffffffffffffffffffff161415151561154957600080fd5b600073ffffffffffffffffffffffffffffffffffffffff168173ffffffffffffffffffffffffffffffffffffffff16634090cb646040518163ffffffff167c0100000000000000000000000000000000000000000000000000000000028152600401602060405180830381600087803b1580156115c557600080fd5b505af11580156115d9573d6000803e3d6000fd5b505050506040513d60208110156115ef57600080fd5b810190808051906020019092919050505073ffffffffffffffffffffffffffffffffffffffff161415151561162357600080fd5b80600560006101000a81548173ffffffffffffffffffffffffffffffffffffffff021916908373ffffffffffffffffffffffffffffffffffffffff1602179055508073ffffffffffffffffffffffffffffffffffffffff16634090cb646040518163ffffffff167c0100000000000000000000000000000000000000000000000000000000028152600401602060405180830381600087803b1580156116c857600080fd5b505af11580156116dc573d6000803e3d6000fd5b505050506040513d60208110156116f257600080fd5b8101908080519060200190929190505050600660006101000a81548173ffffffffffffffffffffffffffffffffffffffff021916908373ffffffffffffffffffffffffffffffffffffffff16021790555050565b60025481565b600960009054906101000a900473ffffffffffffffffffffffffffffffffffffffff1681565b600080600080600560009054906101000a900473ffffffffffffffffffffffffffffffffffffffff1673ffffffffffffffffffffffffffffffffffffffff1663d6d65f3d6040518163ffffffff167c01000000000000000000000000000000000000000000000000000000000281526004016040805180830381600087803b1580156117fd57600080fd5b505af1158015611811573d6000803e3d6000fd5b505050506040513d604081101561182757600080fd5b810190808051906020019092919080519060200190929190505050509250600083141561185357611a12565b600560009054906101000a900473ffffffffffffffffffffffffffffffffffffffff1673ffffffffffffffffffffffffffffffffffffffff16632442e1cb846040518263ffffffff167c010000000000000000000000000000000000000000000000000000000002815260040180828152602001915050600060405180830381600087803b1580156118e457600080fd5b505af11580156118f8573d6000803e3d6000fd5b505050506040513d6000823e3d601f19601f8201168201806040525060c081101561192257600080fd5b8101908080519060200190929190805190602001909291908051906020019092919080519060200190929190805164010000000081111561196257600080fd5b8281019050602081018481111561197857600080fd5b815185600182028301116401000000008211171561199557600080fd5b505092919060200180516401000000008111156119b157600080fd5b828101905060208101848111156119c757600080fd5b81518560018202830111640100000000821117156119e457600080fd5b50509291905050505050935050509150428263ffffffff1611158015611a0f57508063ffffffff1642105b93505b50505090565b611a20612e09565b611a29336126ed565b1515611a3457600080fd5b600060016004600082825401925050819055506004549050611a546120f3565b1515611a5f57600080fd5b611a676121f3565b91506000826000600381101515611a7a57fe5b6020020151111515611a8b57600080fd5b6000600b60020173__FundAccount___________________________6320e1e1d190916040518263ffffffff167c01000000000000000000000000000000000000000000000000000000000281526004018082815260200191505060006040518083038186803b158015611afe57600080fd5b505af4158015611b12573d6000803e3d6000fd5b505050506040513d6000823e3d601f19601f820116820180604052506020811015611b3c57600080fd5b810190808051640100000000811115611b5457600080fd5b82810190506020810184811115611b6a57600080fd5b8151856020820283011164010000000082111715611b8757600080fd5b50509291905050505114151515611b9d57600080fd5b6001600b6000016000846002600381101515611bb557fe5b6020020151815260200190815260200160002060006101000a81548160ff021916908315150217905550611c0a826000600381101515611bf157fe5b6020020151600b600101546129ed90919063ffffffff16565b600b60010181905550611c1c82612a89565b3373ffffffffffffffffffffffffffffffffffffffff167f4a966617f50ccad97beb624d8e13820bf2a745e1640fed943858499286fc9829836000600381101515611c6357fe5b60200201516040518082815260200191505060405180910390a260045481141515611c8d57600080fd5b5050565b611c9a33610f42565b1515611ca557600080fd5b611cae81612bf6565b50565b6000600b60050160008360001916600019168152602001908152602001600020549050919050565b600860009054906101000a900473ffffffffffffffffffffffffffffffffffffffff1681565b6000806000806000600560009054906101000a900473ffffffffffffffffffffffffffffffffffffffff1673ffffffffffffffffffffffffffffffffffffffff1663d6d65f3d6040518163ffffffff167c01000000000000000000000000000000000000000000000000000000000281526004016040805180830381600087803b158015611d8c57600080fd5b505af1158015611da0573d6000803e3d6000fd5b505050506040513d6040811015611db657600080fd5b810190808051906020019092919080519060200190929190505050935093506000841480611de2575082155b15611dec57611faa565b600560009054906101000a900473ffffffffffffffffffffffffffffffffffffffff1673ffffffffffffffffffffffffffffffffffffffff16632442e1cb856040518263ffffffff167c010000000000000000000000000000000000000000000000000000000002815260040180828152602001915050600060405180830381600087803b158015611e7d57600080fd5b505af1158015611e91573d6000803e3d6000fd5b505050506040513d6000823e3d601f19601f8201168201806040525060c0811015611ebb57600080fd5b81019080805190602001909291908051906020019092919080519060200190929190805190602001909291908051640100000000811115611efb57600080fd5b82810190506020810184811115611f1157600080fd5b8151856001820283011164010000000082111715611f2e57600080fd5b50509291906020018051640100000000811115611f4a57600080fd5b82810190506020810184811115611f6057600080fd5b8151856001820283011164010000000082111715611f7d57600080fd5b50509291905050505050935050509150428263ffffffff161180611fa757508063ffffffff164210155b94505b5050505090565b611fba3361281a565b565b6000600b60080160008373ffffffffffffffffffffffffffffffffffffffff1673ffffffffffffffffffffffffffffffffffffffff168152602001908152602001600020549050919050565b6000600b60020173__FundAccount___________________________6375dff1389091846040518363ffffffff167c01000000000000000000000000000000000000000000000000000000000281526004018083815260200182600019166000191681526020019250505060206040518083038186803b15801561208b57600080fd5b505af415801561209f573d6000803e3d6000fd5b505050506040513d60208110156120b557600080fd5b81019080805190602001909291905050509050919050565b600560009054906101000a900473ffffffffffffffffffffffffffffffffffffffff1681565b6000806000600560009054906101000a900473ffffffffffffffffffffffffffffffffffffffff1673ffffffffffffffffffffffffffffffffffffffff1663d6d65f3d6040518163ffffffff167c01000000000000000000000000000000000000000000000000000000000281526004016040805180830381600087803b15801561217d57600080fd5b505af1158015612191573d6000803e3d6000fd5b505050506040513d60408110156121a757600080fd5b810190808051906020019092919080519060200190929190505050915091508015156121d2576121e8565b60008214806121e557506121e4611cff565b5b92505b505090565b600a5481565b6121fb612e09565b73__Fund__________________________________63c4466008600b61221f6120f3565b600560009054906101000a900473ffffffffffffffffffffffffffffffffffffffff166040518463ffffffff167c010000000000000000000000000000000000000000000000000000000002815260040180848152602001831515151581526020018273ffffffffffffffffffffffffffffffffffffffff1673ffffffffffffffffffffffffffffffffffffffff168152602001935050505060606040518083038186803b1580156122d057600080fd5b505af41580156122e4573d6000803e3d6000fd5b505050506040513d601f19601f82011682018060405250606081101561230957600080fd5b8101908091905050905090565b61231f33610f42565b151561232a57600080fd5b600073ffffffffffffffffffffffffffffffffffffffff168173ffffffffffffffffffffffffffffffffffffffff161415151561236657600080fd5b80600860006101000a81548173ffffffffffffffffffffffffffffffffffffffff021916908373ffffffffffffffffffffffffffffffffffffffff16021790555050565b6060600b60090160008373ffffffffffffffffffffffffffffffffffffffff1673ffffffffffffffffffffffffffffffffffffffff16815260200190815260200160002073__FundAccount___________________________6320e1e1d190916040518263ffffffff167c01000000000000000000000000000000000000000000000000000000000281526004018082815260200191505060006040518083038186803b15801561245a57600080fd5b505af415801561246e573d6000803e3d6000fd5b505050506040513d6000823e3d601f19601f82011682018060405250602081101561249857600080fd5b8101908080516401000000008111156124b057600080fd5b828101905060208101848111156124c657600080fd5b81518560208202830111640100000000821117156124e357600080fd5b50509291905050509050919050565b6000600b60060154905090565b6000600360009054906101000a900473ffffffffffffffffffffffffffffffffffffffff16905090565b61253233612c50565b565b600560009054906101000a900473ffffffffffffffffffffffffffffffffffffffff1673ffffffffffffffffffffffffffffffffffffffff163373ffffffffffffffffffffffffffffffffffffffff1614151561259057600080fd5b73__Fund__________________________________6346d1230a600b8787878787600760009054906101000a900473ffffffffffffffffffffffffffffffffffffffff166040518863ffffffff167c0100000000000000000000000000000000000000000000000000000000028152600401808881526020018773ffffffffffffffffffffffffffffffffffffffff1673ffffffffffffffffffffffffffffffffffffffff16815260200186815260200185600019166000191681526020018481526020018381526020018273ffffffffffffffffffffffffffffffffffffffff1673ffffffffffffffffffffffffffffffffffffffff16815260200197505050505050505060006040518083038186803b1580156126ae57600080fd5b505af41580156126c2573d6000803e3d6000fd5b505050505050505050565b6126d633610f42565b15156126e157600080fd5b6126ea81612c50565b50565b600061270382600161287490919063ffffffff16565b9050919050565b6000600b60090160008473ffffffffffffffffffffffffffffffffffffffff1673ffffffffffffffffffffffffffffffffffffffff16815260200190815260200160002073__FundAccount___________________________6375dff1389091846040518363ffffffff167c01000000000000000000000000000000000000000000000000000000000281526004018083815260200182600019166000191681526020019250505060206040518083038186803b1580156127ca57600080fd5b505af41580156127de573d6000803e3d6000fd5b505050506040513d60208110156127f457600080fd5b8101908080519060200190929190505050905092915050565b6000600b60070154905090565b61282e816000612caa90919063ffffffff16565b8073ffffffffffffffffffffffffffffffffffffffff167fa3b62bc36326052d97ea62d63c3d60308ed4c3ea8ac079dd8499f1e9c4f80c0f60405160405180910390a250565b60008073ffffffffffffffffffffffffffffffffffffffff168273ffffffffffffffffffffffffffffffffffffffff16141515156128b157600080fd5b8260000160008373ffffffffffffffffffffffffffffffffffffffff1673ffffffffffffffffffffffffffffffffffffffff16815260200190815260200160002060009054906101000a900460ff16905092915050565b73__Fund__________________________________63e0650238600b83600760009054906101000a900473ffffffffffffffffffffffffffffffffffffffff166040518463ffffffff167c0100000000000000000000000000000000000000000000000000000000028152600401808481526020018381526020018273ffffffffffffffffffffffffffffffffffffffff1673ffffffffffffffffffffffffffffffffffffffff168152602001935050505060006040518083038186803b1580156129d257600080fd5b505af41580156129e6573d6000803e3d6000fd5b5050505050565b6000808284019050838110151515612a0457600080fd5b8091505092915050565b600080838311151515612a2057600080fd5b82840390508091505092915050565b612a43816001612d5990919063ffffffff16565b8073ffffffffffffffffffffffffffffffffffffffff167f941e31c3e651de34a7fcf0132d9d02c2df9377e6b5f932bec5daf6353c94f90e60405160405180910390a250565b73__Fund__________________________________6369b3e2d2600b83600a54600960009054906101000a900473ffffffffffffffffffffffffffffffffffffffff16600760009054906101000a900473ffffffffffffffffffffffffffffffffffffffff166040518663ffffffff167c01000000000000000000000000000000000000000000000000000000000281526004018086815260200185600360200280838360005b83811015612b4b578082015181840152602081019050612b30565b505050509050018481526020018373ffffffffffffffffffffffffffffffffffffffff1673ffffffffffffffffffffffffffffffffffffffff1681526020018273ffffffffffffffffffffffffffffffffffffffff1673ffffffffffffffffffffffffffffffffffffffff1681526020019550505050505060006040518083038186803b158015612bdb57600080fd5b505af4158015612bef573d6000803e3d6000fd5b5050505050565b612c0a816000612d5990919063ffffffff16565b8073ffffffffffffffffffffffffffffffffffffffff167f44d6d25963f097ad14f29f06854a01f575648a1ef82f30e562ccd3889717e33960405160405180910390a250565b612c64816001612caa90919063ffffffff16565b8073ffffffffffffffffffffffffffffffffffffffff167fa3bfdef3d8149bacf15b7b64199fca8228c0fd4f8fcdd11cc7871829baf319c360405160405180910390a250565b600073ffffffffffffffffffffffffffffffffffffffff168173ffffffffffffffffffffffffffffffffffffffff1614151515612ce657600080fd5b612cf08282612874565b1515612cfb57600080fd5b60008260000160008373ffffffffffffffffffffffffffffffffffffffff1673ffffffffffffffffffffffffffffffffffffffff16815260200190815260200160002060006101000a81548160ff0219169083151502179055505050565b600073ffffffffffffffffffffffffffffffffffffffff168173ffffffffffffffffffffffffffffffffffffffff1614151515612d9557600080fd5b612d9f8282612874565b151515612dab57600080fd5b60018260000160008373ffffffffffffffffffffffffffffffffffffffff1673ffffffffffffffffffffffffffffffffffffffff16815260200190815260200160002060006101000a81548160ff0219169083151502179055505050565b6060604051908101604052806003906020820280388339808201915050905050905600a165627a7a72305820d6e663bec933a325b3c55a510d0adf0d8668d78cc4e9cc995cbb46f67f80c98b0029",
  "source": "pragma solidity 0.4.24;\n\nimport \"openzeppelin-solidity/contracts/ownership/Secondary.sol\";\nimport \"openzeppelin-solidity/contracts/utils/ReentrancyGuard.sol\";\nimport \"openzeppelin-solidity/contracts/math/SafeMath.sol\";\nimport \"openzeppelin-solidity/contracts/token/ERC20/IERC20.sol\";\nimport \"./IW12Crowdsale.sol\";\nimport \"./IW12Fund.sol\";\nimport \"../rates/IRates.sol\";\nimport \"../libs/Utils.sol\";\nimport \"../libs/Percent.sol\";\nimport \"../libs/FundAccount.sol\";\nimport \"../libs/Fund.sol\";\nimport \"../versioning/Versionable.sol\";\nimport \"../token/IWToken.sol\";\nimport \"../access/roles/AdminRole.sol\";\nimport \"../access/roles/ProjectOwnerRole.sol\";\n\n\ncontract W12Fund is IW12Fund, AdminRole, ProjectOwnerRole, Versionable, Secondary, ReentrancyGuard {\n    using SafeMath for uint;\n    using Percent for uint;\n    using FundAccount for FundAccount.Account;\n\n    bytes32 constant internal METHOD_ETH = bytes32(\"ETH\");\n    bytes32 constant internal METHOD_USD = bytes32(\"USD\");\n\n    IW12Crowdsale public crowdsale;\n    IWToken public wToken;\n    IRates public rates;\n    address public swap;\n    address public serviceWallet;\n    // fee for realised tranche\n    uint public trancheFeePercent;\n\n    Fund.State private state;\n\n    event FundsReceived(address indexed investor, uint tokenAmount, bytes32 symbol, uint cost);\n    event AssetRefunded(address indexed investor, bytes32 symbol, uint amount);\n    event TokenRefunded(address indexed investor, uint tokenAmount);\n    event TrancheTransferred(address indexed receiver, bytes32 symbol, uint amount);\n    event TrancheReleased(address indexed receiver, uint percent);\n\n    constructor(uint version, uint _trancheFeePercent, IRates _rates) public Versionable(version) {\n        require(_trancheFeePercent.isPercent() && _trancheFeePercent.fromPercent() < 100);\n        require(_rates != address(0));\n\n        trancheFeePercent = _trancheFeePercent;\n        rates = _rates;\n    }\n\n    function setCrowdsale(IW12Crowdsale _crowdsale) external onlyAdmin {\n        require(_crowdsale != address(0));\n        require(_crowdsale.getWToken() != address(0));\n\n        crowdsale = _crowdsale;\n        wToken = IWToken(_crowdsale.getWToken());\n    }\n\n    function setSwap(address _swap) external onlyAdmin {\n        require(_swap != address(0));\n\n        swap = _swap;\n    }\n\n    function setServiceWallet(address _serviceWallet) external onlyAdmin {\n        require(_serviceWallet != address(0));\n\n        serviceWallet = _serviceWallet;\n    }\n\n    /**\n     * @dev Record purchase result to the fund and check the fund balance\n     * @param investor An investor address\n     * @param tokenAmount Token amount that was bought\n     * @param symbol Symbol of payment method\n     * @param cost Cost of token amount\n     * @param costUSD Cost in USD\n     */\n    function recordPurchase(\n        address investor,\n        uint tokenAmount,\n        bytes32 symbol,\n        uint cost,\n        uint costUSD\n    )\n        external payable onlyCrowdsale\n    {\n        Fund.recordPurchase(\n            state,\n            investor,\n            tokenAmount,\n            symbol,\n            cost,\n            costUSD,\n            rates\n        );\n    }\n\n    /**\n     * @notice Realise project tranche\n     */\n    function tranche() external onlyProjectOwner nonReentrant {\n        require(trancheTransferAllowed());\n\n        uint[3] memory trancheInvoice = getTrancheInvoice();\n\n        require(trancheInvoice[0] > 0);\n        require(state.totalFunded.symbolsList().length != 0);\n\n        state.completedTranches[trancheInvoice[2]] = true;\n        state.totalTranchePercentReleased = state.totalTranchePercentReleased.add(trancheInvoice[0]);\n\n        _transferTranche(trancheInvoice);\n\n        emit TrancheReleased(msg.sender, trancheInvoice[0]);\n    }\n\n    /**\n     * @notice Refund bought tokens\n     */\n    function refund(uint tokenAmount) external nonReentrant {\n        require(tokenRefundAllowed());\n        require(tokenAmount != 0);\n        require(state.tokenBoughtPerInvestor[msg.sender] >= tokenAmount);\n        require(wToken.balanceOf(msg.sender) >= tokenAmount);\n        require(wToken.allowance(msg.sender, address(this)) >= tokenAmount);\n\n        _refundAssets(tokenAmount);\n\n        state.totalTokenRefunded = state.totalTokenRefunded.add(tokenAmount);\n        state.tokenBoughtPerInvestor[msg.sender] = state.tokenBoughtPerInvestor[msg.sender].sub(tokenAmount);\n\n        require(wToken.transferFrom(msg.sender, swap, tokenAmount));\n\n        emit TokenRefunded(msg.sender, tokenAmount);\n    }\n\n    function addAdmin(address _account) public onlyAdmin {\n        _addAdmin(_account);\n    }\n\n    function removeAdmin(address _account) public onlyAdmin {\n        _removeAdmin(_account);\n    }\n\n    function addProjectOwner(address _account) public onlyAdmin {\n        _addProjectOwner(_account);\n    }\n\n    function removeProjectOwner(address _account) public onlyAdmin {\n        _removeProjectOwner(_account);\n    }\n\n    // total percent of realised project tranche\n    function totalTranchePercentReleased() public view returns (uint) {\n        return state.totalTranchePercentReleased;\n    }\n\n    function completedTranches(uint milestoneIndex) public view returns (bool) {\n        return state.completedTranches[milestoneIndex];\n    }\n\n    // total amount of bought token\n    function totalTokenBought() public view returns (uint) {\n        return state.totalTokenBought;\n    }\n\n    // total amount of refunded token\n    function totalTokenRefunded() public view returns (uint) {\n        return state.totalTokenRefunded;\n    }\n\n    function getInvestorFundedAmount(address _investor, bytes32 _symbol) public view returns(uint) {\n        return state.fundedPerInvestor[_investor].amountOf(_symbol);\n    }\n\n    function getInvestorFundedAssetsSymbols(address _investor) public view returns(bytes32[]) {\n        return state.fundedPerInvestor[_investor].symbolsList();\n    }\n\n    function getInvestorTokenBoughtAmount(address _investor) public view returns (uint) {\n        return state.tokenBoughtPerInvestor[_investor];\n    }\n\n    function getTotalFundedAmount(bytes32 _symbol) public view returns (uint) {\n        return state.totalFunded.amountOf(_symbol);\n    }\n\n    function getTotalFundedAssetsSymbols() public view returns (bytes32[]) {\n        return state.totalFunded.symbolsList();\n    }\n\n    function getTotalFundedReleased(bytes32 _symbol) public view returns (uint) {\n        return state.totalFundedReleased[_symbol];\n    }\n\n    /**\n     * @notice Get tranche invoice\n     * @return uint[3] result:\n     * [tranchePercent, totalTranchePercentBefore, milestoneIndex]\n     */\n    function getTrancheInvoice() public view returns (uint[3] result) {\n        return Fund.getTrancheInvoice(\n            state,\n            trancheTransferAllowed(),\n            crowdsale\n        );\n    }\n\n    function tokenRefundAllowed() public view returns (bool) {\n        (uint index, /* bool found */) = crowdsale.getCurrentMilestoneIndex();\n\n        // first milestone is reserved for the project to claim initial amount of payments.\n        // No refund allowed at this stage.\n        if (index == 0) return;\n\n        (uint32 endDate, , , uint32 withdrawalWindow, ,) = crowdsale.getMilestone(index);\n\n        return endDate <= now && now < withdrawalWindow;\n    }\n\n    function trancheTransferAllowed() public view returns (bool) {\n        (uint index, bool found) = crowdsale.getCurrentMilestoneIndex();\n\n        if (!found) return;\n\n        return index == 0 || isWithdrawalWindowActive();\n    }\n\n    function isWithdrawalWindowActive() public view returns (bool) {\n        (uint index, bool found) = crowdsale.getCurrentMilestoneIndex();\n\n        if (index == 0 || !found) return;\n\n        (uint32 endDate, , , uint32 lastWithdrawalWindow, ,) = crowdsale.getMilestone(index);\n\n        return endDate > now || now >= lastWithdrawalWindow;\n    }\n\n    function _transferTranche(uint[3] _invoice) internal {\n        Fund.transferTranche(\n            state,\n            _invoice,\n            trancheFeePercent,\n            serviceWallet,\n            rates\n        );\n    }\n\n    function _refundAssets(uint tokenAmount) internal {\n        Fund.refundAssets(\n            state,\n            tokenAmount,\n            rates\n        );\n    }\n\n    modifier onlyCrowdsale {\n        require(msg.sender == address(crowdsale));\n        _;\n    }\n}\n",
  "sourcePath": "/Users/gauss/_games/w12/W12-Product-Blockchain-Protocol/contracts/crowdsale/W12Fund.sol",
  "compiler": {
    "name": "solc",
    "version": "0.4.24+commit.e67f0147.Emscripten.clang"
  },
  "schemaVersion": "3.0.10",
  "updatedAt": "2019-06-17T16:23:09.118Z",
  "devdoc": {
    "methods": {
      "getTrancheInvoice()": {
        "return": "uint[3] result: [tranchePercent, totalTranchePercentBefore, milestoneIndex]"
      },
      "primary()": {
        "return": "the address of the primary."
      },
      "recordPurchase(address,uint256,bytes32,uint256,uint256)": {
        "details": "Record purchase result to the fund and check the fund balance",
        "params": {
          "cost": "Cost of token amount",
          "costUSD": "Cost in USD",
          "investor": "An investor address",
          "symbol": "Symbol of payment method",
          "tokenAmount": "Token amount that was bought"
        }
      },
      "transferPrimary(address)": {
        "details": "Transfers contract to a new primary.",
        "params": {
          "recipient": "The address of new primary. "
        }
      }
    }
  },
  "userdoc": {
    "methods": {
      "getTrancheInvoice()": {
        "notice": "Get tranche invoice"
      },
      "refund(uint256)": {
        "notice": "Refund bought tokens"
      },
      "tranche()": {
        "notice": "Realise project tranche"
      }
    }
  }
}