{
  "contractName": "W12FundCrowdsaleStub",
  "abi": [
    {
      "constant": false,
      "inputs": [
        {
          "name": "recipient",
          "type": "address"
        }
      ],
      "name": "transferPrimary",
      "outputs": [],
      "payable": false,
      "stateMutability": "nonpayable",
      "type": "function"
    },
    {
      "constant": true,
      "inputs": [],
      "name": "version",
      "outputs": [
        {
          "name": "",
          "type": "uint256"
        }
      ],
      "payable": false,
      "stateMutability": "view",
      "type": "function"
    },
    {
      "constant": true,
      "inputs": [],
      "name": "primary",
      "outputs": [
        {
          "name": "",
          "type": "address"
        }
      ],
      "payable": false,
      "stateMutability": "view",
      "type": "function"
    },
    {
      "inputs": [
        {
          "name": "version",
          "type": "uint256"
        }
      ],
      "payable": false,
      "stateMutability": "nonpayable",
      "type": "constructor"
    },
    {
      "payable": true,
      "stateMutability": "payable",
      "type": "fallback"
    },
    {
      "anonymous": false,
      "inputs": [
        {
          "indexed": false,
          "name": "recipient",
          "type": "address"
        }
      ],
      "name": "PrimaryTransferred",
      "type": "event"
    },
    {
      "constant": true,
      "inputs": [],
      "name": "getFund",
      "outputs": [
        {
          "name": "",
          "type": "address"
        }
      ],
      "payable": false,
      "stateMutability": "view",
      "type": "function"
    },
    {
      "constant": true,
      "inputs": [
        {
          "name": "account",
          "type": "address"
        }
      ],
      "name": "isAdmin",
      "outputs": [
        {
          "name": "",
          "type": "bool"
        }
      ],
      "payable": false,
      "stateMutability": "view",
      "type": "function"
    },
    {
      "constant": false,
      "inputs": [
        {
          "name": "account",
          "type": "address"
        }
      ],
      "name": "addAdmin",
      "outputs": [],
      "payable": false,
      "stateMutability": "nonpayable",
      "type": "function"
    },
    {
      "constant": false,
      "inputs": [],
      "name": "renounceAdmin",
      "outputs": [],
      "payable": false,
      "stateMutability": "nonpayable",
      "type": "function"
    },
    {
      "constant": false,
      "inputs": [
        {
          "name": "account",
          "type": "address"
        }
      ],
      "name": "removeAdmin",
      "outputs": [],
      "payable": false,
      "stateMutability": "nonpayable",
      "type": "function"
    },
    {
      "constant": true,
      "inputs": [
        {
          "name": "account",
          "type": "address"
        }
      ],
      "name": "isProjectOwner",
      "outputs": [
        {
          "name": "",
          "type": "bool"
        }
      ],
      "payable": false,
      "stateMutability": "view",
      "type": "function"
    },
    {
      "constant": false,
      "inputs": [
        {
          "name": "account",
          "type": "address"
        }
      ],
      "name": "addProjectOwner",
      "outputs": [],
      "payable": false,
      "stateMutability": "nonpayable",
      "type": "function"
    },
    {
      "constant": false,
      "inputs": [],
      "name": "renounceProjectOwner",
      "outputs": [],
      "payable": false,
      "stateMutability": "nonpayable",
      "type": "function"
    },
    {
      "constant": false,
      "inputs": [
        {
          "name": "account",
          "type": "address"
        }
      ],
      "name": "removeProjectOwner",
      "outputs": [],
      "payable": false,
      "stateMutability": "nonpayable",
      "type": "function"
    },
    {
      "constant": false,
      "inputs": [
        {
          "name": "price",
          "type": "uint256"
        }
      ],
      "name": "setParameters",
      "outputs": [],
      "payable": false,
      "stateMutability": "nonpayable",
      "type": "function"
    },
    {
      "constant": false,
      "inputs": [
        {
          "name": "method",
          "type": "bytes32"
        },
        {
          "name": "has",
          "type": "bool"
        },
        {
          "name": "value",
          "type": "uint256"
        }
      ],
      "name": "updatePurchaseFeeParameterForPaymentMethod",
      "outputs": [],
      "payable": false,
      "stateMutability": "nonpayable",
      "type": "function"
    },
    {
      "constant": true,
      "inputs": [
        {
          "name": "method",
          "type": "bytes32"
        }
      ],
      "name": "getPurchaseFeeParameterForPaymentMethod",
      "outputs": [
        {
          "name": "",
          "type": "bool"
        },
        {
          "name": "",
          "type": "uint256"
        }
      ],
      "payable": false,
      "stateMutability": "view",
      "type": "function"
    },
    {
      "constant": true,
      "inputs": [
        {
          "name": "method",
          "type": "bytes32"
        }
      ],
      "name": "getPurchaseFeeForPaymentMethod",
      "outputs": [
        {
          "name": "",
          "type": "uint256"
        }
      ],
      "payable": false,
      "stateMutability": "view",
      "type": "function"
    },
    {
      "constant": false,
      "inputs": [
        {
          "name": "parametersOfStages",
          "type": "uint256[6][]"
        },
        {
          "name": "bonusConditionsOfStages",
          "type": "uint256[]"
        },
        {
          "name": "parametersOfMilestones",
          "type": "uint256[4][]"
        },
        {
          "name": "nameAndDescriptionsOffsetOfMilestones",
          "type": "uint32[]"
        },
        {
          "name": "nameAndDescriptionsOfMilestones",
          "type": "bytes"
        },
        {
          "name": "paymentMethodsList",
          "type": "bytes32[]"
        }
      ],
      "name": "setup",
      "outputs": [],
      "payable": false,
      "stateMutability": "nonpayable",
      "type": "function"
    },
    {
      "constant": true,
      "inputs": [],
      "name": "getWToken",
      "outputs": [
        {
          "name": "",
          "type": "address"
        }
      ],
      "payable": false,
      "stateMutability": "view",
      "type": "function"
    },
    {
      "constant": false,
      "inputs": [
        {
          "name": "a",
          "type": "address"
        }
      ],
      "name": "_getWTokenMockData",
      "outputs": [],
      "payable": false,
      "stateMutability": "nonpayable",
      "type": "function"
    },
    {
      "constant": true,
      "inputs": [
        {
          "name": "index",
          "type": "uint256"
        }
      ],
      "name": "getMilestone",
      "outputs": [
        {
          "name": "",
          "type": "uint32"
        },
        {
          "name": "",
          "type": "uint256"
        },
        {
          "name": "",
          "type": "uint32"
        },
        {
          "name": "",
          "type": "uint32"
        },
        {
          "name": "",
          "type": "bytes"
        },
        {
          "name": "",
          "type": "bytes"
        }
      ],
      "payable": false,
      "stateMutability": "view",
      "type": "function"
    },
    {
      "constant": false,
      "inputs": [
        {
          "name": "idx",
          "type": "uint256"
        },
        {
          "name": "a",
          "type": "uint32"
        },
        {
          "name": "b",
          "type": "uint256"
        },
        {
          "name": "c",
          "type": "uint32"
        },
        {
          "name": "d",
          "type": "uint32"
        },
        {
          "name": "e",
          "type": "bytes"
        },
        {
          "name": "f",
          "type": "bytes"
        }
      ],
      "name": "_getMilestoneMockData",
      "outputs": [],
      "payable": false,
      "stateMutability": "nonpayable",
      "type": "function"
    },
    {
      "constant": true,
      "inputs": [
        {
          "name": "index",
          "type": "uint256"
        }
      ],
      "name": "getStage",
      "outputs": [
        {
          "name": "",
          "type": "uint32"
        },
        {
          "name": "",
          "type": "uint32"
        },
        {
          "name": "",
          "type": "uint256"
        },
        {
          "name": "",
          "type": "uint32"
        },
        {
          "name": "",
          "type": "uint256[]"
        },
        {
          "name": "",
          "type": "uint256[]"
        }
      ],
      "payable": false,
      "stateMutability": "view",
      "type": "function"
    },
    {
      "constant": true,
      "inputs": [],
      "name": "getCurrentMilestoneIndex",
      "outputs": [
        {
          "name": "",
          "type": "uint256"
        },
        {
          "name": "",
          "type": "bool"
        }
      ],
      "payable": false,
      "stateMutability": "view",
      "type": "function"
    },
    {
      "constant": false,
      "inputs": [
        {
          "name": "a",
          "type": "uint256"
        },
        {
          "name": "b",
          "type": "bool"
        }
      ],
      "name": "_getCurrentMilestoneIndexMockData",
      "outputs": [],
      "payable": false,
      "stateMutability": "nonpayable",
      "type": "function"
    },
    {
      "constant": true,
      "inputs": [],
      "name": "getLastMilestoneIndex",
      "outputs": [
        {
          "name": "index",
          "type": "uint256"
        },
        {
          "name": "found",
          "type": "bool"
        }
      ],
      "payable": false,
      "stateMutability": "view",
      "type": "function"
    },
    {
      "constant": false,
      "inputs": [
        {
          "name": "a",
          "type": "uint256"
        },
        {
          "name": "b",
          "type": "bool"
        }
      ],
      "name": "_getLastMilestoneIndexMockData",
      "outputs": [],
      "payable": false,
      "stateMutability": "nonpayable",
      "type": "function"
    },
    {
      "constant": true,
      "inputs": [],
      "name": "milestonesLength",
      "outputs": [
        {
          "name": "",
          "type": "uint256"
        }
      ],
      "payable": false,
      "stateMutability": "view",
      "type": "function"
    },
    {
      "constant": true,
      "inputs": [],
      "name": "getCurrentStageIndex",
      "outputs": [
        {
          "name": "index",
          "type": "uint256"
        },
        {
          "name": "found",
          "type": "bool"
        }
      ],
      "payable": false,
      "stateMutability": "view",
      "type": "function"
    },
    {
      "constant": true,
      "inputs": [
        {
          "name": "value",
          "type": "uint256"
        }
      ],
      "name": "getSaleVolumeBonus",
      "outputs": [
        {
          "name": "bonus",
          "type": "uint256"
        }
      ],
      "payable": false,
      "stateMutability": "view",
      "type": "function"
    },
    {
      "constant": true,
      "inputs": [],
      "name": "isEnded",
      "outputs": [
        {
          "name": "",
          "type": "bool"
        }
      ],
      "payable": false,
      "stateMutability": "view",
      "type": "function"
    },
    {
      "constant": true,
      "inputs": [],
      "name": "isSaleActive",
      "outputs": [
        {
          "name": "",
          "type": "bool"
        }
      ],
      "payable": false,
      "stateMutability": "view",
      "type": "function"
    },
    {
      "constant": false,
      "inputs": [
        {
          "name": "method",
          "type": "bytes32"
        },
        {
          "name": "amount",
          "type": "uint256"
        }
      ],
      "name": "buyTokens",
      "outputs": [],
      "payable": true,
      "stateMutability": "payable",
      "type": "function"
    }
  ],
  "bytecode": "0x608060405234801561001057600080fd5b506040516020806114708339810180604052810190808051906020019092919050505080806000819055505033600160006101000a81548173ffffffffffffffffffffffffffffffffffffffff021916908373ffffffffffffffffffffffffffffffffffffffff1602179055507f4101e71e974f68df5e9730cc223280b41654676bbb052cdcc735c3337e64d2d9600160009054906101000a900473ffffffffffffffffffffffffffffffffffffffff16604051808273ffffffffffffffffffffffffffffffffffffffff1673ffffffffffffffffffffffffffffffffffffffff16815260200191505060405180910390a16001600281905550506113568061011a6000396000f300608060405260043610610196576000357c0100000000000000000000000000000000000000000000000000000000900463ffffffff16806307f5d6331461019857806314f66d34146101c65780631785f53c146101fc578063208853c91461023f5780632348238c146102805780632442e1cb146102c357806324d7806c146104155780632784bb7b146104705780632e325020146104c05780633baba4d7146105ca5780633bcdb164146105f55780633dbd6721146106385780634090cb641461067d57806354fd4d50146106d4578063564566a8146106ff57806359e377491461072e5780637048027514610775578063770bd647146107b8578063820a3435146107f15780638bad0c0a146108885780638edd6eb61461089f578063a4fd6f56146108f6578063c6dbdf6114610925578063d0934d611461097c578063d119d6cd14610993578063d155790b146109d6578063d5b2262314610a19578063d6d65f3d14610acc578063d8e9ce6414610b02578063daa4cf8814610b5d578063e93b054014610b93578063f77e086814610bc0575b005b6101c4600480360381019080803560001916906020019092919080359060200190929190505050610bf9565b005b3480156101d257600080fd5b506101db610bfd565b60405180838152602001821515151581526020019250505060405180910390f35b34801561020857600080fd5b5061023d600480360381019080803573ffffffffffffffffffffffffffffffffffffffff169060200190929190505050610c1b565b005b34801561024b57600080fd5b5061026a60048036038101908080359060200190929190505050610c1e565b6040518082815260200191505060405180910390f35b34801561028c57600080fd5b506102c1600480360381019080803573ffffffffffffffffffffffffffffffffffffffff169060200190929190505050610c25565b005b3480156102cf57600080fd5b506102ee60048036038101908080359060200190929190505050610d86565b604051808763ffffffff1663ffffffff1681526020018681526020018563ffffffff1663ffffffff1681526020018463ffffffff1663ffffffff1681526020018060200180602001838103835285818151815260200191508051906020019080838360005b8381101561036e578082015181840152602081019050610353565b50505050905090810190601f16801561039b5780820380516001836020036101000a031916815260200191505b50838103825284818151815260200191508051906020019080838360005b838110156103d45780820151818401526020810190506103b9565b50505050905090810190601f1680156104015780820380516001836020036101000a031916815260200191505b509850505050505050505060405180910390f35b34801561042157600080fd5b50610456600480360381019080803573ffffffffffffffffffffffffffffffffffffffff169060200190929190505050610f94565b604051808215151515815260200191505060405180910390f35b34801561047c57600080fd5b5061049f6004803603810190808035600019169060200190929190505050610f9b565b60405180831515151581526020018281526020019250505060405180910390f35b3480156104cc57600080fd5b506104eb60048036038101908080359060200190929190505050610fa3565b604051808763ffffffff1663ffffffff1681526020018663ffffffff1663ffffffff1681526020018581526020018463ffffffff1663ffffffff1681526020018060200180602001838103835285818151815260200191508051906020019060200280838360005b8381101561056e578082015181840152602081019050610553565b50505050905001838103825284818151815260200191508051906020019060200280838360005b838110156105b0578082015181840152602081019050610595565b505050509050019850505050505050505060405180910390f35b3480156105d657600080fd5b506105df610fb5565b6040518082815260200191505060405180910390f35b34801561060157600080fd5b50610636600480360381019080803573ffffffffffffffffffffffffffffffffffffffff169060200190929190505050610fba565b005b34801561064457600080fd5b506106676004803603810190808035600019169060200190929190505050610fbd565b6040518082815260200191505060405180910390f35b34801561068957600080fd5b50610692610fc4565b604051808273ffffffffffffffffffffffffffffffffffffffff1673ffffffffffffffffffffffffffffffffffffffff16815260200191505060405180910390f35b3480156106e057600080fd5b506106e9610fee565b6040518082815260200191505060405180910390f35b34801561070b57600080fd5b50610714610ff4565b604051808215151515815260200191505060405180910390f35b34801561073a57600080fd5b50610773600480360381019080803560001916906020019092919080351515906020019092919080359060200190929190505050610ff9565b005b34801561078157600080fd5b506107b6600480360381019080803573ffffffffffffffffffffffffffffffffffffffff169060200190929190505050610ffe565b005b3480156107c457600080fd5b506107ef60048036038101908080359060200190929190803515159060200190929190505050611001565b005b3480156107fd57600080fd5b5061088660048036038101908080359060200190929190803563ffffffff16906020019092919080359060200190929190803563ffffffff169060200190929190803563ffffffff169060200190929190803590602001908201803590602001919091929391929390803590602001908201803590602001919091929391929390505050611026565b005b34801561089457600080fd5b5061089d6111a4565b005b3480156108ab57600080fd5b506108b46111a6565b604051808273ffffffffffffffffffffffffffffffffffffffff1673ffffffffffffffffffffffffffffffffffffffff16815260200191505060405180910390f35b34801561090257600080fd5b5061090b6111ab565b604051808215151515815260200191505060405180910390f35b34801561093157600080fd5b5061093a6111b0565b604051808273ffffffffffffffffffffffffffffffffffffffff1673ffffffffffffffffffffffffffffffffffffffff16815260200191505060405180910390f35b34801561098857600080fd5b506109916111da565b005b34801561099f57600080fd5b506109d4600480360381019080803573ffffffffffffffffffffffffffffffffffffffff1690602001909291905050506111dc565b005b3480156109e257600080fd5b50610a17600480360381019080803573ffffffffffffffffffffffffffffffffffffffff169060200190929190505050611220565b005b348015610a2557600080fd5b50610aca600480360381019080803590602001908201803590602001919091929391929390803590602001908201803590602001919091929391929390803590602001908201803590602001919091929391929390803590602001908201803590602001919091929391929390803590602001908201803590602001919091929391929390803590602001908201803590602001919091929391929390505050611223565b005b348015610ad857600080fd5b50610ae1611231565b60405180838152602001821515151581526020019250505060405180910390f35b348015610b0e57600080fd5b50610b43600480360381019080803573ffffffffffffffffffffffffffffffffffffffff16906020019092919050505061124f565b604051808215151515815260200191505060405180910390f35b348015610b6957600080fd5b50610b72611256565b60405180838152602001821515151581526020019250505060405180910390f35b348015610b9f57600080fd5b50610bbe6004803603810190808035906020019092919050505061125d565b005b348015610bcc57600080fd5b50610bf760048036038101908080359060200190929190803515159060200190929190505050611260565b005b5050565b600080600554600660009054906101000a900460ff16915091509091565b50565b6000919050565b600160009054906101000a900473ffffffffffffffffffffffffffffffffffffffff1673ffffffffffffffffffffffffffffffffffffffff163373ffffffffffffffffffffffffffffffffffffffff16141515610c8157600080fd5b600073ffffffffffffffffffffffffffffffffffffffff168173ffffffffffffffffffffffffffffffffffffffff1614151515610cbd57600080fd5b80600160006101000a81548173ffffffffffffffffffffffffffffffffffffffff021916908373ffffffffffffffffffffffffffffffffffffffff1602179055507f4101e71e974f68df5e9730cc223280b41654676bbb052cdcc735c3337e64d2d9600160009054906101000a900473ffffffffffffffffffffffffffffffffffffffff16604051808273ffffffffffffffffffffffffffffffffffffffff1673ffffffffffffffffffffffffffffffffffffffff16815260200191505060405180910390a150565b6000806000806060806007600088815260200190815260200160002060000160009054906101000a900463ffffffff166007600089815260200190815260200160002060010154600760008a815260200190815260200160002060020160009054906101000a900463ffffffff16600760008b815260200190815260200160002060020160049054906101000a900463ffffffff16600760008c8152602001908152602001600020600301600760008d8152602001908152602001600020600401818054600181600116156101000203166002900480601f016020809104026020016040519081016040528092919081815260200182805460018160011615610100020316600290048015610edc5780601f10610eb157610100808354040283529160200191610edc565b820191906000526020600020905b815481529060010190602001808311610ebf57829003601f168201915b50505050509150808054600181600116156101000203166002900480601f016020809104026020016040519081016040528092919081815260200182805460018160011615610100020316600290048015610f785780601f10610f4d57610100808354040283529160200191610f78565b820191906000526020600020905b815481529060010190602001808311610f5b57829003601f168201915b5050505050905095509550955095509550955091939550919395565b6000919050565b600080915091565b60008060008060608091939550919395565b600090565b50565b6000919050565b6000600860009054906101000a900473ffffffffffffffffffffffffffffffffffffffff16905090565b60005481565b600090565b505050565b50565b8160038190555080600460006101000a81548160ff0219169083151502179055505050565b60c0604051908101604052808963ffffffff1681526020018881526020018763ffffffff1681526020018663ffffffff16815260200185858080601f016020809104026020016040519081016040528093929190818152602001838380828437820191505050505050815260200183838080601f016020809104026020016040519081016040528093929190818152602001838380828437820191505050505050815250600760008b815260200190815260200160002060008201518160000160006101000a81548163ffffffff021916908363ffffffff1602179055506020820151816001015560408201518160020160006101000a81548163ffffffff021916908363ffffffff16021790555060608201518160020160046101000a81548163ffffffff021916908363ffffffff1602179055506080820151816003019080519060200190611178929190611285565b5060a0820151816004019080519060200190611195929190611285565b50905050505050505050505050565b565b600090565b600090565b6000600160009054906101000a900473ffffffffffffffffffffffffffffffffffffffff16905090565b565b80600860006101000a81548173ffffffffffffffffffffffffffffffffffffffff021916908373ffffffffffffffffffffffffffffffffffffffff16021790555050565b50565b505050505050505050505050565b600080600354600460009054906101000a900460ff16915091509091565b6000919050565b6000809091565b50565b8160058190555080600660006101000a81548160ff0219169083151502179055505050565b828054600181600116156101000203166002900490600052602060002090601f016020900481019282601f106112c657805160ff19168380011785556112f4565b828001600101855582156112f4579182015b828111156112f35782518255916020019190600101906112d8565b5b5090506113019190611305565b5090565b61132791905b8082111561132357600081600090555060010161130b565b5090565b905600a165627a7a7230582015b7e7541a385d3838f9714d8b39d5451aa0e334267c167db760d6c81b15f5220029",
  "source": "pragma solidity 0.4.24;\n\nimport \"openzeppelin-solidity/contracts/ownership/Secondary.sol\";\nimport \"openzeppelin-solidity/contracts/utils/ReentrancyGuard.sol\";\nimport \"openzeppelin-solidity/contracts/math/SafeMath.sol\";\nimport \"solidity-bytes-utils/contracts/BytesLib.sol\";\nimport \"../../crowdsale/IW12Crowdsale.sol\";\nimport \"../../crowdsale/IW12Fund.sol\";\nimport \"../../token/IWToken.sol\";\nimport \"../../libs/Percent.sol\";\nimport \"../../versioning/Versionable.sol\";\n\n\ncontract W12FundCrowdsaleStub is Versionable, IW12Crowdsale, Secondary, ReentrancyGuard {\n    uint _currentMilestoneIndex;\n    bool _currentMilestoneIndexFound;\n    uint _lastMilestoneIndex;\n    bool _lastMilestoneIndexFound;\n    mapping (uint => Milestone) _currentMilestones;\n    IWToken _wtoken;\n\n    struct Milestone {\n        uint32 endDate;\n        uint tranchePercent;\n        uint32 voteEndDate;\n        uint32 withdrawalWindow;\n        bytes name;\n        bytes description;\n    }\n\n    constructor(uint version) Versionable(version) public {}\n\n    function getFund() external view returns (IW12Fund) {}\n\n    function isAdmin(address account) public view returns (bool) {}\n\n    function addAdmin(address account) public {}\n\n    function renounceAdmin() public {}\n\n    function removeAdmin(address account) public {}\n\n    function isProjectOwner(address account) public view returns (bool) {}\n\n    function addProjectOwner(address account) public {}\n\n    function renounceProjectOwner() public {}\n\n    function removeProjectOwner(address account) public {}\n\n    function setParameters(uint price) external {}\n\n    function updatePurchaseFeeParameterForPaymentMethod(bytes32 method, bool has, uint value) public {}\n\n    function getPurchaseFeeParameterForPaymentMethod(bytes32 method) public view returns (bool, uint) {}\n\n    function getPurchaseFeeForPaymentMethod(bytes32 method) public view returns (uint) {}\n\n    function setup(\n        uint[6][] parametersOfStages,\n        uint[] bonusConditionsOfStages,\n        uint[4][] parametersOfMilestones,\n        uint32[] nameAndDescriptionsOffsetOfMilestones,\n        bytes nameAndDescriptionsOfMilestones,\n        bytes32[] paymentMethodsList\n    ) external {}\n\n    function getWToken() external view returns (IWToken) {\n        return _wtoken;\n    }\n\n    function _getWTokenMockData(IWToken a) external {\n        _wtoken = a;\n    }\n\n    function getMilestone(uint index) public view returns (uint32, uint, uint32, uint32, bytes, bytes) {\n        return (\n            _currentMilestones[index].endDate,\n            _currentMilestones[index].tranchePercent,\n            _currentMilestones[index].voteEndDate,\n            _currentMilestones[index].withdrawalWindow,\n            _currentMilestones[index].name,\n            _currentMilestones[index].description\n        );\n    }\n\n    function _getMilestoneMockData(uint idx, uint32 a, uint b, uint32 c, uint32 d, bytes e, bytes f) external {\n        _currentMilestones[idx] = Milestone({\n            endDate: a,\n            tranchePercent: b,\n            voteEndDate: c,\n            withdrawalWindow: d,\n            name: e,\n            description: f\n        });\n    }\n\n    function getStage(uint index) public view returns (uint32, uint32, uint, uint32, uint[], uint[]) {}\n\n    function getCurrentMilestoneIndex() public view returns (uint, bool) {\n        return (_currentMilestoneIndex, _currentMilestoneIndexFound);\n    }\n\n    function _getCurrentMilestoneIndexMockData(uint a, bool b) public {\n        _currentMilestoneIndex = a;\n        _currentMilestoneIndexFound = b;\n    }\n\n    function getLastMilestoneIndex() public view returns (uint index, bool found) {\n        return (_lastMilestoneIndex, _lastMilestoneIndexFound);\n    }\n\n    function _getLastMilestoneIndexMockData(uint a, bool b) public {\n        _lastMilestoneIndex = a;\n        _lastMilestoneIndexFound = b;\n    }\n\n    function milestonesLength() external view returns (uint) {}\n\n    function getCurrentStageIndex() public view returns (uint index, bool found) {}\n\n    function getSaleVolumeBonus(uint value) public view returns (uint bonus) {}\n\n    function isEnded() public view returns (bool) {}\n\n    function isSaleActive() public view returns (bool) {}\n\n    function() payable external {}\n\n    function buyTokens(bytes32 method, uint amount) payable public {}\n}\n",
  "sourcePath": "/Users/gauss/_games/w12/W12-Product-Blockchain-Protocol/contracts/mocks/crowdsale/W12FundCrowdsaleStub.sol",
  "compiler": {
    "name": "solc",
    "version": "0.4.24+commit.e67f0147.Emscripten.clang"
  },
  "schemaVersion": "3.0.9",
  "updatedAt": "2019-06-02T10:42:51.532Z",
  "devdoc": {
    "methods": {
      "primary()": {
        "return": "the address of the primary."
      },
      "transferPrimary(address)": {
        "details": "Transfers contract to a new primary.",
        "params": {
          "recipient": "The address of new primary. "
        }
      }
    }
  },
  "userdoc": {
    "methods": {}
  }
}