{
  "contractName": "W12FundCrowdsaleStub",
  "abi": [
    {
      "constant": true,
      "inputs": [],
      "name": "version",
      "outputs": [
        {
          "name": "",
          "type": "uint256"
        }
      ],
      "payable": false,
      "stateMutability": "view",
      "type": "function"
    },
    {
      "constant": false,
      "inputs": [],
      "name": "renounceOwnership",
      "outputs": [],
      "payable": false,
      "stateMutability": "nonpayable",
      "type": "function"
    },
    {
      "constant": true,
      "inputs": [],
      "name": "owner",
      "outputs": [
        {
          "name": "",
          "type": "address"
        }
      ],
      "payable": false,
      "stateMutability": "view",
      "type": "function"
    },
    {
      "constant": false,
      "inputs": [
        {
          "name": "_newOwner",
          "type": "address"
        }
      ],
      "name": "transferOwnership",
      "outputs": [],
      "payable": false,
      "stateMutability": "nonpayable",
      "type": "function"
    },
    {
      "inputs": [
        {
          "name": "version",
          "type": "uint256"
        }
      ],
      "payable": false,
      "stateMutability": "nonpayable",
      "type": "constructor"
    },
    {
      "payable": true,
      "stateMutability": "payable",
      "type": "fallback"
    },
    {
      "anonymous": false,
      "inputs": [
        {
          "indexed": true,
          "name": "previousOwner",
          "type": "address"
        }
      ],
      "name": "OwnershipRenounced",
      "type": "event"
    },
    {
      "anonymous": false,
      "inputs": [
        {
          "indexed": true,
          "name": "previousOwner",
          "type": "address"
        },
        {
          "indexed": true,
          "name": "newOwner",
          "type": "address"
        }
      ],
      "name": "OwnershipTransferred",
      "type": "event"
    },
    {
      "constant": false,
      "inputs": [
        {
          "name": "price",
          "type": "uint256"
        }
      ],
      "name": "setParameters",
      "outputs": [],
      "payable": false,
      "stateMutability": "nonpayable",
      "type": "function"
    },
    {
      "constant": false,
      "inputs": [
        {
          "name": "parametersOfStages",
          "type": "uint256[6][]"
        },
        {
          "name": "bonusConditionsOfStages",
          "type": "uint256[]"
        },
        {
          "name": "parametersOfMilestones",
          "type": "uint256[4][]"
        },
        {
          "name": "nameAndDescriptionsOffsetOfMilestones",
          "type": "uint32[]"
        },
        {
          "name": "nameAndDescriptionsOfMilestones",
          "type": "bytes"
        }
      ],
      "name": "setup",
      "outputs": [],
      "payable": false,
      "stateMutability": "nonpayable",
      "type": "function"
    },
    {
      "constant": true,
      "inputs": [],
      "name": "getWToken",
      "outputs": [
        {
          "name": "",
          "type": "address"
        }
      ],
      "payable": false,
      "stateMutability": "view",
      "type": "function"
    },
    {
      "constant": false,
      "inputs": [
        {
          "name": "a",
          "type": "address"
        }
      ],
      "name": "_getWTokenMockData",
      "outputs": [],
      "payable": false,
      "stateMutability": "nonpayable",
      "type": "function"
    },
    {
      "constant": true,
      "inputs": [
        {
          "name": "index",
          "type": "uint256"
        }
      ],
      "name": "getMilestone",
      "outputs": [
        {
          "name": "",
          "type": "uint32"
        },
        {
          "name": "",
          "type": "uint256"
        },
        {
          "name": "",
          "type": "uint32"
        },
        {
          "name": "",
          "type": "uint32"
        },
        {
          "name": "",
          "type": "bytes"
        },
        {
          "name": "",
          "type": "bytes"
        }
      ],
      "payable": false,
      "stateMutability": "view",
      "type": "function"
    },
    {
      "constant": false,
      "inputs": [
        {
          "name": "idx",
          "type": "uint256"
        },
        {
          "name": "a",
          "type": "uint32"
        },
        {
          "name": "b",
          "type": "uint256"
        },
        {
          "name": "c",
          "type": "uint32"
        },
        {
          "name": "d",
          "type": "uint32"
        },
        {
          "name": "e",
          "type": "bytes"
        },
        {
          "name": "f",
          "type": "bytes"
        }
      ],
      "name": "_getMilestoneMockData",
      "outputs": [],
      "payable": false,
      "stateMutability": "nonpayable",
      "type": "function"
    },
    {
      "constant": true,
      "inputs": [
        {
          "name": "index",
          "type": "uint256"
        }
      ],
      "name": "getStage",
      "outputs": [
        {
          "name": "",
          "type": "uint32"
        },
        {
          "name": "",
          "type": "uint32"
        },
        {
          "name": "",
          "type": "uint256"
        },
        {
          "name": "",
          "type": "uint32"
        },
        {
          "name": "",
          "type": "uint256[]"
        },
        {
          "name": "",
          "type": "uint256[]"
        }
      ],
      "payable": false,
      "stateMutability": "view",
      "type": "function"
    },
    {
      "constant": true,
      "inputs": [],
      "name": "getCurrentMilestoneIndex",
      "outputs": [
        {
          "name": "",
          "type": "uint256"
        },
        {
          "name": "",
          "type": "bool"
        }
      ],
      "payable": false,
      "stateMutability": "view",
      "type": "function"
    },
    {
      "constant": false,
      "inputs": [
        {
          "name": "a",
          "type": "uint256"
        },
        {
          "name": "b",
          "type": "bool"
        }
      ],
      "name": "_getCurrentMilestoneIndexMockData",
      "outputs": [],
      "payable": false,
      "stateMutability": "nonpayable",
      "type": "function"
    },
    {
      "constant": true,
      "inputs": [],
      "name": "getLastMilestoneIndex",
      "outputs": [
        {
          "name": "index",
          "type": "uint256"
        },
        {
          "name": "found",
          "type": "bool"
        }
      ],
      "payable": false,
      "stateMutability": "view",
      "type": "function"
    },
    {
      "constant": false,
      "inputs": [
        {
          "name": "a",
          "type": "uint256"
        },
        {
          "name": "b",
          "type": "bool"
        }
      ],
      "name": "_getLastMilestoneIndexMockData",
      "outputs": [],
      "payable": false,
      "stateMutability": "nonpayable",
      "type": "function"
    },
    {
      "constant": true,
      "inputs": [],
      "name": "milestonesLength",
      "outputs": [
        {
          "name": "",
          "type": "uint256"
        }
      ],
      "payable": false,
      "stateMutability": "view",
      "type": "function"
    },
    {
      "constant": true,
      "inputs": [],
      "name": "getCurrentStageIndex",
      "outputs": [
        {
          "name": "index",
          "type": "uint256"
        },
        {
          "name": "found",
          "type": "bool"
        }
      ],
      "payable": false,
      "stateMutability": "view",
      "type": "function"
    },
    {
      "constant": true,
      "inputs": [
        {
          "name": "value",
          "type": "uint256"
        }
      ],
      "name": "getSaleVolumeBonus",
      "outputs": [
        {
          "name": "bonus",
          "type": "uint256"
        }
      ],
      "payable": false,
      "stateMutability": "view",
      "type": "function"
    },
    {
      "constant": true,
      "inputs": [],
      "name": "isEnded",
      "outputs": [
        {
          "name": "",
          "type": "bool"
        }
      ],
      "payable": false,
      "stateMutability": "view",
      "type": "function"
    },
    {
      "constant": true,
      "inputs": [],
      "name": "isSaleActive",
      "outputs": [
        {
          "name": "",
          "type": "bool"
        }
      ],
      "payable": false,
      "stateMutability": "view",
      "type": "function"
    },
    {
      "constant": false,
      "inputs": [],
      "name": "buyTokens",
      "outputs": [],
      "payable": true,
      "stateMutability": "payable",
      "type": "function"
    }
  ],
  "bytecode": "0x6080604052600160025534801561001557600080fd5b50604051602080610b5d833981016040525160005560018054600160a060020a03191633179055610b128061004b6000396000f30060806040526004361061011c5763ffffffff7c010000000000000000000000000000000000000000000000000000000060003504166314f66d34811461011e57806317410a071461014c578063208853c91461019c5780632442e1cb146101c65780632e325020146102fc5780633baba4d7146103ed5780634090cb641461040257806354fd4d5014610433578063564566a814610448578063715018a614610471578063770bd64714610486578063820a3435146104a35780638da5cb5b146104ee578063a4fd6f5614610448578063d0febe4c14610503578063d119d6cd1461050b578063d6d65f3d1461052c578063daa4cf8814610541578063e93b054014610556578063f2fde38b1461056e578063f77e08681461058f575b005b34801561012a57600080fd5b506101336105ac565b6040805192835290151560208301528051918290030190f35b34801561015857600080fd5b5061011c60246004803582810192908201359181358083019290820135916044358083019290820135916064358083019290820135916084359182019101356105b9565b3480156101a857600080fd5b506101b46004356105c5565b60408051918252519081900360200190f35b3480156101d257600080fd5b506101de6004356105cb565b604051808763ffffffff1663ffffffff1681526020018681526020018563ffffffff1663ffffffff1681526020018463ffffffff1663ffffffff1681526020018060200180602001838103835285818151815260200191508051906020019080838360005b8381101561025b578181015183820152602001610243565b50505050905090810190601f1680156102885780820380516001836020036101000a031916815260200191505b50838103825284518152845160209182019186019080838360005b838110156102bb5781810151838201526020016102a3565b50505050905090810190601f1680156102e85780820380516001836020036101000a031916815260200191505b509850505050505050505060405180910390f35b34801561030857600080fd5b50610314600435610745565b604051808763ffffffff1663ffffffff1681526020018663ffffffff1663ffffffff1681526020018581526020018463ffffffff1663ffffffff1681526020018060200180602001838103835285818151815260200191508051906020019060200280838360005b8381101561039457818101518382015260200161037c565b50505050905001838103825284818151815260200191508051906020019060200280838360005b838110156103d35781810151838201526020016103bb565b505050509050019850505050505050505060405180910390f35b3480156103f957600080fd5b506101b4610757565b34801561040e57600080fd5b5061041761075c565b60408051600160a060020a039092168252519081900360200190f35b34801561043f57600080fd5b506101b461076c565b34801561045457600080fd5b5061045d610757565b604080519115158252519081900360200190f35b34801561047d57600080fd5b5061011c610772565b34801561049257600080fd5b5061011c60043560243515156107e0565b3480156104af57600080fd5b5061011c60048035906024803563ffffffff9081169260443592606435831692608435169160a43580830192908201359160c4359182019101356107f9565b3480156104fa57600080fd5b50610417610940565b61011c61094f565b34801561051757600080fd5b5061011c600160a060020a0360043516610951565b34801561053857600080fd5b50610133610980565b34801561054d57600080fd5b5061013361098d565b34801561056257600080fd5b5061011c600435610994565b34801561057a57600080fd5b5061011c600160a060020a0360043516610997565b34801561059b57600080fd5b5061011c60043560243515156109b7565b60055460065460ff169091565b50505050505050505050565b50600090565b600081815260076020908152604080832080546001808301546002808501546003860180548851601f60001997831615610100029790970190911693909304948501899004890283018901909752838252889788978897606097889763ffffffff91821697968683169664010000000090049092169460049093019284919083018282801561069b5780601f106106705761010080835404028352916020019161069b565b820191906000526020600020905b81548152906001019060200180831161067e57829003601f168201915b5050845460408051602060026001851615610100026000190190941693909304601f8101849004840282018401909252818152959750869450925084019050828280156107295780601f106106fe57610100808354040283529160200191610729565b820191906000526020600020905b81548152906001019060200180831161070c57829003601f168201915b5050505050905095509550955095509550955091939550919395565b60008060008060608091939550919395565b600090565b600854600160a060020a03165b90565b60005481565b600154600160a060020a0316331461078957600080fd5b600154604051600160a060020a03909116907ff8df31144d9c2f0f6b59d69b8b98abd5459d07f2742c4df920b25aae33c6482090600090a26001805473ffffffffffffffffffffffffffffffffffffffff19169055565b6003919091556004805460ff1916911515919091179055565b60c0604051908101604052808963ffffffff1681526020018881526020018763ffffffff1681526020018663ffffffff16815260200185858080601f016020809104026020016040519081016040528093929190818152602001838380828437820191505050505050815260200183838080601f0160208091040260200160405190810160405280939291908181526020018383808284375050509290935250505060008a8152600760209081526040918290208351815463ffffffff91821663ffffffff1991821617835585840151600184015593850151600283018054606088015184166401000000000267ffffffff0000000019939094169616959095171617909255608083015180516109169260038501920190610a4e565b5060a08201518051610932916004840191602090910190610a4e565b505050505050505050505050565b600154600160a060020a031681565b565b6008805473ffffffffffffffffffffffffffffffffffffffff1916600160a060020a0392909216919091179055565b60035460045460ff169091565b6000809091565b50565b600154600160a060020a031633146109ae57600080fd5b610994816109d0565b6005919091556006805460ff1916911515919091179055565b600160a060020a03811615156109e557600080fd5b600154604051600160a060020a038084169216907f8be0079c531659141344cd1fd0a4f28419497f9722a3daafe3b4186f6b6457e090600090a36001805473ffffffffffffffffffffffffffffffffffffffff1916600160a060020a0392909216919091179055565b828054600181600116156101000203166002900490600052602060002090601f016020900481019282601f10610a8f57805160ff1916838001178555610abc565b82800160010185558215610abc579182015b82811115610abc578251825591602001919060010190610aa1565b50610ac8929150610acc565b5090565b61076991905b80821115610ac85760008155600101610ad25600a165627a7a72305820f92be8df3e3b8085007f6a4e27d9ede939f2ee190080e969cfee6cae5a8d08f10029",
  "source": "pragma solidity ^0.4.24;\n\nimport \"openzeppelin-solidity/contracts/ownership/Ownable.sol\";\nimport \"openzeppelin-solidity/contracts/ReentrancyGuard.sol\";\nimport \"openzeppelin-solidity/contracts/math/SafeMath.sol\";\nimport \"solidity-bytes-utils/contracts/BytesLib.sol\";\nimport \"openzeppelin-solidity/contracts/token/ERC20/ERC20.sol\";\nimport \"./interfaces/IW12Crowdsale.sol\";\nimport \"./interfaces/IW12Fund.sol\";\nimport \"./libs/Percent.sol\";\nimport \"./versioning/Versionable.sol\";\n\ncontract W12FundCrowdsaleStub is Versionable, IW12Crowdsale, Ownable, ReentrancyGuard {\n    uint _currentMilestoneIndex;\n    bool _currentMilestoneIndexFound;\n    uint _lastMilestoneIndex;\n    bool _lastMilestoneIndexFound;\n    mapping (uint => Milestone) _currentMilestones;\n    WToken _wtoken;\n\n    struct Milestone {\n        uint32 endDate;\n        uint tranchePercent;\n        uint32 voteEndDate;\n        uint32 withdrawalWindow;\n        bytes name;\n        bytes description;\n    }\n\n    constructor(uint version) Versionable(version) public {}\n\n    function setParameters(uint price) external {}\n\n    function setup(\n        uint[6][] parametersOfStages,\n        uint[] bonusConditionsOfStages,\n        uint[4][] parametersOfMilestones,\n        uint32[] nameAndDescriptionsOffsetOfMilestones,\n        bytes nameAndDescriptionsOfMilestones\n    ) external {}\n\n    function getWToken() external view returns (WToken) {\n        return _wtoken;\n    }\n\n    function _getWTokenMockData(WToken a) external {\n        _wtoken = a;\n    }\n\n    function getMilestone(uint index) external view returns (uint32, uint, uint32, uint32, bytes, bytes) {\n        return (\n            _currentMilestones[index].endDate,\n            _currentMilestones[index].tranchePercent,\n            _currentMilestones[index].voteEndDate,\n            _currentMilestones[index].withdrawalWindow,\n            _currentMilestones[index].name,\n            _currentMilestones[index].description\n        );\n    }\n\n    function _getMilestoneMockData(uint idx, uint32 a, uint b, uint32 c, uint32 d, bytes e, bytes f) external {\n        _currentMilestones[idx] = Milestone({\n            endDate: a,\n            tranchePercent: b,\n            voteEndDate: c,\n            withdrawalWindow: d,\n            name: e,\n            description: f\n        });\n    }\n\n    function getStage(uint index) external view returns (uint32, uint32, uint, uint32, uint[], uint[]) {}\n\n    function getCurrentMilestoneIndex() external view returns (uint, bool) {\n        return (_currentMilestoneIndex, _currentMilestoneIndexFound);\n    }\n\n    function _getCurrentMilestoneIndexMockData(uint a, bool b) external {\n        _currentMilestoneIndex = a;\n        _currentMilestoneIndexFound = b;\n    }\n\n    function getLastMilestoneIndex() external view returns (uint index, bool found) {\n        return (_lastMilestoneIndex, _lastMilestoneIndexFound);\n    }\n\n    function _getLastMilestoneIndexMockData(uint a, bool b) external {\n        _lastMilestoneIndex = a;\n        _lastMilestoneIndexFound = b;\n    }\n\n    function milestonesLength() external view returns (uint) {}\n\n    function getCurrentStageIndex() external view returns (uint index, bool found) {}\n\n    function getSaleVolumeBonus(uint value) external view returns (uint bonus) {}\n\n    function isEnded() external view returns (bool) {}\n\n    function isSaleActive() external view returns (bool) {}\n\n    function() payable external {}\n\n    function buyTokens() payable external {}\n}\n",
  "sourcePath": "/c/Users/Mr.Hokid/projects/work/w12-product-contracts/contracts/W12FundCrowdsaleStub.sol",
  "compiler": {
    "name": "solc",
    "version": "0.4.24+commit.e67f0147.Emscripten.clang"
  },
  "schemaVersion": "2.0.1",
  "updatedAt": "2018-11-14T14:48:13.441Z"
}