{
  "contractName": "W12Fund",
  "abi": [
    {
      "constant": true,
      "inputs": [],
      "name": "wToken",
      "outputs": [
        {
          "name": "",
          "type": "address"
        }
      ],
      "payable": false,
      "stateMutability": "view",
      "type": "function"
    },
    {
      "constant": false,
      "inputs": [
        {
          "name": "recipient",
          "type": "address"
        }
      ],
      "name": "transferPrimary",
      "outputs": [],
      "payable": false,
      "stateMutability": "nonpayable",
      "type": "function"
    },
    {
      "constant": true,
      "inputs": [
        {
          "name": "account",
          "type": "address"
        }
      ],
      "name": "isAdmin",
      "outputs": [
        {
          "name": "",
          "type": "bool"
        }
      ],
      "payable": false,
      "stateMutability": "view",
      "type": "function"
    },
    {
      "constant": true,
      "inputs": [],
      "name": "oracles",
      "outputs": [
        {
          "name": "",
          "type": "address"
        }
      ],
      "payable": false,
      "stateMutability": "view",
      "type": "function"
    },
    {
      "constant": true,
      "inputs": [],
      "name": "rates",
      "outputs": [
        {
          "name": "",
          "type": "address"
        }
      ],
      "payable": false,
      "stateMutability": "view",
      "type": "function"
    },
    {
      "constant": true,
      "inputs": [],
      "name": "version",
      "outputs": [
        {
          "name": "",
          "type": "uint256"
        }
      ],
      "payable": false,
      "stateMutability": "view",
      "type": "function"
    },
    {
      "constant": true,
      "inputs": [],
      "name": "serviceWallet",
      "outputs": [
        {
          "name": "",
          "type": "address"
        }
      ],
      "payable": false,
      "stateMutability": "view",
      "type": "function"
    },
    {
      "constant": true,
      "inputs": [],
      "name": "swap",
      "outputs": [
        {
          "name": "",
          "type": "address"
        }
      ],
      "payable": false,
      "stateMutability": "view",
      "type": "function"
    },
    {
      "constant": false,
      "inputs": [],
      "name": "renounceAdmin",
      "outputs": [],
      "payable": false,
      "stateMutability": "nonpayable",
      "type": "function"
    },
    {
      "constant": true,
      "inputs": [],
      "name": "crowdsale",
      "outputs": [
        {
          "name": "",
          "type": "address"
        }
      ],
      "payable": false,
      "stateMutability": "view",
      "type": "function"
    },
    {
      "constant": true,
      "inputs": [],
      "name": "trancheFeePercent",
      "outputs": [
        {
          "name": "",
          "type": "uint256"
        }
      ],
      "payable": false,
      "stateMutability": "view",
      "type": "function"
    },
    {
      "constant": true,
      "inputs": [],
      "name": "primary",
      "outputs": [
        {
          "name": "",
          "type": "address"
        }
      ],
      "payable": false,
      "stateMutability": "view",
      "type": "function"
    },
    {
      "constant": false,
      "inputs": [],
      "name": "renounceProjectOwner",
      "outputs": [],
      "payable": false,
      "stateMutability": "nonpayable",
      "type": "function"
    },
    {
      "constant": true,
      "inputs": [
        {
          "name": "account",
          "type": "address"
        }
      ],
      "name": "isProjectOwner",
      "outputs": [
        {
          "name": "",
          "type": "bool"
        }
      ],
      "payable": false,
      "stateMutability": "view",
      "type": "function"
    },
    {
      "inputs": [
        {
          "name": "version",
          "type": "uint256"
        },
        {
          "name": "_trancheFeePercent",
          "type": "uint256"
        },
        {
          "name": "_rates",
          "type": "address"
        },
        {
          "name": "oracles_addr",
          "type": "address"
        }
      ],
      "payable": false,
      "stateMutability": "nonpayable",
      "type": "constructor"
    },
    {
      "anonymous": false,
      "inputs": [
        {
          "indexed": true,
          "name": "investor",
          "type": "address"
        },
        {
          "indexed": false,
          "name": "tokenAmount",
          "type": "uint256"
        },
        {
          "indexed": false,
          "name": "symbol",
          "type": "bytes32"
        },
        {
          "indexed": false,
          "name": "cost",
          "type": "uint256"
        }
      ],
      "name": "FundsReceived",
      "type": "event"
    },
    {
      "anonymous": false,
      "inputs": [
        {
          "indexed": true,
          "name": "investor",
          "type": "address"
        },
        {
          "indexed": false,
          "name": "symbol",
          "type": "bytes32"
        },
        {
          "indexed": false,
          "name": "amount",
          "type": "uint256"
        }
      ],
      "name": "AssetRefunded",
      "type": "event"
    },
    {
      "anonymous": false,
      "inputs": [
        {
          "indexed": true,
          "name": "investor",
          "type": "address"
        },
        {
          "indexed": false,
          "name": "tokenAmount",
          "type": "uint256"
        }
      ],
      "name": "TokenRefunded",
      "type": "event"
    },
    {
      "anonymous": false,
      "inputs": [
        {
          "indexed": true,
          "name": "receiver",
          "type": "address"
        },
        {
          "indexed": false,
          "name": "symbol",
          "type": "bytes32"
        },
        {
          "indexed": false,
          "name": "amount",
          "type": "uint256"
        }
      ],
      "name": "TrancheTransferred",
      "type": "event"
    },
    {
      "anonymous": false,
      "inputs": [
        {
          "indexed": true,
          "name": "receiver",
          "type": "address"
        },
        {
          "indexed": false,
          "name": "percent",
          "type": "uint256"
        }
      ],
      "name": "TrancheReleased",
      "type": "event"
    },
    {
      "anonymous": false,
      "inputs": [
        {
          "indexed": false,
          "name": "recipient",
          "type": "address"
        }
      ],
      "name": "PrimaryTransferred",
      "type": "event"
    },
    {
      "anonymous": false,
      "inputs": [
        {
          "indexed": true,
          "name": "account",
          "type": "address"
        }
      ],
      "name": "ProjectOwnerAdded",
      "type": "event"
    },
    {
      "anonymous": false,
      "inputs": [
        {
          "indexed": true,
          "name": "account",
          "type": "address"
        }
      ],
      "name": "ProjectOwnerRemoved",
      "type": "event"
    },
    {
      "anonymous": false,
      "inputs": [
        {
          "indexed": true,
          "name": "account",
          "type": "address"
        }
      ],
      "name": "AdminAdded",
      "type": "event"
    },
    {
      "anonymous": false,
      "inputs": [
        {
          "indexed": true,
          "name": "account",
          "type": "address"
        }
      ],
      "name": "AdminRemoved",
      "type": "event"
    },
    {
      "constant": false,
      "inputs": [
        {
          "name": "_crowdsale",
          "type": "address"
        }
      ],
      "name": "setCrowdsale",
      "outputs": [],
      "payable": false,
      "stateMutability": "nonpayable",
      "type": "function"
    },
    {
      "constant": false,
      "inputs": [
        {
          "name": "_swap",
          "type": "address"
        }
      ],
      "name": "setSwap",
      "outputs": [],
      "payable": false,
      "stateMutability": "nonpayable",
      "type": "function"
    },
    {
      "constant": false,
      "inputs": [
        {
          "name": "_serviceWallet",
          "type": "address"
        }
      ],
      "name": "setServiceWallet",
      "outputs": [],
      "payable": false,
      "stateMutability": "nonpayable",
      "type": "function"
    },
    {
      "constant": true,
      "inputs": [],
      "name": "getServiceWallet",
      "outputs": [
        {
          "name": "",
          "type": "address"
        }
      ],
      "payable": false,
      "stateMutability": "view",
      "type": "function"
    },
    {
      "constant": false,
      "inputs": [
        {
          "name": "investor",
          "type": "address"
        },
        {
          "name": "tokenAmount",
          "type": "uint256"
        },
        {
          "name": "symbol",
          "type": "bytes32"
        },
        {
          "name": "cost",
          "type": "uint256"
        },
        {
          "name": "costUSD",
          "type": "uint256"
        }
      ],
      "name": "recordPurchase",
      "outputs": [],
      "payable": true,
      "stateMutability": "payable",
      "type": "function"
    },
    {
      "constant": false,
      "inputs": [],
      "name": "tranche",
      "outputs": [],
      "payable": false,
      "stateMutability": "nonpayable",
      "type": "function"
    },
    {
      "constant": false,
      "inputs": [
        {
          "name": "index",
          "type": "uint256"
        }
      ],
      "name": "tranche_index",
      "outputs": [],
      "payable": false,
      "stateMutability": "nonpayable",
      "type": "function"
    },
    {
      "constant": false,
      "inputs": [
        {
          "name": "tokenAmount",
          "type": "uint256"
        }
      ],
      "name": "refund",
      "outputs": [],
      "payable": false,
      "stateMutability": "nonpayable",
      "type": "function"
    },
    {
      "constant": false,
      "inputs": [
        {
          "name": "_account",
          "type": "address"
        }
      ],
      "name": "addAdmin",
      "outputs": [],
      "payable": false,
      "stateMutability": "nonpayable",
      "type": "function"
    },
    {
      "constant": false,
      "inputs": [
        {
          "name": "_account",
          "type": "address"
        }
      ],
      "name": "removeAdmin",
      "outputs": [],
      "payable": false,
      "stateMutability": "nonpayable",
      "type": "function"
    },
    {
      "constant": false,
      "inputs": [
        {
          "name": "_account",
          "type": "address"
        }
      ],
      "name": "addProjectOwner",
      "outputs": [],
      "payable": false,
      "stateMutability": "nonpayable",
      "type": "function"
    },
    {
      "constant": false,
      "inputs": [
        {
          "name": "_account",
          "type": "address"
        }
      ],
      "name": "removeProjectOwner",
      "outputs": [],
      "payable": false,
      "stateMutability": "nonpayable",
      "type": "function"
    },
    {
      "constant": true,
      "inputs": [],
      "name": "totalTranchePercentReleased",
      "outputs": [
        {
          "name": "",
          "type": "uint256"
        }
      ],
      "payable": false,
      "stateMutability": "view",
      "type": "function"
    },
    {
      "constant": true,
      "inputs": [
        {
          "name": "milestoneIndex",
          "type": "uint256"
        }
      ],
      "name": "completedTranches",
      "outputs": [
        {
          "name": "",
          "type": "bool"
        }
      ],
      "payable": false,
      "stateMutability": "view",
      "type": "function"
    },
    {
      "constant": true,
      "inputs": [],
      "name": "totalTokenBought",
      "outputs": [
        {
          "name": "",
          "type": "uint256"
        }
      ],
      "payable": false,
      "stateMutability": "view",
      "type": "function"
    },
    {
      "constant": true,
      "inputs": [],
      "name": "totalTokenRefunded",
      "outputs": [
        {
          "name": "",
          "type": "uint256"
        }
      ],
      "payable": false,
      "stateMutability": "view",
      "type": "function"
    },
    {
      "constant": true,
      "inputs": [
        {
          "name": "_investor",
          "type": "address"
        },
        {
          "name": "_symbol",
          "type": "bytes32"
        }
      ],
      "name": "getInvestorFundedAmount",
      "outputs": [
        {
          "name": "",
          "type": "uint256"
        }
      ],
      "payable": false,
      "stateMutability": "view",
      "type": "function"
    },
    {
      "constant": true,
      "inputs": [
        {
          "name": "_investor",
          "type": "address"
        }
      ],
      "name": "getInvestorFundedAssetsSymbols",
      "outputs": [
        {
          "name": "",
          "type": "bytes32[]"
        }
      ],
      "payable": false,
      "stateMutability": "view",
      "type": "function"
    },
    {
      "constant": true,
      "inputs": [
        {
          "name": "_investor",
          "type": "address"
        }
      ],
      "name": "getInvestorTokenBoughtAmount",
      "outputs": [
        {
          "name": "",
          "type": "uint256"
        }
      ],
      "payable": false,
      "stateMutability": "view",
      "type": "function"
    },
    {
      "constant": true,
      "inputs": [
        {
          "name": "_symbol",
          "type": "bytes32"
        }
      ],
      "name": "getTotalFundedAmount",
      "outputs": [
        {
          "name": "",
          "type": "uint256"
        }
      ],
      "payable": false,
      "stateMutability": "view",
      "type": "function"
    },
    {
      "constant": true,
      "inputs": [],
      "name": "getTotalFundedAssetsSymbols",
      "outputs": [
        {
          "name": "",
          "type": "bytes32[]"
        }
      ],
      "payable": false,
      "stateMutability": "view",
      "type": "function"
    },
    {
      "constant": true,
      "inputs": [
        {
          "name": "_symbol",
          "type": "bytes32"
        }
      ],
      "name": "getTotalFundedReleased",
      "outputs": [
        {
          "name": "",
          "type": "uint256"
        }
      ],
      "payable": false,
      "stateMutability": "view",
      "type": "function"
    },
    {
      "constant": true,
      "inputs": [],
      "name": "getTrancheInvoice",
      "outputs": [
        {
          "name": "result",
          "type": "uint256[3]"
        }
      ],
      "payable": false,
      "stateMutability": "view",
      "type": "function"
    },
    {
      "constant": true,
      "inputs": [
        {
          "name": "index",
          "type": "uint256"
        }
      ],
      "name": "getTrancheInvoiceIndex",
      "outputs": [
        {
          "name": "result",
          "type": "uint256[3]"
        }
      ],
      "payable": false,
      "stateMutability": "view",
      "type": "function"
    },
    {
      "constant": true,
      "inputs": [],
      "name": "tokenRefundAllowed",
      "outputs": [
        {
          "name": "",
          "type": "bool"
        }
      ],
      "payable": false,
      "stateMutability": "view",
      "type": "function"
    },
    {
      "constant": true,
      "inputs": [],
      "name": "trancheTransferAllowed",
      "outputs": [
        {
          "name": "",
          "type": "bool"
        }
      ],
      "payable": false,
      "stateMutability": "view",
      "type": "function"
    },
    {
      "constant": true,
      "inputs": [
        {
          "name": "index",
          "type": "uint256"
        }
      ],
      "name": "trancheTransferAllowedIndex",
      "outputs": [
        {
          "name": "",
          "type": "bool"
        }
      ],
      "payable": false,
      "stateMutability": "view",
      "type": "function"
    },
    {
      "constant": true,
      "inputs": [],
      "name": "isWithdrawalWindowActive",
      "outputs": [
        {
          "name": "",
          "type": "bool"
        }
      ],
      "payable": false,
      "stateMutability": "view",
      "type": "function"
    }
  ],
  "bytecode": "0x60806040523480156200001157600080fd5b506040516080806200488283398101806040528101908080519060200190929190805190602001909291908051906020019092919080519060200190929190505050836200006e33620003d9640100000000026401000000009004565b620000883362000443640100000000026401000000009004565b806002819055505033600360006101000a81548173ffffffffffffffffffffffffffffffffffffffff021916908373ffffffffffffffffffffffffffffffffffffffff1602179055507f4101e71e974f68df5e9730cc223280b41654676bbb052cdcc735c3337e64d2d9600360009054906101000a900473ffffffffffffffffffffffffffffffffffffffff16604051808273ffffffffffffffffffffffffffffffffffffffff1673ffffffffffffffffffffffffffffffffffffffff16815260200191505060405180910390a160016004819055508273__Percent_______________________________63520b006690916040518263ffffffff167c01000000000000000000000000000000000000000000000000000000000281526004018082815260200191505060206040518083038186803b158015620001cc57600080fd5b505af4158015620001e1573d6000803e3d6000fd5b505050506040513d6020811015620001f857600080fd5b81019080805190602001909291905050508015620002c0575060648373__Percent_______________________________630fe9114790916040518263ffffffff167c01000000000000000000000000000000000000000000000000000000000281526004018082815260200191505060206040518083038186803b1580156200028157600080fd5b505af415801562000296573d6000803e3d6000fd5b505050506040513d6020811015620002ad57600080fd5b8101908080519060200190929190505050105b1515620002cc57600080fd5b600073ffffffffffffffffffffffffffffffffffffffff168273ffffffffffffffffffffffffffffffffffffffff16141515156200030957600080fd5b600073ffffffffffffffffffffffffffffffffffffffff168173ffffffffffffffffffffffffffffffffffffffff16141515156200034657600080fd5b82600a8190555081600760006101000a81548173ffffffffffffffffffffffffffffffffffffffff021916908373ffffffffffffffffffffffffffffffffffffffff16021790555080601560006101000a81548173ffffffffffffffffffffffffffffffffffffffff021916908373ffffffffffffffffffffffffffffffffffffffff1602179055505050505062000605565b620003fd816000620004ad640100000000026200416e179091906401000000009004565b8073ffffffffffffffffffffffffffffffffffffffff167f44d6d25963f097ad14f29f06854a01f575648a1ef82f30e562ccd3889717e33960405160405180910390a250565b62000467816001620004ad640100000000026200416e179091906401000000009004565b8073ffffffffffffffffffffffffffffffffffffffff167f941e31c3e651de34a7fcf0132d9d02c2df9377e6b5f932bec5daf6353c94f90e60405160405180910390a250565b600073ffffffffffffffffffffffffffffffffffffffff168173ffffffffffffffffffffffffffffffffffffffff1614151515620004ea57600080fd5b62000505828262000570640100000000026401000000009004565b1515156200051257600080fd5b60018260000160008373ffffffffffffffffffffffffffffffffffffffff1673ffffffffffffffffffffffffffffffffffffffff16815260200190815260200160002060006101000a81548160ff0219169083151502179055505050565b60008073ffffffffffffffffffffffffffffffffffffffff168273ffffffffffffffffffffffffffffffffffffffff1614151515620005ae57600080fd5b8260000160008373ffffffffffffffffffffffffffffffffffffffff1673ffffffffffffffffffffffffffffffffffffffff16815260200190815260200160002060009054906101000a900460ff16905092915050565b61426d80620006156000396000f300608060405260043610610204576000357c0100000000000000000000000000000000000000000000000000000000900463ffffffff168063015dd28c146102095780630babd8641461027557806313946cd5146102cc5780631785f53c1461032357806319ae48ed146103665780632348238c1461039157806323585f96146103d457806323bffccc1461041957806324d7806c1461045c57806324e4ea4b146104b7578063278ecde1146104e45780632857373a14610511578063392822b8146105685780633bcdb164146105d157806343f48fbd14610614578063483a20b21461066b57806354fd4d50146106ae578063553ff8d6146106d95780635641f3c31461071e5780636b90d6d2146107755780636ebc0af1146107a457806370480275146107bb5780637a1c2da3146107fe5780638119c065146108435780638429fffe1461089a5780638bad0c0a146108c95780639124a789146108e05780639ab269a6146109375780639c1e03a01461097c5780639e80baac146109d3578063a328665a14610a02578063a3b768e114610a2d578063acb3c07314610a80578063adb9dd0814610ac3578063b4105a3e14610b5b578063c6dbdf6114610b86578063d0934d6114610bdd578063d0baf2f514610bf4578063d155790b14610c56578063d8e9ce6414610c99578063f206cb6414610cf4578063fb2814c414610d59575b600080fd5b34801561021557600080fd5b5061021e610d84565b6040518080602001828103825283818151815260200191508051906020019060200280838360005b83811015610261578082015181840152602081019050610246565b505050509050019250505060405180910390f35b34801561028157600080fd5b5061028a610e8d565b604051808273ffffffffffffffffffffffffffffffffffffffff1673ffffffffffffffffffffffffffffffffffffffff16815260200191505060405180910390f35b3480156102d857600080fd5b506102e1610eb3565b604051808273ffffffffffffffffffffffffffffffffffffffff1673ffffffffffffffffffffffffffffffffffffffff16815260200191505060405180910390f35b34801561032f57600080fd5b50610364600480360381019080803573ffffffffffffffffffffffffffffffffffffffff169060200190929190505050610edd565b005b34801561037257600080fd5b5061037b610efd565b6040518082815260200191505060405180910390f35b34801561039d57600080fd5b506103d2600480360381019080803573ffffffffffffffffffffffffffffffffffffffff169060200190929190505050610f0a565b005b3480156103e057600080fd5b506103ff6004803603810190808035906020019092919050505061106b565b604051808215151515815260200191505060405180910390f35b34801561042557600080fd5b5061045a600480360381019080803573ffffffffffffffffffffffffffffffffffffffff169060200190929190505050611098565b005b34801561046857600080fd5b5061049d600480360381019080803573ffffffffffffffffffffffffffffffffffffffff16906020019092919050505061112c565b604051808215151515815260200191505060405180910390f35b3480156104c357600080fd5b506104e260048036038101908080359060200190929190505050611149565b005b3480156104f057600080fd5b5061050f600480360381019080803590602001909291905050506113b1565b005b34801561051d57600080fd5b50610526611905565b604051808273ffffffffffffffffffffffffffffffffffffffff1673ffffffffffffffffffffffffffffffffffffffff16815260200191505060405180910390f35b34801561057457600080fd5b506105936004803603810190808035906020019092919050505061192b565b6040518082600360200280838360005b838110156105be5780820151818401526020810190506105a3565b5050505090500191505060405180910390f35b3480156105dd57600080fd5b50610612600480360381019080803573ffffffffffffffffffffffffffffffffffffffff169060200190929190505050611a59565b005b34801561062057600080fd5b50610629611a79565b604051808273ffffffffffffffffffffffffffffffffffffffff1673ffffffffffffffffffffffffffffffffffffffff16815260200191505060405180910390f35b34801561067757600080fd5b506106ac600480360381019080803573ffffffffffffffffffffffffffffffffffffffff169060200190929190505050611a9f565b005b3480156106ba57600080fd5b506106c3611cec565b6040518082815260200191505060405180910390f35b3480156106e557600080fd5b5061070460048036038101908080359060200190929190505050611cf2565b604051808215151515815260200191505060405180910390f35b34801561072a57600080fd5b50610733612038565b604051808273ffffffffffffffffffffffffffffffffffffffff1673ffffffffffffffffffffffffffffffffffffffff16815260200191505060405180910390f35b34801561078157600080fd5b5061078a61205e565b604051808215151515815260200191505060405180910390f35b3480156107b057600080fd5b506107b9612beb565b005b3480156107c757600080fd5b506107fc600480360381019080803573ffffffffffffffffffffffffffffffffffffffff169060200190929190505050612e64565b005b34801561080a57600080fd5b5061082d6004803603810190808035600019169060200190929190505050612e84565b6040518082815260200191505060405180910390f35b34801561084f57600080fd5b50610858612eac565b604051808273ffffffffffffffffffffffffffffffffffffffff1673ffffffffffffffffffffffffffffffffffffffff16815260200191505060405180910390f35b3480156108a657600080fd5b506108af612ed2565b604051808215151515815260200191505060405180910390f35b3480156108d557600080fd5b506108de613184565b005b3480156108ec57600080fd5b50610921600480360381019080803573ffffffffffffffffffffffffffffffffffffffff16906020019092919050505061318f565b6040518082815260200191505060405180910390f35b34801561094357600080fd5b5061096660048036038101908080356000191690602001909291905050506131db565b6040518082815260200191505060405180910390f35b34801561098857600080fd5b506109916132a0565b604051808273ffffffffffffffffffffffffffffffffffffffff1673ffffffffffffffffffffffffffffffffffffffff16815260200191505060405180910390f35b3480156109df57600080fd5b506109e86132c6565b604051808215151515815260200191505060405180910390f35b348015610a0e57600080fd5b50610a17613602565b6040518082815260200191505060405180910390f35b348015610a3957600080fd5b50610a42613608565b6040518082600360200280838360005b83811015610a6d578082015181840152602081019050610a52565b5050505090500191505060405180910390f35b348015610a8c57600080fd5b50610ac1600480360381019080803573ffffffffffffffffffffffffffffffffffffffff16906020019092919050505061372b565b005b348015610acf57600080fd5b50610b04600480360381019080803573ffffffffffffffffffffffffffffffffffffffff1690602001909291905050506137bf565b6040518080602001828103825283818151815260200191508051906020019060200280838360005b83811015610b47578082015181840152602081019050610b2c565b505050509050019250505060405180910390f35b348015610b6757600080fd5b50610b70613907565b6040518082815260200191505060405180910390f35b348015610b9257600080fd5b50610b9b613914565b604051808273ffffffffffffffffffffffffffffffffffffffff1673ffffffffffffffffffffffffffffffffffffffff16815260200191505060405180910390f35b348015610be957600080fd5b50610bf261393e565b005b610c54600480360381019080803573ffffffffffffffffffffffffffffffffffffffff1690602001909291908035906020019092919080356000191690602001909291908035906020019092919080359060200190929190505050613949565b005b348015610c6257600080fd5b50610c97600480360381019080803573ffffffffffffffffffffffffffffffffffffffff169060200190929190505050613ae2565b005b348015610ca557600080fd5b50610cda600480360381019080803573ffffffffffffffffffffffffffffffffffffffff169060200190929190505050613b02565b604051808215151515815260200191505060405180910390f35b348015610d0057600080fd5b50610d43600480360381019080803573ffffffffffffffffffffffffffffffffffffffff1690602001909291908035600019169060200190929190505050613b1f565b6040518082815260200191505060405180910390f35b348015610d6557600080fd5b50610d6e613c22565b6040518082815260200191505060405180910390f35b6060600b60020173__FundAccount___________________________6320e1e1d190916040518263ffffffff167c01000000000000000000000000000000000000000000000000000000000281526004018082815260200191505060006040518083038186803b158015610df757600080fd5b505af4158015610e0b573d6000803e3d6000fd5b505050506040513d6000823e3d601f19601f820116820180604052506020811015610e3557600080fd5b810190808051640100000000811115610e4d57600080fd5b82810190506020810184811115610e6357600080fd5b8151856020820283011164010000000082111715610e8057600080fd5b5050929190505050905090565b600660009054906101000a900473ffffffffffffffffffffffffffffffffffffffff1681565b6000600960009054906101000a900473ffffffffffffffffffffffffffffffffffffffff16905090565b610ee63361112c565b1515610ef157600080fd5b610efa81613c2f565b50565b6000600b60010154905090565b600360009054906101000a900473ffffffffffffffffffffffffffffffffffffffff1673ffffffffffffffffffffffffffffffffffffffff163373ffffffffffffffffffffffffffffffffffffffff16141515610f6657600080fd5b600073ffffffffffffffffffffffffffffffffffffffff168173ffffffffffffffffffffffffffffffffffffffff1614151515610fa257600080fd5b80600360006101000a81548173ffffffffffffffffffffffffffffffffffffffff021916908373ffffffffffffffffffffffffffffffffffffffff1602179055507f4101e71e974f68df5e9730cc223280b41654676bbb052cdcc735c3337e64d2d9600360009054906101000a900473ffffffffffffffffffffffffffffffffffffffff16604051808273ffffffffffffffffffffffffffffffffffffffff1673ffffffffffffffffffffffffffffffffffffffff16815260200191505060405180910390a150565b6000600b600001600083815260200190815260200160002060009054906101000a900460ff169050919050565b6110a13361112c565b15156110ac57600080fd5b600073ffffffffffffffffffffffffffffffffffffffff168173ffffffffffffffffffffffffffffffffffffffff16141515156110e857600080fd5b80600960006101000a81548173ffffffffffffffffffffffffffffffffffffffff021916908373ffffffffffffffffffffffffffffffffffffffff16021790555050565b6000611142826000613c8990919063ffffffff16565b9050919050565b61115161421e565b61115a33613b02565b151561116557600080fd5b6000600160046000828254019250508190555060045490506111868361192b565b9150600082600060038110151561119957fe5b60200201511115156111aa57600080fd5b6000600b60020173__FundAccount___________________________6320e1e1d190916040518263ffffffff167c01000000000000000000000000000000000000000000000000000000000281526004018082815260200191505060006040518083038186803b15801561121d57600080fd5b505af4158015611231573d6000803e3d6000fd5b505050506040513d6000823e3d601f19601f82011682018060405250602081101561125b57600080fd5b81019080805164010000000081111561127357600080fd5b8281019050602081018481111561128957600080fd5b81518560208202830111640100000000821117156112a657600080fd5b505092919050505051141515156112bc57600080fd5b6001600b60000160008460026003811015156112d457fe5b6020020151815260200190815260200160002060006101000a81548160ff02191690831515021790555061132982600060038110151561131057fe5b6020020151600b60010154613d1d90919063ffffffff16565b600b6001018190555061133b82613d3e565b3373ffffffffffffffffffffffffffffffffffffffff167f4a966617f50ccad97beb624d8e13820bf2a745e1640fed943858499286fc982983600060038110151561138257fe5b60200201516040518082815260200191505060405180910390a2600454811415156113ac57600080fd5b505050565b6000600160046000828254019250508190555060045490506113d161205e565b15156113dc57600080fd5b600082141515156113ec57600080fd5b81600b60080160003373ffffffffffffffffffffffffffffffffffffffff1673ffffffffffffffffffffffffffffffffffffffff168152602001908152602001600020541015151561143d57600080fd5b81600660009054906101000a900473ffffffffffffffffffffffffffffffffffffffff1673ffffffffffffffffffffffffffffffffffffffff166370a08231336040518263ffffffff167c0100000000000000000000000000000000000000000000000000000000028152600401808273ffffffffffffffffffffffffffffffffffffffff1673ffffffffffffffffffffffffffffffffffffffff168152602001915050602060405180830381600087803b1580156114fb57600080fd5b505af115801561150f573d6000803e3d6000fd5b505050506040513d602081101561152557600080fd5b81019080805190602001909291905050501015151561154357600080fd5b81600660009054906101000a900473ffffffffffffffffffffffffffffffffffffffff1673ffffffffffffffffffffffffffffffffffffffff1663dd62ed3e33306040518363ffffffff167c0100000000000000000000000000000000000000000000000000000000028152600401808373ffffffffffffffffffffffffffffffffffffffff1673ffffffffffffffffffffffffffffffffffffffff1681526020018273ffffffffffffffffffffffffffffffffffffffff1673ffffffffffffffffffffffffffffffffffffffff16815260200192505050602060405180830381600087803b15801561163557600080fd5b505af1158015611649573d6000803e3d6000fd5b505050506040513d602081101561165f57600080fd5b81019080805190602001909291905050501015151561167d57600080fd5b61168682613eab565b61169e82600b60070154613d1d90919063ffffffff16565b600b600701819055506116fc82600b60080160003373ffffffffffffffffffffffffffffffffffffffff1673ffffffffffffffffffffffffffffffffffffffff16815260200190815260200160002054613f9090919063ffffffff16565b600b60080160003373ffffffffffffffffffffffffffffffffffffffff1673ffffffffffffffffffffffffffffffffffffffff16815260200190815260200160002081905550600660009054906101000a900473ffffffffffffffffffffffffffffffffffffffff1673ffffffffffffffffffffffffffffffffffffffff166323b872dd33600860009054906101000a900473ffffffffffffffffffffffffffffffffffffffff16856040518463ffffffff167c0100000000000000000000000000000000000000000000000000000000028152600401808473ffffffffffffffffffffffffffffffffffffffff1673ffffffffffffffffffffffffffffffffffffffff1681526020018373ffffffffffffffffffffffffffffffffffffffff1673ffffffffffffffffffffffffffffffffffffffff1681526020018281526020019350505050602060405180830381600087803b15801561185d57600080fd5b505af1158015611871573d6000803e3d6000fd5b505050506040513d602081101561188757600080fd5b810190808051906020019092919050505015156118a357600080fd5b3373ffffffffffffffffffffffffffffffffffffffff167fb7feb6c1d7169f40790388a31c0160d8f962a2b6c31970c28bd8cdfefa25ea29836040518082815260200191505060405180910390a26004548114151561190157600080fd5b5050565b601560009054906101000a900473ffffffffffffffffffffffffffffffffffffffff1681565b61193361421e565b73__Fund__________________________________634ff45efe600b61195885611cf2565b600560009054906101000a900473ffffffffffffffffffffffffffffffffffffffff16866040518563ffffffff167c010000000000000000000000000000000000000000000000000000000002815260040180858152602001841515151581526020018373ffffffffffffffffffffffffffffffffffffffff1673ffffffffffffffffffffffffffffffffffffffff16815260200182815260200194505050505060606040518083038186803b158015611a1157600080fd5b505af4158015611a25573d6000803e3d6000fd5b505050506040513d601f19601f820116820180604052506060811015611a4a57600080fd5b81019080919050509050919050565b611a623361112c565b1515611a6d57600080fd5b611a7681613fb1565b50565b600760009054906101000a900473ffffffffffffffffffffffffffffffffffffffff1681565b611aa83361112c565b1515611ab357600080fd5b600073ffffffffffffffffffffffffffffffffffffffff168173ffffffffffffffffffffffffffffffffffffffff1614151515611aef57600080fd5b600073ffffffffffffffffffffffffffffffffffffffff168173ffffffffffffffffffffffffffffffffffffffff16634090cb646040518163ffffffff167c0100000000000000000000000000000000000000000000000000000000028152600401602060405180830381600087803b158015611b6b57600080fd5b505af1158015611b7f573d6000803e3d6000fd5b505050506040513d6020811015611b9557600080fd5b810190808051906020019092919050505073ffffffffffffffffffffffffffffffffffffffff1614151515611bc957600080fd5b80600560006101000a81548173ffffffffffffffffffffffffffffffffffffffff021916908373ffffffffffffffffffffffffffffffffffffffff1602179055508073ffffffffffffffffffffffffffffffffffffffff16634090cb646040518163ffffffff167c0100000000000000000000000000000000000000000000000000000000028152600401602060405180830381600087803b158015611c6e57600080fd5b505af1158015611c82573d6000803e3d6000fd5b505050506040513d6020811015611c9857600080fd5b8101908080519060200190929190505050600660006101000a81548173ffffffffffffffffffffffffffffffffffffffff021916908373ffffffffffffffffffffffffffffffffffffffff16021790555050565b60025481565b600080600080600080600080600560009054906101000a900473ffffffffffffffffffffffffffffffffffffffff1673ffffffffffffffffffffffffffffffffffffffff166314f66d346040518163ffffffff167c01000000000000000000000000000000000000000000000000000000000281526004016040805180830381600087803b158015611d8357600080fd5b505af1158015611d97573d6000803e3d6000fd5b505050506040513d6040811015611dad57600080fd5b810190808051906020019092919080519060200190929190505050965096506002600560009054906101000a900473ffffffffffffffffffffffffffffffffffffffff1673ffffffffffffffffffffffffffffffffffffffff16633c9d5c756040518163ffffffff167c0100000000000000000000000000000000000000000000000000000000028152600401602060405180830381600087803b158015611e5457600080fd5b505af1158015611e68573d6000803e3d6000fd5b505050506040513d6020811015611e7e57600080fd5b810190808051906020019092919050505060ff16141515611ea2576000975061202c565b851515611eae5761202c565b86891115611ebf576000975061202c565b601560009054906101000a900473ffffffffffffffffffffffffffffffffffffffff1694508473ffffffffffffffffffffffffffffffffffffffff1663ccb0b4e4600560009054906101000a900473ffffffffffffffffffffffffffffffffffffffff168b6040518363ffffffff167c0100000000000000000000000000000000000000000000000000000000028152600401808373ffffffffffffffffffffffffffffffffffffffff1673ffffffffffffffffffffffffffffffffffffffff16815260200182815260200192505050608060405180830381600087803b158015611fa957600080fd5b505af1158015611fbd573d6000803e3d6000fd5b505050506040513d6080811015611fd357600080fd5b8101908080519060200190929190805190602001909291908051906020019092919080519060200190929190505050935093509350935060028281151561201657fe5b04841115612027576001975061202c565b600097505b50505050505050919050565b600960009054906101000a900473ffffffffffffffffffffffffffffffffffffffff1681565b600080600080600080600080600080600560009054906101000a900473ffffffffffffffffffffffffffffffffffffffff1673ffffffffffffffffffffffffffffffffffffffff1663d6d65f3d6040518163ffffffff167c01000000000000000000000000000000000000000000000000000000000281526004016040805180830381600087803b1580156120f257600080fd5b505af1158015612106573d6000803e3d6000fd5b505050506040513d604081101561211c57600080fd5b8101908080519060200190929190805190602001909291905050505098506002600560009054906101000a900473ffffffffffffffffffffffffffffffffffffffff1673ffffffffffffffffffffffffffffffffffffffff16633c9d5c756040518163ffffffff167c0100000000000000000000000000000000000000000000000000000000028152600401602060405180830381600087803b1580156121c257600080fd5b505af11580156121d6573d6000803e3d6000fd5b505050506040513d60208110156121ec57600080fd5b810190808051906020019092919050505060ff16141561251b576000600560009054906101000a900473ffffffffffffffffffffffffffffffffffffffff1673ffffffffffffffffffffffffffffffffffffffff1663d45c16026040518163ffffffff167c0100000000000000000000000000000000000000000000000000000000028152600401602060405180830381600087803b15801561228e57600080fd5b505af11580156122a2573d6000803e3d6000fd5b505050506040513d60208110156122b857600080fd5b810190808051906020019092919050505011156123aa57600560009054906101000a900473ffffffffffffffffffffffffffffffffffffffff1673ffffffffffffffffffffffffffffffffffffffff1663d45c16026040518163ffffffff167c0100000000000000000000000000000000000000000000000000000000028152600401602060405180830381600087803b15801561235557600080fd5b505af1158015612369573d6000803e3d6000fd5b505050506040513d602081101561237f57600080fd5b8101908080519060200190929190505050421015156123a15760019950612bdf565b60009950612bdf565b601560009054906101000a900473ffffffffffffffffffffffffffffffffffffffff1697508773ffffffffffffffffffffffffffffffffffffffff1663ccb0b4e4600560009054906101000a900473ffffffffffffffffffffffffffffffffffffffff168b6040518363ffffffff167c0100000000000000000000000000000000000000000000000000000000028152600401808373ffffffffffffffffffffffffffffffffffffffff1673ffffffffffffffffffffffffffffffffffffffff16815260200182815260200192505050608060405180830381600087803b15801561249457600080fd5b505af11580156124a8573d6000803e3d6000fd5b505050506040513d60808110156124be57600080fd5b8101908080519060200190929190805190602001909291908051906020019092919080519060200190929190505050965096509650965060028581151561250157fe5b048711156125125760019950612bdf565b60009950612bdf565b6000600560009054906101000a900473ffffffffffffffffffffffffffffffffffffffff1673ffffffffffffffffffffffffffffffffffffffff16633c9d5c756040518163ffffffff167c0100000000000000000000000000000000000000000000000000000000028152600401602060405180830381600087803b1580156125a357600080fd5b505af11580156125b7573d6000803e3d6000fd5b505050506040513d60208110156125cd57600080fd5b810190808051906020019092919050505060ff1614156127c45760008914156125f557612bdf565b600560009054906101000a900473ffffffffffffffffffffffffffffffffffffffff1673ffffffffffffffffffffffffffffffffffffffff16632442e1cb8a6040518263ffffffff167c010000000000000000000000000000000000000000000000000000000002815260040180828152602001915050600060405180830381600087803b15801561268657600080fd5b505af115801561269a573d6000803e3d6000fd5b505050506040513d6000823e3d601f19601f8201168201806040525060c08110156126c457600080fd5b8101908080519060200190929190805190602001909291908051906020019092919080519060200190929190805164010000000081111561270457600080fd5b8281019050602081018481111561271a57600080fd5b815185600182028301116401000000008211171561273757600080fd5b5050929190602001805164010000000081111561275357600080fd5b8281019050602081018481111561276957600080fd5b815185600182028301116401000000008211171561278657600080fd5b50509291905050509091929350909192509050508093508194505050428363ffffffff16111580156127bd57508163ffffffff1642105b9950612bdf565b6001600560009054906101000a900473ffffffffffffffffffffffffffffffffffffffff1673ffffffffffffffffffffffffffffffffffffffff16633c9d5c756040518163ffffffff167c0100000000000000000000000000000000000000000000000000000000028152600401602060405180830381600087803b15801561284c57600080fd5b505af1158015612860573d6000803e3d6000fd5b505050506040513d602081101561287657600080fd5b810190808051906020019092919050505060ff161415612bde57600089141561289e57612bdf565b600560009054906101000a900473ffffffffffffffffffffffffffffffffffffffff1673ffffffffffffffffffffffffffffffffffffffff16632442e1cb8a6040518263ffffffff167c010000000000000000000000000000000000000000000000000000000002815260040180828152602001915050600060405180830381600087803b15801561292f57600080fd5b505af1158015612943573d6000803e3d6000fd5b505050506040513d6000823e3d601f19601f8201168201806040525060c081101561296d57600080fd5b810190808051906020019092919080519060200190929190805190602001909291908051906020019092919080516401000000008111156129ad57600080fd5b828101905060208101848111156129c357600080fd5b81518560018202830111640100000000821117156129e057600080fd5b505092919060200180516401000000008111156129fc57600080fd5b82810190506020810184811115612a1257600080fd5b8151856001820283011164010000000082111715612a2f57600080fd5b50509291905050505050945050509250428363ffffffff1611158015612a5a57508163ffffffff1642105b9050601560009054906101000a900473ffffffffffffffffffffffffffffffffffffffff1697508773ffffffffffffffffffffffffffffffffffffffff1663ccb0b4e4600560009054906101000a900473ffffffffffffffffffffffffffffffffffffffff168b6040518363ffffffff167c0100000000000000000000000000000000000000000000000000000000028152600401808373ffffffffffffffffffffffffffffffffffffffff1673ffffffffffffffffffffffffffffffffffffffff16815260200182815260200192505050608060405180830381600087803b158015612b4657600080fd5b505af1158015612b5a573d6000803e3d6000fd5b505050506040513d6080811015612b7057600080fd5b8101908080519060200190929190805190602001909291908051906020019092919080519060200190929190505050809750819850829950839a5050505050600285811515612bbb57fe5b0487118015612bc75750805b15612bd55760019950612bdf565b60009950612bdf565b5b50505050505050505090565b612bf361421e565b612bfc33613b02565b1515612c0757600080fd5b600060016004600082825401925050819055506004549050612c276132c6565b1515612c3257600080fd5b612c3a613608565b91506000826000600381101515612c4d57fe5b6020020151111515612c5e57600080fd5b6000600b60020173__FundAccount___________________________6320e1e1d190916040518263ffffffff167c01000000000000000000000000000000000000000000000000000000000281526004018082815260200191505060006040518083038186803b158015612cd157600080fd5b505af4158015612ce5573d6000803e3d6000fd5b505050506040513d6000823e3d601f19601f820116820180604052506020811015612d0f57600080fd5b810190808051640100000000811115612d2757600080fd5b82810190506020810184811115612d3d57600080fd5b8151856020820283011164010000000082111715612d5a57600080fd5b50509291905050505114151515612d7057600080fd5b6001600b6000016000846002600381101515612d8857fe5b6020020151815260200190815260200160002060006101000a81548160ff021916908315150217905550612ddd826000600381101515612dc457fe5b6020020151600b60010154613d1d90919063ffffffff16565b600b60010181905550612def82613d3e565b3373ffffffffffffffffffffffffffffffffffffffff167f4a966617f50ccad97beb624d8e13820bf2a745e1640fed943858499286fc9829836000600381101515612e3657fe5b60200201516040518082815260200191505060405180910390a260045481141515612e6057600080fd5b5050565b612e6d3361112c565b1515612e7857600080fd5b612e818161400b565b50565b6000600b60050160008360001916600019168152602001908152602001600020549050919050565b600860009054906101000a900473ffffffffffffffffffffffffffffffffffffffff1681565b6000806000806000600560009054906101000a900473ffffffffffffffffffffffffffffffffffffffff1673ffffffffffffffffffffffffffffffffffffffff1663d6d65f3d6040518163ffffffff167c01000000000000000000000000000000000000000000000000000000000281526004016040805180830381600087803b158015612f5f57600080fd5b505af1158015612f73573d6000803e3d6000fd5b505050506040513d6040811015612f8957600080fd5b810190808051906020019092919080519060200190929190505050935093506000841480612fb5575082155b15612fbf5761317d565b600560009054906101000a900473ffffffffffffffffffffffffffffffffffffffff1673ffffffffffffffffffffffffffffffffffffffff16632442e1cb856040518263ffffffff167c010000000000000000000000000000000000000000000000000000000002815260040180828152602001915050600060405180830381600087803b15801561305057600080fd5b505af1158015613064573d6000803e3d6000fd5b505050506040513d6000823e3d601f19601f8201168201806040525060c081101561308e57600080fd5b810190808051906020019092919080519060200190929190805190602001909291908051906020019092919080516401000000008111156130ce57600080fd5b828101905060208101848111156130e457600080fd5b815185600182028301116401000000008211171561310157600080fd5b5050929190602001805164010000000081111561311d57600080fd5b8281019050602081018481111561313357600080fd5b815185600182028301116401000000008211171561315057600080fd5b50509291905050505050935050509150428263ffffffff16118061317a57508063ffffffff164210155b94505b5050505090565b61318d33613c2f565b565b6000600b60080160008373ffffffffffffffffffffffffffffffffffffffff1673ffffffffffffffffffffffffffffffffffffffff168152602001908152602001600020549050919050565b6000600b60020173__FundAccount___________________________6375dff1389091846040518363ffffffff167c01000000000000000000000000000000000000000000000000000000000281526004018083815260200182600019166000191681526020019250505060206040518083038186803b15801561325e57600080fd5b505af4158015613272573d6000803e3d6000fd5b505050506040513d602081101561328857600080fd5b81019080805190602001909291905050509050919050565b600560009054906101000a900473ffffffffffffffffffffffffffffffffffffffff1681565b600080600080600080600080600560009054906101000a900473ffffffffffffffffffffffffffffffffffffffff1673ffffffffffffffffffffffffffffffffffffffff1663d6d65f3d6040518163ffffffff167c01000000000000000000000000000000000000000000000000000000000281526004016040805180830381600087803b15801561335757600080fd5b505af115801561336b573d6000803e3d6000fd5b505050506040513d604081101561338157600080fd5b810190808051906020019092919080519060200190929190505050965096508515156133ac576135f8565b6001600560009054906101000a900473ffffffffffffffffffffffffffffffffffffffff1673ffffffffffffffffffffffffffffffffffffffff16633c9d5c756040518163ffffffff167c0100000000000000000000000000000000000000000000000000000000028152600401602060405180830381600087803b15801561343457600080fd5b505af1158015613448573d6000803e3d6000fd5b505050506040513d602081101561345e57600080fd5b810190808051906020019092919050505060ff1614156135e257601560009054906101000a900473ffffffffffffffffffffffffffffffffffffffff1694508473ffffffffffffffffffffffffffffffffffffffff1663ccb0b4e4600560009054906101000a900473ffffffffffffffffffffffffffffffffffffffff16896040518363ffffffff167c0100000000000000000000000000000000000000000000000000000000028152600401808373ffffffffffffffffffffffffffffffffffffffff1673ffffffffffffffffffffffffffffffffffffffff16815260200182815260200192505050608060405180830381600087803b15801561356257600080fd5b505af1158015613576573d6000803e3d6000fd5b505050506040513d608081101561358c57600080fd5b810190808051906020019092919080519060200190929190805190602001909291908051906020019092919050505093509350935093506002828115156135cf57fe5b04841115156135e157600097506135f8565b5b60008714806135f557506135f4612ed2565b5b97505b5050505050505090565b600a5481565b61361061421e565b73__Fund__________________________________63c4466008600b6136346132c6565b600560009054906101000a900473ffffffffffffffffffffffffffffffffffffffff166040518463ffffffff167c010000000000000000000000000000000000000000000000000000000002815260040180848152602001831515151581526020018273ffffffffffffffffffffffffffffffffffffffff1673ffffffffffffffffffffffffffffffffffffffff168152602001935050505060606040518083038186803b1580156136e557600080fd5b505af41580156136f9573d6000803e3d6000fd5b505050506040513d601f19601f82011682018060405250606081101561371e57600080fd5b8101908091905050905090565b6137343361112c565b151561373f57600080fd5b600073ffffffffffffffffffffffffffffffffffffffff168173ffffffffffffffffffffffffffffffffffffffff161415151561377b57600080fd5b80600860006101000a81548173ffffffffffffffffffffffffffffffffffffffff021916908373ffffffffffffffffffffffffffffffffffffffff16021790555050565b6060600b60090160008373ffffffffffffffffffffffffffffffffffffffff1673ffffffffffffffffffffffffffffffffffffffff16815260200190815260200160002073__FundAccount___________________________6320e1e1d190916040518263ffffffff167c01000000000000000000000000000000000000000000000000000000000281526004018082815260200191505060006040518083038186803b15801561386f57600080fd5b505af4158015613883573d6000803e3d6000fd5b505050506040513d6000823e3d601f19601f8201168201806040525060208110156138ad57600080fd5b8101908080516401000000008111156138c557600080fd5b828101905060208101848111156138db57600080fd5b81518560208202830111640100000000821117156138f857600080fd5b50509291905050509050919050565b6000600b60060154905090565b6000600360009054906101000a900473ffffffffffffffffffffffffffffffffffffffff16905090565b61394733614065565b565b600560009054906101000a900473ffffffffffffffffffffffffffffffffffffffff1673ffffffffffffffffffffffffffffffffffffffff163373ffffffffffffffffffffffffffffffffffffffff161415156139a557600080fd5b73__Fund__________________________________6346d1230a600b8787878787600760009054906101000a900473ffffffffffffffffffffffffffffffffffffffff166040518863ffffffff167c0100000000000000000000000000000000000000000000000000000000028152600401808881526020018773ffffffffffffffffffffffffffffffffffffffff1673ffffffffffffffffffffffffffffffffffffffff16815260200186815260200185600019166000191681526020018481526020018381526020018273ffffffffffffffffffffffffffffffffffffffff1673ffffffffffffffffffffffffffffffffffffffff16815260200197505050505050505060006040518083038186803b158015613ac357600080fd5b505af4158015613ad7573d6000803e3d6000fd5b505050505050505050565b613aeb3361112c565b1515613af657600080fd5b613aff81614065565b50565b6000613b18826001613c8990919063ffffffff16565b9050919050565b6000600b60090160008473ffffffffffffffffffffffffffffffffffffffff1673ffffffffffffffffffffffffffffffffffffffff16815260200190815260200160002073__FundAccount___________________________6375dff1389091846040518363ffffffff167c01000000000000000000000000000000000000000000000000000000000281526004018083815260200182600019166000191681526020019250505060206040518083038186803b158015613bdf57600080fd5b505af4158015613bf3573d6000803e3d6000fd5b505050506040513d6020811015613c0957600080fd5b8101908080519060200190929190505050905092915050565b6000600b60070154905090565b613c438160006140bf90919063ffffffff16565b8073ffffffffffffffffffffffffffffffffffffffff167fa3b62bc36326052d97ea62d63c3d60308ed4c3ea8ac079dd8499f1e9c4f80c0f60405160405180910390a250565b60008073ffffffffffffffffffffffffffffffffffffffff168273ffffffffffffffffffffffffffffffffffffffff1614151515613cc657600080fd5b8260000160008373ffffffffffffffffffffffffffffffffffffffff1673ffffffffffffffffffffffffffffffffffffffff16815260200190815260200160002060009054906101000a900460ff16905092915050565b6000808284019050838110151515613d3457600080fd5b8091505092915050565b73__Fund__________________________________6369b3e2d2600b83600a54600960009054906101000a900473ffffffffffffffffffffffffffffffffffffffff16600760009054906101000a900473ffffffffffffffffffffffffffffffffffffffff166040518663ffffffff167c01000000000000000000000000000000000000000000000000000000000281526004018086815260200185600360200280838360005b83811015613e00578082015181840152602081019050613de5565b505050509050018481526020018373ffffffffffffffffffffffffffffffffffffffff1673ffffffffffffffffffffffffffffffffffffffff1681526020018273ffffffffffffffffffffffffffffffffffffffff1673ffffffffffffffffffffffffffffffffffffffff1681526020019550505050505060006040518083038186803b158015613e9057600080fd5b505af4158015613ea4573d6000803e3d6000fd5b5050505050565b73__Fund__________________________________63e0650238600b83600760009054906101000a900473ffffffffffffffffffffffffffffffffffffffff166040518463ffffffff167c0100000000000000000000000000000000000000000000000000000000028152600401808481526020018381526020018273ffffffffffffffffffffffffffffffffffffffff1673ffffffffffffffffffffffffffffffffffffffff168152602001935050505060006040518083038186803b158015613f7557600080fd5b505af4158015613f89573d6000803e3d6000fd5b5050505050565b600080838311151515613fa257600080fd5b82840390508091505092915050565b613fc581600161416e90919063ffffffff16565b8073ffffffffffffffffffffffffffffffffffffffff167f941e31c3e651de34a7fcf0132d9d02c2df9377e6b5f932bec5daf6353c94f90e60405160405180910390a250565b61401f81600061416e90919063ffffffff16565b8073ffffffffffffffffffffffffffffffffffffffff167f44d6d25963f097ad14f29f06854a01f575648a1ef82f30e562ccd3889717e33960405160405180910390a250565b6140798160016140bf90919063ffffffff16565b8073ffffffffffffffffffffffffffffffffffffffff167fa3bfdef3d8149bacf15b7b64199fca8228c0fd4f8fcdd11cc7871829baf319c360405160405180910390a250565b600073ffffffffffffffffffffffffffffffffffffffff168173ffffffffffffffffffffffffffffffffffffffff16141515156140fb57600080fd5b6141058282613c89565b151561411057600080fd5b60008260000160008373ffffffffffffffffffffffffffffffffffffffff1673ffffffffffffffffffffffffffffffffffffffff16815260200190815260200160002060006101000a81548160ff0219169083151502179055505050565b600073ffffffffffffffffffffffffffffffffffffffff168173ffffffffffffffffffffffffffffffffffffffff16141515156141aa57600080fd5b6141b48282613c89565b1515156141c057600080fd5b60018260000160008373ffffffffffffffffffffffffffffffffffffffff1673ffffffffffffffffffffffffffffffffffffffff16815260200190815260200160002060006101000a81548160ff0219169083151502179055505050565b6060604051908101604052806003906020820280388339808201915050905050905600a165627a7a7230582079a0ba299aeec633083438076008d886986580898f650cc3834a00c6cb1ac5aa0029",
  "source": "pragma solidity 0.4.24;\n\nimport \"openzeppelin-solidity/contracts/ownership/Secondary.sol\";\nimport \"openzeppelin-solidity/contracts/utils/ReentrancyGuard.sol\";\nimport \"openzeppelin-solidity/contracts/math/SafeMath.sol\";\nimport \"openzeppelin-solidity/contracts/token/ERC20/IERC20.sol\";\nimport \"./IW12Crowdsale.sol\";\nimport \"./IW12Fund.sol\";\nimport \"../rates/IRates.sol\";\nimport \"../libs/Utils.sol\";\nimport \"../libs/Percent.sol\";\nimport \"../libs/FundAccount.sol\";\nimport \"../libs/Fund.sol\";\nimport \"../versioning/Versionable.sol\";\nimport \"../token/IWToken.sol\";\nimport \"../access/roles/AdminRole.sol\";\nimport \"../access/roles/ProjectOwnerRole.sol\";\nimport \"./IOracleBallot.sol\";\n\n\n\n\n\ncontract W12Fund is IW12Fund, AdminRole, ProjectOwnerRole, Versionable, Secondary, ReentrancyGuard {\n    using SafeMath for uint;\n    using Percent for uint;\n    using FundAccount for FundAccount.Account;\n\n    bytes32 constant internal METHOD_ETH = bytes32(\"ETH\");\n    bytes32 constant internal METHOD_USD = bytes32(\"USD\");\n\n    IW12Crowdsale public crowdsale;\n    IWToken public wToken;\n    IRates public rates;\n    address public swap;\n    address public serviceWallet;\n    // fee for realised tranche\n    uint public trancheFeePercent;\n\n    Fund.State private state;\n\n    address public oracles;\n\n    event FundsReceived(address indexed investor, uint tokenAmount, bytes32 symbol, uint cost);\n    event AssetRefunded(address indexed investor, bytes32 symbol, uint amount);\n    event TokenRefunded(address indexed investor, uint tokenAmount);\n    event TrancheTransferred(address indexed receiver, bytes32 symbol, uint amount);\n    event TrancheReleased(address indexed receiver, uint percent);\n\n    constructor(uint version, uint _trancheFeePercent, IRates _rates, address oracles_addr) public Versionable(version) {\n        require(_trancheFeePercent.isPercent() && _trancheFeePercent.fromPercent() < 100);\n        require(_rates != address(0));\n        require(oracles_addr != address(0));\n\n        trancheFeePercent = _trancheFeePercent;\n        rates = _rates;\n        oracles = oracles_addr;\n    }\n\n    function setCrowdsale(IW12Crowdsale _crowdsale) external onlyAdmin {\n        require(_crowdsale != address(0));\n        require(_crowdsale.getWToken() != address(0));\n\n        crowdsale = _crowdsale;\n        wToken = IWToken(_crowdsale.getWToken());\n    }\n\n    function setSwap(address _swap) external onlyAdmin {\n        require(_swap != address(0));\n\n        swap = _swap;\n    }\n\n    function setServiceWallet(address _serviceWallet) external onlyAdmin {\n        require(_serviceWallet != address(0));\n\n        serviceWallet = _serviceWallet;\n    }\n\n    function getServiceWallet() public view returns(address)\n    {\n        return serviceWallet;\n    }\n\n    /**\n     * @dev Record purchase result to the fund and check the fund balance\n     * @param investor An investor address\n     * @param tokenAmount Token amount that was bought\n     * @param symbol Symbol of payment method\n     * @param cost Cost of token amount\n     * @param costUSD Cost in USD\n     */\n    function recordPurchase(\n        address investor,\n        uint tokenAmount,\n        bytes32 symbol,\n        uint cost,\n        uint costUSD\n    )\n        external payable onlyCrowdsale\n    {\n        Fund.recordPurchase(\n            state,\n            investor,\n            tokenAmount,\n            symbol,\n            cost,\n            costUSD,\n            rates\n        );\n    }\n\n    /**\n     * @notice Realise project tranche\n     */\n    function tranche() external onlyProjectOwner nonReentrant {\n        require(trancheTransferAllowed());\n\n        uint[3] memory trancheInvoice = getTrancheInvoice();\n\n        require(trancheInvoice[0] > 0);\n        require(state.totalFunded.symbolsList().length != 0);\n\n        state.completedTranches[trancheInvoice[2]] = true;\n        state.totalTranchePercentReleased = state.totalTranchePercentReleased.add(trancheInvoice[0]);\n\n        _transferTranche(trancheInvoice);\n\n        emit TrancheReleased(msg.sender, trancheInvoice[0]);\n    }\n\n\n    function tranche_index(uint index) external onlyProjectOwner nonReentrant\n    {\n        uint[3] memory trancheInvoice = getTrancheInvoiceIndex(index);\n\n        require(trancheInvoice[0] > 0);\n        require(state.totalFunded.symbolsList().length != 0);\n\n        state.completedTranches[trancheInvoice[2]] = true;\n        state.totalTranchePercentReleased = state.totalTranchePercentReleased.add(trancheInvoice[0]);\n\n        _transferTranche(trancheInvoice);\n\n        emit TrancheReleased(msg.sender, trancheInvoice[0]);\n    }\n\n    /**\n     * @notice Refund bought tokens\n     */\n    function refund(uint tokenAmount) external nonReentrant {\n        require(tokenRefundAllowed());\n        require(tokenAmount != 0);\n        require(state.tokenBoughtPerInvestor[msg.sender] >= tokenAmount);\n        require(wToken.balanceOf(msg.sender) >= tokenAmount);\n        require(wToken.allowance(msg.sender, address(this)) >= tokenAmount);\n\n        _refundAssets(tokenAmount);\n\n        state.totalTokenRefunded = state.totalTokenRefunded.add(tokenAmount);\n        state.tokenBoughtPerInvestor[msg.sender] = state.tokenBoughtPerInvestor[msg.sender].sub(tokenAmount);\n\n        require(wToken.transferFrom(msg.sender, swap, tokenAmount));\n\n        emit TokenRefunded(msg.sender, tokenAmount);\n    }\n\n    function addAdmin(address _account) public onlyAdmin {\n        _addAdmin(_account);\n    }\n\n    function removeAdmin(address _account) public onlyAdmin {\n        _removeAdmin(_account);\n    }\n\n    function addProjectOwner(address _account) public onlyAdmin {\n        _addProjectOwner(_account);\n    }\n\n    function removeProjectOwner(address _account) public onlyAdmin {\n        _removeProjectOwner(_account);\n    }\n\n    // total percent of realised project tranche\n    function totalTranchePercentReleased() public view returns (uint) {\n        return state.totalTranchePercentReleased;\n    }\n\n    function completedTranches(uint milestoneIndex) public view returns (bool) {\n        return state.completedTranches[milestoneIndex];\n    }\n\n    // total amount of bought token\n    function totalTokenBought() public view returns (uint) {\n        return state.totalTokenBought;\n    }\n\n    // total amount of refunded token\n    function totalTokenRefunded() public view returns (uint) {\n        return state.totalTokenRefunded;\n    }\n\n    function getInvestorFundedAmount(address _investor, bytes32 _symbol) public view returns(uint) {\n        return state.fundedPerInvestor[_investor].amountOf(_symbol);\n    }\n\n    function getInvestorFundedAssetsSymbols(address _investor) public view returns(bytes32[]) {\n        return state.fundedPerInvestor[_investor].symbolsList();\n    }\n\n    function getInvestorTokenBoughtAmount(address _investor) public view returns (uint) {\n        return state.tokenBoughtPerInvestor[_investor];\n    }\n\n    function getTotalFundedAmount(bytes32 _symbol) public view returns (uint) {\n        return state.totalFunded.amountOf(_symbol);\n    }\n\n    function getTotalFundedAssetsSymbols() public view returns (bytes32[]) {\n        return state.totalFunded.symbolsList();\n    }\n\n    function getTotalFundedReleased(bytes32 _symbol) public view returns (uint) {\n        return state.totalFundedReleased[_symbol];\n    }\n\n    /**\n     * @notice Get tranche invoice\n     * @return uint[3] result:\n     * [tranchePercent, totalTranchePercentBefore, milestoneIndex]\n     */\n    function getTrancheInvoice() public view returns (uint[3] result) {\n        return Fund.getTrancheInvoice(\n            state,\n            trancheTransferAllowed(),\n            crowdsale\n        );\n    }\n\n\n    function getTrancheInvoiceIndex(uint index) public view returns (uint[3] result) {\n        return Fund.getTrancheInvoiceIndex(\n            state,\n            trancheTransferAllowedIndex(index),\n            crowdsale,\n            index\n        );\n    }\n\n    function tokenRefundAllowed() public view returns (bool)\n    {\n        (uint index, /* bool found */) = crowdsale.getCurrentMilestoneIndex();\n\n        if(crowdsale.getProjectType() == 2)\n        {\n            if(crowdsale.getRefundDate() > 0)\n            {\n                if(now >= crowdsale.getRefundDate())\n                {\n                    return true;\n                }\n                return false;\n            }\n\n            OracleBallot oracle = OracleBallot(oracles);\n\n            (uint vote_y, uint vote_n, uint vote_all, bool can_vote) = oracle.get_vote_result(crowdsale, index);\n\n            if(vote_y > vote_all / 2)\n                return true;\n            else\n                return false;\n        }\n        if(crowdsale.getProjectType() == 0)\n        {\n            // first milestone is reserved for the project to claim initial amount of payments.\n            // No refund allowed at this stage.\n            if (index == 0) return;\n\n            (endDate, , , withdrawalWindow, ,) = crowdsale.getMilestone(index);\n\n            return endDate <= now && now < withdrawalWindow;\n        }\n        if(crowdsale.getProjectType() == 1)\n        {\n            // first milestone is reserved for the project to claim initial amount of payments.\n            // No refund allowed at this stage.\n            if (index == 0) return;\n\n            (uint32 endDate, , , uint32 withdrawalWindow, ,) = crowdsale.getMilestone(index);\n\n            bool flag = endDate <= now && now < withdrawalWindow;\n\n            oracle = OracleBallot(oracles);\n\n            (vote_y, vote_n, vote_all, can_vote) = oracle.get_vote_result(crowdsale, index);\n\n            if(vote_y > vote_all / 2 && flag)\n                return true;\n            else\n                return false;\n        }\n    }\n\n    function trancheTransferAllowed() public view returns (bool)\n    {\n        (uint index, bool found) = crowdsale.getCurrentMilestoneIndex();\n\n        if (!found) return;\n\n        if(crowdsale.getProjectType() == 1)\n        {\n            OracleBallot oracle = OracleBallot(oracles);\n\n            (uint vote_y, uint vote_n, uint vote_all, bool can_vote) = oracle.get_vote_result(crowdsale, index);\n\n            if(vote_y <= vote_all / 2)\n                return false;\n        }\n\n        return index == 0 || isWithdrawalWindowActive();\n    }\n\n    function trancheTransferAllowedIndex(uint index) public view returns (bool)\n    {\n        (uint last_index, bool found) = crowdsale.getLastMilestoneIndex();\n\n        if(crowdsale.getProjectType() != 2)\n        {\n            return false;\n        }\n\n        if (!found) return;\n\n        if(index > last_index)\n            return false;\n\n        OracleBallot oracle = OracleBallot(oracles);\n\n        (uint vote_y, uint vote_n, uint vote_all, bool can_vote) = oracle.get_vote_result(crowdsale, index);\n\n        if(vote_y > vote_all / 2)\n            return true;\n        else\n            return false;\n    }\n\n    function isWithdrawalWindowActive() public view returns (bool) {\n        (uint index, bool found) = crowdsale.getCurrentMilestoneIndex();\n\n        if (index == 0 || !found) return;\n\n        (uint32 endDate, , , uint32 lastWithdrawalWindow, ,) = crowdsale.getMilestone(index);\n\n        return endDate > now || now >= lastWithdrawalWindow;\n    }\n\n    function _transferTranche(uint[3] _invoice) internal {\n        Fund.transferTranche(\n            state,\n            _invoice,\n            trancheFeePercent,\n            serviceWallet,\n            rates\n        );\n    }\n\n    function _refundAssets(uint tokenAmount) internal {\n        Fund.refundAssets(\n            state,\n            tokenAmount,\n            rates\n        );\n    }\n\n    modifier onlyCrowdsale {\n        require(msg.sender == address(crowdsale));\n        _;\n    }\n}\n",
  "sourcePath": "/Users/gauss/_games/w12/Protocol/contracts/crowdsale/W12Fund.sol",
  "compiler": {
    "name": "solc",
    "version": "0.4.24+commit.e67f0147.Emscripten.clang"
  },
  "schemaVersion": "3.0.16",
  "updatedAt": "2019-10-06T23:01:18.488Z",
  "devdoc": {
    "methods": {
      "getTrancheInvoice()": {
        "return": "uint[3] result: [tranchePercent, totalTranchePercentBefore, milestoneIndex]"
      },
      "primary()": {
        "return": "the address of the primary."
      },
      "recordPurchase(address,uint256,bytes32,uint256,uint256)": {
        "details": "Record purchase result to the fund and check the fund balance",
        "params": {
          "cost": "Cost of token amount",
          "costUSD": "Cost in USD",
          "investor": "An investor address",
          "symbol": "Symbol of payment method",
          "tokenAmount": "Token amount that was bought"
        }
      },
      "transferPrimary(address)": {
        "details": "Transfers contract to a new primary.",
        "params": {
          "recipient": "The address of new primary. "
        }
      }
    }
  },
  "userdoc": {
    "methods": {
      "getTrancheInvoice()": {
        "notice": "Get tranche invoice"
      },
      "refund(uint256)": {
        "notice": "Refund bought tokens"
      },
      "tranche()": {
        "notice": "Realise project tranche"
      }
    }
  }
}