{
  "contractName": "W12FundFactory",
  "abi": [
    {
      "anonymous": false,
      "inputs": [
        {
          "indexed": true,
          "name": "fund",
          "type": "address"
        }
      ],
      "name": "FundCreated",
      "type": "event"
    },
    {
      "constant": false,
      "inputs": [
        {
          "name": "swap",
          "type": "address"
        },
        {
          "name": "serviceWallet",
          "type": "address"
        },
        {
          "name": "trancheFeePercent",
          "type": "uint256"
        }
      ],
      "name": "createFund",
      "outputs": [
        {
          "name": "result",
          "type": "address"
        }
      ],
      "payable": false,
      "stateMutability": "nonpayable",
      "type": "function"
    }
  ],
  "bytecode": "0x608060405234801561001057600080fd5b50613301806100206000396000f300608060405260043610610041576000357c0100000000000000000000000000000000000000000000000000000000900463ffffffff1680631744462614610046575b600080fd5b34801561005257600080fd5b506100b1600480360381019080803573ffffffffffffffffffffffffffffffffffffffff169060200190929190803573ffffffffffffffffffffffffffffffffffffffff169060200190929190803590602001909291905050506100f3565b604051808273ffffffffffffffffffffffffffffffffffffffff1673ffffffffffffffffffffffffffffffffffffffff16815260200191505060405180910390f35b6000816100fe61038a565b80828152602001915050604051809103906000f080158015610124573d6000803e3d6000fd5b5090508073ffffffffffffffffffffffffffffffffffffffff1663acb3c073856040518263ffffffff167c0100000000000000000000000000000000000000000000000000000000028152600401808273ffffffffffffffffffffffffffffffffffffffff1673ffffffffffffffffffffffffffffffffffffffff168152602001915050600060405180830381600087803b1580156101c257600080fd5b505af11580156101d6573d6000803e3d6000fd5b505050508073ffffffffffffffffffffffffffffffffffffffff166323bffccc846040518263ffffffff167c0100000000000000000000000000000000000000000000000000000000028152600401808273ffffffffffffffffffffffffffffffffffffffff1673ffffffffffffffffffffffffffffffffffffffff168152602001915050600060405180830381600087803b15801561027557600080fd5b505af1158015610289573d6000803e3d6000fd5b505050508073ffffffffffffffffffffffffffffffffffffffff1663f2fde38b336040518263ffffffff167c0100000000000000000000000000000000000000000000000000000000028152600401808273ffffffffffffffffffffffffffffffffffffffff1673ffffffffffffffffffffffffffffffffffffffff168152602001915050600060405180830381600087803b15801561032857600080fd5b505af115801561033c573d6000803e3d6000fd5b505050508073ffffffffffffffffffffffffffffffffffffffff167fbeacbaab8887097be64d667b2a06e62db7e00cc1429a8ebe02535e97a6cc8fcd60405160405180910390a29392505050565b604051612f3b8061039b8339019056006080604052600180553480156200001557600080fd5b5060405160208062002f3b83398101806040528101908080519060200190929190505050336000806101000a81548173ffffffffffffffffffffffffffffffffffffffff021916908373ffffffffffffffffffffffffffffffffffffffff1602179055506200009881620000dd6401000000000262002d3b176401000000009004565b8015620000c357506064620000c182620000f96401000000000262002d56176401000000009004565b105b1515620000cf57600080fd5b80600b819055505062000178565b6000808210158015620000f257506127108211155b9050919050565b60006200011582620000dd640100000000026401000000009004565b15156200012157600080fd5b620001456064836200014c6401000000000262002b90179091906401000000009004565b9050919050565b6000806000831115156200015f57600080fd5b82848115156200016b57fe5b0490508091505092915050565b612db380620001886000396000f300608060405260043610610149576000357c0100000000000000000000000000000000000000000000000000000000900463ffffffff16806304cd52941461014e5780630babd8641461018f57806311fa7da2146101e657806323bffccc14610244578063278ecde1146102875780633b97e856146102b45780633fa911ae146102df578063483a20b21461030e5780635641f3c3146103515780636ebc0af1146103a8578063715018a6146103bf5780638119c065146103d65780638ce2bc2a1461042d5780638da5cb5b14610458578063958799cb146104af57806397a993aa146104ef5780639c1e03a0146105545780639e80baac146105ab578063a328665a146105da578063ac2a2a3414610605578063acb3c0731461065c578063ad044f491461069f578063d9082962146106ca578063e80b68df146106f5578063f2fde38b14610740575b600080fd5b34801561015a57600080fd5b5061017960048036038101908080359060200190929190505050610783565b6040518082815260200191505060405180910390f35b34801561019b57600080fd5b506101a4610af9565b604051808273ffffffffffffffffffffffffffffffffffffffff1673ffffffffffffffffffffffffffffffffffffffff16815260200191505060405180910390f35b3480156101f257600080fd5b50610227600480360381019080803573ffffffffffffffffffffffffffffffffffffffff169060200190929190505050610b1f565b604051808381526020018281526020019250505060405180910390f35b34801561025057600080fd5b50610285600480360381019080803573ffffffffffffffffffffffffffffffffffffffff169060200190929190505050610bed565b005b34801561029357600080fd5b506102b260048036038101908080359060200190929190505050610cc8565b005b3480156102c057600080fd5b506102c9611382565b6040518082815260200191505060405180910390f35b3480156102eb57600080fd5b506102f4611388565b604051808215151515815260200191505060405180910390f35b34801561031a57600080fd5b5061034f600480360381019080803573ffffffffffffffffffffffffffffffffffffffff169060200190929190505050611801565b005b34801561035d57600080fd5b50610366611a85565b604051808273ffffffffffffffffffffffffffffffffffffffff1673ffffffffffffffffffffffffffffffffffffffff16815260200191505060405180910390f35b3480156103b457600080fd5b506103bd611aab565b005b3480156103cb57600080fd5b506103d4611cde565b005b3480156103e257600080fd5b506103eb611de0565b604051808273ffffffffffffffffffffffffffffffffffffffff1673ffffffffffffffffffffffffffffffffffffffff16815260200191505060405180910390f35b34801561043957600080fd5b50610442611e06565b6040518082815260200191505060405180910390f35b34801561046457600080fd5b5061046d611f22565b604051808273ffffffffffffffffffffffffffffffffffffffff1673ffffffffffffffffffffffffffffffffffffffff16815260200191505060405180910390f35b6104ed600480360381019080803573ffffffffffffffffffffffffffffffffffffffff16906020019092919080359060200190929190505050611f47565b005b3480156104fb57600080fd5b50610530600480360381019080803573ffffffffffffffffffffffffffffffffffffffff169060200190929190505050612244565b60405180848152602001838152602001828152602001935050505060405180910390f35b34801561056057600080fd5b5061056961226e565b604051808273ffffffffffffffffffffffffffffffffffffffff1673ffffffffffffffffffffffffffffffffffffffff16815260200191505060405180910390f35b3480156105b757600080fd5b506105c0612294565b604051808215151515815260200191505060405180910390f35b3480156105e657600080fd5b506105ef612795565b6040518082815260200191505060405180910390f35b34801561061157600080fd5b5061061a61279b565b604051808460ff1660ff1681526020018363ffffffff1663ffffffff1681526020018263ffffffff1663ffffffff168152602001935050505060405180910390f35b34801561066857600080fd5b5061069d600480360381019080803573ffffffffffffffffffffffffffffffffffffffff1690602001909291905050506129e4565b005b3480156106ab57600080fd5b506106b4612abf565b6040518082815260200191505060405180910390f35b3480156106d657600080fd5b506106df612ac5565b6040518082815260200191505060405180910390f35b34801561070157600080fd5b50610726600480360381019080803563ffffffff169060200190929190505050612acb565b604051808215151515815260200191505060405180910390f35b34801561074c57600080fd5b50610781600480360381019080803573ffffffffffffffffffffffffffffffffffffffff169060200190929190505050612aeb565b005b6000806000806000600860065401600a0a7fffffffffffffffffffffffffffffffffffffffffffffffffffffffffffffffff8115156107be57fe5b049350339250600086148061081557506000600760008573ffffffffffffffffffffffffffffffffffffffff1673ffffffffffffffffffffffffffffffffffffffff16815260200190815260200160002060000154145b80610837575060003073ffffffffffffffffffffffffffffffffffffffff1631145b80610938575085600560009054906101000a900473ffffffffffffffffffffffffffffffffffffffff1673ffffffffffffffffffffffffffffffffffffffff166370a08231856040518263ffffffff167c0100000000000000000000000000000000000000000000000000000000028152600401808273ffffffffffffffffffffffffffffffffffffffff1673ffffffffffffffffffffffffffffffffffffffff168152602001915050602060405180830381600087803b1580156108fb57600080fd5b505af115801561090f573d6000803e3d6000fd5b505050506040513d602081101561092557600080fd5b8101908080519060200190929190505050105b80610984575085600760008573ffffffffffffffffffffffffffffffffffffffff1673ffffffffffffffffffffffffffffffffffffffff16815260200190815260200160002060000154105b156109925760009450610af0565b60003073ffffffffffffffffffffffffffffffffffffffff16311115610aef57610a323073ffffffffffffffffffffffffffffffffffffffff1631610a24600954600760008873ffffffffffffffffffffffffffffffffffffffff1673ffffffffffffffffffffffffffffffffffffffff16815260200190815260200160002060020154612b5290919063ffffffff16565b612b9090919063ffffffff16565b915083821015610a4a57600860065401600a0a610a4d565b60015b9050610aec610add82610acf89610ac1600760008a73ffffffffffffffffffffffffffffffffffffffff1673ffffffffffffffffffffffffffffffffffffffff16815260200190815260200160002060000154610ab3888a612b5290919063ffffffff16565b612b9090919063ffffffff16565b612b5290919063ffffffff16565b612b9090919063ffffffff16565b86612bba90919063ffffffff16565b94505b5b50505050919050565b600560009054906101000a900473ffffffffffffffffffffffffffffffffffffffff1681565b600080600073ffffffffffffffffffffffffffffffffffffffff168373ffffffffffffffffffffffffffffffffffffffff1614151515610b5e57600080fd5b600760008473ffffffffffffffffffffffffffffffffffffffff1673ffffffffffffffffffffffffffffffffffffffff16815260200190815260200160002060000154600760008573ffffffffffffffffffffffffffffffffffffffff1673ffffffffffffffffffffffffffffffffffffffff1681526020019081526020016000206001015491509150915091565b6000809054906101000a900473ffffffffffffffffffffffffffffffffffffffff1673ffffffffffffffffffffffffffffffffffffffff163373ffffffffffffffffffffffffffffffffffffffff16141515610c4857600080fd5b600073ffffffffffffffffffffffffffffffffffffffff168173ffffffffffffffffffffffffffffffffffffffff1614151515610c8457600080fd5b80600460006101000a81548173ffffffffffffffffffffffffffffffffffffffff021916908373ffffffffffffffffffffffffffffffffffffffff16021790555050565b6000806000600180600082825401925050819055506001549050339250610ced611388565b1515610cf857600080fd5b600084111515610d0757600080fd5b83600760008573ffffffffffffffffffffffffffffffffffffffff1673ffffffffffffffffffffffffffffffffffffffff1681526020019081526020016000206000015410151515610d5857600080fd5b83600560009054906101000a900473ffffffffffffffffffffffffffffffffffffffff1673ffffffffffffffffffffffffffffffffffffffff166370a08231856040518263ffffffff167c0100000000000000000000000000000000000000000000000000000000028152600401808273ffffffffffffffffffffffffffffffffffffffff1673ffffffffffffffffffffffffffffffffffffffff168152602001915050602060405180830381600087803b158015610e1657600080fd5b505af1158015610e2a573d6000803e3d6000fd5b505050506040513d6020811015610e4057600080fd5b810190808051906020019092919050505010151515610e5e57600080fd5b83600560009054906101000a900473ffffffffffffffffffffffffffffffffffffffff1673ffffffffffffffffffffffffffffffffffffffff1663dd62ed3e33306040518363ffffffff167c0100000000000000000000000000000000000000000000000000000000028152600401808373ffffffffffffffffffffffffffffffffffffffff1673ffffffffffffffffffffffffffffffffffffffff1681526020018273ffffffffffffffffffffffffffffffffffffffff1673ffffffffffffffffffffffffffffffffffffffff16815260200192505050602060405180830381600087803b158015610f5057600080fd5b505af1158015610f64573d6000803e3d6000fd5b505050506040513d6020811015610f7a57600080fd5b810190808051906020019092919050505010151515610f9857600080fd5b610fa184610783565b9150600082111515610fb257600080fd5b600560009054906101000a900473ffffffffffffffffffffffffffffffffffffffff1673ffffffffffffffffffffffffffffffffffffffff166323b872dd84600360009054906101000a900473ffffffffffffffffffffffffffffffffffffffff16876040518463ffffffff167c0100000000000000000000000000000000000000000000000000000000028152600401808473ffffffffffffffffffffffffffffffffffffffff1673ffffffffffffffffffffffffffffffffffffffff1681526020018373ffffffffffffffffffffffffffffffffffffffff1673ffffffffffffffffffffffffffffffffffffffff1681526020018281526020019350505050602060405180830381600087803b1580156110cd57600080fd5b505af11580156110e1573d6000803e3d6000fd5b505050506040513d60208110156110f757600080fd5b8101908080519060200190929190505050151561111357600080fd5b61116884600760008673ffffffffffffffffffffffffffffffffffffffff1673ffffffffffffffffffffffffffffffffffffffff16815260200190815260200160002060000154612bdb90919063ffffffff16565b600760008573ffffffffffffffffffffffffffffffffffffffff1673ffffffffffffffffffffffffffffffffffffffff1681526020019081526020016000206000018190555061126e61121d600654600a0a61120f600760008873ffffffffffffffffffffffffffffffffffffffff1673ffffffffffffffffffffffffffffffffffffffff1681526020019081526020016000206001015488612b5290919063ffffffff16565b612b9090919063ffffffff16565b600760008673ffffffffffffffffffffffffffffffffffffffff1673ffffffffffffffffffffffffffffffffffffffff16815260200190815260200160002060020154612bdb90919063ffffffff16565b600760008573ffffffffffffffffffffffffffffffffffffffff1673ffffffffffffffffffffffffffffffffffffffff168152602001908152602001600020600201819055506112c982600a54612bba90919063ffffffff16565b600a819055508273ffffffffffffffffffffffffffffffffffffffff166108fc839081150290604051600060405180830381858888f19350505050158015611315573d6000803e3d6000fd5b508273ffffffffffffffffffffffffffffffffffffffff167ffc48f4f163cfed28aaf3be3f0b162a1338fab214afc9340eafc6cb081c71fadf8386604051808381526020018281526020019250505060405180910390a26001548114151561137c57600080fd5b50505050565b60065481565b600080600080600260009054906101000a900473ffffffffffffffffffffffffffffffffffffffff1673ffffffffffffffffffffffffffffffffffffffff1663d6d65f3d6040518163ffffffff167c0100000000000000000000000000000000000000000000000000000000028152600401602060405180830381600087803b15801561141457600080fd5b505af1158015611428573d6000803e3d6000fd5b505050506040513d602081101561143e57600080fd5b81019080805190602001909291905050509250600083141561146357600093506117fb565b600260009054906101000a900473ffffffffffffffffffffffffffffffffffffffff1673ffffffffffffffffffffffffffffffffffffffff16632442e1cb600185036040518263ffffffff167c010000000000000000000000000000000000000000000000000000000002815260040180828152602001915050600060405180830381600087803b1580156114f757600080fd5b505af115801561150b573d6000803e3d6000fd5b505050506040513d6000823e3d601f19601f8201168201806040525060c081101561153557600080fd5b8101908080519060200190929190805190602001909291908051906020019092919080519060200190929190805164010000000081111561157557600080fd5b8281019050602081018481111561158b57600080fd5b81518560018202830111640100000000821117156115a857600080fd5b505092919060200180516401000000008111156115c457600080fd5b828101905060208101848111156115da57600080fd5b81518560018202830111640100000000821117156115f757600080fd5b50509291905050505050935050509150428263ffffffff161115801561162257508063ffffffff1642105b1561163057600193506117fb565b600260009054906101000a900473ffffffffffffffffffffffffffffffffffffffff1673ffffffffffffffffffffffffffffffffffffffff16632442e1cb846040518263ffffffff167c010000000000000000000000000000000000000000000000000000000002815260040180828152602001915050600060405180830381600087803b1580156116c157600080fd5b505af11580156116d5573d6000803e3d6000fd5b505050506040513d6000823e3d601f19601f8201168201806040525060c08110156116ff57600080fd5b8101908080519060200190929190805190602001909291908051906020019092919080519060200190929190805164010000000081111561173f57600080fd5b8281019050602081018481111561175557600080fd5b815185600182028301116401000000008211171561177257600080fd5b5050929190602001805164010000000081111561178e57600080fd5b828101905060208101848111156117a457600080fd5b81518560018202830111640100000000821117156117c157600080fd5b50509291905050509091929350909192509050508092508193505050428263ffffffff16111580156117f857508063ffffffff1642105b93505b50505090565b6000809054906101000a900473ffffffffffffffffffffffffffffffffffffffff1673ffffffffffffffffffffffffffffffffffffffff163373ffffffffffffffffffffffffffffffffffffffff1614151561185c57600080fd5b600073ffffffffffffffffffffffffffffffffffffffff168173ffffffffffffffffffffffffffffffffffffffff161415151561189857600080fd5b80600260006101000a81548173ffffffffffffffffffffffffffffffffffffffff021916908373ffffffffffffffffffffffffffffffffffffffff1602179055508073ffffffffffffffffffffffffffffffffffffffff16634090cb646040518163ffffffff167c0100000000000000000000000000000000000000000000000000000000028152600401602060405180830381600087803b15801561193d57600080fd5b505af1158015611951573d6000803e3d6000fd5b505050506040513d602081101561196757600080fd5b8101908080519060200190929190505050600560006101000a81548173ffffffffffffffffffffffffffffffffffffffff021916908373ffffffffffffffffffffffffffffffffffffffff160217905550600560009054906101000a900473ffffffffffffffffffffffffffffffffffffffff1673ffffffffffffffffffffffffffffffffffffffff1663313ce5676040518163ffffffff167c0100000000000000000000000000000000000000000000000000000000028152600401602060405180830381600087803b158015611a3e57600080fd5b505af1158015611a52573d6000803e3d6000fd5b505050506040513d6020811015611a6857600080fd5b810190808051906020019092919050505060ff1660068190555050565b600460009054906101000a900473ffffffffffffffffffffffffffffffffffffffff1681565b60008060008060009054906101000a900473ffffffffffffffffffffffffffffffffffffffff1673ffffffffffffffffffffffffffffffffffffffff163373ffffffffffffffffffffffffffffffffffffffff16141515611b0b57600080fd5b6000600180600082825401925050819055506001549050611b2a612294565b1515611b3557600080fd5b611b3d611e06565b9350611b4761279b565b94505050600084111515611b5a57600080fd5b6001600860008563ffffffff1663ffffffff16815260200190815260200160002060006101000a81548160ff0219169083151502179055506000600b541115611c3357611bb2600b5485612bfc90919063ffffffff16565b9150600460009054906101000a900473ffffffffffffffffffffffffffffffffffffffff1673ffffffffffffffffffffffffffffffffffffffff166108fc839081150290604051600060405180830381858888f19350505050158015611c1c573d6000803e3d6000fd5b50611c308285612bdb90919063ffffffff16565b93505b3373ffffffffffffffffffffffffffffffffffffffff166108fc859081150290604051600060405180830381858888f19350505050158015611c79573d6000803e3d6000fd5b503373ffffffffffffffffffffffffffffffffffffffff167f333c8b01d26c7b77312592c86110afe8f6ffb558755a83599a45373a98e9294a856040518082815260200191505060405180910390a260015481141515611cd857600080fd5b50505050565b6000809054906101000a900473ffffffffffffffffffffffffffffffffffffffff1673ffffffffffffffffffffffffffffffffffffffff163373ffffffffffffffffffffffffffffffffffffffff16141515611d3957600080fd5b6000809054906101000a900473ffffffffffffffffffffffffffffffffffffffff1673ffffffffffffffffffffffffffffffffffffffff167ff8df31144d9c2f0f6b59d69b8b98abd5459d07f2742c4df920b25aae33c6482060405160405180910390a260008060006101000a81548173ffffffffffffffffffffffffffffffffffffffff021916908373ffffffffffffffffffffffffffffffffffffffff160217905550565b600360009054906101000a900473ffffffffffffffffffffffffffffffffffffffff1681565b6000806000806000806000809550611e1c61279b565b945094509450600860008463ffffffff1663ffffffff16815260200190815260200160002060009054906101000a900460ff16915081158015611e65575060008463ffffffff16115b8015611e775750428363ffffffff1610155b8015611e885750428463ffffffff16105b8015611e97575060008560ff16115b8015611eba575060003073ffffffffffffffffffffffffffffffffffffffff1631115b15611f1657611ed6600a54600954612bdb90919063ffffffff16565b9050611f13611f046064611ef68860ff1685612b5290919063ffffffff16565b612b9090919063ffffffff16565b87612bba90919063ffffffff16565b95505b85965050505050505090565b6000809054906101000a900473ffffffffffffffffffffffffffffffffffffffff1681565b600260009054906101000a900473ffffffffffffffffffffffffffffffffffffffff168073ffffffffffffffffffffffffffffffffffffffff163373ffffffffffffffffffffffffffffffffffffffff16141515611fa457600080fd5b611ff982600760008673ffffffffffffffffffffffffffffffffffffffff1673ffffffffffffffffffffffffffffffffffffffff16815260200190815260200160002060000154612bba90919063ffffffff16565b600760008573ffffffffffffffffffffffffffffffffffffffff1673ffffffffffffffffffffffffffffffffffffffff1681526020019081526020016000206000018190555061209434600760008673ffffffffffffffffffffffffffffffffffffffff1673ffffffffffffffffffffffffffffffffffffffff16815260200190815260200160002060020154612bba90919063ffffffff16565b600760008573ffffffffffffffffffffffffffffffffffffffff1673ffffffffffffffffffffffffffffffffffffffff16815260200190815260200160002060020181905550612188600760008573ffffffffffffffffffffffffffffffffffffffff1673ffffffffffffffffffffffffffffffffffffffff1681526020019081526020016000206000015461217a600654600a0a600760008873ffffffffffffffffffffffffffffffffffffffff1673ffffffffffffffffffffffffffffffffffffffff16815260200190815260200160002060020154612b5290919063ffffffff16565b612b9090919063ffffffff16565b600760008573ffffffffffffffffffffffffffffffffffffffff1673ffffffffffffffffffffffffffffffffffffffff168152602001908152602001600020600101819055506121e334600954612bba90919063ffffffff16565b6009819055508273ffffffffffffffffffffffffffffffffffffffff167f363f315f930a17d1266b86a20d6dd34b1cfbc5a9db9f13a65d06a689c3a2af8a3484604051808381526020018281526020019250505060405180910390a2505050565b60076020528060005260406000206000915090508060000154908060010154908060020154905083565b600260009054906101000a900473ffffffffffffffffffffffffffffffffffffffff1681565b600080600080600260009054906101000a900473ffffffffffffffffffffffffffffffffffffffff1673ffffffffffffffffffffffffffffffffffffffff1663d6d65f3d6040518163ffffffff167c0100000000000000000000000000000000000000000000000000000000028152600401602060405180830381600087803b15801561232057600080fd5b505af1158015612334573d6000803e3d6000fd5b505050506040513d602081101561234a57600080fd5b81019080805190602001909291905050509250600083141561242e57600260009054906101000a900473ffffffffffffffffffffffffffffffffffffffff1673ffffffffffffffffffffffffffffffffffffffff1663a4fd6f566040518163ffffffff167c0100000000000000000000000000000000000000000000000000000000028152600401602060405180830381600087803b1580156123ec57600080fd5b505af1158015612400573d6000803e3d6000fd5b505050506040513d602081101561241657600080fd5b8101908080519060200190929190505050935061278f565b600260009054906101000a900473ffffffffffffffffffffffffffffffffffffffff1673ffffffffffffffffffffffffffffffffffffffff16632442e1cb846040518263ffffffff167c010000000000000000000000000000000000000000000000000000000002815260040180828152602001915050600060405180830381600087803b1580156124bf57600080fd5b505af11580156124d3573d6000803e3d6000fd5b505050506040513d6000823e3d601f19601f8201168201806040525060c08110156124fd57600080fd5b8101908080519060200190929190805190602001909291908051906020019092919080519060200190929190805164010000000081111561253d57600080fd5b8281019050602081018481111561255357600080fd5b815185600182028301116401000000008211171561257057600080fd5b5050929190602001805164010000000081111561258c57600080fd5b828101905060208101848111156125a257600080fd5b81518560018202830111640100000000821117156125bf57600080fd5b505092919050505050505050509150600260009054906101000a900473ffffffffffffffffffffffffffffffffffffffff1673ffffffffffffffffffffffffffffffffffffffff16632442e1cb600185036040518263ffffffff167c010000000000000000000000000000000000000000000000000000000002815260040180828152602001915050600060405180830381600087803b15801561266257600080fd5b505af1158015612676573d6000803e3d6000fd5b505050506040513d6000823e3d601f19601f8201168201806040525060c08110156126a057600080fd5b810190808051906020019092919080519060200190929190805190602001909291908051906020019092919080516401000000008111156126e057600080fd5b828101905060208101848111156126f657600080fd5b815185600182028301116401000000008211171561271357600080fd5b5050929190602001805164010000000081111561272f57600080fd5b8281019050602081018481111561274557600080fd5b815185600182028301116401000000008211171561276257600080fd5b505092919050505050509350505050428163ffffffff161115801561278c57508163ffffffff1642105b93505b50505090565b600b5481565b6000806000806000806000600260009054906101000a900473ffffffffffffffffffffffffffffffffffffffff1673ffffffffffffffffffffffffffffffffffffffff1663299a017c6040518163ffffffff167c0100000000000000000000000000000000000000000000000000000000028152600401600060405180830381600087803b15801561282c57600080fd5b505af1158015612840573d6000803e3d6000fd5b505050506040513d6000823e3d601f19601f8201168201806040525060c081101561286a57600080fd5b810190808051906020019092919080519060200190929190805190602001909291908051906020019092919080516401000000008111156128aa57600080fd5b828101905060208101848111156128c057600080fd5b81518560018202830111640100000000821117156128dd57600080fd5b505092919060200180516401000000008111156128f957600080fd5b8281019050602081018481111561290f57600080fd5b815185600182028301116401000000008211171561292c57600080fd5b5050929190505050505094509450945050600860008363ffffffff1663ffffffff16815260200190815260200160002060009054906101000a900460ff169050801561298b5760008060008292508191508090509650965096506129db565b8383428463ffffffff161080156129a8575060008463ffffffff16115b6129b257836129d4565b7fffffffffffffffffffffffffffffffffffffffffffffffffffffffffffffffff5b9650965096505b50505050909192565b6000809054906101000a900473ffffffffffffffffffffffffffffffffffffffff1673ffffffffffffffffffffffffffffffffffffffff163373ffffffffffffffffffffffffffffffffffffffff16141515612a3f57600080fd5b600073ffffffffffffffffffffffffffffffffffffffff168173ffffffffffffffffffffffffffffffffffffffff1614151515612a7b57600080fd5b80600360006101000a81548173ffffffffffffffffffffffffffffffffffffffff021916908373ffffffffffffffffffffffffffffffffffffffff16021790555050565b60095481565b600a5481565b60086020528060005260406000206000915054906101000a900460ff1681565b6000809054906101000a900473ffffffffffffffffffffffffffffffffffffffff1673ffffffffffffffffffffffffffffffffffffffff163373ffffffffffffffffffffffffffffffffffffffff16141515612b4657600080fd5b612b4f81612c41565b50565b6000806000841415612b675760009150612b89565b8284029050828482811515612b7857fe5b04141515612b8557600080fd5b8091505b5092915050565b600080600083111515612ba257600080fd5b8284811515612bad57fe5b0490508091505092915050565b6000808284019050838110151515612bd157600080fd5b8091505092915050565b600080838311151515612bed57600080fd5b82840390508091505092915050565b6000612c0782612d3b565b1515612c1257600080fd5b612c39612710612c2b8486612b5290919063ffffffff16565b612b9090919063ffffffff16565b905092915050565b600073ffffffffffffffffffffffffffffffffffffffff168173ffffffffffffffffffffffffffffffffffffffff1614151515612c7d57600080fd5b8073ffffffffffffffffffffffffffffffffffffffff166000809054906101000a900473ffffffffffffffffffffffffffffffffffffffff1673ffffffffffffffffffffffffffffffffffffffff167f8be0079c531659141344cd1fd0a4f28419497f9722a3daafe3b4186f6b6457e060405160405180910390a3806000806101000a81548173ffffffffffffffffffffffffffffffffffffffff021916908373ffffffffffffffffffffffffffffffffffffffff16021790555050565b6000808210158015612d4f57506127108211155b9050919050565b6000612d6182612d3b565b1515612d6c57600080fd5b612d80606483612b9090919063ffffffff16565b90509190505600a165627a7a723058205b9445f94fac1cfed52672c0891dd5df5acff680bb86481254770979c61062170029a165627a7a72305820d59b9633287c5144f0639625d8c158774fad65881e7d2845db37367657e2dee30029",
  "source": "pragma solidity ^0.4.24;\n\nimport \"./W12Fund.sol\";\nimport \"./interfaces/IW12FundFactory.sol\";\n\n\ncontract W12FundFactory is IW12FundFactory {\n    event FundCreated(address indexed fund);\n\n    function createFund(address swap, address serviceWallet, uint trancheFeePercent) external returns (IW12Fund result) {\n        result = new W12Fund(trancheFeePercent);\n\n        result.setSwap(swap);\n        result.setServiceWallet(serviceWallet);\n        result.transferOwnership(msg.sender);\n\n        emit FundCreated(result);\n    }\n}\n",
  "sourcePath": "/c/Users/Mr.Hokid/projects/work/w12-product-contracts/contracts/W12FundFactory.sol",
  "compiler": {
    "name": "solc",
    "version": "0.4.24+commit.e67f0147.Emscripten.clang"
  },
  "schemaVersion": "2.0.1",
  "updatedAt": "2018-08-30T10:19:56.508Z"
}