{
  "contractName": "W12Fund",
  "abi": [
    {
      "constant": true,
      "inputs": [],
      "name": "wToken",
      "outputs": [
        {
          "name": "",
          "type": "address"
        }
      ],
      "payable": false,
      "stateMutability": "view",
      "type": "function"
    },
    {
      "constant": true,
      "inputs": [],
      "name": "totalTranchePercentReleased",
      "outputs": [
        {
          "name": "",
          "type": "uint256"
        }
      ],
      "payable": false,
      "stateMutability": "view",
      "type": "function"
    },
    {
      "constant": true,
      "inputs": [
        {
          "name": "",
          "type": "uint256"
        }
      ],
      "name": "completedTranches",
      "outputs": [
        {
          "name": "",
          "type": "bool"
        }
      ],
      "payable": false,
      "stateMutability": "view",
      "type": "function"
    },
    {
      "constant": true,
      "inputs": [],
      "name": "tokenDecimals",
      "outputs": [
        {
          "name": "",
          "type": "uint256"
        }
      ],
      "payable": false,
      "stateMutability": "view",
      "type": "function"
    },
    {
      "constant": true,
      "inputs": [],
      "name": "version",
      "outputs": [
        {
          "name": "",
          "type": "uint256"
        }
      ],
      "payable": false,
      "stateMutability": "view",
      "type": "function"
    },
    {
      "constant": true,
      "inputs": [],
      "name": "serviceWallet",
      "outputs": [
        {
          "name": "",
          "type": "address"
        }
      ],
      "payable": false,
      "stateMutability": "view",
      "type": "function"
    },
    {
      "constant": false,
      "inputs": [],
      "name": "renounceOwnership",
      "outputs": [],
      "payable": false,
      "stateMutability": "nonpayable",
      "type": "function"
    },
    {
      "constant": true,
      "inputs": [],
      "name": "swap",
      "outputs": [
        {
          "name": "",
          "type": "address"
        }
      ],
      "payable": false,
      "stateMutability": "view",
      "type": "function"
    },
    {
      "constant": true,
      "inputs": [],
      "name": "owner",
      "outputs": [
        {
          "name": "",
          "type": "address"
        }
      ],
      "payable": false,
      "stateMutability": "view",
      "type": "function"
    },
    {
      "constant": true,
      "inputs": [
        {
          "name": "",
          "type": "address"
        }
      ],
      "name": "buyers",
      "outputs": [
        {
          "name": "totalBought",
          "type": "uint256"
        },
        {
          "name": "averagePrice",
          "type": "uint256"
        },
        {
          "name": "totalFunded",
          "type": "uint256"
        }
      ],
      "payable": false,
      "stateMutability": "view",
      "type": "function"
    },
    {
      "constant": true,
      "inputs": [],
      "name": "crowdsale",
      "outputs": [
        {
          "name": "",
          "type": "address"
        }
      ],
      "payable": false,
      "stateMutability": "view",
      "type": "function"
    },
    {
      "constant": true,
      "inputs": [],
      "name": "trancheFeePercent",
      "outputs": [
        {
          "name": "",
          "type": "uint256"
        }
      ],
      "payable": false,
      "stateMutability": "view",
      "type": "function"
    },
    {
      "constant": true,
      "inputs": [],
      "name": "totalFunded",
      "outputs": [
        {
          "name": "",
          "type": "uint256"
        }
      ],
      "payable": false,
      "stateMutability": "view",
      "type": "function"
    },
    {
      "constant": true,
      "inputs": [],
      "name": "totalRefunded",
      "outputs": [
        {
          "name": "",
          "type": "uint256"
        }
      ],
      "payable": false,
      "stateMutability": "view",
      "type": "function"
    },
    {
      "constant": false,
      "inputs": [
        {
          "name": "_newOwner",
          "type": "address"
        }
      ],
      "name": "transferOwnership",
      "outputs": [],
      "payable": false,
      "stateMutability": "nonpayable",
      "type": "function"
    },
    {
      "inputs": [
        {
          "name": "version",
          "type": "uint256"
        },
        {
          "name": "_trancheFeePercent",
          "type": "uint256"
        }
      ],
      "payable": false,
      "stateMutability": "nonpayable",
      "type": "constructor"
    },
    {
      "anonymous": false,
      "inputs": [
        {
          "indexed": true,
          "name": "buyer",
          "type": "address"
        },
        {
          "indexed": false,
          "name": "weiAmount",
          "type": "uint256"
        },
        {
          "indexed": false,
          "name": "tokenAmount",
          "type": "uint256"
        }
      ],
      "name": "FundsReceived",
      "type": "event"
    },
    {
      "anonymous": false,
      "inputs": [
        {
          "indexed": true,
          "name": "buyer",
          "type": "address"
        },
        {
          "indexed": false,
          "name": "weiAmount",
          "type": "uint256"
        },
        {
          "indexed": false,
          "name": "tokenAmount",
          "type": "uint256"
        }
      ],
      "name": "FundsRefunded",
      "type": "event"
    },
    {
      "anonymous": false,
      "inputs": [
        {
          "indexed": true,
          "name": "receiver",
          "type": "address"
        },
        {
          "indexed": false,
          "name": "amount",
          "type": "uint256"
        }
      ],
      "name": "TrancheReleased",
      "type": "event"
    },
    {
      "anonymous": false,
      "inputs": [
        {
          "indexed": true,
          "name": "previousOwner",
          "type": "address"
        }
      ],
      "name": "OwnershipRenounced",
      "type": "event"
    },
    {
      "anonymous": false,
      "inputs": [
        {
          "indexed": true,
          "name": "previousOwner",
          "type": "address"
        },
        {
          "indexed": true,
          "name": "newOwner",
          "type": "address"
        }
      ],
      "name": "OwnershipTransferred",
      "type": "event"
    },
    {
      "constant": false,
      "inputs": [
        {
          "name": "_crowdsale",
          "type": "address"
        }
      ],
      "name": "setCrowdsale",
      "outputs": [],
      "payable": false,
      "stateMutability": "nonpayable",
      "type": "function"
    },
    {
      "constant": false,
      "inputs": [
        {
          "name": "_swap",
          "type": "address"
        }
      ],
      "name": "setSwap",
      "outputs": [],
      "payable": false,
      "stateMutability": "nonpayable",
      "type": "function"
    },
    {
      "constant": false,
      "inputs": [
        {
          "name": "_serviceWallet",
          "type": "address"
        }
      ],
      "name": "setServiceWallet",
      "outputs": [],
      "payable": false,
      "stateMutability": "nonpayable",
      "type": "function"
    },
    {
      "constant": false,
      "inputs": [
        {
          "name": "buyer",
          "type": "address"
        },
        {
          "name": "tokenAmount",
          "type": "uint256"
        }
      ],
      "name": "recordPurchase",
      "outputs": [],
      "payable": true,
      "stateMutability": "payable",
      "type": "function"
    },
    {
      "constant": true,
      "inputs": [
        {
          "name": "buyer",
          "type": "address"
        }
      ],
      "name": "getInvestmentsInfo",
      "outputs": [
        {
          "name": "totalTokensBought",
          "type": "uint256"
        },
        {
          "name": "averageTokenPrice",
          "type": "uint256"
        }
      ],
      "payable": false,
      "stateMutability": "view",
      "type": "function"
    },
    {
      "constant": true,
      "inputs": [
        {
          "name": "wtokensToRefund",
          "type": "uint256"
        }
      ],
      "name": "getRefundAmount",
      "outputs": [
        {
          "name": "result",
          "type": "uint256"
        }
      ],
      "payable": false,
      "stateMutability": "view",
      "type": "function"
    },
    {
      "constant": true,
      "inputs": [],
      "name": "getTrancheAmount",
      "outputs": [
        {
          "name": "result",
          "type": "uint256"
        }
      ],
      "payable": false,
      "stateMutability": "view",
      "type": "function"
    },
    {
      "constant": true,
      "inputs": [],
      "name": "getTrancheParameters",
      "outputs": [
        {
          "name": "",
          "type": "uint256"
        },
        {
          "name": "totalTranchePercentBefore",
          "type": "uint256"
        },
        {
          "name": "",
          "type": "uint256"
        }
      ],
      "payable": false,
      "stateMutability": "view",
      "type": "function"
    },
    {
      "constant": false,
      "inputs": [],
      "name": "tranche",
      "outputs": [],
      "payable": false,
      "stateMutability": "nonpayable",
      "type": "function"
    },
    {
      "constant": false,
      "inputs": [
        {
          "name": "wtokensToRefund",
          "type": "uint256"
        }
      ],
      "name": "refund",
      "outputs": [],
      "payable": false,
      "stateMutability": "nonpayable",
      "type": "function"
    },
    {
      "constant": true,
      "inputs": [],
      "name": "refundAllowed",
      "outputs": [
        {
          "name": "",
          "type": "bool"
        }
      ],
      "payable": false,
      "stateMutability": "view",
      "type": "function"
    },
    {
      "constant": true,
      "inputs": [],
      "name": "trancheTransferAllowed",
      "outputs": [
        {
          "name": "",
          "type": "bool"
        }
      ],
      "payable": false,
      "stateMutability": "view",
      "type": "function"
    }
  ],
  "bytecode": "0x608060405260016002553480156200001657600080fd5b50604051604080620032f1833981018060405281019080805190602001909291908051906020019092919050505081806000819055505033600160006101000a81548173ffffffffffffffffffffffffffffffffffffffff021916908373ffffffffffffffffffffffffffffffffffffffff160217905550620000ad81620000f36401000000000262003007176401000000009004565b8015620000d857506064620000d6826200013d6401000000000262003063176401000000009004565b105b1515620000e457600080fd5b80600d81905550505062000218565b60006200010e620001aa640100000000026401000000009004565b821015801562000136575062000132620001b2640100000000026401000000009004565b8211155b9050919050565b60006200015982620000f3640100000000026401000000009004565b15156200016557600080fd5b620001a362000182620001d5640100000000026401000000009004565b600a0a83620001de6401000000000262002e76179091906401000000009004565b9050919050565b600080905090565b6000620001cd620001f5640100000000026401000000009004565b600a0a905090565b60006002905090565b60008183811515620001ec57fe5b04905092915050565b600062000210620001d5640100000000026401000000009004565b600201905090565b6130c980620002286000396000f30060806040526004361061015f576000357c0100000000000000000000000000000000000000000000000000000000900463ffffffff16806304cd5294146101645780630babd864146101a557806311fa7da2146101fc57806319ae48ed1461025a57806323585f961461028557806323bffccc146102ca578063278ecde11461030d5780633b97e8561461033a5780633fa911ae14610365578063483a20b21461039457806354fd4d50146103d75780635641f3c3146104025780636ebc0af114610459578063715018a6146104705780638119c065146104875780638ce2bc2a146104de5780638da5cb5b14610509578063958799cb1461056057806397a993aa146105a05780639c1e03a0146106055780639e80baac1461065c578063a328665a1461068b578063ac2a2a34146106b6578063acb3c073146106ef578063ad044f4914610732578063d90829621461075d578063f2fde38b14610788575b600080fd5b34801561017057600080fd5b5061018f600480360381019080803590602001909291905050506107cb565b6040518082815260200191505060405180910390f35b3480156101b157600080fd5b506101ba610b21565b604051808273ffffffffffffffffffffffffffffffffffffffff1673ffffffffffffffffffffffffffffffffffffffff16815260200191505060405180910390f35b34801561020857600080fd5b5061023d600480360381019080803573ffffffffffffffffffffffffffffffffffffffff169060200190929190505050610b47565b604051808381526020018281526020019250505060405180910390f35b34801561026657600080fd5b5061026f610c15565b6040518082815260200191505060405180910390f35b34801561029157600080fd5b506102b060048036038101908080359060200190929190505050610c1b565b604051808215151515815260200191505060405180910390f35b3480156102d657600080fd5b5061030b600480360381019080803573ffffffffffffffffffffffffffffffffffffffff169060200190929190505050610c3b565b005b34801561031957600080fd5b5061033860048036038101908080359060200190929190505050610d17565b005b34801561034657600080fd5b5061034f6113c9565b6040518082815260200191505060405180910390f35b34801561037157600080fd5b5061037a6113cf565b604051808215151515815260200191505060405180910390f35b3480156103a057600080fd5b506103d5600480360381019080803573ffffffffffffffffffffffffffffffffffffffff169060200190929190505050611679565b005b3480156103e357600080fd5b506103ec6118fe565b6040518082815260200191505060405180910390f35b34801561040e57600080fd5b50610417611904565b604051808273ffffffffffffffffffffffffffffffffffffffff1673ffffffffffffffffffffffffffffffffffffffff16815260200191505060405180910390f35b34801561046557600080fd5b5061046e61192a565b005b34801561047c57600080fd5b50610485611b5d565b005b34801561049357600080fd5b5061049c611c62565b604051808273ffffffffffffffffffffffffffffffffffffffff1673ffffffffffffffffffffffffffffffffffffffff16815260200191505060405180910390f35b3480156104ea57600080fd5b506104f3611c88565b6040518082815260200191505060405180910390f35b34801561051557600080fd5b5061051e611d18565b604051808273ffffffffffffffffffffffffffffffffffffffff1673ffffffffffffffffffffffffffffffffffffffff16815260200191505060405180910390f35b61059e600480360381019080803573ffffffffffffffffffffffffffffffffffffffff16906020019092919080359060200190929190505050611d3e565b005b3480156105ac57600080fd5b506105e1600480360381019080803573ffffffffffffffffffffffffffffffffffffffff16906020019092919050505061203b565b60405180848152602001838152602001828152602001935050505060405180910390f35b34801561061157600080fd5b5061061a612065565b604051808273ffffffffffffffffffffffffffffffffffffffff1673ffffffffffffffffffffffffffffffffffffffff16815260200191505060405180910390f35b34801561066857600080fd5b5061067161208b565b604051808215151515815260200191505060405180910390f35b34801561069757600080fd5b506106a06125b2565b6040518082815260200191505060405180910390f35b3480156106c257600080fd5b506106cb6125b8565b60405180848152602001838152602001828152602001935050505060405180910390f35b3480156106fb57600080fd5b50610730600480360381019080803573ffffffffffffffffffffffffffffffffffffffff169060200190929190505050612cee565b005b34801561073e57600080fd5b50610747612dca565b6040518082815260200191505060405180910390f35b34801561076957600080fd5b50610772612dd0565b6040518082815260200191505060405180910390f35b34801561079457600080fd5b506107c9600480360381019080803573ffffffffffffffffffffffffffffffffffffffff169060200190929190505050612dd6565b005b600080600080600080600860075401600754106107ea576007546107f1565b6008600754015b945084600a0a7fffffffffffffffffffffffffffffffffffffffffffffffffffffffffffffffff81151561082157fe5b049350339250600087148061087857506000600860008573ffffffffffffffffffffffffffffffffffffffff1673ffffffffffffffffffffffffffffffffffffffff16815260200190815260200160002060000154145b8061089a575060003073ffffffffffffffffffffffffffffffffffffffff1631145b8061099b575086600660009054906101000a900473ffffffffffffffffffffffffffffffffffffffff1673ffffffffffffffffffffffffffffffffffffffff166370a08231856040518263ffffffff167c0100000000000000000000000000000000000000000000000000000000028152600401808273ffffffffffffffffffffffffffffffffffffffff1673ffffffffffffffffffffffffffffffffffffffff168152602001915050602060405180830381600087803b15801561095e57600080fd5b505af1158015610972573d6000803e3d6000fd5b505050506040513d602081101561098857600080fd5b8101908080519060200190929190505050105b806109e7575086600860008573ffffffffffffffffffffffffffffffffffffffff1673ffffffffffffffffffffffffffffffffffffffff16815260200190815260200160002060000154105b156109f157610b17565b610a713073ffffffffffffffffffffffffffffffffffffffff1631610a63600a54600860008873ffffffffffffffffffffffffffffffffffffffff1673ffffffffffffffffffffffffffffffffffffffff16815260200190815260200160002060020154612e3e90919063ffffffff16565b612e7690919063ffffffff16565b915083821015610a845784600a0a610a87565b60015b9050610b1481610b0689610af8600860008973ffffffffffffffffffffffffffffffffffffffff1673ffffffffffffffffffffffffffffffffffffffff16815260200190815260200160002060000154610aea8789612e3e90919063ffffffff16565b612e7690919063ffffffff16565b612e3e90919063ffffffff16565b612e7690919063ffffffff16565b95505b5050505050919050565b600660009054906101000a900473ffffffffffffffffffffffffffffffffffffffff1681565b600080600073ffffffffffffffffffffffffffffffffffffffff168373ffffffffffffffffffffffffffffffffffffffff1614151515610b8657600080fd5b600860008473ffffffffffffffffffffffffffffffffffffffff1673ffffffffffffffffffffffffffffffffffffffff16815260200190815260200160002060000154600860008573ffffffffffffffffffffffffffffffffffffffff1673ffffffffffffffffffffffffffffffffffffffff1681526020019081526020016000206001015491509150915091565b600c5481565b60096020528060005260406000206000915054906101000a900460ff1681565b600160009054906101000a900473ffffffffffffffffffffffffffffffffffffffff1673ffffffffffffffffffffffffffffffffffffffff163373ffffffffffffffffffffffffffffffffffffffff16141515610c9757600080fd5b600073ffffffffffffffffffffffffffffffffffffffff168173ffffffffffffffffffffffffffffffffffffffff1614151515610cd357600080fd5b80600560006101000a81548173ffffffffffffffffffffffffffffffffffffffff021916908373ffffffffffffffffffffffffffffffffffffffff16021790555050565b6000806001600254141515610d2b57600080fd5b60028081905550339150610d3d6113cf565b1515610d4857600080fd5b600083111515610d5757600080fd5b82600860008473ffffffffffffffffffffffffffffffffffffffff1673ffffffffffffffffffffffffffffffffffffffff1681526020019081526020016000206000015410151515610da857600080fd5b82600660009054906101000a900473ffffffffffffffffffffffffffffffffffffffff1673ffffffffffffffffffffffffffffffffffffffff166370a08231846040518263ffffffff167c0100000000000000000000000000000000000000000000000000000000028152600401808273ffffffffffffffffffffffffffffffffffffffff1673ffffffffffffffffffffffffffffffffffffffff168152602001915050602060405180830381600087803b158015610e6657600080fd5b505af1158015610e7a573d6000803e3d6000fd5b505050506040513d6020811015610e9057600080fd5b810190808051906020019092919050505010151515610eae57600080fd5b82600660009054906101000a900473ffffffffffffffffffffffffffffffffffffffff1673ffffffffffffffffffffffffffffffffffffffff1663dd62ed3e33306040518363ffffffff167c0100000000000000000000000000000000000000000000000000000000028152600401808373ffffffffffffffffffffffffffffffffffffffff1673ffffffffffffffffffffffffffffffffffffffff1681526020018273ffffffffffffffffffffffffffffffffffffffff1673ffffffffffffffffffffffffffffffffffffffff16815260200192505050602060405180830381600087803b158015610fa057600080fd5b505af1158015610fb4573d6000803e3d6000fd5b505050506040513d6020811015610fca57600080fd5b810190808051906020019092919050505010151515610fe857600080fd5b610ff1836107cb565b905060008111151561100257600080fd5b600660009054906101000a900473ffffffffffffffffffffffffffffffffffffffff1673ffffffffffffffffffffffffffffffffffffffff166323b872dd83600460009054906101000a900473ffffffffffffffffffffffffffffffffffffffff16866040518463ffffffff167c0100000000000000000000000000000000000000000000000000000000028152600401808473ffffffffffffffffffffffffffffffffffffffff1673ffffffffffffffffffffffffffffffffffffffff1681526020018373ffffffffffffffffffffffffffffffffffffffff1673ffffffffffffffffffffffffffffffffffffffff1681526020018281526020019350505050602060405180830381600087803b15801561111d57600080fd5b505af1158015611131573d6000803e3d6000fd5b505050506040513d602081101561114757600080fd5b8101908080519060200190929190505050151561116357600080fd5b6111b883600860008573ffffffffffffffffffffffffffffffffffffffff1673ffffffffffffffffffffffffffffffffffffffff16815260200190815260200160002060000154612e8c90919063ffffffff16565b600860008473ffffffffffffffffffffffffffffffffffffffff1673ffffffffffffffffffffffffffffffffffffffff168152602001908152602001600020600001819055506112be61126d600754600a0a61125f600860008773ffffffffffffffffffffffffffffffffffffffff1673ffffffffffffffffffffffffffffffffffffffff1681526020019081526020016000206001015487612e3e90919063ffffffff16565b612e7690919063ffffffff16565b600860008573ffffffffffffffffffffffffffffffffffffffff1673ffffffffffffffffffffffffffffffffffffffff16815260200190815260200160002060020154612e8c90919063ffffffff16565b600860008473ffffffffffffffffffffffffffffffffffffffff1673ffffffffffffffffffffffffffffffffffffffff1681526020019081526020016000206002018190555061131981600b54612ea590919063ffffffff16565b600b819055508173ffffffffffffffffffffffffffffffffffffffff166108fc829081150290604051600060405180830381858888f19350505050158015611365573d6000803e3d6000fd5b508173ffffffffffffffffffffffffffffffffffffffff167ffc48f4f163cfed28aaf3be3f0b162a1338fab214afc9340eafc6cb081c71fadf8285604051808381526020018281526020019250505060405180910390a26001600281905550505050565b60075481565b6000806000806000600360009054906101000a900473ffffffffffffffffffffffffffffffffffffffff1673ffffffffffffffffffffffffffffffffffffffff1663d6d65f3d6040518163ffffffff167c01000000000000000000000000000000000000000000000000000000000281526004016040805180830381600087803b15801561145c57600080fd5b505af1158015611470573d6000803e3d6000fd5b505050506040513d604081101561148657600080fd5b8101908080519060200190929190805190602001909291905050509350935060008414156114b357611672565b600360009054906101000a900473ffffffffffffffffffffffffffffffffffffffff1673ffffffffffffffffffffffffffffffffffffffff16632442e1cb856040518263ffffffff167c010000000000000000000000000000000000000000000000000000000002815260040180828152602001915050600060405180830381600087803b15801561154457600080fd5b505af1158015611558573d6000803e3d6000fd5b505050506040513d6000823e3d601f19601f8201168201806040525060c081101561158257600080fd5b810190808051906020019092919080519060200190929190805190602001909291908051906020019092919080516401000000008111156115c257600080fd5b828101905060208101848111156115d857600080fd5b81518560018202830111640100000000821117156115f557600080fd5b5050929190602001805164010000000081111561161157600080fd5b8281019050602081018481111561162757600080fd5b815185600182028301116401000000008211171561164457600080fd5b50509291905050505050935050509150428263ffffffff161115801561166f57508063ffffffff1642105b94505b5050505090565b600160009054906101000a900473ffffffffffffffffffffffffffffffffffffffff1673ffffffffffffffffffffffffffffffffffffffff163373ffffffffffffffffffffffffffffffffffffffff161415156116d557600080fd5b600073ffffffffffffffffffffffffffffffffffffffff168173ffffffffffffffffffffffffffffffffffffffff161415151561171157600080fd5b80600360006101000a81548173ffffffffffffffffffffffffffffffffffffffff021916908373ffffffffffffffffffffffffffffffffffffffff1602179055508073ffffffffffffffffffffffffffffffffffffffff16634090cb646040518163ffffffff167c0100000000000000000000000000000000000000000000000000000000028152600401602060405180830381600087803b1580156117b657600080fd5b505af11580156117ca573d6000803e3d6000fd5b505050506040513d60208110156117e057600080fd5b8101908080519060200190929190505050600660006101000a81548173ffffffffffffffffffffffffffffffffffffffff021916908373ffffffffffffffffffffffffffffffffffffffff160217905550600660009054906101000a900473ffffffffffffffffffffffffffffffffffffffff1673ffffffffffffffffffffffffffffffffffffffff1663313ce5676040518163ffffffff167c0100000000000000000000000000000000000000000000000000000000028152600401602060405180830381600087803b1580156118b757600080fd5b505af11580156118cb573d6000803e3d6000fd5b505050506040513d60208110156118e157600080fd5b810190808051906020019092919050505060ff1660078190555050565b60005481565b600560009054906101000a900473ffffffffffffffffffffffffffffffffffffffff1681565b600080600080600160009054906101000a900473ffffffffffffffffffffffffffffffffffffffff1673ffffffffffffffffffffffffffffffffffffffff163373ffffffffffffffffffffffffffffffffffffffff1614151561198c57600080fd5b600160025414151561199d57600080fd5b600280819055506119ac61208b565b15156119b757600080fd5b6119bf611c88565b93506119c96125b8565b93505092506000841115156119dd57600080fd5b60016009600084815260200190815260200160002060006101000a81548160ff0219169083151502179055506000600d541115611aaa57611a29600d5485612ec190919063ffffffff16565b9050600560009054906101000a900473ffffffffffffffffffffffffffffffffffffffff1673ffffffffffffffffffffffffffffffffffffffff166108fc829081150290604051600060405180830381858888f19350505050158015611a93573d6000803e3d6000fd5b50611aa78185612e8c90919063ffffffff16565b93505b3373ffffffffffffffffffffffffffffffffffffffff166108fc859081150290604051600060405180830381858888f19350505050158015611af0573d6000803e3d6000fd5b5082600c600082825401925050819055503373ffffffffffffffffffffffffffffffffffffffff167f4a966617f50ccad97beb624d8e13820bf2a745e1640fed943858499286fc9829856040518082815260200191505060405180910390a2600160028190555050505050565b600160009054906101000a900473ffffffffffffffffffffffffffffffffffffffff1673ffffffffffffffffffffffffffffffffffffffff163373ffffffffffffffffffffffffffffffffffffffff16141515611bb957600080fd5b600160009054906101000a900473ffffffffffffffffffffffffffffffffffffffff1673ffffffffffffffffffffffffffffffffffffffff167ff8df31144d9c2f0f6b59d69b8b98abd5459d07f2742c4df920b25aae33c6482060405160405180910390a26000600160006101000a81548173ffffffffffffffffffffffffffffffffffffffff021916908373ffffffffffffffffffffffffffffffffffffffff160217905550565b600460009054906101000a900473ffffffffffffffffffffffffffffffffffffffff1681565b6000806000806000611c986125b8565b5093509350600084148015611cad5750600083145b80611ccf575060003073ffffffffffffffffffffffffffffffffffffffff1631145b15611cd957611d11565b611cf0600b54600a54612e8c90919063ffffffff16565b9150600c54838501039050611d0e8183612ec190919063ffffffff16565b94505b5050505090565b600160009054906101000a900473ffffffffffffffffffffffffffffffffffffffff1681565b600360009054906101000a900473ffffffffffffffffffffffffffffffffffffffff168073ffffffffffffffffffffffffffffffffffffffff163373ffffffffffffffffffffffffffffffffffffffff16141515611d9b57600080fd5b611df082600860008673ffffffffffffffffffffffffffffffffffffffff1673ffffffffffffffffffffffffffffffffffffffff16815260200190815260200160002060000154612ea590919063ffffffff16565b600860008573ffffffffffffffffffffffffffffffffffffffff1673ffffffffffffffffffffffffffffffffffffffff16815260200190815260200160002060000181905550611e8b34600860008673ffffffffffffffffffffffffffffffffffffffff1673ffffffffffffffffffffffffffffffffffffffff16815260200190815260200160002060020154612ea590919063ffffffff16565b600860008573ffffffffffffffffffffffffffffffffffffffff1673ffffffffffffffffffffffffffffffffffffffff16815260200190815260200160002060020181905550611f7f600860008573ffffffffffffffffffffffffffffffffffffffff1673ffffffffffffffffffffffffffffffffffffffff16815260200190815260200160002060000154611f71600754600a0a600860008873ffffffffffffffffffffffffffffffffffffffff1673ffffffffffffffffffffffffffffffffffffffff16815260200190815260200160002060020154612e3e90919063ffffffff16565b612e7690919063ffffffff16565b600860008573ffffffffffffffffffffffffffffffffffffffff1673ffffffffffffffffffffffffffffffffffffffff16815260200190815260200160002060010181905550611fda34600a54612ea590919063ffffffff16565b600a819055508273ffffffffffffffffffffffffffffffffffffffff167f363f315f930a17d1266b86a20d6dd34b1cfbc5a9db9f13a65d06a689c3a2af8a3484604051808381526020018281526020019250505060405180910390a2505050565b60086020528060005260406000206000915090508060000154908060010154908060020154905083565b600360009054906101000a900473ffffffffffffffffffffffffffffffffffffffff1681565b600080600080600080600360009054906101000a900473ffffffffffffffffffffffffffffffffffffffff1673ffffffffffffffffffffffffffffffffffffffff1663d6d65f3d6040518163ffffffff167c01000000000000000000000000000000000000000000000000000000000281526004016040805180830381600087803b15801561211957600080fd5b505af115801561212d573d6000803e3d6000fd5b505050506040513d604081101561214357600080fd5b81019080805190602001909291908051906020019092919050505094509450600360009054906101000a900473ffffffffffffffffffffffffffffffffffffffff1673ffffffffffffffffffffffffffffffffffffffff166314f66d346040518163ffffffff167c01000000000000000000000000000000000000000000000000000000000281526004016040805180830381600087803b1580156121e757600080fd5b505af11580156121fb573d6000803e3d6000fd5b505050506040513d604081101561221157600080fd5b81019080805190602001909291908051906020019092919050505050925083151561223b576125aa565b600085141561224d57600195506125aa565b600360009054906101000a900473ffffffffffffffffffffffffffffffffffffffff1673ffffffffffffffffffffffffffffffffffffffff16632442e1cb866040518263ffffffff167c010000000000000000000000000000000000000000000000000000000002815260040180828152602001915050600060405180830381600087803b1580156122de57600080fd5b505af11580156122f2573d6000803e3d6000fd5b505050506040513d6000823e3d601f19601f8201168201806040525060c081101561231c57600080fd5b8101908080519060200190929190805190602001909291908051906020019092919080519060200190929190805164010000000081111561235c57600080fd5b8281019050602081018481111561237257600080fd5b815185600182028301116401000000008211171561238f57600080fd5b505092919060200180516401000000008111156123ab57600080fd5b828101905060208101848111156123c157600080fd5b81518560018202830111640100000000821117156123de57600080fd5b505092919050505050505050509150600360009054906101000a900473ffffffffffffffffffffffffffffffffffffffff1673ffffffffffffffffffffffffffffffffffffffff16632442e1cb846040518263ffffffff167c010000000000000000000000000000000000000000000000000000000002815260040180828152602001915050600060405180830381600087803b15801561247e57600080fd5b505af1158015612492573d6000803e3d6000fd5b505050506040513d6000823e3d601f19601f8201168201806040525060c08110156124bc57600080fd5b810190808051906020019092919080519060200190929190805190602001909291908051906020019092919080516401000000008111156124fc57600080fd5b8281019050602081018481111561251257600080fd5b815185600182028301116401000000008211171561252f57600080fd5b5050929190602001805164010000000081111561254b57600080fd5b8281019050602081018481111561256157600080fd5b815185600182028301116401000000008211171561257e57600080fd5b505092919050505050509350505050428263ffffffff1611806125a75750428163ffffffff1611155b95505b505050505090565b600d5481565b600080600080600080600080600080600080600360009054906101000a900473ffffffffffffffffffffffffffffffffffffffff1673ffffffffffffffffffffffffffffffffffffffff1663d6d65f3d6040518163ffffffff167c01000000000000000000000000000000000000000000000000000000000281526004016040805180830381600087803b15801561264f57600080fd5b505af1158015612663573d6000803e3d6000fd5b505050506040513d604081101561267957600080fd5b81019080805190602001909291908051906020019092919050505098509850600360009054906101000a900473ffffffffffffffffffffffffffffffffffffffff1673ffffffffffffffffffffffffffffffffffffffff166314f66d346040518163ffffffff167c01000000000000000000000000000000000000000000000000000000000281526004016040805180830381600087803b15801561271d57600080fd5b505af1158015612731573d6000803e3d6000fd5b505050506040513d604081101561274757600080fd5b810190808051906020019092919080519060200190929190505050509650600360009054906101000a900473ffffffffffffffffffffffffffffffffffffffff1673ffffffffffffffffffffffffffffffffffffffff16632442e1cb886040518263ffffffff167c010000000000000000000000000000000000000000000000000000000002815260040180828152602001915050600060405180830381600087803b1580156127f657600080fd5b505af115801561280a573d6000803e3d6000fd5b505050506040513d6000823e3d601f19601f8201168201806040525060c081101561283457600080fd5b8101908080519060200190929190805190602001909291908051906020019092919080519060200190929190805164010000000081111561287457600080fd5b8281019050602081018481111561288a57600080fd5b81518560018202830111640100000000821117156128a757600080fd5b505092919060200180516401000000008111156128c357600080fd5b828101905060208101848111156128d957600080fd5b81518560018202830111640100000000821117156128f657600080fd5b505092919050505050509850505050871580612917575061291561208b565b155b1561292157612ce0565b600089148061293657508563ffffffff164210155b6129435760018903612945565b885b9850600360009054906101000a900473ffffffffffffffffffffffffffffffffffffffff1673ffffffffffffffffffffffffffffffffffffffff16632442e1cb8a6040518263ffffffff167c010000000000000000000000000000000000000000000000000000000002815260040180828152602001915050600060405180830381600087803b1580156129d857600080fd5b505af11580156129ec573d6000803e3d6000fd5b505050506040513d6000823e3d601f19601f8201168201806040525060c0811015612a1657600080fd5b81019080805190602001909291908051906020019092919080519060200190929190805190602001909291908051640100000000811115612a5657600080fd5b82810190506020810184811115612a6c57600080fd5b8151856001820283011164010000000082111715612a8957600080fd5b50509291906020018051640100000000811115612aa557600080fd5b82810190506020810184811115612abb57600080fd5b8151856001820283011164010000000082111715612ad857600080fd5b50509291905050505050965050955050600960008a815260200190815260200160002060009054906101000a900460ff1692508215612b1657612ce0565b8891505b6000821115612cd657818060019003925050600360009054906101000a900473ffffffffffffffffffffffffffffffffffffffff1673ffffffffffffffffffffffffffffffffffffffff16632442e1cb836040518263ffffffff167c010000000000000000000000000000000000000000000000000000000002815260040180828152602001915050600060405180830381600087803b158015612bbd57600080fd5b505af1158015612bd1573d6000803e3d6000fd5b505050506040513d6000823e3d601f19601f8201168201806040525060c0811015612bfb57600080fd5b81019080805190602001909291908051906020019092919080519060200190929190805190602001909291908051640100000000811115612c3b57600080fd5b82810190506020810184811115612c5157600080fd5b8151856001820283011164010000000082111715612c6e57600080fd5b50509291906020018051640100000000811115612c8a57600080fd5b82810190506020810184811115612ca057600080fd5b8151856001820283011164010000000082111715612cbd57600080fd5b505092919050505050505050915050808b019a50612b1a565b848b8a9b509b509b505b505050505050505050909192565b600160009054906101000a900473ffffffffffffffffffffffffffffffffffffffff1673ffffffffffffffffffffffffffffffffffffffff163373ffffffffffffffffffffffffffffffffffffffff16141515612d4a57600080fd5b600073ffffffffffffffffffffffffffffffffffffffff168173ffffffffffffffffffffffffffffffffffffffff1614151515612d8657600080fd5b80600460006101000a81548173ffffffffffffffffffffffffffffffffffffffff021916908373ffffffffffffffffffffffffffffffffffffffff16021790555050565b600a5481565b600b5481565b600160009054906101000a900473ffffffffffffffffffffffffffffffffffffffff1673ffffffffffffffffffffffffffffffffffffffff163373ffffffffffffffffffffffffffffffffffffffff16141515612e3257600080fd5b612e3b81612f0b565b50565b600080831415612e515760009050612e70565b8183029050818382811515612e6257fe5b04141515612e6c57fe5b8090505b92915050565b60008183811515612e8357fe5b04905092915050565b6000828211151515612e9a57fe5b818303905092915050565b60008183019050828110151515612eb857fe5b80905092915050565b6000612ecc82613007565b1515612ed757600080fd5b612f03612ee261302e565b612ef58486612e3e90919063ffffffff16565b612e7690919063ffffffff16565b905092915050565b600073ffffffffffffffffffffffffffffffffffffffff168173ffffffffffffffffffffffffffffffffffffffff1614151515612f4757600080fd5b8073ffffffffffffffffffffffffffffffffffffffff16600160009054906101000a900473ffffffffffffffffffffffffffffffffffffffff1673ffffffffffffffffffffffffffffffffffffffff167f8be0079c531659141344cd1fd0a4f28419497f9722a3daafe3b4186f6b6457e060405160405180910390a380600160006101000a81548173ffffffffffffffffffffffffffffffffffffffff021916908373ffffffffffffffffffffffffffffffffffffffff16021790555050565b6000613011613040565b8210158015613027575061302361302e565b8211155b9050919050565b6000613038613048565b600a0a905090565b600080905090565b600061305261305a565b600201905090565b60006002905090565b600061306e82613007565b151561307957600080fd5b61309661308461305a565b600a0a83612e7690919063ffffffff16565b90509190505600a165627a7a72305820c7d85ae39edc5391ff6cbfe031d8912e07f1c2b9a3fbd529f4309ef16a678fcf0029",
  "source": "pragma solidity ^0.4.24;\n\nimport \"openzeppelin-solidity/contracts/ownership/Ownable.sol\";\nimport \"openzeppelin-solidity/contracts/ReentrancyGuard.sol\";\nimport \"openzeppelin-solidity/contracts/math/SafeMath.sol\";\nimport \"./WToken.sol\";\nimport \"./interfaces/IW12Crowdsale.sol\";\nimport \"./interfaces/IW12Fund.sol\";\nimport \"./libs/Percent.sol\";\nimport \"./versioning/Versionable.sol\";\n\ncontract W12Fund is Versionable, IW12Fund, Ownable, ReentrancyGuard {\n    using SafeMath for uint;\n    using Percent for uint;\n\n    IW12Crowdsale public crowdsale;\n    address public swap;\n    address public serviceWallet;\n    WToken public wToken;\n    uint public tokenDecimals; // TODO: refactor this\n    mapping (address=>TokenPriceInfo) public buyers;\n    mapping (uint => bool) public completedTranches; // TODO: refactor this\n    uint public totalFunded;\n    uint public totalRefunded;\n    uint public totalTranchePercentReleased;\n    uint public trancheFeePercent;\n\n    struct TokenPriceInfo {\n        uint totalBought;\n        uint averagePrice;\n        uint totalFunded;\n    }\n\n    event FundsReceived(address indexed buyer, uint weiAmount, uint tokenAmount);\n    event FundsRefunded(address indexed buyer, uint weiAmount, uint tokenAmount);\n    event TrancheReleased(address indexed receiver, uint amount);\n\n    constructor(uint version, uint _trancheFeePercent) Versionable(version) public {\n        require(_trancheFeePercent.isPercent() && _trancheFeePercent.fromPercent() < 100);\n\n        trancheFeePercent = _trancheFeePercent;\n    }\n\n    function setCrowdsale(IW12Crowdsale _crowdsale) onlyOwner external {\n        require(_crowdsale != address(0));\n\n        crowdsale = _crowdsale;\n        wToken = _crowdsale.getWToken();\n        tokenDecimals = wToken.decimals();\n    }\n\n    function setSwap(address _swap) onlyOwner external {\n        require(_swap != address(0));\n\n        swap = _swap;\n    }\n\n    function setServiceWallet(address _serviceWallet) onlyOwner external {\n        require(_serviceWallet != address(0));\n\n        serviceWallet = _serviceWallet;\n    }\n\n    function recordPurchase(address buyer, uint tokenAmount) external payable onlyFrom(crowdsale) {\n        buyers[buyer].totalBought = buyers[buyer].totalBought.add(tokenAmount);\n        buyers[buyer].totalFunded = buyers[buyer].totalFunded.add(msg.value);\n        buyers[buyer].averagePrice = (buyers[buyer].totalFunded.mul(10 ** tokenDecimals)).div(buyers[buyer].totalBought);\n\n        totalFunded = totalFunded.add(msg.value);\n\n        emit FundsReceived(buyer, msg.value, tokenAmount);\n    }\n\n    function getInvestmentsInfo(address buyer) external view returns (uint totalTokensBought, uint averageTokenPrice) {\n        require(buyer != address(0));\n\n        return (buyers[buyer].totalBought, buyers[buyer].averagePrice);\n    }\n\n    /**\n        a = address(this).balance\n        b = totalFunded\n        c = buyers[buyer].totalFunded\n        d = buyers[buyer].totalBought\n        e = wtokensToRefund\n\n        ( ( c * (a / b) ) / d ) * e = (refund amount)\n    */\n    function getRefundAmount(uint wtokensToRefund) public view returns (uint result) {\n        uint exp = tokenDecimals < tokenDecimals + 8 ? tokenDecimals + 8 : tokenDecimals;\n        uint max = uint(-1) / 10 ** exp;\n        address buyer = msg.sender;\n\n        if(wtokensToRefund == 0\n            || buyers[buyer].totalBought == 0\n            || address(this).balance == 0\n            || wToken.balanceOf(buyer) < wtokensToRefund\n            || buyers[buyer].totalBought < wtokensToRefund\n        ) return;\n\n        uint allowedFund = buyers[buyer].totalFunded.mul(totalFunded).div(address(this).balance);\n        uint precisionComponent = allowedFund >= max ? 1 : 10 ** exp;\n\n        result = allowedFund\n            .mul(precisionComponent)\n            .div(buyers[buyer].totalBought)\n            .mul(wtokensToRefund)\n            .div(precisionComponent);\n    }\n\n    function getTrancheAmount() public view returns (uint result) {\n        (uint tranchePercent, uint totalTranchePercentBefore, ) = getTrancheParameters();\n\n        if (\n            tranchePercent == 0 && totalTranchePercentBefore == 0\n            || address(this).balance == 0\n        ) return;\n\n        uint allowedFund = totalFunded.sub(totalRefunded);\n        uint trancheToRelease = tranchePercent + totalTranchePercentBefore - totalTranchePercentReleased;\n\n        result = allowedFund.percent(trancheToRelease);\n    }\n\n    function getTrancheParameters() public view returns (uint, uint totalTranchePercentBefore, uint) {\n        (uint index, bool found) = crowdsale.getCurrentMilestoneIndex();\n        (uint lastIndex, ) = crowdsale.getLastMilestoneIndex();\n        (,,, uint32 lastWithdrawalWindow,,) = crowdsale.getMilestone(lastIndex);\n\n        if (!found || !trancheTransferAllowed()) return;\n\n        // get percent from prev milestone\n        index = index == 0 || now >= lastWithdrawalWindow ? index : index - 1;\n\n        ( , uint tranchePercent, , uint32 withdrawalWindow, , ) = crowdsale.getMilestone(index);\n\n        bool completed = completedTranches[index];\n\n        if (completed) return;\n\n        uint dIndex = index;\n\n        while (dIndex > 0) {\n            dIndex--;\n\n            (, uint _tranchePercent, , , , ) = crowdsale.getMilestone(dIndex);\n\n            totalTranchePercentBefore += _tranchePercent;\n        }\n\n        return (\n            tranchePercent,\n            // it will helps to calculate tranche\n            totalTranchePercentBefore,\n            index\n        );\n    }\n\n    function tranche() external onlyOwner nonReentrant {\n        require(trancheTransferAllowed());\n\n        uint trancheAmount = getTrancheAmount();\n        (uint tranchePercent, ,uint milestoneIndex) = getTrancheParameters();\n\n        require(trancheAmount > 0);\n\n        completedTranches[milestoneIndex] = true;\n\n        if (trancheFeePercent > 0) {\n            uint fee = trancheAmount.percent(trancheFeePercent);\n\n            serviceWallet.transfer(fee);\n\n            trancheAmount = trancheAmount.sub(fee);\n        }\n\n        msg.sender.transfer(trancheAmount);\n\n        totalTranchePercentReleased += tranchePercent;\n\n        emit TrancheReleased(msg.sender, trancheAmount);\n    }\n\n    function refund(uint wtokensToRefund) external nonReentrant {\n        address buyer = msg.sender;\n\n        require(refundAllowed());\n        require(wtokensToRefund > 0);\n        require(buyers[buyer].totalBought >= wtokensToRefund);\n        require(wToken.balanceOf(buyer) >= wtokensToRefund);\n        require(wToken.allowance(msg.sender, address(this)) >= wtokensToRefund);\n\n        uint transferAmount = getRefundAmount(wtokensToRefund);\n\n        require(transferAmount > 0);\n        require(wToken.transferFrom(buyer, swap, wtokensToRefund));\n\n        buyers[buyer].totalBought = buyers[buyer].totalBought\n            .sub(wtokensToRefund);\n        buyers[buyer].totalFunded = buyers[buyer].totalFunded\n            .sub(wtokensToRefund.mul(buyers[buyer].averagePrice).div(10 ** tokenDecimals));\n\n        // update total refunded amount counter\n        totalRefunded = totalRefunded.add(transferAmount);\n\n        buyer.transfer(transferAmount);\n\n        emit FundsRefunded(buyer, transferAmount, wtokensToRefund);\n    }\n\n    function refundAllowed() public view returns (bool) {\n        (uint index, bool found) = crowdsale.getCurrentMilestoneIndex();\n\n        // first milestone is reserved for the project to claim initial amount of payments. No refund allowed at this stage.\n        if(index == 0) return;\n\n        (uint32 endDate, , , uint32 withdrawalWindow, , ) = crowdsale.getMilestone(index);\n\n        return endDate <= now && now < withdrawalWindow;\n    }\n\n    function trancheTransferAllowed() public view returns (bool) {\n        (uint index, bool found) = crowdsale.getCurrentMilestoneIndex();\n        (uint lastIndex, ) = crowdsale.getLastMilestoneIndex();\n\n        if(!found) return;\n        if(index == 0) return true;\n\n        (uint32 endDate, , , , , ) = crowdsale.getMilestone(index);\n        (, , ,uint32 lastWithdrawalWindow, , ) = crowdsale.getMilestone(lastIndex);\n\n        return endDate > now || lastWithdrawalWindow <= now;\n    }\n\n    modifier onlyFrom(address sender) {\n        require(msg.sender == sender);\n\n        _;\n    }\n}\n",
  "sourcePath": "/home/circleci/code/contracts/W12Fund.sol",
  "compiler": {
    "name": "solc",
    "version": "0.4.24+commit.e67f0147.Emscripten.clang"
  },
  "schemaVersion": "2.0.1",
  "updatedAt": "2018-09-28T12:09:35.678Z"
}