{
  "contractName": "W12FundStub",
  "abi": [
    {
      "constant": true,
      "inputs": [
        {
          "name": "wtokensToRefund",
          "type": "uint256"
        }
      ],
      "name": "getRefundAmount",
      "outputs": [
        {
          "name": "result",
          "type": "uint256"
        }
      ],
      "payable": false,
      "stateMutability": "view",
      "type": "function"
    },
    {
      "constant": true,
      "inputs": [],
      "name": "wToken",
      "outputs": [
        {
          "name": "",
          "type": "address"
        }
      ],
      "payable": false,
      "stateMutability": "view",
      "type": "function"
    },
    {
      "constant": true,
      "inputs": [
        {
          "name": "buyer",
          "type": "address"
        }
      ],
      "name": "getInvestmentsInfo",
      "outputs": [
        {
          "name": "totalTokensBought",
          "type": "uint256"
        },
        {
          "name": "averageTokenPrice",
          "type": "uint256"
        }
      ],
      "payable": false,
      "stateMutability": "view",
      "type": "function"
    },
    {
      "constant": true,
      "inputs": [],
      "name": "totalTranchePercentReleased",
      "outputs": [
        {
          "name": "",
          "type": "uint256"
        }
      ],
      "payable": false,
      "stateMutability": "view",
      "type": "function"
    },
    {
      "constant": true,
      "inputs": [
        {
          "name": "",
          "type": "uint256"
        }
      ],
      "name": "completedTranches",
      "outputs": [
        {
          "name": "",
          "type": "bool"
        }
      ],
      "payable": false,
      "stateMutability": "view",
      "type": "function"
    },
    {
      "constant": false,
      "inputs": [
        {
          "name": "_serviceWallet",
          "type": "address"
        }
      ],
      "name": "setServiceWallet",
      "outputs": [],
      "payable": false,
      "stateMutability": "nonpayable",
      "type": "function"
    },
    {
      "constant": false,
      "inputs": [
        {
          "name": "wtokensToRefund",
          "type": "uint256"
        }
      ],
      "name": "refund",
      "outputs": [],
      "payable": false,
      "stateMutability": "nonpayable",
      "type": "function"
    },
    {
      "constant": true,
      "inputs": [],
      "name": "tokenDecimals",
      "outputs": [
        {
          "name": "",
          "type": "uint256"
        }
      ],
      "payable": false,
      "stateMutability": "view",
      "type": "function"
    },
    {
      "constant": true,
      "inputs": [],
      "name": "refundAllowed",
      "outputs": [
        {
          "name": "",
          "type": "bool"
        }
      ],
      "payable": false,
      "stateMutability": "view",
      "type": "function"
    },
    {
      "constant": false,
      "inputs": [
        {
          "name": "_crowdsale",
          "type": "address"
        }
      ],
      "name": "setCrowdsale",
      "outputs": [],
      "payable": false,
      "stateMutability": "nonpayable",
      "type": "function"
    },
    {
      "constant": true,
      "inputs": [],
      "name": "version",
      "outputs": [
        {
          "name": "",
          "type": "uint256"
        }
      ],
      "payable": false,
      "stateMutability": "view",
      "type": "function"
    },
    {
      "constant": true,
      "inputs": [],
      "name": "serviceWallet",
      "outputs": [
        {
          "name": "",
          "type": "address"
        }
      ],
      "payable": false,
      "stateMutability": "view",
      "type": "function"
    },
    {
      "constant": false,
      "inputs": [],
      "name": "tranche",
      "outputs": [],
      "payable": false,
      "stateMutability": "nonpayable",
      "type": "function"
    },
    {
      "constant": false,
      "inputs": [],
      "name": "renounceOwnership",
      "outputs": [],
      "payable": false,
      "stateMutability": "nonpayable",
      "type": "function"
    },
    {
      "constant": true,
      "inputs": [],
      "name": "swap",
      "outputs": [
        {
          "name": "",
          "type": "address"
        }
      ],
      "payable": false,
      "stateMutability": "view",
      "type": "function"
    },
    {
      "constant": true,
      "inputs": [],
      "name": "getTrancheAmount",
      "outputs": [
        {
          "name": "result",
          "type": "uint256"
        }
      ],
      "payable": false,
      "stateMutability": "view",
      "type": "function"
    },
    {
      "constant": true,
      "inputs": [],
      "name": "owner",
      "outputs": [
        {
          "name": "",
          "type": "address"
        }
      ],
      "payable": false,
      "stateMutability": "view",
      "type": "function"
    },
    {
      "constant": false,
      "inputs": [
        {
          "name": "buyer",
          "type": "address"
        },
        {
          "name": "tokenAmount",
          "type": "uint256"
        }
      ],
      "name": "recordPurchase",
      "outputs": [],
      "payable": true,
      "stateMutability": "payable",
      "type": "function"
    },
    {
      "constant": true,
      "inputs": [
        {
          "name": "",
          "type": "address"
        }
      ],
      "name": "buyers",
      "outputs": [
        {
          "name": "totalBought",
          "type": "uint256"
        },
        {
          "name": "averagePrice",
          "type": "uint256"
        },
        {
          "name": "totalFunded",
          "type": "uint256"
        }
      ],
      "payable": false,
      "stateMutability": "view",
      "type": "function"
    },
    {
      "constant": true,
      "inputs": [],
      "name": "crowdsale",
      "outputs": [
        {
          "name": "",
          "type": "address"
        }
      ],
      "payable": false,
      "stateMutability": "view",
      "type": "function"
    },
    {
      "constant": true,
      "inputs": [],
      "name": "trancheTransferAllowed",
      "outputs": [
        {
          "name": "",
          "type": "bool"
        }
      ],
      "payable": false,
      "stateMutability": "view",
      "type": "function"
    },
    {
      "constant": true,
      "inputs": [],
      "name": "trancheFeePercent",
      "outputs": [
        {
          "name": "",
          "type": "uint256"
        }
      ],
      "payable": false,
      "stateMutability": "view",
      "type": "function"
    },
    {
      "constant": true,
      "inputs": [],
      "name": "getTrancheParameters",
      "outputs": [
        {
          "name": "",
          "type": "uint256"
        },
        {
          "name": "totalTranchePercentBefore",
          "type": "uint256"
        },
        {
          "name": "",
          "type": "uint256"
        }
      ],
      "payable": false,
      "stateMutability": "view",
      "type": "function"
    },
    {
      "constant": false,
      "inputs": [
        {
          "name": "_swap",
          "type": "address"
        }
      ],
      "name": "setSwap",
      "outputs": [],
      "payable": false,
      "stateMutability": "nonpayable",
      "type": "function"
    },
    {
      "constant": true,
      "inputs": [],
      "name": "totalFunded",
      "outputs": [
        {
          "name": "",
          "type": "uint256"
        }
      ],
      "payable": false,
      "stateMutability": "view",
      "type": "function"
    },
    {
      "constant": true,
      "inputs": [],
      "name": "totalRefunded",
      "outputs": [
        {
          "name": "",
          "type": "uint256"
        }
      ],
      "payable": false,
      "stateMutability": "view",
      "type": "function"
    },
    {
      "constant": false,
      "inputs": [
        {
          "name": "_newOwner",
          "type": "address"
        }
      ],
      "name": "transferOwnership",
      "outputs": [],
      "payable": false,
      "stateMutability": "nonpayable",
      "type": "function"
    },
    {
      "inputs": [
        {
          "name": "version",
          "type": "uint256"
        },
        {
          "name": "crowdsaleAddress",
          "type": "address"
        },
        {
          "name": "swapAddress",
          "type": "address"
        },
        {
          "name": "wTokenAddress",
          "type": "address"
        },
        {
          "name": "_serviceWallet",
          "type": "address"
        },
        {
          "name": "_trancheFeePercent",
          "type": "uint256"
        }
      ],
      "payable": false,
      "stateMutability": "nonpayable",
      "type": "constructor"
    },
    {
      "payable": true,
      "stateMutability": "payable",
      "type": "fallback"
    },
    {
      "anonymous": false,
      "inputs": [
        {
          "indexed": true,
          "name": "buyer",
          "type": "address"
        },
        {
          "indexed": false,
          "name": "weiAmount",
          "type": "uint256"
        },
        {
          "indexed": false,
          "name": "tokenAmount",
          "type": "uint256"
        }
      ],
      "name": "FundsReceived",
      "type": "event"
    },
    {
      "anonymous": false,
      "inputs": [
        {
          "indexed": true,
          "name": "buyer",
          "type": "address"
        },
        {
          "indexed": false,
          "name": "weiAmount",
          "type": "uint256"
        },
        {
          "indexed": false,
          "name": "tokenAmount",
          "type": "uint256"
        }
      ],
      "name": "FundsRefunded",
      "type": "event"
    },
    {
      "anonymous": false,
      "inputs": [
        {
          "indexed": true,
          "name": "receiver",
          "type": "address"
        },
        {
          "indexed": false,
          "name": "amount",
          "type": "uint256"
        }
      ],
      "name": "TrancheReleased",
      "type": "event"
    },
    {
      "anonymous": false,
      "inputs": [
        {
          "indexed": true,
          "name": "previousOwner",
          "type": "address"
        }
      ],
      "name": "OwnershipRenounced",
      "type": "event"
    },
    {
      "anonymous": false,
      "inputs": [
        {
          "indexed": true,
          "name": "previousOwner",
          "type": "address"
        },
        {
          "indexed": true,
          "name": "newOwner",
          "type": "address"
        }
      ],
      "name": "OwnershipTransferred",
      "type": "event"
    },
    {
      "constant": false,
      "inputs": [
        {
          "name": "amount",
          "type": "uint256"
        }
      ],
      "name": "_setTotalFunded",
      "outputs": [],
      "payable": false,
      "stateMutability": "nonpayable",
      "type": "function"
    },
    {
      "constant": false,
      "inputs": [
        {
          "name": "amount",
          "type": "uint256"
        }
      ],
      "name": "_setTotalRefunded",
      "outputs": [],
      "payable": false,
      "stateMutability": "nonpayable",
      "type": "function"
    }
  ],
  "bytecode": "0x608060405260016002553480156200001657600080fd5b5060405160c0806200218883398101604090815281516020830151918301516060840151608085015160a090950151600084905560018054600160a060020a031916331790559294919290919085816200007e8164010000000062001e3b620001a482021704565b8015620000a357506064620000a18264010000000062001e8e620001e182021704565b105b1515620000af57600080fd5b600d555060038054600160a060020a03808816600160a060020a031992831617909255600480548784169083161781556006805487851693169290921791829055604080517f313ce5670000000000000000000000000000000000000000000000000000000081529051929093169263313ce56792818301926020928290030181600087803b1580156200014257600080fd5b505af115801562000157573d6000803e3d6000fd5b505050506040513d60208110156200016e57600080fd5b505160ff16600755600d5560058054600160a060020a031916600160a060020a0392909216919091179055506200028d92505050565b6000620001b964010000000062000233810204565b8210158015620001db5750620001d764010000000062000238810204565b8211155b92915050565b6000620001f782640100000000620001a4810204565b15156200020357600080fd5b620001db6200021a64010000000062000255810204565b8390600a0a64010000000062001d5e6200025a82021704565b600090565b60006200024d64010000000062000270810204565b600a0a905090565b600290565b600081838115156200026857fe5b049392505050565b60006200028564010000000062000255810204565b600201905090565b611eeb806200029d6000396000f30060806040526004361061015b5763ffffffff60e060020a60003504166304cd5294811461015d5780630babd8641461018757806311fa7da2146101b857806319ae48ed146101f257806323585f961461020757806323bffccc14610233578063278ecde1146102545780633b97e8561461026c5780633fa911ae14610281578063483a20b21461029657806354fd4d50146102b75780635641f3c3146102cc5780636ebc0af1146102e1578063715018a6146102f6578063774dfa4e1461030b5780638119c065146103235780638ce2bc2a146103385780638da5cb5b1461034d578063958799cb1461036257806397a993aa146103795780639c1e03a0146103b85780639e80baac146103cd578063a328665a146103e2578063a5db096a146103f7578063ac2a2a341461040f578063acb3c07314610424578063ad044f4914610445578063d90829621461045a578063f2fde38b1461046f575b005b34801561016957600080fd5b50610175600435610490565b60408051918252519081900360200190f35b34801561019357600080fd5b5061019c6106ba565b60408051600160a060020a039092168252519081900360200190f35b3480156101c457600080fd5b506101d9600160a060020a03600435166106c9565b6040805192835260208301919091528051918290030190f35b3480156101fe57600080fd5b50610175610706565b34801561021357600080fd5b5061021f60043561070c565b604080519115158252519081900360200190f35b34801561023f57600080fd5b5061015b600160a060020a0360043516610721565b34801561026057600080fd5b5061015b60043561077c565b34801561027857600080fd5b50610175610b36565b34801561028d57600080fd5b5061021f610b3c565b3480156102a257600080fd5b5061015b600160a060020a0360043516610d51565b3480156102c357600080fd5b50610175610eda565b3480156102d857600080fd5b5061019c610ee0565b3480156102ed57600080fd5b5061015b610eef565b34801561030257600080fd5b5061015b611070565b34801561031757600080fd5b5061015b6004356110de565b34801561032f57600080fd5b5061019c6110e3565b34801561034457600080fd5b506101756110f2565b34801561035957600080fd5b5061019c611176565b61015b600160a060020a0360043516602435611185565b34801561038557600080fd5b5061039a600160a060020a03600435166112b6565b60408051938452602084019290925282820152519081900360600190f35b3480156103c457600080fd5b5061019c6112d7565b3480156103d957600080fd5b5061021f6112e6565b3480156103ee57600080fd5b506101756116d7565b34801561040357600080fd5b5061015b6004356116dd565b34801561041b57600080fd5b5061039a6116e2565b34801561043057600080fd5b5061015b600160a060020a0360043516611c98565b34801561045157600080fd5b50610175611cf3565b34801561046657600080fd5b50610175611cf9565b34801561047b57600080fd5b5061015b600160a060020a0360043516611cff565b6000806000806000806104af6008600754611d2290919063ffffffff16565b600754106104bf576007546104d3565b6007546104d390600863ffffffff611d2216565b94507f199999999999999999999999999999999999999999999999999999999999999985111561050257600080fd5b84600a0a60001981151561051257fe5b04935033925086158061053b5750600160a060020a038316600090815260086020526040902054155b8061054557503031155b806105e45750600654604080517f70a08231000000000000000000000000000000000000000000000000000000008152600160a060020a03868116600483015291518a9392909216916370a08231916024808201926020929091908290030181600087803b1580156105b657600080fd5b505af11580156105ca573d6000803e3d6000fd5b505050506040513d60208110156105e057600080fd5b5051105b806106065750600160a060020a03831660009081526008602052604090205487115b15610610576106b0565b600a54600160a060020a038416600090815260086020526040902060020154610651913031916106459163ffffffff611d3516565b9063ffffffff611d5e16565b9150838210156106645784600a0a610667565b60015b600160a060020a0384166000908152600860205260409020549091506106ad908290610645908a906106a19083888663ffffffff611d3516565b9063ffffffff611d3516565b95505b5050505050919050565b600654600160a060020a031681565b600080600160a060020a03831615156106e157600080fd5b5050600160a060020a0316600090815260086020526040902080546001909101549091565b600c5481565b60096020526000908152604090205460ff1681565b600154600160a060020a0316331461073857600080fd5b600160a060020a038116151561074d57600080fd5b6005805473ffffffffffffffffffffffffffffffffffffffff1916600160a060020a0392909216919091179055565b600080600160025414151561079057600080fd5b6002805533915061079f610b3c565b15156107aa57600080fd5b600083116107b757600080fd5b600160a060020a0382166000908152600860205260409020548311156107dc57600080fd5b600654604080517f70a08231000000000000000000000000000000000000000000000000000000008152600160a060020a0385811660048301529151869392909216916370a08231916024808201926020929091908290030181600087803b15801561084757600080fd5b505af115801561085b573d6000803e3d6000fd5b505050506040513d602081101561087157600080fd5b5051101561087e57600080fd5b600654604080517fdd62ed3e00000000000000000000000000000000000000000000000000000000815233600482015230602482015290518592600160a060020a03169163dd62ed3e9160448083019260209291908290030181600087803b1580156108e957600080fd5b505af11580156108fd573d6000803e3d6000fd5b505050506040513d602081101561091357600080fd5b5051101561092057600080fd5b61092983610490565b90506000811161093857600080fd5b600160a060020a038216600090815260086020526040902054610961908463ffffffff611d7316565b600160a060020a03831660009081526008602052604090209081556007546001909101546109cd916109a591600a9190910a9061064590879063ffffffff611d3516565b600160a060020a0384166000908152600860205260409020600201549063ffffffff611d7316565b600160a060020a038316600090815260086020526040902060020155600b546109fc908263ffffffff611d2216565b600b5560065460048054604080517f23b872dd000000000000000000000000000000000000000000000000000000008152600160a060020a03878116948201949094529183166024830152604482018790525191909216916323b872dd9160648083019260209291908290030181600087803b158015610a7b57600080fd5b505af1158015610a8f573d6000803e3d6000fd5b505050506040513d6020811015610aa557600080fd5b50511515610ab257600080fd5b604051600160a060020a0383169082156108fc029083906000818181858888f19350505050158015610ae8573d6000803e3d6000fd5b5060408051828152602081018590528151600160a060020a038516927ffc48f4f163cfed28aaf3be3f0b162a1338fab214afc9340eafc6cb081c71fadf928290030190a25050600160025550565b60075481565b600354604080517fd6d65f3d00000000000000000000000000000000000000000000000000000000815281516000938493849384938493600160a060020a03169263d6d65f3d926004808201939182900301818787803b158015610b9f57600080fd5b505af1158015610bb3573d6000803e3d6000fd5b505050506040513d6040811015610bc957600080fd5b5080516020909101519094509250831515610be357610d4a565b6003546040805160e060020a632442e1cb028152600481018790529051600160a060020a0390921691632442e1cb9160248082019260009290919082900301818387803b158015610c3357600080fd5b505af1158015610c47573d6000803e3d6000fd5b505050506040513d6000823e601f3d908101601f1916820160405260c0811015610c7057600080fd5b815160208301516040840151606085015160808601805194969395929491939283019291640100000000811115610ca657600080fd5b82016020810184811115610cb957600080fd5b8151640100000000811182820187101715610cd357600080fd5b50509291906020018051640100000000811115610cef57600080fd5b82016020810184811115610d0257600080fd5b8151640100000000811182820187101715610d1c57600080fd5b50509291905050505050935050509150428263ffffffff1611158015610d4757508063ffffffff1642105b94505b5050505090565b600154600160a060020a03163314610d6857600080fd5b600160a060020a0381161515610d7d57600080fd5b6003805473ffffffffffffffffffffffffffffffffffffffff1916600160a060020a038316908117909155604080517f4090cb640000000000000000000000000000000000000000000000000000000081529051634090cb64916004808201926020929091908290030181600087803b158015610df957600080fd5b505af1158015610e0d573d6000803e3d6000fd5b505050506040513d6020811015610e2357600080fd5b50516006805473ffffffffffffffffffffffffffffffffffffffff1916600160a060020a039283161790819055604080517f313ce5670000000000000000000000000000000000000000000000000000000081529051919092169163313ce5679160048083019260209291908290030181600087803b158015610ea557600080fd5b505af1158015610eb9573d6000803e3d6000fd5b505050506040513d6020811015610ecf57600080fd5b505160ff1660075550565b60005481565b600554600160a060020a031681565b600154600090819081908190600160a060020a03163314610f0f57600080fd5b600254600114610f1e57600080fd5b60028055610f2a6112e6565b1515610f3557600080fd5b610f3d6110f2565b9350610f476116e2565b9350509250600084111515610f5b57600080fd5b6000828152600960205260408120805460ff19166001179055600d541115610fa657600d54610f9190859063ffffffff611d8516565b9050610fa3848263ffffffff611d7316565b93505b600c54610fb9908463ffffffff611d2216565b600c55600081111561100157600554604051600160a060020a039091169082156108fc029083906000818181858888f19350505050158015610fff573d6000803e3d6000fd5b505b604051339085156108fc029086906000818181858888f1935050505015801561102e573d6000803e3d6000fd5b5060408051858152905133917f4a966617f50ccad97beb624d8e13820bf2a745e1640fed943858499286fc9829919081900360200190a2505060016002555050565b600154600160a060020a0316331461108757600080fd5b600154604051600160a060020a03909116907ff8df31144d9c2f0f6b59d69b8b98abd5459d07f2742c4df920b25aae33c6482090600090a26001805473ffffffffffffffffffffffffffffffffffffffff19169055565b600a55565b600454600160a060020a031681565b60008060008060006111026116e2565b5093509350836000148015611115575082155b8061111f57503031155b1561112957610d4a565b600b54600a5461113e9163ffffffff611d7316565b600c5490925061116490611158868663ffffffff611d2216565b9063ffffffff611d7316565b9050610d47828263ffffffff611d8516565b600154600160a060020a031681565b600354600160a060020a03166000821161119e57600080fd5b600034116111ab57600080fd5b600160a060020a0383166000908152600860205260409020546111d4908363ffffffff611d2216565b600160a060020a038416600090815260086020526040902090815560020154611203903463ffffffff611d2216565b600160a060020a0384166000908152600860205260409020600281018290555460075461123c9261064591600a0a63ffffffff611d3516565b600160a060020a038416600090815260086020526040902060010155600a5461126b903463ffffffff611d2216565b600a5560408051348152602081018490528151600160a060020a038616927f363f315f930a17d1266b86a20d6dd34b1cfbc5a9db9f13a65d06a689c3a2af8a928290030190a2505050565b60086020526000908152604090208054600182015460029092015490919083565b600354600160a060020a031681565b600080600080600080600360009054906101000a9004600160a060020a0316600160a060020a031663d6d65f3d6040518163ffffffff1660e060020a0281526004016040805180830381600087803b15801561134157600080fd5b505af1158015611355573d6000803e3d6000fd5b505050506040513d604081101561136b57600080fd5b508051602090910151600354604080517f14f66d340000000000000000000000000000000000000000000000000000000081528151949950929750600160a060020a03909116926314f66d349260048082019392918290030181600087803b1580156113d657600080fd5b505af11580156113ea573d6000803e3d6000fd5b505050506040513d604081101561140057600080fd5b50519250831515611410576116cf565b84151561142057600195506116cf565b6003546040805160e060020a632442e1cb028152600481018890529051600160a060020a0390921691632442e1cb9160248082019260009290919082900301818387803b15801561147057600080fd5b505af1158015611484573d6000803e3d6000fd5b505050506040513d6000823e601f3d908101601f1916820160405260c08110156114ad57600080fd5b8151602083015160408401516060850151608086018051949693959294919392830192916401000000008111156114e357600080fd5b820160208101848111156114f657600080fd5b815164010000000081118282018710171561151057600080fd5b5050929190602001805164010000000081111561152c57600080fd5b8201602081018481111561153f57600080fd5b815164010000000081118282018710171561155957600080fd5b50506003546040805160e060020a632442e1cb028152600481018f905290519a9c50600160a060020a0390911699632442e1cb9950602480830199506000985090965090869003019350849250859150889050803b1580156115ba57600080fd5b505af11580156115ce573d6000803e3d6000fd5b505050506040513d6000823e601f3d908101601f1916820160405260c08110156115f757600080fd5b81516020830151604084015160608501516080860180519496939592949193928301929164010000000081111561162d57600080fd5b8201602081018481111561164057600080fd5b815164010000000081118282018710171561165a57600080fd5b5050929190602001805164010000000081111561167657600080fd5b8201602081018481111561168957600080fd5b81516401000000008111828201871017156116a357600080fd5b505092919050505050509350505050428263ffffffff1611806116cc5750428163ffffffff1611155b95505b505050505090565b600d5481565b600b55565b600080600080600080600080600080600080600360009054906101000a9004600160a060020a0316600160a060020a031663d6d65f3d6040518163ffffffff1660e060020a0281526004016040805180830381600087803b15801561174657600080fd5b505af115801561175a573d6000803e3d6000fd5b505050506040513d604081101561177057600080fd5b508051602090910151600354604080517f14f66d340000000000000000000000000000000000000000000000000000000081528151949d50929b50600160a060020a03909116926314f66d349260048082019392918290030181600087803b1580156117db57600080fd5b505af11580156117ef573d6000803e3d6000fd5b505050506040513d604081101561180557600080fd5b50516003546040805160e060020a632442e1cb028152600481018490529051929950600160a060020a0390911691632442e1cb9160248082019260009290919082900301818387803b15801561185a57600080fd5b505af115801561186e573d6000803e3d6000fd5b505050506040513d6000823e601f3d908101601f1916820160405260c081101561189757600080fd5b8151602083015160408401516060850151608086018051949693959294919392830192916401000000008111156118cd57600080fd5b820160208101848111156118e057600080fd5b81516401000000008111828201871017156118fa57600080fd5b5050929190602001805164010000000081111561191657600080fd5b8201602081018481111561192957600080fd5b815164010000000081118282018710171561194357600080fd5b50509291905050505050985050505087158061196457506119626112e6565b155b1561196e57611c8a565b88158061198157508563ffffffff164210155b61198e5760018903611990565b885b6003546040805160e060020a632442e1cb028152600481018490529051929b50600160a060020a0390911691632442e1cb9160248082019260009290919082900301818387803b1580156119e357600080fd5b505af11580156119f7573d6000803e3d6000fd5b505050506040513d6000823e601f3d908101601f1916820160405260c0811015611a2057600080fd5b815160208301516040840151606085015160808601805194969395929491939283019291640100000000811115611a5657600080fd5b82016020810184811115611a6957600080fd5b8151640100000000811182820187101715611a8357600080fd5b50509291906020018051640100000000811115611a9f57600080fd5b82016020810184811115611ab257600080fd5b8151640100000000811182820187101715611acc57600080fd5b50509291905050505050965050955050600960008a815260200190815260200160002060009054906101000a900460ff1692508215611b0a57611c8a565b8891505b6000821115611c80576003546040805160e060020a632442e1cb0281526000199094016004850181905290519093600160a060020a0390921691632442e1cb91602480830192600092919082900301818387803b158015611b6e57600080fd5b505af1158015611b82573d6000803e3d6000fd5b505050506040513d6000823e601f3d908101601f1916820160405260c0811015611bab57600080fd5b815160208301516040840151606085015160808601805194969395929491939283019291640100000000811115611be157600080fd5b82016020810184811115611bf457600080fd5b8151640100000000811182820187101715611c0e57600080fd5b50509291906020018051640100000000811115611c2a57600080fd5b82016020810184811115611c3d57600080fd5b8151640100000000811182820187101715611c5757600080fd5b505092919050505050505050915050611c79818c611d2290919063ffffffff16565b9a50611b0e565b848b8a9b509b509b505b505050505050505050909192565b600154600160a060020a03163314611caf57600080fd5b600160a060020a0381161515611cc457600080fd5b6004805473ffffffffffffffffffffffffffffffffffffffff1916600160a060020a0392909216919091179055565b600a5481565b600b5481565b600154600160a060020a03163314611d1657600080fd5b611d1f81611dbd565b50565b81810182811015611d2f57fe5b92915050565b6000821515611d4657506000611d2f565b50818102818382811515611d5657fe5b0414611d2f57fe5b60008183811515611d6b57fe5b049392505050565b600082821115611d7f57fe5b50900390565b6000611d9082611e3b565b1515611d9b57600080fd5b611db6611da6611e60565b610645858563ffffffff611d3516565b9392505050565b600160a060020a0381161515611dd257600080fd5b600154604051600160a060020a038084169216907f8be0079c531659141344cd1fd0a4f28419497f9722a3daafe3b4186f6b6457e090600090a36001805473ffffffffffffffffffffffffffffffffffffffff1916600160a060020a0392909216919091179055565b6000611e45611e72565b8210158015611d2f5750611e57611e60565b82111592915050565b6000611e6a611e77565b600a0a905090565b600090565b6000611e81611e89565b600201905090565b600290565b6000611e9982611e3b565b1515611ea457600080fd5b611d2f611eaf611e89565b8390600a0a63ffffffff611d5e165600a165627a7a723058209684668488aa869a25da5ae9018c355c58c5ec5078d32a44d242eafd886be4440029",
  "source": "pragma solidity ^0.4.24;\n\nimport \"./W12Fund.sol\";\nimport \"./token/WToken.sol\";\n\n\ncontract W12FundStub is W12Fund {\n    constructor (\n        uint version,\n        address crowdsaleAddress,\n        address swapAddress,\n        address wTokenAddress,\n        address _serviceWallet,\n        uint _trancheFeePercent\n    )\n        W12Fund(version, _trancheFeePercent) public\n    {\n        crowdsale = IW12Crowdsale(crowdsaleAddress);\n        swap = swapAddress;\n        wToken = WToken(wTokenAddress);\n        tokenDecimals = wToken.decimals();\n        trancheFeePercent = _trancheFeePercent;\n        serviceWallet = _serviceWallet;\n    }\n\n    function _setTotalFunded(uint amount) external {\n        totalFunded = amount;\n    }\n\n    function _setTotalRefunded(uint amount) external {\n        totalRefunded = amount;\n    }\n\n    function() payable external {}\n\n    // allow any sender\n    modifier onlyFrom(address sender) {\n        _;\n    }\n}\n",
  "sourcePath": "/home/circleci/code/contracts/W12FundStub.sol",
  "compiler": {
    "name": "solc",
    "version": "0.4.24+commit.e67f0147.Emscripten.clang"
  },
  "schemaVersion": "2.0.1",
  "updatedAt": "2018-10-02T11:52:56.749Z"
}