{
  "contractName": "W12FundCrowdsaleStub",
  "abi": [
    {
      "constant": true,
      "inputs": [],
      "name": "version",
      "outputs": [
        {
          "name": "",
          "type": "uint256"
        }
      ],
      "payable": false,
      "stateMutability": "view",
      "type": "function"
    },
    {
      "constant": false,
      "inputs": [],
      "name": "renounceOwnership",
      "outputs": [],
      "payable": false,
      "stateMutability": "nonpayable",
      "type": "function"
    },
    {
      "constant": true,
      "inputs": [],
      "name": "owner",
      "outputs": [
        {
          "name": "",
          "type": "address"
        }
      ],
      "payable": false,
      "stateMutability": "view",
      "type": "function"
    },
    {
      "constant": false,
      "inputs": [
        {
          "name": "_newOwner",
          "type": "address"
        }
      ],
      "name": "transferOwnership",
      "outputs": [],
      "payable": false,
      "stateMutability": "nonpayable",
      "type": "function"
    },
    {
      "inputs": [
        {
          "name": "version",
          "type": "uint256"
        }
      ],
      "payable": false,
      "stateMutability": "nonpayable",
      "type": "constructor"
    },
    {
      "payable": true,
      "stateMutability": "payable",
      "type": "fallback"
    },
    {
      "anonymous": false,
      "inputs": [
        {
          "indexed": true,
          "name": "previousOwner",
          "type": "address"
        }
      ],
      "name": "OwnershipRenounced",
      "type": "event"
    },
    {
      "anonymous": false,
      "inputs": [
        {
          "indexed": true,
          "name": "previousOwner",
          "type": "address"
        },
        {
          "indexed": true,
          "name": "newOwner",
          "type": "address"
        }
      ],
      "name": "OwnershipTransferred",
      "type": "event"
    },
    {
      "constant": false,
      "inputs": [
        {
          "name": "price",
          "type": "uint256"
        }
      ],
      "name": "setParameters",
      "outputs": [],
      "payable": false,
      "stateMutability": "nonpayable",
      "type": "function"
    },
    {
      "constant": false,
      "inputs": [
        {
          "name": "parametersOfStages",
          "type": "uint256[6][]"
        },
        {
          "name": "bonusConditionsOfStages",
          "type": "uint256[]"
        },
        {
          "name": "parametersOfMilestones",
          "type": "uint256[4][]"
        },
        {
          "name": "nameAndDescriptionsOffsetOfMilestones",
          "type": "uint32[]"
        },
        {
          "name": "nameAndDescriptionsOfMilestones",
          "type": "bytes"
        },
        {
          "name": "paymentMethodsList",
          "type": "bytes32[]"
        }
      ],
      "name": "setup",
      "outputs": [],
      "payable": false,
      "stateMutability": "nonpayable",
      "type": "function"
    },
    {
      "constant": true,
      "inputs": [],
      "name": "getWToken",
      "outputs": [
        {
          "name": "",
          "type": "address"
        }
      ],
      "payable": false,
      "stateMutability": "view",
      "type": "function"
    },
    {
      "constant": false,
      "inputs": [
        {
          "name": "a",
          "type": "address"
        }
      ],
      "name": "_getWTokenMockData",
      "outputs": [],
      "payable": false,
      "stateMutability": "nonpayable",
      "type": "function"
    },
    {
      "constant": true,
      "inputs": [
        {
          "name": "index",
          "type": "uint256"
        }
      ],
      "name": "getMilestone",
      "outputs": [
        {
          "name": "",
          "type": "uint32"
        },
        {
          "name": "",
          "type": "uint256"
        },
        {
          "name": "",
          "type": "uint32"
        },
        {
          "name": "",
          "type": "uint32"
        },
        {
          "name": "",
          "type": "bytes"
        },
        {
          "name": "",
          "type": "bytes"
        }
      ],
      "payable": false,
      "stateMutability": "view",
      "type": "function"
    },
    {
      "constant": false,
      "inputs": [
        {
          "name": "idx",
          "type": "uint256"
        },
        {
          "name": "a",
          "type": "uint32"
        },
        {
          "name": "b",
          "type": "uint256"
        },
        {
          "name": "c",
          "type": "uint32"
        },
        {
          "name": "d",
          "type": "uint32"
        },
        {
          "name": "e",
          "type": "bytes"
        },
        {
          "name": "f",
          "type": "bytes"
        }
      ],
      "name": "_getMilestoneMockData",
      "outputs": [],
      "payable": false,
      "stateMutability": "nonpayable",
      "type": "function"
    },
    {
      "constant": true,
      "inputs": [
        {
          "name": "index",
          "type": "uint256"
        }
      ],
      "name": "getStage",
      "outputs": [
        {
          "name": "",
          "type": "uint32"
        },
        {
          "name": "",
          "type": "uint32"
        },
        {
          "name": "",
          "type": "uint256"
        },
        {
          "name": "",
          "type": "uint32"
        },
        {
          "name": "",
          "type": "uint256[]"
        },
        {
          "name": "",
          "type": "uint256[]"
        }
      ],
      "payable": false,
      "stateMutability": "view",
      "type": "function"
    },
    {
      "constant": true,
      "inputs": [],
      "name": "getCurrentMilestoneIndex",
      "outputs": [
        {
          "name": "",
          "type": "uint256"
        },
        {
          "name": "",
          "type": "bool"
        }
      ],
      "payable": false,
      "stateMutability": "view",
      "type": "function"
    },
    {
      "constant": false,
      "inputs": [
        {
          "name": "a",
          "type": "uint256"
        },
        {
          "name": "b",
          "type": "bool"
        }
      ],
      "name": "_getCurrentMilestoneIndexMockData",
      "outputs": [],
      "payable": false,
      "stateMutability": "nonpayable",
      "type": "function"
    },
    {
      "constant": true,
      "inputs": [],
      "name": "getLastMilestoneIndex",
      "outputs": [
        {
          "name": "index",
          "type": "uint256"
        },
        {
          "name": "found",
          "type": "bool"
        }
      ],
      "payable": false,
      "stateMutability": "view",
      "type": "function"
    },
    {
      "constant": false,
      "inputs": [
        {
          "name": "a",
          "type": "uint256"
        },
        {
          "name": "b",
          "type": "bool"
        }
      ],
      "name": "_getLastMilestoneIndexMockData",
      "outputs": [],
      "payable": false,
      "stateMutability": "nonpayable",
      "type": "function"
    },
    {
      "constant": true,
      "inputs": [],
      "name": "milestonesLength",
      "outputs": [
        {
          "name": "",
          "type": "uint256"
        }
      ],
      "payable": false,
      "stateMutability": "view",
      "type": "function"
    },
    {
      "constant": true,
      "inputs": [],
      "name": "getCurrentStageIndex",
      "outputs": [
        {
          "name": "index",
          "type": "uint256"
        },
        {
          "name": "found",
          "type": "bool"
        }
      ],
      "payable": false,
      "stateMutability": "view",
      "type": "function"
    },
    {
      "constant": true,
      "inputs": [
        {
          "name": "value",
          "type": "uint256"
        }
      ],
      "name": "getSaleVolumeBonus",
      "outputs": [
        {
          "name": "bonus",
          "type": "uint256"
        }
      ],
      "payable": false,
      "stateMutability": "view",
      "type": "function"
    },
    {
      "constant": true,
      "inputs": [],
      "name": "isEnded",
      "outputs": [
        {
          "name": "",
          "type": "bool"
        }
      ],
      "payable": false,
      "stateMutability": "view",
      "type": "function"
    },
    {
      "constant": true,
      "inputs": [],
      "name": "isSaleActive",
      "outputs": [
        {
          "name": "",
          "type": "bool"
        }
      ],
      "payable": false,
      "stateMutability": "view",
      "type": "function"
    },
    {
      "constant": false,
      "inputs": [
        {
          "name": "method",
          "type": "bytes32"
        },
        {
          "name": "amount",
          "type": "uint256"
        }
      ],
      "name": "buyTokens",
      "outputs": [],
      "payable": true,
      "stateMutability": "payable",
      "type": "function"
    }
  ],
  "bytecode": "0x6080604052600160025534801561001557600080fd5b50604051602080610b65833981016040525160005560018054600160a060020a03191633179055610b1a8061004b6000396000f30060806040526004361061011c5763ffffffff7c010000000000000000000000000000000000000000000000000000000060003504166307f5d633811461011e57806314f66d341461012c578063208853c91461015a5780632442e1cb146101845780632e325020146102ba5780633baba4d7146103ab5780634090cb64146103c057806354fd4d50146103f1578063564566a814610406578063715018a61461042f578063770bd64714610444578063820a3435146104615780638da5cb5b146104ac578063a4fd6f5614610406578063d119d6cd146104c1578063d5b22623146104e2578063d6d65f3d1461053e578063daa4cf8814610553578063e93b054014610568578063f2fde38b14610580578063f77e0868146105a1575b005b61011c6004356024356105be565b34801561013857600080fd5b506101416105c2565b6040805192835290151560208301528051918290030190f35b34801561016657600080fd5b506101726004356105cf565b60408051918252519081900360200190f35b34801561019057600080fd5b5061019c6004356105d5565b604051808763ffffffff1663ffffffff1681526020018681526020018563ffffffff1663ffffffff1681526020018463ffffffff1663ffffffff1681526020018060200180602001838103835285818151815260200191508051906020019080838360005b83811015610219578181015183820152602001610201565b50505050905090810190601f1680156102465780820380516001836020036101000a031916815260200191505b50838103825284518152845160209182019186019080838360005b83811015610279578181015183820152602001610261565b50505050905090810190601f1680156102a65780820380516001836020036101000a031916815260200191505b509850505050505050505060405180910390f35b3480156102c657600080fd5b506102d260043561074f565b604051808763ffffffff1663ffffffff1681526020018663ffffffff1663ffffffff1681526020018581526020018463ffffffff1663ffffffff1681526020018060200180602001838103835285818151815260200191508051906020019060200280838360005b8381101561035257818101518382015260200161033a565b50505050905001838103825284818151815260200191508051906020019060200280838360005b83811015610391578181015183820152602001610379565b505050509050019850505050505050505060405180910390f35b3480156103b757600080fd5b50610172610761565b3480156103cc57600080fd5b506103d5610766565b60408051600160a060020a039092168252519081900360200190f35b3480156103fd57600080fd5b50610172610776565b34801561041257600080fd5b5061041b610761565b604080519115158252519081900360200190f35b34801561043b57600080fd5b5061011c61077c565b34801561045057600080fd5b5061011c60043560243515156107ea565b34801561046d57600080fd5b5061011c60048035906024803563ffffffff9081169260443592606435831692608435169160a43580830192908201359160c435918201910135610803565b3480156104b857600080fd5b506103d561094a565b3480156104cd57600080fd5b5061011c600160a060020a0360043516610959565b3480156104ee57600080fd5b5061011c602460048035828101929082013591813580830192908201359160443580830192908201359160643580830192908201359160843580830192908201359160a43591820191013561093c565b34801561054a57600080fd5b50610141610988565b34801561055f57600080fd5b50610141610995565b34801561057457600080fd5b5061011c60043561099c565b34801561058c57600080fd5b5061011c600160a060020a036004351661099f565b3480156105ad57600080fd5b5061011c60043560243515156109bf565b5050565b60055460065460ff169091565b50600090565b600081815260076020908152604080832080546001808301546002808501546003860180548851601f60001997831615610100029790970190911693909304948501899004890283018901909752838252889788978897606097889763ffffffff9182169796868316966401000000009004909216946004909301928491908301828280156106a55780601f1061067a576101008083540402835291602001916106a5565b820191906000526020600020905b81548152906001019060200180831161068857829003601f168201915b5050845460408051602060026001851615610100026000190190941693909304601f8101849004840282018401909252818152959750869450925084019050828280156107335780601f1061070857610100808354040283529160200191610733565b820191906000526020600020905b81548152906001019060200180831161071657829003601f168201915b5050505050905095509550955095509550955091939550919395565b60008060008060608091939550919395565b600090565b600854600160a060020a03165b90565b60005481565b600154600160a060020a0316331461079357600080fd5b600154604051600160a060020a03909116907ff8df31144d9c2f0f6b59d69b8b98abd5459d07f2742c4df920b25aae33c6482090600090a26001805473ffffffffffffffffffffffffffffffffffffffff19169055565b6003919091556004805460ff1916911515919091179055565b60c0604051908101604052808963ffffffff1681526020018881526020018763ffffffff1681526020018663ffffffff16815260200185858080601f016020809104026020016040519081016040528093929190818152602001838380828437820191505050505050815260200183838080601f0160208091040260200160405190810160405280939291908181526020018383808284375050509290935250505060008a8152600760209081526040918290208351815463ffffffff91821663ffffffff1991821617835585840151600184015593850151600283018054606088015184166401000000000267ffffffff0000000019939094169616959095171617909255608083015180516109209260038501920190610a56565b5060a0820151805161093c916004840191602090910190610a56565b505050505050505050505050565b600154600160a060020a031681565b6008805473ffffffffffffffffffffffffffffffffffffffff1916600160a060020a0392909216919091179055565b60035460045460ff169091565b6000809091565b50565b600154600160a060020a031633146109b657600080fd5b61099c816109d8565b6005919091556006805460ff1916911515919091179055565b600160a060020a03811615156109ed57600080fd5b600154604051600160a060020a038084169216907f8be0079c531659141344cd1fd0a4f28419497f9722a3daafe3b4186f6b6457e090600090a36001805473ffffffffffffffffffffffffffffffffffffffff1916600160a060020a0392909216919091179055565b828054600181600116156101000203166002900490600052602060002090601f016020900481019282601f10610a9757805160ff1916838001178555610ac4565b82800160010185558215610ac4579182015b82811115610ac4578251825591602001919060010190610aa9565b50610ad0929150610ad4565b5090565b61077391905b80821115610ad05760008155600101610ada5600a165627a7a72305820fd3a93710d515e0df80ae2165807066d6bc92846efa3c9b07c3afaa35fe803830029",
  "source": "pragma solidity ^0.4.24;\n\nimport \"openzeppelin-solidity/contracts/ownership/Ownable.sol\";\nimport \"openzeppelin-solidity/contracts/ReentrancyGuard.sol\";\nimport \"openzeppelin-solidity/contracts/math/SafeMath.sol\";\nimport \"openzeppelin-solidity/contracts/token/ERC20/ERC20.sol\";\nimport \"solidity-bytes-utils/contracts/BytesLib.sol\";\nimport \"../../crowdsale/IW12Crowdsale.sol\";\nimport \"../../crowdsale/IW12Fund.sol\";\nimport \"../../token/IWToken.sol\";\nimport \"../../libs/Percent.sol\";\nimport \"../../versioning/Versionable.sol\";\n\ncontract W12FundCrowdsaleStub is Versionable, IW12Crowdsale, Ownable, ReentrancyGuard {\n    uint _currentMilestoneIndex;\n    bool _currentMilestoneIndexFound;\n    uint _lastMilestoneIndex;\n    bool _lastMilestoneIndexFound;\n    mapping (uint => Milestone) _currentMilestones;\n    IWToken _wtoken;\n\n    struct Milestone {\n        uint32 endDate;\n        uint tranchePercent;\n        uint32 voteEndDate;\n        uint32 withdrawalWindow;\n        bytes name;\n        bytes description;\n    }\n\n    constructor(uint version) Versionable(version) public {}\n\n    function setParameters(uint price) external {}\n\n    function setup(\n        uint[6][] parametersOfStages,\n        uint[] bonusConditionsOfStages,\n        uint[4][] parametersOfMilestones,\n        uint32[] nameAndDescriptionsOffsetOfMilestones,\n        bytes nameAndDescriptionsOfMilestones,\n        bytes32[] paymentMethodsList\n    ) external {}\n\n    function getWToken() external view returns (IWToken) {\n        return _wtoken;\n    }\n\n    function _getWTokenMockData(IWToken a) external {\n        _wtoken = a;\n    }\n\n    function getMilestone(uint index) external view returns (uint32, uint, uint32, uint32, bytes, bytes) {\n        return (\n            _currentMilestones[index].endDate,\n            _currentMilestones[index].tranchePercent,\n            _currentMilestones[index].voteEndDate,\n            _currentMilestones[index].withdrawalWindow,\n            _currentMilestones[index].name,\n            _currentMilestones[index].description\n        );\n    }\n\n    function _getMilestoneMockData(uint idx, uint32 a, uint b, uint32 c, uint32 d, bytes e, bytes f) external {\n        _currentMilestones[idx] = Milestone({\n            endDate: a,\n            tranchePercent: b,\n            voteEndDate: c,\n            withdrawalWindow: d,\n            name: e,\n            description: f\n        });\n    }\n\n    function getStage(uint index) external view returns (uint32, uint32, uint, uint32, uint[], uint[]) {}\n\n    function getCurrentMilestoneIndex() external view returns (uint, bool) {\n        return (_currentMilestoneIndex, _currentMilestoneIndexFound);\n    }\n\n    function _getCurrentMilestoneIndexMockData(uint a, bool b) external {\n        _currentMilestoneIndex = a;\n        _currentMilestoneIndexFound = b;\n    }\n\n    function getLastMilestoneIndex() external view returns (uint index, bool found) {\n        return (_lastMilestoneIndex, _lastMilestoneIndexFound);\n    }\n\n    function _getLastMilestoneIndexMockData(uint a, bool b) external {\n        _lastMilestoneIndex = a;\n        _lastMilestoneIndexFound = b;\n    }\n\n    function milestonesLength() external view returns (uint) {}\n\n    function getCurrentStageIndex() external view returns (uint index, bool found) {}\n\n    function getSaleVolumeBonus(uint value) external view returns (uint bonus) {}\n\n    function isEnded() external view returns (bool) {}\n\n    function isSaleActive() external view returns (bool) {}\n\n    function() payable external {}\n\n    function buyTokens(bytes32 method, uint amount) payable external {}\n}\n",
  "sourcePath": "/home/circleci/code/contracts/mocks/crowdsale/W12FundCrowdsaleStub.sol",
  "compiler": {
    "name": "solc",
    "version": "0.4.24+commit.e67f0147.Emscripten.clang"
  },
  "schemaVersion": "2.0.1",
  "updatedAt": "2018-10-22T07:56:01.575Z"
}