{
  "contractName": "W12FundStub",
  "abi": [
    {
      "constant": true,
      "inputs": [],
      "name": "getTotalFundedAssetsSymbols",
      "outputs": [
        {
          "name": "",
          "type": "bytes32[]"
        }
      ],
      "payable": false,
      "stateMutability": "view",
      "type": "function"
    },
    {
      "constant": true,
      "inputs": [],
      "name": "wToken",
      "outputs": [
        {
          "name": "",
          "type": "address"
        }
      ],
      "payable": false,
      "stateMutability": "view",
      "type": "function"
    },
    {
      "constant": false,
      "inputs": [
        {
          "name": "_account",
          "type": "address"
        }
      ],
      "name": "removeAdmin",
      "outputs": [],
      "payable": false,
      "stateMutability": "nonpayable",
      "type": "function"
    },
    {
      "constant": true,
      "inputs": [],
      "name": "totalTranchePercentReleased",
      "outputs": [
        {
          "name": "",
          "type": "uint256"
        }
      ],
      "payable": false,
      "stateMutability": "view",
      "type": "function"
    },
    {
      "constant": false,
      "inputs": [
        {
          "name": "recipient",
          "type": "address"
        }
      ],
      "name": "transferPrimary",
      "outputs": [],
      "payable": false,
      "stateMutability": "nonpayable",
      "type": "function"
    },
    {
      "constant": true,
      "inputs": [
        {
          "name": "milestoneIndex",
          "type": "uint256"
        }
      ],
      "name": "completedTranches",
      "outputs": [
        {
          "name": "",
          "type": "bool"
        }
      ],
      "payable": false,
      "stateMutability": "view",
      "type": "function"
    },
    {
      "constant": false,
      "inputs": [
        {
          "name": "_serviceWallet",
          "type": "address"
        }
      ],
      "name": "setServiceWallet",
      "outputs": [],
      "payable": false,
      "stateMutability": "nonpayable",
      "type": "function"
    },
    {
      "constant": true,
      "inputs": [
        {
          "name": "account",
          "type": "address"
        }
      ],
      "name": "isAdmin",
      "outputs": [
        {
          "name": "",
          "type": "bool"
        }
      ],
      "payable": false,
      "stateMutability": "view",
      "type": "function"
    },
    {
      "constant": false,
      "inputs": [
        {
          "name": "tokenAmount",
          "type": "uint256"
        }
      ],
      "name": "refund",
      "outputs": [],
      "payable": false,
      "stateMutability": "nonpayable",
      "type": "function"
    },
    {
      "constant": false,
      "inputs": [
        {
          "name": "_account",
          "type": "address"
        }
      ],
      "name": "addProjectOwner",
      "outputs": [],
      "payable": false,
      "stateMutability": "nonpayable",
      "type": "function"
    },
    {
      "constant": true,
      "inputs": [],
      "name": "rates",
      "outputs": [
        {
          "name": "",
          "type": "address"
        }
      ],
      "payable": false,
      "stateMutability": "view",
      "type": "function"
    },
    {
      "constant": false,
      "inputs": [
        {
          "name": "_crowdsale",
          "type": "address"
        }
      ],
      "name": "setCrowdsale",
      "outputs": [],
      "payable": false,
      "stateMutability": "nonpayable",
      "type": "function"
    },
    {
      "constant": true,
      "inputs": [],
      "name": "version",
      "outputs": [
        {
          "name": "",
          "type": "uint256"
        }
      ],
      "payable": false,
      "stateMutability": "view",
      "type": "function"
    },
    {
      "constant": true,
      "inputs": [],
      "name": "serviceWallet",
      "outputs": [
        {
          "name": "",
          "type": "address"
        }
      ],
      "payable": false,
      "stateMutability": "view",
      "type": "function"
    },
    {
      "constant": true,
      "inputs": [],
      "name": "tokenRefundAllowed",
      "outputs": [
        {
          "name": "",
          "type": "bool"
        }
      ],
      "payable": false,
      "stateMutability": "view",
      "type": "function"
    },
    {
      "constant": false,
      "inputs": [],
      "name": "tranche",
      "outputs": [],
      "payable": false,
      "stateMutability": "nonpayable",
      "type": "function"
    },
    {
      "constant": false,
      "inputs": [
        {
          "name": "_account",
          "type": "address"
        }
      ],
      "name": "addAdmin",
      "outputs": [],
      "payable": false,
      "stateMutability": "nonpayable",
      "type": "function"
    },
    {
      "constant": true,
      "inputs": [
        {
          "name": "_symbol",
          "type": "bytes32"
        }
      ],
      "name": "getTotalFundedReleased",
      "outputs": [
        {
          "name": "",
          "type": "uint256"
        }
      ],
      "payable": false,
      "stateMutability": "view",
      "type": "function"
    },
    {
      "constant": true,
      "inputs": [],
      "name": "swap",
      "outputs": [
        {
          "name": "",
          "type": "address"
        }
      ],
      "payable": false,
      "stateMutability": "view",
      "type": "function"
    },
    {
      "constant": true,
      "inputs": [],
      "name": "isWithdrawalWindowActive",
      "outputs": [
        {
          "name": "",
          "type": "bool"
        }
      ],
      "payable": false,
      "stateMutability": "view",
      "type": "function"
    },
    {
      "constant": false,
      "inputs": [],
      "name": "renounceAdmin",
      "outputs": [],
      "payable": false,
      "stateMutability": "nonpayable",
      "type": "function"
    },
    {
      "constant": true,
      "inputs": [
        {
          "name": "_investor",
          "type": "address"
        }
      ],
      "name": "getInvestorTokenBoughtAmount",
      "outputs": [
        {
          "name": "",
          "type": "uint256"
        }
      ],
      "payable": false,
      "stateMutability": "view",
      "type": "function"
    },
    {
      "constant": true,
      "inputs": [
        {
          "name": "_symbol",
          "type": "bytes32"
        }
      ],
      "name": "getTotalFundedAmount",
      "outputs": [
        {
          "name": "",
          "type": "uint256"
        }
      ],
      "payable": false,
      "stateMutability": "view",
      "type": "function"
    },
    {
      "constant": true,
      "inputs": [],
      "name": "crowdsale",
      "outputs": [
        {
          "name": "",
          "type": "address"
        }
      ],
      "payable": false,
      "stateMutability": "view",
      "type": "function"
    },
    {
      "constant": true,
      "inputs": [],
      "name": "trancheTransferAllowed",
      "outputs": [
        {
          "name": "",
          "type": "bool"
        }
      ],
      "payable": false,
      "stateMutability": "view",
      "type": "function"
    },
    {
      "constant": true,
      "inputs": [],
      "name": "trancheFeePercent",
      "outputs": [
        {
          "name": "",
          "type": "uint256"
        }
      ],
      "payable": false,
      "stateMutability": "view",
      "type": "function"
    },
    {
      "constant": true,
      "inputs": [],
      "name": "getTrancheInvoice",
      "outputs": [
        {
          "name": "result",
          "type": "uint256[3]"
        }
      ],
      "payable": false,
      "stateMutability": "view",
      "type": "function"
    },
    {
      "constant": false,
      "inputs": [
        {
          "name": "_swap",
          "type": "address"
        }
      ],
      "name": "setSwap",
      "outputs": [],
      "payable": false,
      "stateMutability": "nonpayable",
      "type": "function"
    },
    {
      "constant": true,
      "inputs": [
        {
          "name": "_investor",
          "type": "address"
        }
      ],
      "name": "getInvestorFundedAssetsSymbols",
      "outputs": [
        {
          "name": "",
          "type": "bytes32[]"
        }
      ],
      "payable": false,
      "stateMutability": "view",
      "type": "function"
    },
    {
      "constant": true,
      "inputs": [],
      "name": "totalTokenBought",
      "outputs": [
        {
          "name": "",
          "type": "uint256"
        }
      ],
      "payable": false,
      "stateMutability": "view",
      "type": "function"
    },
    {
      "constant": true,
      "inputs": [],
      "name": "primary",
      "outputs": [
        {
          "name": "",
          "type": "address"
        }
      ],
      "payable": false,
      "stateMutability": "view",
      "type": "function"
    },
    {
      "constant": false,
      "inputs": [],
      "name": "renounceProjectOwner",
      "outputs": [],
      "payable": false,
      "stateMutability": "nonpayable",
      "type": "function"
    },
    {
      "constant": false,
      "inputs": [
        {
          "name": "investor",
          "type": "address"
        },
        {
          "name": "tokenAmount",
          "type": "uint256"
        },
        {
          "name": "symbol",
          "type": "bytes32"
        },
        {
          "name": "cost",
          "type": "uint256"
        },
        {
          "name": "costUSD",
          "type": "uint256"
        }
      ],
      "name": "recordPurchase",
      "outputs": [],
      "payable": true,
      "stateMutability": "payable",
      "type": "function"
    },
    {
      "constant": false,
      "inputs": [
        {
          "name": "_account",
          "type": "address"
        }
      ],
      "name": "removeProjectOwner",
      "outputs": [],
      "payable": false,
      "stateMutability": "nonpayable",
      "type": "function"
    },
    {
      "constant": true,
      "inputs": [
        {
          "name": "account",
          "type": "address"
        }
      ],
      "name": "isProjectOwner",
      "outputs": [
        {
          "name": "",
          "type": "bool"
        }
      ],
      "payable": false,
      "stateMutability": "view",
      "type": "function"
    },
    {
      "constant": true,
      "inputs": [
        {
          "name": "_investor",
          "type": "address"
        },
        {
          "name": "_symbol",
          "type": "bytes32"
        }
      ],
      "name": "getInvestorFundedAmount",
      "outputs": [
        {
          "name": "",
          "type": "uint256"
        }
      ],
      "payable": false,
      "stateMutability": "view",
      "type": "function"
    },
    {
      "constant": true,
      "inputs": [],
      "name": "totalTokenRefunded",
      "outputs": [
        {
          "name": "",
          "type": "uint256"
        }
      ],
      "payable": false,
      "stateMutability": "view",
      "type": "function"
    },
    {
      "inputs": [
        {
          "name": "version",
          "type": "uint256"
        },
        {
          "name": "crowdsaleAddress",
          "type": "address"
        },
        {
          "name": "swapAddress",
          "type": "address"
        },
        {
          "name": "wTokenAddress",
          "type": "address"
        },
        {
          "name": "_serviceWallet",
          "type": "address"
        },
        {
          "name": "_trancheFeePercent",
          "type": "uint256"
        },
        {
          "name": "_rates",
          "type": "address"
        }
      ],
      "payable": false,
      "stateMutability": "nonpayable",
      "type": "constructor"
    },
    {
      "payable": true,
      "stateMutability": "payable",
      "type": "fallback"
    },
    {
      "anonymous": false,
      "inputs": [
        {
          "indexed": true,
          "name": "investor",
          "type": "address"
        },
        {
          "indexed": false,
          "name": "tokenAmount",
          "type": "uint256"
        },
        {
          "indexed": false,
          "name": "symbol",
          "type": "bytes32"
        },
        {
          "indexed": false,
          "name": "cost",
          "type": "uint256"
        }
      ],
      "name": "FundsReceived",
      "type": "event"
    },
    {
      "anonymous": false,
      "inputs": [
        {
          "indexed": true,
          "name": "investor",
          "type": "address"
        },
        {
          "indexed": false,
          "name": "symbol",
          "type": "bytes32"
        },
        {
          "indexed": false,
          "name": "amount",
          "type": "uint256"
        }
      ],
      "name": "AssetRefunded",
      "type": "event"
    },
    {
      "anonymous": false,
      "inputs": [
        {
          "indexed": true,
          "name": "investor",
          "type": "address"
        },
        {
          "indexed": false,
          "name": "tokenAmount",
          "type": "uint256"
        }
      ],
      "name": "TokenRefunded",
      "type": "event"
    },
    {
      "anonymous": false,
      "inputs": [
        {
          "indexed": true,
          "name": "receiver",
          "type": "address"
        },
        {
          "indexed": false,
          "name": "symbol",
          "type": "bytes32"
        },
        {
          "indexed": false,
          "name": "amount",
          "type": "uint256"
        }
      ],
      "name": "TrancheTransferred",
      "type": "event"
    },
    {
      "anonymous": false,
      "inputs": [
        {
          "indexed": true,
          "name": "receiver",
          "type": "address"
        },
        {
          "indexed": false,
          "name": "percent",
          "type": "uint256"
        }
      ],
      "name": "TrancheReleased",
      "type": "event"
    },
    {
      "anonymous": false,
      "inputs": [
        {
          "indexed": false,
          "name": "recipient",
          "type": "address"
        }
      ],
      "name": "PrimaryTransferred",
      "type": "event"
    },
    {
      "anonymous": false,
      "inputs": [
        {
          "indexed": true,
          "name": "account",
          "type": "address"
        }
      ],
      "name": "ProjectOwnerAdded",
      "type": "event"
    },
    {
      "anonymous": false,
      "inputs": [
        {
          "indexed": true,
          "name": "account",
          "type": "address"
        }
      ],
      "name": "ProjectOwnerRemoved",
      "type": "event"
    },
    {
      "anonymous": false,
      "inputs": [
        {
          "indexed": true,
          "name": "account",
          "type": "address"
        }
      ],
      "name": "AdminAdded",
      "type": "event"
    },
    {
      "anonymous": false,
      "inputs": [
        {
          "indexed": true,
          "name": "account",
          "type": "address"
        }
      ],
      "name": "AdminRemoved",
      "type": "event"
    },
    {
      "constant": false,
      "inputs": [
        {
          "name": "_symbol",
          "type": "bytes32"
        },
        {
          "name": "_amount",
          "type": "uint256"
        }
      ],
      "name": "_outFunds",
      "outputs": [],
      "payable": false,
      "stateMutability": "nonpayable",
      "type": "function"
    }
  ],
  "bytecode": "0x60806040523480156200001157600080fd5b5060405160e0806200240883398101604090815281516020830151918301516060840151608085015160a086015160c0909601519395929391929091868282826200006533640100000000620002a3810204565b6200007933640100000000620002f5810204565b60025560038054600160a060020a03191633179081905560408051600160a060020a03929092168252517f4101e71e974f68df5e9730cc223280b41654676bbb052cdcc735c3337e64d2d99181900360200190a160016004908155604080517f520b00660000000000000000000000000000000000000000000000000000000081529182018490525173__Percent_______________________________9163520b0066916024808301926020929190829003018186803b1580156200013e57600080fd5b505af415801562000153573d6000803e3d6000fd5b505050506040513d60208110156200016a57600080fd5b5051801562000214575060648273__Percent_______________________________630fe9114790916040518263ffffffff167c01000000000000000000000000000000000000000000000000000000000281526004018082815260200191505060206040518083038186803b158015620001e457600080fd5b505af4158015620001f9573d6000803e3d6000fd5b505050506040513d60208110156200021057600080fd5b5051105b15156200022057600080fd5b600160a060020a03811615156200023657600080fd5b60078054600160a060020a0319908116600160a060020a03938416179091556005805482169a83169a909a17909955600880548a1698821698909817909755505060068054871694861694909417909355600a556009805490941692169190911790915550620003da9050565b620002be60008264010000000062001f856200034782021704565b604051600160a060020a038216907f44d6d25963f097ad14f29f06854a01f575648a1ef82f30e562ccd3889717e33990600090a250565b6200031060018264010000000062001f856200034782021704565b604051600160a060020a038216907f941e31c3e651de34a7fcf0132d9d02c2df9377e6b5f932bec5daf6353c94f90e90600090a250565b600160a060020a03811615156200035d57600080fd5b620003728282640100000000620003a2810204565b156200037d57600080fd5b600160a060020a0316600090815260209190915260409020805460ff19166001179055565b6000600160a060020a0382161515620003ba57600080fd5b50600160a060020a03166000908152602091909152604090205460ff1690565b61201e80620003ea6000396000f3006080604052600436106101be5763ffffffff60e060020a600035041663015dd28c81146101c05780630babd864146102255780631785f53c1461025657806319ae48ed146102775780632348238c1461029e57806323585f96146102bf57806323bffccc146102eb57806324d7806c1461030c578063278ecde11461032d5780633bcdb1641461034557806343f48fbd14610366578063483a20b21461037b5780634992a3521461039c57806354fd4d50146103b75780635641f3c3146103cc5780636b90d6d2146103e15780636ebc0af1146103f6578063704802751461040b5780637a1c2da31461042c5780638119c065146104445780638429fffe146104595780638bad0c0a1461046e5780639124a789146104835780639ab269a6146104a45780639c1e03a0146104bc5780639e80baac146104d1578063a328665a146104e6578063a3b768e1146104fb578063acb3c07314610548578063adb9dd0814610569578063b4105a3e1461058a578063c6dbdf611461059f578063d0934d61146105b4578063d0baf2f5146105c9578063d155790b146105e9578063d8e9ce641461060a578063f206cb641461062b578063fb2814c41461064f575b005b3480156101cc57600080fd5b506101d5610664565b60408051602080825283518183015283519192839290830191858101910280838360005b838110156102115781810151838201526020016101f9565b505050509050019250505060405180910390f35b34801561023157600080fd5b5061023a610763565b60408051600160a060020a039092168252519081900360200190f35b34801561026257600080fd5b506101be600160a060020a0360043516610772565b34801561028357600080fd5b5061028c61077e565b60408051918252519081900360200190f35b3480156102aa57600080fd5b506101be600160a060020a0360043516610784565b3480156102cb57600080fd5b506102d7600435610817565b604080519115158252519081900360200190f35b3480156102f757600080fd5b506101be600160a060020a036004351661082c565b34801561031857600080fd5b506102d7600160a060020a0360043516610870565b34801561033957600080fd5b506101be600435610888565b34801561035157600080fd5b506101be600160a060020a0360043516610b52565b34801561037257600080fd5b5061023a610b5b565b34801561038757600080fd5b506101be600160a060020a0360043516610b6a565b3480156103a857600080fd5b506101be600435602435610cdf565b3480156103c357600080fd5b5061028c61106d565b3480156103d857600080fd5b5061023a611073565b3480156103ed57600080fd5b506102d7611082565b34801561040257600080fd5b506101be6112ad565b34801561041757600080fd5b506101be600160a060020a036004351661146a565b34801561043857600080fd5b5061028c600435611473565b34801561045057600080fd5b5061023a611485565b34801561046557600080fd5b506102d7611494565b34801561047a57600080fd5b506101be6116c3565b34801561048f57600080fd5b5061028c600160a060020a03600435166116ce565b3480156104b057600080fd5b5061028c6004356116e9565b3480156104c857600080fd5b5061023a611791565b3480156104dd57600080fd5b506102d76117a0565b3480156104f257600080fd5b5061028c611853565b34801561050757600080fd5b50610510611859565b6040518082606080838360005b8381101561053557818101518382015260200161051d565b5050505090500191505060405180910390f35b34801561055457600080fd5b506101be600160a060020a0360043516611918565b34801561057557600080fd5b506101d5600160a060020a036004351661195c565b34801561059657600080fd5b5061028c611a6f565b3480156105ab57600080fd5b5061023a611a75565b3480156105c057600080fd5b506101be611a84565b6101be600160a060020a0360043516602435604435606435608435611a8d565b3480156105f557600080fd5b506101be600160a060020a0360043516611b4d565b34801561061657600080fd5b506102d7600160a060020a0360043516611b56565b34801561063757600080fd5b5061028c600160a060020a0360043516602435611b69565b34801561065b57600080fd5b5061028c611c24565b604080517f20e1e1d1000000000000000000000000000000000000000000000000000000008152600d6004820152905160609173__FundAccount___________________________916320e1e1d191602480820192600092909190829003018186803b1580156106d357600080fd5b505af41580156106e7573d6000803e3d6000fd5b505050506040513d6000823e601f3d908101601f19168201604052602081101561071057600080fd5b81019080805164010000000081111561072857600080fd5b8201602081018481111561073b57600080fd5b815185602082028301116401000000008211171561075857600080fd5b509094505050505090565b600654600160a060020a031681565b61077b81611c2a565b50565b600c5490565b600354600160a060020a0316331461079b57600080fd5b600160a060020a03811615156107b057600080fd5b6003805473ffffffffffffffffffffffffffffffffffffffff1916600160a060020a03838116919091179182905560408051929091168252517f4101e71e974f68df5e9730cc223280b41654676bbb052cdcc735c3337e64d2d9916020908290030190a150565b6000908152600b602052604090205460ff1690565b600160a060020a038116151561084157600080fd5b6009805473ffffffffffffffffffffffffffffffffffffffff1916600160a060020a0392909216919091179055565b6000610882818363ffffffff611c7216565b92915050565b600480546001019081905561089b611082565b15156108a657600080fd5b8115156108b257600080fd5b336000908152601360205260409020548211156108ce57600080fd5b600654604080517f70a0823100000000000000000000000000000000000000000000000000000000815233600482015290518492600160a060020a0316916370a082319160248083019260209291908290030181600087803b15801561093357600080fd5b505af1158015610947573d6000803e3d6000fd5b505050506040513d602081101561095d57600080fd5b5051101561096a57600080fd5b600654604080517fdd62ed3e00000000000000000000000000000000000000000000000000000000815233600482015230602482015290518492600160a060020a03169163dd62ed3e9160448083019260209291908290030181600087803b1580156109d557600080fd5b505af11580156109e9573d6000803e3d6000fd5b505050506040513d60208110156109ff57600080fd5b50511015610a0c57600080fd5b610a1582611ca9565b601254610a28908363ffffffff611d4816565b60125533600090815260136020526040902054610a4b908363ffffffff611d6116565b3360008181526013602090815260408083209490945560065460085485517f23b872dd0000000000000000000000000000000000000000000000000000000081526004810195909552600160a060020a0390811660248601526044850188905294519416936323b872dd93606480820194918390030190829087803b158015610ad357600080fd5b505af1158015610ae7573d6000803e3d6000fd5b505050506040513d6020811015610afd57600080fd5b50511515610b0a57600080fd5b60408051838152905133917fb7feb6c1d7169f40790388a31c0160d8f962a2b6c31970c28bd8cdfefa25ea29919081900360200190a26004548114610b4e57600080fd5b5050565b61077b81611d78565b600754600160a060020a031681565b600160a060020a0381161515610b7f57600080fd5b6000600160a060020a031681600160a060020a0316634090cb646040518163ffffffff1660e060020a028152600401602060405180830381600087803b158015610bc857600080fd5b505af1158015610bdc573d6000803e3d6000fd5b505050506040513d6020811015610bf257600080fd5b5051600160a060020a03161415610c0857600080fd5b6005805473ffffffffffffffffffffffffffffffffffffffff1916600160a060020a038316908117909155604080517f4090cb640000000000000000000000000000000000000000000000000000000081529051634090cb64916004808201926020929091908290030181600087803b158015610c8457600080fd5b505af1158015610c98573d6000803e3d6000fd5b505050506040513d6020811015610cae57600080fd5b50516006805473ffffffffffffffffffffffffffffffffffffffff1916600160a060020a0390921691909117905550565b7f4554480000000000000000000000000000000000000000000000000000000000821415610d48573031811115610d1557600080fd5b604051339082156108fc029083906000818181858888f19350505050158015610d42573d6000803e3d6000fd5b50610b4e565b7f55534400000000000000000000000000000000000000000000000000000000008214610b4e57600754604080517fcfec719f000000000000000000000000000000000000000000000000000000008152600481018590529051600160a060020a039092169163cfec719f916024808201926020929091908290030181600087803b158015610dd657600080fd5b505af1158015610dea573d6000803e3d6000fd5b505050506040513d6020811015610e0057600080fd5b50511515610e0d57600080fd5b600754604080517fb12e44100000000000000000000000000000000000000000000000000000000081526004810185905290518392600160a060020a03169163b12e44109160248083019260209291908290030181600087803b158015610e7357600080fd5b505af1158015610e87573d6000803e3d6000fd5b505050506040513d6020811015610e9d57600080fd5b5051604080517f70a082310000000000000000000000000000000000000000000000000000000081523060048201529051600160a060020a03909216916370a08231916024808201926020929091908290030181600087803b158015610f0257600080fd5b505af1158015610f16573d6000803e3d6000fd5b505050506040513d6020811015610f2c57600080fd5b50511015610f3957600080fd5b600754604080517fb12e4410000000000000000000000000000000000000000000000000000000008152600481018590529051600160a060020a039092169163b12e4410916024808201926020929091908290030181600087803b158015610fa057600080fd5b505af1158015610fb4573d6000803e3d6000fd5b505050506040513d6020811015610fca57600080fd5b5051604080517fa9059cbb000000000000000000000000000000000000000000000000000000008152336004820152602481018490529051600160a060020a039092169163a9059cbb916044808201926020929091908290030181600087803b15801561103657600080fd5b505af115801561104a573d6000803e3d6000fd5b505050506040513d602081101561106057600080fd5b50511515610b4e57600080fd5b60025481565b600954600160a060020a031681565b600554604080517fd6d65f3d00000000000000000000000000000000000000000000000000000000815281516000938493849384938493600160a060020a03169263d6d65f3d926004808201939182900301818787803b1580156110e557600080fd5b505af11580156110f9573d6000803e3d6000fd5b505050506040513d604081101561110f57600080fd5b5080516020909101519094509250831515611129576112a6565b600554604080517f2442e1cb000000000000000000000000000000000000000000000000000000008152600481018790529051600160a060020a0390921691632442e1cb9160248082019260009290919082900301818387803b15801561118f57600080fd5b505af11580156111a3573d6000803e3d6000fd5b505050506040513d6000823e601f3d908101601f1916820160405260c08110156111cc57600080fd5b81516020830151604084015160608501516080860180519496939592949193928301929164010000000081111561120257600080fd5b8201602081018481111561121557600080fd5b815164010000000081118282018710171561122f57600080fd5b5050929190602001805164010000000081111561124b57600080fd5b8201602081018481111561125e57600080fd5b815164010000000081118282018710171561127857600080fd5b50509291905050505050935050509150428263ffffffff16111580156112a357508063ffffffff1642105b94505b5050505090565b6112b5611fd3565b60048054600101908190556112c86117a0565b15156112d357600080fd5b6112db611859565b80519092506000106112ec57600080fd5b604080517f20e1e1d1000000000000000000000000000000000000000000000000000000008152600d6004820152905173__FundAccount___________________________916320e1e1d1916024808301926000929190829003018186803b15801561135757600080fd5b505af415801561136b573d6000803e3d6000fd5b505050506040513d6000823e601f3d908101601f19168201604052602081101561139457600080fd5b8101908080516401000000008111156113ac57600080fd5b820160208101848111156113bf57600080fd5b81518560208202830111640100000000821117156113dc57600080fd5b505051151592506113ef91505057600080fd5b6040828101516000908152600b60205220805460ff191660011790558151600c5461141991611d48565b600c5561142582611dc0565b8151604080519182525133917f4a966617f50ccad97beb624d8e13820bf2a745e1640fed943858499286fc9829919081900360200190a26004548114610b4e57600080fd5b61077b81611ea9565b60009081526010602052604090205490565b600854600160a060020a031681565b600554604080517fd6d65f3d00000000000000000000000000000000000000000000000000000000815281516000938493849384938493600160a060020a03169263d6d65f3d926004808201939182900301818787803b1580156114f757600080fd5b505af115801561150b573d6000803e3d6000fd5b505050506040513d604081101561152157600080fd5b508051602090910151909450925083158061153a575082155b15611544576112a6565b600554604080517f2442e1cb000000000000000000000000000000000000000000000000000000008152600481018790529051600160a060020a0390921691632442e1cb9160248082019260009290919082900301818387803b1580156115aa57600080fd5b505af11580156115be573d6000803e3d6000fd5b505050506040513d6000823e601f3d908101601f1916820160405260c08110156115e757600080fd5b81516020830151604084015160608501516080860180519496939592949193928301929164010000000081111561161d57600080fd5b8201602081018481111561163057600080fd5b815164010000000081118282018710171561164a57600080fd5b5050929190602001805164010000000081111561166657600080fd5b8201602081018481111561167957600080fd5b815164010000000081118282018710171561169357600080fd5b50509291905050505050935050509150428263ffffffff1611806112a3575063ffffffff16421015949350505050565b6116cc33611c2a565b565b600160a060020a031660009081526013602052604090205490565b604080517f75dff138000000000000000000000000000000000000000000000000000000008152600d600482015260248101839052905160009173__FundAccount___________________________916375dff13891604480820192602092909190829003018186803b15801561175f57600080fd5b505af4158015611773573d6000803e3d6000fd5b505050506040513d602081101561178957600080fd5b505192915050565b600554600160a060020a031681565b6000806000600560009054906101000a9004600160a060020a0316600160a060020a031663d6d65f3d6040518163ffffffff1660e060020a0281526004016040805180830381600087803b1580156117f757600080fd5b505af115801561180b573d6000803e3d6000fd5b505050506040513d604081101561182157600080fd5b508051602090910151909250905080151561183b5761184e565b81158061184b575061184b611494565b92505b505090565b600a5481565b611861611fd3565b73__Fund__________________________________63c4466008600b6118856117a0565b6005546040805160e060020a63ffffffff871602815260048101949094529115156024840152600160a060020a03166044830152516064808301926060929190829003018186803b1580156118d957600080fd5b505af41580156118ed573d6000803e3d6000fd5b505050506040513d601f19601f82011682018060405250606081101561191257600080fd5b50905090565b600160a060020a038116151561192d57600080fd5b6008805473ffffffffffffffffffffffffffffffffffffffff1916600160a060020a0392909216919091179055565b600160a060020a03811660009081526014602052604080822081517f20e1e1d10000000000000000000000000000000000000000000000000000000081526004810191909152905160609273__FundAccount___________________________926320e1e1d19260248083019392829003018186803b1580156119de57600080fd5b505af41580156119f2573d6000803e3d6000fd5b505050506040513d6000823e601f3d908101601f191682016040526020811015611a1b57600080fd5b810190808051640100000000811115611a3357600080fd5b82016020810184811115611a4657600080fd5b8151856020820283011164010000000082111715611a6357600080fd5b50909695505050505050565b60115490565b600354600160a060020a031690565b6116cc33611ef1565b600754604080517f46d1230a000000000000000000000000000000000000000000000000000000008152600b6004820152600160a060020a03808916602483015260448201889052606482018790526084820186905260a4820185905290921660c48301525173__Fund__________________________________916346d1230a9160e4808301926000929190829003018186803b158015611b2e57600080fd5b505af4158015611b42573d6000803e3d6000fd5b505050505050505050565b61077b81611ef1565b600061088260018363ffffffff611c7216565b600160a060020a038216600090815260146020908152604080832081517f75dff138000000000000000000000000000000000000000000000000000000008152600481019190915260248101859052905173__FundAccount___________________________926375dff1389260448082019391829003018186803b158015611bf157600080fd5b505af4158015611c05573d6000803e3d6000fd5b505050506040513d6020811015611c1b57600080fd5b50519392505050565b60125490565b611c3b60008263ffffffff611f3916565b604051600160a060020a038216907fa3b62bc36326052d97ea62d63c3d60308ed4c3ea8ac079dd8499f1e9c4f80c0f90600090a250565b6000600160a060020a0382161515611c8957600080fd5b50600160a060020a03166000908152602091909152604090205460ff1690565b600754604080517fe0650238000000000000000000000000000000000000000000000000000000008152600b600482015260248101849052600160a060020a0390921660448301525173__Fund__________________________________9163e0650238916064808301926000929190829003018186803b158015611d2d57600080fd5b505af4158015611d41573d6000803e3d6000fd5b5050505050565b600082820183811015611d5a57600080fd5b9392505050565b60008083831115611d7157600080fd5b5050900390565b611d8960018263ffffffff611f8516565b604051600160a060020a038216907f941e31c3e651de34a7fcf0132d9d02c2df9377e6b5f932bec5daf6353c94f90e90600090a250565b600a546009546007546040517f69b3e2d2000000000000000000000000000000000000000000000000000000008152600b6004820181815273__Fund__________________________________956369b3e2d295929488949193600160a060020a039081169391169160240185606080838360005b83811015611e4d578181015183820152602001611e35565b5050505090500184815260200183600160a060020a0316600160a060020a0316815260200182600160a060020a0316600160a060020a031681526020019550505050505060006040518083038186803b158015611d2d57600080fd5b611eba60008263ffffffff611f8516565b604051600160a060020a038216907f44d6d25963f097ad14f29f06854a01f575648a1ef82f30e562ccd3889717e33990600090a250565b611f0260018263ffffffff611f3916565b604051600160a060020a038216907fa3bfdef3d8149bacf15b7b64199fca8228c0fd4f8fcdd11cc7871829baf319c390600090a250565b600160a060020a0381161515611f4e57600080fd5b611f588282611c72565b1515611f6357600080fd5b600160a060020a0316600090815260209190915260409020805460ff19169055565b600160a060020a0381161515611f9a57600080fd5b611fa48282611c72565b15611fae57600080fd5b600160a060020a0316600090815260209190915260409020805460ff19166001179055565b60606040519081016040528060039060208202803883395091929150505600a165627a7a72305820cf328e344bdb128a6130620af288a04b5b38049208c258687d4a3b93392b9fdb0029",
  "source": "pragma solidity ^0.4.24;\n\nimport \"openzeppelin-solidity/contracts/token/ERC20/IERC20.sol\";\nimport \"../../rates/IRates.sol\";\nimport \"../../crowdsale/W12Fund.sol\";\nimport \"../../token/IWToken.sol\";\n\n\ncontract W12FundStub is W12Fund {\n    constructor (\n        uint version,\n        address crowdsaleAddress,\n        address swapAddress,\n        address wTokenAddress,\n        address _serviceWallet,\n        uint _trancheFeePercent,\n        IRates _rates\n    )\n        W12Fund(version, _trancheFeePercent, _rates) public\n    {\n        crowdsale = IW12Crowdsale(crowdsaleAddress);\n        swap = swapAddress;\n        wToken = IWToken(wTokenAddress);\n        trancheFeePercent = _trancheFeePercent;\n        serviceWallet = _serviceWallet;\n    }\n\n//    function _setTotalFunded(uint amount) external {\n//        totalFunded = amount;\n//    }\n//\n//    function _setTotalRefunded(uint amount) external {\n//        totalRefunded = amount;\n//    }\n\n    function() payable external {}\n\n    function _outFunds(bytes32 _symbol, uint _amount) external {\n        if (_symbol == METHOD_ETH) {\n            require(address(this).balance >= _amount);\n            msg.sender.transfer(_amount);\n        } else if(_symbol != METHOD_USD) {\n            require(rates.isToken(_symbol));\n            require(IERC20(rates.getTokenAddress(_symbol)).balanceOf(address(this)) >= _amount);\n            require(IERC20(rates.getTokenAddress(_symbol)).transfer(msg.sender, _amount));\n        }\n    }\n\n    modifier onlyCrowdsale {\n        _;\n    }\n\n    modifier onlyAdmin {\n        _;\n    }\n\n    modifier onlyProjectOwner {\n        _;\n    }\n}\n",
  "sourcePath": "/home/circleci/code/contracts/mocks/crowdsale/W12FundStub.sol",
  "compiler": {
    "name": "solc",
    "version": "0.4.24+commit.e67f0147.Emscripten.clang"
  },
  "schemaVersion": "2.0.1",
  "updatedAt": "2018-12-12T11:17:39.550Z"
}