{
  "contractName": "W12Fund",
  "abi": [
    {
      "constant": true,
      "inputs": [],
      "name": "wToken",
      "outputs": [
        {
          "name": "",
          "type": "address"
        }
      ],
      "payable": false,
      "stateMutability": "view",
      "type": "function"
    },
    {
      "constant": false,
      "inputs": [
        {
          "name": "recipient",
          "type": "address"
        }
      ],
      "name": "transferPrimary",
      "outputs": [],
      "payable": false,
      "stateMutability": "nonpayable",
      "type": "function"
    },
    {
      "constant": true,
      "inputs": [
        {
          "name": "account",
          "type": "address"
        }
      ],
      "name": "isAdmin",
      "outputs": [
        {
          "name": "",
          "type": "bool"
        }
      ],
      "payable": false,
      "stateMutability": "view",
      "type": "function"
    },
    {
      "constant": true,
      "inputs": [],
      "name": "rates",
      "outputs": [
        {
          "name": "",
          "type": "address"
        }
      ],
      "payable": false,
      "stateMutability": "view",
      "type": "function"
    },
    {
      "constant": true,
      "inputs": [],
      "name": "version",
      "outputs": [
        {
          "name": "",
          "type": "uint256"
        }
      ],
      "payable": false,
      "stateMutability": "view",
      "type": "function"
    },
    {
      "constant": true,
      "inputs": [],
      "name": "serviceWallet",
      "outputs": [
        {
          "name": "",
          "type": "address"
        }
      ],
      "payable": false,
      "stateMutability": "view",
      "type": "function"
    },
    {
      "constant": true,
      "inputs": [],
      "name": "swap",
      "outputs": [
        {
          "name": "",
          "type": "address"
        }
      ],
      "payable": false,
      "stateMutability": "view",
      "type": "function"
    },
    {
      "constant": false,
      "inputs": [],
      "name": "renounceAdmin",
      "outputs": [],
      "payable": false,
      "stateMutability": "nonpayable",
      "type": "function"
    },
    {
      "constant": true,
      "inputs": [],
      "name": "crowdsale",
      "outputs": [
        {
          "name": "",
          "type": "address"
        }
      ],
      "payable": false,
      "stateMutability": "view",
      "type": "function"
    },
    {
      "constant": true,
      "inputs": [],
      "name": "trancheFeePercent",
      "outputs": [
        {
          "name": "",
          "type": "uint256"
        }
      ],
      "payable": false,
      "stateMutability": "view",
      "type": "function"
    },
    {
      "constant": true,
      "inputs": [],
      "name": "primary",
      "outputs": [
        {
          "name": "",
          "type": "address"
        }
      ],
      "payable": false,
      "stateMutability": "view",
      "type": "function"
    },
    {
      "constant": false,
      "inputs": [],
      "name": "renounceProjectOwner",
      "outputs": [],
      "payable": false,
      "stateMutability": "nonpayable",
      "type": "function"
    },
    {
      "constant": true,
      "inputs": [
        {
          "name": "account",
          "type": "address"
        }
      ],
      "name": "isProjectOwner",
      "outputs": [
        {
          "name": "",
          "type": "bool"
        }
      ],
      "payable": false,
      "stateMutability": "view",
      "type": "function"
    },
    {
      "inputs": [
        {
          "name": "version",
          "type": "uint256"
        },
        {
          "name": "_trancheFeePercent",
          "type": "uint256"
        },
        {
          "name": "_rates",
          "type": "address"
        }
      ],
      "payable": false,
      "stateMutability": "nonpayable",
      "type": "constructor"
    },
    {
      "anonymous": false,
      "inputs": [
        {
          "indexed": true,
          "name": "investor",
          "type": "address"
        },
        {
          "indexed": false,
          "name": "tokenAmount",
          "type": "uint256"
        },
        {
          "indexed": false,
          "name": "symbol",
          "type": "bytes32"
        },
        {
          "indexed": false,
          "name": "cost",
          "type": "uint256"
        }
      ],
      "name": "FundsReceived",
      "type": "event"
    },
    {
      "anonymous": false,
      "inputs": [
        {
          "indexed": true,
          "name": "investor",
          "type": "address"
        },
        {
          "indexed": false,
          "name": "symbol",
          "type": "bytes32"
        },
        {
          "indexed": false,
          "name": "amount",
          "type": "uint256"
        }
      ],
      "name": "AssetRefunded",
      "type": "event"
    },
    {
      "anonymous": false,
      "inputs": [
        {
          "indexed": true,
          "name": "investor",
          "type": "address"
        },
        {
          "indexed": false,
          "name": "tokenAmount",
          "type": "uint256"
        }
      ],
      "name": "TokenRefunded",
      "type": "event"
    },
    {
      "anonymous": false,
      "inputs": [
        {
          "indexed": true,
          "name": "receiver",
          "type": "address"
        },
        {
          "indexed": false,
          "name": "symbol",
          "type": "bytes32"
        },
        {
          "indexed": false,
          "name": "amount",
          "type": "uint256"
        }
      ],
      "name": "TrancheTransferred",
      "type": "event"
    },
    {
      "anonymous": false,
      "inputs": [
        {
          "indexed": true,
          "name": "receiver",
          "type": "address"
        },
        {
          "indexed": false,
          "name": "percent",
          "type": "uint256"
        }
      ],
      "name": "TrancheReleased",
      "type": "event"
    },
    {
      "anonymous": false,
      "inputs": [
        {
          "indexed": false,
          "name": "recipient",
          "type": "address"
        }
      ],
      "name": "PrimaryTransferred",
      "type": "event"
    },
    {
      "anonymous": false,
      "inputs": [
        {
          "indexed": true,
          "name": "account",
          "type": "address"
        }
      ],
      "name": "ProjectOwnerAdded",
      "type": "event"
    },
    {
      "anonymous": false,
      "inputs": [
        {
          "indexed": true,
          "name": "account",
          "type": "address"
        }
      ],
      "name": "ProjectOwnerRemoved",
      "type": "event"
    },
    {
      "anonymous": false,
      "inputs": [
        {
          "indexed": true,
          "name": "account",
          "type": "address"
        }
      ],
      "name": "AdminAdded",
      "type": "event"
    },
    {
      "anonymous": false,
      "inputs": [
        {
          "indexed": true,
          "name": "account",
          "type": "address"
        }
      ],
      "name": "AdminRemoved",
      "type": "event"
    },
    {
      "constant": false,
      "inputs": [
        {
          "name": "_crowdsale",
          "type": "address"
        }
      ],
      "name": "setCrowdsale",
      "outputs": [],
      "payable": false,
      "stateMutability": "nonpayable",
      "type": "function"
    },
    {
      "constant": false,
      "inputs": [
        {
          "name": "_swap",
          "type": "address"
        }
      ],
      "name": "setSwap",
      "outputs": [],
      "payable": false,
      "stateMutability": "nonpayable",
      "type": "function"
    },
    {
      "constant": false,
      "inputs": [
        {
          "name": "_serviceWallet",
          "type": "address"
        }
      ],
      "name": "setServiceWallet",
      "outputs": [],
      "payable": false,
      "stateMutability": "nonpayable",
      "type": "function"
    },
    {
      "constant": false,
      "inputs": [
        {
          "name": "investor",
          "type": "address"
        },
        {
          "name": "tokenAmount",
          "type": "uint256"
        },
        {
          "name": "symbol",
          "type": "bytes32"
        },
        {
          "name": "cost",
          "type": "uint256"
        },
        {
          "name": "costUSD",
          "type": "uint256"
        }
      ],
      "name": "recordPurchase",
      "outputs": [],
      "payable": true,
      "stateMutability": "payable",
      "type": "function"
    },
    {
      "constant": false,
      "inputs": [],
      "name": "tranche",
      "outputs": [],
      "payable": false,
      "stateMutability": "nonpayable",
      "type": "function"
    },
    {
      "constant": false,
      "inputs": [
        {
          "name": "tokenAmount",
          "type": "uint256"
        }
      ],
      "name": "refund",
      "outputs": [],
      "payable": false,
      "stateMutability": "nonpayable",
      "type": "function"
    },
    {
      "constant": false,
      "inputs": [
        {
          "name": "_account",
          "type": "address"
        }
      ],
      "name": "addAdmin",
      "outputs": [],
      "payable": false,
      "stateMutability": "nonpayable",
      "type": "function"
    },
    {
      "constant": false,
      "inputs": [
        {
          "name": "_account",
          "type": "address"
        }
      ],
      "name": "removeAdmin",
      "outputs": [],
      "payable": false,
      "stateMutability": "nonpayable",
      "type": "function"
    },
    {
      "constant": false,
      "inputs": [
        {
          "name": "_account",
          "type": "address"
        }
      ],
      "name": "addProjectOwner",
      "outputs": [],
      "payable": false,
      "stateMutability": "nonpayable",
      "type": "function"
    },
    {
      "constant": false,
      "inputs": [
        {
          "name": "_account",
          "type": "address"
        }
      ],
      "name": "removeProjectOwner",
      "outputs": [],
      "payable": false,
      "stateMutability": "nonpayable",
      "type": "function"
    },
    {
      "constant": true,
      "inputs": [],
      "name": "totalTranchePercentReleased",
      "outputs": [
        {
          "name": "",
          "type": "uint256"
        }
      ],
      "payable": false,
      "stateMutability": "view",
      "type": "function"
    },
    {
      "constant": true,
      "inputs": [
        {
          "name": "milestoneIndex",
          "type": "uint256"
        }
      ],
      "name": "completedTranches",
      "outputs": [
        {
          "name": "",
          "type": "bool"
        }
      ],
      "payable": false,
      "stateMutability": "view",
      "type": "function"
    },
    {
      "constant": true,
      "inputs": [],
      "name": "totalTokenBought",
      "outputs": [
        {
          "name": "",
          "type": "uint256"
        }
      ],
      "payable": false,
      "stateMutability": "view",
      "type": "function"
    },
    {
      "constant": true,
      "inputs": [],
      "name": "totalTokenRefunded",
      "outputs": [
        {
          "name": "",
          "type": "uint256"
        }
      ],
      "payable": false,
      "stateMutability": "view",
      "type": "function"
    },
    {
      "constant": true,
      "inputs": [
        {
          "name": "_investor",
          "type": "address"
        },
        {
          "name": "_symbol",
          "type": "bytes32"
        }
      ],
      "name": "getInvestorFundedAmount",
      "outputs": [
        {
          "name": "",
          "type": "uint256"
        }
      ],
      "payable": false,
      "stateMutability": "view",
      "type": "function"
    },
    {
      "constant": true,
      "inputs": [
        {
          "name": "_investor",
          "type": "address"
        }
      ],
      "name": "getInvestorFundedAssetsSymbols",
      "outputs": [
        {
          "name": "",
          "type": "bytes32[]"
        }
      ],
      "payable": false,
      "stateMutability": "view",
      "type": "function"
    },
    {
      "constant": true,
      "inputs": [
        {
          "name": "_investor",
          "type": "address"
        }
      ],
      "name": "getInvestorTokenBoughtAmount",
      "outputs": [
        {
          "name": "",
          "type": "uint256"
        }
      ],
      "payable": false,
      "stateMutability": "view",
      "type": "function"
    },
    {
      "constant": true,
      "inputs": [
        {
          "name": "_symbol",
          "type": "bytes32"
        }
      ],
      "name": "getTotalFundedAmount",
      "outputs": [
        {
          "name": "",
          "type": "uint256"
        }
      ],
      "payable": false,
      "stateMutability": "view",
      "type": "function"
    },
    {
      "constant": true,
      "inputs": [],
      "name": "getTotalFundedAssetsSymbols",
      "outputs": [
        {
          "name": "",
          "type": "bytes32[]"
        }
      ],
      "payable": false,
      "stateMutability": "view",
      "type": "function"
    },
    {
      "constant": true,
      "inputs": [
        {
          "name": "_symbol",
          "type": "bytes32"
        }
      ],
      "name": "getTotalFundedReleased",
      "outputs": [
        {
          "name": "",
          "type": "uint256"
        }
      ],
      "payable": false,
      "stateMutability": "view",
      "type": "function"
    },
    {
      "constant": true,
      "inputs": [],
      "name": "getTrancheInvoice",
      "outputs": [
        {
          "name": "result",
          "type": "uint256[3]"
        }
      ],
      "payable": false,
      "stateMutability": "view",
      "type": "function"
    },
    {
      "constant": true,
      "inputs": [],
      "name": "tokenRefundAllowed",
      "outputs": [
        {
          "name": "",
          "type": "bool"
        }
      ],
      "payable": false,
      "stateMutability": "view",
      "type": "function"
    },
    {
      "constant": true,
      "inputs": [],
      "name": "trancheTransferAllowed",
      "outputs": [
        {
          "name": "",
          "type": "bool"
        }
      ],
      "payable": false,
      "stateMutability": "view",
      "type": "function"
    },
    {
      "constant": true,
      "inputs": [],
      "name": "isWithdrawalWindowActive",
      "outputs": [
        {
          "name": "",
          "type": "bool"
        }
      ],
      "payable": false,
      "stateMutability": "view",
      "type": "function"
    }
  ],
  "bytecode": "0x60806040523480156200001157600080fd5b506040516060806200209e83398101604090815281516020830151919092015182620000463364010000000062000243810204565b6200005a3364010000000062000295810204565b60025560038054600160a060020a03191633179081905560408051600160a060020a03929092168252517f4101e71e974f68df5e9730cc223280b41654676bbb052cdcc735c3337e64d2d99181900360200190a160016004908155604080517f520b00660000000000000000000000000000000000000000000000000000000081529182018490525173__Percent_______________________________9163520b0066916024808301926020929190829003018186803b1580156200011f57600080fd5b505af415801562000134573d6000803e3d6000fd5b505050506040513d60208110156200014b57600080fd5b50518015620001f5575060648273__Percent_______________________________630fe9114790916040518263ffffffff167c01000000000000000000000000000000000000000000000000000000000281526004018082815260200191505060206040518083038186803b158015620001c557600080fd5b505af4158015620001da573d6000803e3d6000fd5b505050506040513d6020811015620001f157600080fd5b5051105b15156200020157600080fd5b600160a060020a03811615156200021757600080fd5b600a9190915560078054600160a060020a031916600160a060020a03909216919091179055506200037a565b6200025e60008264010000000062001c7b620002e782021704565b604051600160a060020a038216907f44d6d25963f097ad14f29f06854a01f575648a1ef82f30e562ccd3889717e33990600090a250565b620002b060018264010000000062001c7b620002e782021704565b604051600160a060020a038216907f941e31c3e651de34a7fcf0132d9d02c2df9377e6b5f932bec5daf6353c94f90e90600090a250565b600160a060020a0381161515620002fd57600080fd5b62000312828264010000000062000342810204565b156200031d57600080fd5b600160a060020a0316600090815260209190915260409020805460ff19166001179055565b6000600160a060020a03821615156200035a57600080fd5b50600160a060020a03166000908152602091909152604090205460ff1690565b611d14806200038a6000396000f3006080604052600436106101b35763ffffffff60e060020a600035041663015dd28c81146101b85780630babd8641461021d5780631785f53c1461024e57806319ae48ed146102715780632348238c1461029857806323585f96146102b957806323bffccc146102e557806324d7806c14610306578063278ecde1146103275780633bcdb1641461033f57806343f48fbd14610360578063483a20b21461037557806354fd4d50146103965780635641f3c3146103ab5780636b90d6d2146103c05780636ebc0af1146103d557806370480275146103ea5780637a1c2da31461040b5780638119c065146104235780638429fffe146104385780638bad0c0a1461044d5780639124a789146104625780639ab269a6146104835780639c1e03a01461049b5780639e80baac146104b0578063a328665a146104c5578063a3b768e1146104da578063acb3c07314610527578063adb9dd0814610548578063b4105a3e14610569578063c6dbdf611461057e578063d0934d6114610593578063d0baf2f5146105a8578063d155790b146105c8578063d8e9ce64146105e9578063f206cb641461060a578063fb2814c41461062e575b600080fd5b3480156101c457600080fd5b506101cd610643565b60408051602080825283518183015283519192839290830191858101910280838360005b838110156102095781810151838201526020016101f1565b505050509050019250505060405180910390f35b34801561022957600080fd5b50610232610742565b60408051600160a060020a039092168252519081900360200190f35b34801561025a57600080fd5b5061026f600160a060020a0360043516610751565b005b34801561027d57600080fd5b50610286610771565b60408051918252519081900360200190f35b3480156102a457600080fd5b5061026f600160a060020a0360043516610777565b3480156102c557600080fd5b506102d160043561080a565b604080519115158252519081900360200190f35b3480156102f157600080fd5b5061026f600160a060020a036004351661081f565b34801561031257600080fd5b506102d1600160a060020a0360043516610877565b34801561033357600080fd5b5061026f60043561088f565b34801561034b57600080fd5b5061026f600160a060020a0360043516610b59565b34801561036c57600080fd5b50610232610b76565b34801561038157600080fd5b5061026f600160a060020a0360043516610b85565b3480156103a257600080fd5b50610286610d0e565b3480156103b757600080fd5b50610232610d14565b3480156103cc57600080fd5b506102d1610d23565b3480156103e157600080fd5b5061026f610f38565b3480156103f657600080fd5b5061026f600160a060020a0360043516611109565b34801561041757600080fd5b50610286600435611126565b34801561042f57600080fd5b50610232611138565b34801561044457600080fd5b506102d1611147565b34801561045957600080fd5b5061026f61137a565b34801561046e57600080fd5b50610286600160a060020a0360043516611385565b34801561048f57600080fd5b506102866004356113a0565b3480156104a757600080fd5b50610232611448565b3480156104bc57600080fd5b506102d1611457565b3480156104d157600080fd5b5061028661150a565b3480156104e657600080fd5b506104ef611510565b6040518082606080838360005b838110156105145781810151838201526020016104fc565b5050505090500191505060405180910390f35b34801561053357600080fd5b5061026f600160a060020a03600435166115cf565b34801561055457600080fd5b506101cd600160a060020a0360043516611627565b34801561057557600080fd5b5061028661173a565b34801561058a57600080fd5b50610232611740565b34801561059f57600080fd5b5061026f61174f565b61026f600160a060020a0360043516602435604435606435608435611758565b3480156105d457600080fd5b5061026f600160a060020a036004351661182f565b3480156105f557600080fd5b506102d1600160a060020a036004351661184c565b34801561061657600080fd5b50610286600160a060020a036004351660243561185f565b34801561063a57600080fd5b5061028661191a565b604080517f20e1e1d1000000000000000000000000000000000000000000000000000000008152600d6004820152905160609173__FundAccount___________________________916320e1e1d191602480820192600092909190829003018186803b1580156106b257600080fd5b505af41580156106c6573d6000803e3d6000fd5b505050506040513d6000823e601f3d908101601f1916820160405260208110156106ef57600080fd5b81019080805164010000000081111561070757600080fd5b8201602081018481111561071a57600080fd5b815185602082028301116401000000008211171561073757600080fd5b509094505050505090565b600654600160a060020a031681565b61075a33610877565b151561076557600080fd5b61076e81611920565b50565b600c5490565b600354600160a060020a0316331461078e57600080fd5b600160a060020a03811615156107a357600080fd5b6003805473ffffffffffffffffffffffffffffffffffffffff1916600160a060020a03838116919091179182905560408051929091168252517f4101e71e974f68df5e9730cc223280b41654676bbb052cdcc735c3337e64d2d9916020908290030190a150565b6000908152600b602052604090205460ff1690565b61082833610877565b151561083357600080fd5b600160a060020a038116151561084857600080fd5b6009805473ffffffffffffffffffffffffffffffffffffffff1916600160a060020a0392909216919091179055565b6000610889818363ffffffff61196816565b92915050565b60048054600101908190556108a2610d23565b15156108ad57600080fd5b8115156108b957600080fd5b336000908152601360205260409020548211156108d557600080fd5b600654604080517f70a0823100000000000000000000000000000000000000000000000000000000815233600482015290518492600160a060020a0316916370a082319160248083019260209291908290030181600087803b15801561093a57600080fd5b505af115801561094e573d6000803e3d6000fd5b505050506040513d602081101561096457600080fd5b5051101561097157600080fd5b600654604080517fdd62ed3e00000000000000000000000000000000000000000000000000000000815233600482015230602482015290518492600160a060020a03169163dd62ed3e9160448083019260209291908290030181600087803b1580156109dc57600080fd5b505af11580156109f0573d6000803e3d6000fd5b505050506040513d6020811015610a0657600080fd5b50511015610a1357600080fd5b610a1c8261199f565b601254610a2f908363ffffffff611a3e16565b60125533600090815260136020526040902054610a52908363ffffffff611a5716565b3360008181526013602090815260408083209490945560065460085485517f23b872dd0000000000000000000000000000000000000000000000000000000081526004810195909552600160a060020a0390811660248601526044850188905294519416936323b872dd93606480820194918390030190829087803b158015610ada57600080fd5b505af1158015610aee573d6000803e3d6000fd5b505050506040513d6020811015610b0457600080fd5b50511515610b1157600080fd5b60408051838152905133917fb7feb6c1d7169f40790388a31c0160d8f962a2b6c31970c28bd8cdfefa25ea29919081900360200190a26004548114610b5557600080fd5b5050565b610b6233610877565b1515610b6d57600080fd5b61076e81611a6e565b600754600160a060020a031681565b610b8e33610877565b1515610b9957600080fd5b600160a060020a0381161515610bae57600080fd5b6000600160a060020a031681600160a060020a0316634090cb646040518163ffffffff1660e060020a028152600401602060405180830381600087803b158015610bf757600080fd5b505af1158015610c0b573d6000803e3d6000fd5b505050506040513d6020811015610c2157600080fd5b5051600160a060020a03161415610c3757600080fd5b6005805473ffffffffffffffffffffffffffffffffffffffff1916600160a060020a038316908117909155604080517f4090cb640000000000000000000000000000000000000000000000000000000081529051634090cb64916004808201926020929091908290030181600087803b158015610cb357600080fd5b505af1158015610cc7573d6000803e3d6000fd5b505050506040513d6020811015610cdd57600080fd5b50516006805473ffffffffffffffffffffffffffffffffffffffff1916600160a060020a0390921691909117905550565b60025481565b600954600160a060020a031681565b600080600080600560009054906101000a9004600160a060020a0316600160a060020a031663d6d65f3d6040518163ffffffff1660e060020a0281526004016040805180830381600087803b158015610d7b57600080fd5b505af1158015610d8f573d6000803e3d6000fd5b505050506040513d6040811015610da557600080fd5b50519250821515610db557610f32565b600554604080517f2442e1cb000000000000000000000000000000000000000000000000000000008152600481018690529051600160a060020a0390921691632442e1cb9160248082019260009290919082900301818387803b158015610e1b57600080fd5b505af1158015610e2f573d6000803e3d6000fd5b505050506040513d6000823e601f3d908101601f1916820160405260c0811015610e5857600080fd5b815160208301516040840151606085015160808601805194969395929491939283019291640100000000811115610e8e57600080fd5b82016020810184811115610ea157600080fd5b8151640100000000811182820187101715610ebb57600080fd5b50509291906020018051640100000000811115610ed757600080fd5b82016020810184811115610eea57600080fd5b8151640100000000811182820187101715610f0457600080fd5b50509291905050505050935050509150428263ffffffff1611158015610f2f57508063ffffffff1642105b93505b50505090565b610f40611cc9565b610f493361184c565b1515610f5457600080fd5b6004805460010190819055610f67611457565b1515610f7257600080fd5b610f7a611510565b8051909250600010610f8b57600080fd5b604080517f20e1e1d1000000000000000000000000000000000000000000000000000000008152600d6004820152905173__FundAccount___________________________916320e1e1d1916024808301926000929190829003018186803b158015610ff657600080fd5b505af415801561100a573d6000803e3d6000fd5b505050506040513d6000823e601f3d908101601f19168201604052602081101561103357600080fd5b81019080805164010000000081111561104b57600080fd5b8201602081018481111561105e57600080fd5b815185602082028301116401000000008211171561107b57600080fd5b5050511515925061108e91505057600080fd5b6040828101516000908152600b60205220805460ff191660011790558151600c546110b891611a3e565b600c556110c482611ab6565b8151604080519182525133917f4a966617f50ccad97beb624d8e13820bf2a745e1640fed943858499286fc9829919081900360200190a26004548114610b5557600080fd5b61111233610877565b151561111d57600080fd5b61076e81611b9f565b60009081526010602052604090205490565b600854600160a060020a031681565b600554604080517fd6d65f3d00000000000000000000000000000000000000000000000000000000815281516000938493849384938493600160a060020a03169263d6d65f3d926004808201939182900301818787803b1580156111aa57600080fd5b505af11580156111be573d6000803e3d6000fd5b505050506040513d60408110156111d457600080fd5b50805160209091015190945092508315806111ed575082155b156111f757611373565b600554604080517f2442e1cb000000000000000000000000000000000000000000000000000000008152600481018790529051600160a060020a0390921691632442e1cb9160248082019260009290919082900301818387803b15801561125d57600080fd5b505af1158015611271573d6000803e3d6000fd5b505050506040513d6000823e601f3d908101601f1916820160405260c081101561129a57600080fd5b8151602083015160408401516060850151608086018051949693959294919392830192916401000000008111156112d057600080fd5b820160208101848111156112e357600080fd5b81516401000000008111828201871017156112fd57600080fd5b5050929190602001805164010000000081111561131957600080fd5b8201602081018481111561132c57600080fd5b815164010000000081118282018710171561134657600080fd5b50509291905050505050935050509150428263ffffffff16118061137057508063ffffffff164210155b94505b5050505090565b61138333611920565b565b600160a060020a031660009081526013602052604090205490565b604080517f75dff138000000000000000000000000000000000000000000000000000000008152600d600482015260248101839052905160009173__FundAccount___________________________916375dff13891604480820192602092909190829003018186803b15801561141657600080fd5b505af415801561142a573d6000803e3d6000fd5b505050506040513d602081101561144057600080fd5b505192915050565b600554600160a060020a031681565b6000806000600560009054906101000a9004600160a060020a0316600160a060020a031663d6d65f3d6040518163ffffffff1660e060020a0281526004016040805180830381600087803b1580156114ae57600080fd5b505af11580156114c2573d6000803e3d6000fd5b505050506040513d60408110156114d857600080fd5b50805160209091015190925090508015156114f257611505565b8115806115025750611502611147565b92505b505090565b600a5481565b611518611cc9565b73__Fund__________________________________63c4466008600b61153c611457565b6005546040805160e060020a63ffffffff871602815260048101949094529115156024840152600160a060020a03166044830152516064808301926060929190829003018186803b15801561159057600080fd5b505af41580156115a4573d6000803e3d6000fd5b505050506040513d601f19601f8201168201806040525060608110156115c957600080fd5b50905090565b6115d833610877565b15156115e357600080fd5b600160a060020a03811615156115f857600080fd5b6008805473ffffffffffffffffffffffffffffffffffffffff1916600160a060020a0392909216919091179055565b600160a060020a03811660009081526014602052604080822081517f20e1e1d10000000000000000000000000000000000000000000000000000000081526004810191909152905160609273__FundAccount___________________________926320e1e1d19260248083019392829003018186803b1580156116a957600080fd5b505af41580156116bd573d6000803e3d6000fd5b505050506040513d6000823e601f3d908101601f1916820160405260208110156116e657600080fd5b8101908080516401000000008111156116fe57600080fd5b8201602081018481111561171157600080fd5b815185602082028301116401000000008211171561172e57600080fd5b50909695505050505050565b60115490565b600354600160a060020a031690565b61138333611be7565b600554600160a060020a0316331461176f57600080fd5b600754604080517f46d1230a000000000000000000000000000000000000000000000000000000008152600b6004820152600160a060020a03808916602483015260448201889052606482018790526084820186905260a4820185905290921660c48301525173__Fund__________________________________916346d1230a9160e4808301926000929190829003018186803b15801561181057600080fd5b505af4158015611824573d6000803e3d6000fd5b505050505050505050565b61183833610877565b151561184357600080fd5b61076e81611be7565b600061088960018363ffffffff61196816565b600160a060020a038216600090815260146020908152604080832081517f75dff138000000000000000000000000000000000000000000000000000000008152600481019190915260248101859052905173__FundAccount___________________________926375dff1389260448082019391829003018186803b1580156118e757600080fd5b505af41580156118fb573d6000803e3d6000fd5b505050506040513d602081101561191157600080fd5b50519392505050565b60125490565b61193160008263ffffffff611c2f16565b604051600160a060020a038216907fa3b62bc36326052d97ea62d63c3d60308ed4c3ea8ac079dd8499f1e9c4f80c0f90600090a250565b6000600160a060020a038216151561197f57600080fd5b50600160a060020a03166000908152602091909152604090205460ff1690565b600754604080517fe0650238000000000000000000000000000000000000000000000000000000008152600b600482015260248101849052600160a060020a0390921660448301525173__Fund__________________________________9163e0650238916064808301926000929190829003018186803b158015611a2357600080fd5b505af4158015611a37573d6000803e3d6000fd5b5050505050565b600082820183811015611a5057600080fd5b9392505050565b60008083831115611a6757600080fd5b5050900390565b611a7f60018263ffffffff611c7b16565b604051600160a060020a038216907f941e31c3e651de34a7fcf0132d9d02c2df9377e6b5f932bec5daf6353c94f90e90600090a250565b600a546009546007546040517f69b3e2d2000000000000000000000000000000000000000000000000000000008152600b6004820181815273__Fund__________________________________956369b3e2d295929488949193600160a060020a039081169391169160240185606080838360005b83811015611b43578181015183820152602001611b2b565b5050505090500184815260200183600160a060020a0316600160a060020a0316815260200182600160a060020a0316600160a060020a031681526020019550505050505060006040518083038186803b158015611a2357600080fd5b611bb060008263ffffffff611c7b16565b604051600160a060020a038216907f44d6d25963f097ad14f29f06854a01f575648a1ef82f30e562ccd3889717e33990600090a250565b611bf860018263ffffffff611c2f16565b604051600160a060020a038216907fa3bfdef3d8149bacf15b7b64199fca8228c0fd4f8fcdd11cc7871829baf319c390600090a250565b600160a060020a0381161515611c4457600080fd5b611c4e8282611968565b1515611c5957600080fd5b600160a060020a0316600090815260209190915260409020805460ff19169055565b600160a060020a0381161515611c9057600080fd5b611c9a8282611968565b15611ca457600080fd5b600160a060020a0316600090815260209190915260409020805460ff19166001179055565b60606040519081016040528060039060208202803883395091929150505600a165627a7a723058203dc430c38a79112ae87a377458358f87a26b2e212a21131ce96e426e79ead20e0029",
  "source": "pragma solidity 0.4.24;\n\nimport \"openzeppelin-solidity/contracts/ownership/Secondary.sol\";\nimport \"openzeppelin-solidity/contracts/utils/ReentrancyGuard.sol\";\nimport \"openzeppelin-solidity/contracts/math/SafeMath.sol\";\nimport \"openzeppelin-solidity/contracts/token/ERC20/IERC20.sol\";\nimport \"./IW12Crowdsale.sol\";\nimport \"./IW12Fund.sol\";\nimport \"../rates/IRates.sol\";\nimport \"../libs/Utils.sol\";\nimport \"../libs/Percent.sol\";\nimport \"../libs/FundAccount.sol\";\nimport \"../libs/Fund.sol\";\nimport \"../versioning/Versionable.sol\";\nimport \"../token/IWToken.sol\";\nimport \"../access/roles/AdminRole.sol\";\nimport \"../access/roles/ProjectOwnerRole.sol\";\n\n\ncontract W12Fund is IW12Fund, AdminRole, ProjectOwnerRole, Versionable, Secondary, ReentrancyGuard {\n    using SafeMath for uint;\n    using Percent for uint;\n    using FundAccount for FundAccount.Account;\n\n    bytes32 constant internal METHOD_ETH = bytes32(\"ETH\");\n    bytes32 constant internal METHOD_USD = bytes32(\"USD\");\n\n    IW12Crowdsale public crowdsale;\n    IWToken public wToken;\n    IRates public rates;\n    address public swap;\n    address public serviceWallet;\n    // fee for realised tranche\n    uint public trancheFeePercent;\n\n    Fund.State private state;\n\n    event FundsReceived(address indexed investor, uint tokenAmount, bytes32 symbol, uint cost);\n    event AssetRefunded(address indexed investor, bytes32 symbol, uint amount);\n    event TokenRefunded(address indexed investor, uint tokenAmount);\n    event TrancheTransferred(address indexed receiver, bytes32 symbol, uint amount);\n    event TrancheReleased(address indexed receiver, uint percent);\n\n    constructor(uint version, uint _trancheFeePercent, IRates _rates) public Versionable(version) {\n        require(_trancheFeePercent.isPercent() && _trancheFeePercent.fromPercent() < 100);\n        require(_rates != address(0));\n\n        trancheFeePercent = _trancheFeePercent;\n        rates = _rates;\n    }\n\n    function setCrowdsale(IW12Crowdsale _crowdsale) external onlyAdmin {\n        require(_crowdsale != address(0));\n        require(_crowdsale.getWToken() != address(0));\n\n        crowdsale = _crowdsale;\n        wToken = IWToken(_crowdsale.getWToken());\n    }\n\n    function setSwap(address _swap) external onlyAdmin {\n        require(_swap != address(0));\n\n        swap = _swap;\n    }\n\n    function setServiceWallet(address _serviceWallet) external onlyAdmin {\n        require(_serviceWallet != address(0));\n\n        serviceWallet = _serviceWallet;\n    }\n\n    /**\n     * @dev Record purchase result to the fund and check the fund balance\n     * @param investor An investor address\n     * @param tokenAmount Token amount that was bought\n     * @param symbol Symbol of payment method\n     * @param cost Cost of token amount\n     * @param costUSD Cost in USD\n     */\n    function recordPurchase(\n        address investor,\n        uint tokenAmount,\n        bytes32 symbol,\n        uint cost,\n        uint costUSD\n    )\n        external payable onlyCrowdsale\n    {\n        Fund.recordPurchase(\n            state,\n            investor,\n            tokenAmount,\n            symbol,\n            cost,\n            costUSD,\n            rates\n        );\n    }\n\n    /**\n     * @notice Realise project tranche\n     */\n    function tranche() external onlyProjectOwner nonReentrant {\n        require(trancheTransferAllowed());\n\n        uint[3] memory trancheInvoice = getTrancheInvoice();\n\n        require(trancheInvoice[0] > 0);\n        require(state.totalFunded.symbolsList().length != 0);\n\n        state.completedTranches[trancheInvoice[2]] = true;\n        state.totalTranchePercentReleased = state.totalTranchePercentReleased.add(trancheInvoice[0]);\n\n        _transferTranche(trancheInvoice);\n\n        emit TrancheReleased(msg.sender, trancheInvoice[0]);\n    }\n\n    /**\n     * @notice Refund bought tokens\n     */\n    function refund(uint tokenAmount) external nonReentrant {\n        require(tokenRefundAllowed());\n        require(tokenAmount != 0);\n        require(state.tokenBoughtPerInvestor[msg.sender] >= tokenAmount);\n        require(wToken.balanceOf(msg.sender) >= tokenAmount);\n        require(wToken.allowance(msg.sender, address(this)) >= tokenAmount);\n\n        _refundAssets(tokenAmount);\n\n        state.totalTokenRefunded = state.totalTokenRefunded.add(tokenAmount);\n        state.tokenBoughtPerInvestor[msg.sender] = state.tokenBoughtPerInvestor[msg.sender].sub(tokenAmount);\n\n        require(wToken.transferFrom(msg.sender, swap, tokenAmount));\n\n        emit TokenRefunded(msg.sender, tokenAmount);\n    }\n\n    function addAdmin(address _account) public onlyAdmin {\n        _addAdmin(_account);\n    }\n\n    function removeAdmin(address _account) public onlyAdmin {\n        _removeAdmin(_account);\n    }\n\n    function addProjectOwner(address _account) public onlyAdmin {\n        _addProjectOwner(_account);\n    }\n\n    function removeProjectOwner(address _account) public onlyAdmin {\n        _removeProjectOwner(_account);\n    }\n\n    // total percent of realised project tranche\n    function totalTranchePercentReleased() public view returns (uint) {\n        return state.totalTranchePercentReleased;\n    }\n\n    function completedTranches(uint milestoneIndex) public view returns (bool) {\n        return state.completedTranches[milestoneIndex];\n    }\n\n    // total amount of bought token\n    function totalTokenBought() public view returns (uint) {\n        return state.totalTokenBought;\n    }\n\n    // total amount of refunded token\n    function totalTokenRefunded() public view returns (uint) {\n        return state.totalTokenRefunded;\n    }\n\n    function getInvestorFundedAmount(address _investor, bytes32 _symbol) public view returns(uint) {\n        return state.fundedPerInvestor[_investor].amountOf(_symbol);\n    }\n\n    function getInvestorFundedAssetsSymbols(address _investor) public view returns(bytes32[]) {\n        return state.fundedPerInvestor[_investor].symbolsList();\n    }\n\n    function getInvestorTokenBoughtAmount(address _investor) public view returns (uint) {\n        return state.tokenBoughtPerInvestor[_investor];\n    }\n\n    function getTotalFundedAmount(bytes32 _symbol) public view returns (uint) {\n        return state.totalFunded.amountOf(_symbol);\n    }\n\n    function getTotalFundedAssetsSymbols() public view returns (bytes32[]) {\n        return state.totalFunded.symbolsList();\n    }\n\n    function getTotalFundedReleased(bytes32 _symbol) public view returns (uint) {\n        return state.totalFundedReleased[_symbol];\n    }\n\n    /**\n     * @notice Get tranche invoice\n     * @return uint[3] result:\n     * [tranchePercent, totalTranchePercentBefore, milestoneIndex]\n     */\n    function getTrancheInvoice() public view returns (uint[3] result) {\n        return Fund.getTrancheInvoice(\n            state,\n            trancheTransferAllowed(),\n            crowdsale\n        );\n    }\n\n    function tokenRefundAllowed() public view returns (bool) {\n        (uint index, /* bool found */) = crowdsale.getCurrentMilestoneIndex();\n\n        // first milestone is reserved for the project to claim initial amount of payments.\n        // No refund allowed at this stage.\n        if (index == 0) return;\n\n        (uint32 endDate, , , uint32 withdrawalWindow, ,) = crowdsale.getMilestone(index);\n\n        return endDate <= now && now < withdrawalWindow;\n    }\n\n    function trancheTransferAllowed() public view returns (bool) {\n        (uint index, bool found) = crowdsale.getCurrentMilestoneIndex();\n\n        if (!found) return;\n\n        return index == 0 || isWithdrawalWindowActive();\n    }\n\n    function isWithdrawalWindowActive() public view returns (bool) {\n        (uint index, bool found) = crowdsale.getCurrentMilestoneIndex();\n\n        if (index == 0 || !found) return;\n\n        (uint32 endDate, , , uint32 lastWithdrawalWindow, ,) = crowdsale.getMilestone(index);\n\n        return endDate > now || now >= lastWithdrawalWindow;\n    }\n\n    function _transferTranche(uint[3] _invoice) internal {\n        Fund.transferTranche(\n            state,\n            _invoice,\n            trancheFeePercent,\n            serviceWallet,\n            rates\n        );\n    }\n\n    function _refundAssets(uint tokenAmount) internal {\n        Fund.refundAssets(\n            state,\n            tokenAmount,\n            rates\n        );\n    }\n\n    modifier onlyCrowdsale {\n        require(msg.sender == address(crowdsale));\n        _;\n    }\n}\n",
  "sourcePath": "/home/andrey/Code/w12/platform-contracts/contracts/crowdsale/W12Fund.sol",
  "compiler": {
    "name": "solc",
    "version": "0.4.24+commit.e67f0147.Emscripten.clang"
  },
  "schemaVersion": "2.0.1",
  "updatedAt": "2019-03-06T08:53:21.010Z"
}