{
  "contractName": "W12FundCrowdsaleStub",
  "abi": [
    {
      "constant": false,
      "inputs": [
        {
          "name": "recipient",
          "type": "address"
        }
      ],
      "name": "transferPrimary",
      "outputs": [],
      "payable": false,
      "stateMutability": "nonpayable",
      "type": "function"
    },
    {
      "constant": true,
      "inputs": [],
      "name": "version",
      "outputs": [
        {
          "name": "",
          "type": "uint256"
        }
      ],
      "payable": false,
      "stateMutability": "view",
      "type": "function"
    },
    {
      "constant": true,
      "inputs": [],
      "name": "primary",
      "outputs": [
        {
          "name": "",
          "type": "address"
        }
      ],
      "payable": false,
      "stateMutability": "view",
      "type": "function"
    },
    {
      "inputs": [
        {
          "name": "version",
          "type": "uint256"
        }
      ],
      "payable": false,
      "stateMutability": "nonpayable",
      "type": "constructor"
    },
    {
      "payable": true,
      "stateMutability": "payable",
      "type": "fallback"
    },
    {
      "anonymous": false,
      "inputs": [
        {
          "indexed": false,
          "name": "recipient",
          "type": "address"
        }
      ],
      "name": "PrimaryTransferred",
      "type": "event"
    },
    {
      "constant": true,
      "inputs": [],
      "name": "getFund",
      "outputs": [
        {
          "name": "",
          "type": "address"
        }
      ],
      "payable": false,
      "stateMutability": "view",
      "type": "function"
    },
    {
      "constant": true,
      "inputs": [
        {
          "name": "account",
          "type": "address"
        }
      ],
      "name": "isAdmin",
      "outputs": [
        {
          "name": "",
          "type": "bool"
        }
      ],
      "payable": false,
      "stateMutability": "view",
      "type": "function"
    },
    {
      "constant": false,
      "inputs": [
        {
          "name": "account",
          "type": "address"
        }
      ],
      "name": "addAdmin",
      "outputs": [],
      "payable": false,
      "stateMutability": "nonpayable",
      "type": "function"
    },
    {
      "constant": false,
      "inputs": [],
      "name": "renounceAdmin",
      "outputs": [],
      "payable": false,
      "stateMutability": "nonpayable",
      "type": "function"
    },
    {
      "constant": false,
      "inputs": [
        {
          "name": "account",
          "type": "address"
        }
      ],
      "name": "removeAdmin",
      "outputs": [],
      "payable": false,
      "stateMutability": "nonpayable",
      "type": "function"
    },
    {
      "constant": true,
      "inputs": [
        {
          "name": "account",
          "type": "address"
        }
      ],
      "name": "isProjectOwner",
      "outputs": [
        {
          "name": "",
          "type": "bool"
        }
      ],
      "payable": false,
      "stateMutability": "view",
      "type": "function"
    },
    {
      "constant": false,
      "inputs": [
        {
          "name": "account",
          "type": "address"
        }
      ],
      "name": "addProjectOwner",
      "outputs": [],
      "payable": false,
      "stateMutability": "nonpayable",
      "type": "function"
    },
    {
      "constant": false,
      "inputs": [],
      "name": "renounceProjectOwner",
      "outputs": [],
      "payable": false,
      "stateMutability": "nonpayable",
      "type": "function"
    },
    {
      "constant": false,
      "inputs": [
        {
          "name": "account",
          "type": "address"
        }
      ],
      "name": "removeProjectOwner",
      "outputs": [],
      "payable": false,
      "stateMutability": "nonpayable",
      "type": "function"
    },
    {
      "constant": false,
      "inputs": [
        {
          "name": "price",
          "type": "uint256"
        }
      ],
      "name": "setParameters",
      "outputs": [],
      "payable": false,
      "stateMutability": "nonpayable",
      "type": "function"
    },
    {
      "constant": false,
      "inputs": [
        {
          "name": "method",
          "type": "bytes32"
        },
        {
          "name": "has",
          "type": "bool"
        },
        {
          "name": "value",
          "type": "uint256"
        }
      ],
      "name": "updatePurchaseFeeParameterForPaymentMethod",
      "outputs": [],
      "payable": false,
      "stateMutability": "nonpayable",
      "type": "function"
    },
    {
      "constant": true,
      "inputs": [
        {
          "name": "method",
          "type": "bytes32"
        }
      ],
      "name": "getPurchaseFeeParameterForPaymentMethod",
      "outputs": [
        {
          "name": "",
          "type": "bool"
        },
        {
          "name": "",
          "type": "uint256"
        }
      ],
      "payable": false,
      "stateMutability": "view",
      "type": "function"
    },
    {
      "constant": true,
      "inputs": [
        {
          "name": "method",
          "type": "bytes32"
        }
      ],
      "name": "getPurchaseFeeForPaymentMethod",
      "outputs": [
        {
          "name": "",
          "type": "uint256"
        }
      ],
      "payable": false,
      "stateMutability": "view",
      "type": "function"
    },
    {
      "constant": false,
      "inputs": [
        {
          "name": "parametersOfStages",
          "type": "uint256[6][]"
        },
        {
          "name": "bonusConditionsOfStages",
          "type": "uint256[]"
        },
        {
          "name": "parametersOfMilestones",
          "type": "uint256[4][]"
        },
        {
          "name": "nameAndDescriptionsOffsetOfMilestones",
          "type": "uint32[]"
        },
        {
          "name": "nameAndDescriptionsOfMilestones",
          "type": "bytes"
        },
        {
          "name": "paymentMethodsList",
          "type": "bytes32[]"
        }
      ],
      "name": "setup",
      "outputs": [],
      "payable": false,
      "stateMutability": "nonpayable",
      "type": "function"
    },
    {
      "constant": true,
      "inputs": [],
      "name": "getWToken",
      "outputs": [
        {
          "name": "",
          "type": "address"
        }
      ],
      "payable": false,
      "stateMutability": "view",
      "type": "function"
    },
    {
      "constant": false,
      "inputs": [
        {
          "name": "a",
          "type": "address"
        }
      ],
      "name": "_getWTokenMockData",
      "outputs": [],
      "payable": false,
      "stateMutability": "nonpayable",
      "type": "function"
    },
    {
      "constant": true,
      "inputs": [
        {
          "name": "index",
          "type": "uint256"
        }
      ],
      "name": "getMilestone",
      "outputs": [
        {
          "name": "",
          "type": "uint32"
        },
        {
          "name": "",
          "type": "uint256"
        },
        {
          "name": "",
          "type": "uint32"
        },
        {
          "name": "",
          "type": "uint32"
        },
        {
          "name": "",
          "type": "bytes"
        },
        {
          "name": "",
          "type": "bytes"
        }
      ],
      "payable": false,
      "stateMutability": "view",
      "type": "function"
    },
    {
      "constant": false,
      "inputs": [
        {
          "name": "idx",
          "type": "uint256"
        },
        {
          "name": "a",
          "type": "uint32"
        },
        {
          "name": "b",
          "type": "uint256"
        },
        {
          "name": "c",
          "type": "uint32"
        },
        {
          "name": "d",
          "type": "uint32"
        },
        {
          "name": "e",
          "type": "bytes"
        },
        {
          "name": "f",
          "type": "bytes"
        }
      ],
      "name": "_getMilestoneMockData",
      "outputs": [],
      "payable": false,
      "stateMutability": "nonpayable",
      "type": "function"
    },
    {
      "constant": true,
      "inputs": [
        {
          "name": "index",
          "type": "uint256"
        }
      ],
      "name": "getStage",
      "outputs": [
        {
          "name": "",
          "type": "uint32"
        },
        {
          "name": "",
          "type": "uint32"
        },
        {
          "name": "",
          "type": "uint256"
        },
        {
          "name": "",
          "type": "uint32"
        },
        {
          "name": "",
          "type": "uint256[]"
        },
        {
          "name": "",
          "type": "uint256[]"
        }
      ],
      "payable": false,
      "stateMutability": "view",
      "type": "function"
    },
    {
      "constant": true,
      "inputs": [],
      "name": "getCurrentMilestoneIndex",
      "outputs": [
        {
          "name": "",
          "type": "uint256"
        },
        {
          "name": "",
          "type": "bool"
        }
      ],
      "payable": false,
      "stateMutability": "view",
      "type": "function"
    },
    {
      "constant": false,
      "inputs": [
        {
          "name": "a",
          "type": "uint256"
        },
        {
          "name": "b",
          "type": "bool"
        }
      ],
      "name": "_getCurrentMilestoneIndexMockData",
      "outputs": [],
      "payable": false,
      "stateMutability": "nonpayable",
      "type": "function"
    },
    {
      "constant": true,
      "inputs": [],
      "name": "getLastMilestoneIndex",
      "outputs": [
        {
          "name": "index",
          "type": "uint256"
        },
        {
          "name": "found",
          "type": "bool"
        }
      ],
      "payable": false,
      "stateMutability": "view",
      "type": "function"
    },
    {
      "constant": false,
      "inputs": [
        {
          "name": "a",
          "type": "uint256"
        },
        {
          "name": "b",
          "type": "bool"
        }
      ],
      "name": "_getLastMilestoneIndexMockData",
      "outputs": [],
      "payable": false,
      "stateMutability": "nonpayable",
      "type": "function"
    },
    {
      "constant": true,
      "inputs": [],
      "name": "milestonesLength",
      "outputs": [
        {
          "name": "",
          "type": "uint256"
        }
      ],
      "payable": false,
      "stateMutability": "view",
      "type": "function"
    },
    {
      "constant": true,
      "inputs": [],
      "name": "getCurrentStageIndex",
      "outputs": [
        {
          "name": "index",
          "type": "uint256"
        },
        {
          "name": "found",
          "type": "bool"
        }
      ],
      "payable": false,
      "stateMutability": "view",
      "type": "function"
    },
    {
      "constant": true,
      "inputs": [
        {
          "name": "value",
          "type": "uint256"
        }
      ],
      "name": "getSaleVolumeBonus",
      "outputs": [
        {
          "name": "bonus",
          "type": "uint256"
        }
      ],
      "payable": false,
      "stateMutability": "view",
      "type": "function"
    },
    {
      "constant": true,
      "inputs": [],
      "name": "isEnded",
      "outputs": [
        {
          "name": "",
          "type": "bool"
        }
      ],
      "payable": false,
      "stateMutability": "view",
      "type": "function"
    },
    {
      "constant": true,
      "inputs": [],
      "name": "isSaleActive",
      "outputs": [
        {
          "name": "",
          "type": "bool"
        }
      ],
      "payable": false,
      "stateMutability": "view",
      "type": "function"
    },
    {
      "constant": false,
      "inputs": [
        {
          "name": "method",
          "type": "bytes32"
        },
        {
          "name": "amount",
          "type": "uint256"
        }
      ],
      "name": "buyTokens",
      "outputs": [],
      "payable": true,
      "stateMutability": "payable",
      "type": "function"
    }
  ],
  "bytecode": "0x608060405234801561001057600080fd5b50604051602080610c5d8339810160408181529151600081905560018054600160a060020a031916331790819055600160a060020a0316825291517f4101e71e974f68df5e9730cc223280b41654676bbb052cdcc735c3337e64d2d99181900360200190a1506001600255610bd38061008a6000396000f3006080604052600436106101955763ffffffff7c010000000000000000000000000000000000000000000000000000000060003504166307f5d633811461019757806314f66d34146101a55780631785f53c146101d3578063208853c9146101f45780632348238c1461021e5780632442e1cb1461023f57806324d7806c146103755780632784bb7b146103aa5780632e325020146103dd5780633baba4d7146104ce5780633bcdb164146101d35780633dbd6721146101f45780634090cb64146104e357806354fd4d5014610514578063564566a81461052957806359e377491461053e57806370480275146101d3578063770bd6471461055e578063820a34351461057b5780638bad0c0a146105c65780638edd6eb6146105db578063a4fd6f5614610529578063c6dbdf61146105f0578063d0934d61146105c6578063d119d6cd14610605578063d155790b146101d3578063d5b2262314610626578063d6d65f3d14610682578063d8e9ce6414610375578063daa4cf8814610697578063e93b0540146106ac578063f77e0868146106c4575b005b6101956004356024356106e1565b3480156101b157600080fd5b506101ba6106e5565b6040805192835290151560208301528051918290030190f35b3480156101df57600080fd5b50610195600160a060020a03600435166106f2565b34801561020057600080fd5b5061020c6004356106f5565b60408051918252519081900360200190f35b34801561022a57600080fd5b50610195600160a060020a03600435166106fb565b34801561024b57600080fd5b5061025760043561078e565b604051808763ffffffff1663ffffffff1681526020018681526020018563ffffffff1663ffffffff1681526020018463ffffffff1663ffffffff1681526020018060200180602001838103835285818151815260200191508051906020019080838360005b838110156102d45781810151838201526020016102bc565b50505050905090810190601f1680156103015780820380516001836020036101000a031916815260200191505b50838103825284518152845160209182019186019080838360005b8381101561033457818101518382015260200161031c565b50505050905090810190601f1680156103615780820380516001836020036101000a031916815260200191505b509850505050505050505060405180910390f35b34801561038157600080fd5b50610396600160a060020a03600435166106f5565b604080519115158252519081900360200190f35b3480156103b657600080fd5b506103c2600435610908565b60408051921515835260208301919091528051918290030190f35b3480156103e957600080fd5b506103f5600435610910565b604051808763ffffffff1663ffffffff1681526020018663ffffffff1663ffffffff1681526020018581526020018463ffffffff1663ffffffff1681526020018060200180602001838103835285818151815260200191508051906020019060200280838360005b8381101561047557818101518382015260200161045d565b50505050905001838103825284818151815260200191508051906020019060200280838360005b838110156104b457818101518382015260200161049c565b505050509050019850505050505050505060405180910390f35b3480156104da57600080fd5b5061020c610922565b3480156104ef57600080fd5b506104f8610927565b60408051600160a060020a039092168252519081900360200190f35b34801561052057600080fd5b5061020c610937565b34801561053557600080fd5b50610396610922565b34801561054a57600080fd5b50610195600435602435151560443561093d565b34801561056a57600080fd5b506101956004356024351515610942565b34801561058757600080fd5b5061019560048035906024803563ffffffff9081169260443592606435831692608435169160a43580830192908201359160c43591820191013561095b565b3480156105d257600080fd5b50610195610aa2565b3480156105e757600080fd5b506104f8610922565b3480156105fc57600080fd5b506104f8610aa4565b34801561061157600080fd5b50610195600160a060020a0360043516610ab3565b34801561063257600080fd5b50610195602460048035828101929082013591813580830192908201359160443580830192908201359160643580830192908201359160843580830192908201359160a435918201910135610a94565b34801561068e57600080fd5b506101ba610ae2565b3480156106a357600080fd5b506101ba610aef565b3480156106b857600080fd5b506101956004356106f2565b3480156106d057600080fd5b506101956004356024351515610af6565b5050565b60055460065460ff169091565b50565b50600090565b600154600160a060020a0316331461071257600080fd5b600160a060020a038116151561072757600080fd5b6001805473ffffffffffffffffffffffffffffffffffffffff1916600160a060020a03838116919091179182905560408051929091168252517f4101e71e974f68df5e9730cc223280b41654676bbb052cdcc735c3337e64d2d9916020908290030190a150565b600081815260076020908152604080832080546001808301546002808501546003860180548851601f60001997831615610100029790970190911693909304948501899004890283018901909752838252889788978897606097889763ffffffff91821697968683169664010000000090049092169460049093019284919083018282801561085e5780601f106108335761010080835404028352916020019161085e565b820191906000526020600020905b81548152906001019060200180831161084157829003601f168201915b5050845460408051602060026001851615610100026000190190941693909304601f8101849004840282018401909252818152959750869450925084019050828280156108ec5780601f106108c1576101008083540402835291602001916108ec565b820191906000526020600020905b8154815290600101906020018083116108cf57829003601f168201915b5050505050905095509550955095509550955091939550919395565b600080915091565b60008060008060608091939550919395565b600090565b600854600160a060020a03165b90565b60005481565b505050565b6003919091556004805460ff1916911515919091179055565b60c0604051908101604052808963ffffffff1681526020018881526020018763ffffffff1681526020018663ffffffff16815260200185858080601f016020809104026020016040519081016040528093929190818152602001838380828437820191505050505050815260200183838080601f0160208091040260200160405190810160405280939291908181526020018383808284375050509290935250505060008a8152600760209081526040918290208351815463ffffffff91821663ffffffff1991821617835585840151600184015593850151600283018054606088015184166401000000000267ffffffff000000001993909416961695909517161790925560808301518051610a789260038501920190610b0f565b5060a08201518051610a94916004840191602090910190610b0f565b505050505050505050505050565b565b600154600160a060020a031690565b6008805473ffffffffffffffffffffffffffffffffffffffff1916600160a060020a0392909216919091179055565b60035460045460ff169091565b6000809091565b6005919091556006805460ff1916911515919091179055565b828054600181600116156101000203166002900490600052602060002090601f016020900481019282601f10610b5057805160ff1916838001178555610b7d565b82800160010185558215610b7d579182015b82811115610b7d578251825591602001919060010190610b62565b50610b89929150610b8d565b5090565b61093491905b80821115610b895760008155600101610b935600a165627a7a723058204b63de3cf29d64460a41ed771faa1f65f5b4bca0ad614d9b8cf74f07a34fc5f50029",
  "source": "pragma solidity 0.4.24;\n\nimport \"openzeppelin-solidity/contracts/ownership/Secondary.sol\";\nimport \"openzeppelin-solidity/contracts/utils/ReentrancyGuard.sol\";\nimport \"openzeppelin-solidity/contracts/math/SafeMath.sol\";\nimport \"solidity-bytes-utils/contracts/BytesLib.sol\";\nimport \"../../crowdsale/IW12Crowdsale.sol\";\nimport \"../../crowdsale/IW12Fund.sol\";\nimport \"../../token/IWToken.sol\";\nimport \"../../libs/Percent.sol\";\nimport \"../../versioning/Versionable.sol\";\n\n\ncontract W12FundCrowdsaleStub is Versionable, IW12Crowdsale, Secondary, ReentrancyGuard {\n    uint _currentMilestoneIndex;\n    bool _currentMilestoneIndexFound;\n    uint _lastMilestoneIndex;\n    bool _lastMilestoneIndexFound;\n    mapping (uint => Milestone) _currentMilestones;\n    IWToken _wtoken;\n\n    struct Milestone {\n        uint32 endDate;\n        uint tranchePercent;\n        uint32 voteEndDate;\n        uint32 withdrawalWindow;\n        bytes name;\n        bytes description;\n    }\n\n    constructor(uint version) Versionable(version) public {}\n\n    function getFund() external view returns (IW12Fund) {}\n\n    function isAdmin(address account) public view returns (bool) {}\n\n    function addAdmin(address account) public {}\n\n    function renounceAdmin() public {}\n\n    function removeAdmin(address account) public {}\n\n    function isProjectOwner(address account) public view returns (bool) {}\n\n    function addProjectOwner(address account) public {}\n\n    function renounceProjectOwner() public {}\n\n    function removeProjectOwner(address account) public {}\n\n    function setParameters(uint price) external {}\n\n    function updatePurchaseFeeParameterForPaymentMethod(bytes32 method, bool has, uint value) public {}\n\n    function getPurchaseFeeParameterForPaymentMethod(bytes32 method) public view returns (bool, uint) {}\n\n    function getPurchaseFeeForPaymentMethod(bytes32 method) public view returns (uint) {}\n\n    function setup(\n        uint[6][] parametersOfStages,\n        uint[] bonusConditionsOfStages,\n        uint[4][] parametersOfMilestones,\n        uint32[] nameAndDescriptionsOffsetOfMilestones,\n        bytes nameAndDescriptionsOfMilestones,\n        bytes32[] paymentMethodsList\n    ) external {}\n\n    function getWToken() external view returns (IWToken) {\n        return _wtoken;\n    }\n\n    function _getWTokenMockData(IWToken a) external {\n        _wtoken = a;\n    }\n\n    function getMilestone(uint index) public view returns (uint32, uint, uint32, uint32, bytes, bytes) {\n        return (\n            _currentMilestones[index].endDate,\n            _currentMilestones[index].tranchePercent,\n            _currentMilestones[index].voteEndDate,\n            _currentMilestones[index].withdrawalWindow,\n            _currentMilestones[index].name,\n            _currentMilestones[index].description\n        );\n    }\n\n    function _getMilestoneMockData(uint idx, uint32 a, uint b, uint32 c, uint32 d, bytes e, bytes f) external {\n        _currentMilestones[idx] = Milestone({\n            endDate: a,\n            tranchePercent: b,\n            voteEndDate: c,\n            withdrawalWindow: d,\n            name: e,\n            description: f\n        });\n    }\n\n    function getStage(uint index) public view returns (uint32, uint32, uint, uint32, uint[], uint[]) {}\n\n    function getCurrentMilestoneIndex() public view returns (uint, bool) {\n        return (_currentMilestoneIndex, _currentMilestoneIndexFound);\n    }\n\n    function _getCurrentMilestoneIndexMockData(uint a, bool b) public {\n        _currentMilestoneIndex = a;\n        _currentMilestoneIndexFound = b;\n    }\n\n    function getLastMilestoneIndex() public view returns (uint index, bool found) {\n        return (_lastMilestoneIndex, _lastMilestoneIndexFound);\n    }\n\n    function _getLastMilestoneIndexMockData(uint a, bool b) public {\n        _lastMilestoneIndex = a;\n        _lastMilestoneIndexFound = b;\n    }\n\n    function milestonesLength() external view returns (uint) {}\n\n    function getCurrentStageIndex() public view returns (uint index, bool found) {}\n\n    function getSaleVolumeBonus(uint value) public view returns (uint bonus) {}\n\n    function isEnded() public view returns (bool) {}\n\n    function isSaleActive() public view returns (bool) {}\n\n    function() payable external {}\n\n    function buyTokens(bytes32 method, uint amount) payable public {}\n}\n",
  "sourcePath": "/home/hokid/projects/work/W12-Product-Blockchain-Protocol/contracts/mocks/crowdsale/W12FundCrowdsaleStub.sol",
  "compiler": {
    "name": "solc",
    "version": "0.4.24+commit.e67f0147.Emscripten.clang"
  },
  "schemaVersion": "2.0.1",
  "updatedAt": "2019-03-06T10:56:55.856Z"
}