{
  "contractName": "W12Fund",
  "abi": [
    {
      "constant": true,
      "inputs": [],
      "name": "wToken",
      "outputs": [
        {
          "name": "",
          "type": "address"
        }
      ],
      "payable": false,
      "stateMutability": "view",
      "type": "function"
    },
    {
      "constant": false,
      "inputs": [
        {
          "name": "recipient",
          "type": "address"
        }
      ],
      "name": "transferPrimary",
      "outputs": [],
      "payable": false,
      "stateMutability": "nonpayable",
      "type": "function"
    },
    {
      "constant": true,
      "inputs": [
        {
          "name": "account",
          "type": "address"
        }
      ],
      "name": "isAdmin",
      "outputs": [
        {
          "name": "",
          "type": "bool"
        }
      ],
      "payable": false,
      "stateMutability": "view",
      "type": "function"
    },
    {
      "constant": true,
      "inputs": [],
      "name": "rates",
      "outputs": [
        {
          "name": "",
          "type": "address"
        }
      ],
      "payable": false,
      "stateMutability": "view",
      "type": "function"
    },
    {
      "constant": true,
      "inputs": [],
      "name": "version",
      "outputs": [
        {
          "name": "",
          "type": "uint256"
        }
      ],
      "payable": false,
      "stateMutability": "view",
      "type": "function"
    },
    {
      "constant": true,
      "inputs": [],
      "name": "serviceWallet",
      "outputs": [
        {
          "name": "",
          "type": "address"
        }
      ],
      "payable": false,
      "stateMutability": "view",
      "type": "function"
    },
    {
      "constant": true,
      "inputs": [],
      "name": "swap",
      "outputs": [
        {
          "name": "",
          "type": "address"
        }
      ],
      "payable": false,
      "stateMutability": "view",
      "type": "function"
    },
    {
      "constant": false,
      "inputs": [],
      "name": "renounceAdmin",
      "outputs": [],
      "payable": false,
      "stateMutability": "nonpayable",
      "type": "function"
    },
    {
      "constant": true,
      "inputs": [],
      "name": "crowdsale",
      "outputs": [
        {
          "name": "",
          "type": "address"
        }
      ],
      "payable": false,
      "stateMutability": "view",
      "type": "function"
    },
    {
      "constant": true,
      "inputs": [],
      "name": "trancheFeePercent",
      "outputs": [
        {
          "name": "",
          "type": "uint256"
        }
      ],
      "payable": false,
      "stateMutability": "view",
      "type": "function"
    },
    {
      "constant": true,
      "inputs": [],
      "name": "primary",
      "outputs": [
        {
          "name": "",
          "type": "address"
        }
      ],
      "payable": false,
      "stateMutability": "view",
      "type": "function"
    },
    {
      "constant": false,
      "inputs": [],
      "name": "renounceProjectOwner",
      "outputs": [],
      "payable": false,
      "stateMutability": "nonpayable",
      "type": "function"
    },
    {
      "constant": true,
      "inputs": [
        {
          "name": "account",
          "type": "address"
        }
      ],
      "name": "isProjectOwner",
      "outputs": [
        {
          "name": "",
          "type": "bool"
        }
      ],
      "payable": false,
      "stateMutability": "view",
      "type": "function"
    },
    {
      "constant": true,
      "inputs": [],
      "name": "ORACLE_ADDR",
      "outputs": [
        {
          "name": "",
          "type": "address"
        }
      ],
      "payable": false,
      "stateMutability": "view",
      "type": "function"
    },
    {
      "inputs": [
        {
          "name": "version",
          "type": "uint256"
        },
        {
          "name": "_trancheFeePercent",
          "type": "uint256"
        },
        {
          "name": "_rates",
          "type": "address"
        }
      ],
      "payable": false,
      "stateMutability": "nonpayable",
      "type": "constructor"
    },
    {
      "anonymous": false,
      "inputs": [
        {
          "indexed": true,
          "name": "investor",
          "type": "address"
        },
        {
          "indexed": false,
          "name": "tokenAmount",
          "type": "uint256"
        },
        {
          "indexed": false,
          "name": "symbol",
          "type": "bytes32"
        },
        {
          "indexed": false,
          "name": "cost",
          "type": "uint256"
        }
      ],
      "name": "FundsReceived",
      "type": "event"
    },
    {
      "anonymous": false,
      "inputs": [
        {
          "indexed": true,
          "name": "investor",
          "type": "address"
        },
        {
          "indexed": false,
          "name": "symbol",
          "type": "bytes32"
        },
        {
          "indexed": false,
          "name": "amount",
          "type": "uint256"
        }
      ],
      "name": "AssetRefunded",
      "type": "event"
    },
    {
      "anonymous": false,
      "inputs": [
        {
          "indexed": true,
          "name": "investor",
          "type": "address"
        },
        {
          "indexed": false,
          "name": "tokenAmount",
          "type": "uint256"
        }
      ],
      "name": "TokenRefunded",
      "type": "event"
    },
    {
      "anonymous": false,
      "inputs": [
        {
          "indexed": true,
          "name": "receiver",
          "type": "address"
        },
        {
          "indexed": false,
          "name": "symbol",
          "type": "bytes32"
        },
        {
          "indexed": false,
          "name": "amount",
          "type": "uint256"
        }
      ],
      "name": "TrancheTransferred",
      "type": "event"
    },
    {
      "anonymous": false,
      "inputs": [
        {
          "indexed": true,
          "name": "receiver",
          "type": "address"
        },
        {
          "indexed": false,
          "name": "percent",
          "type": "uint256"
        }
      ],
      "name": "TrancheReleased",
      "type": "event"
    },
    {
      "anonymous": false,
      "inputs": [
        {
          "indexed": false,
          "name": "recipient",
          "type": "address"
        }
      ],
      "name": "PrimaryTransferred",
      "type": "event"
    },
    {
      "anonymous": false,
      "inputs": [
        {
          "indexed": true,
          "name": "account",
          "type": "address"
        }
      ],
      "name": "ProjectOwnerAdded",
      "type": "event"
    },
    {
      "anonymous": false,
      "inputs": [
        {
          "indexed": true,
          "name": "account",
          "type": "address"
        }
      ],
      "name": "ProjectOwnerRemoved",
      "type": "event"
    },
    {
      "anonymous": false,
      "inputs": [
        {
          "indexed": true,
          "name": "account",
          "type": "address"
        }
      ],
      "name": "AdminAdded",
      "type": "event"
    },
    {
      "anonymous": false,
      "inputs": [
        {
          "indexed": true,
          "name": "account",
          "type": "address"
        }
      ],
      "name": "AdminRemoved",
      "type": "event"
    },
    {
      "constant": false,
      "inputs": [
        {
          "name": "_crowdsale",
          "type": "address"
        }
      ],
      "name": "setCrowdsale",
      "outputs": [],
      "payable": false,
      "stateMutability": "nonpayable",
      "type": "function"
    },
    {
      "constant": false,
      "inputs": [
        {
          "name": "_swap",
          "type": "address"
        }
      ],
      "name": "setSwap",
      "outputs": [],
      "payable": false,
      "stateMutability": "nonpayable",
      "type": "function"
    },
    {
      "constant": false,
      "inputs": [
        {
          "name": "_serviceWallet",
          "type": "address"
        }
      ],
      "name": "setServiceWallet",
      "outputs": [],
      "payable": false,
      "stateMutability": "nonpayable",
      "type": "function"
    },
    {
      "constant": true,
      "inputs": [],
      "name": "getServiceWallet",
      "outputs": [
        {
          "name": "",
          "type": "address"
        }
      ],
      "payable": false,
      "stateMutability": "view",
      "type": "function"
    },
    {
      "constant": false,
      "inputs": [
        {
          "name": "investor",
          "type": "address"
        },
        {
          "name": "tokenAmount",
          "type": "uint256"
        },
        {
          "name": "symbol",
          "type": "bytes32"
        },
        {
          "name": "cost",
          "type": "uint256"
        },
        {
          "name": "costUSD",
          "type": "uint256"
        }
      ],
      "name": "recordPurchase",
      "outputs": [],
      "payable": true,
      "stateMutability": "payable",
      "type": "function"
    },
    {
      "constant": false,
      "inputs": [],
      "name": "tranche",
      "outputs": [],
      "payable": false,
      "stateMutability": "nonpayable",
      "type": "function"
    },
    {
      "constant": false,
      "inputs": [
        {
          "name": "index",
          "type": "uint256"
        }
      ],
      "name": "tranche_index",
      "outputs": [],
      "payable": false,
      "stateMutability": "nonpayable",
      "type": "function"
    },
    {
      "constant": false,
      "inputs": [
        {
          "name": "tokenAmount",
          "type": "uint256"
        }
      ],
      "name": "refund",
      "outputs": [],
      "payable": false,
      "stateMutability": "nonpayable",
      "type": "function"
    },
    {
      "constant": false,
      "inputs": [
        {
          "name": "_account",
          "type": "address"
        }
      ],
      "name": "addAdmin",
      "outputs": [],
      "payable": false,
      "stateMutability": "nonpayable",
      "type": "function"
    },
    {
      "constant": false,
      "inputs": [
        {
          "name": "_account",
          "type": "address"
        }
      ],
      "name": "removeAdmin",
      "outputs": [],
      "payable": false,
      "stateMutability": "nonpayable",
      "type": "function"
    },
    {
      "constant": false,
      "inputs": [
        {
          "name": "_account",
          "type": "address"
        }
      ],
      "name": "addProjectOwner",
      "outputs": [],
      "payable": false,
      "stateMutability": "nonpayable",
      "type": "function"
    },
    {
      "constant": false,
      "inputs": [
        {
          "name": "_account",
          "type": "address"
        }
      ],
      "name": "removeProjectOwner",
      "outputs": [],
      "payable": false,
      "stateMutability": "nonpayable",
      "type": "function"
    },
    {
      "constant": true,
      "inputs": [],
      "name": "totalTranchePercentReleased",
      "outputs": [
        {
          "name": "",
          "type": "uint256"
        }
      ],
      "payable": false,
      "stateMutability": "view",
      "type": "function"
    },
    {
      "constant": true,
      "inputs": [
        {
          "name": "milestoneIndex",
          "type": "uint256"
        }
      ],
      "name": "completedTranches",
      "outputs": [
        {
          "name": "",
          "type": "bool"
        }
      ],
      "payable": false,
      "stateMutability": "view",
      "type": "function"
    },
    {
      "constant": true,
      "inputs": [],
      "name": "totalTokenBought",
      "outputs": [
        {
          "name": "",
          "type": "uint256"
        }
      ],
      "payable": false,
      "stateMutability": "view",
      "type": "function"
    },
    {
      "constant": true,
      "inputs": [],
      "name": "totalTokenRefunded",
      "outputs": [
        {
          "name": "",
          "type": "uint256"
        }
      ],
      "payable": false,
      "stateMutability": "view",
      "type": "function"
    },
    {
      "constant": true,
      "inputs": [
        {
          "name": "_investor",
          "type": "address"
        },
        {
          "name": "_symbol",
          "type": "bytes32"
        }
      ],
      "name": "getInvestorFundedAmount",
      "outputs": [
        {
          "name": "",
          "type": "uint256"
        }
      ],
      "payable": false,
      "stateMutability": "view",
      "type": "function"
    },
    {
      "constant": true,
      "inputs": [
        {
          "name": "_investor",
          "type": "address"
        }
      ],
      "name": "getInvestorFundedAssetsSymbols",
      "outputs": [
        {
          "name": "",
          "type": "bytes32[]"
        }
      ],
      "payable": false,
      "stateMutability": "view",
      "type": "function"
    },
    {
      "constant": true,
      "inputs": [
        {
          "name": "_investor",
          "type": "address"
        }
      ],
      "name": "getInvestorTokenBoughtAmount",
      "outputs": [
        {
          "name": "",
          "type": "uint256"
        }
      ],
      "payable": false,
      "stateMutability": "view",
      "type": "function"
    },
    {
      "constant": true,
      "inputs": [
        {
          "name": "_symbol",
          "type": "bytes32"
        }
      ],
      "name": "getTotalFundedAmount",
      "outputs": [
        {
          "name": "",
          "type": "uint256"
        }
      ],
      "payable": false,
      "stateMutability": "view",
      "type": "function"
    },
    {
      "constant": true,
      "inputs": [],
      "name": "getTotalFundedAssetsSymbols",
      "outputs": [
        {
          "name": "",
          "type": "bytes32[]"
        }
      ],
      "payable": false,
      "stateMutability": "view",
      "type": "function"
    },
    {
      "constant": true,
      "inputs": [
        {
          "name": "_symbol",
          "type": "bytes32"
        }
      ],
      "name": "getTotalFundedReleased",
      "outputs": [
        {
          "name": "",
          "type": "uint256"
        }
      ],
      "payable": false,
      "stateMutability": "view",
      "type": "function"
    },
    {
      "constant": true,
      "inputs": [],
      "name": "getTrancheInvoice",
      "outputs": [
        {
          "name": "result",
          "type": "uint256[3]"
        }
      ],
      "payable": false,
      "stateMutability": "view",
      "type": "function"
    },
    {
      "constant": true,
      "inputs": [
        {
          "name": "index",
          "type": "uint256"
        }
      ],
      "name": "getTrancheInvoiceIndex",
      "outputs": [
        {
          "name": "result",
          "type": "uint256[3]"
        }
      ],
      "payable": false,
      "stateMutability": "view",
      "type": "function"
    },
    {
      "constant": true,
      "inputs": [],
      "name": "tokenRefundAllowed",
      "outputs": [
        {
          "name": "",
          "type": "bool"
        }
      ],
      "payable": false,
      "stateMutability": "view",
      "type": "function"
    },
    {
      "constant": true,
      "inputs": [],
      "name": "trancheTransferAllowed",
      "outputs": [
        {
          "name": "",
          "type": "bool"
        }
      ],
      "payable": false,
      "stateMutability": "view",
      "type": "function"
    },
    {
      "constant": true,
      "inputs": [
        {
          "name": "index",
          "type": "uint256"
        }
      ],
      "name": "trancheTransferAllowedIndex",
      "outputs": [
        {
          "name": "",
          "type": "bool"
        }
      ],
      "payable": false,
      "stateMutability": "view",
      "type": "function"
    },
    {
      "constant": true,
      "inputs": [],
      "name": "isWithdrawalWindowActive",
      "outputs": [
        {
          "name": "",
          "type": "bool"
        }
      ],
      "payable": false,
      "stateMutability": "view",
      "type": "function"
    }
  ],
  "bytecode": "0x608060405260158054600160a060020a0319167309da4bee8ddad5df8b5bd354bd453652f25e6b621790553480156200003757600080fd5b506040516060806200283a833981016040908152815160208301519190920151826200006c3364010000000062000269810204565b6200008033640100000000620002bb810204565b60025560038054600160a060020a03191633179081905560408051600160a060020a03929092168252517f4101e71e974f68df5e9730cc223280b41654676bbb052cdcc735c3337e64d2d99181900360200190a160016004908155604080517f520b00660000000000000000000000000000000000000000000000000000000081529182018490525173__Percent_______________________________9163520b0066916024808301926020929190829003018186803b1580156200014557600080fd5b505af41580156200015a573d6000803e3d6000fd5b505050506040513d60208110156200017157600080fd5b505180156200021b575060648273__Percent_______________________________630fe9114790916040518263ffffffff167c01000000000000000000000000000000000000000000000000000000000281526004018082815260200191505060206040518083038186803b158015620001eb57600080fd5b505af415801562000200573d6000803e3d6000fd5b505050506040513d60208110156200021757600080fd5b5051105b15156200022757600080fd5b600160a060020a03811615156200023d57600080fd5b600a9190915560078054600160a060020a031916600160a060020a0390921691909117905550620003a0565b62000284600082640100000000620023f16200030d82021704565b604051600160a060020a038216907f44d6d25963f097ad14f29f06854a01f575648a1ef82f30e562ccd3889717e33990600090a250565b620002d6600182640100000000620023f16200030d82021704565b604051600160a060020a038216907f941e31c3e651de34a7fcf0132d9d02c2df9377e6b5f932bec5daf6353c94f90e90600090a250565b600160a060020a03811615156200032357600080fd5b62000338828264010000000062000368810204565b156200034357600080fd5b600160a060020a0316600090815260209190915260409020805460ff19166001179055565b6000600160a060020a03821615156200038057600080fd5b50600160a060020a03166000908152602091909152604090205460ff1690565b61248a80620003b06000396000f3006080604052600436106101ea5763ffffffff60e060020a600035041663015dd28c81146101ef5780630babd8641461025457806313946cd5146102855780631785f53c1461029a57806319ae48ed146102bd5780632348238c146102e457806323585f961461030557806323bffccc1461033157806324d7806c1461035257806324e4ea4b14610373578063278ecde11461038b578063392822b8146103a35780633bcdb164146103f357806343f48fbd14610414578063483a20b21461042957806354fd4d501461044a578063553ff8d61461045f5780635641f3c3146104775780636b90d6d21461048c5780636ebc0af1146104a157806370480275146104b65780637a1c2da3146104d75780638119c065146104ef5780638429fffe146105045780638bad0c0a146105195780639124a7891461052e5780639ab269a61461054f5780639c1e03a0146105675780639e80baac1461057c578063a328665a14610591578063a3b768e1146105a6578063acb3c073146105bb578063adb9dd08146105dc578063b4105a3e146105fd578063c6dbdf6114610612578063d0934d6114610627578063d0baf2f51461063c578063d155790b1461065c578063d8e9ce641461067d578063e236abb41461069e578063f206cb64146106b3578063fb2814c4146106d7575b600080fd5b3480156101fb57600080fd5b506102046106ec565b60408051602080825283518183015283519192839290830191858101910280838360005b83811015610240578181015183820152602001610228565b505050509050019250505060405180910390f35b34801561026057600080fd5b506102696107d5565b60408051600160a060020a039092168252519081900360200190f35b34801561029157600080fd5b506102696107e4565b3480156102a657600080fd5b506102bb600160a060020a03600435166107f3565b005b3480156102c957600080fd5b506102d2610813565b60408051918252519081900360200190f35b3480156102f057600080fd5b506102bb600160a060020a0360043516610819565b34801561031157600080fd5b5061031d6004356108ac565b604080519115158252519081900360200190f35b34801561033d57600080fd5b506102bb600160a060020a03600435166108c1565b34801561035e57600080fd5b5061031d600160a060020a0360043516610919565b34801561037f57600080fd5b506102bb600435610931565b34801561039757600080fd5b506102bb600435610aee565b3480156103af57600080fd5b506103bb600435610db8565b6040518082606080838360005b838110156103e05781810151838201526020016103c8565b5050505090500191505060405180910390f35b3480156103ff57600080fd5b506102bb600160a060020a0360043516610e80565b34801561042057600080fd5b50610269610e9d565b34801561043557600080fd5b506102bb600160a060020a0360043516610eac565b34801561045657600080fd5b506102d2611035565b34801561046b57600080fd5b5061031d60043561103b565b34801561048357600080fd5b506102696111cf565b34801561049857600080fd5b5061031d6111de565b3480156104ad57600080fd5b506102bb6115f1565b3480156104c257600080fd5b506102bb600160a060020a03600435166117ab565b3480156104e357600080fd5b506102d26004356117c8565b3480156104fb57600080fd5b506102696117da565b34801561051057600080fd5b5061031d6117e9565b34801561052557600080fd5b506102bb611a1c565b34801561053a57600080fd5b506102d2600160a060020a0360043516611a27565b34801561055b57600080fd5b506102d2600435611a42565b34801561057357600080fd5b50610269611aea565b34801561058857600080fd5b5061031d611af9565b34801561059d57600080fd5b506102d2611c87565b3480156105b257600080fd5b506103bb611c8d565b3480156105c757600080fd5b506102bb600160a060020a0360043516611d4c565b3480156105e857600080fd5b50610204600160a060020a0360043516611da4565b34801561060957600080fd5b506102d2611ea1565b34801561061e57600080fd5b50610269611ea7565b34801561063357600080fd5b506102bb611eb6565b6102bb600160a060020a0360043516602435604435606435608435611ebf565b34801561066857600080fd5b506102bb600160a060020a0360043516611f96565b34801561068957600080fd5b5061031d600160a060020a0360043516611fb3565b3480156106aa57600080fd5b50610269611fc6565b3480156106bf57600080fd5b506102d2600160a060020a0360043516602435611fd5565b3480156106e357600080fd5b506102d2612090565b6040805160e060020a6320e1e1d1028152600d6004820152905160609173__FundAccount___________________________916320e1e1d191602480820192600092909190829003018186803b15801561074557600080fd5b505af4158015610759573d6000803e3d6000fd5b505050506040513d6000823e601f3d908101601f19168201604052602081101561078257600080fd5b81019080805164010000000081111561079a57600080fd5b820160208101848111156107ad57600080fd5b81518560208202830111640100000000821117156107ca57600080fd5b509094505050505090565b600654600160a060020a031681565b600954600160a060020a031690565b6107fc33610919565b151561080757600080fd5b61081081612096565b50565b600c5490565b600354600160a060020a0316331461083057600080fd5b600160a060020a038116151561084557600080fd5b6003805473ffffffffffffffffffffffffffffffffffffffff1916600160a060020a03838116919091179182905560408051929091168252517f4101e71e974f68df5e9730cc223280b41654676bbb052cdcc735c3337e64d2d9916020908290030190a150565b6000908152600b602052604090205460ff1690565b6108ca33610919565b15156108d557600080fd5b600160a060020a03811615156108ea57600080fd5b6009805473ffffffffffffffffffffffffffffffffffffffff1916600160a060020a0392909216919091179055565b600061092b818363ffffffff6120de16565b92915050565b61093961243f565b61094233611fb3565b151561094d57600080fd5b600480546001019081905561096183610db8565b805190925060001061097257600080fd5b6040805160e060020a6320e1e1d1028152600d6004820152905173__FundAccount___________________________916320e1e1d1916024808301926000929190829003018186803b1580156109c757600080fd5b505af41580156109db573d6000803e3d6000fd5b505050506040513d6000823e601f3d908101601f191682016040526020811015610a0457600080fd5b810190808051640100000000811115610a1c57600080fd5b82016020810184811115610a2f57600080fd5b8151856020820283011164010000000082111715610a4c57600080fd5b50505115159250610a5f91505057600080fd5b6040808301516000908152600b602052908120805460ff19166001179055610a989083905b6020020151600c549063ffffffff61211516565b600c55610aa48261212e565b8151604080519182525133917f4a966617f50ccad97beb624d8e13820bf2a745e1640fed943858499286fc9829919081900360200190a26004548114610ae957600080fd5b505050565b6004805460010190819055610b016111de565b1515610b0c57600080fd5b811515610b1857600080fd5b33600090815260136020526040902054821115610b3457600080fd5b600654604080517f70a0823100000000000000000000000000000000000000000000000000000000815233600482015290518492600160a060020a0316916370a082319160248083019260209291908290030181600087803b158015610b9957600080fd5b505af1158015610bad573d6000803e3d6000fd5b505050506040513d6020811015610bc357600080fd5b50511015610bd057600080fd5b600654604080517fdd62ed3e00000000000000000000000000000000000000000000000000000000815233600482015230602482015290518492600160a060020a03169163dd62ed3e9160448083019260209291908290030181600087803b158015610c3b57600080fd5b505af1158015610c4f573d6000803e3d6000fd5b505050506040513d6020811015610c6557600080fd5b50511015610c7257600080fd5b610c7b82612232565b601254610c8e908363ffffffff61211516565b60125533600090815260136020526040902054610cb1908363ffffffff6122b616565b3360008181526013602090815260408083209490945560065460085485517f23b872dd0000000000000000000000000000000000000000000000000000000081526004810195909552600160a060020a0390811660248601526044850188905294519416936323b872dd93606480820194918390030190829087803b158015610d3957600080fd5b505af1158015610d4d573d6000803e3d6000fd5b505050506040513d6020811015610d6357600080fd5b50511515610d7057600080fd5b60408051838152905133917fb7feb6c1d7169f40790388a31c0160d8f962a2b6c31970c28bd8cdfefa25ea29919081900360200190a26004548114610db457600080fd5b5050565b610dc061243f565b73__Fund__________________________________634ff45efe600b610de58561103b565b6005546040805160e060020a63ffffffff871602815260048101949094529115156024840152600160a060020a0316604483015260648201869052516084808301926060929190829003018186803b158015610e4057600080fd5b505af4158015610e54573d6000803e3d6000fd5b505050506040513d601f19601f820116820180604052506060811015610e7957600080fd5b5092915050565b610e8933610919565b1515610e9457600080fd5b610810816122cd565b600754600160a060020a031681565b610eb533610919565b1515610ec057600080fd5b600160a060020a0381161515610ed557600080fd5b6000600160a060020a031681600160a060020a0316634090cb646040518163ffffffff1660e060020a028152600401602060405180830381600087803b158015610f1e57600080fd5b505af1158015610f32573d6000803e3d6000fd5b505050506040513d6020811015610f4857600080fd5b5051600160a060020a03161415610f5e57600080fd5b6005805473ffffffffffffffffffffffffffffffffffffffff1916600160a060020a038316908117909155604080517f4090cb640000000000000000000000000000000000000000000000000000000081529051634090cb64916004808201926020929091908290030181600087803b158015610fda57600080fd5b505af1158015610fee573d6000803e3d6000fd5b505050506040513d602081101561100457600080fd5b50516006805473ffffffffffffffffffffffffffffffffffffffff1916600160a060020a0390921691909117905550565b60025481565b600080600080600080600080600560009054906101000a9004600160a060020a0316600160a060020a03166314f66d346040518163ffffffff1660e060020a0281526004016040805180830381600087803b15801561109957600080fd5b505af11580156110ad573d6000803e3d6000fd5b505050506040513d60408110156110c357600080fd5b50805160209091015190975095508515156110dd576111c3565b868911156110ee57600097506111c3565b601554600554604080517fccb0b4e4000000000000000000000000000000000000000000000000000000008152600160a060020a039283166004820152602481018d90529051919092169650869163ccb0b4e49160448083019260809291908290030181600087803b15801561116357600080fd5b505af1158015611177573d6000803e3d6000fd5b505050506040513d608081101561118d57600080fd5b5080516020820151604083015160609093015191965094509092509050600282048411156111be57600197506111c3565b600097505b50505050505050919050565b600954600160a060020a031681565b600080600080600080600080600080600560009054906101000a9004600160a060020a0316600160a060020a031663d45c16026040518163ffffffff1660e060020a028152600401602060405180830381600087803b15801561124057600080fd5b505af1158015611254573d6000803e3d6000fd5b505050506040513d602081101561126a57600080fd5b5051111561130957600560009054906101000a9004600160a060020a0316600160a060020a031663d45c16026040518163ffffffff1660e060020a028152600401602060405180830381600087803b1580156112c557600080fd5b505af11580156112d9573d6000803e3d6000fd5b505050506040513d60208110156112ef57600080fd5b5051421061130057600198506115e6565b600098506115e6565b600554604080517fd6d65f3d0000000000000000000000000000000000000000000000000000000081528151600160a060020a039093169263d6d65f3d926004808401939192918290030181600087803b15801561136657600080fd5b505af115801561137a573d6000803e3d6000fd5b505050506040513d604081101561139057600080fd5b505197508715156113a0576115e6565b600554604080517f2442e1cb000000000000000000000000000000000000000000000000000000008152600481018b90529051600160a060020a0390921691632442e1cb9160248082019260009290919082900301818387803b15801561140657600080fd5b505af115801561141a573d6000803e3d6000fd5b505050506040513d6000823e601f3d908101601f1916820160405260c081101561144357600080fd5b81516020830151604084015160608501516080860180519496939592949193928301929164010000000081111561147957600080fd5b8201602081018481111561148c57600080fd5b81516401000000008111828201871017156114a657600080fd5b505092919060200180516401000000008111156114c257600080fd5b820160208101848111156114d557600080fd5b81516401000000008111828201871017156114ef57600080fd5b50509291905050505050985050509650601560009054906101000a9004600160a060020a0316945084600160a060020a031663ccb0b4e4600560009054906101000a9004600160a060020a03168a6040518363ffffffff1660e060020a0281526004018083600160a060020a0316600160a060020a0316815260200182815260200192505050608060405180830381600087803b15801561158f57600080fd5b505af11580156115a3573d6000803e3d6000fd5b505050506040513d60808110156115b957600080fd5b50805160208201516040830151606090930151919650945090925090506002820484111561130057600198505b505050505050505090565b6115f961243f565b61160233611fb3565b151561160d57600080fd5b6004805460010190819055611620611af9565b151561162b57600080fd5b611633611c8d565b805190925060001061164457600080fd5b6040805160e060020a6320e1e1d1028152600d6004820152905173__FundAccount___________________________916320e1e1d1916024808301926000929190829003018186803b15801561169957600080fd5b505af41580156116ad573d6000803e3d6000fd5b505050506040513d6000823e601f3d908101601f1916820160405260208110156116d657600080fd5b8101908080516401000000008111156116ee57600080fd5b8201602081018481111561170157600080fd5b815185602082028301116401000000008211171561171e57600080fd5b5050511515925061173191505057600080fd5b6040808301516000908152600b602052908120805460ff1916600117905561175a908390610a84565b600c556117668261212e565b8151604080519182525133917f4a966617f50ccad97beb624d8e13820bf2a745e1640fed943858499286fc9829919081900360200190a26004548114610db457600080fd5b6117b433610919565b15156117bf57600080fd5b61081081612315565b60009081526010602052604090205490565b600854600160a060020a031681565b600554604080517fd6d65f3d00000000000000000000000000000000000000000000000000000000815281516000938493849384938493600160a060020a03169263d6d65f3d926004808201939182900301818787803b15801561184c57600080fd5b505af1158015611860573d6000803e3d6000fd5b505050506040513d604081101561187657600080fd5b508051602090910151909450925083158061188f575082155b1561189957611a15565b600554604080517f2442e1cb000000000000000000000000000000000000000000000000000000008152600481018790529051600160a060020a0390921691632442e1cb9160248082019260009290919082900301818387803b1580156118ff57600080fd5b505af1158015611913573d6000803e3d6000fd5b505050506040513d6000823e601f3d908101601f1916820160405260c081101561193c57600080fd5b81516020830151604084015160608501516080860180519496939592949193928301929164010000000081111561197257600080fd5b8201602081018481111561198557600080fd5b815164010000000081118282018710171561199f57600080fd5b505092919060200180516401000000008111156119bb57600080fd5b820160208101848111156119ce57600080fd5b81516401000000008111828201871017156119e857600080fd5b50509291905050505050935050509150428263ffffffff161180611a1257508063ffffffff164210155b94505b5050505090565b611a2533612096565b565b600160a060020a031660009081526013602052604090205490565b604080517f75dff138000000000000000000000000000000000000000000000000000000008152600d600482015260248101839052905160009173__FundAccount___________________________916375dff13891604480820192602092909190829003018186803b158015611ab857600080fd5b505af4158015611acc573d6000803e3d6000fd5b505050506040513d6020811015611ae257600080fd5b505192915050565b600554600160a060020a031681565b600080600080600080600080600560009054906101000a9004600160a060020a0316600160a060020a031663d6d65f3d6040518163ffffffff1660e060020a0281526004016040805180830381600087803b158015611b5757600080fd5b505af1158015611b6b573d6000803e3d6000fd5b505050506040513d6040811015611b8157600080fd5b5080516020909101519097509550851515611b9b57611c7d565b601554600554604080517fccb0b4e4000000000000000000000000000000000000000000000000000000008152600160a060020a039283166004820152602481018b90529051919092169650869163ccb0b4e49160448083019260809291908290030181600087803b158015611c1057600080fd5b505af1158015611c24573d6000803e3d6000fd5b505050506040513d6080811015611c3a57600080fd5b5080516020820151604083015160609093015191965094509092509050600282048411611c6a5760009750611c7d565b861580611c7a5750611c7a6117e9565b97505b5050505050505090565b600a5481565b611c9561243f565b73__Fund__________________________________63c4466008600b611cb9611af9565b6005546040805160e060020a63ffffffff871602815260048101949094529115156024840152600160a060020a03166044830152516064808301926060929190829003018186803b158015611d0d57600080fd5b505af4158015611d21573d6000803e3d6000fd5b505050506040513d601f19601f820116820180604052506060811015611d4657600080fd5b50905090565b611d5533610919565b1515611d6057600080fd5b600160a060020a0381161515611d7557600080fd5b6008805473ffffffffffffffffffffffffffffffffffffffff1916600160a060020a0392909216919091179055565b600160a060020a038116600090815260146020526040808220815160e060020a6320e1e1d10281526004810191909152905160609273__FundAccount___________________________926320e1e1d19260248083019392829003018186803b158015611e1057600080fd5b505af4158015611e24573d6000803e3d6000fd5b505050506040513d6000823e601f3d908101601f191682016040526020811015611e4d57600080fd5b810190808051640100000000811115611e6557600080fd5b82016020810184811115611e7857600080fd5b8151856020820283011164010000000082111715611e9557600080fd5b50909695505050505050565b60115490565b600354600160a060020a031690565b611a253361235d565b600554600160a060020a03163314611ed657600080fd5b600754604080517f46d1230a000000000000000000000000000000000000000000000000000000008152600b6004820152600160a060020a03808916602483015260448201889052606482018790526084820186905260a4820185905290921660c48301525173__Fund__________________________________916346d1230a9160e4808301926000929190829003018186803b158015611f7757600080fd5b505af4158015611f8b573d6000803e3d6000fd5b505050505050505050565b611f9f33610919565b1515611faa57600080fd5b6108108161235d565b600061092b60018363ffffffff6120de16565b601554600160a060020a031681565b600160a060020a038216600090815260146020908152604080832081517f75dff138000000000000000000000000000000000000000000000000000000008152600481019190915260248101859052905173__FundAccount___________________________926375dff1389260448082019391829003018186803b15801561205d57600080fd5b505af4158015612071573d6000803e3d6000fd5b505050506040513d602081101561208757600080fd5b50519392505050565b60125490565b6120a760008263ffffffff6123a516565b604051600160a060020a038216907fa3b62bc36326052d97ea62d63c3d60308ed4c3ea8ac079dd8499f1e9c4f80c0f90600090a250565b6000600160a060020a03821615156120f557600080fd5b50600160a060020a03166000908152602091909152604090205460ff1690565b60008282018381101561212757600080fd5b9392505050565b600a546009546007546040517f69b3e2d2000000000000000000000000000000000000000000000000000000008152600b6004820181815273__Fund__________________________________956369b3e2d295929488949193600160a060020a039081169391169160240185606080838360005b838110156121bb5781810151838201526020016121a3565b5050505090500184815260200183600160a060020a0316600160a060020a0316815260200182600160a060020a0316600160a060020a031681526020019550505050505060006040518083038186803b15801561221757600080fd5b505af415801561222b573d6000803e3d6000fd5b5050505050565b600754604080517fe0650238000000000000000000000000000000000000000000000000000000008152600b600482015260248101849052600160a060020a0390921660448301525173__Fund__________________________________9163e0650238916064808301926000929190829003018186803b15801561221757600080fd5b600080838311156122c657600080fd5b5050900390565b6122de60018263ffffffff6123f116565b604051600160a060020a038216907f941e31c3e651de34a7fcf0132d9d02c2df9377e6b5f932bec5daf6353c94f90e90600090a250565b61232660008263ffffffff6123f116565b604051600160a060020a038216907f44d6d25963f097ad14f29f06854a01f575648a1ef82f30e562ccd3889717e33990600090a250565b61236e60018263ffffffff6123a516565b604051600160a060020a038216907fa3bfdef3d8149bacf15b7b64199fca8228c0fd4f8fcdd11cc7871829baf319c390600090a250565b600160a060020a03811615156123ba57600080fd5b6123c482826120de565b15156123cf57600080fd5b600160a060020a0316600090815260209190915260409020805460ff19169055565b600160a060020a038116151561240657600080fd5b61241082826120de565b1561241a57600080fd5b600160a060020a0316600090815260209190915260409020805460ff19166001179055565b60606040519081016040528060039060208202803883395091929150505600a165627a7a723058203e754d033ba546bbd5eb9c7863304b1603ac7bd8f74827fcb98150f24b289fea0029",
  "source": "pragma solidity 0.4.24;\n\nimport \"openzeppelin-solidity/contracts/ownership/Secondary.sol\";\nimport \"openzeppelin-solidity/contracts/utils/ReentrancyGuard.sol\";\nimport \"openzeppelin-solidity/contracts/math/SafeMath.sol\";\nimport \"openzeppelin-solidity/contracts/token/ERC20/IERC20.sol\";\nimport \"./IW12Crowdsale.sol\";\nimport \"./IW12Fund.sol\";\nimport \"../rates/IRates.sol\";\nimport \"../libs/Utils.sol\";\nimport \"../libs/Percent.sol\";\nimport \"../libs/FundAccount.sol\";\nimport \"../libs/Fund.sol\";\nimport \"../versioning/Versionable.sol\";\nimport \"../token/IWToken.sol\";\nimport \"../access/roles/AdminRole.sol\";\nimport \"../access/roles/ProjectOwnerRole.sol\";\nimport \"./IOracleBallot.sol\";\n\n\n\n\n\ncontract W12Fund is IW12Fund, AdminRole, ProjectOwnerRole, Versionable, Secondary, ReentrancyGuard {\n    using SafeMath for uint;\n    using Percent for uint;\n    using FundAccount for FundAccount.Account;\n\n    bytes32 constant internal METHOD_ETH = bytes32(\"ETH\");\n    bytes32 constant internal METHOD_USD = bytes32(\"USD\");\n\n    IW12Crowdsale public crowdsale;\n    IWToken public wToken;\n    IRates public rates;\n    address public swap;\n    address public serviceWallet;\n    // fee for realised tranche\n    uint public trancheFeePercent;\n\n    Fund.State private state;\n\n    address public ORACLE_ADDR = 0x09Da4Bee8DdAd5Df8b5BD354bD453652F25e6B62;\n\n\n    event FundsReceived(address indexed investor, uint tokenAmount, bytes32 symbol, uint cost);\n    event AssetRefunded(address indexed investor, bytes32 symbol, uint amount);\n    event TokenRefunded(address indexed investor, uint tokenAmount);\n    event TrancheTransferred(address indexed receiver, bytes32 symbol, uint amount);\n    event TrancheReleased(address indexed receiver, uint percent);\n\n    constructor(uint version, uint _trancheFeePercent, IRates _rates) public Versionable(version) {\n        require(_trancheFeePercent.isPercent() && _trancheFeePercent.fromPercent() < 100);\n        require(_rates != address(0));\n\n        trancheFeePercent = _trancheFeePercent;\n        rates = _rates;\n    }\n\n    function setCrowdsale(IW12Crowdsale _crowdsale) external onlyAdmin {\n        require(_crowdsale != address(0));\n        require(_crowdsale.getWToken() != address(0));\n\n        crowdsale = _crowdsale;\n        wToken = IWToken(_crowdsale.getWToken());\n    }\n\n    function setSwap(address _swap) external onlyAdmin {\n        require(_swap != address(0));\n\n        swap = _swap;\n    }\n\n    function setServiceWallet(address _serviceWallet) external onlyAdmin {\n        require(_serviceWallet != address(0));\n\n        serviceWallet = _serviceWallet;\n    }\n\n    function getServiceWallet() public view returns(address)\n    {\n        return serviceWallet;\n    }\n\n    /**\n     * @dev Record purchase result to the fund and check the fund balance\n     * @param investor An investor address\n     * @param tokenAmount Token amount that was bought\n     * @param symbol Symbol of payment method\n     * @param cost Cost of token amount\n     * @param costUSD Cost in USD\n     */\n    function recordPurchase(\n        address investor,\n        uint tokenAmount,\n        bytes32 symbol,\n        uint cost,\n        uint costUSD\n    )\n        external payable onlyCrowdsale\n    {\n        Fund.recordPurchase(\n            state,\n            investor,\n            tokenAmount,\n            symbol,\n            cost,\n            costUSD,\n            rates\n        );\n    }\n\n    /**\n     * @notice Realise project tranche\n     */\n    function tranche() external onlyProjectOwner nonReentrant {\n        require(trancheTransferAllowed());\n\n        uint[3] memory trancheInvoice = getTrancheInvoice();\n\n        require(trancheInvoice[0] > 0);\n        require(state.totalFunded.symbolsList().length != 0);\n\n        state.completedTranches[trancheInvoice[2]] = true;\n        state.totalTranchePercentReleased = state.totalTranchePercentReleased.add(trancheInvoice[0]);\n\n        _transferTranche(trancheInvoice);\n\n        emit TrancheReleased(msg.sender, trancheInvoice[0]);\n    }\n\n\n    function tranche_index(uint index) external onlyProjectOwner nonReentrant\n    {\n        uint[3] memory trancheInvoice = getTrancheInvoiceIndex(index);\n\n        require(trancheInvoice[0] > 0);\n        require(state.totalFunded.symbolsList().length != 0);\n\n        state.completedTranches[trancheInvoice[2]] = true;\n        state.totalTranchePercentReleased = state.totalTranchePercentReleased.add(trancheInvoice[0]);\n\n        _transferTranche(trancheInvoice);\n\n        emit TrancheReleased(msg.sender, trancheInvoice[0]);\n    }\n\n    /**\n     * @notice Refund bought tokens\n     */\n    function refund(uint tokenAmount) external nonReentrant {\n        require(tokenRefundAllowed());\n        require(tokenAmount != 0);\n        require(state.tokenBoughtPerInvestor[msg.sender] >= tokenAmount);\n        require(wToken.balanceOf(msg.sender) >= tokenAmount);\n        require(wToken.allowance(msg.sender, address(this)) >= tokenAmount);\n\n        _refundAssets(tokenAmount);\n\n        state.totalTokenRefunded = state.totalTokenRefunded.add(tokenAmount);\n        state.tokenBoughtPerInvestor[msg.sender] = state.tokenBoughtPerInvestor[msg.sender].sub(tokenAmount);\n\n        require(wToken.transferFrom(msg.sender, swap, tokenAmount));\n\n        emit TokenRefunded(msg.sender, tokenAmount);\n    }\n\n    function addAdmin(address _account) public onlyAdmin {\n        _addAdmin(_account);\n    }\n\n    function removeAdmin(address _account) public onlyAdmin {\n        _removeAdmin(_account);\n    }\n\n    function addProjectOwner(address _account) public onlyAdmin {\n        _addProjectOwner(_account);\n    }\n\n    function removeProjectOwner(address _account) public onlyAdmin {\n        _removeProjectOwner(_account);\n    }\n\n    // total percent of realised project tranche\n    function totalTranchePercentReleased() public view returns (uint) {\n        return state.totalTranchePercentReleased;\n    }\n\n    function completedTranches(uint milestoneIndex) public view returns (bool) {\n        return state.completedTranches[milestoneIndex];\n    }\n\n    // total amount of bought token\n    function totalTokenBought() public view returns (uint) {\n        return state.totalTokenBought;\n    }\n\n    // total amount of refunded token\n    function totalTokenRefunded() public view returns (uint) {\n        return state.totalTokenRefunded;\n    }\n\n    function getInvestorFundedAmount(address _investor, bytes32 _symbol) public view returns(uint) {\n        return state.fundedPerInvestor[_investor].amountOf(_symbol);\n    }\n\n    function getInvestorFundedAssetsSymbols(address _investor) public view returns(bytes32[]) {\n        return state.fundedPerInvestor[_investor].symbolsList();\n    }\n\n    function getInvestorTokenBoughtAmount(address _investor) public view returns (uint) {\n        return state.tokenBoughtPerInvestor[_investor];\n    }\n\n    function getTotalFundedAmount(bytes32 _symbol) public view returns (uint) {\n        return state.totalFunded.amountOf(_symbol);\n    }\n\n    function getTotalFundedAssetsSymbols() public view returns (bytes32[]) {\n        return state.totalFunded.symbolsList();\n    }\n\n    function getTotalFundedReleased(bytes32 _symbol) public view returns (uint) {\n        return state.totalFundedReleased[_symbol];\n    }\n\n    /**\n     * @notice Get tranche invoice\n     * @return uint[3] result:\n     * [tranchePercent, totalTranchePercentBefore, milestoneIndex]\n     */\n    function getTrancheInvoice() public view returns (uint[3] result) {\n        return Fund.getTrancheInvoice(\n            state,\n            trancheTransferAllowed(),\n            crowdsale\n        );\n    }\n\n\n    function getTrancheInvoiceIndex(uint index) public view returns (uint[3] result) {\n        return Fund.getTrancheInvoiceIndex(\n            state,\n            trancheTransferAllowedIndex(index),\n            crowdsale,\n            index\n        );\n    }\n\n    function tokenRefundAllowed() public view returns (bool)\n    {\n        if(crowdsale.getRefundDate() > 0)\n        {\n            if(now >= crowdsale.getRefundDate())\n            {\n                return true;\n            }\n\n            return false;\n        }\n\n        (uint index, /* bool found */) = crowdsale.getCurrentMilestoneIndex();\n\n        // first milestone is reserved for the project to claim initial amount of payments.\n        // No refund allowed at this stage.\n        if (index == 0) return;\n\n        (uint32 endDate, , , uint32 withdrawalWindow, ,) = crowdsale.getMilestone(index);\n\n        OracleBallot oracle = OracleBallot(ORACLE_ADDR);\n\n        (uint vote_y, uint vote_n, uint vote_all, bool can_vote) = oracle.get_vote_result(crowdsale, index);\n\n        if(vote_y > vote_all / 2)\n            return true;\n        else\n            return false;\n    }\n\n    function trancheTransferAllowed() public view returns (bool)\n    {\n        (uint index, bool found) = crowdsale.getCurrentMilestoneIndex();\n\n        if (!found) return;\n\n        OracleBallot oracle = OracleBallot(ORACLE_ADDR);\n\n        (uint vote_y, uint vote_n, uint vote_all, bool can_vote) = oracle.get_vote_result(crowdsale, index);\n\n        if(vote_y <= vote_all / 2)\n            return false;\n\n        return index == 0 || isWithdrawalWindowActive();\n    }\n\n    function trancheTransferAllowedIndex(uint index) public view returns (bool)\n    {\n        (uint last_index, bool found) = crowdsale.getLastMilestoneIndex();\n\n        if (!found) return;\n\n        if(index > last_index)\n            return false;\n\n        OracleBallot oracle = OracleBallot(ORACLE_ADDR);\n\n        (uint vote_y, uint vote_n, uint vote_all, bool can_vote) = oracle.get_vote_result(crowdsale, index);\n\n        if(vote_y > vote_all / 2)\n            return true;\n        else\n            return false;\n    }\n\n    function isWithdrawalWindowActive() public view returns (bool) {\n        (uint index, bool found) = crowdsale.getCurrentMilestoneIndex();\n\n        if (index == 0 || !found) return;\n\n        (uint32 endDate, , , uint32 lastWithdrawalWindow, ,) = crowdsale.getMilestone(index);\n\n        return endDate > now || now >= lastWithdrawalWindow;\n    }\n\n    function _transferTranche(uint[3] _invoice) internal {\n        Fund.transferTranche(\n            state,\n            _invoice,\n            trancheFeePercent,\n            serviceWallet,\n            rates\n        );\n    }\n\n    function _refundAssets(uint tokenAmount) internal {\n        Fund.refundAssets(\n            state,\n            tokenAmount,\n            rates\n        );\n    }\n\n    modifier onlyCrowdsale {\n        require(msg.sender == address(crowdsale));\n        _;\n    }\n}\n",
  "sourcePath": "/Users/gauss/_games/w12/Protocol/contracts/crowdsale/W12Fund.sol",
  "compiler": {
    "name": "solc",
    "version": "0.4.24+commit.e67f0147.Emscripten.clang"
  },
  "schemaVersion": "2.0.1",
  "updatedAt": "2019-07-31T23:06:31.975Z"
}