{
  "contractName": "W12Fund",
  "abi": [
    {
      "constant": true,
      "inputs": [],
      "name": "wToken",
      "outputs": [
        {
          "name": "",
          "type": "address"
        }
      ],
      "payable": false,
      "stateMutability": "view",
      "type": "function"
    },
    {
      "constant": true,
      "inputs": [],
      "name": "totalTranchePercentReleased",
      "outputs": [
        {
          "name": "",
          "type": "uint8"
        }
      ],
      "payable": false,
      "stateMutability": "view",
      "type": "function"
    },
    {
      "constant": true,
      "inputs": [
        {
          "name": "",
          "type": "uint256"
        }
      ],
      "name": "completedTranches",
      "outputs": [
        {
          "name": "",
          "type": "bool"
        }
      ],
      "payable": false,
      "stateMutability": "view",
      "type": "function"
    },
    {
      "constant": true,
      "inputs": [],
      "name": "tokenDecimals",
      "outputs": [
        {
          "name": "",
          "type": "uint256"
        }
      ],
      "payable": false,
      "stateMutability": "view",
      "type": "function"
    },
    {
      "constant": true,
      "inputs": [],
      "name": "serviceWallet",
      "outputs": [
        {
          "name": "",
          "type": "address"
        }
      ],
      "payable": false,
      "stateMutability": "view",
      "type": "function"
    },
    {
      "constant": false,
      "inputs": [],
      "name": "renounceOwnership",
      "outputs": [],
      "payable": false,
      "stateMutability": "nonpayable",
      "type": "function"
    },
    {
      "constant": true,
      "inputs": [],
      "name": "swap",
      "outputs": [
        {
          "name": "",
          "type": "address"
        }
      ],
      "payable": false,
      "stateMutability": "view",
      "type": "function"
    },
    {
      "constant": true,
      "inputs": [],
      "name": "owner",
      "outputs": [
        {
          "name": "",
          "type": "address"
        }
      ],
      "payable": false,
      "stateMutability": "view",
      "type": "function"
    },
    {
      "constant": true,
      "inputs": [
        {
          "name": "",
          "type": "address"
        }
      ],
      "name": "buyers",
      "outputs": [
        {
          "name": "totalBought",
          "type": "uint256"
        },
        {
          "name": "averagePrice",
          "type": "uint256"
        },
        {
          "name": "totalFunded",
          "type": "uint256"
        }
      ],
      "payable": false,
      "stateMutability": "view",
      "type": "function"
    },
    {
      "constant": true,
      "inputs": [],
      "name": "crowdsale",
      "outputs": [
        {
          "name": "",
          "type": "address"
        }
      ],
      "payable": false,
      "stateMutability": "view",
      "type": "function"
    },
    {
      "constant": true,
      "inputs": [],
      "name": "trancheFeePercent",
      "outputs": [
        {
          "name": "",
          "type": "uint256"
        }
      ],
      "payable": false,
      "stateMutability": "view",
      "type": "function"
    },
    {
      "constant": true,
      "inputs": [],
      "name": "totalFunded",
      "outputs": [
        {
          "name": "",
          "type": "uint256"
        }
      ],
      "payable": false,
      "stateMutability": "view",
      "type": "function"
    },
    {
      "constant": true,
      "inputs": [],
      "name": "totalRefunded",
      "outputs": [
        {
          "name": "",
          "type": "uint256"
        }
      ],
      "payable": false,
      "stateMutability": "view",
      "type": "function"
    },
    {
      "constant": false,
      "inputs": [
        {
          "name": "_newOwner",
          "type": "address"
        }
      ],
      "name": "transferOwnership",
      "outputs": [],
      "payable": false,
      "stateMutability": "nonpayable",
      "type": "function"
    },
    {
      "inputs": [
        {
          "name": "_trancheFeePercent",
          "type": "uint256"
        }
      ],
      "payable": false,
      "stateMutability": "nonpayable",
      "type": "constructor"
    },
    {
      "anonymous": false,
      "inputs": [
        {
          "indexed": true,
          "name": "buyer",
          "type": "address"
        },
        {
          "indexed": false,
          "name": "weiAmount",
          "type": "uint256"
        },
        {
          "indexed": false,
          "name": "tokenAmount",
          "type": "uint256"
        }
      ],
      "name": "FundsReceived",
      "type": "event"
    },
    {
      "anonymous": false,
      "inputs": [
        {
          "indexed": true,
          "name": "buyer",
          "type": "address"
        },
        {
          "indexed": false,
          "name": "weiAmount",
          "type": "uint256"
        },
        {
          "indexed": false,
          "name": "tokenAmount",
          "type": "uint256"
        }
      ],
      "name": "FundsRefunded",
      "type": "event"
    },
    {
      "anonymous": false,
      "inputs": [
        {
          "indexed": true,
          "name": "receiver",
          "type": "address"
        },
        {
          "indexed": false,
          "name": "amount",
          "type": "uint256"
        }
      ],
      "name": "TrancheReleased",
      "type": "event"
    },
    {
      "anonymous": false,
      "inputs": [
        {
          "indexed": true,
          "name": "previousOwner",
          "type": "address"
        }
      ],
      "name": "OwnershipRenounced",
      "type": "event"
    },
    {
      "anonymous": false,
      "inputs": [
        {
          "indexed": true,
          "name": "previousOwner",
          "type": "address"
        },
        {
          "indexed": true,
          "name": "newOwner",
          "type": "address"
        }
      ],
      "name": "OwnershipTransferred",
      "type": "event"
    },
    {
      "constant": false,
      "inputs": [
        {
          "name": "_crowdsale",
          "type": "address"
        }
      ],
      "name": "setCrowdsale",
      "outputs": [],
      "payable": false,
      "stateMutability": "nonpayable",
      "type": "function"
    },
    {
      "constant": false,
      "inputs": [
        {
          "name": "_swap",
          "type": "address"
        }
      ],
      "name": "setSwap",
      "outputs": [],
      "payable": false,
      "stateMutability": "nonpayable",
      "type": "function"
    },
    {
      "constant": false,
      "inputs": [
        {
          "name": "_serviceWallet",
          "type": "address"
        }
      ],
      "name": "setServiceWallet",
      "outputs": [],
      "payable": false,
      "stateMutability": "nonpayable",
      "type": "function"
    },
    {
      "constant": false,
      "inputs": [
        {
          "name": "buyer",
          "type": "address"
        },
        {
          "name": "tokenAmount",
          "type": "uint256"
        }
      ],
      "name": "recordPurchase",
      "outputs": [],
      "payable": true,
      "stateMutability": "payable",
      "type": "function"
    },
    {
      "constant": true,
      "inputs": [
        {
          "name": "buyer",
          "type": "address"
        }
      ],
      "name": "getInvestmentsInfo",
      "outputs": [
        {
          "name": "totalTokensBought",
          "type": "uint256"
        },
        {
          "name": "averageTokenPrice",
          "type": "uint256"
        }
      ],
      "payable": false,
      "stateMutability": "view",
      "type": "function"
    },
    {
      "constant": true,
      "inputs": [
        {
          "name": "wtokensToRefund",
          "type": "uint256"
        }
      ],
      "name": "getRefundAmount",
      "outputs": [
        {
          "name": "result",
          "type": "uint256"
        }
      ],
      "payable": false,
      "stateMutability": "view",
      "type": "function"
    },
    {
      "constant": true,
      "inputs": [],
      "name": "getTrancheAmount",
      "outputs": [
        {
          "name": "result",
          "type": "uint256"
        }
      ],
      "payable": false,
      "stateMutability": "view",
      "type": "function"
    },
    {
      "constant": true,
      "inputs": [],
      "name": "getTrancheParameters",
      "outputs": [
        {
          "name": "",
          "type": "uint8"
        },
        {
          "name": "totalTranchePercentBefore",
          "type": "uint8"
        },
        {
          "name": "",
          "type": "uint256"
        }
      ],
      "payable": false,
      "stateMutability": "view",
      "type": "function"
    },
    {
      "constant": false,
      "inputs": [],
      "name": "tranche",
      "outputs": [],
      "payable": false,
      "stateMutability": "nonpayable",
      "type": "function"
    },
    {
      "constant": false,
      "inputs": [
        {
          "name": "wtokensToRefund",
          "type": "uint256"
        }
      ],
      "name": "refund",
      "outputs": [],
      "payable": false,
      "stateMutability": "nonpayable",
      "type": "function"
    },
    {
      "constant": true,
      "inputs": [],
      "name": "refundAllowed",
      "outputs": [
        {
          "name": "",
          "type": "bool"
        }
      ],
      "payable": false,
      "stateMutability": "view",
      "type": "function"
    },
    {
      "constant": true,
      "inputs": [],
      "name": "trancheTransferAllowed",
      "outputs": [
        {
          "name": "",
          "type": "bool"
        }
      ],
      "payable": false,
      "stateMutability": "view",
      "type": "function"
    }
  ],
  "bytecode": "0x6080604052600180553480156200001557600080fd5b506040516020806200326483398101806040528101908080519060200190929190505050336000806101000a81548173ffffffffffffffffffffffffffffffffffffffff021916908373ffffffffffffffffffffffffffffffffffffffff1602179055506200009881620000dd6401000000000262003064176401000000009004565b8015620000c357506064620000c182620000f9640100000000026200307f176401000000009004565b105b1515620000cf57600080fd5b80600c819055505062000178565b6000808210158015620000f257506127108211155b9050919050565b60006200011582620000dd640100000000026401000000009004565b15156200012157600080fd5b620001456064836200014c6401000000000262002eb9179091906401000000009004565b9050919050565b6000806000831115156200015f57600080fd5b82848115156200016b57fe5b0490508091505092915050565b6130dc80620001886000396000f300608060405260043610610154576000357c0100000000000000000000000000000000000000000000000000000000900463ffffffff16806304cd5294146101595780630babd8641461019a57806311fa7da2146101f157806319ae48ed1461024f57806323585f961461028057806323bffccc146102c5578063278ecde1146103085780633b97e856146103355780633fa911ae14610360578063483a20b21461038f5780635641f3c3146103d25780636ebc0af114610429578063715018a6146104405780638119c065146104575780638ce2bc2a146104ae5780638da5cb5b146104d9578063958799cb1461053057806397a993aa146105705780639c1e03a0146105d55780639e80baac1461062c578063a328665a1461065b578063ac2a2a3414610686578063acb3c073146106cb578063ad044f491461070e578063d908296214610739578063f2fde38b14610764575b600080fd5b34801561016557600080fd5b50610184600480360381019080803590602001909291905050506107a7565b6040518082815260200191505060405180910390f35b3480156101a657600080fd5b506101af610af8565b604051808273ffffffffffffffffffffffffffffffffffffffff1673ffffffffffffffffffffffffffffffffffffffff16815260200191505060405180910390f35b3480156101fd57600080fd5b50610232600480360381019080803573ffffffffffffffffffffffffffffffffffffffff169060200190929190505050610b1e565b604051808381526020018281526020019250505060405180910390f35b34801561025b57600080fd5b50610264610bec565b604051808260ff1660ff16815260200191505060405180910390f35b34801561028c57600080fd5b506102ab60048036038101908080359060200190929190505050610bff565b604051808215151515815260200191505060405180910390f35b3480156102d157600080fd5b50610306600480360381019080803573ffffffffffffffffffffffffffffffffffffffff169060200190929190505050610c1f565b005b34801561031457600080fd5b5061033360048036038101908080359060200190929190505050610cfa565b005b34801561034157600080fd5b5061034a6113b4565b6040518082815260200191505060405180910390f35b34801561036c57600080fd5b506103756113ba565b604051808215151515815260200191505060405180910390f35b34801561039b57600080fd5b506103d0600480360381019080803573ffffffffffffffffffffffffffffffffffffffff169060200190929190505050611664565b005b3480156103de57600080fd5b506103e76118e8565b604051808273ffffffffffffffffffffffffffffffffffffffff1673ffffffffffffffffffffffffffffffffffffffff16815260200191505060405180910390f35b34801561043557600080fd5b5061043e61190e565b005b34801561044c57600080fd5b50610455611b65565b005b34801561046357600080fd5b5061046c611c67565b604051808273ffffffffffffffffffffffffffffffffffffffff1673ffffffffffffffffffffffffffffffffffffffff16815260200191505060405180910390f35b3480156104ba57600080fd5b506104c3611c8d565b6040518082815260200191505060405180910390f35b3480156104e557600080fd5b506104ee611d58565b604051808273ffffffffffffffffffffffffffffffffffffffff1673ffffffffffffffffffffffffffffffffffffffff16815260200191505060405180910390f35b61056e600480360381019080803573ffffffffffffffffffffffffffffffffffffffff16906020019092919080359060200190929190505050611d7d565b005b34801561057c57600080fd5b506105b1600480360381019080803573ffffffffffffffffffffffffffffffffffffffff16906020019092919050505061207a565b60405180848152602001838152602001828152602001935050505060405180910390f35b3480156105e157600080fd5b506105ea6120a4565b604051808273ffffffffffffffffffffffffffffffffffffffff1673ffffffffffffffffffffffffffffffffffffffff16815260200191505060405180910390f35b34801561063857600080fd5b506106416120ca565b604051808215151515815260200191505060405180910390f35b34801561066757600080fd5b506106706125f1565b6040518082815260200191505060405180910390f35b34801561069257600080fd5b5061069b6125f7565b604051808460ff1660ff1681526020018360ff1660ff168152602001828152602001935050505060405180910390f35b3480156106d757600080fd5b5061070c600480360381019080803573ffffffffffffffffffffffffffffffffffffffff169060200190929190505050612d2d565b005b34801561071a57600080fd5b50610723612e08565b6040518082815260200191505060405180910390f35b34801561074557600080fd5b5061074e612e0e565b6040518082815260200191505060405180910390f35b34801561077057600080fd5b506107a5600480360381019080803573ffffffffffffffffffffffffffffffffffffffff169060200190929190505050612e14565b005b6000806000806000600860065401600a0a7fffffffffffffffffffffffffffffffffffffffffffffffffffffffffffffffff8115156107e257fe5b049350339250600086148061083957506000600760008573ffffffffffffffffffffffffffffffffffffffff1673ffffffffffffffffffffffffffffffffffffffff16815260200190815260200160002060000154145b8061085b575060003073ffffffffffffffffffffffffffffffffffffffff1631145b8061095c575085600560009054906101000a900473ffffffffffffffffffffffffffffffffffffffff1673ffffffffffffffffffffffffffffffffffffffff166370a08231856040518263ffffffff167c0100000000000000000000000000000000000000000000000000000000028152600401808273ffffffffffffffffffffffffffffffffffffffff1673ffffffffffffffffffffffffffffffffffffffff168152602001915050602060405180830381600087803b15801561091f57600080fd5b505af1158015610933573d6000803e3d6000fd5b505050506040513d602081101561094957600080fd5b8101908080519060200190929190505050105b806109a8575085600760008573ffffffffffffffffffffffffffffffffffffffff1673ffffffffffffffffffffffffffffffffffffffff16815260200190815260200160002060000154105b156109b257610aef565b610a323073ffffffffffffffffffffffffffffffffffffffff1631610a24600954600760008873ffffffffffffffffffffffffffffffffffffffff1673ffffffffffffffffffffffffffffffffffffffff16815260200190815260200160002060020154612e7b90919063ffffffff16565b612eb990919063ffffffff16565b915083821015610a4a57600860065401600a0a610a4d565b60015b9050610aec610add82610acf89610ac1600760008a73ffffffffffffffffffffffffffffffffffffffff1673ffffffffffffffffffffffffffffffffffffffff16815260200190815260200160002060000154610ab3888a612e7b90919063ffffffff16565b612eb990919063ffffffff16565b612e7b90919063ffffffff16565b612eb990919063ffffffff16565b86612ee390919063ffffffff16565b94505b50505050919050565b600560009054906101000a900473ffffffffffffffffffffffffffffffffffffffff1681565b600080600073ffffffffffffffffffffffffffffffffffffffff168373ffffffffffffffffffffffffffffffffffffffff1614151515610b5d57600080fd5b600760008473ffffffffffffffffffffffffffffffffffffffff1673ffffffffffffffffffffffffffffffffffffffff16815260200190815260200160002060000154600760008573ffffffffffffffffffffffffffffffffffffffff1673ffffffffffffffffffffffffffffffffffffffff1681526020019081526020016000206001015491509150915091565b600b60009054906101000a900460ff1681565b60086020528060005260406000206000915054906101000a900460ff1681565b6000809054906101000a900473ffffffffffffffffffffffffffffffffffffffff1673ffffffffffffffffffffffffffffffffffffffff163373ffffffffffffffffffffffffffffffffffffffff16141515610c7a57600080fd5b600073ffffffffffffffffffffffffffffffffffffffff168173ffffffffffffffffffffffffffffffffffffffff1614151515610cb657600080fd5b80600460006101000a81548173ffffffffffffffffffffffffffffffffffffffff021916908373ffffffffffffffffffffffffffffffffffffffff16021790555050565b6000806000600180600082825401925050819055506001549050339250610d1f6113ba565b1515610d2a57600080fd5b600084111515610d3957600080fd5b83600760008573ffffffffffffffffffffffffffffffffffffffff1673ffffffffffffffffffffffffffffffffffffffff1681526020019081526020016000206000015410151515610d8a57600080fd5b83600560009054906101000a900473ffffffffffffffffffffffffffffffffffffffff1673ffffffffffffffffffffffffffffffffffffffff166370a08231856040518263ffffffff167c0100000000000000000000000000000000000000000000000000000000028152600401808273ffffffffffffffffffffffffffffffffffffffff1673ffffffffffffffffffffffffffffffffffffffff168152602001915050602060405180830381600087803b158015610e4857600080fd5b505af1158015610e5c573d6000803e3d6000fd5b505050506040513d6020811015610e7257600080fd5b810190808051906020019092919050505010151515610e9057600080fd5b83600560009054906101000a900473ffffffffffffffffffffffffffffffffffffffff1673ffffffffffffffffffffffffffffffffffffffff1663dd62ed3e33306040518363ffffffff167c0100000000000000000000000000000000000000000000000000000000028152600401808373ffffffffffffffffffffffffffffffffffffffff1673ffffffffffffffffffffffffffffffffffffffff1681526020018273ffffffffffffffffffffffffffffffffffffffff1673ffffffffffffffffffffffffffffffffffffffff16815260200192505050602060405180830381600087803b158015610f8257600080fd5b505af1158015610f96573d6000803e3d6000fd5b505050506040513d6020811015610fac57600080fd5b810190808051906020019092919050505010151515610fca57600080fd5b610fd3846107a7565b9150600082111515610fe457600080fd5b600560009054906101000a900473ffffffffffffffffffffffffffffffffffffffff1673ffffffffffffffffffffffffffffffffffffffff166323b872dd84600360009054906101000a900473ffffffffffffffffffffffffffffffffffffffff16876040518463ffffffff167c0100000000000000000000000000000000000000000000000000000000028152600401808473ffffffffffffffffffffffffffffffffffffffff1673ffffffffffffffffffffffffffffffffffffffff1681526020018373ffffffffffffffffffffffffffffffffffffffff1673ffffffffffffffffffffffffffffffffffffffff1681526020018281526020019350505050602060405180830381600087803b1580156110ff57600080fd5b505af1158015611113573d6000803e3d6000fd5b505050506040513d602081101561112957600080fd5b8101908080519060200190929190505050151561114557600080fd5b61119a84600760008673ffffffffffffffffffffffffffffffffffffffff1673ffffffffffffffffffffffffffffffffffffffff16815260200190815260200160002060000154612f0490919063ffffffff16565b600760008573ffffffffffffffffffffffffffffffffffffffff1673ffffffffffffffffffffffffffffffffffffffff168152602001908152602001600020600001819055506112a061124f600654600a0a611241600760008873ffffffffffffffffffffffffffffffffffffffff1673ffffffffffffffffffffffffffffffffffffffff1681526020019081526020016000206001015488612e7b90919063ffffffff16565b612eb990919063ffffffff16565b600760008673ffffffffffffffffffffffffffffffffffffffff1673ffffffffffffffffffffffffffffffffffffffff16815260200190815260200160002060020154612f0490919063ffffffff16565b600760008573ffffffffffffffffffffffffffffffffffffffff1673ffffffffffffffffffffffffffffffffffffffff168152602001908152602001600020600201819055506112fb82600a54612ee390919063ffffffff16565b600a819055508273ffffffffffffffffffffffffffffffffffffffff166108fc839081150290604051600060405180830381858888f19350505050158015611347573d6000803e3d6000fd5b508273ffffffffffffffffffffffffffffffffffffffff167ffc48f4f163cfed28aaf3be3f0b162a1338fab214afc9340eafc6cb081c71fadf8386604051808381526020018281526020019250505060405180910390a2600154811415156113ae57600080fd5b50505050565b60065481565b6000806000806000600260009054906101000a900473ffffffffffffffffffffffffffffffffffffffff1673ffffffffffffffffffffffffffffffffffffffff1663d6d65f3d6040518163ffffffff167c01000000000000000000000000000000000000000000000000000000000281526004016040805180830381600087803b15801561144757600080fd5b505af115801561145b573d6000803e3d6000fd5b505050506040513d604081101561147157600080fd5b81019080805190602001909291908051906020019092919050505093509350600084141561149e5761165d565b600260009054906101000a900473ffffffffffffffffffffffffffffffffffffffff1673ffffffffffffffffffffffffffffffffffffffff16632442e1cb856040518263ffffffff167c010000000000000000000000000000000000000000000000000000000002815260040180828152602001915050600060405180830381600087803b15801561152f57600080fd5b505af1158015611543573d6000803e3d6000fd5b505050506040513d6000823e3d601f19601f8201168201806040525060c081101561156d57600080fd5b810190808051906020019092919080519060200190929190805190602001909291908051906020019092919080516401000000008111156115ad57600080fd5b828101905060208101848111156115c357600080fd5b81518560018202830111640100000000821117156115e057600080fd5b505092919060200180516401000000008111156115fc57600080fd5b8281019050602081018481111561161257600080fd5b815185600182028301116401000000008211171561162f57600080fd5b50509291905050505050935050509150428263ffffffff161115801561165a57508063ffffffff1642105b94505b5050505090565b6000809054906101000a900473ffffffffffffffffffffffffffffffffffffffff1673ffffffffffffffffffffffffffffffffffffffff163373ffffffffffffffffffffffffffffffffffffffff161415156116bf57600080fd5b600073ffffffffffffffffffffffffffffffffffffffff168173ffffffffffffffffffffffffffffffffffffffff16141515156116fb57600080fd5b80600260006101000a81548173ffffffffffffffffffffffffffffffffffffffff021916908373ffffffffffffffffffffffffffffffffffffffff1602179055508073ffffffffffffffffffffffffffffffffffffffff16634090cb646040518163ffffffff167c0100000000000000000000000000000000000000000000000000000000028152600401602060405180830381600087803b1580156117a057600080fd5b505af11580156117b4573d6000803e3d6000fd5b505050506040513d60208110156117ca57600080fd5b8101908080519060200190929190505050600560006101000a81548173ffffffffffffffffffffffffffffffffffffffff021916908373ffffffffffffffffffffffffffffffffffffffff160217905550600560009054906101000a900473ffffffffffffffffffffffffffffffffffffffff1673ffffffffffffffffffffffffffffffffffffffff1663313ce5676040518163ffffffff167c0100000000000000000000000000000000000000000000000000000000028152600401602060405180830381600087803b1580156118a157600080fd5b505af11580156118b5573d6000803e3d6000fd5b505050506040513d60208110156118cb57600080fd5b810190808051906020019092919050505060ff1660068190555050565b600460009054906101000a900473ffffffffffffffffffffffffffffffffffffffff1681565b6000806000806000809054906101000a900473ffffffffffffffffffffffffffffffffffffffff1673ffffffffffffffffffffffffffffffffffffffff163373ffffffffffffffffffffffffffffffffffffffff1614151561196f57600080fd5b600060018060008282540192505081905550600154905061198e6120ca565b151561199957600080fd5b6119a1611c8d565b94506119ab6125f7565b94505093506000851115156119bf57600080fd5b60016008600085815260200190815260200160002060006101000a81548160ff0219169083151502179055506000600c541115611a8c57611a0b600c5486612f2590919063ffffffff16565b9150600460009054906101000a900473ffffffffffffffffffffffffffffffffffffffff1673ffffffffffffffffffffffffffffffffffffffff166108fc839081150290604051600060405180830381858888f19350505050158015611a75573d6000803e3d6000fd5b50611a898286612f0490919063ffffffff16565b94505b3373ffffffffffffffffffffffffffffffffffffffff166108fc869081150290604051600060405180830381858888f19350505050158015611ad2573d6000803e3d6000fd5b5083600b60008282829054906101000a900460ff160192506101000a81548160ff021916908360ff1602179055503373ffffffffffffffffffffffffffffffffffffffff167f4a966617f50ccad97beb624d8e13820bf2a745e1640fed943858499286fc9829866040518082815260200191505060405180910390a260015481141515611b5e57600080fd5b5050505050565b6000809054906101000a900473ffffffffffffffffffffffffffffffffffffffff1673ffffffffffffffffffffffffffffffffffffffff163373ffffffffffffffffffffffffffffffffffffffff16141515611bc057600080fd5b6000809054906101000a900473ffffffffffffffffffffffffffffffffffffffff1673ffffffffffffffffffffffffffffffffffffffff167ff8df31144d9c2f0f6b59d69b8b98abd5459d07f2742c4df920b25aae33c6482060405160405180910390a260008060006101000a81548173ffffffffffffffffffffffffffffffffffffffff021916908373ffffffffffffffffffffffffffffffffffffffff160217905550565b600360009054906101000a900473ffffffffffffffffffffffffffffffffffffffff1681565b6000806000806000611c9d6125f7565b509350935060008460ff16148015611cb8575060008360ff16145b80611cda575060003073ffffffffffffffffffffffffffffffffffffffff1631145b15611ce457611d51565b611cfb600a54600954612f0490919063ffffffff16565b9150600b60009054906101000a900460ff16838501039050611d4e611d3f6064611d318460ff1686612e7b90919063ffffffff16565b612eb990919063ffffffff16565b86612ee390919063ffffffff16565b94505b5050505090565b6000809054906101000a900473ffffffffffffffffffffffffffffffffffffffff1681565b600260009054906101000a900473ffffffffffffffffffffffffffffffffffffffff168073ffffffffffffffffffffffffffffffffffffffff163373ffffffffffffffffffffffffffffffffffffffff16141515611dda57600080fd5b611e2f82600760008673ffffffffffffffffffffffffffffffffffffffff1673ffffffffffffffffffffffffffffffffffffffff16815260200190815260200160002060000154612ee390919063ffffffff16565b600760008573ffffffffffffffffffffffffffffffffffffffff1673ffffffffffffffffffffffffffffffffffffffff16815260200190815260200160002060000181905550611eca34600760008673ffffffffffffffffffffffffffffffffffffffff1673ffffffffffffffffffffffffffffffffffffffff16815260200190815260200160002060020154612ee390919063ffffffff16565b600760008573ffffffffffffffffffffffffffffffffffffffff1673ffffffffffffffffffffffffffffffffffffffff16815260200190815260200160002060020181905550611fbe600760008573ffffffffffffffffffffffffffffffffffffffff1673ffffffffffffffffffffffffffffffffffffffff16815260200190815260200160002060000154611fb0600654600a0a600760008873ffffffffffffffffffffffffffffffffffffffff1673ffffffffffffffffffffffffffffffffffffffff16815260200190815260200160002060020154612e7b90919063ffffffff16565b612eb990919063ffffffff16565b600760008573ffffffffffffffffffffffffffffffffffffffff1673ffffffffffffffffffffffffffffffffffffffff1681526020019081526020016000206001018190555061201934600954612ee390919063ffffffff16565b6009819055508273ffffffffffffffffffffffffffffffffffffffff167f363f315f930a17d1266b86a20d6dd34b1cfbc5a9db9f13a65d06a689c3a2af8a3484604051808381526020018281526020019250505060405180910390a2505050565b60076020528060005260406000206000915090508060000154908060010154908060020154905083565b600260009054906101000a900473ffffffffffffffffffffffffffffffffffffffff1681565b600080600080600080600260009054906101000a900473ffffffffffffffffffffffffffffffffffffffff1673ffffffffffffffffffffffffffffffffffffffff1663d6d65f3d6040518163ffffffff167c01000000000000000000000000000000000000000000000000000000000281526004016040805180830381600087803b15801561215857600080fd5b505af115801561216c573d6000803e3d6000fd5b505050506040513d604081101561218257600080fd5b81019080805190602001909291908051906020019092919050505094509450600260009054906101000a900473ffffffffffffffffffffffffffffffffffffffff1673ffffffffffffffffffffffffffffffffffffffff166314f66d346040518163ffffffff167c01000000000000000000000000000000000000000000000000000000000281526004016040805180830381600087803b15801561222657600080fd5b505af115801561223a573d6000803e3d6000fd5b505050506040513d604081101561225057600080fd5b81019080805190602001909291908051906020019092919050505050925083151561227a576125e9565b600085141561228c57600195506125e9565b600260009054906101000a900473ffffffffffffffffffffffffffffffffffffffff1673ffffffffffffffffffffffffffffffffffffffff16632442e1cb866040518263ffffffff167c010000000000000000000000000000000000000000000000000000000002815260040180828152602001915050600060405180830381600087803b15801561231d57600080fd5b505af1158015612331573d6000803e3d6000fd5b505050506040513d6000823e3d601f19601f8201168201806040525060c081101561235b57600080fd5b8101908080519060200190929190805190602001909291908051906020019092919080519060200190929190805164010000000081111561239b57600080fd5b828101905060208101848111156123b157600080fd5b81518560018202830111640100000000821117156123ce57600080fd5b505092919060200180516401000000008111156123ea57600080fd5b8281019050602081018481111561240057600080fd5b815185600182028301116401000000008211171561241d57600080fd5b505092919050505050505050509150600260009054906101000a900473ffffffffffffffffffffffffffffffffffffffff1673ffffffffffffffffffffffffffffffffffffffff16632442e1cb846040518263ffffffff167c010000000000000000000000000000000000000000000000000000000002815260040180828152602001915050600060405180830381600087803b1580156124bd57600080fd5b505af11580156124d1573d6000803e3d6000fd5b505050506040513d6000823e3d601f19601f8201168201806040525060c08110156124fb57600080fd5b8101908080519060200190929190805190602001909291908051906020019092919080519060200190929190805164010000000081111561253b57600080fd5b8281019050602081018481111561255157600080fd5b815185600182028301116401000000008211171561256e57600080fd5b5050929190602001805164010000000081111561258a57600080fd5b828101905060208101848111156125a057600080fd5b81518560018202830111640100000000821117156125bd57600080fd5b505092919050505050509350505050428263ffffffff1611806125e65750428163ffffffff1611155b95505b505050505090565b600c5481565b600080600080600080600080600080600080600260009054906101000a900473ffffffffffffffffffffffffffffffffffffffff1673ffffffffffffffffffffffffffffffffffffffff1663d6d65f3d6040518163ffffffff167c01000000000000000000000000000000000000000000000000000000000281526004016040805180830381600087803b15801561268e57600080fd5b505af11580156126a2573d6000803e3d6000fd5b505050506040513d60408110156126b857600080fd5b81019080805190602001909291908051906020019092919050505098509850600260009054906101000a900473ffffffffffffffffffffffffffffffffffffffff1673ffffffffffffffffffffffffffffffffffffffff166314f66d346040518163ffffffff167c01000000000000000000000000000000000000000000000000000000000281526004016040805180830381600087803b15801561275c57600080fd5b505af1158015612770573d6000803e3d6000fd5b505050506040513d604081101561278657600080fd5b810190808051906020019092919080519060200190929190505050509650600260009054906101000a900473ffffffffffffffffffffffffffffffffffffffff1673ffffffffffffffffffffffffffffffffffffffff16632442e1cb886040518263ffffffff167c010000000000000000000000000000000000000000000000000000000002815260040180828152602001915050600060405180830381600087803b15801561283557600080fd5b505af1158015612849573d6000803e3d6000fd5b505050506040513d6000823e3d601f19601f8201168201806040525060c081101561287357600080fd5b810190808051906020019092919080519060200190929190805190602001909291908051906020019092919080516401000000008111156128b357600080fd5b828101905060208101848111156128c957600080fd5b81518560018202830111640100000000821117156128e657600080fd5b5050929190602001805164010000000081111561290257600080fd5b8281019050602081018481111561291857600080fd5b815185600182028301116401000000008211171561293557600080fd5b50509291905050505050985050505087158061295657506129546120ca565b155b1561296057612d1f565b600089148061297557508563ffffffff164210155b6129825760018903612984565b885b9850600260009054906101000a900473ffffffffffffffffffffffffffffffffffffffff1673ffffffffffffffffffffffffffffffffffffffff16632442e1cb8a6040518263ffffffff167c010000000000000000000000000000000000000000000000000000000002815260040180828152602001915050600060405180830381600087803b158015612a1757600080fd5b505af1158015612a2b573d6000803e3d6000fd5b505050506040513d6000823e3d601f19601f8201168201806040525060c0811015612a5557600080fd5b81019080805190602001909291908051906020019092919080519060200190929190805190602001909291908051640100000000811115612a9557600080fd5b82810190506020810184811115612aab57600080fd5b8151856001820283011164010000000082111715612ac857600080fd5b50509291906020018051640100000000811115612ae457600080fd5b82810190506020810184811115612afa57600080fd5b8151856001820283011164010000000082111715612b1757600080fd5b50509291905050505050965050955050600860008a815260200190815260200160002060009054906101000a900460ff1692508215612b5557612d1f565b8891505b6000821115612d1557818060019003925050600260009054906101000a900473ffffffffffffffffffffffffffffffffffffffff1673ffffffffffffffffffffffffffffffffffffffff16632442e1cb836040518263ffffffff167c010000000000000000000000000000000000000000000000000000000002815260040180828152602001915050600060405180830381600087803b158015612bfc57600080fd5b505af1158015612c10573d6000803e3d6000fd5b505050506040513d6000823e3d601f19601f8201168201806040525060c0811015612c3a57600080fd5b81019080805190602001909291908051906020019092919080519060200190929190805190602001909291908051640100000000811115612c7a57600080fd5b82810190506020810184811115612c9057600080fd5b8151856001820283011164010000000082111715612cad57600080fd5b50509291906020018051640100000000811115612cc957600080fd5b82810190506020810184811115612cdf57600080fd5b8151856001820283011164010000000082111715612cfc57600080fd5b505092919050505050505050915050808b019a50612b59565b848b8a9b509b509b505b505050505050505050909192565b6000809054906101000a900473ffffffffffffffffffffffffffffffffffffffff1673ffffffffffffffffffffffffffffffffffffffff163373ffffffffffffffffffffffffffffffffffffffff16141515612d8857600080fd5b600073ffffffffffffffffffffffffffffffffffffffff168173ffffffffffffffffffffffffffffffffffffffff1614151515612dc457600080fd5b80600360006101000a81548173ffffffffffffffffffffffffffffffffffffffff021916908373ffffffffffffffffffffffffffffffffffffffff16021790555050565b60095481565b600a5481565b6000809054906101000a900473ffffffffffffffffffffffffffffffffffffffff1673ffffffffffffffffffffffffffffffffffffffff163373ffffffffffffffffffffffffffffffffffffffff16141515612e6f57600080fd5b612e7881612f6a565b50565b6000806000841415612e905760009150612eb2565b8284029050828482811515612ea157fe5b04141515612eae57600080fd5b8091505b5092915050565b600080600083111515612ecb57600080fd5b8284811515612ed657fe5b0490508091505092915050565b6000808284019050838110151515612efa57600080fd5b8091505092915050565b600080838311151515612f1657600080fd5b82840390508091505092915050565b6000612f3082613064565b1515612f3b57600080fd5b612f62612710612f548486612e7b90919063ffffffff16565b612eb990919063ffffffff16565b905092915050565b600073ffffffffffffffffffffffffffffffffffffffff168173ffffffffffffffffffffffffffffffffffffffff1614151515612fa657600080fd5b8073ffffffffffffffffffffffffffffffffffffffff166000809054906101000a900473ffffffffffffffffffffffffffffffffffffffff1673ffffffffffffffffffffffffffffffffffffffff167f8be0079c531659141344cd1fd0a4f28419497f9722a3daafe3b4186f6b6457e060405160405180910390a3806000806101000a81548173ffffffffffffffffffffffffffffffffffffffff021916908373ffffffffffffffffffffffffffffffffffffffff16021790555050565b600080821015801561307857506127108211155b9050919050565b600061308a82613064565b151561309557600080fd5b6130a9606483612eb990919063ffffffff16565b90509190505600a165627a7a72305820e9a6c39c0cce04c7582bac63ec0f19e9d329ec119cb18579a6bf9a3fcdbcf2630029",
  "source": "pragma solidity ^0.4.24;\n\nimport \"../openzeppelin-solidity/contracts/ownership/Ownable.sol\";\nimport \"../openzeppelin-solidity/contracts/ReentrancyGuard.sol\";\nimport \"../openzeppelin-solidity/contracts/math/SafeMath.sol\";\nimport \"./WToken.sol\";\nimport \"./interfaces/IW12Crowdsale.sol\";\nimport \"./interfaces/IW12Fund.sol\";\nimport \"./libs/Percent.sol\";\n\n\ncontract W12Fund is IW12Fund, Ownable, ReentrancyGuard {\n    using SafeMath for uint;\n    using Percent for uint;\n\n    IW12Crowdsale public crowdsale;\n    address public swap;\n    address public serviceWallet;\n    WToken public wToken;\n    uint public tokenDecimals; // TODO: refactor this\n    mapping (address=>TokenPriceInfo) public buyers;\n    mapping (uint => bool) public completedTranches; // TODO: refactor this\n    uint public totalFunded;\n    uint public totalRefunded;\n    uint8 public totalTranchePercentReleased;\n    uint public trancheFeePercent;\n\n    struct TokenPriceInfo {\n        uint totalBought;\n        uint averagePrice;\n        uint totalFunded;\n    }\n\n    event FundsReceived(address indexed buyer, uint weiAmount, uint tokenAmount);\n    event FundsRefunded(address indexed buyer, uint weiAmount, uint tokenAmount);\n    event TrancheReleased(address indexed receiver, uint amount);\n\n    constructor(uint _trancheFeePercent) public {\n        require(_trancheFeePercent.isPercent() && _trancheFeePercent.fromPercent() < 100);\n\n        trancheFeePercent = _trancheFeePercent;\n    }\n\n    function setCrowdsale(IW12Crowdsale _crowdsale) onlyOwner external {\n        require(_crowdsale != address(0));\n\n        crowdsale = _crowdsale;\n        wToken = _crowdsale.getWToken();\n        tokenDecimals = wToken.decimals();\n    }\n\n    function setSwap(address _swap) onlyOwner external {\n        require(_swap != address(0));\n\n        swap = _swap;\n    }\n\n    function setServiceWallet(address _serviceWallet) onlyOwner external {\n        require(_serviceWallet != address(0));\n\n        serviceWallet = _serviceWallet;\n    }\n\n    function recordPurchase(address buyer, uint tokenAmount) external payable onlyFrom(crowdsale) {\n        buyers[buyer].totalBought = buyers[buyer].totalBought.add(tokenAmount);\n        buyers[buyer].totalFunded = buyers[buyer].totalFunded.add(msg.value);\n        buyers[buyer].averagePrice = (buyers[buyer].totalFunded.mul(10 ** tokenDecimals)).div(buyers[buyer].totalBought);\n\n        totalFunded = totalFunded.add(msg.value);\n\n        emit FundsReceived(buyer, msg.value, tokenAmount);\n    }\n\n    function getInvestmentsInfo(address buyer) external view returns (uint totalTokensBought, uint averageTokenPrice) {\n        require(buyer != address(0));\n\n        return (buyers[buyer].totalBought, buyers[buyer].averagePrice);\n    }\n\n    /**\n        calculation parameters:\n\n            a = address(this).balance\n            b = totalFunded\n            c = buyers[buyer].totalFunded\n            d = buyers[buyer].totalBought\n            e = wtokensToRefund\n\n        formula:\n            ( ( c * (a / b) ) / d ) * e = (refund amount)\n\n        adapted:\n            1. c * b / a = A_1\n            2. A_1 * 10 ** 8 / d * e / 10 ** 8\n    */\n    function getRefundAmount(uint wtokensToRefund) public view returns (uint result) {\n        uint max = uint(-1) / 10 ** (tokenDecimals + 8);\n        address buyer = msg.sender;\n\n        if(wtokensToRefund == 0\n            || buyers[buyer].totalBought == 0\n            || address(this).balance == 0\n            || wToken.balanceOf(buyer) < wtokensToRefund\n            || buyers[buyer].totalBought < wtokensToRefund\n        ) return;\n\n        uint allowedFund = buyers[buyer].totalFunded.mul(totalFunded).div(address(this).balance);\n        uint precisionComponent = allowedFund >= max ? 1 : 10 ** (tokenDecimals + 8);\n\n        result = result.add(\n            allowedFund\n                .mul(precisionComponent)\n                .div(buyers[buyer].totalBought)\n                .mul(wtokensToRefund)\n                .div(precisionComponent)\n        );\n    }\n\n    function getTrancheAmount() public view returns (uint result) {\n        (uint8 tranchePercent, uint8 totalTranchePercentBefore, ) = getTrancheParameters();\n\n        if (\n            tranchePercent == 0 && totalTranchePercentBefore == 0\n            || address(this).balance == 0\n        ) return;\n\n        uint allowedFund = totalFunded.sub(totalRefunded);\n        uint8 trancheToRelease = tranchePercent + totalTranchePercentBefore - totalTranchePercentReleased;\n\n        result = result.add(\n            allowedFund\n            .mul(trancheToRelease)\n            .div(100)\n        );\n    }\n\n    function getTrancheParameters() public view returns (uint8, uint8 totalTranchePercentBefore, uint) {\n        (uint index, bool found) = crowdsale.getCurrentMilestoneIndex();\n        (uint lastIndex, ) = crowdsale.getLastMilestoneIndex();\n        (,,, uint32 lastWithdrawalWindow,,) = crowdsale.getMilestone(lastIndex);\n\n        if (!found || !trancheTransferAllowed()) return;\n\n        // get percent from prev milestone\n        index = index == 0 || now >= lastWithdrawalWindow ? index : index - 1;\n\n        ( , uint8 tranchePercent, , uint32 withdrawalWindow, , ) = crowdsale.getMilestone(index);\n\n        bool completed = completedTranches[index];\n\n        if (completed) return;\n\n        uint dIndex = index;\n\n        while (dIndex > 0) {\n            dIndex--;\n\n            (, uint8 _tranchePercent, , , , ) = crowdsale.getMilestone(dIndex);\n\n            totalTranchePercentBefore += _tranchePercent;\n        }\n\n        return (\n            tranchePercent,\n            // it will helps to calculate tranche\n            totalTranchePercentBefore,\n            index\n        );\n    }\n\n    function tranche() external onlyOwner nonReentrant {\n        require(trancheTransferAllowed());\n\n        uint trancheAmount = getTrancheAmount();\n        (uint8 tranchePercent, ,uint milestoneIndex) = getTrancheParameters();\n\n        require(trancheAmount > 0);\n\n        completedTranches[milestoneIndex] = true;\n\n        if (trancheFeePercent > 0) {\n            uint fee = trancheAmount.percent(trancheFeePercent);\n\n            serviceWallet.transfer(fee);\n\n            trancheAmount = trancheAmount.sub(fee);\n        }\n\n        msg.sender.transfer(trancheAmount);\n\n        totalTranchePercentReleased += tranchePercent;\n\n        emit TrancheReleased(msg.sender, trancheAmount);\n    }\n\n    function refund(uint wtokensToRefund) external nonReentrant {\n        address buyer = msg.sender;\n\n        require(refundAllowed());\n        require(wtokensToRefund > 0);\n        require(buyers[buyer].totalBought >= wtokensToRefund);\n        require(wToken.balanceOf(buyer) >= wtokensToRefund);\n        require(wToken.allowance(msg.sender, address(this)) >= wtokensToRefund);\n\n        uint transferAmount = getRefundAmount(wtokensToRefund);\n\n        require(transferAmount > 0);\n        require(wToken.transferFrom(buyer, swap, wtokensToRefund));\n\n        buyers[buyer].totalBought = buyers[buyer].totalBought\n            .sub(wtokensToRefund);\n        buyers[buyer].totalFunded = buyers[buyer].totalFunded\n            .sub(wtokensToRefund.mul(buyers[buyer].averagePrice).div(10 ** tokenDecimals));\n\n        // update total refunded amount counter\n        totalRefunded = totalRefunded.add(transferAmount);\n\n        buyer.transfer(transferAmount);\n\n        emit FundsRefunded(buyer, transferAmount, wtokensToRefund);\n    }\n\n    function refundAllowed() public view returns (bool) {\n        (uint index, bool found) = crowdsale.getCurrentMilestoneIndex();\n\n        // first milestone is reserved for the project to claim initial amount of payments. No refund allowed at this stage.\n        if(index == 0) return;\n\n        (uint32 endDate, , , uint32 withdrawalWindow, , ) = crowdsale.getMilestone(index);\n\n        return endDate <= now && now < withdrawalWindow;\n    }\n\n    function trancheTransferAllowed() public view returns (bool) {\n        (uint index, bool found) = crowdsale.getCurrentMilestoneIndex();\n        (uint lastIndex, ) = crowdsale.getLastMilestoneIndex();\n\n        if(!found) return;\n        if(index == 0) return true;\n\n        (uint32 endDate, , , , , ) = crowdsale.getMilestone(index);\n        (, , ,uint32 lastWithdrawalWindow, , ) = crowdsale.getMilestone(lastIndex);\n\n        return endDate > now || lastWithdrawalWindow <= now;\n    }\n\n    modifier onlyFrom(address sender) {\n        require(msg.sender == sender);\n\n        _;\n    }\n}\n",
  "sourcePath": "/home/andrey/Code/w12/platform-contracts/contracts/W12Fund.sol",
  "compiler": {
    "name": "solc",
    "version": "0.4.24+commit.e67f0147.Emscripten.clang"
  },
  "schemaVersion": "2.0.1",
  "updatedAt": "2018-09-12T06:57:34.469Z"
}