{
  "contractName": "W12FundStub",
  "abi": [
    {
      "constant": true,
      "inputs": [
        {
          "name": "wtokensToRefund",
          "type": "uint256"
        }
      ],
      "name": "getRefundAmount",
      "outputs": [
        {
          "name": "result",
          "type": "uint256"
        }
      ],
      "payable": false,
      "stateMutability": "view",
      "type": "function"
    },
    {
      "constant": true,
      "inputs": [],
      "name": "wToken",
      "outputs": [
        {
          "name": "",
          "type": "address"
        }
      ],
      "payable": false,
      "stateMutability": "view",
      "type": "function"
    },
    {
      "constant": true,
      "inputs": [
        {
          "name": "buyer",
          "type": "address"
        }
      ],
      "name": "getInvestmentsInfo",
      "outputs": [
        {
          "name": "totalTokensBought",
          "type": "uint256"
        },
        {
          "name": "averageTokenPrice",
          "type": "uint256"
        }
      ],
      "payable": false,
      "stateMutability": "view",
      "type": "function"
    },
    {
      "constant": false,
      "inputs": [
        {
          "name": "wtokensToRefund",
          "type": "uint256"
        }
      ],
      "name": "refund",
      "outputs": [],
      "payable": false,
      "stateMutability": "nonpayable",
      "type": "function"
    },
    {
      "constant": true,
      "inputs": [],
      "name": "tokenDecimals",
      "outputs": [
        {
          "name": "",
          "type": "uint256"
        }
      ],
      "payable": false,
      "stateMutability": "view",
      "type": "function"
    },
    {
      "constant": true,
      "inputs": [],
      "name": "refundAllowed",
      "outputs": [
        {
          "name": "",
          "type": "bool"
        }
      ],
      "payable": false,
      "stateMutability": "view",
      "type": "function"
    },
    {
      "constant": false,
      "inputs": [
        {
          "name": "_crowdsale",
          "type": "address"
        }
      ],
      "name": "setCrowdsale",
      "outputs": [],
      "payable": false,
      "stateMutability": "nonpayable",
      "type": "function"
    },
    {
      "constant": false,
      "inputs": [],
      "name": "tranche",
      "outputs": [],
      "payable": false,
      "stateMutability": "nonpayable",
      "type": "function"
    },
    {
      "constant": false,
      "inputs": [],
      "name": "renounceOwnership",
      "outputs": [],
      "payable": false,
      "stateMutability": "nonpayable",
      "type": "function"
    },
    {
      "constant": true,
      "inputs": [],
      "name": "swap",
      "outputs": [
        {
          "name": "",
          "type": "address"
        }
      ],
      "payable": false,
      "stateMutability": "view",
      "type": "function"
    },
    {
      "constant": true,
      "inputs": [],
      "name": "getTrancheAmount",
      "outputs": [
        {
          "name": "",
          "type": "uint256"
        }
      ],
      "payable": false,
      "stateMutability": "view",
      "type": "function"
    },
    {
      "constant": true,
      "inputs": [],
      "name": "owner",
      "outputs": [
        {
          "name": "",
          "type": "address"
        }
      ],
      "payable": false,
      "stateMutability": "view",
      "type": "function"
    },
    {
      "constant": false,
      "inputs": [
        {
          "name": "buyer",
          "type": "address"
        },
        {
          "name": "tokenAmount",
          "type": "uint256"
        }
      ],
      "name": "recordPurchase",
      "outputs": [],
      "payable": true,
      "stateMutability": "payable",
      "type": "function"
    },
    {
      "constant": true,
      "inputs": [
        {
          "name": "",
          "type": "address"
        }
      ],
      "name": "buyers",
      "outputs": [
        {
          "name": "totalBought",
          "type": "uint256"
        },
        {
          "name": "averagePrice",
          "type": "uint256"
        },
        {
          "name": "totalFunded",
          "type": "uint256"
        }
      ],
      "payable": false,
      "stateMutability": "view",
      "type": "function"
    },
    {
      "constant": true,
      "inputs": [],
      "name": "crowdsale",
      "outputs": [
        {
          "name": "",
          "type": "address"
        }
      ],
      "payable": false,
      "stateMutability": "view",
      "type": "function"
    },
    {
      "constant": true,
      "inputs": [],
      "name": "trancheTransferAllowed",
      "outputs": [
        {
          "name": "",
          "type": "bool"
        }
      ],
      "payable": false,
      "stateMutability": "view",
      "type": "function"
    },
    {
      "constant": true,
      "inputs": [],
      "name": "getTrancheParameters",
      "outputs": [
        {
          "name": "",
          "type": "uint8"
        },
        {
          "name": "",
          "type": "uint32"
        },
        {
          "name": "",
          "type": "uint32"
        }
      ],
      "payable": false,
      "stateMutability": "view",
      "type": "function"
    },
    {
      "constant": false,
      "inputs": [
        {
          "name": "_swap",
          "type": "address"
        }
      ],
      "name": "setSwap",
      "outputs": [],
      "payable": false,
      "stateMutability": "nonpayable",
      "type": "function"
    },
    {
      "constant": true,
      "inputs": [],
      "name": "totalFunded",
      "outputs": [
        {
          "name": "",
          "type": "uint256"
        }
      ],
      "payable": false,
      "stateMutability": "view",
      "type": "function"
    },
    {
      "constant": true,
      "inputs": [],
      "name": "totalRefunded",
      "outputs": [
        {
          "name": "",
          "type": "uint256"
        }
      ],
      "payable": false,
      "stateMutability": "view",
      "type": "function"
    },
    {
      "constant": true,
      "inputs": [
        {
          "name": "",
          "type": "uint32"
        }
      ],
      "name": "completedTranches",
      "outputs": [
        {
          "name": "",
          "type": "bool"
        }
      ],
      "payable": false,
      "stateMutability": "view",
      "type": "function"
    },
    {
      "constant": false,
      "inputs": [
        {
          "name": "newOwner",
          "type": "address"
        }
      ],
      "name": "transferOwnership",
      "outputs": [],
      "payable": false,
      "stateMutability": "nonpayable",
      "type": "function"
    },
    {
      "inputs": [
        {
          "name": "crowdsaleAddress",
          "type": "address"
        },
        {
          "name": "swapAddress",
          "type": "address"
        },
        {
          "name": "wTokenAddress",
          "type": "address"
        }
      ],
      "payable": false,
      "stateMutability": "nonpayable",
      "type": "constructor"
    },
    {
      "anonymous": false,
      "inputs": [
        {
          "indexed": true,
          "name": "buyer",
          "type": "address"
        },
        {
          "indexed": false,
          "name": "weiAmount",
          "type": "uint256"
        },
        {
          "indexed": false,
          "name": "tokenAmount",
          "type": "uint256"
        }
      ],
      "name": "FundsReceived",
      "type": "event"
    },
    {
      "anonymous": false,
      "inputs": [
        {
          "indexed": true,
          "name": "buyer",
          "type": "address"
        },
        {
          "indexed": false,
          "name": "weiAmount",
          "type": "uint256"
        },
        {
          "indexed": false,
          "name": "tokenAmount",
          "type": "uint256"
        }
      ],
      "name": "FundsRefunded",
      "type": "event"
    },
    {
      "anonymous": false,
      "inputs": [
        {
          "indexed": true,
          "name": "receiver",
          "type": "address"
        },
        {
          "indexed": false,
          "name": "amount",
          "type": "uint256"
        }
      ],
      "name": "TrancheOperation",
      "type": "event"
    },
    {
      "anonymous": false,
      "inputs": [
        {
          "indexed": true,
          "name": "previousOwner",
          "type": "address"
        }
      ],
      "name": "OwnershipRenounced",
      "type": "event"
    },
    {
      "anonymous": false,
      "inputs": [
        {
          "indexed": true,
          "name": "previousOwner",
          "type": "address"
        },
        {
          "indexed": true,
          "name": "newOwner",
          "type": "address"
        }
      ],
      "name": "OwnershipTransferred",
      "type": "event"
    },
    {
      "constant": false,
      "inputs": [
        {
          "name": "amount",
          "type": "uint256"
        }
      ],
      "name": "_setTotalFunded",
      "outputs": [],
      "payable": false,
      "stateMutability": "nonpayable",
      "type": "function"
    },
    {
      "constant": false,
      "inputs": [
        {
          "name": "amount",
          "type": "uint256"
        }
      ],
      "name": "_setTotalRefunded",
      "outputs": [],
      "payable": false,
      "stateMutability": "nonpayable",
      "type": "function"
    }
  ],
  "bytecode": "0x608060405260008060146101000a81548160ff02191690831515021790555034801561002a57600080fd5b50604051606080612b64833981018060405281019080805190602001909291908051906020019092919080519060200190929190505050336000806101000a81548173ffffffffffffffffffffffffffffffffffffffff021916908373ffffffffffffffffffffffffffffffffffffffff16021790555082600160006101000a81548173ffffffffffffffffffffffffffffffffffffffff021916908373ffffffffffffffffffffffffffffffffffffffff16021790555081600260006101000a81548173ffffffffffffffffffffffffffffffffffffffff021916908373ffffffffffffffffffffffffffffffffffffffff16021790555080600360006101000a81548173ffffffffffffffffffffffffffffffffffffffff021916908373ffffffffffffffffffffffffffffffffffffffff160217905550600360009054906101000a900473ffffffffffffffffffffffffffffffffffffffff1673ffffffffffffffffffffffffffffffffffffffff1663313ce5676040518163ffffffff167c0100000000000000000000000000000000000000000000000000000000028152600401602060405180830381600087803b1580156101ea57600080fd5b505af11580156101fe573d6000803e3d6000fd5b505050506040513d602081101561021457600080fd5b810190808051906020019092919050505060ff16600481905550505050612924806102406000396000f30060806040526004361061013e576000357c0100000000000000000000000000000000000000000000000000000000900463ffffffff16806304cd5294146101435780630babd8641461018457806311fa7da2146101db578063278ecde1146102395780633b97e856146102665780633fa911ae14610291578063483a20b2146102c05780636ebc0af114610303578063715018a61461031a578063774dfa4e146103315780638119c0651461035e5780638ce2bc2a146103b55780638da5cb5b146103e0578063958799cb1461043757806397a993aa146104775780639c1e03a0146104dc5780639e80baac14610533578063a5db096a14610562578063ac2a2a341461058f578063acb3c073146105e6578063ad044f4914610629578063d908296214610654578063e80b68df1461067f578063f2fde38b146106ca575b600080fd5b34801561014f57600080fd5b5061016e6004803603810190808035906020019092919050505061070d565b6040518082815260200191505060405180910390f35b34801561019057600080fd5b50610199610a83565b604051808273ffffffffffffffffffffffffffffffffffffffff1673ffffffffffffffffffffffffffffffffffffffff16815260200191505060405180910390f35b3480156101e757600080fd5b5061021c600480360381019080803573ffffffffffffffffffffffffffffffffffffffff169060200190929190505050610aa9565b604051808381526020018281526020019250505060405180910390f35b34801561024557600080fd5b5061026460048036038101908080359060200190929190505050610b77565b005b34801561027257600080fd5b5061027b61125a565b6040518082815260200191505060405180910390f35b34801561029d57600080fd5b506102a6611260565b604051808215151515815260200191505060405180910390f35b3480156102cc57600080fd5b50610301600480360381019080803573ffffffffffffffffffffffffffffffffffffffff169060200190929190505050611503565b005b34801561030f57600080fd5b50610318611787565b005b34801561032657600080fd5b5061032f61193f565b005b34801561033d57600080fd5b5061035c60048036038101908080359060200190929190505050611a41565b005b34801561036a57600080fd5b50610373611a4b565b604051808273ffffffffffffffffffffffffffffffffffffffff1673ffffffffffffffffffffffffffffffffffffffff16815260200191505060405180910390f35b3480156103c157600080fd5b506103ca611a71565b6040518082815260200191505060405180910390f35b3480156103ec57600080fd5b506103f5611b8d565b604051808273ffffffffffffffffffffffffffffffffffffffff1673ffffffffffffffffffffffffffffffffffffffff16815260200191505060405180910390f35b610475600480360381019080803573ffffffffffffffffffffffffffffffffffffffff16906020019092919080359060200190929190505050611bb2565b005b34801561048357600080fd5b506104b8600480360381019080803573ffffffffffffffffffffffffffffffffffffffff169060200190929190505050611e75565b60405180848152602001838152602001828152602001935050505060405180910390f35b3480156104e857600080fd5b506104f1611e9f565b604051808273ffffffffffffffffffffffffffffffffffffffff1673ffffffffffffffffffffffffffffffffffffffff16815260200191505060405180910390f35b34801561053f57600080fd5b50610548611ec5565b604051808215151515815260200191505060405180910390f35b34801561056e57600080fd5b5061058d600480360381019080803590602001909291905050506123c6565b005b34801561059b57600080fd5b506105a46123d0565b604051808460ff1660ff1681526020018363ffffffff1663ffffffff1681526020018263ffffffff1663ffffffff168152602001935050505060405180910390f35b3480156105f257600080fd5b50610627600480360381019080803573ffffffffffffffffffffffffffffffffffffffff169060200190929190505050612619565b005b34801561063557600080fd5b5061063e6126f4565b6040518082815260200191505060405180910390f35b34801561066057600080fd5b506106696126fa565b6040518082815260200191505060405180910390f35b34801561068b57600080fd5b506106b0600480360381019080803563ffffffff169060200190929190505050612700565b604051808215151515815260200191505060405180910390f35b3480156106d657600080fd5b5061070b600480360381019080803573ffffffffffffffffffffffffffffffffffffffff169060200190929190505050612720565b005b6000806000806000600860045401600a0a7fffffffffffffffffffffffffffffffffffffffffffffffffffffffffffffffff81151561074857fe5b049350339250600086148061079f57506000600560008573ffffffffffffffffffffffffffffffffffffffff1673ffffffffffffffffffffffffffffffffffffffff16815260200190815260200160002060000154145b806107c1575060003073ffffffffffffffffffffffffffffffffffffffff1631145b806108c2575085600360009054906101000a900473ffffffffffffffffffffffffffffffffffffffff1673ffffffffffffffffffffffffffffffffffffffff166370a08231856040518263ffffffff167c0100000000000000000000000000000000000000000000000000000000028152600401808273ffffffffffffffffffffffffffffffffffffffff1673ffffffffffffffffffffffffffffffffffffffff168152602001915050602060405180830381600087803b15801561088557600080fd5b505af1158015610899573d6000803e3d6000fd5b505050506040513d60208110156108af57600080fd5b8101908080519060200190929190505050105b8061090e575085600560008573ffffffffffffffffffffffffffffffffffffffff1673ffffffffffffffffffffffffffffffffffffffff16815260200190815260200160002060000154105b1561091c5760009450610a7a565b60003073ffffffffffffffffffffffffffffffffffffffff16311115610a79576109bc3073ffffffffffffffffffffffffffffffffffffffff16316109ae600754600560008873ffffffffffffffffffffffffffffffffffffffff1673ffffffffffffffffffffffffffffffffffffffff1681526020019081526020016000206002015461287590919063ffffffff16565b6128ad90919063ffffffff16565b9150838210156109d457600860045401600a0a6109d7565b60015b9050610a76610a6782610a5989610a4b600560008a73ffffffffffffffffffffffffffffffffffffffff1673ffffffffffffffffffffffffffffffffffffffff16815260200190815260200160002060000154610a3d888a61287590919063ffffffff16565b6128ad90919063ffffffff16565b61287590919063ffffffff16565b6128ad90919063ffffffff16565b866128c390919063ffffffff16565b94505b5b50505050919050565b600360009054906101000a900473ffffffffffffffffffffffffffffffffffffffff1681565b600080600073ffffffffffffffffffffffffffffffffffffffff168373ffffffffffffffffffffffffffffffffffffffff1614151515610ae857600080fd5b600560008473ffffffffffffffffffffffffffffffffffffffff1673ffffffffffffffffffffffffffffffffffffffff16815260200190815260200160002060000154600560008573ffffffffffffffffffffffffffffffffffffffff1673ffffffffffffffffffffffffffffffffffffffff1681526020019081526020016000206001015491509150915091565b600080600060149054906101000a900460ff16151515610b9657600080fd5b6001600060146101000a81548160ff021916908315150217905550339150610bbc611260565b1515610bc757600080fd5b600083111515610bd657600080fd5b82600560008473ffffffffffffffffffffffffffffffffffffffff1673ffffffffffffffffffffffffffffffffffffffff1681526020019081526020016000206000015410151515610c2757600080fd5b82600360009054906101000a900473ffffffffffffffffffffffffffffffffffffffff1673ffffffffffffffffffffffffffffffffffffffff166370a08231846040518263ffffffff167c0100000000000000000000000000000000000000000000000000000000028152600401808273ffffffffffffffffffffffffffffffffffffffff1673ffffffffffffffffffffffffffffffffffffffff168152602001915050602060405180830381600087803b158015610ce557600080fd5b505af1158015610cf9573d6000803e3d6000fd5b505050506040513d6020811015610d0f57600080fd5b810190808051906020019092919050505010151515610d2d57600080fd5b82600360009054906101000a900473ffffffffffffffffffffffffffffffffffffffff1673ffffffffffffffffffffffffffffffffffffffff1663dd62ed3e33306040518363ffffffff167c0100000000000000000000000000000000000000000000000000000000028152600401808373ffffffffffffffffffffffffffffffffffffffff1673ffffffffffffffffffffffffffffffffffffffff1681526020018273ffffffffffffffffffffffffffffffffffffffff1673ffffffffffffffffffffffffffffffffffffffff16815260200192505050602060405180830381600087803b158015610e1f57600080fd5b505af1158015610e33573d6000803e3d6000fd5b505050506040513d6020811015610e4957600080fd5b810190808051906020019092919050505010151515610e6757600080fd5b610e708361070d565b9050600081111515610e8157600080fd5b600360009054906101000a900473ffffffffffffffffffffffffffffffffffffffff1673ffffffffffffffffffffffffffffffffffffffff166323b872dd83600260009054906101000a900473ffffffffffffffffffffffffffffffffffffffff16866040518463ffffffff167c0100000000000000000000000000000000000000000000000000000000028152600401808473ffffffffffffffffffffffffffffffffffffffff1673ffffffffffffffffffffffffffffffffffffffff1681526020018373ffffffffffffffffffffffffffffffffffffffff1673ffffffffffffffffffffffffffffffffffffffff1681526020018281526020019350505050602060405180830381600087803b158015610f9c57600080fd5b505af1158015610fb0573d6000803e3d6000fd5b505050506040513d6020811015610fc657600080fd5b81019080805190602001909291905050501515610fe257600080fd5b61103783600560008573ffffffffffffffffffffffffffffffffffffffff1673ffffffffffffffffffffffffffffffffffffffff168152602001908152602001600020600001546128df90919063ffffffff16565b600560008473ffffffffffffffffffffffffffffffffffffffff1673ffffffffffffffffffffffffffffffffffffffff1681526020019081526020016000206000018190555061113d6110ec600454600a0a6110de600560008773ffffffffffffffffffffffffffffffffffffffff1673ffffffffffffffffffffffffffffffffffffffff168152602001908152602001600020600101548761287590919063ffffffff16565b6128ad90919063ffffffff16565b600560008573ffffffffffffffffffffffffffffffffffffffff1673ffffffffffffffffffffffffffffffffffffffff168152602001908152602001600020600201546128df90919063ffffffff16565b600560008473ffffffffffffffffffffffffffffffffffffffff1673ffffffffffffffffffffffffffffffffffffffff16815260200190815260200160002060020181905550611198816008546128c390919063ffffffff16565b6008819055508173ffffffffffffffffffffffffffffffffffffffff166108fc829081150290604051600060405180830381858888f193505050501580156111e4573d6000803e3d6000fd5b508173ffffffffffffffffffffffffffffffffffffffff167ffc48f4f163cfed28aaf3be3f0b162a1338fab214afc9340eafc6cb081c71fadf8285604051808381526020018281526020019250505060405180910390a260008060146101000a81548160ff021916908315150217905550505050565b60045481565b600080600080600160009054906101000a900473ffffffffffffffffffffffffffffffffffffffff1673ffffffffffffffffffffffffffffffffffffffff1663d6d65f3d6040518163ffffffff167c0100000000000000000000000000000000000000000000000000000000028152600401602060405180830381600087803b1580156112ec57600080fd5b505af1158015611300573d6000803e3d6000fd5b505050506040513d602081101561131657600080fd5b81019080805190602001909291905050509250600083141561133b57600093506114fd565b600160009054906101000a900473ffffffffffffffffffffffffffffffffffffffff1673ffffffffffffffffffffffffffffffffffffffff16632442e1cb600185036040518263ffffffff167c010000000000000000000000000000000000000000000000000000000002815260040180828152602001915050600060405180830381600087803b1580156113cf57600080fd5b505af11580156113e3573d6000803e3d6000fd5b505050506040513d6000823e3d601f19601f8201168201806040525060c081101561140d57600080fd5b8101908080519060200190929190805190602001909291908051906020019092919080519060200190929190805164010000000081111561144d57600080fd5b8281019050602081018481111561146357600080fd5b815185600182028301116401000000008211171561148057600080fd5b5050929190602001805164010000000081111561149c57600080fd5b828101905060208101848111156114b257600080fd5b81518560018202830111640100000000821117156114cf57600080fd5b50509291905050505050935050509150428263ffffffff16111580156114fa57508063ffffffff1642105b93505b50505090565b6000809054906101000a900473ffffffffffffffffffffffffffffffffffffffff1673ffffffffffffffffffffffffffffffffffffffff163373ffffffffffffffffffffffffffffffffffffffff1614151561155e57600080fd5b600073ffffffffffffffffffffffffffffffffffffffff168173ffffffffffffffffffffffffffffffffffffffff161415151561159a57600080fd5b80600160006101000a81548173ffffffffffffffffffffffffffffffffffffffff021916908373ffffffffffffffffffffffffffffffffffffffff1602179055508073ffffffffffffffffffffffffffffffffffffffff16634090cb646040518163ffffffff167c0100000000000000000000000000000000000000000000000000000000028152600401602060405180830381600087803b15801561163f57600080fd5b505af1158015611653573d6000803e3d6000fd5b505050506040513d602081101561166957600080fd5b8101908080519060200190929190505050600360006101000a81548173ffffffffffffffffffffffffffffffffffffffff021916908373ffffffffffffffffffffffffffffffffffffffff160217905550600360009054906101000a900473ffffffffffffffffffffffffffffffffffffffff1673ffffffffffffffffffffffffffffffffffffffff1663313ce5676040518163ffffffff167c0100000000000000000000000000000000000000000000000000000000028152600401602060405180830381600087803b15801561174057600080fd5b505af1158015611754573d6000803e3d6000fd5b505050506040513d602081101561176a57600080fd5b810190808051906020019092919050505060ff1660048190555050565b6000806000809054906101000a900473ffffffffffffffffffffffffffffffffffffffff1673ffffffffffffffffffffffffffffffffffffffff163373ffffffffffffffffffffffffffffffffffffffff161415156117e557600080fd5b600060149054906101000a900460ff1615151561180157600080fd5b6001600060146101000a81548160ff021916908315150217905550611824611ec5565b151561182f57600080fd5b611837611a71565b91506118416123d0565b9250505060008211151561185457600080fd5b6001600660008363ffffffff1663ffffffff16815260200190815260200160002060006101000a81548160ff0219169083151502179055503373ffffffffffffffffffffffffffffffffffffffff166108fc839081150290604051600060405180830381858888f193505050501580156118d2573d6000803e3d6000fd5b503373ffffffffffffffffffffffffffffffffffffffff167f333c8b01d26c7b77312592c86110afe8f6ffb558755a83599a45373a98e9294a836040518082815260200191505060405180910390a260008060146101000a81548160ff0219169083151502179055505050565b6000809054906101000a900473ffffffffffffffffffffffffffffffffffffffff1673ffffffffffffffffffffffffffffffffffffffff163373ffffffffffffffffffffffffffffffffffffffff1614151561199a57600080fd5b6000809054906101000a900473ffffffffffffffffffffffffffffffffffffffff1673ffffffffffffffffffffffffffffffffffffffff167ff8df31144d9c2f0f6b59d69b8b98abd5459d07f2742c4df920b25aae33c6482060405160405180910390a260008060006101000a81548173ffffffffffffffffffffffffffffffffffffffff021916908373ffffffffffffffffffffffffffffffffffffffff160217905550565b8060078190555050565b600260009054906101000a900473ffffffffffffffffffffffffffffffffffffffff1681565b6000806000806000806000809550611a876123d0565b945094509450600660008463ffffffff1663ffffffff16815260200190815260200160002060009054906101000a900460ff16915081158015611ad0575060008463ffffffff16115b8015611ae25750428363ffffffff1610155b8015611af35750428463ffffffff16105b8015611b02575060008560ff16115b8015611b25575060003073ffffffffffffffffffffffffffffffffffffffff1631115b15611b8157611b416008546007546128df90919063ffffffff16565b9050611b7e611b6f6064611b618860ff168561287590919063ffffffff16565b6128ad90919063ffffffff16565b876128c390919063ffffffff16565b95505b85965050505050505090565b6000809054906101000a900473ffffffffffffffffffffffffffffffffffffffff1681565b600160009054906101000a900473ffffffffffffffffffffffffffffffffffffffff16611c2a82600560008673ffffffffffffffffffffffffffffffffffffffff1673ffffffffffffffffffffffffffffffffffffffff168152602001908152602001600020600001546128c390919063ffffffff16565b600560008573ffffffffffffffffffffffffffffffffffffffff1673ffffffffffffffffffffffffffffffffffffffff16815260200190815260200160002060000181905550611cc534600560008673ffffffffffffffffffffffffffffffffffffffff1673ffffffffffffffffffffffffffffffffffffffff168152602001908152602001600020600201546128c390919063ffffffff16565b600560008573ffffffffffffffffffffffffffffffffffffffff1673ffffffffffffffffffffffffffffffffffffffff16815260200190815260200160002060020181905550611db9600560008573ffffffffffffffffffffffffffffffffffffffff1673ffffffffffffffffffffffffffffffffffffffff16815260200190815260200160002060000154611dab600454600a0a600560008873ffffffffffffffffffffffffffffffffffffffff1673ffffffffffffffffffffffffffffffffffffffff1681526020019081526020016000206002015461287590919063ffffffff16565b6128ad90919063ffffffff16565b600560008573ffffffffffffffffffffffffffffffffffffffff1673ffffffffffffffffffffffffffffffffffffffff16815260200190815260200160002060010181905550611e14346007546128c390919063ffffffff16565b6007819055508273ffffffffffffffffffffffffffffffffffffffff167f363f315f930a17d1266b86a20d6dd34b1cfbc5a9db9f13a65d06a689c3a2af8a3484604051808381526020018281526020019250505060405180910390a2505050565b60056020528060005260406000206000915090508060000154908060010154908060020154905083565b600160009054906101000a900473ffffffffffffffffffffffffffffffffffffffff1681565b600080600080600160009054906101000a900473ffffffffffffffffffffffffffffffffffffffff1673ffffffffffffffffffffffffffffffffffffffff1663d6d65f3d6040518163ffffffff167c0100000000000000000000000000000000000000000000000000000000028152600401602060405180830381600087803b158015611f5157600080fd5b505af1158015611f65573d6000803e3d6000fd5b505050506040513d6020811015611f7b57600080fd5b81019080805190602001909291905050509250600083141561205f57600160009054906101000a900473ffffffffffffffffffffffffffffffffffffffff1673ffffffffffffffffffffffffffffffffffffffff1663a4fd6f566040518163ffffffff167c0100000000000000000000000000000000000000000000000000000000028152600401602060405180830381600087803b15801561201d57600080fd5b505af1158015612031573d6000803e3d6000fd5b505050506040513d602081101561204757600080fd5b810190808051906020019092919050505093506123c0565b600160009054906101000a900473ffffffffffffffffffffffffffffffffffffffff1673ffffffffffffffffffffffffffffffffffffffff16632442e1cb846040518263ffffffff167c010000000000000000000000000000000000000000000000000000000002815260040180828152602001915050600060405180830381600087803b1580156120f057600080fd5b505af1158015612104573d6000803e3d6000fd5b505050506040513d6000823e3d601f19601f8201168201806040525060c081101561212e57600080fd5b8101908080519060200190929190805190602001909291908051906020019092919080519060200190929190805164010000000081111561216e57600080fd5b8281019050602081018481111561218457600080fd5b81518560018202830111640100000000821117156121a157600080fd5b505092919060200180516401000000008111156121bd57600080fd5b828101905060208101848111156121d357600080fd5b81518560018202830111640100000000821117156121f057600080fd5b505092919050505050505050509150600160009054906101000a900473ffffffffffffffffffffffffffffffffffffffff1673ffffffffffffffffffffffffffffffffffffffff16632442e1cb600185036040518263ffffffff167c010000000000000000000000000000000000000000000000000000000002815260040180828152602001915050600060405180830381600087803b15801561229357600080fd5b505af11580156122a7573d6000803e3d6000fd5b505050506040513d6000823e3d601f19601f8201168201806040525060c08110156122d157600080fd5b8101908080519060200190929190805190602001909291908051906020019092919080519060200190929190805164010000000081111561231157600080fd5b8281019050602081018481111561232757600080fd5b815185600182028301116401000000008211171561234457600080fd5b5050929190602001805164010000000081111561236057600080fd5b8281019050602081018481111561237657600080fd5b815185600182028301116401000000008211171561239357600080fd5b505092919050505050509350505050428163ffffffff16111580156123bd57508163ffffffff1642105b93505b50505090565b8060088190555050565b6000806000806000806000600160009054906101000a900473ffffffffffffffffffffffffffffffffffffffff1673ffffffffffffffffffffffffffffffffffffffff1663299a017c6040518163ffffffff167c0100000000000000000000000000000000000000000000000000000000028152600401600060405180830381600087803b15801561246157600080fd5b505af1158015612475573d6000803e3d6000fd5b505050506040513d6000823e3d601f19601f8201168201806040525060c081101561249f57600080fd5b810190808051906020019092919080519060200190929190805190602001909291908051906020019092919080516401000000008111156124df57600080fd5b828101905060208101848111156124f557600080fd5b815185600182028301116401000000008211171561251257600080fd5b5050929190602001805164010000000081111561252e57600080fd5b8281019050602081018481111561254457600080fd5b815185600182028301116401000000008211171561256157600080fd5b5050929190505050505094509450945050600660008363ffffffff1663ffffffff16815260200190815260200160002060009054906101000a900460ff16905080156125c0576000806000829250819150809050965096509650612610565b8383428463ffffffff161080156125dd575060008463ffffffff16115b6125e75783612609565b7fffffffffffffffffffffffffffffffffffffffffffffffffffffffffffffffff5b9650965096505b50505050909192565b6000809054906101000a900473ffffffffffffffffffffffffffffffffffffffff1673ffffffffffffffffffffffffffffffffffffffff163373ffffffffffffffffffffffffffffffffffffffff1614151561267457600080fd5b600073ffffffffffffffffffffffffffffffffffffffff168173ffffffffffffffffffffffffffffffffffffffff16141515156126b057600080fd5b80600260006101000a81548173ffffffffffffffffffffffffffffffffffffffff021916908373ffffffffffffffffffffffffffffffffffffffff16021790555050565b60075481565b60085481565b60066020528060005260406000206000915054906101000a900460ff1681565b6000809054906101000a900473ffffffffffffffffffffffffffffffffffffffff1673ffffffffffffffffffffffffffffffffffffffff163373ffffffffffffffffffffffffffffffffffffffff1614151561277b57600080fd5b600073ffffffffffffffffffffffffffffffffffffffff168173ffffffffffffffffffffffffffffffffffffffff16141515156127b757600080fd5b8073ffffffffffffffffffffffffffffffffffffffff166000809054906101000a900473ffffffffffffffffffffffffffffffffffffffff1673ffffffffffffffffffffffffffffffffffffffff167f8be0079c531659141344cd1fd0a4f28419497f9722a3daafe3b4186f6b6457e060405160405180910390a3806000806101000a81548173ffffffffffffffffffffffffffffffffffffffff021916908373ffffffffffffffffffffffffffffffffffffffff16021790555050565b60008083141561288857600090506128a7565b818302905081838281151561289957fe5b041415156128a357fe5b8090505b92915050565b600081838115156128ba57fe5b04905092915050565b600081830190508281101515156128d657fe5b80905092915050565b60008282111515156128ed57fe5b8183039050929150505600a165627a7a723058200b886f2737eb20a007ab69d695890337da45dda8e9d38d64d0bb474f6ec152e30029",
  "source": "pragma solidity ^0.4.24;\n\nimport \"./W12Fund.sol\";\nimport \"./WToken.sol\";\n\n\ncontract W12FundStub is W12Fund {\n    constructor (address crowdsaleAddress, address swapAddress, address wTokenAddress) public {\n        crowdsale = IW12Crowdsale(crowdsaleAddress);\n        swap = swapAddress;\n        wToken = WToken(wTokenAddress);\n        tokenDecimals = wToken.decimals();\n    }\n\n    function _setTotalFunded(uint amount) external {\n        totalFunded = amount;\n    }\n\n    function _setTotalRefunded(uint amount) external {\n        totalRefunded = amount;\n    }\n\n    // allow any sender\n    modifier onlyFrom(address sender) {\n        _;\n    }\n}\n",
  "sourcePath": "/home/andrey/Code/w12/platform-contracts/contracts/W12FundStub.sol",
  "compiler": {
    "name": "solc",
    "version": "0.4.24+commit.e67f0147.Emscripten.clang"
  },
  "schemaVersion": "2.0.1",
  "updatedAt": "2018-08-09T10:07:54.669Z"
}