{
  "contractName": "W12Fund",
  "abi": [
    {
      "constant": true,
      "inputs": [],
      "name": "wToken",
      "outputs": [
        {
          "name": "",
          "type": "address"
        }
      ],
      "payable": false,
      "stateMutability": "view",
      "type": "function"
    },
    {
      "constant": false,
      "inputs": [],
      "name": "renounceOwnership",
      "outputs": [],
      "payable": false,
      "stateMutability": "nonpayable",
      "type": "function"
    },
    {
      "constant": true,
      "inputs": [],
      "name": "swap",
      "outputs": [
        {
          "name": "",
          "type": "address"
        }
      ],
      "payable": false,
      "stateMutability": "view",
      "type": "function"
    },
    {
      "constant": true,
      "inputs": [],
      "name": "owner",
      "outputs": [
        {
          "name": "",
          "type": "address"
        }
      ],
      "payable": false,
      "stateMutability": "view",
      "type": "function"
    },
    {
      "constant": true,
      "inputs": [
        {
          "name": "",
          "type": "address"
        }
      ],
      "name": "buyers",
      "outputs": [
        {
          "name": "totalBought",
          "type": "uint256"
        },
        {
          "name": "averagePrice",
          "type": "uint256"
        },
        {
          "name": "totalFunded",
          "type": "uint256"
        }
      ],
      "payable": false,
      "stateMutability": "view",
      "type": "function"
    },
    {
      "constant": true,
      "inputs": [],
      "name": "crowdsale",
      "outputs": [
        {
          "name": "",
          "type": "address"
        }
      ],
      "payable": false,
      "stateMutability": "view",
      "type": "function"
    },
    {
      "constant": true,
      "inputs": [],
      "name": "totalFunded",
      "outputs": [
        {
          "name": "",
          "type": "uint256"
        }
      ],
      "payable": false,
      "stateMutability": "view",
      "type": "function"
    },
    {
      "constant": true,
      "inputs": [],
      "name": "totalRefunded",
      "outputs": [
        {
          "name": "",
          "type": "uint256"
        }
      ],
      "payable": false,
      "stateMutability": "view",
      "type": "function"
    },
    {
      "constant": true,
      "inputs": [
        {
          "name": "",
          "type": "uint32"
        }
      ],
      "name": "completedTranches",
      "outputs": [
        {
          "name": "",
          "type": "bool"
        }
      ],
      "payable": false,
      "stateMutability": "view",
      "type": "function"
    },
    {
      "constant": false,
      "inputs": [
        {
          "name": "_newOwner",
          "type": "address"
        }
      ],
      "name": "transferOwnership",
      "outputs": [],
      "payable": false,
      "stateMutability": "nonpayable",
      "type": "function"
    },
    {
      "anonymous": false,
      "inputs": [
        {
          "indexed": true,
          "name": "buyer",
          "type": "address"
        },
        {
          "indexed": false,
          "name": "etherAmount",
          "type": "uint256"
        },
        {
          "indexed": false,
          "name": "tokenAmount",
          "type": "uint256"
        }
      ],
      "name": "FundsReceived",
      "type": "event"
    },
    {
      "anonymous": false,
      "inputs": [
        {
          "indexed": true,
          "name": "buyer",
          "type": "address"
        },
        {
          "indexed": false,
          "name": "etherAmount",
          "type": "uint256"
        },
        {
          "indexed": false,
          "name": "tokenAmount",
          "type": "uint256"
        }
      ],
      "name": "FundsRefunded",
      "type": "event"
    },
    {
      "anonymous": false,
      "inputs": [
        {
          "indexed": true,
          "name": "receiver",
          "type": "address"
        },
        {
          "indexed": false,
          "name": "amount",
          "type": "uint256"
        }
      ],
      "name": "TrancheOperation",
      "type": "event"
    },
    {
      "anonymous": false,
      "inputs": [
        {
          "indexed": true,
          "name": "previousOwner",
          "type": "address"
        }
      ],
      "name": "OwnershipRenounced",
      "type": "event"
    },
    {
      "anonymous": false,
      "inputs": [
        {
          "indexed": true,
          "name": "previousOwner",
          "type": "address"
        },
        {
          "indexed": true,
          "name": "newOwner",
          "type": "address"
        }
      ],
      "name": "OwnershipTransferred",
      "type": "event"
    },
    {
      "constant": false,
      "inputs": [
        {
          "name": "_crowdsale",
          "type": "address"
        }
      ],
      "name": "setCrowdsale",
      "outputs": [],
      "payable": false,
      "stateMutability": "nonpayable",
      "type": "function"
    },
    {
      "constant": false,
      "inputs": [
        {
          "name": "_swap",
          "type": "address"
        }
      ],
      "name": "setSwap",
      "outputs": [],
      "payable": false,
      "stateMutability": "nonpayable",
      "type": "function"
    },
    {
      "constant": false,
      "inputs": [
        {
          "name": "buyer",
          "type": "address"
        },
        {
          "name": "tokenAmount",
          "type": "uint256"
        }
      ],
      "name": "recordPurchase",
      "outputs": [],
      "payable": true,
      "stateMutability": "payable",
      "type": "function"
    },
    {
      "constant": true,
      "inputs": [
        {
          "name": "buyer",
          "type": "address"
        }
      ],
      "name": "getInvestmentsInfo",
      "outputs": [
        {
          "name": "totalTokensBought",
          "type": "uint256"
        },
        {
          "name": "averageTokenPrice",
          "type": "uint256"
        }
      ],
      "payable": false,
      "stateMutability": "view",
      "type": "function"
    },
    {
      "constant": true,
      "inputs": [
        {
          "name": "wtokensToRefund",
          "type": "uint256"
        }
      ],
      "name": "getRefundAmount",
      "outputs": [
        {
          "name": "",
          "type": "uint256"
        }
      ],
      "payable": false,
      "stateMutability": "view",
      "type": "function"
    },
    {
      "constant": true,
      "inputs": [],
      "name": "getRefundPeriod",
      "outputs": [
        {
          "name": "",
          "type": "uint32"
        },
        {
          "name": "",
          "type": "uint32"
        }
      ],
      "payable": false,
      "stateMutability": "view",
      "type": "function"
    },
    {
      "constant": true,
      "inputs": [],
      "name": "getTrancheAmount",
      "outputs": [
        {
          "name": "",
          "type": "uint256"
        }
      ],
      "payable": false,
      "stateMutability": "view",
      "type": "function"
    },
    {
      "constant": true,
      "inputs": [],
      "name": "getTrancheParameters",
      "outputs": [
        {
          "name": "",
          "type": "uint8"
        },
        {
          "name": "",
          "type": "uint32"
        },
        {
          "name": "",
          "type": "uint32"
        }
      ],
      "payable": false,
      "stateMutability": "view",
      "type": "function"
    },
    {
      "constant": false,
      "inputs": [],
      "name": "tranche",
      "outputs": [],
      "payable": false,
      "stateMutability": "nonpayable",
      "type": "function"
    },
    {
      "constant": false,
      "inputs": [
        {
          "name": "wtokensToRefund",
          "type": "uint256"
        }
      ],
      "name": "refund",
      "outputs": [],
      "payable": false,
      "stateMutability": "nonpayable",
      "type": "function"
    }
  ],
  "bytecode": "0x608060405260008060146101000a81548160ff021916908315150217905550336000806101000a81548173ffffffffffffffffffffffffffffffffffffffff021916908373ffffffffffffffffffffffffffffffffffffffff1602179055506120728061006d6000396000f300608060405260043610610112576000357c0100000000000000000000000000000000000000000000000000000000900463ffffffff16806304cd5294146101175780630babd8641461015857806311fa7da2146101af578063278ecde11461020d578063483a20b21461023a5780635647cb141461027d5780636ebc0af1146102c7578063715018a6146102de5780638119c065146102f55780638ce2bc2a1461034c5780638da5cb5b14610377578063958799cb146103ce57806397a993aa1461040e5780639c1e03a014610473578063ac2a2a34146104ca578063acb3c07314610521578063ad044f4914610564578063d90829621461058f578063e80b68df146105ba578063f2fde38b14610605575b600080fd5b34801561012357600080fd5b5061014260048036038101908080359060200190929190505050610648565b6040518082815260200191505060405180910390f35b34801561016457600080fd5b5061016d6109e7565b604051808273ffffffffffffffffffffffffffffffffffffffff1673ffffffffffffffffffffffffffffffffffffffff16815260200191505060405180910390f35b3480156101bb57600080fd5b506101f0600480360381019080803573ffffffffffffffffffffffffffffffffffffffff169060200190929190505050610a0d565b604051808381526020018281526020019250505060405180910390f35b34801561021957600080fd5b5061023860048036038101908080359060200190929190505050610adb565b005b34801561024657600080fd5b5061027b600480360381019080803573ffffffffffffffffffffffffffffffffffffffff169060200190929190505050611071565b005b34801561028957600080fd5b5061029261122b565b604051808363ffffffff1663ffffffff1681526020018263ffffffff1663ffffffff1681526020019250505060405180910390f35b3480156102d357600080fd5b506102dc6113d3565b005b3480156102ea57600080fd5b506102f3611578565b005b34801561030157600080fd5b5061030a61167a565b604051808273ffffffffffffffffffffffffffffffffffffffff1673ffffffffffffffffffffffffffffffffffffffff16815260200191505060405180910390f35b34801561035857600080fd5b506103616116a0565b6040518082815260200191505060405180910390f35b34801561038357600080fd5b5061038c6117bc565b604051808273ffffffffffffffffffffffffffffffffffffffff1673ffffffffffffffffffffffffffffffffffffffff16815260200191505060405180910390f35b61040c600480360381019080803573ffffffffffffffffffffffffffffffffffffffff169060200190929190803590602001909291905050506117e1565b005b34801561041a57600080fd5b5061044f600480360381019080803573ffffffffffffffffffffffffffffffffffffffff169060200190929190505050611ac2565b60405180848152602001838152602001828152602001935050505060405180910390f35b34801561047f57600080fd5b50610488611aec565b604051808273ffffffffffffffffffffffffffffffffffffffff1673ffffffffffffffffffffffffffffffffffffffff16815260200191505060405180910390f35b3480156104d657600080fd5b506104df611b12565b604051808460ff1660ff1681526020018363ffffffff1663ffffffff1681526020018263ffffffff1663ffffffff168152602001935050505060405180910390f35b34801561052d57600080fd5b50610562600480360381019080803573ffffffffffffffffffffffffffffffffffffffff169060200190929190505050611d5b565b005b34801561057057600080fd5b50610579611e36565b6040518082815260200191505060405180910390f35b34801561059b57600080fd5b506105a4611e3c565b6040518082815260200191505060405180910390f35b3480156105c657600080fd5b506105eb600480360381019080803563ffffffff169060200190929190505050611e42565b604051808215151515815260200191505060405180910390f35b34801561061157600080fd5b50610646600480360381019080803573ffffffffffffffffffffffffffffffffffffffff169060200190929190505050611e62565b005b600080600080600080600080600096506305f5e1007fffffffffffffffffffffffffffffffffffffffffffffffffffffffffffffffff81151561068757fe5b04955033945061069561122b565b9350935060008463ffffffff161180156106b55750428363ffffffff1610155b80156106c65750428463ffffffff16105b80156106d25750600089115b801561072057506000600460008773ffffffffffffffffffffffffffffffffffffffff1673ffffffffffffffffffffffffffffffffffffffff16815260200190815260200160002060000154115b8015610743575060003073ffffffffffffffffffffffffffffffffffffffff1631115b8015610846575088600360009054906101000a900473ffffffffffffffffffffffffffffffffffffffff1673ffffffffffffffffffffffffffffffffffffffff166370a08231876040518263ffffffff167c0100000000000000000000000000000000000000000000000000000000028152600401808273ffffffffffffffffffffffffffffffffffffffff1673ffffffffffffffffffffffffffffffffffffffff168152602001915050602060405180830381600087803b15801561080857600080fd5b505af115801561081c573d6000803e3d6000fd5b505050506040513d602081101561083257600080fd5b810190808051906020019092919050505010155b8015610894575088600460008773ffffffffffffffffffffffffffffffffffffffff1673ffffffffffffffffffffffffffffffffffffffff1681526020019081526020016000206000015410155b156109d8576109193073ffffffffffffffffffffffffffffffffffffffff163161090b600654600460008a73ffffffffffffffffffffffffffffffffffffffff1673ffffffffffffffffffffffffffffffffffffffff16815260200190815260200160002060020154611ec990919063ffffffff16565b611f0190919063ffffffff16565b91508582101561092d576305f5e100610930565b60015b63ffffffff1690506109d56109c6826109b88c6109aa600460008c73ffffffffffffffffffffffffffffffffffffffff1673ffffffffffffffffffffffffffffffffffffffff1681526020019081526020016000206000015461099c888a611ec990919063ffffffff16565b611f0190919063ffffffff16565b611ec990919063ffffffff16565b611f0190919063ffffffff16565b88611f1790919063ffffffff16565b96505b86975050505050505050919050565b600360009054906101000a900473ffffffffffffffffffffffffffffffffffffffff1681565b600080600073ffffffffffffffffffffffffffffffffffffffff168373ffffffffffffffffffffffffffffffffffffffff1614151515610a4c57600080fd5b600460008473ffffffffffffffffffffffffffffffffffffffff1673ffffffffffffffffffffffffffffffffffffffff16815260200190815260200160002060000154600460008573ffffffffffffffffffffffffffffffffffffffff1673ffffffffffffffffffffffffffffffffffffffff1681526020019081526020016000206001015491509150915091565b600080600060149054906101000a900460ff16151515610afa57600080fd5b6001600060146101000a81548160ff021916908315150217905550610b1e83610648565b9150339050600082111515610b3257600080fd5b600360009054906101000a900473ffffffffffffffffffffffffffffffffffffffff1673ffffffffffffffffffffffffffffffffffffffff166323b872dd82600260009054906101000a900473ffffffffffffffffffffffffffffffffffffffff16866040518463ffffffff167c0100000000000000000000000000000000000000000000000000000000028152600401808473ffffffffffffffffffffffffffffffffffffffff1673ffffffffffffffffffffffffffffffffffffffff1681526020018373ffffffffffffffffffffffffffffffffffffffff1673ffffffffffffffffffffffffffffffffffffffff1681526020018281526020019350505050602060405180830381600087803b158015610c4d57600080fd5b505af1158015610c61573d6000803e3d6000fd5b505050506040513d6020811015610c7757600080fd5b81019080805190602001909291905050501515610c9357600080fd5b610ce883600460008473ffffffffffffffffffffffffffffffffffffffff1673ffffffffffffffffffffffffffffffffffffffff16815260200190815260200160002060000154611f3390919063ffffffff16565b600460008373ffffffffffffffffffffffffffffffffffffffff1673ffffffffffffffffffffffffffffffffffffffff16815260200190815260200160002060000181905550610dd7610d86600460008473ffffffffffffffffffffffffffffffffffffffff1673ffffffffffffffffffffffffffffffffffffffff1681526020019081526020016000206001015485611ec990919063ffffffff16565b600460008473ffffffffffffffffffffffffffffffffffffffff1673ffffffffffffffffffffffffffffffffffffffff16815260200190815260200160002060020154611f3390919063ffffffff16565b600460008373ffffffffffffffffffffffffffffffffffffffff1673ffffffffffffffffffffffffffffffffffffffff168152602001908152602001600020600201819055506000600460008373ffffffffffffffffffffffffffffffffffffffff1673ffffffffffffffffffffffffffffffffffffffff16815260200190815260200160002060020154118015610eb157506000600460008373ffffffffffffffffffffffffffffffffffffffff1673ffffffffffffffffffffffffffffffffffffffff16815260200190815260200160002060000154115b610ebc576000610f54565b610f53600460008373ffffffffffffffffffffffffffffffffffffffff1673ffffffffffffffffffffffffffffffffffffffff16815260200190815260200160002060000154600460008473ffffffffffffffffffffffffffffffffffffffff1673ffffffffffffffffffffffffffffffffffffffff16815260200190815260200160002060020154611f0190919063ffffffff16565b5b600460008373ffffffffffffffffffffffffffffffffffffffff1673ffffffffffffffffffffffffffffffffffffffff16815260200190815260200160002060010181905550610faf82600754611f1790919063ffffffff16565b6007819055508073ffffffffffffffffffffffffffffffffffffffff166108fc839081150290604051600060405180830381858888f19350505050158015610ffb573d6000803e3d6000fd5b508073ffffffffffffffffffffffffffffffffffffffff167ffc48f4f163cfed28aaf3be3f0b162a1338fab214afc9340eafc6cb081c71fadf8385604051808381526020018281526020019250505060405180910390a260008060146101000a81548160ff021916908315150217905550505050565b6000809054906101000a900473ffffffffffffffffffffffffffffffffffffffff1673ffffffffffffffffffffffffffffffffffffffff163373ffffffffffffffffffffffffffffffffffffffff161415156110cc57600080fd5b600073ffffffffffffffffffffffffffffffffffffffff168173ffffffffffffffffffffffffffffffffffffffff161415151561110857600080fd5b80600160006101000a81548173ffffffffffffffffffffffffffffffffffffffff021916908373ffffffffffffffffffffffffffffffffffffffff1602179055508073ffffffffffffffffffffffffffffffffffffffff16634090cb646040518163ffffffff167c0100000000000000000000000000000000000000000000000000000000028152600401602060405180830381600087803b1580156111ad57600080fd5b505af11580156111c1573d6000803e3d6000fd5b505050506040513d60208110156111d757600080fd5b8101908080519060200190929190505050600360006101000a81548173ffffffffffffffffffffffffffffffffffffffff021916908373ffffffffffffffffffffffffffffffffffffffff16021790555050565b600080600080600160009054906101000a900473ffffffffffffffffffffffffffffffffffffffff1673ffffffffffffffffffffffffffffffffffffffff1663299a017c6040518163ffffffff167c0100000000000000000000000000000000000000000000000000000000028152600401600060405180830381600087803b1580156112b757600080fd5b505af11580156112cb573d6000803e3d6000fd5b505050506040513d6000823e3d601f19601f8201168201806040525060c08110156112f557600080fd5b8101908080519060200190929190805190602001909291908051906020019092919080519060200190929190805164010000000081111561133557600080fd5b8281019050602081018481111561134b57600080fd5b815185600182028301116401000000008211171561136857600080fd5b5050929190602001805164010000000081111561138457600080fd5b8281019050602081018481111561139a57600080fd5b81518560018202830111640100000000821117156113b757600080fd5b5050929190505050505093509350505081819350935050509091565b6000806000809054906101000a900473ffffffffffffffffffffffffffffffffffffffff1673ffffffffffffffffffffffffffffffffffffffff163373ffffffffffffffffffffffffffffffffffffffff1614151561143157600080fd5b600060149054906101000a900460ff1615151561144d57600080fd5b6001600060146101000a81548160ff0219169083151502179055506114706116a0565b915061147a611b12565b9250505060008211151561148d57600080fd5b6001600560008363ffffffff1663ffffffff16815260200190815260200160002060006101000a81548160ff0219169083151502179055503373ffffffffffffffffffffffffffffffffffffffff166108fc839081150290604051600060405180830381858888f1935050505015801561150b573d6000803e3d6000fd5b503373ffffffffffffffffffffffffffffffffffffffff167f333c8b01d26c7b77312592c86110afe8f6ffb558755a83599a45373a98e9294a836040518082815260200191505060405180910390a260008060146101000a81548160ff0219169083151502179055505050565b6000809054906101000a900473ffffffffffffffffffffffffffffffffffffffff1673ffffffffffffffffffffffffffffffffffffffff163373ffffffffffffffffffffffffffffffffffffffff161415156115d357600080fd5b6000809054906101000a900473ffffffffffffffffffffffffffffffffffffffff1673ffffffffffffffffffffffffffffffffffffffff167ff8df31144d9c2f0f6b59d69b8b98abd5459d07f2742c4df920b25aae33c6482060405160405180910390a260008060006101000a81548173ffffffffffffffffffffffffffffffffffffffff021916908373ffffffffffffffffffffffffffffffffffffffff160217905550565b600260009054906101000a900473ffffffffffffffffffffffffffffffffffffffff1681565b60008060008060008060008095506116b6611b12565b945094509450600560008463ffffffff1663ffffffff16815260200190815260200160002060009054906101000a900460ff169150811580156116ff575060008463ffffffff16115b80156117115750428363ffffffff1610155b80156117225750428463ffffffff16105b8015611731575060008560ff16115b8015611754575060003073ffffffffffffffffffffffffffffffffffffffff1631115b156117b057611770600754600654611f3390919063ffffffff16565b90506117ad61179e60646117908860ff1685611ec990919063ffffffff16565b611f0190919063ffffffff16565b87611f1790919063ffffffff16565b95505b85965050505050505090565b6000809054906101000a900473ffffffffffffffffffffffffffffffffffffffff1681565b6000600160009054906101000a900473ffffffffffffffffffffffffffffffffffffffff168073ffffffffffffffffffffffffffffffffffffffff163373ffffffffffffffffffffffffffffffffffffffff1614151561184057600080fd5b600460008573ffffffffffffffffffffffffffffffffffffffff1673ffffffffffffffffffffffffffffffffffffffff1681526020019081526020016000206000015491506118988383611f1790919063ffffffff16565b600460008673ffffffffffffffffffffffffffffffffffffffff1673ffffffffffffffffffffffffffffffffffffffff1681526020019081526020016000206000018190555061193334600460008773ffffffffffffffffffffffffffffffffffffffff1673ffffffffffffffffffffffffffffffffffffffff16815260200190815260200160002060020154611f1790919063ffffffff16565b600460008673ffffffffffffffffffffffffffffffffffffffff1673ffffffffffffffffffffffffffffffffffffffff16815260200190815260200160002060020181905550611a10600460008673ffffffffffffffffffffffffffffffffffffffff1673ffffffffffffffffffffffffffffffffffffffff16815260200190815260200160002060000154600460008773ffffffffffffffffffffffffffffffffffffffff1673ffffffffffffffffffffffffffffffffffffffff16815260200190815260200160002060020154611f0190919063ffffffff16565b600460008673ffffffffffffffffffffffffffffffffffffffff1673ffffffffffffffffffffffffffffffffffffffff16815260200190815260200160002060010181905550346006600082825401925050819055508373ffffffffffffffffffffffffffffffffffffffff167f363f315f930a17d1266b86a20d6dd34b1cfbc5a9db9f13a65d06a689c3a2af8a3485604051808381526020018281526020019250505060405180910390a250505050565b60046020528060005260406000206000915090508060000154908060010154908060020154905083565b600160009054906101000a900473ffffffffffffffffffffffffffffffffffffffff1681565b6000806000806000806000600160009054906101000a900473ffffffffffffffffffffffffffffffffffffffff1673ffffffffffffffffffffffffffffffffffffffff1663299a017c6040518163ffffffff167c0100000000000000000000000000000000000000000000000000000000028152600401600060405180830381600087803b158015611ba357600080fd5b505af1158015611bb7573d6000803e3d6000fd5b505050506040513d6000823e3d601f19601f8201168201806040525060c0811015611be157600080fd5b81019080805190602001909291908051906020019092919080519060200190929190805190602001909291908051640100000000811115611c2157600080fd5b82810190506020810184811115611c3757600080fd5b8151856001820283011164010000000082111715611c5457600080fd5b50509291906020018051640100000000811115611c7057600080fd5b82810190506020810184811115611c8657600080fd5b8151856001820283011164010000000082111715611ca357600080fd5b5050929190505050505094509450945050600560008363ffffffff1663ffffffff16815260200190815260200160002060009054906101000a900460ff1690508015611d02576000806000829250819150809050965096509650611d52565b8383428463ffffffff16108015611d1f575060008463ffffffff16115b611d295783611d4b565b7fffffffffffffffffffffffffffffffffffffffffffffffffffffffffffffffff5b9650965096505b50505050909192565b6000809054906101000a900473ffffffffffffffffffffffffffffffffffffffff1673ffffffffffffffffffffffffffffffffffffffff163373ffffffffffffffffffffffffffffffffffffffff16141515611db657600080fd5b600073ffffffffffffffffffffffffffffffffffffffff168173ffffffffffffffffffffffffffffffffffffffff1614151515611df257600080fd5b80600260006101000a81548173ffffffffffffffffffffffffffffffffffffffff021916908373ffffffffffffffffffffffffffffffffffffffff16021790555050565b60065481565b60075481565b60056020528060005260406000206000915054906101000a900460ff1681565b6000809054906101000a900473ffffffffffffffffffffffffffffffffffffffff1673ffffffffffffffffffffffffffffffffffffffff163373ffffffffffffffffffffffffffffffffffffffff16141515611ebd57600080fd5b611ec681611f4c565b50565b600080831415611edc5760009050611efb565b8183029050818382811515611eed57fe5b04141515611ef757fe5b8090505b92915050565b60008183811515611f0e57fe5b04905092915050565b60008183019050828110151515611f2a57fe5b80905092915050565b6000828211151515611f4157fe5b818303905092915050565b600073ffffffffffffffffffffffffffffffffffffffff168173ffffffffffffffffffffffffffffffffffffffff1614151515611f8857600080fd5b8073ffffffffffffffffffffffffffffffffffffffff166000809054906101000a900473ffffffffffffffffffffffffffffffffffffffff1673ffffffffffffffffffffffffffffffffffffffff167f8be0079c531659141344cd1fd0a4f28419497f9722a3daafe3b4186f6b6457e060405160405180910390a3806000806101000a81548173ffffffffffffffffffffffffffffffffffffffff021916908373ffffffffffffffffffffffffffffffffffffffff160217905550505600a165627a7a72305820fa2fa2b9c768260707550c1b7de546b47b54bca8022c1fa9fcace2480d9ff1e10029",
  "source": "pragma solidity ^0.4.24;\n\nimport \"../openzeppelin-solidity/contracts/ownership/Ownable.sol\";\nimport \"../openzeppelin-solidity/contracts/ReentrancyGuard.sol\";\nimport \"../openzeppelin-solidity/contracts/math/SafeMath.sol\";\nimport \"./WToken.sol\";\nimport \"./IW12Crowdsale.sol\";\n\n\ncontract W12Fund is Ownable, ReentrancyGuard {\n    using SafeMath for uint;\n\n    IW12Crowdsale public crowdsale;\n    address public swap;\n    WToken public wToken;\n    mapping (address=>TokenPriceInfo) public buyers;\n    mapping (uint32 => bool) public completedTranches;\n    uint public totalFunded;\n    uint public totalRefunded;\n\n    struct TokenPriceInfo {\n        uint totalBought;\n        uint averagePrice;\n        uint totalFunded;\n    }\n\n    event FundsReceived(address indexed buyer, uint etherAmount, uint tokenAmount);\n    event FundsRefunded(address indexed buyer, uint etherAmount, uint tokenAmount);\n    event TrancheOperation(address indexed receiver, uint amount);\n\n    function setCrowdsale(IW12Crowdsale _crowdsale) onlyOwner external {\n        require(_crowdsale != address(0));\n\n        crowdsale = _crowdsale;\n        wToken = _crowdsale.getWToken();\n    }\n\n    function setSwap(address _swap) onlyOwner external {\n        require(_swap != address(0));\n\n        swap = _swap;\n    }\n\n    function recordPurchase(address buyer, uint tokenAmount) external payable onlyFrom(crowdsale) {\n        uint tokensBoughtBefore = buyers[buyer].totalBought;\n\n        buyers[buyer].totalBought = tokensBoughtBefore.add(tokenAmount);\n        buyers[buyer].totalFunded = buyers[buyer].totalFunded.add(msg.value);\n        buyers[buyer].averagePrice = buyers[buyer].totalFunded.div(buyers[buyer].totalBought);\n\n        totalFunded += msg.value;\n\n        emit FundsReceived(buyer, msg.value, tokenAmount);\n    }\n\n    function getInvestmentsInfo(address buyer) external view returns (uint totalTokensBought, uint averageTokenPrice) {\n        require(buyer != address(0));\n\n        return (buyers[buyer].totalBought, buyers[buyer].averagePrice);\n    }\n\n    /**\n        calculation parameters:\n\n            a = address(this).balance\n            b = totalFunded\n            c = buyers[buyer].totalFunded\n            d = buyers[buyer].totalBought\n            e = wtokensToRefund\n\n        formula:\n            ( ( c * (a / b) ) / d ) * e = (refund amount)\n\n        adapted:\n            1. c * b / a = A_1\n            2. A_1 * 10 ** 8 / d * e / 10 ** 8\n    */\n    function getRefundAmount(uint wtokensToRefund) public view returns (uint) {\n        uint result = 0;\n        uint max = uint(-1) / 10 ** 8;\n        address buyer = msg.sender;\n        (uint32 start, uint32 end) = getRefundPeriod();\n\n        if (\n            start > 0\n            && end >= now\n            && start < now\n            && wtokensToRefund > 0\n            && buyers[buyer].totalBought > 0\n            && address(this).balance > 0\n            && wToken.balanceOf(buyer) >= wtokensToRefund\n            && buyers[buyer].totalBought >= wtokensToRefund\n        ) {\n            uint allowedFund = buyers[buyer].totalFunded.mul(totalFunded).div(address(this).balance);\n            uint precisionComponent = allowedFund >= max ? 1 : 10 ** 8;\n\n            result = result.add(\n                allowedFund\n                    .mul(precisionComponent)\n                    .div(buyers[buyer].totalBought)\n                    .mul(wtokensToRefund)\n                    .div(precisionComponent)\n            );\n        }\n\n        return result;\n    }\n\n    function getRefundPeriod() public view returns (uint32, uint32) {\n        (,, uint32 voteEndDate, uint32 withdrawalWindow,,) = crowdsale.getCurrentMilestone();\n\n        return (voteEndDate, withdrawalWindow);\n    }\n\n    function getTrancheAmount() public view returns (uint) {\n        uint result = 0;\n        (uint8 tranchePercent, uint32 start, uint32 end) = getTrancheParameters();\n        \n        bool completed = completedTranches[end];\n\n        if (\n            !completed\n            && start > 0\n            && end >= now\n            && start < now\n            && tranchePercent > 0\n            && address(this).balance > 0\n        ) {\n            uint allowedFund = totalFunded.sub(totalRefunded);\n\n            result = result.add(\n                allowedFund\n                .mul(tranchePercent)\n                .div(100)\n            );\n        }\n\n        return result;\n    }\n\n    function getTrancheParameters() public view returns (uint8, uint32, uint32) {\n        (, uint8 tranchePercent, uint32 voteEndDate, uint32 withdrawalWindow,,) = crowdsale.getCurrentMilestone();\n\n        bool completed = completedTranches[withdrawalWindow];\n\n        if (completed) {\n            return (0, 0, 0);\n        }\n\n        return (\n            tranchePercent,\n            voteEndDate,\n            withdrawalWindow < now && withdrawalWindow > 0\n                ? uint32(-1)\n                : withdrawalWindow\n        );\n    }\n\n    function tranche() external onlyOwner nonReentrant {\n        uint trancheAmount = getTrancheAmount();\n        (,, uint32 withdrawalWindow) = getTrancheParameters();\n\n        require(trancheAmount > 0);\n\n        completedTranches[withdrawalWindow] = true;\n\n        msg.sender.transfer(trancheAmount);\n\n        emit TrancheOperation(msg.sender, trancheAmount);\n    }\n\n    function refund(uint wtokensToRefund) external nonReentrant {\n        uint transferAmount = getRefundAmount(wtokensToRefund);\n        address buyer = msg.sender;\n\n        require(transferAmount > 0);\n        require(wToken.transferFrom(buyer, swap, wtokensToRefund));\n\n        buyers[buyer].totalBought = buyers[buyer].totalBought.sub(wtokensToRefund);\n        buyers[buyer].totalFunded = buyers[buyer].totalFunded.sub(wtokensToRefund.mul(buyers[buyer].averagePrice));\n        buyers[buyer].averagePrice = buyers[buyer].totalFunded > 0 && buyers[buyer].totalBought > 0\n            ? buyers[buyer].totalFunded.div(buyers[buyer].totalBought)\n            : 0;\n\n        // update total refunded amount counter\n        totalRefunded = totalRefunded.add(transferAmount);\n\n        buyer.transfer(transferAmount);\n\n        emit FundsRefunded(buyer, transferAmount, wtokensToRefund);\n    }\n\n    modifier onlyFrom(address sender) {\n        require(msg.sender == sender);\n\n        _;\n    }\n}\n",
  "sourcePath": "/c/Users/Mr.Hokid/projects/work/w12-product-contracts/contracts/W12Fund.sol",
  "compiler": {
    "name": "solc",
    "version": "0.4.24+commit.e67f0147.Emscripten.clang"
  },
  "schemaVersion": "2.0.0",
  "updatedAt": "2018-07-26T16:20:11.743Z"
}