{
  "contractName": "W12FundStub",
  "abi": [
    {
      "constant": true,
      "inputs": [],
      "name": "getTotalFundedAssetsSymbols",
      "outputs": [
        {
          "name": "",
          "type": "bytes32[]"
        }
      ],
      "payable": false,
      "stateMutability": "view",
      "type": "function"
    },
    {
      "constant": true,
      "inputs": [],
      "name": "wToken",
      "outputs": [
        {
          "name": "",
          "type": "address"
        }
      ],
      "payable": false,
      "stateMutability": "view",
      "type": "function"
    },
    {
      "constant": true,
      "inputs": [],
      "name": "totalTranchePercentReleased",
      "outputs": [
        {
          "name": "",
          "type": "uint256"
        }
      ],
      "payable": false,
      "stateMutability": "view",
      "type": "function"
    },
    {
      "constant": true,
      "inputs": [
        {
          "name": "",
          "type": "uint256"
        }
      ],
      "name": "completedTranches",
      "outputs": [
        {
          "name": "",
          "type": "bool"
        }
      ],
      "payable": false,
      "stateMutability": "view",
      "type": "function"
    },
    {
      "constant": false,
      "inputs": [
        {
          "name": "_serviceWallet",
          "type": "address"
        }
      ],
      "name": "setServiceWallet",
      "outputs": [],
      "payable": false,
      "stateMutability": "nonpayable",
      "type": "function"
    },
    {
      "constant": false,
      "inputs": [
        {
          "name": "tokenAmount",
          "type": "uint256"
        }
      ],
      "name": "refund",
      "outputs": [],
      "payable": false,
      "stateMutability": "nonpayable",
      "type": "function"
    },
    {
      "constant": true,
      "inputs": [],
      "name": "rates",
      "outputs": [
        {
          "name": "",
          "type": "address"
        }
      ],
      "payable": false,
      "stateMutability": "view",
      "type": "function"
    },
    {
      "constant": false,
      "inputs": [
        {
          "name": "_crowdsale",
          "type": "address"
        }
      ],
      "name": "setCrowdsale",
      "outputs": [],
      "payable": false,
      "stateMutability": "nonpayable",
      "type": "function"
    },
    {
      "constant": true,
      "inputs": [],
      "name": "version",
      "outputs": [
        {
          "name": "",
          "type": "uint256"
        }
      ],
      "payable": false,
      "stateMutability": "view",
      "type": "function"
    },
    {
      "constant": true,
      "inputs": [],
      "name": "serviceWallet",
      "outputs": [
        {
          "name": "",
          "type": "address"
        }
      ],
      "payable": false,
      "stateMutability": "view",
      "type": "function"
    },
    {
      "constant": true,
      "inputs": [],
      "name": "tokenRefundAllowed",
      "outputs": [
        {
          "name": "",
          "type": "bool"
        }
      ],
      "payable": false,
      "stateMutability": "view",
      "type": "function"
    },
    {
      "constant": false,
      "inputs": [],
      "name": "tranche",
      "outputs": [],
      "payable": false,
      "stateMutability": "nonpayable",
      "type": "function"
    },
    {
      "constant": false,
      "inputs": [],
      "name": "renounceOwnership",
      "outputs": [],
      "payable": false,
      "stateMutability": "nonpayable",
      "type": "function"
    },
    {
      "constant": true,
      "inputs": [
        {
          "name": "_symbol",
          "type": "bytes32"
        }
      ],
      "name": "getTotalFundedReleased",
      "outputs": [
        {
          "name": "",
          "type": "uint256"
        }
      ],
      "payable": false,
      "stateMutability": "view",
      "type": "function"
    },
    {
      "constant": true,
      "inputs": [],
      "name": "swap",
      "outputs": [
        {
          "name": "",
          "type": "address"
        }
      ],
      "payable": false,
      "stateMutability": "view",
      "type": "function"
    },
    {
      "constant": true,
      "inputs": [],
      "name": "isWithdrawalWindowActive",
      "outputs": [
        {
          "name": "",
          "type": "bool"
        }
      ],
      "payable": false,
      "stateMutability": "view",
      "type": "function"
    },
    {
      "constant": true,
      "inputs": [],
      "name": "owner",
      "outputs": [
        {
          "name": "",
          "type": "address"
        }
      ],
      "payable": false,
      "stateMutability": "view",
      "type": "function"
    },
    {
      "constant": true,
      "inputs": [
        {
          "name": "_investor",
          "type": "address"
        }
      ],
      "name": "getInvestorTokenBoughtAmount",
      "outputs": [
        {
          "name": "",
          "type": "uint256"
        }
      ],
      "payable": false,
      "stateMutability": "view",
      "type": "function"
    },
    {
      "constant": true,
      "inputs": [
        {
          "name": "_symbol",
          "type": "bytes32"
        }
      ],
      "name": "getTotalFundedAmount",
      "outputs": [
        {
          "name": "",
          "type": "uint256"
        }
      ],
      "payable": false,
      "stateMutability": "view",
      "type": "function"
    },
    {
      "constant": true,
      "inputs": [],
      "name": "crowdsale",
      "outputs": [
        {
          "name": "",
          "type": "address"
        }
      ],
      "payable": false,
      "stateMutability": "view",
      "type": "function"
    },
    {
      "constant": true,
      "inputs": [],
      "name": "trancheTransferAllowed",
      "outputs": [
        {
          "name": "",
          "type": "bool"
        }
      ],
      "payable": false,
      "stateMutability": "view",
      "type": "function"
    },
    {
      "constant": true,
      "inputs": [],
      "name": "trancheFeePercent",
      "outputs": [
        {
          "name": "",
          "type": "uint256"
        }
      ],
      "payable": false,
      "stateMutability": "view",
      "type": "function"
    },
    {
      "constant": true,
      "inputs": [],
      "name": "getTrancheInvoice",
      "outputs": [
        {
          "name": "result",
          "type": "uint256[3]"
        }
      ],
      "payable": false,
      "stateMutability": "view",
      "type": "function"
    },
    {
      "constant": false,
      "inputs": [
        {
          "name": "_swap",
          "type": "address"
        }
      ],
      "name": "setSwap",
      "outputs": [],
      "payable": false,
      "stateMutability": "nonpayable",
      "type": "function"
    },
    {
      "constant": true,
      "inputs": [
        {
          "name": "_investor",
          "type": "address"
        }
      ],
      "name": "getInvestorFundedAssetsSymbols",
      "outputs": [
        {
          "name": "",
          "type": "bytes32[]"
        }
      ],
      "payable": false,
      "stateMutability": "view",
      "type": "function"
    },
    {
      "constant": true,
      "inputs": [],
      "name": "totalTokenBought",
      "outputs": [
        {
          "name": "",
          "type": "uint256"
        }
      ],
      "payable": false,
      "stateMutability": "view",
      "type": "function"
    },
    {
      "constant": false,
      "inputs": [
        {
          "name": "investor",
          "type": "address"
        },
        {
          "name": "tokenAmount",
          "type": "uint256"
        },
        {
          "name": "symbol",
          "type": "bytes32"
        },
        {
          "name": "cost",
          "type": "uint256"
        },
        {
          "name": "costUSD",
          "type": "uint256"
        }
      ],
      "name": "recordPurchase",
      "outputs": [],
      "payable": true,
      "stateMutability": "payable",
      "type": "function"
    },
    {
      "constant": true,
      "inputs": [
        {
          "name": "_investor",
          "type": "address"
        },
        {
          "name": "_symbol",
          "type": "bytes32"
        }
      ],
      "name": "getInvestorFundedAmount",
      "outputs": [
        {
          "name": "",
          "type": "uint256"
        }
      ],
      "payable": false,
      "stateMutability": "view",
      "type": "function"
    },
    {
      "constant": false,
      "inputs": [
        {
          "name": "_newOwner",
          "type": "address"
        }
      ],
      "name": "transferOwnership",
      "outputs": [],
      "payable": false,
      "stateMutability": "nonpayable",
      "type": "function"
    },
    {
      "constant": true,
      "inputs": [],
      "name": "totalTokenRefunded",
      "outputs": [
        {
          "name": "",
          "type": "uint256"
        }
      ],
      "payable": false,
      "stateMutability": "view",
      "type": "function"
    },
    {
      "inputs": [
        {
          "name": "version",
          "type": "uint256"
        },
        {
          "name": "crowdsaleAddress",
          "type": "address"
        },
        {
          "name": "swapAddress",
          "type": "address"
        },
        {
          "name": "wTokenAddress",
          "type": "address"
        },
        {
          "name": "_serviceWallet",
          "type": "address"
        },
        {
          "name": "_trancheFeePercent",
          "type": "uint256"
        },
        {
          "name": "_rates",
          "type": "address"
        }
      ],
      "payable": false,
      "stateMutability": "nonpayable",
      "type": "constructor"
    },
    {
      "payable": true,
      "stateMutability": "payable",
      "type": "fallback"
    },
    {
      "anonymous": false,
      "inputs": [
        {
          "indexed": true,
          "name": "investor",
          "type": "address"
        },
        {
          "indexed": false,
          "name": "tokenAmount",
          "type": "uint256"
        },
        {
          "indexed": false,
          "name": "symbol",
          "type": "bytes32"
        },
        {
          "indexed": false,
          "name": "cost",
          "type": "uint256"
        }
      ],
      "name": "FundsReceived",
      "type": "event"
    },
    {
      "anonymous": false,
      "inputs": [
        {
          "indexed": true,
          "name": "investor",
          "type": "address"
        },
        {
          "indexed": false,
          "name": "symbol",
          "type": "bytes32"
        },
        {
          "indexed": false,
          "name": "amount",
          "type": "uint256"
        }
      ],
      "name": "AssetRefunded",
      "type": "event"
    },
    {
      "anonymous": false,
      "inputs": [
        {
          "indexed": true,
          "name": "investor",
          "type": "address"
        },
        {
          "indexed": false,
          "name": "tokenAmount",
          "type": "uint256"
        }
      ],
      "name": "TokenRefunded",
      "type": "event"
    },
    {
      "anonymous": false,
      "inputs": [
        {
          "indexed": true,
          "name": "receiver",
          "type": "address"
        },
        {
          "indexed": false,
          "name": "symbol",
          "type": "bytes32"
        },
        {
          "indexed": false,
          "name": "amount",
          "type": "uint256"
        }
      ],
      "name": "TrancheTransferred",
      "type": "event"
    },
    {
      "anonymous": false,
      "inputs": [
        {
          "indexed": true,
          "name": "receiver",
          "type": "address"
        },
        {
          "indexed": false,
          "name": "percent",
          "type": "uint256"
        }
      ],
      "name": "TrancheReleased",
      "type": "event"
    },
    {
      "anonymous": false,
      "inputs": [
        {
          "indexed": true,
          "name": "previousOwner",
          "type": "address"
        }
      ],
      "name": "OwnershipRenounced",
      "type": "event"
    },
    {
      "anonymous": false,
      "inputs": [
        {
          "indexed": true,
          "name": "previousOwner",
          "type": "address"
        },
        {
          "indexed": true,
          "name": "newOwner",
          "type": "address"
        }
      ],
      "name": "OwnershipTransferred",
      "type": "event"
    },
    {
      "constant": false,
      "inputs": [
        {
          "name": "_symbol",
          "type": "bytes32"
        },
        {
          "name": "_amount",
          "type": "uint256"
        }
      ],
      "name": "_outFunds",
      "outputs": [],
      "payable": false,
      "stateMutability": "nonpayable",
      "type": "function"
    }
  ],
  "bytecode": "0x608060405260016002553480156200001657600080fd5b5060405160e0806200354083398101604090815281516020830151918301516060840151608085015160a086015160c090960151600085905560018054600160a060020a0319163317905593959293919290918682826200008582640100000000620032876200013982021704565b8015620000aa57506064620000a883640100000000620032ac6200017682021704565b105b1515620000b657600080fd5b600160a060020a0381161515620000cc57600080fd5b60058054600160a060020a0319908116600160a060020a03938416179091556003805482169a83169a909a17909955600680548a16988216989098179097555050600480548716948616949094179093556008556007805490941692169190911790915550620002229050565b60006200014e640100000000620001c8810204565b82101580156200017057506200016c640100000000620001cd810204565b8211155b92915050565b60006200018c8264010000000062000139810204565b15156200019857600080fd5b62000170620001af640100000000620001ea810204565b8390600a0a640100000000620031e8620001ef82021704565b600090565b6000620001e264010000000062000205810204565b600a0a905090565b600290565b60008183811515620001fd57fe5b049392505050565b60006200021a640100000000620001ea810204565b600201905090565b61330e80620002326000396000f3006080604052600436106101715763ffffffff60e060020a600035041663015dd28c81146101735780630babd864146101d857806319ae48ed1461020957806323585f961461023057806323bffccc1461025c578063278ecde11461027d57806343f48fbd14610295578063483a20b2146102aa5780634992a352146102cb57806354fd4d50146102e65780635641f3c3146102fb5780636b90d6d2146103105780636ebc0af114610325578063715018a61461033a5780637a1c2da31461034f5780638119c065146103675780638429fffe1461037c5780638da5cb5b146103915780639124a789146103a65780639ab269a6146103c75780639c1e03a0146103df5780639e80baac146103f4578063a328665a14610409578063a3b768e11461041e578063acb3c0731461046b578063adb9dd081461048c578063b4105a3e146104ad578063d0baf2f5146104c2578063f206cb64146104e2578063f2fde38b14610506578063fb2814c414610527575b005b34801561017f57600080fd5b5061018861053c565b60408051602080825283518183015283519192839290830191858101910280838360005b838110156101c45781810151838201526020016101ac565b505050509050019250505060405180910390f35b3480156101e457600080fd5b506101ed610623565b60408051600160a060020a039092168252519081900360200190f35b34801561021557600080fd5b5061021e610632565b60408051918252519081900360200190f35b34801561023c57600080fd5b50610248600435610638565b604080519115158252519081900360200190f35b34801561026857600080fd5b50610171600160a060020a036004351661064d565b34801561028957600080fd5b506101716004356106a8565b3480156102a157600080fd5b506101ed610964565b3480156102b657600080fd5b50610171600160a060020a0360043516610973565b3480156102d757600080fd5b50610171600435602435610aff565b3480156102f257600080fd5b5061021e610e0b565b34801561030757600080fd5b506101ed610e11565b34801561031c57600080fd5b50610248610e20565b34801561033157600080fd5b50610171611035565b34801561034657600080fd5b506101716111f5565b34801561035b57600080fd5b5061021e600435611263565b34801561037357600080fd5b506101ed611275565b34801561038857600080fd5b50610248611284565b34801561039d57600080fd5b506101ed61149d565b3480156103b257600080fd5b5061021e600160a060020a03600435166114ac565b3480156103d357600080fd5b5061021e6004356114c7565b3480156103eb57600080fd5b506101ed6114e0565b34801561040057600080fd5b506102486114ef565b34801561041557600080fd5b5061021e6115a2565b34801561042a57600080fd5b506104336115a8565b6040518082606080838360005b83811015610458578181015183820152602001610440565b5050505090500191505060405180910390f35b34801561047757600080fd5b50610171600160a060020a0360043516611b7c565b34801561049857600080fd5b50610188600160a060020a0360043516611bd7565b3480156104b957600080fd5b5061021e611cd4565b610171600160a060020a0360043516602435604435606435608435611cda565b3480156104ee57600080fd5b5061021e600160a060020a03600435166024356120b4565b34801561051257600080fd5b50610171600160a060020a03600435166120e3565b34801561053357600080fd5b5061021e612106565b6060600b73__FundAccount___________________________6320e1e1d190916040518263ffffffff1660e060020a0281526004018082815260200191505060006040518083038186803b15801561059357600080fd5b505af41580156105a7573d6000803e3d6000fd5b505050506040513d6000823e601f3d908101601f1916820160405260208110156105d057600080fd5b8101908080516401000000008111156105e857600080fd5b820160208101848111156105fb57600080fd5b815185602082028301116401000000008211171561061857600080fd5b509094505050505090565b600454600160a060020a031681565b60095481565b600a6020526000908152604090205460ff1681565b600154600160a060020a0316331461066457600080fd5b600160a060020a038116151561067957600080fd5b6007805473ffffffffffffffffffffffffffffffffffffffff1916600160a060020a0392909216919091179055565b6002546001146106b757600080fd5b600280556106c3610e20565b15156106ce57600080fd5b8015156106da57600080fd5b336000908152601160205260409020548111156106f657600080fd5b600480546040805160e060020a6370a082310281523393810193909352518392600160a060020a03909216916370a082319160248083019260209291908290030181600087803b15801561074957600080fd5b505af115801561075d573d6000803e3d6000fd5b505050506040513d602081101561077357600080fd5b5051101561078057600080fd5b60048054604080517fdd62ed3e0000000000000000000000000000000000000000000000000000000081523393810193909352306024840152518392600160a060020a039092169163dd62ed3e9160448083019260209291908290030181600087803b1580156107ef57600080fd5b505af1158015610803573d6000803e3d6000fd5b505050506040513d602081101561081957600080fd5b5051101561082657600080fd5b61082f8161210c565b601054610842908263ffffffff61278e16565b60105533600090815260116020526040902054610865908263ffffffff61279b16565b336000818152601160209081526040808320949094556004805460065486517f23b872dd00000000000000000000000000000000000000000000000000000000815292830195909552600160a060020a03948516602483015260448201879052945194909316936323b872dd93606480820194918390030190829087803b1580156108ef57600080fd5b505af1158015610903573d6000803e3d6000fd5b505050506040513d602081101561091957600080fd5b5051151561092657600080fd5b60408051828152905133917fb7feb6c1d7169f40790388a31c0160d8f962a2b6c31970c28bd8cdfefa25ea29919081900360200190a2506001600255565b600554600160a060020a031681565b600154600160a060020a0316331461098a57600080fd5b600160a060020a038116151561099f57600080fd5b6000600160a060020a031681600160a060020a0316634090cb646040518163ffffffff1660e060020a028152600401602060405180830381600087803b1580156109e857600080fd5b505af11580156109fc573d6000803e3d6000fd5b505050506040513d6020811015610a1257600080fd5b5051600160a060020a03161415610a2857600080fd5b6003805473ffffffffffffffffffffffffffffffffffffffff1916600160a060020a038316908117909155604080517f4090cb640000000000000000000000000000000000000000000000000000000081529051634090cb64916004808201926020929091908290030181600087803b158015610aa457600080fd5b505af1158015610ab8573d6000803e3d6000fd5b505050506040513d6020811015610ace57600080fd5b50516004805473ffffffffffffffffffffffffffffffffffffffff1916600160a060020a0390921691909117905550565b60eb60020a6208aa8902821415610b51573031811115610b1e57600080fd5b604051339082156108fc029083906000818181858888f19350505050158015610b4b573d6000803e3d6000fd5b50610e07565b60ea60020a621554d1028214610e07576005546040805160e060020a63cfec719f028152600481018590529051600160a060020a039092169163cfec719f916024808201926020929091908290030181600087803b158015610bb257600080fd5b505af1158015610bc6573d6000803e3d6000fd5b505050506040513d6020811015610bdc57600080fd5b50511515610be957600080fd5b6005546040805160e460020a630b12e4410281526004810185905290518392600160a060020a03169163b12e44109160248083019260209291908290030181600087803b158015610c3957600080fd5b505af1158015610c4d573d6000803e3d6000fd5b505050506040513d6020811015610c6357600080fd5b50516040805160e060020a6370a082310281523060048201529051600160a060020a03909216916370a08231916024808201926020929091908290030181600087803b158015610cb257600080fd5b505af1158015610cc6573d6000803e3d6000fd5b505050506040513d6020811015610cdc57600080fd5b50511015610ce957600080fd5b6005546040805160e460020a630b12e441028152600481018590529051600160a060020a039092169163b12e4410916024808201926020929091908290030181600087803b158015610d3a57600080fd5b505af1158015610d4e573d6000803e3d6000fd5b505050506040513d6020811015610d6457600080fd5b5051604080517fa9059cbb000000000000000000000000000000000000000000000000000000008152336004820152602481018490529051600160a060020a039092169163a9059cbb916044808201926020929091908290030181600087803b158015610dd057600080fd5b505af1158015610de4573d6000803e3d6000fd5b505050506040513d6020811015610dfa57600080fd5b50511515610e0757600080fd5b5050565b60005481565b600754600160a060020a031681565b600354604080517fd6d65f3d00000000000000000000000000000000000000000000000000000000815281516000938493849384938493600160a060020a03169263d6d65f3d926004808201939182900301818787803b158015610e8357600080fd5b505af1158015610e97573d6000803e3d6000fd5b505050506040513d6040811015610ead57600080fd5b5080516020909101519094509250831515610ec75761102e565b6003546040805160e060020a632442e1cb028152600481018790529051600160a060020a0390921691632442e1cb9160248082019260009290919082900301818387803b158015610f1757600080fd5b505af1158015610f2b573d6000803e3d6000fd5b505050506040513d6000823e601f3d908101601f1916820160405260c0811015610f5457600080fd5b815160208301516040840151606085015160808601805194969395929491939283019291640100000000811115610f8a57600080fd5b82016020810184811115610f9d57600080fd5b8151640100000000811182820187101715610fb757600080fd5b50509291906020018051640100000000811115610fd357600080fd5b82016020810184811115610fe657600080fd5b815164010000000081118282018710171561100057600080fd5b50509291905050505050935050509150428263ffffffff161115801561102b57508063ffffffff1642105b94505b5050505090565b61103d613268565b600154600160a060020a0316331461105457600080fd5b60025460011461106357600080fd5b6002805561106f6114ef565b151561107a57600080fd5b6110826115a8565b805190915060001061109357600080fd5b6040805160e060020a6320e1e1d1028152600b6004820152905173__FundAccount___________________________916320e1e1d1916024808301926000929190829003018186803b1580156110e857600080fd5b505af41580156110fc573d6000803e3d6000fd5b505050506040513d6000823e601f3d908101601f19168201604052602081101561112557600080fd5b81019080805164010000000081111561113d57600080fd5b8201602081018481111561115057600080fd5b815185602082028301116401000000008211171561116d57600080fd5b5050511515925061118091505057600080fd5b6040818101516000908152600a60205220805460ff1916600117905580516009546111aa9161278e565b6009556111b6816127ad565b8051604080519182525133917f4a966617f50ccad97beb624d8e13820bf2a745e1640fed943858499286fc9829919081900360200190a2506001600255565b600154600160a060020a0316331461120c57600080fd5b600154604051600160a060020a03909116907ff8df31144d9c2f0f6b59d69b8b98abd5459d07f2742c4df920b25aae33c6482090600090a26001805473ffffffffffffffffffffffffffffffffffffffff19169055565b6000908152600e602052604090205490565b600654600160a060020a031681565b600354604080517fd6d65f3d00000000000000000000000000000000000000000000000000000000815281516000938493849384938493600160a060020a03169263d6d65f3d926004808201939182900301818787803b1580156112e757600080fd5b505af11580156112fb573d6000803e3d6000fd5b505050506040513d604081101561131157600080fd5b508051602090910151909450925083158061132a575082155b156113345761102e565b6003546040805160e060020a632442e1cb028152600481018790529051600160a060020a0390921691632442e1cb9160248082019260009290919082900301818387803b15801561138457600080fd5b505af1158015611398573d6000803e3d6000fd5b505050506040513d6000823e601f3d908101601f1916820160405260c08110156113c157600080fd5b8151602083015160408401516060850151608086018051949693959294919392830192916401000000008111156113f757600080fd5b8201602081018481111561140a57600080fd5b815164010000000081118282018710171561142457600080fd5b5050929190602001805164010000000081111561144057600080fd5b8201602081018481111561145357600080fd5b815164010000000081118282018710171561146d57600080fd5b50509291905050505050935050509150428263ffffffff16118061102b575063ffffffff16421015949350505050565b600154600160a060020a031681565b600160a060020a031660009081526011602052604090205490565b60006114da600b8363ffffffff612f4f16565b92915050565b600354600160a060020a031681565b6000806000600360009054906101000a9004600160a060020a0316600160a060020a031663d6d65f3d6040518163ffffffff1660e060020a0281526004016040805180830381600087803b15801561154657600080fd5b505af115801561155a573d6000803e3d6000fd5b505050506040513d604081101561157057600080fd5b508051602090910151909250905080151561158a5761159d565b81158061159a575061159a611284565b92505b505090565b60085481565b6115b0613268565b60008060008060008060008060006115c66114ef565b15156115d157611b70565b600354604080517fd6d65f3d0000000000000000000000000000000000000000000000000000000081528151600160a060020a039093169263d6d65f3d926004808401939192918290030181600087803b15801561162e57600080fd5b505af1158015611642573d6000803e3d6000fd5b505050506040513d604081101561165857600080fd5b5051600354604080517f14f66d340000000000000000000000000000000000000000000000000000000081528151939c50600160a060020a03909216926314f66d349260048082019392918290030181600087803b1580156116b957600080fd5b505af11580156116cd573d6000803e3d6000fd5b505050506040513d60408110156116e357600080fd5b50516003546040805160e060020a632442e1cb028152600481018490529051929a50600160a060020a0390911691632442e1cb9160248082019260009290919082900301818387803b15801561173857600080fd5b505af115801561174c573d6000803e3d6000fd5b505050506040513d6000823e601f3d908101601f1916820160405260c081101561177557600080fd5b8151602083015160408401516060850151608086018051949693959294919392830192916401000000008111156117ab57600080fd5b820160208101848111156117be57600080fd5b81516401000000008111828201871017156117d857600080fd5b505092919060200180516401000000008111156117f457600080fd5b8201602081018481111561180757600080fd5b815164010000000081118282018710171561182157600080fd5b505092919050505050509950505050886000148061183e57508888145b61184b576001890361184d565b885b6003546040805160e060020a632442e1cb028152600481018490529051929b50600160a060020a0390911691632442e1cb9160248082019260009290919082900301818387803b1580156118a057600080fd5b505af11580156118b4573d6000803e3d6000fd5b505050506040513d6000823e601f3d908101601f1916820160405260c08110156118dd57600080fd5b81516020830151604084015160608501516080860180519496939592949193928301929164010000000081111561191357600080fd5b8201602081018481111561192657600080fd5b815164010000000081118282018710171561194057600080fd5b5050929190602001805164010000000081111561195c57600080fd5b8201602081018481111561196f57600080fd5b815164010000000081118282018710171561198957600080fd5b50509291905050505050975050965050600a60008a815260200190815260200160002060009054906101000a900460ff16935083156119c757611b70565b8892505b6000831115611b3c576003546040805160e060020a632442e1cb0281526000199095016004860181905290519094600160a060020a0390921691632442e1cb91602480830192600092919082900301818387803b158015611a2b57600080fd5b505af1158015611a3f573d6000803e3d6000fd5b505050506040513d6000823e601f3d908101601f1916820160405260c0811015611a6857600080fd5b815160208301516040840151606085015160808601805194969395929491939283019291640100000000811115611a9e57600080fd5b82016020810184811115611ab157600080fd5b8151640100000000811182820187101715611acb57600080fd5b50509291906020018051640100000000811115611ae757600080fd5b82016020810184811115611afa57600080fd5b8151640100000000811182820187101715611b1457600080fd5b50979950611b3598508a97508996505063ffffffff61278e16945050505050565b91506119cb565b600954611b5f90611b53888563ffffffff61278e16565b9063ffffffff61279b16565b8a5260208a0182905260408a018990525b50505050505050505090565b600154600160a060020a03163314611b9357600080fd5b600160a060020a0381161515611ba857600080fd5b6006805473ffffffffffffffffffffffffffffffffffffffff1916600160a060020a0392909216919091179055565b600160a060020a038116600090815260126020526040808220815160e060020a6320e1e1d10281526004810191909152905160609273__FundAccount___________________________926320e1e1d19260248083019392829003018186803b158015611c4357600080fd5b505af4158015611c57573d6000803e3d6000fd5b505050506040513d6000823e601f3d908101601f191682016040526020811015611c8057600080fd5b810190808051640100000000811115611c9857600080fd5b82016020810184811115611cab57600080fd5b8151856020820283011164010000000082111715611cc857600080fd5b50909695505050505050565b600f5481565b600354600160a060020a031660008511611cf357600080fd5b60008311611d0057600080fd5b60008211611d0d57600080fd5b600160a060020a0386161515611d2257600080fd5b600554604080517f7d20abf8000000000000000000000000000000000000000000000000000000008152600481018790529051600160a060020a0390921691637d20abf8916024808201926020929091908290030181600087803b158015611d8957600080fd5b505af1158015611d9d573d6000803e3d6000fd5b505050506040513d6020811015611db357600080fd5b50511515611dc057600080fd5b60eb60020a6208aa8902841415611de35734831115611dde57600080fd5b611f8d565b6005546040805160e060020a63cfec719f028152600481018790529051600160a060020a039092169163cfec719f916024808201926020929091908290030181600087803b158015611e3457600080fd5b505af1158015611e48573d6000803e3d6000fd5b505050506040513d6020811015611e5e57600080fd5b50511515611e6b57600080fd5b611e8c83611e80600b8763ffffffff612f4f16565b9063ffffffff61278e16565b6005546040805160e460020a630b12e441028152600481018890529051600160a060020a039092169163b12e4410916024808201926020929091908290030181600087803b158015611edd57600080fd5b505af1158015611ef1573d6000803e3d6000fd5b505050506040513d6020811015611f0757600080fd5b50516040805160e060020a6370a082310281523060048201529051600160a060020a03909216916370a08231916024808201926020929091908290030181600087803b158015611f5657600080fd5b505af1158015611f6a573d6000803e3d6000fd5b505050506040513d6020811015611f8057600080fd5b50511015611f8d57600080fd5b600160a060020a038616600090815260116020526040902054611fb6908663ffffffff61278e16565b600160a060020a0387166000908152601160209081526040808320939093556012905220611feb90858563ffffffff612f6516565b600160a060020a038616600090815260126020526040902061201d9060ea60020a621554d1028463ffffffff612f6516565b600f54612030908663ffffffff61278e16565b600f55612045600b858563ffffffff612f6516565b612060600b60ea60020a621554d1028463ffffffff612f6516565b60408051868152602081018690528082018590529051600160a060020a038816917fe2d0f4d539cb385db666a31aa9b27fd786afc933dc82ca8518d045424d6fa882919081900360600190a2505050505050565b600160a060020a03821660009081526012602052604081206120dc908363ffffffff612f4f16565b9392505050565b600154600160a060020a031633146120fa57600080fd5b61210381612fa5565b50565b60105481565b33600090815260126020526040808220815160e060020a6320e1e1d102815260048101919091529051829182918291829173__FundAccount___________________________916320e1e1d19160248083019286929190829003018186803b15801561217757600080fd5b505af415801561218b573d6000803e3d6000fd5b505050506040513d6000823e601f3d908101601f1916820160405260208110156121b457600080fd5b8101908080516401000000008111156121cc57600080fd5b820160208101848111156121df57600080fd5b81518560208202830111640100000000821117156121fc57600080fd5b50505197505050505b84156127865733600090815260126020526040808220815160e060020a6320e1e1d10281526004810191909152905173__FundAccount___________________________926320e1e1d19260248082019391829003018186803b15801561226b57600080fd5b505af415801561227f573d6000803e3d6000fd5b505050506040513d6000823e601f3d908101601f1916820160405260208110156122a857600080fd5b8101908080516401000000008111156122c057600080fd5b820160208101848111156122d357600080fd5b81518560208202830111640100000000821117156122f057600080fd5b50508051600019909901989093508892508210905061230b57fe5b602090810290910181015133600090815260129092526040909120909450612339908563ffffffff612f4f16565b925082151561234757612205565b336000908152601160205260409020546123649087908590613023565b91506000821161237357600080fd5b6009546123979061238b600b8763ffffffff612f4f16565b9063ffffffff61314b16565b90506123c86123b182611b53600b8863ffffffff612f4f16565b836123c3600b8863ffffffff612f4f16565b613023565b9250600083116123d757600080fd5b6000848152600e60205260409020546123f6908463ffffffff61278e16565b6000858152600e6020908152604080832093909355338252601290522061242490858463ffffffff61315a16565b60ea60020a621554d10284141561243a57612205565b60eb60020a6208aa890284146125d7576005546040805160e060020a63cfec719f028152600481018790529051600160a060020a039092169163cfec719f916024808201926020929091908290030181600087803b15801561249b57600080fd5b505af11580156124af573d6000803e3d6000fd5b505050506040513d60208110156124c557600080fd5b505115156124d257600080fd5b6005546040805160e460020a630b12e4410281526004810187905290518592600160a060020a03169163b12e44109160248083019260209291908290030181600087803b15801561252257600080fd5b505af1158015612536573d6000803e3d6000fd5b505050506040513d602081101561254c57600080fd5b50516040805160e060020a6370a082310281523060048201529051600160a060020a03909216916370a08231916024808201926020929091908290030181600087803b15801561259b57600080fd5b505af11580156125af573d6000803e3d6000fd5b505050506040513d60208110156125c557600080fd5b505110156125d257600080fd5b6125e5565b30318311156125e557600080fd5b60eb60020a6208aa890284141561262957604051339084156108fc029085906000818181858888f19350505050158015612623573d6000803e3d6000fd5b50612747565b6005546040805160e460020a630b12e441028152600481018790529051600160a060020a039092169163b12e4410916024808201926020929091908290030181600087803b15801561267a57600080fd5b505af115801561268e573d6000803e3d6000fd5b505050506040513d60208110156126a457600080fd5b5051604080517fa9059cbb000000000000000000000000000000000000000000000000000000008152336004820152602481018690529051600160a060020a039092169163a9059cbb916044808201926020929091908290030181600087803b15801561271057600080fd5b505af1158015612724573d6000803e3d6000fd5b505050506040513d602081101561273a57600080fd5b5051151561274757600080fd5b6040805185815260208101859052815133927fd434f0d1dd08e14b2acdd7a506c6e8b6edaf1a5825d23ca9b5e51a9ad883f71c928290030190a2612205565b505050505050565b818101828110156114da57fe5b6000828211156127a757fe5b50900390565b6000806000806000600b73__FundAccount___________________________6320e1e1d190916040518263ffffffff1660e060020a0281526004018082815260200191505060006040518083038186803b15801561280a57600080fd5b505af415801561281e573d6000803e3d6000fd5b505050506040513d6000823e601f3d908101601f19168201604052602081101561284757600080fd5b81019080805164010000000081111561285f57600080fd5b8201602081018481111561287257600080fd5b815185602082028301116401000000008211171561288f57600080fd5b50505197505050505b8415612786576040805160e060020a6320e1e1d1028152600b6004820152905173__FundAccount___________________________916320e1e1d1916024808301926000929190829003018186803b1580156128f357600080fd5b505af4158015612907573d6000803e3d6000fd5b505050506040513d6000823e601f3d908101601f19168201604052602081101561293057600080fd5b81019080805164010000000081111561294857600080fd5b8201602081018481111561295b57600080fd5b815185602082028301116401000000008211171561297857600080fd5b50508051600019909901989093508892508210905061299357fe5b6020908102909101015193506129b0600b8563ffffffff612f4f16565b92508215156129be57612898565b85516129cb90849061314b565b9150600082116129da57600080fd5b6129fd6129f4601054600f5461279b90919063ffffffff16565b83600f54613023565b925060008311612a0c57600080fd5b6000848152600e6020526040902054612a2b908463ffffffff61278e16565b6000858152600e602052604090205560ea60020a621554d102841415612a5057612898565b60eb60020a6208aa89028414612be8576005546040805160e060020a63cfec719f028152600481018790529051600160a060020a039092169163cfec719f916024808201926020929091908290030181600087803b158015612ab157600080fd5b505af1158015612ac5573d6000803e3d6000fd5b505050506040513d6020811015612adb57600080fd5b50511515612ae857600080fd5b6005546040805160e460020a630b12e4410281526004810187905290518592600160a060020a03169163b12e44109160248083019260209291908290030181600087803b158015612b3857600080fd5b505af1158015612b4c573d6000803e3d6000fd5b505050506040513d6020811015612b6257600080fd5b50516040805160e060020a6370a082310281523060048201529051600160a060020a03909216916370a08231916024808201926020929091908290030181600087803b158015612bb157600080fd5b505af1158015612bc5573d6000803e3d6000fd5b505050506040513d6020811015612bdb57600080fd5b50511015612be857600080fd5b600060085411612bf9576000612c0d565b600854612c0d90849063ffffffff61314b16565b905060006008541115612c275760008111612c2757600080fd5b60eb60020a6208aa8902841415612cbf576000811115612c7d57600754604051600160a060020a039091169082156108fc029083906000818181858888f19350505050158015612c7b573d6000803e3d6000fd5b505b336108fc612c91858463ffffffff61279b16565b6040518115909202916000818181858888f19350505050158015612cb9573d6000803e3d6000fd5b50612f10565b6000811115612deb576005546040805160e460020a630b12e441028152600481018790529051600160a060020a039092169163b12e4410916024808201926020929091908290030181600087803b158015612d1957600080fd5b505af1158015612d2d573d6000803e3d6000fd5b505050506040513d6020811015612d4357600080fd5b5051600754604080517fa9059cbb000000000000000000000000000000000000000000000000000000008152600160a060020a039283166004820152602481018590529051919092169163a9059cbb9160448083019260209291908290030181600087803b158015612db457600080fd5b505af1158015612dc8573d6000803e3d6000fd5b505050506040513d6020811015612dde57600080fd5b50511515612deb57600080fd5b6005546040805160e460020a630b12e441028152600481018790529051600160a060020a039092169163b12e4410916024808201926020929091908290030181600087803b158015612e3c57600080fd5b505af1158015612e50573d6000803e3d6000fd5b505050506040513d6020811015612e6657600080fd5b5051600160a060020a031663a9059cbb33612e87868563ffffffff61279b16565b6040518363ffffffff1660e060020a0281526004018083600160a060020a0316600160a060020a0316815260200182815260200192505050602060405180830381600087803b158015612ed957600080fd5b505af1158015612eed573d6000803e3d6000fd5b505050506040513d6020811015612f0357600080fd5b50511515612f1057600080fd5b6040805185815260208101859052815133927f17e68c82fdc39ec76fff0be24ead989575d8eec009a729fa4bd738bc1f6a2dbb928290030190a2612898565b6000908152600291909101602052604090205490565b612f6f83836131a6565b6000828152600284016020526040902054612f90908263ffffffff61278e16565b60009283526002909301602052506040902055565b600160a060020a0381161515612fba57600080fd5b600154604051600160a060020a038084169216907f8be0079c531659141344cd1fd0a4f28419497f9722a3daafe3b4186f6b6457e090600090a36001805473ffffffffffffffffffffffffffffffffffffffff1916600160a060020a0392909216919091179055565b60008080808085151561303257fe5b87158061303d575086155b1561304757613140565b6130596000198863ffffffff6131e816565b925082881161308957613082866130768a8a63ffffffff6131fd16565b9063ffffffff6131e816565b9450613140565b8588141561309957869450613140565b858714156130a957879450613140565b871561312a578783116130bc57826130be565b875b91506130d0828863ffffffff6131fd16565b90506130f26130e5828863ffffffff6131e816565b869063ffffffff61278e16565b9450613111868281151561310257fe5b8691900663ffffffff61278e16565b9350613123888363ffffffff61279b16565b97506130a9565b61313d6130e5858863ffffffff6131e816565b94505b505050509392505050565b60006120dc83836123c3613226565b6131648383613238565b151561316f57600080fd5b8061317a8484612f4f565b101561318557600080fd5b6000828152600284016020526040902054612f90908263ffffffff61279b16565b6131b08282613238565b1515610e075781546001808201845560008481526020808220909301849055928352928301905260409020805460ff19169091179055565b600081838115156131f557fe5b049392505050565b600082151561320e575060006114da565b5081810281838281151561321e57fe5b04146114da57fe5b6000613230613251565b600a0a905090565b6000908152600191909101602052604090205460ff1690565b600061325b613263565b600201905090565b600290565b6060604051908101604052806003906020820280388339509192915050565b60006132916132dd565b82101580156114da57506132a3613226565b90911115919050565b60006132b782613287565b15156132c257600080fd5b6114da6132cd613263565b8390600a0a63ffffffff6131e816565b6000905600a165627a7a72305820e8f0c400ad73955ae8688f3047a2b66ed5523274f64a6803c1c6618694e439c90029",
  "source": "pragma solidity ^0.4.24;\n\nimport \"openzeppelin-solidity/contracts/token/ERC20/ERC20.sol\";\nimport \"../../rates/IRates.sol\";\nimport \"../../crowdsale/W12Fund.sol\";\nimport \"../../token/IWToken.sol\";\n\n\ncontract W12FundStub is W12Fund {\n    constructor (\n        uint version,\n        address crowdsaleAddress,\n        address swapAddress,\n        address wTokenAddress,\n        address _serviceWallet,\n        uint _trancheFeePercent,\n        IRates _rates\n    )\n        W12Fund(version, _trancheFeePercent, _rates) public\n    {\n        crowdsale = IW12Crowdsale(crowdsaleAddress);\n        swap = swapAddress;\n        wToken = IWToken(wTokenAddress);\n        trancheFeePercent = _trancheFeePercent;\n        serviceWallet = _serviceWallet;\n    }\n\n//    function _setTotalFunded(uint amount) external {\n//        totalFunded = amount;\n//    }\n//\n//    function _setTotalRefunded(uint amount) external {\n//        totalRefunded = amount;\n//    }\n\n    function() payable external {}\n\n    function _outFunds(bytes32 _symbol, uint _amount) external {\n        if (_symbol == METHOD_ETH) {\n            require(address(this).balance >= _amount);\n            msg.sender.transfer(_amount);\n        } else if(_symbol != METHOD_USD) {\n            require(rates.isToken(_symbol));\n            require(ERC20(rates.getTokenAddress(_symbol)).balanceOf(address(this)) >= _amount);\n            require(ERC20(rates.getTokenAddress(_symbol)).transfer(msg.sender, _amount));\n        }\n    }\n\n    // allow any sender\n    modifier onlyFrom(address sender) {\n        _;\n    }\n}\n",
  "sourcePath": "/home/circleci/code/contracts/mocks/crowdsale/W12FundStub.sol",
  "compiler": {
    "name": "solc",
    "version": "0.4.24+commit.e67f0147.Emscripten.clang"
  },
  "schemaVersion": "2.0.1",
  "updatedAt": "2018-10-22T07:59:52.073Z"
}