{
  "contractName": "W12FundStub",
  "abi": [
    {
      "constant": true,
      "inputs": [],
      "name": "getTotalFundedAssetsSymbols",
      "outputs": [
        {
          "name": "",
          "type": "bytes32[]"
        }
      ],
      "payable": false,
      "stateMutability": "view",
      "type": "function"
    },
    {
      "constant": true,
      "inputs": [],
      "name": "wToken",
      "outputs": [
        {
          "name": "",
          "type": "address"
        }
      ],
      "payable": false,
      "stateMutability": "view",
      "type": "function"
    },
    {
      "constant": true,
      "inputs": [],
      "name": "getServiceWallet",
      "outputs": [
        {
          "name": "",
          "type": "address"
        }
      ],
      "payable": false,
      "stateMutability": "view",
      "type": "function"
    },
    {
      "constant": false,
      "inputs": [
        {
          "name": "_account",
          "type": "address"
        }
      ],
      "name": "removeAdmin",
      "outputs": [],
      "payable": false,
      "stateMutability": "nonpayable",
      "type": "function"
    },
    {
      "constant": true,
      "inputs": [],
      "name": "totalTranchePercentReleased",
      "outputs": [
        {
          "name": "",
          "type": "uint256"
        }
      ],
      "payable": false,
      "stateMutability": "view",
      "type": "function"
    },
    {
      "constant": false,
      "inputs": [
        {
          "name": "recipient",
          "type": "address"
        }
      ],
      "name": "transferPrimary",
      "outputs": [],
      "payable": false,
      "stateMutability": "nonpayable",
      "type": "function"
    },
    {
      "constant": true,
      "inputs": [
        {
          "name": "milestoneIndex",
          "type": "uint256"
        }
      ],
      "name": "completedTranches",
      "outputs": [
        {
          "name": "",
          "type": "bool"
        }
      ],
      "payable": false,
      "stateMutability": "view",
      "type": "function"
    },
    {
      "constant": false,
      "inputs": [
        {
          "name": "_serviceWallet",
          "type": "address"
        }
      ],
      "name": "setServiceWallet",
      "outputs": [],
      "payable": false,
      "stateMutability": "nonpayable",
      "type": "function"
    },
    {
      "constant": true,
      "inputs": [
        {
          "name": "account",
          "type": "address"
        }
      ],
      "name": "isAdmin",
      "outputs": [
        {
          "name": "",
          "type": "bool"
        }
      ],
      "payable": false,
      "stateMutability": "view",
      "type": "function"
    },
    {
      "constant": false,
      "inputs": [
        {
          "name": "index",
          "type": "uint256"
        }
      ],
      "name": "tranche_index",
      "outputs": [],
      "payable": false,
      "stateMutability": "nonpayable",
      "type": "function"
    },
    {
      "constant": false,
      "inputs": [
        {
          "name": "tokenAmount",
          "type": "uint256"
        }
      ],
      "name": "refund",
      "outputs": [],
      "payable": false,
      "stateMutability": "nonpayable",
      "type": "function"
    },
    {
      "constant": true,
      "inputs": [
        {
          "name": "index",
          "type": "uint256"
        }
      ],
      "name": "getTrancheInvoiceIndex",
      "outputs": [
        {
          "name": "result",
          "type": "uint256[3]"
        }
      ],
      "payable": false,
      "stateMutability": "view",
      "type": "function"
    },
    {
      "constant": false,
      "inputs": [
        {
          "name": "_account",
          "type": "address"
        }
      ],
      "name": "addProjectOwner",
      "outputs": [],
      "payable": false,
      "stateMutability": "nonpayable",
      "type": "function"
    },
    {
      "constant": true,
      "inputs": [],
      "name": "rates",
      "outputs": [
        {
          "name": "",
          "type": "address"
        }
      ],
      "payable": false,
      "stateMutability": "view",
      "type": "function"
    },
    {
      "constant": false,
      "inputs": [
        {
          "name": "_crowdsale",
          "type": "address"
        }
      ],
      "name": "setCrowdsale",
      "outputs": [],
      "payable": false,
      "stateMutability": "nonpayable",
      "type": "function"
    },
    {
      "constant": true,
      "inputs": [],
      "name": "version",
      "outputs": [
        {
          "name": "",
          "type": "uint256"
        }
      ],
      "payable": false,
      "stateMutability": "view",
      "type": "function"
    },
    {
      "constant": true,
      "inputs": [
        {
          "name": "index",
          "type": "uint256"
        }
      ],
      "name": "trancheTransferAllowedIndex",
      "outputs": [
        {
          "name": "",
          "type": "bool"
        }
      ],
      "payable": false,
      "stateMutability": "view",
      "type": "function"
    },
    {
      "constant": true,
      "inputs": [],
      "name": "serviceWallet",
      "outputs": [
        {
          "name": "",
          "type": "address"
        }
      ],
      "payable": false,
      "stateMutability": "view",
      "type": "function"
    },
    {
      "constant": true,
      "inputs": [],
      "name": "tokenRefundAllowed",
      "outputs": [
        {
          "name": "",
          "type": "bool"
        }
      ],
      "payable": false,
      "stateMutability": "view",
      "type": "function"
    },
    {
      "constant": false,
      "inputs": [],
      "name": "tranche",
      "outputs": [],
      "payable": false,
      "stateMutability": "nonpayable",
      "type": "function"
    },
    {
      "constant": false,
      "inputs": [
        {
          "name": "_account",
          "type": "address"
        }
      ],
      "name": "addAdmin",
      "outputs": [],
      "payable": false,
      "stateMutability": "nonpayable",
      "type": "function"
    },
    {
      "constant": true,
      "inputs": [
        {
          "name": "_symbol",
          "type": "bytes32"
        }
      ],
      "name": "getTotalFundedReleased",
      "outputs": [
        {
          "name": "",
          "type": "uint256"
        }
      ],
      "payable": false,
      "stateMutability": "view",
      "type": "function"
    },
    {
      "constant": true,
      "inputs": [],
      "name": "swap",
      "outputs": [
        {
          "name": "",
          "type": "address"
        }
      ],
      "payable": false,
      "stateMutability": "view",
      "type": "function"
    },
    {
      "constant": true,
      "inputs": [],
      "name": "isWithdrawalWindowActive",
      "outputs": [
        {
          "name": "",
          "type": "bool"
        }
      ],
      "payable": false,
      "stateMutability": "view",
      "type": "function"
    },
    {
      "constant": false,
      "inputs": [],
      "name": "renounceAdmin",
      "outputs": [],
      "payable": false,
      "stateMutability": "nonpayable",
      "type": "function"
    },
    {
      "constant": true,
      "inputs": [
        {
          "name": "_investor",
          "type": "address"
        }
      ],
      "name": "getInvestorTokenBoughtAmount",
      "outputs": [
        {
          "name": "",
          "type": "uint256"
        }
      ],
      "payable": false,
      "stateMutability": "view",
      "type": "function"
    },
    {
      "constant": true,
      "inputs": [
        {
          "name": "_symbol",
          "type": "bytes32"
        }
      ],
      "name": "getTotalFundedAmount",
      "outputs": [
        {
          "name": "",
          "type": "uint256"
        }
      ],
      "payable": false,
      "stateMutability": "view",
      "type": "function"
    },
    {
      "constant": true,
      "inputs": [],
      "name": "crowdsale",
      "outputs": [
        {
          "name": "",
          "type": "address"
        }
      ],
      "payable": false,
      "stateMutability": "view",
      "type": "function"
    },
    {
      "constant": true,
      "inputs": [],
      "name": "trancheTransferAllowed",
      "outputs": [
        {
          "name": "",
          "type": "bool"
        }
      ],
      "payable": false,
      "stateMutability": "view",
      "type": "function"
    },
    {
      "constant": true,
      "inputs": [],
      "name": "trancheFeePercent",
      "outputs": [
        {
          "name": "",
          "type": "uint256"
        }
      ],
      "payable": false,
      "stateMutability": "view",
      "type": "function"
    },
    {
      "constant": true,
      "inputs": [],
      "name": "getTrancheInvoice",
      "outputs": [
        {
          "name": "result",
          "type": "uint256[3]"
        }
      ],
      "payable": false,
      "stateMutability": "view",
      "type": "function"
    },
    {
      "constant": false,
      "inputs": [
        {
          "name": "_swap",
          "type": "address"
        }
      ],
      "name": "setSwap",
      "outputs": [],
      "payable": false,
      "stateMutability": "nonpayable",
      "type": "function"
    },
    {
      "constant": true,
      "inputs": [
        {
          "name": "_investor",
          "type": "address"
        }
      ],
      "name": "getInvestorFundedAssetsSymbols",
      "outputs": [
        {
          "name": "",
          "type": "bytes32[]"
        }
      ],
      "payable": false,
      "stateMutability": "view",
      "type": "function"
    },
    {
      "constant": true,
      "inputs": [],
      "name": "totalTokenBought",
      "outputs": [
        {
          "name": "",
          "type": "uint256"
        }
      ],
      "payable": false,
      "stateMutability": "view",
      "type": "function"
    },
    {
      "constant": true,
      "inputs": [],
      "name": "primary",
      "outputs": [
        {
          "name": "",
          "type": "address"
        }
      ],
      "payable": false,
      "stateMutability": "view",
      "type": "function"
    },
    {
      "constant": false,
      "inputs": [],
      "name": "renounceProjectOwner",
      "outputs": [],
      "payable": false,
      "stateMutability": "nonpayable",
      "type": "function"
    },
    {
      "constant": false,
      "inputs": [
        {
          "name": "investor",
          "type": "address"
        },
        {
          "name": "tokenAmount",
          "type": "uint256"
        },
        {
          "name": "symbol",
          "type": "bytes32"
        },
        {
          "name": "cost",
          "type": "uint256"
        },
        {
          "name": "costUSD",
          "type": "uint256"
        }
      ],
      "name": "recordPurchase",
      "outputs": [],
      "payable": true,
      "stateMutability": "payable",
      "type": "function"
    },
    {
      "constant": false,
      "inputs": [
        {
          "name": "_account",
          "type": "address"
        }
      ],
      "name": "removeProjectOwner",
      "outputs": [],
      "payable": false,
      "stateMutability": "nonpayable",
      "type": "function"
    },
    {
      "constant": true,
      "inputs": [
        {
          "name": "account",
          "type": "address"
        }
      ],
      "name": "isProjectOwner",
      "outputs": [
        {
          "name": "",
          "type": "bool"
        }
      ],
      "payable": false,
      "stateMutability": "view",
      "type": "function"
    },
    {
      "constant": true,
      "inputs": [],
      "name": "ORACLE_ADDR",
      "outputs": [
        {
          "name": "",
          "type": "address"
        }
      ],
      "payable": false,
      "stateMutability": "view",
      "type": "function"
    },
    {
      "constant": true,
      "inputs": [
        {
          "name": "_investor",
          "type": "address"
        },
        {
          "name": "_symbol",
          "type": "bytes32"
        }
      ],
      "name": "getInvestorFundedAmount",
      "outputs": [
        {
          "name": "",
          "type": "uint256"
        }
      ],
      "payable": false,
      "stateMutability": "view",
      "type": "function"
    },
    {
      "constant": true,
      "inputs": [],
      "name": "totalTokenRefunded",
      "outputs": [
        {
          "name": "",
          "type": "uint256"
        }
      ],
      "payable": false,
      "stateMutability": "view",
      "type": "function"
    },
    {
      "inputs": [
        {
          "name": "version",
          "type": "uint256"
        },
        {
          "name": "crowdsaleAddress",
          "type": "address"
        },
        {
          "name": "swapAddress",
          "type": "address"
        },
        {
          "name": "wTokenAddress",
          "type": "address"
        },
        {
          "name": "_serviceWallet",
          "type": "address"
        },
        {
          "name": "_trancheFeePercent",
          "type": "uint256"
        },
        {
          "name": "_rates",
          "type": "address"
        }
      ],
      "payable": false,
      "stateMutability": "nonpayable",
      "type": "constructor"
    },
    {
      "payable": true,
      "stateMutability": "payable",
      "type": "fallback"
    },
    {
      "anonymous": false,
      "inputs": [
        {
          "indexed": true,
          "name": "investor",
          "type": "address"
        },
        {
          "indexed": false,
          "name": "tokenAmount",
          "type": "uint256"
        },
        {
          "indexed": false,
          "name": "symbol",
          "type": "bytes32"
        },
        {
          "indexed": false,
          "name": "cost",
          "type": "uint256"
        }
      ],
      "name": "FundsReceived",
      "type": "event"
    },
    {
      "anonymous": false,
      "inputs": [
        {
          "indexed": true,
          "name": "investor",
          "type": "address"
        },
        {
          "indexed": false,
          "name": "symbol",
          "type": "bytes32"
        },
        {
          "indexed": false,
          "name": "amount",
          "type": "uint256"
        }
      ],
      "name": "AssetRefunded",
      "type": "event"
    },
    {
      "anonymous": false,
      "inputs": [
        {
          "indexed": true,
          "name": "investor",
          "type": "address"
        },
        {
          "indexed": false,
          "name": "tokenAmount",
          "type": "uint256"
        }
      ],
      "name": "TokenRefunded",
      "type": "event"
    },
    {
      "anonymous": false,
      "inputs": [
        {
          "indexed": true,
          "name": "receiver",
          "type": "address"
        },
        {
          "indexed": false,
          "name": "symbol",
          "type": "bytes32"
        },
        {
          "indexed": false,
          "name": "amount",
          "type": "uint256"
        }
      ],
      "name": "TrancheTransferred",
      "type": "event"
    },
    {
      "anonymous": false,
      "inputs": [
        {
          "indexed": true,
          "name": "receiver",
          "type": "address"
        },
        {
          "indexed": false,
          "name": "percent",
          "type": "uint256"
        }
      ],
      "name": "TrancheReleased",
      "type": "event"
    },
    {
      "anonymous": false,
      "inputs": [
        {
          "indexed": false,
          "name": "recipient",
          "type": "address"
        }
      ],
      "name": "PrimaryTransferred",
      "type": "event"
    },
    {
      "anonymous": false,
      "inputs": [
        {
          "indexed": true,
          "name": "account",
          "type": "address"
        }
      ],
      "name": "ProjectOwnerAdded",
      "type": "event"
    },
    {
      "anonymous": false,
      "inputs": [
        {
          "indexed": true,
          "name": "account",
          "type": "address"
        }
      ],
      "name": "ProjectOwnerRemoved",
      "type": "event"
    },
    {
      "anonymous": false,
      "inputs": [
        {
          "indexed": true,
          "name": "account",
          "type": "address"
        }
      ],
      "name": "AdminAdded",
      "type": "event"
    },
    {
      "anonymous": false,
      "inputs": [
        {
          "indexed": true,
          "name": "account",
          "type": "address"
        }
      ],
      "name": "AdminRemoved",
      "type": "event"
    },
    {
      "constant": false,
      "inputs": [
        {
          "name": "_symbol",
          "type": "bytes32"
        },
        {
          "name": "_amount",
          "type": "uint256"
        }
      ],
      "name": "_outFunds",
      "outputs": [],
      "payable": false,
      "stateMutability": "nonpayable",
      "type": "function"
    }
  ],
  "bytecode": "0x608060405260158054600160a060020a0319167309da4bee8ddad5df8b5bd354bd453652f25e6b621790553480156200003757600080fd5b5060405160e08062002b7e83398101604090815281516020830151918301516060840151608085015160a086015160c0909601519395929391929091868282826200008b33640100000000620002c9810204565b6200009f336401000000006200031b810204565b60025560038054600160a060020a03191633179081905560408051600160a060020a03929092168252517f4101e71e974f68df5e9730cc223280b41654676bbb052cdcc735c3337e64d2d99181900360200190a160016004908155604080517f520b00660000000000000000000000000000000000000000000000000000000081529182018490525173__Percent_______________________________9163520b0066916024808301926020929190829003018186803b1580156200016457600080fd5b505af415801562000179573d6000803e3d6000fd5b505050506040513d60208110156200019057600080fd5b505180156200023a575060648273__Percent_______________________________630fe9114790916040518263ffffffff167c01000000000000000000000000000000000000000000000000000000000281526004018082815260200191505060206040518083038186803b1580156200020a57600080fd5b505af41580156200021f573d6000803e3d6000fd5b505050506040513d60208110156200023657600080fd5b5051105b15156200024657600080fd5b600160a060020a03811615156200025c57600080fd5b60078054600160a060020a0319908116600160a060020a03938416179091556005805482169a83169a909a17909955600880548a1698821698909817909755505060068054871694861694909417909355600a556009805490941692169190911790915550620004009050565b620002e4600082640100000000620026d56200036d82021704565b604051600160a060020a038216907f44d6d25963f097ad14f29f06854a01f575648a1ef82f30e562ccd3889717e33990600090a250565b62000336600182640100000000620026d56200036d82021704565b604051600160a060020a038216907f941e31c3e651de34a7fcf0132d9d02c2df9377e6b5f932bec5daf6353c94f90e90600090a250565b600160a060020a03811615156200038357600080fd5b620003988282640100000000620003c8810204565b15620003a357600080fd5b600160a060020a0316600090815260209190915260409020805460ff19166001179055565b6000600160a060020a0382161515620003e057600080fd5b50600160a060020a03166000908152602091909152604090205460ff1690565b61276e80620004106000396000f3006080604052600436106101f55763ffffffff60e060020a600035041663015dd28c81146101f75780630babd8641461025c57806313946cd51461028d5780631785f53c146102a257806319ae48ed146102c35780632348238c146102ea57806323585f961461030b57806323bffccc1461033757806324d7806c1461035857806324e4ea4b14610379578063278ecde114610391578063392822b8146103a95780633bcdb164146103f957806343f48fbd1461041a578063483a20b21461042f5780634992a3521461045057806354fd4d501461046b578063553ff8d6146104805780635641f3c3146104985780636b90d6d2146104ad5780636ebc0af1146104c257806370480275146104d75780637a1c2da3146104f85780638119c065146105105780638429fffe146105255780638bad0c0a1461053a5780639124a7891461054f5780639ab269a6146105705780639c1e03a0146105885780639e80baac1461059d578063a328665a146105b2578063a3b768e1146105c7578063acb3c073146105dc578063adb9dd08146105fd578063b4105a3e1461061e578063c6dbdf6114610633578063d0934d6114610648578063d0baf2f51461065d578063d155790b1461067d578063d8e9ce641461069e578063e236abb4146106bf578063f206cb64146106d4578063fb2814c4146106f8575b005b34801561020357600080fd5b5061020c61070d565b60408051602080825283518183015283519192839290830191858101910280838360005b83811015610248578181015183820152602001610230565b505050509050019250505060405180910390f35b34801561026857600080fd5b506102716107f6565b60408051600160a060020a039092168252519081900360200190f35b34801561029957600080fd5b50610271610805565b3480156102ae57600080fd5b506101f5600160a060020a0360043516610814565b3480156102cf57600080fd5b506102d8610820565b60408051918252519081900360200190f35b3480156102f657600080fd5b506101f5600160a060020a0360043516610826565b34801561031757600080fd5b506103236004356108b9565b604080519115158252519081900360200190f35b34801561034357600080fd5b506101f5600160a060020a03600435166108ce565b34801561036457600080fd5b50610323600160a060020a0360043516610912565b34801561038557600080fd5b506101f560043561092a565b34801561039d57600080fd5b506101f5600435610ad3565b3480156103b557600080fd5b506103c1600435610d9d565b6040518082606080838360005b838110156103e65781810151838201526020016103ce565b5050505090500191505060405180910390f35b34801561040557600080fd5b506101f5600160a060020a0360043516610e65565b34801561042657600080fd5b50610271610e6e565b34801561043b57600080fd5b506101f5600160a060020a0360043516610e7d565b34801561045c57600080fd5b506101f5600435602435610ff2565b34801561047757600080fd5b506102d8611380565b34801561048c57600080fd5b50610323600435611386565b3480156104a457600080fd5b5061027161151a565b3480156104b957600080fd5b50610323611529565b3480156104ce57600080fd5b506101f561193c565b3480156104e357600080fd5b506101f5600160a060020a0360043516611ae2565b34801561050457600080fd5b506102d8600435611aeb565b34801561051c57600080fd5b50610271611afd565b34801561053157600080fd5b50610323611b0c565b34801561054657600080fd5b506101f5611d3f565b34801561055b57600080fd5b506102d8600160a060020a0360043516611d4a565b34801561057c57600080fd5b506102d8600435611d65565b34801561059457600080fd5b50610271611e0d565b3480156105a957600080fd5b50610323611e1c565b3480156105be57600080fd5b506102d8611faa565b3480156105d357600080fd5b506103c1611fb0565b3480156105e857600080fd5b506101f5600160a060020a036004351661206f565b34801561060957600080fd5b5061020c600160a060020a03600435166120b3565b34801561062a57600080fd5b506102d86121b0565b34801561063f57600080fd5b506102716121b6565b34801561065457600080fd5b506101f56121c5565b6101f5600160a060020a03600435166024356044356064356084356121ce565b34801561068957600080fd5b506101f5600160a060020a036004351661228e565b3480156106aa57600080fd5b50610323600160a060020a0360043516612297565b3480156106cb57600080fd5b506102716122aa565b3480156106e057600080fd5b506102d8600160a060020a03600435166024356122b9565b34801561070457600080fd5b506102d8612374565b6040805160e060020a6320e1e1d1028152600d6004820152905160609173__FundAccount___________________________916320e1e1d191602480820192600092909190829003018186803b15801561076657600080fd5b505af415801561077a573d6000803e3d6000fd5b505050506040513d6000823e601f3d908101601f1916820160405260208110156107a357600080fd5b8101908080516401000000008111156107bb57600080fd5b820160208101848111156107ce57600080fd5b81518560208202830111640100000000821117156107eb57600080fd5b509094505050505090565b600654600160a060020a031681565b600954600160a060020a031690565b61081d8161237a565b50565b600c5490565b600354600160a060020a0316331461083d57600080fd5b600160a060020a038116151561085257600080fd5b6003805473ffffffffffffffffffffffffffffffffffffffff1916600160a060020a03838116919091179182905560408051929091168252517f4101e71e974f68df5e9730cc223280b41654676bbb052cdcc735c3337e64d2d9916020908290030190a150565b6000908152600b602052604090205460ff1690565b600160a060020a03811615156108e357600080fd5b6009805473ffffffffffffffffffffffffffffffffffffffff1916600160a060020a0392909216919091179055565b6000610924818363ffffffff6123c216565b92915050565b610932612723565b600480546001019081905561094683610d9d565b805190925060001061095757600080fd5b6040805160e060020a6320e1e1d1028152600d6004820152905173__FundAccount___________________________916320e1e1d1916024808301926000929190829003018186803b1580156109ac57600080fd5b505af41580156109c0573d6000803e3d6000fd5b505050506040513d6000823e601f3d908101601f1916820160405260208110156109e957600080fd5b810190808051640100000000811115610a0157600080fd5b82016020810184811115610a1457600080fd5b8151856020820283011164010000000082111715610a3157600080fd5b50505115159250610a4491505057600080fd5b6040808301516000908152600b602052908120805460ff19166001179055610a7d9083905b6020020151600c549063ffffffff6123f916565b600c55610a8982612412565b8151604080519182525133917f4a966617f50ccad97beb624d8e13820bf2a745e1640fed943858499286fc9829919081900360200190a26004548114610ace57600080fd5b505050565b6004805460010190819055610ae6611529565b1515610af157600080fd5b811515610afd57600080fd5b33600090815260136020526040902054821115610b1957600080fd5b600654604080517f70a0823100000000000000000000000000000000000000000000000000000000815233600482015290518492600160a060020a0316916370a082319160248083019260209291908290030181600087803b158015610b7e57600080fd5b505af1158015610b92573d6000803e3d6000fd5b505050506040513d6020811015610ba857600080fd5b50511015610bb557600080fd5b600654604080517fdd62ed3e00000000000000000000000000000000000000000000000000000000815233600482015230602482015290518492600160a060020a03169163dd62ed3e9160448083019260209291908290030181600087803b158015610c2057600080fd5b505af1158015610c34573d6000803e3d6000fd5b505050506040513d6020811015610c4a57600080fd5b50511015610c5757600080fd5b610c6082612516565b601254610c73908363ffffffff6123f916565b60125533600090815260136020526040902054610c96908363ffffffff61259a16565b3360008181526013602090815260408083209490945560065460085485517f23b872dd0000000000000000000000000000000000000000000000000000000081526004810195909552600160a060020a0390811660248601526044850188905294519416936323b872dd93606480820194918390030190829087803b158015610d1e57600080fd5b505af1158015610d32573d6000803e3d6000fd5b505050506040513d6020811015610d4857600080fd5b50511515610d5557600080fd5b60408051838152905133917fb7feb6c1d7169f40790388a31c0160d8f962a2b6c31970c28bd8cdfefa25ea29919081900360200190a26004548114610d9957600080fd5b5050565b610da5612723565b73__Fund__________________________________634ff45efe600b610dca85611386565b6005546040805160e060020a63ffffffff871602815260048101949094529115156024840152600160a060020a0316604483015260648201869052516084808301926060929190829003018186803b158015610e2557600080fd5b505af4158015610e39573d6000803e3d6000fd5b505050506040513d601f19601f820116820180604052506060811015610e5e57600080fd5b5092915050565b61081d816125b1565b600754600160a060020a031681565b600160a060020a0381161515610e9257600080fd5b6000600160a060020a031681600160a060020a0316634090cb646040518163ffffffff1660e060020a028152600401602060405180830381600087803b158015610edb57600080fd5b505af1158015610eef573d6000803e3d6000fd5b505050506040513d6020811015610f0557600080fd5b5051600160a060020a03161415610f1b57600080fd5b6005805473ffffffffffffffffffffffffffffffffffffffff1916600160a060020a038316908117909155604080517f4090cb640000000000000000000000000000000000000000000000000000000081529051634090cb64916004808201926020929091908290030181600087803b158015610f9757600080fd5b505af1158015610fab573d6000803e3d6000fd5b505050506040513d6020811015610fc157600080fd5b50516006805473ffffffffffffffffffffffffffffffffffffffff1916600160a060020a0390921691909117905550565b7f455448000000000000000000000000000000000000000000000000000000000082141561105b57303181111561102857600080fd5b604051339082156108fc029083906000818181858888f19350505050158015611055573d6000803e3d6000fd5b50610d99565b7f55534400000000000000000000000000000000000000000000000000000000008214610d9957600754604080517fcfec719f000000000000000000000000000000000000000000000000000000008152600481018590529051600160a060020a039092169163cfec719f916024808201926020929091908290030181600087803b1580156110e957600080fd5b505af11580156110fd573d6000803e3d6000fd5b505050506040513d602081101561111357600080fd5b5051151561112057600080fd5b600754604080517fb12e44100000000000000000000000000000000000000000000000000000000081526004810185905290518392600160a060020a03169163b12e44109160248083019260209291908290030181600087803b15801561118657600080fd5b505af115801561119a573d6000803e3d6000fd5b505050506040513d60208110156111b057600080fd5b5051604080517f70a082310000000000000000000000000000000000000000000000000000000081523060048201529051600160a060020a03909216916370a08231916024808201926020929091908290030181600087803b15801561121557600080fd5b505af1158015611229573d6000803e3d6000fd5b505050506040513d602081101561123f57600080fd5b5051101561124c57600080fd5b600754604080517fb12e4410000000000000000000000000000000000000000000000000000000008152600481018590529051600160a060020a039092169163b12e4410916024808201926020929091908290030181600087803b1580156112b357600080fd5b505af11580156112c7573d6000803e3d6000fd5b505050506040513d60208110156112dd57600080fd5b5051604080517fa9059cbb000000000000000000000000000000000000000000000000000000008152336004820152602481018490529051600160a060020a039092169163a9059cbb916044808201926020929091908290030181600087803b15801561134957600080fd5b505af115801561135d573d6000803e3d6000fd5b505050506040513d602081101561137357600080fd5b50511515610d9957600080fd5b60025481565b600080600080600080600080600560009054906101000a9004600160a060020a0316600160a060020a03166314f66d346040518163ffffffff1660e060020a0281526004016040805180830381600087803b1580156113e457600080fd5b505af11580156113f8573d6000803e3d6000fd5b505050506040513d604081101561140e57600080fd5b50805160209091015190975095508515156114285761150e565b86891115611439576000975061150e565b601554600554604080517fccb0b4e4000000000000000000000000000000000000000000000000000000008152600160a060020a039283166004820152602481018d90529051919092169650869163ccb0b4e49160448083019260809291908290030181600087803b1580156114ae57600080fd5b505af11580156114c2573d6000803e3d6000fd5b505050506040513d60808110156114d857600080fd5b508051602082015160408301516060909301519196509450909250905060028204841115611509576001975061150e565b600097505b50505050505050919050565b600954600160a060020a031681565b600080600080600080600080600080600560009054906101000a9004600160a060020a0316600160a060020a031663d45c16026040518163ffffffff1660e060020a028152600401602060405180830381600087803b15801561158b57600080fd5b505af115801561159f573d6000803e3d6000fd5b505050506040513d60208110156115b557600080fd5b5051111561165457600560009054906101000a9004600160a060020a0316600160a060020a031663d45c16026040518163ffffffff1660e060020a028152600401602060405180830381600087803b15801561161057600080fd5b505af1158015611624573d6000803e3d6000fd5b505050506040513d602081101561163a57600080fd5b5051421061164b5760019850611931565b60009850611931565b600554604080517fd6d65f3d0000000000000000000000000000000000000000000000000000000081528151600160a060020a039093169263d6d65f3d926004808401939192918290030181600087803b1580156116b157600080fd5b505af11580156116c5573d6000803e3d6000fd5b505050506040513d60408110156116db57600080fd5b505197508715156116eb57611931565b600554604080517f2442e1cb000000000000000000000000000000000000000000000000000000008152600481018b90529051600160a060020a0390921691632442e1cb9160248082019260009290919082900301818387803b15801561175157600080fd5b505af1158015611765573d6000803e3d6000fd5b505050506040513d6000823e601f3d908101601f1916820160405260c081101561178e57600080fd5b8151602083015160408401516060850151608086018051949693959294919392830192916401000000008111156117c457600080fd5b820160208101848111156117d757600080fd5b81516401000000008111828201871017156117f157600080fd5b5050929190602001805164010000000081111561180d57600080fd5b8201602081018481111561182057600080fd5b815164010000000081118282018710171561183a57600080fd5b50509291905050505050985050509650601560009054906101000a9004600160a060020a0316945084600160a060020a031663ccb0b4e4600560009054906101000a9004600160a060020a03168a6040518363ffffffff1660e060020a0281526004018083600160a060020a0316600160a060020a0316815260200182815260200192505050608060405180830381600087803b1580156118da57600080fd5b505af11580156118ee573d6000803e3d6000fd5b505050506040513d608081101561190457600080fd5b50805160208201516040830151606090930151919650945090925090506002820484111561164b57600198505b505050505050505090565b611944612723565b6004805460010190819055611957611e1c565b151561196257600080fd5b61196a611fb0565b805190925060001061197b57600080fd5b6040805160e060020a6320e1e1d1028152600d6004820152905173__FundAccount___________________________916320e1e1d1916024808301926000929190829003018186803b1580156119d057600080fd5b505af41580156119e4573d6000803e3d6000fd5b505050506040513d6000823e601f3d908101601f191682016040526020811015611a0d57600080fd5b810190808051640100000000811115611a2557600080fd5b82016020810184811115611a3857600080fd5b8151856020820283011164010000000082111715611a5557600080fd5b50505115159250611a6891505057600080fd5b6040808301516000908152600b602052908120805460ff19166001179055611a91908390610a69565b600c55611a9d82612412565b8151604080519182525133917f4a966617f50ccad97beb624d8e13820bf2a745e1640fed943858499286fc9829919081900360200190a26004548114610d9957600080fd5b61081d816125f9565b60009081526010602052604090205490565b600854600160a060020a031681565b600554604080517fd6d65f3d00000000000000000000000000000000000000000000000000000000815281516000938493849384938493600160a060020a03169263d6d65f3d926004808201939182900301818787803b158015611b6f57600080fd5b505af1158015611b83573d6000803e3d6000fd5b505050506040513d6040811015611b9957600080fd5b5080516020909101519094509250831580611bb2575082155b15611bbc57611d38565b600554604080517f2442e1cb000000000000000000000000000000000000000000000000000000008152600481018790529051600160a060020a0390921691632442e1cb9160248082019260009290919082900301818387803b158015611c2257600080fd5b505af1158015611c36573d6000803e3d6000fd5b505050506040513d6000823e601f3d908101601f1916820160405260c0811015611c5f57600080fd5b815160208301516040840151606085015160808601805194969395929491939283019291640100000000811115611c9557600080fd5b82016020810184811115611ca857600080fd5b8151640100000000811182820187101715611cc257600080fd5b50509291906020018051640100000000811115611cde57600080fd5b82016020810184811115611cf157600080fd5b8151640100000000811182820187101715611d0b57600080fd5b50509291905050505050935050509150428263ffffffff161180611d3557508063ffffffff164210155b94505b5050505090565b611d483361237a565b565b600160a060020a031660009081526013602052604090205490565b604080517f75dff138000000000000000000000000000000000000000000000000000000008152600d600482015260248101839052905160009173__FundAccount___________________________916375dff13891604480820192602092909190829003018186803b158015611ddb57600080fd5b505af4158015611def573d6000803e3d6000fd5b505050506040513d6020811015611e0557600080fd5b505192915050565b600554600160a060020a031681565b600080600080600080600080600560009054906101000a9004600160a060020a0316600160a060020a031663d6d65f3d6040518163ffffffff1660e060020a0281526004016040805180830381600087803b158015611e7a57600080fd5b505af1158015611e8e573d6000803e3d6000fd5b505050506040513d6040811015611ea457600080fd5b5080516020909101519097509550851515611ebe57611fa0565b601554600554604080517fccb0b4e4000000000000000000000000000000000000000000000000000000008152600160a060020a039283166004820152602481018b90529051919092169650869163ccb0b4e49160448083019260809291908290030181600087803b158015611f3357600080fd5b505af1158015611f47573d6000803e3d6000fd5b505050506040513d6080811015611f5d57600080fd5b5080516020820151604083015160609093015191965094509092509050600282048411611f8d5760009750611fa0565b861580611f9d5750611f9d611b0c565b97505b5050505050505090565b600a5481565b611fb8612723565b73__Fund__________________________________63c4466008600b611fdc611e1c565b6005546040805160e060020a63ffffffff871602815260048101949094529115156024840152600160a060020a03166044830152516064808301926060929190829003018186803b15801561203057600080fd5b505af4158015612044573d6000803e3d6000fd5b505050506040513d601f19601f82011682018060405250606081101561206957600080fd5b50905090565b600160a060020a038116151561208457600080fd5b6008805473ffffffffffffffffffffffffffffffffffffffff1916600160a060020a0392909216919091179055565b600160a060020a038116600090815260146020526040808220815160e060020a6320e1e1d10281526004810191909152905160609273__FundAccount___________________________926320e1e1d19260248083019392829003018186803b15801561211f57600080fd5b505af4158015612133573d6000803e3d6000fd5b505050506040513d6000823e601f3d908101601f19168201604052602081101561215c57600080fd5b81019080805164010000000081111561217457600080fd5b8201602081018481111561218757600080fd5b81518560208202830111640100000000821117156121a457600080fd5b50909695505050505050565b60115490565b600354600160a060020a031690565b611d4833612641565b600754604080517f46d1230a000000000000000000000000000000000000000000000000000000008152600b6004820152600160a060020a03808916602483015260448201889052606482018790526084820186905260a4820185905290921660c48301525173__Fund__________________________________916346d1230a9160e4808301926000929190829003018186803b15801561226f57600080fd5b505af4158015612283573d6000803e3d6000fd5b505050505050505050565b61081d81612641565b600061092460018363ffffffff6123c216565b601554600160a060020a031681565b600160a060020a038216600090815260146020908152604080832081517f75dff138000000000000000000000000000000000000000000000000000000008152600481019190915260248101859052905173__FundAccount___________________________926375dff1389260448082019391829003018186803b15801561234157600080fd5b505af4158015612355573d6000803e3d6000fd5b505050506040513d602081101561236b57600080fd5b50519392505050565b60125490565b61238b60008263ffffffff61268916565b604051600160a060020a038216907fa3b62bc36326052d97ea62d63c3d60308ed4c3ea8ac079dd8499f1e9c4f80c0f90600090a250565b6000600160a060020a03821615156123d957600080fd5b50600160a060020a03166000908152602091909152604090205460ff1690565b60008282018381101561240b57600080fd5b9392505050565b600a546009546007546040517f69b3e2d2000000000000000000000000000000000000000000000000000000008152600b6004820181815273__Fund__________________________________956369b3e2d295929488949193600160a060020a039081169391169160240185606080838360005b8381101561249f578181015183820152602001612487565b5050505090500184815260200183600160a060020a0316600160a060020a0316815260200182600160a060020a0316600160a060020a031681526020019550505050505060006040518083038186803b1580156124fb57600080fd5b505af415801561250f573d6000803e3d6000fd5b5050505050565b600754604080517fe0650238000000000000000000000000000000000000000000000000000000008152600b600482015260248101849052600160a060020a0390921660448301525173__Fund__________________________________9163e0650238916064808301926000929190829003018186803b1580156124fb57600080fd5b600080838311156125aa57600080fd5b5050900390565b6125c260018263ffffffff6126d516565b604051600160a060020a038216907f941e31c3e651de34a7fcf0132d9d02c2df9377e6b5f932bec5daf6353c94f90e90600090a250565b61260a60008263ffffffff6126d516565b604051600160a060020a038216907f44d6d25963f097ad14f29f06854a01f575648a1ef82f30e562ccd3889717e33990600090a250565b61265260018263ffffffff61268916565b604051600160a060020a038216907fa3bfdef3d8149bacf15b7b64199fca8228c0fd4f8fcdd11cc7871829baf319c390600090a250565b600160a060020a038116151561269e57600080fd5b6126a882826123c2565b15156126b357600080fd5b600160a060020a0316600090815260209190915260409020805460ff19169055565b600160a060020a03811615156126ea57600080fd5b6126f482826123c2565b156126fe57600080fd5b600160a060020a0316600090815260209190915260409020805460ff19166001179055565b60606040519081016040528060039060208202803883395091929150505600a165627a7a72305820debfb2e2578fe50873d8a7bc7a302a464dbd6c4a2e44177989bfde7201ffb71a0029",
  "source": "pragma solidity 0.4.24;\n\nimport \"openzeppelin-solidity/contracts/token/ERC20/IERC20.sol\";\nimport \"../../rates/IRates.sol\";\nimport \"../../crowdsale/W12Fund.sol\";\nimport \"../../token/IWToken.sol\";\n\n\ncontract W12FundStub is W12Fund {\n    constructor (\n        uint version,\n        address crowdsaleAddress,\n        address swapAddress,\n        address wTokenAddress,\n        address _serviceWallet,\n        uint _trancheFeePercent,\n        IRates _rates\n    )\n        W12Fund(version, _trancheFeePercent, _rates) public\n    {\n        crowdsale = IW12Crowdsale(crowdsaleAddress);\n        swap = swapAddress;\n        wToken = IWToken(wTokenAddress);\n        trancheFeePercent = _trancheFeePercent;\n        serviceWallet = _serviceWallet;\n    }\n\n//    function _setTotalFunded(uint amount) external {\n//        totalFunded = amount;\n//    }\n//\n//    function _setTotalRefunded(uint amount) external {\n//        totalRefunded = amount;\n//    }\n\n    function() payable external {}\n\n    function _outFunds(bytes32 _symbol, uint _amount) external {\n        if (_symbol == METHOD_ETH) {\n            require(address(this).balance >= _amount);\n            msg.sender.transfer(_amount);\n        } else if(_symbol != METHOD_USD) {\n            require(rates.isToken(_symbol));\n            require(IERC20(rates.getTokenAddress(_symbol)).balanceOf(address(this)) >= _amount);\n            require(IERC20(rates.getTokenAddress(_symbol)).transfer(msg.sender, _amount));\n        }\n    }\n\n    modifier onlyCrowdsale {\n        _;\n    }\n\n    modifier onlyAdmin {\n        _;\n    }\n\n    modifier onlyProjectOwner {\n        _;\n    }\n}\n",
  "sourcePath": "/Users/gauss/_games/w12/Protocol/contracts/mocks/crowdsale/W12FundStub.sol",
  "compiler": {
    "name": "solc",
    "version": "0.4.24+commit.e67f0147.Emscripten.clang"
  },
  "schemaVersion": "2.0.1",
  "updatedAt": "2019-07-31T23:06:31.954Z"
}