{
  "contractName": "W12Fund",
  "abi": [
    {
      "constant": true,
      "inputs": [],
      "name": "wToken",
      "outputs": [
        {
          "name": "",
          "type": "address"
        }
      ],
      "payable": false,
      "stateMutability": "view",
      "type": "function"
    },
    {
      "constant": true,
      "inputs": [],
      "name": "tokenDecimals",
      "outputs": [
        {
          "name": "",
          "type": "uint256"
        }
      ],
      "payable": false,
      "stateMutability": "view",
      "type": "function"
    },
    {
      "constant": false,
      "inputs": [],
      "name": "renounceOwnership",
      "outputs": [],
      "payable": false,
      "stateMutability": "nonpayable",
      "type": "function"
    },
    {
      "constant": true,
      "inputs": [],
      "name": "swap",
      "outputs": [
        {
          "name": "",
          "type": "address"
        }
      ],
      "payable": false,
      "stateMutability": "view",
      "type": "function"
    },
    {
      "constant": true,
      "inputs": [],
      "name": "owner",
      "outputs": [
        {
          "name": "",
          "type": "address"
        }
      ],
      "payable": false,
      "stateMutability": "view",
      "type": "function"
    },
    {
      "constant": true,
      "inputs": [
        {
          "name": "",
          "type": "address"
        }
      ],
      "name": "buyers",
      "outputs": [
        {
          "name": "totalBought",
          "type": "uint256"
        },
        {
          "name": "averagePrice",
          "type": "uint256"
        },
        {
          "name": "totalFunded",
          "type": "uint256"
        }
      ],
      "payable": false,
      "stateMutability": "view",
      "type": "function"
    },
    {
      "constant": true,
      "inputs": [],
      "name": "crowdsale",
      "outputs": [
        {
          "name": "",
          "type": "address"
        }
      ],
      "payable": false,
      "stateMutability": "view",
      "type": "function"
    },
    {
      "constant": true,
      "inputs": [],
      "name": "totalFunded",
      "outputs": [
        {
          "name": "",
          "type": "uint256"
        }
      ],
      "payable": false,
      "stateMutability": "view",
      "type": "function"
    },
    {
      "constant": true,
      "inputs": [],
      "name": "totalRefunded",
      "outputs": [
        {
          "name": "",
          "type": "uint256"
        }
      ],
      "payable": false,
      "stateMutability": "view",
      "type": "function"
    },
    {
      "constant": true,
      "inputs": [
        {
          "name": "",
          "type": "uint32"
        }
      ],
      "name": "completedTranches",
      "outputs": [
        {
          "name": "",
          "type": "bool"
        }
      ],
      "payable": false,
      "stateMutability": "view",
      "type": "function"
    },
    {
      "constant": false,
      "inputs": [
        {
          "name": "_newOwner",
          "type": "address"
        }
      ],
      "name": "transferOwnership",
      "outputs": [],
      "payable": false,
      "stateMutability": "nonpayable",
      "type": "function"
    },
    {
      "anonymous": false,
      "inputs": [
        {
          "indexed": true,
          "name": "buyer",
          "type": "address"
        },
        {
          "indexed": false,
          "name": "weiAmount",
          "type": "uint256"
        },
        {
          "indexed": false,
          "name": "tokenAmount",
          "type": "uint256"
        }
      ],
      "name": "FundsReceived",
      "type": "event"
    },
    {
      "anonymous": false,
      "inputs": [
        {
          "indexed": true,
          "name": "buyer",
          "type": "address"
        },
        {
          "indexed": false,
          "name": "weiAmount",
          "type": "uint256"
        },
        {
          "indexed": false,
          "name": "tokenAmount",
          "type": "uint256"
        }
      ],
      "name": "FundsRefunded",
      "type": "event"
    },
    {
      "anonymous": false,
      "inputs": [
        {
          "indexed": true,
          "name": "receiver",
          "type": "address"
        },
        {
          "indexed": false,
          "name": "amount",
          "type": "uint256"
        }
      ],
      "name": "TrancheOperation",
      "type": "event"
    },
    {
      "anonymous": false,
      "inputs": [
        {
          "indexed": true,
          "name": "previousOwner",
          "type": "address"
        }
      ],
      "name": "OwnershipRenounced",
      "type": "event"
    },
    {
      "anonymous": false,
      "inputs": [
        {
          "indexed": true,
          "name": "previousOwner",
          "type": "address"
        },
        {
          "indexed": true,
          "name": "newOwner",
          "type": "address"
        }
      ],
      "name": "OwnershipTransferred",
      "type": "event"
    },
    {
      "constant": false,
      "inputs": [
        {
          "name": "_crowdsale",
          "type": "address"
        }
      ],
      "name": "setCrowdsale",
      "outputs": [],
      "payable": false,
      "stateMutability": "nonpayable",
      "type": "function"
    },
    {
      "constant": false,
      "inputs": [
        {
          "name": "_swap",
          "type": "address"
        }
      ],
      "name": "setSwap",
      "outputs": [],
      "payable": false,
      "stateMutability": "nonpayable",
      "type": "function"
    },
    {
      "constant": false,
      "inputs": [
        {
          "name": "buyer",
          "type": "address"
        },
        {
          "name": "tokenAmount",
          "type": "uint256"
        }
      ],
      "name": "recordPurchase",
      "outputs": [],
      "payable": true,
      "stateMutability": "payable",
      "type": "function"
    },
    {
      "constant": true,
      "inputs": [
        {
          "name": "buyer",
          "type": "address"
        }
      ],
      "name": "getInvestmentsInfo",
      "outputs": [
        {
          "name": "totalTokensBought",
          "type": "uint256"
        },
        {
          "name": "averageTokenPrice",
          "type": "uint256"
        }
      ],
      "payable": false,
      "stateMutability": "view",
      "type": "function"
    },
    {
      "constant": true,
      "inputs": [
        {
          "name": "wtokensToRefund",
          "type": "uint256"
        }
      ],
      "name": "getRefundAmount",
      "outputs": [
        {
          "name": "result",
          "type": "uint256"
        }
      ],
      "payable": false,
      "stateMutability": "view",
      "type": "function"
    },
    {
      "constant": true,
      "inputs": [],
      "name": "getTrancheAmount",
      "outputs": [
        {
          "name": "",
          "type": "uint256"
        }
      ],
      "payable": false,
      "stateMutability": "view",
      "type": "function"
    },
    {
      "constant": true,
      "inputs": [],
      "name": "getTrancheParameters",
      "outputs": [
        {
          "name": "",
          "type": "uint8"
        },
        {
          "name": "",
          "type": "uint32"
        },
        {
          "name": "",
          "type": "uint32"
        }
      ],
      "payable": false,
      "stateMutability": "view",
      "type": "function"
    },
    {
      "constant": false,
      "inputs": [],
      "name": "tranche",
      "outputs": [],
      "payable": false,
      "stateMutability": "nonpayable",
      "type": "function"
    },
    {
      "constant": false,
      "inputs": [
        {
          "name": "wtokensToRefund",
          "type": "uint256"
        }
      ],
      "name": "refund",
      "outputs": [],
      "payable": false,
      "stateMutability": "nonpayable",
      "type": "function"
    },
    {
      "constant": true,
      "inputs": [],
      "name": "refundAllowed",
      "outputs": [
        {
          "name": "",
          "type": "bool"
        }
      ],
      "payable": false,
      "stateMutability": "view",
      "type": "function"
    },
    {
      "constant": true,
      "inputs": [],
      "name": "trancheTransferAllowed",
      "outputs": [
        {
          "name": "",
          "type": "bool"
        }
      ],
      "payable": false,
      "stateMutability": "view",
      "type": "function"
    }
  ],
  "bytecode": "0x608060405260018055336000806101000a81548173ffffffffffffffffffffffffffffffffffffffff021916908373ffffffffffffffffffffffffffffffffffffffff160217905550612a91806100576000396000f300608060405260043610610128576000357c0100000000000000000000000000000000000000000000000000000000900463ffffffff16806304cd52941461012d5780630babd8641461016e57806311fa7da2146101c5578063278ecde1146102235780633b97e856146102505780633fa911ae1461027b578063483a20b2146102aa5780636ebc0af1146102ed578063715018a6146103045780638119c0651461031b5780638ce2bc2a146103725780638da5cb5b1461039d578063958799cb146103f457806397a993aa146104345780639c1e03a0146104995780639e80baac146104f0578063ac2a2a341461051f578063acb3c07314610576578063ad044f49146105b9578063d9082962146105e4578063e80b68df1461060f578063f2fde38b1461065a575b600080fd5b34801561013957600080fd5b506101586004803603810190808035906020019092919050505061069d565b6040518082815260200191505060405180910390f35b34801561017a57600080fd5b50610183610a13565b604051808273ffffffffffffffffffffffffffffffffffffffff1673ffffffffffffffffffffffffffffffffffffffff16815260200191505060405180910390f35b3480156101d157600080fd5b50610206600480360381019080803573ffffffffffffffffffffffffffffffffffffffff169060200190929190505050610a39565b604051808381526020018281526020019250505060405180910390f35b34801561022f57600080fd5b5061024e60048036038101908080359060200190929190505050610b07565b005b34801561025c57600080fd5b506102656111c1565b6040518082815260200191505060405180910390f35b34801561028757600080fd5b506102906111c7565b604051808215151515815260200191505060405180910390f35b3480156102b657600080fd5b506102eb600480360381019080803573ffffffffffffffffffffffffffffffffffffffff169060200190929190505050611640565b005b3480156102f957600080fd5b506103026118c4565b005b34801561031057600080fd5b50610319611a53565b005b34801561032757600080fd5b50610330611b55565b604051808273ffffffffffffffffffffffffffffffffffffffff1673ffffffffffffffffffffffffffffffffffffffff16815260200191505060405180910390f35b34801561037e57600080fd5b50610387611b7b565b6040518082815260200191505060405180910390f35b3480156103a957600080fd5b506103b2611c97565b604051808273ffffffffffffffffffffffffffffffffffffffff1673ffffffffffffffffffffffffffffffffffffffff16815260200191505060405180910390f35b610432600480360381019080803573ffffffffffffffffffffffffffffffffffffffff16906020019092919080359060200190929190505050611cbc565b005b34801561044057600080fd5b50610475600480360381019080803573ffffffffffffffffffffffffffffffffffffffff169060200190929190505050611fb9565b60405180848152602001838152602001828152602001935050505060405180910390f35b3480156104a557600080fd5b506104ae611fe3565b604051808273ffffffffffffffffffffffffffffffffffffffff1673ffffffffffffffffffffffffffffffffffffffff16815260200191505060405180910390f35b3480156104fc57600080fd5b50610505612009565b604051808215151515815260200191505060405180910390f35b34801561052b57600080fd5b5061053461250a565b604051808460ff1660ff1681526020018363ffffffff1663ffffffff1681526020018263ffffffff1663ffffffff168152602001935050505060405180910390f35b34801561058257600080fd5b506105b7600480360381019080803573ffffffffffffffffffffffffffffffffffffffff169060200190929190505050612753565b005b3480156105c557600080fd5b506105ce61282e565b6040518082815260200191505060405180910390f35b3480156105f057600080fd5b506105f9612834565b6040518082815260200191505060405180910390f35b34801561061b57600080fd5b50610640600480360381019080803563ffffffff16906020019092919050505061283a565b604051808215151515815260200191505060405180910390f35b34801561066657600080fd5b5061069b600480360381019080803573ffffffffffffffffffffffffffffffffffffffff16906020019092919050505061285a565b005b6000806000806000600860055401600a0a7fffffffffffffffffffffffffffffffffffffffffffffffffffffffffffffffff8115156106d857fe5b049350339250600086148061072f57506000600660008573ffffffffffffffffffffffffffffffffffffffff1673ffffffffffffffffffffffffffffffffffffffff16815260200190815260200160002060000154145b80610751575060003073ffffffffffffffffffffffffffffffffffffffff1631145b80610852575085600460009054906101000a900473ffffffffffffffffffffffffffffffffffffffff1673ffffffffffffffffffffffffffffffffffffffff166370a08231856040518263ffffffff167c0100000000000000000000000000000000000000000000000000000000028152600401808273ffffffffffffffffffffffffffffffffffffffff1673ffffffffffffffffffffffffffffffffffffffff168152602001915050602060405180830381600087803b15801561081557600080fd5b505af1158015610829573d6000803e3d6000fd5b505050506040513d602081101561083f57600080fd5b8101908080519060200190929190505050105b8061089e575085600660008573ffffffffffffffffffffffffffffffffffffffff1673ffffffffffffffffffffffffffffffffffffffff16815260200190815260200160002060000154105b156108ac5760009450610a0a565b60003073ffffffffffffffffffffffffffffffffffffffff16311115610a095761094c3073ffffffffffffffffffffffffffffffffffffffff163161093e600854600660008873ffffffffffffffffffffffffffffffffffffffff1673ffffffffffffffffffffffffffffffffffffffff168152602001908152602001600020600201546128c190919063ffffffff16565b6128ff90919063ffffffff16565b91508382101561096457600860055401600a0a610967565b60015b9050610a066109f7826109e9896109db600660008a73ffffffffffffffffffffffffffffffffffffffff1673ffffffffffffffffffffffffffffffffffffffff168152602001908152602001600020600001546109cd888a6128c190919063ffffffff16565b6128ff90919063ffffffff16565b6128c190919063ffffffff16565b6128ff90919063ffffffff16565b8661292990919063ffffffff16565b94505b5b50505050919050565b600460009054906101000a900473ffffffffffffffffffffffffffffffffffffffff1681565b600080600073ffffffffffffffffffffffffffffffffffffffff168373ffffffffffffffffffffffffffffffffffffffff1614151515610a7857600080fd5b600660008473ffffffffffffffffffffffffffffffffffffffff1673ffffffffffffffffffffffffffffffffffffffff16815260200190815260200160002060000154600660008573ffffffffffffffffffffffffffffffffffffffff1673ffffffffffffffffffffffffffffffffffffffff1681526020019081526020016000206001015491509150915091565b6000806000600180600082825401925050819055506001549050339250610b2c6111c7565b1515610b3757600080fd5b600084111515610b4657600080fd5b83600660008573ffffffffffffffffffffffffffffffffffffffff1673ffffffffffffffffffffffffffffffffffffffff1681526020019081526020016000206000015410151515610b9757600080fd5b83600460009054906101000a900473ffffffffffffffffffffffffffffffffffffffff1673ffffffffffffffffffffffffffffffffffffffff166370a08231856040518263ffffffff167c0100000000000000000000000000000000000000000000000000000000028152600401808273ffffffffffffffffffffffffffffffffffffffff1673ffffffffffffffffffffffffffffffffffffffff168152602001915050602060405180830381600087803b158015610c5557600080fd5b505af1158015610c69573d6000803e3d6000fd5b505050506040513d6020811015610c7f57600080fd5b810190808051906020019092919050505010151515610c9d57600080fd5b83600460009054906101000a900473ffffffffffffffffffffffffffffffffffffffff1673ffffffffffffffffffffffffffffffffffffffff1663dd62ed3e33306040518363ffffffff167c0100000000000000000000000000000000000000000000000000000000028152600401808373ffffffffffffffffffffffffffffffffffffffff1673ffffffffffffffffffffffffffffffffffffffff1681526020018273ffffffffffffffffffffffffffffffffffffffff1673ffffffffffffffffffffffffffffffffffffffff16815260200192505050602060405180830381600087803b158015610d8f57600080fd5b505af1158015610da3573d6000803e3d6000fd5b505050506040513d6020811015610db957600080fd5b810190808051906020019092919050505010151515610dd757600080fd5b610de08461069d565b9150600082111515610df157600080fd5b600460009054906101000a900473ffffffffffffffffffffffffffffffffffffffff1673ffffffffffffffffffffffffffffffffffffffff166323b872dd84600360009054906101000a900473ffffffffffffffffffffffffffffffffffffffff16876040518463ffffffff167c0100000000000000000000000000000000000000000000000000000000028152600401808473ffffffffffffffffffffffffffffffffffffffff1673ffffffffffffffffffffffffffffffffffffffff1681526020018373ffffffffffffffffffffffffffffffffffffffff1673ffffffffffffffffffffffffffffffffffffffff1681526020018281526020019350505050602060405180830381600087803b158015610f0c57600080fd5b505af1158015610f20573d6000803e3d6000fd5b505050506040513d6020811015610f3657600080fd5b81019080805190602001909291905050501515610f5257600080fd5b610fa784600660008673ffffffffffffffffffffffffffffffffffffffff1673ffffffffffffffffffffffffffffffffffffffff1681526020019081526020016000206000015461294a90919063ffffffff16565b600660008573ffffffffffffffffffffffffffffffffffffffff1673ffffffffffffffffffffffffffffffffffffffff168152602001908152602001600020600001819055506110ad61105c600554600a0a61104e600660008873ffffffffffffffffffffffffffffffffffffffff1673ffffffffffffffffffffffffffffffffffffffff16815260200190815260200160002060010154886128c190919063ffffffff16565b6128ff90919063ffffffff16565b600660008673ffffffffffffffffffffffffffffffffffffffff1673ffffffffffffffffffffffffffffffffffffffff1681526020019081526020016000206002015461294a90919063ffffffff16565b600660008573ffffffffffffffffffffffffffffffffffffffff1673ffffffffffffffffffffffffffffffffffffffff168152602001908152602001600020600201819055506111088260095461292990919063ffffffff16565b6009819055508273ffffffffffffffffffffffffffffffffffffffff166108fc839081150290604051600060405180830381858888f19350505050158015611154573d6000803e3d6000fd5b508273ffffffffffffffffffffffffffffffffffffffff167ffc48f4f163cfed28aaf3be3f0b162a1338fab214afc9340eafc6cb081c71fadf8386604051808381526020018281526020019250505060405180910390a2600154811415156111bb57600080fd5b50505050565b60055481565b600080600080600260009054906101000a900473ffffffffffffffffffffffffffffffffffffffff1673ffffffffffffffffffffffffffffffffffffffff1663d6d65f3d6040518163ffffffff167c0100000000000000000000000000000000000000000000000000000000028152600401602060405180830381600087803b15801561125357600080fd5b505af1158015611267573d6000803e3d6000fd5b505050506040513d602081101561127d57600080fd5b8101908080519060200190929190505050925060008314156112a2576000935061163a565b600260009054906101000a900473ffffffffffffffffffffffffffffffffffffffff1673ffffffffffffffffffffffffffffffffffffffff16632442e1cb600185036040518263ffffffff167c010000000000000000000000000000000000000000000000000000000002815260040180828152602001915050600060405180830381600087803b15801561133657600080fd5b505af115801561134a573d6000803e3d6000fd5b505050506040513d6000823e3d601f19601f8201168201806040525060c081101561137457600080fd5b810190808051906020019092919080519060200190929190805190602001909291908051906020019092919080516401000000008111156113b457600080fd5b828101905060208101848111156113ca57600080fd5b81518560018202830111640100000000821117156113e757600080fd5b5050929190602001805164010000000081111561140357600080fd5b8281019050602081018481111561141957600080fd5b815185600182028301116401000000008211171561143657600080fd5b50509291905050505050935050509150428263ffffffff161115801561146157508063ffffffff1642105b1561146f576001935061163a565b600260009054906101000a900473ffffffffffffffffffffffffffffffffffffffff1673ffffffffffffffffffffffffffffffffffffffff16632442e1cb846040518263ffffffff167c010000000000000000000000000000000000000000000000000000000002815260040180828152602001915050600060405180830381600087803b15801561150057600080fd5b505af1158015611514573d6000803e3d6000fd5b505050506040513d6000823e3d601f19601f8201168201806040525060c081101561153e57600080fd5b8101908080519060200190929190805190602001909291908051906020019092919080519060200190929190805164010000000081111561157e57600080fd5b8281019050602081018481111561159457600080fd5b81518560018202830111640100000000821117156115b157600080fd5b505092919060200180516401000000008111156115cd57600080fd5b828101905060208101848111156115e357600080fd5b815185600182028301116401000000008211171561160057600080fd5b50509291905050509091929350909192509050508092508193505050428263ffffffff161115801561163757508063ffffffff1642105b93505b50505090565b6000809054906101000a900473ffffffffffffffffffffffffffffffffffffffff1673ffffffffffffffffffffffffffffffffffffffff163373ffffffffffffffffffffffffffffffffffffffff1614151561169b57600080fd5b600073ffffffffffffffffffffffffffffffffffffffff168173ffffffffffffffffffffffffffffffffffffffff16141515156116d757600080fd5b80600260006101000a81548173ffffffffffffffffffffffffffffffffffffffff021916908373ffffffffffffffffffffffffffffffffffffffff1602179055508073ffffffffffffffffffffffffffffffffffffffff16634090cb646040518163ffffffff167c0100000000000000000000000000000000000000000000000000000000028152600401602060405180830381600087803b15801561177c57600080fd5b505af1158015611790573d6000803e3d6000fd5b505050506040513d60208110156117a657600080fd5b8101908080519060200190929190505050600460006101000a81548173ffffffffffffffffffffffffffffffffffffffff021916908373ffffffffffffffffffffffffffffffffffffffff160217905550600460009054906101000a900473ffffffffffffffffffffffffffffffffffffffff1673ffffffffffffffffffffffffffffffffffffffff1663313ce5676040518163ffffffff167c0100000000000000000000000000000000000000000000000000000000028152600401602060405180830381600087803b15801561187d57600080fd5b505af1158015611891573d6000803e3d6000fd5b505050506040513d60208110156118a757600080fd5b810190808051906020019092919050505060ff1660058190555050565b6000806000809054906101000a900473ffffffffffffffffffffffffffffffffffffffff1673ffffffffffffffffffffffffffffffffffffffff163373ffffffffffffffffffffffffffffffffffffffff1614151561192257600080fd5b6000600180600082825401925050819055506001549050611941612009565b151561194c57600080fd5b611954611b7b565b925061195e61250a565b9350505060008311151561197157600080fd5b6001600760008463ffffffff1663ffffffff16815260200190815260200160002060006101000a81548160ff0219169083151502179055503373ffffffffffffffffffffffffffffffffffffffff166108fc849081150290604051600060405180830381858888f193505050501580156119ef573d6000803e3d6000fd5b503373ffffffffffffffffffffffffffffffffffffffff167f333c8b01d26c7b77312592c86110afe8f6ffb558755a83599a45373a98e9294a846040518082815260200191505060405180910390a260015481141515611a4e57600080fd5b505050565b6000809054906101000a900473ffffffffffffffffffffffffffffffffffffffff1673ffffffffffffffffffffffffffffffffffffffff163373ffffffffffffffffffffffffffffffffffffffff16141515611aae57600080fd5b6000809054906101000a900473ffffffffffffffffffffffffffffffffffffffff1673ffffffffffffffffffffffffffffffffffffffff167ff8df31144d9c2f0f6b59d69b8b98abd5459d07f2742c4df920b25aae33c6482060405160405180910390a260008060006101000a81548173ffffffffffffffffffffffffffffffffffffffff021916908373ffffffffffffffffffffffffffffffffffffffff160217905550565b600360009054906101000a900473ffffffffffffffffffffffffffffffffffffffff1681565b6000806000806000806000809550611b9161250a565b945094509450600760008463ffffffff1663ffffffff16815260200190815260200160002060009054906101000a900460ff16915081158015611bda575060008463ffffffff16115b8015611bec5750428363ffffffff1610155b8015611bfd5750428463ffffffff16105b8015611c0c575060008560ff16115b8015611c2f575060003073ffffffffffffffffffffffffffffffffffffffff1631115b15611c8b57611c4b60095460085461294a90919063ffffffff16565b9050611c88611c796064611c6b8860ff16856128c190919063ffffffff16565b6128ff90919063ffffffff16565b8761292990919063ffffffff16565b95505b85965050505050505090565b6000809054906101000a900473ffffffffffffffffffffffffffffffffffffffff1681565b600260009054906101000a900473ffffffffffffffffffffffffffffffffffffffff168073ffffffffffffffffffffffffffffffffffffffff163373ffffffffffffffffffffffffffffffffffffffff16141515611d1957600080fd5b611d6e82600660008673ffffffffffffffffffffffffffffffffffffffff1673ffffffffffffffffffffffffffffffffffffffff1681526020019081526020016000206000015461292990919063ffffffff16565b600660008573ffffffffffffffffffffffffffffffffffffffff1673ffffffffffffffffffffffffffffffffffffffff16815260200190815260200160002060000181905550611e0934600660008673ffffffffffffffffffffffffffffffffffffffff1673ffffffffffffffffffffffffffffffffffffffff1681526020019081526020016000206002015461292990919063ffffffff16565b600660008573ffffffffffffffffffffffffffffffffffffffff1673ffffffffffffffffffffffffffffffffffffffff16815260200190815260200160002060020181905550611efd600660008573ffffffffffffffffffffffffffffffffffffffff1673ffffffffffffffffffffffffffffffffffffffff16815260200190815260200160002060000154611eef600554600a0a600660008873ffffffffffffffffffffffffffffffffffffffff1673ffffffffffffffffffffffffffffffffffffffff168152602001908152602001600020600201546128c190919063ffffffff16565b6128ff90919063ffffffff16565b600660008573ffffffffffffffffffffffffffffffffffffffff1673ffffffffffffffffffffffffffffffffffffffff16815260200190815260200160002060010181905550611f583460085461292990919063ffffffff16565b6008819055508273ffffffffffffffffffffffffffffffffffffffff167f363f315f930a17d1266b86a20d6dd34b1cfbc5a9db9f13a65d06a689c3a2af8a3484604051808381526020018281526020019250505060405180910390a2505050565b60066020528060005260406000206000915090508060000154908060010154908060020154905083565b600260009054906101000a900473ffffffffffffffffffffffffffffffffffffffff1681565b600080600080600260009054906101000a900473ffffffffffffffffffffffffffffffffffffffff1673ffffffffffffffffffffffffffffffffffffffff1663d6d65f3d6040518163ffffffff167c0100000000000000000000000000000000000000000000000000000000028152600401602060405180830381600087803b15801561209557600080fd5b505af11580156120a9573d6000803e3d6000fd5b505050506040513d60208110156120bf57600080fd5b8101908080519060200190929190505050925060008314156121a357600260009054906101000a900473ffffffffffffffffffffffffffffffffffffffff1673ffffffffffffffffffffffffffffffffffffffff1663a4fd6f566040518163ffffffff167c0100000000000000000000000000000000000000000000000000000000028152600401602060405180830381600087803b15801561216157600080fd5b505af1158015612175573d6000803e3d6000fd5b505050506040513d602081101561218b57600080fd5b81019080805190602001909291905050509350612504565b600260009054906101000a900473ffffffffffffffffffffffffffffffffffffffff1673ffffffffffffffffffffffffffffffffffffffff16632442e1cb846040518263ffffffff167c010000000000000000000000000000000000000000000000000000000002815260040180828152602001915050600060405180830381600087803b15801561223457600080fd5b505af1158015612248573d6000803e3d6000fd5b505050506040513d6000823e3d601f19601f8201168201806040525060c081101561227257600080fd5b810190808051906020019092919080519060200190929190805190602001909291908051906020019092919080516401000000008111156122b257600080fd5b828101905060208101848111156122c857600080fd5b81518560018202830111640100000000821117156122e557600080fd5b5050929190602001805164010000000081111561230157600080fd5b8281019050602081018481111561231757600080fd5b815185600182028301116401000000008211171561233457600080fd5b505092919050505050505050509150600260009054906101000a900473ffffffffffffffffffffffffffffffffffffffff1673ffffffffffffffffffffffffffffffffffffffff16632442e1cb600185036040518263ffffffff167c010000000000000000000000000000000000000000000000000000000002815260040180828152602001915050600060405180830381600087803b1580156123d757600080fd5b505af11580156123eb573d6000803e3d6000fd5b505050506040513d6000823e3d601f19601f8201168201806040525060c081101561241557600080fd5b8101908080519060200190929190805190602001909291908051906020019092919080519060200190929190805164010000000081111561245557600080fd5b8281019050602081018481111561246b57600080fd5b815185600182028301116401000000008211171561248857600080fd5b505092919060200180516401000000008111156124a457600080fd5b828101905060208101848111156124ba57600080fd5b81518560018202830111640100000000821117156124d757600080fd5b505092919050505050509350505050428163ffffffff161115801561250157508163ffffffff1642105b93505b50505090565b6000806000806000806000600260009054906101000a900473ffffffffffffffffffffffffffffffffffffffff1673ffffffffffffffffffffffffffffffffffffffff1663299a017c6040518163ffffffff167c0100000000000000000000000000000000000000000000000000000000028152600401600060405180830381600087803b15801561259b57600080fd5b505af11580156125af573d6000803e3d6000fd5b505050506040513d6000823e3d601f19601f8201168201806040525060c08110156125d957600080fd5b8101908080519060200190929190805190602001909291908051906020019092919080519060200190929190805164010000000081111561261957600080fd5b8281019050602081018481111561262f57600080fd5b815185600182028301116401000000008211171561264c57600080fd5b5050929190602001805164010000000081111561266857600080fd5b8281019050602081018481111561267e57600080fd5b815185600182028301116401000000008211171561269b57600080fd5b5050929190505050505094509450945050600760008363ffffffff1663ffffffff16815260200190815260200160002060009054906101000a900460ff16905080156126fa57600080600082925081915080905096509650965061274a565b8383428463ffffffff16108015612717575060008463ffffffff16115b6127215783612743565b7fffffffffffffffffffffffffffffffffffffffffffffffffffffffffffffffff5b9650965096505b50505050909192565b6000809054906101000a900473ffffffffffffffffffffffffffffffffffffffff1673ffffffffffffffffffffffffffffffffffffffff163373ffffffffffffffffffffffffffffffffffffffff161415156127ae57600080fd5b600073ffffffffffffffffffffffffffffffffffffffff168173ffffffffffffffffffffffffffffffffffffffff16141515156127ea57600080fd5b80600360006101000a81548173ffffffffffffffffffffffffffffffffffffffff021916908373ffffffffffffffffffffffffffffffffffffffff16021790555050565b60085481565b60095481565b60076020528060005260406000206000915054906101000a900460ff1681565b6000809054906101000a900473ffffffffffffffffffffffffffffffffffffffff1673ffffffffffffffffffffffffffffffffffffffff163373ffffffffffffffffffffffffffffffffffffffff161415156128b557600080fd5b6128be8161296b565b50565b60008060008414156128d657600091506128f8565b82840290508284828115156128e757fe5b041415156128f457600080fd5b8091505b5092915050565b60008060008311151561291157600080fd5b828481151561291c57fe5b0490508091505092915050565b600080828401905083811015151561294057600080fd5b8091505092915050565b60008083831115151561295c57600080fd5b82840390508091505092915050565b600073ffffffffffffffffffffffffffffffffffffffff168173ffffffffffffffffffffffffffffffffffffffff16141515156129a757600080fd5b8073ffffffffffffffffffffffffffffffffffffffff166000809054906101000a900473ffffffffffffffffffffffffffffffffffffffff1673ffffffffffffffffffffffffffffffffffffffff167f8be0079c531659141344cd1fd0a4f28419497f9722a3daafe3b4186f6b6457e060405160405180910390a3806000806101000a81548173ffffffffffffffffffffffffffffffffffffffff021916908373ffffffffffffffffffffffffffffffffffffffff160217905550505600a165627a7a7230582061687fd4ad011f5bc1d9f6d45492c2e6a68b389f79bea4e0694271955e7b0ab60029",
  "source": "pragma solidity ^0.4.24;\n\nimport \"../openzeppelin-solidity/contracts/ownership/Ownable.sol\";\nimport \"../openzeppelin-solidity/contracts/ReentrancyGuard.sol\";\nimport \"../openzeppelin-solidity/contracts/math/SafeMath.sol\";\nimport \"./WToken.sol\";\nimport \"./interfaces/IW12Crowdsale.sol\";\nimport \"./interfaces/IW12Fund.sol\";\n\n\ncontract W12Fund is IW12Fund, Ownable, ReentrancyGuard {\n    using SafeMath for uint;\n\n    IW12Crowdsale public crowdsale;\n    address public swap;\n    WToken public wToken;\n    uint public tokenDecimals; // TODO: refactor this\n    mapping (address=>TokenPriceInfo) public buyers;\n    mapping (uint32 => bool) public completedTranches; // TODO: refactor this\n    uint public totalFunded;\n    uint public totalRefunded;\n\n    struct TokenPriceInfo {\n        uint totalBought;\n        uint averagePrice;\n        uint totalFunded;\n    }\n\n    event FundsReceived(address indexed buyer, uint weiAmount, uint tokenAmount);\n    event FundsRefunded(address indexed buyer, uint weiAmount, uint tokenAmount);\n    event TrancheOperation(address indexed receiver, uint amount);\n\n    function setCrowdsale(IW12Crowdsale _crowdsale) onlyOwner external {\n        require(_crowdsale != address(0));\n\n        crowdsale = _crowdsale;\n        wToken = _crowdsale.getWToken();\n        tokenDecimals = wToken.decimals();\n    }\n\n    function setSwap(address _swap) onlyOwner external {\n        require(_swap != address(0));\n\n        swap = _swap;\n    }\n\n    function recordPurchase(address buyer, uint tokenAmount) external payable onlyFrom(crowdsale) {\n        buyers[buyer].totalBought = buyers[buyer].totalBought.add(tokenAmount);\n        buyers[buyer].totalFunded = buyers[buyer].totalFunded.add(msg.value);\n        buyers[buyer].averagePrice = (buyers[buyer].totalFunded.mul(10 ** tokenDecimals)).div(buyers[buyer].totalBought);\n\n        totalFunded = totalFunded.add(msg.value);\n\n        emit FundsReceived(buyer, msg.value, tokenAmount);\n    }\n\n    function getInvestmentsInfo(address buyer) external view returns (uint totalTokensBought, uint averageTokenPrice) {\n        require(buyer != address(0));\n\n        return (buyers[buyer].totalBought, buyers[buyer].averagePrice);\n    }\n\n    /**\n        calculation parameters:\n\n            a = address(this).balance\n            b = totalFunded\n            c = buyers[buyer].totalFunded\n            d = buyers[buyer].totalBought\n            e = wtokensToRefund\n\n        formula:\n            ( ( c * (a / b) ) / d ) * e = (refund amount)\n\n        adapted:\n            1. c * b / a = A_1\n            2. A_1 * 10 ** 8 / d * e / 10 ** 8\n    */\n    function getRefundAmount(uint wtokensToRefund) public view returns (uint result) {\n        uint max = uint(-1) / 10 ** (tokenDecimals + 8);\n        address buyer = msg.sender;\n\n        if(wtokensToRefund == 0\n            || buyers[buyer].totalBought == 0\n            || address(this).balance == 0\n            || wToken.balanceOf(buyer) < wtokensToRefund\n            || buyers[buyer].totalBought < wtokensToRefund)\n            return 0;\n\n        if (address(this).balance > 0) {\n            uint allowedFund = buyers[buyer].totalFunded.mul(totalFunded).div(address(this).balance);\n            uint precisionComponent = allowedFund >= max ? 1 : 10 ** (tokenDecimals + 8);\n\n            result = result.add(\n                allowedFund\n                    .mul(precisionComponent)\n                    .div(buyers[buyer].totalBought)\n                    .mul(wtokensToRefund)\n                    .div(precisionComponent)\n            );\n        }\n    }\n\n    function getTrancheAmount() public view returns (uint) {\n        uint result = 0;\n        (uint8 tranchePercent, uint32 start, uint32 end) = getTrancheParameters();\n\n        bool completed = completedTranches[end];\n\n        if (\n            !completed\n            && start > 0\n            && end >= now\n            && start < now\n            && tranchePercent > 0\n            && address(this).balance > 0\n        ) {\n            uint allowedFund = totalFunded.sub(totalRefunded);\n\n            result = result.add(\n                allowedFund\n                .mul(tranchePercent)\n                .div(100)\n            );\n        }\n\n        return result;\n    }\n\n    function getTrancheParameters() public view returns (uint8, uint32, uint32) {\n        (, uint8 tranchePercent, uint32 voteEndDate, uint32 withdrawalWindow,,) = crowdsale.getCurrentMilestone();\n\n        bool completed = completedTranches[withdrawalWindow];\n\n        if (completed) {\n            return (0, 0, 0);\n        }\n\n        return (\n            tranchePercent,\n            voteEndDate,\n            withdrawalWindow < now && withdrawalWindow > 0\n                ? uint32(-1)\n                : withdrawalWindow\n        );\n    }\n\n    function tranche() external onlyOwner nonReentrant {\n        require(trancheTransferAllowed());\n\n        uint trancheAmount = getTrancheAmount();\n        (,, uint32 withdrawalWindow) = getTrancheParameters();\n\n        require(trancheAmount > 0);\n\n        completedTranches[withdrawalWindow] = true;\n\n        msg.sender.transfer(trancheAmount);\n\n        emit TrancheOperation(msg.sender, trancheAmount);\n    }\n\n    function refund(uint wtokensToRefund) external nonReentrant {\n        address buyer = msg.sender;\n\n        require(refundAllowed());\n        require(wtokensToRefund > 0);\n        require(buyers[buyer].totalBought >= wtokensToRefund);\n        require(wToken.balanceOf(buyer) >= wtokensToRefund);\n        require(wToken.allowance(msg.sender, address(this)) >= wtokensToRefund);\n\n        uint transferAmount = getRefundAmount(wtokensToRefund);\n\n        require(transferAmount > 0);\n        require(wToken.transferFrom(buyer, swap, wtokensToRefund));\n\n        buyers[buyer].totalBought = buyers[buyer].totalBought\n            .sub(wtokensToRefund);\n        buyers[buyer].totalFunded = buyers[buyer].totalFunded\n            .sub(wtokensToRefund.mul(buyers[buyer].averagePrice).div(10 ** tokenDecimals));\n\n        // update total refunded amount counter\n        totalRefunded = totalRefunded.add(transferAmount);\n\n        buyer.transfer(transferAmount);\n\n        emit FundsRefunded(buyer, transferAmount, wtokensToRefund);\n    }\n\n    function refundAllowed() public view returns (bool) {\n        uint currentMilestoneIndex = crowdsale.getCurrentMilestoneIndex();\n\n        // first milestone is reserved for the project to claim initial amount of payments. No refund allowed at this stage.\n        if(currentMilestoneIndex == 0)\n            return false;\n\n        (uint32 endDate, , , uint32 withdrawalWindow, , ) = crowdsale.getMilestone(currentMilestoneIndex - 1);\n\n        // Refund allowed from ending of previous milestone to closing of withdrawal window\n        if(endDate <= now && now < withdrawalWindow)\n            return true;\n\n        (endDate, , , withdrawalWindow, , ) = crowdsale.getMilestone(currentMilestoneIndex);\n\n        return endDate <= now && now < withdrawalWindow;\n    }\n\n    function trancheTransferAllowed() public view returns (bool) {\n        uint currentMilestoneIndex = crowdsale.getCurrentMilestoneIndex();\n\n        if(currentMilestoneIndex == 0)\n            return crowdsale.isEnded();\n\n        (uint32 endDate, , , , , ) = crowdsale.getMilestone(currentMilestoneIndex);\n        (, , , uint32 withdrawalWindow, , ) = crowdsale.getMilestone(currentMilestoneIndex - 1);\n\n\n        // Refund allowed from ending of previous milestone to closing of withdrawal window\n        return withdrawalWindow <= now && now < endDate;\n    }\n\n    modifier onlyFrom(address sender) {\n        require(msg.sender == sender);\n\n        _;\n    }\n}\n",
  "sourcePath": "/home/andrey/Code/w12/platform-contracts/contracts/W12Fund.sol",
  "compiler": {
    "name": "solc",
    "version": "0.4.24+commit.e67f0147.Emscripten.clang"
  },
  "schemaVersion": "2.0.1",
  "updatedAt": "2018-08-21T12:11:42.349Z"
}