{
  "contractName": "W12FundStub",
  "abi": [
    {
      "constant": true,
      "inputs": [],
      "name": "getTotalFundedAssetsSymbols",
      "outputs": [
        {
          "name": "",
          "type": "bytes32[]"
        }
      ],
      "payable": false,
      "stateMutability": "view",
      "type": "function"
    },
    {
      "constant": true,
      "inputs": [],
      "name": "wToken",
      "outputs": [
        {
          "name": "",
          "type": "address"
        }
      ],
      "payable": false,
      "stateMutability": "view",
      "type": "function"
    },
    {
      "constant": true,
      "inputs": [],
      "name": "getServiceWallet",
      "outputs": [
        {
          "name": "",
          "type": "address"
        }
      ],
      "payable": false,
      "stateMutability": "view",
      "type": "function"
    },
    {
      "constant": false,
      "inputs": [
        {
          "name": "_account",
          "type": "address"
        }
      ],
      "name": "removeAdmin",
      "outputs": [],
      "payable": false,
      "stateMutability": "nonpayable",
      "type": "function"
    },
    {
      "constant": true,
      "inputs": [],
      "name": "totalTranchePercentReleased",
      "outputs": [
        {
          "name": "",
          "type": "uint256"
        }
      ],
      "payable": false,
      "stateMutability": "view",
      "type": "function"
    },
    {
      "constant": false,
      "inputs": [
        {
          "name": "recipient",
          "type": "address"
        }
      ],
      "name": "transferPrimary",
      "outputs": [],
      "payable": false,
      "stateMutability": "nonpayable",
      "type": "function"
    },
    {
      "constant": true,
      "inputs": [
        {
          "name": "milestoneIndex",
          "type": "uint256"
        }
      ],
      "name": "completedTranches",
      "outputs": [
        {
          "name": "",
          "type": "bool"
        }
      ],
      "payable": false,
      "stateMutability": "view",
      "type": "function"
    },
    {
      "constant": false,
      "inputs": [
        {
          "name": "_serviceWallet",
          "type": "address"
        }
      ],
      "name": "setServiceWallet",
      "outputs": [],
      "payable": false,
      "stateMutability": "nonpayable",
      "type": "function"
    },
    {
      "constant": true,
      "inputs": [
        {
          "name": "account",
          "type": "address"
        }
      ],
      "name": "isAdmin",
      "outputs": [
        {
          "name": "",
          "type": "bool"
        }
      ],
      "payable": false,
      "stateMutability": "view",
      "type": "function"
    },
    {
      "constant": false,
      "inputs": [
        {
          "name": "index",
          "type": "uint256"
        }
      ],
      "name": "tranche_index",
      "outputs": [],
      "payable": false,
      "stateMutability": "nonpayable",
      "type": "function"
    },
    {
      "constant": false,
      "inputs": [
        {
          "name": "tokenAmount",
          "type": "uint256"
        }
      ],
      "name": "refund",
      "outputs": [],
      "payable": false,
      "stateMutability": "nonpayable",
      "type": "function"
    },
    {
      "constant": true,
      "inputs": [],
      "name": "oracles",
      "outputs": [
        {
          "name": "",
          "type": "address"
        }
      ],
      "payable": false,
      "stateMutability": "view",
      "type": "function"
    },
    {
      "constant": true,
      "inputs": [
        {
          "name": "index",
          "type": "uint256"
        }
      ],
      "name": "getTrancheInvoiceIndex",
      "outputs": [
        {
          "name": "result",
          "type": "uint256[3]"
        }
      ],
      "payable": false,
      "stateMutability": "view",
      "type": "function"
    },
    {
      "constant": false,
      "inputs": [
        {
          "name": "_account",
          "type": "address"
        }
      ],
      "name": "addProjectOwner",
      "outputs": [],
      "payable": false,
      "stateMutability": "nonpayable",
      "type": "function"
    },
    {
      "constant": true,
      "inputs": [],
      "name": "rates",
      "outputs": [
        {
          "name": "",
          "type": "address"
        }
      ],
      "payable": false,
      "stateMutability": "view",
      "type": "function"
    },
    {
      "constant": false,
      "inputs": [
        {
          "name": "_crowdsale",
          "type": "address"
        }
      ],
      "name": "setCrowdsale",
      "outputs": [],
      "payable": false,
      "stateMutability": "nonpayable",
      "type": "function"
    },
    {
      "constant": true,
      "inputs": [],
      "name": "version",
      "outputs": [
        {
          "name": "",
          "type": "uint256"
        }
      ],
      "payable": false,
      "stateMutability": "view",
      "type": "function"
    },
    {
      "constant": true,
      "inputs": [
        {
          "name": "index",
          "type": "uint256"
        }
      ],
      "name": "trancheTransferAllowedIndex",
      "outputs": [
        {
          "name": "",
          "type": "bool"
        }
      ],
      "payable": false,
      "stateMutability": "view",
      "type": "function"
    },
    {
      "constant": true,
      "inputs": [],
      "name": "serviceWallet",
      "outputs": [
        {
          "name": "",
          "type": "address"
        }
      ],
      "payable": false,
      "stateMutability": "view",
      "type": "function"
    },
    {
      "constant": true,
      "inputs": [],
      "name": "tokenRefundAllowed",
      "outputs": [
        {
          "name": "",
          "type": "bool"
        }
      ],
      "payable": false,
      "stateMutability": "view",
      "type": "function"
    },
    {
      "constant": false,
      "inputs": [],
      "name": "tranche",
      "outputs": [],
      "payable": false,
      "stateMutability": "nonpayable",
      "type": "function"
    },
    {
      "constant": false,
      "inputs": [
        {
          "name": "_account",
          "type": "address"
        }
      ],
      "name": "addAdmin",
      "outputs": [],
      "payable": false,
      "stateMutability": "nonpayable",
      "type": "function"
    },
    {
      "constant": true,
      "inputs": [
        {
          "name": "_symbol",
          "type": "bytes32"
        }
      ],
      "name": "getTotalFundedReleased",
      "outputs": [
        {
          "name": "",
          "type": "uint256"
        }
      ],
      "payable": false,
      "stateMutability": "view",
      "type": "function"
    },
    {
      "constant": true,
      "inputs": [],
      "name": "swap",
      "outputs": [
        {
          "name": "",
          "type": "address"
        }
      ],
      "payable": false,
      "stateMutability": "view",
      "type": "function"
    },
    {
      "constant": true,
      "inputs": [],
      "name": "isWithdrawalWindowActive",
      "outputs": [
        {
          "name": "",
          "type": "bool"
        }
      ],
      "payable": false,
      "stateMutability": "view",
      "type": "function"
    },
    {
      "constant": false,
      "inputs": [],
      "name": "renounceAdmin",
      "outputs": [],
      "payable": false,
      "stateMutability": "nonpayable",
      "type": "function"
    },
    {
      "constant": true,
      "inputs": [
        {
          "name": "_investor",
          "type": "address"
        }
      ],
      "name": "getInvestorTokenBoughtAmount",
      "outputs": [
        {
          "name": "",
          "type": "uint256"
        }
      ],
      "payable": false,
      "stateMutability": "view",
      "type": "function"
    },
    {
      "constant": true,
      "inputs": [
        {
          "name": "_symbol",
          "type": "bytes32"
        }
      ],
      "name": "getTotalFundedAmount",
      "outputs": [
        {
          "name": "",
          "type": "uint256"
        }
      ],
      "payable": false,
      "stateMutability": "view",
      "type": "function"
    },
    {
      "constant": true,
      "inputs": [],
      "name": "crowdsale",
      "outputs": [
        {
          "name": "",
          "type": "address"
        }
      ],
      "payable": false,
      "stateMutability": "view",
      "type": "function"
    },
    {
      "constant": true,
      "inputs": [],
      "name": "trancheTransferAllowed",
      "outputs": [
        {
          "name": "",
          "type": "bool"
        }
      ],
      "payable": false,
      "stateMutability": "view",
      "type": "function"
    },
    {
      "constant": true,
      "inputs": [],
      "name": "trancheFeePercent",
      "outputs": [
        {
          "name": "",
          "type": "uint256"
        }
      ],
      "payable": false,
      "stateMutability": "view",
      "type": "function"
    },
    {
      "constant": true,
      "inputs": [],
      "name": "getTrancheInvoice",
      "outputs": [
        {
          "name": "result",
          "type": "uint256[3]"
        }
      ],
      "payable": false,
      "stateMutability": "view",
      "type": "function"
    },
    {
      "constant": false,
      "inputs": [
        {
          "name": "_swap",
          "type": "address"
        }
      ],
      "name": "setSwap",
      "outputs": [],
      "payable": false,
      "stateMutability": "nonpayable",
      "type": "function"
    },
    {
      "constant": true,
      "inputs": [
        {
          "name": "_investor",
          "type": "address"
        }
      ],
      "name": "getInvestorFundedAssetsSymbols",
      "outputs": [
        {
          "name": "",
          "type": "bytes32[]"
        }
      ],
      "payable": false,
      "stateMutability": "view",
      "type": "function"
    },
    {
      "constant": true,
      "inputs": [],
      "name": "totalTokenBought",
      "outputs": [
        {
          "name": "",
          "type": "uint256"
        }
      ],
      "payable": false,
      "stateMutability": "view",
      "type": "function"
    },
    {
      "constant": true,
      "inputs": [],
      "name": "primary",
      "outputs": [
        {
          "name": "",
          "type": "address"
        }
      ],
      "payable": false,
      "stateMutability": "view",
      "type": "function"
    },
    {
      "constant": false,
      "inputs": [],
      "name": "renounceProjectOwner",
      "outputs": [],
      "payable": false,
      "stateMutability": "nonpayable",
      "type": "function"
    },
    {
      "constant": false,
      "inputs": [
        {
          "name": "investor",
          "type": "address"
        },
        {
          "name": "tokenAmount",
          "type": "uint256"
        },
        {
          "name": "symbol",
          "type": "bytes32"
        },
        {
          "name": "cost",
          "type": "uint256"
        },
        {
          "name": "costUSD",
          "type": "uint256"
        }
      ],
      "name": "recordPurchase",
      "outputs": [],
      "payable": true,
      "stateMutability": "payable",
      "type": "function"
    },
    {
      "constant": false,
      "inputs": [
        {
          "name": "_account",
          "type": "address"
        }
      ],
      "name": "removeProjectOwner",
      "outputs": [],
      "payable": false,
      "stateMutability": "nonpayable",
      "type": "function"
    },
    {
      "constant": true,
      "inputs": [
        {
          "name": "account",
          "type": "address"
        }
      ],
      "name": "isProjectOwner",
      "outputs": [
        {
          "name": "",
          "type": "bool"
        }
      ],
      "payable": false,
      "stateMutability": "view",
      "type": "function"
    },
    {
      "constant": true,
      "inputs": [
        {
          "name": "_investor",
          "type": "address"
        },
        {
          "name": "_symbol",
          "type": "bytes32"
        }
      ],
      "name": "getInvestorFundedAmount",
      "outputs": [
        {
          "name": "",
          "type": "uint256"
        }
      ],
      "payable": false,
      "stateMutability": "view",
      "type": "function"
    },
    {
      "constant": true,
      "inputs": [],
      "name": "totalTokenRefunded",
      "outputs": [
        {
          "name": "",
          "type": "uint256"
        }
      ],
      "payable": false,
      "stateMutability": "view",
      "type": "function"
    },
    {
      "inputs": [
        {
          "name": "version",
          "type": "uint256"
        },
        {
          "name": "crowdsaleAddress",
          "type": "address"
        },
        {
          "name": "swapAddress",
          "type": "address"
        },
        {
          "name": "wTokenAddress",
          "type": "address"
        },
        {
          "name": "_serviceWallet",
          "type": "address"
        },
        {
          "name": "_trancheFeePercent",
          "type": "uint256"
        },
        {
          "name": "_rates",
          "type": "address"
        },
        {
          "name": "oracles_addr",
          "type": "address"
        }
      ],
      "payable": false,
      "stateMutability": "nonpayable",
      "type": "constructor"
    },
    {
      "payable": true,
      "stateMutability": "payable",
      "type": "fallback"
    },
    {
      "anonymous": false,
      "inputs": [
        {
          "indexed": true,
          "name": "investor",
          "type": "address"
        },
        {
          "indexed": false,
          "name": "tokenAmount",
          "type": "uint256"
        },
        {
          "indexed": false,
          "name": "symbol",
          "type": "bytes32"
        },
        {
          "indexed": false,
          "name": "cost",
          "type": "uint256"
        }
      ],
      "name": "FundsReceived",
      "type": "event"
    },
    {
      "anonymous": false,
      "inputs": [
        {
          "indexed": true,
          "name": "investor",
          "type": "address"
        },
        {
          "indexed": false,
          "name": "symbol",
          "type": "bytes32"
        },
        {
          "indexed": false,
          "name": "amount",
          "type": "uint256"
        }
      ],
      "name": "AssetRefunded",
      "type": "event"
    },
    {
      "anonymous": false,
      "inputs": [
        {
          "indexed": true,
          "name": "investor",
          "type": "address"
        },
        {
          "indexed": false,
          "name": "tokenAmount",
          "type": "uint256"
        }
      ],
      "name": "TokenRefunded",
      "type": "event"
    },
    {
      "anonymous": false,
      "inputs": [
        {
          "indexed": true,
          "name": "receiver",
          "type": "address"
        },
        {
          "indexed": false,
          "name": "symbol",
          "type": "bytes32"
        },
        {
          "indexed": false,
          "name": "amount",
          "type": "uint256"
        }
      ],
      "name": "TrancheTransferred",
      "type": "event"
    },
    {
      "anonymous": false,
      "inputs": [
        {
          "indexed": true,
          "name": "receiver",
          "type": "address"
        },
        {
          "indexed": false,
          "name": "percent",
          "type": "uint256"
        }
      ],
      "name": "TrancheReleased",
      "type": "event"
    },
    {
      "anonymous": false,
      "inputs": [
        {
          "indexed": false,
          "name": "recipient",
          "type": "address"
        }
      ],
      "name": "PrimaryTransferred",
      "type": "event"
    },
    {
      "anonymous": false,
      "inputs": [
        {
          "indexed": true,
          "name": "account",
          "type": "address"
        }
      ],
      "name": "ProjectOwnerAdded",
      "type": "event"
    },
    {
      "anonymous": false,
      "inputs": [
        {
          "indexed": true,
          "name": "account",
          "type": "address"
        }
      ],
      "name": "ProjectOwnerRemoved",
      "type": "event"
    },
    {
      "anonymous": false,
      "inputs": [
        {
          "indexed": true,
          "name": "account",
          "type": "address"
        }
      ],
      "name": "AdminAdded",
      "type": "event"
    },
    {
      "anonymous": false,
      "inputs": [
        {
          "indexed": true,
          "name": "account",
          "type": "address"
        }
      ],
      "name": "AdminRemoved",
      "type": "event"
    },
    {
      "constant": false,
      "inputs": [
        {
          "name": "_symbol",
          "type": "bytes32"
        },
        {
          "name": "_amount",
          "type": "uint256"
        }
      ],
      "name": "_outFunds",
      "outputs": [],
      "payable": false,
      "stateMutability": "nonpayable",
      "type": "function"
    }
  ],
  "bytecode": "0x60806040523480156200001157600080fd5b506040516101008062004e20833981018060405281019080805190602001909291908051906020019092919080519060200190929190805190602001909291908051906020019092919080519060200190929190805190602001909291908051906020019092919050505087838383836200009b3362000519640100000000026401000000009004565b620000b53362000583640100000000026401000000009004565b806002819055505033600360006101000a81548173ffffffffffffffffffffffffffffffffffffffff021916908373ffffffffffffffffffffffffffffffffffffffff1602179055507f4101e71e974f68df5e9730cc223280b41654676bbb052cdcc735c3337e64d2d9600360009054906101000a900473ffffffffffffffffffffffffffffffffffffffff16604051808273ffffffffffffffffffffffffffffffffffffffff1673ffffffffffffffffffffffffffffffffffffffff16815260200191505060405180910390a160016004819055508273__Percent_______________________________63520b006690916040518263ffffffff167c01000000000000000000000000000000000000000000000000000000000281526004018082815260200191505060206040518083038186803b158015620001f957600080fd5b505af41580156200020e573d6000803e3d6000fd5b505050506040513d60208110156200022557600080fd5b81019080805190602001909291905050508015620002ed575060648373__Percent_______________________________630fe9114790916040518263ffffffff167c01000000000000000000000000000000000000000000000000000000000281526004018082815260200191505060206040518083038186803b158015620002ae57600080fd5b505af4158015620002c3573d6000803e3d6000fd5b505050506040513d6020811015620002da57600080fd5b8101908080519060200190929190505050105b1515620002f957600080fd5b600073ffffffffffffffffffffffffffffffffffffffff168273ffffffffffffffffffffffffffffffffffffffff16141515156200033657600080fd5b600073ffffffffffffffffffffffffffffffffffffffff168173ffffffffffffffffffffffffffffffffffffffff16141515156200037357600080fd5b82600a8190555081600760006101000a81548173ffffffffffffffffffffffffffffffffffffffff021916908373ffffffffffffffffffffffffffffffffffffffff16021790555080601560006101000a81548173ffffffffffffffffffffffffffffffffffffffff021916908373ffffffffffffffffffffffffffffffffffffffff1602179055505050505086600560006101000a81548173ffffffffffffffffffffffffffffffffffffffff021916908373ffffffffffffffffffffffffffffffffffffffff16021790555085600860006101000a81548173ffffffffffffffffffffffffffffffffffffffff021916908373ffffffffffffffffffffffffffffffffffffffff16021790555084600660006101000a81548173ffffffffffffffffffffffffffffffffffffffff021916908373ffffffffffffffffffffffffffffffffffffffff16021790555082600a8190555083600960006101000a81548173ffffffffffffffffffffffffffffffffffffffff021916908373ffffffffffffffffffffffffffffffffffffffff160217905550505050505050505062000745565b6200053d816000620005ed64010000000002620045cc179091906401000000009004565b8073ffffffffffffffffffffffffffffffffffffffff167f44d6d25963f097ad14f29f06854a01f575648a1ef82f30e562ccd3889717e33960405160405180910390a250565b620005a7816001620005ed64010000000002620045cc179091906401000000009004565b8073ffffffffffffffffffffffffffffffffffffffff167f941e31c3e651de34a7fcf0132d9d02c2df9377e6b5f932bec5daf6353c94f90e60405160405180910390a250565b600073ffffffffffffffffffffffffffffffffffffffff168173ffffffffffffffffffffffffffffffffffffffff16141515156200062a57600080fd5b620006458282620006b0640100000000026401000000009004565b1515156200065257600080fd5b60018260000160008373ffffffffffffffffffffffffffffffffffffffff1673ffffffffffffffffffffffffffffffffffffffff16815260200190815260200160002060006101000a81548160ff0219169083151502179055505050565b60008073ffffffffffffffffffffffffffffffffffffffff168273ffffffffffffffffffffffffffffffffffffffff1614151515620006ee57600080fd5b8260000160008373ffffffffffffffffffffffffffffffffffffffff1673ffffffffffffffffffffffffffffffffffffffff16815260200190815260200160002060009054906101000a900460ff16905092915050565b6146cb80620007556000396000f30060806040526004361061020f576000357c0100000000000000000000000000000000000000000000000000000000900463ffffffff168063015dd28c146102115780630babd8641461027d57806313946cd5146102d45780631785f53c1461032b57806319ae48ed1461036e5780632348238c1461039957806323585f96146103dc57806323bffccc1461042157806324d7806c1461046457806324e4ea4b146104bf578063278ecde1146104ec5780632857373a14610519578063392822b8146105705780633bcdb164146105d957806343f48fbd1461061c578063483a20b2146106735780634992a352146106b657806354fd4d50146106f1578063553ff8d61461071c5780635641f3c3146107615780636b90d6d2146107b85780636ebc0af1146107e757806370480275146107fe5780637a1c2da3146108415780638119c065146108865780638429fffe146108dd5780638bad0c0a1461090c5780639124a789146109235780639ab269a61461097a5780639c1e03a0146109bf5780639e80baac14610a16578063a328665a14610a45578063a3b768e114610a70578063acb3c07314610ac3578063adb9dd0814610b06578063b4105a3e14610b9e578063c6dbdf6114610bc9578063d0934d6114610c20578063d0baf2f514610c37578063d155790b14610c99578063d8e9ce6414610cdc578063f206cb6414610d37578063fb2814c414610d9c575b005b34801561021d57600080fd5b50610226610dc7565b6040518080602001828103825283818151815260200191508051906020019060200280838360005b8381101561026957808201518184015260208101905061024e565b505050509050019250505060405180910390f35b34801561028957600080fd5b50610292610ed0565b604051808273ffffffffffffffffffffffffffffffffffffffff1673ffffffffffffffffffffffffffffffffffffffff16815260200191505060405180910390f35b3480156102e057600080fd5b506102e9610ef6565b604051808273ffffffffffffffffffffffffffffffffffffffff1673ffffffffffffffffffffffffffffffffffffffff16815260200191505060405180910390f35b34801561033757600080fd5b5061036c600480360381019080803573ffffffffffffffffffffffffffffffffffffffff169060200190929190505050610f20565b005b34801561037a57600080fd5b50610383610f2c565b6040518082815260200191505060405180910390f35b3480156103a557600080fd5b506103da600480360381019080803573ffffffffffffffffffffffffffffffffffffffff169060200190929190505050610f39565b005b3480156103e857600080fd5b506104076004803603810190808035906020019092919050505061109a565b604051808215151515815260200191505060405180910390f35b34801561042d57600080fd5b50610462600480360381019080803573ffffffffffffffffffffffffffffffffffffffff1690602001909291905050506110c7565b005b34801561047057600080fd5b506104a5600480360381019080803573ffffffffffffffffffffffffffffffffffffffff169060200190929190505050611147565b604051808215151515815260200191505060405180910390f35b3480156104cb57600080fd5b506104ea60048036038101908080359060200190929190505050611164565b005b3480156104f857600080fd5b50610517600480360381019080803590602001909291905050506113b8565b005b34801561052557600080fd5b5061052e61190c565b604051808273ffffffffffffffffffffffffffffffffffffffff1673ffffffffffffffffffffffffffffffffffffffff16815260200191505060405180910390f35b34801561057c57600080fd5b5061059b60048036038101908080359060200190929190505050611932565b6040518082600360200280838360005b838110156105c65780820151818401526020810190506105ab565b5050505090500191505060405180910390f35b3480156105e557600080fd5b5061061a600480360381019080803573ffffffffffffffffffffffffffffffffffffffff169060200190929190505050611a60565b005b34801561062857600080fd5b50610631611a6c565b604051808273ffffffffffffffffffffffffffffffffffffffff1673ffffffffffffffffffffffffffffffffffffffff16815260200191505060405180910390f35b34801561067f57600080fd5b506106b4600480360381019080803573ffffffffffffffffffffffffffffffffffffffff169060200190929190505050611a92565b005b3480156106c257600080fd5b506106ef600480360381019080803560001916906020019092919080359060200190929190505050611ccb565b005b3480156106fd57600080fd5b506107066121f6565b6040518082815260200191505060405180910390f35b34801561072857600080fd5b50610747600480360381019080803590602001909291905050506121fc565b604051808215151515815260200191505060405180910390f35b34801561076d57600080fd5b50610776612542565b604051808273ffffffffffffffffffffffffffffffffffffffff1673ffffffffffffffffffffffffffffffffffffffff16815260200191505060405180910390f35b3480156107c457600080fd5b506107cd612568565b604051808215151515815260200191505060405180910390f35b3480156107f357600080fd5b506107fc6130f5565b005b34801561080a57600080fd5b5061083f600480360381019080803573ffffffffffffffffffffffffffffffffffffffff16906020019092919050505061335a565b005b34801561084d57600080fd5b506108706004803603810190808035600019169060200190929190505050613366565b6040518082815260200191505060405180910390f35b34801561089257600080fd5b5061089b61338e565b604051808273ffffffffffffffffffffffffffffffffffffffff1673ffffffffffffffffffffffffffffffffffffffff16815260200191505060405180910390f35b3480156108e957600080fd5b506108f26133b4565b604051808215151515815260200191505060405180910390f35b34801561091857600080fd5b50610921613666565b005b34801561092f57600080fd5b50610964600480360381019080803573ffffffffffffffffffffffffffffffffffffffff169060200190929190505050613671565b6040518082815260200191505060405180910390f35b34801561098657600080fd5b506109a960048036038101908080356000191690602001909291905050506136bd565b6040518082815260200191505060405180910390f35b3480156109cb57600080fd5b506109d4613782565b604051808273ffffffffffffffffffffffffffffffffffffffff1673ffffffffffffffffffffffffffffffffffffffff16815260200191505060405180910390f35b348015610a2257600080fd5b50610a2b6137a8565b604051808215151515815260200191505060405180910390f35b348015610a5157600080fd5b50610a5a613ae4565b6040518082815260200191505060405180910390f35b348015610a7c57600080fd5b50610a85613aea565b6040518082600360200280838360005b83811015610ab0578082015181840152602081019050610a95565b5050505090500191505060405180910390f35b348015610acf57600080fd5b50610b04600480360381019080803573ffffffffffffffffffffffffffffffffffffffff169060200190929190505050613c0d565b005b348015610b1257600080fd5b50610b47600480360381019080803573ffffffffffffffffffffffffffffffffffffffff169060200190929190505050613c8d565b6040518080602001828103825283818151815260200191508051906020019060200280838360005b83811015610b8a578082015181840152602081019050610b6f565b505050509050019250505060405180910390f35b348015610baa57600080fd5b50610bb3613dd5565b6040518082815260200191505060405180910390f35b348015610bd557600080fd5b50610bde613de2565b604051808273ffffffffffffffffffffffffffffffffffffffff1673ffffffffffffffffffffffffffffffffffffffff16815260200191505060405180910390f35b348015610c2c57600080fd5b50610c35613e0c565b005b610c97600480360381019080803573ffffffffffffffffffffffffffffffffffffffff1690602001909291908035906020019092919080356000191690602001909291908035906020019092919080359060200190929190505050613e17565b005b348015610ca557600080fd5b50610cda600480360381019080803573ffffffffffffffffffffffffffffffffffffffff169060200190929190505050613f54565b005b348015610ce857600080fd5b50610d1d600480360381019080803573ffffffffffffffffffffffffffffffffffffffff169060200190929190505050613f60565b604051808215151515815260200191505060405180910390f35b348015610d4357600080fd5b50610d86600480360381019080803573ffffffffffffffffffffffffffffffffffffffff1690602001909291908035600019169060200190929190505050613f7d565b6040518082815260200191505060405180910390f35b348015610da857600080fd5b50610db1614080565b6040518082815260200191505060405180910390f35b6060600b60020173__FundAccount___________________________6320e1e1d190916040518263ffffffff167c01000000000000000000000000000000000000000000000000000000000281526004018082815260200191505060006040518083038186803b158015610e3a57600080fd5b505af4158015610e4e573d6000803e3d6000fd5b505050506040513d6000823e3d601f19601f820116820180604052506020811015610e7857600080fd5b810190808051640100000000811115610e9057600080fd5b82810190506020810184811115610ea657600080fd5b8151856020820283011164010000000082111715610ec357600080fd5b5050929190505050905090565b600660009054906101000a900473ffffffffffffffffffffffffffffffffffffffff1681565b6000600960009054906101000a900473ffffffffffffffffffffffffffffffffffffffff16905090565b610f298161408d565b50565b6000600b60010154905090565b600360009054906101000a900473ffffffffffffffffffffffffffffffffffffffff1673ffffffffffffffffffffffffffffffffffffffff163373ffffffffffffffffffffffffffffffffffffffff16141515610f9557600080fd5b600073ffffffffffffffffffffffffffffffffffffffff168173ffffffffffffffffffffffffffffffffffffffff1614151515610fd157600080fd5b80600360006101000a81548173ffffffffffffffffffffffffffffffffffffffff021916908373ffffffffffffffffffffffffffffffffffffffff1602179055507f4101e71e974f68df5e9730cc223280b41654676bbb052cdcc735c3337e64d2d9600360009054906101000a900473ffffffffffffffffffffffffffffffffffffffff16604051808273ffffffffffffffffffffffffffffffffffffffff1673ffffffffffffffffffffffffffffffffffffffff16815260200191505060405180910390a150565b6000600b600001600083815260200190815260200160002060009054906101000a900460ff169050919050565b600073ffffffffffffffffffffffffffffffffffffffff168173ffffffffffffffffffffffffffffffffffffffff161415151561110357600080fd5b80600960006101000a81548173ffffffffffffffffffffffffffffffffffffffff021916908373ffffffffffffffffffffffffffffffffffffffff16021790555050565b600061115d8260006140e790919063ffffffff16565b9050919050565b61116c61467c565b60006001600460008282540192505081905550600454905061118d83611932565b915060008260006003811015156111a057fe5b60200201511115156111b157600080fd5b6000600b60020173__FundAccount___________________________6320e1e1d190916040518263ffffffff167c01000000000000000000000000000000000000000000000000000000000281526004018082815260200191505060006040518083038186803b15801561122457600080fd5b505af4158015611238573d6000803e3d6000fd5b505050506040513d6000823e3d601f19601f82011682018060405250602081101561126257600080fd5b81019080805164010000000081111561127a57600080fd5b8281019050602081018481111561129057600080fd5b81518560208202830111640100000000821117156112ad57600080fd5b505092919050505051141515156112c357600080fd5b6001600b60000160008460026003811015156112db57fe5b6020020151815260200190815260200160002060006101000a81548160ff02191690831515021790555061133082600060038110151561131757fe5b6020020151600b6001015461417b90919063ffffffff16565b600b600101819055506113428261419c565b3373ffffffffffffffffffffffffffffffffffffffff167f4a966617f50ccad97beb624d8e13820bf2a745e1640fed943858499286fc982983600060038110151561138957fe5b60200201516040518082815260200191505060405180910390a2600454811415156113b357600080fd5b505050565b6000600160046000828254019250508190555060045490506113d8612568565b15156113e357600080fd5b600082141515156113f357600080fd5b81600b60080160003373ffffffffffffffffffffffffffffffffffffffff1673ffffffffffffffffffffffffffffffffffffffff168152602001908152602001600020541015151561144457600080fd5b81600660009054906101000a900473ffffffffffffffffffffffffffffffffffffffff1673ffffffffffffffffffffffffffffffffffffffff166370a08231336040518263ffffffff167c0100000000000000000000000000000000000000000000000000000000028152600401808273ffffffffffffffffffffffffffffffffffffffff1673ffffffffffffffffffffffffffffffffffffffff168152602001915050602060405180830381600087803b15801561150257600080fd5b505af1158015611516573d6000803e3d6000fd5b505050506040513d602081101561152c57600080fd5b81019080805190602001909291905050501015151561154a57600080fd5b81600660009054906101000a900473ffffffffffffffffffffffffffffffffffffffff1673ffffffffffffffffffffffffffffffffffffffff1663dd62ed3e33306040518363ffffffff167c0100000000000000000000000000000000000000000000000000000000028152600401808373ffffffffffffffffffffffffffffffffffffffff1673ffffffffffffffffffffffffffffffffffffffff1681526020018273ffffffffffffffffffffffffffffffffffffffff1673ffffffffffffffffffffffffffffffffffffffff16815260200192505050602060405180830381600087803b15801561163c57600080fd5b505af1158015611650573d6000803e3d6000fd5b505050506040513d602081101561166657600080fd5b81019080805190602001909291905050501015151561168457600080fd5b61168d82614309565b6116a582600b6007015461417b90919063ffffffff16565b600b6007018190555061170382600b60080160003373ffffffffffffffffffffffffffffffffffffffff1673ffffffffffffffffffffffffffffffffffffffff168152602001908152602001600020546143ee90919063ffffffff16565b600b60080160003373ffffffffffffffffffffffffffffffffffffffff1673ffffffffffffffffffffffffffffffffffffffff16815260200190815260200160002081905550600660009054906101000a900473ffffffffffffffffffffffffffffffffffffffff1673ffffffffffffffffffffffffffffffffffffffff166323b872dd33600860009054906101000a900473ffffffffffffffffffffffffffffffffffffffff16856040518463ffffffff167c0100000000000000000000000000000000000000000000000000000000028152600401808473ffffffffffffffffffffffffffffffffffffffff1673ffffffffffffffffffffffffffffffffffffffff1681526020018373ffffffffffffffffffffffffffffffffffffffff1673ffffffffffffffffffffffffffffffffffffffff1681526020018281526020019350505050602060405180830381600087803b15801561186457600080fd5b505af1158015611878573d6000803e3d6000fd5b505050506040513d602081101561188e57600080fd5b810190808051906020019092919050505015156118aa57600080fd5b3373ffffffffffffffffffffffffffffffffffffffff167fb7feb6c1d7169f40790388a31c0160d8f962a2b6c31970c28bd8cdfefa25ea29836040518082815260200191505060405180910390a26004548114151561190857600080fd5b5050565b601560009054906101000a900473ffffffffffffffffffffffffffffffffffffffff1681565b61193a61467c565b73__Fund__________________________________634ff45efe600b61195f856121fc565b600560009054906101000a900473ffffffffffffffffffffffffffffffffffffffff16866040518563ffffffff167c010000000000000000000000000000000000000000000000000000000002815260040180858152602001841515151581526020018373ffffffffffffffffffffffffffffffffffffffff1673ffffffffffffffffffffffffffffffffffffffff16815260200182815260200194505050505060606040518083038186803b158015611a1857600080fd5b505af4158015611a2c573d6000803e3d6000fd5b505050506040513d601f19601f820116820180604052506060811015611a5157600080fd5b81019080919050509050919050565b611a698161440f565b50565b600760009054906101000a900473ffffffffffffffffffffffffffffffffffffffff1681565b600073ffffffffffffffffffffffffffffffffffffffff168173ffffffffffffffffffffffffffffffffffffffff1614151515611ace57600080fd5b600073ffffffffffffffffffffffffffffffffffffffff168173ffffffffffffffffffffffffffffffffffffffff16634090cb646040518163ffffffff167c0100000000000000000000000000000000000000000000000000000000028152600401602060405180830381600087803b158015611b4a57600080fd5b505af1158015611b5e573d6000803e3d6000fd5b505050506040513d6020811015611b7457600080fd5b810190808051906020019092919050505073ffffffffffffffffffffffffffffffffffffffff1614151515611ba857600080fd5b80600560006101000a81548173ffffffffffffffffffffffffffffffffffffffff021916908373ffffffffffffffffffffffffffffffffffffffff1602179055508073ffffffffffffffffffffffffffffffffffffffff16634090cb646040518163ffffffff167c0100000000000000000000000000000000000000000000000000000000028152600401602060405180830381600087803b158015611c4d57600080fd5b505af1158015611c61573d6000803e3d6000fd5b505050506040513d6020811015611c7757600080fd5b8101908080519060200190929190505050600660006101000a81548173ffffffffffffffffffffffffffffffffffffffff021916908373ffffffffffffffffffffffffffffffffffffffff16021790555050565b7f45544800000000000000000000000000000000000000000000000000000000006000191682600019161415611d6d57803073ffffffffffffffffffffffffffffffffffffffff163110151515611d2157600080fd5b3373ffffffffffffffffffffffffffffffffffffffff166108fc829081150290604051600060405180830381858888f19350505050158015611d67573d6000803e3d6000fd5b506121f2565b7f55534400000000000000000000000000000000000000000000000000000000006000191682600019161415156121f157600760009054906101000a900473ffffffffffffffffffffffffffffffffffffffff1673ffffffffffffffffffffffffffffffffffffffff1663cfec719f836040518263ffffffff167c0100000000000000000000000000000000000000000000000000000000028152600401808260001916600019168152602001915050602060405180830381600087803b158015611e3757600080fd5b505af1158015611e4b573d6000803e3d6000fd5b505050506040513d6020811015611e6157600080fd5b81019080805190602001909291905050501515611e7d57600080fd5b80600760009054906101000a900473ffffffffffffffffffffffffffffffffffffffff1673ffffffffffffffffffffffffffffffffffffffff1663b12e4410846040518263ffffffff167c0100000000000000000000000000000000000000000000000000000000028152600401808260001916600019168152602001915050602060405180830381600087803b158015611f1757600080fd5b505af1158015611f2b573d6000803e3d6000fd5b505050506040513d6020811015611f4157600080fd5b810190808051906020019092919050505073ffffffffffffffffffffffffffffffffffffffff166370a08231306040518263ffffffff167c0100000000000000000000000000000000000000000000000000000000028152600401808273ffffffffffffffffffffffffffffffffffffffff1673ffffffffffffffffffffffffffffffffffffffff168152602001915050602060405180830381600087803b158015611fec57600080fd5b505af1158015612000573d6000803e3d6000fd5b505050506040513d602081101561201657600080fd5b81019080805190602001909291905050501015151561203457600080fd5b600760009054906101000a900473ffffffffffffffffffffffffffffffffffffffff1673ffffffffffffffffffffffffffffffffffffffff1663b12e4410836040518263ffffffff167c0100000000000000000000000000000000000000000000000000000000028152600401808260001916600019168152602001915050602060405180830381600087803b1580156120cd57600080fd5b505af11580156120e1573d6000803e3d6000fd5b505050506040513d60208110156120f757600080fd5b810190808051906020019092919050505073ffffffffffffffffffffffffffffffffffffffff1663a9059cbb33836040518363ffffffff167c0100000000000000000000000000000000000000000000000000000000028152600401808373ffffffffffffffffffffffffffffffffffffffff1673ffffffffffffffffffffffffffffffffffffffff16815260200182815260200192505050602060405180830381600087803b1580156121aa57600080fd5b505af11580156121be573d6000803e3d6000fd5b505050506040513d60208110156121d457600080fd5b810190808051906020019092919050505015156121f057600080fd5b5b5b5050565b60025481565b600080600080600080600080600560009054906101000a900473ffffffffffffffffffffffffffffffffffffffff1673ffffffffffffffffffffffffffffffffffffffff166314f66d346040518163ffffffff167c01000000000000000000000000000000000000000000000000000000000281526004016040805180830381600087803b15801561228d57600080fd5b505af11580156122a1573d6000803e3d6000fd5b505050506040513d60408110156122b757600080fd5b810190808051906020019092919080519060200190929190505050965096506002600560009054906101000a900473ffffffffffffffffffffffffffffffffffffffff1673ffffffffffffffffffffffffffffffffffffffff16633c9d5c756040518163ffffffff167c0100000000000000000000000000000000000000000000000000000000028152600401602060405180830381600087803b15801561235e57600080fd5b505af1158015612372573d6000803e3d6000fd5b505050506040513d602081101561238857600080fd5b810190808051906020019092919050505060ff161415156123ac5760009750612536565b8515156123b857612536565b868911156123c95760009750612536565b601560009054906101000a900473ffffffffffffffffffffffffffffffffffffffff1694508473ffffffffffffffffffffffffffffffffffffffff1663ccb0b4e4600560009054906101000a900473ffffffffffffffffffffffffffffffffffffffff168b6040518363ffffffff167c0100000000000000000000000000000000000000000000000000000000028152600401808373ffffffffffffffffffffffffffffffffffffffff1673ffffffffffffffffffffffffffffffffffffffff16815260200182815260200192505050608060405180830381600087803b1580156124b357600080fd5b505af11580156124c7573d6000803e3d6000fd5b505050506040513d60808110156124dd57600080fd5b8101908080519060200190929190805190602001909291908051906020019092919080519060200190929190505050935093509350935060028281151561252057fe5b048411156125315760019750612536565b600097505b50505050505050919050565b600960009054906101000a900473ffffffffffffffffffffffffffffffffffffffff1681565b600080600080600080600080600080600560009054906101000a900473ffffffffffffffffffffffffffffffffffffffff1673ffffffffffffffffffffffffffffffffffffffff1663d6d65f3d6040518163ffffffff167c01000000000000000000000000000000000000000000000000000000000281526004016040805180830381600087803b1580156125fc57600080fd5b505af1158015612610573d6000803e3d6000fd5b505050506040513d604081101561262657600080fd5b8101908080519060200190929190805190602001909291905050505098506002600560009054906101000a900473ffffffffffffffffffffffffffffffffffffffff1673ffffffffffffffffffffffffffffffffffffffff16633c9d5c756040518163ffffffff167c0100000000000000000000000000000000000000000000000000000000028152600401602060405180830381600087803b1580156126cc57600080fd5b505af11580156126e0573d6000803e3d6000fd5b505050506040513d60208110156126f657600080fd5b810190808051906020019092919050505060ff161415612a25576000600560009054906101000a900473ffffffffffffffffffffffffffffffffffffffff1673ffffffffffffffffffffffffffffffffffffffff1663d45c16026040518163ffffffff167c0100000000000000000000000000000000000000000000000000000000028152600401602060405180830381600087803b15801561279857600080fd5b505af11580156127ac573d6000803e3d6000fd5b505050506040513d60208110156127c257600080fd5b810190808051906020019092919050505011156128b457600560009054906101000a900473ffffffffffffffffffffffffffffffffffffffff1673ffffffffffffffffffffffffffffffffffffffff1663d45c16026040518163ffffffff167c0100000000000000000000000000000000000000000000000000000000028152600401602060405180830381600087803b15801561285f57600080fd5b505af1158015612873573d6000803e3d6000fd5b505050506040513d602081101561288957600080fd5b8101908080519060200190929190505050421015156128ab57600199506130e9565b600099506130e9565b601560009054906101000a900473ffffffffffffffffffffffffffffffffffffffff1697508773ffffffffffffffffffffffffffffffffffffffff1663ccb0b4e4600560009054906101000a900473ffffffffffffffffffffffffffffffffffffffff168b6040518363ffffffff167c0100000000000000000000000000000000000000000000000000000000028152600401808373ffffffffffffffffffffffffffffffffffffffff1673ffffffffffffffffffffffffffffffffffffffff16815260200182815260200192505050608060405180830381600087803b15801561299e57600080fd5b505af11580156129b2573d6000803e3d6000fd5b505050506040513d60808110156129c857600080fd5b81019080805190602001909291908051906020019092919080519060200190929190805190602001909291905050509650965096509650600285811515612a0b57fe5b04871115612a1c57600199506130e9565b600099506130e9565b6000600560009054906101000a900473ffffffffffffffffffffffffffffffffffffffff1673ffffffffffffffffffffffffffffffffffffffff16633c9d5c756040518163ffffffff167c0100000000000000000000000000000000000000000000000000000000028152600401602060405180830381600087803b158015612aad57600080fd5b505af1158015612ac1573d6000803e3d6000fd5b505050506040513d6020811015612ad757600080fd5b810190808051906020019092919050505060ff161415612cce576000891415612aff576130e9565b600560009054906101000a900473ffffffffffffffffffffffffffffffffffffffff1673ffffffffffffffffffffffffffffffffffffffff16632442e1cb8a6040518263ffffffff167c010000000000000000000000000000000000000000000000000000000002815260040180828152602001915050600060405180830381600087803b158015612b9057600080fd5b505af1158015612ba4573d6000803e3d6000fd5b505050506040513d6000823e3d601f19601f8201168201806040525060c0811015612bce57600080fd5b81019080805190602001909291908051906020019092919080519060200190929190805190602001909291908051640100000000811115612c0e57600080fd5b82810190506020810184811115612c2457600080fd5b8151856001820283011164010000000082111715612c4157600080fd5b50509291906020018051640100000000811115612c5d57600080fd5b82810190506020810184811115612c7357600080fd5b8151856001820283011164010000000082111715612c9057600080fd5b50509291905050509091929350909192509050508093508194505050428363ffffffff1611158015612cc757508163ffffffff1642105b99506130e9565b6001600560009054906101000a900473ffffffffffffffffffffffffffffffffffffffff1673ffffffffffffffffffffffffffffffffffffffff16633c9d5c756040518163ffffffff167c0100000000000000000000000000000000000000000000000000000000028152600401602060405180830381600087803b158015612d5657600080fd5b505af1158015612d6a573d6000803e3d6000fd5b505050506040513d6020811015612d8057600080fd5b810190808051906020019092919050505060ff1614156130e8576000891415612da8576130e9565b600560009054906101000a900473ffffffffffffffffffffffffffffffffffffffff1673ffffffffffffffffffffffffffffffffffffffff16632442e1cb8a6040518263ffffffff167c010000000000000000000000000000000000000000000000000000000002815260040180828152602001915050600060405180830381600087803b158015612e3957600080fd5b505af1158015612e4d573d6000803e3d6000fd5b505050506040513d6000823e3d601f19601f8201168201806040525060c0811015612e7757600080fd5b81019080805190602001909291908051906020019092919080519060200190929190805190602001909291908051640100000000811115612eb757600080fd5b82810190506020810184811115612ecd57600080fd5b8151856001820283011164010000000082111715612eea57600080fd5b50509291906020018051640100000000811115612f0657600080fd5b82810190506020810184811115612f1c57600080fd5b8151856001820283011164010000000082111715612f3957600080fd5b50509291905050505050945050509250428363ffffffff1611158015612f6457508163ffffffff1642105b9050601560009054906101000a900473ffffffffffffffffffffffffffffffffffffffff1697508773ffffffffffffffffffffffffffffffffffffffff1663ccb0b4e4600560009054906101000a900473ffffffffffffffffffffffffffffffffffffffff168b6040518363ffffffff167c0100000000000000000000000000000000000000000000000000000000028152600401808373ffffffffffffffffffffffffffffffffffffffff1673ffffffffffffffffffffffffffffffffffffffff16815260200182815260200192505050608060405180830381600087803b15801561305057600080fd5b505af1158015613064573d6000803e3d6000fd5b505050506040513d608081101561307a57600080fd5b8101908080519060200190929190805190602001909291908051906020019092919080519060200190929190505050809750819850829950839a50505050506002858115156130c557fe5b04871180156130d15750805b156130df57600199506130e9565b600099506130e9565b5b50505050505050505090565b6130fd61467c565b60006001600460008282540192505081905550600454905061311d6137a8565b151561312857600080fd5b613130613aea565b9150600082600060038110151561314357fe5b602002015111151561315457600080fd5b6000600b60020173__FundAccount___________________________6320e1e1d190916040518263ffffffff167c01000000000000000000000000000000000000000000000000000000000281526004018082815260200191505060006040518083038186803b1580156131c757600080fd5b505af41580156131db573d6000803e3d6000fd5b505050506040513d6000823e3d601f19601f82011682018060405250602081101561320557600080fd5b81019080805164010000000081111561321d57600080fd5b8281019050602081018481111561323357600080fd5b815185602082028301116401000000008211171561325057600080fd5b5050929190505050511415151561326657600080fd5b6001600b600001600084600260038110151561327e57fe5b6020020151815260200190815260200160002060006101000a81548160ff0219169083151502179055506132d38260006003811015156132ba57fe5b6020020151600b6001015461417b90919063ffffffff16565b600b600101819055506132e58261419c565b3373ffffffffffffffffffffffffffffffffffffffff167f4a966617f50ccad97beb624d8e13820bf2a745e1640fed943858499286fc982983600060038110151561332c57fe5b60200201516040518082815260200191505060405180910390a26004548114151561335657600080fd5b5050565b61336381614469565b50565b6000600b60050160008360001916600019168152602001908152602001600020549050919050565b600860009054906101000a900473ffffffffffffffffffffffffffffffffffffffff1681565b6000806000806000600560009054906101000a900473ffffffffffffffffffffffffffffffffffffffff1673ffffffffffffffffffffffffffffffffffffffff1663d6d65f3d6040518163ffffffff167c01000000000000000000000000000000000000000000000000000000000281526004016040805180830381600087803b15801561344157600080fd5b505af1158015613455573d6000803e3d6000fd5b505050506040513d604081101561346b57600080fd5b810190808051906020019092919080519060200190929190505050935093506000841480613497575082155b156134a15761365f565b600560009054906101000a900473ffffffffffffffffffffffffffffffffffffffff1673ffffffffffffffffffffffffffffffffffffffff16632442e1cb856040518263ffffffff167c010000000000000000000000000000000000000000000000000000000002815260040180828152602001915050600060405180830381600087803b15801561353257600080fd5b505af1158015613546573d6000803e3d6000fd5b505050506040513d6000823e3d601f19601f8201168201806040525060c081101561357057600080fd5b810190808051906020019092919080519060200190929190805190602001909291908051906020019092919080516401000000008111156135b057600080fd5b828101905060208101848111156135c657600080fd5b81518560018202830111640100000000821117156135e357600080fd5b505092919060200180516401000000008111156135ff57600080fd5b8281019050602081018481111561361557600080fd5b815185600182028301116401000000008211171561363257600080fd5b50509291905050505050935050509150428263ffffffff16118061365c57508063ffffffff164210155b94505b5050505090565b61366f3361408d565b565b6000600b60080160008373ffffffffffffffffffffffffffffffffffffffff1673ffffffffffffffffffffffffffffffffffffffff168152602001908152602001600020549050919050565b6000600b60020173__FundAccount___________________________6375dff1389091846040518363ffffffff167c01000000000000000000000000000000000000000000000000000000000281526004018083815260200182600019166000191681526020019250505060206040518083038186803b15801561374057600080fd5b505af4158015613754573d6000803e3d6000fd5b505050506040513d602081101561376a57600080fd5b81019080805190602001909291905050509050919050565b600560009054906101000a900473ffffffffffffffffffffffffffffffffffffffff1681565b600080600080600080600080600560009054906101000a900473ffffffffffffffffffffffffffffffffffffffff1673ffffffffffffffffffffffffffffffffffffffff1663d6d65f3d6040518163ffffffff167c01000000000000000000000000000000000000000000000000000000000281526004016040805180830381600087803b15801561383957600080fd5b505af115801561384d573d6000803e3d6000fd5b505050506040513d604081101561386357600080fd5b8101908080519060200190929190805190602001909291905050509650965085151561388e57613ada565b6001600560009054906101000a900473ffffffffffffffffffffffffffffffffffffffff1673ffffffffffffffffffffffffffffffffffffffff16633c9d5c756040518163ffffffff167c0100000000000000000000000000000000000000000000000000000000028152600401602060405180830381600087803b15801561391657600080fd5b505af115801561392a573d6000803e3d6000fd5b505050506040513d602081101561394057600080fd5b810190808051906020019092919050505060ff161415613ac457601560009054906101000a900473ffffffffffffffffffffffffffffffffffffffff1694508473ffffffffffffffffffffffffffffffffffffffff1663ccb0b4e4600560009054906101000a900473ffffffffffffffffffffffffffffffffffffffff16896040518363ffffffff167c0100000000000000000000000000000000000000000000000000000000028152600401808373ffffffffffffffffffffffffffffffffffffffff1673ffffffffffffffffffffffffffffffffffffffff16815260200182815260200192505050608060405180830381600087803b158015613a4457600080fd5b505af1158015613a58573d6000803e3d6000fd5b505050506040513d6080811015613a6e57600080fd5b81019080805190602001909291908051906020019092919080519060200190929190805190602001909291905050509350935093509350600282811515613ab157fe5b0484111515613ac35760009750613ada565b5b6000871480613ad75750613ad66133b4565b5b97505b5050505050505090565b600a5481565b613af261467c565b73__Fund__________________________________63c4466008600b613b166137a8565b600560009054906101000a900473ffffffffffffffffffffffffffffffffffffffff166040518463ffffffff167c010000000000000000000000000000000000000000000000000000000002815260040180848152602001831515151581526020018273ffffffffffffffffffffffffffffffffffffffff1673ffffffffffffffffffffffffffffffffffffffff168152602001935050505060606040518083038186803b158015613bc757600080fd5b505af4158015613bdb573d6000803e3d6000fd5b505050506040513d601f19601f820116820180604052506060811015613c0057600080fd5b8101908091905050905090565b600073ffffffffffffffffffffffffffffffffffffffff168173ffffffffffffffffffffffffffffffffffffffff1614151515613c4957600080fd5b80600860006101000a81548173ffffffffffffffffffffffffffffffffffffffff021916908373ffffffffffffffffffffffffffffffffffffffff16021790555050565b6060600b60090160008373ffffffffffffffffffffffffffffffffffffffff1673ffffffffffffffffffffffffffffffffffffffff16815260200190815260200160002073__FundAccount___________________________6320e1e1d190916040518263ffffffff167c01000000000000000000000000000000000000000000000000000000000281526004018082815260200191505060006040518083038186803b158015613d3d57600080fd5b505af4158015613d51573d6000803e3d6000fd5b505050506040513d6000823e3d601f19601f820116820180604052506020811015613d7b57600080fd5b810190808051640100000000811115613d9357600080fd5b82810190506020810184811115613da957600080fd5b8151856020820283011164010000000082111715613dc657600080fd5b50509291905050509050919050565b6000600b60060154905090565b6000600360009054906101000a900473ffffffffffffffffffffffffffffffffffffffff16905090565b613e15336144c3565b565b73__Fund__________________________________6346d1230a600b8787878787600760009054906101000a900473ffffffffffffffffffffffffffffffffffffffff166040518863ffffffff167c0100000000000000000000000000000000000000000000000000000000028152600401808881526020018773ffffffffffffffffffffffffffffffffffffffff1673ffffffffffffffffffffffffffffffffffffffff16815260200186815260200185600019166000191681526020018481526020018381526020018273ffffffffffffffffffffffffffffffffffffffff1673ffffffffffffffffffffffffffffffffffffffff16815260200197505050505050505060006040518083038186803b158015613f3557600080fd5b505af4158015613f49573d6000803e3d6000fd5b505050505050505050565b613f5d816144c3565b50565b6000613f768260016140e790919063ffffffff16565b9050919050565b6000600b60090160008473ffffffffffffffffffffffffffffffffffffffff1673ffffffffffffffffffffffffffffffffffffffff16815260200190815260200160002073__FundAccount___________________________6375dff1389091846040518363ffffffff167c01000000000000000000000000000000000000000000000000000000000281526004018083815260200182600019166000191681526020019250505060206040518083038186803b15801561403d57600080fd5b505af4158015614051573d6000803e3d6000fd5b505050506040513d602081101561406757600080fd5b8101908080519060200190929190505050905092915050565b6000600b60070154905090565b6140a181600061451d90919063ffffffff16565b8073ffffffffffffffffffffffffffffffffffffffff167fa3b62bc36326052d97ea62d63c3d60308ed4c3ea8ac079dd8499f1e9c4f80c0f60405160405180910390a250565b60008073ffffffffffffffffffffffffffffffffffffffff168273ffffffffffffffffffffffffffffffffffffffff161415151561412457600080fd5b8260000160008373ffffffffffffffffffffffffffffffffffffffff1673ffffffffffffffffffffffffffffffffffffffff16815260200190815260200160002060009054906101000a900460ff16905092915050565b600080828401905083811015151561419257600080fd5b8091505092915050565b73__Fund__________________________________6369b3e2d2600b83600a54600960009054906101000a900473ffffffffffffffffffffffffffffffffffffffff16600760009054906101000a900473ffffffffffffffffffffffffffffffffffffffff166040518663ffffffff167c01000000000000000000000000000000000000000000000000000000000281526004018086815260200185600360200280838360005b8381101561425e578082015181840152602081019050614243565b505050509050018481526020018373ffffffffffffffffffffffffffffffffffffffff1673ffffffffffffffffffffffffffffffffffffffff1681526020018273ffffffffffffffffffffffffffffffffffffffff1673ffffffffffffffffffffffffffffffffffffffff1681526020019550505050505060006040518083038186803b1580156142ee57600080fd5b505af4158015614302573d6000803e3d6000fd5b5050505050565b73__Fund__________________________________63e0650238600b83600760009054906101000a900473ffffffffffffffffffffffffffffffffffffffff166040518463ffffffff167c0100000000000000000000000000000000000000000000000000000000028152600401808481526020018381526020018273ffffffffffffffffffffffffffffffffffffffff1673ffffffffffffffffffffffffffffffffffffffff168152602001935050505060006040518083038186803b1580156143d357600080fd5b505af41580156143e7573d6000803e3d6000fd5b5050505050565b60008083831115151561440057600080fd5b82840390508091505092915050565b6144238160016145cc90919063ffffffff16565b8073ffffffffffffffffffffffffffffffffffffffff167f941e31c3e651de34a7fcf0132d9d02c2df9377e6b5f932bec5daf6353c94f90e60405160405180910390a250565b61447d8160006145cc90919063ffffffff16565b8073ffffffffffffffffffffffffffffffffffffffff167f44d6d25963f097ad14f29f06854a01f575648a1ef82f30e562ccd3889717e33960405160405180910390a250565b6144d781600161451d90919063ffffffff16565b8073ffffffffffffffffffffffffffffffffffffffff167fa3bfdef3d8149bacf15b7b64199fca8228c0fd4f8fcdd11cc7871829baf319c360405160405180910390a250565b600073ffffffffffffffffffffffffffffffffffffffff168173ffffffffffffffffffffffffffffffffffffffff161415151561455957600080fd5b61456382826140e7565b151561456e57600080fd5b60008260000160008373ffffffffffffffffffffffffffffffffffffffff1673ffffffffffffffffffffffffffffffffffffffff16815260200190815260200160002060006101000a81548160ff0219169083151502179055505050565b600073ffffffffffffffffffffffffffffffffffffffff168173ffffffffffffffffffffffffffffffffffffffff161415151561460857600080fd5b61461282826140e7565b15151561461e57600080fd5b60018260000160008373ffffffffffffffffffffffffffffffffffffffff1673ffffffffffffffffffffffffffffffffffffffff16815260200190815260200160002060006101000a81548160ff0219169083151502179055505050565b6060604051908101604052806003906020820280388339808201915050905050905600a165627a7a72305820fcb8a628730221b0c3b4fad6f49ceebd3829e60d000969903f3895dbb951646b0029",
  "source": "pragma solidity 0.4.24;\n\nimport \"openzeppelin-solidity/contracts/token/ERC20/IERC20.sol\";\nimport \"../../rates/IRates.sol\";\nimport \"../../crowdsale/W12Fund.sol\";\nimport \"../../token/IWToken.sol\";\n\n\ncontract W12FundStub is W12Fund {\n    constructor (\n        uint version,\n        address crowdsaleAddress,\n        address swapAddress,\n        address wTokenAddress,\n        address _serviceWallet,\n        uint _trancheFeePercent,\n        IRates _rates,\n        address oracles_addr\n    )\n        W12Fund(version, _trancheFeePercent, _rates, oracles_addr) public\n    {\n        crowdsale = IW12Crowdsale(crowdsaleAddress);\n        swap = swapAddress;\n        wToken = IWToken(wTokenAddress);\n        trancheFeePercent = _trancheFeePercent;\n        serviceWallet = _serviceWallet;\n    }\n\n//    function _setTotalFunded(uint amount) external {\n//        totalFunded = amount;\n//    }\n//\n//    function _setTotalRefunded(uint amount) external {\n//        totalRefunded = amount;\n//    }\n\n    function() payable external {}\n\n    function _outFunds(bytes32 _symbol, uint _amount) external {\n        if (_symbol == METHOD_ETH) {\n            require(address(this).balance >= _amount);\n            msg.sender.transfer(_amount);\n        } else if(_symbol != METHOD_USD) {\n            require(rates.isToken(_symbol));\n            require(IERC20(rates.getTokenAddress(_symbol)).balanceOf(address(this)) >= _amount);\n            require(IERC20(rates.getTokenAddress(_symbol)).transfer(msg.sender, _amount));\n        }\n    }\n\n    modifier onlyCrowdsale {\n        _;\n    }\n\n    modifier onlyAdmin {\n        _;\n    }\n\n    modifier onlyProjectOwner {\n        _;\n    }\n}\n",
  "sourcePath": "/Users/gauss/_games/w12/Protocol/contracts/mocks/crowdsale/W12FundStub.sol",
  "compiler": {
    "name": "solc",
    "version": "0.4.24+commit.e67f0147.Emscripten.clang"
  },
  "schemaVersion": "3.0.16",
  "updatedAt": "2019-10-06T23:01:18.513Z"
}