{
  "contractName": "W12FundStub",
  "abi": [
    {
      "constant": true,
      "inputs": [
        {
          "name": "wtokensToRefund",
          "type": "uint256"
        }
      ],
      "name": "getRefundAmount",
      "outputs": [
        {
          "name": "result",
          "type": "uint256"
        }
      ],
      "payable": false,
      "stateMutability": "view",
      "type": "function"
    },
    {
      "constant": true,
      "inputs": [],
      "name": "wToken",
      "outputs": [
        {
          "name": "",
          "type": "address"
        }
      ],
      "payable": false,
      "stateMutability": "view",
      "type": "function"
    },
    {
      "constant": true,
      "inputs": [
        {
          "name": "buyer",
          "type": "address"
        }
      ],
      "name": "getInvestmentsInfo",
      "outputs": [
        {
          "name": "totalTokensBought",
          "type": "uint256"
        },
        {
          "name": "averageTokenPrice",
          "type": "uint256"
        }
      ],
      "payable": false,
      "stateMutability": "view",
      "type": "function"
    },
    {
      "constant": true,
      "inputs": [],
      "name": "totalTranchePercentReleased",
      "outputs": [
        {
          "name": "",
          "type": "uint256"
        }
      ],
      "payable": false,
      "stateMutability": "view",
      "type": "function"
    },
    {
      "constant": true,
      "inputs": [
        {
          "name": "",
          "type": "uint256"
        }
      ],
      "name": "completedTranches",
      "outputs": [
        {
          "name": "",
          "type": "bool"
        }
      ],
      "payable": false,
      "stateMutability": "view",
      "type": "function"
    },
    {
      "constant": false,
      "inputs": [
        {
          "name": "_serviceWallet",
          "type": "address"
        }
      ],
      "name": "setServiceWallet",
      "outputs": [],
      "payable": false,
      "stateMutability": "nonpayable",
      "type": "function"
    },
    {
      "constant": false,
      "inputs": [
        {
          "name": "wtokensToRefund",
          "type": "uint256"
        }
      ],
      "name": "refund",
      "outputs": [],
      "payable": false,
      "stateMutability": "nonpayable",
      "type": "function"
    },
    {
      "constant": true,
      "inputs": [],
      "name": "tokenDecimals",
      "outputs": [
        {
          "name": "",
          "type": "uint256"
        }
      ],
      "payable": false,
      "stateMutability": "view",
      "type": "function"
    },
    {
      "constant": true,
      "inputs": [],
      "name": "refundAllowed",
      "outputs": [
        {
          "name": "",
          "type": "bool"
        }
      ],
      "payable": false,
      "stateMutability": "view",
      "type": "function"
    },
    {
      "constant": false,
      "inputs": [
        {
          "name": "_crowdsale",
          "type": "address"
        }
      ],
      "name": "setCrowdsale",
      "outputs": [],
      "payable": false,
      "stateMutability": "nonpayable",
      "type": "function"
    },
    {
      "constant": true,
      "inputs": [],
      "name": "version",
      "outputs": [
        {
          "name": "",
          "type": "uint256"
        }
      ],
      "payable": false,
      "stateMutability": "view",
      "type": "function"
    },
    {
      "constant": true,
      "inputs": [],
      "name": "serviceWallet",
      "outputs": [
        {
          "name": "",
          "type": "address"
        }
      ],
      "payable": false,
      "stateMutability": "view",
      "type": "function"
    },
    {
      "constant": false,
      "inputs": [],
      "name": "tranche",
      "outputs": [],
      "payable": false,
      "stateMutability": "nonpayable",
      "type": "function"
    },
    {
      "constant": false,
      "inputs": [],
      "name": "renounceOwnership",
      "outputs": [],
      "payable": false,
      "stateMutability": "nonpayable",
      "type": "function"
    },
    {
      "constant": true,
      "inputs": [],
      "name": "swap",
      "outputs": [
        {
          "name": "",
          "type": "address"
        }
      ],
      "payable": false,
      "stateMutability": "view",
      "type": "function"
    },
    {
      "constant": true,
      "inputs": [],
      "name": "getTrancheAmount",
      "outputs": [
        {
          "name": "result",
          "type": "uint256"
        }
      ],
      "payable": false,
      "stateMutability": "view",
      "type": "function"
    },
    {
      "constant": true,
      "inputs": [],
      "name": "owner",
      "outputs": [
        {
          "name": "",
          "type": "address"
        }
      ],
      "payable": false,
      "stateMutability": "view",
      "type": "function"
    },
    {
      "constant": false,
      "inputs": [
        {
          "name": "buyer",
          "type": "address"
        },
        {
          "name": "tokenAmount",
          "type": "uint256"
        }
      ],
      "name": "recordPurchase",
      "outputs": [],
      "payable": true,
      "stateMutability": "payable",
      "type": "function"
    },
    {
      "constant": true,
      "inputs": [
        {
          "name": "",
          "type": "address"
        }
      ],
      "name": "buyers",
      "outputs": [
        {
          "name": "totalBought",
          "type": "uint256"
        },
        {
          "name": "averagePrice",
          "type": "uint256"
        },
        {
          "name": "totalFunded",
          "type": "uint256"
        }
      ],
      "payable": false,
      "stateMutability": "view",
      "type": "function"
    },
    {
      "constant": true,
      "inputs": [],
      "name": "crowdsale",
      "outputs": [
        {
          "name": "",
          "type": "address"
        }
      ],
      "payable": false,
      "stateMutability": "view",
      "type": "function"
    },
    {
      "constant": true,
      "inputs": [],
      "name": "trancheTransferAllowed",
      "outputs": [
        {
          "name": "",
          "type": "bool"
        }
      ],
      "payable": false,
      "stateMutability": "view",
      "type": "function"
    },
    {
      "constant": true,
      "inputs": [],
      "name": "trancheFeePercent",
      "outputs": [
        {
          "name": "",
          "type": "uint256"
        }
      ],
      "payable": false,
      "stateMutability": "view",
      "type": "function"
    },
    {
      "constant": true,
      "inputs": [],
      "name": "getTrancheParameters",
      "outputs": [
        {
          "name": "",
          "type": "uint256"
        },
        {
          "name": "totalTranchePercentBefore",
          "type": "uint256"
        },
        {
          "name": "",
          "type": "uint256"
        }
      ],
      "payable": false,
      "stateMutability": "view",
      "type": "function"
    },
    {
      "constant": false,
      "inputs": [
        {
          "name": "_swap",
          "type": "address"
        }
      ],
      "name": "setSwap",
      "outputs": [],
      "payable": false,
      "stateMutability": "nonpayable",
      "type": "function"
    },
    {
      "constant": true,
      "inputs": [],
      "name": "totalFunded",
      "outputs": [
        {
          "name": "",
          "type": "uint256"
        }
      ],
      "payable": false,
      "stateMutability": "view",
      "type": "function"
    },
    {
      "constant": true,
      "inputs": [],
      "name": "totalRefunded",
      "outputs": [
        {
          "name": "",
          "type": "uint256"
        }
      ],
      "payable": false,
      "stateMutability": "view",
      "type": "function"
    },
    {
      "constant": false,
      "inputs": [
        {
          "name": "_newOwner",
          "type": "address"
        }
      ],
      "name": "transferOwnership",
      "outputs": [],
      "payable": false,
      "stateMutability": "nonpayable",
      "type": "function"
    },
    {
      "inputs": [
        {
          "name": "version",
          "type": "uint256"
        },
        {
          "name": "crowdsaleAddress",
          "type": "address"
        },
        {
          "name": "swapAddress",
          "type": "address"
        },
        {
          "name": "wTokenAddress",
          "type": "address"
        },
        {
          "name": "_serviceWallet",
          "type": "address"
        },
        {
          "name": "_trancheFeePercent",
          "type": "uint256"
        }
      ],
      "payable": false,
      "stateMutability": "nonpayable",
      "type": "constructor"
    },
    {
      "payable": true,
      "stateMutability": "payable",
      "type": "fallback"
    },
    {
      "anonymous": false,
      "inputs": [
        {
          "indexed": true,
          "name": "buyer",
          "type": "address"
        },
        {
          "indexed": false,
          "name": "weiAmount",
          "type": "uint256"
        },
        {
          "indexed": false,
          "name": "tokenAmount",
          "type": "uint256"
        }
      ],
      "name": "FundsReceived",
      "type": "event"
    },
    {
      "anonymous": false,
      "inputs": [
        {
          "indexed": true,
          "name": "buyer",
          "type": "address"
        },
        {
          "indexed": false,
          "name": "weiAmount",
          "type": "uint256"
        },
        {
          "indexed": false,
          "name": "tokenAmount",
          "type": "uint256"
        }
      ],
      "name": "FundsRefunded",
      "type": "event"
    },
    {
      "anonymous": false,
      "inputs": [
        {
          "indexed": true,
          "name": "receiver",
          "type": "address"
        },
        {
          "indexed": false,
          "name": "amount",
          "type": "uint256"
        }
      ],
      "name": "TrancheReleased",
      "type": "event"
    },
    {
      "anonymous": false,
      "inputs": [
        {
          "indexed": true,
          "name": "previousOwner",
          "type": "address"
        }
      ],
      "name": "OwnershipRenounced",
      "type": "event"
    },
    {
      "anonymous": false,
      "inputs": [
        {
          "indexed": true,
          "name": "previousOwner",
          "type": "address"
        },
        {
          "indexed": true,
          "name": "newOwner",
          "type": "address"
        }
      ],
      "name": "OwnershipTransferred",
      "type": "event"
    },
    {
      "constant": false,
      "inputs": [
        {
          "name": "amount",
          "type": "uint256"
        }
      ],
      "name": "_setTotalFunded",
      "outputs": [],
      "payable": false,
      "stateMutability": "nonpayable",
      "type": "function"
    },
    {
      "constant": false,
      "inputs": [
        {
          "name": "amount",
          "type": "uint256"
        }
      ],
      "name": "_setTotalRefunded",
      "outputs": [],
      "payable": false,
      "stateMutability": "nonpayable",
      "type": "function"
    }
  ],
  "bytecode": "0x608060405260016002553480156200001657600080fd5b5060405160c0806200358e833981018060405281019080805190602001909291908051906020019092919080519060200190929190805190602001909291908051906020019092919080519060200190929190505050858181806000819055505033600160006101000a81548173ffffffffffffffffffffffffffffffffffffffff021916908373ffffffffffffffffffffffffffffffffffffffff160217905550620000d781620002fb6401000000000262003087176401000000009004565b8015620001025750606462000100826200034564010000000002620030e3176401000000009004565b105b15156200010e57600080fd5b80600d81905550505084600360006101000a81548173ffffffffffffffffffffffffffffffffffffffff021916908373ffffffffffffffffffffffffffffffffffffffff16021790555083600460006101000a81548173ffffffffffffffffffffffffffffffffffffffff021916908373ffffffffffffffffffffffffffffffffffffffff16021790555082600660006101000a81548173ffffffffffffffffffffffffffffffffffffffff021916908373ffffffffffffffffffffffffffffffffffffffff160217905550600660009054906101000a900473ffffffffffffffffffffffffffffffffffffffff1673ffffffffffffffffffffffffffffffffffffffff1663313ce5676040518163ffffffff167c0100000000000000000000000000000000000000000000000000000000028152600401602060405180830381600087803b1580156200026157600080fd5b505af115801562000276573d6000803e3d6000fd5b505050506040513d60208110156200028d57600080fd5b810190808051906020019092919050505060ff1660078190555080600d8190555081600560006101000a81548173ffffffffffffffffffffffffffffffffffffffff021916908373ffffffffffffffffffffffffffffffffffffffff16021790555050505050505062000435565b600062000316620003b2640100000000026401000000009004565b82101580156200033e57506200033a620003ba640100000000026401000000009004565b8211155b9050919050565b60006200036182620002fb640100000000026401000000009004565b15156200036d57600080fd5b620003ab6200038a620003dd640100000000026401000000009004565b600a0a83620003e66401000000000262002ed5179091906401000000009004565b9050919050565b600080905090565b6000620003d562000412640100000000026401000000009004565b600a0a905090565b60006002905090565b600080600083111515620003f957600080fd5b82848115156200040557fe5b0490508091505092915050565b60006200042d620003dd640100000000026401000000009004565b600201905090565b61314980620004456000396000f300608060405260043610610175576000357c0100000000000000000000000000000000000000000000000000000000900463ffffffff16806304cd5294146101775780630babd864146101b857806311fa7da21461020f57806319ae48ed1461026d57806323585f961461029857806323bffccc146102dd578063278ecde1146103205780633b97e8561461034d5780633fa911ae14610378578063483a20b2146103a757806354fd4d50146103ea5780635641f3c3146104155780636ebc0af11461046c578063715018a614610483578063774dfa4e1461049a5780638119c065146104c75780638ce2bc2a1461051e5780638da5cb5b14610549578063958799cb146105a057806397a993aa146105e05780639c1e03a0146106455780639e80baac1461069c578063a328665a146106cb578063a5db096a146106f6578063ac2a2a3414610723578063acb3c0731461075c578063ad044f491461079f578063d9082962146107ca578063f2fde38b146107f5575b005b34801561018357600080fd5b506101a260048036038101908080359060200190929190505050610838565b6040518082815260200191505060405180910390f35b3480156101c457600080fd5b506101cd610b8e565b604051808273ffffffffffffffffffffffffffffffffffffffff1673ffffffffffffffffffffffffffffffffffffffff16815260200191505060405180910390f35b34801561021b57600080fd5b50610250600480360381019080803573ffffffffffffffffffffffffffffffffffffffff169060200190929190505050610bb4565b604051808381526020018281526020019250505060405180910390f35b34801561027957600080fd5b50610282610c82565b6040518082815260200191505060405180910390f35b3480156102a457600080fd5b506102c360048036038101908080359060200190929190505050610c88565b604051808215151515815260200191505060405180910390f35b3480156102e957600080fd5b5061031e600480360381019080803573ffffffffffffffffffffffffffffffffffffffff169060200190929190505050610ca8565b005b34801561032c57600080fd5b5061034b60048036038101908080359060200190929190505050610d84565b005b34801561035957600080fd5b5061036261143f565b6040518082815260200191505060405180910390f35b34801561038457600080fd5b5061038d611445565b604051808215151515815260200191505060405180910390f35b3480156103b357600080fd5b506103e8600480360381019080803573ffffffffffffffffffffffffffffffffffffffff1690602001909291905050506116ef565b005b3480156103f657600080fd5b506103ff611974565b6040518082815260200191505060405180910390f35b34801561042157600080fd5b5061042a61197a565b604051808273ffffffffffffffffffffffffffffffffffffffff1673ffffffffffffffffffffffffffffffffffffffff16815260200191505060405180910390f35b34801561047857600080fd5b506104816119a0565b005b34801561048f57600080fd5b50610498611bdc565b005b3480156104a657600080fd5b506104c560048036038101908080359060200190929190505050611ce1565b005b3480156104d357600080fd5b506104dc611ceb565b604051808273ffffffffffffffffffffffffffffffffffffffff1673ffffffffffffffffffffffffffffffffffffffff16815260200191505060405180910390f35b34801561052a57600080fd5b50610533611d11565b6040518082815260200191505060405180910390f35b34801561055557600080fd5b5061055e611da1565b604051808273ffffffffffffffffffffffffffffffffffffffff1673ffffffffffffffffffffffffffffffffffffffff16815260200191505060405180910390f35b6105de600480360381019080803573ffffffffffffffffffffffffffffffffffffffff16906020019092919080359060200190929190505050611dc7565b005b3480156105ec57600080fd5b50610621600480360381019080803573ffffffffffffffffffffffffffffffffffffffff16906020019092919050505061208a565b60405180848152602001838152602001828152602001935050505060405180910390f35b34801561065157600080fd5b5061065a6120b4565b604051808273ffffffffffffffffffffffffffffffffffffffff1673ffffffffffffffffffffffffffffffffffffffff16815260200191505060405180910390f35b3480156106a857600080fd5b506106b16120da565b604051808215151515815260200191505060405180910390f35b3480156106d757600080fd5b506106e0612601565b6040518082815260200191505060405180910390f35b34801561070257600080fd5b5061072160048036038101908080359060200190929190505050612607565b005b34801561072f57600080fd5b50610738612611565b60405180848152602001838152602001828152602001935050505060405180910390f35b34801561076857600080fd5b5061079d600480360381019080803573ffffffffffffffffffffffffffffffffffffffff169060200190929190505050612d47565b005b3480156107ab57600080fd5b506107b4612e23565b6040518082815260200191505060405180910390f35b3480156107d657600080fd5b506107df612e29565b6040518082815260200191505060405180910390f35b34801561080157600080fd5b50610836600480360381019080803573ffffffffffffffffffffffffffffffffffffffff169060200190929190505050612e2f565b005b600080600080600080600860075401600754106108575760075461085e565b6008600754015b945084600a0a7fffffffffffffffffffffffffffffffffffffffffffffffffffffffffffffffff81151561088e57fe5b04935033925060008714806108e557506000600860008573ffffffffffffffffffffffffffffffffffffffff1673ffffffffffffffffffffffffffffffffffffffff16815260200190815260200160002060000154145b80610907575060003073ffffffffffffffffffffffffffffffffffffffff1631145b80610a08575086600660009054906101000a900473ffffffffffffffffffffffffffffffffffffffff1673ffffffffffffffffffffffffffffffffffffffff166370a08231856040518263ffffffff167c0100000000000000000000000000000000000000000000000000000000028152600401808273ffffffffffffffffffffffffffffffffffffffff1673ffffffffffffffffffffffffffffffffffffffff168152602001915050602060405180830381600087803b1580156109cb57600080fd5b505af11580156109df573d6000803e3d6000fd5b505050506040513d60208110156109f557600080fd5b8101908080519060200190929190505050105b80610a54575086600860008573ffffffffffffffffffffffffffffffffffffffff1673ffffffffffffffffffffffffffffffffffffffff16815260200190815260200160002060000154105b15610a5e57610b84565b610ade3073ffffffffffffffffffffffffffffffffffffffff1631610ad0600a54600860008873ffffffffffffffffffffffffffffffffffffffff1673ffffffffffffffffffffffffffffffffffffffff16815260200190815260200160002060020154612e9790919063ffffffff16565b612ed590919063ffffffff16565b915083821015610af15784600a0a610af4565b60015b9050610b8181610b7389610b65600860008973ffffffffffffffffffffffffffffffffffffffff1673ffffffffffffffffffffffffffffffffffffffff16815260200190815260200160002060000154610b578789612e9790919063ffffffff16565b612ed590919063ffffffff16565b612e9790919063ffffffff16565b612ed590919063ffffffff16565b95505b5050505050919050565b600660009054906101000a900473ffffffffffffffffffffffffffffffffffffffff1681565b600080600073ffffffffffffffffffffffffffffffffffffffff168373ffffffffffffffffffffffffffffffffffffffff1614151515610bf357600080fd5b600860008473ffffffffffffffffffffffffffffffffffffffff1673ffffffffffffffffffffffffffffffffffffffff16815260200190815260200160002060000154600860008573ffffffffffffffffffffffffffffffffffffffff1673ffffffffffffffffffffffffffffffffffffffff1681526020019081526020016000206001015491509150915091565b600c5481565b60096020528060005260406000206000915054906101000a900460ff1681565b600160009054906101000a900473ffffffffffffffffffffffffffffffffffffffff1673ffffffffffffffffffffffffffffffffffffffff163373ffffffffffffffffffffffffffffffffffffffff16141515610d0457600080fd5b600073ffffffffffffffffffffffffffffffffffffffff168173ffffffffffffffffffffffffffffffffffffffff1614151515610d4057600080fd5b80600560006101000a81548173ffffffffffffffffffffffffffffffffffffffff021916908373ffffffffffffffffffffffffffffffffffffffff16021790555050565b600080600060016002600082825401925050819055506002549050339250610daa611445565b1515610db557600080fd5b600084111515610dc457600080fd5b83600860008573ffffffffffffffffffffffffffffffffffffffff1673ffffffffffffffffffffffffffffffffffffffff1681526020019081526020016000206000015410151515610e1557600080fd5b83600660009054906101000a900473ffffffffffffffffffffffffffffffffffffffff1673ffffffffffffffffffffffffffffffffffffffff166370a08231856040518263ffffffff167c0100000000000000000000000000000000000000000000000000000000028152600401808273ffffffffffffffffffffffffffffffffffffffff1673ffffffffffffffffffffffffffffffffffffffff168152602001915050602060405180830381600087803b158015610ed357600080fd5b505af1158015610ee7573d6000803e3d6000fd5b505050506040513d6020811015610efd57600080fd5b810190808051906020019092919050505010151515610f1b57600080fd5b83600660009054906101000a900473ffffffffffffffffffffffffffffffffffffffff1673ffffffffffffffffffffffffffffffffffffffff1663dd62ed3e33306040518363ffffffff167c0100000000000000000000000000000000000000000000000000000000028152600401808373ffffffffffffffffffffffffffffffffffffffff1673ffffffffffffffffffffffffffffffffffffffff1681526020018273ffffffffffffffffffffffffffffffffffffffff1673ffffffffffffffffffffffffffffffffffffffff16815260200192505050602060405180830381600087803b15801561100d57600080fd5b505af1158015611021573d6000803e3d6000fd5b505050506040513d602081101561103757600080fd5b81019080805190602001909291905050501015151561105557600080fd5b61105e84610838565b915060008211151561106f57600080fd5b600660009054906101000a900473ffffffffffffffffffffffffffffffffffffffff1673ffffffffffffffffffffffffffffffffffffffff166323b872dd84600460009054906101000a900473ffffffffffffffffffffffffffffffffffffffff16876040518463ffffffff167c0100000000000000000000000000000000000000000000000000000000028152600401808473ffffffffffffffffffffffffffffffffffffffff1673ffffffffffffffffffffffffffffffffffffffff1681526020018373ffffffffffffffffffffffffffffffffffffffff1673ffffffffffffffffffffffffffffffffffffffff1681526020018281526020019350505050602060405180830381600087803b15801561118a57600080fd5b505af115801561119e573d6000803e3d6000fd5b505050506040513d60208110156111b457600080fd5b810190808051906020019092919050505015156111d057600080fd5b61122584600860008673ffffffffffffffffffffffffffffffffffffffff1673ffffffffffffffffffffffffffffffffffffffff16815260200190815260200160002060000154612eff90919063ffffffff16565b600860008573ffffffffffffffffffffffffffffffffffffffff1673ffffffffffffffffffffffffffffffffffffffff1681526020019081526020016000206000018190555061132b6112da600754600a0a6112cc600860008873ffffffffffffffffffffffffffffffffffffffff1673ffffffffffffffffffffffffffffffffffffffff1681526020019081526020016000206001015488612e9790919063ffffffff16565b612ed590919063ffffffff16565b600860008673ffffffffffffffffffffffffffffffffffffffff1673ffffffffffffffffffffffffffffffffffffffff16815260200190815260200160002060020154612eff90919063ffffffff16565b600860008573ffffffffffffffffffffffffffffffffffffffff1673ffffffffffffffffffffffffffffffffffffffff1681526020019081526020016000206002018190555061138682600b54612f2090919063ffffffff16565b600b819055508273ffffffffffffffffffffffffffffffffffffffff166108fc839081150290604051600060405180830381858888f193505050501580156113d2573d6000803e3d6000fd5b508273ffffffffffffffffffffffffffffffffffffffff167ffc48f4f163cfed28aaf3be3f0b162a1338fab214afc9340eafc6cb081c71fadf8386604051808381526020018281526020019250505060405180910390a26002548114151561143957600080fd5b50505050565b60075481565b6000806000806000600360009054906101000a900473ffffffffffffffffffffffffffffffffffffffff1673ffffffffffffffffffffffffffffffffffffffff1663d6d65f3d6040518163ffffffff167c01000000000000000000000000000000000000000000000000000000000281526004016040805180830381600087803b1580156114d257600080fd5b505af11580156114e6573d6000803e3d6000fd5b505050506040513d60408110156114fc57600080fd5b810190808051906020019092919080519060200190929190505050935093506000841415611529576116e8565b600360009054906101000a900473ffffffffffffffffffffffffffffffffffffffff1673ffffffffffffffffffffffffffffffffffffffff16632442e1cb856040518263ffffffff167c010000000000000000000000000000000000000000000000000000000002815260040180828152602001915050600060405180830381600087803b1580156115ba57600080fd5b505af11580156115ce573d6000803e3d6000fd5b505050506040513d6000823e3d601f19601f8201168201806040525060c08110156115f857600080fd5b8101908080519060200190929190805190602001909291908051906020019092919080519060200190929190805164010000000081111561163857600080fd5b8281019050602081018481111561164e57600080fd5b815185600182028301116401000000008211171561166b57600080fd5b5050929190602001805164010000000081111561168757600080fd5b8281019050602081018481111561169d57600080fd5b81518560018202830111640100000000821117156116ba57600080fd5b50509291905050505050935050509150428263ffffffff16111580156116e557508063ffffffff1642105b94505b5050505090565b600160009054906101000a900473ffffffffffffffffffffffffffffffffffffffff1673ffffffffffffffffffffffffffffffffffffffff163373ffffffffffffffffffffffffffffffffffffffff1614151561174b57600080fd5b600073ffffffffffffffffffffffffffffffffffffffff168173ffffffffffffffffffffffffffffffffffffffff161415151561178757600080fd5b80600360006101000a81548173ffffffffffffffffffffffffffffffffffffffff021916908373ffffffffffffffffffffffffffffffffffffffff1602179055508073ffffffffffffffffffffffffffffffffffffffff16634090cb646040518163ffffffff167c0100000000000000000000000000000000000000000000000000000000028152600401602060405180830381600087803b15801561182c57600080fd5b505af1158015611840573d6000803e3d6000fd5b505050506040513d602081101561185657600080fd5b8101908080519060200190929190505050600660006101000a81548173ffffffffffffffffffffffffffffffffffffffff021916908373ffffffffffffffffffffffffffffffffffffffff160217905550600660009054906101000a900473ffffffffffffffffffffffffffffffffffffffff1673ffffffffffffffffffffffffffffffffffffffff1663313ce5676040518163ffffffff167c0100000000000000000000000000000000000000000000000000000000028152600401602060405180830381600087803b15801561192d57600080fd5b505af1158015611941573d6000803e3d6000fd5b505050506040513d602081101561195757600080fd5b810190808051906020019092919050505060ff1660078190555050565b60005481565b600560009054906101000a900473ffffffffffffffffffffffffffffffffffffffff1681565b600080600080600160009054906101000a900473ffffffffffffffffffffffffffffffffffffffff1673ffffffffffffffffffffffffffffffffffffffff163373ffffffffffffffffffffffffffffffffffffffff16141515611a0257600080fd5b600060016002600082825401925050819055506002549050611a226120da565b1515611a2d57600080fd5b611a35611d11565b9450611a3f612611565b9450509350600085111515611a5357600080fd5b60016009600085815260200190815260200160002060006101000a81548160ff0219169083151502179055506000600d541115611b2057611a9f600d5486612f4190919063ffffffff16565b9150600560009054906101000a900473ffffffffffffffffffffffffffffffffffffffff1673ffffffffffffffffffffffffffffffffffffffff166108fc839081150290604051600060405180830381858888f19350505050158015611b09573d6000803e3d6000fd5b50611b1d8286612eff90919063ffffffff16565b94505b3373ffffffffffffffffffffffffffffffffffffffff166108fc869081150290604051600060405180830381858888f19350505050158015611b66573d6000803e3d6000fd5b5083600c600082825401925050819055503373ffffffffffffffffffffffffffffffffffffffff167f4a966617f50ccad97beb624d8e13820bf2a745e1640fed943858499286fc9829866040518082815260200191505060405180910390a260025481141515611bd557600080fd5b5050505050565b600160009054906101000a900473ffffffffffffffffffffffffffffffffffffffff1673ffffffffffffffffffffffffffffffffffffffff163373ffffffffffffffffffffffffffffffffffffffff16141515611c3857600080fd5b600160009054906101000a900473ffffffffffffffffffffffffffffffffffffffff1673ffffffffffffffffffffffffffffffffffffffff167ff8df31144d9c2f0f6b59d69b8b98abd5459d07f2742c4df920b25aae33c6482060405160405180910390a26000600160006101000a81548173ffffffffffffffffffffffffffffffffffffffff021916908373ffffffffffffffffffffffffffffffffffffffff160217905550565b80600a8190555050565b600460009054906101000a900473ffffffffffffffffffffffffffffffffffffffff1681565b6000806000806000611d21612611565b5093509350600084148015611d365750600083145b80611d58575060003073ffffffffffffffffffffffffffffffffffffffff1631145b15611d6257611d9a565b611d79600b54600a54612eff90919063ffffffff16565b9150600c54838501039050611d978183612f4190919063ffffffff16565b94505b5050505090565b600160009054906101000a900473ffffffffffffffffffffffffffffffffffffffff1681565b600360009054906101000a900473ffffffffffffffffffffffffffffffffffffffff16611e3f82600860008673ffffffffffffffffffffffffffffffffffffffff1673ffffffffffffffffffffffffffffffffffffffff16815260200190815260200160002060000154612f2090919063ffffffff16565b600860008573ffffffffffffffffffffffffffffffffffffffff1673ffffffffffffffffffffffffffffffffffffffff16815260200190815260200160002060000181905550611eda34600860008673ffffffffffffffffffffffffffffffffffffffff1673ffffffffffffffffffffffffffffffffffffffff16815260200190815260200160002060020154612f2090919063ffffffff16565b600860008573ffffffffffffffffffffffffffffffffffffffff1673ffffffffffffffffffffffffffffffffffffffff16815260200190815260200160002060020181905550611fce600860008573ffffffffffffffffffffffffffffffffffffffff1673ffffffffffffffffffffffffffffffffffffffff16815260200190815260200160002060000154611fc0600754600a0a600860008873ffffffffffffffffffffffffffffffffffffffff1673ffffffffffffffffffffffffffffffffffffffff16815260200190815260200160002060020154612e9790919063ffffffff16565b612ed590919063ffffffff16565b600860008573ffffffffffffffffffffffffffffffffffffffff1673ffffffffffffffffffffffffffffffffffffffff1681526020019081526020016000206001018190555061202934600a54612f2090919063ffffffff16565b600a819055508273ffffffffffffffffffffffffffffffffffffffff167f363f315f930a17d1266b86a20d6dd34b1cfbc5a9db9f13a65d06a689c3a2af8a3484604051808381526020018281526020019250505060405180910390a2505050565b60086020528060005260406000206000915090508060000154908060010154908060020154905083565b600360009054906101000a900473ffffffffffffffffffffffffffffffffffffffff1681565b600080600080600080600360009054906101000a900473ffffffffffffffffffffffffffffffffffffffff1673ffffffffffffffffffffffffffffffffffffffff1663d6d65f3d6040518163ffffffff167c01000000000000000000000000000000000000000000000000000000000281526004016040805180830381600087803b15801561216857600080fd5b505af115801561217c573d6000803e3d6000fd5b505050506040513d604081101561219257600080fd5b81019080805190602001909291908051906020019092919050505094509450600360009054906101000a900473ffffffffffffffffffffffffffffffffffffffff1673ffffffffffffffffffffffffffffffffffffffff166314f66d346040518163ffffffff167c01000000000000000000000000000000000000000000000000000000000281526004016040805180830381600087803b15801561223657600080fd5b505af115801561224a573d6000803e3d6000fd5b505050506040513d604081101561226057600080fd5b81019080805190602001909291908051906020019092919050505050925083151561228a576125f9565b600085141561229c57600195506125f9565b600360009054906101000a900473ffffffffffffffffffffffffffffffffffffffff1673ffffffffffffffffffffffffffffffffffffffff16632442e1cb866040518263ffffffff167c010000000000000000000000000000000000000000000000000000000002815260040180828152602001915050600060405180830381600087803b15801561232d57600080fd5b505af1158015612341573d6000803e3d6000fd5b505050506040513d6000823e3d601f19601f8201168201806040525060c081101561236b57600080fd5b810190808051906020019092919080519060200190929190805190602001909291908051906020019092919080516401000000008111156123ab57600080fd5b828101905060208101848111156123c157600080fd5b81518560018202830111640100000000821117156123de57600080fd5b505092919060200180516401000000008111156123fa57600080fd5b8281019050602081018481111561241057600080fd5b815185600182028301116401000000008211171561242d57600080fd5b505092919050505050505050509150600360009054906101000a900473ffffffffffffffffffffffffffffffffffffffff1673ffffffffffffffffffffffffffffffffffffffff16632442e1cb846040518263ffffffff167c010000000000000000000000000000000000000000000000000000000002815260040180828152602001915050600060405180830381600087803b1580156124cd57600080fd5b505af11580156124e1573d6000803e3d6000fd5b505050506040513d6000823e3d601f19601f8201168201806040525060c081101561250b57600080fd5b8101908080519060200190929190805190602001909291908051906020019092919080519060200190929190805164010000000081111561254b57600080fd5b8281019050602081018481111561256157600080fd5b815185600182028301116401000000008211171561257e57600080fd5b5050929190602001805164010000000081111561259a57600080fd5b828101905060208101848111156125b057600080fd5b81518560018202830111640100000000821117156125cd57600080fd5b505092919050505050509350505050428263ffffffff1611806125f65750428163ffffffff1611155b95505b505050505090565b600d5481565b80600b8190555050565b600080600080600080600080600080600080600360009054906101000a900473ffffffffffffffffffffffffffffffffffffffff1673ffffffffffffffffffffffffffffffffffffffff1663d6d65f3d6040518163ffffffff167c01000000000000000000000000000000000000000000000000000000000281526004016040805180830381600087803b1580156126a857600080fd5b505af11580156126bc573d6000803e3d6000fd5b505050506040513d60408110156126d257600080fd5b81019080805190602001909291908051906020019092919050505098509850600360009054906101000a900473ffffffffffffffffffffffffffffffffffffffff1673ffffffffffffffffffffffffffffffffffffffff166314f66d346040518163ffffffff167c01000000000000000000000000000000000000000000000000000000000281526004016040805180830381600087803b15801561277657600080fd5b505af115801561278a573d6000803e3d6000fd5b505050506040513d60408110156127a057600080fd5b810190808051906020019092919080519060200190929190505050509650600360009054906101000a900473ffffffffffffffffffffffffffffffffffffffff1673ffffffffffffffffffffffffffffffffffffffff16632442e1cb886040518263ffffffff167c010000000000000000000000000000000000000000000000000000000002815260040180828152602001915050600060405180830381600087803b15801561284f57600080fd5b505af1158015612863573d6000803e3d6000fd5b505050506040513d6000823e3d601f19601f8201168201806040525060c081101561288d57600080fd5b810190808051906020019092919080519060200190929190805190602001909291908051906020019092919080516401000000008111156128cd57600080fd5b828101905060208101848111156128e357600080fd5b815185600182028301116401000000008211171561290057600080fd5b5050929190602001805164010000000081111561291c57600080fd5b8281019050602081018481111561293257600080fd5b815185600182028301116401000000008211171561294f57600080fd5b505092919050505050509850505050871580612970575061296e6120da565b155b1561297a57612d39565b600089148061298f57508563ffffffff164210155b61299c576001890361299e565b885b9850600360009054906101000a900473ffffffffffffffffffffffffffffffffffffffff1673ffffffffffffffffffffffffffffffffffffffff16632442e1cb8a6040518263ffffffff167c010000000000000000000000000000000000000000000000000000000002815260040180828152602001915050600060405180830381600087803b158015612a3157600080fd5b505af1158015612a45573d6000803e3d6000fd5b505050506040513d6000823e3d601f19601f8201168201806040525060c0811015612a6f57600080fd5b81019080805190602001909291908051906020019092919080519060200190929190805190602001909291908051640100000000811115612aaf57600080fd5b82810190506020810184811115612ac557600080fd5b8151856001820283011164010000000082111715612ae257600080fd5b50509291906020018051640100000000811115612afe57600080fd5b82810190506020810184811115612b1457600080fd5b8151856001820283011164010000000082111715612b3157600080fd5b50509291905050505050965050955050600960008a815260200190815260200160002060009054906101000a900460ff1692508215612b6f57612d39565b8891505b6000821115612d2f57818060019003925050600360009054906101000a900473ffffffffffffffffffffffffffffffffffffffff1673ffffffffffffffffffffffffffffffffffffffff16632442e1cb836040518263ffffffff167c010000000000000000000000000000000000000000000000000000000002815260040180828152602001915050600060405180830381600087803b158015612c1657600080fd5b505af1158015612c2a573d6000803e3d6000fd5b505050506040513d6000823e3d601f19601f8201168201806040525060c0811015612c5457600080fd5b81019080805190602001909291908051906020019092919080519060200190929190805190602001909291908051640100000000811115612c9457600080fd5b82810190506020810184811115612caa57600080fd5b8151856001820283011164010000000082111715612cc757600080fd5b50509291906020018051640100000000811115612ce357600080fd5b82810190506020810184811115612cf957600080fd5b8151856001820283011164010000000082111715612d1657600080fd5b505092919050505050505050915050808b019a50612b73565b848b8a9b509b509b505b505050505050505050909192565b600160009054906101000a900473ffffffffffffffffffffffffffffffffffffffff1673ffffffffffffffffffffffffffffffffffffffff163373ffffffffffffffffffffffffffffffffffffffff16141515612da357600080fd5b600073ffffffffffffffffffffffffffffffffffffffff168173ffffffffffffffffffffffffffffffffffffffff1614151515612ddf57600080fd5b80600460006101000a81548173ffffffffffffffffffffffffffffffffffffffff021916908373ffffffffffffffffffffffffffffffffffffffff16021790555050565b600a5481565b600b5481565b600160009054906101000a900473ffffffffffffffffffffffffffffffffffffffff1673ffffffffffffffffffffffffffffffffffffffff163373ffffffffffffffffffffffffffffffffffffffff16141515612e8b57600080fd5b612e9481612f8b565b50565b6000806000841415612eac5760009150612ece565b8284029050828482811515612ebd57fe5b04141515612eca57600080fd5b8091505b5092915050565b600080600083111515612ee757600080fd5b8284811515612ef257fe5b0490508091505092915050565b600080838311151515612f1157600080fd5b82840390508091505092915050565b6000808284019050838110151515612f3757600080fd5b8091505092915050565b6000612f4c82613087565b1515612f5757600080fd5b612f83612f626130ae565b612f758486612e9790919063ffffffff16565b612ed590919063ffffffff16565b905092915050565b600073ffffffffffffffffffffffffffffffffffffffff168173ffffffffffffffffffffffffffffffffffffffff1614151515612fc757600080fd5b8073ffffffffffffffffffffffffffffffffffffffff16600160009054906101000a900473ffffffffffffffffffffffffffffffffffffffff1673ffffffffffffffffffffffffffffffffffffffff167f8be0079c531659141344cd1fd0a4f28419497f9722a3daafe3b4186f6b6457e060405160405180910390a380600160006101000a81548173ffffffffffffffffffffffffffffffffffffffff021916908373ffffffffffffffffffffffffffffffffffffffff16021790555050565b60006130916130c0565b82101580156130a757506130a36130ae565b8211155b9050919050565b60006130b86130c8565b600a0a905090565b600080905090565b60006130d26130da565b600201905090565b60006002905090565b60006130ee82613087565b15156130f957600080fd5b6131166131046130da565b600a0a83612ed590919063ffffffff16565b90509190505600a165627a7a72305820158ba34d3c465bbac23b0bffd42d6d01a32d274491208347f6b3973264c106750029",
  "source": "pragma solidity ^0.4.24;\n\nimport \"./W12Fund.sol\";\nimport \"./WToken.sol\";\n\n\ncontract W12FundStub is W12Fund {\n    constructor (\n        uint version,\n        address crowdsaleAddress,\n        address swapAddress,\n        address wTokenAddress,\n        address _serviceWallet,\n        uint _trancheFeePercent\n    )\n        W12Fund(version, _trancheFeePercent) public\n    {\n        crowdsale = IW12Crowdsale(crowdsaleAddress);\n        swap = swapAddress;\n        wToken = WToken(wTokenAddress);\n        tokenDecimals = wToken.decimals();\n        trancheFeePercent = _trancheFeePercent;\n        serviceWallet = _serviceWallet;\n    }\n\n    function _setTotalFunded(uint amount) external {\n        totalFunded = amount;\n    }\n\n    function _setTotalRefunded(uint amount) external {\n        totalRefunded = amount;\n    }\n\n    function() payable external {}\n\n    // allow any sender\n    modifier onlyFrom(address sender) {\n        _;\n    }\n}\n",
  "sourcePath": "/c/Users/Mr.Hokid/projects/work/w12-product-contracts/contracts/W12FundStub.sol",
  "compiler": {
    "name": "solc",
    "version": "0.4.24+commit.e67f0147.Emscripten.clang"
  },
  "schemaVersion": "2.0.1",
  "updatedAt": "2018-09-20T14:43:09.061Z"
}