{
  "contractName": "W12Fund",
  "abi": [
    {
      "constant": true,
      "inputs": [],
      "name": "wToken",
      "outputs": [
        {
          "name": "",
          "type": "address"
        }
      ],
      "payable": false,
      "stateMutability": "view",
      "type": "function"
    },
    {
      "constant": true,
      "inputs": [],
      "name": "totalTranchePercentReleased",
      "outputs": [
        {
          "name": "",
          "type": "uint256"
        }
      ],
      "payable": false,
      "stateMutability": "view",
      "type": "function"
    },
    {
      "constant": true,
      "inputs": [
        {
          "name": "",
          "type": "uint256"
        }
      ],
      "name": "completedTranches",
      "outputs": [
        {
          "name": "",
          "type": "bool"
        }
      ],
      "payable": false,
      "stateMutability": "view",
      "type": "function"
    },
    {
      "constant": true,
      "inputs": [],
      "name": "tokenDecimals",
      "outputs": [
        {
          "name": "",
          "type": "uint256"
        }
      ],
      "payable": false,
      "stateMutability": "view",
      "type": "function"
    },
    {
      "constant": true,
      "inputs": [],
      "name": "version",
      "outputs": [
        {
          "name": "",
          "type": "uint256"
        }
      ],
      "payable": false,
      "stateMutability": "view",
      "type": "function"
    },
    {
      "constant": true,
      "inputs": [],
      "name": "serviceWallet",
      "outputs": [
        {
          "name": "",
          "type": "address"
        }
      ],
      "payable": false,
      "stateMutability": "view",
      "type": "function"
    },
    {
      "constant": false,
      "inputs": [],
      "name": "renounceOwnership",
      "outputs": [],
      "payable": false,
      "stateMutability": "nonpayable",
      "type": "function"
    },
    {
      "constant": true,
      "inputs": [],
      "name": "swap",
      "outputs": [
        {
          "name": "",
          "type": "address"
        }
      ],
      "payable": false,
      "stateMutability": "view",
      "type": "function"
    },
    {
      "constant": true,
      "inputs": [],
      "name": "owner",
      "outputs": [
        {
          "name": "",
          "type": "address"
        }
      ],
      "payable": false,
      "stateMutability": "view",
      "type": "function"
    },
    {
      "constant": true,
      "inputs": [
        {
          "name": "",
          "type": "address"
        }
      ],
      "name": "buyers",
      "outputs": [
        {
          "name": "totalBought",
          "type": "uint256"
        },
        {
          "name": "averagePrice",
          "type": "uint256"
        },
        {
          "name": "totalFunded",
          "type": "uint256"
        }
      ],
      "payable": false,
      "stateMutability": "view",
      "type": "function"
    },
    {
      "constant": true,
      "inputs": [],
      "name": "crowdsale",
      "outputs": [
        {
          "name": "",
          "type": "address"
        }
      ],
      "payable": false,
      "stateMutability": "view",
      "type": "function"
    },
    {
      "constant": true,
      "inputs": [],
      "name": "trancheFeePercent",
      "outputs": [
        {
          "name": "",
          "type": "uint256"
        }
      ],
      "payable": false,
      "stateMutability": "view",
      "type": "function"
    },
    {
      "constant": true,
      "inputs": [],
      "name": "totalFunded",
      "outputs": [
        {
          "name": "",
          "type": "uint256"
        }
      ],
      "payable": false,
      "stateMutability": "view",
      "type": "function"
    },
    {
      "constant": true,
      "inputs": [],
      "name": "totalRefunded",
      "outputs": [
        {
          "name": "",
          "type": "uint256"
        }
      ],
      "payable": false,
      "stateMutability": "view",
      "type": "function"
    },
    {
      "constant": false,
      "inputs": [
        {
          "name": "_newOwner",
          "type": "address"
        }
      ],
      "name": "transferOwnership",
      "outputs": [],
      "payable": false,
      "stateMutability": "nonpayable",
      "type": "function"
    },
    {
      "inputs": [
        {
          "name": "version",
          "type": "uint256"
        },
        {
          "name": "_trancheFeePercent",
          "type": "uint256"
        }
      ],
      "payable": false,
      "stateMutability": "nonpayable",
      "type": "constructor"
    },
    {
      "anonymous": false,
      "inputs": [
        {
          "indexed": true,
          "name": "buyer",
          "type": "address"
        },
        {
          "indexed": false,
          "name": "weiAmount",
          "type": "uint256"
        },
        {
          "indexed": false,
          "name": "tokenAmount",
          "type": "uint256"
        }
      ],
      "name": "FundsReceived",
      "type": "event"
    },
    {
      "anonymous": false,
      "inputs": [
        {
          "indexed": true,
          "name": "buyer",
          "type": "address"
        },
        {
          "indexed": false,
          "name": "weiAmount",
          "type": "uint256"
        },
        {
          "indexed": false,
          "name": "tokenAmount",
          "type": "uint256"
        }
      ],
      "name": "FundsRefunded",
      "type": "event"
    },
    {
      "anonymous": false,
      "inputs": [
        {
          "indexed": true,
          "name": "receiver",
          "type": "address"
        },
        {
          "indexed": false,
          "name": "amount",
          "type": "uint256"
        }
      ],
      "name": "TrancheReleased",
      "type": "event"
    },
    {
      "anonymous": false,
      "inputs": [
        {
          "indexed": true,
          "name": "previousOwner",
          "type": "address"
        }
      ],
      "name": "OwnershipRenounced",
      "type": "event"
    },
    {
      "anonymous": false,
      "inputs": [
        {
          "indexed": true,
          "name": "previousOwner",
          "type": "address"
        },
        {
          "indexed": true,
          "name": "newOwner",
          "type": "address"
        }
      ],
      "name": "OwnershipTransferred",
      "type": "event"
    },
    {
      "constant": false,
      "inputs": [
        {
          "name": "_crowdsale",
          "type": "address"
        }
      ],
      "name": "setCrowdsale",
      "outputs": [],
      "payable": false,
      "stateMutability": "nonpayable",
      "type": "function"
    },
    {
      "constant": false,
      "inputs": [
        {
          "name": "_swap",
          "type": "address"
        }
      ],
      "name": "setSwap",
      "outputs": [],
      "payable": false,
      "stateMutability": "nonpayable",
      "type": "function"
    },
    {
      "constant": false,
      "inputs": [
        {
          "name": "_serviceWallet",
          "type": "address"
        }
      ],
      "name": "setServiceWallet",
      "outputs": [],
      "payable": false,
      "stateMutability": "nonpayable",
      "type": "function"
    },
    {
      "constant": false,
      "inputs": [
        {
          "name": "buyer",
          "type": "address"
        },
        {
          "name": "tokenAmount",
          "type": "uint256"
        }
      ],
      "name": "recordPurchase",
      "outputs": [],
      "payable": true,
      "stateMutability": "payable",
      "type": "function"
    },
    {
      "constant": true,
      "inputs": [
        {
          "name": "buyer",
          "type": "address"
        }
      ],
      "name": "getInvestmentsInfo",
      "outputs": [
        {
          "name": "totalTokensBought",
          "type": "uint256"
        },
        {
          "name": "averageTokenPrice",
          "type": "uint256"
        }
      ],
      "payable": false,
      "stateMutability": "view",
      "type": "function"
    },
    {
      "constant": true,
      "inputs": [
        {
          "name": "wtokensToRefund",
          "type": "uint256"
        }
      ],
      "name": "getRefundAmount",
      "outputs": [
        {
          "name": "result",
          "type": "uint256"
        }
      ],
      "payable": false,
      "stateMutability": "view",
      "type": "function"
    },
    {
      "constant": true,
      "inputs": [],
      "name": "getTrancheAmount",
      "outputs": [
        {
          "name": "result",
          "type": "uint256"
        }
      ],
      "payable": false,
      "stateMutability": "view",
      "type": "function"
    },
    {
      "constant": true,
      "inputs": [],
      "name": "getTrancheParameters",
      "outputs": [
        {
          "name": "",
          "type": "uint256"
        },
        {
          "name": "totalTranchePercentBefore",
          "type": "uint256"
        },
        {
          "name": "",
          "type": "uint256"
        }
      ],
      "payable": false,
      "stateMutability": "view",
      "type": "function"
    },
    {
      "constant": false,
      "inputs": [],
      "name": "tranche",
      "outputs": [],
      "payable": false,
      "stateMutability": "nonpayable",
      "type": "function"
    },
    {
      "constant": false,
      "inputs": [
        {
          "name": "wtokensToRefund",
          "type": "uint256"
        }
      ],
      "name": "refund",
      "outputs": [],
      "payable": false,
      "stateMutability": "nonpayable",
      "type": "function"
    },
    {
      "constant": true,
      "inputs": [],
      "name": "refundAllowed",
      "outputs": [
        {
          "name": "",
          "type": "bool"
        }
      ],
      "payable": false,
      "stateMutability": "view",
      "type": "function"
    },
    {
      "constant": true,
      "inputs": [],
      "name": "trancheTransferAllowed",
      "outputs": [
        {
          "name": "",
          "type": "bool"
        }
      ],
      "payable": false,
      "stateMutability": "view",
      "type": "function"
    }
  ],
  "bytecode": "0x608060405260016002553480156200001657600080fd5b5060405160408062002040833981016040528051602090910151600082905560018054600160a060020a03191633179055620000608164010000000062001dfc6200009b82021704565b80156200008557506064620000838264010000000062001e4f620000d882021704565b105b15156200009157600080fd5b600d555062000184565b6000620000b06401000000006200012a810204565b8210158015620000d25750620000ce6401000000006200012f810204565b8211155b92915050565b6000620000ee826401000000006200009b810204565b1515620000fa57600080fd5b620000d2620001116401000000006200014c810204565b8390600a0a64010000000062001d1f6200015182021704565b600090565b60006200014464010000000062000167810204565b600a0a905090565b600290565b600081838115156200015f57fe5b049392505050565b60006200017c6401000000006200014c810204565b600201905090565b611eac80620001946000396000f3006080604052600436106101455763ffffffff60e060020a60003504166304cd5294811461014a5780630babd8641461017457806311fa7da2146101a557806319ae48ed146101df57806323585f96146101f457806323bffccc14610220578063278ecde1146102435780633b97e8561461025b5780633fa911ae14610270578063483a20b21461028557806354fd4d50146102a65780635641f3c3146102bb5780636ebc0af1146102d0578063715018a6146102e55780638119c065146102fa5780638ce2bc2a1461030f5780638da5cb5b14610324578063958799cb1461033957806397a993aa146103505780639c1e03a01461038f5780639e80baac146103a4578063a328665a146103b9578063ac2a2a34146103ce578063acb3c073146103e3578063ad044f4914610404578063d908296214610419578063f2fde38b1461042e575b600080fd5b34801561015657600080fd5b5061016260043561044f565b60408051918252519081900360200190f35b34801561018057600080fd5b50610189610679565b60408051600160a060020a039092168252519081900360200190f35b3480156101b157600080fd5b506101c6600160a060020a0360043516610688565b6040805192835260208301919091528051918290030190f35b3480156101eb57600080fd5b506101626106c5565b34801561020057600080fd5b5061020c6004356106cb565b604080519115158252519081900360200190f35b34801561022c57600080fd5b50610241600160a060020a03600435166106e0565b005b34801561024f57600080fd5b5061024160043561073b565b34801561026757600080fd5b50610162610af5565b34801561027c57600080fd5b5061020c610afb565b34801561029157600080fd5b50610241600160a060020a0360043516610d10565b3480156102b257600080fd5b50610162610e99565b3480156102c757600080fd5b50610189610e9f565b3480156102dc57600080fd5b50610241610eae565b3480156102f157600080fd5b5061024161102f565b34801561030657600080fd5b5061018961109d565b34801561031b57600080fd5b506101626110ac565b34801561033057600080fd5b50610189611130565b610241600160a060020a036004351660243561113f565b34801561035c57600080fd5b50610371600160a060020a036004351661127c565b60408051938452602084019290925282820152519081900360600190f35b34801561039b57600080fd5b5061018961129d565b3480156103b057600080fd5b5061020c6112ac565b3480156103c557600080fd5b5061016261169d565b3480156103da57600080fd5b506103716116a3565b3480156103ef57600080fd5b50610241600160a060020a0360043516611c59565b34801561041057600080fd5b50610162611cb4565b34801561042557600080fd5b50610162611cba565b34801561043a57600080fd5b50610241600160a060020a0360043516611cc0565b60008060008060008061046e6008600754611ce390919063ffffffff16565b6007541061047e57600754610492565b60075461049290600863ffffffff611ce316565b94507f19999999999999999999999999999999999999999999999999999999999999998511156104c157600080fd5b84600a0a6000198115156104d157fe5b0493503392508615806104fa5750600160a060020a038316600090815260086020526040902054155b8061050457503031155b806105a35750600654604080517f70a08231000000000000000000000000000000000000000000000000000000008152600160a060020a03868116600483015291518a9392909216916370a08231916024808201926020929091908290030181600087803b15801561057557600080fd5b505af1158015610589573d6000803e3d6000fd5b505050506040513d602081101561059f57600080fd5b5051105b806105c55750600160a060020a03831660009081526008602052604090205487115b156105cf5761066f565b600a54600160a060020a038416600090815260086020526040902060020154610610913031916106049163ffffffff611cf616565b9063ffffffff611d1f16565b9150838210156106235784600a0a610626565b60015b600160a060020a03841660009081526008602052604090205490915061066c908290610604908a906106609083888663ffffffff611cf616565b9063ffffffff611cf616565b95505b5050505050919050565b600654600160a060020a031681565b600080600160a060020a03831615156106a057600080fd5b5050600160a060020a0316600090815260086020526040902080546001909101549091565b600c5481565b60096020526000908152604090205460ff1681565b600154600160a060020a031633146106f757600080fd5b600160a060020a038116151561070c57600080fd5b6005805473ffffffffffffffffffffffffffffffffffffffff1916600160a060020a0392909216919091179055565b600080600160025414151561074f57600080fd5b6002805533915061075e610afb565b151561076957600080fd5b6000831161077657600080fd5b600160a060020a03821660009081526008602052604090205483111561079b57600080fd5b600654604080517f70a08231000000000000000000000000000000000000000000000000000000008152600160a060020a0385811660048301529151869392909216916370a08231916024808201926020929091908290030181600087803b15801561080657600080fd5b505af115801561081a573d6000803e3d6000fd5b505050506040513d602081101561083057600080fd5b5051101561083d57600080fd5b600654604080517fdd62ed3e00000000000000000000000000000000000000000000000000000000815233600482015230602482015290518592600160a060020a03169163dd62ed3e9160448083019260209291908290030181600087803b1580156108a857600080fd5b505af11580156108bc573d6000803e3d6000fd5b505050506040513d60208110156108d257600080fd5b505110156108df57600080fd5b6108e88361044f565b9050600081116108f757600080fd5b600160a060020a038216600090815260086020526040902054610920908463ffffffff611d3416565b600160a060020a038316600090815260086020526040902090815560075460019091015461098c9161096491600a9190910a9061060490879063ffffffff611cf616565b600160a060020a0384166000908152600860205260409020600201549063ffffffff611d3416565b600160a060020a038316600090815260086020526040902060020155600b546109bb908263ffffffff611ce316565b600b5560065460048054604080517f23b872dd000000000000000000000000000000000000000000000000000000008152600160a060020a03878116948201949094529183166024830152604482018790525191909216916323b872dd9160648083019260209291908290030181600087803b158015610a3a57600080fd5b505af1158015610a4e573d6000803e3d6000fd5b505050506040513d6020811015610a6457600080fd5b50511515610a7157600080fd5b604051600160a060020a0383169082156108fc029083906000818181858888f19350505050158015610aa7573d6000803e3d6000fd5b5060408051828152602081018590528151600160a060020a038516927ffc48f4f163cfed28aaf3be3f0b162a1338fab214afc9340eafc6cb081c71fadf928290030190a25050600160025550565b60075481565b600354604080517fd6d65f3d00000000000000000000000000000000000000000000000000000000815281516000938493849384938493600160a060020a03169263d6d65f3d926004808201939182900301818787803b158015610b5e57600080fd5b505af1158015610b72573d6000803e3d6000fd5b505050506040513d6040811015610b8857600080fd5b5080516020909101519094509250831515610ba257610d09565b6003546040805160e060020a632442e1cb028152600481018790529051600160a060020a0390921691632442e1cb9160248082019260009290919082900301818387803b158015610bf257600080fd5b505af1158015610c06573d6000803e3d6000fd5b505050506040513d6000823e601f3d908101601f1916820160405260c0811015610c2f57600080fd5b815160208301516040840151606085015160808601805194969395929491939283019291640100000000811115610c6557600080fd5b82016020810184811115610c7857600080fd5b8151640100000000811182820187101715610c9257600080fd5b50509291906020018051640100000000811115610cae57600080fd5b82016020810184811115610cc157600080fd5b8151640100000000811182820187101715610cdb57600080fd5b50509291905050505050935050509150428263ffffffff1611158015610d0657508063ffffffff1642105b94505b5050505090565b600154600160a060020a03163314610d2757600080fd5b600160a060020a0381161515610d3c57600080fd5b6003805473ffffffffffffffffffffffffffffffffffffffff1916600160a060020a038316908117909155604080517f4090cb640000000000000000000000000000000000000000000000000000000081529051634090cb64916004808201926020929091908290030181600087803b158015610db857600080fd5b505af1158015610dcc573d6000803e3d6000fd5b505050506040513d6020811015610de257600080fd5b50516006805473ffffffffffffffffffffffffffffffffffffffff1916600160a060020a039283161790819055604080517f313ce5670000000000000000000000000000000000000000000000000000000081529051919092169163313ce5679160048083019260209291908290030181600087803b158015610e6457600080fd5b505af1158015610e78573d6000803e3d6000fd5b505050506040513d6020811015610e8e57600080fd5b505160ff1660075550565b60005481565b600554600160a060020a031681565b600154600090819081908190600160a060020a03163314610ece57600080fd5b600254600114610edd57600080fd5b60028055610ee96112ac565b1515610ef457600080fd5b610efc6110ac565b9350610f066116a3565b9350509250600084111515610f1a57600080fd5b6000828152600960205260408120805460ff19166001179055600d541115610f6557600d54610f5090859063ffffffff611d4616565b9050610f62848263ffffffff611d3416565b93505b600c54610f78908463ffffffff611ce316565b600c556000811115610fc057600554604051600160a060020a039091169082156108fc029083906000818181858888f19350505050158015610fbe573d6000803e3d6000fd5b505b604051339085156108fc029086906000818181858888f19350505050158015610fed573d6000803e3d6000fd5b5060408051858152905133917f4a966617f50ccad97beb624d8e13820bf2a745e1640fed943858499286fc9829919081900360200190a2505060016002555050565b600154600160a060020a0316331461104657600080fd5b600154604051600160a060020a03909116907ff8df31144d9c2f0f6b59d69b8b98abd5459d07f2742c4df920b25aae33c6482090600090a26001805473ffffffffffffffffffffffffffffffffffffffff19169055565b600454600160a060020a031681565b60008060008060006110bc6116a3565b50935093508360001480156110cf575082155b806110d957503031155b156110e357610d09565b600b54600a546110f89163ffffffff611d3416565b600c5490925061111e90611112868663ffffffff611ce316565b9063ffffffff611d3416565b9050610d06828263ffffffff611d4616565b600154600160a060020a031681565b600354600160a060020a031633811461115757600080fd5b6000821161116457600080fd5b6000341161117157600080fd5b600160a060020a03831660009081526008602052604090205461119a908363ffffffff611ce316565b600160a060020a0384166000908152600860205260409020908155600201546111c9903463ffffffff611ce316565b600160a060020a038416600090815260086020526040902060028101829055546007546112029261060491600a0a63ffffffff611cf616565b600160a060020a038416600090815260086020526040902060010155600a54611231903463ffffffff611ce316565b600a5560408051348152602081018490528151600160a060020a038616927f363f315f930a17d1266b86a20d6dd34b1cfbc5a9db9f13a65d06a689c3a2af8a928290030190a2505050565b60086020526000908152604090208054600182015460029092015490919083565b600354600160a060020a031681565b600080600080600080600360009054906101000a9004600160a060020a0316600160a060020a031663d6d65f3d6040518163ffffffff1660e060020a0281526004016040805180830381600087803b15801561130757600080fd5b505af115801561131b573d6000803e3d6000fd5b505050506040513d604081101561133157600080fd5b508051602090910151600354604080517f14f66d340000000000000000000000000000000000000000000000000000000081528151949950929750600160a060020a03909116926314f66d349260048082019392918290030181600087803b15801561139c57600080fd5b505af11580156113b0573d6000803e3d6000fd5b505050506040513d60408110156113c657600080fd5b505192508315156113d657611695565b8415156113e65760019550611695565b6003546040805160e060020a632442e1cb028152600481018890529051600160a060020a0390921691632442e1cb9160248082019260009290919082900301818387803b15801561143657600080fd5b505af115801561144a573d6000803e3d6000fd5b505050506040513d6000823e601f3d908101601f1916820160405260c081101561147357600080fd5b8151602083015160408401516060850151608086018051949693959294919392830192916401000000008111156114a957600080fd5b820160208101848111156114bc57600080fd5b81516401000000008111828201871017156114d657600080fd5b505092919060200180516401000000008111156114f257600080fd5b8201602081018481111561150557600080fd5b815164010000000081118282018710171561151f57600080fd5b50506003546040805160e060020a632442e1cb028152600481018f905290519a9c50600160a060020a0390911699632442e1cb9950602480830199506000985090965090869003019350849250859150889050803b15801561158057600080fd5b505af1158015611594573d6000803e3d6000fd5b505050506040513d6000823e601f3d908101601f1916820160405260c08110156115bd57600080fd5b8151602083015160408401516060850151608086018051949693959294919392830192916401000000008111156115f357600080fd5b8201602081018481111561160657600080fd5b815164010000000081118282018710171561162057600080fd5b5050929190602001805164010000000081111561163c57600080fd5b8201602081018481111561164f57600080fd5b815164010000000081118282018710171561166957600080fd5b505092919050505050509350505050428263ffffffff1611806116925750428163ffffffff1611155b95505b505050505090565b600d5481565b600080600080600080600080600080600080600360009054906101000a9004600160a060020a0316600160a060020a031663d6d65f3d6040518163ffffffff1660e060020a0281526004016040805180830381600087803b15801561170757600080fd5b505af115801561171b573d6000803e3d6000fd5b505050506040513d604081101561173157600080fd5b508051602090910151600354604080517f14f66d340000000000000000000000000000000000000000000000000000000081528151949d50929b50600160a060020a03909116926314f66d349260048082019392918290030181600087803b15801561179c57600080fd5b505af11580156117b0573d6000803e3d6000fd5b505050506040513d60408110156117c657600080fd5b50516003546040805160e060020a632442e1cb028152600481018490529051929950600160a060020a0390911691632442e1cb9160248082019260009290919082900301818387803b15801561181b57600080fd5b505af115801561182f573d6000803e3d6000fd5b505050506040513d6000823e601f3d908101601f1916820160405260c081101561185857600080fd5b81516020830151604084015160608501516080860180519496939592949193928301929164010000000081111561188e57600080fd5b820160208101848111156118a157600080fd5b81516401000000008111828201871017156118bb57600080fd5b505092919060200180516401000000008111156118d757600080fd5b820160208101848111156118ea57600080fd5b815164010000000081118282018710171561190457600080fd5b50509291905050505050985050505087158061192557506119236112ac565b155b1561192f57611c4b565b88158061194257508563ffffffff164210155b61194f5760018903611951565b885b6003546040805160e060020a632442e1cb028152600481018490529051929b50600160a060020a0390911691632442e1cb9160248082019260009290919082900301818387803b1580156119a457600080fd5b505af11580156119b8573d6000803e3d6000fd5b505050506040513d6000823e601f3d908101601f1916820160405260c08110156119e157600080fd5b815160208301516040840151606085015160808601805194969395929491939283019291640100000000811115611a1757600080fd5b82016020810184811115611a2a57600080fd5b8151640100000000811182820187101715611a4457600080fd5b50509291906020018051640100000000811115611a6057600080fd5b82016020810184811115611a7357600080fd5b8151640100000000811182820187101715611a8d57600080fd5b50509291905050505050965050955050600960008a815260200190815260200160002060009054906101000a900460ff1692508215611acb57611c4b565b8891505b6000821115611c41576003546040805160e060020a632442e1cb0281526000199094016004850181905290519093600160a060020a0390921691632442e1cb91602480830192600092919082900301818387803b158015611b2f57600080fd5b505af1158015611b43573d6000803e3d6000fd5b505050506040513d6000823e601f3d908101601f1916820160405260c0811015611b6c57600080fd5b815160208301516040840151606085015160808601805194969395929491939283019291640100000000811115611ba257600080fd5b82016020810184811115611bb557600080fd5b8151640100000000811182820187101715611bcf57600080fd5b50509291906020018051640100000000811115611beb57600080fd5b82016020810184811115611bfe57600080fd5b8151640100000000811182820187101715611c1857600080fd5b505092919050505050505050915050611c3a818c611ce390919063ffffffff16565b9a50611acf565b848b8a9b509b509b505b505050505050505050909192565b600154600160a060020a03163314611c7057600080fd5b600160a060020a0381161515611c8557600080fd5b6004805473ffffffffffffffffffffffffffffffffffffffff1916600160a060020a0392909216919091179055565b600a5481565b600b5481565b600154600160a060020a03163314611cd757600080fd5b611ce081611d7e565b50565b81810182811015611cf057fe5b92915050565b6000821515611d0757506000611cf0565b50818102818382811515611d1757fe5b0414611cf057fe5b60008183811515611d2c57fe5b049392505050565b600082821115611d4057fe5b50900390565b6000611d5182611dfc565b1515611d5c57600080fd5b611d77611d67611e21565b610604858563ffffffff611cf616565b9392505050565b600160a060020a0381161515611d9357600080fd5b600154604051600160a060020a038084169216907f8be0079c531659141344cd1fd0a4f28419497f9722a3daafe3b4186f6b6457e090600090a36001805473ffffffffffffffffffffffffffffffffffffffff1916600160a060020a0392909216919091179055565b6000611e06611e33565b8210158015611cf05750611e18611e21565b82111592915050565b6000611e2b611e38565b600a0a905090565b600090565b6000611e42611e4a565b600201905090565b600290565b6000611e5a82611dfc565b1515611e6557600080fd5b611cf0611e70611e4a565b8390600a0a63ffffffff611d1f165600a165627a7a72305820311074774ed09ff1abad7efeeaaaf0d8dbb95454119635ff28c1f2f4c3c2ac7e0029",
  "source": "pragma solidity ^0.4.24;\n\nimport \"openzeppelin-solidity/contracts/ownership/Ownable.sol\";\nimport \"openzeppelin-solidity/contracts/ReentrancyGuard.sol\";\nimport \"openzeppelin-solidity/contracts/math/SafeMath.sol\";\nimport \"./token/WToken.sol\";\nimport \"./interfaces/IW12Crowdsale.sol\";\nimport \"./interfaces/IW12Fund.sol\";\nimport \"./libs/Percent.sol\";\nimport \"./versioning/Versionable.sol\";\n\ncontract W12Fund is Versionable, IW12Fund, Ownable, ReentrancyGuard {\n    using SafeMath for uint;\n    using Percent for uint;\n\n    IW12Crowdsale public crowdsale;\n    address public swap;\n    address public serviceWallet;\n    WToken public wToken;\n    uint public tokenDecimals; // TODO: refactor this\n    mapping (address=>TokenPriceInfo) public buyers;\n    mapping (uint => bool) public completedTranches; // TODO: refactor this\n    uint public totalFunded;\n    uint public totalRefunded;\n    uint public totalTranchePercentReleased;\n    uint public trancheFeePercent;\n\n    struct TokenPriceInfo {\n        uint totalBought;\n        uint averagePrice;\n        uint totalFunded;\n    }\n\n    event FundsReceived(address indexed buyer, uint weiAmount, uint tokenAmount);\n    event FundsRefunded(address indexed buyer, uint weiAmount, uint tokenAmount);\n    event TrancheReleased(address indexed receiver, uint amount);\n\n    constructor(uint version, uint _trancheFeePercent) Versionable(version) public {\n        require(_trancheFeePercent.isPercent() && _trancheFeePercent.fromPercent() < 100);\n\n        trancheFeePercent = _trancheFeePercent;\n    }\n\n    function setCrowdsale(IW12Crowdsale _crowdsale) onlyOwner external {\n        require(_crowdsale != address(0));\n\n        crowdsale = _crowdsale;\n        wToken = _crowdsale.getWToken();\n        tokenDecimals = wToken.decimals();\n    }\n\n    function setSwap(address _swap) onlyOwner external {\n        require(_swap != address(0));\n\n        swap = _swap;\n    }\n\n    function setServiceWallet(address _serviceWallet) onlyOwner external {\n        require(_serviceWallet != address(0));\n\n        serviceWallet = _serviceWallet;\n    }\n\n    function recordPurchase(address buyer, uint tokenAmount) external payable onlyFrom(crowdsale) {\n        require(tokenAmount > 0);\n        require(msg.value > 0);\n\n        buyers[buyer].totalBought = buyers[buyer].totalBought.add(tokenAmount);\n        buyers[buyer].totalFunded = buyers[buyer].totalFunded.add(msg.value);\n        buyers[buyer].averagePrice = (buyers[buyer].totalFunded.mul(10 ** tokenDecimals)).div(buyers[buyer].totalBought);\n\n        totalFunded = totalFunded.add(msg.value);\n\n        emit FundsReceived(buyer, msg.value, tokenAmount);\n    }\n\n    function getInvestmentsInfo(address buyer) external view returns (uint totalTokensBought, uint averageTokenPrice) {\n        require(buyer != address(0));\n\n        return (buyers[buyer].totalBought, buyers[buyer].averagePrice);\n    }\n\n    /**\n        a = address(this).balance\n        b = totalFunded\n        c = buyers[buyer].totalFunded\n        d = buyers[buyer].totalBought\n        e = wtokensToRefund\n\n        ( ( c * (a / b) ) / d ) * e = (refund amount)\n    */\n    function getRefundAmount(uint wtokensToRefund) public view returns (uint result) {\n        uint exp = tokenDecimals < tokenDecimals.add(8) ? tokenDecimals.add(8) : tokenDecimals;\n\n        require(uint(- 1) / 10 >= exp);\n\n        uint max = uint(-1) / 10 ** exp;\n        address buyer = msg.sender;\n\n        if(wtokensToRefund == 0\n            || buyers[buyer].totalBought == 0\n            || address(this).balance == 0\n            || wToken.balanceOf(buyer) < wtokensToRefund\n            || buyers[buyer].totalBought < wtokensToRefund\n        ) return;\n\n        uint allowedFund = buyers[buyer].totalFunded.mul(totalFunded).div(address(this).balance);\n        uint precisionComponent = allowedFund >= max ? 1 : 10 ** exp;\n\n        result = allowedFund\n            .mul(precisionComponent)\n            .div(buyers[buyer].totalBought)\n            .mul(wtokensToRefund)\n            .div(precisionComponent);\n    }\n\n    function getTrancheAmount() public view returns (uint result) {\n        (uint tranchePercent, uint totalTranchePercentBefore, ) = getTrancheParameters();\n\n        if (\n            tranchePercent == 0 && totalTranchePercentBefore == 0\n            || address(this).balance == 0\n        ) return;\n\n        uint allowedFund = totalFunded.sub(totalRefunded);\n        uint trancheToRelease = tranchePercent\n            .add(totalTranchePercentBefore)\n            .sub(totalTranchePercentReleased);\n\n        result = allowedFund.percent(trancheToRelease);\n    }\n\n    function getTrancheParameters() public view returns (uint, uint totalTranchePercentBefore, uint) {\n        (uint index, bool found) = crowdsale.getCurrentMilestoneIndex();\n        (uint lastIndex, ) = crowdsale.getLastMilestoneIndex();\n        (,,, uint32 lastWithdrawalWindow,,) = crowdsale.getMilestone(lastIndex);\n\n        if (!found || !trancheTransferAllowed()) return;\n\n        // get percent from prev milestone\n        index = index == 0 || now >= lastWithdrawalWindow ? index : index - 1;\n\n        ( , uint tranchePercent, , uint32 withdrawalWindow, , ) = crowdsale.getMilestone(index);\n\n        bool completed = completedTranches[index];\n\n        if (completed) return;\n\n        uint dIndex = index;\n\n        while (dIndex > 0) {\n            dIndex--;\n\n            (, uint _tranchePercent, , , , ) = crowdsale.getMilestone(dIndex);\n\n            totalTranchePercentBefore = totalTranchePercentBefore.add(_tranchePercent);\n        }\n\n        return (\n            tranchePercent,\n            // it will helps to calculate tranche\n            totalTranchePercentBefore,\n            index\n        );\n    }\n\n    function tranche() external onlyOwner nonReentrant {\n        require(trancheTransferAllowed());\n\n        uint trancheAmount = getTrancheAmount();\n        (uint tranchePercent, ,uint milestoneIndex) = getTrancheParameters();\n\n        require(trancheAmount > 0);\n\n        completedTranches[milestoneIndex] = true;\n\n        uint fee;\n\n        if (trancheFeePercent > 0) {\n            fee = trancheAmount.percent(trancheFeePercent);\n            trancheAmount = trancheAmount.sub(fee);\n        }\n\n        totalTranchePercentReleased = totalTranchePercentReleased.add(tranchePercent);\n\n        if (fee > 0) serviceWallet.transfer(fee);\n        msg.sender.transfer(trancheAmount);\n\n        emit TrancheReleased(msg.sender, trancheAmount);\n    }\n\n    function refund(uint wtokensToRefund) external nonReentrant {\n        address buyer = msg.sender;\n\n        require(refundAllowed());\n        require(wtokensToRefund > 0);\n        require(buyers[buyer].totalBought >= wtokensToRefund);\n        require(wToken.balanceOf(buyer) >= wtokensToRefund);\n        require(wToken.allowance(msg.sender, address(this)) >= wtokensToRefund);\n\n        uint transferAmount = getRefundAmount(wtokensToRefund);\n\n        require(transferAmount > 0);\n\n        buyers[buyer].totalBought = buyers[buyer].totalBought\n            .sub(wtokensToRefund);\n        buyers[buyer].totalFunded = buyers[buyer].totalFunded\n            .sub(wtokensToRefund.mul(buyers[buyer].averagePrice).div(10 ** tokenDecimals));\n\n        // update total refunded amount counter\n        totalRefunded = totalRefunded.add(transferAmount);\n\n        require(wToken.transferFrom(buyer, swap, wtokensToRefund));\n        buyer.transfer(transferAmount);\n\n        emit FundsRefunded(buyer, transferAmount, wtokensToRefund);\n    }\n\n    function refundAllowed() public view returns (bool) {\n        (uint index, bool found) = crowdsale.getCurrentMilestoneIndex();\n\n        // first milestone is reserved for the project to claim initial amount of payments. No refund allowed at this stage.\n        if(index == 0) return;\n\n        (uint32 endDate, , , uint32 withdrawalWindow, , ) = crowdsale.getMilestone(index);\n\n        return endDate <= now && now < withdrawalWindow;\n    }\n\n    function trancheTransferAllowed() public view returns (bool) {\n        (uint index, bool found) = crowdsale.getCurrentMilestoneIndex();\n        (uint lastIndex, ) = crowdsale.getLastMilestoneIndex();\n\n        if(!found) return;\n        if(index == 0) return true;\n\n        (uint32 endDate, , , , , ) = crowdsale.getMilestone(index);\n        (, , ,uint32 lastWithdrawalWindow, , ) = crowdsale.getMilestone(lastIndex);\n\n        return endDate > now || lastWithdrawalWindow <= now;\n    }\n\n    modifier onlyFrom(address sender) {\n        require(msg.sender == sender);\n\n        _;\n    }\n}\n",
  "sourcePath": "/home/circleci/code/contracts/W12Fund.sol",
  "compiler": {
    "name": "solc",
    "version": "0.4.24+commit.e67f0147.Emscripten.clang"
  },
  "schemaVersion": "2.0.1",
  "updatedAt": "2018-10-02T11:52:56.719Z"
}