{
  "contractName": "W12FundCrowdsaleStub",
  "abi": [
    {
      "constant": false,
      "inputs": [
        {
          "name": "recipient",
          "type": "address"
        }
      ],
      "name": "transferPrimary",
      "outputs": [],
      "payable": false,
      "stateMutability": "nonpayable",
      "type": "function"
    },
    {
      "constant": true,
      "inputs": [],
      "name": "version",
      "outputs": [
        {
          "name": "",
          "type": "uint256"
        }
      ],
      "payable": false,
      "stateMutability": "view",
      "type": "function"
    },
    {
      "constant": true,
      "inputs": [],
      "name": "primary",
      "outputs": [
        {
          "name": "",
          "type": "address"
        }
      ],
      "payable": false,
      "stateMutability": "view",
      "type": "function"
    },
    {
      "inputs": [
        {
          "name": "version",
          "type": "uint256"
        }
      ],
      "payable": false,
      "stateMutability": "nonpayable",
      "type": "constructor"
    },
    {
      "payable": true,
      "stateMutability": "payable",
      "type": "fallback"
    },
    {
      "anonymous": false,
      "inputs": [
        {
          "indexed": false,
          "name": "recipient",
          "type": "address"
        }
      ],
      "name": "PrimaryTransferred",
      "type": "event"
    },
    {
      "constant": true,
      "inputs": [],
      "name": "getFund",
      "outputs": [
        {
          "name": "",
          "type": "address"
        }
      ],
      "payable": false,
      "stateMutability": "view",
      "type": "function"
    },
    {
      "constant": true,
      "inputs": [
        {
          "name": "account",
          "type": "address"
        }
      ],
      "name": "isAdmin",
      "outputs": [
        {
          "name": "",
          "type": "bool"
        }
      ],
      "payable": false,
      "stateMutability": "view",
      "type": "function"
    },
    {
      "constant": false,
      "inputs": [
        {
          "name": "account",
          "type": "address"
        }
      ],
      "name": "addAdmin",
      "outputs": [],
      "payable": false,
      "stateMutability": "nonpayable",
      "type": "function"
    },
    {
      "constant": false,
      "inputs": [],
      "name": "renounceAdmin",
      "outputs": [],
      "payable": false,
      "stateMutability": "nonpayable",
      "type": "function"
    },
    {
      "constant": false,
      "inputs": [
        {
          "name": "account",
          "type": "address"
        }
      ],
      "name": "removeAdmin",
      "outputs": [],
      "payable": false,
      "stateMutability": "nonpayable",
      "type": "function"
    },
    {
      "constant": true,
      "inputs": [
        {
          "name": "account",
          "type": "address"
        }
      ],
      "name": "isProjectOwner",
      "outputs": [
        {
          "name": "",
          "type": "bool"
        }
      ],
      "payable": false,
      "stateMutability": "view",
      "type": "function"
    },
    {
      "constant": false,
      "inputs": [
        {
          "name": "account",
          "type": "address"
        }
      ],
      "name": "addProjectOwner",
      "outputs": [],
      "payable": false,
      "stateMutability": "nonpayable",
      "type": "function"
    },
    {
      "constant": false,
      "inputs": [],
      "name": "renounceProjectOwner",
      "outputs": [],
      "payable": false,
      "stateMutability": "nonpayable",
      "type": "function"
    },
    {
      "constant": false,
      "inputs": [
        {
          "name": "account",
          "type": "address"
        }
      ],
      "name": "removeProjectOwner",
      "outputs": [],
      "payable": false,
      "stateMutability": "nonpayable",
      "type": "function"
    },
    {
      "constant": false,
      "inputs": [
        {
          "name": "price",
          "type": "uint256"
        }
      ],
      "name": "setParameters",
      "outputs": [],
      "payable": false,
      "stateMutability": "nonpayable",
      "type": "function"
    },
    {
      "constant": false,
      "inputs": [
        {
          "name": "parametersOfStages",
          "type": "uint256[6][]"
        },
        {
          "name": "bonusConditionsOfStages",
          "type": "uint256[]"
        },
        {
          "name": "parametersOfMilestones",
          "type": "uint256[4][]"
        },
        {
          "name": "nameAndDescriptionsOffsetOfMilestones",
          "type": "uint32[]"
        },
        {
          "name": "nameAndDescriptionsOfMilestones",
          "type": "bytes"
        },
        {
          "name": "paymentMethodsList",
          "type": "bytes32[]"
        }
      ],
      "name": "setup",
      "outputs": [],
      "payable": false,
      "stateMutability": "nonpayable",
      "type": "function"
    },
    {
      "constant": true,
      "inputs": [],
      "name": "getWToken",
      "outputs": [
        {
          "name": "",
          "type": "address"
        }
      ],
      "payable": false,
      "stateMutability": "view",
      "type": "function"
    },
    {
      "constant": false,
      "inputs": [
        {
          "name": "a",
          "type": "address"
        }
      ],
      "name": "_getWTokenMockData",
      "outputs": [],
      "payable": false,
      "stateMutability": "nonpayable",
      "type": "function"
    },
    {
      "constant": true,
      "inputs": [
        {
          "name": "index",
          "type": "uint256"
        }
      ],
      "name": "getMilestone",
      "outputs": [
        {
          "name": "",
          "type": "uint32"
        },
        {
          "name": "",
          "type": "uint256"
        },
        {
          "name": "",
          "type": "uint32"
        },
        {
          "name": "",
          "type": "uint32"
        },
        {
          "name": "",
          "type": "bytes"
        },
        {
          "name": "",
          "type": "bytes"
        }
      ],
      "payable": false,
      "stateMutability": "view",
      "type": "function"
    },
    {
      "constant": false,
      "inputs": [
        {
          "name": "idx",
          "type": "uint256"
        },
        {
          "name": "a",
          "type": "uint32"
        },
        {
          "name": "b",
          "type": "uint256"
        },
        {
          "name": "c",
          "type": "uint32"
        },
        {
          "name": "d",
          "type": "uint32"
        },
        {
          "name": "e",
          "type": "bytes"
        },
        {
          "name": "f",
          "type": "bytes"
        }
      ],
      "name": "_getMilestoneMockData",
      "outputs": [],
      "payable": false,
      "stateMutability": "nonpayable",
      "type": "function"
    },
    {
      "constant": true,
      "inputs": [
        {
          "name": "index",
          "type": "uint256"
        }
      ],
      "name": "getStage",
      "outputs": [
        {
          "name": "",
          "type": "uint32"
        },
        {
          "name": "",
          "type": "uint32"
        },
        {
          "name": "",
          "type": "uint256"
        },
        {
          "name": "",
          "type": "uint32"
        },
        {
          "name": "",
          "type": "uint256[]"
        },
        {
          "name": "",
          "type": "uint256[]"
        }
      ],
      "payable": false,
      "stateMutability": "view",
      "type": "function"
    },
    {
      "constant": true,
      "inputs": [],
      "name": "getCurrentMilestoneIndex",
      "outputs": [
        {
          "name": "",
          "type": "uint256"
        },
        {
          "name": "",
          "type": "bool"
        }
      ],
      "payable": false,
      "stateMutability": "view",
      "type": "function"
    },
    {
      "constant": false,
      "inputs": [
        {
          "name": "a",
          "type": "uint256"
        },
        {
          "name": "b",
          "type": "bool"
        }
      ],
      "name": "_getCurrentMilestoneIndexMockData",
      "outputs": [],
      "payable": false,
      "stateMutability": "nonpayable",
      "type": "function"
    },
    {
      "constant": true,
      "inputs": [],
      "name": "getLastMilestoneIndex",
      "outputs": [
        {
          "name": "index",
          "type": "uint256"
        },
        {
          "name": "found",
          "type": "bool"
        }
      ],
      "payable": false,
      "stateMutability": "view",
      "type": "function"
    },
    {
      "constant": false,
      "inputs": [
        {
          "name": "a",
          "type": "uint256"
        },
        {
          "name": "b",
          "type": "bool"
        }
      ],
      "name": "_getLastMilestoneIndexMockData",
      "outputs": [],
      "payable": false,
      "stateMutability": "nonpayable",
      "type": "function"
    },
    {
      "constant": true,
      "inputs": [],
      "name": "milestonesLength",
      "outputs": [
        {
          "name": "",
          "type": "uint256"
        }
      ],
      "payable": false,
      "stateMutability": "view",
      "type": "function"
    },
    {
      "constant": true,
      "inputs": [],
      "name": "getCurrentStageIndex",
      "outputs": [
        {
          "name": "index",
          "type": "uint256"
        },
        {
          "name": "found",
          "type": "bool"
        }
      ],
      "payable": false,
      "stateMutability": "view",
      "type": "function"
    },
    {
      "constant": true,
      "inputs": [
        {
          "name": "value",
          "type": "uint256"
        }
      ],
      "name": "getSaleVolumeBonus",
      "outputs": [
        {
          "name": "bonus",
          "type": "uint256"
        }
      ],
      "payable": false,
      "stateMutability": "view",
      "type": "function"
    },
    {
      "constant": true,
      "inputs": [],
      "name": "isEnded",
      "outputs": [
        {
          "name": "",
          "type": "bool"
        }
      ],
      "payable": false,
      "stateMutability": "view",
      "type": "function"
    },
    {
      "constant": true,
      "inputs": [],
      "name": "isSaleActive",
      "outputs": [
        {
          "name": "",
          "type": "bool"
        }
      ],
      "payable": false,
      "stateMutability": "view",
      "type": "function"
    },
    {
      "constant": false,
      "inputs": [
        {
          "name": "method",
          "type": "bytes32"
        },
        {
          "name": "amount",
          "type": "uint256"
        }
      ],
      "name": "buyTokens",
      "outputs": [],
      "payable": true,
      "stateMutability": "payable",
      "type": "function"
    }
  ],
  "bytecode": "0x608060405234801561001057600080fd5b50604051602080610bdc8339810160408181529151600081905560018054600160a060020a031916331790819055600160a060020a0316825291517f4101e71e974f68df5e9730cc223280b41654676bbb052cdcc735c3337e64d2d99181900360200190a1506001600255610b528061008a6000396000f3006080604052600436106101745763ffffffff7c010000000000000000000000000000000000000000000000000000000060003504166307f5d633811461017657806314f66d34146101845780631785f53c146101b2578063208853c9146101d35780632348238c146101fd5780632442e1cb1461021e57806324d7806c146103545780632e325020146103895780633baba4d71461047a5780633bcdb164146101b25780634090cb641461048f57806354fd4d50146104c0578063564566a8146104d557806370480275146101b2578063770bd647146104ea578063820a3435146105075780638bad0c0a146105525780638edd6eb614610567578063a4fd6f56146104d5578063c6dbdf611461057c578063d0934d6114610552578063d119d6cd14610591578063d155790b146101b2578063d5b22623146105b2578063d6d65f3d1461060e578063d8e9ce6414610354578063daa4cf8814610623578063e93b054014610638578063f77e086814610650575b005b61017460043560243561066d565b34801561019057600080fd5b50610199610671565b6040805192835290151560208301528051918290030190f35b3480156101be57600080fd5b50610174600160a060020a036004351661067e565b3480156101df57600080fd5b506101eb600435610681565b60408051918252519081900360200190f35b34801561020957600080fd5b50610174600160a060020a0360043516610687565b34801561022a57600080fd5b5061023660043561071a565b604051808763ffffffff1663ffffffff1681526020018681526020018563ffffffff1663ffffffff1681526020018463ffffffff1663ffffffff1681526020018060200180602001838103835285818151815260200191508051906020019080838360005b838110156102b357818101518382015260200161029b565b50505050905090810190601f1680156102e05780820380516001836020036101000a031916815260200191505b50838103825284518152845160209182019186019080838360005b838110156103135781810151838201526020016102fb565b50505050905090810190601f1680156103405780820380516001836020036101000a031916815260200191505b509850505050505050505060405180910390f35b34801561036057600080fd5b50610375600160a060020a0360043516610681565b604080519115158252519081900360200190f35b34801561039557600080fd5b506103a1600435610894565b604051808763ffffffff1663ffffffff1681526020018663ffffffff1663ffffffff1681526020018581526020018463ffffffff1663ffffffff1681526020018060200180602001838103835285818151815260200191508051906020019060200280838360005b83811015610421578181015183820152602001610409565b50505050905001838103825284818151815260200191508051906020019060200280838360005b83811015610460578181015183820152602001610448565b505050509050019850505050505050505060405180910390f35b34801561048657600080fd5b506101eb6108a6565b34801561049b57600080fd5b506104a46108ab565b60408051600160a060020a039092168252519081900360200190f35b3480156104cc57600080fd5b506101eb6108bb565b3480156104e157600080fd5b506103756108a6565b3480156104f657600080fd5b5061017460043560243515156108c1565b34801561051357600080fd5b5061017460048035906024803563ffffffff9081169260443592606435831692608435169160a43580830192908201359160c4359182019101356108da565b34801561055e57600080fd5b50610174610a21565b34801561057357600080fd5b506104a46108a6565b34801561058857600080fd5b506104a4610a23565b34801561059d57600080fd5b50610174600160a060020a0360043516610a32565b3480156105be57600080fd5b50610174602460048035828101929082013591813580830192908201359160443580830192908201359160643580830192908201359160843580830192908201359160a435918201910135610a13565b34801561061a57600080fd5b50610199610a61565b34801561062f57600080fd5b50610199610a6e565b34801561064457600080fd5b5061017460043561067e565b34801561065c57600080fd5b506101746004356024351515610a75565b5050565b60055460065460ff169091565b50565b50600090565b600154600160a060020a0316331461069e57600080fd5b600160a060020a03811615156106b357600080fd5b6001805473ffffffffffffffffffffffffffffffffffffffff1916600160a060020a03838116919091179182905560408051929091168252517f4101e71e974f68df5e9730cc223280b41654676bbb052cdcc735c3337e64d2d9916020908290030190a150565b600081815260076020908152604080832080546001808301546002808501546003860180548851601f60001997831615610100029790970190911693909304948501899004890283018901909752838252889788978897606097889763ffffffff9182169796868316966401000000009004909216946004909301928491908301828280156107ea5780601f106107bf576101008083540402835291602001916107ea565b820191906000526020600020905b8154815290600101906020018083116107cd57829003601f168201915b5050845460408051602060026001851615610100026000190190941693909304601f8101849004840282018401909252818152959750869450925084019050828280156108785780601f1061084d57610100808354040283529160200191610878565b820191906000526020600020905b81548152906001019060200180831161085b57829003601f168201915b5050505050905095509550955095509550955091939550919395565b60008060008060608091939550919395565b600090565b600854600160a060020a03165b90565b60005481565b6003919091556004805460ff1916911515919091179055565b60c0604051908101604052808963ffffffff1681526020018881526020018763ffffffff1681526020018663ffffffff16815260200185858080601f016020809104026020016040519081016040528093929190818152602001838380828437820191505050505050815260200183838080601f0160208091040260200160405190810160405280939291908181526020018383808284375050509290935250505060008a8152600760209081526040918290208351815463ffffffff91821663ffffffff1991821617835585840151600184015593850151600283018054606088015184166401000000000267ffffffff0000000019939094169616959095171617909255608083015180516109f79260038501920190610a8e565b5060a08201518051610a13916004840191602090910190610a8e565b505050505050505050505050565b565b600154600160a060020a031690565b6008805473ffffffffffffffffffffffffffffffffffffffff1916600160a060020a0392909216919091179055565b60035460045460ff169091565b6000809091565b6005919091556006805460ff1916911515919091179055565b828054600181600116156101000203166002900490600052602060002090601f016020900481019282601f10610acf57805160ff1916838001178555610afc565b82800160010185558215610afc579182015b82811115610afc578251825591602001919060010190610ae1565b50610b08929150610b0c565b5090565b6108b891905b80821115610b085760008155600101610b125600a165627a7a72305820c3d8ef58d44cd40cbf322dadb657151850894858ec1a33170fb1642187206a9b0029",
  "source": "pragma solidity ^0.4.24;\n\nimport \"openzeppelin-solidity/contracts/ownership/Secondary.sol\";\nimport \"openzeppelin-solidity/contracts/utils/ReentrancyGuard.sol\";\nimport \"openzeppelin-solidity/contracts/math/SafeMath.sol\";\nimport \"solidity-bytes-utils/contracts/BytesLib.sol\";\nimport \"../../crowdsale/IW12Crowdsale.sol\";\nimport \"../../crowdsale/IW12Fund.sol\";\nimport \"../../token/IWToken.sol\";\nimport \"../../libs/Percent.sol\";\nimport \"../../versioning/Versionable.sol\";\n\ncontract W12FundCrowdsaleStub is Versionable, IW12Crowdsale, Secondary, ReentrancyGuard {\n    uint _currentMilestoneIndex;\n    bool _currentMilestoneIndexFound;\n    uint _lastMilestoneIndex;\n    bool _lastMilestoneIndexFound;\n    mapping (uint => Milestone) _currentMilestones;\n    IWToken _wtoken;\n\n    struct Milestone {\n        uint32 endDate;\n        uint tranchePercent;\n        uint32 voteEndDate;\n        uint32 withdrawalWindow;\n        bytes name;\n        bytes description;\n    }\n\n    constructor(uint version) Versionable(version) public {}\n\n    function getFund() external view returns (IW12Fund) {}\n\n    function isAdmin(address account) public view returns (bool) {}\n\n    function addAdmin(address account) public {}\n\n    function renounceAdmin() public {}\n\n    function removeAdmin(address account) public {}\n\n    function isProjectOwner(address account) public view returns (bool) {}\n\n    function addProjectOwner(address account) public {}\n\n    function renounceProjectOwner() public {}\n\n    function removeProjectOwner(address account) public {}\n\n    function setParameters(uint price) external {}\n\n    function setup(\n        uint[6][] parametersOfStages,\n        uint[] bonusConditionsOfStages,\n        uint[4][] parametersOfMilestones,\n        uint32[] nameAndDescriptionsOffsetOfMilestones,\n        bytes nameAndDescriptionsOfMilestones,\n        bytes32[] paymentMethodsList\n    ) external {}\n\n    function getWToken() external view returns (IWToken) {\n        return _wtoken;\n    }\n\n    function _getWTokenMockData(IWToken a) external {\n        _wtoken = a;\n    }\n\n    function getMilestone(uint index) public view returns (uint32, uint, uint32, uint32, bytes, bytes) {\n        return (\n            _currentMilestones[index].endDate,\n            _currentMilestones[index].tranchePercent,\n            _currentMilestones[index].voteEndDate,\n            _currentMilestones[index].withdrawalWindow,\n            _currentMilestones[index].name,\n            _currentMilestones[index].description\n        );\n    }\n\n    function _getMilestoneMockData(uint idx, uint32 a, uint b, uint32 c, uint32 d, bytes e, bytes f) external {\n        _currentMilestones[idx] = Milestone({\n            endDate: a,\n            tranchePercent: b,\n            voteEndDate: c,\n            withdrawalWindow: d,\n            name: e,\n            description: f\n        });\n    }\n\n    function getStage(uint index) public view returns (uint32, uint32, uint, uint32, uint[], uint[]) {}\n\n    function getCurrentMilestoneIndex() public view returns (uint, bool) {\n        return (_currentMilestoneIndex, _currentMilestoneIndexFound);\n    }\n\n    function _getCurrentMilestoneIndexMockData(uint a, bool b) public {\n        _currentMilestoneIndex = a;\n        _currentMilestoneIndexFound = b;\n    }\n\n    function getLastMilestoneIndex() public view returns (uint index, bool found) {\n        return (_lastMilestoneIndex, _lastMilestoneIndexFound);\n    }\n\n    function _getLastMilestoneIndexMockData(uint a, bool b) public {\n        _lastMilestoneIndex = a;\n        _lastMilestoneIndexFound = b;\n    }\n\n    function milestonesLength() external view returns (uint) {}\n\n    function getCurrentStageIndex() public view returns (uint index, bool found) {}\n\n    function getSaleVolumeBonus(uint value) public view returns (uint bonus) {}\n\n    function isEnded() public view returns (bool) {}\n\n    function isSaleActive() public view returns (bool) {}\n\n    function() payable external {}\n\n    function buyTokens(bytes32 method, uint amount) payable public {}\n}\n",
  "sourcePath": "/home/circleci/code/contracts/mocks/crowdsale/W12FundCrowdsaleStub.sol",
  "compiler": {
    "name": "solc",
    "version": "0.4.24+commit.e67f0147.Emscripten.clang"
  },
  "schemaVersion": "2.0.1",
  "updatedAt": "2018-12-06T13:14:33.200Z"
}