{
  "contractName": "W12Fund",
  "abi": [
    {
      "constant": true,
      "inputs": [],
      "name": "wToken",
      "outputs": [
        {
          "name": "",
          "type": "address"
        }
      ],
      "payable": false,
      "stateMutability": "view",
      "type": "function"
    },
    {
      "constant": true,
      "inputs": [],
      "name": "totalTranchePercentReleased",
      "outputs": [
        {
          "name": "",
          "type": "uint256"
        }
      ],
      "payable": false,
      "stateMutability": "view",
      "type": "function"
    },
    {
      "constant": true,
      "inputs": [
        {
          "name": "",
          "type": "uint256"
        }
      ],
      "name": "completedTranches",
      "outputs": [
        {
          "name": "",
          "type": "bool"
        }
      ],
      "payable": false,
      "stateMutability": "view",
      "type": "function"
    },
    {
      "constant": true,
      "inputs": [],
      "name": "rates",
      "outputs": [
        {
          "name": "",
          "type": "address"
        }
      ],
      "payable": false,
      "stateMutability": "view",
      "type": "function"
    },
    {
      "constant": true,
      "inputs": [],
      "name": "version",
      "outputs": [
        {
          "name": "",
          "type": "uint256"
        }
      ],
      "payable": false,
      "stateMutability": "view",
      "type": "function"
    },
    {
      "constant": true,
      "inputs": [],
      "name": "serviceWallet",
      "outputs": [
        {
          "name": "",
          "type": "address"
        }
      ],
      "payable": false,
      "stateMutability": "view",
      "type": "function"
    },
    {
      "constant": false,
      "inputs": [],
      "name": "renounceOwnership",
      "outputs": [],
      "payable": false,
      "stateMutability": "nonpayable",
      "type": "function"
    },
    {
      "constant": true,
      "inputs": [],
      "name": "swap",
      "outputs": [
        {
          "name": "",
          "type": "address"
        }
      ],
      "payable": false,
      "stateMutability": "view",
      "type": "function"
    },
    {
      "constant": true,
      "inputs": [],
      "name": "owner",
      "outputs": [
        {
          "name": "",
          "type": "address"
        }
      ],
      "payable": false,
      "stateMutability": "view",
      "type": "function"
    },
    {
      "constant": true,
      "inputs": [],
      "name": "crowdsale",
      "outputs": [
        {
          "name": "",
          "type": "address"
        }
      ],
      "payable": false,
      "stateMutability": "view",
      "type": "function"
    },
    {
      "constant": true,
      "inputs": [],
      "name": "trancheFeePercent",
      "outputs": [
        {
          "name": "",
          "type": "uint256"
        }
      ],
      "payable": false,
      "stateMutability": "view",
      "type": "function"
    },
    {
      "constant": true,
      "inputs": [],
      "name": "totalTokenBought",
      "outputs": [
        {
          "name": "",
          "type": "uint256"
        }
      ],
      "payable": false,
      "stateMutability": "view",
      "type": "function"
    },
    {
      "constant": false,
      "inputs": [
        {
          "name": "_newOwner",
          "type": "address"
        }
      ],
      "name": "transferOwnership",
      "outputs": [],
      "payable": false,
      "stateMutability": "nonpayable",
      "type": "function"
    },
    {
      "constant": true,
      "inputs": [],
      "name": "totalTokenRefunded",
      "outputs": [
        {
          "name": "",
          "type": "uint256"
        }
      ],
      "payable": false,
      "stateMutability": "view",
      "type": "function"
    },
    {
      "inputs": [
        {
          "name": "version",
          "type": "uint256"
        },
        {
          "name": "_trancheFeePercent",
          "type": "uint256"
        },
        {
          "name": "_rates",
          "type": "address"
        }
      ],
      "payable": false,
      "stateMutability": "nonpayable",
      "type": "constructor"
    },
    {
      "anonymous": false,
      "inputs": [
        {
          "indexed": true,
          "name": "investor",
          "type": "address"
        },
        {
          "indexed": false,
          "name": "tokenAmount",
          "type": "uint256"
        },
        {
          "indexed": false,
          "name": "symbol",
          "type": "bytes32"
        },
        {
          "indexed": false,
          "name": "cost",
          "type": "uint256"
        }
      ],
      "name": "FundsReceived",
      "type": "event"
    },
    {
      "anonymous": false,
      "inputs": [
        {
          "indexed": true,
          "name": "investor",
          "type": "address"
        },
        {
          "indexed": false,
          "name": "symbol",
          "type": "bytes32"
        },
        {
          "indexed": false,
          "name": "amount",
          "type": "uint256"
        }
      ],
      "name": "AssetRefunded",
      "type": "event"
    },
    {
      "anonymous": false,
      "inputs": [
        {
          "indexed": true,
          "name": "investor",
          "type": "address"
        },
        {
          "indexed": false,
          "name": "tokenAmount",
          "type": "uint256"
        }
      ],
      "name": "TokenRefunded",
      "type": "event"
    },
    {
      "anonymous": false,
      "inputs": [
        {
          "indexed": true,
          "name": "receiver",
          "type": "address"
        },
        {
          "indexed": false,
          "name": "symbol",
          "type": "bytes32"
        },
        {
          "indexed": false,
          "name": "amount",
          "type": "uint256"
        }
      ],
      "name": "TrancheTransferred",
      "type": "event"
    },
    {
      "anonymous": false,
      "inputs": [
        {
          "indexed": true,
          "name": "receiver",
          "type": "address"
        },
        {
          "indexed": false,
          "name": "percent",
          "type": "uint256"
        }
      ],
      "name": "TrancheReleased",
      "type": "event"
    },
    {
      "anonymous": false,
      "inputs": [
        {
          "indexed": true,
          "name": "previousOwner",
          "type": "address"
        }
      ],
      "name": "OwnershipRenounced",
      "type": "event"
    },
    {
      "anonymous": false,
      "inputs": [
        {
          "indexed": true,
          "name": "previousOwner",
          "type": "address"
        },
        {
          "indexed": true,
          "name": "newOwner",
          "type": "address"
        }
      ],
      "name": "OwnershipTransferred",
      "type": "event"
    },
    {
      "constant": false,
      "inputs": [
        {
          "name": "_crowdsale",
          "type": "address"
        }
      ],
      "name": "setCrowdsale",
      "outputs": [],
      "payable": false,
      "stateMutability": "nonpayable",
      "type": "function"
    },
    {
      "constant": false,
      "inputs": [
        {
          "name": "_swap",
          "type": "address"
        }
      ],
      "name": "setSwap",
      "outputs": [],
      "payable": false,
      "stateMutability": "nonpayable",
      "type": "function"
    },
    {
      "constant": false,
      "inputs": [
        {
          "name": "_serviceWallet",
          "type": "address"
        }
      ],
      "name": "setServiceWallet",
      "outputs": [],
      "payable": false,
      "stateMutability": "nonpayable",
      "type": "function"
    },
    {
      "constant": false,
      "inputs": [
        {
          "name": "investor",
          "type": "address"
        },
        {
          "name": "tokenAmount",
          "type": "uint256"
        },
        {
          "name": "symbol",
          "type": "bytes32"
        },
        {
          "name": "cost",
          "type": "uint256"
        },
        {
          "name": "costUSD",
          "type": "uint256"
        }
      ],
      "name": "recordPurchase",
      "outputs": [],
      "payable": true,
      "stateMutability": "payable",
      "type": "function"
    },
    {
      "constant": true,
      "inputs": [
        {
          "name": "_investor",
          "type": "address"
        },
        {
          "name": "_symbol",
          "type": "bytes32"
        }
      ],
      "name": "getInvestorFundedAmount",
      "outputs": [
        {
          "name": "",
          "type": "uint256"
        }
      ],
      "payable": false,
      "stateMutability": "view",
      "type": "function"
    },
    {
      "constant": true,
      "inputs": [
        {
          "name": "_investor",
          "type": "address"
        }
      ],
      "name": "getInvestorFundedAssetsSymbols",
      "outputs": [
        {
          "name": "",
          "type": "bytes32[]"
        }
      ],
      "payable": false,
      "stateMutability": "view",
      "type": "function"
    },
    {
      "constant": true,
      "inputs": [
        {
          "name": "_investor",
          "type": "address"
        }
      ],
      "name": "getInvestorTokenBoughtAmount",
      "outputs": [
        {
          "name": "",
          "type": "uint256"
        }
      ],
      "payable": false,
      "stateMutability": "view",
      "type": "function"
    },
    {
      "constant": true,
      "inputs": [
        {
          "name": "_symbol",
          "type": "bytes32"
        }
      ],
      "name": "getTotalFundedAmount",
      "outputs": [
        {
          "name": "",
          "type": "uint256"
        }
      ],
      "payable": false,
      "stateMutability": "view",
      "type": "function"
    },
    {
      "constant": true,
      "inputs": [],
      "name": "getTotalFundedAssetsSymbols",
      "outputs": [
        {
          "name": "",
          "type": "bytes32[]"
        }
      ],
      "payable": false,
      "stateMutability": "view",
      "type": "function"
    },
    {
      "constant": true,
      "inputs": [
        {
          "name": "_symbol",
          "type": "bytes32"
        }
      ],
      "name": "getTotalFundedReleased",
      "outputs": [
        {
          "name": "",
          "type": "uint256"
        }
      ],
      "payable": false,
      "stateMutability": "view",
      "type": "function"
    },
    {
      "constant": true,
      "inputs": [],
      "name": "getTrancheInvoice",
      "outputs": [
        {
          "name": "result",
          "type": "uint256[3]"
        }
      ],
      "payable": false,
      "stateMutability": "view",
      "type": "function"
    },
    {
      "constant": false,
      "inputs": [],
      "name": "tranche",
      "outputs": [],
      "payable": false,
      "stateMutability": "nonpayable",
      "type": "function"
    },
    {
      "constant": false,
      "inputs": [
        {
          "name": "tokenAmount",
          "type": "uint256"
        }
      ],
      "name": "refund",
      "outputs": [],
      "payable": false,
      "stateMutability": "nonpayable",
      "type": "function"
    },
    {
      "constant": true,
      "inputs": [],
      "name": "tokenRefundAllowed",
      "outputs": [
        {
          "name": "",
          "type": "bool"
        }
      ],
      "payable": false,
      "stateMutability": "view",
      "type": "function"
    },
    {
      "constant": true,
      "inputs": [],
      "name": "trancheTransferAllowed",
      "outputs": [
        {
          "name": "",
          "type": "bool"
        }
      ],
      "payable": false,
      "stateMutability": "view",
      "type": "function"
    },
    {
      "constant": true,
      "inputs": [],
      "name": "isWithdrawalWindowActive",
      "outputs": [
        {
          "name": "",
          "type": "bool"
        }
      ],
      "payable": false,
      "stateMutability": "view",
      "type": "function"
    }
  ],
  "bytecode": "0x608060405260016002553480156200001657600080fd5b5060405160608062003206833981016040908152815160208301519190920151600083905560018054600160a060020a03191633179055620000668264010000000062002fad620000d982021704565b80156200008b57506064620000898364010000000062002fd26200011682021704565b105b15156200009757600080fd5b600160a060020a0381161515620000ad57600080fd5b60089190915560058054600160a060020a031916600160a060020a0390921691909117905550620001c2565b6000620000ee64010000000062000168810204565b82101580156200011057506200010c6401000000006200016d810204565b8211155b92915050565b60006200012c82640100000000620000d9810204565b15156200013857600080fd5b620001106200014f6401000000006200018a810204565b8390600a0a64010000000062002f0e6200018f82021704565b600090565b600062000182640100000000620001a5810204565b600a0a905090565b600290565b600081838115156200019d57fe5b049392505050565b6000620001ba6401000000006200018a810204565b600201905090565b61303480620001d26000396000f3006080604052600436106101665763ffffffff60e060020a600035041663015dd28c811461016b5780630babd864146101d057806319ae48ed1461020157806323585f961461022857806323bffccc14610254578063278ecde11461027757806343f48fbd1461028f578063483a20b2146102a457806354fd4d50146102c55780635641f3c3146102da5780636b90d6d2146102ef5780636ebc0af114610304578063715018a6146103195780637a1c2da31461032e5780638119c065146103465780638429fffe1461035b5780638da5cb5b146103705780639124a789146103855780639ab269a6146103a65780639c1e03a0146103be5780639e80baac146103d3578063a328665a146103e8578063a3b768e1146103fd578063acb3c0731461044a578063adb9dd081461046b578063b4105a3e1461048c578063d0baf2f5146104a1578063f206cb64146104c1578063f2fde38b146104e5578063fb2814c414610506575b600080fd5b34801561017757600080fd5b5061018061051b565b60408051602080825283518183015283519192839290830191858101910280838360005b838110156101bc5781810151838201526020016101a4565b505050509050019250505060405180910390f35b3480156101dc57600080fd5b506101e5610602565b60408051600160a060020a039092168252519081900360200190f35b34801561020d57600080fd5b50610216610611565b60408051918252519081900360200190f35b34801561023457600080fd5b50610240600435610617565b604080519115158252519081900360200190f35b34801561026057600080fd5b50610275600160a060020a036004351661062c565b005b34801561028357600080fd5b50610275600435610687565b34801561029b57600080fd5b506101e5610943565b3480156102b057600080fd5b50610275600160a060020a0360043516610952565b3480156102d157600080fd5b50610216610ade565b3480156102e657600080fd5b506101e5610ae4565b3480156102fb57600080fd5b50610240610af3565b34801561031057600080fd5b50610275610d08565b34801561032557600080fd5b50610275610ec8565b34801561033a57600080fd5b50610216600435610f36565b34801561035257600080fd5b506101e5610f48565b34801561036757600080fd5b50610240610f57565b34801561037c57600080fd5b506101e5611170565b34801561039157600080fd5b50610216600160a060020a036004351661117f565b3480156103b257600080fd5b5061021660043561119a565b3480156103ca57600080fd5b506101e56111b3565b3480156103df57600080fd5b506102406111c2565b3480156103f457600080fd5b50610216611275565b34801561040957600080fd5b5061041261127b565b6040518082606080838360005b8381101561043757818101518382015260200161041f565b5050505090500191505060405180910390f35b34801561045657600080fd5b50610275600160a060020a036004351661184f565b34801561047757600080fd5b50610180600160a060020a03600435166118aa565b34801561049857600080fd5b506102166119a7565b610275600160a060020a03600435166024356044356064356084356119ad565b3480156104cd57600080fd5b50610216600160a060020a0360043516602435611da9565b3480156104f157600080fd5b50610275600160a060020a0360043516611dd8565b34801561051257600080fd5b50610216611dfb565b6060600b73__FundAccount___________________________6320e1e1d190916040518263ffffffff1660e060020a0281526004018082815260200191505060006040518083038186803b15801561057257600080fd5b505af4158015610586573d6000803e3d6000fd5b505050506040513d6000823e601f3d908101601f1916820160405260208110156105af57600080fd5b8101908080516401000000008111156105c757600080fd5b820160208101848111156105da57600080fd5b81518560208202830111640100000000821117156105f757600080fd5b509094505050505090565b600454600160a060020a031681565b60095481565b600a6020526000908152604090205460ff1681565b600154600160a060020a0316331461064357600080fd5b600160a060020a038116151561065857600080fd5b6007805473ffffffffffffffffffffffffffffffffffffffff1916600160a060020a0392909216919091179055565b60025460011461069657600080fd5b600280556106a2610af3565b15156106ad57600080fd5b8015156106b957600080fd5b336000908152601160205260409020548111156106d557600080fd5b600480546040805160e060020a6370a082310281523393810193909352518392600160a060020a03909216916370a082319160248083019260209291908290030181600087803b15801561072857600080fd5b505af115801561073c573d6000803e3d6000fd5b505050506040513d602081101561075257600080fd5b5051101561075f57600080fd5b60048054604080517fdd62ed3e0000000000000000000000000000000000000000000000000000000081523393810193909352306024840152518392600160a060020a039092169163dd62ed3e9160448083019260209291908290030181600087803b1580156107ce57600080fd5b505af11580156107e2573d6000803e3d6000fd5b505050506040513d60208110156107f857600080fd5b5051101561080557600080fd5b61080e81611e01565b601054610821908263ffffffff61249916565b60105533600090815260116020526040902054610844908263ffffffff6124a616565b336000818152601160209081526040808320949094556004805460065486517f23b872dd00000000000000000000000000000000000000000000000000000000815292830195909552600160a060020a03948516602483015260448201879052945194909316936323b872dd93606480820194918390030190829087803b1580156108ce57600080fd5b505af11580156108e2573d6000803e3d6000fd5b505050506040513d60208110156108f857600080fd5b5051151561090557600080fd5b60408051828152905133917fb7feb6c1d7169f40790388a31c0160d8f962a2b6c31970c28bd8cdfefa25ea29919081900360200190a2506001600255565b600554600160a060020a031681565b600154600160a060020a0316331461096957600080fd5b600160a060020a038116151561097e57600080fd5b6000600160a060020a031681600160a060020a0316634090cb646040518163ffffffff1660e060020a028152600401602060405180830381600087803b1580156109c757600080fd5b505af11580156109db573d6000803e3d6000fd5b505050506040513d60208110156109f157600080fd5b5051600160a060020a03161415610a0757600080fd5b6003805473ffffffffffffffffffffffffffffffffffffffff1916600160a060020a038316908117909155604080517f4090cb640000000000000000000000000000000000000000000000000000000081529051634090cb64916004808201926020929091908290030181600087803b158015610a8357600080fd5b505af1158015610a97573d6000803e3d6000fd5b505050506040513d6020811015610aad57600080fd5b50516004805473ffffffffffffffffffffffffffffffffffffffff1916600160a060020a0390921691909117905550565b60005481565b600754600160a060020a031681565b600354604080517fd6d65f3d00000000000000000000000000000000000000000000000000000000815281516000938493849384938493600160a060020a03169263d6d65f3d926004808201939182900301818787803b158015610b5657600080fd5b505af1158015610b6a573d6000803e3d6000fd5b505050506040513d6040811015610b8057600080fd5b5080516020909101519094509250831515610b9a57610d01565b6003546040805160e060020a632442e1cb028152600481018790529051600160a060020a0390921691632442e1cb9160248082019260009290919082900301818387803b158015610bea57600080fd5b505af1158015610bfe573d6000803e3d6000fd5b505050506040513d6000823e601f3d908101601f1916820160405260c0811015610c2757600080fd5b815160208301516040840151606085015160808601805194969395929491939283019291640100000000811115610c5d57600080fd5b82016020810184811115610c7057600080fd5b8151640100000000811182820187101715610c8a57600080fd5b50509291906020018051640100000000811115610ca657600080fd5b82016020810184811115610cb957600080fd5b8151640100000000811182820187101715610cd357600080fd5b50509291905050505050935050509150428263ffffffff1611158015610cfe57508063ffffffff1642105b94505b5050505090565b610d10612f8e565b600154600160a060020a03163314610d2757600080fd5b600254600114610d3657600080fd5b60028055610d426111c2565b1515610d4d57600080fd5b610d5561127b565b8051909150600010610d6657600080fd5b6040805160e060020a6320e1e1d1028152600b6004820152905173__FundAccount___________________________916320e1e1d1916024808301926000929190829003018186803b158015610dbb57600080fd5b505af4158015610dcf573d6000803e3d6000fd5b505050506040513d6000823e601f3d908101601f191682016040526020811015610df857600080fd5b810190808051640100000000811115610e1057600080fd5b82016020810184811115610e2357600080fd5b8151856020820283011164010000000082111715610e4057600080fd5b50505115159250610e5391505057600080fd5b6040818101516000908152600a60205220805460ff191660011790558051600954610e7d91612499565b600955610e89816124b8565b8051604080519182525133917f4a966617f50ccad97beb624d8e13820bf2a745e1640fed943858499286fc9829919081900360200190a2506001600255565b600154600160a060020a03163314610edf57600080fd5b600154604051600160a060020a03909116907ff8df31144d9c2f0f6b59d69b8b98abd5459d07f2742c4df920b25aae33c6482090600090a26001805473ffffffffffffffffffffffffffffffffffffffff19169055565b6000908152600e602052604090205490565b600654600160a060020a031681565b600354604080517fd6d65f3d00000000000000000000000000000000000000000000000000000000815281516000938493849384938493600160a060020a03169263d6d65f3d926004808201939182900301818787803b158015610fba57600080fd5b505af1158015610fce573d6000803e3d6000fd5b505050506040513d6040811015610fe457600080fd5b5080516020909101519094509250831580610ffd575082155b1561100757610d01565b6003546040805160e060020a632442e1cb028152600481018790529051600160a060020a0390921691632442e1cb9160248082019260009290919082900301818387803b15801561105757600080fd5b505af115801561106b573d6000803e3d6000fd5b505050506040513d6000823e601f3d908101601f1916820160405260c081101561109457600080fd5b8151602083015160408401516060850151608086018051949693959294919392830192916401000000008111156110ca57600080fd5b820160208101848111156110dd57600080fd5b81516401000000008111828201871017156110f757600080fd5b5050929190602001805164010000000081111561111357600080fd5b8201602081018481111561112657600080fd5b815164010000000081118282018710171561114057600080fd5b50509291905050505050935050509150428263ffffffff161180610cfe575063ffffffff16421015949350505050565b600154600160a060020a031681565b600160a060020a031660009081526011602052604090205490565b60006111ad600b8363ffffffff612c7016565b92915050565b600354600160a060020a031681565b6000806000600360009054906101000a9004600160a060020a0316600160a060020a031663d6d65f3d6040518163ffffffff1660e060020a0281526004016040805180830381600087803b15801561121957600080fd5b505af115801561122d573d6000803e3d6000fd5b505050506040513d604081101561124357600080fd5b508051602090910151909250905080151561125d57611270565b81158061126d575061126d610f57565b92505b505090565b60085481565b611283612f8e565b60008060008060008060008060006112996111c2565b15156112a457611843565b600354604080517fd6d65f3d0000000000000000000000000000000000000000000000000000000081528151600160a060020a039093169263d6d65f3d926004808401939192918290030181600087803b15801561130157600080fd5b505af1158015611315573d6000803e3d6000fd5b505050506040513d604081101561132b57600080fd5b5051600354604080517f14f66d340000000000000000000000000000000000000000000000000000000081528151939c50600160a060020a03909216926314f66d349260048082019392918290030181600087803b15801561138c57600080fd5b505af11580156113a0573d6000803e3d6000fd5b505050506040513d60408110156113b657600080fd5b50516003546040805160e060020a632442e1cb028152600481018490529051929a50600160a060020a0390911691632442e1cb9160248082019260009290919082900301818387803b15801561140b57600080fd5b505af115801561141f573d6000803e3d6000fd5b505050506040513d6000823e601f3d908101601f1916820160405260c081101561144857600080fd5b81516020830151604084015160608501516080860180519496939592949193928301929164010000000081111561147e57600080fd5b8201602081018481111561149157600080fd5b81516401000000008111828201871017156114ab57600080fd5b505092919060200180516401000000008111156114c757600080fd5b820160208101848111156114da57600080fd5b81516401000000008111828201871017156114f457600080fd5b505092919050505050509950505050886000148061151157508888145b61151e5760018903611520565b885b6003546040805160e060020a632442e1cb028152600481018490529051929b50600160a060020a0390911691632442e1cb9160248082019260009290919082900301818387803b15801561157357600080fd5b505af1158015611587573d6000803e3d6000fd5b505050506040513d6000823e601f3d908101601f1916820160405260c08110156115b057600080fd5b8151602083015160408401516060850151608086018051949693959294919392830192916401000000008111156115e657600080fd5b820160208101848111156115f957600080fd5b815164010000000081118282018710171561161357600080fd5b5050929190602001805164010000000081111561162f57600080fd5b8201602081018481111561164257600080fd5b815164010000000081118282018710171561165c57600080fd5b50509291905050505050975050965050600a60008a815260200190815260200160002060009054906101000a900460ff169350831561169a57611843565b8892505b600083111561180f576003546040805160e060020a632442e1cb0281526000199095016004860181905290519094600160a060020a0390921691632442e1cb91602480830192600092919082900301818387803b1580156116fe57600080fd5b505af1158015611712573d6000803e3d6000fd5b505050506040513d6000823e601f3d908101601f1916820160405260c081101561173b57600080fd5b81516020830151604084015160608501516080860180519496939592949193928301929164010000000081111561177157600080fd5b8201602081018481111561178457600080fd5b815164010000000081118282018710171561179e57600080fd5b505092919060200180516401000000008111156117ba57600080fd5b820160208101848111156117cd57600080fd5b81516401000000008111828201871017156117e757600080fd5b5097995061180898508a97508996505063ffffffff61249916945050505050565b915061169e565b60095461183290611826888563ffffffff61249916565b9063ffffffff6124a616565b8a5260208a0182905260408a018990525b50505050505050505090565b600154600160a060020a0316331461186657600080fd5b600160a060020a038116151561187b57600080fd5b6006805473ffffffffffffffffffffffffffffffffffffffff1916600160a060020a0392909216919091179055565b600160a060020a038116600090815260126020526040808220815160e060020a6320e1e1d10281526004810191909152905160609273__FundAccount___________________________926320e1e1d19260248083019392829003018186803b15801561191657600080fd5b505af415801561192a573d6000803e3d6000fd5b505050506040513d6000823e601f3d908101601f19168201604052602081101561195357600080fd5b81019080805164010000000081111561196b57600080fd5b8201602081018481111561197e57600080fd5b815185602082028301116401000000008211171561199b57600080fd5b50909695505050505050565b600f5481565b600354600160a060020a03163381146119c557600080fd5b600085116119d257600080fd5b600083116119df57600080fd5b600082116119ec57600080fd5b600160a060020a0386161515611a0157600080fd5b600554604080517f7d20abf8000000000000000000000000000000000000000000000000000000008152600481018790529051600160a060020a0390921691637d20abf8916024808201926020929091908290030181600087803b158015611a6857600080fd5b505af1158015611a7c573d6000803e3d6000fd5b505050506040513d6020811015611a9257600080fd5b50511515611a9f57600080fd5b60eb60020a6208aa8902841415611ac25734831115611abd57600080fd5b611c82565b600554604080517fcfec719f000000000000000000000000000000000000000000000000000000008152600481018790529051600160a060020a039092169163cfec719f916024808201926020929091908290030181600087803b158015611b2957600080fd5b505af1158015611b3d573d6000803e3d6000fd5b505050506040513d6020811015611b5357600080fd5b50511515611b6057600080fd5b611b8183611b75600b8763ffffffff612c7016565b9063ffffffff61249916565b6005546040805160e460020a630b12e441028152600481018890529051600160a060020a039092169163b12e4410916024808201926020929091908290030181600087803b158015611bd257600080fd5b505af1158015611be6573d6000803e3d6000fd5b505050506040513d6020811015611bfc57600080fd5b50516040805160e060020a6370a082310281523060048201529051600160a060020a03909216916370a08231916024808201926020929091908290030181600087803b158015611c4b57600080fd5b505af1158015611c5f573d6000803e3d6000fd5b505050506040513d6020811015611c7557600080fd5b50511015611c8257600080fd5b600160a060020a038616600090815260116020526040902054611cab908663ffffffff61249916565b600160a060020a0387166000908152601160209081526040808320939093556012905220611ce090858563ffffffff612c8616565b600160a060020a0386166000908152601260205260409020611d129060ea60020a621554d1028463ffffffff612c8616565b600f54611d25908663ffffffff61249916565b600f55611d3a600b858563ffffffff612c8616565b611d55600b60ea60020a621554d1028463ffffffff612c8616565b60408051868152602081018690528082018590529051600160a060020a038816917fe2d0f4d539cb385db666a31aa9b27fd786afc933dc82ca8518d045424d6fa882919081900360600190a2505050505050565b600160a060020a0382166000908152601260205260408120611dd1908363ffffffff612c7016565b9392505050565b600154600160a060020a03163314611def57600080fd5b611df881612cc6565b50565b60105481565b33600090815260126020526040808220815160e060020a6320e1e1d102815260048101919091529051829182918291829173__FundAccount___________________________916320e1e1d19160248083019286929190829003018186803b158015611e6c57600080fd5b505af4158015611e80573d6000803e3d6000fd5b505050506040513d6000823e601f3d908101601f191682016040526020811015611ea957600080fd5b810190808051640100000000811115611ec157600080fd5b82016020810184811115611ed457600080fd5b8151856020820283011164010000000082111715611ef157600080fd5b50505197505050505b84156124915733600090815260126020526040808220815160e060020a6320e1e1d10281526004810191909152905173__FundAccount___________________________926320e1e1d19260248082019391829003018186803b158015611f6057600080fd5b505af4158015611f74573d6000803e3d6000fd5b505050506040513d6000823e601f3d908101601f191682016040526020811015611f9d57600080fd5b810190808051640100000000811115611fb557600080fd5b82016020810184811115611fc857600080fd5b8151856020820283011164010000000082111715611fe557600080fd5b50508051600019909901989093508892508210905061200057fe5b60209081029091018101513360009081526012909252604090912090945061202e908563ffffffff612c7016565b925082151561203c57611efa565b336000908152601160205260409020546120599087908590612d44565b91506000821161206857600080fd5b60095461208c90612080600b8763ffffffff612c7016565b9063ffffffff612e6c16565b90506120bd6120a682611826600b8863ffffffff612c7016565b836120b8600b8863ffffffff612c7016565b612d44565b9250600083116120cc57600080fd5b6000848152600e60205260409020546120eb908463ffffffff61249916565b6000858152600e6020908152604080832093909355338252601290522061211990858463ffffffff612e7b16565b60ea60020a621554d10284141561212f57611efa565b60eb60020a6208aa890284146122e257600554604080517fcfec719f000000000000000000000000000000000000000000000000000000008152600481018790529051600160a060020a039092169163cfec719f916024808201926020929091908290030181600087803b1580156121a657600080fd5b505af11580156121ba573d6000803e3d6000fd5b505050506040513d60208110156121d057600080fd5b505115156121dd57600080fd5b6005546040805160e460020a630b12e4410281526004810187905290518592600160a060020a03169163b12e44109160248083019260209291908290030181600087803b15801561222d57600080fd5b505af1158015612241573d6000803e3d6000fd5b505050506040513d602081101561225757600080fd5b50516040805160e060020a6370a082310281523060048201529051600160a060020a03909216916370a08231916024808201926020929091908290030181600087803b1580156122a657600080fd5b505af11580156122ba573d6000803e3d6000fd5b505050506040513d60208110156122d057600080fd5b505110156122dd57600080fd5b6122f0565b30318311156122f057600080fd5b60eb60020a6208aa890284141561233457604051339084156108fc029085906000818181858888f1935050505015801561232e573d6000803e3d6000fd5b50612452565b6005546040805160e460020a630b12e441028152600481018790529051600160a060020a039092169163b12e4410916024808201926020929091908290030181600087803b15801561238557600080fd5b505af1158015612399573d6000803e3d6000fd5b505050506040513d60208110156123af57600080fd5b5051604080517fa9059cbb000000000000000000000000000000000000000000000000000000008152336004820152602481018690529051600160a060020a039092169163a9059cbb916044808201926020929091908290030181600087803b15801561241b57600080fd5b505af115801561242f573d6000803e3d6000fd5b505050506040513d602081101561244557600080fd5b5051151561245257600080fd5b6040805185815260208101859052815133927fd434f0d1dd08e14b2acdd7a506c6e8b6edaf1a5825d23ca9b5e51a9ad883f71c928290030190a2611efa565b505050505050565b818101828110156111ad57fe5b6000828211156124b257fe5b50900390565b6000806000806000600b73__FundAccount___________________________6320e1e1d190916040518263ffffffff1660e060020a0281526004018082815260200191505060006040518083038186803b15801561251557600080fd5b505af4158015612529573d6000803e3d6000fd5b505050506040513d6000823e601f3d908101601f19168201604052602081101561255257600080fd5b81019080805164010000000081111561256a57600080fd5b8201602081018481111561257d57600080fd5b815185602082028301116401000000008211171561259a57600080fd5b50505197505050505b8415612491576040805160e060020a6320e1e1d1028152600b6004820152905173__FundAccount___________________________916320e1e1d1916024808301926000929190829003018186803b1580156125fe57600080fd5b505af4158015612612573d6000803e3d6000fd5b505050506040513d6000823e601f3d908101601f19168201604052602081101561263b57600080fd5b81019080805164010000000081111561265357600080fd5b8201602081018481111561266657600080fd5b815185602082028301116401000000008211171561268357600080fd5b50508051600019909901989093508892508210905061269e57fe5b6020908102909101015193506126bb600b8563ffffffff612c7016565b92508215156126c9576125a3565b85516126d6908490612e6c565b9150600082116126e557600080fd5b6127086126ff601054600f546124a690919063ffffffff16565b83600f54612d44565b92506000831161271757600080fd5b6000848152600e6020526040902054612736908463ffffffff61249916565b6000858152600e602052604090205560ea60020a621554d10284141561275b576125a3565b60eb60020a6208aa8902841461290957600554604080517fcfec719f000000000000000000000000000000000000000000000000000000008152600481018790529051600160a060020a039092169163cfec719f916024808201926020929091908290030181600087803b1580156127d257600080fd5b505af11580156127e6573d6000803e3d6000fd5b505050506040513d60208110156127fc57600080fd5b5051151561280957600080fd5b6005546040805160e460020a630b12e4410281526004810187905290518592600160a060020a03169163b12e44109160248083019260209291908290030181600087803b15801561285957600080fd5b505af115801561286d573d6000803e3d6000fd5b505050506040513d602081101561288357600080fd5b50516040805160e060020a6370a082310281523060048201529051600160a060020a03909216916370a08231916024808201926020929091908290030181600087803b1580156128d257600080fd5b505af11580156128e6573d6000803e3d6000fd5b505050506040513d60208110156128fc57600080fd5b5051101561290957600080fd5b60006008541161291a57600061292e565b60085461292e90849063ffffffff612e6c16565b905060006008541115612948576000811161294857600080fd5b60eb60020a6208aa89028414156129e057600081111561299e57600754604051600160a060020a039091169082156108fc029083906000818181858888f1935050505015801561299c573d6000803e3d6000fd5b505b336108fc6129b2858463ffffffff6124a616565b6040518115909202916000818181858888f193505050501580156129da573d6000803e3d6000fd5b50612c31565b6000811115612b0c576005546040805160e460020a630b12e441028152600481018790529051600160a060020a039092169163b12e4410916024808201926020929091908290030181600087803b158015612a3a57600080fd5b505af1158015612a4e573d6000803e3d6000fd5b505050506040513d6020811015612a6457600080fd5b5051600754604080517fa9059cbb000000000000000000000000000000000000000000000000000000008152600160a060020a039283166004820152602481018590529051919092169163a9059cbb9160448083019260209291908290030181600087803b158015612ad557600080fd5b505af1158015612ae9573d6000803e3d6000fd5b505050506040513d6020811015612aff57600080fd5b50511515612b0c57600080fd5b6005546040805160e460020a630b12e441028152600481018790529051600160a060020a039092169163b12e4410916024808201926020929091908290030181600087803b158015612b5d57600080fd5b505af1158015612b71573d6000803e3d6000fd5b505050506040513d6020811015612b8757600080fd5b5051600160a060020a031663a9059cbb33612ba8868563ffffffff6124a616565b6040518363ffffffff1660e060020a0281526004018083600160a060020a0316600160a060020a0316815260200182815260200192505050602060405180830381600087803b158015612bfa57600080fd5b505af1158015612c0e573d6000803e3d6000fd5b505050506040513d6020811015612c2457600080fd5b50511515612c3157600080fd5b6040805185815260208101859052815133927f17e68c82fdc39ec76fff0be24ead989575d8eec009a729fa4bd738bc1f6a2dbb928290030190a26125a3565b6000908152600291909101602052604090205490565b612c908383612ec7565b6000828152600284016020526040902054612cb1908263ffffffff61249916565b60009283526002909301602052506040902055565b600160a060020a0381161515612cdb57600080fd5b600154604051600160a060020a038084169216907f8be0079c531659141344cd1fd0a4f28419497f9722a3daafe3b4186f6b6457e090600090a36001805473ffffffffffffffffffffffffffffffffffffffff1916600160a060020a0392909216919091179055565b600080808080851515612d5357fe5b871580612d5e575086155b15612d6857612e61565b612d7a6000198863ffffffff612f0e16565b9250828811612daa57612da386612d978a8a63ffffffff612f2316565b9063ffffffff612f0e16565b9450612e61565b85881415612dba57869450612e61565b85871415612dca57879450612e61565b8715612e4b57878311612ddd5782612ddf565b875b9150612df1828863ffffffff612f2316565b9050612e13612e06828863ffffffff612f0e16565b869063ffffffff61249916565b9450612e328682811515612e2357fe5b8691900663ffffffff61249916565b9350612e44888363ffffffff6124a616565b9750612dca565b612e5e612e06858863ffffffff612f0e16565b94505b505050509392505050565b6000611dd183836120b8612f4c565b612e858383612f5e565b1515612e9057600080fd5b80612e9b8484612c70565b1015612ea657600080fd5b6000828152600284016020526040902054612cb1908263ffffffff6124a616565b612ed18282612f5e565b1515612f0a57815460018181018455600084815260208082209093018490558381528185019092526040909120805460ff191690911790555b5050565b60008183811515612f1b57fe5b049392505050565b6000821515612f34575060006111ad565b50818102818382811515612f4457fe5b04146111ad57fe5b6000612f56612f77565b600a0a905090565b6000908152600191909101602052604090205460ff1690565b6000612f81612f89565b600201905090565b600290565b6060604051908101604052806003906020820280388339509192915050565b6000612fb7613003565b82101580156111ad5750612fc9612f4c565b90911115919050565b6000612fdd82612fad565b1515612fe857600080fd5b6111ad612ff3612f89565b8390600a0a63ffffffff612f0e16565b6000905600a165627a7a723058208de91a32092d1f0941348b8b0064a0b6c78b50e07821a1259b8e759a408543450029",
  "source": "pragma solidity ^0.4.24;\n\nimport \"openzeppelin-solidity/contracts/ownership/Ownable.sol\";\nimport \"openzeppelin-solidity/contracts/ReentrancyGuard.sol\";\nimport \"openzeppelin-solidity/contracts/math/SafeMath.sol\";\nimport \"openzeppelin-solidity/contracts/token/ERC20/ERC20.sol\";\nimport \"./IW12Crowdsale.sol\";\nimport \"./IW12Fund.sol\";\nimport \"../rates/IRates.sol\";\nimport \"../libs/Percent.sol\";\nimport \"../libs/FundAccount.sol\";\nimport \"../versioning/Versionable.sol\";\nimport \"../token/IWToken.sol\";\n\ncontract W12Fund is Versionable, IW12Fund, Ownable, ReentrancyGuard {\n    using SafeMath for uint;\n    using Percent for uint;\n    using FundAccount for FundAccount.Account;\n\n    bytes32 constant METHOD_ETH = bytes32('ETH');\n    bytes32 constant METHOD_USD = bytes32('USD');\n\n    IW12Crowdsale public crowdsale;\n    IWToken public wToken;\n    IRates public rates;\n    address public swap;\n    address public serviceWallet;\n    // fee for realised tranche\n    uint public trancheFeePercent;\n    // total percent of realised project tranche\n    uint public totalTranchePercentReleased;\n    // maps of completed tranches periods\n    mapping (uint => bool) public completedTranches;\n\n    // total funded assets\n    FundAccount.Account totalFunded;\n    // total realised funded assets bt currency symbol\n    // updated when tranche was realised or investor assets was refunded\n    mapping(bytes32 => uint) totalFundedReleased;\n    // total amount of bought token\n    uint public totalTokenBought;\n    // total amount of refunded token\n    uint public totalTokenRefunded;\n    // total amount of bought token per investor\n    mapping (address => uint) tokenBoughtPerInvestor;\n    // total funded assets of each investor\n    mapping (address => FundAccount.Account) fundedPerInvestor;\n\n    event FundsReceived(address indexed investor, uint tokenAmount, bytes32 symbol, uint cost);\n    event AssetRefunded(address indexed investor, bytes32 symbol, uint amount);\n    event TokenRefunded(address indexed investor, uint tokenAmount);\n    event TrancheTransferred(address indexed receiver, bytes32 symbol, uint amount);\n    event TrancheReleased(address indexed receiver, uint percent);\n\n    constructor(uint version, uint _trancheFeePercent, IRates _rates) Versionable(version) public {\n        require(_trancheFeePercent.isPercent() && _trancheFeePercent.fromPercent() < 100);\n        require(_rates != address(0));\n\n        trancheFeePercent = _trancheFeePercent;\n        rates = _rates;\n    }\n\n    function setCrowdsale(IW12Crowdsale _crowdsale) onlyOwner external {\n        require(_crowdsale != address(0));\n        require(_crowdsale.getWToken() != address(0));\n\n        crowdsale = _crowdsale;\n        wToken = IWToken(_crowdsale.getWToken());\n    }\n\n    function setSwap(address _swap) onlyOwner external {\n        require(_swap != address(0));\n\n        swap = _swap;\n    }\n\n    function setServiceWallet(address _serviceWallet) onlyOwner external {\n        require(_serviceWallet != address(0));\n\n        serviceWallet = _serviceWallet;\n    }\n\n    /**\n     * @dev Record purchase result to the fund and check the fund balance\n     * @param investor An investor address\n     * @param tokenAmount Token amount that was bought\n     * @param symbol Symbol of payment method\n     * @param cost Cost of token amount\n     * @param costUSD Cost in USD\n     */\n    function recordPurchase(\n        address investor,\n        uint tokenAmount,\n        bytes32 symbol,\n        uint cost,\n        uint costUSD\n    )\n        external payable onlyFrom(crowdsale)\n    {\n        require(tokenAmount > 0);\n        require(cost > 0);\n        require(costUSD > 0);\n        require(investor != address(0));\n        require(rates.hasSymbol(symbol));\n\n        // check payment\n        if (symbol == METHOD_ETH)  {\n            require(msg.value >= cost);\n        } else {\n            require(rates.isToken(symbol));\n            require(ERC20(rates.getTokenAddress(symbol)).balanceOf(address(this)) >= totalFunded.amountOf(symbol).add(cost));\n        }\n\n        // write to investor account\n        tokenBoughtPerInvestor[investor] = tokenBoughtPerInvestor[investor].add(tokenAmount);\n        fundedPerInvestor[investor].deposit(symbol, cost);\n        fundedPerInvestor[investor].deposit(METHOD_USD, costUSD);\n\n        // write to total fund\n        totalTokenBought = totalTokenBought.add(tokenAmount);\n        totalFunded.deposit(symbol, cost);\n        totalFunded.deposit(METHOD_USD, costUSD);\n\n        emit FundsReceived(investor, tokenAmount, symbol, cost);\n    }\n\n    function getInvestorFundedAmount(address _investor, bytes32 _symbol) public view returns(uint) {\n        return fundedPerInvestor[_investor].amountOf(_symbol);\n    }\n\n    function getInvestorFundedAssetsSymbols(address _investor) public view returns(bytes32[]) {\n        return fundedPerInvestor[_investor].symbolsList();\n    }\n\n    function getInvestorTokenBoughtAmount(address _investor) public view returns (uint) {\n        return tokenBoughtPerInvestor[_investor];\n    }\n\n    function getTotalFundedAmount(bytes32 _symbol) public view returns (uint) {\n        return totalFunded.amountOf(_symbol);\n    }\n\n    function getTotalFundedAssetsSymbols() public view returns (bytes32[]) {\n        return totalFunded.symbolsList();\n    }\n\n    function getTotalFundedReleased(bytes32 _symbol) public view returns (uint) {\n        return totalFundedReleased[_symbol];\n    }\n\n    /**\n     * @notice Get tranche invoice\n     * @return uint[3] result:\n     * [tranchePercent, totalTranchePercentBefore, milestoneIndex]\n     */\n    function getTrancheInvoice() public view returns (uint[3] result) {\n        if (!trancheTransferAllowed()) return;\n\n        (uint index, /*bool found*/) = crowdsale.getCurrentMilestoneIndex();\n        (uint lastIndex, /*bool found*/) = crowdsale.getLastMilestoneIndex();\n\n        (,,, uint32 lastWithdrawalWindow,,) = crowdsale.getMilestone(lastIndex);\n\n        // get percent from prev milestone\n        index = index == 0 || lastIndex == index ? index : index - 1;\n\n        ( , uint tranchePercent, , uint32 withdrawalWindow, , ) = crowdsale.getMilestone(index);\n\n        bool completed = completedTranches[index];\n\n        if (completed) return;\n\n        uint prevIndex = index;\n        uint totalTranchePercentBefore;\n\n        while (prevIndex > 0) {\n            prevIndex--;\n\n            (, uint _tranchePercent, , , , ) = crowdsale.getMilestone(prevIndex);\n\n            totalTranchePercentBefore = totalTranchePercentBefore.add(_tranchePercent);\n        }\n\n        result[0] = tranchePercent\n            .add(totalTranchePercentBefore)\n            .sub(totalTranchePercentReleased);\n        result[1] = totalTranchePercentBefore;\n        result[2] = index;\n    }\n\n    /**\n     * @notice Realise project tranche\n     */\n    function tranche() external onlyOwner nonReentrant {\n        require(trancheTransferAllowed());\n\n        uint[3] memory trancheInvoice = getTrancheInvoice();\n\n        require(trancheInvoice[0] > 0);\n        require(totalFunded.symbolsList().length != 0);\n\n        completedTranches[trancheInvoice[2]] = true;\n        totalTranchePercentReleased = totalTranchePercentReleased.add(trancheInvoice[0]);\n\n        _transferTranche(trancheInvoice);\n\n        emit TrancheReleased(msg.sender, trancheInvoice[0]);\n    }\n\n    function _transferTranche(uint[3] _invoice) internal {\n        uint ln = totalFunded.symbolsList().length;\n\n        while(ln != 0) {\n            bytes32 symbol = totalFunded.symbolsList()[--ln];\n            uint amount = totalFunded.amountOf(symbol);\n\n            if (amount == 0) continue;\n\n            uint sourceAmount = amount.safePercent(_invoice[0]);\n\n            require(sourceAmount > 0);\n            \n            amount = Utils.safeMulDiv(\n                totalTokenBought.sub(totalTokenRefunded),\n                sourceAmount,\n                totalTokenBought\n            );\n\n            require(amount > 0);\n\n            totalFundedReleased[symbol] = totalFundedReleased[symbol].add(amount);\n            \n            if (symbol == METHOD_USD)  continue;\n\n            if (symbol != METHOD_ETH) {\n                require(rates.isToken(symbol));\n                require(ERC20(rates.getTokenAddress(symbol)).balanceOf(address(this)) >= amount);\n            }\n\n            uint fee = trancheFeePercent > 0\n                ? amount.safePercent(trancheFeePercent)\n                : 0;\n\n            if (trancheFeePercent > 0) require(fee > 0);\n\n            if (symbol == METHOD_ETH) {\n                if (fee > 0) serviceWallet.transfer(fee);\n                msg.sender.transfer(amount.sub(fee));\n            } else {\n                if (fee > 0) require(ERC20(rates.getTokenAddress(symbol)).transfer(serviceWallet, fee));\n                require(ERC20(rates.getTokenAddress(symbol)).transfer(msg.sender, amount.sub(fee)));\n            }\n\n            emit TrancheTransferred(msg.sender, symbol, amount);\n        }\n    }\n\n    /**\n     * @notice Refund bought tokens\n     */\n    function refund(uint tokenAmount) external nonReentrant {\n        require(tokenRefundAllowed());\n        require(tokenAmount != 0);\n        require(tokenBoughtPerInvestor[msg.sender] >= tokenAmount);\n        require(wToken.balanceOf(msg.sender) >= tokenAmount);\n        require(wToken.allowance(msg.sender, address(this)) >= tokenAmount);\n\n        _refundAssets(tokenAmount);\n\n        totalTokenRefunded = totalTokenRefunded.add(tokenAmount);\n        tokenBoughtPerInvestor[msg.sender] = tokenBoughtPerInvestor[msg.sender].sub(tokenAmount);\n\n        require(wToken.transferFrom(msg.sender, swap, tokenAmount));\n\n        emit TokenRefunded(msg.sender, tokenAmount);\n    }\n\n    function _refundAssets(uint tokenAmount) internal {\n        uint ln = fundedPerInvestor[msg.sender].symbolsList().length;\n\n        while (ln != 0) {\n            bytes32 symbol = fundedPerInvestor[msg.sender].symbolsList()[--ln];\n            uint amount = fundedPerInvestor[msg.sender].amountOf(symbol);\n\n            if (amount == 0) continue;\n\n            // get source amount\n            uint sourceAmount = Utils.safeMulDiv(\n                tokenAmount,\n                amount,\n                tokenBoughtPerInvestor[msg.sender]\n            );\n\n            require(sourceAmount > 0);\n\n            // get released tranche amount in current currency\n            uint releasedTranche = totalFunded\n                .amountOf(symbol)\n                .safePercent(totalTranchePercentReleased);\n\n            // get amount minus released tranche\n            amount = Utils.safeMulDiv(\n                totalFunded.amountOf(symbol).sub(releasedTranche),\n                sourceAmount,\n                totalFunded.amountOf(symbol)\n            );\n\n            require(amount > 0);\n\n            totalFundedReleased[symbol] = totalFundedReleased[symbol].add(amount);\n            fundedPerInvestor[msg.sender].withdrawal(symbol, sourceAmount);\n\n            if (symbol == METHOD_USD) continue;\n\n            if (symbol != METHOD_ETH) {\n                require(rates.isToken(symbol));\n                require(ERC20(rates.getTokenAddress(symbol)).balanceOf(address(this)) >= amount);\n            } else {\n                require(address(this).balance >= amount);\n            }\n\n            if (symbol == METHOD_ETH) {\n                msg.sender.transfer(amount);\n            } else {\n                require(ERC20(rates.getTokenAddress(symbol)).transfer(msg.sender, amount));\n            }\n\n            emit AssetRefunded(msg.sender, symbol, amount);\n        }\n    }\n\n    function tokenRefundAllowed() public view returns (bool) {\n        (uint index, bool found) = crowdsale.getCurrentMilestoneIndex();\n\n        // first milestone is reserved for the project to claim initial amount of payments. No refund allowed at this stage.\n        if(index == 0) return;\n\n        (uint32 endDate, , , uint32 withdrawalWindow, , ) = crowdsale.getMilestone(index);\n\n        return endDate <= now && now < withdrawalWindow;\n    }\n\n    function trancheTransferAllowed() public view returns (bool) {\n        (uint index, bool found) = crowdsale.getCurrentMilestoneIndex();\n\n        if(!found) return;\n\n        return index == 0 || isWithdrawalWindowActive();\n    }\n\n    function isWithdrawalWindowActive() public view returns (bool) {\n        (uint index, bool found) = crowdsale.getCurrentMilestoneIndex();\n\n        if(index == 0 || !found) return;\n\n        (uint32 endDate, , ,uint32 lastWithdrawalWindow, , ) = crowdsale.getMilestone(index);\n\n        return endDate > now || now >= lastWithdrawalWindow;\n    }\n\n    modifier onlyFrom(address sender) {\n        require(msg.sender == sender);\n\n        _;\n    }\n}\n",
  "sourcePath": "/home/circleci/code/contracts/crowdsale/W12Fund.sol",
  "compiler": {
    "name": "solc",
    "version": "0.4.24+commit.e67f0147.Emscripten.clang"
  },
  "schemaVersion": "2.0.1",
  "updatedAt": "2018-10-27T04:55:06.489Z"
}