{
  "contractName": "W12ListerStub",
  "abi": [
    {
      "constant": false,
      "inputs": [
        {
          "name": "tokenAddress",
          "type": "address"
        },
        {
          "name": "amountForSale",
          "type": "uint256"
        },
        {
          "name": "price",
          "type": "uint256"
        }
      ],
      "name": "initCrowdsale",
      "outputs": [],
      "payable": false,
      "stateMutability": "nonpayable",
      "type": "function"
    },
    {
      "constant": true,
      "inputs": [
        {
          "name": "_operator",
          "type": "address"
        },
        {
          "name": "_role",
          "type": "string"
        }
      ],
      "name": "checkRole",
      "outputs": [],
      "payable": false,
      "stateMutability": "view",
      "type": "function"
    },
    {
      "constant": false,
      "inputs": [
        {
          "name": "_operator",
          "type": "address"
        }
      ],
      "name": "removeAdmin",
      "outputs": [],
      "payable": false,
      "stateMutability": "nonpayable",
      "type": "function"
    },
    {
      "constant": true,
      "inputs": [
        {
          "name": "",
          "type": "uint256"
        }
      ],
      "name": "approvedTokens",
      "outputs": [
        {
          "name": "name",
          "type": "string"
        },
        {
          "name": "symbol",
          "type": "string"
        },
        {
          "name": "decimals",
          "type": "uint8"
        },
        {
          "name": "feePercent",
          "type": "uint256"
        },
        {
          "name": "ethFeePercent",
          "type": "uint256"
        },
        {
          "name": "WTokenSaleFeePercent",
          "type": "uint256"
        },
        {
          "name": "trancheFeePercent",
          "type": "uint256"
        },
        {
          "name": "crowdsaleAddress",
          "type": "address"
        },
        {
          "name": "tokensForSaleAmount",
          "type": "uint256"
        },
        {
          "name": "wTokensIssuedAmount",
          "type": "uint256"
        },
        {
          "name": "tokenAddress",
          "type": "address"
        }
      ],
      "payable": false,
      "stateMutability": "view",
      "type": "function"
    },
    {
      "constant": true,
      "inputs": [
        {
          "name": "_operator",
          "type": "address"
        },
        {
          "name": "_role",
          "type": "string"
        }
      ],
      "name": "hasRole",
      "outputs": [
        {
          "name": "",
          "type": "bool"
        }
      ],
      "payable": false,
      "stateMutability": "view",
      "type": "function"
    },
    {
      "constant": false,
      "inputs": [
        {
          "name": "tokenOwner",
          "type": "address"
        },
        {
          "name": "tokenAddress",
          "type": "address"
        },
        {
          "name": "name",
          "type": "string"
        },
        {
          "name": "symbol",
          "type": "string"
        },
        {
          "name": "decimals",
          "type": "uint8"
        },
        {
          "name": "feePercent",
          "type": "uint256"
        },
        {
          "name": "ethFeePercent",
          "type": "uint256"
        },
        {
          "name": "WTokenSaleFeePercent",
          "type": "uint256"
        },
        {
          "name": "trancheFeePercent",
          "type": "uint256"
        }
      ],
      "name": "whitelistToken",
      "outputs": [],
      "payable": false,
      "stateMutability": "nonpayable",
      "type": "function"
    },
    {
      "constant": true,
      "inputs": [
        {
          "name": "tokenAddress",
          "type": "address"
        },
        {
          "name": "ownerAddress",
          "type": "address"
        }
      ],
      "name": "getTokenCrowdsale",
      "outputs": [
        {
          "name": "",
          "type": "address"
        }
      ],
      "payable": false,
      "stateMutability": "view",
      "type": "function"
    },
    {
      "constant": true,
      "inputs": [],
      "name": "getExchanger",
      "outputs": [
        {
          "name": "",
          "type": "address"
        }
      ],
      "payable": false,
      "stateMutability": "view",
      "type": "function"
    },
    {
      "constant": true,
      "inputs": [],
      "name": "exchanger",
      "outputs": [
        {
          "name": "",
          "type": "address"
        }
      ],
      "payable": false,
      "stateMutability": "view",
      "type": "function"
    },
    {
      "constant": true,
      "inputs": [],
      "name": "version",
      "outputs": [
        {
          "name": "",
          "type": "uint256"
        }
      ],
      "payable": false,
      "stateMutability": "view",
      "type": "function"
    },
    {
      "constant": true,
      "inputs": [],
      "name": "serviceWallet",
      "outputs": [
        {
          "name": "",
          "type": "address"
        }
      ],
      "payable": false,
      "stateMutability": "view",
      "type": "function"
    },
    {
      "constant": false,
      "inputs": [
        {
          "name": "tokenAddress",
          "type": "address"
        },
        {
          "name": "amount",
          "type": "uint256"
        }
      ],
      "name": "placeToken",
      "outputs": [],
      "payable": false,
      "stateMutability": "nonpayable",
      "type": "function"
    },
    {
      "constant": false,
      "inputs": [
        {
          "name": "_operator",
          "type": "address"
        }
      ],
      "name": "addAdmin",
      "outputs": [],
      "payable": false,
      "stateMutability": "nonpayable",
      "type": "function"
    },
    {
      "constant": false,
      "inputs": [],
      "name": "renounceOwnership",
      "outputs": [],
      "payable": false,
      "stateMutability": "nonpayable",
      "type": "function"
    },
    {
      "constant": true,
      "inputs": [
        {
          "name": "token",
          "type": "address"
        }
      ],
      "name": "getTokenOwners",
      "outputs": [
        {
          "name": "",
          "type": "address[]"
        }
      ],
      "payable": false,
      "stateMutability": "view",
      "type": "function"
    },
    {
      "constant": true,
      "inputs": [],
      "name": "owner",
      "outputs": [
        {
          "name": "",
          "type": "address"
        }
      ],
      "payable": false,
      "stateMutability": "view",
      "type": "function"
    },
    {
      "constant": true,
      "inputs": [],
      "name": "approvedTokensLength",
      "outputs": [
        {
          "name": "",
          "type": "uint16"
        }
      ],
      "payable": false,
      "stateMutability": "view",
      "type": "function"
    },
    {
      "constant": false,
      "inputs": [
        {
          "name": "tokenAddress",
          "type": "address"
        },
        {
          "name": "amountForSale",
          "type": "uint256"
        }
      ],
      "name": "addTokensToCrowdsale",
      "outputs": [],
      "payable": false,
      "stateMutability": "nonpayable",
      "type": "function"
    },
    {
      "constant": true,
      "inputs": [],
      "name": "factory",
      "outputs": [
        {
          "name": "",
          "type": "address"
        }
      ],
      "payable": false,
      "stateMutability": "view",
      "type": "function"
    },
    {
      "constant": true,
      "inputs": [
        {
          "name": "",
          "type": "address"
        },
        {
          "name": "",
          "type": "address"
        }
      ],
      "name": "approvedTokensIndex",
      "outputs": [
        {
          "name": "",
          "type": "uint16"
        }
      ],
      "payable": false,
      "stateMutability": "view",
      "type": "function"
    },
    {
      "constant": true,
      "inputs": [],
      "name": "ROLE_ADMIN",
      "outputs": [
        {
          "name": "",
          "type": "string"
        }
      ],
      "payable": false,
      "stateMutability": "view",
      "type": "function"
    },
    {
      "constant": false,
      "inputs": [
        {
          "name": "_newOwner",
          "type": "address"
        }
      ],
      "name": "transferOwnership",
      "outputs": [],
      "payable": false,
      "stateMutability": "nonpayable",
      "type": "function"
    },
    {
      "inputs": [
        {
          "name": "version",
          "type": "uint256"
        },
        {
          "name": "_factory",
          "type": "address"
        },
        {
          "name": "_exchanger",
          "type": "address"
        }
      ],
      "payable": false,
      "stateMutability": "nonpayable",
      "type": "constructor"
    },
    {
      "anonymous": false,
      "inputs": [
        {
          "indexed": true,
          "name": "tokenAddress",
          "type": "address"
        },
        {
          "indexed": true,
          "name": "tokenOwner",
          "type": "address"
        },
        {
          "indexed": false,
          "name": "name",
          "type": "string"
        },
        {
          "indexed": false,
          "name": "symbol",
          "type": "string"
        }
      ],
      "name": "OwnerWhitelisted",
      "type": "event"
    },
    {
      "anonymous": false,
      "inputs": [
        {
          "indexed": true,
          "name": "originalTokenAddress",
          "type": "address"
        },
        {
          "indexed": true,
          "name": "tokenOwner",
          "type": "address"
        },
        {
          "indexed": false,
          "name": "tokenAmount",
          "type": "uint256"
        },
        {
          "indexed": false,
          "name": "placedTokenAddress",
          "type": "address"
        }
      ],
      "name": "TokenPlaced",
      "type": "event"
    },
    {
      "anonymous": false,
      "inputs": [
        {
          "indexed": true,
          "name": "tokenAddress",
          "type": "address"
        },
        {
          "indexed": true,
          "name": "tokenOwner",
          "type": "address"
        },
        {
          "indexed": false,
          "name": "amountForSale",
          "type": "uint256"
        }
      ],
      "name": "CrowdsaleInitialized",
      "type": "event"
    },
    {
      "anonymous": false,
      "inputs": [
        {
          "indexed": true,
          "name": "tokenAddress",
          "type": "address"
        },
        {
          "indexed": true,
          "name": "tokenOwner",
          "type": "address"
        },
        {
          "indexed": false,
          "name": "amount",
          "type": "uint256"
        }
      ],
      "name": "CrowdsaleTokenMinted",
      "type": "event"
    },
    {
      "anonymous": false,
      "inputs": [
        {
          "indexed": true,
          "name": "previousOwner",
          "type": "address"
        }
      ],
      "name": "OwnershipRenounced",
      "type": "event"
    },
    {
      "anonymous": false,
      "inputs": [
        {
          "indexed": true,
          "name": "previousOwner",
          "type": "address"
        },
        {
          "indexed": true,
          "name": "newOwner",
          "type": "address"
        }
      ],
      "name": "OwnershipTransferred",
      "type": "event"
    },
    {
      "anonymous": false,
      "inputs": [
        {
          "indexed": true,
          "name": "operator",
          "type": "address"
        },
        {
          "indexed": false,
          "name": "role",
          "type": "string"
        }
      ],
      "name": "RoleAdded",
      "type": "event"
    },
    {
      "anonymous": false,
      "inputs": [
        {
          "indexed": true,
          "name": "operator",
          "type": "address"
        },
        {
          "indexed": false,
          "name": "role",
          "type": "string"
        }
      ],
      "name": "RoleRemoved",
      "type": "event"
    }
  ],
  "bytecode": "0x600160035560c0604052600560808190527f61646d696e00000000000000000000000000000000000000000000000000000060a090815262000045916004919062000331565b503480156200005357600080fd5b506040516060806200415a833981016040908152815160208301519190920151600083905560028054600160a060020a03191633908117909155839083838215156200009e57600080fd5b600160a060020a0382161515620000b457600080fd5b600160a060020a0381161515620000ca57600080fd5b60058054600160a060020a03808416600160a060020a031992831617909255600a805486841662010000026201000060b060020a0319909116179055600680549285169290911691909117905560088054906200012b9060018301620003b6565b506004805460408051602060026001851615610100026000190190941693909304601f8101849004840282018401909252818152620001d993339391929091830182828015620001bf5780601f106200019357610100808354040283529160200191620001bf565b820191906000526020600020905b815481529060010190602001808311620001a157829003601f168201915b5050505050620001e6640100000000026401000000009004565b50505050505050620004e6565b62000262826001836040518082805190602001908083835b602083106200021f5780518252601f199092019160209182019101620001fe565b51815160209384036101000a60001901801990921691161790529201948552506040519384900301909220929150506401000000006200030c81026200255b1704565b81600160a060020a03167fbfec83d64eaa953f2708271a023ab9ee82057f8f3578d548c1a4ba0b5b700489826040518080602001828103825283818151815260200191508051906020019080838360005b83811015620002cd578181015183820152602001620002b3565b50505050905090810190601f168015620002fb5780820380516001836020036101000a031916815260200191505b509250505060405180910390a25050565b600160a060020a0316600090815260209190915260409020805460ff19166001179055565b828054600181600116156101000203166002900490600052602060002090601f016020900481019282601f106200037457805160ff1916838001178555620003a4565b82800160010185558215620003a4579182015b82811115620003a457825182559160200191906001019062000387565b50620003b2929150620003ea565b5090565b815481835581811115620003e557600c0281600c028360005260206000209182019101620003e591906200040a565b505050565b6200040791905b80821115620003b25760008155600101620003f1565b90565b6200040791905b80821115620003b25760006200042882826200049b565b620004386001830160006200049b565b5060028101805460ff19169055600060048201819055600582018190556006820181905560078201819055600882018054600160a060020a031990811690915560098301829055600a830191909155600b820180549091169055600c0162000411565b50805460018160011615610100020316600290046000825580601f10620004c35750620004e3565b601f016020900490600052602060002090810190620004e39190620003ea565b50565b613c6480620004f66000396000f300608060405260043610620001255763ffffffff60e060020a60003504166309363c9981146200012a5780630988ca8c14620001565780631785f53c14620001c05780631dafede014620001e4578063217fe6c6146200034c57806334cf82bf14620003ca5780633f3466a714620004215780634b1acf3914620004675780634d12fca4146200047f57806354fd4d5014620004975780635641f3c314620004c157806368dce93214620004d9578063704802751462000500578063715018a61462000524578063849072b9146200053c5780638da5cb5b14620005b25780639cf96e2e14620005ca578063a41ffd3814620005f9578063c45a01551462000620578063cca89d731462000638578063d391014b1462000662578063f2fde38b14620006f2575b600080fd5b3480156200013757600080fd5b5062000154600160a060020a036004351660243560443562000716565b005b3480156200016357600080fd5b5060408051602060046024803582810135601f810185900485028601850190965285855262000154958335600160a060020a031695369560449491939091019190819084018382808284375094975062000b3a9650505050505050565b348015620001cd57600080fd5b5062000154600160a060020a036004351662000bac565b348015620001f157600080fd5b50620001ff60043562000c4d565b6040518080602001806020018c60ff1660ff1681526020018b81526020018a815260200189815260200188815260200187600160a060020a0316600160a060020a0316815260200186815260200185815260200184600160a060020a0316600160a060020a0316815260200183810383528e818151815260200191508051906020019080838360005b83811015620002a257818101518382015260200162000288565b50505050905090810190601f168015620002d05780820380516001836020036101000a031916815260200191505b5083810382528d5181528d516020918201918f019080838360005b8381101562000305578181015183820152602001620002eb565b50505050905090810190601f168015620003335780820380516001836020036101000a031916815260200191505b509d505050505050505050505050505060405180910390f35b3480156200035957600080fd5b5060408051602060046024803582810135601f8101859004850286018501909652858552620003b6958335600160a060020a031695369560449491939091019190819084018382808284375094975062000def9650505050505050565b604080519115158252519081900360200190f35b348015620003d757600080fd5b5062000154600160a060020a0360048035821691602480359091169160443580830192908201359160643591820191013560ff6084351660a43560c43560e4356101043562000e68565b3480156200042e57600080fd5b506200044b600160a060020a0360043581169060243516620013e0565b60408051600160a060020a039092168252519081900360200190f35b3480156200047457600080fd5b506200044b62001402565b3480156200048c57600080fd5b506200044b62001412565b348015620004a457600080fd5b50620004af62001421565b60408051918252519081900360200190f35b348015620004ce57600080fd5b506200044b62001427565b348015620004e657600080fd5b5062000154600160a060020a03600435166024356200143c565b3480156200050d57600080fd5b5062000154600160a060020a0360043516620019f2565b3480156200053157600080fd5b506200015462001a90565b3480156200054957600080fd5b5062000560600160a060020a036004351662001ae7565b60408051602080825283518183015283519192839290830191858101910280838360005b838110156200059e57818101518382015260200162000584565b505050509050019250505060405180910390f35b348015620005bf57600080fd5b506200044b62001b5f565b348015620005d757600080fd5b50620005e262001b6e565b6040805161ffff9092168252519081900360200190f35b3480156200060657600080fd5b5062000154600160a060020a036004351660243562001b78565b3480156200062d57600080fd5b506200044b62001e66565b3480156200064557600080fd5b50620005e2600160a060020a036004358116906024351662001e75565b3480156200066f57600080fd5b506200067a62001e96565b6040805160208082528351818301528351919283929083019185019080838360005b83811015620006b65781810151838201526020016200069c565b50505050905090810190601f168015620006e45780820380516001836020036101000a031916815260200191505b509250505060405180910390f35b348015620006ff57600080fd5b5062000154600160a060020a036004351662001f28565b60008060016003541415156200072b57600080fd5b60026003556200073c853362001f33565b336000908152600391909101602052604090205460ff1615156001146200076257600080fd5b620007848462000773873362001f33565b600a01549063ffffffff62001f8516565b62000790863362001f33565b600901541015620007a057600080fd5b6000620007ae863362001f33565b60080154600160a060020a031614620007c657600080fd5b6005546040805160e260020a630547cdcd028152600160a060020a0388811660048301529151919092169163151f37349160248083019260209291908290030181600087803b1580156200081957600080fd5b505af11580156200082e573d6000803e3d6000fd5b505050506040513d60208110156200084557600080fd5b5051600654600a54919350600160a060020a039081169163aa1322f791889186918891620100009004166200087b843362001f33565b600501546200088b8c3362001f33565b600601546200089b8d3362001f33565b600701546005546040805160e060020a63ffffffff8c16028152600160a060020a03998a166004820152978916602489015260448801969096529387166064870152608486019290925260a485015260c48401529290921660e48201523361010482015290516101248083019260209291908290030181600087803b1580156200092457600080fd5b505af115801562000939573d6000803e3d6000fd5b505050506040513d60208110156200095057600080fd5b505190508062000961863362001f33565b600801805473ffffffffffffffffffffffffffffffffffffffff1916600160a060020a03928316179055604080517fd88b8676000000000000000000000000000000000000000000000000000000008152838316600482015290519184169163d88b86769160248082019260009290919082900301818387803b158015620009e857600080fd5b505af1158015620009fd573d6000803e3d6000fd5b50505050600062000a0f863362001f33565b60060154111562000ae257600554600160a060020a031663e1f21c67868362000a5e62000a3d833362001f33565b6006015462000a4d8b3362001f33565b600901549063ffffffff62001f9316565b6040805160e060020a63ffffffff8716028152600160a060020a0394851660048201529290931660248301526044820152905160648083019260209291908290030181600087803b15801562000ab357600080fd5b505af115801562000ac8573d6000803e3d6000fd5b505050506040513d602081101562000adf57600080fd5b50505b62000aee858562001b78565b6040805185815290513391600160a060020a038816917f824239e216016c403265447935e88cc521189d5e9a52754e5c2a16f7436281dc9181900360200190a350506001600355505050565b62000ba8826001836040518082805190602001908083835b6020831062000b735780518252601f19909201916020918201910162000b52565b51815160209384036101000a600019018019909216911617905292019485525060405193849003019092209291505062001fd9565b5050565b6004805460408051602060026001851615610100026000190190941693909304601f810184900484028201840190925281815262000c4a9385939192909183018282801562000c3f5780601f1062000c135761010080835404028352916020019162000c3f565b820191906000526020600020905b81548152906001019060200180831162000c2157829003601f168201915b505050505062001ff1565b50565b600880548290811062000c5c57fe5b6000918252602091829020600c919091020180546040805160026001841615610100026000190190931692909204601f81018590048502830185019091528082529193509183919083018282801562000cf95780601f1062000ccd5761010080835404028352916020019162000cf9565b820191906000526020600020905b81548152906001019060200180831162000cdb57829003601f168201915b505050505090806001018054600181600116156101000203166002900480601f01602080910402602001604051908101604052809291908181526020018280546001816001161561010002031660029004801562000d9b5780601f1062000d6f5761010080835404028352916020019162000d9b565b820191906000526020600020905b81548152906001019060200180831162000d7d57829003601f168201915b50505060028401546004850154600586015460068701546007880154600889015460098a0154600a8b0154600b909b0154999a60ff9097169995985093965091949093600160a060020a039283169392168b565b600062000e5f836001846040518082805190602001908083835b6020831062000e2a5780518252601f19909201916020918201910162000e09565b51815160209384036101000a600019018019909216911617905292019485525060405193849003019092209291505062002109565b90505b92915050565b60048054604080516020601f600260001961010060018816150201909516949094049384018190048102820181019092528281526000939092909183018282801562000ef85780601f1062000ecc5761010080835404028352916020019162000ef8565b820191906000526020600020905b81548152906001019060200180831162000eda57829003601f168201915b5050505050600160a060020a038d16151562000f1357600080fd5b600160a060020a038c16151562000f2957600080fd5b62000f348662002128565b801562000f4b5750606462000f498762002152565b105b151562000f5757600080fd5b62000f628562002128565b801562000f795750606462000f778662002152565b105b151562000f8557600080fd5b62000f908462002128565b801562000fa75750606462000fa58562002152565b105b151562000fb357600080fd5b62000fbe8362002128565b801562000fd55750606462000fd38462002152565b105b151562000fe157600080fd5b8b600160a060020a031662000ff78d8f62001f33565b600b0154600160a060020a031614156200101057600080fd5b6200101c8c8e62001f33565b600160a060020a038e166000908152600391909101602052604090205460ff16156200104757600080fd5b600880549050915081600760008e600160a060020a0316600160a060020a0316815260200190815260200160002060008f600160a060020a0316600160a060020a0316815260200190815260200160002060006101000a81548161ffff021916908361ffff16021790555060088054809190600101620010c8919062002594565b600a60006101000a81548161ffff021916908361ffff160217905550600960008d600160a060020a0316600160a060020a031681526020019081526020016000208d90806001815401808255809150509060018203906000526020600020016000909192909190916101000a815481600160a060020a030219169083600160a060020a0316021790555050600160088361ffff168154811015156200116957fe5b90600052602060002090600c020160030160008f600160a060020a0316600160a060020a0316815260200190815260200160002060006101000a81548160ff0219169083151502179055508a8a60088461ffff16815481101515620011ca57fe5b60009182526020909120620011e693600c9092020191620025c8565b50888860088461ffff16815481101515620011fd57fe5b90600052602060002090600c020160010191906200121d929190620025c8565b508660088361ffff168154811015156200123357fe5b90600052602060002090600c020160020160006101000a81548160ff021916908360ff1602179055508560088361ffff168154811015156200127157fe5b90600052602060002090600c0201600401819055508460088361ffff168154811015156200129b57fe5b90600052602060002090600c0201600501819055508360088361ffff16815481101515620012c557fe5b90600052602060002090600c0201600601819055508260088361ffff16815481101515620012ef57fe5b90600052602060002090600c0201600701819055508b60088361ffff168154811015156200131957fe5b90600052602060002090600c0201600b0160006101000a815481600160a060020a030219169083600160a060020a031602179055508c600160a060020a03168c600160a060020a03167fd3bb7a0fd3c972c824718e5d4fe7501feb58ebd797223783efbfd1d3085d49438d8d8d8d60405180806020018060200183810383528787828181526020019250808284379091018481038352858152602001905085858082843760405192018290039850909650505050505050a350505050505050505050505050565b6000620013ee838362001f33565b60080154600160a060020a03169392505050565b600554600160a060020a03165b90565b600554600160a060020a031681565b60005481565b600a54620100009004600160a060020a031681565b600080600080600060016003541415156200145657600080fd5b6002600355600086116200146957600080fd5b600160a060020a03871615156200147f57600080fd5b86600160a060020a031662001495883362001f33565b600b0154600160a060020a031614620014ad57600080fd5b620014b9873362001f33565b336000908152600391909101602052604090205460ff161515620014dc57600080fd5b604080517fdd62ed3e00000000000000000000000000000000000000000000000000000000815233600482015230602482015290518896508791600160a060020a0388169163dd62ed3e916044808201926020929091908290030181600087803b1580156200154a57600080fd5b505af11580156200155f573d6000803e3d6000fd5b505050506040513d60208110156200157657600080fd5b505110156200158457600080fd5b62001590873362001f33565b93508360020160009054906101000a900460ff1660ff1685600160a060020a031663313ce5676040518163ffffffff1660e060020a028152600401602060405180830381600087803b158015620015e657600080fd5b505af1158015620015fb573d6000803e3d6000fd5b505050506040513d60208110156200161257600080fd5b505160ff16146200162257600080fd5b6000846004015411620016375760006200164f565b60048401546200164f90879063ffffffff62001f9316565b925062001663868463ffffffff6200218a16565b60055490925062001680908690600160a060020a0316846200219d565b600a54620016a0908690620100009004600160a060020a0316856200219d565b6009840154620016b7908363ffffffff62001f8516565b60098501556005546040805160e260020a630547cdcd028152600160a060020a038a8116600483015291516000939092169163151f37349160248082019260209290919082900301818787803b1580156200171157600080fd5b505af115801562001726573d6000803e3d6000fd5b505050506040513d60208110156200173d57600080fd5b5051600160a060020a031614156200191b5760028401548490600182019060ff16620017686200264d565b60ff82166040820152606080825284546002600019610100600184161502019091160490820181905281906020820190608083019087908015620017f05780601f10620017c457610100808354040283529160200191620017f0565b820191906000526020600020905b815481529060010190602001808311620017d257829003601f168201915b5050838103825285546002600019610100600184161502019091160480825260209091019086908015620018685780601f106200183c5761010080835404028352916020019162001868565b820191906000526020600020905b8154815290600101906020018083116200184a57829003601f168201915b505095505050505050604051809103906000f0801580156200188e573d6000803e3d6000fd5b50600554604080517fa0736912000000000000000000000000000000000000000000000000000000008152600160a060020a038b811660048301528085166024830152915193945091169163a07369129160448082019260009290919082900301818387803b1580156200190157600080fd5b505af115801562001916573d6000803e3d6000fd5b505050505b6005546040805160e260020a630547cdcd028152600160a060020a038a811660048301819052925133947f2b11dc5f6b2036a3d03d04c1e89724a8650507582665455ed7154b544f3e3c4f9388939091169163151f3734916024808201926020929091908290030181600087803b1580156200199657600080fd5b505af1158015620019ab573d6000803e3d6000fd5b505050506040513d6020811015620019c257600080fd5b505160408051928352600160a060020a0390911660208301528051918290030190a3505060016003555050505050565b6004805460408051602060026001851615610100026000190190941693909304601f810184900484028201840190925281815262000c4a9385939192909183018282801562001a855780601f1062001a595761010080835404028352916020019162001a85565b820191906000526020600020905b81548152906001019060200180831162001a6757829003601f168201915b505050505062002381565b600254604051600160a060020a03909116907ff8df31144d9c2f0f6b59d69b8b98abd5459d07f2742c4df920b25aae33c6482090600090a26002805473ffffffffffffffffffffffffffffffffffffffff19169055565b600160a060020a03811660009081526009602090815260409182902080548351818402810184019094528084526060939283018282801562001b5357602002820191906000526020600020905b8154600160a060020a0316815260019091019060200180831162001b34575b50505050509050919050565b600254600160a060020a031681565b600a5461ffff1681565b60008080831162001b8857600080fd5b600160a060020a038416151562001b9e57600080fd5b6005546040805160e260020a630547cdcd028152600160a060020a03878116600483015291516000939092169163151f37349160248082019260209290919082900301818787803b15801562001bf357600080fd5b505af115801562001c08573d6000803e3d6000fd5b505050506040513d602081101562001c1f57600080fd5b5051600160a060020a0316141562001c3657600080fd5b600062001c44853362001f33565b60080154600160a060020a0316141562001c5d57600080fd5b62001c69843362001f33565b336000908152600391909101602052604090205460ff16151560011462001c8f57600080fd5b62001ca08362000773863362001f33565b62001cac853362001f33565b60090154101562001cbc57600080fd5b6005546040805160e260020a630547cdcd028152600160a060020a0387811660048301529151919092169163151f37349160248083019260209291908290030181600087803b15801562001d0f57600080fd5b505af115801562001d24573d6000803e3d6000fd5b505050506040513d602081101562001d3b57600080fd5b5051915062001d4b843362001f33565b60080154600160a060020a0316905062001d6b8362000773863362001f33565b62001d77853362001f33565b600a0155604080517fd0047acf000000000000000000000000000000000000000000000000000000008152600160a060020a0383811660048301526024820186905260006044830181905292519085169263d0047acf92606480820193602093909283900390910190829087803b15801562001df257600080fd5b505af115801562001e07573d6000803e3d6000fd5b505050506040513d602081101562001e1e57600080fd5b50506040805184815290513391600160a060020a038716917f9a2331701430ef95fa157fc5598820b278d8225e8a51263887abb0e1e2b06d979181900360200190a350505050565b600654600160a060020a031681565b600760209081526000928352604080842090915290825290205461ffff1681565b6004805460408051602060026001851615610100026000190190941693909304601f8101849004840282018401909252818152929183018282801562001f205780601f1062001ef45761010080835404028352916020019162001f20565b820191906000526020600020905b81548152906001019060200180831162001f0257829003601f168201915b505050505081565b62000c4a8162002459565b600160a060020a03808316600090815260076020908152604080832093851683529290529081205460088054909161ffff1690811062001f6f57fe5b90600052602060002090600c0201905092915050565b8181018281101562000e6257fe5b600062001fa08262002128565b151562001fac57600080fd5b62000e5f62001fba620024d8565b62001fcc858563ffffffff620024ec16565b9063ffffffff6200251916565b62001fe5828262002109565b151562000ba857600080fd5b6200205f826001836040518082805190602001908083835b602083106200202a5780518252601f19909201916020918201910162002009565b51815160209384036101000a60001901801990921691161790529201948552506040519384900301909220929150506200252f565b81600160a060020a03167fd211483f91fc6eff862467f8de606587a30c8fc9981056f051b897a418df803a826040518080602001828103825283818151815260200191508051906020019080838360005b83811015620020ca578181015183820152602001620020b0565b50505050905090810190601f168015620020f85780820380516001836020036101000a031916815260200191505b509250505060405180910390a25050565b600160a060020a03166000908152602091909152604090205460ff1690565b60006200213462002551565b821015801562000e62575062002149620024d8565b82111592915050565b60006200215f8262002128565b15156200216b57600080fd5b62000e626200217962002556565b8390600a0a63ffffffff6200251916565b6000828211156200219757fe5b50900390565b60006200223b8285600160a060020a03166370a08231866040518263ffffffff1660e060020a0281526004018082600160a060020a0316600160a060020a03168152602001915050602060405180830381600087803b1580156200220057600080fd5b505af115801562002215573d6000803e3d6000fd5b505050506040513d60208110156200222c57600080fd5b50519063ffffffff62001f8516565b604080517f23b872dd000000000000000000000000000000000000000000000000000000008152336004820152600160a060020a038681166024830152604482018690529151929350908616916323b872dd916064808201926020929091908290030181600087803b158015620022b157600080fd5b505af1158015620022c6573d6000803e3d6000fd5b505050506040513d6020811015620022dd57600080fd5b5050604080517f70a08231000000000000000000000000000000000000000000000000000000008152600160a060020a038581166004830152915183928716916370a082319160248083019260209291908290030181600087803b1580156200234557600080fd5b505af11580156200235a573d6000803e3d6000fd5b505050506040513d60208110156200237157600080fd5b5051146200237b57fe5b50505050565b620023ef826001836040518082805190602001908083835b60208310620023ba5780518252601f19909201916020918201910162002399565b51815160209384036101000a60001901801990921691161790529201948552506040519384900301909220929150506200255b565b81600160a060020a03167fbfec83d64eaa953f2708271a023ab9ee82057f8f3578d548c1a4ba0b5b7004898260405180806020018281038252838181518152602001915080519060200190808383600083811015620020ca578181015183820152602001620020b0565b600160a060020a03811615156200246f57600080fd5b600254604051600160a060020a038084169216907f8be0079c531659141344cd1fd0a4f28419497f9722a3daafe3b4186f6b6457e090600090a36002805473ffffffffffffffffffffffffffffffffffffffff1916600160a060020a0392909216919091179055565b6000620024e462002580565b600a0a905090565b6000821515620024ff5750600062000e62565b508181028183828115156200251057fe5b041462000e6257fe5b600081838115156200252757fe5b049392505050565b600160a060020a0316600090815260209190915260409020805460ff19169055565b600090565b600290565b600160a060020a0316600090815260209190915260409020805460ff19166001179055565b60006200258c62002556565b600201905090565b815481835581811115620025c357600c0281600c028360005260206000209182019101620025c391906200265e565b505050565b828054600181600116156101000203166002900490600052602060002090601f016020900481019282601f106200260b5782800160ff198235161785556200263b565b828001600101855582156200263b579182015b828111156200263b5782358255916020019190600101906200261e565b5062002649929150620026fc565b5090565b6040516114d7806200276283390190565b6200140f91905b80821115620026495760006200267c828262002719565b6200268c60018301600062002719565b5060028101805460ff1916905560006004820181905560058201819055600682018190556007820181905560088201805473ffffffffffffffffffffffffffffffffffffffff1990811690915560098301829055600a830191909155600b820180549091169055600c0162002665565b6200140f91905b8082111562002649576000815560010162002703565b50805460018160011615610100020316600290046000825580601f1062002741575062000c4a565b601f01602090049060005260206000209081019062000c4a9190620026fc560060806040523480156200001157600080fd5b50604051620014d7380380620014d78339810160409081528151602080840151928401519184018051909493909301928491849184916200005891600091860190620000bf565b5081516200006e906001906020850190620000bf565b506002805433610100810261010060a860020a031960ff90951660ff199384161794909416939093179091556000918252600860205260409091208054909116600117905550620001649350505050565b828054600181600116156101000203166002900490600052602060002090601f016020900481019282601f106200010257805160ff191683800117855562000132565b8280016001018555821562000132579182015b828111156200013257825182559160200191906001019062000115565b506200014092915062000144565b5090565b6200016191905b808211156200014057600081556001016200014b565b90565b61136380620001746000396000f3006080604052600436106101325763ffffffff7c010000000000000000000000000000000000000000000000000000000060003504166306fdde038114610137578063095ea7b3146101c157806318160ddd146101f957806323b872dd1461022057806327e235e31461024a578063313ce5671461026b57806342966c68146102965780634afbf5ee146102b057806366188463146102d457806370a08231146102f8578063715018a61461031957806379cc67901461032e5780638da5cb5b1461035257806395d89b41146103835780639d2e477714610398578063a9059cbb146103c5578063ba0e0f5e146103e9578063d0047acf1461040a578063d294cb0f14610437578063d73dd62314610458578063d88b86761461047c578063dd62ed3e1461049d578063f2fde38b146104c4575b600080fd5b34801561014357600080fd5b5061014c6104e5565b6040805160208082528351818301528351919283929083019185019080838360005b8381101561018657818101518382015260200161016e565b50505050905090810190601f1680156101b35780820380516001836020036101000a031916815260200191505b509250505060405180910390f35b3480156101cd57600080fd5b506101e5600160a060020a0360043516602435610573565b604080519115158252519081900360200190f35b34801561020557600080fd5b5061020e6105d9565b60408051918252519081900360200190f35b34801561022c57600080fd5b506101e5600160a060020a03600435811690602435166044356105df565b34801561025657600080fd5b5061020e600160a060020a036004351661073f565b34801561027757600080fd5b50610280610751565b6040805160ff9092168252519081900360200190f35b3480156102a257600080fd5b506102ae60043561075a565b005b3480156102bc57600080fd5b5061020e600160a060020a0360043516602435610767565b3480156102e057600080fd5b506101e5600160a060020a0360043516602435610784565b34801561030457600080fd5b5061020e600160a060020a0360043516610873565b34801561032557600080fd5b506102ae61088e565b34801561033a57600080fd5b506102ae600160a060020a0360043516602435610906565b34801561035e57600080fd5b5061036761099c565b60408051600160a060020a039092168252519081900360200190f35b34801561038f57600080fd5b5061014c6109b0565b3480156103a457600080fd5b506101e5600160a060020a036004351660243563ffffffff60443516610a0a565b3480156103d157600080fd5b506101e5600160a060020a0360043516602435610ab6565b3480156103f557600080fd5b506102ae600160a060020a0360043516610b89565b34801561041657600080fd5b506101e5600160a060020a036004351660243563ffffffff60443516610bc6565b34801561044357600080fd5b5061020e600160a060020a0360043516610cef565b34801561046457600080fd5b506101e5600160a060020a0360043516602435610df4565b34801561048857600080fd5b506102ae600160a060020a0360043516610e8d565b3480156104a957600080fd5b5061020e600160a060020a0360043581169060243516610ecd565b3480156104d057600080fd5b506102ae600160a060020a0360043516610ef8565b6000805460408051602060026001851615610100026000190190941693909304601f8101849004840282018401909252818152929183018282801561056b5780601f106105405761010080835404028352916020019161056b565b820191906000526020600020905b81548152906001019060200180831161054e57829003601f168201915b505050505081565b336000818152600360209081526040808320600160a060020a038716808552908352818420869055815186815291519394909390927f8c5be1e5ebec7d5bd14f71427d1e84f3dd0314c0f7b2291e5b200ac8c7c3b925928290030190a350600192915050565b60055490565b60006105ea84610f1d565b600160a060020a03831615156105ff57600080fd5b61060884610cef565b82111561061457600080fd5b600160a060020a038416600090815260036020908152604080832033845290915290205482111561064457600080fd5b600160a060020a03841660009081526004602052604090205461066d908363ffffffff61108c16565b600160a060020a0380861660009081526004602052604080822093909355908516815220546106a2908363ffffffff61109e16565b600160a060020a0380851660009081526004602090815260408083209490945591871681526003825282812033825290915220546106e6908363ffffffff61108c16565b600160a060020a0380861660008181526003602090815260408083203384528252918290209490945580518681529051928716939192600080516020611318833981519152929181900390910190a35060019392505050565b60046020526000908152604090205481565b60025460ff1681565b61076433826110b1565b50565b600660209081526000928352604080842090915290825290205481565b336000908152600360209081526040808320600160a060020a03861684529091528120548083106107d857336000908152600360209081526040808320600160a060020a038816845290915281205561080d565b6107e8818463ffffffff61108c16565b336000908152600360209081526040808320600160a060020a03891684529091529020555b336000818152600360209081526040808320600160a060020a0389168085529083529281902054815190815290519293927f8c5be1e5ebec7d5bd14f71427d1e84f3dd0314c0f7b2291e5b200ac8c7c3b925929181900390910190a35060019392505050565b600160a060020a031660009081526004602052604090205490565b6002546101009004600160a060020a031633146108aa57600080fd5b600254604051610100909104600160a060020a0316907ff8df31144d9c2f0f6b59d69b8b98abd5459d07f2742c4df920b25aae33c6482090600090a26002805474ffffffffffffffffffffffffffffffffffffffff0019169055565b600160a060020a038216600090815260036020908152604080832033845290915290205481111561093657600080fd5b600160a060020a038216600090815260036020908152604080832033845290915290205461096a908263ffffffff61108c16565b600160a060020a038316600090815260036020908152604080832033845290915290205561099882826110b1565b5050565b6002546101009004600160a060020a031681565b60018054604080516020600284861615610100026000190190941693909304601f8101849004840282018401909252818152929183018282801561056b5780601f106105405761010080835404028352916020019161056b565b3360008181526008602052604081205490919060ff161515610a2b57600080fd5b610a358585610ab6565b50428363ffffffff161115610a5757610a576000868563ffffffff1687611199565b60408051338152600160a060020a038716602082015280820186905263ffffffff8516606082015290517f5075049792a88eedfe4e60bb3ffeac77b4fa7f03108b81fb0b460161b983e2009181900360800190a1506001949350505050565b6000610ac133610f1d565b600160a060020a0383161515610ad657600080fd5b610adf33610cef565b821115610aeb57600080fd5b33600090815260046020526040902054610b0b908363ffffffff61108c16565b3360009081526004602052604080822092909255600160a060020a03851681522054610b3d908363ffffffff61109e16565b600160a060020a0384166000818152600460209081526040918290209390935580518581529051919233926000805160206113188339815191529281900390910190a350600192915050565b6002546101009004600160a060020a03163314610ba557600080fd5b600160a060020a03166000908152600860205260409020805460ff19169055565b3360008181526008602052604081205490919060ff161515610be757600080fd5b600160a060020a038516600090815260046020526040902054610c10908563ffffffff61109e16565b600160a060020a038616600090815260046020526040902055600554610c3c908563ffffffff61109e16565b6005554263ffffffff84161115610c6057610c606000868563ffffffff1687611199565b604080518581529051600160a060020a038716916000916000805160206113188339815191529181900360200190a36040805160008152600160a060020a038716602082015280820186905263ffffffff8516606082015290517f5075049792a88eedfe4e60bb3ffeac77b4fa7f03108b81fb0b460161b983e2009181900360800190a1506001949350505050565b600160a060020a038116600090815260046020908152604080832054600683528184208480529092528220549091901515610d2957610dee565b5060005b600160a060020a038316600090815260076020526040902054811015610dee57600160a060020a0383166000908152600760205260409020805442919083908110610d7457fe5b9060005260206000200154101515610de657600160a060020a0383166000908152600660209081526040808320600790925282208054610de393919085908110610dba57fe5b90600052602060002001548152602001908152602001600020548361108c90919063ffffffff16565b91505b600101610d2d565b50919050565b336000908152600360209081526040808320600160a060020a0386168452909152812054610e28908363ffffffff61109e16565b336000818152600360209081526040808320600160a060020a0389168085529083529281902085905580519485525191937f8c5be1e5ebec7d5bd14f71427d1e84f3dd0314c0f7b2291e5b200ac8c7c3b925929081900390910190a350600192915050565b6002546101009004600160a060020a03163314610ea957600080fd5b600160a060020a03166000908152600860205260409020805460ff19166001179055565b600160a060020a03918216600090815260036020908152604080832093909416825291909152205490565b6002546101009004600160a060020a03163314610f1457600080fd5b6107648161128e565b600160a060020a03811660009081526006602090815260408083208380529091528120541515610f4c57610998565b5060005b600160a060020a03821660009081526007602052604090205481101561099857600160a060020a0382166000908152600760205260409020805442919083908110610f9757fe5b9060005260206000200154101561108457600160a060020a038216600090815260066020908152604080832060079092528220805461102293919085908110610fdc57fe5b60009182526020808320909101548352828101939093526040918201812054600160a060020a03871682526006845282822082805290935220549063ffffffff61108c16565b600160a060020a0383166000818152600660209081526040808320838052808352818420959095559282526007905290812080549192918391908590811061106657fe5b90600052602060002001548152602001908152602001600020819055505b600101610f50565b60008282111561109857fe5b50900390565b818101828110156110ab57fe5b92915050565b6110ba82610f1d565b6110c382610cef565b8111156110cf57600080fd5b600160a060020a0382166000908152600460205260409020546110f8908263ffffffff61108c16565b600160a060020a038316600090815260046020526040902055600554611124908263ffffffff61108c16565b600555604080518281529051600160a060020a038416917fcc16f5dbb4873280815c1ee09dbd06736cffcc184412cf7a71a0fdb75d397ca5919081900360200190a2604080518281529051600091600160a060020a038516916000805160206113188339815191529181900360200190a35050565b600160a060020a03831660009081526006602090815260408083208380529091529020546111cd908263ffffffff61109e16565b600160a060020a0384166000908152600660209081526040808320838052909152808220929092558381522054151561122c57600160a060020a0383166000908152600760209081526040822080546001810182559083529120018290555b600160a060020a0383166000908152600660209081526040808320858452909152902054611260908263ffffffff61109e16565b600160a060020a03909316600090815260066020908152604080832094835293905291909120919091555050565b600160a060020a03811615156112a357600080fd5b600254604051600160a060020a0380841692610100900416907f8be0079c531659141344cd1fd0a4f28419497f9722a3daafe3b4186f6b6457e090600090a360028054600160a060020a039092166101000274ffffffffffffffffffffffffffffffffffffffff00199092169190911790555600ddf252ad1be2c89b69c2b068fc378daa952ba7f163c4a11628f55a4df523b3efa165627a7a723058207ed8212a2a08f0fa293602295852c4ae6cf2cb009a09d522699acc03355e812a0029a165627a7a723058201d3e0a2eaafacf216726e236b8a2333b466797ec9a76c6debd2bb30e43f8f6680029",
  "source": "pragma solidity ^0.4.24;\n\nimport \"./W12Lister.sol\";\nimport \"./token/exchanger/ITokenExchanger.sol\";\n\ncontract W12ListerStub is W12Lister {\n\n    /**\n    * @dev Allows for any account besides the owner.\n    */\n    modifier onlyOwner() {\n        _;\n    }\n\n    modifier onlyRole(string _role) {\n        _;\n    }\n\n    constructor(\n        uint version,\n        IW12CrowdsaleFactory _factory,\n        ITokenExchanger _exchanger\n    ) W12Lister(version, msg.sender, _factory, _exchanger) public { }\n}\n",
  "sourcePath": "/c/Users/Mr.Hokid/projects/work/w12-product-contracts/contracts/W12ListerStub.sol",
  "compiler": {
    "name": "solc",
    "version": "0.4.24+commit.e67f0147.Emscripten.clang"
  },
  "schemaVersion": "2.0.1",
  "updatedAt": "2018-11-14T15:43:09.305Z"
}