{
  "contractName": "W12Lister__W12CrowdsaleMock",
  "abi": [
    {
      "constant": true,
      "inputs": [],
      "name": "_addAdminCall",
      "outputs": [
        {
          "name": "",
          "type": "address"
        }
      ],
      "payable": false,
      "stateMutability": "view",
      "type": "function"
    },
    {
      "constant": true,
      "inputs": [
        {
          "name": "",
          "type": "uint256"
        }
      ],
      "name": "__updatePurchaseFeeParameterForPaymentMethodCalls",
      "outputs": [
        {
          "name": "method",
          "type": "bytes32"
        },
        {
          "name": "has",
          "type": "bool"
        },
        {
          "name": "value",
          "type": "uint256"
        }
      ],
      "payable": false,
      "stateMutability": "view",
      "type": "function"
    },
    {
      "inputs": [],
      "payable": false,
      "stateMutability": "nonpayable",
      "type": "constructor"
    },
    {
      "payable": true,
      "stateMutability": "payable",
      "type": "fallback"
    },
    {
      "constant": true,
      "inputs": [
        {
          "name": "account",
          "type": "address"
        }
      ],
      "name": "isAdmin",
      "outputs": [
        {
          "name": "",
          "type": "bool"
        }
      ],
      "payable": false,
      "stateMutability": "view",
      "type": "function"
    },
    {
      "constant": false,
      "inputs": [
        {
          "name": "account",
          "type": "address"
        }
      ],
      "name": "addAdmin",
      "outputs": [],
      "payable": false,
      "stateMutability": "nonpayable",
      "type": "function"
    },
    {
      "constant": false,
      "inputs": [],
      "name": "renounceAdmin",
      "outputs": [],
      "payable": false,
      "stateMutability": "nonpayable",
      "type": "function"
    },
    {
      "constant": false,
      "inputs": [
        {
          "name": "account",
          "type": "address"
        }
      ],
      "name": "removeAdmin",
      "outputs": [],
      "payable": false,
      "stateMutability": "nonpayable",
      "type": "function"
    },
    {
      "constant": true,
      "inputs": [
        {
          "name": "account",
          "type": "address"
        }
      ],
      "name": "isProjectOwner",
      "outputs": [
        {
          "name": "",
          "type": "bool"
        }
      ],
      "payable": false,
      "stateMutability": "view",
      "type": "function"
    },
    {
      "constant": false,
      "inputs": [
        {
          "name": "account",
          "type": "address"
        }
      ],
      "name": "addProjectOwner",
      "outputs": [],
      "payable": false,
      "stateMutability": "nonpayable",
      "type": "function"
    },
    {
      "constant": false,
      "inputs": [],
      "name": "renounceProjectOwner",
      "outputs": [],
      "payable": false,
      "stateMutability": "nonpayable",
      "type": "function"
    },
    {
      "constant": false,
      "inputs": [
        {
          "name": "account",
          "type": "address"
        }
      ],
      "name": "removeProjectOwner",
      "outputs": [],
      "payable": false,
      "stateMutability": "nonpayable",
      "type": "function"
    },
    {
      "constant": true,
      "inputs": [],
      "name": "getFund",
      "outputs": [
        {
          "name": "",
          "type": "address"
        }
      ],
      "payable": false,
      "stateMutability": "view",
      "type": "function"
    },
    {
      "constant": false,
      "inputs": [
        {
          "name": "price",
          "type": "uint256"
        }
      ],
      "name": "setParameters",
      "outputs": [],
      "payable": false,
      "stateMutability": "nonpayable",
      "type": "function"
    },
    {
      "constant": true,
      "inputs": [],
      "name": "_updatePurchaseFeeParameterForPaymentMethodCallsLength",
      "outputs": [
        {
          "name": "",
          "type": "uint256"
        }
      ],
      "payable": false,
      "stateMutability": "view",
      "type": "function"
    },
    {
      "constant": true,
      "inputs": [
        {
          "name": "index",
          "type": "uint256"
        }
      ],
      "name": "_updatePurchaseFeeParameterForPaymentMethodCall",
      "outputs": [
        {
          "name": "",
          "type": "bytes32"
        },
        {
          "name": "",
          "type": "bool"
        },
        {
          "name": "",
          "type": "uint256"
        }
      ],
      "payable": false,
      "stateMutability": "view",
      "type": "function"
    },
    {
      "constant": false,
      "inputs": [
        {
          "name": "method",
          "type": "bytes32"
        },
        {
          "name": "has",
          "type": "bool"
        },
        {
          "name": "value",
          "type": "uint256"
        }
      ],
      "name": "updatePurchaseFeeParameterForPaymentMethod",
      "outputs": [],
      "payable": false,
      "stateMutability": "nonpayable",
      "type": "function"
    },
    {
      "constant": true,
      "inputs": [
        {
          "name": "method",
          "type": "bytes32"
        }
      ],
      "name": "getPurchaseFeeParameterForPaymentMethod",
      "outputs": [
        {
          "name": "",
          "type": "bool"
        },
        {
          "name": "",
          "type": "uint256"
        }
      ],
      "payable": false,
      "stateMutability": "view",
      "type": "function"
    },
    {
      "constant": true,
      "inputs": [
        {
          "name": "method",
          "type": "bytes32"
        }
      ],
      "name": "getPurchaseFeeForPaymentMethod",
      "outputs": [
        {
          "name": "",
          "type": "uint256"
        }
      ],
      "payable": false,
      "stateMutability": "view",
      "type": "function"
    },
    {
      "constant": false,
      "inputs": [
        {
          "name": "_address",
          "type": "address"
        }
      ],
      "name": "transferPrimary",
      "outputs": [],
      "payable": false,
      "stateMutability": "nonpayable",
      "type": "function"
    },
    {
      "constant": false,
      "inputs": [
        {
          "name": "parametersOfStages",
          "type": "uint256[6][]"
        },
        {
          "name": "bonusConditionsOfStages",
          "type": "uint256[]"
        },
        {
          "name": "parametersOfMilestones",
          "type": "uint256[4][]"
        },
        {
          "name": "nameAndDescriptionsOffsetOfMilestones",
          "type": "uint32[]"
        },
        {
          "name": "nameAndDescriptionsOfMilestones",
          "type": "bytes"
        },
        {
          "name": "paymentMethodsList",
          "type": "bytes32[]"
        }
      ],
      "name": "setup",
      "outputs": [],
      "payable": false,
      "stateMutability": "nonpayable",
      "type": "function"
    },
    {
      "constant": true,
      "inputs": [],
      "name": "getWToken",
      "outputs": [
        {
          "name": "",
          "type": "address"
        }
      ],
      "payable": false,
      "stateMutability": "view",
      "type": "function"
    },
    {
      "constant": true,
      "inputs": [
        {
          "name": "index",
          "type": "uint256"
        }
      ],
      "name": "getMilestone",
      "outputs": [
        {
          "name": "",
          "type": "uint32"
        },
        {
          "name": "",
          "type": "uint256"
        },
        {
          "name": "",
          "type": "uint32"
        },
        {
          "name": "",
          "type": "uint32"
        },
        {
          "name": "",
          "type": "bytes"
        },
        {
          "name": "",
          "type": "bytes"
        }
      ],
      "payable": false,
      "stateMutability": "view",
      "type": "function"
    },
    {
      "constant": true,
      "inputs": [
        {
          "name": "index",
          "type": "uint256"
        }
      ],
      "name": "getStage",
      "outputs": [
        {
          "name": "",
          "type": "uint32"
        },
        {
          "name": "",
          "type": "uint32"
        },
        {
          "name": "",
          "type": "uint256"
        },
        {
          "name": "",
          "type": "uint32"
        },
        {
          "name": "",
          "type": "uint256[]"
        },
        {
          "name": "",
          "type": "uint256[]"
        }
      ],
      "payable": false,
      "stateMutability": "view",
      "type": "function"
    },
    {
      "constant": true,
      "inputs": [],
      "name": "getCurrentMilestoneIndex",
      "outputs": [
        {
          "name": "",
          "type": "uint256"
        },
        {
          "name": "",
          "type": "bool"
        }
      ],
      "payable": false,
      "stateMutability": "view",
      "type": "function"
    },
    {
      "constant": true,
      "inputs": [],
      "name": "getLastMilestoneIndex",
      "outputs": [
        {
          "name": "index",
          "type": "uint256"
        },
        {
          "name": "found",
          "type": "bool"
        }
      ],
      "payable": false,
      "stateMutability": "view",
      "type": "function"
    },
    {
      "constant": true,
      "inputs": [],
      "name": "milestonesLength",
      "outputs": [
        {
          "name": "",
          "type": "uint256"
        }
      ],
      "payable": false,
      "stateMutability": "view",
      "type": "function"
    },
    {
      "constant": true,
      "inputs": [],
      "name": "getCurrentStageIndex",
      "outputs": [
        {
          "name": "index",
          "type": "uint256"
        },
        {
          "name": "found",
          "type": "bool"
        }
      ],
      "payable": false,
      "stateMutability": "view",
      "type": "function"
    },
    {
      "constant": true,
      "inputs": [
        {
          "name": "value",
          "type": "uint256"
        }
      ],
      "name": "getSaleVolumeBonus",
      "outputs": [
        {
          "name": "bonus",
          "type": "uint256"
        }
      ],
      "payable": false,
      "stateMutability": "view",
      "type": "function"
    },
    {
      "constant": true,
      "inputs": [],
      "name": "isEnded",
      "outputs": [
        {
          "name": "",
          "type": "bool"
        }
      ],
      "payable": false,
      "stateMutability": "view",
      "type": "function"
    },
    {
      "constant": true,
      "inputs": [],
      "name": "isSaleActive",
      "outputs": [
        {
          "name": "",
          "type": "bool"
        }
      ],
      "payable": false,
      "stateMutability": "view",
      "type": "function"
    },
    {
      "constant": false,
      "inputs": [
        {
          "name": "method",
          "type": "bytes32"
        },
        {
          "name": "amount",
          "type": "uint256"
        }
      ],
      "name": "buyTokens",
      "outputs": [],
      "payable": true,
      "stateMutability": "payable",
      "type": "function"
    }
  ],
  "bytecode": "0x608060405234801561001057600080fd5b5061001961005b565b604051809103906000f080158015610035573d6000803e3d6000fd5b5060008054600160a060020a031916600160a060020a039290921691909117905561006b565b60405161024f806108ed83390190565b6108738061007a6000396000f30060806040526004361061017f5763ffffffff7c010000000000000000000000000000000000000000000000000000000060003504166307f5d6338114610181578063100bcb931461018f57806314f66d34146101b65780631785f53c146101e4578063208853c9146102055780632348238c146101e45780632442e1cb1461021d57806324d7806c146103535780632784bb7b146103885780632e325020146103bb57806339e69a6c146104ac5780633baba4d7146104dd5780633bcdb164146101e45780633dbd6721146102055780634090cb64146104f2578063564566a81461050757806359e377491461051c578063704802751461053c5780638bad0c0a1461055d5780638edd6eb614610572578063a4fd6f5614610507578063a7de99ee14610587578063d0934d611461055d578063d155790b146101e4578063d26aeff0146105bd578063d5b22623146105d5578063d6d65f3d146101b6578063d8e9ce6414610353578063daa4cf88146101b6578063e93b054014610631575b005b61017f600435602435610649565b34801561019b57600080fd5b506101a461064d565b60408051918252519081900360200190f35b3480156101c257600080fd5b506101cb610653565b6040805192835290151560208301528051918290030190f35b3480156101f057600080fd5b5061017f600160a060020a036004351661065a565b34801561021157600080fd5b506101a460043561065d565b34801561022957600080fd5b50610235600435610663565b604051808763ffffffff1663ffffffff1681526020018681526020018563ffffffff1663ffffffff1681526020018463ffffffff1663ffffffff1681526020018060200180602001838103835285818151815260200191508051906020019080838360005b838110156102b257818101518382015260200161029a565b50505050905090810190601f1680156102df5780820380516001836020036101000a031916815260200191505b50838103825284518152845160209182019186019080838360005b838110156103125781810151838201526020016102fa565b50505050905090810190601f16801561033f5780820380516001836020036101000a031916815260200191505b509850505050505050505060405180910390f35b34801561035f57600080fd5b50610374600160a060020a036004351661065d565b604080519115158252519081900360200190f35b34801561039457600080fd5b506103a0600435610675565b60408051921515835260208301919091528051918290030190f35b3480156103c757600080fd5b506103d3600435610663565b604051808763ffffffff1663ffffffff1681526020018663ffffffff1663ffffffff1681526020018581526020018463ffffffff1663ffffffff1681526020018060200180602001838103835285818151815260200191508051906020019060200280838360005b8381101561045357818101518382015260200161043b565b50505050905001838103825284818151815260200191508051906020019060200280838360005b8381101561049257818101518382015260200161047a565b505050509050019850505050505050505060405180910390f35b3480156104b857600080fd5b506104c161067d565b60408051600160a060020a039092168252519081900360200190f35b3480156104e957600080fd5b506101a461068c565b3480156104fe57600080fd5b506104c161068c565b34801561051357600080fd5b5061037461068c565b34801561052857600080fd5b5061017f6004356024351515604435610691565b34801561054857600080fd5b5061017f600160a060020a0360043516610746565b34801561056957600080fd5b5061017f610775565b34801561057e57600080fd5b506104c1610777565b34801561059357600080fd5b5061059f600435610786565b60408051938452911515602084015282820152519081900360600190f35b3480156105c957600080fd5b5061059f6004356107bd565b3480156105e157600080fd5b5061017f602460048035828101929082013591813580830192908201359160443580830192908201359160643580830192908201359160843580830192908201359160a435918201910135610839565b34801561063d57600080fd5b5061017f60043561065a565b5050565b60025490565b6000809091565b50565b50600090565b60008060008060608091939550919395565b600080915091565b600154600160a060020a031681565b600090565b60408051606081018252938452911515602084019081529183019081526002805460018101825560009190915292517f405787fa12a823e0f2b7631cc41b3ba8828b3321ca811111fa75cd3aa3bb5ace60039094029384015590517f405787fa12a823e0f2b7631cc41b3ba8828b3321ca811111fa75cd3aa3bb5acf8301805460ff1916911515919091179055517f405787fa12a823e0f2b7631cc41b3ba8828b3321ca811111fa75cd3aa3bb5ad090910155565b6001805473ffffffffffffffffffffffffffffffffffffffff1916600160a060020a0392909216919091179055565b565b600054600160a060020a031690565b600280548290811061079457fe5b600091825260209091206003909102018054600182015460029092015490925060ff9091169083565b60008060006002848154811015156107d157fe5b9060005260206000209060030201600001546002858154811015156107f257fe5b60009182526020909120600160039092020101546002805460ff909216918790811061081a57fe5b9060005260206000209060030201600201549250925092509193909250565b5050505050505050505050505600a165627a7a723058206d6b3448ab4a8713b75c2c68d82e8a1f33911ac98ea3157bf5073d1071eb2dfc0029608060405234801561001057600080fd5b5061022f806100206000396000f3006080604052600436106100cf5763ffffffff7c01000000000000000000000000000000000000000000000000000000006000350416631785f53c81146100d45780632348238c146100d457806323bffccc146100d457806324d7806c146100f757806339e69a6c1461012c5780633bcdb164146100d4578063483a20b2146100d4578063704802751461015d5780638bad0c0a1461017e578063acb3c073146100d4578063d0934d611461017e578063d0baf2f514610193578063d155790b146100d4578063d8e9ce64146100f7575b600080fd5b3480156100e057600080fd5b506100f5600160a060020a03600435166101b3565b005b34801561010357600080fd5b50610118600160a060020a03600435166101b6565b604080519115158252519081900360200190f35b34801561013857600080fd5b506101416101bc565b60408051600160a060020a039092168252519081900360200190f35b34801561016957600080fd5b506100f5600160a060020a03600435166101cb565b34801561018a57600080fd5b506100f56101fa565b6100f5600160a060020a03600435166024356044356064356084356101fc565b50565b50600090565b600054600160a060020a031681565b6000805473ffffffffffffffffffffffffffffffffffffffff1916600160a060020a0392909216919091179055565b565b50505050505600a165627a7a72305820a324b96e13b9834297d1ae653df871c3c17dd643d0f76bf82e803a33810e92630029",
  "source": "pragma solidity 0.4.24;\n\nimport \"../../crowdsale/IW12Crowdsale.sol\";\nimport \"../../crowdsale/IW12Fund.sol\";\nimport \"./W12Lister__W12FundMock.sol\";\n\n\ncontract W12Lister__W12CrowdsaleMock is IW12Crowdsale {\n    IW12Fund private _fund;\n\n    constructor() public {\n        _fund = new W12Lister__W12FundMock();\n    }\n\n    function isAdmin(address account) public view returns (bool) {}\n\n    address public _addAdminCall;\n\n    function addAdmin(address account) public {\n        _addAdminCall = account;\n    }\n\n    function renounceAdmin() public {}\n\n    function removeAdmin(address account) public {}\n\n    function isProjectOwner(address account) public view returns (bool) {}\n\n    function addProjectOwner(address account) public {}\n\n    function renounceProjectOwner() public {}\n\n    function removeProjectOwner(address account) public {}\n\n    function getFund() external view returns (IW12Fund) {\n        return _fund;\n    }\n\n    function setParameters(uint price) external {}\n\n    struct UpdatePurchaseFeeParameterForPaymentMethodCall {\n        bytes32 method;\n        bool has;\n        uint value;\n    }\n\n    UpdatePurchaseFeeParameterForPaymentMethodCall[] public __updatePurchaseFeeParameterForPaymentMethodCalls;\n\n    function _updatePurchaseFeeParameterForPaymentMethodCallsLength() public view returns(uint) {\n        return __updatePurchaseFeeParameterForPaymentMethodCalls.length;\n    }\n\n    function _updatePurchaseFeeParameterForPaymentMethodCall(uint index) public view returns (bytes32, bool, uint) {\n        return (\n            __updatePurchaseFeeParameterForPaymentMethodCalls[index].method,\n            __updatePurchaseFeeParameterForPaymentMethodCalls[index].has,\n            __updatePurchaseFeeParameterForPaymentMethodCalls[index].value\n        );\n    }\n\n    function updatePurchaseFeeParameterForPaymentMethod(bytes32 method, bool has, uint value) public {\n        __updatePurchaseFeeParameterForPaymentMethodCalls.push(\n            UpdatePurchaseFeeParameterForPaymentMethodCall(method, has, value)\n        );\n    }\n\n    function getPurchaseFeeParameterForPaymentMethod(bytes32 method) public view returns (bool, uint) {}\n\n    function getPurchaseFeeForPaymentMethod(bytes32 method) public view returns (uint) {}\n\n    function transferPrimary(address _address) public {}\n\n    function setup(\n        uint[6][] parametersOfStages,\n        uint[] bonusConditionsOfStages,\n        uint[4][] parametersOfMilestones,\n        uint32[] nameAndDescriptionsOffsetOfMilestones,\n        bytes nameAndDescriptionsOfMilestones,\n        bytes32[] paymentMethodsList\n    ) external {}\n\n    function getWToken() external view returns (IWToken) {}\n\n    function getMilestone(uint index) public view returns (uint32, uint, uint32, uint32, bytes, bytes) {}\n\n    function getStage(uint index) public view returns (uint32, uint32, uint, uint32, uint[], uint[]) {}\n\n    function getCurrentMilestoneIndex() public view returns (uint, bool) {}\n\n    function getLastMilestoneIndex() public view returns (uint index, bool found) {}\n\n    function milestonesLength() external view returns (uint) {}\n\n    function getCurrentStageIndex() public view returns (uint index, bool found) {}\n\n    function getSaleVolumeBonus(uint value) public view returns (uint bonus) {}\n\n    function isEnded() public view returns (bool) {}\n\n    function isSaleActive() public view returns (bool) {}\n\n    function() payable external {}\n\n    function buyTokens(bytes32 method, uint amount) payable public {}\n}\n",
  "sourcePath": "/Users/gauss/_games/w12/Protocol/contracts/mocks/lister/W12Lister__W12CrowdsaleMock.sol",
  "compiler": {
    "name": "solc",
    "version": "0.4.24+commit.e67f0147.Emscripten.clang"
  },
  "schemaVersion": "2.0.1",
  "updatedAt": "2019-07-23T16:35:21.210Z"
}