{
  "contractName": "W12Lister",
  "abi": [
    {
      "constant": false,
      "inputs": [
        {
          "name": "recipient",
          "type": "address"
        }
      ],
      "name": "transferPrimary",
      "outputs": [],
      "payable": false,
      "stateMutability": "nonpayable",
      "type": "function"
    },
    {
      "constant": true,
      "inputs": [
        {
          "name": "account",
          "type": "address"
        }
      ],
      "name": "isAdmin",
      "outputs": [
        {
          "name": "",
          "type": "bool"
        }
      ],
      "payable": false,
      "stateMutability": "view",
      "type": "function"
    },
    {
      "constant": true,
      "inputs": [],
      "name": "exchanger",
      "outputs": [
        {
          "name": "",
          "type": "address"
        }
      ],
      "payable": false,
      "stateMutability": "view",
      "type": "function"
    },
    {
      "constant": true,
      "inputs": [],
      "name": "version",
      "outputs": [
        {
          "name": "",
          "type": "uint256"
        }
      ],
      "payable": false,
      "stateMutability": "view",
      "type": "function"
    },
    {
      "constant": false,
      "inputs": [],
      "name": "renounceAdmin",
      "outputs": [],
      "payable": false,
      "stateMutability": "nonpayable",
      "type": "function"
    },
    {
      "constant": true,
      "inputs": [],
      "name": "factory",
      "outputs": [
        {
          "name": "",
          "type": "address"
        }
      ],
      "payable": false,
      "stateMutability": "view",
      "type": "function"
    },
    {
      "constant": true,
      "inputs": [],
      "name": "primary",
      "outputs": [
        {
          "name": "",
          "type": "address"
        }
      ],
      "payable": false,
      "stateMutability": "view",
      "type": "function"
    },
    {
      "constant": true,
      "inputs": [],
      "name": "wallets",
      "outputs": [
        {
          "name": "",
          "type": "address"
        }
      ],
      "payable": false,
      "stateMutability": "view",
      "type": "function"
    },
    {
      "constant": true,
      "inputs": [],
      "name": "lister_factory",
      "outputs": [
        {
          "name": "",
          "type": "address"
        }
      ],
      "payable": false,
      "stateMutability": "view",
      "type": "function"
    },
    {
      "inputs": [
        {
          "name": "version",
          "type": "uint256"
        },
        {
          "name": "_wallets",
          "type": "address"
        },
        {
          "name": "_factory",
          "type": "address"
        },
        {
          "name": "_exchanger",
          "type": "address"
        },
        {
          "name": "_lister_factory",
          "type": "address"
        }
      ],
      "payable": false,
      "stateMutability": "nonpayable",
      "type": "constructor"
    },
    {
      "anonymous": false,
      "inputs": [
        {
          "indexed": true,
          "name": "tokenAddress",
          "type": "address"
        },
        {
          "indexed": true,
          "name": "tokenOwner",
          "type": "address"
        }
      ],
      "name": "OwnerWhitelisted",
      "type": "event"
    },
    {
      "anonymous": false,
      "inputs": [
        {
          "indexed": true,
          "name": "token",
          "type": "address"
        },
        {
          "indexed": true,
          "name": "sender",
          "type": "address"
        },
        {
          "indexed": false,
          "name": "owners",
          "type": "address[]"
        }
      ],
      "name": "TokenWhitelisted",
      "type": "event"
    },
    {
      "anonymous": false,
      "inputs": [
        {
          "indexed": true,
          "name": "token",
          "type": "address"
        },
        {
          "indexed": true,
          "name": "sender",
          "type": "address"
        },
        {
          "indexed": false,
          "name": "crowdsale",
          "type": "address"
        },
        {
          "indexed": false,
          "name": "amountForSale",
          "type": "uint256"
        }
      ],
      "name": "CrowdsaleInitialized",
      "type": "event"
    },
    {
      "anonymous": false,
      "inputs": [
        {
          "indexed": true,
          "name": "token",
          "type": "address"
        },
        {
          "indexed": true,
          "name": "sender",
          "type": "address"
        },
        {
          "indexed": false,
          "name": "crowdsale",
          "type": "address"
        },
        {
          "indexed": false,
          "name": "amount",
          "type": "uint256"
        }
      ],
      "name": "CrowdsaleTokenMinted",
      "type": "event"
    },
    {
      "anonymous": false,
      "inputs": [
        {
          "indexed": false,
          "name": "recipient",
          "type": "address"
        }
      ],
      "name": "PrimaryTransferred",
      "type": "event"
    },
    {
      "anonymous": false,
      "inputs": [
        {
          "indexed": true,
          "name": "account",
          "type": "address"
        }
      ],
      "name": "AdminAdded",
      "type": "event"
    },
    {
      "anonymous": false,
      "inputs": [
        {
          "indexed": true,
          "name": "account",
          "type": "address"
        }
      ],
      "name": "AdminRemoved",
      "type": "event"
    },
    {
      "constant": false,
      "inputs": [
        {
          "name": "_account",
          "type": "address"
        }
      ],
      "name": "addAdmin",
      "outputs": [],
      "payable": false,
      "stateMutability": "nonpayable",
      "type": "function"
    },
    {
      "constant": false,
      "inputs": [
        {
          "name": "_account",
          "type": "address"
        }
      ],
      "name": "removeAdmin",
      "outputs": [],
      "payable": false,
      "stateMutability": "nonpayable",
      "type": "function"
    },
    {
      "constant": false,
      "inputs": [
        {
          "name": "token",
          "type": "address"
        },
        {
          "name": "name",
          "type": "string"
        },
        {
          "name": "symbol",
          "type": "string"
        },
        {
          "name": "decimals",
          "type": "uint8"
        },
        {
          "name": "owners",
          "type": "address[]"
        },
        {
          "name": "commissions",
          "type": "uint256[4]"
        },
        {
          "name": "paymentMethods",
          "type": "bytes32[]"
        },
        {
          "name": "paymentMethodsPurchaseFee",
          "type": "uint256[]"
        }
      ],
      "name": "whitelistToken",
      "outputs": [],
      "payable": false,
      "stateMutability": "nonpayable",
      "type": "function"
    },
    {
      "constant": false,
      "inputs": [
        {
          "name": "token",
          "type": "address"
        },
        {
          "name": "crowdsale",
          "type": "address"
        },
        {
          "name": "amount",
          "type": "uint256"
        }
      ],
      "name": "placeToken",
      "outputs": [],
      "payable": false,
      "stateMutability": "nonpayable",
      "type": "function"
    },
    {
      "constant": false,
      "inputs": [
        {
          "name": "token",
          "type": "address"
        },
        {
          "name": "amountForSale",
          "type": "uint256"
        },
        {
          "name": "price",
          "type": "uint256"
        }
      ],
      "name": "initCrowdsale",
      "outputs": [],
      "payable": false,
      "stateMutability": "nonpayable",
      "type": "function"
    },
    {
      "constant": false,
      "inputs": [
        {
          "name": "token",
          "type": "address"
        },
        {
          "name": "crowdsale",
          "type": "address"
        },
        {
          "name": "amountForSale",
          "type": "uint256"
        }
      ],
      "name": "addTokensToCrowdsale",
      "outputs": [],
      "payable": false,
      "stateMutability": "nonpayable",
      "type": "function"
    },
    {
      "constant": true,
      "inputs": [
        {
          "name": "token",
          "type": "address"
        }
      ],
      "name": "getTokenOwners",
      "outputs": [
        {
          "name": "",
          "type": "address[]"
        }
      ],
      "payable": false,
      "stateMutability": "view",
      "type": "function"
    },
    {
      "constant": true,
      "inputs": [
        {
          "name": "token",
          "type": "address"
        },
        {
          "name": "crowdsale",
          "type": "address"
        }
      ],
      "name": "getCrowdsaleOwners",
      "outputs": [
        {
          "name": "",
          "type": "address[]"
        }
      ],
      "payable": false,
      "stateMutability": "view",
      "type": "function"
    },
    {
      "constant": true,
      "inputs": [],
      "name": "getExchanger",
      "outputs": [
        {
          "name": "",
          "type": "address"
        }
      ],
      "payable": false,
      "stateMutability": "view",
      "type": "function"
    },
    {
      "constant": true,
      "inputs": [
        {
          "name": "token",
          "type": "address"
        }
      ],
      "name": "getToken",
      "outputs": [
        {
          "name": "name",
          "type": "string"
        },
        {
          "name": "symbol",
          "type": "string"
        },
        {
          "name": "decimals",
          "type": "uint8"
        },
        {
          "name": "owners",
          "type": "address[]"
        },
        {
          "name": "commissions",
          "type": "uint256[4]"
        },
        {
          "name": "paymentMethods",
          "type": "bytes32[]"
        },
        {
          "name": "paymentMethodsPurchaseFee",
          "type": "uint256[]"
        }
      ],
      "payable": false,
      "stateMutability": "view",
      "type": "function"
    },
    {
      "constant": true,
      "inputs": [],
      "name": "getTokens",
      "outputs": [
        {
          "name": "",
          "type": "address[]"
        }
      ],
      "payable": false,
      "stateMutability": "view",
      "type": "function"
    },
    {
      "constant": true,
      "inputs": [
        {
          "name": "token",
          "type": "address"
        }
      ],
      "name": "isTokenWhitelisted",
      "outputs": [
        {
          "name": "",
          "type": "bool"
        }
      ],
      "payable": false,
      "stateMutability": "view",
      "type": "function"
    },
    {
      "constant": true,
      "inputs": [
        {
          "name": "token",
          "type": "address"
        },
        {
          "name": "owner",
          "type": "address"
        }
      ],
      "name": "hasTokenOwner",
      "outputs": [
        {
          "name": "",
          "type": "bool"
        }
      ],
      "payable": false,
      "stateMutability": "view",
      "type": "function"
    },
    {
      "constant": true,
      "inputs": [
        {
          "name": "token",
          "type": "address"
        }
      ],
      "name": "getCrowdsales",
      "outputs": [
        {
          "name": "",
          "type": "address[]"
        }
      ],
      "payable": false,
      "stateMutability": "view",
      "type": "function"
    },
    {
      "constant": true,
      "inputs": [
        {
          "name": "token",
          "type": "address"
        },
        {
          "name": "crowdsale",
          "type": "address"
        }
      ],
      "name": "hasCrowdsaleWithAddress",
      "outputs": [
        {
          "name": "",
          "type": "bool"
        }
      ],
      "payable": false,
      "stateMutability": "view",
      "type": "function"
    },
    {
      "constant": true,
      "inputs": [
        {
          "name": "token",
          "type": "address"
        }
      ],
      "name": "hasNotInitialisedCrowdsale",
      "outputs": [
        {
          "name": "",
          "type": "bool"
        }
      ],
      "payable": false,
      "stateMutability": "view",
      "type": "function"
    },
    {
      "constant": true,
      "inputs": [
        {
          "name": "token",
          "type": "address"
        },
        {
          "name": "crowdsale",
          "type": "address"
        }
      ],
      "name": "getCrowdsale",
      "outputs": [
        {
          "name": "commissions",
          "type": "uint256[4]"
        },
        {
          "name": "amounts",
          "type": "uint256[2]"
        },
        {
          "name": "owners",
          "type": "address[]"
        },
        {
          "name": "paymentMethods",
          "type": "bytes32[]"
        },
        {
          "name": "paymentMethodsPurchaseFee",
          "type": "uint256[]"
        }
      ],
      "payable": false,
      "stateMutability": "view",
      "type": "function"
    },
    {
      "constant": true,
      "inputs": [],
      "name": "serviceWallet",
      "outputs": [
        {
          "name": "",
          "type": "address"
        }
      ],
      "payable": false,
      "stateMutability": "view",
      "type": "function"
    }
  ],
  "bytecode": "0x60806040523480156200001157600080fd5b5060405160a080620066bb833981018060405281019080805190602001909291908051906020019092919080519060200190929190805190602001909291908051906020019092919050505084620000783362000314640100000000026401000000009004565b806001819055505033600260006101000a81548173ffffffffffffffffffffffffffffffffffffffff021916908373ffffffffffffffffffffffffffffffffffffffff1602179055507f4101e71e974f68df5e9730cc223280b41654676bbb052cdcc735c3337e64d2d9600260009054906101000a900473ffffffffffffffffffffffffffffffffffffffff16604051808273ffffffffffffffffffffffffffffffffffffffff1673ffffffffffffffffffffffffffffffffffffffff16815260200191505060405180910390a16001600381905550600073ffffffffffffffffffffffffffffffffffffffff168473ffffffffffffffffffffffffffffffffffffffff16141515156200018b57600080fd5b600073ffffffffffffffffffffffffffffffffffffffff168373ffffffffffffffffffffffffffffffffffffffff1614151515620001c857600080fd5b600073ffffffffffffffffffffffffffffffffffffffff168273ffffffffffffffffffffffffffffffffffffffff16141515156200020557600080fd5b81600460006101000a81548173ffffffffffffffffffffffffffffffffffffffff021916908373ffffffffffffffffffffffffffffffffffffffff16021790555083600660006101000a81548173ffffffffffffffffffffffffffffffffffffffff021916908373ffffffffffffffffffffffffffffffffffffffff16021790555082600560006101000a81548173ffffffffffffffffffffffffffffffffffffffff021916908373ffffffffffffffffffffffffffffffffffffffff16021790555080600d60006101000a81548173ffffffffffffffffffffffffffffffffffffffff021916908373ffffffffffffffffffffffffffffffffffffffff1602179055505050505050620004d6565b620003388160006200037e64010000000002620053ed179091906401000000009004565b8073ffffffffffffffffffffffffffffffffffffffff167f44d6d25963f097ad14f29f06854a01f575648a1ef82f30e562ccd3889717e33960405160405180910390a250565b600073ffffffffffffffffffffffffffffffffffffffff168173ffffffffffffffffffffffffffffffffffffffff1614151515620003bb57600080fd5b620003d6828262000441640100000000026401000000009004565b151515620003e357600080fd5b60018260000160008373ffffffffffffffffffffffffffffffffffffffff1673ffffffffffffffffffffffffffffffffffffffff16815260200190815260200160002060006101000a81548160ff0219169083151502179055505050565b60008073ffffffffffffffffffffffffffffffffffffffff168273ffffffffffffffffffffffffffffffffffffffff16141515156200047f57600080fd5b8260000160008373ffffffffffffffffffffffffffffffffffffffff1673ffffffffffffffffffffffffffffffffffffffff16815260200190815260200160002060009054906101000a900460ff16905092915050565b6161d580620004e66000396000f30060806040526004361061015f576000357c0100000000000000000000000000000000000000000000000000000000900463ffffffff16806309363c99146101645780631785f53c146101bb5780631cd82e60146101fe57806320f59dc71461029657806321689c1a146102f15780632348238c1461035e57806324d7806c146103a1578063460f0b6b146103fc5780634b1acf39146104b45780634d12fca41461050b57806354fd4d50146105625780635641f3c31461058d57806359770438146105e4578063704802751461082057806375dd8cfc146108635780637bcb1499146108d0578063849072b9146109a257806386ad639814610a3a5780638bad0c0a14610be0578063aa6ca80814610bf7578063b5af090f14610c63578063c45a015514610cbe578063c6dbdf6114610d15578063c96a68c114610d6c578063d2f4a50a14610de7578063e079d0c914610e3e578063e45725d814610e95575b600080fd5b34801561017057600080fd5b506101b9600480360381019080803573ffffffffffffffffffffffffffffffffffffffff1690602001909291908035906020019092919080359060200190929190505050610f10565b005b3480156101c757600080fd5b506101fc600480360381019080803573ffffffffffffffffffffffffffffffffffffffff169060200190929190505050611909565b005b34801561020a57600080fd5b5061023f600480360381019080803573ffffffffffffffffffffffffffffffffffffffff169060200190929190505050611971565b6040518080602001828103825283818151815260200191508051906020019060200280838360005b83811015610282578082015181840152602081019050610267565b505050509050019250505060405180910390f35b3480156102a257600080fd5b506102d7600480360381019080803573ffffffffffffffffffffffffffffffffffffffff169060200190929190505050611a6d565b604051808215151515815260200191505060405180910390f35b3480156102fd57600080fd5b5061035c600480360381019080803573ffffffffffffffffffffffffffffffffffffffff169060200190929190803573ffffffffffffffffffffffffffffffffffffffff16906020019092919080359060200190929190505050611a8a565b005b34801561036a57600080fd5b5061039f600480360381019080803573ffffffffffffffffffffffffffffffffffffffff169060200190929190505050611f51565b005b3480156103ad57600080fd5b506103e2600480360381019080803573ffffffffffffffffffffffffffffffffffffffff1690602001909291905050506120b2565b604051808215151515815260200191505060405180910390f35b34801561040857600080fd5b5061045d600480360381019080803573ffffffffffffffffffffffffffffffffffffffff169060200190929190803573ffffffffffffffffffffffffffffffffffffffff1690602001909291905050506120cf565b6040518080602001828103825283818151815260200191508051906020019060200280838360005b838110156104a0578082015181840152602081019050610485565b505050509050019250505060405180910390f35b3480156104c057600080fd5b506104c9612177565b604051808273ffffffffffffffffffffffffffffffffffffffff1673ffffffffffffffffffffffffffffffffffffffff16815260200191505060405180910390f35b34801561051757600080fd5b506105206121a1565b604051808273ffffffffffffffffffffffffffffffffffffffff1673ffffffffffffffffffffffffffffffffffffffff16815260200191505060405180910390f35b34801561056e57600080fd5b506105776121c7565b6040518082815260200191505060405180910390f35b34801561059957600080fd5b506105a26121cd565b604051808273ffffffffffffffffffffffffffffffffffffffff1673ffffffffffffffffffffffffffffffffffffffff16815260200191505060405180910390f35b3480156105f057600080fd5b50610625600480360381019080803573ffffffffffffffffffffffffffffffffffffffff1690602001909291905050506122a7565b6040518080602001806020018860ff1660ff1681526020018060200187600460200280838360005b8381101561066857808201518184015260208101905061064d565b50505050905001806020018060200186810386528d818151815260200191508051906020019080838360005b838110156106af578082015181840152602081019050610694565b50505050905090810190601f1680156106dc5780820380516001836020036101000a031916815260200191505b5086810385528c818151815260200191508051906020019080838360005b838110156107155780820151818401526020810190506106fa565b50505050905090810190601f1680156107425780820380516001836020036101000a031916815260200191505b5086810384528a818151815260200191508051906020019060200280838360005b8381101561077e578082015181840152602081019050610763565b50505050905001868103835288818151815260200191508051906020019060200280838360005b838110156107c05780820151818401526020810190506107a5565b50505050905001868103825287818151815260200191508051906020019060200280838360005b838110156108025780820151818401526020810190506107e7565b505050509050019c5050505050505050505050505060405180910390f35b34801561082c57600080fd5b50610861600480360381019080803573ffffffffffffffffffffffffffffffffffffffff1690602001909291905050506126a0565b005b34801561086f57600080fd5b506108ce600480360381019080803573ffffffffffffffffffffffffffffffffffffffff169060200190929190803573ffffffffffffffffffffffffffffffffffffffff16906020019092919080359060200190929190505050612708565b005b3480156108dc57600080fd5b506109a0600480360381019080803573ffffffffffffffffffffffffffffffffffffffff169060200190929190803590602001908201803590602001919091929391929390803590602001908201803590602001919091929391929390803560ff16906020019092919080359060200190820180359060200191909192939192939080608001909192919290803590602001908201803590602001919091929391929390803590602001908201803590602001919091929391929390505050612f9e565b005b3480156109ae57600080fd5b506109e3600480360381019080803573ffffffffffffffffffffffffffffffffffffffff16906020019092919050505061317c565b6040518080602001828103825283818151815260200191508051906020019060200280838360005b83811015610a26578082015181840152602081019050610a0b565b505050509050019250505060405180910390f35b348015610a4657600080fd5b50610a9b600480360381019080803573ffffffffffffffffffffffffffffffffffffffff169060200190929190803573ffffffffffffffffffffffffffffffffffffffff169060200190929190505050613221565b6040518086600460200280838360005b83811015610ac6578082015181840152602081019050610aab565b5050505090500185600260200280838360005b83811015610af4578082015181840152602081019050610ad9565b50505050905001806020018060200180602001848103845287818151815260200191508051906020019060200280838360005b83811015610b42578082015181840152602081019050610b27565b50505050905001848103835286818151815260200191508051906020019060200280838360005b83811015610b84578082015181840152602081019050610b69565b50505050905001848103825285818151815260200191508051906020019060200280838360005b83811015610bc6578082015181840152602081019050610bab565b505050509050019850505050505050505060405180910390f35b348015610bec57600080fd5b50610bf5613505565b005b348015610c0357600080fd5b50610c0c613510565b6040518080602001828103825283818151815260200191508051906020019060200280838360005b83811015610c4f578082015181840152602081019050610c34565b505050509050019250505060405180910390f35b348015610c6f57600080fd5b50610ca4600480360381019080803573ffffffffffffffffffffffffffffffffffffffff1690602001909291905050506135ed565b604051808215151515815260200191505060405180910390f35b348015610cca57600080fd5b50610cd361360a565b604051808273ffffffffffffffffffffffffffffffffffffffff1673ffffffffffffffffffffffffffffffffffffffff16815260200191505060405180910390f35b348015610d2157600080fd5b50610d2a613630565b604051808273ffffffffffffffffffffffffffffffffffffffff1673ffffffffffffffffffffffffffffffffffffffff16815260200191505060405180910390f35b348015610d7857600080fd5b50610dcd600480360381019080803573ffffffffffffffffffffffffffffffffffffffff169060200190929190803573ffffffffffffffffffffffffffffffffffffffff16906020019092919050505061365a565b604051808215151515815260200191505060405180910390f35b348015610df357600080fd5b50610dfc61367a565b604051808273ffffffffffffffffffffffffffffffffffffffff1673ffffffffffffffffffffffffffffffffffffffff16815260200191505060405180910390f35b348015610e4a57600080fd5b50610e536136a0565b604051808273ffffffffffffffffffffffffffffffffffffffff1673ffffffffffffffffffffffffffffffffffffffff16815260200191505060405180910390f35b348015610ea157600080fd5b50610ef6600480360381019080803573ffffffffffffffffffffffffffffffffffffffff169060200190929190803573ffffffffffffffffffffffffffffffffffffffff1690602001909291905050506136c6565b604051808215151515815260200191505060405180910390f35b60008060008060016003600082825401925050819055506003549050600073ffffffffffffffffffffffffffffffffffffffff16610f4c6121cd565b73ffffffffffffffffffffffffffffffffffffffff1614151515610f6f57600080fd5b610f838760076136e690919063ffffffff16565b1515610f8e57600080fd5b610fa4873360076137919092919063ffffffff16565b1515610faf57600080fd5b610fc38760076137f490919063ffffffff16565b1515610fce57600080fd5b610ff886610fe689600761389f90919063ffffffff16565b600601546138b590919063ffffffff16565b61100c88600761389f90919063ffffffff16565b600501541015151561101d57600080fd5b6110318760076138d690919063ffffffff16565b9350600460009054906101000a900473ffffffffffffffffffffffffffffffffffffffff1673ffffffffffffffffffffffffffffffffffffffff1663151f37348560080160009054906101000a900473ffffffffffffffffffffffffffffffffffffffff166040518263ffffffff167c0100000000000000000000000000000000000000000000000000000000028152600401808273ffffffffffffffffffffffffffffffffffffffff1673ffffffffffffffffffffffffffffffffffffffff168152602001915050602060405180830381600087803b15801561111457600080fd5b505af1158015611128573d6000803e3d6000fd5b505050506040513d602081101561113e57600080fd5b81019080805190602001909291905050509250600560009054906101000a900473ffffffffffffffffffffffffffffffffffffffff1673ffffffffffffffffffffffffffffffffffffffff1663868b16d98560080160009054906101000a900473ffffffffffffffffffffffffffffffffffffffff1685886111be6121cd565b89600501548a600601548b60070154600460009054906101000a900473ffffffffffffffffffffffffffffffffffffffff168d6003016040518a63ffffffff167c0100000000000000000000000000000000000000000000000000000000028152600401808a73ffffffffffffffffffffffffffffffffffffffff1673ffffffffffffffffffffffffffffffffffffffff1681526020018973ffffffffffffffffffffffffffffffffffffffff1673ffffffffffffffffffffffffffffffffffffffff1681526020018881526020018773ffffffffffffffffffffffffffffffffffffffff1673ffffffffffffffffffffffffffffffffffffffff1681526020018681526020018581526020018481526020018373ffffffffffffffffffffffffffffffffffffffff1673ffffffffffffffffffffffffffffffffffffffff16815260200180602001828103825283818154815260200191508054801561137a57602002820191906000526020600020905b8160009054906101000a900473ffffffffffffffffffffffffffffffffffffffff1673ffffffffffffffffffffffffffffffffffffffff1681526020019060010190808311611330575b50509a5050505050505050505050602060405180830381600087803b1580156113a257600080fd5b505af11580156113b6573d6000803e3d6000fd5b505050506040513d60208110156113cc57600080fd5b810190808051906020019092919050505091508173ffffffffffffffffffffffffffffffffffffffff166370480275336040518263ffffffff167c0100000000000000000000000000000000000000000000000000000000028152600401808273ffffffffffffffffffffffffffffffffffffffff1673ffffffffffffffffffffffffffffffffffffffff168152602001915050600060405180830381600087803b15801561147a57600080fd5b505af115801561148e573d6000803e3d6000fd5b505050508173ffffffffffffffffffffffffffffffffffffffff16638edd6eb66040518163ffffffff167c0100000000000000000000000000000000000000000000000000000000028152600401602060405180830381600087803b1580156114f657600080fd5b505af115801561150a573d6000803e3d6000fd5b505050506040513d602081101561152057600080fd5b810190808051906020019092919050505073ffffffffffffffffffffffffffffffffffffffff166370480275336040518263ffffffff167c0100000000000000000000000000000000000000000000000000000000028152600401808273ffffffffffffffffffffffffffffffffffffffff1673ffffffffffffffffffffffffffffffffffffffff168152602001915050600060405180830381600087803b1580156115cb57600080fd5b505af11580156115df573d6000803e3d6000fd5b505050508273ffffffffffffffffffffffffffffffffffffffff166370480275836040518263ffffffff167c0100000000000000000000000000000000000000000000000000000000028152600401808273ffffffffffffffffffffffffffffffffffffffff1673ffffffffffffffffffffffffffffffffffffffff168152602001915050600060405180830381600087803b15801561167e57600080fd5b505af1158015611692573d6000803e3d6000fd5b505050506116ac878360076139089092919063ffffffff16565b6116b68285613cbe565b600460009054906101000a900473ffffffffffffffffffffffffffffffffffffffff1673ffffffffffffffffffffffffffffffffffffffff1663e1f21c678560080160009054906101000a900473ffffffffffffffffffffffffffffffffffffffff16846117308b876007613dbf9092919063ffffffff16565b600501546040518463ffffffff167c0100000000000000000000000000000000000000000000000000000000028152600401808473ffffffffffffffffffffffffffffffffffffffff1673ffffffffffffffffffffffffffffffffffffffff1681526020018373ffffffffffffffffffffffffffffffffffffffff1673ffffffffffffffffffffffffffffffffffffffff1681526020018281526020019350505050602060405180830381600087803b1580156117ec57600080fd5b505af1158015611800573d6000803e3d6000fd5b505050506040513d602081101561181657600080fd5b810190808051906020019092919050505050611833878388611a8a565b3373ffffffffffffffffffffffffffffffffffffffff168460080160009054906101000a900473ffffffffffffffffffffffffffffffffffffffff1673ffffffffffffffffffffffffffffffffffffffff167fc9cecf9fabde631d7582b55fdaf2a8800e68f0063771104348deff501b7c28278489604051808373ffffffffffffffffffffffffffffffffffffffff1673ffffffffffffffffffffffffffffffffffffffff1681526020018281526020019250505060405180910390a36003548114151561190057600080fd5b50505050505050565b600260009054906101000a900473ffffffffffffffffffffffffffffffffffffffff1673ffffffffffffffffffffffffffffffffffffffff163373ffffffffffffffffffffffffffffffffffffffff1614151561196557600080fd5b61196e81613eba565b50565b606080600061198a846007613f1490919063ffffffff16565b516040519080825280602002602001820160405280156119b95781602001602082028038833980820191505090505b509150600090505b6119d5846007613f1490919063ffffffff16565b51811015611a63576119f1846007613f1490919063ffffffff16565b818151811015156119fe57fe5b90602001906020020151600001518282815181101515611a1a57fe5b9060200190602002019073ffffffffffffffffffffffffffffffffffffffff16908173ffffffffffffffffffffffffffffffffffffffff168152505080806001019150506119c1565b8192505050919050565b6000611a838260076137f490919063ffffffff16565b9050919050565b60008082111515611a9a57600080fd5b611aae8460076136e690919063ffffffff16565b1515611ab957600080fd5b611acf843360076137919092919063ffffffff16565b1515611ada57600080fd5b611af0848460076141a09092919063ffffffff16565b1515611afb57600080fd5b600073ffffffffffffffffffffffffffffffffffffffff16600460009054906101000a900473ffffffffffffffffffffffffffffffffffffffff1673ffffffffffffffffffffffffffffffffffffffff1663151f3734866040518263ffffffff167c0100000000000000000000000000000000000000000000000000000000028152600401808273ffffffffffffffffffffffffffffffffffffffff1673ffffffffffffffffffffffffffffffffffffffff168152602001915050602060405180830381600087803b158015611bd057600080fd5b505af1158015611be4573d6000803e3d6000fd5b505050506040513d6020811015611bfa57600080fd5b810190808051906020019092919050505073ffffffffffffffffffffffffffffffffffffffff1614151515611c2e57600080fd5b611c5a82611c4886866007613dbf9092919063ffffffff16565b600601546138b590919063ffffffff16565b611c7085856007613dbf9092919063ffffffff16565b6005015410151515611c8157600080fd5b600460009054906101000a900473ffffffffffffffffffffffffffffffffffffffff1673ffffffffffffffffffffffffffffffffffffffff1663151f3734856040518263ffffffff167c0100000000000000000000000000000000000000000000000000000000028152600401808273ffffffffffffffffffffffffffffffffffffffff1673ffffffffffffffffffffffffffffffffffffffff168152602001915050602060405180830381600087803b158015611d3e57600080fd5b505af1158015611d52573d6000803e3d6000fd5b505050506040513d6020811015611d6857600080fd5b81019080805190602001909291905050509050611da782611d9586866007613dbf9092919063ffffffff16565b600601546138b590919063ffffffff16565b611dbd85856007613dbf9092919063ffffffff16565b600601819055508073ffffffffffffffffffffffffffffffffffffffff1663d0047acf848460006040518463ffffffff167c0100000000000000000000000000000000000000000000000000000000028152600401808473ffffffffffffffffffffffffffffffffffffffff1673ffffffffffffffffffffffffffffffffffffffff1681526020018381526020018263ffffffff1681526020019350505050602060405180830381600087803b158015611e7657600080fd5b505af1158015611e8a573d6000803e3d6000fd5b505050506040513d6020811015611ea057600080fd5b8101908080519060200190929190505050503373ffffffffffffffffffffffffffffffffffffffff168473ffffffffffffffffffffffffffffffffffffffff167fd663b1d1c366a683f19929e0e0f10df9ee4ba14bb42fb2f37e63605b0828da2a8585604051808373ffffffffffffffffffffffffffffffffffffffff1673ffffffffffffffffffffffffffffffffffffffff1681526020018281526020019250505060405180910390a350505050565b600260009054906101000a900473ffffffffffffffffffffffffffffffffffffffff1673ffffffffffffffffffffffffffffffffffffffff163373ffffffffffffffffffffffffffffffffffffffff16141515611fad57600080fd5b600073ffffffffffffffffffffffffffffffffffffffff168173ffffffffffffffffffffffffffffffffffffffff1614151515611fe957600080fd5b80600260006101000a81548173ffffffffffffffffffffffffffffffffffffffff021916908373ffffffffffffffffffffffffffffffffffffffff1602179055507f4101e71e974f68df5e9730cc223280b41654676bbb052cdcc735c3337e64d2d9600260009054906101000a900473ffffffffffffffffffffffffffffffffffffffff16604051808273ffffffffffffffffffffffffffffffffffffffff1673ffffffffffffffffffffffffffffffffffffffff16815260200191505060405180910390a150565b60006120c882600061424c90919063ffffffff16565b9050919050565b60606120e783836007613dbf9092919063ffffffff16565b60070180548060200260200160405190810160405280929190818152602001828054801561216a57602002820191906000526020600020905b8160009054906101000a900473ffffffffffffffffffffffffffffffffffffffff1673ffffffffffffffffffffffffffffffffffffffff1681526020019060010190808311612120575b5050505050905092915050565b6000600460009054906101000a900473ffffffffffffffffffffffffffffffffffffffff16905090565b600460009054906101000a900473ffffffffffffffffffffffffffffffffffffffff1681565b60015481565b6000600660009054906101000a900473ffffffffffffffffffffffffffffffffffffffff1673ffffffffffffffffffffffffffffffffffffffff1663e3ff76e460016040518263ffffffff167c0100000000000000000000000000000000000000000000000000000000028152600401808260ff1660ff168152602001915050602060405180830381600087803b15801561226757600080fd5b505af115801561227b573d6000803e3d6000fd5b505050506040513d602081101561229157600080fd5b8101908080519060200190929190505050905090565b606080600060606122b6615ceb565b6060806122cd8860076136e690919063ffffffff16565b15156122d857600080fd5b6122ec8860076138d690919063ffffffff16565b6000018054600181600116156101000203166002900480601f0160208091040260200160405190810160405280929190818152602001828054600181600116156101000203166002900480156123835780601f1061235857610100808354040283529160200191612383565b820191906000526020600020905b81548152906001019060200180831161236657829003601f168201915b5050505050965061239e8860076138d690919063ffffffff16565b6001018054600181600116156101000203166002900480601f0160208091040260200160405190810160405280929190818152602001828054600181600116156101000203166002900480156124355780601f1061240a57610100808354040283529160200191612435565b820191906000526020600020905b81548152906001019060200180831161241857829003601f168201915b505050505095506124508860076138d690919063ffffffff16565b60020160009054906101000a900460ff1694506124778860076138d690919063ffffffff16565b6003018054806020026020016040519081016040528092919081815260200182805480156124fa57602002820191906000526020600020905b8160009054906101000a900473ffffffffffffffffffffffffffffffffffffffff1673ffffffffffffffffffffffffffffffffffffffff16815260200190600101908083116124b0575b505050505093506125158860076138d690919063ffffffff16565b6004015483600060048110151561252857fe5b6020020181815250506125458860076138d690919063ffffffff16565b6005015483600160048110151561255857fe5b6020020181815250506125758860076138d690919063ffffffff16565b6006015483600260048110151561258857fe5b6020020181815250506125a58860076138d690919063ffffffff16565b600701548360036004811015156125b857fe5b6020020181815250506125d58860076138d690919063ffffffff16565b60090180548060200260200160405190810160405280929190818152602001828054801561262657602002820191906000526020600020905b8154600019168152602001906001019080831161260e575b505050505091506126418860076138d690919063ffffffff16565b600a0180548060200260200160405190810160405280929190818152602001828054801561268e57602002820191906000526020600020905b81548152602001906001019080831161267a575b50505050509050919395979092949650565b600260009054906101000a900473ffffffffffffffffffffffffffffffffffffffff1673ffffffffffffffffffffffffffffffffffffffff163373ffffffffffffffffffffffffffffffffffffffff161415156126fc57600080fd5b612705816142e0565b50565b60008060008060006001600360008282540192505081905550600354905061273a8860076136e690919063ffffffff16565b151561274557600080fd5b61275b883360076137919092919063ffffffff16565b151561276657600080fd5b61277c888860076141a09092919063ffffffff16565b151561278757600080fd5b61279b8860076138d690919063ffffffff16565b9450600d60009054906101000a900473ffffffffffffffffffffffffffffffffffffffff1673ffffffffffffffffffffffffffffffffffffffff16633fb856f6896040518263ffffffff167c0100000000000000000000000000000000000000000000000000000000028152600401808273ffffffffffffffffffffffffffffffffffffffff1673ffffffffffffffffffffffffffffffffffffffff168152602001915050602060405180830381600087803b15801561285a57600080fd5b505af115801561286e573d6000803e3d6000fd5b505050506040513d602081101561288457600080fd5b81019080805190602001909291905050509350858473ffffffffffffffffffffffffffffffffffffffff1663dd62ed3e33306040518363ffffffff167c0100000000000000000000000000000000000000000000000000000000028152600401808373ffffffffffffffffffffffffffffffffffffffff1673ffffffffffffffffffffffffffffffffffffffff1681526020018273ffffffffffffffffffffffffffffffffffffffff1673ffffffffffffffffffffffffffffffffffffffff16815260200192505050602060405180830381600087803b15801561296757600080fd5b505af115801561297b573d6000803e3d6000fd5b505050506040513d602081101561299157600080fd5b8101908080519060200190929190505050101515156129af57600080fd5b8460020160009054906101000a900460ff1660ff168473ffffffffffffffffffffffffffffffffffffffff1663313ce5676040518163ffffffff167c0100000000000000000000000000000000000000000000000000000000028152600401602060405180830381600087803b158015612a2857600080fd5b505af1158015612a3c573d6000803e3d6000fd5b505050506040513d6020811015612a5257600080fd5b810190808051906020019092919050505060ff16141515612a7257600080fd5b6000856004015411612a85576000612b3a565b8573__Percent_______________________________6342318e3d909187600401546040518363ffffffff167c0100000000000000000000000000000000000000000000000000000000028152600401808381526020018281526020019250505060206040518083038186803b158015612afe57600080fd5b505af4158015612b12573d6000803e3d6000fd5b505050506040513d6020811015612b2857600080fd5b81019080805190602001909291905050505b9250612b4f838761433a90919063ffffffff16565b9150600d60009054906101000a900473ffffffffffffffffffffffffffffffffffffffff1673ffffffffffffffffffffffffffffffffffffffff16632a5cd04187600460009054906101000a900473ffffffffffffffffffffffffffffffffffffffff1685612bbc6121cd565b886040518663ffffffff167c0100000000000000000000000000000000000000000000000000000000028152600401808681526020018573ffffffffffffffffffffffffffffffffffffffff1673ffffffffffffffffffffffffffffffffffffffff1681526020018481526020018373ffffffffffffffffffffffffffffffffffffffff1673ffffffffffffffffffffffffffffffffffffffff16815260200182815260200195505050505050600060405180830381600087803b158015612c8357600080fd5b505af1158015612c97573d6000803e3d6000fd5b50505050612cc782612cb58a8a6007613dbf9092919063ffffffff16565b600501546138b590919063ffffffff16565b612cdd89896007613dbf9092919063ffffffff16565b60050181905550600d60009054906101000a900473ffffffffffffffffffffffffffffffffffffffff1673ffffffffffffffffffffffffffffffffffffffff166347a3d70e88600460009054906101000a900473ffffffffffffffffffffffffffffffffffffffff1633868a6000018b6001018c60020160009054906101000a900460ff166040518863ffffffff167c0100000000000000000000000000000000000000000000000000000000028152600401808873ffffffffffffffffffffffffffffffffffffffff1673ffffffffffffffffffffffffffffffffffffffff1681526020018773ffffffffffffffffffffffffffffffffffffffff1673ffffffffffffffffffffffffffffffffffffffff1681526020018673ffffffffffffffffffffffffffffffffffffffff1673ffffffffffffffffffffffffffffffffffffffff16815260200185815260200180602001806020018460ff1660ff168152602001838103835286818154600181600116156101000203166002900481526020019150805460018160011615610100020316600290048015612ec25780601f10612e9757610100808354040283529160200191612ec2565b820191906000526020600020905b815481529060010190602001808311612ea557829003601f168201915b5050838103825285818154600181600116156101000203166002900481526020019150805460018160011615610100020316600290048015612f455780601f10612f1a57610100808354040283529160200191612f45565b820191906000526020600020905b815481529060010190602001808311612f2857829003601f168201915b50509950505050505050505050600060405180830381600087803b158015612f6c57600080fd5b505af1158015612f80573d6000803e3d6000fd5b5050505060035481141515612f9457600080fd5b5050505050505050565b612fa7336120b2565b1515612fb257600080fd5b6130ea8d8d8d8080601f0160208091040260200160405190810160405280939291908181526020018383808284378201915050505050508c8c8080601f0160208091040260200160405190810160405280939291908181526020018383808284378201915050505050508b8b8b808060200260200160405190810160405280939291908181526020018383602002808284378201915050505050508a600480602002604051908101604052809291908260046020028082843782019150505050508a8a80806020026020016040519081016040528093929190818152602001838360200280828437820191505050505050898980806020026020016040519081016040528093929190818152602001838360200280828437820191505050505050600761435b9098979695949392919063ffffffff16565b503373ffffffffffffffffffffffffffffffffffffffff168d73ffffffffffffffffffffffffffffffffffffffff167fa4917a011b74f5b834db606e372973c8201acae06d70a133197b7dfe85b514238989604051808060200182810382528484828181526020019250602002808284378201915050935050505060405180910390a350505050505050505050505050565b60606131928260076138d690919063ffffffff16565b60030180548060200260200160405190810160405280929190818152602001828054801561321557602002820191906000526020600020905b8160009054906101000a900473ffffffffffffffffffffffffffffffffffffffff1673ffffffffffffffffffffffffffffffffffffffff16815260200190600101908083116131cb575b50505050509050919050565b613229615ceb565b613231615d0e565b606080606061324c878760076141a09092919063ffffffff16565b151561325757600080fd5b61326d87876007613dbf9092919063ffffffff16565b6001015485600060048110151561328057fe5b60200201818152505061329f87876007613dbf9092919063ffffffff16565b600201548560016004811015156132b257fe5b6020020181815250506132d187876007613dbf9092919063ffffffff16565b600301548560026004811015156132e457fe5b60200201818152505061330387876007613dbf9092919063ffffffff16565b6004015485600360048110151561331657fe5b60200201818152505061333587876007613dbf9092919063ffffffff16565b6005015484600060028110151561334857fe5b60200201818152505061336787876007613dbf9092919063ffffffff16565b6006015484600160028110151561337a57fe5b60200201818152505061339987876007613dbf9092919063ffffffff16565b60070180548060200260200160405190810160405280929190818152602001828054801561341c57602002820191906000526020600020905b8160009054906101000a900473ffffffffffffffffffffffffffffffffffffffff1673ffffffffffffffffffffffffffffffffffffffff16815260200190600101908083116133d2575b5050505050925061343987876007613dbf9092919063ffffffff16565b60080180548060200260200160405190810160405280929190818152602001828054801561348a57602002820191906000526020600020905b81546000191681526020019060010190808311613472575b505050505091506134a787876007613dbf9092919063ffffffff16565b6009018054806020026020016040519081016040528092919081815260200182805480156134f457602002820191906000526020600020905b8154815260200190600101908083116134e0575b505050505090509295509295909350565b61350e33613eba565b565b606080600061351f6007614eb7565b5160405190808252806020026020018201604052801561354e5781602001602082028038833980820191505090505b509150600090505b6135606007614eb7565b518110156135e5576135726007614eb7565b8181518110151561357f57fe5b906020019060200201516101000151828281518110151561359c57fe5b9060200190602002019073ffffffffffffffffffffffffffffffffffffffff16908173ffffffffffffffffffffffffffffffffffffffff16815250508080600101915050613556565b819250505090565b60006136038260076136e690919063ffffffff16565b9050919050565b600560009054906101000a900473ffffffffffffffffffffffffffffffffffffffff1681565b6000600260009054906101000a900473ffffffffffffffffffffffffffffffffffffffff16905090565b6000613672838360076141a09092919063ffffffff16565b905092915050565b600660009054906101000a900473ffffffffffffffffffffffffffffffffffffffff1681565b600d60009054906101000a900473ffffffffffffffffffffffffffffffffffffffff1681565b60006136de838360076137919092919063ffffffff16565b905092915050565b60008260010160008373ffffffffffffffffffffffffffffffffffffffff1673ffffffffffffffffffffffffffffffffffffffff16815260200190815260200160002060008460000160008573ffffffffffffffffffffffffffffffffffffffff1673ffffffffffffffffffffffffffffffffffffffff16815260200190815260200160002054815260200190815260200160002060009054906101000a900460ff16905092915050565b600061379d84846138d6565b600b0160008373ffffffffffffffffffffffffffffffffffffffff1673ffffffffffffffffffffffffffffffffffffffff16815260200190815260200160002060009054906101000a900460ff1690509392505050565b600061380083836136e6565b151561380b57600080fd5b8260030160008373ffffffffffffffffffffffffffffffffffffffff1673ffffffffffffffffffffffffffffffffffffffff16815260200190815260200160002060008073ffffffffffffffffffffffffffffffffffffffff1673ffffffffffffffffffffffffffffffffffffffff16815260200190815260200160002060009054906101000a900460ff16905092915050565b60006138ad83836000613dbf565b905092915050565b60008082840190508381101515156138cc57600080fd5b8091505092915050565b6000826005016138e6848461523d565b8154811015156138f257fe5b90600052602060002090600c0201905092915050565b60008073ffffffffffffffffffffffffffffffffffffffff168273ffffffffffffffffffffffffffffffffffffffff161415151561394557600080fd5b61394f84846137f4565b151561395a57600080fd5b6139658484846141a0565b15151561397157600080fd5b61397b848461389f565b9050818160000160006101000a81548173ffffffffffffffffffffffffffffffffffffffff021916908373ffffffffffffffffffffffffffffffffffffffff1602179055506139ca84846138d6565b6004015481600101819055506139e084846138d6565b6005015481600201819055506139f684846138d6565b600601548160030181905550613a0c84846138d6565b600701548160040181905550613a2284846138d6565b60030181600701908054613a37929190615d30565b50613a4284846138d6565b60090181600801908054613a57929190615d82565b50613a6284846138d6565b600a0181600901908054613a77929190615dd4565b5060018460030160008573ffffffffffffffffffffffffffffffffffffffff1673ffffffffffffffffffffffffffffffffffffffff16815260200190815260200160002060008473ffffffffffffffffffffffffffffffffffffffff1673ffffffffffffffffffffffffffffffffffffffff16815260200190815260200160002060006101000a81548160ff021916908315150217905550613b1b8484600061529e565b8460040160008573ffffffffffffffffffffffffffffffffffffffff1673ffffffffffffffffffffffffffffffffffffffff16815260200190815260200160002060008473ffffffffffffffffffffffffffffffffffffffff1673ffffffffffffffffffffffffffffffffffffffff1681526020019081526020016000208190555060008460030160008573ffffffffffffffffffffffffffffffffffffffff1673ffffffffffffffffffffffffffffffffffffffff16815260200190815260200160002060008073ffffffffffffffffffffffffffffffffffffffff1673ffffffffffffffffffffffffffffffffffffffff16815260200190815260200160002060006101000a81548160ff02191690831515021790555060008460040160008573ffffffffffffffffffffffffffffffffffffffff1673ffffffffffffffffffffffffffffffffffffffff16815260200190815260200160002060008073ffffffffffffffffffffffffffffffffffffffff1673ffffffffffffffffffffffffffffffffffffffff1681526020019081526020016000208190555050505050565b60008090505b8160090180549050811015613dba578273ffffffffffffffffffffffffffffffffffffffff166359e377498360090183815481101515613d0057fe5b9060005260206000200154600185600a0185815481101515613d1e57fe5b90600052602060002001546040518463ffffffff167c0100000000000000000000000000000000000000000000000000000000028152600401808460001916600019168152602001831515151581526020018281526020019350505050600060405180830381600087803b158015613d9557600080fd5b505af1158015613da9573d6000803e3d6000fd5b505050508080600101915050613cc4565b505050565b6000613dcc8484846141a0565b1515613dd757600080fd5b8360020160008473ffffffffffffffffffffffffffffffffffffffff1673ffffffffffffffffffffffffffffffffffffffff1681526020019081526020016000208460040160008573ffffffffffffffffffffffffffffffffffffffff1673ffffffffffffffffffffffffffffffffffffffff16815260200190815260200160002060008473ffffffffffffffffffffffffffffffffffffffff1673ffffffffffffffffffffffffffffffffffffffff16815260200190815260200160002054815481101515613ea357fe5b90600052602060002090600a020190509392505050565b613ece81600061533e90919063ffffffff16565b8073ffffffffffffffffffffffffffffffffffffffff167fa3b62bc36326052d97ea62d63c3d60308ed4c3ea8ac079dd8499f1e9c4f80c0f60405160405180910390a250565b6060613f2083836136e6565b1515613f2b57600080fd5b8260020160008373ffffffffffffffffffffffffffffffffffffffff1673ffffffffffffffffffffffffffffffffffffffff168152602001908152602001600020805480602002602001604051908101604052809291908181526020016000905b8282101561419457838290600052602060002090600a020161014060405190810160405290816000820160009054906101000a900473ffffffffffffffffffffffffffffffffffffffff1673ffffffffffffffffffffffffffffffffffffffff1673ffffffffffffffffffffffffffffffffffffffff168152602001600182015481526020016002820154815260200160038201548152602001600482015481526020016005820154815260200160068201548152602001600782018054806020026020016040519081016040528092919081815260200182805480156140c857602002820191906000526020600020905b8160009054906101000a900473ffffffffffffffffffffffffffffffffffffffff1673ffffffffffffffffffffffffffffffffffffffff168152602001906001019080831161407e575b505050505081526020016008820180548060200260200160405190810160405280929190818152602001828054801561412457602002820191906000526020600020905b8154600019168152602001906001019080831161410c575b505050505081526020016009820180548060200260200160405190810160405280929190818152602001828054801561417c57602002820191906000526020600020905b815481526020019060010190808311614168575b50505050508152505081526020019060010190613f8c565b50505050905092915050565b60006141ac84846136e6565b15156141b757600080fd5b8360030160008473ffffffffffffffffffffffffffffffffffffffff1673ffffffffffffffffffffffffffffffffffffffff16815260200190815260200160002060008373ffffffffffffffffffffffffffffffffffffffff1673ffffffffffffffffffffffffffffffffffffffff16815260200190815260200160002060009054906101000a900460ff1690509392505050565b60008073ffffffffffffffffffffffffffffffffffffffff168273ffffffffffffffffffffffffffffffffffffffff161415151561428957600080fd5b8260000160008373ffffffffffffffffffffffffffffffffffffffff1673ffffffffffffffffffffffffffffffffffffffff16815260200190815260200160002060009054906101000a900460ff16905092915050565b6142f48160006153ed90919063ffffffff16565b8073ffffffffffffffffffffffffffffffffffffffff167f44d6d25963f097ad14f29f06854a01f575648a1ef82f30e562ccd3889717e33960405160405180910390a250565b60008083831115151561434c57600080fd5b82840390508091505092915050565b60008060008073ffffffffffffffffffffffffffffffffffffffff168b73ffffffffffffffffffffffffffffffffffffffff161415151561439b57600080fd5b600087511115156143ab57600080fd5b8560006004811015156143ba57fe5b602002015173__Percent_______________________________63520b006690916040518263ffffffff167c01000000000000000000000000000000000000000000000000000000000281526004018082815260200191505060206040518083038186803b15801561442b57600080fd5b505af415801561443f573d6000803e3d6000fd5b505050506040513d602081101561445557600080fd5b8101908080519060200190929190505050801561452c5750606486600060048110151561447e57fe5b602002015173__Percent_______________________________630fe9114790916040518263ffffffff167c01000000000000000000000000000000000000000000000000000000000281526004018082815260200191505060206040518083038186803b1580156144ef57600080fd5b505af4158015614503573d6000803e3d6000fd5b505050506040513d602081101561451957600080fd5b8101908080519060200190929190505050105b151561453757600080fd5b85600160048110151561454657fe5b602002015173__Percent_______________________________63520b006690916040518263ffffffff167c01000000000000000000000000000000000000000000000000000000000281526004018082815260200191505060206040518083038186803b1580156145b757600080fd5b505af41580156145cb573d6000803e3d6000fd5b505050506040513d60208110156145e157600080fd5b810190808051906020019092919050505080156146b85750606486600160048110151561460a57fe5b602002015173__Percent_______________________________630fe9114790916040518263ffffffff167c01000000000000000000000000000000000000000000000000000000000281526004018082815260200191505060206040518083038186803b15801561467b57600080fd5b505af415801561468f573d6000803e3d6000fd5b505050506040513d60208110156146a557600080fd5b8101908080519060200190929190505050105b15156146c357600080fd5b8560026004811015156146d257fe5b602002015173__Percent_______________________________63520b006690916040518263ffffffff167c01000000000000000000000000000000000000000000000000000000000281526004018082815260200191505060206040518083038186803b15801561474357600080fd5b505af4158015614757573d6000803e3d6000fd5b505050506040513d602081101561476d57600080fd5b810190808051906020019092919050505080156148445750606486600260048110151561479657fe5b602002015173__Percent_______________________________630fe9114790916040518263ffffffff167c01000000000000000000000000000000000000000000000000000000000281526004018082815260200191505060206040518083038186803b15801561480757600080fd5b505af415801561481b573d6000803e3d6000fd5b505050506040513d602081101561483157600080fd5b8101908080519060200190929190505050105b151561484f57600080fd5b85600360048110151561485e57fe5b602002015173__Percent_______________________________63520b006690916040518263ffffffff167c01000000000000000000000000000000000000000000000000000000000281526004018082815260200191505060206040518083038186803b1580156148cf57600080fd5b505af41580156148e3573d6000803e3d6000fd5b505050506040513d60208110156148f957600080fd5b810190808051906020019092919050505080156149d05750606486600360048110151561492257fe5b602002015173__Percent_______________________________630fe9114790916040518263ffffffff167c01000000000000000000000000000000000000000000000000000000000281526004018082815260200191505060206040518083038186803b15801561499357600080fd5b505af41580156149a7573d6000803e3d6000fd5b505050506040513d60208110156149bd57600080fd5b8101908080519060200190929190505050105b15156149db57600080fd5b6149e5858561549d565b15156149f057600080fd5b6149fa8c8c6136e6565b1515614cfc578b600501805490508c60000160008d73ffffffffffffffffffffffffffffffffffffffff1673ffffffffffffffffffffffffffffffffffffffff1681526020019081526020016000208190555060018c60010160008d73ffffffffffffffffffffffffffffffffffffffff1673ffffffffffffffffffffffffffffffffffffffff16815260200190815260200160002060008e60050180549050815260200190815260200160002060006101000a81548160ff0219169083151502179055508b600501610160604051908101604052808c81526020018b81526020018a60ff1681526020016000604051908082528060200260200182016040528015614b155781602001602082028038833980820191505090505b508152602001886000600481101515614b2a57fe5b60200201518152602001886001600481101515614b4357fe5b60200201518152602001886002600481101515614b5c57fe5b60200201518152602001886003600481101515614b7557fe5b602002015181526020018d73ffffffffffffffffffffffffffffffffffffffff168152602001878152602001868152509080600181540180825580915050906001820390600052602060002090600c0201600090919290919091506000820151816000019080519060200190614bec929190615e26565b506020820151816001019080519060200190614c09929190615e26565b5060408201518160020160006101000a81548160ff021916908360ff1602179055506060820151816003019080519060200190614c47929190615ea6565b506080820151816004015560a0820151816005015560c0820151816006015560e082015181600701556101008201518160080160006101000a81548173ffffffffffffffffffffffffffffffffffffffff021916908373ffffffffffffffffffffffffffffffffffffffff160217905550610120820151816009019080519060200190614cd5929190615f30565b5061014082015181600a019080519060200190614cf3929190615f83565b50505050614e0c565b614d0e614d098d8d6138d6565b6156ca565b614d188c8c6138d6565b915089826000019080519060200190614d32929190615fd0565b5088826001019080519060200190614d4b929190615fd0565b50878260020160006101000a81548160ff021916908360ff160217905550856000600481101515614d7857fe5b60200201518260040181905550856001600481101515614d9457fe5b60200201518260050181905550856002600481101515614db057fe5b60200201518260060181905550856003600481101515614dcc57fe5b6020020151826007018190555084826009019080519060200190614df1929190616050565b508382600a019080519060200190614e0a9291906160a3565b505b600090505b8651811015614e4957614e3c8c8c8984815181101515614e2d57fe5b906020019060200201516157a8565b8080600101915050614e11565b614e538c8c6137f4565b1515614e6457614e638c8c61592e565b5b8b60000160008c73ffffffffffffffffffffffffffffffffffffffff1673ffffffffffffffffffffffffffffffffffffffff16815260200190815260200160002054925050509998505050505050505050565b606081600501805480602002602001604051908101604052809291908181526020016000905b8282101561523257838290600052602060002090600c02016101606040519081016040529081600082018054600181600116156101000203166002900480601f016020809104026020016040519081016040528092919081815260200182805460018160011615610100020316600290048015614f9b5780601f10614f7057610100808354040283529160200191614f9b565b820191906000526020600020905b815481529060010190602001808311614f7e57829003601f168201915b50505050508152602001600182018054600181600116156101000203166002900480601f01602080910402602001604051908101604052809291908181526020018280546001816001161561010002031660029004801561503d5780601f106150125761010080835404028352916020019161503d565b820191906000526020600020905b81548152906001019060200180831161502057829003601f168201915b505050505081526020016002820160009054906101000a900460ff1660ff1660ff168152602001600382018054806020026020016040519081016040528092919081815260200182805480156150e857602002820191906000526020600020905b8160009054906101000a900473ffffffffffffffffffffffffffffffffffffffff1673ffffffffffffffffffffffffffffffffffffffff168152602001906001019080831161509e575b50505050508152602001600482015481526020016005820154815260200160068201548152602001600782015481526020016008820160009054906101000a900473ffffffffffffffffffffffffffffffffffffffff1673ffffffffffffffffffffffffffffffffffffffff1673ffffffffffffffffffffffffffffffffffffffff168152602001600982018054806020026020016040519081016040528092919081815260200182805480156151c257602002820191906000526020600020905b815460001916815260200190600101908083116151aa575b50505050508152602001600a820180548060200260200160405190810160405280929190818152602001828054801561521a57602002820191906000526020600020905b815481526020019060010190808311615206575b50505050508152505081526020019060010190614edd565b505050509050919050565b600061524983836136e6565b151561525457600080fd5b8260000160008373ffffffffffffffffffffffffffffffffffffffff1673ffffffffffffffffffffffffffffffffffffffff16815260200190815260200160002054905092915050565b60006152ab8484846141a0565b15156152b657600080fd5b8360040160008473ffffffffffffffffffffffffffffffffffffffff1673ffffffffffffffffffffffffffffffffffffffff16815260200190815260200160002060008373ffffffffffffffffffffffffffffffffffffffff1673ffffffffffffffffffffffffffffffffffffffff1681526020019081526020016000205490509392505050565b600073ffffffffffffffffffffffffffffffffffffffff168173ffffffffffffffffffffffffffffffffffffffff161415151561537a57600080fd5b615384828261424c565b151561538f57600080fd5b60008260000160008373ffffffffffffffffffffffffffffffffffffffff1673ffffffffffffffffffffffffffffffffffffffff16815260200190815260200160002060006101000a81548160ff0219169083151502179055505050565b600073ffffffffffffffffffffffffffffffffffffffff168173ffffffffffffffffffffffffffffffffffffffff161415151561542957600080fd5b615433828261424c565b15151561543f57600080fd5b60018260000160008373ffffffffffffffffffffffffffffffffffffffff1673ffffffffffffffffffffffffffffffffffffffff16815260200190815260200160002060006101000a81548160ff0219169083151502179055505050565b60008060008351855114156156bd57600091505b84518210156156b45783828151811015156154c857fe5b9060200190602002015173__Percent_______________________________63520b006690916040518263ffffffff167c01000000000000000000000000000000000000000000000000000000000281526004018082815260200191505060206040518083038186803b15801561553e57600080fd5b505af4158015615552573d6000803e3d6000fd5b505050506040513d602081101561556857600080fd5b81019080805190602001909291905050501580615635575073__Percent_______________________________63d49d51816040518163ffffffff167c010000000000000000000000000000000000000000000000000000000002815260040160206040518083038186803b1580156155e057600080fd5b505af41580156155f4573d6000803e3d6000fd5b505050506040513d602081101561560a57600080fd5b8101908080519060200190929190505050848381518110151561562957fe5b90602001906020020151115b1561564357600092506156c2565b6001820190505b84518110156156a757848181518110151561566157fe5b9060200190602002015160001916858381518110151561567d57fe5b9060200190602002015160001916141561569a57600092506156c2565b808060010191505061564a565b81806001019250506154b1565b600192506156c2565b600092505b505092915050565b600080826003018054905011156157a457600090505b816003018054905081101561579157600082600b016000846003018481548110151561570857fe5b9060005260206000200160009054906101000a900473ffffffffffffffffffffffffffffffffffffffff1673ffffffffffffffffffffffffffffffffffffffff1673ffffffffffffffffffffffffffffffffffffffff16815260200190815260200160002060006101000a81548160ff02191690831515021790555080806001019150506156e0565b600082600301816157a291906160f0565b505b5050565b600073ffffffffffffffffffffffffffffffffffffffff168173ffffffffffffffffffffffffffffffffffffffff16141515156157e457600080fd5b6157ef838383613791565b1515156157fb57600080fd5b61580583836138d6565b6003018190806001815401808255809150509060018203906000526020600020016000909192909190916101000a81548173ffffffffffffffffffffffffffffffffffffffff021916908373ffffffffffffffffffffffffffffffffffffffff16021790555050600161587884846138d6565b600b0160008373ffffffffffffffffffffffffffffffffffffffff1673ffffffffffffffffffffffffffffffffffffffff16815260200190815260200160002060006101000a81548160ff0219169083151502179055508073ffffffffffffffffffffffffffffffffffffffff168273ffffffffffffffffffffffffffffffffffffffff167ffa5891b558f0fb64bcbdc5f17fa7bbee3a47f97f4c8f523556d0494941a1e18b60405160405180910390a3505050565b600061593a83836137f4565b15151561594657600080fd5b8260020160008373ffffffffffffffffffffffffffffffffffffffff1673ffffffffffffffffffffffffffffffffffffffff16815260200190815260200160002080549050905060018360030160008473ffffffffffffffffffffffffffffffffffffffff1673ffffffffffffffffffffffffffffffffffffffff16815260200190815260200160002060008073ffffffffffffffffffffffffffffffffffffffff1673ffffffffffffffffffffffffffffffffffffffff16815260200190815260200160002060006101000a81548160ff021916908315150217905550808360040160008473ffffffffffffffffffffffffffffffffffffffff1673ffffffffffffffffffffffffffffffffffffffff16815260200190815260200160002060008073ffffffffffffffffffffffffffffffffffffffff1673ffffffffffffffffffffffffffffffffffffffff168152602001908152602001600020819055508260020160008373ffffffffffffffffffffffffffffffffffffffff1673ffffffffffffffffffffffffffffffffffffffff16815260200190815260200160002061014060405190810160405280600073ffffffffffffffffffffffffffffffffffffffff1681526020016000815260200160008152602001600081526020016000815260200160008152602001600081526020016000604051908082528060200260200182016040528015615b6c5781602001602082028038833980820191505090505b5081526020016000604051908082528060200260200182016040528015615ba25781602001602082028038833980820191505090505b5081526020016000604051908082528060200260200182016040528015615bd85781602001602082028038833980820191505090505b508152509080600181540180825580915050906001820390600052602060002090600a02016000909192909190915060008201518160000160006101000a81548173ffffffffffffffffffffffffffffffffffffffff021916908373ffffffffffffffffffffffffffffffffffffffff1602179055506020820151816001015560408201518160020155606082015181600301556080820151816004015560a0820151816005015560c0820151816006015560e0820151816007019080519060200190615ca6929190615ea6565b50610100820151816008019080519060200190615cc4929190615f30565b50610120820151816009019080519060200190615ce2929190615f83565b50505050505050565b608060405190810160405280600490602082028038833980820191505090505090565b6040805190810160405280600290602082028038833980820191505090505090565b828054828255906000526020600020908101928215615d715760005260206000209182015b82811115615d70578254825591600101919060010190615d55565b5b509050615d7e919061611c565b5090565b828054828255906000526020600020908101928215615dc35760005260206000209182015b82811115615dc2578254825591600101919060010190615da7565b5b509050615dd0919061615f565b5090565b828054828255906000526020600020908101928215615e155760005260206000209182015b82811115615e14578254825591600101919060010190615df9565b5b509050615e229190616184565b5090565b828054600181600116156101000203166002900490600052602060002090601f016020900481019282601f10615e6757805160ff1916838001178555615e95565b82800160010185558215615e95579182015b82811115615e94578251825591602001919060010190615e79565b5b509050615ea29190616184565b5090565b828054828255906000526020600020908101928215615f1f579160200282015b82811115615f1e5782518260006101000a81548173ffffffffffffffffffffffffffffffffffffffff021916908373ffffffffffffffffffffffffffffffffffffffff16021790555091602001919060010190615ec6565b5b509050615f2c919061611c565b5090565b828054828255906000526020600020908101928215615f72579160200282015b82811115615f71578251829060001916905591602001919060010190615f50565b5b509050615f7f919061615f565b5090565b828054828255906000526020600020908101928215615fbf579160200282015b82811115615fbe578251825591602001919060010190615fa3565b5b509050615fcc9190616184565b5090565b828054600181600116156101000203166002900490600052602060002090601f016020900481019282601f1061601157805160ff191683800117855561603f565b8280016001018555821561603f579182015b8281111561603e578251825591602001919060010190616023565b5b50905061604c9190616184565b5090565b828054828255906000526020600020908101928215616092579160200282015b82811115616091578251829060001916905591602001919060010190616070565b5b50905061609f919061615f565b5090565b8280548282559060005260206000209081019282156160df579160200282015b828111156160de5782518255916020019190600101906160c3565b5b5090506160ec9190616184565b5090565b815481835581811115616117578183600052602060002091820191016161169190616184565b5b505050565b61615c91905b8082111561615857600081816101000a81549073ffffffffffffffffffffffffffffffffffffffff021916905550600101616122565b5090565b90565b61618191905b8082111561617d576000816000905550600101616165565b5090565b90565b6161a691905b808211156161a257600081600090555060010161618a565b5090565b905600a165627a7a723058200e0762906165a790cd8d77d644ad546e63023e1e82209918376c149a508b6e1d0029",
  "source": "pragma solidity 0.4.24;\n\n\nimport \"openzeppelin-solidity/contracts/ownership/Secondary.sol\";\nimport \"openzeppelin-solidity/contracts/utils/ReentrancyGuard.sol\";\nimport \"openzeppelin-solidity/contracts/token/ERC20/IERC20.sol\";\nimport \"./crowdsale/factories/IW12CrowdsaleFactory.sol\";\nimport \"./wallets/IWallets.sol\";\nimport \"./access/roles/IAdminRole.sol\";\nimport \"./token/IWToken.sol\";\nimport \"./libs/Percent.sol\";\nimport \"./token/exchanger/ITokenExchanger.sol\";\nimport \"./versioning/Versionable.sol\";\nimport \"./access/roles/AdminRole.sol\";\nimport \"./libs/TokenListing.sol\";\nimport \"./IListerFactory.sol\";\n\n\ncontract W12Lister is IAdminRole, AdminRole, Versionable, Secondary, ReentrancyGuard {\n\tusing SafeMath for uint;\n\tusing Percent for uint;\n\tusing TokenListing for TokenListing.Whitelist;\n\n\tuint8 constant SERVICE_WALLET_ID = 1;\n\n\tITokenExchanger public exchanger;\n\tIW12CrowdsaleFactory public factory;\n\tIWallets public wallets;\n\n\tTokenListing.Whitelist whitelist;\n\n\tIListerFactory public lister_factory;\n\n\tevent OwnerWhitelisted(address indexed tokenAddress, address indexed tokenOwner);\n\tevent TokenWhitelisted(address indexed token, address indexed sender, address[] owners);\n\tevent CrowdsaleInitialized(address indexed token, address indexed sender, address crowdsale, uint amountForSale);\n\tevent CrowdsaleTokenMinted(address indexed token, address indexed sender, address crowdsale, uint amount);\n\n\tconstructor(\n\t\tuint version,\n\t\tIWallets _wallets,\n\t\tIW12CrowdsaleFactory _factory,\n\t\tITokenExchanger _exchanger,\n\t\tIListerFactory _lister_factory\n\t) Versionable(version) public {\n\t\trequire(_wallets != address(0));\n\t\trequire(_factory != address(0));\n\t\trequire(_exchanger != address(0));\n\n\t\texchanger = _exchanger;\n\t\twallets = _wallets;\n\t\tfactory = _factory;\n\t\tlister_factory = _lister_factory;\n\t}\n\n\tfunction addAdmin(address _account) public onlyPrimary {\n\t\t_addAdmin(_account);\n\t}\n\n\tfunction removeAdmin(address _account) public onlyPrimary {\n\t\t_removeAdmin(_account);\n\t}\n\n\tfunction whitelistToken(\n\t\taddress token,\n\t\tstring name,\n\t\tstring symbol,\n\t\tuint8 decimals,\n\t\taddress[] owners,\n\t\tuint[4] commissions, // [feePercent, ethFeePercent, WTokenSaleFeePercent, trancheFeePercent]\n\t\tbytes32[] paymentMethods,\n\t\tuint[] paymentMethodsPurchaseFee\n\t)\n\texternal onlyAdmin\n\t{\n\t\twhitelist.addOrUpdate(\n\t\t\ttoken,\n\t\t\tname,\n\t\t\tsymbol,\n\t\t\tdecimals,\n\t\t\towners,\n\t\t\tcommissions,\n\t\t\tpaymentMethods,\n\t\t\tpaymentMethodsPurchaseFee\n\t\t);\n\n\t\temit TokenWhitelisted(token, msg.sender, owners);\n\t}\n\n\t/**\n\t * @notice Place token for sale\n\t * @param token Token address\n\t * @param crowdsale Crowdsale address\n\t * @param amount Token amount to place\n\t */\n\tfunction placeToken(address token, address crowdsale, uint amount) external nonReentrant {\n\t\trequire(whitelist.isTokenWhitelisted(token));\n\t\trequire(whitelist.hasTokenOwner(token, msg.sender));\n\t\trequire(whitelist.hasCrowdsaleWithAddress(token, crowdsale));\n\n\t\tTokenListing.WhitelistedToken storage listedToken = whitelist.getToken(token);\n\n\t\tERC20Detailed tokenInstance = lister_factory.placeToken1(token);\n\n\t\trequire(tokenInstance.allowance(msg.sender, address(this)) >= amount);\n\t\trequire(tokenInstance.decimals() == listedToken.decimals);\n\n\t\tuint fee = listedToken.feePercent > 0\n\t\t? amount.percent(listedToken.feePercent)\n\t\t: 0;\n\t\tuint amountWithoutFee = amount.sub(fee);\n\n//\t\t_secureTokenTransfer(IERC20(tokenInstance), exchanger, amountWithoutFee);\n//\t\t_secureTokenTransfer(IERC20(tokenInstance), serviceWallet(), fee);\n\t\tlister_factory.placeToken2(amount, exchanger, amountWithoutFee, serviceWallet(), fee);\n\n\t\twhitelist.getCrowdsaleByAddress(token, crowdsale).tokensForSaleAmount = whitelist\n\t\t.getCrowdsaleByAddress(token, crowdsale)\n\t\t.tokensForSaleAmount.add(amountWithoutFee);\n\n\t\tlister_factory.placeToken3(crowdsale, exchanger, msg.sender, amountWithoutFee, listedToken.name, listedToken.symbol, listedToken.decimals);\n\t}\n\n\t/**\n\t * @dev Securely transfer token from sender to account\n\t */\n\tfunction _secureTokenTransfer(IERC20 token, address to, uint value) internal {\n\t\t// check for overflow before. we are not sure that the placed token has implemented safe math\n\t\tuint expectedBalance = token.balanceOf(to).add(value);\n\n\t\ttoken.transferFrom(msg.sender, to, value);\n\n\t\t// check balance to be sure it was filled correctly\n\t\tassert(token.balanceOf(to) == expectedBalance);\n\t}\n\n\tfunction initCrowdsale(address token, uint amountForSale, uint price) external nonReentrant {\n\t\trequire(serviceWallet() != address(0));\n\t\trequire(whitelist.isTokenWhitelisted(token));\n\t\trequire(whitelist.hasTokenOwner(token, msg.sender));\n\t\trequire(whitelist.hasNotInitialisedCrowdsale(token));\n\t\trequire(\n\t\t\twhitelist.getNotInitialisedCrowdsale(token).tokensForSaleAmount\n\t\t\t>= whitelist.getNotInitialisedCrowdsale(token).wTokensIssuedAmount.add(amountForSale)\n\t\t);\n\n\t\tTokenListing.WhitelistedToken storage listedToken = whitelist.getToken(token);\n\n\t\tIWToken wtoken = exchanger.getWTokenByToken(listedToken.token);\n\n\t\tIW12Crowdsale crowdsale = factory.createCrowdsale(\n\t\t\tlistedToken.token,\n\t\t\taddress(wtoken),\n\t\t\tprice,\n\t\t\tserviceWallet(),\n\t\t\tlistedToken.ethFeePercent,\n\t\t\tlistedToken.WTokenSaleFeePercent,\n\t\t\tlistedToken.trancheFeePercent,\n\t\t\taddress(exchanger),\n\t\t\tlistedToken.owners\n\t\t);\n\n\t\tcrowdsale.addAdmin(msg.sender);\n\t\tcrowdsale.getFund().addAdmin(msg.sender);\n\t\twtoken.addAdmin(address(crowdsale));\n\n\t\twhitelist.initializeCrowdsale(token, address(crowdsale));\n\t\t_setPaymentMethodPurchaseFeeForCrowdsale(crowdsale, listedToken);\n\n\t\t// give approve to spend entire tokens sale amount because there may be\n\t\t// individual purchase fee value for a payment method and it may be changed in the future.\n\t\texchanger.approve(\n\t\t\tIERC20(listedToken.token),\n\t\t\taddress(crowdsale),\n\t\t\twhitelist.getCrowdsaleByAddress(token, address(crowdsale)).tokensForSaleAmount\n\t\t);\n\n\t\taddTokensToCrowdsale(token, address(crowdsale), amountForSale);\n\n\t\temit CrowdsaleInitialized(listedToken.token, msg.sender, address(crowdsale), amountForSale);\n\t}\n\n\tfunction _setPaymentMethodPurchaseFeeForCrowdsale(IW12Crowdsale crowdsale, TokenListing.WhitelistedToken storage listedToken) private {\n\t\tfor (uint i = 0; i < listedToken.paymentMethods.length; i++) {\n\t\t\tcrowdsale.updatePurchaseFeeParameterForPaymentMethod(\n\t\t\t\tlistedToken.paymentMethods[i],\n\t\t\t\ttrue,\n\t\t\t\tlistedToken.paymentMethodsPurchaseFee[i]\n\t\t\t);\n\t\t}\n\t}\n\n\tfunction addTokensToCrowdsale(address token, address crowdsale, uint amountForSale) public {\n\t\trequire(amountForSale > 0);\n\t\trequire(whitelist.isTokenWhitelisted(token));\n\t\trequire(whitelist.hasTokenOwner(token, msg.sender));\n\t\trequire(whitelist.hasCrowdsaleWithAddress(token, crowdsale));\n\t\trequire(address(exchanger.getWTokenByToken(token)) != address(0));\n\t\trequire(\n\t\t\twhitelist.getCrowdsaleByAddress(token, crowdsale).tokensForSaleAmount\n\t\t\t>= whitelist.getCrowdsaleByAddress(token, crowdsale).wTokensIssuedAmount.add(amountForSale)\n\t\t);\n\n\t\tIWToken wtoken = exchanger.getWTokenByToken(token);\n\n\t\twhitelist.getCrowdsaleByAddress(token, crowdsale).wTokensIssuedAmount = whitelist\n\t\t.getCrowdsaleByAddress(token, crowdsale)\n\t\t.wTokensIssuedAmount.add(amountForSale);\n\n\t\twtoken.mint(crowdsale, amountForSale, 0);\n\n\t\temit CrowdsaleTokenMinted(token, msg.sender, address(crowdsale), amountForSale);\n\t}\n\n\tfunction getTokenOwners(address token) external view returns (address[]) {\n\t\treturn whitelist.getToken(token).owners;\n\t}\n\n\tfunction getCrowdsaleOwners(address token, address crowdsale) external view returns (address[]) {\n\t\treturn whitelist.getCrowdsaleByAddress(token, crowdsale).owners;\n\t}\n\n\tfunction getExchanger() view external returns (ITokenExchanger) {\n\t\treturn exchanger;\n\t}\n\n\tfunction getToken(address token)\n\texternal view returns (\n\t\tstring name,\n\t\tstring symbol,\n\t\tuint8 decimals,\n\t\taddress[] owners,\n\t\tuint[4] commissions,\n\t\tbytes32[] paymentMethods,\n\t\tuint[] paymentMethodsPurchaseFee\n\t)\n\t{\n\t\trequire(whitelist.isTokenWhitelisted(token));\n\n\t\tname = whitelist.getToken(token).name;\n\t\tsymbol = whitelist.getToken(token).symbol;\n\t\tdecimals = whitelist.getToken(token).decimals;\n\t\towners = whitelist.getToken(token).owners;\n\t\tcommissions[0] = whitelist.getToken(token).feePercent;\n\t\tcommissions[1] = whitelist.getToken(token).ethFeePercent;\n\t\tcommissions[2] = whitelist.getToken(token).WTokenSaleFeePercent;\n\t\tcommissions[3] = whitelist.getToken(token).trancheFeePercent;\n\t\tpaymentMethods = whitelist.getToken(token).paymentMethods;\n\t\tpaymentMethodsPurchaseFee = whitelist.getToken(token).paymentMethodsPurchaseFee;\n\t}\n\n\tfunction getTokens() external view returns (address[]) {\n\t\taddress[] memory result = new address[](whitelist.getTokens().length);\n\n\t\tfor (uint i = 0; i < whitelist.getTokens().length; i++) {\n\t\t\tresult[i] = whitelist.getTokens()[i].token;\n\t\t}\n\n\t\treturn result;\n\t}\n\n\tfunction isTokenWhitelisted(address token) external view returns (bool) {\n\t\treturn whitelist.isTokenWhitelisted(token);\n\t}\n\n\tfunction hasTokenOwner(address token, address owner) external view returns (bool) {\n\t\treturn whitelist.hasTokenOwner(token, owner);\n\t}\n\n\tfunction getCrowdsales(address token) external view returns (address[]) {\n\t\taddress[] memory result = new address[](whitelist.getCrowdsales(token).length);\n\n\t\tfor (uint i = 0; i < whitelist.getCrowdsales(token).length; i++) {\n\t\t\tresult[i] = whitelist.getCrowdsales(token)[i].crowdsale;\n\t\t}\n\n\t\treturn result;\n\t}\n\n\tfunction hasCrowdsaleWithAddress(address token, address crowdsale) external view returns (bool) {\n\t\treturn whitelist.hasCrowdsaleWithAddress(token, crowdsale);\n\t}\n\n\tfunction hasNotInitialisedCrowdsale(address token) public view returns (bool) {\n\t\treturn whitelist.hasNotInitialisedCrowdsale(token);\n\t}\n\n\tfunction getCrowdsale(address token, address crowdsale)\n\texternal view returns (\n\t\tuint[4] commissions,\n\t\tuint[2] amounts,\n\t\taddress[] owners,\n\t\tbytes32[] paymentMethods,\n\t\tuint[] paymentMethodsPurchaseFee\n\t)\n\t{\n\t\trequire(whitelist.hasCrowdsaleWithAddress(token, crowdsale));\n\n\t\tcommissions[0] = whitelist.getCrowdsaleByAddress(token, crowdsale).feePercent;\n\t\tcommissions[1] = whitelist.getCrowdsaleByAddress(token, crowdsale).ethFeePercent;\n\t\tcommissions[2] = whitelist.getCrowdsaleByAddress(token, crowdsale).WTokenSaleFeePercent;\n\t\tcommissions[3] = whitelist.getCrowdsaleByAddress(token, crowdsale).trancheFeePercent;\n\t\tamounts[0] = whitelist.getCrowdsaleByAddress(token, crowdsale).tokensForSaleAmount;\n\t\tamounts[1] = whitelist.getCrowdsaleByAddress(token, crowdsale).wTokensIssuedAmount;\n\t\towners = whitelist.getCrowdsaleByAddress(token, crowdsale).owners;\n\t\tpaymentMethods = whitelist.getCrowdsaleByAddress(token, crowdsale).paymentMethods;\n\t\tpaymentMethodsPurchaseFee = whitelist.getCrowdsaleByAddress(token, crowdsale).paymentMethodsPurchaseFee;\n\t}\n\n\tfunction serviceWallet() public view returns (address) {\n\t\treturn wallets.getWallet(SERVICE_WALLET_ID);\n\t}\n}\n",
  "sourcePath": "/Users/gauss/_games/w12/Protocol/contracts/W12Lister.sol",
  "compiler": {
    "name": "solc",
    "version": "0.4.24+commit.e67f0147.Emscripten.clang"
  },
  "schemaVersion": "3.0.16",
  "updatedAt": "2019-11-17T18:33:01.121Z",
  "devdoc": {
    "methods": {
      "placeToken(address,address,uint256)": {
        "params": {
          "amount": "Token amount to place",
          "crowdsale": "Crowdsale address",
          "token": "Token address"
        }
      },
      "primary()": {
        "return": "the address of the primary."
      },
      "transferPrimary(address)": {
        "details": "Transfers contract to a new primary.",
        "params": {
          "recipient": "The address of new primary. "
        }
      }
    }
  },
  "userdoc": {
    "methods": {
      "placeToken(address,address,uint256)": {
        "notice": "Place token for sale"
      }
    }
  }
}