{
  "contractName": "W12Lister__W12CrowdsaleMock",
  "abi": [
    {
      "constant": true,
      "inputs": [],
      "name": "_addAdminCall",
      "outputs": [
        {
          "name": "",
          "type": "address"
        }
      ],
      "payable": false,
      "stateMutability": "view",
      "type": "function"
    },
    {
      "inputs": [],
      "payable": false,
      "stateMutability": "nonpayable",
      "type": "constructor"
    },
    {
      "payable": true,
      "stateMutability": "payable",
      "type": "fallback"
    },
    {
      "constant": true,
      "inputs": [
        {
          "name": "account",
          "type": "address"
        }
      ],
      "name": "isAdmin",
      "outputs": [
        {
          "name": "",
          "type": "bool"
        }
      ],
      "payable": false,
      "stateMutability": "view",
      "type": "function"
    },
    {
      "constant": false,
      "inputs": [
        {
          "name": "account",
          "type": "address"
        }
      ],
      "name": "addAdmin",
      "outputs": [],
      "payable": false,
      "stateMutability": "nonpayable",
      "type": "function"
    },
    {
      "constant": false,
      "inputs": [],
      "name": "renounceAdmin",
      "outputs": [],
      "payable": false,
      "stateMutability": "nonpayable",
      "type": "function"
    },
    {
      "constant": false,
      "inputs": [
        {
          "name": "account",
          "type": "address"
        }
      ],
      "name": "removeAdmin",
      "outputs": [],
      "payable": false,
      "stateMutability": "nonpayable",
      "type": "function"
    },
    {
      "constant": true,
      "inputs": [
        {
          "name": "account",
          "type": "address"
        }
      ],
      "name": "isProjectOwner",
      "outputs": [
        {
          "name": "",
          "type": "bool"
        }
      ],
      "payable": false,
      "stateMutability": "view",
      "type": "function"
    },
    {
      "constant": false,
      "inputs": [
        {
          "name": "account",
          "type": "address"
        }
      ],
      "name": "addProjectOwner",
      "outputs": [],
      "payable": false,
      "stateMutability": "nonpayable",
      "type": "function"
    },
    {
      "constant": false,
      "inputs": [],
      "name": "renounceProjectOwner",
      "outputs": [],
      "payable": false,
      "stateMutability": "nonpayable",
      "type": "function"
    },
    {
      "constant": false,
      "inputs": [
        {
          "name": "account",
          "type": "address"
        }
      ],
      "name": "removeProjectOwner",
      "outputs": [],
      "payable": false,
      "stateMutability": "nonpayable",
      "type": "function"
    },
    {
      "constant": true,
      "inputs": [],
      "name": "getFund",
      "outputs": [
        {
          "name": "",
          "type": "address"
        }
      ],
      "payable": false,
      "stateMutability": "view",
      "type": "function"
    },
    {
      "constant": false,
      "inputs": [
        {
          "name": "price",
          "type": "uint256"
        }
      ],
      "name": "setParameters",
      "outputs": [],
      "payable": false,
      "stateMutability": "nonpayable",
      "type": "function"
    },
    {
      "constant": false,
      "inputs": [
        {
          "name": "_address",
          "type": "address"
        }
      ],
      "name": "transferPrimary",
      "outputs": [],
      "payable": false,
      "stateMutability": "nonpayable",
      "type": "function"
    },
    {
      "constant": false,
      "inputs": [
        {
          "name": "parametersOfStages",
          "type": "uint256[6][]"
        },
        {
          "name": "bonusConditionsOfStages",
          "type": "uint256[]"
        },
        {
          "name": "parametersOfMilestones",
          "type": "uint256[4][]"
        },
        {
          "name": "nameAndDescriptionsOffsetOfMilestones",
          "type": "uint32[]"
        },
        {
          "name": "nameAndDescriptionsOfMilestones",
          "type": "bytes"
        },
        {
          "name": "paymentMethodsList",
          "type": "bytes32[]"
        }
      ],
      "name": "setup",
      "outputs": [],
      "payable": false,
      "stateMutability": "nonpayable",
      "type": "function"
    },
    {
      "constant": true,
      "inputs": [],
      "name": "getWToken",
      "outputs": [
        {
          "name": "",
          "type": "address"
        }
      ],
      "payable": false,
      "stateMutability": "view",
      "type": "function"
    },
    {
      "constant": true,
      "inputs": [
        {
          "name": "index",
          "type": "uint256"
        }
      ],
      "name": "getMilestone",
      "outputs": [
        {
          "name": "",
          "type": "uint32"
        },
        {
          "name": "",
          "type": "uint256"
        },
        {
          "name": "",
          "type": "uint32"
        },
        {
          "name": "",
          "type": "uint32"
        },
        {
          "name": "",
          "type": "bytes"
        },
        {
          "name": "",
          "type": "bytes"
        }
      ],
      "payable": false,
      "stateMutability": "view",
      "type": "function"
    },
    {
      "constant": true,
      "inputs": [
        {
          "name": "index",
          "type": "uint256"
        }
      ],
      "name": "getStage",
      "outputs": [
        {
          "name": "",
          "type": "uint32"
        },
        {
          "name": "",
          "type": "uint32"
        },
        {
          "name": "",
          "type": "uint256"
        },
        {
          "name": "",
          "type": "uint32"
        },
        {
          "name": "",
          "type": "uint256[]"
        },
        {
          "name": "",
          "type": "uint256[]"
        }
      ],
      "payable": false,
      "stateMutability": "view",
      "type": "function"
    },
    {
      "constant": true,
      "inputs": [],
      "name": "getCurrentMilestoneIndex",
      "outputs": [
        {
          "name": "",
          "type": "uint256"
        },
        {
          "name": "",
          "type": "bool"
        }
      ],
      "payable": false,
      "stateMutability": "view",
      "type": "function"
    },
    {
      "constant": true,
      "inputs": [],
      "name": "getLastMilestoneIndex",
      "outputs": [
        {
          "name": "index",
          "type": "uint256"
        },
        {
          "name": "found",
          "type": "bool"
        }
      ],
      "payable": false,
      "stateMutability": "view",
      "type": "function"
    },
    {
      "constant": true,
      "inputs": [],
      "name": "milestonesLength",
      "outputs": [
        {
          "name": "",
          "type": "uint256"
        }
      ],
      "payable": false,
      "stateMutability": "view",
      "type": "function"
    },
    {
      "constant": true,
      "inputs": [],
      "name": "getCurrentStageIndex",
      "outputs": [
        {
          "name": "index",
          "type": "uint256"
        },
        {
          "name": "found",
          "type": "bool"
        }
      ],
      "payable": false,
      "stateMutability": "view",
      "type": "function"
    },
    {
      "constant": true,
      "inputs": [
        {
          "name": "value",
          "type": "uint256"
        }
      ],
      "name": "getSaleVolumeBonus",
      "outputs": [
        {
          "name": "bonus",
          "type": "uint256"
        }
      ],
      "payable": false,
      "stateMutability": "view",
      "type": "function"
    },
    {
      "constant": true,
      "inputs": [],
      "name": "isEnded",
      "outputs": [
        {
          "name": "",
          "type": "bool"
        }
      ],
      "payable": false,
      "stateMutability": "view",
      "type": "function"
    },
    {
      "constant": true,
      "inputs": [],
      "name": "isSaleActive",
      "outputs": [
        {
          "name": "",
          "type": "bool"
        }
      ],
      "payable": false,
      "stateMutability": "view",
      "type": "function"
    },
    {
      "constant": false,
      "inputs": [
        {
          "name": "method",
          "type": "bytes32"
        },
        {
          "name": "amount",
          "type": "uint256"
        }
      ],
      "name": "buyTokens",
      "outputs": [],
      "payable": true,
      "stateMutability": "payable",
      "type": "function"
    }
  ],
  "bytecode": "0x608060405234801561001057600080fd5b5061001961005b565b604051809103906000f080158015610035573d6000803e3d6000fd5b5060008054600160a060020a031916600160a060020a039290921691909117905561006b565b60405161024f8061067f83390190565b6106058061007a6000396000f30060806040526004361061013d5763ffffffff7c010000000000000000000000000000000000000000000000000000000060003504166307f5d633811461013f57806314f66d341461014d5780631785f53c1461017b578063208853c91461019c5780632348238c1461017b5780632442e1cb146101c657806324d7806c146102fc5780632e3250201461033157806339e69a6c146104225780633baba4d7146104535780633bcdb1641461017b5780634090cb6414610468578063564566a81461047d57806370480275146104925780638bad0c0a146104b35780638edd6eb6146104c8578063a4fd6f561461047d578063d0934d61146104b3578063d155790b1461017b578063d5b22623146104dd578063d6d65f3d1461014d578063d8e9ce64146102fc578063daa4cf881461014d578063e93b054014610539575b005b61013d600435602435610551565b34801561015957600080fd5b50610162610555565b6040805192835290151560208301528051918290030190f35b34801561018757600080fd5b5061013d600160a060020a036004351661055c565b3480156101a857600080fd5b506101b460043561055f565b60408051918252519081900360200190f35b3480156101d257600080fd5b506101de600435610565565b604051808763ffffffff1663ffffffff1681526020018681526020018563ffffffff1663ffffffff1681526020018463ffffffff1663ffffffff1681526020018060200180602001838103835285818151815260200191508051906020019080838360005b8381101561025b578181015183820152602001610243565b50505050905090810190601f1680156102885780820380516001836020036101000a031916815260200191505b50838103825284518152845160209182019186019080838360005b838110156102bb5781810151838201526020016102a3565b50505050905090810190601f1680156102e85780820380516001836020036101000a031916815260200191505b509850505050505050505060405180910390f35b34801561030857600080fd5b5061031d600160a060020a036004351661055f565b604080519115158252519081900360200190f35b34801561033d57600080fd5b50610349600435610565565b604051808763ffffffff1663ffffffff1681526020018663ffffffff1663ffffffff1681526020018581526020018463ffffffff1663ffffffff1681526020018060200180602001838103835285818151815260200191508051906020019060200280838360005b838110156103c95781810151838201526020016103b1565b50505050905001838103825284818151815260200191508051906020019060200280838360005b838110156104085781810151838201526020016103f0565b505050509050019850505050505050505060405180910390f35b34801561042e57600080fd5b50610437610577565b60408051600160a060020a039092168252519081900360200190f35b34801561045f57600080fd5b506101b4610586565b34801561047457600080fd5b50610437610586565b34801561048957600080fd5b5061031d610586565b34801561049e57600080fd5b5061013d600160a060020a036004351661058b565b3480156104bf57600080fd5b5061013d6105ba565b3480156104d457600080fd5b506104376105bc565b3480156104e957600080fd5b5061013d602460048035828101929082013591813580830192908201359160443580830192908201359160643580830192908201359160843580830192908201359160a4359182019101356105cb565b34801561054557600080fd5b5061013d60043561055c565b5050565b6000809091565b50565b50600090565b60008060008060608091939550919395565b600154600160a060020a031681565b600090565b6001805473ffffffffffffffffffffffffffffffffffffffff1916600160a060020a0392909216919091179055565b565b600054600160a060020a031690565b5050505050505050505050505600a165627a7a723058207439eea7a4fd6d4364e276282bbfcb60a3d045d1fc502b3b5bf06a1581a05f840029608060405234801561001057600080fd5b5061022f806100206000396000f3006080604052600436106100cf5763ffffffff7c01000000000000000000000000000000000000000000000000000000006000350416631785f53c81146100d45780632348238c146100d457806323bffccc146100d457806324d7806c146100f757806339e69a6c1461012c5780633bcdb164146100d4578063483a20b2146100d4578063704802751461015d5780638bad0c0a1461017e578063acb3c073146100d4578063d0934d611461017e578063d0baf2f514610193578063d155790b146100d4578063d8e9ce64146100f7575b600080fd5b3480156100e057600080fd5b506100f5600160a060020a03600435166101b3565b005b34801561010357600080fd5b50610118600160a060020a03600435166101b6565b604080519115158252519081900360200190f35b34801561013857600080fd5b506101416101bc565b60408051600160a060020a039092168252519081900360200190f35b34801561016957600080fd5b506100f5600160a060020a03600435166101cb565b34801561018a57600080fd5b506100f56101fa565b6100f5600160a060020a03600435166024356044356064356084356101fc565b50565b50600090565b600054600160a060020a031681565b6000805473ffffffffffffffffffffffffffffffffffffffff1916600160a060020a0392909216919091179055565b565b50505050505600a165627a7a72305820737c1e8a23180caeb011ac20837d0e1682a7a8b47d05981e1ee56d035ba7327f0029",
  "source": "pragma solidity ^0.4.24;\n\nimport \"../../crowdsale/IW12Crowdsale.sol\";\nimport \"../../crowdsale/IW12Fund.sol\";\nimport \"./W12Lister__W12FundMock.sol\";\n\ncontract W12Lister__W12CrowdsaleMock is IW12Crowdsale {\n    IW12Fund private _fund;\n\n    constructor() public {\n        _fund = new W12Lister__W12FundMock();\n    }\n\n    function isAdmin(address account) public view returns (bool) {}\n\n    address public _addAdminCall;\n\n    function addAdmin(address account) public {\n        _addAdminCall = account;\n    }\n\n    function renounceAdmin() public {}\n\n    function removeAdmin(address account) public {}\n\n    function isProjectOwner(address account) public view returns (bool) {}\n\n    function addProjectOwner(address account) public {}\n\n    function renounceProjectOwner() public {}\n\n    function removeProjectOwner(address account) public {}\n\n    function getFund() external view returns (IW12Fund) {\n        return _fund;\n    }\n\n    function setParameters(uint price) external {}\n\n    function transferPrimary(address _address) public {}\n\n    function setup(\n        uint[6][] parametersOfStages,\n        uint[] bonusConditionsOfStages,\n        uint[4][] parametersOfMilestones,\n        uint32[] nameAndDescriptionsOffsetOfMilestones,\n        bytes nameAndDescriptionsOfMilestones,\n        bytes32[] paymentMethodsList\n    ) external {}\n\n    function getWToken() external view returns (IWToken) {}\n\n    function getMilestone(uint index) public view returns (uint32, uint, uint32, uint32, bytes, bytes) {}\n\n    function getStage(uint index) public view returns (uint32, uint32, uint, uint32, uint[], uint[]) {}\n\n    function getCurrentMilestoneIndex() public view returns (uint, bool) {}\n\n    function getLastMilestoneIndex() public view returns (uint index, bool found) {}\n\n    function milestonesLength() external view returns (uint) {}\n\n    function getCurrentStageIndex() public view returns (uint index, bool found) {}\n\n    function getSaleVolumeBonus(uint value) public view returns (uint bonus) {}\n\n    function isEnded() public view returns (bool) {}\n\n    function isSaleActive() public view returns (bool) {}\n\n    function() payable external {}\n\n    function buyTokens(bytes32 method, uint amount) payable public {}\n}\n",
  "sourcePath": "/home/circleci/code/contracts/mocks/lister/W12Lister__W12CrowdsaleMock.sol",
  "compiler": {
    "name": "solc",
    "version": "0.4.24+commit.e67f0147.Emscripten.clang"
  },
  "schemaVersion": "2.0.1",
  "updatedAt": "2018-12-06T13:14:33.027Z"
}