{
  "contractName": "W12Lister",
  "abi": [
    {
      "constant": true,
      "inputs": [
        {
          "name": "",
          "type": "uint256"
        }
      ],
      "name": "approvedTokens",
      "outputs": [
        {
          "name": "name",
          "type": "string"
        },
        {
          "name": "symbol",
          "type": "string"
        },
        {
          "name": "decimals",
          "type": "uint8"
        },
        {
          "name": "feePercent",
          "type": "uint256"
        },
        {
          "name": "ethFeePercent",
          "type": "uint256"
        },
        {
          "name": "WTokenSaleFeePercent",
          "type": "uint256"
        },
        {
          "name": "trancheFeePercent",
          "type": "uint256"
        },
        {
          "name": "crowdsaleAddress",
          "type": "address"
        },
        {
          "name": "tokensForSaleAmount",
          "type": "uint256"
        },
        {
          "name": "wTokensIssuedAmount",
          "type": "uint256"
        },
        {
          "name": "tokenAddress",
          "type": "address"
        }
      ],
      "payable": false,
      "stateMutability": "view",
      "type": "function"
    },
    {
      "constant": true,
      "inputs": [],
      "name": "exchanger",
      "outputs": [
        {
          "name": "",
          "type": "address"
        }
      ],
      "payable": false,
      "stateMutability": "view",
      "type": "function"
    },
    {
      "constant": true,
      "inputs": [],
      "name": "version",
      "outputs": [
        {
          "name": "",
          "type": "uint256"
        }
      ],
      "payable": false,
      "stateMutability": "view",
      "type": "function"
    },
    {
      "constant": true,
      "inputs": [],
      "name": "serviceWallet",
      "outputs": [
        {
          "name": "",
          "type": "address"
        }
      ],
      "payable": false,
      "stateMutability": "view",
      "type": "function"
    },
    {
      "constant": false,
      "inputs": [],
      "name": "renounceOwnership",
      "outputs": [],
      "payable": false,
      "stateMutability": "nonpayable",
      "type": "function"
    },
    {
      "constant": true,
      "inputs": [],
      "name": "owner",
      "outputs": [
        {
          "name": "",
          "type": "address"
        }
      ],
      "payable": false,
      "stateMutability": "view",
      "type": "function"
    },
    {
      "constant": true,
      "inputs": [],
      "name": "approvedTokensLength",
      "outputs": [
        {
          "name": "",
          "type": "uint16"
        }
      ],
      "payable": false,
      "stateMutability": "view",
      "type": "function"
    },
    {
      "constant": true,
      "inputs": [],
      "name": "factory",
      "outputs": [
        {
          "name": "",
          "type": "address"
        }
      ],
      "payable": false,
      "stateMutability": "view",
      "type": "function"
    },
    {
      "constant": true,
      "inputs": [
        {
          "name": "",
          "type": "address"
        },
        {
          "name": "",
          "type": "address"
        }
      ],
      "name": "approvedTokensIndex",
      "outputs": [
        {
          "name": "",
          "type": "uint16"
        }
      ],
      "payable": false,
      "stateMutability": "view",
      "type": "function"
    },
    {
      "constant": false,
      "inputs": [
        {
          "name": "_newOwner",
          "type": "address"
        }
      ],
      "name": "transferOwnership",
      "outputs": [],
      "payable": false,
      "stateMutability": "nonpayable",
      "type": "function"
    },
    {
      "inputs": [
        {
          "name": "version",
          "type": "uint256"
        },
        {
          "name": "_serviceWallet",
          "type": "address"
        },
        {
          "name": "_factory",
          "type": "address"
        },
        {
          "name": "_exchanger",
          "type": "address"
        }
      ],
      "payable": false,
      "stateMutability": "nonpayable",
      "type": "constructor"
    },
    {
      "anonymous": false,
      "inputs": [
        {
          "indexed": true,
          "name": "tokenAddress",
          "type": "address"
        },
        {
          "indexed": true,
          "name": "tokenOwner",
          "type": "address"
        },
        {
          "indexed": false,
          "name": "name",
          "type": "string"
        },
        {
          "indexed": false,
          "name": "symbol",
          "type": "string"
        }
      ],
      "name": "OwnerWhitelisted",
      "type": "event"
    },
    {
      "anonymous": false,
      "inputs": [
        {
          "indexed": true,
          "name": "originalTokenAddress",
          "type": "address"
        },
        {
          "indexed": true,
          "name": "tokenOwner",
          "type": "address"
        },
        {
          "indexed": false,
          "name": "tokenAmount",
          "type": "uint256"
        },
        {
          "indexed": false,
          "name": "placedTokenAddress",
          "type": "address"
        }
      ],
      "name": "TokenPlaced",
      "type": "event"
    },
    {
      "anonymous": false,
      "inputs": [
        {
          "indexed": true,
          "name": "tokenAddress",
          "type": "address"
        },
        {
          "indexed": true,
          "name": "tokenOwner",
          "type": "address"
        },
        {
          "indexed": false,
          "name": "amountForSale",
          "type": "uint256"
        }
      ],
      "name": "CrowdsaleInitialized",
      "type": "event"
    },
    {
      "anonymous": false,
      "inputs": [
        {
          "indexed": true,
          "name": "tokenAddress",
          "type": "address"
        },
        {
          "indexed": true,
          "name": "tokenOwner",
          "type": "address"
        },
        {
          "indexed": false,
          "name": "amount",
          "type": "uint256"
        }
      ],
      "name": "CrowdsaleTokenMinted",
      "type": "event"
    },
    {
      "anonymous": false,
      "inputs": [
        {
          "indexed": true,
          "name": "previousOwner",
          "type": "address"
        }
      ],
      "name": "OwnershipRenounced",
      "type": "event"
    },
    {
      "anonymous": false,
      "inputs": [
        {
          "indexed": true,
          "name": "previousOwner",
          "type": "address"
        },
        {
          "indexed": true,
          "name": "newOwner",
          "type": "address"
        }
      ],
      "name": "OwnershipTransferred",
      "type": "event"
    },
    {
      "constant": false,
      "inputs": [
        {
          "name": "tokenOwner",
          "type": "address"
        },
        {
          "name": "tokenAddress",
          "type": "address"
        },
        {
          "name": "name",
          "type": "string"
        },
        {
          "name": "symbol",
          "type": "string"
        },
        {
          "name": "decimals",
          "type": "uint8"
        },
        {
          "name": "feePercent",
          "type": "uint256"
        },
        {
          "name": "ethFeePercent",
          "type": "uint256"
        },
        {
          "name": "WTokenSaleFeePercent",
          "type": "uint256"
        },
        {
          "name": "trancheFeePercent",
          "type": "uint256"
        }
      ],
      "name": "whitelistToken",
      "outputs": [],
      "payable": false,
      "stateMutability": "nonpayable",
      "type": "function"
    },
    {
      "constant": false,
      "inputs": [
        {
          "name": "tokenAddress",
          "type": "address"
        },
        {
          "name": "amount",
          "type": "uint256"
        }
      ],
      "name": "placeToken",
      "outputs": [],
      "payable": false,
      "stateMutability": "nonpayable",
      "type": "function"
    },
    {
      "constant": false,
      "inputs": [
        {
          "name": "tokenAddress",
          "type": "address"
        },
        {
          "name": "amountForSale",
          "type": "uint256"
        },
        {
          "name": "price",
          "type": "uint256"
        }
      ],
      "name": "initCrowdsale",
      "outputs": [],
      "payable": false,
      "stateMutability": "nonpayable",
      "type": "function"
    },
    {
      "constant": false,
      "inputs": [
        {
          "name": "tokenAddress",
          "type": "address"
        },
        {
          "name": "amountForSale",
          "type": "uint256"
        }
      ],
      "name": "addTokensToCrowdsale",
      "outputs": [],
      "payable": false,
      "stateMutability": "nonpayable",
      "type": "function"
    },
    {
      "constant": true,
      "inputs": [
        {
          "name": "tokenAddress",
          "type": "address"
        },
        {
          "name": "ownerAddress",
          "type": "address"
        }
      ],
      "name": "getTokenCrowdsale",
      "outputs": [
        {
          "name": "",
          "type": "address"
        }
      ],
      "payable": false,
      "stateMutability": "view",
      "type": "function"
    },
    {
      "constant": true,
      "inputs": [
        {
          "name": "token",
          "type": "address"
        }
      ],
      "name": "getTokenOwners",
      "outputs": [
        {
          "name": "",
          "type": "address[]"
        }
      ],
      "payable": false,
      "stateMutability": "view",
      "type": "function"
    },
    {
      "constant": true,
      "inputs": [],
      "name": "getExchanger",
      "outputs": [
        {
          "name": "",
          "type": "address"
        }
      ],
      "payable": false,
      "stateMutability": "view",
      "type": "function"
    }
  ],
  "bytecode": "0x608060405260016002553480156200001657600080fd5b50604051608080620037618339810160409081528151602083015191830151606090930151600082905560018054600160a060020a03191633179055909290600160a060020a03831615156200006b57600080fd5b600160a060020a03821615156200008157600080fd5b600160a060020a03811615156200009757600080fd5b60038054600160a060020a03808416600160a060020a0319928316179092556008805486841662010000026201000060b060020a031990911617905560048054928516929091169190911790556006805490620000f8906001830162000103565b505050505062000237565b8154818355818111156200013257600c0281600c02836000526020600020918201910162000132919062000137565b505050565b620001cc91905b80821115620001c8576000620001558282620001cf565b62000165600183016000620001cf565b5060028101805460ff19169055600060048201819055600582018190556006820181905560078201819055600882018054600160a060020a031990811690915560098301829055600a830191909155600b820180549091169055600c016200013e565b5090565b90565b50805460018160011615610100020316600290046000825580601f10620001f7575062000217565b601f0160209004906000526020600020908101906200021791906200021a565b50565b620001cc91905b80821115620001c8576000815560010162000221565b61351a80620002476000396000f300608060405260043610620000e95763ffffffff60e060020a60003504166309363c998114620000ee5780631dafede0146200011a57806334cf82bf14620002825780633f3466a714620002d95780634b1acf39146200031f5780634d12fca4146200033757806354fd4d50146200034f5780635641f3c3146200037957806368dce9321462000391578063715018a614620003b8578063849072b914620003d05780638da5cb5b14620004465780639cf96e2e146200045e578063a41ffd38146200048d578063c45a015514620004b4578063cca89d7314620004cc578063f2fde38b14620004f6575b600080fd5b348015620000fb57600080fd5b5062000118600160a060020a03600435166024356044356200051a565b005b3480156200012757600080fd5b50620001356004356200093d565b6040518080602001806020018c60ff1660ff1681526020018b81526020018a815260200189815260200188815260200187600160a060020a0316600160a060020a0316815260200186815260200185815260200184600160a060020a0316600160a060020a0316815260200183810383528e818151815260200191508051906020019080838360005b83811015620001d8578181015183820152602001620001be565b50505050905090810190601f168015620002065780820380516001836020036101000a031916815260200191505b5083810382528d5181528d516020918201918f019080838360005b838110156200023b57818101518382015260200162000221565b50505050905090810190601f168015620002695780820380516001836020036101000a031916815260200191505b509d505050505050505050505050505060405180910390f35b3480156200028f57600080fd5b5062000118600160a060020a0360048035821691602480359091169160443580830192908201359160643591820191013560ff6084351660a43560c43560e4356101043562000adf565b348015620002e657600080fd5b5062000303600160a060020a036004358116906024351662000fdc565b60408051600160a060020a039092168252519081900360200190f35b3480156200032c57600080fd5b506200030362001000565b3480156200034457600080fd5b506200030362001010565b3480156200035c57600080fd5b50620003676200101f565b60408051918252519081900360200190f35b3480156200038657600080fd5b506200030362001025565b3480156200039e57600080fd5b5062000118600160a060020a03600435166024356200103a565b348015620003c557600080fd5b5062000118620015ef565b348015620003dd57600080fd5b50620003f4600160a060020a03600435166200165e565b60408051602080825283518183015283519192839290830191858101910280838360005b838110156200043257818101518382015260200162000418565b505050509050019250505060405180910390f35b3480156200045357600080fd5b5062000303620016d6565b3480156200046b57600080fd5b5062000476620016e5565b6040805161ffff9092168252519081900360200190f35b3480156200049a57600080fd5b5062000118600160a060020a0360043516602435620016ef565b348015620004c157600080fd5b5062000303620019dd565b348015620004d957600080fd5b5062000476600160a060020a0360043581169060243516620019ec565b3480156200050357600080fd5b5062000118600160a060020a036004351662001a0d565b60008060016002541415156200052f57600080fd5b600280556200053f853362001a33565b336000908152600391909101602052604090205460ff1615156001146200056557600080fd5b620005878462000576873362001a33565b600a01549063ffffffff62001a8516565b62000593863362001a33565b600901541015620005a357600080fd5b6000620005b1863362001a33565b60080154600160a060020a031614620005c957600080fd5b6003546040805160e260020a630547cdcd028152600160a060020a0388811660048301529151919092169163151f37349160248083019260209291908290030181600087803b1580156200061c57600080fd5b505af115801562000631573d6000803e3d6000fd5b505050506040513d60208110156200064857600080fd5b5051600454600854919350600160a060020a039081169163aa1322f791889186918891620100009004166200067e843362001a33565b600501546200068e8c3362001a33565b600601546200069e8d3362001a33565b600701546003546040805160e060020a63ffffffff8c16028152600160a060020a03998a166004820152978916602489015260448801969096529387166064870152608486019290925260a485015260c48401529290921660e48201523361010482015290516101248083019260209291908290030181600087803b1580156200072757600080fd5b505af11580156200073c573d6000803e3d6000fd5b505050506040513d60208110156200075357600080fd5b505190508062000764863362001a33565b600801805473ffffffffffffffffffffffffffffffffffffffff1916600160a060020a03928316179055604080517fd88b8676000000000000000000000000000000000000000000000000000000008152838316600482015290519184169163d88b86769160248082019260009290919082900301818387803b158015620007eb57600080fd5b505af115801562000800573d6000803e3d6000fd5b50505050600062000812863362001a33565b600601541115620008e557600354600160a060020a031663e1f21c6786836200086162000840833362001a33565b60060154620008508b3362001a33565b600901549063ffffffff62001a9316565b6040805160e060020a63ffffffff8716028152600160a060020a0394851660048201529290931660248301526044820152905160648083019260209291908290030181600087803b158015620008b657600080fd5b505af1158015620008cb573d6000803e3d6000fd5b505050506040513d6020811015620008e257600080fd5b50505b620008f18585620016ef565b6040805185815290513391600160a060020a038816917f824239e216016c403265447935e88cc521189d5e9a52754e5c2a16f7436281dc9181900360200190a350506001600255505050565b60068054829081106200094c57fe5b6000918252602091829020600c919091020180546040805160026001841615610100026000190190931692909204601f810185900485028301850190915280825291935091839190830182828015620009e95780601f10620009bd57610100808354040283529160200191620009e9565b820191906000526020600020905b815481529060010190602001808311620009cb57829003601f168201915b505050505090806001018054600181600116156101000203166002900480601f01602080910402602001604051908101604052809291908181526020018280546001816001161561010002031660029004801562000a8b5780601f1062000a5f5761010080835404028352916020019162000a8b565b820191906000526020600020905b81548152906001019060200180831162000a6d57829003601f168201915b50505060028401546004850154600586015460068701546007880154600889015460098a0154600a8b0154600b909b0154999a60ff9097169995985093965091949093600160a060020a039283169392168b565b600154600090600160a060020a0316331462000afa57600080fd5b600160a060020a038c16151562000b1057600080fd5b600160a060020a038b16151562000b2657600080fd5b62000b318562001ae0565b801562000b485750606462000b468662001b0a565b105b151562000b5457600080fd5b62000b5f8462001ae0565b801562000b765750606462000b748562001b0a565b105b151562000b8257600080fd5b62000b8d8362001ae0565b801562000ba45750606462000ba28462001b0a565b105b151562000bb057600080fd5b62000bbb8262001ae0565b801562000bd25750606462000bd08362001b0a565b105b151562000bde57600080fd5b8a600160a060020a031662000bf48c8e62001a33565b600b0154600160a060020a0316141562000c0d57600080fd5b62000c198b8d62001a33565b600160a060020a038d166000908152600391909101602052604090205460ff161562000c4457600080fd5b600680549050905080600560008d600160a060020a0316600160a060020a0316815260200190815260200160002060008e600160a060020a0316600160a060020a0316815260200190815260200160002060006101000a81548161ffff021916908361ffff1602179055506006805480919060010162000cc5919062001e2d565b600860006101000a81548161ffff021916908361ffff160217905550600760008c600160a060020a0316600160a060020a031681526020019081526020016000208c90806001815401808255809150509060018203906000526020600020016000909192909190916101000a815481600160a060020a030219169083600160a060020a0316021790555050600160068261ffff1681548110151562000d6657fe5b90600052602060002090600c020160030160008e600160a060020a0316600160a060020a0316815260200190815260200160002060006101000a81548160ff021916908315150217905550898960068361ffff1681548110151562000dc757fe5b6000918252602090912062000de393600c909202019162001e61565b50878760068361ffff1681548110151562000dfa57fe5b90600052602060002090600c0201600101919062000e1a92919062001e61565b508560068261ffff1681548110151562000e3057fe5b90600052602060002090600c020160020160006101000a81548160ff021916908360ff1602179055508460068261ffff1681548110151562000e6e57fe5b90600052602060002090600c0201600401819055508360068261ffff1681548110151562000e9857fe5b90600052602060002090600c0201600501819055508260068261ffff1681548110151562000ec257fe5b90600052602060002090600c0201600601819055508160068261ffff1681548110151562000eec57fe5b90600052602060002090600c0201600701819055508a60068261ffff1681548110151562000f1657fe5b90600052602060002090600c0201600b0160006101000a815481600160a060020a030219169083600160a060020a031602179055508b600160a060020a03168b600160a060020a03167fd3bb7a0fd3c972c824718e5d4fe7501feb58ebd797223783efbfd1d3085d49438c8c8c8c60405180806020018060200183810383528787828181526020019250808284379091018481038352858152602001905085858082843760405192018290039850909650505050505050a3505050505050505050505050565b600062000fea838362001a33565b60080154600160a060020a031690505b92915050565b600354600160a060020a03165b90565b600354600160a060020a031681565b60005481565b600854620100009004600160a060020a031681565b600080600080600060016002541415156200105457600080fd5b60028055600086116200106657600080fd5b600160a060020a03871615156200107c57600080fd5b86600160a060020a031662001092883362001a33565b600b0154600160a060020a031614620010aa57600080fd5b620010b6873362001a33565b336000908152600391909101602052604090205460ff161515620010d957600080fd5b604080517fdd62ed3e00000000000000000000000000000000000000000000000000000000815233600482015230602482015290518896508791600160a060020a0388169163dd62ed3e916044808201926020929091908290030181600087803b1580156200114757600080fd5b505af11580156200115c573d6000803e3d6000fd5b505050506040513d60208110156200117357600080fd5b505110156200118157600080fd5b6200118d873362001a33565b93508360020160009054906101000a900460ff1660ff1685600160a060020a031663313ce5676040518163ffffffff1660e060020a028152600401602060405180830381600087803b158015620011e357600080fd5b505af1158015620011f8573d6000803e3d6000fd5b505050506040513d60208110156200120f57600080fd5b505160ff16146200121f57600080fd5b6000846004015411620012345760006200124c565b60048401546200124c90879063ffffffff62001a9316565b925062001260868463ffffffff62001b4216565b6003549092506200127d908690600160a060020a03168462001b55565b6008546200129d908690620100009004600160a060020a03168562001b55565b6009840154620012b4908363ffffffff62001a8516565b60098501556003546040805160e260020a630547cdcd028152600160a060020a038a8116600483015291516000939092169163151f37349160248082019260209290919082900301818787803b1580156200130e57600080fd5b505af115801562001323573d6000803e3d6000fd5b505050506040513d60208110156200133a57600080fd5b5051600160a060020a03161415620015185760028401548490600182019060ff166200136562001ee6565b60ff82166040820152606080825284546002600019610100600184161502019091160490820181905281906020820190608083019087908015620013ed5780601f10620013c157610100808354040283529160200191620013ed565b820191906000526020600020905b815481529060010190602001808311620013cf57829003601f168201915b5050838103825285546002600019610100600184161502019091160480825260209091019086908015620014655780601f10620014395761010080835404028352916020019162001465565b820191906000526020600020905b8154815290600101906020018083116200144757829003601f168201915b505095505050505050604051809103906000f0801580156200148b573d6000803e3d6000fd5b50600354604080517fa0736912000000000000000000000000000000000000000000000000000000008152600160a060020a038b811660048301528085166024830152915193945091169163a07369129160448082019260009290919082900301818387803b158015620014fe57600080fd5b505af115801562001513573d6000803e3d6000fd5b505050505b6003546040805160e260020a630547cdcd028152600160a060020a038a811660048301819052925133947f2b11dc5f6b2036a3d03d04c1e89724a8650507582665455ed7154b544f3e3c4f9388939091169163151f3734916024808201926020929091908290030181600087803b1580156200159357600080fd5b505af1158015620015a8573d6000803e3d6000fd5b505050506040513d6020811015620015bf57600080fd5b505160408051928352600160a060020a0390911660208301528051918290030190a3505060016002555050505050565b600154600160a060020a031633146200160757600080fd5b600154604051600160a060020a03909116907ff8df31144d9c2f0f6b59d69b8b98abd5459d07f2742c4df920b25aae33c6482090600090a26001805473ffffffffffffffffffffffffffffffffffffffff19169055565b600160a060020a038116600090815260076020908152604091829020805483518184028101840190945280845260609392830182828015620016ca57602002820191906000526020600020905b8154600160a060020a03168152600190910190602001808311620016ab575b50505050509050919050565b600154600160a060020a031681565b60085461ffff1681565b600080808311620016ff57600080fd5b600160a060020a03841615156200171557600080fd5b6003546040805160e260020a630547cdcd028152600160a060020a03878116600483015291516000939092169163151f37349160248082019260209290919082900301818787803b1580156200176a57600080fd5b505af11580156200177f573d6000803e3d6000fd5b505050506040513d60208110156200179657600080fd5b5051600160a060020a03161415620017ad57600080fd5b6000620017bb853362001a33565b60080154600160a060020a03161415620017d457600080fd5b620017e0843362001a33565b336000908152600391909101602052604090205460ff1615156001146200180657600080fd5b620018178362000576863362001a33565b62001823853362001a33565b6009015410156200183357600080fd5b6003546040805160e260020a630547cdcd028152600160a060020a0387811660048301529151919092169163151f37349160248083019260209291908290030181600087803b1580156200188657600080fd5b505af11580156200189b573d6000803e3d6000fd5b505050506040513d6020811015620018b257600080fd5b50519150620018c2843362001a33565b60080154600160a060020a03169050620018e28362000576863362001a33565b620018ee853362001a33565b600a0155604080517fd0047acf000000000000000000000000000000000000000000000000000000008152600160a060020a0383811660048301526024820186905260006044830181905292519085169263d0047acf92606480820193602093909283900390910190829087803b1580156200196957600080fd5b505af11580156200197e573d6000803e3d6000fd5b505050506040513d60208110156200199557600080fd5b50506040805184815290513391600160a060020a038716917f9a2331701430ef95fa157fc5598820b278d8225e8a51263887abb0e1e2b06d979181900360200190a350505050565b600454600160a060020a031681565b600560209081526000928352604080842090915290825290205461ffff1681565b600154600160a060020a0316331462001a2557600080fd5b62001a308162001d39565b50565b600160a060020a03808316600090815260056020908152604080832093851683529290529081205460068054909161ffff1690811062001a6f57fe5b90600052602060002090600c0201905092915050565b8181018281101562000ffa57fe5b600062001aa08262001ae0565b151562001aac57600080fd5b62001ad962001aba62001db8565b62001acc858563ffffffff62001dcc16565b9063ffffffff62001df916565b9392505050565b600062001aec62001e0f565b821015801562000ffa575062001b0162001db8565b82111592915050565b600062001b178262001ae0565b151562001b2357600080fd5b62000ffa62001b3162001e14565b8390600a0a63ffffffff62001df916565b60008282111562001b4f57fe5b50900390565b600062001bf38285600160a060020a03166370a08231866040518263ffffffff1660e060020a0281526004018082600160a060020a0316600160a060020a03168152602001915050602060405180830381600087803b15801562001bb857600080fd5b505af115801562001bcd573d6000803e3d6000fd5b505050506040513d602081101562001be457600080fd5b50519063ffffffff62001a8516565b604080517f23b872dd000000000000000000000000000000000000000000000000000000008152336004820152600160a060020a038681166024830152604482018690529151929350908616916323b872dd916064808201926020929091908290030181600087803b15801562001c6957600080fd5b505af115801562001c7e573d6000803e3d6000fd5b505050506040513d602081101562001c9557600080fd5b5050604080517f70a08231000000000000000000000000000000000000000000000000000000008152600160a060020a038581166004830152915183928716916370a082319160248083019260209291908290030181600087803b15801562001cfd57600080fd5b505af115801562001d12573d6000803e3d6000fd5b505050506040513d602081101562001d2957600080fd5b50511462001d3357fe5b50505050565b600160a060020a038116151562001d4f57600080fd5b600154604051600160a060020a038084169216907f8be0079c531659141344cd1fd0a4f28419497f9722a3daafe3b4186f6b6457e090600090a36001805473ffffffffffffffffffffffffffffffffffffffff1916600160a060020a0392909216919091179055565b600062001dc462001e19565b600a0a905090565b600082151562001ddf5750600062000ffa565b5081810281838281151562001df057fe5b041462000ffa57fe5b6000818381151562001e0757fe5b049392505050565b600090565b600290565b600062001e2562001e14565b600201905090565b81548183558181111562001e5c57600c0281600c02836000526020600020918201910162001e5c919062001ef7565b505050565b828054600181600116156101000203166002900490600052602060002090601f016020900481019282601f1062001ea45782800160ff1982351617855562001ed4565b8280016001018555821562001ed4579182015b8281111562001ed457823582559160200191906001019062001eb7565b5062001ee292915062001f95565b5090565b6040516114f48062001ffb83390190565b6200100d91905b8082111562001ee257600062001f15828262001fb2565b62001f2560018301600062001fb2565b5060028101805460ff1916905560006004820181905560058201819055600682018190556007820181905560088201805473ffffffffffffffffffffffffffffffffffffffff1990811690915560098301829055600a830191909155600b820180549091169055600c0162001efe565b6200100d91905b8082111562001ee2576000815560010162001f9c565b50805460018160011615610100020316600290046000825580601f1062001fda575062001a30565b601f01602090049060005260206000209081019062001a30919062001f95560060806040523480156200001157600080fd5b50604051620014f4380380620014f48339810160409081528151602080840151928401519184018051909493909301928491849184916200005891600091860190620000bf565b5081516200006e906001906020850190620000bf565b506002805433610100810261010060a860020a031960ff90951660ff199384161794909416939093179091556000918252600860205260409091208054909116600117905550620001649350505050565b828054600181600116156101000203166002900490600052602060002090601f016020900481019282601f106200010257805160ff191683800117855562000132565b8280016001018555821562000132579182015b828111156200013257825182559160200191906001019062000115565b506200014092915062000144565b5090565b6200016191905b808211156200014057600081556001016200014b565b90565b61138080620001746000396000f3006080604052600436106101325763ffffffff7c010000000000000000000000000000000000000000000000000000000060003504166306fdde038114610137578063095ea7b3146101c157806318160ddd146101f957806323b872dd1461022057806327e235e31461024a578063313ce5671461026b57806342966c68146102965780634afbf5ee146102b057806366188463146102d457806370a08231146102f8578063715018a61461031957806379cc67901461032e5780638da5cb5b1461035257806395d89b41146103835780639d2e477714610398578063a9059cbb146103c5578063ba0e0f5e146103e9578063d0047acf1461040a578063d294cb0f14610437578063d73dd62314610458578063d88b86761461047c578063dd62ed3e1461049d578063f2fde38b146104c4575b600080fd5b34801561014357600080fd5b5061014c6104e5565b6040805160208082528351818301528351919283929083019185019080838360005b8381101561018657818101518382015260200161016e565b50505050905090810190601f1680156101b35780820380516001836020036101000a031916815260200191505b509250505060405180910390f35b3480156101cd57600080fd5b506101e5600160a060020a0360043516602435610573565b604080519115158252519081900360200190f35b34801561020557600080fd5b5061020e6105d9565b60408051918252519081900360200190f35b34801561022c57600080fd5b506101e5600160a060020a03600435811690602435166044356105df565b34801561025657600080fd5b5061020e600160a060020a036004351661073f565b34801561027757600080fd5b50610280610751565b6040805160ff9092168252519081900360200190f35b3480156102a257600080fd5b506102ae60043561075a565b005b3480156102bc57600080fd5b5061020e600160a060020a0360043516602435610767565b3480156102e057600080fd5b506101e5600160a060020a0360043516602435610784565b34801561030457600080fd5b5061020e600160a060020a0360043516610873565b34801561032557600080fd5b506102ae61088e565b34801561033a57600080fd5b506102ae600160a060020a0360043516602435610906565b34801561035e57600080fd5b5061036761099c565b60408051600160a060020a039092168252519081900360200190f35b34801561038f57600080fd5b5061014c6109b0565b3480156103a457600080fd5b506101e5600160a060020a036004351660243563ffffffff60443516610a0a565b3480156103d157600080fd5b506101e5600160a060020a0360043516602435610ab6565b3480156103f557600080fd5b506102ae600160a060020a0360043516610b89565b34801561041657600080fd5b506101e5600160a060020a036004351660243563ffffffff60443516610bc6565b34801561044357600080fd5b5061020e600160a060020a0360043516610d0c565b34801561046457600080fd5b506101e5600160a060020a0360043516602435610e11565b34801561048857600080fd5b506102ae600160a060020a0360043516610eaa565b3480156104a957600080fd5b5061020e600160a060020a0360043581169060243516610eea565b3480156104d057600080fd5b506102ae600160a060020a0360043516610f15565b6000805460408051602060026001851615610100026000190190941693909304601f8101849004840282018401909252818152929183018282801561056b5780601f106105405761010080835404028352916020019161056b565b820191906000526020600020905b81548152906001019060200180831161054e57829003601f168201915b505050505081565b336000818152600360209081526040808320600160a060020a038716808552908352818420869055815186815291519394909390927f8c5be1e5ebec7d5bd14f71427d1e84f3dd0314c0f7b2291e5b200ac8c7c3b925928290030190a350600192915050565b60055490565b60006105ea84610f3a565b600160a060020a03831615156105ff57600080fd5b61060884610d0c565b82111561061457600080fd5b600160a060020a038416600090815260036020908152604080832033845290915290205482111561064457600080fd5b600160a060020a03841660009081526004602052604090205461066d908363ffffffff6110a916565b600160a060020a0380861660009081526004602052604080822093909355908516815220546106a2908363ffffffff6110bb16565b600160a060020a0380851660009081526004602090815260408083209490945591871681526003825282812033825290915220546106e6908363ffffffff6110a916565b600160a060020a0380861660008181526003602090815260408083203384528252918290209490945580518681529051928716939192600080516020611335833981519152929181900390910190a35060019392505050565b60046020526000908152604090205481565b60025460ff1681565b61076433826110ce565b50565b600660209081526000928352604080842090915290825290205481565b336000908152600360209081526040808320600160a060020a03861684529091528120548083106107d857336000908152600360209081526040808320600160a060020a038816845290915281205561080d565b6107e8818463ffffffff6110a916565b336000908152600360209081526040808320600160a060020a03891684529091529020555b336000818152600360209081526040808320600160a060020a0389168085529083529281902054815190815290519293927f8c5be1e5ebec7d5bd14f71427d1e84f3dd0314c0f7b2291e5b200ac8c7c3b925929181900390910190a35060019392505050565b600160a060020a031660009081526004602052604090205490565b6002546101009004600160a060020a031633146108aa57600080fd5b600254604051610100909104600160a060020a0316907ff8df31144d9c2f0f6b59d69b8b98abd5459d07f2742c4df920b25aae33c6482090600090a26002805474ffffffffffffffffffffffffffffffffffffffff0019169055565b600160a060020a038216600090815260036020908152604080832033845290915290205481111561093657600080fd5b600160a060020a038216600090815260036020908152604080832033845290915290205461096a908263ffffffff6110a916565b600160a060020a038316600090815260036020908152604080832033845290915290205561099882826110ce565b5050565b6002546101009004600160a060020a031681565b60018054604080516020600284861615610100026000190190941693909304601f8101849004840282018401909252818152929183018282801561056b5780601f106105405761010080835404028352916020019161056b565b3360008181526008602052604081205490919060ff161515610a2b57600080fd5b610a358585610ab6565b50428363ffffffff161115610a5757610a576000868563ffffffff16876111b6565b60408051338152600160a060020a038716602082015280820186905263ffffffff8516606082015290517f5075049792a88eedfe4e60bb3ffeac77b4fa7f03108b81fb0b460161b983e2009181900360800190a1506001949350505050565b6000610ac133610f3a565b600160a060020a0383161515610ad657600080fd5b610adf33610d0c565b821115610aeb57600080fd5b33600090815260046020526040902054610b0b908363ffffffff6110a916565b3360009081526004602052604080822092909255600160a060020a03851681522054610b3d908363ffffffff6110bb16565b600160a060020a0384166000818152600460209081526040918290209390935580518581529051919233926000805160206113358339815191529281900390910190a350600192915050565b6002546101009004600160a060020a03163314610ba557600080fd5b600160a060020a03166000908152600860205260409020805460ff19169055565b3360008181526008602052604081205490919060ff161515610be757600080fd5b600554610bfa818663ffffffff6110bb16565b11610c0457600080fd5b428363ffffffff161115610c2557610c256000868563ffffffff16876111b6565b600160a060020a038516600090815260046020526040902054610c4e908563ffffffff6110bb16565b600160a060020a038616600090815260046020526040902055600554610c7a908563ffffffff6110bb16565b600555604080518581529051600160a060020a038716916000916000805160206113358339815191529181900360200190a36040805160008152600160a060020a038716602082015280820186905263ffffffff8516606082015290517f5075049792a88eedfe4e60bb3ffeac77b4fa7f03108b81fb0b460161b983e2009181900360800190a1506001949350505050565b600160a060020a038116600090815260046020908152604080832054600683528184208480529092528220549091901515610d4657610e0b565b5060005b600160a060020a038316600090815260076020526040902054811015610e0b57600160a060020a0383166000908152600760205260409020805442919083908110610d9157fe5b9060005260206000200154101515610e0357600160a060020a0383166000908152600660209081526040808320600790925282208054610e0093919085908110610dd757fe5b9060005260206000200154815260200190815260200160002054836110a990919063ffffffff16565b91505b600101610d4a565b50919050565b336000908152600360209081526040808320600160a060020a0386168452909152812054610e45908363ffffffff6110bb16565b336000818152600360209081526040808320600160a060020a0389168085529083529281902085905580519485525191937f8c5be1e5ebec7d5bd14f71427d1e84f3dd0314c0f7b2291e5b200ac8c7c3b925929081900390910190a350600192915050565b6002546101009004600160a060020a03163314610ec657600080fd5b600160a060020a03166000908152600860205260409020805460ff19166001179055565b600160a060020a03918216600090815260036020908152604080832093909416825291909152205490565b6002546101009004600160a060020a03163314610f3157600080fd5b610764816112ab565b600160a060020a03811660009081526006602090815260408083208380529091528120541515610f6957610998565b5060005b600160a060020a03821660009081526007602052604090205481101561099857600160a060020a0382166000908152600760205260409020805442919083908110610fb457fe5b906000526020600020015410156110a157600160a060020a038216600090815260066020908152604080832060079092528220805461103f93919085908110610ff957fe5b60009182526020808320909101548352828101939093526040918201812054600160a060020a03871682526006845282822082805290935220549063ffffffff6110a916565b600160a060020a0383166000818152600660209081526040808320838052808352818420959095559282526007905290812080549192918391908590811061108357fe5b90600052602060002001548152602001908152602001600020819055505b600101610f6d565b6000828211156110b557fe5b50900390565b818101828110156110c857fe5b92915050565b6110d782610f3a565b6110e082610d0c565b8111156110ec57600080fd5b600160a060020a038216600090815260046020526040902054611115908263ffffffff6110a916565b600160a060020a038316600090815260046020526040902055600554611141908263ffffffff6110a916565b600555604080518281529051600160a060020a038416917fcc16f5dbb4873280815c1ee09dbd06736cffcc184412cf7a71a0fdb75d397ca5919081900360200190a2604080518281529051600091600160a060020a038516916000805160206113358339815191529181900360200190a35050565b600160a060020a03831660009081526006602090815260408083208380529091529020546111ea908263ffffffff6110bb16565b600160a060020a0384166000908152600660209081526040808320838052909152808220929092558381522054151561124957600160a060020a0383166000908152600760209081526040822080546001810182559083529120018290555b600160a060020a038316600090815260066020908152604080832085845290915290205461127d908263ffffffff6110bb16565b600160a060020a03909316600090815260066020908152604080832094835293905291909120919091555050565b600160a060020a03811615156112c057600080fd5b600254604051600160a060020a0380841692610100900416907f8be0079c531659141344cd1fd0a4f28419497f9722a3daafe3b4186f6b6457e090600090a360028054600160a060020a039092166101000274ffffffffffffffffffffffffffffffffffffffff00199092169190911790555600ddf252ad1be2c89b69c2b068fc378daa952ba7f163c4a11628f55a4df523b3efa165627a7a7230582032e10203dcbab0ee1413110ee779200c5145d19d538d974c007e2d373697c5e70029a165627a7a72305820b196bb66cdee7d7907c5872c259262279a115ca34b48a797cba89354ccbe9ba20029",
  "source": "pragma solidity ^0.4.24;\n\nimport \"openzeppelin-solidity/contracts/math/SafeMath.sol\";\nimport \"openzeppelin-solidity/contracts/ownership/Ownable.sol\";\nimport \"openzeppelin-solidity/contracts/ReentrancyGuard.sol\";\nimport \"openzeppelin-solidity/contracts/token/ERC20/ERC20.sol\";\nimport \"./interfaces/IW12CrowdsaleFactory.sol\";\nimport \"./libs/Percent.sol\";\nimport \"./token/WToken.sol\";\nimport \"./token/exchanger/ITokenExchanger.sol\";\nimport \"./versioning/Versionable.sol\";\n\n\ncontract W12Lister is Versionable, Ownable, ReentrancyGuard {\n    using SafeMath for uint;\n    using Percent for uint;\n\n    ITokenExchanger public exchanger;\n    IW12CrowdsaleFactory public factory;\n    // get token index in approvedTokens list by token address and token owner address\n    mapping (address => mapping (address => uint16)) public approvedTokensIndex;\n    ListedToken[] public approvedTokens;\n    // return owners by token address\n    mapping ( address => address[] ) approvedOwnersList;\n    uint16 public approvedTokensLength;\n    address public serviceWallet;\n\n    event OwnerWhitelisted(address indexed tokenAddress, address indexed tokenOwner, string name, string symbol);\n    event TokenPlaced(address indexed originalTokenAddress, address indexed tokenOwner, uint tokenAmount, address placedTokenAddress);\n    event CrowdsaleInitialized(address indexed tokenAddress, address indexed tokenOwner, uint amountForSale);\n    event CrowdsaleTokenMinted(address indexed tokenAddress, address indexed tokenOwner, uint amount);\n\n    struct ListedToken {\n        string name;\n        string symbol;\n        uint8 decimals;\n        mapping(address => bool) approvedOwners;\n        uint feePercent;\n        uint ethFeePercent;\n        uint WTokenSaleFeePercent;\n        uint trancheFeePercent;\n        IW12Crowdsale crowdsaleAddress;\n        uint tokensForSaleAmount;\n        uint wTokensIssuedAmount;\n        address tokenAddress;\n    }\n\n    constructor(\n        uint version,\n        address _serviceWallet,\n        IW12CrowdsaleFactory _factory,\n        ITokenExchanger _exchanger\n    ) Versionable(version) public {\n        require(_serviceWallet != address(0));\n        require(_factory != address(0));\n        require(_exchanger != address(0));\n\n        exchanger = _exchanger;\n        serviceWallet = _serviceWallet;\n        factory = _factory;\n        approvedTokens.length++; // zero-index element should never be used\n    }\n\n    function whitelistToken(\n        address tokenOwner,\n        address tokenAddress,\n        string name,\n        string symbol,\n        uint8 decimals,\n        uint feePercent,\n        uint ethFeePercent,\n        uint WTokenSaleFeePercent,\n        uint trancheFeePercent\n    )\n        external onlyOwner {\n\n        require(tokenOwner != address(0));\n        require(tokenAddress != address(0));\n        require(feePercent.isPercent() && feePercent.fromPercent() < 100);\n        require(ethFeePercent.isPercent() && ethFeePercent.fromPercent() < 100);\n        require(WTokenSaleFeePercent.isPercent() && WTokenSaleFeePercent.fromPercent() < 100);\n        require(trancheFeePercent.isPercent() && trancheFeePercent.fromPercent() < 100);\n        require(getApprovedToken(tokenAddress, tokenOwner).tokenAddress != tokenAddress);\n        require(!getApprovedToken(tokenAddress, tokenOwner).approvedOwners[tokenOwner]);\n\n        uint16 index = uint16(approvedTokens.length);\n\n        approvedTokensIndex[tokenAddress][tokenOwner] = index;\n\n        approvedTokensLength = uint16(approvedTokens.length++);\n\n        approvedOwnersList[tokenAddress].push(tokenOwner);\n\n        approvedTokens[index].approvedOwners[tokenOwner] = true;\n        approvedTokens[index].name = name;\n        approvedTokens[index].symbol = symbol;\n        approvedTokens[index].decimals = decimals;\n        approvedTokens[index].feePercent = feePercent;\n        approvedTokens[index].ethFeePercent = ethFeePercent;\n        approvedTokens[index].WTokenSaleFeePercent = WTokenSaleFeePercent;\n        approvedTokens[index].trancheFeePercent = trancheFeePercent;\n        approvedTokens[index].tokenAddress = tokenAddress;\n\n        emit OwnerWhitelisted(tokenAddress, tokenOwner, name, symbol);\n    }\n\n    /**\n     * @notice Place token for sale\n     * @param tokenAddress Token that will be placed\n     * @param amount Token amount to place\n     */\n    function placeToken(address tokenAddress, uint amount) external nonReentrant {\n        require(amount > 0);\n        require(tokenAddress != address(0));\n        require(getApprovedToken(tokenAddress, msg.sender).tokenAddress == tokenAddress);\n        require(getApprovedToken(tokenAddress, msg.sender).approvedOwners[msg.sender]);\n\n        DetailedERC20 token = DetailedERC20(tokenAddress);\n\n        require(token.allowance(msg.sender, address(this)) >= amount);\n\n        ListedToken storage listedToken = getApprovedToken(tokenAddress, msg.sender);\n\n        require(token.decimals() == listedToken.decimals);\n\n        uint fee = listedToken.feePercent > 0\n            ? amount.percent(listedToken.feePercent)\n            : 0;\n        uint amountWithoutFee = amount.sub(fee);\n\n        _secureTokenTransfer(token, exchanger, amountWithoutFee);\n        _secureTokenTransfer(token, serviceWallet, fee);\n\n        listedToken.tokensForSaleAmount = listedToken.tokensForSaleAmount.add(amountWithoutFee);\n\n        if (exchanger.getWTokenByToken(tokenAddress) == address(0)) {\n            WToken wToken = new WToken(listedToken.name, listedToken.symbol, listedToken.decimals);\n\n            exchanger.addTokenToListing(ERC20(tokenAddress), wToken);\n        }\n\n        emit TokenPlaced(tokenAddress, msg.sender, amountWithoutFee, exchanger.getWTokenByToken(tokenAddress));\n    }\n\n    /**\n     * @dev Securely transfer token from sender to account\n     */\n    function _secureTokenTransfer(ERC20 token, address to, uint value) internal {\n        // check for overflow before. we are not sure that the placed token has implemented save math\n        uint expectedBalance = token.balanceOf(to).add(value);\n\n        token.transferFrom(msg.sender, to, value);\n\n        // check balance to be sure it was filled correctly\n        assert(token.balanceOf(to) == expectedBalance);\n    }\n\n    function initCrowdsale(address tokenAddress, uint amountForSale, uint price) external nonReentrant {\n        require(getApprovedToken(tokenAddress, msg.sender).approvedOwners[msg.sender] == true);\n        require(getApprovedToken(tokenAddress, msg.sender).tokensForSaleAmount >= getApprovedToken(tokenAddress, msg.sender).wTokensIssuedAmount.add(amountForSale));\n        require(getApprovedToken(tokenAddress, msg.sender).crowdsaleAddress == address(0));\n\n        WToken wtoken = exchanger.getWTokenByToken(tokenAddress);\n\n        IW12Crowdsale crowdsale = factory.createCrowdsale(\n            address(tokenAddress),\n            address(wtoken),\n            price,\n            serviceWallet,\n            getApprovedToken(tokenAddress, msg.sender).ethFeePercent,\n            getApprovedToken(tokenAddress, msg.sender).WTokenSaleFeePercent,\n            getApprovedToken(tokenAddress, msg.sender).trancheFeePercent,\n            exchanger,\n            msg.sender\n        );\n\n        getApprovedToken(tokenAddress, msg.sender).crowdsaleAddress = crowdsale;\n        wtoken.addTrustedAccount(crowdsale);\n\n        if (getApprovedToken(tokenAddress, msg.sender).WTokenSaleFeePercent > 0) {\n            exchanger.approve(\n                ERC20(tokenAddress),\n                address(crowdsale),\n                getApprovedToken(tokenAddress, msg.sender).tokensForSaleAmount\n                    .percent(getApprovedToken(tokenAddress, msg.sender).WTokenSaleFeePercent)\n            );\n        }\n\n        addTokensToCrowdsale(tokenAddress, amountForSale);\n\n        emit CrowdsaleInitialized(tokenAddress, msg.sender, amountForSale);\n    }\n\n    function addTokensToCrowdsale(address tokenAddress, uint amountForSale) public {\n        require(amountForSale > 0);\n        require(tokenAddress != address(0));\n        require(exchanger.getWTokenByToken(tokenAddress) != address(0));\n        require(getApprovedToken(tokenAddress, msg.sender).crowdsaleAddress != address(0));\n        require(getApprovedToken(tokenAddress, msg.sender).approvedOwners[msg.sender] == true);\n        require(getApprovedToken(tokenAddress, msg.sender).tokensForSaleAmount >= getApprovedToken(tokenAddress, msg.sender).wTokensIssuedAmount.add(amountForSale));\n\n        WToken token = exchanger.getWTokenByToken(tokenAddress);\n        IW12Crowdsale crowdsale = getApprovedToken(tokenAddress, msg.sender).crowdsaleAddress;\n\n        getApprovedToken(tokenAddress, msg.sender).wTokensIssuedAmount = getApprovedToken(tokenAddress, msg.sender)\n            .wTokensIssuedAmount.add(amountForSale);\n\n        token.mint(crowdsale, amountForSale, 0);\n\n        emit CrowdsaleTokenMinted(tokenAddress, msg.sender, amountForSale);\n    }\n\n    function getTokenCrowdsale(address tokenAddress, address ownerAddress) view external returns (address) {\n        return getApprovedToken(tokenAddress, ownerAddress).crowdsaleAddress;\n    }\n\n    function getTokenOwners(address token) public view returns (address[]) {\n        return approvedOwnersList[token];\n    }\n\n    function getExchanger() view external returns (ITokenExchanger) {\n        return exchanger;\n    }\n\n    function getApprovedToken(address tokenAddress, address ownerAddress) internal view returns (ListedToken storage result) {\n        return approvedTokens[approvedTokensIndex[tokenAddress][ownerAddress]];\n    }\n}\n",
  "sourcePath": "/home/circleci/code/contracts/W12Lister.sol",
  "compiler": {
    "name": "solc",
    "version": "0.4.24+commit.e67f0147.Emscripten.clang"
  },
  "schemaVersion": "2.0.1",
  "updatedAt": "2018-10-02T11:52:56.781Z"
}