{
  "contractName": "W12Lister",
  "abi": [
    {
      "constant": true,
      "inputs": [
        {
          "name": "",
          "type": "uint256"
        }
      ],
      "name": "approvedTokens",
      "outputs": [
        {
          "name": "name",
          "type": "string"
        },
        {
          "name": "symbol",
          "type": "string"
        },
        {
          "name": "decimals",
          "type": "uint8"
        },
        {
          "name": "feePercent",
          "type": "uint256"
        },
        {
          "name": "ethFeePercent",
          "type": "uint256"
        },
        {
          "name": "WTokenSaleFeePercent",
          "type": "uint256"
        },
        {
          "name": "trancheFeePercent",
          "type": "uint256"
        },
        {
          "name": "crowdsaleAddress",
          "type": "address"
        },
        {
          "name": "tokensForSaleAmount",
          "type": "uint256"
        },
        {
          "name": "wTokensIssuedAmount",
          "type": "uint256"
        },
        {
          "name": "tokenAddress",
          "type": "address"
        }
      ],
      "payable": false,
      "stateMutability": "view",
      "type": "function"
    },
    {
      "constant": true,
      "inputs": [],
      "name": "ledger",
      "outputs": [
        {
          "name": "",
          "type": "address"
        }
      ],
      "payable": false,
      "stateMutability": "view",
      "type": "function"
    },
    {
      "constant": true,
      "inputs": [],
      "name": "serviceWallet",
      "outputs": [
        {
          "name": "",
          "type": "address"
        }
      ],
      "payable": false,
      "stateMutability": "view",
      "type": "function"
    },
    {
      "constant": false,
      "inputs": [],
      "name": "renounceOwnership",
      "outputs": [],
      "payable": false,
      "stateMutability": "nonpayable",
      "type": "function"
    },
    {
      "constant": true,
      "inputs": [],
      "name": "swap",
      "outputs": [
        {
          "name": "",
          "type": "address"
        }
      ],
      "payable": false,
      "stateMutability": "view",
      "type": "function"
    },
    {
      "constant": true,
      "inputs": [],
      "name": "owner",
      "outputs": [
        {
          "name": "",
          "type": "address"
        }
      ],
      "payable": false,
      "stateMutability": "view",
      "type": "function"
    },
    {
      "constant": true,
      "inputs": [],
      "name": "approvedTokensLength",
      "outputs": [
        {
          "name": "",
          "type": "uint16"
        }
      ],
      "payable": false,
      "stateMutability": "view",
      "type": "function"
    },
    {
      "constant": true,
      "inputs": [],
      "name": "factory",
      "outputs": [
        {
          "name": "",
          "type": "address"
        }
      ],
      "payable": false,
      "stateMutability": "view",
      "type": "function"
    },
    {
      "constant": true,
      "inputs": [
        {
          "name": "",
          "type": "address"
        },
        {
          "name": "",
          "type": "address"
        }
      ],
      "name": "approvedTokensIndex",
      "outputs": [
        {
          "name": "",
          "type": "uint16"
        }
      ],
      "payable": false,
      "stateMutability": "view",
      "type": "function"
    },
    {
      "constant": false,
      "inputs": [
        {
          "name": "_newOwner",
          "type": "address"
        }
      ],
      "name": "transferOwnership",
      "outputs": [],
      "payable": false,
      "stateMutability": "nonpayable",
      "type": "function"
    },
    {
      "inputs": [
        {
          "name": "_serviceWallet",
          "type": "address"
        },
        {
          "name": "_factory",
          "type": "address"
        },
        {
          "name": "_ledger",
          "type": "address"
        },
        {
          "name": "_swap",
          "type": "address"
        }
      ],
      "payable": false,
      "stateMutability": "nonpayable",
      "type": "constructor"
    },
    {
      "anonymous": false,
      "inputs": [
        {
          "indexed": true,
          "name": "tokenAddress",
          "type": "address"
        },
        {
          "indexed": true,
          "name": "tokenOwner",
          "type": "address"
        },
        {
          "indexed": false,
          "name": "name",
          "type": "string"
        },
        {
          "indexed": false,
          "name": "symbol",
          "type": "string"
        }
      ],
      "name": "OwnerWhitelisted",
      "type": "event"
    },
    {
      "anonymous": false,
      "inputs": [
        {
          "indexed": true,
          "name": "originalTokenAddress",
          "type": "address"
        },
        {
          "indexed": true,
          "name": "tokenOwner",
          "type": "address"
        },
        {
          "indexed": false,
          "name": "tokenAmount",
          "type": "uint256"
        },
        {
          "indexed": false,
          "name": "placedTokenAddress",
          "type": "address"
        }
      ],
      "name": "TokenPlaced",
      "type": "event"
    },
    {
      "anonymous": false,
      "inputs": [
        {
          "indexed": false,
          "name": "startDate",
          "type": "uint256"
        },
        {
          "indexed": true,
          "name": "tokenAddress",
          "type": "address"
        },
        {
          "indexed": true,
          "name": "tokenOwner",
          "type": "address"
        },
        {
          "indexed": false,
          "name": "amountForSale",
          "type": "uint256"
        }
      ],
      "name": "CrowdsaleInitialized",
      "type": "event"
    },
    {
      "anonymous": false,
      "inputs": [
        {
          "indexed": true,
          "name": "previousOwner",
          "type": "address"
        }
      ],
      "name": "OwnershipRenounced",
      "type": "event"
    },
    {
      "anonymous": false,
      "inputs": [
        {
          "indexed": true,
          "name": "previousOwner",
          "type": "address"
        },
        {
          "indexed": true,
          "name": "newOwner",
          "type": "address"
        }
      ],
      "name": "OwnershipTransferred",
      "type": "event"
    },
    {
      "constant": false,
      "inputs": [
        {
          "name": "tokenOwner",
          "type": "address"
        },
        {
          "name": "tokenAddress",
          "type": "address"
        },
        {
          "name": "name",
          "type": "string"
        },
        {
          "name": "symbol",
          "type": "string"
        },
        {
          "name": "decimals",
          "type": "uint8"
        },
        {
          "name": "feePercent",
          "type": "uint256"
        },
        {
          "name": "ethFeePercent",
          "type": "uint256"
        },
        {
          "name": "WTokenSaleFeePercent",
          "type": "uint256"
        },
        {
          "name": "trancheFeePercent",
          "type": "uint256"
        }
      ],
      "name": "whitelistToken",
      "outputs": [],
      "payable": false,
      "stateMutability": "nonpayable",
      "type": "function"
    },
    {
      "constant": false,
      "inputs": [
        {
          "name": "tokenAddress",
          "type": "address"
        },
        {
          "name": "amount",
          "type": "uint256"
        }
      ],
      "name": "placeToken",
      "outputs": [],
      "payable": false,
      "stateMutability": "nonpayable",
      "type": "function"
    },
    {
      "constant": false,
      "inputs": [
        {
          "name": "startDate",
          "type": "uint32"
        },
        {
          "name": "tokenAddress",
          "type": "address"
        },
        {
          "name": "amountForSale",
          "type": "uint256"
        },
        {
          "name": "price",
          "type": "uint256"
        }
      ],
      "name": "initCrowdsale",
      "outputs": [],
      "payable": false,
      "stateMutability": "nonpayable",
      "type": "function"
    },
    {
      "constant": false,
      "inputs": [
        {
          "name": "tokenAddress",
          "type": "address"
        },
        {
          "name": "amountForSale",
          "type": "uint256"
        }
      ],
      "name": "addTokensToCrowdsale",
      "outputs": [],
      "payable": false,
      "stateMutability": "nonpayable",
      "type": "function"
    },
    {
      "constant": true,
      "inputs": [
        {
          "name": "tokenAddress",
          "type": "address"
        },
        {
          "name": "ownerAddress",
          "type": "address"
        }
      ],
      "name": "getTokenCrowdsale",
      "outputs": [
        {
          "name": "",
          "type": "address"
        }
      ],
      "payable": false,
      "stateMutability": "view",
      "type": "function"
    },
    {
      "constant": true,
      "inputs": [],
      "name": "getSwap",
      "outputs": [
        {
          "name": "",
          "type": "address"
        }
      ],
      "payable": false,
      "stateMutability": "view",
      "type": "function"
    }
  ],
  "bytecode": "0x6080604052600180553480156200001557600080fd5b50604051608080620057f683398101806040528101908080519060200190929190805190602001909291908051906020019092919080519060200190929190505050336000806101000a81548173ffffffffffffffffffffffffffffffffffffffff021916908373ffffffffffffffffffffffffffffffffffffffff160217905550600073ffffffffffffffffffffffffffffffffffffffff168473ffffffffffffffffffffffffffffffffffffffff1614151515620000d457600080fd5b600073ffffffffffffffffffffffffffffffffffffffff168373ffffffffffffffffffffffffffffffffffffffff16141515156200011157600080fd5b600073ffffffffffffffffffffffffffffffffffffffff168273ffffffffffffffffffffffffffffffffffffffff16141515156200014e57600080fd5b600073ffffffffffffffffffffffffffffffffffffffff168173ffffffffffffffffffffffffffffffffffffffff16141515156200018b57600080fd5b81600560006101000a81548173ffffffffffffffffffffffffffffffffffffffff021916908373ffffffffffffffffffffffffffffffffffffffff16021790555080600460026101000a81548173ffffffffffffffffffffffffffffffffffffffff021916908373ffffffffffffffffffffffffffffffffffffffff16021790555083600660006101000a81548173ffffffffffffffffffffffffffffffffffffffff021916908373ffffffffffffffffffffffffffffffffffffffff16021790555082600760006101000a81548173ffffffffffffffffffffffffffffffffffffffff021916908373ffffffffffffffffffffffffffffffffffffffff16021790555060038054809190600101620002a59190620002b0565b505050505062000431565b815481835581811115620002e057600c0281600c028360005260206000209182019101620002df9190620002e5565b5b505050565b620003ba91905b80821115620003b65760008082016000620003089190620003bd565b6001820160006200031a9190620003bd565b6002820160006101000a81549060ff021916905560048201600090556005820160009055600682016000905560078201600090556008820160006101000a81549073ffffffffffffffffffffffffffffffffffffffff02191690556009820160009055600a820160009055600b820160006101000a81549073ffffffffffffffffffffffffffffffffffffffff021916905550600c01620002ec565b5090565b90565b50805460018160011615610100020316600290046000825580601f10620003e5575062000406565b601f01602090049060005260206000209081019062000405919062000409565b5b50565b6200042e91905b808211156200042a57600081600090555060010162000410565b5090565b90565b6153b580620004416000396000f300608060405260043610620000f7576000357c0100000000000000000000000000000000000000000000000000000000900463ffffffff1680631dafede014620000fc57806334cf82bf14620002b45780633f3466a7146200037f57806349b010ab146200042557806356397c35146200047f5780635641f3c314620004d957806368dce9321462000533578063715018a6146200058357806377f518d3146200059d5780638119c06514620006075780638da5cb5b14620006615780639cf96e2e14620006bb578063a41ffd3814620006f1578063c45a01551462000741578063cca89d73146200079b578063f2fde38b146200081d575b600080fd5b3480156200010957600080fd5b506200012a6004803603810190808035906020019092919050505062000863565b6040518080602001806020018c60ff1660ff1681526020018b81526020018a81526020018981526020018881526020018773ffffffffffffffffffffffffffffffffffffffff1673ffffffffffffffffffffffffffffffffffffffff1681526020018681526020018581526020018473ffffffffffffffffffffffffffffffffffffffff1673ffffffffffffffffffffffffffffffffffffffff16815260200183810383528e818151815260200191508051906020019080838360005b8381101562000204578082015181840152602081019050620001e7565b50505050905090810190601f168015620002325780820380516001836020036101000a031916815260200191505b5083810382528d818151815260200191508051906020019080838360005b838110156200026d57808201518184015260208101905062000250565b50505050905090810190601f1680156200029b5780820380516001836020036101000a031916815260200191505b509d505050505050505050505050505060405180910390f35b348015620002c157600080fd5b506200037d600480360381019080803573ffffffffffffffffffffffffffffffffffffffff169060200190929190803573ffffffffffffffffffffffffffffffffffffffff169060200190929190803590602001908201803590602001919091929391929390803590602001908201803590602001919091929391929390803560ff1690602001909291908035906020019092919080359060200190929190803590602001909291908035906020019092919050505062000a52565b005b3480156200038c57600080fd5b50620003e3600480360381019080803573ffffffffffffffffffffffffffffffffffffffff169060200190929190803573ffffffffffffffffffffffffffffffffffffffff16906020019092919050505062001067565b604051808273ffffffffffffffffffffffffffffffffffffffff1673ffffffffffffffffffffffffffffffffffffffff16815260200191505060405180910390f35b3480156200043257600080fd5b506200043d6200110c565b604051808273ffffffffffffffffffffffffffffffffffffffff1673ffffffffffffffffffffffffffffffffffffffff16815260200191505060405180910390f35b3480156200048c57600080fd5b506200049762001136565b604051808273ffffffffffffffffffffffffffffffffffffffff1673ffffffffffffffffffffffffffffffffffffffff16815260200191505060405180910390f35b348015620004e657600080fd5b50620004f16200115c565b604051808273ffffffffffffffffffffffffffffffffffffffff1673ffffffffffffffffffffffffffffffffffffffff16815260200191505060405180910390f35b3480156200054057600080fd5b5062000581600480360381019080803573ffffffffffffffffffffffffffffffffffffffff1690602001909291908035906020019092919050505062001182565b005b3480156200059057600080fd5b506200059b62001d2c565b005b348015620005aa57600080fd5b5062000605600480360381019080803563ffffffff169060200190929190803573ffffffffffffffffffffffffffffffffffffffff169060200190929190803590602001909291908035906020019092919050505062001e2f565b005b3480156200061457600080fd5b506200061f620025f2565b604051808273ffffffffffffffffffffffffffffffffffffffff1673ffffffffffffffffffffffffffffffffffffffff16815260200191505060405180910390f35b3480156200066e57600080fd5b506200067962002618565b604051808273ffffffffffffffffffffffffffffffffffffffff1673ffffffffffffffffffffffffffffffffffffffff16815260200191505060405180910390f35b348015620006c857600080fd5b50620006d36200263d565b604051808261ffff1661ffff16815260200191505060405180910390f35b348015620006fe57600080fd5b506200073f600480360381019080803573ffffffffffffffffffffffffffffffffffffffff1690602001909291908035906020019092919050505062002651565b005b3480156200074e57600080fd5b5062000759620029da565b604051808273ffffffffffffffffffffffffffffffffffffffff1673ffffffffffffffffffffffffffffffffffffffff16815260200191505060405180910390f35b348015620007a857600080fd5b50620007ff600480360381019080803573ffffffffffffffffffffffffffffffffffffffff169060200190929190803573ffffffffffffffffffffffffffffffffffffffff16906020019092919050505062002a00565b604051808261ffff1661ffff16815260200191505060405180910390f35b3480156200082a57600080fd5b5062000861600480360381019080803573ffffffffffffffffffffffffffffffffffffffff16906020019092919050505062002a30565b005b6003818154811015156200087357fe5b90600052602060002090600c0201600091509050806000018054600181600116156101000203166002900480601f016020809104026020016040519081016040528092919081815260200182805460018160011615610100020316600290048015620009235780601f10620008f75761010080835404028352916020019162000923565b820191906000526020600020905b8154815290600101906020018083116200090557829003601f168201915b505050505090806001018054600181600116156101000203166002900480601f016020809104026020016040519081016040528092919081815260200182805460018160011615610100020316600290048015620009c55780601f106200099957610100808354040283529160200191620009c5565b820191906000526020600020905b815481529060010190602001808311620009a757829003601f168201915b5050505050908060020160009054906101000a900460ff16908060040154908060050154908060060154908060070154908060080160009054906101000a900473ffffffffffffffffffffffffffffffffffffffff169080600901549080600a01549080600b0160009054906101000a900473ffffffffffffffffffffffffffffffffffffffff1690508b565b60008060009054906101000a900473ffffffffffffffffffffffffffffffffffffffff1673ffffffffffffffffffffffffffffffffffffffff163373ffffffffffffffffffffffffffffffffffffffff1614151562000ab057600080fd5b600073ffffffffffffffffffffffffffffffffffffffff168c73ffffffffffffffffffffffffffffffffffffffff161415151562000aed57600080fd5b600073ffffffffffffffffffffffffffffffffffffffff168b73ffffffffffffffffffffffffffffffffffffffff161415151562000b2a57600080fd5b62000b358562002a9a565b801562000b4c5750606462000b4a8662002ab6565b105b151562000b5857600080fd5b62000b638462002a9a565b801562000b7a5750606462000b788562002ab6565b105b151562000b8657600080fd5b62000b918362002a9a565b801562000ba85750606462000ba68462002ab6565b105b151562000bb457600080fd5b62000bbf8262002a9a565b801562000bd65750606462000bd48362002ab6565b105b151562000be257600080fd5b8a73ffffffffffffffffffffffffffffffffffffffff1662000c058c8e62002aec565b600b0160009054906101000a900473ffffffffffffffffffffffffffffffffffffffff1673ffffffffffffffffffffffffffffffffffffffff161415151562000c4d57600080fd5b62000c598b8d62002aec565b60030160008d73ffffffffffffffffffffffffffffffffffffffff1673ffffffffffffffffffffffffffffffffffffffff16815260200190815260200160002060009054906101000a900460ff1615151562000cb457600080fd5b600380549050905080600260008d73ffffffffffffffffffffffffffffffffffffffff1673ffffffffffffffffffffffffffffffffffffffff16815260200190815260200160002060008e73ffffffffffffffffffffffffffffffffffffffff1673ffffffffffffffffffffffffffffffffffffffff16815260200190815260200160002060006101000a81548161ffff021916908361ffff1602179055506003805480919060010162000d69919062002d9b565b600460006101000a81548161ffff021916908361ffff160217905550600160038261ffff1681548110151562000d9b57fe5b90600052602060002090600c020160030160008e73ffffffffffffffffffffffffffffffffffffffff1673ffffffffffffffffffffffffffffffffffffffff16815260200190815260200160002060006101000a81548160ff021916908315150217905550898960038361ffff1681548110151562000e1657fe5b90600052602060002090600c0201600001919062000e3692919062002dd0565b50878760038361ffff1681548110151562000e4d57fe5b90600052602060002090600c0201600101919062000e6d92919062002dd0565b508560038261ffff1681548110151562000e8357fe5b90600052602060002090600c020160020160006101000a81548160ff021916908360ff1602179055508460038261ffff1681548110151562000ec157fe5b90600052602060002090600c0201600401819055508360038261ffff1681548110151562000eeb57fe5b90600052602060002090600c0201600501819055508260038261ffff1681548110151562000f1557fe5b90600052602060002090600c0201600601819055508160038261ffff1681548110151562000f3f57fe5b90600052602060002090600c0201600701819055508a60038261ffff1681548110151562000f6957fe5b90600052602060002090600c0201600b0160006101000a81548173ffffffffffffffffffffffffffffffffffffffff021916908373ffffffffffffffffffffffffffffffffffffffff1602179055508b73ffffffffffffffffffffffffffffffffffffffff168b73ffffffffffffffffffffffffffffffffffffffff167fd3bb7a0fd3c972c824718e5d4fe7501feb58ebd797223783efbfd1d3085d49438c8c8c8c6040518080602001806020018381038352878782818152602001925080828437820191505083810382528585828181526020019250808284378201915050965050505050505060405180910390a3505050505050505050505050565b60008073ffffffffffffffffffffffffffffffffffffffff166200108c848462002aec565b60080160009054906101000a900473ffffffffffffffffffffffffffffffffffffffff1673ffffffffffffffffffffffffffffffffffffffff1614151515620010d457600080fd5b620010e0838362002aec565b60080160009054906101000a900473ffffffffffffffffffffffffffffffffffffffff16905092915050565b6000600460029054906101000a900473ffffffffffffffffffffffffffffffffffffffff16905090565b600560009054906101000a900473ffffffffffffffffffffffffffffffffffffffff1681565b600660009054906101000a900473ffffffffffffffffffffffffffffffffffffffff1681565b600080600080600080600080600180600082825401925050819055506001549050600089111515620011b357600080fd5b600073ffffffffffffffffffffffffffffffffffffffff168a73ffffffffffffffffffffffffffffffffffffffff1614151515620011f057600080fd5b8973ffffffffffffffffffffffffffffffffffffffff16620012138b3362002aec565b600b0160009054906101000a900473ffffffffffffffffffffffffffffffffffffffff1673ffffffffffffffffffffffffffffffffffffffff161415156200125a57600080fd5b620012668a3362002aec565b60030160003373ffffffffffffffffffffffffffffffffffffffff1673ffffffffffffffffffffffffffffffffffffffff16815260200190815260200160002060009054906101000a900460ff161515620012c057600080fd5b620012cc8a3362002aec565b97508996508673ffffffffffffffffffffffffffffffffffffffff166370a08231600460029054906101000a900473ffffffffffffffffffffffffffffffffffffffff166040518263ffffffff167c0100000000000000000000000000000000000000000000000000000000028152600401808273ffffffffffffffffffffffffffffffffffffffff1673ffffffffffffffffffffffffffffffffffffffff168152602001915050602060405180830381600087803b1580156200138f57600080fd5b505af1158015620013a4573d6000803e3d6000fd5b505050506040513d6020811015620013bb57600080fd5b810190808051906020019092919050505095506000886004015411620013e3576000620013fd565b620013fc88600401548a62002ba290919063ffffffff16565b5b945062001414858a62002bee90919063ffffffff16565b93506200142f84896009015462002c1090919063ffffffff16565b6200143b8b3362002aec565b600901819055508673ffffffffffffffffffffffffffffffffffffffff166323b872dd33600460029054906101000a900473ffffffffffffffffffffffffffffffffffffffff16876040518463ffffffff167c0100000000000000000000000000000000000000000000000000000000028152600401808473ffffffffffffffffffffffffffffffffffffffff1673ffffffffffffffffffffffffffffffffffffffff1681526020018373ffffffffffffffffffffffffffffffffffffffff1673ffffffffffffffffffffffffffffffffffffffff1681526020018281526020019350505050602060405180830381600087803b1580156200153c57600080fd5b505af115801562001551573d6000803e3d6000fd5b505050506040513d60208110156200156857600080fd5b8101908080519060200190929190505050508673ffffffffffffffffffffffffffffffffffffffff166323b872dd33600660009054906101000a900473ffffffffffffffffffffffffffffffffffffffff16886040518463ffffffff167c0100000000000000000000000000000000000000000000000000000000028152600401808473ffffffffffffffffffffffffffffffffffffffff1673ffffffffffffffffffffffffffffffffffffffff1681526020018373ffffffffffffffffffffffffffffffffffffffff1673ffffffffffffffffffffffffffffffffffffffff1681526020018281526020019350505050602060405180830381600087803b1580156200167457600080fd5b505af115801562001689573d6000803e3d6000fd5b505050506040513d6020811015620016a057600080fd5b8101908080519060200190929190505050508673ffffffffffffffffffffffffffffffffffffffff166370a08231600460029054906101000a900473ffffffffffffffffffffffffffffffffffffffff166040518263ffffffff167c0100000000000000000000000000000000000000000000000000000000028152600401808273ffffffffffffffffffffffffffffffffffffffff1673ffffffffffffffffffffffffffffffffffffffff168152602001915050602060405180830381600087803b1580156200177057600080fd5b505af115801562001785573d6000803e3d6000fd5b505050506040513d60208110156200179c57600080fd5b81019080805190602001909291905050509250620017c4848762002c1090919063ffffffff16565b83141515620017d257600080fd5b600073ffffffffffffffffffffffffffffffffffffffff16600560009054906101000a900473ffffffffffffffffffffffffffffffffffffffff1673ffffffffffffffffffffffffffffffffffffffff1663151f37348c6040518263ffffffff167c0100000000000000000000000000000000000000000000000000000000028152600401808273ffffffffffffffffffffffffffffffffffffffff1673ffffffffffffffffffffffffffffffffffffffff168152602001915050602060405180830381600087803b158015620018a857600080fd5b505af1158015620018bd573d6000803e3d6000fd5b505050506040513d6020811015620018d457600080fd5b810190808051906020019092919050505073ffffffffffffffffffffffffffffffffffffffff16141562001b7c5787600001886001018960020160009054906101000a900460ff166200192662002e57565b8080602001806020018460ff1660ff168152602001838103835286818154600181600116156101000203166002900481526020019150805460018160011615610100020316600290048015620019c05780601f106200199457610100808354040283529160200191620019c0565b820191906000526020600020905b815481529060010190602001808311620019a257829003601f168201915b505083810382528581815460018160011615610100020316600290048152602001915080546001816001161561010002031660029004801562001a475780601f1062001a1b5761010080835404028352916020019162001a47565b820191906000526020600020905b81548152906001019060200180831162001a2957829003601f168201915b505095505050505050604051809103906000f08015801562001a6d573d6000803e3d6000fd5b509150600560009054906101000a900473ffffffffffffffffffffffffffffffffffffffff1673ffffffffffffffffffffffffffffffffffffffff1663a07369128b846040518363ffffffff167c0100000000000000000000000000000000000000000000000000000000028152600401808373ffffffffffffffffffffffffffffffffffffffff1673ffffffffffffffffffffffffffffffffffffffff1681526020018273ffffffffffffffffffffffffffffffffffffffff1673ffffffffffffffffffffffffffffffffffffffff16815260200192505050600060405180830381600087803b15801562001b6257600080fd5b505af115801562001b77573d6000803e3d6000fd5b505050505b3373ffffffffffffffffffffffffffffffffffffffff168a73ffffffffffffffffffffffffffffffffffffffff167f2b11dc5f6b2036a3d03d04c1e89724a8650507582665455ed7154b544f3e3c4f86600560009054906101000a900473ffffffffffffffffffffffffffffffffffffffff1673ffffffffffffffffffffffffffffffffffffffff1663151f37348f6040518263ffffffff167c0100000000000000000000000000000000000000000000000000000000028152600401808273ffffffffffffffffffffffffffffffffffffffff1673ffffffffffffffffffffffffffffffffffffffff168152602001915050602060405180830381600087803b15801562001c8a57600080fd5b505af115801562001c9f573d6000803e3d6000fd5b505050506040513d602081101562001cb657600080fd5b8101908080519060200190929190505050604051808381526020018273ffffffffffffffffffffffffffffffffffffffff1673ffffffffffffffffffffffffffffffffffffffff1681526020019250505060405180910390a36001548114151562001d2057600080fd5b50505050505050505050565b6000809054906101000a900473ffffffffffffffffffffffffffffffffffffffff1673ffffffffffffffffffffffffffffffffffffffff163373ffffffffffffffffffffffffffffffffffffffff1614151562001d8857600080fd5b6000809054906101000a900473ffffffffffffffffffffffffffffffffffffffff1673ffffffffffffffffffffffffffffffffffffffff167ff8df31144d9c2f0f6b59d69b8b98abd5459d07f2742c4df920b25aae33c6482060405160405180910390a260008060006101000a81548173ffffffffffffffffffffffffffffffffffffffff021916908373ffffffffffffffffffffffffffffffffffffffff160217905550565b60008060006001806000828254019250508190555060015490506001151562001e59873362002aec565b60030160003373ffffffffffffffffffffffffffffffffffffffff1673ffffffffffffffffffffffffffffffffffffffff16815260200190815260200160002060009054906101000a900460ff16151514151562001eb657600080fd5b62001eda8562001ec7883362002aec565b600a015462002c1090919063ffffffff16565b62001ee6873362002aec565b600901541015151562001ef857600080fd5b600073ffffffffffffffffffffffffffffffffffffffff1662001f1c873362002aec565b60080160009054906101000a900473ffffffffffffffffffffffffffffffffffffffff1673ffffffffffffffffffffffffffffffffffffffff1614151562001f6357600080fd5b600560009054906101000a900473ffffffffffffffffffffffffffffffffffffffff1673ffffffffffffffffffffffffffffffffffffffff1663151f3734876040518263ffffffff167c0100000000000000000000000000000000000000000000000000000000028152600401808273ffffffffffffffffffffffffffffffffffffffff1673ffffffffffffffffffffffffffffffffffffffff168152602001915050602060405180830381600087803b1580156200202157600080fd5b505af115801562002036573d6000803e3d6000fd5b505050506040513d60208110156200204d57600080fd5b81019080805190602001909291905050509250600760009054906101000a900473ffffffffffffffffffffffffffffffffffffffff1673ffffffffffffffffffffffffffffffffffffffff1663ed0f91a087858a88600660009054906101000a900473ffffffffffffffffffffffffffffffffffffffff16620020d18d3362002aec565b60050154620020e18e3362002aec565b60060154620020f18f3362002aec565b60070154600460029054906101000a900473ffffffffffffffffffffffffffffffffffffffff16336040518b63ffffffff167c0100000000000000000000000000000000000000000000000000000000028152600401808b73ffffffffffffffffffffffffffffffffffffffff1673ffffffffffffffffffffffffffffffffffffffff1681526020018a73ffffffffffffffffffffffffffffffffffffffff1673ffffffffffffffffffffffffffffffffffffffff1681526020018963ffffffff1663ffffffff1681526020018881526020018773ffffffffffffffffffffffffffffffffffffffff1673ffffffffffffffffffffffffffffffffffffffff1681526020018681526020018581526020018481526020018373ffffffffffffffffffffffffffffffffffffffff1673ffffffffffffffffffffffffffffffffffffffff1681526020018273ffffffffffffffffffffffffffffffffffffffff1673ffffffffffffffffffffffffffffffffffffffff1681526020019a5050505050505050505050602060405180830381600087803b1580156200229357600080fd5b505af1158015620022a8573d6000803e3d6000fd5b505050506040513d6020811015620022bf57600080fd5b8101908080519060200190929190505050915081620022df873362002aec565b60080160006101000a81548173ffffffffffffffffffffffffffffffffffffffff021916908373ffffffffffffffffffffffffffffffffffffffff1602179055508273ffffffffffffffffffffffffffffffffffffffff1663d88b8676836040518263ffffffff167c0100000000000000000000000000000000000000000000000000000000028152600401808273ffffffffffffffffffffffffffffffffffffffff1673ffffffffffffffffffffffffffffffffffffffff168152602001915050600060405180830381600087803b158015620023bc57600080fd5b505af1158015620023d1573d6000803e3d6000fd5b505050506000620023e3873362002aec565b6006015411156200255957600460029054906101000a900473ffffffffffffffffffffffffffffffffffffffff1673ffffffffffffffffffffffffffffffffffffffff1663e1f21c678784620024616200243e8b3362002aec565b600601546200244e8c3362002aec565b6009015462002ba290919063ffffffff16565b6040518463ffffffff167c0100000000000000000000000000000000000000000000000000000000028152600401808473ffffffffffffffffffffffffffffffffffffffff1673ffffffffffffffffffffffffffffffffffffffff1681526020018373ffffffffffffffffffffffffffffffffffffffff1673ffffffffffffffffffffffffffffffffffffffff1681526020018281526020019350505050602060405180830381600087803b1580156200251a57600080fd5b505af11580156200252f573d6000803e3d6000fd5b505050506040513d60208110156200254657600080fd5b8101908080519060200190929190505050505b62002565868662002651565b3373ffffffffffffffffffffffffffffffffffffffff168673ffffffffffffffffffffffffffffffffffffffff167f55ba97b8c9a7f29936b8c9d92b2812067e683cc87018f61cd56ed87a0b9eca818988604051808363ffffffff1681526020018281526020019250505060405180910390a360015481141515620025e957600080fd5b50505050505050565b600460029054906101000a900473ffffffffffffffffffffffffffffffffffffffff1681565b6000809054906101000a900473ffffffffffffffffffffffffffffffffffffffff1681565b600460009054906101000a900461ffff1681565b6000806001151562002664853362002aec565b60030160003373ffffffffffffffffffffffffffffffffffffffff1673ffffffffffffffffffffffffffffffffffffffff16815260200190815260200160002060009054906101000a900460ff161515141515620026c157600080fd5b620026e583620026d2863362002aec565b600a015462002c1090919063ffffffff16565b620026f1853362002aec565b60090154101515156200270357600080fd5b600560009054906101000a900473ffffffffffffffffffffffffffffffffffffffff1673ffffffffffffffffffffffffffffffffffffffff1663151f3734856040518263ffffffff167c0100000000000000000000000000000000000000000000000000000000028152600401808273ffffffffffffffffffffffffffffffffffffffff1673ffffffffffffffffffffffffffffffffffffffff168152602001915050602060405180830381600087803b158015620027c157600080fd5b505af1158015620027d6573d6000803e3d6000fd5b505050506040513d6020811015620027ed57600080fd5b81019080805190602001909291905050509150600073ffffffffffffffffffffffffffffffffffffffff168273ffffffffffffffffffffffffffffffffffffffff16141515156200283d57600080fd5b62002849843362002aec565b60080160009054906101000a900473ffffffffffffffffffffffffffffffffffffffff169050600073ffffffffffffffffffffffffffffffffffffffff168173ffffffffffffffffffffffffffffffffffffffff1614151515620028ac57600080fd5b620028d083620028bd863362002aec565b600a015462002c1090919063ffffffff16565b620028dc853362002aec565b600a01819055508173ffffffffffffffffffffffffffffffffffffffff1663d0047acf828560006040518463ffffffff167c0100000000000000000000000000000000000000000000000000000000028152600401808473ffffffffffffffffffffffffffffffffffffffff1673ffffffffffffffffffffffffffffffffffffffff1681526020018381526020018263ffffffff1681526020019350505050602060405180830381600087803b1580156200299657600080fd5b505af1158015620029ab573d6000803e3d6000fd5b505050506040513d6020811015620029c257600080fd5b81019080805190602001909291905050505050505050565b600760009054906101000a900473ffffffffffffffffffffffffffffffffffffffff1681565b60026020528160005260406000206020528060005260406000206000915091509054906101000a900461ffff1681565b6000809054906101000a900473ffffffffffffffffffffffffffffffffffffffff1673ffffffffffffffffffffffffffffffffffffffff163373ffffffffffffffffffffffffffffffffffffffff1614151562002a8c57600080fd5b62002a978162002c32565b50565b600080821015801562002aaf57506127108211155b9050919050565b600062002ac38262002a9a565b151562002acf57600080fd5b62002ae560648362002d2d90919063ffffffff16565b9050919050565b60006003600260008573ffffffffffffffffffffffffffffffffffffffff1673ffffffffffffffffffffffffffffffffffffffff16815260200190815260200160002060008473ffffffffffffffffffffffffffffffffffffffff1673ffffffffffffffffffffffffffffffffffffffff16815260200190815260200160002060009054906101000a900461ffff1661ffff1681548110151562002b8c57fe5b90600052602060002090600c0201905092915050565b600062002baf8262002a9a565b151562002bbb57600080fd5b62002be661271062002bd7848662002d5990919063ffffffff16565b62002d2d90919063ffffffff16565b905092915050565b60008083831115151562002c0157600080fd5b82840390508091505092915050565b600080828401905083811015151562002c2857600080fd5b8091505092915050565b600073ffffffffffffffffffffffffffffffffffffffff168173ffffffffffffffffffffffffffffffffffffffff161415151562002c6f57600080fd5b8073ffffffffffffffffffffffffffffffffffffffff166000809054906101000a900473ffffffffffffffffffffffffffffffffffffffff1673ffffffffffffffffffffffffffffffffffffffff167f8be0079c531659141344cd1fd0a4f28419497f9722a3daafe3b4186f6b6457e060405160405180910390a3806000806101000a81548173ffffffffffffffffffffffffffffffffffffffff021916908373ffffffffffffffffffffffffffffffffffffffff16021790555050565b60008060008311151562002d4057600080fd5b828481151562002d4c57fe5b0490508091505092915050565b600080600084141562002d70576000915062002d94565b828402905082848281151562002d8257fe5b0414151562002d9057600080fd5b8091505b5092915050565b81548183558181111562002dcb57600c0281600c02836000526020600020918201910162002dca919062002e68565b5b505050565b828054600181600116156101000203166002900490600052602060002090601f016020900481019282601f1062002e1357803560ff191683800117855562002e44565b8280016001018555821562002e44579182015b8281111562002e4357823582559160200191906001019062002e26565b5b50905062002e53919062002f40565b5090565b6040516123d58062002fb583390190565b62002f3d91905b8082111562002f39576000808201600062002e8b919062002f68565b60018201600062002e9d919062002f68565b6002820160006101000a81549060ff021916905560048201600090556005820160009055600682016000905560078201600090556008820160006101000a81549073ffffffffffffffffffffffffffffffffffffffff02191690556009820160009055600a820160009055600b820160006101000a81549073ffffffffffffffffffffffffffffffffffffffff021916905550600c0162002e6f565b5090565b90565b62002f6591905b8082111562002f6157600081600090555060010162002f47565b5090565b90565b50805460018160011615610100020316600290046000825580601f1062002f90575062002fb1565b601f01602090049060005260206000209081019062002fb0919062002f40565b5b50560060806040523480156200001157600080fd5b50604051620023d5380380620023d583398101806040528101908080518201929190602001805182019291906020018051906020019092919050505082828282600090805190602001906200006892919062000142565b5081600190805190602001906200008192919062000142565b5080600260006101000a81548160ff021916908360ff16021790555050505033600260016101000a81548173ffffffffffffffffffffffffffffffffffffffff021916908373ffffffffffffffffffffffffffffffffffffffff1602179055506001600860003373ffffffffffffffffffffffffffffffffffffffff1673ffffffffffffffffffffffffffffffffffffffff16815260200190815260200160002060006101000a81548160ff021916908315150217905550505050620001f1565b828054600181600116156101000203166002900490600052602060002090601f016020900481019282601f106200018557805160ff1916838001178555620001b6565b82800160010185558215620001b6579182015b82811115620001b557825182559160200191906001019062000198565b5b509050620001c59190620001c9565b5090565b620001ee91905b80821115620001ea576000816000905550600101620001d0565b5090565b90565b6121d480620002016000396000f30060806040526004361061011d576000357c0100000000000000000000000000000000000000000000000000000000900463ffffffff16806306fdde031461012f578063095ea7b3146101bf57806318160ddd1461022457806323b872dd1461024f57806327e235e3146102d4578063313ce5671461032b5780634afbf5ee1461035c57806366188463146103bd57806370a0823114610422578063715018a6146104795780638da5cb5b1461049057806395d89b41146104e75780639d2e477714610577578063a9059cbb146105ec578063ba0e0f5e14610651578063d0047acf14610694578063d294cb0f14610709578063d73dd62314610760578063d88b8676146107c5578063dd62ed3e14610808578063f2fde38b1461087f575b34801561012957600080fd5b50600080fd5b34801561013b57600080fd5b506101446108c2565b6040518080602001828103825283818151815260200191508051906020019080838360005b83811015610184578082015181840152602081019050610169565b50505050905090810190601f1680156101b15780820380516001836020036101000a031916815260200191505b509250505060405180910390f35b3480156101cb57600080fd5b5061020a600480360381019080803573ffffffffffffffffffffffffffffffffffffffff16906020019092919080359060200190929190505050610960565b604051808215151515815260200191505060405180910390f35b34801561023057600080fd5b50610239610a52565b6040518082815260200191505060405180910390f35b34801561025b57600080fd5b506102ba600480360381019080803573ffffffffffffffffffffffffffffffffffffffff169060200190929190803573ffffffffffffffffffffffffffffffffffffffff16906020019092919080359060200190929190505050610a5c565b604051808215151515815260200191505060405180910390f35b3480156102e057600080fd5b50610315600480360381019080803573ffffffffffffffffffffffffffffffffffffffff169060200190929190505050610cd9565b6040518082815260200191505060405180910390f35b34801561033757600080fd5b50610340610cf1565b604051808260ff1660ff16815260200191505060405180910390f35b34801561036857600080fd5b506103a7600480360381019080803573ffffffffffffffffffffffffffffffffffffffff16906020019092919080359060200190929190505050610d04565b6040518082815260200191505060405180910390f35b3480156103c957600080fd5b50610408600480360381019080803573ffffffffffffffffffffffffffffffffffffffff16906020019092919080359060200190929190505050610d29565b604051808215151515815260200191505060405180910390f35b34801561042e57600080fd5b50610463600480360381019080803573ffffffffffffffffffffffffffffffffffffffff169060200190929190505050610fab565b6040518082815260200191505060405180910390f35b34801561048557600080fd5b5061048e610ff4565b005b34801561049c57600080fd5b506104a56110f9565b604051808273ffffffffffffffffffffffffffffffffffffffff1673ffffffffffffffffffffffffffffffffffffffff16815260200191505060405180910390f35b3480156104f357600080fd5b506104fc61111f565b6040518080602001828103825283818151815260200191508051906020019080838360005b8381101561053c578082015181840152602081019050610521565b50505050905090810190601f1680156105695780820380516001836020036101000a031916815260200191505b509250505060405180910390f35b34801561058357600080fd5b506105d2600480360381019080803573ffffffffffffffffffffffffffffffffffffffff16906020019092919080359060200190929190803563ffffffff1690602001909291905050506111bd565b604051808215151515815260200191505060405180910390f35b3480156105f857600080fd5b50610637600480360381019080803573ffffffffffffffffffffffffffffffffffffffff169060200190929190803590602001909291905050506112fe565b604051808215151515815260200191505060405180910390f35b34801561065d57600080fd5b50610692600480360381019080803573ffffffffffffffffffffffffffffffffffffffff169060200190929190505050611465565b005b3480156106a057600080fd5b506106ef600480360381019080803573ffffffffffffffffffffffffffffffffffffffff16906020019092919080359060200190929190803563ffffffff16906020019092919050505061151c565b604051808215151515815260200191505060405180910390f35b34801561071557600080fd5b5061074a600480360381019080803573ffffffffffffffffffffffffffffffffffffffff16906020019092919050505061172a565b6040518082815260200191505060405180910390f35b34801561076c57600080fd5b506107ab600480360381019080803573ffffffffffffffffffffffffffffffffffffffff1690602001909291908035906020019092919050505061193b565b604051808215151515815260200191505060405180910390f35b3480156107d157600080fd5b50610806600480360381019080803573ffffffffffffffffffffffffffffffffffffffff169060200190929190505050611ab2565b005b34801561081457600080fd5b50610869600480360381019080803573ffffffffffffffffffffffffffffffffffffffff169060200190929190803573ffffffffffffffffffffffffffffffffffffffff169060200190929190505050611b69565b6040518082815260200191505060405180910390f35b34801561088b57600080fd5b506108c0600480360381019080803573ffffffffffffffffffffffffffffffffffffffff169060200190929190505050611bf0565b005b60008054600181600116156101000203166002900480601f0160208091040260200160405190810160405280929190818152602001828054600181600116156101000203166002900480156109585780601f1061092d57610100808354040283529160200191610958565b820191906000526020600020905b81548152906001019060200180831161093b57829003601f168201915b505050505081565b600081600360003373ffffffffffffffffffffffffffffffffffffffff1673ffffffffffffffffffffffffffffffffffffffff16815260200190815260200160002060008573ffffffffffffffffffffffffffffffffffffffff1673ffffffffffffffffffffffffffffffffffffffff168152602001908152602001600020819055508273ffffffffffffffffffffffffffffffffffffffff163373ffffffffffffffffffffffffffffffffffffffff167f8c5be1e5ebec7d5bd14f71427d1e84f3dd0314c0f7b2291e5b200ac8c7c3b925846040518082815260200191505060405180910390a36001905092915050565b6000600554905090565b6000610a6784611c58565b600073ffffffffffffffffffffffffffffffffffffffff168373ffffffffffffffffffffffffffffffffffffffff1614151515610aa357600080fd5b610aac8461172a565b8211151515610aba57600080fd5b600360008573ffffffffffffffffffffffffffffffffffffffff1673ffffffffffffffffffffffffffffffffffffffff16815260200190815260200160002060003373ffffffffffffffffffffffffffffffffffffffff1673ffffffffffffffffffffffffffffffffffffffff168152602001908152602001600020548211151515610b4557600080fd5b81600460008673ffffffffffffffffffffffffffffffffffffffff1673ffffffffffffffffffffffffffffffffffffffff1681526020019081526020016000206000828254039250508190555081600460008573ffffffffffffffffffffffffffffffffffffffff1673ffffffffffffffffffffffffffffffffffffffff1681526020019081526020016000206000828254019250508190555081600360008673ffffffffffffffffffffffffffffffffffffffff1673ffffffffffffffffffffffffffffffffffffffff16815260200190815260200160002060003373ffffffffffffffffffffffffffffffffffffffff1673ffffffffffffffffffffffffffffffffffffffff168152602001908152602001600020600082825403925050819055508273ffffffffffffffffffffffffffffffffffffffff168473ffffffffffffffffffffffffffffffffffffffff167fddf252ad1be2c89b69c2b068fc378daa952ba7f163c4a11628f55a4df523b3ef846040518082815260200191505060405180910390a3600190509392505050565b60046020528060005260406000206000915090505481565b600260009054906101000a900460ff1681565b6006602052816000526040600020602052806000526040600020600091509150505481565b600080600360003373ffffffffffffffffffffffffffffffffffffffff1673ffffffffffffffffffffffffffffffffffffffff16815260200190815260200160002060008573ffffffffffffffffffffffffffffffffffffffff1673ffffffffffffffffffffffffffffffffffffffff1681526020019081526020016000205490508083101515610e3b576000600360003373ffffffffffffffffffffffffffffffffffffffff1673ffffffffffffffffffffffffffffffffffffffff16815260200190815260200160002060008673ffffffffffffffffffffffffffffffffffffffff1673ffffffffffffffffffffffffffffffffffffffff16815260200190815260200160002081905550610ebf565b828103600360003373ffffffffffffffffffffffffffffffffffffffff1673ffffffffffffffffffffffffffffffffffffffff16815260200190815260200160002060008673ffffffffffffffffffffffffffffffffffffffff1673ffffffffffffffffffffffffffffffffffffffff168152602001908152602001600020819055505b8373ffffffffffffffffffffffffffffffffffffffff163373ffffffffffffffffffffffffffffffffffffffff167f8c5be1e5ebec7d5bd14f71427d1e84f3dd0314c0f7b2291e5b200ac8c7c3b925600360003373ffffffffffffffffffffffffffffffffffffffff1673ffffffffffffffffffffffffffffffffffffffff16815260200190815260200160002060008873ffffffffffffffffffffffffffffffffffffffff1673ffffffffffffffffffffffffffffffffffffffff168152602001908152602001600020546040518082815260200191505060405180910390a3600191505092915050565b6000600460008373ffffffffffffffffffffffffffffffffffffffff1673ffffffffffffffffffffffffffffffffffffffff168152602001908152602001600020549050919050565b600260019054906101000a900473ffffffffffffffffffffffffffffffffffffffff1673ffffffffffffffffffffffffffffffffffffffff163373ffffffffffffffffffffffffffffffffffffffff1614151561105057600080fd5b600260019054906101000a900473ffffffffffffffffffffffffffffffffffffffff1673ffffffffffffffffffffffffffffffffffffffff167ff8df31144d9c2f0f6b59d69b8b98abd5459d07f2742c4df920b25aae33c6482060405160405180910390a26000600260016101000a81548173ffffffffffffffffffffffffffffffffffffffff021916908373ffffffffffffffffffffffffffffffffffffffff160217905550565b600260019054906101000a900473ffffffffffffffffffffffffffffffffffffffff1681565b60018054600181600116156101000203166002900480601f0160208091040260200160405190810160405280929190818152602001828054600181600116156101000203166002900480156111b55780601f1061118a576101008083540402835291602001916111b5565b820191906000526020600020905b81548152906001019060200180831161119857829003601f168201915b505050505081565b600033600860008273ffffffffffffffffffffffffffffffffffffffff1673ffffffffffffffffffffffffffffffffffffffff16815260200190815260200160002060009054906101000a900460ff16151561121857600080fd5b61122285856112fe565b50428363ffffffff161115611245576112446000868563ffffffff1687611f27565b5b7f5075049792a88eedfe4e60bb3ffeac77b4fa7f03108b81fb0b460161b983e20033868686604051808573ffffffffffffffffffffffffffffffffffffffff1673ffffffffffffffffffffffffffffffffffffffff1681526020018473ffffffffffffffffffffffffffffffffffffffff1673ffffffffffffffffffffffffffffffffffffffff1681526020018381526020018263ffffffff16815260200194505050505060405180910390a160019150509392505050565b600061130933611c58565b600073ffffffffffffffffffffffffffffffffffffffff168373ffffffffffffffffffffffffffffffffffffffff161415151561134557600080fd5b61134e3361172a565b821115151561135c57600080fd5b81600460003373ffffffffffffffffffffffffffffffffffffffff1673ffffffffffffffffffffffffffffffffffffffff1681526020019081526020016000206000828254039250508190555081600460008573ffffffffffffffffffffffffffffffffffffffff1673ffffffffffffffffffffffffffffffffffffffff168152602001908152602001600020600082825401925050819055508273ffffffffffffffffffffffffffffffffffffffff163373ffffffffffffffffffffffffffffffffffffffff167fddf252ad1be2c89b69c2b068fc378daa952ba7f163c4a11628f55a4df523b3ef846040518082815260200191505060405180910390a36001905092915050565b600260019054906101000a900473ffffffffffffffffffffffffffffffffffffffff1673ffffffffffffffffffffffffffffffffffffffff163373ffffffffffffffffffffffffffffffffffffffff161415156114c157600080fd5b6000600860008373ffffffffffffffffffffffffffffffffffffffff1673ffffffffffffffffffffffffffffffffffffffff16815260200190815260200160002060006101000a81548160ff02191690831515021790555050565b600033600860008273ffffffffffffffffffffffffffffffffffffffff1673ffffffffffffffffffffffffffffffffffffffff16815260200190815260200160002060009054906101000a900460ff16151561157757600080fd5b600554846005540111151561158b57600080fd5b428363ffffffff1611156115ad576115ac6000868563ffffffff1687611f27565b5b83600460008773ffffffffffffffffffffffffffffffffffffffff1673ffffffffffffffffffffffffffffffffffffffff16815260200190815260200160002060008282540192505081905550836005600082825401925050819055508473ffffffffffffffffffffffffffffffffffffffff16600073ffffffffffffffffffffffffffffffffffffffff167fddf252ad1be2c89b69c2b068fc378daa952ba7f163c4a11628f55a4df523b3ef866040518082815260200191505060405180910390a37f5075049792a88eedfe4e60bb3ffeac77b4fa7f03108b81fb0b460161b983e2006000868686604051808573ffffffffffffffffffffffffffffffffffffffff1673ffffffffffffffffffffffffffffffffffffffff1681526020018473ffffffffffffffffffffffffffffffffffffffff1673ffffffffffffffffffffffffffffffffffffffff1681526020018381526020018263ffffffff16815260200194505050505060405180910390a160019150509392505050565b600080600460008473ffffffffffffffffffffffffffffffffffffffff1673ffffffffffffffffffffffffffffffffffffffff1681526020019081526020016000205491506000600660008573ffffffffffffffffffffffffffffffffffffffff1673ffffffffffffffffffffffffffffffffffffffff16815260200190815260200160002060008081526020019081526020016000205414156117cd57611935565b600090505b600760008473ffffffffffffffffffffffffffffffffffffffff1673ffffffffffffffffffffffffffffffffffffffff168152602001908152602001600020805490508110156119345742600760008573ffffffffffffffffffffffffffffffffffffffff1673ffffffffffffffffffffffffffffffffffffffff1681526020019081526020016000208281548110151561186957fe5b906000526020600020015410151561192757600660008473ffffffffffffffffffffffffffffffffffffffff1673ffffffffffffffffffffffffffffffffffffffff1681526020019081526020016000206000600760008673ffffffffffffffffffffffffffffffffffffffff1673ffffffffffffffffffffffffffffffffffffffff1681526020019081526020016000208381548110151561190857fe5b9060005260206000200154815260200190815260200160002054820391505b80806001019150506117d2565b5b50919050565b600081600360003373ffffffffffffffffffffffffffffffffffffffff1673ffffffffffffffffffffffffffffffffffffffff16815260200190815260200160002060008573ffffffffffffffffffffffffffffffffffffffff1673ffffffffffffffffffffffffffffffffffffffff168152602001908152602001600020600082825401925050819055508273ffffffffffffffffffffffffffffffffffffffff163373ffffffffffffffffffffffffffffffffffffffff167f8c5be1e5ebec7d5bd14f71427d1e84f3dd0314c0f7b2291e5b200ac8c7c3b925600360003373ffffffffffffffffffffffffffffffffffffffff1673ffffffffffffffffffffffffffffffffffffffff16815260200190815260200160002060008773ffffffffffffffffffffffffffffffffffffffff1673ffffffffffffffffffffffffffffffffffffffff168152602001908152602001600020546040518082815260200191505060405180910390a36001905092915050565b600260019054906101000a900473ffffffffffffffffffffffffffffffffffffffff1673ffffffffffffffffffffffffffffffffffffffff163373ffffffffffffffffffffffffffffffffffffffff16141515611b0e57600080fd5b6001600860008373ffffffffffffffffffffffffffffffffffffffff1673ffffffffffffffffffffffffffffffffffffffff16815260200190815260200160002060006101000a81548160ff02191690831515021790555050565b6000600360008473ffffffffffffffffffffffffffffffffffffffff1673ffffffffffffffffffffffffffffffffffffffff16815260200190815260200160002060008373ffffffffffffffffffffffffffffffffffffffff1673ffffffffffffffffffffffffffffffffffffffff16815260200190815260200160002054905092915050565b600260019054906101000a900473ffffffffffffffffffffffffffffffffffffffff1673ffffffffffffffffffffffffffffffffffffffff163373ffffffffffffffffffffffffffffffffffffffff16141515611c4c57600080fd5b611c55816120ac565b50565b600080600660008473ffffffffffffffffffffffffffffffffffffffff1673ffffffffffffffffffffffffffffffffffffffff1681526020019081526020016000206000808152602001908152602001600020541415611cb757611f23565b600090505b600760008373ffffffffffffffffffffffffffffffffffffffff1673ffffffffffffffffffffffffffffffffffffffff16815260200190815260200160002080549050811015611f225742600760008473ffffffffffffffffffffffffffffffffffffffff1673ffffffffffffffffffffffffffffffffffffffff16815260200190815260200160002082815481101515611d5357fe5b90600052602060002001541015611f1557600660008373ffffffffffffffffffffffffffffffffffffffff1673ffffffffffffffffffffffffffffffffffffffff1681526020019081526020016000206000600760008573ffffffffffffffffffffffffffffffffffffffff1673ffffffffffffffffffffffffffffffffffffffff16815260200190815260200160002083815481101515611df157fe5b9060005260206000200154815260200190815260200160002054600660008473ffffffffffffffffffffffffffffffffffffffff1673ffffffffffffffffffffffffffffffffffffffff1681526020019081526020016000206000808152602001908152602001600020600082825403925050819055506000600660008473ffffffffffffffffffffffffffffffffffffffff1673ffffffffffffffffffffffffffffffffffffffff1681526020019081526020016000206000600760008673ffffffffffffffffffffffffffffffffffffffff1673ffffffffffffffffffffffffffffffffffffffff16815260200190815260200160002084815481101515611ef757fe5b90600052602060002001548152602001908152602001600020819055505b8080600101915050611cbc565b5b5050565b80600660008573ffffffffffffffffffffffffffffffffffffffff1673ffffffffffffffffffffffffffffffffffffffff1681526020019081526020016000206000808152602001908152602001600020600082825401925050819055506000600660008573ffffffffffffffffffffffffffffffffffffffff1673ffffffffffffffffffffffffffffffffffffffff168152602001908152602001600020600084815260200190815260200160002054141561204857600760008473ffffffffffffffffffffffffffffffffffffffff1673ffffffffffffffffffffffffffffffffffffffff1681526020019081526020016000208290806001815401808255809150509060018203906000526020600020016000909192909190915055505b80600660008573ffffffffffffffffffffffffffffffffffffffff1673ffffffffffffffffffffffffffffffffffffffff16815260200190815260200160002060008481526020019081526020016000206000828254019250508190555050505050565b600073ffffffffffffffffffffffffffffffffffffffff168173ffffffffffffffffffffffffffffffffffffffff16141515156120e857600080fd5b8073ffffffffffffffffffffffffffffffffffffffff16600260019054906101000a900473ffffffffffffffffffffffffffffffffffffffff1673ffffffffffffffffffffffffffffffffffffffff167f8be0079c531659141344cd1fd0a4f28419497f9722a3daafe3b4186f6b6457e060405160405180910390a380600260016101000a81548173ffffffffffffffffffffffffffffffffffffffff021916908373ffffffffffffffffffffffffffffffffffffffff160217905550505600a165627a7a72305820a7f578159b251ef86ae3b8fdeae624365e055abdbff21b107a144d2fd582f8080029a165627a7a72305820c1e237805a749ad22d26e56b9cb5be081b8a055ba833a90f4a317e1915d1cd350029",
  "source": "pragma solidity ^0.4.23;\n\nimport \"./WToken.sol\";\nimport \"./W12TokenLedger.sol\";\nimport \"./interfaces/IW12CrowdsaleFactory.sol\";\nimport \"./interfaces/IW12AtomicSwap.sol\";\nimport \"../openzeppelin-solidity/contracts/math/SafeMath.sol\";\nimport \"../openzeppelin-solidity/contracts/ownership/Ownable.sol\";\nimport \"../openzeppelin-solidity/contracts/ReentrancyGuard.sol\";\nimport \"./libs/Percent.sol\";\n\n\ncontract W12Lister is Ownable, ReentrancyGuard {\n    using SafeMath for uint;\n    using Percent for uint;\n\n    // get token index in approvedTokens list by token address and token owner address\n    mapping (address => mapping (address => uint16)) public approvedTokensIndex;\n    ListedToken[] public approvedTokens;\n    uint16 public approvedTokensLength;\n    IW12AtomicSwap public swap;\n    W12TokenLedger public ledger;\n    address public serviceWallet;\n    IW12CrowdsaleFactory public factory;\n\n    event OwnerWhitelisted(address indexed tokenAddress, address indexed tokenOwner, string name, string symbol);\n    event TokenPlaced(address indexed originalTokenAddress, address indexed tokenOwner, uint tokenAmount, address placedTokenAddress);\n    event CrowdsaleInitialized(uint startDate, address indexed tokenAddress, address indexed tokenOwner, uint amountForSale);\n\n    struct ListedToken {\n        string name;\n        string symbol;\n        uint8 decimals;\n        mapping(address => bool) approvedOwners;\n        uint feePercent;\n        uint ethFeePercent;\n        uint WTokenSaleFeePercent;\n        uint trancheFeePercent;\n        IW12Crowdsale crowdsaleAddress;\n        uint tokensForSaleAmount;\n        uint wTokensIssuedAmount;\n        address tokenAddress;\n    }\n\n    constructor(address _serviceWallet, IW12CrowdsaleFactory _factory, W12TokenLedger _ledger, IW12AtomicSwap _swap) public {\n        require(_serviceWallet != address(0));\n        require(_factory != address(0));\n        require(_ledger != address(0));\n        require(_swap != address(0));\n\n        ledger = _ledger;\n        swap = _swap;\n        serviceWallet = _serviceWallet;\n        factory = _factory;\n        approvedTokens.length++; // zero-index element should never be used\n    }\n\n    function whitelistToken(\n        address tokenOwner,\n        address tokenAddress,\n        string name,\n        string symbol,\n        uint8 decimals,\n        uint feePercent,\n        uint ethFeePercent,\n        uint WTokenSaleFeePercent,\n        uint trancheFeePercent\n    )\n        external onlyOwner {\n\n        require(tokenOwner != address(0));\n        require(tokenAddress != address(0));\n        require(feePercent.isPercent() && feePercent.fromPercent() < 100);\n        require(ethFeePercent.isPercent() && ethFeePercent.fromPercent() < 100);\n        require(WTokenSaleFeePercent.isPercent() && WTokenSaleFeePercent.fromPercent() < 100);\n        require(trancheFeePercent.isPercent() && trancheFeePercent.fromPercent() < 100);\n        require(getApprovedToken(tokenAddress, tokenOwner).tokenAddress != tokenAddress);\n        require(!getApprovedToken(tokenAddress, tokenOwner).approvedOwners[tokenOwner]);\n\n        uint16 index = uint16(approvedTokens.length);\n\n        approvedTokensIndex[tokenAddress][tokenOwner] = index;\n\n        approvedTokensLength = uint16(approvedTokens.length++);\n\n        approvedTokens[index].approvedOwners[tokenOwner] = true;\n        approvedTokens[index].name = name;\n        approvedTokens[index].symbol = symbol;\n        approvedTokens[index].decimals = decimals;\n        approvedTokens[index].feePercent = feePercent;\n        approvedTokens[index].ethFeePercent = ethFeePercent;\n        approvedTokens[index].WTokenSaleFeePercent = WTokenSaleFeePercent;\n        approvedTokens[index].trancheFeePercent = trancheFeePercent;\n        approvedTokens[index].tokenAddress = tokenAddress;\n\n        emit OwnerWhitelisted(tokenAddress, tokenOwner, name, symbol);\n    }\n\n    function placeToken(address tokenAddress, uint amount) external nonReentrant {\n        require(amount > 0);\n        require(tokenAddress != address(0));\n        require(getApprovedToken(tokenAddress, msg.sender).tokenAddress == tokenAddress);\n        require(getApprovedToken(tokenAddress, msg.sender).approvedOwners[msg.sender]);\n\n        ListedToken storage listedToken = getApprovedToken(tokenAddress, msg.sender);\n\n        ERC20 token = ERC20(tokenAddress);\n        uint balanceBefore = token.balanceOf(swap);\n        uint fee = listedToken.feePercent > 0\n            ? amount.percent(listedToken.feePercent)\n            : 0;\n\n        uint amountWithoutFee = amount.sub(fee);\n\n        getApprovedToken(tokenAddress, msg.sender).tokensForSaleAmount = listedToken.tokensForSaleAmount.add(amountWithoutFee);\n\n        token.transferFrom(msg.sender, swap, amountWithoutFee);\n        token.transferFrom(msg.sender, serviceWallet, fee);\n\n        uint balanceAfter = token.balanceOf(swap);\n\n        require(balanceAfter == balanceBefore.add(amountWithoutFee));\n\n        if(ledger.getWTokenByToken(tokenAddress) == address(0)) {\n            WToken wToken = new WToken(listedToken.name, listedToken.symbol, listedToken.decimals);\n\n            ledger.addTokenToListing(ERC20(tokenAddress), wToken);\n        }\n\n        emit TokenPlaced(tokenAddress, msg.sender, amountWithoutFee, ledger.getWTokenByToken(tokenAddress));\n    }\n\n    function initCrowdsale(uint32 startDate, address tokenAddress, uint amountForSale, uint price) external nonReentrant {\n        require(getApprovedToken(tokenAddress, msg.sender).approvedOwners[msg.sender] == true);\n        require(getApprovedToken(tokenAddress, msg.sender).tokensForSaleAmount >= getApprovedToken(tokenAddress, msg.sender).wTokensIssuedAmount.add(amountForSale));\n        require(getApprovedToken(tokenAddress, msg.sender).crowdsaleAddress == address(0));\n\n        WToken wtoken = ledger.getWTokenByToken(tokenAddress);\n\n        IW12Crowdsale crowdsale = factory.createCrowdsale(\n            address(tokenAddress),\n            address(wtoken),\n            startDate,\n            price,\n            serviceWallet,\n            getApprovedToken(tokenAddress, msg.sender).ethFeePercent,\n            getApprovedToken(tokenAddress, msg.sender).WTokenSaleFeePercent,\n            getApprovedToken(tokenAddress, msg.sender).trancheFeePercent,\n            swap,\n            msg.sender\n        );\n\n        getApprovedToken(tokenAddress, msg.sender).crowdsaleAddress = crowdsale;\n        wtoken.addTrustedAccount(crowdsale);\n\n        if (getApprovedToken(tokenAddress, msg.sender).WTokenSaleFeePercent > 0) {\n            swap.approve(\n                tokenAddress,\n                address(crowdsale),\n                getApprovedToken(tokenAddress, msg.sender).tokensForSaleAmount\n                    .percent(getApprovedToken(tokenAddress, msg.sender).WTokenSaleFeePercent)\n            );\n        }\n\n        addTokensToCrowdsale(tokenAddress, amountForSale);\n\n        emit CrowdsaleInitialized(startDate, tokenAddress, msg.sender, amountForSale);\n    }\n\n    function addTokensToCrowdsale(address tokenAddress, uint amountForSale) public {\n        require(getApprovedToken(tokenAddress, msg.sender).approvedOwners[msg.sender] == true);\n        require(getApprovedToken(tokenAddress, msg.sender).tokensForSaleAmount >= getApprovedToken(tokenAddress, msg.sender).wTokensIssuedAmount.add(amountForSale));\n\n        WToken token = ledger.getWTokenByToken(tokenAddress);\n\n        require(token != address(0));\n\n        IW12Crowdsale crowdsale = getApprovedToken(tokenAddress, msg.sender).crowdsaleAddress;\n\n        require(crowdsale != address(0));\n\n        getApprovedToken(tokenAddress, msg.sender).wTokensIssuedAmount = getApprovedToken(tokenAddress, msg.sender)\n            .wTokensIssuedAmount.add(amountForSale);\n\n        token.mint(crowdsale, amountForSale, 0);\n    }\n\n    function getTokenCrowdsale(address tokenAddress, address ownerAddress) view external returns (address) {\n        require(getApprovedToken(tokenAddress, ownerAddress).crowdsaleAddress != address(0));\n\n        return getApprovedToken(tokenAddress, ownerAddress).crowdsaleAddress;\n    }\n\n    function getSwap() view external returns (address) {\n        return swap;\n    }\n\n    function getApprovedToken(address tokenAddress, address ownerAddress) internal view returns (ListedToken storage result) {\n        return approvedTokens[approvedTokensIndex[tokenAddress][ownerAddress]];\n    }\n}\n",
  "sourcePath": "/c/Users/Mr.Hokid/projects/work/w12-product-contracts/contracts/W12Lister.sol",
  "compiler": {
    "name": "solc",
    "version": "0.4.24+commit.e67f0147.Emscripten.clang"
  },
  "schemaVersion": "2.0.1",
  "updatedAt": "2018-08-23T14:09:08.142Z"
}