{
  "contractName": "W12Lister__W12CrowdsaleFactoryMock",
  "abi": [
    {
      "constant": true,
      "inputs": [],
      "name": "_createCrowdsaleCall",
      "outputs": [
        {
          "name": "",
          "type": "address"
        },
        {
          "name": "",
          "type": "address"
        },
        {
          "name": "",
          "type": "uint256"
        },
        {
          "name": "",
          "type": "address"
        },
        {
          "name": "",
          "type": "uint256"
        },
        {
          "name": "",
          "type": "uint256"
        },
        {
          "name": "",
          "type": "uint256"
        },
        {
          "name": "",
          "type": "address"
        },
        {
          "name": "",
          "type": "address[]"
        }
      ],
      "payable": false,
      "stateMutability": "view",
      "type": "function"
    },
    {
      "constant": false,
      "inputs": [
        {
          "name": "tokenAddress",
          "type": "address"
        },
        {
          "name": "_wTokenAddress",
          "type": "address"
        },
        {
          "name": "price",
          "type": "uint256"
        },
        {
          "name": "serviceWallet",
          "type": "address"
        },
        {
          "name": "serviceFee",
          "type": "uint256"
        },
        {
          "name": "WTokenSaleFeePercent",
          "type": "uint256"
        },
        {
          "name": "trancheFeePercent",
          "type": "uint256"
        },
        {
          "name": "swap",
          "type": "address"
        },
        {
          "name": "owners",
          "type": "address[]"
        }
      ],
      "name": "createCrowdsale",
      "outputs": [
        {
          "name": "",
          "type": "address"
        }
      ],
      "payable": false,
      "stateMutability": "nonpayable",
      "type": "function"
    }
  ],
  "bytecode": "0x608060405234801561001057600080fd5b50610f2d806100206000396000f30060806040526004361061004b5763ffffffff7c0100000000000000000000000000000000000000000000000000000000600035041663868b16d98114610050578063abca504f146100be575b600080fd5b34801561005c57600080fd5b506100a2600160a060020a036004803582169160248035821692604435926064358116926084359260a4359260c4359260e43590911691610104359182019101356101a7565b60408051600160a060020a039092168252519081900360200190f35b3480156100ca57600080fd5b506100d361024f565b604051808a600160a060020a0316600160a060020a0316815260200189600160a060020a0316600160a060020a0316815260200188815260200187600160a060020a0316600160a060020a0316815260200186815260200185815260200184815260200183600160a060020a0316600160a060020a0316815260200180602001828103825283818151815260200191508051906020019060200280838360005b8381101561018b578181015183820152602001610173565b505050509050019a505050505050505050505060405180910390f35b60008054600160a060020a03808d1673ffffffffffffffffffffffffffffffffffffffff19928316178355600180548d831690841617905560028b9055600380548b8316908416179055600489905560058890556006879055600780549187169190921617905561021a60088484610311565b50610223610381565b604051809103906000f08015801561023f573d6000803e3d6000fd5b509b9a5050505050505050505050565b6000805460015460025460035460045460055460065460075460088054604080516020808402820181019092528281528c9b8c9b8c9b8c9b8c9b8c9b8c9b60609b600160a060020a039788169b9688169a95999488169893979296919592169390929183918301828280156102ed57602002820191906000526020600020905b8154600160a060020a031681526001909101906020018083116102cf575b50505050509050985098509850985098509850985098509850909192939495969798565b828054828255906000526020600020908101928215610371579160200282015b8281111561037157815473ffffffffffffffffffffffffffffffffffffffff1916600160a060020a03843516178255602090920191600190910190610331565b5061037d929150610391565b5090565b604051610b3c806103c683390190565b6103c291905b8082111561037d57805473ffffffffffffffffffffffffffffffffffffffff19168155600101610397565b905600608060405234801561001057600080fd5b5061001961005b565b604051809103906000f080158015610035573d6000803e3d6000fd5b5060008054600160a060020a031916600160a060020a039290921691909117905561006b565b60405161024f806108ed83390190565b6108738061007a6000396000f30060806040526004361061017f5763ffffffff7c010000000000000000000000000000000000000000000000000000000060003504166307f5d6338114610181578063100bcb931461018f57806314f66d34146101b65780631785f53c146101e4578063208853c9146102055780632348238c146101e45780632442e1cb1461021d57806324d7806c146103535780632784bb7b146103885780632e325020146103bb57806339e69a6c146104ac5780633baba4d7146104dd5780633bcdb164146101e45780633dbd6721146102055780634090cb64146104f2578063564566a81461050757806359e377491461051c578063704802751461053c5780638bad0c0a1461055d5780638edd6eb614610572578063a4fd6f5614610507578063a7de99ee14610587578063d0934d611461055d578063d155790b146101e4578063d26aeff0146105bd578063d5b22623146105d5578063d6d65f3d146101b6578063d8e9ce6414610353578063daa4cf88146101b6578063e93b054014610631575b005b61017f600435602435610649565b34801561019b57600080fd5b506101a461064d565b60408051918252519081900360200190f35b3480156101c257600080fd5b506101cb610653565b6040805192835290151560208301528051918290030190f35b3480156101f057600080fd5b5061017f600160a060020a036004351661065a565b34801561021157600080fd5b506101a460043561065d565b34801561022957600080fd5b50610235600435610663565b604051808763ffffffff1663ffffffff1681526020018681526020018563ffffffff1663ffffffff1681526020018463ffffffff1663ffffffff1681526020018060200180602001838103835285818151815260200191508051906020019080838360005b838110156102b257818101518382015260200161029a565b50505050905090810190601f1680156102df5780820380516001836020036101000a031916815260200191505b50838103825284518152845160209182019186019080838360005b838110156103125781810151838201526020016102fa565b50505050905090810190601f16801561033f5780820380516001836020036101000a031916815260200191505b509850505050505050505060405180910390f35b34801561035f57600080fd5b50610374600160a060020a036004351661065d565b604080519115158252519081900360200190f35b34801561039457600080fd5b506103a0600435610675565b60408051921515835260208301919091528051918290030190f35b3480156103c757600080fd5b506103d3600435610663565b604051808763ffffffff1663ffffffff1681526020018663ffffffff1663ffffffff1681526020018581526020018463ffffffff1663ffffffff1681526020018060200180602001838103835285818151815260200191508051906020019060200280838360005b8381101561045357818101518382015260200161043b565b50505050905001838103825284818151815260200191508051906020019060200280838360005b8381101561049257818101518382015260200161047a565b505050509050019850505050505050505060405180910390f35b3480156104b857600080fd5b506104c161067d565b60408051600160a060020a039092168252519081900360200190f35b3480156104e957600080fd5b506101a461068c565b3480156104fe57600080fd5b506104c161068c565b34801561051357600080fd5b5061037461068c565b34801561052857600080fd5b5061017f6004356024351515604435610691565b34801561054857600080fd5b5061017f600160a060020a0360043516610746565b34801561056957600080fd5b5061017f610775565b34801561057e57600080fd5b506104c1610777565b34801561059357600080fd5b5061059f600435610786565b60408051938452911515602084015282820152519081900360600190f35b3480156105c957600080fd5b5061059f6004356107bd565b3480156105e157600080fd5b5061017f602460048035828101929082013591813580830192908201359160443580830192908201359160643580830192908201359160843580830192908201359160a435918201910135610839565b34801561063d57600080fd5b5061017f60043561065a565b5050565b60025490565b6000809091565b50565b50600090565b60008060008060608091939550919395565b600080915091565b600154600160a060020a031681565b600090565b60408051606081018252938452911515602084019081529183019081526002805460018101825560009190915292517f405787fa12a823e0f2b7631cc41b3ba8828b3321ca811111fa75cd3aa3bb5ace60039094029384015590517f405787fa12a823e0f2b7631cc41b3ba8828b3321ca811111fa75cd3aa3bb5acf8301805460ff1916911515919091179055517f405787fa12a823e0f2b7631cc41b3ba8828b3321ca811111fa75cd3aa3bb5ad090910155565b6001805473ffffffffffffffffffffffffffffffffffffffff1916600160a060020a0392909216919091179055565b565b600054600160a060020a031690565b600280548290811061079457fe5b600091825260209091206003909102018054600182015460029092015490925060ff9091169083565b60008060006002848154811015156107d157fe5b9060005260206000209060030201600001546002858154811015156107f257fe5b60009182526020909120600160039092020101546002805460ff909216918790811061081a57fe5b9060005260206000209060030201600201549250925092509193909250565b5050505050505050505050505600a165627a7a723058205218448b228ea4fe1279ea5e1dfb4ef4197de3edd5df6d49125dd5ac6902844a0029608060405234801561001057600080fd5b5061022f806100206000396000f3006080604052600436106100cf5763ffffffff7c01000000000000000000000000000000000000000000000000000000006000350416631785f53c81146100d45780632348238c146100d457806323bffccc146100d457806324d7806c146100f757806339e69a6c1461012c5780633bcdb164146100d4578063483a20b2146100d4578063704802751461015d5780638bad0c0a1461017e578063acb3c073146100d4578063d0934d611461017e578063d0baf2f514610193578063d155790b146100d4578063d8e9ce64146100f7575b600080fd5b3480156100e057600080fd5b506100f5600160a060020a03600435166101b3565b005b34801561010357600080fd5b50610118600160a060020a03600435166101b6565b604080519115158252519081900360200190f35b34801561013857600080fd5b506101416101bc565b60408051600160a060020a039092168252519081900360200190f35b34801561016957600080fd5b506100f5600160a060020a03600435166101cb565b34801561018a57600080fd5b506100f56101fa565b6100f5600160a060020a03600435166024356044356064356084356101fc565b50565b50600090565b600054600160a060020a031681565b6000805473ffffffffffffffffffffffffffffffffffffffff1916600160a060020a0392909216919091179055565b565b50505050505600a165627a7a723058208ffc0f2bc9cf8390b51fcbab239a779b6f38d455d80b8afe1b2174193998e8e90029a165627a7a723058205c6c44738a5e90514d1c364e361a6fc5a685f916a620452104de2d71d71456fe0029",
  "source": "pragma solidity ^0.4.24;\n\nimport \"../../crowdsale/IW12Crowdsale.sol\";\nimport \"../../crowdsale/factories/IW12CrowdsaleFactory.sol\";\nimport \"./W12Lister__W12CrowdsaleMock.sol\";\n\ncontract W12Lister__W12CrowdsaleFactoryMock is IW12CrowdsaleFactory {\n    struct CreateCrowdsaleCall {\n        address tokenAddress;\n        address _wTokenAddress;\n        uint price;\n        address serviceWallet;\n        uint serviceFee;\n        uint WTokenSaleFeePercent;\n        uint trancheFeePercent;\n        address swap;\n        address[] owners;\n    }\n\n    CreateCrowdsaleCall __createCrowdsaleCall;\n    function _createCrowdsaleCall() public view returns(address, address, uint, address, uint, uint, uint, address, address[]) {\n        return (\n            __createCrowdsaleCall.tokenAddress,\n            __createCrowdsaleCall._wTokenAddress,\n            __createCrowdsaleCall.price,\n            __createCrowdsaleCall.serviceWallet,\n            __createCrowdsaleCall.serviceFee,\n            __createCrowdsaleCall.WTokenSaleFeePercent,\n            __createCrowdsaleCall.trancheFeePercent,\n            __createCrowdsaleCall.swap,\n            __createCrowdsaleCall.owners\n        );\n    }\n\n    function createCrowdsale(\n        address tokenAddress,\n        address _wTokenAddress,\n        uint price,\n        address serviceWallet,\n        uint serviceFee,\n        uint WTokenSaleFeePercent,\n        uint trancheFeePercent,\n        address swap,\n        address[] owners\n    )\n     external returns (IW12Crowdsale) {\n        __createCrowdsaleCall.tokenAddress = tokenAddress;\n        __createCrowdsaleCall._wTokenAddress = _wTokenAddress;\n        __createCrowdsaleCall.price = price;\n        __createCrowdsaleCall.serviceWallet = serviceWallet;\n        __createCrowdsaleCall.serviceFee = serviceFee;\n        __createCrowdsaleCall.WTokenSaleFeePercent = WTokenSaleFeePercent;\n        __createCrowdsaleCall.trancheFeePercent = trancheFeePercent;\n        __createCrowdsaleCall.swap = swap;\n        __createCrowdsaleCall.owners = owners;\n\n        return new W12Lister__W12CrowdsaleMock();\n    }\n}\n",
  "sourcePath": "/home/circleci/code/contracts/mocks/lister/W12Lister__W12CrowdsaleFactoryMock.sol",
  "compiler": {
    "name": "solc",
    "version": "0.4.24+commit.e67f0147.Emscripten.clang"
  },
  "schemaVersion": "2.0.1",
  "updatedAt": "2018-12-12T11:12:42.976Z"
}