{
  "contractName": "W12Lister",
  "abi": [
    {
      "constant": false,
      "inputs": [
        {
          "name": "recipient",
          "type": "address"
        }
      ],
      "name": "transferPrimary",
      "outputs": [],
      "payable": false,
      "stateMutability": "nonpayable",
      "type": "function"
    },
    {
      "constant": true,
      "inputs": [
        {
          "name": "account",
          "type": "address"
        }
      ],
      "name": "isAdmin",
      "outputs": [
        {
          "name": "",
          "type": "bool"
        }
      ],
      "payable": false,
      "stateMutability": "view",
      "type": "function"
    },
    {
      "constant": true,
      "inputs": [],
      "name": "exchanger",
      "outputs": [
        {
          "name": "",
          "type": "address"
        }
      ],
      "payable": false,
      "stateMutability": "view",
      "type": "function"
    },
    {
      "constant": true,
      "inputs": [],
      "name": "version",
      "outputs": [
        {
          "name": "",
          "type": "uint256"
        }
      ],
      "payable": false,
      "stateMutability": "view",
      "type": "function"
    },
    {
      "constant": false,
      "inputs": [],
      "name": "renounceAdmin",
      "outputs": [],
      "payable": false,
      "stateMutability": "nonpayable",
      "type": "function"
    },
    {
      "constant": true,
      "inputs": [],
      "name": "factory",
      "outputs": [
        {
          "name": "",
          "type": "address"
        }
      ],
      "payable": false,
      "stateMutability": "view",
      "type": "function"
    },
    {
      "constant": true,
      "inputs": [],
      "name": "primary",
      "outputs": [
        {
          "name": "",
          "type": "address"
        }
      ],
      "payable": false,
      "stateMutability": "view",
      "type": "function"
    },
    {
      "constant": true,
      "inputs": [],
      "name": "wallets",
      "outputs": [
        {
          "name": "",
          "type": "address"
        }
      ],
      "payable": false,
      "stateMutability": "view",
      "type": "function"
    },
    {
      "inputs": [
        {
          "name": "version",
          "type": "uint256"
        },
        {
          "name": "_wallets",
          "type": "address"
        },
        {
          "name": "_factory",
          "type": "address"
        },
        {
          "name": "_exchanger",
          "type": "address"
        }
      ],
      "payable": false,
      "stateMutability": "nonpayable",
      "type": "constructor"
    },
    {
      "anonymous": false,
      "inputs": [
        {
          "indexed": true,
          "name": "tokenAddress",
          "type": "address"
        },
        {
          "indexed": true,
          "name": "tokenOwner",
          "type": "address"
        }
      ],
      "name": "OwnerWhitelisted",
      "type": "event"
    },
    {
      "anonymous": false,
      "inputs": [
        {
          "indexed": true,
          "name": "token",
          "type": "address"
        },
        {
          "indexed": true,
          "name": "sender",
          "type": "address"
        },
        {
          "indexed": false,
          "name": "owners",
          "type": "address[]"
        }
      ],
      "name": "TokenWhitelisted",
      "type": "event"
    },
    {
      "anonymous": false,
      "inputs": [
        {
          "indexed": true,
          "name": "originalToken",
          "type": "address"
        },
        {
          "indexed": true,
          "name": "sender",
          "type": "address"
        },
        {
          "indexed": false,
          "name": "crowdsale",
          "type": "address"
        },
        {
          "indexed": false,
          "name": "tokenAmount",
          "type": "uint256"
        },
        {
          "indexed": false,
          "name": "placedToken",
          "type": "address"
        }
      ],
      "name": "TokenPlaced",
      "type": "event"
    },
    {
      "anonymous": false,
      "inputs": [
        {
          "indexed": true,
          "name": "token",
          "type": "address"
        },
        {
          "indexed": true,
          "name": "sender",
          "type": "address"
        },
        {
          "indexed": false,
          "name": "crowdsale",
          "type": "address"
        },
        {
          "indexed": false,
          "name": "amountForSale",
          "type": "uint256"
        }
      ],
      "name": "CrowdsaleInitialized",
      "type": "event"
    },
    {
      "anonymous": false,
      "inputs": [
        {
          "indexed": true,
          "name": "token",
          "type": "address"
        },
        {
          "indexed": true,
          "name": "sender",
          "type": "address"
        },
        {
          "indexed": false,
          "name": "crowdsale",
          "type": "address"
        },
        {
          "indexed": false,
          "name": "amount",
          "type": "uint256"
        }
      ],
      "name": "CrowdsaleTokenMinted",
      "type": "event"
    },
    {
      "anonymous": false,
      "inputs": [
        {
          "indexed": false,
          "name": "recipient",
          "type": "address"
        }
      ],
      "name": "PrimaryTransferred",
      "type": "event"
    },
    {
      "anonymous": false,
      "inputs": [
        {
          "indexed": true,
          "name": "account",
          "type": "address"
        }
      ],
      "name": "AdminAdded",
      "type": "event"
    },
    {
      "anonymous": false,
      "inputs": [
        {
          "indexed": true,
          "name": "account",
          "type": "address"
        }
      ],
      "name": "AdminRemoved",
      "type": "event"
    },
    {
      "constant": false,
      "inputs": [
        {
          "name": "_account",
          "type": "address"
        }
      ],
      "name": "addAdmin",
      "outputs": [],
      "payable": false,
      "stateMutability": "nonpayable",
      "type": "function"
    },
    {
      "constant": false,
      "inputs": [
        {
          "name": "_account",
          "type": "address"
        }
      ],
      "name": "removeAdmin",
      "outputs": [],
      "payable": false,
      "stateMutability": "nonpayable",
      "type": "function"
    },
    {
      "constant": false,
      "inputs": [
        {
          "name": "token",
          "type": "address"
        },
        {
          "name": "name",
          "type": "string"
        },
        {
          "name": "symbol",
          "type": "string"
        },
        {
          "name": "decimals",
          "type": "uint8"
        },
        {
          "name": "owners",
          "type": "address[]"
        },
        {
          "name": "commissions",
          "type": "uint256[4]"
        },
        {
          "name": "paymentMethods",
          "type": "bytes32[]"
        },
        {
          "name": "paymentMethodsPurchaseFee",
          "type": "uint256[]"
        }
      ],
      "name": "whitelistToken",
      "outputs": [],
      "payable": false,
      "stateMutability": "nonpayable",
      "type": "function"
    },
    {
      "constant": false,
      "inputs": [
        {
          "name": "token",
          "type": "address"
        },
        {
          "name": "crowdsale",
          "type": "address"
        },
        {
          "name": "amount",
          "type": "uint256"
        }
      ],
      "name": "placeToken",
      "outputs": [],
      "payable": false,
      "stateMutability": "nonpayable",
      "type": "function"
    },
    {
      "constant": false,
      "inputs": [
        {
          "name": "token",
          "type": "address"
        },
        {
          "name": "amountForSale",
          "type": "uint256"
        },
        {
          "name": "price",
          "type": "uint256"
        }
      ],
      "name": "initCrowdsale",
      "outputs": [],
      "payable": false,
      "stateMutability": "nonpayable",
      "type": "function"
    },
    {
      "constant": false,
      "inputs": [
        {
          "name": "token",
          "type": "address"
        },
        {
          "name": "crowdsale",
          "type": "address"
        },
        {
          "name": "amountForSale",
          "type": "uint256"
        }
      ],
      "name": "addTokensToCrowdsale",
      "outputs": [],
      "payable": false,
      "stateMutability": "nonpayable",
      "type": "function"
    },
    {
      "constant": true,
      "inputs": [
        {
          "name": "token",
          "type": "address"
        }
      ],
      "name": "getTokenOwners",
      "outputs": [
        {
          "name": "",
          "type": "address[]"
        }
      ],
      "payable": false,
      "stateMutability": "view",
      "type": "function"
    },
    {
      "constant": true,
      "inputs": [
        {
          "name": "token",
          "type": "address"
        },
        {
          "name": "crowdsale",
          "type": "address"
        }
      ],
      "name": "getCrowdsaleOwners",
      "outputs": [
        {
          "name": "",
          "type": "address[]"
        }
      ],
      "payable": false,
      "stateMutability": "view",
      "type": "function"
    },
    {
      "constant": true,
      "inputs": [],
      "name": "getExchanger",
      "outputs": [
        {
          "name": "",
          "type": "address"
        }
      ],
      "payable": false,
      "stateMutability": "view",
      "type": "function"
    },
    {
      "constant": true,
      "inputs": [
        {
          "name": "token",
          "type": "address"
        }
      ],
      "name": "getToken",
      "outputs": [
        {
          "name": "name",
          "type": "string"
        },
        {
          "name": "symbol",
          "type": "string"
        },
        {
          "name": "decimals",
          "type": "uint8"
        },
        {
          "name": "owners",
          "type": "address[]"
        },
        {
          "name": "commissions",
          "type": "uint256[4]"
        },
        {
          "name": "paymentMethods",
          "type": "bytes32[]"
        },
        {
          "name": "paymentMethodsPurchaseFee",
          "type": "uint256[]"
        }
      ],
      "payable": false,
      "stateMutability": "view",
      "type": "function"
    },
    {
      "constant": true,
      "inputs": [],
      "name": "getTokens",
      "outputs": [
        {
          "name": "",
          "type": "address[]"
        }
      ],
      "payable": false,
      "stateMutability": "view",
      "type": "function"
    },
    {
      "constant": true,
      "inputs": [
        {
          "name": "token",
          "type": "address"
        }
      ],
      "name": "isTokenWhitelisted",
      "outputs": [
        {
          "name": "",
          "type": "bool"
        }
      ],
      "payable": false,
      "stateMutability": "view",
      "type": "function"
    },
    {
      "constant": true,
      "inputs": [
        {
          "name": "token",
          "type": "address"
        },
        {
          "name": "owner",
          "type": "address"
        }
      ],
      "name": "hasTokenOwner",
      "outputs": [
        {
          "name": "",
          "type": "bool"
        }
      ],
      "payable": false,
      "stateMutability": "view",
      "type": "function"
    },
    {
      "constant": true,
      "inputs": [
        {
          "name": "token",
          "type": "address"
        }
      ],
      "name": "getCrowdsales",
      "outputs": [
        {
          "name": "",
          "type": "address[]"
        }
      ],
      "payable": false,
      "stateMutability": "view",
      "type": "function"
    },
    {
      "constant": true,
      "inputs": [
        {
          "name": "token",
          "type": "address"
        },
        {
          "name": "crowdsale",
          "type": "address"
        }
      ],
      "name": "hasCrowdsaleWithAddress",
      "outputs": [
        {
          "name": "",
          "type": "bool"
        }
      ],
      "payable": false,
      "stateMutability": "view",
      "type": "function"
    },
    {
      "constant": true,
      "inputs": [
        {
          "name": "token",
          "type": "address"
        }
      ],
      "name": "hasNotInitialisedCrowdsale",
      "outputs": [
        {
          "name": "",
          "type": "bool"
        }
      ],
      "payable": false,
      "stateMutability": "view",
      "type": "function"
    },
    {
      "constant": true,
      "inputs": [
        {
          "name": "token",
          "type": "address"
        },
        {
          "name": "crowdsale",
          "type": "address"
        }
      ],
      "name": "getCrowdsale",
      "outputs": [
        {
          "name": "commissions",
          "type": "uint256[4]"
        },
        {
          "name": "amounts",
          "type": "uint256[2]"
        },
        {
          "name": "owners",
          "type": "address[]"
        },
        {
          "name": "paymentMethods",
          "type": "bytes32[]"
        },
        {
          "name": "paymentMethodsPurchaseFee",
          "type": "uint256[]"
        }
      ],
      "payable": false,
      "stateMutability": "view",
      "type": "function"
    },
    {
      "constant": true,
      "inputs": [],
      "name": "serviceWallet",
      "outputs": [
        {
          "name": "",
          "type": "address"
        }
      ],
      "payable": false,
      "stateMutability": "view",
      "type": "function"
    }
  ],
  "bytecode": "0x60806040523480156200001157600080fd5b5060405160808062005ac08339810160409081528151602083015191830151606090930151909290836200004e336401000000006200012b810204565b60015560028054600160a060020a03191633179081905560408051600160a060020a03929092168252517f4101e71e974f68df5e9730cc223280b41654676bbb052cdcc735c3337e64d2d99181900360200190a16001600355600160a060020a0383161515620000bd57600080fd5b600160a060020a0382161515620000d357600080fd5b600160a060020a0381161515620000e957600080fd5b60048054600160a060020a0319908116600160a060020a0393841617909155600680548216948316949094179093556005805490931691161790555062000210565b6200014660008264010000000062003a0c6200017d82021704565b604051600160a060020a038216907f44d6d25963f097ad14f29f06854a01f575648a1ef82f30e562ccd3889717e33990600090a250565b600160a060020a03811615156200019357600080fd5b620001a88282640100000000620001d8810204565b15620001b357600080fd5b600160a060020a0316600090815260209190915260409020805460ff19166001179055565b6000600160a060020a0382161515620001f057600080fd5b50600160a060020a03166000908152602091909152604090205460ff1690565b6158a080620002206000396000f300608060405260043610620001555763ffffffff60e060020a60003504166309363c9981146200015a5780631785f53c14620001865780631cd82e6014620001aa57806320f59dc7146200022057806321689c1a14620002585780632348238c146200028557806324d7806c14620002a9578063460f0b6b14620002cd5780634b1acf3914620002f75780634d12fca4146200032b57806354fd4d5014620003435780635641f3c3146200036d57806359770438146200038557806370480275146200059957806375dd8cfc14620005bd5780637bcb149914620005ea578063849072b9146200065657806386ad6398146200067a5780638bad0c0a14620007e1578063aa6ca80814620007f9578063b5af090f1462000811578063c45a01551462000835578063c6dbdf61146200084d578063c96a68c11462000865578063d2f4a50a146200088f578063e45725d814620008a7575b600080fd5b3480156200016757600080fd5b5062000184600160a060020a0360043516602435604435620008d1565b005b3480156200019357600080fd5b5062000184600160a060020a036004351662000ef7565b348015620001b757600080fd5b50620001ce600160a060020a036004351662000f1d565b60408051602080825283518183015283519192839290830191858101910280838360005b838110156200020c578181015183820152602001620001f2565b505050509050019250505060405180910390f35b3480156200022d57600080fd5b5062000244600160a060020a036004351662000fe5565b604080519115158252519081900360200190f35b3480156200026557600080fd5b5062000184600160a060020a036004358116906024351660443562001000565b3480156200029257600080fd5b5062000184600160a060020a0360043516620012f2565b348015620002b657600080fd5b5062000244600160a060020a03600435166200137a565b348015620002da57600080fd5b50620001ce600160a060020a03600435811690602435166200138e565b3480156200030457600080fd5b506200030f6200140a565b60408051600160a060020a039092168252519081900360200190f35b3480156200033857600080fd5b506200030f6200141a565b3480156200035057600080fd5b506200035b62001429565b60408051918252519081900360200190f35b3480156200037a57600080fd5b506200030f6200142f565b3480156200039257600080fd5b50620003a9600160a060020a0360043516620014c9565b6040518080602001806020018860ff1660ff1681526020018060200187600460200280838360005b83811015620003eb578181015183820152602001620003d1565b50505050905001806020018060200186810386528d818151815260200191508051906020019080838360005b838110156200043157818101518382015260200162000417565b50505050905090810190601f1680156200045f5780820380516001836020036101000a031916815260200191505b5086810385528c5181528c516020918201918e019080838360005b83811015620004945781810151838201526020016200047a565b50505050905090810190601f168015620004c25780820380516001836020036101000a031916815260200191505b5086810384528a5181528a51602091820191808d01910280838360005b83811015620004f9578181015183820152602001620004df565b50505050905001868103835288818151815260200191508051906020019060200280838360005b838110156200053a57818101518382015260200162000520565b50505050905001868103825287818151815260200191508051906020019060200280838360005b838110156200057b57818101518382015260200162000561565b505050509050019c5050505050505050505050505060405180910390f35b348015620005a657600080fd5b5062000184600160a060020a03600435166200181a565b348015620005ca57600080fd5b5062000184600160a060020a03600435811690602435166044356200183d565b348015620005f757600080fd5b506200018460048035600160a060020a0316906024803580820192908101359160443580820192908101359160643560ff169160843580830192908201359160a491610124358082019290810135916101443590810191013562001eb0565b3480156200066357600080fd5b50620001ce600160a060020a03600435166200206e565b3480156200068757600080fd5b50620006a4600160a060020a0360043581169060243516620020e8565b6040518086608080838360005b83811015620006cb578181015183820152602001620006b1565b5050505090500185600260200280838360005b83811015620006f8578181015183820152602001620006de565b50505050905001806020018060200180602001848103845287818151815260200191508051906020019060200280838360005b83811015620007455781810151838201526020016200072b565b50505050905001848103835286818151815260200191508051906020019060200280838360005b83811015620007865781810151838201526020016200076c565b50505050905001848103825285818151815260200191508051906020019060200280838360005b83811015620007c7578181015183820152602001620007ad565b505050509050019850505050505050505060405180910390f35b348015620007ee57600080fd5b5062000184620022ff565b3480156200080657600080fd5b50620001ce6200230c565b3480156200081e57600080fd5b5062000244600160a060020a0360043516620023c2565b3480156200084257600080fd5b506200030f620023d7565b3480156200085a57600080fd5b506200030f620023e6565b3480156200087257600080fd5b5062000244600160a060020a0360043581169060243516620023f5565b3480156200089c57600080fd5b506200030f62002412565b348015620008b457600080fd5b5062000244600160a060020a036004358116906024351662002421565b60038054600101908190556000908190819081620008ee6200142f565b600160a060020a031614156200090357600080fd5b6200091660078863ffffffff6200243716565b15156200092257600080fd5b620009366007883363ffffffff6200246716565b15156200094257600080fd5b6200095560078863ffffffff6200249e16565b15156200096157600080fd5b6200098a866200097960078a63ffffffff620024e616565b600601549063ffffffff620024f616565b6200099d60078963ffffffff620024e616565b600501541015620009ad57600080fd5b620009c060078863ffffffff6200250916565b6004805460088301546040805160e260020a630547cdcd028152600160a060020a039283169481019490945251939750169163151f3734916024808201926020929091908290030181600087803b15801562000a1b57600080fd5b505af115801562000a30573d6000803e3d6000fd5b505050506040513d602081101562000a4757600080fd5b50516005546008860154919450600160a060020a039081169163868b16d99116858862000a736200142f565b89600501548a600601548b60070154600460009054906101000a9004600160a060020a03168d6003016040518a63ffffffff1660e060020a028152600401808a600160a060020a0316600160a060020a0316815260200189600160a060020a0316600160a060020a0316815260200188815260200187600160a060020a0316600160a060020a0316815260200186815260200185815260200184815260200183600160a060020a0316600160a060020a0316815260200180602001828103825283818154815260200191508054801562000b7757602002820191906000526020600020905b8154600160a060020a0316815260019091019060200180831162000b58575b50509a5050505050505050505050602060405180830381600087803b15801562000ba057600080fd5b505af115801562000bb5573d6000803e3d6000fd5b505050506040513d602081101562000bcc57600080fd5b5051604080517f704802750000000000000000000000000000000000000000000000000000000081523360048201529051919350600160a060020a0384169163704802759160248082019260009290919082900301818387803b15801562000c3357600080fd5b505af115801562000c48573d6000803e3d6000fd5b5050505081600160a060020a0316638edd6eb66040518163ffffffff1660e060020a028152600401602060405180830381600087803b15801562000c8b57600080fd5b505af115801562000ca0573d6000803e3d6000fd5b505050506040513d602081101562000cb757600080fd5b5051604080517f704802750000000000000000000000000000000000000000000000000000000081523360048201529051600160a060020a039092169163704802759160248082019260009290919082900301818387803b15801562000d1c57600080fd5b505af115801562000d31573d6000803e3d6000fd5b5050505082600160a060020a03166370480275836040518263ffffffff1660e060020a0281526004018082600160a060020a0316600160a060020a03168152602001915050600060405180830381600087803b15801562000d9157600080fd5b505af115801562000da6573d6000803e3d6000fd5b5062000dc19250600791508990508463ffffffff6200253c16565b62000dcd8285620026fd565b6004546008850154600160a060020a039182169163e1f21c6791168462000dfd60078c8363ffffffff620027c916565b600501546040805160e060020a63ffffffff8716028152600160a060020a0394851660048201529290931660248301526044820152905160648083019260209291908290030181600087803b15801562000e5657600080fd5b505af115801562000e6b573d6000803e3d6000fd5b505050506040513d602081101562000e8257600080fd5b5062000e92905087838862001000565b600884015460408051600160a060020a038581168252602082018a905282513394909116927fc9cecf9fabde631d7582b55fdaf2a8800e68f0063771104348deff501b7c2827928290030190a3600354811462000eee57600080fd5b50505050505050565b600254600160a060020a0316331462000f0f57600080fd5b62000f1a8162002839565b50565b606080600062000f3560078563ffffffff6200288316565b5160405190808252806020026020018201604052801562000f60578160200160208202803883390190505b509150600090505b62000f7b60078563ffffffff6200288316565b5181101562000fde5762000f9760078563ffffffff6200288316565b80518290811062000fa457fe5b6020908102909101015151825183908390811062000fbe57fe5b600160a060020a0390921660209283029091019091015260010162000f68565b5092915050565b600062000ffa60078363ffffffff6200249e16565b92915050565b60008082116200100f57600080fd5b6200102260078563ffffffff6200243716565b15156200102e57600080fd5b620010426007853363ffffffff6200246716565b15156200104e57600080fd5b620010626007858563ffffffff62002a7316565b15156200106e57600080fd5b600480546040805160e260020a630547cdcd028152600160a060020a038881169482019490945290516000939092169163151f37349160248082019260209290919082900301818787803b158015620010c657600080fd5b505af1158015620010db573d6000803e3d6000fd5b505050506040513d6020811015620010f257600080fd5b5051600160a060020a031614156200110957600080fd5b6200112282620009796007878763ffffffff620027c916565b620011366007868663ffffffff620027c916565b6005015410156200114657600080fd5b600480546040805160e260020a630547cdcd028152600160a060020a03888116948201949094529051929091169163151f3734916024808201926020929091908290030181600087803b1580156200119d57600080fd5b505af1158015620011b2573d6000803e3d6000fd5b505050506040513d6020811015620011c957600080fd5b50519050620011e682620009796007878763ffffffff620027c916565b620011fa6007868663ffffffff620027c916565b60060155604080517fd0047acf000000000000000000000000000000000000000000000000000000008152600160a060020a0385811660048301526024820185905260006044830181905292519084169263d0047acf92606480820193602093909283900390910190829087803b1580156200127557600080fd5b505af11580156200128a573d6000803e3d6000fd5b505050506040513d6020811015620012a157600080fd5b505060408051600160a060020a0385811682526020820185905282513393918816927fd663b1d1c366a683f19929e0e0f10df9ee4ba14bb42fb2f37e63605b0828da2a92908290030190a350505050565b600254600160a060020a031633146200130a57600080fd5b600160a060020a03811615156200132057600080fd5b60028054600160a060020a031916600160a060020a03838116919091179182905560408051929091168252517f4101e71e974f68df5e9730cc223280b41654676bbb052cdcc735c3337e64d2d9916020908290030190a150565b600062000ffa818363ffffffff62002abe16565b6060620013a46007848463ffffffff620027c916565b600701805480602002602001604051908101604052809291908181526020018280548015620013fd57602002820191906000526020600020905b8154600160a060020a03168152600190910190602001808311620013de575b5050505050905092915050565b600454600160a060020a03165b90565b600454600160a060020a031681565b60015481565b600654604080517fe3ff76e4000000000000000000000000000000000000000000000000000000008152600160048201529051600092600160a060020a03169163e3ff76e491602480830192602092919082900301818787803b1580156200149657600080fd5b505af1158015620014ab573d6000803e3d6000fd5b505050506040513d6020811015620014c257600080fd5b5051905090565b60608060006060620014da62003f4d565b606080620014f060078963ffffffff6200243716565b1515620014fc57600080fd5b6200150f60078963ffffffff6200250916565b805460408051602060026001851615610100026000190190941693909304601f81018490048402820184019092528181529291830182828015620015975780601f106200156b5761010080835404028352916020019162001597565b820191906000526020600020905b8154815290600101906020018083116200157957829003601f168201915b50505050509650620015b48860076200250990919063ffffffff16565b60019081018054604080516020600295841615610100026000190190931694909404601f8101839004830285018301909152808452908301828280156200163f5780601f1062001613576101008083540402835291602001916200163f565b820191906000526020600020905b8154815290600101906020018083116200162157829003601f168201915b505050505095506200165c8860076200250990919063ffffffff16565b6002015460ff1694506200167860078963ffffffff6200250916565b600301805480602002602001604051908101604052809291908181526020018280548015620016d157602002820191906000526020600020905b8154600160a060020a03168152600190910190602001808311620016b2575b50505050509350620016ee8860076200250990919063ffffffff16565b6004015483526200170160078962002509565b6005015460208401526200171760078962002509565b6006015460408401526200172d60078962002509565b6007015483600360200201526200174c60078963ffffffff6200250916565b6009018054806020026020016040519081016040528092919081815260200182805480156200179c57602002820191906000526020600020905b8154815260019091019060200180831162001786575b50505050509150620017b98860076200250990919063ffffffff16565b600a018054806020026020016040519081016040528092919081815260200182805480156200180857602002820191906000526020600020905b815481526020019060010190808311620017f3575b50505050509050919395979092949650565b600254600160a060020a031633146200183257600080fd5b62000f1a8162002af6565b60038054600101908190556000908190819081908190816200185e6200142f565b600160a060020a031614156200187357600080fd5b600087116200188157600080fd5b6200189460078a63ffffffff6200243716565b1515620018a057600080fd5b620018b460078a3363ffffffff6200246716565b1515620018c057600080fd5b620018d460078a8a63ffffffff62002a7316565b1515620018e057600080fd5b620018f360078a63ffffffff6200250916565b604080517fdd62ed3e00000000000000000000000000000000000000000000000000000000815233600482015230602482015290519197508a96508891600160a060020a0388169163dd62ed3e9160448083019260209291908290030181600087803b1580156200196357600080fd5b505af115801562001978573d6000803e3d6000fd5b505050506040513d60208110156200198f57600080fd5b505110156200199d57600080fd5b8560020160009054906101000a900460ff1660ff1685600160a060020a031663313ce5676040518163ffffffff1660e060020a028152600401602060405180830381600087803b158015620019f157600080fd5b505af115801562001a06573d6000803e3d6000fd5b505050506040513d602081101562001a1d57600080fd5b505160ff161462001a2d57600080fd5b600086600401541162001a4257600062001ad2565b8673__Percent_______________________________6342318e3d909188600401546040518363ffffffff1660e060020a028152600401808381526020018281526020019250505060206040518083038186803b15801562001aa357600080fd5b505af415801562001ab8573d6000803e3d6000fd5b505050506040513d602081101562001acf57600080fd5b50515b935062001ae6878563ffffffff62002b4016565b60045490935062001b03908690600160a060020a03168562002b58565b62001b198562001b126200142f565b8662002b58565b62001b438362001b3260078c8c63ffffffff620027c916565b600501549063ffffffff620024f616565b62001b5760078b8b63ffffffff620027c916565b60050155600480546040805160e260020a630547cdcd028152600160a060020a038d81169482019490945290516000939092169163151f37349160248082019260209290919082900301818787803b15801562001bb357600080fd5b505af115801562001bc8573d6000803e3d6000fd5b505050506040513d602081101562001bdf57600080fd5b5051600160a060020a0316141562001dc05760028601548690600182019060ff1662001c0a62003f6c565b60ff8216604082015260608082528454600260001961010060018416150201909116049082018190528190602082019060808301908790801562001c925780601f1062001c665761010080835404028352916020019162001c92565b820191906000526020600020905b81548152906001019060200180831162001c7457829003601f168201915b505083810382528554600260001961010060018416150201909116048082526020909101908690801562001d0a5780601f1062001cde5761010080835404028352916020019162001d0a565b820191906000526020600020905b81548152906001019060200180831162001cec57829003601f168201915b505095505050505050604051809103906000f08015801562001d30573d6000803e3d6000fd5b5060048054604080517fa0736912000000000000000000000000000000000000000000000000000000008152600160a060020a038e8116948201949094528385166024820152905193955091169163a07369129160448082019260009290919082900301818387803b15801562001da657600080fd5b505af115801562001dbb573d6000803e3d6000fd5b505050505b600480546040805160e260020a630547cdcd028152600160a060020a038d811694820185905291513394937f168493f0b2b7abab85259c2b490c5d5dff8fcde395381ac5084f554f7e9e2951938e938a93919092169163151f37349160248083019260209291908290030181600087803b15801562001e3e57600080fd5b505af115801562001e53573d6000803e3d6000fd5b505050506040513d602081101562001e6a57600080fd5b505160408051600160a060020a039485168152602081019390935292168183015290519081900360600190a3600354811462001ea557600080fd5b505050505050505050565b62001ebb336200137a565b151562001ec757600080fd5b62001ff78d8d8d8080601f0160208091040260200160405190810160405280939291908181526020018383808284378201915050505050508c8c8080601f0160208091040260200160405190810160405280939291908181526020018383808284378201915050505050508b8b8b80806020026020016040519081016040528093929190818152602001838360200280828437505060408051608081810190925294508f93506004925084915083908082843782019150505050508a8a808060200260200160405190810160405280939291908181526020018383602002808284378201915050505050508989808060200260200160405190810160405280939291908181526020018383602002808284375060079c9b9a999897969594505063ffffffff62002d3c1692505050565b5033600160a060020a03168d600160a060020a03167fa4917a011b74f5b834db606e372973c8201acae06d70a133197b7dfe85b5142389896040518080602001828103825284848281815260200192506020028082843760405192018290039550909350505050a350505050505050505050505050565b60606200208360078363ffffffff6200250916565b600301805480602002602001604051908101604052809291908181526020018280548015620020dc57602002820191906000526020600020905b8154600160a060020a03168152600190910190602001808311620020bd575b50505050509050919050565b620020f262003f4d565b620020fc62003f7d565b60608080620021146007888863ffffffff62002a7316565b15156200212057600080fd5b620021346007888863ffffffff620027c916565b6001015485526200214860078888620027c9565b6002015460208601526200215f60078888620027c9565b6003015460408601526200217660078888620027c9565b6004015460608601526200218d60078888620027c9565b600501548452620021a160078888620027c9565b600601546020850152620021b860078888620027c9565b6007018054806020026020016040519081016040528092919081815260200182805480156200221157602002820191906000526020600020905b8154600160a060020a03168152600190910190602001808311620021f2575b505050505092506200223087876007620027c99092919063ffffffff16565b6008018054806020026020016040519081016040528092919081815260200182805480156200228057602002820191906000526020600020905b815481526001909101906020018083116200226a575b505050505091506200229f87876007620027c99092919063ffffffff16565b600901805480602002602001604051908101604052809291908181526020018280548015620022ee57602002820191906000526020600020905b815481526020019060010190808311620022d9575b505050505090509295509295909350565b6200230a3362002839565b565b60608060006200231d600762003622565b5160405190808252806020026020018201604052801562002348578160200160208202803883390190505b509150600090505b6200235c600762003622565b51811015620023bc5762002371600762003622565b8051829081106200237e57fe5b90602001906020020151610100015182828151811015156200239c57fe5b600160a060020a0390921660209283029091019091015260010162002350565b50919050565b600062000ffa60078363ffffffff6200243716565b600554600160a060020a031681565b600254600160a060020a031690565b60006200240b6007848463ffffffff62002a7316565b9392505050565b600654600160a060020a031681565b60006200240b6007848463ffffffff6200246716565b600160a060020a031660009081526001820160209081526040808320938252808320548352929052205460ff1690565b600062002475848462002509565b600160a060020a0383166000908152600b91909101602052604090205460ff1690509392505050565b6000620024ac838362002437565b1515620024b857600080fd5b50600160a060020a031660009081526003919091016020908152604080832083805290915290205460ff1690565b60006200240b83836000620027c9565b6000828201838110156200240b57600080fd5b6000826005016200251b84846200393c565b815481106200252657fe5b90600052602060002090600c0201905092915050565b6000600160a060020a03821615156200255457600080fd5b6200256084846200249e565b15156200256c57600080fd5b6200257984848462002a73565b156200258457600080fd5b620025908484620024e6565b8054600160a060020a031916600160a060020a0384161781559050620025b7848462002509565b600401546001820155620025cc848462002509565b600501546002820155620025e1848462002509565b600601546003820155620025f6848462002509565b6007015460048201556200260b848462002509565b60030180546200262091600784019162003f98565b506200262d848462002509565b60090180546200264291600884019162003fed565b506200264f848462002509565b600a0180546200266491600984019162003fed565b50600160a060020a03808416600090815260038601602090815260408083209386168352929052908120805460ff19166001179055620026a8908590859062003973565b600160a060020a039384166000818152600487016020908152604080832096909716825285815286822093909355908152600390950181528385208580528152838520805460ff191690559190915250812055565b60005b6009820154811015620027c45782600160a060020a03166359e3774983600901838154811015156200272e57fe5b9060005260206000200154600185600a01858154811015156200274d57fe5b60009182526020822001546040805160e060020a63ffffffff8816028152600481019590955292151560248501526044840152905160648084019382900301818387803b1580156200279e57600080fd5b505af1158015620027b3573d6000803e3d6000fd5b505060019092019150620027009050565b505050565b6000620027d884848462002a73565b1515620027e457600080fd5b600160a060020a0380841660009081526002860160209081526040808320600489018352818420948716845293909152902054815481106200282257fe5b90600052602060002090600a020190509392505050565b6200284c60008263ffffffff620039bc16565b604051600160a060020a038216907fa3b62bc36326052d97ea62d63c3d60308ed4c3ea8ac079dd8499f1e9c4f80c0f90600090a250565b606062002891838362002437565b15156200289d57600080fd5b600160a060020a0382166000908152600284016020908152604080832080548251818502810185019093528083529193909284015b8282101562002a675760008481526020908190206040805161014081018252600a86029092018054600160a060020a031683526001810154838501526002810154838301526003810154606084015260048101546080840152600581015460a0840152600681015460c08401526007810180548351818702810187019094528084529394919360e0860193928301828280156200299957602002820191906000526020600020905b8154600160a060020a031681526001909101906020018083116200297a575b5050505050815260200160088201805480602002602001604051908101604052809291908181526020018280548015620029f457602002820191906000526020600020905b81548152600190910190602001808311620029de575b505050505081526020016009820180548060200260200160405190810160405280929190818152602001828054801562002a4e57602002820191906000526020600020905b81548152602001906001019080831162002a39575b50505050508152505081526020019060010190620028d2565b50505050905092915050565b600062002a81848462002437565b151562002a8d57600080fd5b50600160a060020a039182166000908152600393909301602090815260408085209290931684525290205460ff1690565b6000600160a060020a038216151562002ad657600080fd5b50600160a060020a03166000908152602091909152604090205460ff1690565b62002b0960008263ffffffff62003a0c16565b604051600160a060020a038216907f44d6d25963f097ad14f29f06854a01f575648a1ef82f30e562ccd3889717e33990600090a250565b6000808383111562002b5157600080fd5b5050900390565b600062002bf68285600160a060020a03166370a08231866040518263ffffffff1660e060020a0281526004018082600160a060020a0316600160a060020a03168152602001915050602060405180830381600087803b15801562002bbb57600080fd5b505af115801562002bd0573d6000803e3d6000fd5b505050506040513d602081101562002be757600080fd5b50519063ffffffff620024f616565b604080517f23b872dd000000000000000000000000000000000000000000000000000000008152336004820152600160a060020a038681166024830152604482018690529151929350908616916323b872dd916064808201926020929091908290030181600087803b15801562002c6c57600080fd5b505af115801562002c81573d6000803e3d6000fd5b505050506040513d602081101562002c9857600080fd5b5050604080517f70a08231000000000000000000000000000000000000000000000000000000008152600160a060020a038581166004830152915183928716916370a082319160248083019260209291908290030181600087803b15801562002d0057600080fd5b505af115801562002d15573d6000803e3d6000fd5b505050506040513d602081101562002d2c57600080fd5b50511462002d3657fe5b50505050565b60008080600160a060020a038b16151562002d5657600080fd5b865160001062002d6557600080fd5b8551604080517f520b006600000000000000000000000000000000000000000000000000000000815260048101929092525173__Percent_______________________________9163520b0066916024808301926020929190829003018186803b15801562002dd357600080fd5b505af415801562002de8573d6000803e3d6000fd5b505050506040513d602081101562002dff57600080fd5b5051801562002eab57508551604080517f0fe9114700000000000000000000000000000000000000000000000000000000815260048101929092525160649173__Percent_______________________________91630fe9114791602480820192602092909190829003018186803b15801562002e7b57600080fd5b505af415801562002e90573d6000803e3d6000fd5b505050506040513d602081101562002ea757600080fd5b5051105b151562002eb757600080fd5b602080870151604080517f520b006600000000000000000000000000000000000000000000000000000000815260048101929092525173__Percent_______________________________9263520b00669260248082019391829003018186803b15801562002f2557600080fd5b505af415801562002f3a573d6000803e3d6000fd5b505050506040513d602081101562002f5157600080fd5b5051801562002ffc5750602080870151604080517f0fe9114700000000000000000000000000000000000000000000000000000000815260048101929092525160649273__Percent_______________________________92630fe911479260248083019392829003018186803b15801562002fcc57600080fd5b505af415801562002fe1573d6000803e3d6000fd5b505050506040513d602081101562002ff857600080fd5b5051105b15156200300857600080fd5b856002602002015173__Percent_______________________________63520b006690916040518263ffffffff1660e060020a0281526004018082815260200191505060206040518083038186803b1580156200306457600080fd5b505af415801562003079573d6000803e3d6000fd5b505050506040513d60208110156200309057600080fd5b505180156200312857506064866002602002015173__Percent_______________________________630fe9114790916040518263ffffffff1660e060020a0281526004018082815260200191505060206040518083038186803b158015620030f857600080fd5b505af41580156200310d573d6000803e3d6000fd5b505050506040513d60208110156200312457600080fd5b5051105b15156200313457600080fd5b6060860151604080517f520b006600000000000000000000000000000000000000000000000000000000815260048101929092525173__Percent_______________________________9163520b0066916024808301926020929190829003018186803b158015620031a557600080fd5b505af4158015620031ba573d6000803e3d6000fd5b505050506040513d6020811015620031d157600080fd5b505180156200326957506064866003602002015173__Percent_______________________________630fe9114790916040518263ffffffff1660e060020a0281526004018082815260200191505060206040518083038186803b1580156200323957600080fd5b505af41580156200324e573d6000803e3d6000fd5b505050506040513d60208110156200326557600080fd5b5051105b15156200327557600080fd5b62003281858562003a5e565b15156200328d57600080fd5b620032998c8c62002437565b1515620034e4578b600501805490508c60000160008d600160a060020a0316600160a060020a031681526020019081526020016000208190555060018c60010160008d600160a060020a0316600160a060020a0316815260200190815260200160002060008e60050180549050815260200190815260200160002060006101000a81548160ff0219169083151502179055508b600501610160604051908101604052808c81526020018b81526020018a60ff16815260200160006040519080825280602002602001820160405280156200337d578160200160208202803883390190505b5081528851602080830191909152898101516040808401919091528a01516060808401919091528a01516080830152600160a060020a038f1660a083015260c0820189905260e090910187905282546001810180855560009485529382902083518051600c90930290910192620033fa928492909101906200403e565b5060208281015180516200341592600185019201906200403e565b50604082015160028201805460ff191660ff909216919091179055606082015180516200344d916003840191602090910190620040b1565b506080820151600482015560a0820151600582015560c0820151600682015560e08201516007820155610100820151600882018054600160a060020a031916600160a060020a039092169190911790556101208201518051620034bb91600984019160209091019062004109565b506101408201518051620034da91600a84019160209091019062004149565b505050506200359d565b620034fa620034f48d8d62002509565b62003c40565b620035068c8c62002509565b8a519092506200351d90839060208d01906200403e565b5088516200353590600184019060208c01906200403e565b5060028201805460ff191660ff8a1617905585516004830155602080870151600584015560408701516006840155606087015160078401558551620035839160098501919088019062004109565b5083516200359b90600a840190602087019062004149565b505b5060005b8651811015620035d957620035d08c8c8984815181101515620035c057fe5b9060200190602002015162003ccd565b600101620035a1565b620035e58c8c6200249e565b1515620035f857620035f88c8c62003d9f565b600160a060020a038b16600090815260208d90526040902054925050509998505050505050505050565b606081600501805480602002602001604051908101604052809291908181526020016000905b828210156200393157600084815260209081902060408051600c8602909201805460026001821615610100026000190190911604601f81018590049094028301610180908101909252610160830184815292939092849290918491840182828015620036f85780601f10620036cc57610100808354040283529160200191620036f8565b820191906000526020600020905b815481529060010190602001808311620036da57829003601f168201915b50505050508152602001600182018054600181600116156101000203166002900480601f0160208091040260200160405190810160405280929190818152602001828054600181600116156101000203166002900480156200379e5780601f1062003772576101008083540402835291602001916200379e565b820191906000526020600020905b8154815290600101906020018083116200378057829003601f168201915b5050509183525050600282015460ff1660208083019190915260038301805460408051828502810185018252828152940193928301828280156200380c57602002820191906000526020600020905b8154600160a060020a03168152600190910190602001808311620037ed575b50505050508152602001600482015481526020016005820154815260200160068201548152602001600782015481526020016008820160009054906101000a9004600160a060020a0316600160a060020a0316600160a060020a0316815260200160098201805480602002602001604051908101604052809291908181526020018280548015620038be57602002820191906000526020600020905b81548152600190910190602001808311620038a8575b50505050508152602001600a82018054806020026020016040519081016040528092919081815260200182805480156200391857602002820191906000526020600020905b81548152602001906001019080831162003903575b5050505050815250508152602001906001019062003648565b505050509050919050565b60006200394a838362002437565b15156200395657600080fd5b50600160a060020a03166000908152602091909152604090205490565b60006200398284848462002a73565b15156200398e57600080fd5b50600160a060020a039182166000908152600493909301602090815260408085209290931684525290205490565b600160a060020a0381161515620039d257600080fd5b620039de828262002abe565b1515620039ea57600080fd5b600160a060020a0316600090815260209190915260409020805460ff19169055565b600160a060020a038116151562003a2257600080fd5b62003a2e828262002abe565b1562003a3957600080fd5b600160a060020a0316600090815260209190915260409020805460ff19166001179055565b600080600083518551141562003c3357600091505b845182101562003c2957838281518110151562003a8c57fe5b9060200190602002015173__Percent_______________________________63520b006690916040518263ffffffff1660e060020a0281526004018082815260200191505060206040518083038186803b15801562003aea57600080fd5b505af415801562003aff573d6000803e3d6000fd5b505050506040513d602081101562003b1657600080fd5b5051158062003bb1575073__Percent_______________________________63d49d51816040518163ffffffff1660e060020a02815260040160206040518083038186803b15801562003b6857600080fd5b505af415801562003b7d573d6000803e3d6000fd5b505050506040513d602081101562003b9457600080fd5b5051845185908490811062003ba557fe5b90602001906020020151115b1562003bc1576000925062003c38565b50600181015b845181101562003c1d57848181518110151562003be057fe5b60209081029091010151855186908490811062003bf957fe5b60209081029091010151141562003c14576000925062003c38565b60010162003bc7565b60019091019062003a73565b6001925062003c38565b600092505b505092915050565b600381015460009081101562003cc9575060005b600382015481101562003cb857600082600b016000846003018481548110151562003c7b57fe5b600091825260208083209190910154600160a060020a031683528201929092526040019020805460ff191691151591909117905560010162003c54565b6000620027c4600384018262004186565b5050565b600160a060020a038116151562003ce357600080fd5b62003cf083838362002467565b1562003cfb57600080fd5b62003d07838362002509565b60030180546001808201835560009283526020909220018054600160a060020a031916600160a060020a03841617905562003d43848462002509565b600160a060020a038381166000818152600b939093016020526040808420805460ff1916951515959095179094559251908516917ffa5891b558f0fb64bcbdc5f17fa7bbee3a47f97f4c8f523556d0494941a1e18b91a3505050565b600062003dad83836200249e565b1562003db857600080fd5b50600160a060020a0381166000818152600284016020818152604080842080546003890184528286208680528452828620805460ff191660011790558686526004890184528286208680528452828620819055958552928252805161014081018252848152808301859052808201859052606081018590526080810185905260a0810185905260c081018590528151858152808401835260e08201528151858152808401835261010082015281518581529283019091529192610120830191905090528154600180820180855560009485526020948590208451600a909402018054600160a060020a031916600160a060020a03909416939093178355838501519183019190915560408301516002830155606083015160038301556080830151600483015560a0830151600583015560c0830151600683015560e08301518051919462003f0f92600785019290910190620040b1565b50610100820151805162003f2e91600884019160209091019062004109565b50610120820151805162000eee91600984019160209091019062004149565b6080604051908101604052806004906020820280388339509192915050565b60405161168380620041f283390190565b60408051808201825290600290829080388339509192915050565b82805482825590600052602060002090810192821562003fdb5760005260206000209182015b8281111562003fdb57825482559160010191906001019062003fbe565b5062003fe9929150620041ad565b5090565b828054828255906000526020600020908101928215620040305760005260206000209182015b828111156200403057825482559160010191906001019062004013565b5062003fe9929150620041d4565b828054600181600116156101000203166002900490600052602060002090601f016020900481019282601f106200408157805160ff191683800117855562004030565b8280016001018555821562004030579182015b828111156200403057825182559160200191906001019062004094565b82805482825590600052602060002090810192821562003fdb579160200282015b8281111562003fdb5782518254600160a060020a031916600160a060020a03909116178255602090920191600190910190620040d2565b82805482825590600052602060002090810192821562004030579160200282015b828111156200403057825182556020909201916001909101906200412a565b8280548282559060005260206000209081019282156200403057916020028201828111156200403057825182559160200191906001019062004094565b815481835581811115620027c457600083815260209020620027c4918101908301620041d4565b6200141791905b8082111562003fe9578054600160a060020a0319168155600101620041b4565b6200141791905b8082111562003fe95760008155600101620041db560060806040523480156200001157600080fd5b50604051620016833803806200168383398101604090815281516020830151918301519083019291909101908282826200005433640100000000620000f1810204565b825162000069906001906020860190620001d6565b5081516200007f906002906020850190620001d6565b506003805460ff90921660ff19909216919091179055505060078054600160a060020a03191633179081905560408051600160a060020a03929092168252517f4101e71e974f68df5e9730cc223280b41654676bbb052cdcc735c3337e64d2d99181900360200190a15050506200027b565b6200010c600082640100000000620012ec6200014382021704565b604051600160a060020a038216907f44d6d25963f097ad14f29f06854a01f575648a1ef82f30e562ccd3889717e33990600090a250565b600160a060020a03811615156200015957600080fd5b6200016e82826401000000006200019e810204565b156200017957600080fd5b600160a060020a0316600090815260209190915260409020805460ff19166001179055565b6000600160a060020a0382161515620001b657600080fd5b50600160a060020a03166000908152602091909152604090205460ff1690565b828054600181600116156101000203166002900490600052602060002090601f016020900481019282601f106200021957805160ff191683800117855562000249565b8280016001018555821562000249579182015b82811115620002495782518255916020019190600101906200022c565b50620002579291506200025b565b5090565b6200027891905b8082111562000257576000815560010162000262565b90565b6113f8806200028b6000396000f3006080604052600436106101485763ffffffff7c010000000000000000000000000000000000000000000000000000000060003504166306fdde03811461014d578063095ea7b3146101d75780631785f53c1461020f57806318160ddd146102325780632348238c1461025957806323b872dd1461027a57806324d7806c146102a4578063313ce567146102c557806339509351146102f057806342966c68146103145780634afbf5ee1461032c5780636618846314610350578063704802751461037457806370a082311461039557806379cc6790146103b65780638bad0c0a146103da57806395d89b41146103ef5780639d2e477714610404578063a457c2d714610431578063a9059cbb14610455578063c6dbdf6114610479578063d0047acf146104aa578063d294cb0f146104d7578063d73dd623146104f8578063dd62ed3e1461051c575b600080fd5b34801561015957600080fd5b50610162610543565b6040805160208082528351818301528351919283929083019185019080838360005b8381101561019c578181015183820152602001610184565b50505050905090810190601f1680156101c95780820380516001836020036101000a031916815260200191505b509250505060405180910390f35b3480156101e357600080fd5b506101fb600160a060020a03600435166024356105d8565b604080519115158252519081900360200190f35b34801561021b57600080fd5b50610230600160a060020a0360043516610656565b005b34801561023e57600080fd5b50610247610679565b60408051918252519081900360200190f35b34801561026557600080fd5b50610230600160a060020a036004351661067f565b34801561028657600080fd5b506101fb600160a060020a0360043581169060243516604435610712565b3480156102b057600080fd5b506101fb600160a060020a036004351661075a565b3480156102d157600080fd5b506102da610772565b6040805160ff9092168252519081900360200190f35b3480156102fc57600080fd5b506101fb600160a060020a036004351660243561077b565b34801561032057600080fd5b5061023060043561082b565b34801561033857600080fd5b50610247600160a060020a0360043516602435610835565b34801561035c57600080fd5b506101fb600160a060020a036004351660243561085d565b34801561038057600080fd5b50610230600160a060020a0360043516610870565b3480156103a157600080fd5b50610247600160a060020a0360043516610890565b3480156103c257600080fd5b50610230600160a060020a03600435166024356108ab565b3480156103e657600080fd5b506102306108b9565b3480156103fb57600080fd5b506101626108c4565b34801561041057600080fd5b506101fb600160a060020a036004351660243563ffffffff60443516610922565b34801561043d57600080fd5b506101fb600160a060020a036004351660243561096d565b34801561046157600080fd5b506101fb600160a060020a03600435166024356109b8565b34801561048557600080fd5b5061048e6109f7565b60408051600160a060020a039092168252519081900360200190f35b3480156104b657600080fd5b506101fb600160a060020a036004351660243563ffffffff60443516610a06565b3480156104e357600080fd5b50610247600160a060020a0360043516610a47565b34801561050457600080fd5b506101fb600160a060020a0360043516602435610b50565b34801561052857600080fd5b50610247600160a060020a0360043581169060243516610b5c565b60018054604080516020601f600260001961010087891615020190951694909404938401819004810282018101909252828152606093909290918301828280156105ce5780601f106105a3576101008083540402835291602001916105ce565b820191906000526020600020905b8154815290600101906020018083116105b157829003601f168201915b5050505050905090565b6000600160a060020a03831615156105ef57600080fd5b336000818152600560209081526040808320600160a060020a03881680855290835292819020869055805186815290519293927f8c5be1e5ebec7d5bd14f71427d1e84f3dd0314c0f7b2291e5b200ac8c7c3b925929181900390910190a350600192915050565b600754600160a060020a0316331461066d57600080fd5b61067681610b87565b50565b60065490565b600754600160a060020a0316331461069657600080fd5b600160a060020a03811615156106ab57600080fd5b6007805473ffffffffffffffffffffffffffffffffffffffff1916600160a060020a03838116919091179182905560408051929091168252517f4101e71e974f68df5e9730cc223280b41654676bbb052cdcc735c3337e64d2d9916020908290030190a150565b600061071d84610bcf565b600160a060020a038316151561073257600080fd5b61073b84610a47565b82111561074757600080fd5b610752848484610d55565b949350505050565b600061076c818363ffffffff610de816565b92915050565b60035460ff1690565b6000600160a060020a038316151561079257600080fd5b336000908152600560209081526040808320600160a060020a03871684529091529020546107c6908363ffffffff610e1f16565b336000818152600560209081526040808320600160a060020a0389168085529083529281902085905580519485525191937f8c5be1e5ebec7d5bd14f71427d1e84f3dd0314c0f7b2291e5b200ac8c7c3b925929081900390910190a350600192915050565b6106763382610e31565b600160a060020a03919091166000908152600860209081526040808320938352929052205490565b6000610869838361096d565b9392505050565b600754600160a060020a0316331461088757600080fd5b61067681610e59565b600160a060020a031660009081526004602052604090205490565b6108b58282610ea1565b5050565b6108c233610b87565b565b60028054604080516020601f60001961010060018716150201909416859004938401819004810282018101909252828152606093909290918301828280156105ce5780601f106105a3576101008083540402835291602001916105ce565b600061092d3361075a565b151561093857600080fd5b61094284846109b8565b50428263ffffffff1611156109635761096333858463ffffffff1686610ec9565b5060019392505050565b6000600160a060020a038316151561098457600080fd5b336000908152600560209081526040808320600160a060020a03871684529091529020546107c6908363ffffffff61100316565b60006109c333610bcf565b600160a060020a03831615156109d857600080fd5b6109e133610a47565b8211156109ed57600080fd5b610869838361101a565b600754600160a060020a031690565b6000610a113361075a565b1515610a1c57600080fd5b610a268484611030565b428263ffffffff161115610963576109636000858463ffffffff1686610ec9565b600080610a5383610890565b600160a060020a03841660009081526008602090815260408083208380529091529020549092501515610a8557610b4a565b5060005b600160a060020a038316600090815260096020526040902054811015610b4a57600160a060020a0383166000908152600960205260409020805442919083908110610ad057fe5b9060005260206000200154101515610b4257600160a060020a0383166000908152600860209081526040808320600990925282208054610b3f93919085908110610b1657fe5b90600052602060002001548152602001908152602001600020548361100390919063ffffffff16565b91505b600101610a89565b50919050565b6000610869838361077b565b600160a060020a03918216600090815260056020908152604080832093909416825291909152205490565b610b9860008263ffffffff6110dc16565b604051600160a060020a038216907fa3b62bc36326052d97ea62d63c3d60308ed4c3ea8ac079dd8499f1e9c4f80c0f90600090a250565b6000600160a060020a0382161515610be657600080fd5b600160a060020a03821660009081526008602090815260408083208380529091529020541515610c15576108b5565b5060005b600160a060020a0382166000908152600960205260409020548110156108b557600160a060020a0382166000908152600960205260409020805442919083908110610c6057fe5b90600052602060002001541015610d4d57600160a060020a0382166000908152600860209081526040808320600990925282208054610ceb93919085908110610ca557fe5b60009182526020808320909101548352828101939093526040918201812054600160a060020a03871682526008845282822082805290935220549063ffffffff61100316565b600160a060020a03831660008181526008602090815260408083208380528083528184209590955592825260099052908120805491929183919085908110610d2f57fe5b90600052602060002001548152602001908152602001600020819055505b600101610c19565b600160a060020a0383166000908152600560209081526040808320338452909152812054821115610d8557600080fd5b600160a060020a0384166000908152600560209081526040808320338452909152902054610db9908363ffffffff61100316565b600160a060020a0385166000908152600560209081526040808320338452909152902055610963848484611128565b6000600160a060020a0382161515610dff57600080fd5b50600160a060020a03166000908152602091909152604090205460ff1690565b60008282018381101561086957600080fd5b610e3a82610bcf565b610e4382610a47565b811115610e4f57600080fd5b6108b5828261121c565b610e6a60008263ffffffff6112ec16565b604051600160a060020a038216907f44d6d25963f097ad14f29f06854a01f575648a1ef82f30e562ccd3889717e33990600090a250565b610eaa82610bcf565b610eb382610a47565b811115610ebf57600080fd5b6108b5828261133a565b600160a060020a0383166000908152600860209081526040808320838052909152902054610efd908263ffffffff610e1f16565b600160a060020a03841660009081526008602090815260408083208380529091528082209290925583815220541515610f5c57600160a060020a0383166000908152600960209081526040822080546001810182559083529120018290555b600160a060020a0383166000908152600860209081526040808320858452909152902054610f90908263ffffffff610e1f16565b600160a060020a0380851660008181526008602090815260408083208884528252918290209490945580519288168352928201528082018390526060810184905290517f4dd99b63a45b55ac0b6999b9307251132e130b3e3f06c04c92b946c0f9e0dc279181900360800190a150505050565b6000808383111561101357600080fd5b5050900390565b6000611027338484611128565b50600192915050565b600160a060020a038216151561104557600080fd5b600654611058908263ffffffff610e1f16565b600655600160a060020a038216600090815260046020526040902054611084908263ffffffff610e1f16565b600160a060020a03831660008181526004602090815260408083209490945583518581529351929391927fddf252ad1be2c89b69c2b068fc378daa952ba7f163c4a11628f55a4df523b3ef9281900390910190a35050565b600160a060020a03811615156110f157600080fd5b6110fb8282610de8565b151561110657600080fd5b600160a060020a0316600090815260209190915260409020805460ff19169055565b600160a060020a03831660009081526004602052604090205481111561114d57600080fd5b600160a060020a038216151561116257600080fd5b600160a060020a03831660009081526004602052604090205461118b908263ffffffff61100316565b600160a060020a0380851660009081526004602052604080822093909355908416815220546111c0908263ffffffff610e1f16565b600160a060020a0380841660008181526004602090815260409182902094909455805185815290519193928716927fddf252ad1be2c89b69c2b068fc378daa952ba7f163c4a11628f55a4df523b3ef92918290030190a3505050565b600160a060020a038216151561123157600080fd5b600160a060020a03821660009081526004602052604090205481111561125657600080fd5b600654611269908263ffffffff61100316565b600655600160a060020a038216600090815260046020526040902054611295908263ffffffff61100316565b600160a060020a0383166000818152600460209081526040808320949094558351858152935191937fddf252ad1be2c89b69c2b068fc378daa952ba7f163c4a11628f55a4df523b3ef929081900390910190a35050565b600160a060020a038116151561130157600080fd5b61130b8282610de8565b1561131557600080fd5b600160a060020a0316600090815260209190915260409020805460ff19166001179055565b600160a060020a038216600090815260056020908152604080832033845290915290205481111561136a57600080fd5b600160a060020a038216600090815260056020908152604080832033845290915290205461139e908263ffffffff61100316565b600160a060020a03831660009081526005602090815260408083203384529091529020556108b58282610e315600a165627a7a72305820d555f0ae1ab5d953b434a76e21a3f60aa7c1276e1ea3e034bc5e9b49499cc3bd0029a165627a7a72305820d45cdc7e465f487f2123c509751fa1d8d5b05326492059b76795581d422f05e80029",
  "source": "pragma solidity 0.4.24;\n\nimport \"openzeppelin-solidity/contracts/math/SafeMath.sol\";\nimport \"openzeppelin-solidity/contracts/ownership/Secondary.sol\";\nimport \"openzeppelin-solidity/contracts/utils/ReentrancyGuard.sol\";\nimport \"openzeppelin-solidity/contracts/token/ERC20/ERC20Detailed.sol\";\nimport \"openzeppelin-solidity/contracts/token/ERC20/IERC20.sol\";\nimport \"./crowdsale/factories/IW12CrowdsaleFactory.sol\";\nimport \"./wallets/IWallets.sol\";\nimport \"./access/roles/IAdminRole.sol\";\nimport \"./token/IWToken.sol\";\nimport \"./libs/Percent.sol\";\nimport \"./token/WToken.sol\";\nimport \"./token/exchanger/ITokenExchanger.sol\";\nimport \"./versioning/Versionable.sol\";\nimport \"./access/roles/AdminRole.sol\";\nimport \"./libs/TokenListing.sol\";\n\n\ncontract W12Lister is IAdminRole, AdminRole, Versionable, Secondary, ReentrancyGuard {\n    using SafeMath for uint;\n    using Percent for uint;\n    using TokenListing for TokenListing.Whitelist;\n\n    uint8 constant SERVICE_WALLET_ID = 1;\n\n    ITokenExchanger public exchanger;\n    IW12CrowdsaleFactory public factory;\n    IWallets public wallets;\n\n    TokenListing.Whitelist whitelist;\n\n    event OwnerWhitelisted(address indexed tokenAddress, address indexed tokenOwner);\n    event TokenWhitelisted(address indexed token, address indexed sender, address[] owners);\n    event TokenPlaced(address indexed originalToken, address indexed sender, address crowdsale, uint tokenAmount, address placedToken);\n    event CrowdsaleInitialized(address indexed token, address indexed sender, address crowdsale, uint amountForSale);\n    event CrowdsaleTokenMinted(address indexed token, address indexed sender, address crowdsale, uint amount);\n\n    constructor(\n        uint version,\n        IWallets _wallets,\n        IW12CrowdsaleFactory _factory,\n        ITokenExchanger _exchanger\n    ) Versionable(version) public {\n        require(_wallets != address(0));\n        require(_factory != address(0));\n        require(_exchanger != address(0));\n\n        exchanger = _exchanger;\n        wallets = _wallets;\n        factory = _factory;\n    }\n\n    function addAdmin(address _account) public onlyPrimary {\n        _addAdmin(_account);\n    }\n\n    function removeAdmin(address _account) public onlyPrimary {\n        _removeAdmin(_account);\n    }\n\n    function whitelistToken(\n        address token,\n        string name,\n        string symbol,\n        uint8 decimals,\n        address[] owners,\n        uint[4] commissions, // [feePercent, ethFeePercent, WTokenSaleFeePercent, trancheFeePercent]\n        bytes32[] paymentMethods,\n        uint[] paymentMethodsPurchaseFee\n    )\n        external onlyAdmin\n    {\n        whitelist.addOrUpdate(\n            token,\n            name,\n            symbol,\n            decimals,\n            owners,\n            commissions,\n            paymentMethods,\n            paymentMethodsPurchaseFee\n        );\n\n        emit TokenWhitelisted(token, msg.sender, owners);\n    }\n\n    /**\n     * @notice Place token for sale\n     * @param token Token address\n     * @param crowdsale Crowdsale address\n     * @param amount Token amount to place\n     */\n    function placeToken(address token, address crowdsale, uint amount) external nonReentrant {\n        require(serviceWallet() != address(0));\n        require(amount > 0);\n        require(whitelist.isTokenWhitelisted(token));\n        require(whitelist.hasTokenOwner(token, msg.sender));\n        require(whitelist.hasCrowdsaleWithAddress(token, crowdsale));\n\n        TokenListing.WhitelistedToken storage listedToken = whitelist.getToken(token);\n\n        ERC20Detailed tokenInstance = ERC20Detailed(token);\n\n        require(tokenInstance.allowance(msg.sender, address(this)) >= amount);\n        require(tokenInstance.decimals() == listedToken.decimals);\n\n        uint fee = listedToken.feePercent > 0\n            ? amount.percent(listedToken.feePercent)\n            : 0;\n        uint amountWithoutFee = amount.sub(fee);\n\n        _secureTokenTransfer(IERC20(tokenInstance), exchanger, amountWithoutFee);\n        _secureTokenTransfer(IERC20(tokenInstance), serviceWallet(), fee);\n\n        whitelist.getCrowdsaleByAddress(token, crowdsale).tokensForSaleAmount = whitelist\n            .getCrowdsaleByAddress(token, crowdsale)\n                .tokensForSaleAmount.add(amountWithoutFee);\n\n        if (address(exchanger.getWTokenByToken(token)) == address(0)) {\n            IWToken wToken = new WToken(listedToken.name, listedToken.symbol, listedToken.decimals);\n\n            exchanger.addTokenToListing(ERC20Detailed(token), wToken);\n        }\n\n        emit TokenPlaced(token, msg.sender, crowdsale, amountWithoutFee, address(exchanger.getWTokenByToken(token)));\n    }\n\n    /**\n     * @dev Securely transfer token from sender to account\n     */\n    function _secureTokenTransfer(IERC20 token, address to, uint value) internal {\n        // check for overflow before. we are not sure that the placed token has implemented safe math\n        uint expectedBalance = token.balanceOf(to).add(value);\n\n        token.transferFrom(msg.sender, to, value);\n\n        // check balance to be sure it was filled correctly\n        assert(token.balanceOf(to) == expectedBalance);\n    }\n\n    function initCrowdsale(address token, uint amountForSale, uint price) external nonReentrant {\n        require(serviceWallet() != address(0));\n        require(whitelist.isTokenWhitelisted(token));\n        require(whitelist.hasTokenOwner(token, msg.sender));\n        require(whitelist.hasNotInitialisedCrowdsale(token));\n        require(\n            whitelist.getNotInitialisedCrowdsale(token).tokensForSaleAmount\n                >= whitelist.getNotInitialisedCrowdsale(token).wTokensIssuedAmount.add(amountForSale)\n        );\n\n        TokenListing.WhitelistedToken storage listedToken = whitelist.getToken(token);\n        IWToken wtoken = exchanger.getWTokenByToken(listedToken.token);\n\n        IW12Crowdsale crowdsale = factory.createCrowdsale(\n            listedToken.token,\n            address(wtoken),\n            price,\n            serviceWallet(),\n            listedToken.ethFeePercent,\n            listedToken.WTokenSaleFeePercent,\n            listedToken.trancheFeePercent,\n            address(exchanger),\n            listedToken.owners\n        );\n\n        crowdsale.addAdmin(msg.sender);\n        crowdsale.getFund().addAdmin(msg.sender);\n        wtoken.addAdmin(address(crowdsale));\n\n        whitelist.initializeCrowdsale(token, address(crowdsale));\n        _setPaymentMethodPurchaseFeeForCrowdsale(crowdsale, listedToken);\n\n        // give approve to spend entire tokens sale amount because there may be\n        // individual purchase fee value for a payment method and it may be changed in the future.\n        exchanger.approve(\n            IERC20(listedToken.token),\n            address(crowdsale),\n            whitelist.getCrowdsaleByAddress(token, address(crowdsale)).tokensForSaleAmount\n        );\n\n        addTokensToCrowdsale(token, address(crowdsale), amountForSale);\n\n        emit CrowdsaleInitialized(listedToken.token, msg.sender, address(crowdsale), amountForSale);\n    }\n\n    function _setPaymentMethodPurchaseFeeForCrowdsale(IW12Crowdsale crowdsale, TokenListing.WhitelistedToken storage listedToken) private {\n        for(uint i = 0; i < listedToken.paymentMethods.length; i++) {\n            crowdsale.updatePurchaseFeeParameterForPaymentMethod(\n                listedToken.paymentMethods[i],\n                true,\n                listedToken.paymentMethodsPurchaseFee[i]\n            );\n        }\n    }\n\n    function addTokensToCrowdsale(address token, address crowdsale, uint amountForSale) public {\n        require(amountForSale > 0);\n        require(whitelist.isTokenWhitelisted(token));\n        require(whitelist.hasTokenOwner(token, msg.sender));\n        require(whitelist.hasCrowdsaleWithAddress(token, crowdsale));\n        require(address(exchanger.getWTokenByToken(token)) != address(0));\n        require(\n            whitelist.getCrowdsaleByAddress(token, crowdsale).tokensForSaleAmount\n                >= whitelist.getCrowdsaleByAddress(token, crowdsale).wTokensIssuedAmount.add(amountForSale)\n        );\n\n        IWToken wtoken = exchanger.getWTokenByToken(token);\n\n        whitelist.getCrowdsaleByAddress(token, crowdsale).wTokensIssuedAmount = whitelist\n            .getCrowdsaleByAddress(token, crowdsale)\n                .wTokensIssuedAmount.add(amountForSale);\n\n        wtoken.mint(crowdsale, amountForSale, 0);\n\n        emit CrowdsaleTokenMinted(token, msg.sender, address(crowdsale), amountForSale);\n    }\n\n    function getTokenOwners(address token) external view returns (address[]) {\n        return whitelist.getToken(token).owners;\n    }\n\n    function getCrowdsaleOwners(address token, address crowdsale) external view returns (address[]) {\n        return whitelist.getCrowdsaleByAddress(token, crowdsale).owners;\n    }\n\n    function getExchanger() view external returns (ITokenExchanger) {\n        return exchanger;\n    }\n\n    function getToken(address token)\n        external view returns (\n            string name,\n            string symbol,\n            uint8 decimals,\n            address[] owners,\n            uint[4] commissions,\n            bytes32[] paymentMethods,\n            uint[] paymentMethodsPurchaseFee\n        )\n    {\n        require(whitelist.isTokenWhitelisted(token));\n\n        name = whitelist.getToken(token).name;\n        symbol = whitelist.getToken(token).symbol;\n        decimals = whitelist.getToken(token).decimals;\n        owners = whitelist.getToken(token).owners;\n        commissions[0] = whitelist.getToken(token).feePercent;\n        commissions[1] = whitelist.getToken(token).ethFeePercent;\n        commissions[2] = whitelist.getToken(token).WTokenSaleFeePercent;\n        commissions[3] = whitelist.getToken(token).trancheFeePercent;\n        paymentMethods = whitelist.getToken(token).paymentMethods;\n        paymentMethodsPurchaseFee = whitelist.getToken(token).paymentMethodsPurchaseFee;\n    }\n\n    function getTokens() external view returns (address[]) {\n        address[] memory result = new address[](whitelist.getTokens().length);\n\n        for (uint i = 0; i < whitelist.getTokens().length; i++) {\n            result[i] = whitelist.getTokens()[i].token;\n        }\n\n        return result;\n    }\n\n    function isTokenWhitelisted(address token) external view returns (bool) {\n        return whitelist.isTokenWhitelisted(token);\n    }\n\n    function hasTokenOwner(address token, address owner) external view returns (bool) {\n        return whitelist.hasTokenOwner(token, owner);\n    }\n\n    function getCrowdsales(address token) external view returns (address[]) {\n        address[] memory result = new address[](whitelist.getCrowdsales(token).length);\n\n        for (uint i = 0; i < whitelist.getCrowdsales(token).length; i++) {\n            result[i] = whitelist.getCrowdsales(token)[i].crowdsale;\n        }\n\n        return result;\n    }\n\n    function hasCrowdsaleWithAddress(address token, address crowdsale) external view returns (bool) {\n        return whitelist.hasCrowdsaleWithAddress(token, crowdsale);\n    }\n\n    function hasNotInitialisedCrowdsale(address token) public view returns (bool) {\n        return whitelist.hasNotInitialisedCrowdsale(token);\n    }\n\n    function getCrowdsale(address token, address crowdsale)\n        external view returns (\n            uint[4] commissions,\n            uint[2] amounts,\n            address[] owners,\n            bytes32[] paymentMethods,\n            uint[] paymentMethodsPurchaseFee\n        )\n    {\n        require(whitelist.hasCrowdsaleWithAddress(token, crowdsale));\n\n        commissions[0] = whitelist.getCrowdsaleByAddress(token, crowdsale).feePercent;\n        commissions[1] = whitelist.getCrowdsaleByAddress(token, crowdsale).ethFeePercent;\n        commissions[2] = whitelist.getCrowdsaleByAddress(token, crowdsale).WTokenSaleFeePercent;\n        commissions[3] = whitelist.getCrowdsaleByAddress(token, crowdsale).trancheFeePercent;\n        amounts[0] = whitelist.getCrowdsaleByAddress(token, crowdsale).tokensForSaleAmount;\n        amounts[1] = whitelist.getCrowdsaleByAddress(token, crowdsale).wTokensIssuedAmount;\n        owners = whitelist.getCrowdsaleByAddress(token, crowdsale).owners;\n        paymentMethods = whitelist.getCrowdsaleByAddress(token, crowdsale).paymentMethods;\n        paymentMethodsPurchaseFee = whitelist.getCrowdsaleByAddress(token, crowdsale).paymentMethodsPurchaseFee;\n    }\n\n    function serviceWallet() public view returns(address) {\n        return wallets.getWallet(SERVICE_WALLET_ID);\n    }\n}\n",
  "sourcePath": "/home/andrey/Code/w12/platform-contracts/contracts/W12Lister.sol",
  "compiler": {
    "name": "solc",
    "version": "0.4.24+commit.e67f0147.Emscripten.clang"
  },
  "schemaVersion": "2.0.1",
  "updatedAt": "2019-03-06T08:53:20.988Z"
}