{
  "contractName": "W12Lister",
  "abi": [
    {
      "constant": true,
      "inputs": [
        {
          "name": "",
          "type": "uint256"
        }
      ],
      "name": "approvedTokens",
      "outputs": [
        {
          "name": "name",
          "type": "string"
        },
        {
          "name": "symbol",
          "type": "string"
        },
        {
          "name": "decimals",
          "type": "uint8"
        },
        {
          "name": "feePercent",
          "type": "uint256"
        },
        {
          "name": "ethFeePercent",
          "type": "uint256"
        },
        {
          "name": "WTokenSaleFeePercent",
          "type": "uint256"
        },
        {
          "name": "trancheFeePercent",
          "type": "uint256"
        },
        {
          "name": "crowdsaleAddress",
          "type": "address"
        },
        {
          "name": "tokensForSaleAmount",
          "type": "uint256"
        },
        {
          "name": "wTokensIssuedAmount",
          "type": "uint256"
        },
        {
          "name": "tokenAddress",
          "type": "address"
        }
      ],
      "payable": false,
      "stateMutability": "view",
      "type": "function"
    },
    {
      "constant": true,
      "inputs": [],
      "name": "ledger",
      "outputs": [
        {
          "name": "",
          "type": "address"
        }
      ],
      "payable": false,
      "stateMutability": "view",
      "type": "function"
    },
    {
      "constant": true,
      "inputs": [],
      "name": "serviceWallet",
      "outputs": [
        {
          "name": "",
          "type": "address"
        }
      ],
      "payable": false,
      "stateMutability": "view",
      "type": "function"
    },
    {
      "constant": false,
      "inputs": [],
      "name": "renounceOwnership",
      "outputs": [],
      "payable": false,
      "stateMutability": "nonpayable",
      "type": "function"
    },
    {
      "constant": true,
      "inputs": [],
      "name": "swap",
      "outputs": [
        {
          "name": "",
          "type": "address"
        }
      ],
      "payable": false,
      "stateMutability": "view",
      "type": "function"
    },
    {
      "constant": true,
      "inputs": [],
      "name": "owner",
      "outputs": [
        {
          "name": "",
          "type": "address"
        }
      ],
      "payable": false,
      "stateMutability": "view",
      "type": "function"
    },
    {
      "constant": true,
      "inputs": [],
      "name": "approvedTokensLength",
      "outputs": [
        {
          "name": "",
          "type": "uint16"
        }
      ],
      "payable": false,
      "stateMutability": "view",
      "type": "function"
    },
    {
      "constant": true,
      "inputs": [],
      "name": "factory",
      "outputs": [
        {
          "name": "",
          "type": "address"
        }
      ],
      "payable": false,
      "stateMutability": "view",
      "type": "function"
    },
    {
      "constant": true,
      "inputs": [
        {
          "name": "",
          "type": "address"
        },
        {
          "name": "",
          "type": "address"
        }
      ],
      "name": "approvedTokensIndex",
      "outputs": [
        {
          "name": "",
          "type": "uint16"
        }
      ],
      "payable": false,
      "stateMutability": "view",
      "type": "function"
    },
    {
      "constant": false,
      "inputs": [
        {
          "name": "_newOwner",
          "type": "address"
        }
      ],
      "name": "transferOwnership",
      "outputs": [],
      "payable": false,
      "stateMutability": "nonpayable",
      "type": "function"
    },
    {
      "inputs": [
        {
          "name": "_serviceWallet",
          "type": "address"
        },
        {
          "name": "_factory",
          "type": "address"
        },
        {
          "name": "_ledger",
          "type": "address"
        },
        {
          "name": "_swap",
          "type": "address"
        }
      ],
      "payable": false,
      "stateMutability": "nonpayable",
      "type": "constructor"
    },
    {
      "anonymous": false,
      "inputs": [
        {
          "indexed": true,
          "name": "tokenAddress",
          "type": "address"
        },
        {
          "indexed": true,
          "name": "tokenOwner",
          "type": "address"
        },
        {
          "indexed": false,
          "name": "name",
          "type": "string"
        },
        {
          "indexed": false,
          "name": "symbol",
          "type": "string"
        }
      ],
      "name": "OwnerWhitelisted",
      "type": "event"
    },
    {
      "anonymous": false,
      "inputs": [
        {
          "indexed": true,
          "name": "originalTokenAddress",
          "type": "address"
        },
        {
          "indexed": true,
          "name": "tokenOwner",
          "type": "address"
        },
        {
          "indexed": false,
          "name": "tokenAmount",
          "type": "uint256"
        },
        {
          "indexed": false,
          "name": "placedTokenAddress",
          "type": "address"
        }
      ],
      "name": "TokenPlaced",
      "type": "event"
    },
    {
      "anonymous": false,
      "inputs": [
        {
          "indexed": true,
          "name": "tokenAddress",
          "type": "address"
        },
        {
          "indexed": true,
          "name": "tokenOwner",
          "type": "address"
        },
        {
          "indexed": false,
          "name": "amountForSale",
          "type": "uint256"
        }
      ],
      "name": "CrowdsaleInitialized",
      "type": "event"
    },
    {
      "anonymous": false,
      "inputs": [
        {
          "indexed": true,
          "name": "tokenAddress",
          "type": "address"
        },
        {
          "indexed": true,
          "name": "tokenOwner",
          "type": "address"
        },
        {
          "indexed": false,
          "name": "amount",
          "type": "uint256"
        }
      ],
      "name": "CrowdsaleTokenMinted",
      "type": "event"
    },
    {
      "anonymous": false,
      "inputs": [
        {
          "indexed": true,
          "name": "previousOwner",
          "type": "address"
        }
      ],
      "name": "OwnershipRenounced",
      "type": "event"
    },
    {
      "anonymous": false,
      "inputs": [
        {
          "indexed": true,
          "name": "previousOwner",
          "type": "address"
        },
        {
          "indexed": true,
          "name": "newOwner",
          "type": "address"
        }
      ],
      "name": "OwnershipTransferred",
      "type": "event"
    },
    {
      "constant": false,
      "inputs": [
        {
          "name": "tokenOwner",
          "type": "address"
        },
        {
          "name": "tokenAddress",
          "type": "address"
        },
        {
          "name": "name",
          "type": "string"
        },
        {
          "name": "symbol",
          "type": "string"
        },
        {
          "name": "decimals",
          "type": "uint8"
        },
        {
          "name": "feePercent",
          "type": "uint256"
        },
        {
          "name": "ethFeePercent",
          "type": "uint256"
        },
        {
          "name": "WTokenSaleFeePercent",
          "type": "uint256"
        },
        {
          "name": "trancheFeePercent",
          "type": "uint256"
        }
      ],
      "name": "whitelistToken",
      "outputs": [],
      "payable": false,
      "stateMutability": "nonpayable",
      "type": "function"
    },
    {
      "constant": false,
      "inputs": [
        {
          "name": "tokenAddress",
          "type": "address"
        },
        {
          "name": "amount",
          "type": "uint256"
        }
      ],
      "name": "placeToken",
      "outputs": [],
      "payable": false,
      "stateMutability": "nonpayable",
      "type": "function"
    },
    {
      "constant": false,
      "inputs": [
        {
          "name": "tokenAddress",
          "type": "address"
        },
        {
          "name": "amountForSale",
          "type": "uint256"
        },
        {
          "name": "price",
          "type": "uint256"
        }
      ],
      "name": "initCrowdsale",
      "outputs": [],
      "payable": false,
      "stateMutability": "nonpayable",
      "type": "function"
    },
    {
      "constant": false,
      "inputs": [
        {
          "name": "tokenAddress",
          "type": "address"
        },
        {
          "name": "amountForSale",
          "type": "uint256"
        }
      ],
      "name": "addTokensToCrowdsale",
      "outputs": [],
      "payable": false,
      "stateMutability": "nonpayable",
      "type": "function"
    },
    {
      "constant": true,
      "inputs": [
        {
          "name": "tokenAddress",
          "type": "address"
        },
        {
          "name": "ownerAddress",
          "type": "address"
        }
      ],
      "name": "getTokenCrowdsale",
      "outputs": [
        {
          "name": "",
          "type": "address"
        }
      ],
      "payable": false,
      "stateMutability": "view",
      "type": "function"
    },
    {
      "constant": true,
      "inputs": [
        {
          "name": "token",
          "type": "address"
        }
      ],
      "name": "getTokenOwners",
      "outputs": [
        {
          "name": "",
          "type": "address[]"
        }
      ],
      "payable": false,
      "stateMutability": "view",
      "type": "function"
    },
    {
      "constant": true,
      "inputs": [],
      "name": "getSwap",
      "outputs": [
        {
          "name": "",
          "type": "address"
        }
      ],
      "payable": false,
      "stateMutability": "view",
      "type": "function"
    }
  ],
  "bytecode": "0x6080604052600180553480156200001557600080fd5b5060405160808062005d9483398101806040528101908080519060200190929190805190602001909291908051906020019092919080519060200190929190505050336000806101000a81548173ffffffffffffffffffffffffffffffffffffffff021916908373ffffffffffffffffffffffffffffffffffffffff160217905550600073ffffffffffffffffffffffffffffffffffffffff168473ffffffffffffffffffffffffffffffffffffffff1614151515620000d457600080fd5b600073ffffffffffffffffffffffffffffffffffffffff168373ffffffffffffffffffffffffffffffffffffffff16141515156200011157600080fd5b600073ffffffffffffffffffffffffffffffffffffffff168273ffffffffffffffffffffffffffffffffffffffff16141515156200014e57600080fd5b600073ffffffffffffffffffffffffffffffffffffffff168173ffffffffffffffffffffffffffffffffffffffff16141515156200018b57600080fd5b81600660006101000a81548173ffffffffffffffffffffffffffffffffffffffff021916908373ffffffffffffffffffffffffffffffffffffffff16021790555080600560026101000a81548173ffffffffffffffffffffffffffffffffffffffff021916908373ffffffffffffffffffffffffffffffffffffffff16021790555083600760006101000a81548173ffffffffffffffffffffffffffffffffffffffff021916908373ffffffffffffffffffffffffffffffffffffffff16021790555082600860006101000a81548173ffffffffffffffffffffffffffffffffffffffff021916908373ffffffffffffffffffffffffffffffffffffffff16021790555060038054809190600101620002a59190620002b0565b505050505062000431565b815481835581811115620002e057600c0281600c028360005260206000209182019101620002df9190620002e5565b5b505050565b620003ba91905b80821115620003b65760008082016000620003089190620003bd565b6001820160006200031a9190620003bd565b6002820160006101000a81549060ff021916905560048201600090556005820160009055600682016000905560078201600090556008820160006101000a81549073ffffffffffffffffffffffffffffffffffffffff02191690556009820160009055600a820160009055600b820160006101000a81549073ffffffffffffffffffffffffffffffffffffffff021916905550600c01620002ec565b5090565b90565b50805460018160011615610100020316600290046000825580601f10620003e5575062000406565b601f01602090049060005260206000209081019062000405919062000409565b5b50565b6200042e91905b808211156200042a57600081600090555060010162000410565b5090565b90565b61595380620004416000396000f30060806040526004361062000103576000357c0100000000000000000000000000000000000000000000000000000000900463ffffffff16806309363c9914620001085780631dafede0146200016257806334cf82bf146200031a5780633f3466a714620003e557806349b010ab146200048b57806356397c3514620004e55780635641f3c3146200053f57806368dce9321462000599578063715018a614620005e95780638119c0651462000603578063849072b9146200065d5780638da5cb5b14620006fa5780639cf96e2e1462000754578063a41ffd38146200078a578063c45a015514620007da578063cca89d731462000834578063f2fde38b14620008b6575b600080fd5b3480156200011557600080fd5b5062000160600480360381019080803573ffffffffffffffffffffffffffffffffffffffff1690602001909291908035906020019092919080359060200190929190505050620008fc565b005b3480156200016f57600080fd5b5062000190600480360381019080803590602001909291905050506200109c565b6040518080602001806020018c60ff1660ff1681526020018b81526020018a81526020018981526020018881526020018773ffffffffffffffffffffffffffffffffffffffff1673ffffffffffffffffffffffffffffffffffffffff1681526020018681526020018581526020018473ffffffffffffffffffffffffffffffffffffffff1673ffffffffffffffffffffffffffffffffffffffff16815260200183810383528e818151815260200191508051906020019080838360005b838110156200026a5780820151818401526020810190506200024d565b50505050905090810190601f168015620002985780820380516001836020036101000a031916815260200191505b5083810382528d818151815260200191508051906020019080838360005b83811015620002d3578082015181840152602081019050620002b6565b50505050905090810190601f168015620003015780820380516001836020036101000a031916815260200191505b509d505050505050505050505050505060405180910390f35b3480156200032757600080fd5b50620003e3600480360381019080803573ffffffffffffffffffffffffffffffffffffffff169060200190929190803573ffffffffffffffffffffffffffffffffffffffff169060200190929190803590602001908201803590602001919091929391929390803590602001908201803590602001919091929391929390803560ff169060200190929190803590602001909291908035906020019092919080359060200190929190803590602001909291905050506200128b565b005b348015620003f257600080fd5b5062000449600480360381019080803573ffffffffffffffffffffffffffffffffffffffff169060200190929190803573ffffffffffffffffffffffffffffffffffffffff16906020019092919050505062001943565b604051808273ffffffffffffffffffffffffffffffffffffffff1673ffffffffffffffffffffffffffffffffffffffff16815260200191505060405180910390f35b3480156200049857600080fd5b50620004a36200197d565b604051808273ffffffffffffffffffffffffffffffffffffffff1673ffffffffffffffffffffffffffffffffffffffff16815260200191505060405180910390f35b348015620004f257600080fd5b50620004fd620019a7565b604051808273ffffffffffffffffffffffffffffffffffffffff1673ffffffffffffffffffffffffffffffffffffffff16815260200191505060405180910390f35b3480156200054c57600080fd5b5062000557620019cd565b604051808273ffffffffffffffffffffffffffffffffffffffff1673ffffffffffffffffffffffffffffffffffffffff16815260200191505060405180910390f35b348015620005a657600080fd5b50620005e7600480360381019080803573ffffffffffffffffffffffffffffffffffffffff16906020019092919080359060200190929190505050620019f3565b005b348015620005f657600080fd5b506200060162002664565b005b3480156200061057600080fd5b506200061b62002767565b604051808273ffffffffffffffffffffffffffffffffffffffff1673ffffffffffffffffffffffffffffffffffffffff16815260200191505060405180910390f35b3480156200066a57600080fd5b50620006a1600480360381019080803573ffffffffffffffffffffffffffffffffffffffff1690602001909291905050506200278d565b6040518080602001828103825283818151815260200191508051906020019060200280838360005b83811015620006e6578082015181840152602081019050620006c9565b505050509050019250505060405180910390f35b3480156200070757600080fd5b50620007126200285c565b604051808273ffffffffffffffffffffffffffffffffffffffff1673ffffffffffffffffffffffffffffffffffffffff16815260200191505060405180910390f35b3480156200076157600080fd5b506200076c62002881565b604051808261ffff1661ffff16815260200191505060405180910390f35b3480156200079757600080fd5b50620007d8600480360381019080803573ffffffffffffffffffffffffffffffffffffffff1690602001909291908035906020019092919050505062002895565b005b348015620007e757600080fd5b50620007f262002c83565b604051808273ffffffffffffffffffffffffffffffffffffffff1673ffffffffffffffffffffffffffffffffffffffff16815260200191505060405180910390f35b3480156200084157600080fd5b5062000898600480360381019080803573ffffffffffffffffffffffffffffffffffffffff169060200190929190803573ffffffffffffffffffffffffffffffffffffffff16906020019092919050505062002ca9565b604051808261ffff1661ffff16815260200191505060405180910390f35b348015620008c357600080fd5b50620008fa600480360381019080803573ffffffffffffffffffffffffffffffffffffffff16906020019092919050505062002cd9565b005b60008060006001806000828254019250508190555060015490506001151562000926873362002d43565b60030160003373ffffffffffffffffffffffffffffffffffffffff1673ffffffffffffffffffffffffffffffffffffffff16815260200190815260200160002060009054906101000a900460ff1615151415156200098357600080fd5b620009a78562000994883362002d43565b600a015462002df990919063ffffffff16565b620009b3873362002d43565b6009015410151515620009c557600080fd5b600073ffffffffffffffffffffffffffffffffffffffff16620009e9873362002d43565b60080160009054906101000a900473ffffffffffffffffffffffffffffffffffffffff1673ffffffffffffffffffffffffffffffffffffffff1614151562000a3057600080fd5b600660009054906101000a900473ffffffffffffffffffffffffffffffffffffffff1673ffffffffffffffffffffffffffffffffffffffff1663151f3734876040518263ffffffff167c0100000000000000000000000000000000000000000000000000000000028152600401808273ffffffffffffffffffffffffffffffffffffffff1673ffffffffffffffffffffffffffffffffffffffff168152602001915050602060405180830381600087803b15801562000aee57600080fd5b505af115801562000b03573d6000803e3d6000fd5b505050506040513d602081101562000b1a57600080fd5b81019080805190602001909291905050509250600860009054906101000a900473ffffffffffffffffffffffffffffffffffffffff1673ffffffffffffffffffffffffffffffffffffffff1663aa1322f7878587600760009054906101000a900473ffffffffffffffffffffffffffffffffffffffff1662000b9d8c3362002d43565b6005015462000bad8d3362002d43565b6006015462000bbd8e3362002d43565b60070154600560029054906101000a900473ffffffffffffffffffffffffffffffffffffffff16336040518a63ffffffff167c0100000000000000000000000000000000000000000000000000000000028152600401808a73ffffffffffffffffffffffffffffffffffffffff1673ffffffffffffffffffffffffffffffffffffffff1681526020018973ffffffffffffffffffffffffffffffffffffffff1673ffffffffffffffffffffffffffffffffffffffff1681526020018881526020018773ffffffffffffffffffffffffffffffffffffffff1673ffffffffffffffffffffffffffffffffffffffff1681526020018681526020018581526020018481526020018373ffffffffffffffffffffffffffffffffffffffff1673ffffffffffffffffffffffffffffffffffffffff1681526020018273ffffffffffffffffffffffffffffffffffffffff1673ffffffffffffffffffffffffffffffffffffffff1681526020019950505050505050505050602060405180830381600087803b15801562000d4c57600080fd5b505af115801562000d61573d6000803e3d6000fd5b505050506040513d602081101562000d7857600080fd5b810190808051906020019092919050505091508162000d98873362002d43565b60080160006101000a81548173ffffffffffffffffffffffffffffffffffffffff021916908373ffffffffffffffffffffffffffffffffffffffff1602179055508273ffffffffffffffffffffffffffffffffffffffff1663d88b8676836040518263ffffffff167c0100000000000000000000000000000000000000000000000000000000028152600401808273ffffffffffffffffffffffffffffffffffffffff1673ffffffffffffffffffffffffffffffffffffffff168152602001915050600060405180830381600087803b15801562000e7557600080fd5b505af115801562000e8a573d6000803e3d6000fd5b50505050600062000e9c873362002d43565b6006015411156200101257600560029054906101000a900473ffffffffffffffffffffffffffffffffffffffff1673ffffffffffffffffffffffffffffffffffffffff1663e1f21c67878462000f1a62000ef78b3362002d43565b6006015462000f078c3362002d43565b6009015462002e1b90919063ffffffff16565b6040518463ffffffff167c0100000000000000000000000000000000000000000000000000000000028152600401808473ffffffffffffffffffffffffffffffffffffffff1673ffffffffffffffffffffffffffffffffffffffff1681526020018373ffffffffffffffffffffffffffffffffffffffff1673ffffffffffffffffffffffffffffffffffffffff1681526020018281526020019350505050602060405180830381600087803b15801562000fd357600080fd5b505af115801562000fe8573d6000803e3d6000fd5b505050506040513d602081101562000fff57600080fd5b8101908080519060200190929190505050505b6200101e868662002895565b3373ffffffffffffffffffffffffffffffffffffffff168673ffffffffffffffffffffffffffffffffffffffff167f824239e216016c403265447935e88cc521189d5e9a52754e5c2a16f7436281dc876040518082815260200191505060405180910390a3600154811415156200109457600080fd5b505050505050565b600381815481101515620010ac57fe5b90600052602060002090600c0201600091509050806000018054600181600116156101000203166002900480601f0160208091040260200160405190810160405280929190818152602001828054600181600116156101000203166002900480156200115c5780601f1062001130576101008083540402835291602001916200115c565b820191906000526020600020905b8154815290600101906020018083116200113e57829003601f168201915b505050505090806001018054600181600116156101000203166002900480601f016020809104026020016040519081016040528092919081815260200182805460018160011615610100020316600290048015620011fe5780601f10620011d257610100808354040283529160200191620011fe565b820191906000526020600020905b815481529060010190602001808311620011e057829003601f168201915b5050505050908060020160009054906101000a900460ff16908060040154908060050154908060060154908060070154908060080160009054906101000a900473ffffffffffffffffffffffffffffffffffffffff169080600901549080600a01549080600b0160009054906101000a900473ffffffffffffffffffffffffffffffffffffffff1690508b565b60008060009054906101000a900473ffffffffffffffffffffffffffffffffffffffff1673ffffffffffffffffffffffffffffffffffffffff163373ffffffffffffffffffffffffffffffffffffffff16141515620012e957600080fd5b600073ffffffffffffffffffffffffffffffffffffffff168c73ffffffffffffffffffffffffffffffffffffffff16141515156200132657600080fd5b600073ffffffffffffffffffffffffffffffffffffffff168b73ffffffffffffffffffffffffffffffffffffffff16141515156200136357600080fd5b6200136e8562002e67565b80156200138557506064620013838662002e83565b105b15156200139157600080fd5b6200139c8462002e67565b8015620013b357506064620013b18562002e83565b105b1515620013bf57600080fd5b620013ca8362002e67565b8015620013e157506064620013df8462002e83565b105b1515620013ed57600080fd5b620013f88262002e67565b80156200140f575060646200140d8362002e83565b105b15156200141b57600080fd5b8a73ffffffffffffffffffffffffffffffffffffffff166200143e8c8e62002d43565b600b0160009054906101000a900473ffffffffffffffffffffffffffffffffffffffff1673ffffffffffffffffffffffffffffffffffffffff16141515156200148657600080fd5b620014928b8d62002d43565b60030160008d73ffffffffffffffffffffffffffffffffffffffff1673ffffffffffffffffffffffffffffffffffffffff16815260200190815260200160002060009054906101000a900460ff16151515620014ed57600080fd5b600380549050905080600260008d73ffffffffffffffffffffffffffffffffffffffff1673ffffffffffffffffffffffffffffffffffffffff16815260200190815260200160002060008e73ffffffffffffffffffffffffffffffffffffffff1673ffffffffffffffffffffffffffffffffffffffff16815260200190815260200160002060006101000a81548161ffff021916908361ffff16021790555060038054809190600101620015a2919062003044565b600560006101000a81548161ffff021916908361ffff160217905550600460008c73ffffffffffffffffffffffffffffffffffffffff1673ffffffffffffffffffffffffffffffffffffffff1681526020019081526020016000208c90806001815401808255809150509060018203906000526020600020016000909192909190916101000a81548173ffffffffffffffffffffffffffffffffffffffff021916908373ffffffffffffffffffffffffffffffffffffffff16021790555050600160038261ffff168154811015156200167757fe5b90600052602060002090600c020160030160008e73ffffffffffffffffffffffffffffffffffffffff1673ffffffffffffffffffffffffffffffffffffffff16815260200190815260200160002060006101000a81548160ff021916908315150217905550898960038361ffff16815481101515620016f257fe5b90600052602060002090600c020160000191906200171292919062003079565b50878760038361ffff168154811015156200172957fe5b90600052602060002090600c020160010191906200174992919062003079565b508560038261ffff168154811015156200175f57fe5b90600052602060002090600c020160020160006101000a81548160ff021916908360ff1602179055508460038261ffff168154811015156200179d57fe5b90600052602060002090600c0201600401819055508360038261ffff16815481101515620017c757fe5b90600052602060002090600c0201600501819055508260038261ffff16815481101515620017f157fe5b90600052602060002090600c0201600601819055508160038261ffff168154811015156200181b57fe5b90600052602060002090600c0201600701819055508a60038261ffff168154811015156200184557fe5b90600052602060002090600c0201600b0160006101000a81548173ffffffffffffffffffffffffffffffffffffffff021916908373ffffffffffffffffffffffffffffffffffffffff1602179055508b73ffffffffffffffffffffffffffffffffffffffff168b73ffffffffffffffffffffffffffffffffffffffff167fd3bb7a0fd3c972c824718e5d4fe7501feb58ebd797223783efbfd1d3085d49438c8c8c8c6040518080602001806020018381038352878782818152602001925080828437820191505083810382528585828181526020019250808284378201915050965050505050505060405180910390a3505050505050505050505050565b600062001951838362002d43565b60080160009054906101000a900473ffffffffffffffffffffffffffffffffffffffff16905092915050565b6000600560029054906101000a900473ffffffffffffffffffffffffffffffffffffffff16905090565b600660009054906101000a900473ffffffffffffffffffffffffffffffffffffffff1681565b600760009054906101000a900473ffffffffffffffffffffffffffffffffffffffff1681565b60008060008060008060008060018060008282540192505081905550600154905060008911151562001a2457600080fd5b600073ffffffffffffffffffffffffffffffffffffffff168a73ffffffffffffffffffffffffffffffffffffffff161415151562001a6157600080fd5b8973ffffffffffffffffffffffffffffffffffffffff1662001a848b3362002d43565b600b0160009054906101000a900473ffffffffffffffffffffffffffffffffffffffff1673ffffffffffffffffffffffffffffffffffffffff1614151562001acb57600080fd5b62001ad78a3362002d43565b60030160003373ffffffffffffffffffffffffffffffffffffffff1673ffffffffffffffffffffffffffffffffffffffff16815260200190815260200160002060009054906101000a900460ff16151562001b3157600080fd5b62001b3d8a3362002d43565b97508996508673ffffffffffffffffffffffffffffffffffffffff166370a08231600560029054906101000a900473ffffffffffffffffffffffffffffffffffffffff166040518263ffffffff167c0100000000000000000000000000000000000000000000000000000000028152600401808273ffffffffffffffffffffffffffffffffffffffff1673ffffffffffffffffffffffffffffffffffffffff168152602001915050602060405180830381600087803b15801562001c0057600080fd5b505af115801562001c15573d6000803e3d6000fd5b505050506040513d602081101562001c2c57600080fd5b81019080805190602001909291905050509550600088600401541162001c5457600062001c6e565b62001c6d88600401548a62002e1b90919063ffffffff16565b5b94508760020160009054906101000a900460ff1660ff168773ffffffffffffffffffffffffffffffffffffffff1663313ce5676040518163ffffffff167c0100000000000000000000000000000000000000000000000000000000028152600401602060405180830381600087803b15801562001cea57600080fd5b505af115801562001cff573d6000803e3d6000fd5b505050506040513d602081101562001d1657600080fd5b810190808051906020019092919050505060ff1614151562001d3757600080fd5b62001d4c858a62002eb990919063ffffffff16565b935062001d6784896009015462002df990919063ffffffff16565b62001d738b3362002d43565b600901819055508673ffffffffffffffffffffffffffffffffffffffff166323b872dd33600560029054906101000a900473ffffffffffffffffffffffffffffffffffffffff16876040518463ffffffff167c0100000000000000000000000000000000000000000000000000000000028152600401808473ffffffffffffffffffffffffffffffffffffffff1673ffffffffffffffffffffffffffffffffffffffff1681526020018373ffffffffffffffffffffffffffffffffffffffff1673ffffffffffffffffffffffffffffffffffffffff1681526020018281526020019350505050602060405180830381600087803b15801562001e7457600080fd5b505af115801562001e89573d6000803e3d6000fd5b505050506040513d602081101562001ea057600080fd5b8101908080519060200190929190505050508673ffffffffffffffffffffffffffffffffffffffff166323b872dd33600760009054906101000a900473ffffffffffffffffffffffffffffffffffffffff16886040518463ffffffff167c0100000000000000000000000000000000000000000000000000000000028152600401808473ffffffffffffffffffffffffffffffffffffffff1673ffffffffffffffffffffffffffffffffffffffff1681526020018373ffffffffffffffffffffffffffffffffffffffff1673ffffffffffffffffffffffffffffffffffffffff1681526020018281526020019350505050602060405180830381600087803b15801562001fac57600080fd5b505af115801562001fc1573d6000803e3d6000fd5b505050506040513d602081101562001fd857600080fd5b8101908080519060200190929190505050508673ffffffffffffffffffffffffffffffffffffffff166370a08231600560029054906101000a900473ffffffffffffffffffffffffffffffffffffffff166040518263ffffffff167c0100000000000000000000000000000000000000000000000000000000028152600401808273ffffffffffffffffffffffffffffffffffffffff1673ffffffffffffffffffffffffffffffffffffffff168152602001915050602060405180830381600087803b158015620020a857600080fd5b505af1158015620020bd573d6000803e3d6000fd5b505050506040513d6020811015620020d457600080fd5b81019080805190602001909291905050509250620020fc848762002df990919063ffffffff16565b831415156200210a57600080fd5b600073ffffffffffffffffffffffffffffffffffffffff16600660009054906101000a900473ffffffffffffffffffffffffffffffffffffffff1673ffffffffffffffffffffffffffffffffffffffff1663151f37348c6040518263ffffffff167c0100000000000000000000000000000000000000000000000000000000028152600401808273ffffffffffffffffffffffffffffffffffffffff1673ffffffffffffffffffffffffffffffffffffffff168152602001915050602060405180830381600087803b158015620021e057600080fd5b505af1158015620021f5573d6000803e3d6000fd5b505050506040513d60208110156200220c57600080fd5b810190808051906020019092919050505073ffffffffffffffffffffffffffffffffffffffff161415620024b45787600001886001018960020160009054906101000a900460ff166200225e62003100565b8080602001806020018460ff1660ff168152602001838103835286818154600181600116156101000203166002900481526020019150805460018160011615610100020316600290048015620022f85780601f10620022cc57610100808354040283529160200191620022f8565b820191906000526020600020905b815481529060010190602001808311620022da57829003601f168201915b50508381038252858181546001816001161561010002031660029004815260200191508054600181600116156101000203166002900480156200237f5780601f1062002353576101008083540402835291602001916200237f565b820191906000526020600020905b8154815290600101906020018083116200236157829003601f168201915b505095505050505050604051809103906000f080158015620023a5573d6000803e3d6000fd5b509150600660009054906101000a900473ffffffffffffffffffffffffffffffffffffffff1673ffffffffffffffffffffffffffffffffffffffff1663a07369128b846040518363ffffffff167c0100000000000000000000000000000000000000000000000000000000028152600401808373ffffffffffffffffffffffffffffffffffffffff1673ffffffffffffffffffffffffffffffffffffffff1681526020018273ffffffffffffffffffffffffffffffffffffffff1673ffffffffffffffffffffffffffffffffffffffff16815260200192505050600060405180830381600087803b1580156200249a57600080fd5b505af1158015620024af573d6000803e3d6000fd5b505050505b3373ffffffffffffffffffffffffffffffffffffffff168a73ffffffffffffffffffffffffffffffffffffffff167f2b11dc5f6b2036a3d03d04c1e89724a8650507582665455ed7154b544f3e3c4f86600660009054906101000a900473ffffffffffffffffffffffffffffffffffffffff1673ffffffffffffffffffffffffffffffffffffffff1663151f37348f6040518263ffffffff167c0100000000000000000000000000000000000000000000000000000000028152600401808273ffffffffffffffffffffffffffffffffffffffff1673ffffffffffffffffffffffffffffffffffffffff168152602001915050602060405180830381600087803b158015620025c257600080fd5b505af1158015620025d7573d6000803e3d6000fd5b505050506040513d6020811015620025ee57600080fd5b8101908080519060200190929190505050604051808381526020018273ffffffffffffffffffffffffffffffffffffffff1673ffffffffffffffffffffffffffffffffffffffff1681526020019250505060405180910390a3600154811415156200265857600080fd5b50505050505050505050565b6000809054906101000a900473ffffffffffffffffffffffffffffffffffffffff1673ffffffffffffffffffffffffffffffffffffffff163373ffffffffffffffffffffffffffffffffffffffff16141515620026c057600080fd5b6000809054906101000a900473ffffffffffffffffffffffffffffffffffffffff1673ffffffffffffffffffffffffffffffffffffffff167ff8df31144d9c2f0f6b59d69b8b98abd5459d07f2742c4df920b25aae33c6482060405160405180910390a260008060006101000a81548173ffffffffffffffffffffffffffffffffffffffff021916908373ffffffffffffffffffffffffffffffffffffffff160217905550565b600560029054906101000a900473ffffffffffffffffffffffffffffffffffffffff1681565b6060600460008373ffffffffffffffffffffffffffffffffffffffff1673ffffffffffffffffffffffffffffffffffffffff1681526020019081526020016000208054806020026020016040519081016040528092919081815260200182805480156200285057602002820191906000526020600020905b8160009054906101000a900473ffffffffffffffffffffffffffffffffffffffff1673ffffffffffffffffffffffffffffffffffffffff168152602001906001019080831162002805575b50505050509050919050565b6000809054906101000a900473ffffffffffffffffffffffffffffffffffffffff1681565b600560009054906101000a900461ffff1681565b60008060011515620028a8853362002d43565b60030160003373ffffffffffffffffffffffffffffffffffffffff1673ffffffffffffffffffffffffffffffffffffffff16815260200190815260200160002060009054906101000a900460ff1615151415156200290557600080fd5b620029298362002916863362002d43565b600a015462002df990919063ffffffff16565b62002935853362002d43565b60090154101515156200294757600080fd5b600660009054906101000a900473ffffffffffffffffffffffffffffffffffffffff1673ffffffffffffffffffffffffffffffffffffffff1663151f3734856040518263ffffffff167c0100000000000000000000000000000000000000000000000000000000028152600401808273ffffffffffffffffffffffffffffffffffffffff1673ffffffffffffffffffffffffffffffffffffffff168152602001915050602060405180830381600087803b15801562002a0557600080fd5b505af115801562002a1a573d6000803e3d6000fd5b505050506040513d602081101562002a3157600080fd5b81019080805190602001909291905050509150600073ffffffffffffffffffffffffffffffffffffffff168273ffffffffffffffffffffffffffffffffffffffff161415151562002a8157600080fd5b62002a8d843362002d43565b60080160009054906101000a900473ffffffffffffffffffffffffffffffffffffffff169050600073ffffffffffffffffffffffffffffffffffffffff168173ffffffffffffffffffffffffffffffffffffffff161415151562002af057600080fd5b62002b148362002b01863362002d43565b600a015462002df990919063ffffffff16565b62002b20853362002d43565b600a01819055508173ffffffffffffffffffffffffffffffffffffffff1663d0047acf828560006040518463ffffffff167c0100000000000000000000000000000000000000000000000000000000028152600401808473ffffffffffffffffffffffffffffffffffffffff1673ffffffffffffffffffffffffffffffffffffffff1681526020018381526020018263ffffffff1681526020019350505050602060405180830381600087803b15801562002bda57600080fd5b505af115801562002bef573d6000803e3d6000fd5b505050506040513d602081101562002c0657600080fd5b8101908080519060200190929190505050503373ffffffffffffffffffffffffffffffffffffffff168473ffffffffffffffffffffffffffffffffffffffff167f9a2331701430ef95fa157fc5598820b278d8225e8a51263887abb0e1e2b06d97856040518082815260200191505060405180910390a350505050565b600860009054906101000a900473ffffffffffffffffffffffffffffffffffffffff1681565b60026020528160005260406000206020528060005260406000206000915091509054906101000a900461ffff1681565b6000809054906101000a900473ffffffffffffffffffffffffffffffffffffffff1673ffffffffffffffffffffffffffffffffffffffff163373ffffffffffffffffffffffffffffffffffffffff1614151562002d3557600080fd5b62002d408162002edb565b50565b60006003600260008573ffffffffffffffffffffffffffffffffffffffff1673ffffffffffffffffffffffffffffffffffffffff16815260200190815260200160002060008473ffffffffffffffffffffffffffffffffffffffff1673ffffffffffffffffffffffffffffffffffffffff16815260200190815260200160002060009054906101000a900461ffff1661ffff1681548110151562002de357fe5b90600052602060002090600c0201905092915050565b600080828401905083811015151562002e1157600080fd5b8091505092915050565b600062002e288262002e67565b151562002e3457600080fd5b62002e5f61271062002e50848662002fd690919063ffffffff16565b6200301890919063ffffffff16565b905092915050565b600080821015801562002e7c57506127108211155b9050919050565b600062002e908262002e67565b151562002e9c57600080fd5b62002eb26064836200301890919063ffffffff16565b9050919050565b60008083831115151562002ecc57600080fd5b82840390508091505092915050565b600073ffffffffffffffffffffffffffffffffffffffff168173ffffffffffffffffffffffffffffffffffffffff161415151562002f1857600080fd5b8073ffffffffffffffffffffffffffffffffffffffff166000809054906101000a900473ffffffffffffffffffffffffffffffffffffffff1673ffffffffffffffffffffffffffffffffffffffff167f8be0079c531659141344cd1fd0a4f28419497f9722a3daafe3b4186f6b6457e060405160405180910390a3806000806101000a81548173ffffffffffffffffffffffffffffffffffffffff021916908373ffffffffffffffffffffffffffffffffffffffff16021790555050565b600080600084141562002fed576000915062003011565b828402905082848281151562002fff57fe5b041415156200300d57600080fd5b8091505b5092915050565b6000806000831115156200302b57600080fd5b82848115156200303757fe5b0490508091505092915050565b8154818355818111156200307457600c0281600c02836000526020600020918201910162003073919062003111565b5b505050565b828054600181600116156101000203166002900490600052602060002090601f016020900481019282601f10620030bc57803560ff1916838001178555620030ed565b82800160010185558215620030ed579182015b82811115620030ec578235825591602001919060010190620030cf565b5b509050620030fc9190620031e9565b5090565b6040516126ca806200325e83390190565b620031e691905b80821115620031e2576000808201600062003134919062003211565b60018201600062003146919062003211565b6002820160006101000a81549060ff021916905560048201600090556005820160009055600682016000905560078201600090556008820160006101000a81549073ffffffffffffffffffffffffffffffffffffffff02191690556009820160009055600a820160009055600b820160006101000a81549073ffffffffffffffffffffffffffffffffffffffff021916905550600c0162003118565b5090565b90565b6200320e91905b808211156200320a576000816000905550600101620031f0565b5090565b90565b50805460018160011615610100020316600290046000825580601f106200323957506200325a565b601f016020900490600052602060002090810190620032599190620031e9565b5b50560060806040523480156200001157600080fd5b50604051620026ca380380620026ca83398101806040528101908080518201929190602001805182019291906020018051906020019092919050505082828282600090805190602001906200006892919062000142565b5081600190805190602001906200008192919062000142565b5080600260006101000a81548160ff021916908360ff16021790555050505033600260016101000a81548173ffffffffffffffffffffffffffffffffffffffff021916908373ffffffffffffffffffffffffffffffffffffffff1602179055506001600860003373ffffffffffffffffffffffffffffffffffffffff1673ffffffffffffffffffffffffffffffffffffffff16815260200190815260200160002060006101000a81548160ff021916908315150217905550505050620001f1565b828054600181600116156101000203166002900490600052602060002090601f016020900481019282601f106200018557805160ff1916838001178555620001b6565b82800160010185558215620001b6579182015b82811115620001b557825182559160200191906001019062000198565b5b509050620001c59190620001c9565b5090565b620001ee91905b80821115620001ea576000816000905550600101620001d0565b5090565b90565b6124c980620002016000396000f300608060405260043610610133576000357c0100000000000000000000000000000000000000000000000000000000900463ffffffff16806306fdde0314610145578063095ea7b3146101d557806318160ddd1461023a57806323b872dd1461026557806327e235e3146102ea578063313ce5671461034157806342966c68146103725780634afbf5ee1461039f578063661884631461040057806370a0823114610465578063715018a6146104bc57806379cc6790146104d35780638da5cb5b1461052057806395d89b41146105775780639d2e477714610607578063a9059cbb1461067c578063ba0e0f5e146106e1578063d0047acf14610724578063d294cb0f14610799578063d73dd623146107f0578063d88b867614610855578063dd62ed3e14610898578063f2fde38b1461090f575b34801561013f57600080fd5b50600080fd5b34801561015157600080fd5b5061015a610952565b6040518080602001828103825283818151815260200191508051906020019080838360005b8381101561019a57808201518184015260208101905061017f565b50505050905090810190601f1680156101c75780820380516001836020036101000a031916815260200191505b509250505060405180910390f35b3480156101e157600080fd5b50610220600480360381019080803573ffffffffffffffffffffffffffffffffffffffff169060200190929190803590602001909291905050506109f0565b604051808215151515815260200191505060405180910390f35b34801561024657600080fd5b5061024f610ae2565b6040518082815260200191505060405180910390f35b34801561027157600080fd5b506102d0600480360381019080803573ffffffffffffffffffffffffffffffffffffffff169060200190929190803573ffffffffffffffffffffffffffffffffffffffff16906020019092919080359060200190929190505050610aec565b604051808215151515815260200191505060405180910390f35b3480156102f657600080fd5b5061032b600480360381019080803573ffffffffffffffffffffffffffffffffffffffff169060200190929190505050610d69565b6040518082815260200191505060405180910390f35b34801561034d57600080fd5b50610356610d81565b604051808260ff1660ff16815260200191505060405180910390f35b34801561037e57600080fd5b5061039d60048036038101908080359060200190929190505050610d94565b005b3480156103ab57600080fd5b506103ea600480360381019080803573ffffffffffffffffffffffffffffffffffffffff16906020019092919080359060200190929190505050610da1565b6040518082815260200191505060405180910390f35b34801561040c57600080fd5b5061044b600480360381019080803573ffffffffffffffffffffffffffffffffffffffff16906020019092919080359060200190929190505050610dc6565b604051808215151515815260200191505060405180910390f35b34801561047157600080fd5b506104a6600480360381019080803573ffffffffffffffffffffffffffffffffffffffff169060200190929190505050611048565b6040518082815260200191505060405180910390f35b3480156104c857600080fd5b506104d1611091565b005b3480156104df57600080fd5b5061051e600480360381019080803573ffffffffffffffffffffffffffffffffffffffff16906020019092919080359060200190929190505050611196565b005b34801561052c57600080fd5b506105356112b9565b604051808273ffffffffffffffffffffffffffffffffffffffff1673ffffffffffffffffffffffffffffffffffffffff16815260200191505060405180910390f35b34801561058357600080fd5b5061058c6112df565b6040518080602001828103825283818151815260200191508051906020019080838360005b838110156105cc5780820151818401526020810190506105b1565b50505050905090810190601f1680156105f95780820380516001836020036101000a031916815260200191505b509250505060405180910390f35b34801561061357600080fd5b50610662600480360381019080803573ffffffffffffffffffffffffffffffffffffffff16906020019092919080359060200190929190803563ffffffff16906020019092919050505061137d565b604051808215151515815260200191505060405180910390f35b34801561068857600080fd5b506106c7600480360381019080803573ffffffffffffffffffffffffffffffffffffffff169060200190929190803590602001909291905050506114be565b604051808215151515815260200191505060405180910390f35b3480156106ed57600080fd5b50610722600480360381019080803573ffffffffffffffffffffffffffffffffffffffff169060200190929190505050611625565b005b34801561073057600080fd5b5061077f600480360381019080803573ffffffffffffffffffffffffffffffffffffffff16906020019092919080359060200190929190803563ffffffff1690602001909291905050506116dc565b604051808215151515815260200191505060405180910390f35b3480156107a557600080fd5b506107da600480360381019080803573ffffffffffffffffffffffffffffffffffffffff1690602001909291905050506118ea565b6040518082815260200191505060405180910390f35b3480156107fc57600080fd5b5061083b600480360381019080803573ffffffffffffffffffffffffffffffffffffffff16906020019092919080359060200190929190505050611afb565b604051808215151515815260200191505060405180910390f35b34801561086157600080fd5b50610896600480360381019080803573ffffffffffffffffffffffffffffffffffffffff169060200190929190505050611c72565b005b3480156108a457600080fd5b506108f9600480360381019080803573ffffffffffffffffffffffffffffffffffffffff169060200190929190803573ffffffffffffffffffffffffffffffffffffffff169060200190929190505050611d29565b6040518082815260200191505060405180910390f35b34801561091b57600080fd5b50610950600480360381019080803573ffffffffffffffffffffffffffffffffffffffff169060200190929190505050611db0565b005b60008054600181600116156101000203166002900480601f0160208091040260200160405190810160405280929190818152602001828054600181600116156101000203166002900480156109e85780601f106109bd576101008083540402835291602001916109e8565b820191906000526020600020905b8154815290600101906020018083116109cb57829003601f168201915b505050505081565b600081600360003373ffffffffffffffffffffffffffffffffffffffff1673ffffffffffffffffffffffffffffffffffffffff16815260200190815260200160002060008573ffffffffffffffffffffffffffffffffffffffff1673ffffffffffffffffffffffffffffffffffffffff168152602001908152602001600020819055508273ffffffffffffffffffffffffffffffffffffffff163373ffffffffffffffffffffffffffffffffffffffff167f8c5be1e5ebec7d5bd14f71427d1e84f3dd0314c0f7b2291e5b200ac8c7c3b925846040518082815260200191505060405180910390a36001905092915050565b6000600554905090565b6000610af784611e18565b600073ffffffffffffffffffffffffffffffffffffffff168373ffffffffffffffffffffffffffffffffffffffff1614151515610b3357600080fd5b610b3c846118ea565b8211151515610b4a57600080fd5b600360008573ffffffffffffffffffffffffffffffffffffffff1673ffffffffffffffffffffffffffffffffffffffff16815260200190815260200160002060003373ffffffffffffffffffffffffffffffffffffffff1673ffffffffffffffffffffffffffffffffffffffff168152602001908152602001600020548211151515610bd557600080fd5b81600460008673ffffffffffffffffffffffffffffffffffffffff1673ffffffffffffffffffffffffffffffffffffffff1681526020019081526020016000206000828254039250508190555081600460008573ffffffffffffffffffffffffffffffffffffffff1673ffffffffffffffffffffffffffffffffffffffff1681526020019081526020016000206000828254019250508190555081600360008673ffffffffffffffffffffffffffffffffffffffff1673ffffffffffffffffffffffffffffffffffffffff16815260200190815260200160002060003373ffffffffffffffffffffffffffffffffffffffff1673ffffffffffffffffffffffffffffffffffffffff168152602001908152602001600020600082825403925050819055508273ffffffffffffffffffffffffffffffffffffffff168473ffffffffffffffffffffffffffffffffffffffff167fddf252ad1be2c89b69c2b068fc378daa952ba7f163c4a11628f55a4df523b3ef846040518082815260200191505060405180910390a3600190509392505050565b60046020528060005260406000206000915090505481565b600260009054906101000a900460ff1681565b610d9e33826120e7565b50565b6006602052816000526040600020602052806000526040600020600091509150505481565b600080600360003373ffffffffffffffffffffffffffffffffffffffff1673ffffffffffffffffffffffffffffffffffffffff16815260200190815260200160002060008573ffffffffffffffffffffffffffffffffffffffff1673ffffffffffffffffffffffffffffffffffffffff1681526020019081526020016000205490508083101515610ed8576000600360003373ffffffffffffffffffffffffffffffffffffffff1673ffffffffffffffffffffffffffffffffffffffff16815260200190815260200160002060008673ffffffffffffffffffffffffffffffffffffffff1673ffffffffffffffffffffffffffffffffffffffff16815260200190815260200160002081905550610f5c565b828103600360003373ffffffffffffffffffffffffffffffffffffffff1673ffffffffffffffffffffffffffffffffffffffff16815260200190815260200160002060008673ffffffffffffffffffffffffffffffffffffffff1673ffffffffffffffffffffffffffffffffffffffff168152602001908152602001600020819055505b8373ffffffffffffffffffffffffffffffffffffffff163373ffffffffffffffffffffffffffffffffffffffff167f8c5be1e5ebec7d5bd14f71427d1e84f3dd0314c0f7b2291e5b200ac8c7c3b925600360003373ffffffffffffffffffffffffffffffffffffffff1673ffffffffffffffffffffffffffffffffffffffff16815260200190815260200160002060008873ffffffffffffffffffffffffffffffffffffffff1673ffffffffffffffffffffffffffffffffffffffff168152602001908152602001600020546040518082815260200191505060405180910390a3600191505092915050565b6000600460008373ffffffffffffffffffffffffffffffffffffffff1673ffffffffffffffffffffffffffffffffffffffff168152602001908152602001600020549050919050565b600260019054906101000a900473ffffffffffffffffffffffffffffffffffffffff1673ffffffffffffffffffffffffffffffffffffffff163373ffffffffffffffffffffffffffffffffffffffff161415156110ed57600080fd5b600260019054906101000a900473ffffffffffffffffffffffffffffffffffffffff1673ffffffffffffffffffffffffffffffffffffffff167ff8df31144d9c2f0f6b59d69b8b98abd5459d07f2742c4df920b25aae33c6482060405160405180910390a26000600260016101000a81548173ffffffffffffffffffffffffffffffffffffffff021916908373ffffffffffffffffffffffffffffffffffffffff160217905550565b600360008373ffffffffffffffffffffffffffffffffffffffff1673ffffffffffffffffffffffffffffffffffffffff16815260200190815260200160002060003373ffffffffffffffffffffffffffffffffffffffff1673ffffffffffffffffffffffffffffffffffffffff16815260200190815260200160002054811115151561122157600080fd5b80600360008473ffffffffffffffffffffffffffffffffffffffff1673ffffffffffffffffffffffffffffffffffffffff16815260200190815260200160002060003373ffffffffffffffffffffffffffffffffffffffff1673ffffffffffffffffffffffffffffffffffffffff168152602001908152602001600020600082825403925050819055506112b582826120e7565b5050565b600260019054906101000a900473ffffffffffffffffffffffffffffffffffffffff1681565b60018054600181600116156101000203166002900480601f0160208091040260200160405190810160405280929190818152602001828054600181600116156101000203166002900480156113755780601f1061134a57610100808354040283529160200191611375565b820191906000526020600020905b81548152906001019060200180831161135857829003601f168201915b505050505081565b600033600860008273ffffffffffffffffffffffffffffffffffffffff1673ffffffffffffffffffffffffffffffffffffffff16815260200190815260200160002060009054906101000a900460ff1615156113d857600080fd5b6113e285856114be565b50428363ffffffff161115611405576114046000868563ffffffff168761221c565b5b7f5075049792a88eedfe4e60bb3ffeac77b4fa7f03108b81fb0b460161b983e20033868686604051808573ffffffffffffffffffffffffffffffffffffffff1673ffffffffffffffffffffffffffffffffffffffff1681526020018473ffffffffffffffffffffffffffffffffffffffff1673ffffffffffffffffffffffffffffffffffffffff1681526020018381526020018263ffffffff16815260200194505050505060405180910390a160019150509392505050565b60006114c933611e18565b600073ffffffffffffffffffffffffffffffffffffffff168373ffffffffffffffffffffffffffffffffffffffff161415151561150557600080fd5b61150e336118ea565b821115151561151c57600080fd5b81600460003373ffffffffffffffffffffffffffffffffffffffff1673ffffffffffffffffffffffffffffffffffffffff1681526020019081526020016000206000828254039250508190555081600460008573ffffffffffffffffffffffffffffffffffffffff1673ffffffffffffffffffffffffffffffffffffffff168152602001908152602001600020600082825401925050819055508273ffffffffffffffffffffffffffffffffffffffff163373ffffffffffffffffffffffffffffffffffffffff167fddf252ad1be2c89b69c2b068fc378daa952ba7f163c4a11628f55a4df523b3ef846040518082815260200191505060405180910390a36001905092915050565b600260019054906101000a900473ffffffffffffffffffffffffffffffffffffffff1673ffffffffffffffffffffffffffffffffffffffff163373ffffffffffffffffffffffffffffffffffffffff1614151561168157600080fd5b6000600860008373ffffffffffffffffffffffffffffffffffffffff1673ffffffffffffffffffffffffffffffffffffffff16815260200190815260200160002060006101000a81548160ff02191690831515021790555050565b600033600860008273ffffffffffffffffffffffffffffffffffffffff1673ffffffffffffffffffffffffffffffffffffffff16815260200190815260200160002060009054906101000a900460ff16151561173757600080fd5b600554846005540111151561174b57600080fd5b428363ffffffff16111561176d5761176c6000868563ffffffff168761221c565b5b83600460008773ffffffffffffffffffffffffffffffffffffffff1673ffffffffffffffffffffffffffffffffffffffff16815260200190815260200160002060008282540192505081905550836005600082825401925050819055508473ffffffffffffffffffffffffffffffffffffffff16600073ffffffffffffffffffffffffffffffffffffffff167fddf252ad1be2c89b69c2b068fc378daa952ba7f163c4a11628f55a4df523b3ef866040518082815260200191505060405180910390a37f5075049792a88eedfe4e60bb3ffeac77b4fa7f03108b81fb0b460161b983e2006000868686604051808573ffffffffffffffffffffffffffffffffffffffff1673ffffffffffffffffffffffffffffffffffffffff1681526020018473ffffffffffffffffffffffffffffffffffffffff1673ffffffffffffffffffffffffffffffffffffffff1681526020018381526020018263ffffffff16815260200194505050505060405180910390a160019150509392505050565b600080600460008473ffffffffffffffffffffffffffffffffffffffff1673ffffffffffffffffffffffffffffffffffffffff1681526020019081526020016000205491506000600660008573ffffffffffffffffffffffffffffffffffffffff1673ffffffffffffffffffffffffffffffffffffffff168152602001908152602001600020600080815260200190815260200160002054141561198d57611af5565b600090505b600760008473ffffffffffffffffffffffffffffffffffffffff1673ffffffffffffffffffffffffffffffffffffffff16815260200190815260200160002080549050811015611af45742600760008573ffffffffffffffffffffffffffffffffffffffff1673ffffffffffffffffffffffffffffffffffffffff16815260200190815260200160002082815481101515611a2957fe5b9060005260206000200154101515611ae757600660008473ffffffffffffffffffffffffffffffffffffffff1673ffffffffffffffffffffffffffffffffffffffff1681526020019081526020016000206000600760008673ffffffffffffffffffffffffffffffffffffffff1673ffffffffffffffffffffffffffffffffffffffff16815260200190815260200160002083815481101515611ac857fe5b9060005260206000200154815260200190815260200160002054820391505b8080600101915050611992565b5b50919050565b600081600360003373ffffffffffffffffffffffffffffffffffffffff1673ffffffffffffffffffffffffffffffffffffffff16815260200190815260200160002060008573ffffffffffffffffffffffffffffffffffffffff1673ffffffffffffffffffffffffffffffffffffffff168152602001908152602001600020600082825401925050819055508273ffffffffffffffffffffffffffffffffffffffff163373ffffffffffffffffffffffffffffffffffffffff167f8c5be1e5ebec7d5bd14f71427d1e84f3dd0314c0f7b2291e5b200ac8c7c3b925600360003373ffffffffffffffffffffffffffffffffffffffff1673ffffffffffffffffffffffffffffffffffffffff16815260200190815260200160002060008773ffffffffffffffffffffffffffffffffffffffff1673ffffffffffffffffffffffffffffffffffffffff168152602001908152602001600020546040518082815260200191505060405180910390a36001905092915050565b600260019054906101000a900473ffffffffffffffffffffffffffffffffffffffff1673ffffffffffffffffffffffffffffffffffffffff163373ffffffffffffffffffffffffffffffffffffffff16141515611cce57600080fd5b6001600860008373ffffffffffffffffffffffffffffffffffffffff1673ffffffffffffffffffffffffffffffffffffffff16815260200190815260200160002060006101000a81548160ff02191690831515021790555050565b6000600360008473ffffffffffffffffffffffffffffffffffffffff1673ffffffffffffffffffffffffffffffffffffffff16815260200190815260200160002060008373ffffffffffffffffffffffffffffffffffffffff1673ffffffffffffffffffffffffffffffffffffffff16815260200190815260200160002054905092915050565b600260019054906101000a900473ffffffffffffffffffffffffffffffffffffffff1673ffffffffffffffffffffffffffffffffffffffff163373ffffffffffffffffffffffffffffffffffffffff16141515611e0c57600080fd5b611e15816123a1565b50565b600080600660008473ffffffffffffffffffffffffffffffffffffffff1673ffffffffffffffffffffffffffffffffffffffff1681526020019081526020016000206000808152602001908152602001600020541415611e77576120e3565b600090505b600760008373ffffffffffffffffffffffffffffffffffffffff1673ffffffffffffffffffffffffffffffffffffffff168152602001908152602001600020805490508110156120e25742600760008473ffffffffffffffffffffffffffffffffffffffff1673ffffffffffffffffffffffffffffffffffffffff16815260200190815260200160002082815481101515611f1357fe5b906000526020600020015410156120d557600660008373ffffffffffffffffffffffffffffffffffffffff1673ffffffffffffffffffffffffffffffffffffffff1681526020019081526020016000206000600760008573ffffffffffffffffffffffffffffffffffffffff1673ffffffffffffffffffffffffffffffffffffffff16815260200190815260200160002083815481101515611fb157fe5b9060005260206000200154815260200190815260200160002054600660008473ffffffffffffffffffffffffffffffffffffffff1673ffffffffffffffffffffffffffffffffffffffff1681526020019081526020016000206000808152602001908152602001600020600082825403925050819055506000600660008473ffffffffffffffffffffffffffffffffffffffff1673ffffffffffffffffffffffffffffffffffffffff1681526020019081526020016000206000600760008673ffffffffffffffffffffffffffffffffffffffff1673ffffffffffffffffffffffffffffffffffffffff168152602001908152602001600020848154811015156120b757fe5b90600052602060002001548152602001908152602001600020819055505b8080600101915050611e7c565b5b5050565b6120f082611e18565b6120f9826118ea565b811115151561210757600080fd5b80600460008473ffffffffffffffffffffffffffffffffffffffff1673ffffffffffffffffffffffffffffffffffffffff16815260200190815260200160002060008282540392505081905550806005600082825403925050819055508173ffffffffffffffffffffffffffffffffffffffff167fcc16f5dbb4873280815c1ee09dbd06736cffcc184412cf7a71a0fdb75d397ca5826040518082815260200191505060405180910390a2600073ffffffffffffffffffffffffffffffffffffffff168273ffffffffffffffffffffffffffffffffffffffff167fddf252ad1be2c89b69c2b068fc378daa952ba7f163c4a11628f55a4df523b3ef836040518082815260200191505060405180910390a35050565b80600660008573ffffffffffffffffffffffffffffffffffffffff1673ffffffffffffffffffffffffffffffffffffffff1681526020019081526020016000206000808152602001908152602001600020600082825401925050819055506000600660008573ffffffffffffffffffffffffffffffffffffffff1673ffffffffffffffffffffffffffffffffffffffff168152602001908152602001600020600084815260200190815260200160002054141561233d57600760008473ffffffffffffffffffffffffffffffffffffffff1673ffffffffffffffffffffffffffffffffffffffff1681526020019081526020016000208290806001815401808255809150509060018203906000526020600020016000909192909190915055505b80600660008573ffffffffffffffffffffffffffffffffffffffff1673ffffffffffffffffffffffffffffffffffffffff16815260200190815260200160002060008481526020019081526020016000206000828254019250508190555050505050565b600073ffffffffffffffffffffffffffffffffffffffff168173ffffffffffffffffffffffffffffffffffffffff16141515156123dd57600080fd5b8073ffffffffffffffffffffffffffffffffffffffff16600260019054906101000a900473ffffffffffffffffffffffffffffffffffffffff1673ffffffffffffffffffffffffffffffffffffffff167f8be0079c531659141344cd1fd0a4f28419497f9722a3daafe3b4186f6b6457e060405160405180910390a380600260016101000a81548173ffffffffffffffffffffffffffffffffffffffff021916908373ffffffffffffffffffffffffffffffffffffffff160217905550505600a165627a7a72305820c698c9f835dd0f2e76e78492ec895f76ce09f64ea359c478a00aeccd4110729b0029a165627a7a72305820c526e709c14af43dc63aa625aad86207984f8e5e94846dd192d0decb8b09ccee0029",
  "source": "pragma solidity ^0.4.23;\n\nimport \"./WToken.sol\";\nimport \"./W12TokenLedger.sol\";\nimport \"./interfaces/IW12CrowdsaleFactory.sol\";\nimport \"./interfaces/IW12AtomicSwap.sol\";\nimport \"../openzeppelin-solidity/contracts/math/SafeMath.sol\";\nimport \"../openzeppelin-solidity/contracts/ownership/Ownable.sol\";\nimport \"../openzeppelin-solidity/contracts/ReentrancyGuard.sol\";\nimport \"./libs/Percent.sol\";\n\n\ncontract W12Lister is Ownable, ReentrancyGuard {\n    using SafeMath for uint;\n    using Percent for uint;\n\n    // get token index in approvedTokens list by token address and token owner address\n    mapping (address => mapping (address => uint16)) public approvedTokensIndex;\n    ListedToken[] public approvedTokens;\n    // return owners by token address\n    mapping ( address => address[] ) approvedOwnersList;\n    uint16 public approvedTokensLength;\n    IW12AtomicSwap public swap;\n    W12TokenLedger public ledger;\n    address public serviceWallet;\n    IW12CrowdsaleFactory public factory;\n\n    event OwnerWhitelisted(address indexed tokenAddress, address indexed tokenOwner, string name, string symbol);\n    event TokenPlaced(address indexed originalTokenAddress, address indexed tokenOwner, uint tokenAmount, address placedTokenAddress);\n    event CrowdsaleInitialized(address indexed tokenAddress, address indexed tokenOwner, uint amountForSale);\n    event CrowdsaleTokenMinted(address indexed tokenAddress, address indexed tokenOwner, uint amount);\n\n    struct ListedToken {\n        string name;\n        string symbol;\n        uint8 decimals;\n        mapping(address => bool) approvedOwners;\n        uint feePercent;\n        uint ethFeePercent;\n        uint WTokenSaleFeePercent;\n        uint trancheFeePercent;\n        IW12Crowdsale crowdsaleAddress;\n        uint tokensForSaleAmount;\n        uint wTokensIssuedAmount;\n        address tokenAddress;\n    }\n\n    constructor(address _serviceWallet, IW12CrowdsaleFactory _factory, W12TokenLedger _ledger, IW12AtomicSwap _swap) public {\n        require(_serviceWallet != address(0));\n        require(_factory != address(0));\n        require(_ledger != address(0));\n        require(_swap != address(0));\n\n        ledger = _ledger;\n        swap = _swap;\n        serviceWallet = _serviceWallet;\n        factory = _factory;\n        approvedTokens.length++; // zero-index element should never be used\n    }\n\n    function whitelistToken(\n        address tokenOwner,\n        address tokenAddress,\n        string name,\n        string symbol,\n        uint8 decimals,\n        uint feePercent,\n        uint ethFeePercent,\n        uint WTokenSaleFeePercent,\n        uint trancheFeePercent\n    )\n        external onlyOwner {\n\n        require(tokenOwner != address(0));\n        require(tokenAddress != address(0));\n        require(feePercent.isPercent() && feePercent.fromPercent() < 100);\n        require(ethFeePercent.isPercent() && ethFeePercent.fromPercent() < 100);\n        require(WTokenSaleFeePercent.isPercent() && WTokenSaleFeePercent.fromPercent() < 100);\n        require(trancheFeePercent.isPercent() && trancheFeePercent.fromPercent() < 100);\n        require(getApprovedToken(tokenAddress, tokenOwner).tokenAddress != tokenAddress);\n        require(!getApprovedToken(tokenAddress, tokenOwner).approvedOwners[tokenOwner]);\n\n        uint16 index = uint16(approvedTokens.length);\n\n        approvedTokensIndex[tokenAddress][tokenOwner] = index;\n\n        approvedTokensLength = uint16(approvedTokens.length++);\n\n        approvedOwnersList[tokenAddress].push(tokenOwner);\n\n        approvedTokens[index].approvedOwners[tokenOwner] = true;\n        approvedTokens[index].name = name;\n        approvedTokens[index].symbol = symbol;\n        approvedTokens[index].decimals = decimals;\n        approvedTokens[index].feePercent = feePercent;\n        approvedTokens[index].ethFeePercent = ethFeePercent;\n        approvedTokens[index].WTokenSaleFeePercent = WTokenSaleFeePercent;\n        approvedTokens[index].trancheFeePercent = trancheFeePercent;\n        approvedTokens[index].tokenAddress = tokenAddress;\n\n        emit OwnerWhitelisted(tokenAddress, tokenOwner, name, symbol);\n    }\n\n    function placeToken(address tokenAddress, uint amount) external nonReentrant {\n        require(amount > 0);\n        require(tokenAddress != address(0));\n        require(getApprovedToken(tokenAddress, msg.sender).tokenAddress == tokenAddress);\n        require(getApprovedToken(tokenAddress, msg.sender).approvedOwners[msg.sender]);\n\n        ListedToken storage listedToken = getApprovedToken(tokenAddress, msg.sender);\n\n        DetailedERC20 token = DetailedERC20(tokenAddress);\n        uint balanceBefore = token.balanceOf(swap);\n        uint fee = listedToken.feePercent > 0\n            ? amount.percent(listedToken.feePercent)\n            : 0;\n\n        require(token.decimals() == listedToken.decimals);\n\n        uint amountWithoutFee = amount.sub(fee);\n\n        getApprovedToken(tokenAddress, msg.sender).tokensForSaleAmount = listedToken.tokensForSaleAmount.add(amountWithoutFee);\n\n        token.transferFrom(msg.sender, swap, amountWithoutFee);\n        token.transferFrom(msg.sender, serviceWallet, fee);\n\n        uint balanceAfter = token.balanceOf(swap);\n\n        require(balanceAfter == balanceBefore.add(amountWithoutFee));\n\n        if(ledger.getWTokenByToken(tokenAddress) == address(0)) {\n            WToken wToken = new WToken(listedToken.name, listedToken.symbol, listedToken.decimals);\n\n            ledger.addTokenToListing(ERC20(tokenAddress), wToken);\n        }\n\n        emit TokenPlaced(tokenAddress, msg.sender, amountWithoutFee, ledger.getWTokenByToken(tokenAddress));\n    }\n\n    function initCrowdsale(address tokenAddress, uint amountForSale, uint price) external nonReentrant {\n        require(getApprovedToken(tokenAddress, msg.sender).approvedOwners[msg.sender] == true);\n        require(getApprovedToken(tokenAddress, msg.sender).tokensForSaleAmount >= getApprovedToken(tokenAddress, msg.sender).wTokensIssuedAmount.add(amountForSale));\n        require(getApprovedToken(tokenAddress, msg.sender).crowdsaleAddress == address(0));\n\n        WToken wtoken = ledger.getWTokenByToken(tokenAddress);\n\n        IW12Crowdsale crowdsale = factory.createCrowdsale(\n            address(tokenAddress),\n            address(wtoken),\n            price,\n            serviceWallet,\n            getApprovedToken(tokenAddress, msg.sender).ethFeePercent,\n            getApprovedToken(tokenAddress, msg.sender).WTokenSaleFeePercent,\n            getApprovedToken(tokenAddress, msg.sender).trancheFeePercent,\n            swap,\n            msg.sender\n        );\n\n        getApprovedToken(tokenAddress, msg.sender).crowdsaleAddress = crowdsale;\n        wtoken.addTrustedAccount(crowdsale);\n\n        if (getApprovedToken(tokenAddress, msg.sender).WTokenSaleFeePercent > 0) {\n            swap.approve(\n                tokenAddress,\n                address(crowdsale),\n                getApprovedToken(tokenAddress, msg.sender).tokensForSaleAmount\n                    .percent(getApprovedToken(tokenAddress, msg.sender).WTokenSaleFeePercent)\n            );\n        }\n\n        addTokensToCrowdsale(tokenAddress, amountForSale);\n\n        emit CrowdsaleInitialized(tokenAddress, msg.sender, amountForSale);\n    }\n\n    function addTokensToCrowdsale(address tokenAddress, uint amountForSale) public {\n        require(getApprovedToken(tokenAddress, msg.sender).approvedOwners[msg.sender] == true);\n        require(getApprovedToken(tokenAddress, msg.sender).tokensForSaleAmount >= getApprovedToken(tokenAddress, msg.sender).wTokensIssuedAmount.add(amountForSale));\n\n        WToken token = ledger.getWTokenByToken(tokenAddress);\n\n        require(token != address(0));\n\n        IW12Crowdsale crowdsale = getApprovedToken(tokenAddress, msg.sender).crowdsaleAddress;\n\n        require(crowdsale != address(0));\n\n        getApprovedToken(tokenAddress, msg.sender).wTokensIssuedAmount = getApprovedToken(tokenAddress, msg.sender)\n            .wTokensIssuedAmount.add(amountForSale);\n\n        token.mint(crowdsale, amountForSale, 0);\n\n        emit CrowdsaleTokenMinted(tokenAddress, msg.sender, amountForSale);\n    }\n\n    function getTokenCrowdsale(address tokenAddress, address ownerAddress) view external returns (address) {\n        return getApprovedToken(tokenAddress, ownerAddress).crowdsaleAddress;\n    }\n\n    function getTokenOwners(address token) public view returns (address[]) {\n        return approvedOwnersList[token];\n    }\n\n    function getSwap() view external returns (address) {\n        return swap;\n    }\n\n    function getApprovedToken(address tokenAddress, address ownerAddress) internal view returns (ListedToken storage result) {\n        return approvedTokens[approvedTokensIndex[tokenAddress][ownerAddress]];\n    }\n}\n",
  "sourcePath": "/home/andrey/Code/w12/platform-contracts/contracts/W12Lister.sol",
  "compiler": {
    "name": "solc",
    "version": "0.4.24+commit.e67f0147.Emscripten.clang"
  },
  "schemaVersion": "2.0.1",
  "updatedAt": "2018-09-12T06:57:34.475Z"
}