{
  "contractName": "W12Lister",
  "abi": [
    {
      "constant": false,
      "inputs": [
        {
          "name": "recipient",
          "type": "address"
        }
      ],
      "name": "transferPrimary",
      "outputs": [],
      "payable": false,
      "stateMutability": "nonpayable",
      "type": "function"
    },
    {
      "constant": true,
      "inputs": [
        {
          "name": "account",
          "type": "address"
        }
      ],
      "name": "isAdmin",
      "outputs": [
        {
          "name": "",
          "type": "bool"
        }
      ],
      "payable": false,
      "stateMutability": "view",
      "type": "function"
    },
    {
      "constant": true,
      "inputs": [],
      "name": "exchanger",
      "outputs": [
        {
          "name": "",
          "type": "address"
        }
      ],
      "payable": false,
      "stateMutability": "view",
      "type": "function"
    },
    {
      "constant": true,
      "inputs": [],
      "name": "version",
      "outputs": [
        {
          "name": "",
          "type": "uint256"
        }
      ],
      "payable": false,
      "stateMutability": "view",
      "type": "function"
    },
    {
      "constant": false,
      "inputs": [],
      "name": "renounceAdmin",
      "outputs": [],
      "payable": false,
      "stateMutability": "nonpayable",
      "type": "function"
    },
    {
      "constant": true,
      "inputs": [],
      "name": "factory",
      "outputs": [
        {
          "name": "",
          "type": "address"
        }
      ],
      "payable": false,
      "stateMutability": "view",
      "type": "function"
    },
    {
      "constant": true,
      "inputs": [],
      "name": "primary",
      "outputs": [
        {
          "name": "",
          "type": "address"
        }
      ],
      "payable": false,
      "stateMutability": "view",
      "type": "function"
    },
    {
      "constant": true,
      "inputs": [],
      "name": "wallets",
      "outputs": [
        {
          "name": "",
          "type": "address"
        }
      ],
      "payable": false,
      "stateMutability": "view",
      "type": "function"
    },
    {
      "inputs": [
        {
          "name": "version",
          "type": "uint256"
        },
        {
          "name": "_wallets",
          "type": "address"
        },
        {
          "name": "_factory",
          "type": "address"
        },
        {
          "name": "_exchanger",
          "type": "address"
        }
      ],
      "payable": false,
      "stateMutability": "nonpayable",
      "type": "constructor"
    },
    {
      "anonymous": false,
      "inputs": [
        {
          "indexed": true,
          "name": "tokenAddress",
          "type": "address"
        },
        {
          "indexed": true,
          "name": "tokenOwner",
          "type": "address"
        }
      ],
      "name": "OwnerWhitelisted",
      "type": "event"
    },
    {
      "anonymous": false,
      "inputs": [
        {
          "indexed": true,
          "name": "token",
          "type": "address"
        },
        {
          "indexed": true,
          "name": "sender",
          "type": "address"
        },
        {
          "indexed": false,
          "name": "owners",
          "type": "address[]"
        },
        {
          "indexed": false,
          "name": "name",
          "type": "string"
        },
        {
          "indexed": false,
          "name": "symbol",
          "type": "string"
        }
      ],
      "name": "TokenWhitelisted",
      "type": "event"
    },
    {
      "anonymous": false,
      "inputs": [
        {
          "indexed": true,
          "name": "originalToken",
          "type": "address"
        },
        {
          "indexed": true,
          "name": "sender",
          "type": "address"
        },
        {
          "indexed": false,
          "name": "crowdsale",
          "type": "address"
        },
        {
          "indexed": false,
          "name": "tokenAmount",
          "type": "uint256"
        },
        {
          "indexed": false,
          "name": "placedToken",
          "type": "address"
        }
      ],
      "name": "TokenPlaced",
      "type": "event"
    },
    {
      "anonymous": false,
      "inputs": [
        {
          "indexed": true,
          "name": "token",
          "type": "address"
        },
        {
          "indexed": true,
          "name": "sender",
          "type": "address"
        },
        {
          "indexed": false,
          "name": "crowdsale",
          "type": "address"
        },
        {
          "indexed": false,
          "name": "amountForSale",
          "type": "uint256"
        }
      ],
      "name": "CrowdsaleInitialized",
      "type": "event"
    },
    {
      "anonymous": false,
      "inputs": [
        {
          "indexed": true,
          "name": "token",
          "type": "address"
        },
        {
          "indexed": true,
          "name": "sender",
          "type": "address"
        },
        {
          "indexed": false,
          "name": "crowdsale",
          "type": "address"
        },
        {
          "indexed": false,
          "name": "amount",
          "type": "uint256"
        }
      ],
      "name": "CrowdsaleTokenMinted",
      "type": "event"
    },
    {
      "anonymous": false,
      "inputs": [
        {
          "indexed": false,
          "name": "recipient",
          "type": "address"
        }
      ],
      "name": "PrimaryTransferred",
      "type": "event"
    },
    {
      "anonymous": false,
      "inputs": [
        {
          "indexed": true,
          "name": "account",
          "type": "address"
        }
      ],
      "name": "AdminAdded",
      "type": "event"
    },
    {
      "anonymous": false,
      "inputs": [
        {
          "indexed": true,
          "name": "account",
          "type": "address"
        }
      ],
      "name": "AdminRemoved",
      "type": "event"
    },
    {
      "constant": false,
      "inputs": [
        {
          "name": "_account",
          "type": "address"
        }
      ],
      "name": "addAdmin",
      "outputs": [],
      "payable": false,
      "stateMutability": "nonpayable",
      "type": "function"
    },
    {
      "constant": false,
      "inputs": [
        {
          "name": "_account",
          "type": "address"
        }
      ],
      "name": "removeAdmin",
      "outputs": [],
      "payable": false,
      "stateMutability": "nonpayable",
      "type": "function"
    },
    {
      "constant": false,
      "inputs": [
        {
          "name": "token",
          "type": "address"
        },
        {
          "name": "name",
          "type": "string"
        },
        {
          "name": "symbol",
          "type": "string"
        },
        {
          "name": "decimals",
          "type": "uint8"
        },
        {
          "name": "owners",
          "type": "address[]"
        },
        {
          "name": "feePercent",
          "type": "uint256"
        },
        {
          "name": "ethFeePercent",
          "type": "uint256"
        },
        {
          "name": "WTokenSaleFeePercent",
          "type": "uint256"
        },
        {
          "name": "trancheFeePercent",
          "type": "uint256"
        }
      ],
      "name": "whitelistToken",
      "outputs": [],
      "payable": false,
      "stateMutability": "nonpayable",
      "type": "function"
    },
    {
      "constant": false,
      "inputs": [
        {
          "name": "token",
          "type": "address"
        },
        {
          "name": "crowdsale",
          "type": "address"
        },
        {
          "name": "amount",
          "type": "uint256"
        }
      ],
      "name": "placeToken",
      "outputs": [],
      "payable": false,
      "stateMutability": "nonpayable",
      "type": "function"
    },
    {
      "constant": false,
      "inputs": [
        {
          "name": "token",
          "type": "address"
        },
        {
          "name": "amountForSale",
          "type": "uint256"
        },
        {
          "name": "price",
          "type": "uint256"
        }
      ],
      "name": "initCrowdsale",
      "outputs": [],
      "payable": false,
      "stateMutability": "nonpayable",
      "type": "function"
    },
    {
      "constant": false,
      "inputs": [
        {
          "name": "token",
          "type": "address"
        },
        {
          "name": "crowdsale",
          "type": "address"
        },
        {
          "name": "amountForSale",
          "type": "uint256"
        }
      ],
      "name": "addTokensToCrowdsale",
      "outputs": [],
      "payable": false,
      "stateMutability": "nonpayable",
      "type": "function"
    },
    {
      "constant": true,
      "inputs": [
        {
          "name": "token",
          "type": "address"
        }
      ],
      "name": "getTokenOwners",
      "outputs": [
        {
          "name": "",
          "type": "address[]"
        }
      ],
      "payable": false,
      "stateMutability": "view",
      "type": "function"
    },
    {
      "constant": true,
      "inputs": [
        {
          "name": "token",
          "type": "address"
        },
        {
          "name": "crowdsale",
          "type": "address"
        }
      ],
      "name": "getCrowdsaleOwners",
      "outputs": [
        {
          "name": "",
          "type": "address[]"
        }
      ],
      "payable": false,
      "stateMutability": "view",
      "type": "function"
    },
    {
      "constant": true,
      "inputs": [],
      "name": "getExchanger",
      "outputs": [
        {
          "name": "",
          "type": "address"
        }
      ],
      "payable": false,
      "stateMutability": "view",
      "type": "function"
    },
    {
      "constant": true,
      "inputs": [
        {
          "name": "token",
          "type": "address"
        }
      ],
      "name": "getToken",
      "outputs": [
        {
          "name": "name",
          "type": "string"
        },
        {
          "name": "symbol",
          "type": "string"
        },
        {
          "name": "decimals",
          "type": "uint8"
        },
        {
          "name": "owners",
          "type": "address[]"
        },
        {
          "name": "commissions",
          "type": "uint256[4]"
        }
      ],
      "payable": false,
      "stateMutability": "view",
      "type": "function"
    },
    {
      "constant": true,
      "inputs": [],
      "name": "getTokens",
      "outputs": [
        {
          "name": "",
          "type": "address[]"
        }
      ],
      "payable": false,
      "stateMutability": "view",
      "type": "function"
    },
    {
      "constant": true,
      "inputs": [
        {
          "name": "token",
          "type": "address"
        }
      ],
      "name": "isTokenWhitelisted",
      "outputs": [
        {
          "name": "",
          "type": "bool"
        }
      ],
      "payable": false,
      "stateMutability": "view",
      "type": "function"
    },
    {
      "constant": true,
      "inputs": [
        {
          "name": "token",
          "type": "address"
        },
        {
          "name": "owner",
          "type": "address"
        }
      ],
      "name": "hasTokenOwner",
      "outputs": [
        {
          "name": "",
          "type": "bool"
        }
      ],
      "payable": false,
      "stateMutability": "view",
      "type": "function"
    },
    {
      "constant": true,
      "inputs": [
        {
          "name": "token",
          "type": "address"
        }
      ],
      "name": "getCrowdsales",
      "outputs": [
        {
          "name": "",
          "type": "address[]"
        }
      ],
      "payable": false,
      "stateMutability": "view",
      "type": "function"
    },
    {
      "constant": true,
      "inputs": [
        {
          "name": "token",
          "type": "address"
        },
        {
          "name": "crowdsale",
          "type": "address"
        }
      ],
      "name": "hasCrowdsaleWithAddress",
      "outputs": [
        {
          "name": "",
          "type": "bool"
        }
      ],
      "payable": false,
      "stateMutability": "view",
      "type": "function"
    },
    {
      "constant": true,
      "inputs": [
        {
          "name": "token",
          "type": "address"
        }
      ],
      "name": "hasNotInitialisedCrowdsale",
      "outputs": [
        {
          "name": "",
          "type": "bool"
        }
      ],
      "payable": false,
      "stateMutability": "view",
      "type": "function"
    },
    {
      "constant": true,
      "inputs": [
        {
          "name": "token",
          "type": "address"
        },
        {
          "name": "crowdsale",
          "type": "address"
        }
      ],
      "name": "getCrowdsale",
      "outputs": [
        {
          "name": "commissions",
          "type": "uint256[4]"
        },
        {
          "name": "amounts",
          "type": "uint256[2]"
        },
        {
          "name": "owners",
          "type": "address[]"
        }
      ],
      "payable": false,
      "stateMutability": "view",
      "type": "function"
    },
    {
      "constant": true,
      "inputs": [],
      "name": "serviceWallet",
      "outputs": [
        {
          "name": "",
          "type": "address"
        }
      ],
      "payable": false,
      "stateMutability": "view",
      "type": "function"
    }
  ],
  "bytecode": "0x60806040523480156200001157600080fd5b50604051608080620051d18339810160409081528151602083015191830151606090930151909290836200004e336401000000006200012b810204565b60015560028054600160a060020a03191633179081905560408051600160a060020a03929092168252517f4101e71e974f68df5e9730cc223280b41654676bbb052cdcc735c3337e64d2d99181900360200190a16001600355600160a060020a0383161515620000bd57600080fd5b600160a060020a0382161515620000d357600080fd5b600160a060020a0381161515620000e957600080fd5b60048054600160a060020a0319908116600160a060020a0393841617909155600680548216948316949094179093556005805490931691161790555062000210565b620001466000826401000000006200341b6200017d82021704565b604051600160a060020a038216907f44d6d25963f097ad14f29f06854a01f575648a1ef82f30e562ccd3889717e33990600090a250565b600160a060020a03811615156200019357600080fd5b620001a88282640100000000620001d8810204565b15620001b357600080fd5b600160a060020a0316600090815260209190915260409020805460ff19166001179055565b6000600160a060020a0382161515620001f057600080fd5b50600160a060020a03166000908152602091909152604090205460ff1690565b614fb180620002206000396000f300608060405260043610620001555763ffffffff60e060020a60003504166309363c9981146200015a5780631785f53c14620001865780631cd82e6014620001aa57806320f59dc7146200022057806321689c1a14620002585780632348238c146200028557806324d7806c14620002a9578063460f0b6b14620002cd5780634b1acf3914620002f75780634d12fca4146200032b57806354fd4d5014620003435780635641f3c3146200036d57806359770438146200038557806370480275146200050b57806375dd8cfc146200052f578063849072b9146200055c57806386ad639814620005805780638bad0c0a1462000659578063a800199e1462000671578063aa6ca80814620006cd578063b5af090f14620006e5578063c45a01551462000709578063c6dbdf611462000721578063c96a68c11462000739578063d2f4a50a1462000763578063e45725d8146200077b575b600080fd5b3480156200016757600080fd5b5062000184600160a060020a0360043516602435604435620007a5565b005b3480156200019357600080fd5b5062000184600160a060020a036004351662000e5b565b348015620001b757600080fd5b50620001ce600160a060020a036004351662000e81565b60408051602080825283518183015283519192839290830191858101910280838360005b838110156200020c578181015183820152602001620001f2565b505050509050019250505060405180910390f35b3480156200022d57600080fd5b5062000244600160a060020a036004351662000f49565b604080519115158252519081900360200190f35b3480156200026557600080fd5b5062000184600160a060020a036004358116906024351660443562000f64565b3480156200029257600080fd5b5062000184600160a060020a036004351662001256565b348015620002b657600080fd5b5062000244600160a060020a0360043516620012de565b348015620002da57600080fd5b50620001ce600160a060020a0360043581169060243516620012f2565b3480156200030457600080fd5b506200030f6200136e565b60408051600160a060020a039092168252519081900360200190f35b3480156200033857600080fd5b506200030f6200137e565b3480156200035057600080fd5b506200035b6200138d565b60408051918252519081900360200190f35b3480156200037a57600080fd5b506200030f62001393565b3480156200039257600080fd5b50620003a9600160a060020a03600435166200142d565b6040518080602001806020018660ff1660ff1681526020018060200185600460200280838360005b83811015620003eb578181015183820152602001620003d1565b50505050905001848103845289818151815260200191508051906020019080838360005b83811015620004295781810151838201526020016200040f565b50505050905090810190601f168015620004575780820380516001836020036101000a031916815260200191505b5084810383528851815288516020918201918a019080838360005b838110156200048c57818101518382015260200162000472565b50505050905090810190601f168015620004ba5780820380516001836020036101000a031916815260200191505b508481038252865181528651602091820191808901910280838360005b83811015620004f1578181015183820152602001620004d7565b505050509050019850505050505050505060405180910390f35b3480156200051857600080fd5b5062000184600160a060020a0360043516620016a2565b3480156200053c57600080fd5b5062000184600160a060020a0360043581169060243516604435620016c5565b3480156200056957600080fd5b50620001ce600160a060020a036004351662001d38565b3480156200058d57600080fd5b50620005aa600160a060020a036004358116906024351662001db2565b6040518084608080838360005b83811015620005d1578181015183820152602001620005b7565b5050505090500183600260200280838360005b83811015620005fe578181015183820152602001620005e4565b5050505090500180602001828103825283818151815260200191508051906020019060200280838360005b838110156200064357818101518382015260200162000629565b5050505090500194505050505060405180910390f35b3480156200066657600080fd5b506200018462001ee7565b3480156200067e57600080fd5b506200018460048035600160a060020a0316906024803580820192908101359160443580820192908101359160643560ff169160843591820191013560a43560c43560e4356101043562001ef4565b348015620006da57600080fd5b50620001ce62002074565b348015620006f257600080fd5b5062000244600160a060020a03600435166200212a565b3480156200071657600080fd5b506200030f6200213f565b3480156200072e57600080fd5b506200030f6200214e565b3480156200074657600080fd5b5062000244600160a060020a03600435811690602435166200215d565b3480156200077057600080fd5b506200030f6200217a565b3480156200078857600080fd5b5062000244600160a060020a036004358116906024351662002189565b60038054600101908190556000908190819081620007c262001393565b600160a060020a03161415620007d757600080fd5b620007ea60078863ffffffff6200219f16565b1515620007f657600080fd5b6200080a6007883363ffffffff620021cf16565b15156200081657600080fd5b6200082960078863ffffffff6200220616565b15156200083557600080fd5b6200085e866200084d60078a63ffffffff6200224e16565b600601549063ffffffff6200225e16565b6200087160078963ffffffff6200224e16565b6005015410156200088157600080fd5b6200089460078863ffffffff6200227116565b6004805460088301546040805160e260020a630547cdcd028152600160a060020a039283169481019490945251939750169163151f3734916024808201926020929091908290030181600087803b158015620008ef57600080fd5b505af115801562000904573d6000803e3d6000fd5b505050506040513d60208110156200091b57600080fd5b50516005546008860154919450600160a060020a039081169163868b16d9911685886200094762001393565b89600501548a600601548b60070154600460009054906101000a9004600160a060020a03168d6003016040518a63ffffffff1660e060020a028152600401808a600160a060020a0316600160a060020a0316815260200189600160a060020a0316600160a060020a0316815260200188815260200187600160a060020a0316600160a060020a0316815260200186815260200185815260200184815260200183600160a060020a0316600160a060020a0316815260200180602001828103825283818154815260200191508054801562000a4b57602002820191906000526020600020905b8154600160a060020a0316815260019091019060200180831162000a2c575b50509a5050505050505050505050602060405180830381600087803b15801562000a7457600080fd5b505af115801562000a89573d6000803e3d6000fd5b505050506040513d602081101562000aa057600080fd5b5051604080517f704802750000000000000000000000000000000000000000000000000000000081523360048201529051919350600160a060020a0384169163704802759160248082019260009290919082900301818387803b15801562000b0757600080fd5b505af115801562000b1c573d6000803e3d6000fd5b5050505081600160a060020a0316638edd6eb66040518163ffffffff1660e060020a028152600401602060405180830381600087803b15801562000b5f57600080fd5b505af115801562000b74573d6000803e3d6000fd5b505050506040513d602081101562000b8b57600080fd5b5051604080517f704802750000000000000000000000000000000000000000000000000000000081523360048201529051600160a060020a039092169163704802759160248082019260009290919082900301818387803b15801562000bf057600080fd5b505af115801562000c05573d6000803e3d6000fd5b5050505082600160a060020a03166370480275836040518263ffffffff1660e060020a0281526004018082600160a060020a0316600160a060020a03168152602001915050600060405180830381600087803b15801562000c6557600080fd5b505af115801562000c7a573d6000803e3d6000fd5b5062000c959250600791508990508463ffffffff620022a416565b60008460060154111562000de9576004546008850154600160a060020a039182169163e1f21c6791168462000cd360078c8363ffffffff6200245816565b6005015473__Percent_______________________________6342318e3d90918a600601546040518363ffffffff1660e060020a028152600401808381526020018281526020019250505060206040518083038186803b15801562000d3757600080fd5b505af415801562000d4c573d6000803e3d6000fd5b505050506040513d602081101562000d6357600080fd5b50516040805160e060020a63ffffffff8716028152600160a060020a0394851660048201529290931660248301526044820152905160648083019260209291908290030181600087803b15801562000dba57600080fd5b505af115801562000dcf573d6000803e3d6000fd5b505050506040513d602081101562000de657600080fd5b50505b62000df687838862000f64565b600884015460408051600160a060020a038581168252602082018a905282513394909116927fc9cecf9fabde631d7582b55fdaf2a8800e68f0063771104348deff501b7c2827928290030190a3600354811462000e5257600080fd5b50505050505050565b600254600160a060020a0316331462000e7357600080fd5b62000e7e81620024c8565b50565b606080600062000e9960078563ffffffff6200251216565b5160405190808252806020026020018201604052801562000ec4578160200160208202803883390190505b509150600090505b62000edf60078563ffffffff6200251216565b5181101562000f425762000efb60078563ffffffff6200251216565b80518290811062000f0857fe5b6020908102909101015151825183908390811062000f2257fe5b600160a060020a0390921660209283029091019091015260010162000ecc565b5092915050565b600062000f5e60078363ffffffff6200220616565b92915050565b600080821162000f7357600080fd5b62000f8660078563ffffffff6200219f16565b151562000f9257600080fd5b62000fa66007853363ffffffff620021cf16565b151562000fb257600080fd5b62000fc66007858563ffffffff6200264d16565b151562000fd257600080fd5b600480546040805160e260020a630547cdcd028152600160a060020a038881169482019490945290516000939092169163151f37349160248082019260209290919082900301818787803b1580156200102a57600080fd5b505af11580156200103f573d6000803e3d6000fd5b505050506040513d60208110156200105657600080fd5b5051600160a060020a031614156200106d57600080fd5b62001086826200084d6007878763ffffffff6200245816565b6200109a6007868663ffffffff6200245816565b600501541015620010aa57600080fd5b600480546040805160e260020a630547cdcd028152600160a060020a03888116948201949094529051929091169163151f3734916024808201926020929091908290030181600087803b1580156200110157600080fd5b505af115801562001116573d6000803e3d6000fd5b505050506040513d60208110156200112d57600080fd5b505190506200114a826200084d6007878763ffffffff6200245816565b6200115e6007868663ffffffff6200245816565b60060155604080517fd0047acf000000000000000000000000000000000000000000000000000000008152600160a060020a0385811660048301526024820185905260006044830181905292519084169263d0047acf92606480820193602093909283900390910190829087803b158015620011d957600080fd5b505af1158015620011ee573d6000803e3d6000fd5b505050506040513d60208110156200120557600080fd5b505060408051600160a060020a0385811682526020820185905282513393918816927fd663b1d1c366a683f19929e0e0f10df9ee4ba14bb42fb2f37e63605b0828da2a92908290030190a350505050565b600254600160a060020a031633146200126e57600080fd5b600160a060020a03811615156200128457600080fd5b60028054600160a060020a031916600160a060020a03838116919091179182905560408051929091168252517f4101e71e974f68df5e9730cc223280b41654676bbb052cdcc735c3337e64d2d9916020908290030190a150565b600062000f5e818363ffffffff6200269816565b6060620013086007848463ffffffff6200245816565b6007018054806020026020016040519081016040528092919081815260200182805480156200136157602002820191906000526020600020905b8154600160a060020a0316815260019091019060200180831162001342575b5050505050905092915050565b600454600160a060020a03165b90565b600454600160a060020a031681565b60015481565b600654604080517fe3ff76e4000000000000000000000000000000000000000000000000000000008152600160048201529051600092600160a060020a03169163e3ff76e491602480830192602092919082900301818787803b158015620013fa57600080fd5b505af11580156200140f573d6000803e3d6000fd5b505050506040513d60208110156200142657600080fd5b5051905090565b606080600060606200143e6200371e565b6200145160078763ffffffff6200219f16565b15156200145d57600080fd5b6200147060078763ffffffff6200227116565b805460408051602060026001851615610100026000190190941693909304601f81018490048402820184019092528181529291830182828015620014f85780601f10620014cc57610100808354040283529160200191620014f8565b820191906000526020600020905b815481529060010190602001808311620014da57829003601f168201915b50505050509450620015158660076200227190919063ffffffff16565b60019081018054604080516020600295841615610100026000190190931694909404601f810183900483028501830190915280845290830182828015620015a05780601f106200157457610100808354040283529160200191620015a0565b820191906000526020600020905b8154815290600101906020018083116200158257829003601f168201915b50505050509350620015bd8660076200227190919063ffffffff16565b6002015460ff169250620015d960078763ffffffff6200227116565b6003018054806020026020016040519081016040528092919081815260200182805480156200163257602002820191906000526020600020905b8154600160a060020a0316815260019091019060200180831162001613575b505050505091506200164f8660076200227190919063ffffffff16565b6004015481526200166260078762002271565b6005015460208201526200167860078762002271565b6006015460408201526200168e60078762002271565b600701546060820152939592945090929091565b600254600160a060020a03163314620016ba57600080fd5b62000e7e81620026d0565b6003805460010190819055600090819081908190819081620016e662001393565b600160a060020a03161415620016fb57600080fd5b600087116200170957600080fd5b6200171c60078a63ffffffff6200219f16565b15156200172857600080fd5b6200173c60078a3363ffffffff620021cf16565b15156200174857600080fd5b6200175c60078a8a63ffffffff6200264d16565b15156200176857600080fd5b6200177b60078a63ffffffff6200227116565b604080517fdd62ed3e00000000000000000000000000000000000000000000000000000000815233600482015230602482015290519197508a96508891600160a060020a0388169163dd62ed3e9160448083019260209291908290030181600087803b158015620017eb57600080fd5b505af115801562001800573d6000803e3d6000fd5b505050506040513d60208110156200181757600080fd5b505110156200182557600080fd5b8560020160009054906101000a900460ff1660ff1685600160a060020a031663313ce5676040518163ffffffff1660e060020a028152600401602060405180830381600087803b1580156200187957600080fd5b505af11580156200188e573d6000803e3d6000fd5b505050506040513d6020811015620018a557600080fd5b505160ff1614620018b557600080fd5b6000866004015411620018ca5760006200195a565b8673__Percent_______________________________6342318e3d909188600401546040518363ffffffff1660e060020a028152600401808381526020018281526020019250505060206040518083038186803b1580156200192b57600080fd5b505af415801562001940573d6000803e3d6000fd5b505050506040513d60208110156200195757600080fd5b50515b93506200196e878563ffffffff6200271a16565b6004549093506200198b908690600160a060020a03168562002732565b620019a1856200199a62001393565b8662002732565b620019cb83620019ba60078c8c63ffffffff6200245816565b600501549063ffffffff6200225e16565b620019df60078b8b63ffffffff6200245816565b60050155600480546040805160e260020a630547cdcd028152600160a060020a038d81169482019490945290516000939092169163151f37349160248082019260209290919082900301818787803b15801562001a3b57600080fd5b505af115801562001a50573d6000803e3d6000fd5b505050506040513d602081101562001a6757600080fd5b5051600160a060020a0316141562001c485760028601548690600182019060ff1662001a926200373d565b60ff8216604082015260608082528454600260001961010060018416150201909116049082018190528190602082019060808301908790801562001b1a5780601f1062001aee5761010080835404028352916020019162001b1a565b820191906000526020600020905b81548152906001019060200180831162001afc57829003601f168201915b505083810382528554600260001961010060018416150201909116048082526020909101908690801562001b925780601f1062001b665761010080835404028352916020019162001b92565b820191906000526020600020905b81548152906001019060200180831162001b7457829003601f168201915b505095505050505050604051809103906000f08015801562001bb8573d6000803e3d6000fd5b5060048054604080517fa0736912000000000000000000000000000000000000000000000000000000008152600160a060020a038e8116948201949094528385166024820152905193955091169163a07369129160448082019260009290919082900301818387803b15801562001c2e57600080fd5b505af115801562001c43573d6000803e3d6000fd5b505050505b600480546040805160e260020a630547cdcd028152600160a060020a038d811694820185905291513394937f168493f0b2b7abab85259c2b490c5d5dff8fcde395381ac5084f554f7e9e2951938e938a93919092169163151f37349160248083019260209291908290030181600087803b15801562001cc657600080fd5b505af115801562001cdb573d6000803e3d6000fd5b505050506040513d602081101562001cf257600080fd5b505160408051600160a060020a039485168152602081019390935292168183015290519081900360600190a3600354811462001d2d57600080fd5b505050505050505050565b606062001d4d60078363ffffffff6200227116565b60030180548060200260200160405190810160405280929190818152602001828054801562001da657602002820191906000526020600020905b8154600160a060020a0316815260019091019060200180831162001d87575b50505050509050919050565b62001dbc6200371e565b62001dc66200374e565b606062001ddc6007868663ffffffff6200264d16565b151562001de857600080fd5b62001dfc6007868663ffffffff6200245816565b60010154835262001e106007868662002458565b60020154602084015262001e276007868662002458565b60030154604084015262001e3e6007868662002458565b60040154606084015262001e556007868662002458565b60050154825262001e696007868662002458565b60060154602083015262001e806007868662002458565b60070180548060200260200160405190810160405280929190818152602001828054801562001ed957602002820191906000526020600020905b8154600160a060020a0316815260019091019060200180831162001eba575b505050505090509250925092565b62001ef233620024c8565b565b62001eff33620012de565b151562001f0b57600080fd5b62001fc08c8c8c8080601f0160208091040260200160405190810160405280939291908181526020018383808284378201915050505050508b8b8080601f0160208091040260200160405190810160405280939291908181526020018383808284378201915050505050508a8a8a80806020026020016040519081016040528093929190818152602001838360200280828437506007999897969594508e93508d92508c91508b905063ffffffff6200291616565b5033600160a060020a03168c600160a060020a03167f02b6ecbf927eba8b506d1ceacc9ca4887d0f3978e6e1b6b3c423ceefc021b31a88888f8f8f8f6040518080602001806020018060200184810384528a8a82818152602001925060200280828437909101858103845288815260200190508888808284379091018581038352868152602001905086868082843760405192018290039b50909950505050505050505050a3505050505050505050505050565b6060806000620020856007620030fc565b51604051908082528060200260200182016040528015620020b0578160200160208202803883390190505b509150600090505b620020c46007620030fc565b518110156200212457620020d96007620030fc565b805182908110620020e657fe5b90602001906020020151610100015182828151811015156200210457fe5b600160a060020a03909216602092830290910190910152600101620020b8565b50919050565b600062000f5e60078363ffffffff6200219f16565b600554600160a060020a031681565b600254600160a060020a031690565b6000620021736007848463ffffffff6200264d16565b9392505050565b600654600160a060020a031681565b6000620021736007848463ffffffff620021cf16565b600160a060020a031660009081526001820160209081526040808320938252808320548352929052205460ff1690565b6000620021dd848462002271565b600160a060020a0383166000908152600991909101602052604090205460ff1690509392505050565b60006200221483836200219f565b15156200222057600080fd5b50600160a060020a031660009081526003919091016020908152604080832083805290915290205460ff1690565b6000620021738383600062002458565b6000828201838110156200217357600080fd5b6000826005016200228384846200334b565b815481106200228e57fe5b90600052602060002090600a0201905092915050565b600160a060020a0381161515620022ba57600080fd5b620022c6838362002206565b1515620022d257600080fd5b620022df8383836200264d565b15620022ea57600080fd5b80620022f784846200224e565b8054600160a060020a031916600160a060020a039290921691909117905562002321838362002271565b600401546200233184846200224e565b6001015562002341838362002271565b600501546200235184846200224e565b6002015562002361838362002271565b600601546200237184846200224e565b6003015562002381838362002271565b600701546200239184846200224e565b60040155620023a1838362002271565b600301620023b084846200224e565b600701908054620023c392919062003769565b50600160a060020a03808316600090815260038501602090815260408083209385168352929052908120805460ff1916600117905562002407908490849062003382565b600160a060020a039283166000818152600486016020908152604080832095909616825284815285822093909355908152600390940181528284208480528152828420805460ff1916905552812055565b6000620024678484846200264d565b15156200247357600080fd5b600160a060020a038084166000908152600286016020908152604080832060048901835281842094871684529390915290205481548110620024b157fe5b906000526020600020906008020190509392505050565b620024db60008263ffffffff620033cb16565b604051600160a060020a038216907fa3b62bc36326052d97ea62d63c3d60308ed4c3ea8ac079dd8499f1e9c4f80c0f90600090a250565b60606200252083836200219f565b15156200252c57600080fd5b600160a060020a0382166000908152600284016020908152604080832080548251818502810185019093528083529193909284015b82821015620026415760008481526020908190206040805161010081018252600886029092018054600160a060020a031683526001810154838501526002810154838301526003810154606084015260048101546080840152600581015460a0840152600681015460c08401526007810180548351818702810187019094528084529394919360e0860193928301828280156200262857602002820191906000526020600020905b8154600160a060020a0316815260019091019060200180831162002609575b5050505050815250508152602001906001019062002561565b50505050905092915050565b60006200265b84846200219f565b15156200266757600080fd5b50600160a060020a039182166000908152600393909301602090815260408085209290931684525290205460ff1690565b6000600160a060020a0382161515620026b057600080fd5b50600160a060020a03166000908152602091909152604090205460ff1690565b620026e360008263ffffffff6200341b16565b604051600160a060020a038216907f44d6d25963f097ad14f29f06854a01f575648a1ef82f30e562ccd3889717e33990600090a250565b600080838311156200272b57600080fd5b5050900390565b6000620027d08285600160a060020a03166370a08231866040518263ffffffff1660e060020a0281526004018082600160a060020a0316600160a060020a03168152602001915050602060405180830381600087803b1580156200279557600080fd5b505af1158015620027aa573d6000803e3d6000fd5b505050506040513d6020811015620027c157600080fd5b50519063ffffffff6200225e16565b604080517f23b872dd000000000000000000000000000000000000000000000000000000008152336004820152600160a060020a038681166024830152604482018690529151929350908616916323b872dd916064808201926020929091908290030181600087803b1580156200284657600080fd5b505af11580156200285b573d6000803e3d6000fd5b505050506040513d60208110156200287257600080fd5b5050604080517f70a08231000000000000000000000000000000000000000000000000000000008152600160a060020a038581166004830152915183928716916370a082319160248083019260209291908290030181600087803b158015620028da57600080fd5b505af1158015620028ef573d6000803e3d6000fd5b505050506040513d60208110156200290657600080fd5b5051146200291057fe5b50505050565b600080600160a060020a038b1615156200292f57600080fd5b86516000106200293e57600080fd5b8573__Percent_______________________________63520b006690916040518263ffffffff1660e060020a0281526004018082815260200191505060206040518083038186803b1580156200299357600080fd5b505af4158015620029a8573d6000803e3d6000fd5b505050506040513d6020811015620029bf57600080fd5b5051801562002a50575060648673__Percent_______________________________630fe9114790916040518263ffffffff1660e060020a0281526004018082815260200191505060206040518083038186803b15801562002a2057600080fd5b505af415801562002a35573d6000803e3d6000fd5b505050506040513d602081101562002a4c57600080fd5b5051105b151562002a5c57600080fd5b8473__Percent_______________________________63520b006690916040518263ffffffff1660e060020a0281526004018082815260200191505060206040518083038186803b15801562002ab157600080fd5b505af415801562002ac6573d6000803e3d6000fd5b505050506040513d602081101562002add57600080fd5b5051801562002b6e575060648573__Percent_______________________________630fe9114790916040518263ffffffff1660e060020a0281526004018082815260200191505060206040518083038186803b15801562002b3e57600080fd5b505af415801562002b53573d6000803e3d6000fd5b505050506040513d602081101562002b6a57600080fd5b5051105b151562002b7a57600080fd5b8373__Percent_______________________________63520b006690916040518263ffffffff1660e060020a0281526004018082815260200191505060206040518083038186803b15801562002bcf57600080fd5b505af415801562002be4573d6000803e3d6000fd5b505050506040513d602081101562002bfb57600080fd5b5051801562002c8c575060648473__Percent_______________________________630fe9114790916040518263ffffffff1660e060020a0281526004018082815260200191505060206040518083038186803b15801562002c5c57600080fd5b505af415801562002c71573d6000803e3d6000fd5b505050506040513d602081101562002c8857600080fd5b5051105b151562002c9857600080fd5b8273__Percent_______________________________63520b006690916040518263ffffffff1660e060020a0281526004018082815260200191505060206040518083038186803b15801562002ced57600080fd5b505af415801562002d02573d6000803e3d6000fd5b505050506040513d602081101562002d1957600080fd5b5051801562002daa575060648373__Percent_______________________________630fe9114790916040518263ffffffff1660e060020a0281526004018082815260200191505060206040518083038186803b15801562002d7a57600080fd5b505af415801562002d8f573d6000803e3d6000fd5b505050506040513d602081101562002da657600080fd5b5051105b151562002db657600080fd5b62002dc28c8c6200219f565b151562002fb5578b600501805490508c60000160008d600160a060020a0316600160a060020a031681526020019081526020016000208190555060018c60010160008d600160a060020a0316600160a060020a0316815260200190815260200160002060008e60050180549050815260200190815260200160002060006101000a81548160ff0219169083151502179055508b600501610120604051908101604052808c81526020018b81526020018a60ff168152602001600060405190808252806020026020018201604052801562002ea6578160200160208202803883390190505b50815260208082018a9052604082018990526060820188905260808201879052600160a060020a038f1660a09092019190915282546001810180855560009485529382902083518051600a9093029091019262002f0992849290910190620037be565b50602082810151805162002f249260018501920190620037be565b50604082015160028201805460ff191660ff9092169190911790556060820151805162002f5c9160038401916020909101906200383f565b506080820151600482015560a0820151600582015560c0820151600682015560e082015160078201556101009091015160089091018054600160a060020a031916600160a060020a039092169190911790555062003077565b62002fcb62002fc58d8d62002271565b6200346d565b8962002fd88d8d62002271565b815162002fe99260200190620037be565b508862002ff78d8d62002271565b60010190805190602001906200300f929190620037be565b50876200301d8d8d62002271565b600201805460ff191660ff92909216919091179055856200303f8d8d62002271565b6004015584620030508d8d62002271565b6005015583620030618d8d62002271565b6006015582620030728d8d62002271565b600701555b5060005b8651811015620030b357620030aa8c8c89848151811015156200309a57fe5b90602001906020020151620034fc565b6001016200307b565b620030bf8c8c62002206565b1515620030d257620030d28c8c620035ce565b600160a060020a038b16600090815260208d905260409020549150509a9950505050505050505050565b606081600501805480602002602001604051908101604052809291908181526020016000905b828210156200334057600084815260209081902060408051600a8602909201805460026001821615610100026000190190911604601f81018590049094028301610140908101909252610120830184815292939092849290918491840182828015620031d25780601f10620031a657610100808354040283529160200191620031d2565b820191906000526020600020905b815481529060010190602001808311620031b457829003601f168201915b50505050508152602001600182018054600181600116156101000203166002900480601f016020809104026020016040519081016040528092919081815260200182805460018160011615610100020316600290048015620032785780601f106200324c5761010080835404028352916020019162003278565b820191906000526020600020905b8154815290600101906020018083116200325a57829003601f168201915b5050509183525050600282015460ff166020808301919091526003830180546040805182850281018501825282815294019392830182828015620032e657602002820191906000526020600020905b8154600160a060020a03168152600190910190602001808311620032c7575b50505091835250506004820154602080830191909152600583015460408301526006830154606083015260078301546080830152600890920154600160a060020a031660a090910152908252600192909201910162003122565b505050509050919050565b60006200335983836200219f565b15156200336557600080fd5b50600160a060020a03166000908152602091909152604090205490565b6000620033918484846200264d565b15156200339d57600080fd5b50600160a060020a039182166000908152600493909301602090815260408085209290931684525290205490565b600160a060020a0381161515620033e157600080fd5b620033ed828262002698565b1515620033f957600080fd5b600160a060020a0316600090815260209190915260409020805460ff19169055565b600160a060020a03811615156200343157600080fd5b6200343d828262002698565b156200344857600080fd5b600160a060020a0316600090815260209190915260409020805460ff19166001179055565b6003810154600090811015620034f8575060005b6003820154811015620034e55760008260090160008460030184815481101515620034a857fe5b600091825260208083209190910154600160a060020a031683528201929092526040019020805460ff191691151591909117905560010162003481565b6000620034f6600384018262003897565b505b5050565b600160a060020a03811615156200351257600080fd5b6200351f838383620021cf565b156200352a57600080fd5b62003536838362002271565b60030180546001808201835560009283526020909220018054600160a060020a031916600160a060020a03841617905562003572848462002271565b600160a060020a0383811660008181526009939093016020526040808420805460ff1916951515959095179094559251908516917ffa5891b558f0fb64bcbdc5f17fa7bbee3a47f97f4c8f523556d0494941a1e18b91a3505050565b6000620035dc838362002206565b15620035e757600080fd5b50600160a060020a0381166000818152600284016020818152604080842080546003890184528286208680528452828620805460ff191660011790558686526004890184528286208680528452828620819055958552928252805161010081018252848152808301859052808201859052606081018590526080810185905260a0810185905260c081018590528151858152928301909152919260e08301919050905281546001808201808555600094855260209485902084516008909402018054600160a060020a031916600160a060020a03909416939093178355838501519183019190915560408301516002830155606083015160038301556080830151600483015560a0830151600583015560c0830151600683015560e08301518051919462000e52926007850192909101906200383f565b6080604051908101604052806004906020820280388339509192915050565b604051611683806200390383390190565b60408051808201825290600290829080388339509192915050565b828054828255906000526020600020908101928215620037ac5760005260206000209182015b82811115620037ac5782548255916001019190600101906200378f565b50620037ba929150620038be565b5090565b828054600181600116156101000203166002900490600052602060002090601f016020900481019282601f106200380157805160ff191683800117855562003831565b8280016001018555821562003831579182015b828111156200383157825182559160200191906001019062003814565b50620037ba929150620038e5565b828054828255906000526020600020908101928215620037ac579160200282015b82811115620037ac5782518254600160a060020a031916600160a060020a0390911617825560209092019160019091019062003860565b815481835581811115620034f657600083815260209020620034f6918101908301620038e5565b6200137b91905b80821115620037ba578054600160a060020a0319168155600101620038c5565b6200137b91905b80821115620037ba5760008155600101620038ec560060806040523480156200001157600080fd5b50604051620016833803806200168383398101604090815281516020830151918301519083019291909101908282826200005433640100000000620000f1810204565b825162000069906001906020860190620001d6565b5081516200007f906002906020850190620001d6565b506003805460ff90921660ff19909216919091179055505060078054600160a060020a03191633179081905560408051600160a060020a03929092168252517f4101e71e974f68df5e9730cc223280b41654676bbb052cdcc735c3337e64d2d99181900360200190a15050506200027b565b6200010c600082640100000000620012ec6200014382021704565b604051600160a060020a038216907f44d6d25963f097ad14f29f06854a01f575648a1ef82f30e562ccd3889717e33990600090a250565b600160a060020a03811615156200015957600080fd5b6200016e82826401000000006200019e810204565b156200017957600080fd5b600160a060020a0316600090815260209190915260409020805460ff19166001179055565b6000600160a060020a0382161515620001b657600080fd5b50600160a060020a03166000908152602091909152604090205460ff1690565b828054600181600116156101000203166002900490600052602060002090601f016020900481019282601f106200021957805160ff191683800117855562000249565b8280016001018555821562000249579182015b82811115620002495782518255916020019190600101906200022c565b50620002579291506200025b565b5090565b6200027891905b8082111562000257576000815560010162000262565b90565b6113f8806200028b6000396000f3006080604052600436106101485763ffffffff7c010000000000000000000000000000000000000000000000000000000060003504166306fdde03811461014d578063095ea7b3146101d75780631785f53c1461020f57806318160ddd146102325780632348238c1461025957806323b872dd1461027a57806324d7806c146102a4578063313ce567146102c557806339509351146102f057806342966c68146103145780634afbf5ee1461032c5780636618846314610350578063704802751461037457806370a082311461039557806379cc6790146103b65780638bad0c0a146103da57806395d89b41146103ef5780639d2e477714610404578063a457c2d714610431578063a9059cbb14610455578063c6dbdf6114610479578063d0047acf146104aa578063d294cb0f146104d7578063d73dd623146104f8578063dd62ed3e1461051c575b600080fd5b34801561015957600080fd5b50610162610543565b6040805160208082528351818301528351919283929083019185019080838360005b8381101561019c578181015183820152602001610184565b50505050905090810190601f1680156101c95780820380516001836020036101000a031916815260200191505b509250505060405180910390f35b3480156101e357600080fd5b506101fb600160a060020a03600435166024356105d8565b604080519115158252519081900360200190f35b34801561021b57600080fd5b50610230600160a060020a0360043516610656565b005b34801561023e57600080fd5b50610247610679565b60408051918252519081900360200190f35b34801561026557600080fd5b50610230600160a060020a036004351661067f565b34801561028657600080fd5b506101fb600160a060020a0360043581169060243516604435610712565b3480156102b057600080fd5b506101fb600160a060020a036004351661075a565b3480156102d157600080fd5b506102da610772565b6040805160ff9092168252519081900360200190f35b3480156102fc57600080fd5b506101fb600160a060020a036004351660243561077b565b34801561032057600080fd5b5061023060043561082b565b34801561033857600080fd5b50610247600160a060020a0360043516602435610835565b34801561035c57600080fd5b506101fb600160a060020a036004351660243561085d565b34801561038057600080fd5b50610230600160a060020a0360043516610870565b3480156103a157600080fd5b50610247600160a060020a0360043516610890565b3480156103c257600080fd5b50610230600160a060020a03600435166024356108ab565b3480156103e657600080fd5b506102306108b9565b3480156103fb57600080fd5b506101626108c4565b34801561041057600080fd5b506101fb600160a060020a036004351660243563ffffffff60443516610922565b34801561043d57600080fd5b506101fb600160a060020a036004351660243561096d565b34801561046157600080fd5b506101fb600160a060020a03600435166024356109b8565b34801561048557600080fd5b5061048e6109f7565b60408051600160a060020a039092168252519081900360200190f35b3480156104b657600080fd5b506101fb600160a060020a036004351660243563ffffffff60443516610a06565b3480156104e357600080fd5b50610247600160a060020a0360043516610a47565b34801561050457600080fd5b506101fb600160a060020a0360043516602435610b50565b34801561052857600080fd5b50610247600160a060020a0360043581169060243516610b5c565b60018054604080516020601f600260001961010087891615020190951694909404938401819004810282018101909252828152606093909290918301828280156105ce5780601f106105a3576101008083540402835291602001916105ce565b820191906000526020600020905b8154815290600101906020018083116105b157829003601f168201915b5050505050905090565b6000600160a060020a03831615156105ef57600080fd5b336000818152600560209081526040808320600160a060020a03881680855290835292819020869055805186815290519293927f8c5be1e5ebec7d5bd14f71427d1e84f3dd0314c0f7b2291e5b200ac8c7c3b925929181900390910190a350600192915050565b600754600160a060020a0316331461066d57600080fd5b61067681610b87565b50565b60065490565b600754600160a060020a0316331461069657600080fd5b600160a060020a03811615156106ab57600080fd5b6007805473ffffffffffffffffffffffffffffffffffffffff1916600160a060020a03838116919091179182905560408051929091168252517f4101e71e974f68df5e9730cc223280b41654676bbb052cdcc735c3337e64d2d9916020908290030190a150565b600061071d84610bcf565b600160a060020a038316151561073257600080fd5b61073b84610a47565b82111561074757600080fd5b610752848484610d55565b949350505050565b600061076c818363ffffffff610de816565b92915050565b60035460ff1690565b6000600160a060020a038316151561079257600080fd5b336000908152600560209081526040808320600160a060020a03871684529091529020546107c6908363ffffffff610e1f16565b336000818152600560209081526040808320600160a060020a0389168085529083529281902085905580519485525191937f8c5be1e5ebec7d5bd14f71427d1e84f3dd0314c0f7b2291e5b200ac8c7c3b925929081900390910190a350600192915050565b6106763382610e31565b600160a060020a03919091166000908152600860209081526040808320938352929052205490565b6000610869838361096d565b9392505050565b600754600160a060020a0316331461088757600080fd5b61067681610e59565b600160a060020a031660009081526004602052604090205490565b6108b58282610ea1565b5050565b6108c233610b87565b565b60028054604080516020601f60001961010060018716150201909416859004938401819004810282018101909252828152606093909290918301828280156105ce5780601f106105a3576101008083540402835291602001916105ce565b600061092d3361075a565b151561093857600080fd5b61094284846109b8565b50428263ffffffff1611156109635761096333858463ffffffff1686610ec9565b5060019392505050565b6000600160a060020a038316151561098457600080fd5b336000908152600560209081526040808320600160a060020a03871684529091529020546107c6908363ffffffff61100316565b60006109c333610bcf565b600160a060020a03831615156109d857600080fd5b6109e133610a47565b8211156109ed57600080fd5b610869838361101a565b600754600160a060020a031690565b6000610a113361075a565b1515610a1c57600080fd5b610a268484611030565b428263ffffffff161115610963576109636000858463ffffffff1686610ec9565b600080610a5383610890565b600160a060020a03841660009081526008602090815260408083208380529091529020549092501515610a8557610b4a565b5060005b600160a060020a038316600090815260096020526040902054811015610b4a57600160a060020a0383166000908152600960205260409020805442919083908110610ad057fe5b9060005260206000200154101515610b4257600160a060020a0383166000908152600860209081526040808320600990925282208054610b3f93919085908110610b1657fe5b90600052602060002001548152602001908152602001600020548361100390919063ffffffff16565b91505b600101610a89565b50919050565b6000610869838361077b565b600160a060020a03918216600090815260056020908152604080832093909416825291909152205490565b610b9860008263ffffffff6110dc16565b604051600160a060020a038216907fa3b62bc36326052d97ea62d63c3d60308ed4c3ea8ac079dd8499f1e9c4f80c0f90600090a250565b6000600160a060020a0382161515610be657600080fd5b600160a060020a03821660009081526008602090815260408083208380529091529020541515610c15576108b5565b5060005b600160a060020a0382166000908152600960205260409020548110156108b557600160a060020a0382166000908152600960205260409020805442919083908110610c6057fe5b90600052602060002001541015610d4d57600160a060020a0382166000908152600860209081526040808320600990925282208054610ceb93919085908110610ca557fe5b60009182526020808320909101548352828101939093526040918201812054600160a060020a03871682526008845282822082805290935220549063ffffffff61100316565b600160a060020a03831660008181526008602090815260408083208380528083528184209590955592825260099052908120805491929183919085908110610d2f57fe5b90600052602060002001548152602001908152602001600020819055505b600101610c19565b600160a060020a0383166000908152600560209081526040808320338452909152812054821115610d8557600080fd5b600160a060020a0384166000908152600560209081526040808320338452909152902054610db9908363ffffffff61100316565b600160a060020a0385166000908152600560209081526040808320338452909152902055610963848484611128565b6000600160a060020a0382161515610dff57600080fd5b50600160a060020a03166000908152602091909152604090205460ff1690565b60008282018381101561086957600080fd5b610e3a82610bcf565b610e4382610a47565b811115610e4f57600080fd5b6108b5828261121c565b610e6a60008263ffffffff6112ec16565b604051600160a060020a038216907f44d6d25963f097ad14f29f06854a01f575648a1ef82f30e562ccd3889717e33990600090a250565b610eaa82610bcf565b610eb382610a47565b811115610ebf57600080fd5b6108b5828261133a565b600160a060020a0383166000908152600860209081526040808320838052909152902054610efd908263ffffffff610e1f16565b600160a060020a03841660009081526008602090815260408083208380529091528082209290925583815220541515610f5c57600160a060020a0383166000908152600960209081526040822080546001810182559083529120018290555b600160a060020a0383166000908152600860209081526040808320858452909152902054610f90908263ffffffff610e1f16565b600160a060020a0380851660008181526008602090815260408083208884528252918290209490945580519288168352928201528082018390526060810184905290517f4dd99b63a45b55ac0b6999b9307251132e130b3e3f06c04c92b946c0f9e0dc279181900360800190a150505050565b6000808383111561101357600080fd5b5050900390565b6000611027338484611128565b50600192915050565b600160a060020a038216151561104557600080fd5b600654611058908263ffffffff610e1f16565b600655600160a060020a038216600090815260046020526040902054611084908263ffffffff610e1f16565b600160a060020a03831660008181526004602090815260408083209490945583518581529351929391927fddf252ad1be2c89b69c2b068fc378daa952ba7f163c4a11628f55a4df523b3ef9281900390910190a35050565b600160a060020a03811615156110f157600080fd5b6110fb8282610de8565b151561110657600080fd5b600160a060020a0316600090815260209190915260409020805460ff19169055565b600160a060020a03831660009081526004602052604090205481111561114d57600080fd5b600160a060020a038216151561116257600080fd5b600160a060020a03831660009081526004602052604090205461118b908263ffffffff61100316565b600160a060020a0380851660009081526004602052604080822093909355908416815220546111c0908263ffffffff610e1f16565b600160a060020a0380841660008181526004602090815260409182902094909455805185815290519193928716927fddf252ad1be2c89b69c2b068fc378daa952ba7f163c4a11628f55a4df523b3ef92918290030190a3505050565b600160a060020a038216151561123157600080fd5b600160a060020a03821660009081526004602052604090205481111561125657600080fd5b600654611269908263ffffffff61100316565b600655600160a060020a038216600090815260046020526040902054611295908263ffffffff61100316565b600160a060020a0383166000818152600460209081526040808320949094558351858152935191937fddf252ad1be2c89b69c2b068fc378daa952ba7f163c4a11628f55a4df523b3ef929081900390910190a35050565b600160a060020a038116151561130157600080fd5b61130b8282610de8565b1561131557600080fd5b600160a060020a0316600090815260209190915260409020805460ff19166001179055565b600160a060020a038216600090815260056020908152604080832033845290915290205481111561136a57600080fd5b600160a060020a038216600090815260056020908152604080832033845290915290205461139e908263ffffffff61100316565b600160a060020a03831660009081526005602090815260408083203384529091529020556108b58282610e315600a165627a7a72305820062db0e6b0457b0016fe92cec01a2f813c664af8fd4f12281ebacf073384bab80029a165627a7a72305820262be86e0da6780e73b6746d661bbb07621435ca52c789af3e9a181014829b410029",
  "source": "pragma solidity ^0.4.24;\n\nimport \"openzeppelin-solidity/contracts/math/SafeMath.sol\";\nimport \"openzeppelin-solidity/contracts/ownership/Secondary.sol\";\nimport \"openzeppelin-solidity/contracts/utils/ReentrancyGuard.sol\";\nimport \"openzeppelin-solidity/contracts/token/ERC20/ERC20Detailed.sol\";\nimport \"openzeppelin-solidity/contracts/token/ERC20/IERC20.sol\";\nimport \"./crowdsale/factories/IW12CrowdsaleFactory.sol\";\nimport \"./wallets/IWallets.sol\";\nimport \"./access/roles/IAdminRole.sol\";\nimport \"./token/IWToken.sol\";\nimport \"./libs/Percent.sol\";\nimport \"./token/WToken.sol\";\nimport \"./token/exchanger/ITokenExchanger.sol\";\nimport \"./versioning/Versionable.sol\";\nimport \"./access/roles/AdminRole.sol\";\nimport \"./libs/TokenListing.sol\";\n\n\ncontract W12Lister is IAdminRole, AdminRole, Versionable, Secondary, ReentrancyGuard {\n    using SafeMath for uint;\n    using Percent for uint;\n    using TokenListing for TokenListing.Whitelist;\n\n    uint8 constant SERVICE_WALLET_ID = 1;\n\n    ITokenExchanger public exchanger;\n    IW12CrowdsaleFactory public factory;\n    IWallets public wallets;\n\n    TokenListing.Whitelist whitelist;\n\n    event OwnerWhitelisted(address indexed tokenAddress, address indexed tokenOwner);\n    event TokenWhitelisted(address indexed token, address indexed sender, address[] owners, string name, string symbol);\n    event TokenPlaced(address indexed originalToken, address indexed sender, address crowdsale, uint tokenAmount, address placedToken);\n    event CrowdsaleInitialized(address indexed token, address indexed sender, address crowdsale, uint amountForSale);\n    event CrowdsaleTokenMinted(address indexed token, address indexed sender, address crowdsale, uint amount);\n\n    constructor(\n        uint version,\n        IWallets _wallets,\n        IW12CrowdsaleFactory _factory,\n        ITokenExchanger _exchanger\n    ) Versionable(version) public {\n        require(_wallets != address(0));\n        require(_factory != address(0));\n        require(_exchanger != address(0));\n\n        exchanger = _exchanger;\n        wallets = _wallets;\n        factory = _factory;\n    }\n\n    function addAdmin(address _account) public onlyPrimary {\n        _addAdmin(_account);\n    }\n\n    function removeAdmin(address _account) public onlyPrimary {\n        _removeAdmin(_account);\n    }\n\n    function whitelistToken(\n        address token,\n        string name,\n        string symbol,\n        uint8 decimals,\n        address[] owners,\n        uint feePercent,\n        uint ethFeePercent,\n        uint WTokenSaleFeePercent,\n        uint trancheFeePercent\n    )\n        external onlyAdmin\n    {\n        whitelist.addOrUpdate(\n            token,\n            name,\n            symbol,\n            decimals,\n            owners,\n            feePercent,\n            ethFeePercent,\n            WTokenSaleFeePercent,\n            trancheFeePercent\n        );\n\n        emit TokenWhitelisted(token, msg.sender, owners, name, symbol);\n    }\n\n    /**\n     * @notice Place token for sale\n     * @param token Token address\n     * @param crowdsale Crowdsale address\n     * @param amount Token amount to place\n     */\n    function placeToken(address token, address crowdsale, uint amount) external nonReentrant {\n        require(serviceWallet() != address(0));\n        require(amount > 0);\n        require(whitelist.isTokenWhitelisted(token));\n        require(whitelist.hasTokenOwner(token, msg.sender));\n        require(whitelist.hasCrowdsaleWithAddress(token, crowdsale));\n\n        TokenListing.WhitelistedToken storage listedToken = whitelist.getToken(token);\n\n        ERC20Detailed tokenInstance = ERC20Detailed(token);\n\n        require(tokenInstance.allowance(msg.sender, address(this)) >= amount);\n        require(tokenInstance.decimals() == listedToken.decimals);\n\n        uint fee = listedToken.feePercent > 0\n            ? amount.percent(listedToken.feePercent)\n            : 0;\n        uint amountWithoutFee = amount.sub(fee);\n\n        _secureTokenTransfer(IERC20(tokenInstance), exchanger, amountWithoutFee);\n        _secureTokenTransfer(IERC20(tokenInstance), serviceWallet(), fee);\n\n        whitelist.getCrowdsaleByAddress(token, crowdsale).tokensForSaleAmount = whitelist\n            .getCrowdsaleByAddress(token, crowdsale)\n                .tokensForSaleAmount.add(amountWithoutFee);\n\n        if (address(exchanger.getWTokenByToken(token)) == address(0)) {\n            IWToken wToken = new WToken(listedToken.name, listedToken.symbol, listedToken.decimals);\n\n            exchanger.addTokenToListing(ERC20Detailed(token), wToken);\n        }\n\n        emit TokenPlaced(token, msg.sender, crowdsale, amountWithoutFee, address(exchanger.getWTokenByToken(token)));\n    }\n\n    /**\n     * @dev Securely transfer token from sender to account\n     */\n    function _secureTokenTransfer(IERC20 token, address to, uint value) internal {\n        // check for overflow before. we are not sure that the placed token has implemented safe math\n        uint expectedBalance = token.balanceOf(to).add(value);\n\n        token.transferFrom(msg.sender, to, value);\n\n        // check balance to be sure it was filled correctly\n        assert(token.balanceOf(to) == expectedBalance);\n    }\n\n    function initCrowdsale(address token, uint amountForSale, uint price) external nonReentrant {\n        require(serviceWallet() != address(0));\n        require(whitelist.isTokenWhitelisted(token));\n        require(whitelist.hasTokenOwner(token, msg.sender));\n        require(whitelist.hasNotInitialisedCrowdsale(token));\n        require(\n            whitelist.getNotInitialisedCrowdsale(token).tokensForSaleAmount\n                >= whitelist.getNotInitialisedCrowdsale(token).wTokensIssuedAmount.add(amountForSale)\n        );\n\n        TokenListing.WhitelistedToken storage listedToken = whitelist.getToken(token);\n        IWToken wtoken = exchanger.getWTokenByToken(listedToken.token);\n\n        IW12Crowdsale crowdsale = factory.createCrowdsale(\n            listedToken.token,\n            address(wtoken),\n            price,\n            serviceWallet(),\n            listedToken.ethFeePercent,\n            listedToken.WTokenSaleFeePercent,\n            listedToken.trancheFeePercent,\n            address(exchanger),\n            listedToken.owners\n        );\n\n        crowdsale.addAdmin(msg.sender);\n        crowdsale.getFund().addAdmin(msg.sender);\n        wtoken.addAdmin(address(crowdsale));\n\n        whitelist.initializeCrowdsale(token, address(crowdsale));\n\n        if (listedToken.WTokenSaleFeePercent > 0) {\n            exchanger.approve(\n                IERC20(listedToken.token),\n                address(crowdsale),\n                whitelist.getCrowdsaleByAddress(token, address(crowdsale)).tokensForSaleAmount\n                    .percent(listedToken.WTokenSaleFeePercent)\n            );\n        }\n\n        addTokensToCrowdsale(token, address(crowdsale), amountForSale);\n\n        emit CrowdsaleInitialized(listedToken.token, msg.sender, address(crowdsale), amountForSale);\n    }\n\n    function addTokensToCrowdsale(address token, address crowdsale, uint amountForSale) public {\n        require(amountForSale > 0);\n        require(whitelist.isTokenWhitelisted(token));\n        require(whitelist.hasTokenOwner(token, msg.sender));\n        require(whitelist.hasCrowdsaleWithAddress(token, crowdsale));\n        require(address(exchanger.getWTokenByToken(token)) != address(0));\n        require(\n            whitelist.getCrowdsaleByAddress(token, crowdsale).tokensForSaleAmount\n                >= whitelist.getCrowdsaleByAddress(token, crowdsale).wTokensIssuedAmount.add(amountForSale)\n        );\n\n        IWToken wtoken = exchanger.getWTokenByToken(token);\n\n        whitelist.getCrowdsaleByAddress(token, crowdsale).wTokensIssuedAmount = whitelist\n            .getCrowdsaleByAddress(token, crowdsale)\n                .wTokensIssuedAmount.add(amountForSale);\n\n        wtoken.mint(crowdsale, amountForSale, 0);\n\n        emit CrowdsaleTokenMinted(token, msg.sender, address(crowdsale), amountForSale);\n    }\n\n    function getTokenOwners(address token) external view returns (address[]) {\n        return whitelist.getToken(token).owners;\n    }\n\n    function getCrowdsaleOwners(address token, address crowdsale) external view returns (address[]) {\n        return whitelist.getCrowdsaleByAddress(token, crowdsale).owners;\n    }\n\n    function getExchanger() view external returns (ITokenExchanger) {\n        return exchanger;\n    }\n\n    function getToken(address token)\n        external view returns (string name, string symbol, uint8 decimals, address[] owners, uint[4] commissions)\n    {\n        require(whitelist.isTokenWhitelisted(token));\n\n        name = whitelist.getToken(token).name;\n        symbol = whitelist.getToken(token).symbol;\n        decimals = whitelist.getToken(token).decimals;\n        owners = whitelist.getToken(token).owners;\n        commissions[0] = whitelist.getToken(token).feePercent;\n        commissions[1] = whitelist.getToken(token).ethFeePercent;\n        commissions[2] = whitelist.getToken(token).WTokenSaleFeePercent;\n        commissions[3] = whitelist.getToken(token).trancheFeePercent;\n    }\n\n    function getTokens() external view returns (address[]) {\n        address[] memory result = new address[](whitelist.getTokens().length);\n\n        for (uint i = 0; i < whitelist.getTokens().length; i++) {\n            result[i] = whitelist.getTokens()[i].token;\n        }\n\n        return result;\n    }\n\n    function isTokenWhitelisted(address token) external view returns (bool) {\n        return whitelist.isTokenWhitelisted(token);\n    }\n\n    function hasTokenOwner(address token, address owner) external view returns (bool) {\n        return whitelist.hasTokenOwner(token, owner);\n    }\n\n    function getCrowdsales(address token) external view returns (address[]) {\n        address[] memory result = new address[](whitelist.getCrowdsales(token).length);\n\n        for (uint i = 0; i < whitelist.getCrowdsales(token).length; i++) {\n            result[i] = whitelist.getCrowdsales(token)[i].crowdsale;\n        }\n\n        return result;\n    }\n\n    function hasCrowdsaleWithAddress(address token, address crowdsale) external view returns (bool) {\n        return whitelist.hasCrowdsaleWithAddress(token, crowdsale);\n    }\n\n    function hasNotInitialisedCrowdsale(address token) public view returns (bool) {\n        return whitelist.hasNotInitialisedCrowdsale(token);\n    }\n\n    function getCrowdsale(address token, address crowdsale)\n        external view returns (uint[4] commissions, uint[2] amounts, address[] owners)\n    {\n        require(whitelist.hasCrowdsaleWithAddress(token, crowdsale));\n\n        commissions[0] = whitelist.getCrowdsaleByAddress(token, crowdsale).feePercent;\n        commissions[1] = whitelist.getCrowdsaleByAddress(token, crowdsale).ethFeePercent;\n        commissions[2] = whitelist.getCrowdsaleByAddress(token, crowdsale).WTokenSaleFeePercent;\n        commissions[3] = whitelist.getCrowdsaleByAddress(token, crowdsale).trancheFeePercent;\n        amounts[0] = whitelist.getCrowdsaleByAddress(token, crowdsale).tokensForSaleAmount;\n        amounts[1] = whitelist.getCrowdsaleByAddress(token, crowdsale).wTokensIssuedAmount;\n        owners = whitelist.getCrowdsaleByAddress(token, crowdsale).owners;\n    }\n\n    function serviceWallet() public view returns(address) {\n        return wallets.getWallet(SERVICE_WALLET_ID);\n    }\n}\n",
  "sourcePath": "/home/circleci/code/contracts/W12Lister.sol",
  "compiler": {
    "name": "solc",
    "version": "0.4.24+commit.e67f0147.Emscripten.clang"
  },
  "schemaVersion": "2.0.1",
  "updatedAt": "2018-12-06T13:20:48.567Z"
}