{
  "contractName": "W12ListerStub",
  "abi": [
    {
      "constant": false,
      "inputs": [
        {
          "name": "token",
          "type": "address"
        },
        {
          "name": "amountForSale",
          "type": "uint256"
        },
        {
          "name": "price",
          "type": "uint256"
        }
      ],
      "name": "initCrowdsale",
      "outputs": [],
      "payable": false,
      "stateMutability": "nonpayable",
      "type": "function"
    },
    {
      "constant": false,
      "inputs": [
        {
          "name": "_account",
          "type": "address"
        }
      ],
      "name": "removeAdmin",
      "outputs": [],
      "payable": false,
      "stateMutability": "nonpayable",
      "type": "function"
    },
    {
      "constant": true,
      "inputs": [
        {
          "name": "token",
          "type": "address"
        }
      ],
      "name": "getCrowdsales",
      "outputs": [
        {
          "name": "",
          "type": "address[]"
        }
      ],
      "payable": false,
      "stateMutability": "view",
      "type": "function"
    },
    {
      "constant": true,
      "inputs": [
        {
          "name": "token",
          "type": "address"
        }
      ],
      "name": "hasNotInitialisedCrowdsale",
      "outputs": [
        {
          "name": "",
          "type": "bool"
        }
      ],
      "payable": false,
      "stateMutability": "view",
      "type": "function"
    },
    {
      "constant": false,
      "inputs": [
        {
          "name": "token",
          "type": "address"
        },
        {
          "name": "crowdsale",
          "type": "address"
        },
        {
          "name": "amountForSale",
          "type": "uint256"
        }
      ],
      "name": "addTokensToCrowdsale",
      "outputs": [],
      "payable": false,
      "stateMutability": "nonpayable",
      "type": "function"
    },
    {
      "constant": false,
      "inputs": [
        {
          "name": "recipient",
          "type": "address"
        }
      ],
      "name": "transferPrimary",
      "outputs": [],
      "payable": false,
      "stateMutability": "nonpayable",
      "type": "function"
    },
    {
      "constant": true,
      "inputs": [
        {
          "name": "account",
          "type": "address"
        }
      ],
      "name": "isAdmin",
      "outputs": [
        {
          "name": "",
          "type": "bool"
        }
      ],
      "payable": false,
      "stateMutability": "view",
      "type": "function"
    },
    {
      "constant": true,
      "inputs": [
        {
          "name": "token",
          "type": "address"
        },
        {
          "name": "crowdsale",
          "type": "address"
        }
      ],
      "name": "getCrowdsaleOwners",
      "outputs": [
        {
          "name": "",
          "type": "address[]"
        }
      ],
      "payable": false,
      "stateMutability": "view",
      "type": "function"
    },
    {
      "constant": true,
      "inputs": [],
      "name": "getExchanger",
      "outputs": [
        {
          "name": "",
          "type": "address"
        }
      ],
      "payable": false,
      "stateMutability": "view",
      "type": "function"
    },
    {
      "constant": true,
      "inputs": [],
      "name": "exchanger",
      "outputs": [
        {
          "name": "",
          "type": "address"
        }
      ],
      "payable": false,
      "stateMutability": "view",
      "type": "function"
    },
    {
      "constant": true,
      "inputs": [],
      "name": "version",
      "outputs": [
        {
          "name": "",
          "type": "uint256"
        }
      ],
      "payable": false,
      "stateMutability": "view",
      "type": "function"
    },
    {
      "constant": true,
      "inputs": [],
      "name": "serviceWallet",
      "outputs": [
        {
          "name": "",
          "type": "address"
        }
      ],
      "payable": false,
      "stateMutability": "view",
      "type": "function"
    },
    {
      "constant": true,
      "inputs": [
        {
          "name": "token",
          "type": "address"
        }
      ],
      "name": "getToken",
      "outputs": [
        {
          "name": "name",
          "type": "string"
        },
        {
          "name": "symbol",
          "type": "string"
        },
        {
          "name": "decimals",
          "type": "uint8"
        },
        {
          "name": "owners",
          "type": "address[]"
        },
        {
          "name": "commissions",
          "type": "uint256[4]"
        }
      ],
      "payable": false,
      "stateMutability": "view",
      "type": "function"
    },
    {
      "constant": false,
      "inputs": [
        {
          "name": "_account",
          "type": "address"
        }
      ],
      "name": "addAdmin",
      "outputs": [],
      "payable": false,
      "stateMutability": "nonpayable",
      "type": "function"
    },
    {
      "constant": false,
      "inputs": [
        {
          "name": "token",
          "type": "address"
        },
        {
          "name": "crowdsale",
          "type": "address"
        },
        {
          "name": "amount",
          "type": "uint256"
        }
      ],
      "name": "placeToken",
      "outputs": [],
      "payable": false,
      "stateMutability": "nonpayable",
      "type": "function"
    },
    {
      "constant": true,
      "inputs": [
        {
          "name": "token",
          "type": "address"
        }
      ],
      "name": "getTokenOwners",
      "outputs": [
        {
          "name": "",
          "type": "address[]"
        }
      ],
      "payable": false,
      "stateMutability": "view",
      "type": "function"
    },
    {
      "constant": true,
      "inputs": [
        {
          "name": "token",
          "type": "address"
        },
        {
          "name": "crowdsale",
          "type": "address"
        }
      ],
      "name": "getCrowdsale",
      "outputs": [
        {
          "name": "commissions",
          "type": "uint256[4]"
        },
        {
          "name": "amounts",
          "type": "uint256[2]"
        },
        {
          "name": "owners",
          "type": "address[]"
        }
      ],
      "payable": false,
      "stateMutability": "view",
      "type": "function"
    },
    {
      "constant": false,
      "inputs": [],
      "name": "renounceAdmin",
      "outputs": [],
      "payable": false,
      "stateMutability": "nonpayable",
      "type": "function"
    },
    {
      "constant": false,
      "inputs": [
        {
          "name": "token",
          "type": "address"
        },
        {
          "name": "name",
          "type": "string"
        },
        {
          "name": "symbol",
          "type": "string"
        },
        {
          "name": "decimals",
          "type": "uint8"
        },
        {
          "name": "owners",
          "type": "address[]"
        },
        {
          "name": "feePercent",
          "type": "uint256"
        },
        {
          "name": "ethFeePercent",
          "type": "uint256"
        },
        {
          "name": "WTokenSaleFeePercent",
          "type": "uint256"
        },
        {
          "name": "trancheFeePercent",
          "type": "uint256"
        }
      ],
      "name": "whitelistToken",
      "outputs": [],
      "payable": false,
      "stateMutability": "nonpayable",
      "type": "function"
    },
    {
      "constant": true,
      "inputs": [],
      "name": "getTokens",
      "outputs": [
        {
          "name": "",
          "type": "address[]"
        }
      ],
      "payable": false,
      "stateMutability": "view",
      "type": "function"
    },
    {
      "constant": true,
      "inputs": [
        {
          "name": "token",
          "type": "address"
        }
      ],
      "name": "isTokenWhitelisted",
      "outputs": [
        {
          "name": "",
          "type": "bool"
        }
      ],
      "payable": false,
      "stateMutability": "view",
      "type": "function"
    },
    {
      "constant": true,
      "inputs": [],
      "name": "factory",
      "outputs": [
        {
          "name": "",
          "type": "address"
        }
      ],
      "payable": false,
      "stateMutability": "view",
      "type": "function"
    },
    {
      "constant": true,
      "inputs": [],
      "name": "primary",
      "outputs": [
        {
          "name": "",
          "type": "address"
        }
      ],
      "payable": false,
      "stateMutability": "view",
      "type": "function"
    },
    {
      "constant": true,
      "inputs": [
        {
          "name": "token",
          "type": "address"
        },
        {
          "name": "crowdsale",
          "type": "address"
        }
      ],
      "name": "hasCrowdsaleWithAddress",
      "outputs": [
        {
          "name": "",
          "type": "bool"
        }
      ],
      "payable": false,
      "stateMutability": "view",
      "type": "function"
    },
    {
      "constant": true,
      "inputs": [],
      "name": "wallets",
      "outputs": [
        {
          "name": "",
          "type": "address"
        }
      ],
      "payable": false,
      "stateMutability": "view",
      "type": "function"
    },
    {
      "constant": true,
      "inputs": [
        {
          "name": "token",
          "type": "address"
        },
        {
          "name": "owner",
          "type": "address"
        }
      ],
      "name": "hasTokenOwner",
      "outputs": [
        {
          "name": "",
          "type": "bool"
        }
      ],
      "payable": false,
      "stateMutability": "view",
      "type": "function"
    },
    {
      "inputs": [
        {
          "name": "version",
          "type": "uint256"
        },
        {
          "name": "_wallets",
          "type": "address"
        },
        {
          "name": "_factory",
          "type": "address"
        },
        {
          "name": "_exchanger",
          "type": "address"
        }
      ],
      "payable": false,
      "stateMutability": "nonpayable",
      "type": "constructor"
    },
    {
      "anonymous": false,
      "inputs": [
        {
          "indexed": true,
          "name": "tokenAddress",
          "type": "address"
        },
        {
          "indexed": true,
          "name": "tokenOwner",
          "type": "address"
        }
      ],
      "name": "OwnerWhitelisted",
      "type": "event"
    },
    {
      "anonymous": false,
      "inputs": [
        {
          "indexed": true,
          "name": "token",
          "type": "address"
        },
        {
          "indexed": true,
          "name": "sender",
          "type": "address"
        },
        {
          "indexed": false,
          "name": "owners",
          "type": "address[]"
        },
        {
          "indexed": false,
          "name": "name",
          "type": "string"
        },
        {
          "indexed": false,
          "name": "symbol",
          "type": "string"
        }
      ],
      "name": "TokenWhitelisted",
      "type": "event"
    },
    {
      "anonymous": false,
      "inputs": [
        {
          "indexed": true,
          "name": "originalToken",
          "type": "address"
        },
        {
          "indexed": true,
          "name": "sender",
          "type": "address"
        },
        {
          "indexed": false,
          "name": "crowdsale",
          "type": "address"
        },
        {
          "indexed": false,
          "name": "tokenAmount",
          "type": "uint256"
        },
        {
          "indexed": false,
          "name": "placedToken",
          "type": "address"
        }
      ],
      "name": "TokenPlaced",
      "type": "event"
    },
    {
      "anonymous": false,
      "inputs": [
        {
          "indexed": true,
          "name": "token",
          "type": "address"
        },
        {
          "indexed": true,
          "name": "sender",
          "type": "address"
        },
        {
          "indexed": false,
          "name": "crowdsale",
          "type": "address"
        },
        {
          "indexed": false,
          "name": "amountForSale",
          "type": "uint256"
        }
      ],
      "name": "CrowdsaleInitialized",
      "type": "event"
    },
    {
      "anonymous": false,
      "inputs": [
        {
          "indexed": true,
          "name": "token",
          "type": "address"
        },
        {
          "indexed": true,
          "name": "sender",
          "type": "address"
        },
        {
          "indexed": false,
          "name": "crowdsale",
          "type": "address"
        },
        {
          "indexed": false,
          "name": "amount",
          "type": "uint256"
        }
      ],
      "name": "CrowdsaleTokenMinted",
      "type": "event"
    },
    {
      "anonymous": false,
      "inputs": [
        {
          "indexed": false,
          "name": "recipient",
          "type": "address"
        }
      ],
      "name": "PrimaryTransferred",
      "type": "event"
    },
    {
      "anonymous": false,
      "inputs": [
        {
          "indexed": true,
          "name": "account",
          "type": "address"
        }
      ],
      "name": "AdminAdded",
      "type": "event"
    },
    {
      "anonymous": false,
      "inputs": [
        {
          "indexed": true,
          "name": "account",
          "type": "address"
        }
      ],
      "name": "AdminRemoved",
      "type": "event"
    }
  ],
  "bytecode": "0x60806040523480156200001157600080fd5b506040516080806200517b83398101604090815281516020830151918301516060909301519092908383838383620000523364010000000062000134810204565b60015560028054600160a060020a03191633179081905560408051600160a060020a03929092168252517f4101e71e974f68df5e9730cc223280b41654676bbb052cdcc735c3337e64d2d99181900360200190a16001600355600160a060020a0383161515620000c157600080fd5b600160a060020a0382161515620000d757600080fd5b600160a060020a0381161515620000ed57600080fd5b60048054600160a060020a0319908116600160a060020a03938416179091556006805482169483169490941790935560058054909316911617905550620002199350505050565b6200014f600082640100000000620033bc6200018682021704565b604051600160a060020a038216907f44d6d25963f097ad14f29f06854a01f575648a1ef82f30e562ccd3889717e33990600090a250565b600160a060020a03811615156200019c57600080fd5b620001b18282640100000000620001e1810204565b15620001bc57600080fd5b600160a060020a0316600090815260209190915260409020805460ff19166001179055565b6000600160a060020a0382161515620001f957600080fd5b50600160a060020a03166000908152602091909152604090205460ff1690565b614f5280620002296000396000f300608060405260043610620001555763ffffffff60e060020a60003504166309363c9981146200015a5780631785f53c14620001865780631cd82e6014620001aa57806320f59dc7146200022057806321689c1a14620002585780632348238c146200028557806324d7806c14620002a9578063460f0b6b14620002cd5780634b1acf3914620002f75780634d12fca4146200032b57806354fd4d5014620003435780635641f3c3146200036d57806359770438146200038557806370480275146200050b57806375dd8cfc146200052f578063849072b9146200055c57806386ad639814620005805780638bad0c0a1462000659578063a800199e1462000671578063aa6ca80814620006cd578063b5af090f14620006e5578063c45a01551462000709578063c6dbdf611462000721578063c96a68c11462000739578063d2f4a50a1462000763578063e45725d8146200077b575b600080fd5b3480156200016757600080fd5b5062000184600160a060020a0360043516602435604435620007a5565b005b3480156200019357600080fd5b5062000184600160a060020a036004351662000e5b565b348015620001b757600080fd5b50620001ce600160a060020a036004351662000e69565b60408051602080825283518183015283519192839290830191858101910280838360005b838110156200020c578181015183820152602001620001f2565b505050509050019250505060405180910390f35b3480156200022d57600080fd5b5062000244600160a060020a036004351662000f31565b604080519115158252519081900360200190f35b3480156200026557600080fd5b5062000184600160a060020a036004358116906024351660443562000f4c565b3480156200029257600080fd5b5062000184600160a060020a03600435166200123e565b348015620002b657600080fd5b5062000244600160a060020a0360043516620012ae565b348015620002da57600080fd5b50620001ce600160a060020a0360043581169060243516620012c2565b3480156200030457600080fd5b506200030f6200133e565b60408051600160a060020a039092168252519081900360200190f35b3480156200033857600080fd5b506200030f6200134e565b3480156200035057600080fd5b506200035b6200135d565b60408051918252519081900360200190f35b3480156200037a57600080fd5b506200030f62001363565b3480156200039257600080fd5b50620003a9600160a060020a0360043516620013fd565b6040518080602001806020018660ff1660ff1681526020018060200185600460200280838360005b83811015620003eb578181015183820152602001620003d1565b50505050905001848103845289818151815260200191508051906020019080838360005b83811015620004295781810151838201526020016200040f565b50505050905090810190601f168015620004575780820380516001836020036101000a031916815260200191505b5084810383528851815288516020918201918a019080838360005b838110156200048c57818101518382015260200162000472565b50505050905090810190601f168015620004ba5780820380516001836020036101000a031916815260200191505b508481038252865181528651602091820191808901910280838360005b83811015620004f1578181015183820152602001620004d7565b505050509050019850505050505050505060405180910390f35b3480156200051857600080fd5b5062000184600160a060020a036004351662001672565b3480156200053c57600080fd5b5062000184600160a060020a03600435811690602435166044356200167d565b3480156200056957600080fd5b50620001ce600160a060020a036004351662001cf0565b3480156200058d57600080fd5b50620005aa600160a060020a036004358116906024351662001d6a565b6040518084608080838360005b83811015620005d1578181015183820152602001620005b7565b5050505090500183600260200280838360005b83811015620005fe578181015183820152602001620005e4565b5050505090500180602001828103825283818151815260200191508051906020019060200280838360005b838110156200064357818101518382015260200162000629565b5050505090500194505050505060405180910390f35b3480156200066657600080fd5b506200018462001e9f565b3480156200067e57600080fd5b506200018460048035600160a060020a0316906024803580820192908101359160443580820192908101359160643560ff169160843591820191013560a43560c43560e4356101043562001eac565b348015620006da57600080fd5b50620001ce62002015565b348015620006f257600080fd5b5062000244600160a060020a0360043516620020cb565b3480156200071657600080fd5b506200030f620020e0565b3480156200072e57600080fd5b506200030f620020ef565b3480156200074657600080fd5b5062000244600160a060020a0360043581169060243516620020fe565b3480156200077057600080fd5b506200030f6200211b565b3480156200078857600080fd5b5062000244600160a060020a03600435811690602435166200212a565b60038054600101908190556000908190819081620007c262001363565b600160a060020a03161415620007d757600080fd5b620007ea60078863ffffffff6200214016565b1515620007f657600080fd5b6200080a6007883363ffffffff6200217016565b15156200081657600080fd5b6200082960078863ffffffff620021a716565b15156200083557600080fd5b6200085e866200084d60078a63ffffffff620021ef16565b600601549063ffffffff620021ff16565b6200087160078963ffffffff620021ef16565b6005015410156200088157600080fd5b6200089460078863ffffffff6200221216565b6004805460088301546040805160e260020a630547cdcd028152600160a060020a039283169481019490945251939750169163151f3734916024808201926020929091908290030181600087803b158015620008ef57600080fd5b505af115801562000904573d6000803e3d6000fd5b505050506040513d60208110156200091b57600080fd5b50516005546008860154919450600160a060020a039081169163868b16d9911685886200094762001363565b89600501548a600601548b60070154600460009054906101000a9004600160a060020a03168d6003016040518a63ffffffff1660e060020a028152600401808a600160a060020a0316600160a060020a0316815260200189600160a060020a0316600160a060020a0316815260200188815260200187600160a060020a0316600160a060020a0316815260200186815260200185815260200184815260200183600160a060020a0316600160a060020a0316815260200180602001828103825283818154815260200191508054801562000a4b57602002820191906000526020600020905b8154600160a060020a0316815260019091019060200180831162000a2c575b50509a5050505050505050505050602060405180830381600087803b15801562000a7457600080fd5b505af115801562000a89573d6000803e3d6000fd5b505050506040513d602081101562000aa057600080fd5b5051604080517f704802750000000000000000000000000000000000000000000000000000000081523360048201529051919350600160a060020a0384169163704802759160248082019260009290919082900301818387803b15801562000b0757600080fd5b505af115801562000b1c573d6000803e3d6000fd5b5050505081600160a060020a0316638edd6eb66040518163ffffffff1660e060020a028152600401602060405180830381600087803b15801562000b5f57600080fd5b505af115801562000b74573d6000803e3d6000fd5b505050506040513d602081101562000b8b57600080fd5b5051604080517f704802750000000000000000000000000000000000000000000000000000000081523360048201529051600160a060020a039092169163704802759160248082019260009290919082900301818387803b15801562000bf057600080fd5b505af115801562000c05573d6000803e3d6000fd5b5050505082600160a060020a03166370480275836040518263ffffffff1660e060020a0281526004018082600160a060020a0316600160a060020a03168152602001915050600060405180830381600087803b15801562000c6557600080fd5b505af115801562000c7a573d6000803e3d6000fd5b5062000c959250600791508990508463ffffffff6200224516565b60008460060154111562000de9576004546008850154600160a060020a039182169163e1f21c6791168462000cd360078c8363ffffffff620023f916565b6005015473__Percent_______________________________6342318e3d90918a600601546040518363ffffffff1660e060020a028152600401808381526020018281526020019250505060206040518083038186803b15801562000d3757600080fd5b505af415801562000d4c573d6000803e3d6000fd5b505050506040513d602081101562000d6357600080fd5b50516040805160e060020a63ffffffff8716028152600160a060020a0394851660048201529290931660248301526044820152905160648083019260209291908290030181600087803b15801562000dba57600080fd5b505af115801562000dcf573d6000803e3d6000fd5b505050506040513d602081101562000de657600080fd5b50505b62000df687838862000f4c565b600884015460408051600160a060020a038581168252602082018a905282513394909116927fc9cecf9fabde631d7582b55fdaf2a8800e68f0063771104348deff501b7c2827928290030190a3600354811462000e5257600080fd5b50505050505050565b62000e668162002469565b50565b606080600062000e8160078563ffffffff620024b316565b5160405190808252806020026020018201604052801562000eac578160200160208202803883390190505b509150600090505b62000ec760078563ffffffff620024b316565b5181101562000f2a5762000ee360078563ffffffff620024b316565b80518290811062000ef057fe5b6020908102909101015151825183908390811062000f0a57fe5b600160a060020a0390921660209283029091019091015260010162000eb4565b5092915050565b600062000f4660078363ffffffff620021a716565b92915050565b600080821162000f5b57600080fd5b62000f6e60078563ffffffff6200214016565b151562000f7a57600080fd5b62000f8e6007853363ffffffff6200217016565b151562000f9a57600080fd5b62000fae6007858563ffffffff620025ee16565b151562000fba57600080fd5b600480546040805160e260020a630547cdcd028152600160a060020a038881169482019490945290516000939092169163151f37349160248082019260209290919082900301818787803b1580156200101257600080fd5b505af115801562001027573d6000803e3d6000fd5b505050506040513d60208110156200103e57600080fd5b5051600160a060020a031614156200105557600080fd5b6200106e826200084d6007878763ffffffff620023f916565b620010826007868663ffffffff620023f916565b6005015410156200109257600080fd5b600480546040805160e260020a630547cdcd028152600160a060020a03888116948201949094529051929091169163151f3734916024808201926020929091908290030181600087803b158015620010e957600080fd5b505af1158015620010fe573d6000803e3d6000fd5b505050506040513d60208110156200111557600080fd5b5051905062001132826200084d6007878763ffffffff620023f916565b620011466007868663ffffffff620023f916565b60060155604080517fd0047acf000000000000000000000000000000000000000000000000000000008152600160a060020a0385811660048301526024820185905260006044830181905292519084169263d0047acf92606480820193602093909283900390910190829087803b158015620011c157600080fd5b505af1158015620011d6573d6000803e3d6000fd5b505050506040513d6020811015620011ed57600080fd5b505060408051600160a060020a0385811682526020820185905282513393918816927fd663b1d1c366a683f19929e0e0f10df9ee4ba14bb42fb2f37e63605b0828da2a92908290030190a350505050565b600160a060020a03811615156200125457600080fd5b60028054600160a060020a031916600160a060020a03838116919091179182905560408051929091168252517f4101e71e974f68df5e9730cc223280b41654676bbb052cdcc735c3337e64d2d9916020908290030190a150565b600062000f46818363ffffffff6200263916565b6060620012d86007848463ffffffff620023f916565b6007018054806020026020016040519081016040528092919081815260200182805480156200133157602002820191906000526020600020905b8154600160a060020a0316815260019091019060200180831162001312575b5050505050905092915050565b600454600160a060020a03165b90565b600454600160a060020a031681565b60015481565b600654604080517fe3ff76e4000000000000000000000000000000000000000000000000000000008152600160048201529051600092600160a060020a03169163e3ff76e491602480830192602092919082900301818787803b158015620013ca57600080fd5b505af1158015620013df573d6000803e3d6000fd5b505050506040513d6020811015620013f657600080fd5b5051905090565b606080600060606200140e620036bf565b6200142160078763ffffffff6200214016565b15156200142d57600080fd5b6200144060078763ffffffff6200221216565b805460408051602060026001851615610100026000190190941693909304601f81018490048402820184019092528181529291830182828015620014c85780601f106200149c57610100808354040283529160200191620014c8565b820191906000526020600020905b815481529060010190602001808311620014aa57829003601f168201915b50505050509450620014e58660076200221290919063ffffffff16565b60019081018054604080516020600295841615610100026000190190931694909404601f810183900483028501830190915280845290830182828015620015705780601f10620015445761010080835404028352916020019162001570565b820191906000526020600020905b8154815290600101906020018083116200155257829003601f168201915b505050505093506200158d8660076200221290919063ffffffff16565b6002015460ff169250620015a960078763ffffffff6200221216565b6003018054806020026020016040519081016040528092919081815260200182805480156200160257602002820191906000526020600020905b8154600160a060020a03168152600190910190602001808311620015e3575b505050505091506200161f8660076200221290919063ffffffff16565b6004015481526200163260078762002212565b6005015460208201526200164860078762002212565b6006015460408201526200165e60078762002212565b600701546060820152939592945090929091565b62000e668162002671565b60038054600101908190556000908190819081908190816200169e62001363565b600160a060020a03161415620016b357600080fd5b60008711620016c157600080fd5b620016d460078a63ffffffff6200214016565b1515620016e057600080fd5b620016f460078a3363ffffffff6200217016565b15156200170057600080fd5b6200171460078a8a63ffffffff620025ee16565b15156200172057600080fd5b6200173360078a63ffffffff6200221216565b604080517fdd62ed3e00000000000000000000000000000000000000000000000000000000815233600482015230602482015290519197508a96508891600160a060020a0388169163dd62ed3e9160448083019260209291908290030181600087803b158015620017a357600080fd5b505af1158015620017b8573d6000803e3d6000fd5b505050506040513d6020811015620017cf57600080fd5b50511015620017dd57600080fd5b8560020160009054906101000a900460ff1660ff1685600160a060020a031663313ce5676040518163ffffffff1660e060020a028152600401602060405180830381600087803b1580156200183157600080fd5b505af115801562001846573d6000803e3d6000fd5b505050506040513d60208110156200185d57600080fd5b505160ff16146200186d57600080fd5b60008660040154116200188257600062001912565b8673__Percent_______________________________6342318e3d909188600401546040518363ffffffff1660e060020a028152600401808381526020018281526020019250505060206040518083038186803b158015620018e357600080fd5b505af4158015620018f8573d6000803e3d6000fd5b505050506040513d60208110156200190f57600080fd5b50515b935062001926878563ffffffff620026bb16565b60045490935062001943908690600160a060020a031685620026d3565b62001959856200195262001363565b86620026d3565b62001983836200197260078c8c63ffffffff620023f916565b600501549063ffffffff620021ff16565b6200199760078b8b63ffffffff620023f916565b60050155600480546040805160e260020a630547cdcd028152600160a060020a038d81169482019490945290516000939092169163151f37349160248082019260209290919082900301818787803b158015620019f357600080fd5b505af115801562001a08573d6000803e3d6000fd5b505050506040513d602081101562001a1f57600080fd5b5051600160a060020a0316141562001c005760028601548690600182019060ff1662001a4a620036de565b60ff8216604082015260608082528454600260001961010060018416150201909116049082018190528190602082019060808301908790801562001ad25780601f1062001aa65761010080835404028352916020019162001ad2565b820191906000526020600020905b81548152906001019060200180831162001ab457829003601f168201915b505083810382528554600260001961010060018416150201909116048082526020909101908690801562001b4a5780601f1062001b1e5761010080835404028352916020019162001b4a565b820191906000526020600020905b81548152906001019060200180831162001b2c57829003601f168201915b505095505050505050604051809103906000f08015801562001b70573d6000803e3d6000fd5b5060048054604080517fa0736912000000000000000000000000000000000000000000000000000000008152600160a060020a038e8116948201949094528385166024820152905193955091169163a07369129160448082019260009290919082900301818387803b15801562001be657600080fd5b505af115801562001bfb573d6000803e3d6000fd5b505050505b600480546040805160e260020a630547cdcd028152600160a060020a038d811694820185905291513394937f168493f0b2b7abab85259c2b490c5d5dff8fcde395381ac5084f554f7e9e2951938e938a93919092169163151f37349160248083019260209291908290030181600087803b15801562001c7e57600080fd5b505af115801562001c93573d6000803e3d6000fd5b505050506040513d602081101562001caa57600080fd5b505160408051600160a060020a039485168152602081019390935292168183015290519081900360600190a3600354811462001ce557600080fd5b505050505050505050565b606062001d0560078363ffffffff6200221216565b60030180548060200260200160405190810160405280929190818152602001828054801562001d5e57602002820191906000526020600020905b8154600160a060020a0316815260019091019060200180831162001d3f575b50505050509050919050565b62001d74620036bf565b62001d7e620036ef565b606062001d946007868663ffffffff620025ee16565b151562001da057600080fd5b62001db46007868663ffffffff620023f916565b60010154835262001dc860078686620023f9565b60020154602084015262001ddf60078686620023f9565b60030154604084015262001df660078686620023f9565b60040154606084015262001e0d60078686620023f9565b60050154825262001e2160078686620023f9565b60060154602083015262001e3860078686620023f9565b60070180548060200260200160405190810160405280929190818152602001828054801562001e9157602002820191906000526020600020905b8154600160a060020a0316815260019091019060200180831162001e72575b505050505090509250925092565b62001eaa3362002469565b565b62001f618c8c8c8080601f0160208091040260200160405190810160405280939291908181526020018383808284378201915050505050508b8b8080601f0160208091040260200160405190810160405280939291908181526020018383808284378201915050505050508a8a8a80806020026020016040519081016040528093929190818152602001838360200280828437506007999897969594508e93508d92508c91508b905063ffffffff620028b716565b5033600160a060020a03168c600160a060020a03167f02b6ecbf927eba8b506d1ceacc9ca4887d0f3978e6e1b6b3c423ceefc021b31a88888f8f8f8f6040518080602001806020018060200184810384528a8a82818152602001925060200280828437909101858103845288815260200190508888808284379091018581038352868152602001905086868082843760405192018290039b50909950505050505050505050a3505050505050505050505050565b60608060006200202660076200309d565b5160405190808252806020026020018201604052801562002051578160200160208202803883390190505b509150600090505b6200206560076200309d565b51811015620020c5576200207a60076200309d565b8051829081106200208757fe5b9060200190602002015161010001518282815181101515620020a557fe5b600160a060020a0390921660209283029091019091015260010162002059565b50919050565b600062000f4660078363ffffffff6200214016565b600554600160a060020a031681565b600254600160a060020a031690565b6000620021146007848463ffffffff620025ee16565b9392505050565b600654600160a060020a031681565b6000620021146007848463ffffffff6200217016565b600160a060020a031660009081526001820160209081526040808320938252808320548352929052205460ff1690565b60006200217e848462002212565b600160a060020a0383166000908152600991909101602052604090205460ff1690509392505050565b6000620021b5838362002140565b1515620021c157600080fd5b50600160a060020a031660009081526003919091016020908152604080832083805290915290205460ff1690565b60006200211483836000620023f9565b6000828201838110156200211457600080fd5b600082600501620022248484620032ec565b815481106200222f57fe5b90600052602060002090600a0201905092915050565b600160a060020a03811615156200225b57600080fd5b620022678383620021a7565b15156200227357600080fd5b62002280838383620025ee565b156200228b57600080fd5b80620022988484620021ef565b8054600160a060020a031916600160a060020a0392909216919091179055620022c2838362002212565b60040154620022d28484620021ef565b60010155620022e2838362002212565b60050154620022f28484620021ef565b6002015562002302838362002212565b60060154620023128484620021ef565b6003015562002322838362002212565b60070154620023328484620021ef565b6004015562002342838362002212565b600301620023518484620021ef565b600701908054620023649291906200370a565b50600160a060020a03808316600090815260038501602090815260408083209385168352929052908120805460ff19166001179055620023a8908490849062003323565b600160a060020a039283166000818152600486016020908152604080832095909616825284815285822093909355908152600390940181528284208480528152828420805460ff1916905552812055565b600062002408848484620025ee565b15156200241457600080fd5b600160a060020a0380841660009081526002860160209081526040808320600489018352818420948716845293909152902054815481106200245257fe5b906000526020600020906008020190509392505050565b6200247c60008263ffffffff6200336c16565b604051600160a060020a038216907fa3b62bc36326052d97ea62d63c3d60308ed4c3ea8ac079dd8499f1e9c4f80c0f90600090a250565b6060620024c1838362002140565b1515620024cd57600080fd5b600160a060020a0382166000908152600284016020908152604080832080548251818502810185019093528083529193909284015b82821015620025e25760008481526020908190206040805161010081018252600886029092018054600160a060020a031683526001810154838501526002810154838301526003810154606084015260048101546080840152600581015460a0840152600681015460c08401526007810180548351818702810187019094528084529394919360e086019392830182828015620025c957602002820191906000526020600020905b8154600160a060020a03168152600190910190602001808311620025aa575b5050505050815250508152602001906001019062002502565b50505050905092915050565b6000620025fc848462002140565b15156200260857600080fd5b50600160a060020a039182166000908152600393909301602090815260408085209290931684525290205460ff1690565b6000600160a060020a03821615156200265157600080fd5b50600160a060020a03166000908152602091909152604090205460ff1690565b6200268460008263ffffffff620033bc16565b604051600160a060020a038216907f44d6d25963f097ad14f29f06854a01f575648a1ef82f30e562ccd3889717e33990600090a250565b60008083831115620026cc57600080fd5b5050900390565b6000620027718285600160a060020a03166370a08231866040518263ffffffff1660e060020a0281526004018082600160a060020a0316600160a060020a03168152602001915050602060405180830381600087803b1580156200273657600080fd5b505af11580156200274b573d6000803e3d6000fd5b505050506040513d60208110156200276257600080fd5b50519063ffffffff620021ff16565b604080517f23b872dd000000000000000000000000000000000000000000000000000000008152336004820152600160a060020a038681166024830152604482018690529151929350908616916323b872dd916064808201926020929091908290030181600087803b158015620027e757600080fd5b505af1158015620027fc573d6000803e3d6000fd5b505050506040513d60208110156200281357600080fd5b5050604080517f70a08231000000000000000000000000000000000000000000000000000000008152600160a060020a038581166004830152915183928716916370a082319160248083019260209291908290030181600087803b1580156200287b57600080fd5b505af115801562002890573d6000803e3d6000fd5b505050506040513d6020811015620028a757600080fd5b505114620028b157fe5b50505050565b600080600160a060020a038b161515620028d057600080fd5b8651600010620028df57600080fd5b8573__Percent_______________________________63520b006690916040518263ffffffff1660e060020a0281526004018082815260200191505060206040518083038186803b1580156200293457600080fd5b505af415801562002949573d6000803e3d6000fd5b505050506040513d60208110156200296057600080fd5b50518015620029f1575060648673__Percent_______________________________630fe9114790916040518263ffffffff1660e060020a0281526004018082815260200191505060206040518083038186803b158015620029c157600080fd5b505af4158015620029d6573d6000803e3d6000fd5b505050506040513d6020811015620029ed57600080fd5b5051105b1515620029fd57600080fd5b8473__Percent_______________________________63520b006690916040518263ffffffff1660e060020a0281526004018082815260200191505060206040518083038186803b15801562002a5257600080fd5b505af415801562002a67573d6000803e3d6000fd5b505050506040513d602081101562002a7e57600080fd5b5051801562002b0f575060648573__Percent_______________________________630fe9114790916040518263ffffffff1660e060020a0281526004018082815260200191505060206040518083038186803b15801562002adf57600080fd5b505af415801562002af4573d6000803e3d6000fd5b505050506040513d602081101562002b0b57600080fd5b5051105b151562002b1b57600080fd5b8373__Percent_______________________________63520b006690916040518263ffffffff1660e060020a0281526004018082815260200191505060206040518083038186803b15801562002b7057600080fd5b505af415801562002b85573d6000803e3d6000fd5b505050506040513d602081101562002b9c57600080fd5b5051801562002c2d575060648473__Percent_______________________________630fe9114790916040518263ffffffff1660e060020a0281526004018082815260200191505060206040518083038186803b15801562002bfd57600080fd5b505af415801562002c12573d6000803e3d6000fd5b505050506040513d602081101562002c2957600080fd5b5051105b151562002c3957600080fd5b8273__Percent_______________________________63520b006690916040518263ffffffff1660e060020a0281526004018082815260200191505060206040518083038186803b15801562002c8e57600080fd5b505af415801562002ca3573d6000803e3d6000fd5b505050506040513d602081101562002cba57600080fd5b5051801562002d4b575060648373__Percent_______________________________630fe9114790916040518263ffffffff1660e060020a0281526004018082815260200191505060206040518083038186803b15801562002d1b57600080fd5b505af415801562002d30573d6000803e3d6000fd5b505050506040513d602081101562002d4757600080fd5b5051105b151562002d5757600080fd5b62002d638c8c62002140565b151562002f56578b600501805490508c60000160008d600160a060020a0316600160a060020a031681526020019081526020016000208190555060018c60010160008d600160a060020a0316600160a060020a0316815260200190815260200160002060008e60050180549050815260200190815260200160002060006101000a81548160ff0219169083151502179055508b600501610120604051908101604052808c81526020018b81526020018a60ff168152602001600060405190808252806020026020018201604052801562002e47578160200160208202803883390190505b50815260208082018a9052604082018990526060820188905260808201879052600160a060020a038f1660a09092019190915282546001810180855560009485529382902083518051600a9093029091019262002eaa928492909101906200375f565b50602082810151805162002ec592600185019201906200375f565b50604082015160028201805460ff191660ff9092169190911790556060820151805162002efd916003840191602090910190620037e0565b506080820151600482015560a0820151600582015560c0820151600682015560e082015160078201556101009091015160089091018054600160a060020a031916600160a060020a039092169190911790555062003018565b62002f6c62002f668d8d62002212565b6200340e565b8962002f798d8d62002212565b815162002f8a92602001906200375f565b508862002f988d8d62002212565b600101908051906020019062002fb09291906200375f565b508762002fbe8d8d62002212565b600201805460ff191660ff929092169190911790558562002fe08d8d62002212565b600401558462002ff18d8d62002212565b6005015583620030028d8d62002212565b6006015582620030138d8d62002212565b600701555b5060005b865181101562003054576200304b8c8c89848151811015156200303b57fe5b906020019060200201516200349d565b6001016200301c565b620030608c8c620021a7565b15156200307357620030738c8c6200356f565b600160a060020a038b16600090815260208d905260409020549150509a9950505050505050505050565b606081600501805480602002602001604051908101604052809291908181526020016000905b82821015620032e157600084815260209081902060408051600a8602909201805460026001821615610100026000190190911604601f81018590049094028301610140908101909252610120830184815292939092849290918491840182828015620031735780601f10620031475761010080835404028352916020019162003173565b820191906000526020600020905b8154815290600101906020018083116200315557829003601f168201915b50505050508152602001600182018054600181600116156101000203166002900480601f016020809104026020016040519081016040528092919081815260200182805460018160011615610100020316600290048015620032195780601f10620031ed5761010080835404028352916020019162003219565b820191906000526020600020905b815481529060010190602001808311620031fb57829003601f168201915b5050509183525050600282015460ff1660208083019190915260038301805460408051828502810185018252828152940193928301828280156200328757602002820191906000526020600020905b8154600160a060020a0316815260019091019060200180831162003268575b50505091835250506004820154602080830191909152600583015460408301526006830154606083015260078301546080830152600890920154600160a060020a031660a0909101529082526001929092019101620030c3565b505050509050919050565b6000620032fa838362002140565b15156200330657600080fd5b50600160a060020a03166000908152602091909152604090205490565b600062003332848484620025ee565b15156200333e57600080fd5b50600160a060020a039182166000908152600493909301602090815260408085209290931684525290205490565b600160a060020a03811615156200338257600080fd5b6200338e828262002639565b15156200339a57600080fd5b600160a060020a0316600090815260209190915260409020805460ff19169055565b600160a060020a0381161515620033d257600080fd5b620033de828262002639565b15620033e957600080fd5b600160a060020a0316600090815260209190915260409020805460ff19166001179055565b600381015460009081101562003499575060005b60038201548110156200348657600082600901600084600301848154811015156200344957fe5b600091825260208083209190910154600160a060020a031683528201929092526040019020805460ff191691151591909117905560010162003422565b600062003497600384018262003838565b505b5050565b600160a060020a0381161515620034b357600080fd5b620034c083838362002170565b15620034cb57600080fd5b620034d7838362002212565b60030180546001808201835560009283526020909220018054600160a060020a031916600160a060020a03841617905562003513848462002212565b600160a060020a0383811660008181526009939093016020526040808420805460ff1916951515959095179094559251908516917ffa5891b558f0fb64bcbdc5f17fa7bbee3a47f97f4c8f523556d0494941a1e18b91a3505050565b60006200357d8383620021a7565b156200358857600080fd5b50600160a060020a0381166000818152600284016020818152604080842080546003890184528286208680528452828620805460ff191660011790558686526004890184528286208680528452828620819055958552928252805161010081018252848152808301859052808201859052606081018590526080810185905260a0810185905260c081018590528151858152928301909152919260e08301919050905281546001808201808555600094855260209485902084516008909402018054600160a060020a031916600160a060020a03909416939093178355838501519183019190915560408301516002830155606083015160038301556080830151600483015560a0830151600583015560c0830151600683015560e08301518051919462000e5292600785019290910190620037e0565b6080604051908101604052806004906020820280388339509192915050565b60405161168380620038a483390190565b60408051808201825290600290829080388339509192915050565b8280548282559060005260206000209081019282156200374d5760005260206000209182015b828111156200374d57825482559160010191906001019062003730565b506200375b9291506200385f565b5090565b828054600181600116156101000203166002900490600052602060002090601f016020900481019282601f10620037a257805160ff1916838001178555620037d2565b82800160010185558215620037d2579182015b82811115620037d2578251825591602001919060010190620037b5565b506200375b92915062003886565b8280548282559060005260206000209081019282156200374d579160200282015b828111156200374d5782518254600160a060020a031916600160a060020a0390911617825560209092019160019091019062003801565b81548183558181111562003497576000838152602090206200349791810190830162003886565b6200134b91905b808211156200375b578054600160a060020a031916815560010162003866565b6200134b91905b808211156200375b57600081556001016200388d560060806040523480156200001157600080fd5b50604051620016833803806200168383398101604090815281516020830151918301519083019291909101908282826200005433640100000000620000f1810204565b825162000069906001906020860190620001d6565b5081516200007f906002906020850190620001d6565b506003805460ff90921660ff19909216919091179055505060078054600160a060020a03191633179081905560408051600160a060020a03929092168252517f4101e71e974f68df5e9730cc223280b41654676bbb052cdcc735c3337e64d2d99181900360200190a15050506200027b565b6200010c600082640100000000620012ec6200014382021704565b604051600160a060020a038216907f44d6d25963f097ad14f29f06854a01f575648a1ef82f30e562ccd3889717e33990600090a250565b600160a060020a03811615156200015957600080fd5b6200016e82826401000000006200019e810204565b156200017957600080fd5b600160a060020a0316600090815260209190915260409020805460ff19166001179055565b6000600160a060020a0382161515620001b657600080fd5b50600160a060020a03166000908152602091909152604090205460ff1690565b828054600181600116156101000203166002900490600052602060002090601f016020900481019282601f106200021957805160ff191683800117855562000249565b8280016001018555821562000249579182015b82811115620002495782518255916020019190600101906200022c565b50620002579291506200025b565b5090565b6200027891905b8082111562000257576000815560010162000262565b90565b6113f8806200028b6000396000f3006080604052600436106101485763ffffffff7c010000000000000000000000000000000000000000000000000000000060003504166306fdde03811461014d578063095ea7b3146101d75780631785f53c1461020f57806318160ddd146102325780632348238c1461025957806323b872dd1461027a57806324d7806c146102a4578063313ce567146102c557806339509351146102f057806342966c68146103145780634afbf5ee1461032c5780636618846314610350578063704802751461037457806370a082311461039557806379cc6790146103b65780638bad0c0a146103da57806395d89b41146103ef5780639d2e477714610404578063a457c2d714610431578063a9059cbb14610455578063c6dbdf6114610479578063d0047acf146104aa578063d294cb0f146104d7578063d73dd623146104f8578063dd62ed3e1461051c575b600080fd5b34801561015957600080fd5b50610162610543565b6040805160208082528351818301528351919283929083019185019080838360005b8381101561019c578181015183820152602001610184565b50505050905090810190601f1680156101c95780820380516001836020036101000a031916815260200191505b509250505060405180910390f35b3480156101e357600080fd5b506101fb600160a060020a03600435166024356105d8565b604080519115158252519081900360200190f35b34801561021b57600080fd5b50610230600160a060020a0360043516610656565b005b34801561023e57600080fd5b50610247610679565b60408051918252519081900360200190f35b34801561026557600080fd5b50610230600160a060020a036004351661067f565b34801561028657600080fd5b506101fb600160a060020a0360043581169060243516604435610712565b3480156102b057600080fd5b506101fb600160a060020a036004351661075a565b3480156102d157600080fd5b506102da610772565b6040805160ff9092168252519081900360200190f35b3480156102fc57600080fd5b506101fb600160a060020a036004351660243561077b565b34801561032057600080fd5b5061023060043561082b565b34801561033857600080fd5b50610247600160a060020a0360043516602435610835565b34801561035c57600080fd5b506101fb600160a060020a036004351660243561085d565b34801561038057600080fd5b50610230600160a060020a0360043516610870565b3480156103a157600080fd5b50610247600160a060020a0360043516610890565b3480156103c257600080fd5b50610230600160a060020a03600435166024356108ab565b3480156103e657600080fd5b506102306108b9565b3480156103fb57600080fd5b506101626108c4565b34801561041057600080fd5b506101fb600160a060020a036004351660243563ffffffff60443516610922565b34801561043d57600080fd5b506101fb600160a060020a036004351660243561096d565b34801561046157600080fd5b506101fb600160a060020a03600435166024356109b8565b34801561048557600080fd5b5061048e6109f7565b60408051600160a060020a039092168252519081900360200190f35b3480156104b657600080fd5b506101fb600160a060020a036004351660243563ffffffff60443516610a06565b3480156104e357600080fd5b50610247600160a060020a0360043516610a47565b34801561050457600080fd5b506101fb600160a060020a0360043516602435610b50565b34801561052857600080fd5b50610247600160a060020a0360043581169060243516610b5c565b60018054604080516020601f600260001961010087891615020190951694909404938401819004810282018101909252828152606093909290918301828280156105ce5780601f106105a3576101008083540402835291602001916105ce565b820191906000526020600020905b8154815290600101906020018083116105b157829003601f168201915b5050505050905090565b6000600160a060020a03831615156105ef57600080fd5b336000818152600560209081526040808320600160a060020a03881680855290835292819020869055805186815290519293927f8c5be1e5ebec7d5bd14f71427d1e84f3dd0314c0f7b2291e5b200ac8c7c3b925929181900390910190a350600192915050565b600754600160a060020a0316331461066d57600080fd5b61067681610b87565b50565b60065490565b600754600160a060020a0316331461069657600080fd5b600160a060020a03811615156106ab57600080fd5b6007805473ffffffffffffffffffffffffffffffffffffffff1916600160a060020a03838116919091179182905560408051929091168252517f4101e71e974f68df5e9730cc223280b41654676bbb052cdcc735c3337e64d2d9916020908290030190a150565b600061071d84610bcf565b600160a060020a038316151561073257600080fd5b61073b84610a47565b82111561074757600080fd5b610752848484610d55565b949350505050565b600061076c818363ffffffff610de816565b92915050565b60035460ff1690565b6000600160a060020a038316151561079257600080fd5b336000908152600560209081526040808320600160a060020a03871684529091529020546107c6908363ffffffff610e1f16565b336000818152600560209081526040808320600160a060020a0389168085529083529281902085905580519485525191937f8c5be1e5ebec7d5bd14f71427d1e84f3dd0314c0f7b2291e5b200ac8c7c3b925929081900390910190a350600192915050565b6106763382610e31565b600160a060020a03919091166000908152600860209081526040808320938352929052205490565b6000610869838361096d565b9392505050565b600754600160a060020a0316331461088757600080fd5b61067681610e59565b600160a060020a031660009081526004602052604090205490565b6108b58282610ea1565b5050565b6108c233610b87565b565b60028054604080516020601f60001961010060018716150201909416859004938401819004810282018101909252828152606093909290918301828280156105ce5780601f106105a3576101008083540402835291602001916105ce565b600061092d3361075a565b151561093857600080fd5b61094284846109b8565b50428263ffffffff1611156109635761096333858463ffffffff1686610ec9565b5060019392505050565b6000600160a060020a038316151561098457600080fd5b336000908152600560209081526040808320600160a060020a03871684529091529020546107c6908363ffffffff61100316565b60006109c333610bcf565b600160a060020a03831615156109d857600080fd5b6109e133610a47565b8211156109ed57600080fd5b610869838361101a565b600754600160a060020a031690565b6000610a113361075a565b1515610a1c57600080fd5b610a268484611030565b428263ffffffff161115610963576109636000858463ffffffff1686610ec9565b600080610a5383610890565b600160a060020a03841660009081526008602090815260408083208380529091529020549092501515610a8557610b4a565b5060005b600160a060020a038316600090815260096020526040902054811015610b4a57600160a060020a0383166000908152600960205260409020805442919083908110610ad057fe5b9060005260206000200154101515610b4257600160a060020a0383166000908152600860209081526040808320600990925282208054610b3f93919085908110610b1657fe5b90600052602060002001548152602001908152602001600020548361100390919063ffffffff16565b91505b600101610a89565b50919050565b6000610869838361077b565b600160a060020a03918216600090815260056020908152604080832093909416825291909152205490565b610b9860008263ffffffff6110dc16565b604051600160a060020a038216907fa3b62bc36326052d97ea62d63c3d60308ed4c3ea8ac079dd8499f1e9c4f80c0f90600090a250565b6000600160a060020a0382161515610be657600080fd5b600160a060020a03821660009081526008602090815260408083208380529091529020541515610c15576108b5565b5060005b600160a060020a0382166000908152600960205260409020548110156108b557600160a060020a0382166000908152600960205260409020805442919083908110610c6057fe5b90600052602060002001541015610d4d57600160a060020a0382166000908152600860209081526040808320600990925282208054610ceb93919085908110610ca557fe5b60009182526020808320909101548352828101939093526040918201812054600160a060020a03871682526008845282822082805290935220549063ffffffff61100316565b600160a060020a03831660008181526008602090815260408083208380528083528184209590955592825260099052908120805491929183919085908110610d2f57fe5b90600052602060002001548152602001908152602001600020819055505b600101610c19565b600160a060020a0383166000908152600560209081526040808320338452909152812054821115610d8557600080fd5b600160a060020a0384166000908152600560209081526040808320338452909152902054610db9908363ffffffff61100316565b600160a060020a0385166000908152600560209081526040808320338452909152902055610963848484611128565b6000600160a060020a0382161515610dff57600080fd5b50600160a060020a03166000908152602091909152604090205460ff1690565b60008282018381101561086957600080fd5b610e3a82610bcf565b610e4382610a47565b811115610e4f57600080fd5b6108b5828261121c565b610e6a60008263ffffffff6112ec16565b604051600160a060020a038216907f44d6d25963f097ad14f29f06854a01f575648a1ef82f30e562ccd3889717e33990600090a250565b610eaa82610bcf565b610eb382610a47565b811115610ebf57600080fd5b6108b5828261133a565b600160a060020a0383166000908152600860209081526040808320838052909152902054610efd908263ffffffff610e1f16565b600160a060020a03841660009081526008602090815260408083208380529091528082209290925583815220541515610f5c57600160a060020a0383166000908152600960209081526040822080546001810182559083529120018290555b600160a060020a0383166000908152600860209081526040808320858452909152902054610f90908263ffffffff610e1f16565b600160a060020a0380851660008181526008602090815260408083208884528252918290209490945580519288168352928201528082018390526060810184905290517f4dd99b63a45b55ac0b6999b9307251132e130b3e3f06c04c92b946c0f9e0dc279181900360800190a150505050565b6000808383111561101357600080fd5b5050900390565b6000611027338484611128565b50600192915050565b600160a060020a038216151561104557600080fd5b600654611058908263ffffffff610e1f16565b600655600160a060020a038216600090815260046020526040902054611084908263ffffffff610e1f16565b600160a060020a03831660008181526004602090815260408083209490945583518581529351929391927fddf252ad1be2c89b69c2b068fc378daa952ba7f163c4a11628f55a4df523b3ef9281900390910190a35050565b600160a060020a03811615156110f157600080fd5b6110fb8282610de8565b151561110657600080fd5b600160a060020a0316600090815260209190915260409020805460ff19169055565b600160a060020a03831660009081526004602052604090205481111561114d57600080fd5b600160a060020a038216151561116257600080fd5b600160a060020a03831660009081526004602052604090205461118b908263ffffffff61100316565b600160a060020a0380851660009081526004602052604080822093909355908416815220546111c0908263ffffffff610e1f16565b600160a060020a0380841660008181526004602090815260409182902094909455805185815290519193928716927fddf252ad1be2c89b69c2b068fc378daa952ba7f163c4a11628f55a4df523b3ef92918290030190a3505050565b600160a060020a038216151561123157600080fd5b600160a060020a03821660009081526004602052604090205481111561125657600080fd5b600654611269908263ffffffff61100316565b600655600160a060020a038216600090815260046020526040902054611295908263ffffffff61100316565b600160a060020a0383166000818152600460209081526040808320949094558351858152935191937fddf252ad1be2c89b69c2b068fc378daa952ba7f163c4a11628f55a4df523b3ef929081900390910190a35050565b600160a060020a038116151561130157600080fd5b61130b8282610de8565b1561131557600080fd5b600160a060020a0316600090815260209190915260409020805460ff19166001179055565b600160a060020a038216600090815260056020908152604080832033845290915290205481111561136a57600080fd5b600160a060020a038216600090815260056020908152604080832033845290915290205461139e908263ffffffff61100316565b600160a060020a03831660009081526005602090815260408083203384529091529020556108b58282610e315600a165627a7a72305820062db0e6b0457b0016fe92cec01a2f813c664af8fd4f12281ebacf073384bab80029a165627a7a72305820f87409a47474d3ddb21621e55ba28a2d47e744650c13ac0f7ae5a674102b0d290029",
  "source": "pragma solidity ^0.4.24;\n\nimport \"./W12Lister.sol\";\nimport \"./crowdsale/factories/IW12CrowdsaleFactory.sol\";\nimport \"./wallets/IWallets.sol\";\nimport \"./token/exchanger/ITokenExchanger.sol\";\n\ncontract W12ListerStub is W12Lister {\n\n    /**\n    * @dev Allows for any account besides the owner.\n    */\n    modifier onlyPrimary() {\n        _;\n    }\n\n    modifier onlyAdmin {\n        _;\n    }\n\n    constructor (\n        uint version,\n        IWallets _wallets,\n        IW12CrowdsaleFactory _factory,\n        ITokenExchanger _exchanger\n    )\n        W12Lister(\n            version,\n            _wallets,\n            _factory,\n            _exchanger\n        ) public\n    {}\n}\n",
  "sourcePath": "/home/circleci/code/contracts/W12ListerStub.sol",
  "compiler": {
    "name": "solc",
    "version": "0.4.24+commit.e67f0147.Emscripten.clang"
  },
  "schemaVersion": "2.0.1",
  "updatedAt": "2018-12-06T13:20:48.542Z"
}