{
  "contractName": "W12ListerStub",
  "abi": [
    {
      "constant": false,
      "inputs": [
        {
          "name": "token",
          "type": "address"
        },
        {
          "name": "amountForSale",
          "type": "uint256"
        },
        {
          "name": "price",
          "type": "uint256"
        }
      ],
      "name": "initCrowdsale",
      "outputs": [],
      "payable": false,
      "stateMutability": "nonpayable",
      "type": "function"
    },
    {
      "constant": false,
      "inputs": [
        {
          "name": "_account",
          "type": "address"
        }
      ],
      "name": "removeAdmin",
      "outputs": [],
      "payable": false,
      "stateMutability": "nonpayable",
      "type": "function"
    },
    {
      "constant": true,
      "inputs": [
        {
          "name": "token",
          "type": "address"
        }
      ],
      "name": "getCrowdsales",
      "outputs": [
        {
          "name": "",
          "type": "address[]"
        }
      ],
      "payable": false,
      "stateMutability": "view",
      "type": "function"
    },
    {
      "constant": true,
      "inputs": [
        {
          "name": "token",
          "type": "address"
        }
      ],
      "name": "hasNotInitialisedCrowdsale",
      "outputs": [
        {
          "name": "",
          "type": "bool"
        }
      ],
      "payable": false,
      "stateMutability": "view",
      "type": "function"
    },
    {
      "constant": false,
      "inputs": [
        {
          "name": "token",
          "type": "address"
        },
        {
          "name": "crowdsale",
          "type": "address"
        },
        {
          "name": "amountForSale",
          "type": "uint256"
        }
      ],
      "name": "addTokensToCrowdsale",
      "outputs": [],
      "payable": false,
      "stateMutability": "nonpayable",
      "type": "function"
    },
    {
      "constant": false,
      "inputs": [
        {
          "name": "recipient",
          "type": "address"
        }
      ],
      "name": "transferPrimary",
      "outputs": [],
      "payable": false,
      "stateMutability": "nonpayable",
      "type": "function"
    },
    {
      "constant": true,
      "inputs": [
        {
          "name": "account",
          "type": "address"
        }
      ],
      "name": "isAdmin",
      "outputs": [
        {
          "name": "",
          "type": "bool"
        }
      ],
      "payable": false,
      "stateMutability": "view",
      "type": "function"
    },
    {
      "constant": true,
      "inputs": [
        {
          "name": "token",
          "type": "address"
        },
        {
          "name": "crowdsale",
          "type": "address"
        }
      ],
      "name": "getCrowdsaleOwners",
      "outputs": [
        {
          "name": "",
          "type": "address[]"
        }
      ],
      "payable": false,
      "stateMutability": "view",
      "type": "function"
    },
    {
      "constant": true,
      "inputs": [],
      "name": "getExchanger",
      "outputs": [
        {
          "name": "",
          "type": "address"
        }
      ],
      "payable": false,
      "stateMutability": "view",
      "type": "function"
    },
    {
      "constant": true,
      "inputs": [],
      "name": "exchanger",
      "outputs": [
        {
          "name": "",
          "type": "address"
        }
      ],
      "payable": false,
      "stateMutability": "view",
      "type": "function"
    },
    {
      "constant": true,
      "inputs": [],
      "name": "version",
      "outputs": [
        {
          "name": "",
          "type": "uint256"
        }
      ],
      "payable": false,
      "stateMutability": "view",
      "type": "function"
    },
    {
      "constant": true,
      "inputs": [],
      "name": "serviceWallet",
      "outputs": [
        {
          "name": "",
          "type": "address"
        }
      ],
      "payable": false,
      "stateMutability": "view",
      "type": "function"
    },
    {
      "constant": true,
      "inputs": [
        {
          "name": "token",
          "type": "address"
        }
      ],
      "name": "getToken",
      "outputs": [
        {
          "name": "name",
          "type": "string"
        },
        {
          "name": "symbol",
          "type": "string"
        },
        {
          "name": "decimals",
          "type": "uint8"
        },
        {
          "name": "owners",
          "type": "address[]"
        },
        {
          "name": "commissions",
          "type": "uint256[4]"
        },
        {
          "name": "paymentMethods",
          "type": "bytes32[]"
        },
        {
          "name": "paymentMethodsPurchaseFee",
          "type": "uint256[]"
        }
      ],
      "payable": false,
      "stateMutability": "view",
      "type": "function"
    },
    {
      "constant": false,
      "inputs": [
        {
          "name": "_account",
          "type": "address"
        }
      ],
      "name": "addAdmin",
      "outputs": [],
      "payable": false,
      "stateMutability": "nonpayable",
      "type": "function"
    },
    {
      "constant": false,
      "inputs": [
        {
          "name": "token",
          "type": "address"
        },
        {
          "name": "crowdsale",
          "type": "address"
        },
        {
          "name": "amount",
          "type": "uint256"
        }
      ],
      "name": "placeToken",
      "outputs": [],
      "payable": false,
      "stateMutability": "nonpayable",
      "type": "function"
    },
    {
      "constant": false,
      "inputs": [
        {
          "name": "token",
          "type": "address"
        },
        {
          "name": "name",
          "type": "string"
        },
        {
          "name": "symbol",
          "type": "string"
        },
        {
          "name": "decimals",
          "type": "uint8"
        },
        {
          "name": "owners",
          "type": "address[]"
        },
        {
          "name": "commissions",
          "type": "uint256[4]"
        },
        {
          "name": "paymentMethods",
          "type": "bytes32[]"
        },
        {
          "name": "paymentMethodsPurchaseFee",
          "type": "uint256[]"
        }
      ],
      "name": "whitelistToken",
      "outputs": [],
      "payable": false,
      "stateMutability": "nonpayable",
      "type": "function"
    },
    {
      "constant": true,
      "inputs": [
        {
          "name": "token",
          "type": "address"
        }
      ],
      "name": "getTokenOwners",
      "outputs": [
        {
          "name": "",
          "type": "address[]"
        }
      ],
      "payable": false,
      "stateMutability": "view",
      "type": "function"
    },
    {
      "constant": true,
      "inputs": [
        {
          "name": "token",
          "type": "address"
        },
        {
          "name": "crowdsale",
          "type": "address"
        }
      ],
      "name": "getCrowdsale",
      "outputs": [
        {
          "name": "commissions",
          "type": "uint256[4]"
        },
        {
          "name": "amounts",
          "type": "uint256[2]"
        },
        {
          "name": "owners",
          "type": "address[]"
        },
        {
          "name": "paymentMethods",
          "type": "bytes32[]"
        },
        {
          "name": "paymentMethodsPurchaseFee",
          "type": "uint256[]"
        }
      ],
      "payable": false,
      "stateMutability": "view",
      "type": "function"
    },
    {
      "constant": false,
      "inputs": [],
      "name": "renounceAdmin",
      "outputs": [],
      "payable": false,
      "stateMutability": "nonpayable",
      "type": "function"
    },
    {
      "constant": true,
      "inputs": [],
      "name": "getTokens",
      "outputs": [
        {
          "name": "",
          "type": "address[]"
        }
      ],
      "payable": false,
      "stateMutability": "view",
      "type": "function"
    },
    {
      "constant": true,
      "inputs": [
        {
          "name": "token",
          "type": "address"
        }
      ],
      "name": "isTokenWhitelisted",
      "outputs": [
        {
          "name": "",
          "type": "bool"
        }
      ],
      "payable": false,
      "stateMutability": "view",
      "type": "function"
    },
    {
      "constant": true,
      "inputs": [],
      "name": "factory",
      "outputs": [
        {
          "name": "",
          "type": "address"
        }
      ],
      "payable": false,
      "stateMutability": "view",
      "type": "function"
    },
    {
      "constant": true,
      "inputs": [],
      "name": "primary",
      "outputs": [
        {
          "name": "",
          "type": "address"
        }
      ],
      "payable": false,
      "stateMutability": "view",
      "type": "function"
    },
    {
      "constant": true,
      "inputs": [
        {
          "name": "token",
          "type": "address"
        },
        {
          "name": "crowdsale",
          "type": "address"
        }
      ],
      "name": "hasCrowdsaleWithAddress",
      "outputs": [
        {
          "name": "",
          "type": "bool"
        }
      ],
      "payable": false,
      "stateMutability": "view",
      "type": "function"
    },
    {
      "constant": true,
      "inputs": [],
      "name": "wallets",
      "outputs": [
        {
          "name": "",
          "type": "address"
        }
      ],
      "payable": false,
      "stateMutability": "view",
      "type": "function"
    },
    {
      "constant": true,
      "inputs": [
        {
          "name": "token",
          "type": "address"
        },
        {
          "name": "owner",
          "type": "address"
        }
      ],
      "name": "hasTokenOwner",
      "outputs": [
        {
          "name": "",
          "type": "bool"
        }
      ],
      "payable": false,
      "stateMutability": "view",
      "type": "function"
    },
    {
      "inputs": [
        {
          "name": "version",
          "type": "uint256"
        },
        {
          "name": "_wallets",
          "type": "address"
        },
        {
          "name": "_factory",
          "type": "address"
        },
        {
          "name": "_exchanger",
          "type": "address"
        }
      ],
      "payable": false,
      "stateMutability": "nonpayable",
      "type": "constructor"
    },
    {
      "anonymous": false,
      "inputs": [
        {
          "indexed": true,
          "name": "tokenAddress",
          "type": "address"
        },
        {
          "indexed": true,
          "name": "tokenOwner",
          "type": "address"
        }
      ],
      "name": "OwnerWhitelisted",
      "type": "event"
    },
    {
      "anonymous": false,
      "inputs": [
        {
          "indexed": true,
          "name": "token",
          "type": "address"
        },
        {
          "indexed": true,
          "name": "sender",
          "type": "address"
        },
        {
          "indexed": false,
          "name": "owners",
          "type": "address[]"
        }
      ],
      "name": "TokenWhitelisted",
      "type": "event"
    },
    {
      "anonymous": false,
      "inputs": [
        {
          "indexed": true,
          "name": "originalToken",
          "type": "address"
        },
        {
          "indexed": true,
          "name": "sender",
          "type": "address"
        },
        {
          "indexed": false,
          "name": "crowdsale",
          "type": "address"
        },
        {
          "indexed": false,
          "name": "tokenAmount",
          "type": "uint256"
        },
        {
          "indexed": false,
          "name": "placedToken",
          "type": "address"
        }
      ],
      "name": "TokenPlaced",
      "type": "event"
    },
    {
      "anonymous": false,
      "inputs": [
        {
          "indexed": true,
          "name": "token",
          "type": "address"
        },
        {
          "indexed": true,
          "name": "sender",
          "type": "address"
        },
        {
          "indexed": false,
          "name": "crowdsale",
          "type": "address"
        },
        {
          "indexed": false,
          "name": "amountForSale",
          "type": "uint256"
        }
      ],
      "name": "CrowdsaleInitialized",
      "type": "event"
    },
    {
      "anonymous": false,
      "inputs": [
        {
          "indexed": true,
          "name": "token",
          "type": "address"
        },
        {
          "indexed": true,
          "name": "sender",
          "type": "address"
        },
        {
          "indexed": false,
          "name": "crowdsale",
          "type": "address"
        },
        {
          "indexed": false,
          "name": "amount",
          "type": "uint256"
        }
      ],
      "name": "CrowdsaleTokenMinted",
      "type": "event"
    },
    {
      "anonymous": false,
      "inputs": [
        {
          "indexed": false,
          "name": "recipient",
          "type": "address"
        }
      ],
      "name": "PrimaryTransferred",
      "type": "event"
    },
    {
      "anonymous": false,
      "inputs": [
        {
          "indexed": true,
          "name": "account",
          "type": "address"
        }
      ],
      "name": "AdminAdded",
      "type": "event"
    },
    {
      "anonymous": false,
      "inputs": [
        {
          "indexed": true,
          "name": "account",
          "type": "address"
        }
      ],
      "name": "AdminRemoved",
      "type": "event"
    }
  ],
  "bytecode": "0x60806040523480156200001157600080fd5b5060405160808062005b1b83398101604090815281516020830151918301516060909301519092908383838383620000523364010000000062000134810204565b60015560028054600160a060020a03191633179081905560408051600160a060020a03929092168252517f4101e71e974f68df5e9730cc223280b41654676bbb052cdcc735c3337e64d2d99181900360200190a16001600355600160a060020a0383161515620000c157600080fd5b600160a060020a0382161515620000d757600080fd5b600160a060020a0381161515620000ed57600080fd5b60048054600160a060020a0319908116600160a060020a03938416179091556006805482169483169490941790935560058054909316911617905550620002199350505050565b6200014f60008264010000000062003a5e6200018682021704565b604051600160a060020a038216907f44d6d25963f097ad14f29f06854a01f575648a1ef82f30e562ccd3889717e33990600090a250565b600160a060020a03811615156200019c57600080fd5b620001b18282640100000000620001e1810204565b15620001bc57600080fd5b600160a060020a0316600090815260209190915260409020805460ff19166001179055565b6000600160a060020a0382161515620001f957600080fd5b50600160a060020a03166000908152602091909152604090205460ff1690565b6158f280620002296000396000f300608060405260043610620001555763ffffffff60e060020a60003504166309363c9981146200015a5780631785f53c14620001865780631cd82e6014620001aa57806320f59dc7146200022057806321689c1a14620002585780632348238c146200028557806324d7806c14620002a9578063460f0b6b14620002cd5780634b1acf3914620002f75780634d12fca4146200032b57806354fd4d5014620003435780635641f3c3146200036d57806359770438146200038557806370480275146200059957806375dd8cfc14620005bd5780637bcb149914620005ea578063849072b9146200065657806386ad6398146200067a5780638bad0c0a14620007e1578063aa6ca80814620007f9578063b5af090f1462000811578063c45a01551462000835578063c6dbdf61146200084d578063c96a68c11462000865578063d2f4a50a146200088f578063e45725d814620008a7575b600080fd5b3480156200016757600080fd5b5062000184600160a060020a0360043516602435604435620008d1565b005b3480156200019357600080fd5b5062000184600160a060020a036004351662000ef7565b348015620001b757600080fd5b50620001ce600160a060020a036004351662000f05565b60408051602080825283518183015283519192839290830191858101910280838360005b838110156200020c578181015183820152602001620001f2565b505050509050019250505060405180910390f35b3480156200022d57600080fd5b5062000244600160a060020a036004351662000fcd565b604080519115158252519081900360200190f35b3480156200026557600080fd5b5062000184600160a060020a036004358116906024351660443562000fe8565b3480156200029257600080fd5b5062000184600160a060020a0360043516620012da565b348015620002b657600080fd5b5062000244600160a060020a03600435166200134a565b348015620002da57600080fd5b50620001ce600160a060020a03600435811690602435166200135e565b3480156200030457600080fd5b506200030f620013da565b60408051600160a060020a039092168252519081900360200190f35b3480156200033857600080fd5b506200030f620013ea565b3480156200035057600080fd5b506200035b620013f9565b60408051918252519081900360200190f35b3480156200037a57600080fd5b506200030f620013ff565b3480156200039257600080fd5b50620003a9600160a060020a036004351662001499565b6040518080602001806020018860ff1660ff1681526020018060200187600460200280838360005b83811015620003eb578181015183820152602001620003d1565b50505050905001806020018060200186810386528d818151815260200191508051906020019080838360005b838110156200043157818101518382015260200162000417565b50505050905090810190601f1680156200045f5780820380516001836020036101000a031916815260200191505b5086810385528c5181528c516020918201918e019080838360005b83811015620004945781810151838201526020016200047a565b50505050905090810190601f168015620004c25780820380516001836020036101000a031916815260200191505b5086810384528a5181528a51602091820191808d01910280838360005b83811015620004f9578181015183820152602001620004df565b50505050905001868103835288818151815260200191508051906020019060200280838360005b838110156200053a57818101518382015260200162000520565b50505050905001868103825287818151815260200191508051906020019060200280838360005b838110156200057b57818101518382015260200162000561565b505050509050019c5050505050505050505050505060405180910390f35b348015620005a657600080fd5b5062000184600160a060020a0360043516620017ea565b348015620005ca57600080fd5b5062000184600160a060020a0360043581169060243516604435620017f5565b348015620005f757600080fd5b506200018460048035600160a060020a0316906024803580820192908101359160443580820192908101359160643560ff169160843580830192908201359160a491610124358082019290810135916101443590810191013562001e68565b3480156200066357600080fd5b50620001ce600160a060020a03600435166200200f565b3480156200068757600080fd5b50620006a4600160a060020a036004358116906024351662002089565b6040518086608080838360005b83811015620006cb578181015183820152602001620006b1565b5050505090500185600260200280838360005b83811015620006f8578181015183820152602001620006de565b50505050905001806020018060200180602001848103845287818151815260200191508051906020019060200280838360005b83811015620007455781810151838201526020016200072b565b50505050905001848103835286818151815260200191508051906020019060200280838360005b83811015620007865781810151838201526020016200076c565b50505050905001848103825285818151815260200191508051906020019060200280838360005b83811015620007c7578181015183820152602001620007ad565b505050509050019850505050505050505060405180910390f35b348015620007ee57600080fd5b5062000184620022a0565b3480156200080657600080fd5b50620001ce620022ad565b3480156200081e57600080fd5b5062000244600160a060020a036004351662002363565b3480156200084257600080fd5b506200030f62002378565b3480156200085a57600080fd5b506200030f62002387565b3480156200087257600080fd5b5062000244600160a060020a036004358116906024351662002396565b3480156200089c57600080fd5b506200030f620023b3565b348015620008b457600080fd5b5062000244600160a060020a0360043581169060243516620023c2565b60038054600101908190556000908190819081620008ee620013ff565b600160a060020a031614156200090357600080fd5b6200091660078863ffffffff620023d816565b15156200092257600080fd5b620009366007883363ffffffff6200240816565b15156200094257600080fd5b6200095560078863ffffffff6200243f16565b15156200096157600080fd5b6200098a866200097960078a63ffffffff6200248716565b600601549063ffffffff6200249716565b6200099d60078963ffffffff6200248716565b600501541015620009ad57600080fd5b620009c060078863ffffffff620024aa16565b6004805460088301546040805160e260020a630547cdcd028152600160a060020a039283169481019490945251939750169163151f3734916024808201926020929091908290030181600087803b15801562000a1b57600080fd5b505af115801562000a30573d6000803e3d6000fd5b505050506040513d602081101562000a4757600080fd5b50516005546008860154919450600160a060020a039081169163868b16d99116858862000a73620013ff565b89600501548a600601548b60070154600460009054906101000a9004600160a060020a03168d6003016040518a63ffffffff1660e060020a028152600401808a600160a060020a0316600160a060020a0316815260200189600160a060020a0316600160a060020a0316815260200188815260200187600160a060020a0316600160a060020a0316815260200186815260200185815260200184815260200183600160a060020a0316600160a060020a0316815260200180602001828103825283818154815260200191508054801562000b7757602002820191906000526020600020905b8154600160a060020a0316815260019091019060200180831162000b58575b50509a5050505050505050505050602060405180830381600087803b15801562000ba057600080fd5b505af115801562000bb5573d6000803e3d6000fd5b505050506040513d602081101562000bcc57600080fd5b5051604080517f704802750000000000000000000000000000000000000000000000000000000081523360048201529051919350600160a060020a0384169163704802759160248082019260009290919082900301818387803b15801562000c3357600080fd5b505af115801562000c48573d6000803e3d6000fd5b5050505081600160a060020a0316638edd6eb66040518163ffffffff1660e060020a028152600401602060405180830381600087803b15801562000c8b57600080fd5b505af115801562000ca0573d6000803e3d6000fd5b505050506040513d602081101562000cb757600080fd5b5051604080517f704802750000000000000000000000000000000000000000000000000000000081523360048201529051600160a060020a039092169163704802759160248082019260009290919082900301818387803b15801562000d1c57600080fd5b505af115801562000d31573d6000803e3d6000fd5b5050505082600160a060020a03166370480275836040518263ffffffff1660e060020a0281526004018082600160a060020a0316600160a060020a03168152602001915050600060405180830381600087803b15801562000d9157600080fd5b505af115801562000da6573d6000803e3d6000fd5b5062000dc19250600791508990508463ffffffff620024dd16565b62000dcd8285620026ef565b6004546008850154600160a060020a039182169163e1f21c6791168462000dfd60078c8363ffffffff620027bb16565b600501546040805160e060020a63ffffffff8716028152600160a060020a0394851660048201529290931660248301526044820152905160648083019260209291908290030181600087803b15801562000e5657600080fd5b505af115801562000e6b573d6000803e3d6000fd5b505050506040513d602081101562000e8257600080fd5b5062000e92905087838862000fe8565b600884015460408051600160a060020a038581168252602082018a905282513394909116927fc9cecf9fabde631d7582b55fdaf2a8800e68f0063771104348deff501b7c2827928290030190a3600354811462000eee57600080fd5b50505050505050565b62000f02816200282b565b50565b606080600062000f1d60078563ffffffff6200287516565b5160405190808252806020026020018201604052801562000f48578160200160208202803883390190505b509150600090505b62000f6360078563ffffffff6200287516565b5181101562000fc65762000f7f60078563ffffffff6200287516565b80518290811062000f8c57fe5b6020908102909101015151825183908390811062000fa657fe5b600160a060020a0390921660209283029091019091015260010162000f50565b5092915050565b600062000fe260078363ffffffff6200243f16565b92915050565b600080821162000ff757600080fd5b6200100a60078563ffffffff620023d816565b15156200101657600080fd5b6200102a6007853363ffffffff6200240816565b15156200103657600080fd5b6200104a6007858563ffffffff62002a6516565b15156200105657600080fd5b600480546040805160e260020a630547cdcd028152600160a060020a038881169482019490945290516000939092169163151f37349160248082019260209290919082900301818787803b158015620010ae57600080fd5b505af1158015620010c3573d6000803e3d6000fd5b505050506040513d6020811015620010da57600080fd5b5051600160a060020a03161415620010f157600080fd5b6200110a82620009796007878763ffffffff620027bb16565b6200111e6007868663ffffffff620027bb16565b6005015410156200112e57600080fd5b600480546040805160e260020a630547cdcd028152600160a060020a03888116948201949094529051929091169163151f3734916024808201926020929091908290030181600087803b1580156200118557600080fd5b505af11580156200119a573d6000803e3d6000fd5b505050506040513d6020811015620011b157600080fd5b50519050620011ce82620009796007878763ffffffff620027bb16565b620011e26007868663ffffffff620027bb16565b60060155604080517fd0047acf000000000000000000000000000000000000000000000000000000008152600160a060020a0385811660048301526024820185905260006044830181905292519084169263d0047acf92606480820193602093909283900390910190829087803b1580156200125d57600080fd5b505af115801562001272573d6000803e3d6000fd5b505050506040513d60208110156200128957600080fd5b505060408051600160a060020a0385811682526020820185905282513393918816927fd663b1d1c366a683f19929e0e0f10df9ee4ba14bb42fb2f37e63605b0828da2a92908290030190a350505050565b600160a060020a0381161515620012f057600080fd5b60028054600160a060020a031916600160a060020a03838116919091179182905560408051929091168252517f4101e71e974f68df5e9730cc223280b41654676bbb052cdcc735c3337e64d2d9916020908290030190a150565b600062000fe2818363ffffffff62002ab016565b6060620013746007848463ffffffff620027bb16565b600701805480602002602001604051908101604052809291908181526020018280548015620013cd57602002820191906000526020600020905b8154600160a060020a03168152600190910190602001808311620013ae575b5050505050905092915050565b600454600160a060020a03165b90565b600454600160a060020a031681565b60015481565b600654604080517fe3ff76e4000000000000000000000000000000000000000000000000000000008152600160048201529051600092600160a060020a03169163e3ff76e491602480830192602092919082900301818787803b1580156200146657600080fd5b505af11580156200147b573d6000803e3d6000fd5b505050506040513d60208110156200149257600080fd5b5051905090565b60608060006060620014aa62003f9f565b606080620014c060078963ffffffff620023d816565b1515620014cc57600080fd5b620014df60078963ffffffff620024aa16565b805460408051602060026001851615610100026000190190941693909304601f81018490048402820184019092528181529291830182828015620015675780601f106200153b5761010080835404028352916020019162001567565b820191906000526020600020905b8154815290600101906020018083116200154957829003601f168201915b5050505050965062001584886007620024aa90919063ffffffff16565b60019081018054604080516020600295841615610100026000190190931694909404601f8101839004830285018301909152808452908301828280156200160f5780601f10620015e3576101008083540402835291602001916200160f565b820191906000526020600020905b815481529060010190602001808311620015f157829003601f168201915b505050505095506200162c886007620024aa90919063ffffffff16565b6002015460ff1694506200164860078963ffffffff620024aa16565b600301805480602002602001604051908101604052809291908181526020018280548015620016a157602002820191906000526020600020905b8154600160a060020a0316815260019091019060200180831162001682575b50505050509350620016be886007620024aa90919063ffffffff16565b600401548352620016d1600789620024aa565b600501546020840152620016e7600789620024aa565b600601546040840152620016fd600789620024aa565b6007015483600360200201526200171c60078963ffffffff620024aa16565b6009018054806020026020016040519081016040528092919081815260200182805480156200176c57602002820191906000526020600020905b8154815260019091019060200180831162001756575b5050505050915062001789886007620024aa90919063ffffffff16565b600a01805480602002602001604051908101604052809291908181526020018280548015620017d857602002820191906000526020600020905b815481526020019060010190808311620017c3575b50505050509050919395979092949650565b62000f028162002ae8565b600380546001019081905560009081908190819081908162001816620013ff565b600160a060020a031614156200182b57600080fd5b600087116200183957600080fd5b6200184c60078a63ffffffff620023d816565b15156200185857600080fd5b6200186c60078a3363ffffffff6200240816565b15156200187857600080fd5b6200188c60078a8a63ffffffff62002a6516565b15156200189857600080fd5b620018ab60078a63ffffffff620024aa16565b604080517fdd62ed3e00000000000000000000000000000000000000000000000000000000815233600482015230602482015290519197508a96508891600160a060020a0388169163dd62ed3e9160448083019260209291908290030181600087803b1580156200191b57600080fd5b505af115801562001930573d6000803e3d6000fd5b505050506040513d60208110156200194757600080fd5b505110156200195557600080fd5b8560020160009054906101000a900460ff1660ff1685600160a060020a031663313ce5676040518163ffffffff1660e060020a028152600401602060405180830381600087803b158015620019a957600080fd5b505af1158015620019be573d6000803e3d6000fd5b505050506040513d6020811015620019d557600080fd5b505160ff1614620019e557600080fd5b6000866004015411620019fa57600062001a8a565b8673__Percent_______________________________6342318e3d909188600401546040518363ffffffff1660e060020a028152600401808381526020018281526020019250505060206040518083038186803b15801562001a5b57600080fd5b505af415801562001a70573d6000803e3d6000fd5b505050506040513d602081101562001a8757600080fd5b50515b935062001a9e878563ffffffff62002b3216565b60045490935062001abb908690600160a060020a03168562002b4a565b62001ad18562001aca620013ff565b8662002b4a565b62001afb8362001aea60078c8c63ffffffff620027bb16565b600501549063ffffffff6200249716565b62001b0f60078b8b63ffffffff620027bb16565b60050155600480546040805160e260020a630547cdcd028152600160a060020a038d81169482019490945290516000939092169163151f37349160248082019260209290919082900301818787803b15801562001b6b57600080fd5b505af115801562001b80573d6000803e3d6000fd5b505050506040513d602081101562001b9757600080fd5b5051600160a060020a0316141562001d785760028601548690600182019060ff1662001bc262003fbe565b60ff8216604082015260608082528454600260001961010060018416150201909116049082018190528190602082019060808301908790801562001c4a5780601f1062001c1e5761010080835404028352916020019162001c4a565b820191906000526020600020905b81548152906001019060200180831162001c2c57829003601f168201915b505083810382528554600260001961010060018416150201909116048082526020909101908690801562001cc25780601f1062001c965761010080835404028352916020019162001cc2565b820191906000526020600020905b81548152906001019060200180831162001ca457829003601f168201915b505095505050505050604051809103906000f08015801562001ce8573d6000803e3d6000fd5b5060048054604080517fa0736912000000000000000000000000000000000000000000000000000000008152600160a060020a038e8116948201949094528385166024820152905193955091169163a07369129160448082019260009290919082900301818387803b15801562001d5e57600080fd5b505af115801562001d73573d6000803e3d6000fd5b505050505b600480546040805160e260020a630547cdcd028152600160a060020a038d811694820185905291513394937f168493f0b2b7abab85259c2b490c5d5dff8fcde395381ac5084f554f7e9e2951938e938a93919092169163151f37349160248083019260209291908290030181600087803b15801562001df657600080fd5b505af115801562001e0b573d6000803e3d6000fd5b505050506040513d602081101562001e2257600080fd5b505160408051600160a060020a039485168152602081019390935292168183015290519081900360600190a3600354811462001e5d57600080fd5b505050505050505050565b62001f988d8d8d8080601f0160208091040260200160405190810160405280939291908181526020018383808284378201915050505050508c8c8080601f0160208091040260200160405190810160405280939291908181526020018383808284378201915050505050508b8b8b80806020026020016040519081016040528093929190818152602001838360200280828437505060408051608081810190925294508f93506004925084915083908082843782019150505050508a8a808060200260200160405190810160405280939291908181526020018383602002808284378201915050505050508989808060200260200160405190810160405280939291908181526020018383602002808284375060079c9b9a999897969594505063ffffffff62002d2e1692505050565b5033600160a060020a03168d600160a060020a03167fa4917a011b74f5b834db606e372973c8201acae06d70a133197b7dfe85b5142389896040518080602001828103825284848281815260200192506020028082843760405192018290039550909350505050a350505050505050505050505050565b60606200202460078363ffffffff620024aa16565b6003018054806020026020016040519081016040528092919081815260200182805480156200207d57602002820191906000526020600020905b8154600160a060020a031681526001909101906020018083116200205e575b50505050509050919050565b6200209362003f9f565b6200209d62003fcf565b60608080620020b56007888863ffffffff62002a6516565b1515620020c157600080fd5b620020d56007888863ffffffff620027bb16565b600101548552620020e960078888620027bb565b6002015460208601526200210060078888620027bb565b6003015460408601526200211760078888620027bb565b6004015460608601526200212e60078888620027bb565b6005015484526200214260078888620027bb565b6006015460208501526200215960078888620027bb565b600701805480602002602001604051908101604052809291908181526020018280548015620021b257602002820191906000526020600020905b8154600160a060020a0316815260019091019060200180831162002193575b50505050509250620021d187876007620027bb9092919063ffffffff16565b6008018054806020026020016040519081016040528092919081815260200182805480156200222157602002820191906000526020600020905b815481526001909101906020018083116200220b575b505050505091506200224087876007620027bb9092919063ffffffff16565b6009018054806020026020016040519081016040528092919081815260200182805480156200228f57602002820191906000526020600020905b8154815260200190600101908083116200227a575b505050505090509295509295909350565b620022ab336200282b565b565b6060806000620022be600762003674565b51604051908082528060200260200182016040528015620022e9578160200160208202803883390190505b509150600090505b620022fd600762003674565b518110156200235d5762002312600762003674565b8051829081106200231f57fe5b90602001906020020151610100015182828151811015156200233d57fe5b600160a060020a03909216602092830290910190910152600101620022f1565b50919050565b600062000fe260078363ffffffff620023d816565b600554600160a060020a031681565b600254600160a060020a031690565b6000620023ac6007848463ffffffff62002a6516565b9392505050565b600654600160a060020a031681565b6000620023ac6007848463ffffffff6200240816565b600160a060020a031660009081526001820160209081526040808320938252808320548352929052205460ff1690565b6000620024168484620024aa565b600160a060020a0383166000908152600b91909101602052604090205460ff1690509392505050565b60006200244d8383620023d8565b15156200245957600080fd5b50600160a060020a031660009081526003919091016020908152604080832083805290915290205460ff1690565b6000620023ac83836000620027bb565b600082820183811015620023ac57600080fd5b600082600501620024bc84846200398e565b81548110620024c757fe5b90600052602060002090600c0201905092915050565b600160a060020a0381161515620024f357600080fd5b620024ff83836200243f565b15156200250b57600080fd5b6200251883838362002a65565b156200252357600080fd5b8062002530848462002487565b8054600160a060020a031916600160a060020a03929092169190911790556200255a8383620024aa565b600401546200256a848462002487565b600101556200257a8383620024aa565b600501546200258a848462002487565b600201556200259a8383620024aa565b60060154620025aa848462002487565b60030155620025ba8383620024aa565b60070154620025ca848462002487565b60040155620025da8383620024aa565b600301620025e9848462002487565b600701908054620025fc92919062003fea565b50620026098383620024aa565b60090162002618848462002487565b6008019080546200262b9291906200403f565b50620026388383620024aa565b600a0162002647848462002487565b6009019080546200265a9291906200403f565b50600160a060020a03808316600090815260038501602090815260408083209385168352929052908120805460ff191660011790556200269e9084908490620039c5565b600160a060020a039283166000818152600486016020908152604080832095909616825284815285822093909355908152600390940181528284208480528152828420805460ff1916905552812055565b60005b6009820154811015620027b65782600160a060020a03166359e3774983600901838154811015156200272057fe5b9060005260206000200154600185600a01858154811015156200273f57fe5b60009182526020822001546040805160e060020a63ffffffff8816028152600481019590955292151560248501526044840152905160648084019382900301818387803b1580156200279057600080fd5b505af1158015620027a5573d6000803e3d6000fd5b505060019092019150620026f29050565b505050565b6000620027ca84848462002a65565b1515620027d657600080fd5b600160a060020a0380841660009081526002860160209081526040808320600489018352818420948716845293909152902054815481106200281457fe5b90600052602060002090600a020190509392505050565b6200283e60008263ffffffff62003a0e16565b604051600160a060020a038216907fa3b62bc36326052d97ea62d63c3d60308ed4c3ea8ac079dd8499f1e9c4f80c0f90600090a250565b6060620028838383620023d8565b15156200288f57600080fd5b600160a060020a0382166000908152600284016020908152604080832080548251818502810185019093528083529193909284015b8282101562002a595760008481526020908190206040805161014081018252600a86029092018054600160a060020a031683526001810154838501526002810154838301526003810154606084015260048101546080840152600581015460a0840152600681015460c08401526007810180548351818702810187019094528084529394919360e0860193928301828280156200298b57602002820191906000526020600020905b8154600160a060020a031681526001909101906020018083116200296c575b5050505050815260200160088201805480602002602001604051908101604052809291908181526020018280548015620029e657602002820191906000526020600020905b81548152600190910190602001808311620029d0575b505050505081526020016009820180548060200260200160405190810160405280929190818152602001828054801562002a4057602002820191906000526020600020905b81548152602001906001019080831162002a2b575b50505050508152505081526020019060010190620028c4565b50505050905092915050565b600062002a738484620023d8565b151562002a7f57600080fd5b50600160a060020a039182166000908152600393909301602090815260408085209290931684525290205460ff1690565b6000600160a060020a038216151562002ac857600080fd5b50600160a060020a03166000908152602091909152604090205460ff1690565b62002afb60008263ffffffff62003a5e16565b604051600160a060020a038216907f44d6d25963f097ad14f29f06854a01f575648a1ef82f30e562ccd3889717e33990600090a250565b6000808383111562002b4357600080fd5b5050900390565b600062002be88285600160a060020a03166370a08231866040518263ffffffff1660e060020a0281526004018082600160a060020a0316600160a060020a03168152602001915050602060405180830381600087803b15801562002bad57600080fd5b505af115801562002bc2573d6000803e3d6000fd5b505050506040513d602081101562002bd957600080fd5b50519063ffffffff6200249716565b604080517f23b872dd000000000000000000000000000000000000000000000000000000008152336004820152600160a060020a038681166024830152604482018690529151929350908616916323b872dd916064808201926020929091908290030181600087803b15801562002c5e57600080fd5b505af115801562002c73573d6000803e3d6000fd5b505050506040513d602081101562002c8a57600080fd5b5050604080517f70a08231000000000000000000000000000000000000000000000000000000008152600160a060020a038581166004830152915183928716916370a082319160248083019260209291908290030181600087803b15801562002cf257600080fd5b505af115801562002d07573d6000803e3d6000fd5b505050506040513d602081101562002d1e57600080fd5b50511462002d2857fe5b50505050565b600080600160a060020a038a16151562002d4757600080fd5b855160001062002d5657600080fd5b8451604080517f520b006600000000000000000000000000000000000000000000000000000000815260048101929092525173__Percent_______________________________9163520b0066916024808301926020929190829003018186803b15801562002dc457600080fd5b505af415801562002dd9573d6000803e3d6000fd5b505050506040513d602081101562002df057600080fd5b5051801562002e9c57508451604080517f0fe9114700000000000000000000000000000000000000000000000000000000815260048101929092525160649173__Percent_______________________________91630fe9114791602480820192602092909190829003018186803b15801562002e6c57600080fd5b505af415801562002e81573d6000803e3d6000fd5b505050506040513d602081101562002e9857600080fd5b5051105b151562002ea857600080fd5b602080860151604080517f520b006600000000000000000000000000000000000000000000000000000000815260048101929092525173__Percent_______________________________9263520b00669260248082019391829003018186803b15801562002f1657600080fd5b505af415801562002f2b573d6000803e3d6000fd5b505050506040513d602081101562002f4257600080fd5b5051801562002fed5750602080860151604080517f0fe9114700000000000000000000000000000000000000000000000000000000815260048101929092525160649273__Percent_______________________________92630fe911479260248083019392829003018186803b15801562002fbd57600080fd5b505af415801562002fd2573d6000803e3d6000fd5b505050506040513d602081101562002fe957600080fd5b5051105b151562002ff957600080fd5b846002602002015173__Percent_______________________________63520b006690916040518263ffffffff1660e060020a0281526004018082815260200191505060206040518083038186803b1580156200305557600080fd5b505af41580156200306a573d6000803e3d6000fd5b505050506040513d60208110156200308157600080fd5b505180156200311957506064856002602002015173__Percent_______________________________630fe9114790916040518263ffffffff1660e060020a0281526004018082815260200191505060206040518083038186803b158015620030e957600080fd5b505af4158015620030fe573d6000803e3d6000fd5b505050506040513d60208110156200311557600080fd5b5051105b15156200312557600080fd5b6060850151604080517f520b006600000000000000000000000000000000000000000000000000000000815260048101929092525173__Percent_______________________________9163520b0066916024808301926020929190829003018186803b1580156200319657600080fd5b505af4158015620031ab573d6000803e3d6000fd5b505050506040513d6020811015620031c257600080fd5b505180156200325a57506064856003602002015173__Percent_______________________________630fe9114790916040518263ffffffff1660e060020a0281526004018082815260200191505060206040518083038186803b1580156200322a57600080fd5b505af41580156200323f573d6000803e3d6000fd5b505050506040513d60208110156200325657600080fd5b5051105b15156200326657600080fd5b62003272848462003ab0565b15156200327e57600080fd5b6200328a8b8b620023d8565b1515620034d5578a600501805490508b60000160008c600160a060020a0316600160a060020a031681526020019081526020016000208190555060018b60010160008c600160a060020a0316600160a060020a0316815260200190815260200160002060008d60050180549050815260200190815260200160002060006101000a81548160ff0219169083151502179055508a600501610160604051908101604052808b81526020018a81526020018960ff16815260200160006040519080825280602002602001820160405280156200336e578160200160208202803883390190505b5081528751602080830191909152888101516040808401919091528901516060808401919091528901516080830152600160a060020a038e1660a083015260c0820188905260e090910186905282546001810180855560009485529382902083518051600c90930290910192620033eb9284929091019062004090565b50602082810151805162003406926001850192019062004090565b50604082015160028201805460ff191660ff909216919091179055606082015180516200343e91600384019160209091019062004103565b506080820151600482015560a0820151600582015560c0820151600682015560e08201516007820155610100820151600882018054600160a060020a031916600160a060020a039092169190911790556101208201518051620034ac9160098401916020909101906200415b565b506101408201518051620034cb91600a8401916020909101906200419b565b50505050620035f0565b620034eb620034e58c8c620024aa565b62003c92565b88620034f88c8c620024aa565b815162003509926020019062004090565b5087620035178c8c620024aa565b60010190805190602001906200352f92919062004090565b50866200353d8c8c620024aa565b600201805460ff191660ff929092169190911790558451620035608c8c620024aa565b600401556020850151620035758c8c620024aa565b6005015560408501516200358a8c8c620024aa565b6006015560608501516200359f8c8c620024aa565b6007015583620035b08c8c620024aa565b6009019080519060200190620035c89291906200415b565b5082620035d68c8c620024aa565b600a019080519060200190620035ee9291906200419b565b505b5060005b85518110156200362c57620036238b8b88848151811015156200361357fe5b9060200190602002015162003d1f565b600101620035f4565b620036388b8b6200243f565b15156200364b576200364b8b8b62003df1565b600160a060020a038a16600090815260208c905260409020549150509998505050505050505050565b606081600501805480602002602001604051908101604052809291908181526020016000905b828210156200398357600084815260209081902060408051600c8602909201805460026001821615610100026000190190911604601f810185900490940283016101809081019092526101608301848152929390928492909184918401828280156200374a5780601f106200371e576101008083540402835291602001916200374a565b820191906000526020600020905b8154815290600101906020018083116200372c57829003601f168201915b50505050508152602001600182018054600181600116156101000203166002900480601f016020809104026020016040519081016040528092919081815260200182805460018160011615610100020316600290048015620037f05780601f10620037c457610100808354040283529160200191620037f0565b820191906000526020600020905b815481529060010190602001808311620037d257829003601f168201915b5050509183525050600282015460ff1660208083019190915260038301805460408051828502810185018252828152940193928301828280156200385e57602002820191906000526020600020905b8154600160a060020a031681526001909101906020018083116200383f575b50505050508152602001600482015481526020016005820154815260200160068201548152602001600782015481526020016008820160009054906101000a9004600160a060020a0316600160a060020a0316600160a060020a03168152602001600982018054806020026020016040519081016040528092919081815260200182805480156200391057602002820191906000526020600020905b81548152600190910190602001808311620038fa575b50505050508152602001600a82018054806020026020016040519081016040528092919081815260200182805480156200396a57602002820191906000526020600020905b81548152602001906001019080831162003955575b505050505081525050815260200190600101906200369a565b505050509050919050565b60006200399c8383620023d8565b1515620039a857600080fd5b50600160a060020a03166000908152602091909152604090205490565b6000620039d484848462002a65565b1515620039e057600080fd5b50600160a060020a039182166000908152600493909301602090815260408085209290931684525290205490565b600160a060020a038116151562003a2457600080fd5b62003a30828262002ab0565b151562003a3c57600080fd5b600160a060020a0316600090815260209190915260409020805460ff19169055565b600160a060020a038116151562003a7457600080fd5b62003a80828262002ab0565b1562003a8b57600080fd5b600160a060020a0316600090815260209190915260409020805460ff19166001179055565b600080600083518551141562003c8557600091505b845182101562003c7b57838281518110151562003ade57fe5b9060200190602002015173__Percent_______________________________63520b006690916040518263ffffffff1660e060020a0281526004018082815260200191505060206040518083038186803b15801562003b3c57600080fd5b505af415801562003b51573d6000803e3d6000fd5b505050506040513d602081101562003b6857600080fd5b5051158062003c03575073__Percent_______________________________63d49d51816040518163ffffffff1660e060020a02815260040160206040518083038186803b15801562003bba57600080fd5b505af415801562003bcf573d6000803e3d6000fd5b505050506040513d602081101562003be657600080fd5b5051845185908490811062003bf757fe5b90602001906020020151115b1562003c13576000925062003c8a565b50600181015b845181101562003c6f57848181518110151562003c3257fe5b60209081029091010151855186908490811062003c4b57fe5b60209081029091010151141562003c66576000925062003c8a565b60010162003c19565b60019091019062003ac5565b6001925062003c8a565b600092505b505092915050565b600381015460009081101562003d1b575060005b600382015481101562003d0a57600082600b016000846003018481548110151562003ccd57fe5b600091825260208083209190910154600160a060020a031683528201929092526040019020805460ff191691151591909117905560010162003ca6565b6000620027b66003840182620041d8565b5050565b600160a060020a038116151562003d3557600080fd5b62003d4283838362002408565b1562003d4d57600080fd5b62003d598383620024aa565b60030180546001808201835560009283526020909220018054600160a060020a031916600160a060020a03841617905562003d958484620024aa565b600160a060020a038381166000818152600b939093016020526040808420805460ff1916951515959095179094559251908516917ffa5891b558f0fb64bcbdc5f17fa7bbee3a47f97f4c8f523556d0494941a1e18b91a3505050565b600062003dff83836200243f565b1562003e0a57600080fd5b50600160a060020a0381166000818152600284016020818152604080842080546003890184528286208680528452828620805460ff191660011790558686526004890184528286208680528452828620819055958552928252805161014081018252848152808301859052808201859052606081018590526080810185905260a0810185905260c081018590528151858152808401835260e08201528151858152808401835261010082015281518581529283019091529192610120830191905090528154600180820180855560009485526020948590208451600a909402018054600160a060020a031916600160a060020a03909416939093178355838501519183019190915560408301516002830155606083015160038301556080830151600483015560a0830151600583015560c0830151600683015560e08301518051919462003f619260078501929091019062004103565b50610100820151805162003f809160088401916020909101906200415b565b50610120820151805162000eee9160098401916020909101906200419b565b6080604051908101604052806004906020820280388339509192915050565b604051611683806200424483390190565b60408051808201825290600290829080388339509192915050565b8280548282559060005260206000209081019282156200402d5760005260206000209182015b828111156200402d57825482559160010191906001019062004010565b506200403b929150620041ff565b5090565b828054828255906000526020600020908101928215620040825760005260206000209182015b828111156200408257825482559160010191906001019062004065565b506200403b92915062004226565b828054600181600116156101000203166002900490600052602060002090601f016020900481019282601f10620040d357805160ff191683800117855562004082565b8280016001018555821562004082579182015b8281111562004082578251825591602001919060010190620040e6565b8280548282559060005260206000209081019282156200402d579160200282015b828111156200402d5782518254600160a060020a031916600160a060020a0390911617825560209092019160019091019062004124565b82805482825590600052602060002090810192821562004082579160200282015b828111156200408257825182556020909201916001909101906200417c565b82805482825590600052602060002090810192821562004082579160200282018281111562004082578251825591602001919060010190620040e6565b815481835581811115620027b657600083815260209020620027b691810190830162004226565b620013e791905b808211156200403b578054600160a060020a031916815560010162004206565b620013e791905b808211156200403b57600081556001016200422d560060806040523480156200001157600080fd5b50604051620016833803806200168383398101604090815281516020830151918301519083019291909101908282826200005433640100000000620000f1810204565b825162000069906001906020860190620001d6565b5081516200007f906002906020850190620001d6565b506003805460ff90921660ff19909216919091179055505060078054600160a060020a03191633179081905560408051600160a060020a03929092168252517f4101e71e974f68df5e9730cc223280b41654676bbb052cdcc735c3337e64d2d99181900360200190a15050506200027b565b6200010c600082640100000000620012ec6200014382021704565b604051600160a060020a038216907f44d6d25963f097ad14f29f06854a01f575648a1ef82f30e562ccd3889717e33990600090a250565b600160a060020a03811615156200015957600080fd5b6200016e82826401000000006200019e810204565b156200017957600080fd5b600160a060020a0316600090815260209190915260409020805460ff19166001179055565b6000600160a060020a0382161515620001b657600080fd5b50600160a060020a03166000908152602091909152604090205460ff1690565b828054600181600116156101000203166002900490600052602060002090601f016020900481019282601f106200021957805160ff191683800117855562000249565b8280016001018555821562000249579182015b82811115620002495782518255916020019190600101906200022c565b50620002579291506200025b565b5090565b6200027891905b8082111562000257576000815560010162000262565b90565b6113f8806200028b6000396000f3006080604052600436106101485763ffffffff7c010000000000000000000000000000000000000000000000000000000060003504166306fdde03811461014d578063095ea7b3146101d75780631785f53c1461020f57806318160ddd146102325780632348238c1461025957806323b872dd1461027a57806324d7806c146102a4578063313ce567146102c557806339509351146102f057806342966c68146103145780634afbf5ee1461032c5780636618846314610350578063704802751461037457806370a082311461039557806379cc6790146103b65780638bad0c0a146103da57806395d89b41146103ef5780639d2e477714610404578063a457c2d714610431578063a9059cbb14610455578063c6dbdf6114610479578063d0047acf146104aa578063d294cb0f146104d7578063d73dd623146104f8578063dd62ed3e1461051c575b600080fd5b34801561015957600080fd5b50610162610543565b6040805160208082528351818301528351919283929083019185019080838360005b8381101561019c578181015183820152602001610184565b50505050905090810190601f1680156101c95780820380516001836020036101000a031916815260200191505b509250505060405180910390f35b3480156101e357600080fd5b506101fb600160a060020a03600435166024356105d8565b604080519115158252519081900360200190f35b34801561021b57600080fd5b50610230600160a060020a0360043516610656565b005b34801561023e57600080fd5b50610247610679565b60408051918252519081900360200190f35b34801561026557600080fd5b50610230600160a060020a036004351661067f565b34801561028657600080fd5b506101fb600160a060020a0360043581169060243516604435610712565b3480156102b057600080fd5b506101fb600160a060020a036004351661075a565b3480156102d157600080fd5b506102da610772565b6040805160ff9092168252519081900360200190f35b3480156102fc57600080fd5b506101fb600160a060020a036004351660243561077b565b34801561032057600080fd5b5061023060043561082b565b34801561033857600080fd5b50610247600160a060020a0360043516602435610835565b34801561035c57600080fd5b506101fb600160a060020a036004351660243561085d565b34801561038057600080fd5b50610230600160a060020a0360043516610870565b3480156103a157600080fd5b50610247600160a060020a0360043516610890565b3480156103c257600080fd5b50610230600160a060020a03600435166024356108ab565b3480156103e657600080fd5b506102306108b9565b3480156103fb57600080fd5b506101626108c4565b34801561041057600080fd5b506101fb600160a060020a036004351660243563ffffffff60443516610922565b34801561043d57600080fd5b506101fb600160a060020a036004351660243561096d565b34801561046157600080fd5b506101fb600160a060020a03600435166024356109b8565b34801561048557600080fd5b5061048e6109f7565b60408051600160a060020a039092168252519081900360200190f35b3480156104b657600080fd5b506101fb600160a060020a036004351660243563ffffffff60443516610a06565b3480156104e357600080fd5b50610247600160a060020a0360043516610a47565b34801561050457600080fd5b506101fb600160a060020a0360043516602435610b50565b34801561052857600080fd5b50610247600160a060020a0360043581169060243516610b5c565b60018054604080516020601f600260001961010087891615020190951694909404938401819004810282018101909252828152606093909290918301828280156105ce5780601f106105a3576101008083540402835291602001916105ce565b820191906000526020600020905b8154815290600101906020018083116105b157829003601f168201915b5050505050905090565b6000600160a060020a03831615156105ef57600080fd5b336000818152600560209081526040808320600160a060020a03881680855290835292819020869055805186815290519293927f8c5be1e5ebec7d5bd14f71427d1e84f3dd0314c0f7b2291e5b200ac8c7c3b925929181900390910190a350600192915050565b600754600160a060020a0316331461066d57600080fd5b61067681610b87565b50565b60065490565b600754600160a060020a0316331461069657600080fd5b600160a060020a03811615156106ab57600080fd5b6007805473ffffffffffffffffffffffffffffffffffffffff1916600160a060020a03838116919091179182905560408051929091168252517f4101e71e974f68df5e9730cc223280b41654676bbb052cdcc735c3337e64d2d9916020908290030190a150565b600061071d84610bcf565b600160a060020a038316151561073257600080fd5b61073b84610a47565b82111561074757600080fd5b610752848484610d55565b949350505050565b600061076c818363ffffffff610de816565b92915050565b60035460ff1690565b6000600160a060020a038316151561079257600080fd5b336000908152600560209081526040808320600160a060020a03871684529091529020546107c6908363ffffffff610e1f16565b336000818152600560209081526040808320600160a060020a0389168085529083529281902085905580519485525191937f8c5be1e5ebec7d5bd14f71427d1e84f3dd0314c0f7b2291e5b200ac8c7c3b925929081900390910190a350600192915050565b6106763382610e31565b600160a060020a03919091166000908152600860209081526040808320938352929052205490565b6000610869838361096d565b9392505050565b600754600160a060020a0316331461088757600080fd5b61067681610e59565b600160a060020a031660009081526004602052604090205490565b6108b58282610ea1565b5050565b6108c233610b87565b565b60028054604080516020601f60001961010060018716150201909416859004938401819004810282018101909252828152606093909290918301828280156105ce5780601f106105a3576101008083540402835291602001916105ce565b600061092d3361075a565b151561093857600080fd5b61094284846109b8565b50428263ffffffff1611156109635761096333858463ffffffff1686610ec9565b5060019392505050565b6000600160a060020a038316151561098457600080fd5b336000908152600560209081526040808320600160a060020a03871684529091529020546107c6908363ffffffff61100316565b60006109c333610bcf565b600160a060020a03831615156109d857600080fd5b6109e133610a47565b8211156109ed57600080fd5b610869838361101a565b600754600160a060020a031690565b6000610a113361075a565b1515610a1c57600080fd5b610a268484611030565b428263ffffffff161115610963576109636000858463ffffffff1686610ec9565b600080610a5383610890565b600160a060020a03841660009081526008602090815260408083208380529091529020549092501515610a8557610b4a565b5060005b600160a060020a038316600090815260096020526040902054811015610b4a57600160a060020a0383166000908152600960205260409020805442919083908110610ad057fe5b9060005260206000200154101515610b4257600160a060020a0383166000908152600860209081526040808320600990925282208054610b3f93919085908110610b1657fe5b90600052602060002001548152602001908152602001600020548361100390919063ffffffff16565b91505b600101610a89565b50919050565b6000610869838361077b565b600160a060020a03918216600090815260056020908152604080832093909416825291909152205490565b610b9860008263ffffffff6110dc16565b604051600160a060020a038216907fa3b62bc36326052d97ea62d63c3d60308ed4c3ea8ac079dd8499f1e9c4f80c0f90600090a250565b6000600160a060020a0382161515610be657600080fd5b600160a060020a03821660009081526008602090815260408083208380529091529020541515610c15576108b5565b5060005b600160a060020a0382166000908152600960205260409020548110156108b557600160a060020a0382166000908152600960205260409020805442919083908110610c6057fe5b90600052602060002001541015610d4d57600160a060020a0382166000908152600860209081526040808320600990925282208054610ceb93919085908110610ca557fe5b60009182526020808320909101548352828101939093526040918201812054600160a060020a03871682526008845282822082805290935220549063ffffffff61100316565b600160a060020a03831660008181526008602090815260408083208380528083528184209590955592825260099052908120805491929183919085908110610d2f57fe5b90600052602060002001548152602001908152602001600020819055505b600101610c19565b600160a060020a0383166000908152600560209081526040808320338452909152812054821115610d8557600080fd5b600160a060020a0384166000908152600560209081526040808320338452909152902054610db9908363ffffffff61100316565b600160a060020a0385166000908152600560209081526040808320338452909152902055610963848484611128565b6000600160a060020a0382161515610dff57600080fd5b50600160a060020a03166000908152602091909152604090205460ff1690565b60008282018381101561086957600080fd5b610e3a82610bcf565b610e4382610a47565b811115610e4f57600080fd5b6108b5828261121c565b610e6a60008263ffffffff6112ec16565b604051600160a060020a038216907f44d6d25963f097ad14f29f06854a01f575648a1ef82f30e562ccd3889717e33990600090a250565b610eaa82610bcf565b610eb382610a47565b811115610ebf57600080fd5b6108b5828261133a565b600160a060020a0383166000908152600860209081526040808320838052909152902054610efd908263ffffffff610e1f16565b600160a060020a03841660009081526008602090815260408083208380529091528082209290925583815220541515610f5c57600160a060020a0383166000908152600960209081526040822080546001810182559083529120018290555b600160a060020a0383166000908152600860209081526040808320858452909152902054610f90908263ffffffff610e1f16565b600160a060020a0380851660008181526008602090815260408083208884528252918290209490945580519288168352928201528082018390526060810184905290517f4dd99b63a45b55ac0b6999b9307251132e130b3e3f06c04c92b946c0f9e0dc279181900360800190a150505050565b6000808383111561101357600080fd5b5050900390565b6000611027338484611128565b50600192915050565b600160a060020a038216151561104557600080fd5b600654611058908263ffffffff610e1f16565b600655600160a060020a038216600090815260046020526040902054611084908263ffffffff610e1f16565b600160a060020a03831660008181526004602090815260408083209490945583518581529351929391927fddf252ad1be2c89b69c2b068fc378daa952ba7f163c4a11628f55a4df523b3ef9281900390910190a35050565b600160a060020a03811615156110f157600080fd5b6110fb8282610de8565b151561110657600080fd5b600160a060020a0316600090815260209190915260409020805460ff19169055565b600160a060020a03831660009081526004602052604090205481111561114d57600080fd5b600160a060020a038216151561116257600080fd5b600160a060020a03831660009081526004602052604090205461118b908263ffffffff61100316565b600160a060020a0380851660009081526004602052604080822093909355908416815220546111c0908263ffffffff610e1f16565b600160a060020a0380841660008181526004602090815260409182902094909455805185815290519193928716927fddf252ad1be2c89b69c2b068fc378daa952ba7f163c4a11628f55a4df523b3ef92918290030190a3505050565b600160a060020a038216151561123157600080fd5b600160a060020a03821660009081526004602052604090205481111561125657600080fd5b600654611269908263ffffffff61100316565b600655600160a060020a038216600090815260046020526040902054611295908263ffffffff61100316565b600160a060020a0383166000818152600460209081526040808320949094558351858152935191937fddf252ad1be2c89b69c2b068fc378daa952ba7f163c4a11628f55a4df523b3ef929081900390910190a35050565b600160a060020a038116151561130157600080fd5b61130b8282610de8565b1561131557600080fd5b600160a060020a0316600090815260209190915260409020805460ff19166001179055565b600160a060020a038216600090815260056020908152604080832033845290915290205481111561136a57600080fd5b600160a060020a038216600090815260056020908152604080832033845290915290205461139e908263ffffffff61100316565b600160a060020a03831660009081526005602090815260408083203384529091529020556108b58282610e315600a165627a7a72305820062db0e6b0457b0016fe92cec01a2f813c664af8fd4f12281ebacf073384bab80029a165627a7a72305820648f895795bf4e11dee22d3beadaab4a58bb956df67931f9fb1dd3e637cd28170029",
  "source": "pragma solidity ^0.4.24;\n\nimport \"./W12Lister.sol\";\nimport \"./crowdsale/factories/IW12CrowdsaleFactory.sol\";\nimport \"./wallets/IWallets.sol\";\nimport \"./token/exchanger/ITokenExchanger.sol\";\n\ncontract W12ListerStub is W12Lister {\n\n    /**\n    * @dev Allows for any account besides the owner.\n    */\n    modifier onlyPrimary() {\n        _;\n    }\n\n    modifier onlyAdmin {\n        _;\n    }\n\n    constructor (\n        uint version,\n        IWallets _wallets,\n        IW12CrowdsaleFactory _factory,\n        ITokenExchanger _exchanger\n    )\n        W12Lister(\n            version,\n            _wallets,\n            _factory,\n            _exchanger\n        ) public\n    {}\n}\n",
  "sourcePath": "/home/circleci/code/contracts/W12ListerStub.sol",
  "compiler": {
    "name": "solc",
    "version": "0.4.24+commit.e67f0147.Emscripten.clang"
  },
  "schemaVersion": "2.0.1",
  "updatedAt": "2018-12-12T11:19:39.329Z"
}