{
  "contractName": "W12ListerStub",
  "abi": [
    {
      "constant": false,
      "inputs": [
        {
          "name": "tokenAddress",
          "type": "address"
        },
        {
          "name": "amountForSale",
          "type": "uint256"
        },
        {
          "name": "price",
          "type": "uint256"
        }
      ],
      "name": "initCrowdsale",
      "outputs": [],
      "payable": false,
      "stateMutability": "nonpayable",
      "type": "function"
    },
    {
      "constant": true,
      "inputs": [
        {
          "name": "",
          "type": "uint256"
        }
      ],
      "name": "approvedTokens",
      "outputs": [
        {
          "name": "name",
          "type": "string"
        },
        {
          "name": "symbol",
          "type": "string"
        },
        {
          "name": "decimals",
          "type": "uint8"
        },
        {
          "name": "feePercent",
          "type": "uint256"
        },
        {
          "name": "ethFeePercent",
          "type": "uint256"
        },
        {
          "name": "WTokenSaleFeePercent",
          "type": "uint256"
        },
        {
          "name": "trancheFeePercent",
          "type": "uint256"
        },
        {
          "name": "crowdsaleAddress",
          "type": "address"
        },
        {
          "name": "tokensForSaleAmount",
          "type": "uint256"
        },
        {
          "name": "wTokensIssuedAmount",
          "type": "uint256"
        },
        {
          "name": "tokenAddress",
          "type": "address"
        }
      ],
      "payable": false,
      "stateMutability": "view",
      "type": "function"
    },
    {
      "constant": false,
      "inputs": [
        {
          "name": "tokenOwner",
          "type": "address"
        },
        {
          "name": "tokenAddress",
          "type": "address"
        },
        {
          "name": "name",
          "type": "string"
        },
        {
          "name": "symbol",
          "type": "string"
        },
        {
          "name": "decimals",
          "type": "uint8"
        },
        {
          "name": "feePercent",
          "type": "uint256"
        },
        {
          "name": "ethFeePercent",
          "type": "uint256"
        },
        {
          "name": "WTokenSaleFeePercent",
          "type": "uint256"
        },
        {
          "name": "trancheFeePercent",
          "type": "uint256"
        }
      ],
      "name": "whitelistToken",
      "outputs": [],
      "payable": false,
      "stateMutability": "nonpayable",
      "type": "function"
    },
    {
      "constant": true,
      "inputs": [
        {
          "name": "tokenAddress",
          "type": "address"
        },
        {
          "name": "ownerAddress",
          "type": "address"
        }
      ],
      "name": "getTokenCrowdsale",
      "outputs": [
        {
          "name": "",
          "type": "address"
        }
      ],
      "payable": false,
      "stateMutability": "view",
      "type": "function"
    },
    {
      "constant": true,
      "inputs": [],
      "name": "getSwap",
      "outputs": [
        {
          "name": "",
          "type": "address"
        }
      ],
      "payable": false,
      "stateMutability": "view",
      "type": "function"
    },
    {
      "constant": true,
      "inputs": [],
      "name": "ledger",
      "outputs": [
        {
          "name": "",
          "type": "address"
        }
      ],
      "payable": false,
      "stateMutability": "view",
      "type": "function"
    },
    {
      "constant": true,
      "inputs": [],
      "name": "serviceWallet",
      "outputs": [
        {
          "name": "",
          "type": "address"
        }
      ],
      "payable": false,
      "stateMutability": "view",
      "type": "function"
    },
    {
      "constant": false,
      "inputs": [
        {
          "name": "tokenAddress",
          "type": "address"
        },
        {
          "name": "amount",
          "type": "uint256"
        }
      ],
      "name": "placeToken",
      "outputs": [],
      "payable": false,
      "stateMutability": "nonpayable",
      "type": "function"
    },
    {
      "constant": false,
      "inputs": [],
      "name": "renounceOwnership",
      "outputs": [],
      "payable": false,
      "stateMutability": "nonpayable",
      "type": "function"
    },
    {
      "constant": true,
      "inputs": [],
      "name": "swap",
      "outputs": [
        {
          "name": "",
          "type": "address"
        }
      ],
      "payable": false,
      "stateMutability": "view",
      "type": "function"
    },
    {
      "constant": true,
      "inputs": [],
      "name": "owner",
      "outputs": [
        {
          "name": "",
          "type": "address"
        }
      ],
      "payable": false,
      "stateMutability": "view",
      "type": "function"
    },
    {
      "constant": true,
      "inputs": [],
      "name": "approvedTokensLength",
      "outputs": [
        {
          "name": "",
          "type": "uint16"
        }
      ],
      "payable": false,
      "stateMutability": "view",
      "type": "function"
    },
    {
      "constant": false,
      "inputs": [
        {
          "name": "tokenAddress",
          "type": "address"
        },
        {
          "name": "amountForSale",
          "type": "uint256"
        }
      ],
      "name": "addTokensToCrowdsale",
      "outputs": [],
      "payable": false,
      "stateMutability": "nonpayable",
      "type": "function"
    },
    {
      "constant": true,
      "inputs": [],
      "name": "factory",
      "outputs": [
        {
          "name": "",
          "type": "address"
        }
      ],
      "payable": false,
      "stateMutability": "view",
      "type": "function"
    },
    {
      "constant": true,
      "inputs": [
        {
          "name": "",
          "type": "address"
        },
        {
          "name": "",
          "type": "address"
        }
      ],
      "name": "approvedTokensIndex",
      "outputs": [
        {
          "name": "",
          "type": "uint16"
        }
      ],
      "payable": false,
      "stateMutability": "view",
      "type": "function"
    },
    {
      "constant": false,
      "inputs": [
        {
          "name": "_newOwner",
          "type": "address"
        }
      ],
      "name": "transferOwnership",
      "outputs": [],
      "payable": false,
      "stateMutability": "nonpayable",
      "type": "function"
    },
    {
      "inputs": [
        {
          "name": "_factory",
          "type": "address"
        },
        {
          "name": "_ledger",
          "type": "address"
        },
        {
          "name": "_swap",
          "type": "address"
        }
      ],
      "payable": false,
      "stateMutability": "nonpayable",
      "type": "constructor"
    },
    {
      "anonymous": false,
      "inputs": [
        {
          "indexed": true,
          "name": "tokenAddress",
          "type": "address"
        },
        {
          "indexed": true,
          "name": "tokenOwner",
          "type": "address"
        },
        {
          "indexed": false,
          "name": "name",
          "type": "string"
        },
        {
          "indexed": false,
          "name": "symbol",
          "type": "string"
        }
      ],
      "name": "OwnerWhitelisted",
      "type": "event"
    },
    {
      "anonymous": false,
      "inputs": [
        {
          "indexed": true,
          "name": "originalTokenAddress",
          "type": "address"
        },
        {
          "indexed": true,
          "name": "tokenOwner",
          "type": "address"
        },
        {
          "indexed": false,
          "name": "tokenAmount",
          "type": "uint256"
        },
        {
          "indexed": false,
          "name": "placedTokenAddress",
          "type": "address"
        }
      ],
      "name": "TokenPlaced",
      "type": "event"
    },
    {
      "anonymous": false,
      "inputs": [
        {
          "indexed": true,
          "name": "tokenAddress",
          "type": "address"
        },
        {
          "indexed": true,
          "name": "tokenOwner",
          "type": "address"
        },
        {
          "indexed": false,
          "name": "amountForSale",
          "type": "uint256"
        }
      ],
      "name": "CrowdsaleInitialized",
      "type": "event"
    },
    {
      "anonymous": false,
      "inputs": [
        {
          "indexed": true,
          "name": "previousOwner",
          "type": "address"
        }
      ],
      "name": "OwnershipRenounced",
      "type": "event"
    },
    {
      "anonymous": false,
      "inputs": [
        {
          "indexed": true,
          "name": "previousOwner",
          "type": "address"
        },
        {
          "indexed": true,
          "name": "newOwner",
          "type": "address"
        }
      ],
      "name": "OwnershipTransferred",
      "type": "event"
    }
  ],
  "bytecode": "0x6080604052600180553480156200001557600080fd5b506040516060806200593583398101806040528101908080519060200190929190805190602001909291908051906020019092919050505033838383336000806101000a81548173ffffffffffffffffffffffffffffffffffffffff021916908373ffffffffffffffffffffffffffffffffffffffff160217905550600073ffffffffffffffffffffffffffffffffffffffff168473ffffffffffffffffffffffffffffffffffffffff1614151515620000ce57600080fd5b600073ffffffffffffffffffffffffffffffffffffffff168373ffffffffffffffffffffffffffffffffffffffff16141515156200010b57600080fd5b600073ffffffffffffffffffffffffffffffffffffffff168273ffffffffffffffffffffffffffffffffffffffff16141515156200014857600080fd5b600073ffffffffffffffffffffffffffffffffffffffff168173ffffffffffffffffffffffffffffffffffffffff16141515156200018557600080fd5b81600560006101000a81548173ffffffffffffffffffffffffffffffffffffffff021916908373ffffffffffffffffffffffffffffffffffffffff16021790555080600460026101000a81548173ffffffffffffffffffffffffffffffffffffffff021916908373ffffffffffffffffffffffffffffffffffffffff16021790555083600660006101000a81548173ffffffffffffffffffffffffffffffffffffffff021916908373ffffffffffffffffffffffffffffffffffffffff16021790555082600760006101000a81548173ffffffffffffffffffffffffffffffffffffffff021916908373ffffffffffffffffffffffffffffffffffffffff160217905550600380548091906001016200029f9190620002ad565b50505050505050506200042e565b815481835581811115620002dd57600c0281600c028360005260206000209182019101620002dc9190620002e2565b5b505050565b620003b791905b80821115620003b35760008082016000620003059190620003ba565b600182016000620003179190620003ba565b6002820160006101000a81549060ff021916905560048201600090556005820160009055600682016000905560078201600090556008820160006101000a81549073ffffffffffffffffffffffffffffffffffffffff02191690556009820160009055600a820160009055600b820160006101000a81549073ffffffffffffffffffffffffffffffffffffffff021916905550600c01620002e9565b5090565b90565b50805460018160011615610100020316600290046000825580601f10620003e2575062000403565b601f01602090049060005260206000209081019062000402919062000406565b5b50565b6200042b91905b80821115620004275760008160009055506001016200040d565b5090565b90565b6154f7806200043e6000396000f300608060405260043610620000f7576000357c0100000000000000000000000000000000000000000000000000000000900463ffffffff16806309363c9914620000fc5780631dafede0146200015657806334cf82bf146200030e5780633f3466a714620003d957806349b010ab146200047f57806356397c3514620004d95780635641f3c3146200053357806368dce932146200058d578063715018a614620005dd5780638119c06514620005f75780638da5cb5b14620006515780639cf96e2e14620006ab578063a41ffd3814620006e1578063c45a01551462000731578063cca89d73146200078b578063f2fde38b146200080d575b600080fd5b3480156200010957600080fd5b5062000154600480360381019080803573ffffffffffffffffffffffffffffffffffffffff169060200190929190803590602001909291908035906020019092919050505062000853565b005b3480156200016357600080fd5b50620001846004803603810190808035906020019092919050505062000ff3565b6040518080602001806020018c60ff1660ff1681526020018b81526020018a81526020018981526020018881526020018773ffffffffffffffffffffffffffffffffffffffff1673ffffffffffffffffffffffffffffffffffffffff1681526020018681526020018581526020018473ffffffffffffffffffffffffffffffffffffffff1673ffffffffffffffffffffffffffffffffffffffff16815260200183810383528e818151815260200191508051906020019080838360005b838110156200025e57808201518184015260208101905062000241565b50505050905090810190601f1680156200028c5780820380516001836020036101000a031916815260200191505b5083810382528d818151815260200191508051906020019080838360005b83811015620002c7578082015181840152602081019050620002aa565b50505050905090810190601f168015620002f55780820380516001836020036101000a031916815260200191505b509d505050505050505050505050505060405180910390f35b3480156200031b57600080fd5b50620003d7600480360381019080803573ffffffffffffffffffffffffffffffffffffffff169060200190929190803573ffffffffffffffffffffffffffffffffffffffff169060200190929190803590602001908201803590602001919091929391929390803590602001908201803590602001919091929391929390803560ff16906020019092919080359060200190929190803590602001909291908035906020019092919080359060200190929190505050620011e2565b005b348015620003e657600080fd5b506200043d600480360381019080803573ffffffffffffffffffffffffffffffffffffffff169060200190929190803573ffffffffffffffffffffffffffffffffffffffff1690602001909291905050506200179a565b604051808273ffffffffffffffffffffffffffffffffffffffff1673ffffffffffffffffffffffffffffffffffffffff16815260200191505060405180910390f35b3480156200048c57600080fd5b5062000497620017d4565b604051808273ffffffffffffffffffffffffffffffffffffffff1673ffffffffffffffffffffffffffffffffffffffff16815260200191505060405180910390f35b348015620004e657600080fd5b50620004f1620017fe565b604051808273ffffffffffffffffffffffffffffffffffffffff1673ffffffffffffffffffffffffffffffffffffffff16815260200191505060405180910390f35b3480156200054057600080fd5b506200054b62001824565b604051808273ffffffffffffffffffffffffffffffffffffffff1673ffffffffffffffffffffffffffffffffffffffff16815260200191505060405180910390f35b3480156200059a57600080fd5b50620005db600480360381019080803573ffffffffffffffffffffffffffffffffffffffff169060200190929190803590602001909291905050506200184a565b005b348015620005ea57600080fd5b50620005f5620023f4565b005b3480156200060457600080fd5b506200060f6200249b565b604051808273ffffffffffffffffffffffffffffffffffffffff1673ffffffffffffffffffffffffffffffffffffffff16815260200191505060405180910390f35b3480156200065e57600080fd5b5062000669620024c1565b604051808273ffffffffffffffffffffffffffffffffffffffff1673ffffffffffffffffffffffffffffffffffffffff16815260200191505060405180910390f35b348015620006b857600080fd5b50620006c3620024e6565b604051808261ffff1661ffff16815260200191505060405180910390f35b348015620006ee57600080fd5b506200072f600480360381019080803573ffffffffffffffffffffffffffffffffffffffff16906020019092919080359060200190929190505050620024fa565b005b3480156200073e57600080fd5b506200074962002883565b604051808273ffffffffffffffffffffffffffffffffffffffff1673ffffffffffffffffffffffffffffffffffffffff16815260200191505060405180910390f35b3480156200079857600080fd5b50620007ef600480360381019080803573ffffffffffffffffffffffffffffffffffffffff169060200190929190803573ffffffffffffffffffffffffffffffffffffffff169060200190929190505050620028a9565b604051808261ffff1661ffff16815260200191505060405180910390f35b3480156200081a57600080fd5b5062000851600480360381019080803573ffffffffffffffffffffffffffffffffffffffff169060200190929190505050620028d9565b005b6000806000600180600082825401925050819055506001549050600115156200087d8733620028e7565b60030160003373ffffffffffffffffffffffffffffffffffffffff1673ffffffffffffffffffffffffffffffffffffffff16815260200190815260200160002060009054906101000a900460ff161515141515620008da57600080fd5b620008fe85620008eb8833620028e7565b600a01546200299d90919063ffffffff16565b6200090a8733620028e7565b60090154101515156200091c57600080fd5b600073ffffffffffffffffffffffffffffffffffffffff16620009408733620028e7565b60080160009054906101000a900473ffffffffffffffffffffffffffffffffffffffff1673ffffffffffffffffffffffffffffffffffffffff161415156200098757600080fd5b600560009054906101000a900473ffffffffffffffffffffffffffffffffffffffff1673ffffffffffffffffffffffffffffffffffffffff1663151f3734876040518263ffffffff167c0100000000000000000000000000000000000000000000000000000000028152600401808273ffffffffffffffffffffffffffffffffffffffff1673ffffffffffffffffffffffffffffffffffffffff168152602001915050602060405180830381600087803b15801562000a4557600080fd5b505af115801562000a5a573d6000803e3d6000fd5b505050506040513d602081101562000a7157600080fd5b81019080805190602001909291905050509250600760009054906101000a900473ffffffffffffffffffffffffffffffffffffffff1673ffffffffffffffffffffffffffffffffffffffff1663aa1322f7878587600660009054906101000a900473ffffffffffffffffffffffffffffffffffffffff1662000af48c33620028e7565b6005015462000b048d33620028e7565b6006015462000b148e33620028e7565b60070154600460029054906101000a900473ffffffffffffffffffffffffffffffffffffffff16336040518a63ffffffff167c0100000000000000000000000000000000000000000000000000000000028152600401808a73ffffffffffffffffffffffffffffffffffffffff1673ffffffffffffffffffffffffffffffffffffffff1681526020018973ffffffffffffffffffffffffffffffffffffffff1673ffffffffffffffffffffffffffffffffffffffff1681526020018881526020018773ffffffffffffffffffffffffffffffffffffffff1673ffffffffffffffffffffffffffffffffffffffff1681526020018681526020018581526020018481526020018373ffffffffffffffffffffffffffffffffffffffff1673ffffffffffffffffffffffffffffffffffffffff1681526020018273ffffffffffffffffffffffffffffffffffffffff1673ffffffffffffffffffffffffffffffffffffffff1681526020019950505050505050505050602060405180830381600087803b15801562000ca357600080fd5b505af115801562000cb8573d6000803e3d6000fd5b505050506040513d602081101562000ccf57600080fd5b810190808051906020019092919050505091508162000cef8733620028e7565b60080160006101000a81548173ffffffffffffffffffffffffffffffffffffffff021916908373ffffffffffffffffffffffffffffffffffffffff1602179055508273ffffffffffffffffffffffffffffffffffffffff1663d88b8676836040518263ffffffff167c0100000000000000000000000000000000000000000000000000000000028152600401808273ffffffffffffffffffffffffffffffffffffffff1673ffffffffffffffffffffffffffffffffffffffff168152602001915050600060405180830381600087803b15801562000dcc57600080fd5b505af115801562000de1573d6000803e3d6000fd5b50505050600062000df38733620028e7565b60060154111562000f6957600460029054906101000a900473ffffffffffffffffffffffffffffffffffffffff1673ffffffffffffffffffffffffffffffffffffffff1663e1f21c67878462000e7162000e4e8b33620028e7565b6006015462000e5e8c33620028e7565b60090154620029bf90919063ffffffff16565b6040518463ffffffff167c0100000000000000000000000000000000000000000000000000000000028152600401808473ffffffffffffffffffffffffffffffffffffffff1673ffffffffffffffffffffffffffffffffffffffff1681526020018373ffffffffffffffffffffffffffffffffffffffff1673ffffffffffffffffffffffffffffffffffffffff1681526020018281526020019350505050602060405180830381600087803b15801562000f2a57600080fd5b505af115801562000f3f573d6000803e3d6000fd5b505050506040513d602081101562000f5657600080fd5b8101908080519060200190929190505050505b62000f758686620024fa565b3373ffffffffffffffffffffffffffffffffffffffff168673ffffffffffffffffffffffffffffffffffffffff167f824239e216016c403265447935e88cc521189d5e9a52754e5c2a16f7436281dc876040518082815260200191505060405180910390a36001548114151562000feb57600080fd5b505050505050565b6003818154811015156200100357fe5b90600052602060002090600c0201600091509050806000018054600181600116156101000203166002900480601f016020809104026020016040519081016040528092919081815260200182805460018160011615610100020316600290048015620010b35780601f106200108757610100808354040283529160200191620010b3565b820191906000526020600020905b8154815290600101906020018083116200109557829003601f168201915b505050505090806001018054600181600116156101000203166002900480601f016020809104026020016040519081016040528092919081815260200182805460018160011615610100020316600290048015620011555780601f10620011295761010080835404028352916020019162001155565b820191906000526020600020905b8154815290600101906020018083116200113757829003601f168201915b5050505050908060020160009054906101000a900460ff16908060040154908060050154908060060154908060070154908060080160009054906101000a900473ffffffffffffffffffffffffffffffffffffffff169080600901549080600a01549080600b0160009054906101000a900473ffffffffffffffffffffffffffffffffffffffff1690508b565b60008073ffffffffffffffffffffffffffffffffffffffff168c73ffffffffffffffffffffffffffffffffffffffff16141515156200122057600080fd5b600073ffffffffffffffffffffffffffffffffffffffff168b73ffffffffffffffffffffffffffffffffffffffff16141515156200125d57600080fd5b620012688562002a0b565b80156200127f575060646200127d8662002a27565b105b15156200128b57600080fd5b620012968462002a0b565b8015620012ad57506064620012ab8562002a27565b105b1515620012b957600080fd5b620012c48362002a0b565b8015620012db57506064620012d98462002a27565b105b1515620012e757600080fd5b620012f28262002a0b565b80156200130957506064620013078362002a27565b105b15156200131557600080fd5b8a73ffffffffffffffffffffffffffffffffffffffff16620013388c8e620028e7565b600b0160009054906101000a900473ffffffffffffffffffffffffffffffffffffffff1673ffffffffffffffffffffffffffffffffffffffff16141515156200138057600080fd5b6200138c8b8d620028e7565b60030160008d73ffffffffffffffffffffffffffffffffffffffff1673ffffffffffffffffffffffffffffffffffffffff16815260200190815260200160002060009054906101000a900460ff16151515620013e757600080fd5b600380549050905080600260008d73ffffffffffffffffffffffffffffffffffffffff1673ffffffffffffffffffffffffffffffffffffffff16815260200190815260200160002060008e73ffffffffffffffffffffffffffffffffffffffff1673ffffffffffffffffffffffffffffffffffffffff16815260200190815260200160002060006101000a81548161ffff021916908361ffff160217905550600380548091906001016200149c919062002be8565b600460006101000a81548161ffff021916908361ffff160217905550600160038261ffff16815481101515620014ce57fe5b90600052602060002090600c020160030160008e73ffffffffffffffffffffffffffffffffffffffff1673ffffffffffffffffffffffffffffffffffffffff16815260200190815260200160002060006101000a81548160ff021916908315150217905550898960038361ffff168154811015156200154957fe5b90600052602060002090600c020160000191906200156992919062002c1d565b50878760038361ffff168154811015156200158057fe5b90600052602060002090600c02016001019190620015a092919062002c1d565b508560038261ffff16815481101515620015b657fe5b90600052602060002090600c020160020160006101000a81548160ff021916908360ff1602179055508460038261ffff16815481101515620015f457fe5b90600052602060002090600c0201600401819055508360038261ffff168154811015156200161e57fe5b90600052602060002090600c0201600501819055508260038261ffff168154811015156200164857fe5b90600052602060002090600c0201600601819055508160038261ffff168154811015156200167257fe5b90600052602060002090600c0201600701819055508a60038261ffff168154811015156200169c57fe5b90600052602060002090600c0201600b0160006101000a81548173ffffffffffffffffffffffffffffffffffffffff021916908373ffffffffffffffffffffffffffffffffffffffff1602179055508b73ffffffffffffffffffffffffffffffffffffffff168b73ffffffffffffffffffffffffffffffffffffffff167fd3bb7a0fd3c972c824718e5d4fe7501feb58ebd797223783efbfd1d3085d49438c8c8c8c6040518080602001806020018381038352878782818152602001925080828437820191505083810382528585828181526020019250808284378201915050965050505050505060405180910390a3505050505050505050505050565b6000620017a88383620028e7565b60080160009054906101000a900473ffffffffffffffffffffffffffffffffffffffff16905092915050565b6000600460029054906101000a900473ffffffffffffffffffffffffffffffffffffffff16905090565b600560009054906101000a900473ffffffffffffffffffffffffffffffffffffffff1681565b600660009054906101000a900473ffffffffffffffffffffffffffffffffffffffff1681565b6000806000806000806000806001806000828254019250508190555060015490506000891115156200187b57600080fd5b600073ffffffffffffffffffffffffffffffffffffffff168a73ffffffffffffffffffffffffffffffffffffffff1614151515620018b857600080fd5b8973ffffffffffffffffffffffffffffffffffffffff16620018db8b33620028e7565b600b0160009054906101000a900473ffffffffffffffffffffffffffffffffffffffff1673ffffffffffffffffffffffffffffffffffffffff161415156200192257600080fd5b6200192e8a33620028e7565b60030160003373ffffffffffffffffffffffffffffffffffffffff1673ffffffffffffffffffffffffffffffffffffffff16815260200190815260200160002060009054906101000a900460ff1615156200198857600080fd5b620019948a33620028e7565b97508996508673ffffffffffffffffffffffffffffffffffffffff166370a08231600460029054906101000a900473ffffffffffffffffffffffffffffffffffffffff166040518263ffffffff167c0100000000000000000000000000000000000000000000000000000000028152600401808273ffffffffffffffffffffffffffffffffffffffff1673ffffffffffffffffffffffffffffffffffffffff168152602001915050602060405180830381600087803b15801562001a5757600080fd5b505af115801562001a6c573d6000803e3d6000fd5b505050506040513d602081101562001a8357600080fd5b81019080805190602001909291905050509550600088600401541162001aab57600062001ac5565b62001ac488600401548a620029bf90919063ffffffff16565b5b945062001adc858a62002a5d90919063ffffffff16565b935062001af78489600901546200299d90919063ffffffff16565b62001b038b33620028e7565b600901819055508673ffffffffffffffffffffffffffffffffffffffff166323b872dd33600460029054906101000a900473ffffffffffffffffffffffffffffffffffffffff16876040518463ffffffff167c0100000000000000000000000000000000000000000000000000000000028152600401808473ffffffffffffffffffffffffffffffffffffffff1673ffffffffffffffffffffffffffffffffffffffff1681526020018373ffffffffffffffffffffffffffffffffffffffff1673ffffffffffffffffffffffffffffffffffffffff1681526020018281526020019350505050602060405180830381600087803b15801562001c0457600080fd5b505af115801562001c19573d6000803e3d6000fd5b505050506040513d602081101562001c3057600080fd5b8101908080519060200190929190505050508673ffffffffffffffffffffffffffffffffffffffff166323b872dd33600660009054906101000a900473ffffffffffffffffffffffffffffffffffffffff16886040518463ffffffff167c0100000000000000000000000000000000000000000000000000000000028152600401808473ffffffffffffffffffffffffffffffffffffffff1673ffffffffffffffffffffffffffffffffffffffff1681526020018373ffffffffffffffffffffffffffffffffffffffff1673ffffffffffffffffffffffffffffffffffffffff1681526020018281526020019350505050602060405180830381600087803b15801562001d3c57600080fd5b505af115801562001d51573d6000803e3d6000fd5b505050506040513d602081101562001d6857600080fd5b8101908080519060200190929190505050508673ffffffffffffffffffffffffffffffffffffffff166370a08231600460029054906101000a900473ffffffffffffffffffffffffffffffffffffffff166040518263ffffffff167c0100000000000000000000000000000000000000000000000000000000028152600401808273ffffffffffffffffffffffffffffffffffffffff1673ffffffffffffffffffffffffffffffffffffffff168152602001915050602060405180830381600087803b15801562001e3857600080fd5b505af115801562001e4d573d6000803e3d6000fd5b505050506040513d602081101562001e6457600080fd5b8101908080519060200190929190505050925062001e8c84876200299d90919063ffffffff16565b8314151562001e9a57600080fd5b600073ffffffffffffffffffffffffffffffffffffffff16600560009054906101000a900473ffffffffffffffffffffffffffffffffffffffff1673ffffffffffffffffffffffffffffffffffffffff1663151f37348c6040518263ffffffff167c0100000000000000000000000000000000000000000000000000000000028152600401808273ffffffffffffffffffffffffffffffffffffffff1673ffffffffffffffffffffffffffffffffffffffff168152602001915050602060405180830381600087803b15801562001f7057600080fd5b505af115801562001f85573d6000803e3d6000fd5b505050506040513d602081101562001f9c57600080fd5b810190808051906020019092919050505073ffffffffffffffffffffffffffffffffffffffff161415620022445787600001886001018960020160009054906101000a900460ff1662001fee62002ca4565b8080602001806020018460ff1660ff168152602001838103835286818154600181600116156101000203166002900481526020019150805460018160011615610100020316600290048015620020885780601f106200205c5761010080835404028352916020019162002088565b820191906000526020600020905b8154815290600101906020018083116200206a57829003601f168201915b50508381038252858181546001816001161561010002031660029004815260200191508054600181600116156101000203166002900480156200210f5780601f10620020e3576101008083540402835291602001916200210f565b820191906000526020600020905b815481529060010190602001808311620020f157829003601f168201915b505095505050505050604051809103906000f08015801562002135573d6000803e3d6000fd5b509150600560009054906101000a900473ffffffffffffffffffffffffffffffffffffffff1673ffffffffffffffffffffffffffffffffffffffff1663a07369128b846040518363ffffffff167c0100000000000000000000000000000000000000000000000000000000028152600401808373ffffffffffffffffffffffffffffffffffffffff1673ffffffffffffffffffffffffffffffffffffffff1681526020018273ffffffffffffffffffffffffffffffffffffffff1673ffffffffffffffffffffffffffffffffffffffff16815260200192505050600060405180830381600087803b1580156200222a57600080fd5b505af11580156200223f573d6000803e3d6000fd5b505050505b3373ffffffffffffffffffffffffffffffffffffffff168a73ffffffffffffffffffffffffffffffffffffffff167f2b11dc5f6b2036a3d03d04c1e89724a8650507582665455ed7154b544f3e3c4f86600560009054906101000a900473ffffffffffffffffffffffffffffffffffffffff1673ffffffffffffffffffffffffffffffffffffffff1663151f37348f6040518263ffffffff167c0100000000000000000000000000000000000000000000000000000000028152600401808273ffffffffffffffffffffffffffffffffffffffff1673ffffffffffffffffffffffffffffffffffffffff168152602001915050602060405180830381600087803b1580156200235257600080fd5b505af115801562002367573d6000803e3d6000fd5b505050506040513d60208110156200237e57600080fd5b8101908080519060200190929190505050604051808381526020018273ffffffffffffffffffffffffffffffffffffffff1673ffffffffffffffffffffffffffffffffffffffff1681526020019250505060405180910390a360015481141515620023e857600080fd5b50505050505050505050565b6000809054906101000a900473ffffffffffffffffffffffffffffffffffffffff1673ffffffffffffffffffffffffffffffffffffffff167ff8df31144d9c2f0f6b59d69b8b98abd5459d07f2742c4df920b25aae33c6482060405160405180910390a260008060006101000a81548173ffffffffffffffffffffffffffffffffffffffff021916908373ffffffffffffffffffffffffffffffffffffffff160217905550565b600460029054906101000a900473ffffffffffffffffffffffffffffffffffffffff1681565b6000809054906101000a900473ffffffffffffffffffffffffffffffffffffffff1681565b600460009054906101000a900461ffff1681565b600080600115156200250d8533620028e7565b60030160003373ffffffffffffffffffffffffffffffffffffffff1673ffffffffffffffffffffffffffffffffffffffff16815260200190815260200160002060009054906101000a900460ff1615151415156200256a57600080fd5b6200258e836200257b8633620028e7565b600a01546200299d90919063ffffffff16565b6200259a8533620028e7565b6009015410151515620025ac57600080fd5b600560009054906101000a900473ffffffffffffffffffffffffffffffffffffffff1673ffffffffffffffffffffffffffffffffffffffff1663151f3734856040518263ffffffff167c0100000000000000000000000000000000000000000000000000000000028152600401808273ffffffffffffffffffffffffffffffffffffffff1673ffffffffffffffffffffffffffffffffffffffff168152602001915050602060405180830381600087803b1580156200266a57600080fd5b505af11580156200267f573d6000803e3d6000fd5b505050506040513d60208110156200269657600080fd5b81019080805190602001909291905050509150600073ffffffffffffffffffffffffffffffffffffffff168273ffffffffffffffffffffffffffffffffffffffff1614151515620026e657600080fd5b620026f28433620028e7565b60080160009054906101000a900473ffffffffffffffffffffffffffffffffffffffff169050600073ffffffffffffffffffffffffffffffffffffffff168173ffffffffffffffffffffffffffffffffffffffff16141515156200275557600080fd5b6200277983620027668633620028e7565b600a01546200299d90919063ffffffff16565b620027858533620028e7565b600a01819055508173ffffffffffffffffffffffffffffffffffffffff1663d0047acf828560006040518463ffffffff167c0100000000000000000000000000000000000000000000000000000000028152600401808473ffffffffffffffffffffffffffffffffffffffff1673ffffffffffffffffffffffffffffffffffffffff1681526020018381526020018263ffffffff1681526020019350505050602060405180830381600087803b1580156200283f57600080fd5b505af115801562002854573d6000803e3d6000fd5b505050506040513d60208110156200286b57600080fd5b81019080805190602001909291905050505050505050565b600760009054906101000a900473ffffffffffffffffffffffffffffffffffffffff1681565b60026020528160005260406000206020528060005260406000206000915091509054906101000a900461ffff1681565b620028e48162002a7f565b50565b60006003600260008573ffffffffffffffffffffffffffffffffffffffff1673ffffffffffffffffffffffffffffffffffffffff16815260200190815260200160002060008473ffffffffffffffffffffffffffffffffffffffff1673ffffffffffffffffffffffffffffffffffffffff16815260200190815260200160002060009054906101000a900461ffff1661ffff168154811015156200298757fe5b90600052602060002090600c0201905092915050565b6000808284019050838110151515620029b557600080fd5b8091505092915050565b6000620029cc8262002a0b565b1515620029d857600080fd5b62002a03612710620029f4848662002b7a90919063ffffffff16565b62002bbc90919063ffffffff16565b905092915050565b600080821015801562002a2057506127108211155b9050919050565b600062002a348262002a0b565b151562002a4057600080fd5b62002a5660648362002bbc90919063ffffffff16565b9050919050565b60008083831115151562002a7057600080fd5b82840390508091505092915050565b600073ffffffffffffffffffffffffffffffffffffffff168173ffffffffffffffffffffffffffffffffffffffff161415151562002abc57600080fd5b8073ffffffffffffffffffffffffffffffffffffffff166000809054906101000a900473ffffffffffffffffffffffffffffffffffffffff1673ffffffffffffffffffffffffffffffffffffffff167f8be0079c531659141344cd1fd0a4f28419497f9722a3daafe3b4186f6b6457e060405160405180910390a3806000806101000a81548173ffffffffffffffffffffffffffffffffffffffff021916908373ffffffffffffffffffffffffffffffffffffffff16021790555050565b600080600084141562002b91576000915062002bb5565b828402905082848281151562002ba357fe5b0414151562002bb157600080fd5b8091505b5092915050565b60008060008311151562002bcf57600080fd5b828481151562002bdb57fe5b0490508091505092915050565b81548183558181111562002c1857600c0281600c02836000526020600020918201910162002c17919062002cb5565b5b505050565b828054600181600116156101000203166002900490600052602060002090601f016020900481019282601f1062002c6057803560ff191683800117855562002c91565b8280016001018555821562002c91579182015b8281111562002c9057823582559160200191906001019062002c73565b5b50905062002ca0919062002d8d565b5090565b6040516126ca8062002e0283390190565b62002d8a91905b8082111562002d86576000808201600062002cd8919062002db5565b60018201600062002cea919062002db5565b6002820160006101000a81549060ff021916905560048201600090556005820160009055600682016000905560078201600090556008820160006101000a81549073ffffffffffffffffffffffffffffffffffffffff02191690556009820160009055600a820160009055600b820160006101000a81549073ffffffffffffffffffffffffffffffffffffffff021916905550600c0162002cbc565b5090565b90565b62002db291905b8082111562002dae57600081600090555060010162002d94565b5090565b90565b50805460018160011615610100020316600290046000825580601f1062002ddd575062002dfe565b601f01602090049060005260206000209081019062002dfd919062002d8d565b5b50560060806040523480156200001157600080fd5b50604051620026ca380380620026ca83398101806040528101908080518201929190602001805182019291906020018051906020019092919050505082828282600090805190602001906200006892919062000142565b5081600190805190602001906200008192919062000142565b5080600260006101000a81548160ff021916908360ff16021790555050505033600260016101000a81548173ffffffffffffffffffffffffffffffffffffffff021916908373ffffffffffffffffffffffffffffffffffffffff1602179055506001600860003373ffffffffffffffffffffffffffffffffffffffff1673ffffffffffffffffffffffffffffffffffffffff16815260200190815260200160002060006101000a81548160ff021916908315150217905550505050620001f1565b828054600181600116156101000203166002900490600052602060002090601f016020900481019282601f106200018557805160ff1916838001178555620001b6565b82800160010185558215620001b6579182015b82811115620001b557825182559160200191906001019062000198565b5b509050620001c59190620001c9565b5090565b620001ee91905b80821115620001ea576000816000905550600101620001d0565b5090565b90565b6124c980620002016000396000f300608060405260043610610133576000357c0100000000000000000000000000000000000000000000000000000000900463ffffffff16806306fdde0314610145578063095ea7b3146101d557806318160ddd1461023a57806323b872dd1461026557806327e235e3146102ea578063313ce5671461034157806342966c68146103725780634afbf5ee1461039f578063661884631461040057806370a0823114610465578063715018a6146104bc57806379cc6790146104d35780638da5cb5b1461052057806395d89b41146105775780639d2e477714610607578063a9059cbb1461067c578063ba0e0f5e146106e1578063d0047acf14610724578063d294cb0f14610799578063d73dd623146107f0578063d88b867614610855578063dd62ed3e14610898578063f2fde38b1461090f575b34801561013f57600080fd5b50600080fd5b34801561015157600080fd5b5061015a610952565b6040518080602001828103825283818151815260200191508051906020019080838360005b8381101561019a57808201518184015260208101905061017f565b50505050905090810190601f1680156101c75780820380516001836020036101000a031916815260200191505b509250505060405180910390f35b3480156101e157600080fd5b50610220600480360381019080803573ffffffffffffffffffffffffffffffffffffffff169060200190929190803590602001909291905050506109f0565b604051808215151515815260200191505060405180910390f35b34801561024657600080fd5b5061024f610ae2565b6040518082815260200191505060405180910390f35b34801561027157600080fd5b506102d0600480360381019080803573ffffffffffffffffffffffffffffffffffffffff169060200190929190803573ffffffffffffffffffffffffffffffffffffffff16906020019092919080359060200190929190505050610aec565b604051808215151515815260200191505060405180910390f35b3480156102f657600080fd5b5061032b600480360381019080803573ffffffffffffffffffffffffffffffffffffffff169060200190929190505050610d69565b6040518082815260200191505060405180910390f35b34801561034d57600080fd5b50610356610d81565b604051808260ff1660ff16815260200191505060405180910390f35b34801561037e57600080fd5b5061039d60048036038101908080359060200190929190505050610d94565b005b3480156103ab57600080fd5b506103ea600480360381019080803573ffffffffffffffffffffffffffffffffffffffff16906020019092919080359060200190929190505050610da1565b6040518082815260200191505060405180910390f35b34801561040c57600080fd5b5061044b600480360381019080803573ffffffffffffffffffffffffffffffffffffffff16906020019092919080359060200190929190505050610dc6565b604051808215151515815260200191505060405180910390f35b34801561047157600080fd5b506104a6600480360381019080803573ffffffffffffffffffffffffffffffffffffffff169060200190929190505050611048565b6040518082815260200191505060405180910390f35b3480156104c857600080fd5b506104d1611091565b005b3480156104df57600080fd5b5061051e600480360381019080803573ffffffffffffffffffffffffffffffffffffffff16906020019092919080359060200190929190505050611196565b005b34801561052c57600080fd5b506105356112b9565b604051808273ffffffffffffffffffffffffffffffffffffffff1673ffffffffffffffffffffffffffffffffffffffff16815260200191505060405180910390f35b34801561058357600080fd5b5061058c6112df565b6040518080602001828103825283818151815260200191508051906020019080838360005b838110156105cc5780820151818401526020810190506105b1565b50505050905090810190601f1680156105f95780820380516001836020036101000a031916815260200191505b509250505060405180910390f35b34801561061357600080fd5b50610662600480360381019080803573ffffffffffffffffffffffffffffffffffffffff16906020019092919080359060200190929190803563ffffffff16906020019092919050505061137d565b604051808215151515815260200191505060405180910390f35b34801561068857600080fd5b506106c7600480360381019080803573ffffffffffffffffffffffffffffffffffffffff169060200190929190803590602001909291905050506114be565b604051808215151515815260200191505060405180910390f35b3480156106ed57600080fd5b50610722600480360381019080803573ffffffffffffffffffffffffffffffffffffffff169060200190929190505050611625565b005b34801561073057600080fd5b5061077f600480360381019080803573ffffffffffffffffffffffffffffffffffffffff16906020019092919080359060200190929190803563ffffffff1690602001909291905050506116dc565b604051808215151515815260200191505060405180910390f35b3480156107a557600080fd5b506107da600480360381019080803573ffffffffffffffffffffffffffffffffffffffff1690602001909291905050506118ea565b6040518082815260200191505060405180910390f35b3480156107fc57600080fd5b5061083b600480360381019080803573ffffffffffffffffffffffffffffffffffffffff16906020019092919080359060200190929190505050611afb565b604051808215151515815260200191505060405180910390f35b34801561086157600080fd5b50610896600480360381019080803573ffffffffffffffffffffffffffffffffffffffff169060200190929190505050611c72565b005b3480156108a457600080fd5b506108f9600480360381019080803573ffffffffffffffffffffffffffffffffffffffff169060200190929190803573ffffffffffffffffffffffffffffffffffffffff169060200190929190505050611d29565b6040518082815260200191505060405180910390f35b34801561091b57600080fd5b50610950600480360381019080803573ffffffffffffffffffffffffffffffffffffffff169060200190929190505050611db0565b005b60008054600181600116156101000203166002900480601f0160208091040260200160405190810160405280929190818152602001828054600181600116156101000203166002900480156109e85780601f106109bd576101008083540402835291602001916109e8565b820191906000526020600020905b8154815290600101906020018083116109cb57829003601f168201915b505050505081565b600081600360003373ffffffffffffffffffffffffffffffffffffffff1673ffffffffffffffffffffffffffffffffffffffff16815260200190815260200160002060008573ffffffffffffffffffffffffffffffffffffffff1673ffffffffffffffffffffffffffffffffffffffff168152602001908152602001600020819055508273ffffffffffffffffffffffffffffffffffffffff163373ffffffffffffffffffffffffffffffffffffffff167f8c5be1e5ebec7d5bd14f71427d1e84f3dd0314c0f7b2291e5b200ac8c7c3b925846040518082815260200191505060405180910390a36001905092915050565b6000600554905090565b6000610af784611e18565b600073ffffffffffffffffffffffffffffffffffffffff168373ffffffffffffffffffffffffffffffffffffffff1614151515610b3357600080fd5b610b3c846118ea565b8211151515610b4a57600080fd5b600360008573ffffffffffffffffffffffffffffffffffffffff1673ffffffffffffffffffffffffffffffffffffffff16815260200190815260200160002060003373ffffffffffffffffffffffffffffffffffffffff1673ffffffffffffffffffffffffffffffffffffffff168152602001908152602001600020548211151515610bd557600080fd5b81600460008673ffffffffffffffffffffffffffffffffffffffff1673ffffffffffffffffffffffffffffffffffffffff1681526020019081526020016000206000828254039250508190555081600460008573ffffffffffffffffffffffffffffffffffffffff1673ffffffffffffffffffffffffffffffffffffffff1681526020019081526020016000206000828254019250508190555081600360008673ffffffffffffffffffffffffffffffffffffffff1673ffffffffffffffffffffffffffffffffffffffff16815260200190815260200160002060003373ffffffffffffffffffffffffffffffffffffffff1673ffffffffffffffffffffffffffffffffffffffff168152602001908152602001600020600082825403925050819055508273ffffffffffffffffffffffffffffffffffffffff168473ffffffffffffffffffffffffffffffffffffffff167fddf252ad1be2c89b69c2b068fc378daa952ba7f163c4a11628f55a4df523b3ef846040518082815260200191505060405180910390a3600190509392505050565b60046020528060005260406000206000915090505481565b600260009054906101000a900460ff1681565b610d9e33826120e7565b50565b6006602052816000526040600020602052806000526040600020600091509150505481565b600080600360003373ffffffffffffffffffffffffffffffffffffffff1673ffffffffffffffffffffffffffffffffffffffff16815260200190815260200160002060008573ffffffffffffffffffffffffffffffffffffffff1673ffffffffffffffffffffffffffffffffffffffff1681526020019081526020016000205490508083101515610ed8576000600360003373ffffffffffffffffffffffffffffffffffffffff1673ffffffffffffffffffffffffffffffffffffffff16815260200190815260200160002060008673ffffffffffffffffffffffffffffffffffffffff1673ffffffffffffffffffffffffffffffffffffffff16815260200190815260200160002081905550610f5c565b828103600360003373ffffffffffffffffffffffffffffffffffffffff1673ffffffffffffffffffffffffffffffffffffffff16815260200190815260200160002060008673ffffffffffffffffffffffffffffffffffffffff1673ffffffffffffffffffffffffffffffffffffffff168152602001908152602001600020819055505b8373ffffffffffffffffffffffffffffffffffffffff163373ffffffffffffffffffffffffffffffffffffffff167f8c5be1e5ebec7d5bd14f71427d1e84f3dd0314c0f7b2291e5b200ac8c7c3b925600360003373ffffffffffffffffffffffffffffffffffffffff1673ffffffffffffffffffffffffffffffffffffffff16815260200190815260200160002060008873ffffffffffffffffffffffffffffffffffffffff1673ffffffffffffffffffffffffffffffffffffffff168152602001908152602001600020546040518082815260200191505060405180910390a3600191505092915050565b6000600460008373ffffffffffffffffffffffffffffffffffffffff1673ffffffffffffffffffffffffffffffffffffffff168152602001908152602001600020549050919050565b600260019054906101000a900473ffffffffffffffffffffffffffffffffffffffff1673ffffffffffffffffffffffffffffffffffffffff163373ffffffffffffffffffffffffffffffffffffffff161415156110ed57600080fd5b600260019054906101000a900473ffffffffffffffffffffffffffffffffffffffff1673ffffffffffffffffffffffffffffffffffffffff167ff8df31144d9c2f0f6b59d69b8b98abd5459d07f2742c4df920b25aae33c6482060405160405180910390a26000600260016101000a81548173ffffffffffffffffffffffffffffffffffffffff021916908373ffffffffffffffffffffffffffffffffffffffff160217905550565b600360008373ffffffffffffffffffffffffffffffffffffffff1673ffffffffffffffffffffffffffffffffffffffff16815260200190815260200160002060003373ffffffffffffffffffffffffffffffffffffffff1673ffffffffffffffffffffffffffffffffffffffff16815260200190815260200160002054811115151561122157600080fd5b80600360008473ffffffffffffffffffffffffffffffffffffffff1673ffffffffffffffffffffffffffffffffffffffff16815260200190815260200160002060003373ffffffffffffffffffffffffffffffffffffffff1673ffffffffffffffffffffffffffffffffffffffff168152602001908152602001600020600082825403925050819055506112b582826120e7565b5050565b600260019054906101000a900473ffffffffffffffffffffffffffffffffffffffff1681565b60018054600181600116156101000203166002900480601f0160208091040260200160405190810160405280929190818152602001828054600181600116156101000203166002900480156113755780601f1061134a57610100808354040283529160200191611375565b820191906000526020600020905b81548152906001019060200180831161135857829003601f168201915b505050505081565b600033600860008273ffffffffffffffffffffffffffffffffffffffff1673ffffffffffffffffffffffffffffffffffffffff16815260200190815260200160002060009054906101000a900460ff1615156113d857600080fd5b6113e285856114be565b50428363ffffffff161115611405576114046000868563ffffffff168761221c565b5b7f5075049792a88eedfe4e60bb3ffeac77b4fa7f03108b81fb0b460161b983e20033868686604051808573ffffffffffffffffffffffffffffffffffffffff1673ffffffffffffffffffffffffffffffffffffffff1681526020018473ffffffffffffffffffffffffffffffffffffffff1673ffffffffffffffffffffffffffffffffffffffff1681526020018381526020018263ffffffff16815260200194505050505060405180910390a160019150509392505050565b60006114c933611e18565b600073ffffffffffffffffffffffffffffffffffffffff168373ffffffffffffffffffffffffffffffffffffffff161415151561150557600080fd5b61150e336118ea565b821115151561151c57600080fd5b81600460003373ffffffffffffffffffffffffffffffffffffffff1673ffffffffffffffffffffffffffffffffffffffff1681526020019081526020016000206000828254039250508190555081600460008573ffffffffffffffffffffffffffffffffffffffff1673ffffffffffffffffffffffffffffffffffffffff168152602001908152602001600020600082825401925050819055508273ffffffffffffffffffffffffffffffffffffffff163373ffffffffffffffffffffffffffffffffffffffff167fddf252ad1be2c89b69c2b068fc378daa952ba7f163c4a11628f55a4df523b3ef846040518082815260200191505060405180910390a36001905092915050565b600260019054906101000a900473ffffffffffffffffffffffffffffffffffffffff1673ffffffffffffffffffffffffffffffffffffffff163373ffffffffffffffffffffffffffffffffffffffff1614151561168157600080fd5b6000600860008373ffffffffffffffffffffffffffffffffffffffff1673ffffffffffffffffffffffffffffffffffffffff16815260200190815260200160002060006101000a81548160ff02191690831515021790555050565b600033600860008273ffffffffffffffffffffffffffffffffffffffff1673ffffffffffffffffffffffffffffffffffffffff16815260200190815260200160002060009054906101000a900460ff16151561173757600080fd5b600554846005540111151561174b57600080fd5b428363ffffffff16111561176d5761176c6000868563ffffffff168761221c565b5b83600460008773ffffffffffffffffffffffffffffffffffffffff1673ffffffffffffffffffffffffffffffffffffffff16815260200190815260200160002060008282540192505081905550836005600082825401925050819055508473ffffffffffffffffffffffffffffffffffffffff16600073ffffffffffffffffffffffffffffffffffffffff167fddf252ad1be2c89b69c2b068fc378daa952ba7f163c4a11628f55a4df523b3ef866040518082815260200191505060405180910390a37f5075049792a88eedfe4e60bb3ffeac77b4fa7f03108b81fb0b460161b983e2006000868686604051808573ffffffffffffffffffffffffffffffffffffffff1673ffffffffffffffffffffffffffffffffffffffff1681526020018473ffffffffffffffffffffffffffffffffffffffff1673ffffffffffffffffffffffffffffffffffffffff1681526020018381526020018263ffffffff16815260200194505050505060405180910390a160019150509392505050565b600080600460008473ffffffffffffffffffffffffffffffffffffffff1673ffffffffffffffffffffffffffffffffffffffff1681526020019081526020016000205491506000600660008573ffffffffffffffffffffffffffffffffffffffff1673ffffffffffffffffffffffffffffffffffffffff168152602001908152602001600020600080815260200190815260200160002054141561198d57611af5565b600090505b600760008473ffffffffffffffffffffffffffffffffffffffff1673ffffffffffffffffffffffffffffffffffffffff16815260200190815260200160002080549050811015611af45742600760008573ffffffffffffffffffffffffffffffffffffffff1673ffffffffffffffffffffffffffffffffffffffff16815260200190815260200160002082815481101515611a2957fe5b9060005260206000200154101515611ae757600660008473ffffffffffffffffffffffffffffffffffffffff1673ffffffffffffffffffffffffffffffffffffffff1681526020019081526020016000206000600760008673ffffffffffffffffffffffffffffffffffffffff1673ffffffffffffffffffffffffffffffffffffffff16815260200190815260200160002083815481101515611ac857fe5b9060005260206000200154815260200190815260200160002054820391505b8080600101915050611992565b5b50919050565b600081600360003373ffffffffffffffffffffffffffffffffffffffff1673ffffffffffffffffffffffffffffffffffffffff16815260200190815260200160002060008573ffffffffffffffffffffffffffffffffffffffff1673ffffffffffffffffffffffffffffffffffffffff168152602001908152602001600020600082825401925050819055508273ffffffffffffffffffffffffffffffffffffffff163373ffffffffffffffffffffffffffffffffffffffff167f8c5be1e5ebec7d5bd14f71427d1e84f3dd0314c0f7b2291e5b200ac8c7c3b925600360003373ffffffffffffffffffffffffffffffffffffffff1673ffffffffffffffffffffffffffffffffffffffff16815260200190815260200160002060008773ffffffffffffffffffffffffffffffffffffffff1673ffffffffffffffffffffffffffffffffffffffff168152602001908152602001600020546040518082815260200191505060405180910390a36001905092915050565b600260019054906101000a900473ffffffffffffffffffffffffffffffffffffffff1673ffffffffffffffffffffffffffffffffffffffff163373ffffffffffffffffffffffffffffffffffffffff16141515611cce57600080fd5b6001600860008373ffffffffffffffffffffffffffffffffffffffff1673ffffffffffffffffffffffffffffffffffffffff16815260200190815260200160002060006101000a81548160ff02191690831515021790555050565b6000600360008473ffffffffffffffffffffffffffffffffffffffff1673ffffffffffffffffffffffffffffffffffffffff16815260200190815260200160002060008373ffffffffffffffffffffffffffffffffffffffff1673ffffffffffffffffffffffffffffffffffffffff16815260200190815260200160002054905092915050565b600260019054906101000a900473ffffffffffffffffffffffffffffffffffffffff1673ffffffffffffffffffffffffffffffffffffffff163373ffffffffffffffffffffffffffffffffffffffff16141515611e0c57600080fd5b611e15816123a1565b50565b600080600660008473ffffffffffffffffffffffffffffffffffffffff1673ffffffffffffffffffffffffffffffffffffffff1681526020019081526020016000206000808152602001908152602001600020541415611e77576120e3565b600090505b600760008373ffffffffffffffffffffffffffffffffffffffff1673ffffffffffffffffffffffffffffffffffffffff168152602001908152602001600020805490508110156120e25742600760008473ffffffffffffffffffffffffffffffffffffffff1673ffffffffffffffffffffffffffffffffffffffff16815260200190815260200160002082815481101515611f1357fe5b906000526020600020015410156120d557600660008373ffffffffffffffffffffffffffffffffffffffff1673ffffffffffffffffffffffffffffffffffffffff1681526020019081526020016000206000600760008573ffffffffffffffffffffffffffffffffffffffff1673ffffffffffffffffffffffffffffffffffffffff16815260200190815260200160002083815481101515611fb157fe5b9060005260206000200154815260200190815260200160002054600660008473ffffffffffffffffffffffffffffffffffffffff1673ffffffffffffffffffffffffffffffffffffffff1681526020019081526020016000206000808152602001908152602001600020600082825403925050819055506000600660008473ffffffffffffffffffffffffffffffffffffffff1673ffffffffffffffffffffffffffffffffffffffff1681526020019081526020016000206000600760008673ffffffffffffffffffffffffffffffffffffffff1673ffffffffffffffffffffffffffffffffffffffff168152602001908152602001600020848154811015156120b757fe5b90600052602060002001548152602001908152602001600020819055505b8080600101915050611e7c565b5b5050565b6120f082611e18565b6120f9826118ea565b811115151561210757600080fd5b80600460008473ffffffffffffffffffffffffffffffffffffffff1673ffffffffffffffffffffffffffffffffffffffff16815260200190815260200160002060008282540392505081905550806005600082825403925050819055508173ffffffffffffffffffffffffffffffffffffffff167fcc16f5dbb4873280815c1ee09dbd06736cffcc184412cf7a71a0fdb75d397ca5826040518082815260200191505060405180910390a2600073ffffffffffffffffffffffffffffffffffffffff168273ffffffffffffffffffffffffffffffffffffffff167fddf252ad1be2c89b69c2b068fc378daa952ba7f163c4a11628f55a4df523b3ef836040518082815260200191505060405180910390a35050565b80600660008573ffffffffffffffffffffffffffffffffffffffff1673ffffffffffffffffffffffffffffffffffffffff1681526020019081526020016000206000808152602001908152602001600020600082825401925050819055506000600660008573ffffffffffffffffffffffffffffffffffffffff1673ffffffffffffffffffffffffffffffffffffffff168152602001908152602001600020600084815260200190815260200160002054141561233d57600760008473ffffffffffffffffffffffffffffffffffffffff1673ffffffffffffffffffffffffffffffffffffffff1681526020019081526020016000208290806001815401808255809150509060018203906000526020600020016000909192909190915055505b80600660008573ffffffffffffffffffffffffffffffffffffffff1673ffffffffffffffffffffffffffffffffffffffff16815260200190815260200160002060008481526020019081526020016000206000828254019250508190555050505050565b600073ffffffffffffffffffffffffffffffffffffffff168173ffffffffffffffffffffffffffffffffffffffff16141515156123dd57600080fd5b8073ffffffffffffffffffffffffffffffffffffffff16600260019054906101000a900473ffffffffffffffffffffffffffffffffffffffff1673ffffffffffffffffffffffffffffffffffffffff167f8be0079c531659141344cd1fd0a4f28419497f9722a3daafe3b4186f6b6457e060405160405180910390a380600260016101000a81548173ffffffffffffffffffffffffffffffffffffffff021916908373ffffffffffffffffffffffffffffffffffffffff160217905550505600a165627a7a7230582001fbe410337236f8b4a38acf535f770b58a98ea0767a31ac3cbed7eba49acea30029a165627a7a72305820080b991621ea65fbaa0b4e78b8c7376fbb4daa9ce1b5f754483b5b05f7be1f240029",
  "source": "pragma solidity ^0.4.23;\n\nimport \"./W12Lister.sol\";\n\ncontract W12ListerStub is W12Lister {\n\n    /**\n    * @dev Allows for any account besides the owner.\n    */\n    modifier onlyOwner() {\n        _;\n    }\n\n    constructor(IW12CrowdsaleFactory _factory, W12TokenLedger _ledger, IW12AtomicSwap _swap) W12Lister(msg.sender, _factory, _ledger, _swap) public { }\n}\n",
  "sourcePath": "/c/Users/Mr.Hokid/projects/work/w12-product-contracts/contracts/W12ListerStub.sol",
  "compiler": {
    "name": "solc",
    "version": "0.4.24+commit.e67f0147.Emscripten.clang"
  },
  "schemaVersion": "2.0.1",
  "updatedAt": "2018-08-27T10:17:57.397Z"
}