{
  "contractName": "W12Lister__W12CrowdsaleFactoryMock",
  "abi": [
    {
      "constant": true,
      "inputs": [],
      "name": "_createCrowdsaleCall",
      "outputs": [
        {
          "name": "",
          "type": "address"
        },
        {
          "name": "",
          "type": "address"
        },
        {
          "name": "",
          "type": "uint256"
        },
        {
          "name": "",
          "type": "address"
        },
        {
          "name": "",
          "type": "uint256"
        },
        {
          "name": "",
          "type": "uint256"
        },
        {
          "name": "",
          "type": "uint256"
        },
        {
          "name": "",
          "type": "address"
        },
        {
          "name": "",
          "type": "address[]"
        }
      ],
      "payable": false,
      "stateMutability": "view",
      "type": "function"
    },
    {
      "constant": false,
      "inputs": [
        {
          "name": "tokenAddress",
          "type": "address"
        },
        {
          "name": "_wTokenAddress",
          "type": "address"
        },
        {
          "name": "price",
          "type": "uint256"
        },
        {
          "name": "serviceWallet",
          "type": "address"
        },
        {
          "name": "serviceFee",
          "type": "uint256"
        },
        {
          "name": "WTokenSaleFeePercent",
          "type": "uint256"
        },
        {
          "name": "trancheFeePercent",
          "type": "uint256"
        },
        {
          "name": "swap",
          "type": "address"
        },
        {
          "name": "owners",
          "type": "address[]"
        }
      ],
      "name": "createCrowdsale",
      "outputs": [
        {
          "name": "",
          "type": "address"
        }
      ],
      "payable": false,
      "stateMutability": "nonpayable",
      "type": "function"
    }
  ],
  "bytecode": "0x608060405234801561001057600080fd5b50611ade806100206000396000f30060806040526004361061004c576000357c0100000000000000000000000000000000000000000000000000000000900463ffffffff168063868b16d914610051578063abca504f14610174575b600080fd5b34801561005d57600080fd5b50610132600480360381019080803573ffffffffffffffffffffffffffffffffffffffff169060200190929190803573ffffffffffffffffffffffffffffffffffffffff16906020019092919080359060200190929190803573ffffffffffffffffffffffffffffffffffffffff169060200190929190803590602001909291908035906020019092919080359060200190929190803573ffffffffffffffffffffffffffffffffffffffff1690602001909291908035906020019082018035906020019190919293919293905050506102c8565b604051808273ffffffffffffffffffffffffffffffffffffffff1673ffffffffffffffffffffffffffffffffffffffff16815260200191505060405180910390f35b34801561018057600080fd5b5061018961044b565b604051808a73ffffffffffffffffffffffffffffffffffffffff1673ffffffffffffffffffffffffffffffffffffffff1681526020018973ffffffffffffffffffffffffffffffffffffffff1673ffffffffffffffffffffffffffffffffffffffff1681526020018881526020018773ffffffffffffffffffffffffffffffffffffffff1673ffffffffffffffffffffffffffffffffffffffff1681526020018681526020018581526020018481526020018373ffffffffffffffffffffffffffffffffffffffff1673ffffffffffffffffffffffffffffffffffffffff16815260200180602001828103825283818151815260200191508051906020019060200280838360005b838110156102ac578082015181840152602081019050610291565b505050509050019a505050505050505050505060405180910390f35b60008a6000800160006101000a81548173ffffffffffffffffffffffffffffffffffffffff021916908373ffffffffffffffffffffffffffffffffffffffff16021790555089600060010160006101000a81548173ffffffffffffffffffffffffffffffffffffffff021916908373ffffffffffffffffffffffffffffffffffffffff1602179055508860006002018190555087600060030160006101000a81548173ffffffffffffffffffffffffffffffffffffffff021916908373ffffffffffffffffffffffffffffffffffffffff16021790555086600060040181905550856000600501819055508460006006018190555083600060070160006101000a81548173ffffffffffffffffffffffffffffffffffffffff021916908373ffffffffffffffffffffffffffffffffffffffff1602179055508282600060080191906104159291906105b2565b5061041e610652565b604051809103906000f08015801561043a573d6000803e3d6000fd5b5090509a9950505050505050505050565b60008060008060008060008060606000800160009054906101000a900473ffffffffffffffffffffffffffffffffffffffff16600060010160009054906101000a900473ffffffffffffffffffffffffffffffffffffffff16600060020154600060030160009054906101000a900473ffffffffffffffffffffffffffffffffffffffff16600060040154600060050154600060060154600060070160009054906101000a900473ffffffffffffffffffffffffffffffffffffffff1660006008018080548060200260200160405190810160405280929190818152602001828054801561058e57602002820191906000526020600020905b8160009054906101000a900473ffffffffffffffffffffffffffffffffffffffff1673ffffffffffffffffffffffffffffffffffffffff1681526020019060010190808311610544575b50505050509050985098509850985098509850985098509850909192939495969798565b828054828255906000526020600020908101928215610641579160200282015b8281111561064057823573ffffffffffffffffffffffffffffffffffffffff168260006101000a81548173ffffffffffffffffffffffffffffffffffffffff021916908373ffffffffffffffffffffffffffffffffffffffff160217905550916020019190600101906105d2565b5b50905061064e9190610662565b5090565b60405161140d806106a683390190565b6106a291905b8082111561069e57600081816101000a81549073ffffffffffffffffffffffffffffffffffffffff021916905550600101610668565b5090565b905600608060405234801561001057600080fd5b5061001961007a565b604051809103906000f080158015610035573d6000803e3d6000fd5b506000806101000a81548173ffffffffffffffffffffffffffffffffffffffff021916908373ffffffffffffffffffffffffffffffffffffffff16021790555061008a565b60405161056c80610ea183390190565b610e08806100996000396000f300608060405260043610610180576000357c0100000000000000000000000000000000000000000000000000000000900463ffffffff16806307f5d63314610182578063100bcb93146101b057806314f66d34146101db5780631785f53c14610211578063208853c9146102545780632348238c146102955780632442e1cb146102d857806324d7806c1461042a5780632784bb7b146104855780632e325020146104d557806339e69a6c146105df5780633baba4d7146106365780633bcdb164146106615780633dbd6721146106a45780634090cb64146106e9578063564566a81461074057806359e377491461076f57806370480275146107b65780638bad0c0a146107f95780638edd6eb614610810578063a4fd6f5614610867578063a7de99ee14610896578063d0934d61146108f1578063d155790b14610908578063d26aeff01461094b578063d5b22623146109a6578063d6d65f3d14610a59578063d8e9ce6414610a8f578063daa4cf8814610aea578063e93b054014610b20575b005b6101ae600480360381019080803560001916906020019092919080359060200190929190505050610b4d565b005b3480156101bc57600080fd5b506101c5610b51565b6040518082815260200191505060405180910390f35b3480156101e757600080fd5b506101f0610b5e565b60405180838152602001821515151581526020019250505060405180910390f35b34801561021d57600080fd5b50610252600480360381019080803573ffffffffffffffffffffffffffffffffffffffff169060200190929190505050610b65565b005b34801561026057600080fd5b5061027f60048036038101908080359060200190929190505050610b68565b6040518082815260200191505060405180910390f35b3480156102a157600080fd5b506102d6600480360381019080803573ffffffffffffffffffffffffffffffffffffffff169060200190929190505050610b6f565b005b3480156102e457600080fd5b5061030360048036038101908080359060200190929190505050610b72565b604051808763ffffffff1663ffffffff1681526020018681526020018563ffffffff1663ffffffff1681526020018463ffffffff1663ffffffff1681526020018060200180602001838103835285818151815260200191508051906020019080838360005b83811015610383578082015181840152602081019050610368565b50505050905090810190601f1680156103b05780820380516001836020036101000a031916815260200191505b50838103825284818151815260200191508051906020019080838360005b838110156103e95780820151818401526020810190506103ce565b50505050905090810190601f1680156104165780820380516001836020036101000a031916815260200191505b509850505050505050505060405180910390f35b34801561043657600080fd5b5061046b600480360381019080803573ffffffffffffffffffffffffffffffffffffffff169060200190929190505050610b84565b604051808215151515815260200191505060405180910390f35b34801561049157600080fd5b506104b46004803603810190808035600019169060200190929190505050610b8b565b60405180831515151581526020018281526020019250505060405180910390f35b3480156104e157600080fd5b5061050060048036038101908080359060200190929190505050610b93565b604051808763ffffffff1663ffffffff1681526020018663ffffffff1663ffffffff1681526020018581526020018463ffffffff1663ffffffff1681526020018060200180602001838103835285818151815260200191508051906020019060200280838360005b83811015610583578082015181840152602081019050610568565b50505050905001838103825284818151815260200191508051906020019060200280838360005b838110156105c55780820151818401526020810190506105aa565b505050509050019850505050505050505060405180910390f35b3480156105eb57600080fd5b506105f4610ba5565b604051808273ffffffffffffffffffffffffffffffffffffffff1673ffffffffffffffffffffffffffffffffffffffff16815260200191505060405180910390f35b34801561064257600080fd5b5061064b610bcb565b6040518082815260200191505060405180910390f35b34801561066d57600080fd5b506106a2600480360381019080803573ffffffffffffffffffffffffffffffffffffffff169060200190929190505050610bd0565b005b3480156106b057600080fd5b506106d36004803603810190808035600019169060200190929190505050610bd3565b6040518082815260200191505060405180910390f35b3480156106f557600080fd5b506106fe610bda565b604051808273ffffffffffffffffffffffffffffffffffffffff1673ffffffffffffffffffffffffffffffffffffffff16815260200191505060405180910390f35b34801561074c57600080fd5b50610755610bdf565b604051808215151515815260200191505060405180910390f35b34801561077b57600080fd5b506107b4600480360381019080803560001916906020019092919080351515906020019092919080359060200190929190505050610be4565b005b3480156107c257600080fd5b506107f7600480360381019080803573ffffffffffffffffffffffffffffffffffffffff169060200190929190505050610c75565b005b34801561080557600080fd5b5061080e610cb9565b005b34801561081c57600080fd5b50610825610cbb565b604051808273ffffffffffffffffffffffffffffffffffffffff1673ffffffffffffffffffffffffffffffffffffffff16815260200191505060405180910390f35b34801561087357600080fd5b5061087c610ce4565b604051808215151515815260200191505060405180910390f35b3480156108a257600080fd5b506108c160048036038101908080359060200190929190505050610ce9565b60405180846000191660001916815260200183151515158152602001828152602001935050505060405180910390f35b3480156108fd57600080fd5b50610906610d2f565b005b34801561091457600080fd5b50610949600480360381019080803573ffffffffffffffffffffffffffffffffffffffff169060200190929190505050610d31565b005b34801561095757600080fd5b5061097660048036038101908080359060200190929190505050610d34565b60405180846000191660001916815260200183151515158152602001828152602001935050505060405180910390f35b3480156109b257600080fd5b50610a57600480360381019080803590602001908201803590602001919091929391929390803590602001908201803590602001919091929391929390803590602001908201803590602001919091929391929390803590602001908201803590602001919091929391929390803590602001908201803590602001919091929391929390803590602001908201803590602001919091929391929390505050610db6565b005b348015610a6557600080fd5b50610a6e610dc4565b60405180838152602001821515151581526020019250505060405180910390f35b348015610a9b57600080fd5b50610ad0600480360381019080803573ffffffffffffffffffffffffffffffffffffffff169060200190929190505050610dcb565b604051808215151515815260200191505060405180910390f35b348015610af657600080fd5b50610aff610dd2565b60405180838152602001821515151581526020019250505060405180910390f35b348015610b2c57600080fd5b50610b4b60048036038101908080359060200190929190505050610dd9565b005b5050565b6000600280549050905090565b6000809091565b50565b6000919050565b50565b60008060008060608091939550919395565b6000919050565b600080915091565b60008060008060608091939550919395565b600160009054906101000a900473ffffffffffffffffffffffffffffffffffffffff1681565b600090565b50565b6000919050565b600090565b600090565b600260606040519081016040528085600019168152602001841515815260200183815250908060018154018082558091505090600182039060005260206000209060030201600090919290919091506000820151816000019060001916905560208201518160010160006101000a81548160ff02191690831515021790555060408201518160020155505050505050565b80600160006101000a81548173ffffffffffffffffffffffffffffffffffffffff021916908373ffffffffffffffffffffffffffffffffffffffff16021790555050565b565b60008060009054906101000a900473ffffffffffffffffffffffffffffffffffffffff16905090565b600090565b600281815481101515610cf857fe5b90600052602060002090600302016000915090508060000154908060010160009054906101000a900460ff16908060020154905083565b565b50565b6000806000600284815481101515610d4857fe5b906000526020600020906003020160000154600285815481101515610d6957fe5b906000526020600020906003020160010160009054906101000a900460ff16600286815481101515610d9757fe5b9060005260206000209060030201600201549250925092509193909250565b505050505050505050505050565b6000809091565b6000919050565b6000809091565b505600a165627a7a7230582035f3afa0d2d5e1270be053d39149fbff34cebdf28eb5cca3929dbc730fa379a80029608060405234801561001057600080fd5b5061054c806100206000396000f3006080604052600436106100d0576000357c0100000000000000000000000000000000000000000000000000000000900463ffffffff1680631785f53c146100d55780632348238c1461011857806323bffccc1461015b57806324d7806c1461019e57806339e69a6c146101f95780633bcdb16414610250578063483a20b21461029357806370480275146102d65780638bad0c0a14610319578063acb3c07314610330578063d0934d6114610373578063d0baf2f51461038a578063d155790b146103ec578063d8e9ce641461042f575b600080fd5b3480156100e157600080fd5b50610116600480360381019080803573ffffffffffffffffffffffffffffffffffffffff16906020019092919050505061048a565b005b34801561012457600080fd5b50610159600480360381019080803573ffffffffffffffffffffffffffffffffffffffff16906020019092919050505061048d565b005b34801561016757600080fd5b5061019c600480360381019080803573ffffffffffffffffffffffffffffffffffffffff169060200190929190505050610490565b005b3480156101aa57600080fd5b506101df600480360381019080803573ffffffffffffffffffffffffffffffffffffffff169060200190929190505050610493565b604051808215151515815260200191505060405180910390f35b34801561020557600080fd5b5061020e61049a565b604051808273ffffffffffffffffffffffffffffffffffffffff1673ffffffffffffffffffffffffffffffffffffffff16815260200191505060405180910390f35b34801561025c57600080fd5b50610291600480360381019080803573ffffffffffffffffffffffffffffffffffffffff1690602001909291905050506104bf565b005b34801561029f57600080fd5b506102d4600480360381019080803573ffffffffffffffffffffffffffffffffffffffff1690602001909291905050506104c2565b005b3480156102e257600080fd5b50610317600480360381019080803573ffffffffffffffffffffffffffffffffffffffff1690602001909291905050506104c5565b005b34801561032557600080fd5b5061032e610508565b005b34801561033c57600080fd5b50610371600480360381019080803573ffffffffffffffffffffffffffffffffffffffff16906020019092919050505061050a565b005b34801561037f57600080fd5b5061038861050d565b005b6103ea600480360381019080803573ffffffffffffffffffffffffffffffffffffffff169060200190929190803590602001909291908035600019169060200190929190803590602001909291908035906020019092919050505061050f565b005b3480156103f857600080fd5b5061042d600480360381019080803573ffffffffffffffffffffffffffffffffffffffff169060200190929190505050610516565b005b34801561043b57600080fd5b50610470600480360381019080803573ffffffffffffffffffffffffffffffffffffffff169060200190929190505050610519565b604051808215151515815260200191505060405180910390f35b50565b50565b50565b6000919050565b6000809054906101000a900473ffffffffffffffffffffffffffffffffffffffff1681565b50565b50565b806000806101000a81548173ffffffffffffffffffffffffffffffffffffffff021916908373ffffffffffffffffffffffffffffffffffffffff16021790555050565b565b50565b565b5050505050565b50565b60009190505600a165627a7a72305820ca5e5dc240f50224fbff6dabcbd72e3646cc6b5122f29ee4c6575611d530e3580029a165627a7a723058200d75fdbd71dcceab4d1e873c37de112531e07b2ae4a248df92e5d80a551442c40029",
  "source": "pragma solidity 0.4.24;\n\nimport \"../../crowdsale/IW12Crowdsale.sol\";\nimport \"../../crowdsale/factories/IW12CrowdsaleFactory.sol\";\nimport \"./W12Lister__W12CrowdsaleMock.sol\";\n\n\ncontract W12Lister__W12CrowdsaleFactoryMock is IW12CrowdsaleFactory {\n    struct CreateCrowdsaleCall {\n        address tokenAddress;\n        address _wTokenAddress;\n        uint price;\n        address serviceWallet;\n        uint serviceFee;\n        uint WTokenSaleFeePercent;\n        uint trancheFeePercent;\n        address swap;\n        address[] owners;\n    }\n\n    CreateCrowdsaleCall __createCrowdsaleCall;\n    function _createCrowdsaleCall() public view returns(address, address, uint, address, uint, uint, uint, address, address[]) {\n        return (\n            __createCrowdsaleCall.tokenAddress,\n            __createCrowdsaleCall._wTokenAddress,\n            __createCrowdsaleCall.price,\n            __createCrowdsaleCall.serviceWallet,\n            __createCrowdsaleCall.serviceFee,\n            __createCrowdsaleCall.WTokenSaleFeePercent,\n            __createCrowdsaleCall.trancheFeePercent,\n            __createCrowdsaleCall.swap,\n            __createCrowdsaleCall.owners\n        );\n    }\n\n    function createCrowdsale(\n        address tokenAddress,\n        address _wTokenAddress,\n        uint price,\n        address serviceWallet,\n        uint serviceFee,\n        uint WTokenSaleFeePercent,\n        uint trancheFeePercent,\n        address swap,\n        address[] owners\n    )\n     external returns (IW12Crowdsale) {\n        __createCrowdsaleCall.tokenAddress = tokenAddress;\n        __createCrowdsaleCall._wTokenAddress = _wTokenAddress;\n        __createCrowdsaleCall.price = price;\n        __createCrowdsaleCall.serviceWallet = serviceWallet;\n        __createCrowdsaleCall.serviceFee = serviceFee;\n        __createCrowdsaleCall.WTokenSaleFeePercent = WTokenSaleFeePercent;\n        __createCrowdsaleCall.trancheFeePercent = trancheFeePercent;\n        __createCrowdsaleCall.swap = swap;\n        __createCrowdsaleCall.owners = owners;\n\n        return new W12Lister__W12CrowdsaleMock();\n    }\n}\n",
  "sourcePath": "/Users/gauss/_games/w12/W12-Product-Blockchain-Protocol/contracts/mocks/lister/W12Lister__W12CrowdsaleFactoryMock.sol",
  "compiler": {
    "name": "solc",
    "version": "0.4.24+commit.e67f0147.Emscripten.clang"
  },
  "schemaVersion": "3.0.9",
  "updatedAt": "2019-06-02T10:42:51.549Z",
  "devdoc": {
    "methods": {}
  },
  "userdoc": {
    "methods": {}
  }
}