{
  "contractName": "W12ListerStub",
  "abi": [
    {
      "constant": false,
      "inputs": [
        {
          "name": "tokenAddress",
          "type": "address"
        },
        {
          "name": "amountForSale",
          "type": "uint256"
        },
        {
          "name": "price",
          "type": "uint256"
        }
      ],
      "name": "initCrowdsale",
      "outputs": [],
      "payable": false,
      "stateMutability": "nonpayable",
      "type": "function"
    },
    {
      "constant": true,
      "inputs": [
        {
          "name": "_operator",
          "type": "address"
        },
        {
          "name": "_role",
          "type": "string"
        }
      ],
      "name": "checkRole",
      "outputs": [],
      "payable": false,
      "stateMutability": "view",
      "type": "function"
    },
    {
      "constant": false,
      "inputs": [
        {
          "name": "_operator",
          "type": "address"
        }
      ],
      "name": "removeAdmin",
      "outputs": [],
      "payable": false,
      "stateMutability": "nonpayable",
      "type": "function"
    },
    {
      "constant": true,
      "inputs": [
        {
          "name": "",
          "type": "uint256"
        }
      ],
      "name": "approvedTokens",
      "outputs": [
        {
          "name": "name",
          "type": "string"
        },
        {
          "name": "symbol",
          "type": "string"
        },
        {
          "name": "decimals",
          "type": "uint8"
        },
        {
          "name": "feePercent",
          "type": "uint256"
        },
        {
          "name": "ethFeePercent",
          "type": "uint256"
        },
        {
          "name": "WTokenSaleFeePercent",
          "type": "uint256"
        },
        {
          "name": "trancheFeePercent",
          "type": "uint256"
        },
        {
          "name": "crowdsaleAddress",
          "type": "address"
        },
        {
          "name": "tokensForSaleAmount",
          "type": "uint256"
        },
        {
          "name": "wTokensIssuedAmount",
          "type": "uint256"
        },
        {
          "name": "tokenAddress",
          "type": "address"
        }
      ],
      "payable": false,
      "stateMutability": "view",
      "type": "function"
    },
    {
      "constant": true,
      "inputs": [
        {
          "name": "_operator",
          "type": "address"
        },
        {
          "name": "_role",
          "type": "string"
        }
      ],
      "name": "hasRole",
      "outputs": [
        {
          "name": "",
          "type": "bool"
        }
      ],
      "payable": false,
      "stateMutability": "view",
      "type": "function"
    },
    {
      "constant": false,
      "inputs": [
        {
          "name": "tokenOwner",
          "type": "address"
        },
        {
          "name": "tokenAddress",
          "type": "address"
        },
        {
          "name": "name",
          "type": "string"
        },
        {
          "name": "symbol",
          "type": "string"
        },
        {
          "name": "decimals",
          "type": "uint8"
        },
        {
          "name": "feePercent",
          "type": "uint256"
        },
        {
          "name": "ethFeePercent",
          "type": "uint256"
        },
        {
          "name": "WTokenSaleFeePercent",
          "type": "uint256"
        },
        {
          "name": "trancheFeePercent",
          "type": "uint256"
        }
      ],
      "name": "whitelistToken",
      "outputs": [],
      "payable": false,
      "stateMutability": "nonpayable",
      "type": "function"
    },
    {
      "constant": true,
      "inputs": [
        {
          "name": "tokenAddress",
          "type": "address"
        },
        {
          "name": "ownerAddress",
          "type": "address"
        }
      ],
      "name": "getTokenCrowdsale",
      "outputs": [
        {
          "name": "",
          "type": "address"
        }
      ],
      "payable": false,
      "stateMutability": "view",
      "type": "function"
    },
    {
      "constant": true,
      "inputs": [],
      "name": "getExchanger",
      "outputs": [
        {
          "name": "",
          "type": "address"
        }
      ],
      "payable": false,
      "stateMutability": "view",
      "type": "function"
    },
    {
      "constant": true,
      "inputs": [],
      "name": "exchanger",
      "outputs": [
        {
          "name": "",
          "type": "address"
        }
      ],
      "payable": false,
      "stateMutability": "view",
      "type": "function"
    },
    {
      "constant": true,
      "inputs": [],
      "name": "version",
      "outputs": [
        {
          "name": "",
          "type": "uint256"
        }
      ],
      "payable": false,
      "stateMutability": "view",
      "type": "function"
    },
    {
      "constant": true,
      "inputs": [],
      "name": "serviceWallet",
      "outputs": [
        {
          "name": "",
          "type": "address"
        }
      ],
      "payable": false,
      "stateMutability": "view",
      "type": "function"
    },
    {
      "constant": false,
      "inputs": [
        {
          "name": "tokenAddress",
          "type": "address"
        },
        {
          "name": "amount",
          "type": "uint256"
        }
      ],
      "name": "placeToken",
      "outputs": [],
      "payable": false,
      "stateMutability": "nonpayable",
      "type": "function"
    },
    {
      "constant": false,
      "inputs": [
        {
          "name": "_operator",
          "type": "address"
        }
      ],
      "name": "addAdmin",
      "outputs": [],
      "payable": false,
      "stateMutability": "nonpayable",
      "type": "function"
    },
    {
      "constant": false,
      "inputs": [],
      "name": "renounceOwnership",
      "outputs": [],
      "payable": false,
      "stateMutability": "nonpayable",
      "type": "function"
    },
    {
      "constant": true,
      "inputs": [
        {
          "name": "token",
          "type": "address"
        }
      ],
      "name": "getTokenOwners",
      "outputs": [
        {
          "name": "",
          "type": "address[]"
        }
      ],
      "payable": false,
      "stateMutability": "view",
      "type": "function"
    },
    {
      "constant": true,
      "inputs": [],
      "name": "owner",
      "outputs": [
        {
          "name": "",
          "type": "address"
        }
      ],
      "payable": false,
      "stateMutability": "view",
      "type": "function"
    },
    {
      "constant": true,
      "inputs": [],
      "name": "approvedTokensLength",
      "outputs": [
        {
          "name": "",
          "type": "uint16"
        }
      ],
      "payable": false,
      "stateMutability": "view",
      "type": "function"
    },
    {
      "constant": false,
      "inputs": [
        {
          "name": "tokenAddress",
          "type": "address"
        },
        {
          "name": "amountForSale",
          "type": "uint256"
        }
      ],
      "name": "addTokensToCrowdsale",
      "outputs": [],
      "payable": false,
      "stateMutability": "nonpayable",
      "type": "function"
    },
    {
      "constant": true,
      "inputs": [],
      "name": "factory",
      "outputs": [
        {
          "name": "",
          "type": "address"
        }
      ],
      "payable": false,
      "stateMutability": "view",
      "type": "function"
    },
    {
      "constant": true,
      "inputs": [
        {
          "name": "",
          "type": "address"
        },
        {
          "name": "",
          "type": "address"
        }
      ],
      "name": "approvedTokensIndex",
      "outputs": [
        {
          "name": "",
          "type": "uint16"
        }
      ],
      "payable": false,
      "stateMutability": "view",
      "type": "function"
    },
    {
      "constant": true,
      "inputs": [],
      "name": "wallets",
      "outputs": [
        {
          "name": "",
          "type": "address"
        }
      ],
      "payable": false,
      "stateMutability": "view",
      "type": "function"
    },
    {
      "constant": true,
      "inputs": [],
      "name": "ROLE_ADMIN",
      "outputs": [
        {
          "name": "",
          "type": "string"
        }
      ],
      "payable": false,
      "stateMutability": "view",
      "type": "function"
    },
    {
      "constant": false,
      "inputs": [
        {
          "name": "_newOwner",
          "type": "address"
        }
      ],
      "name": "transferOwnership",
      "outputs": [],
      "payable": false,
      "stateMutability": "nonpayable",
      "type": "function"
    },
    {
      "inputs": [
        {
          "name": "version",
          "type": "uint256"
        },
        {
          "name": "_wallets",
          "type": "address"
        },
        {
          "name": "_factory",
          "type": "address"
        },
        {
          "name": "_exchanger",
          "type": "address"
        }
      ],
      "payable": false,
      "stateMutability": "nonpayable",
      "type": "constructor"
    },
    {
      "anonymous": false,
      "inputs": [
        {
          "indexed": true,
          "name": "tokenAddress",
          "type": "address"
        },
        {
          "indexed": true,
          "name": "tokenOwner",
          "type": "address"
        },
        {
          "indexed": false,
          "name": "name",
          "type": "string"
        },
        {
          "indexed": false,
          "name": "symbol",
          "type": "string"
        }
      ],
      "name": "OwnerWhitelisted",
      "type": "event"
    },
    {
      "anonymous": false,
      "inputs": [
        {
          "indexed": true,
          "name": "originalTokenAddress",
          "type": "address"
        },
        {
          "indexed": true,
          "name": "tokenOwner",
          "type": "address"
        },
        {
          "indexed": false,
          "name": "tokenAmount",
          "type": "uint256"
        },
        {
          "indexed": false,
          "name": "placedTokenAddress",
          "type": "address"
        }
      ],
      "name": "TokenPlaced",
      "type": "event"
    },
    {
      "anonymous": false,
      "inputs": [
        {
          "indexed": true,
          "name": "tokenAddress",
          "type": "address"
        },
        {
          "indexed": true,
          "name": "tokenOwner",
          "type": "address"
        },
        {
          "indexed": false,
          "name": "amountForSale",
          "type": "uint256"
        }
      ],
      "name": "CrowdsaleInitialized",
      "type": "event"
    },
    {
      "anonymous": false,
      "inputs": [
        {
          "indexed": true,
          "name": "tokenAddress",
          "type": "address"
        },
        {
          "indexed": true,
          "name": "tokenOwner",
          "type": "address"
        },
        {
          "indexed": false,
          "name": "amount",
          "type": "uint256"
        }
      ],
      "name": "CrowdsaleTokenMinted",
      "type": "event"
    },
    {
      "anonymous": false,
      "inputs": [
        {
          "indexed": true,
          "name": "previousOwner",
          "type": "address"
        }
      ],
      "name": "OwnershipRenounced",
      "type": "event"
    },
    {
      "anonymous": false,
      "inputs": [
        {
          "indexed": true,
          "name": "previousOwner",
          "type": "address"
        },
        {
          "indexed": true,
          "name": "newOwner",
          "type": "address"
        }
      ],
      "name": "OwnershipTransferred",
      "type": "event"
    },
    {
      "anonymous": false,
      "inputs": [
        {
          "indexed": true,
          "name": "operator",
          "type": "address"
        },
        {
          "indexed": false,
          "name": "role",
          "type": "string"
        }
      ],
      "name": "RoleAdded",
      "type": "event"
    },
    {
      "anonymous": false,
      "inputs": [
        {
          "indexed": true,
          "name": "operator",
          "type": "address"
        },
        {
          "indexed": false,
          "name": "role",
          "type": "string"
        }
      ],
      "name": "RoleRemoved",
      "type": "event"
    }
  ],
  "bytecode": "0x600160035560c0604052600560808190527f61646d696e00000000000000000000000000000000000000000000000000000060a09081526200004591600491906200031a565b503480156200005357600080fd5b50604051608080620042048339810160409081528151602083015191830151606090930151600082905560028054600160a060020a0319163317905590929083838383600160a060020a0382161515620000ac57600080fd5b600160a060020a0381161515620000c257600080fd5b60058054600160a060020a03808416600160a060020a03199283161790925560078054868416908316179055600680549285169290911691909117905560098054906200011390600183016200039f565b506004805460408051602060026001851615610100026000190190941693909304601f8101849004840282018401909252818152620001c193339391929091830182828015620001a75780601f106200017b57610100808354040283529160200191620001a7565b820191906000526020600020905b8154815290600101906020018083116200018957829003601f168201915b5050505050620001cf640100000000026401000000009004565b5050505050505050620004cf565b6200024b826001836040518082805190602001908083835b60208310620002085780518252601f199092019160209182019101620001e7565b51815160209384036101000a6000190180199092169116179052920194855250604051938490030190922092915050640100000000620002f581026200262d1704565b81600160a060020a03167fbfec83d64eaa953f2708271a023ab9ee82057f8f3578d548c1a4ba0b5b700489826040518080602001828103825283818151815260200191508051906020019080838360005b83811015620002b65781810151838201526020016200029c565b50505050905090810190601f168015620002e45780820380516001836020036101000a031916815260200191505b509250505060405180910390a25050565b600160a060020a0316600090815260209190915260409020805460ff19166001179055565b828054600181600116156101000203166002900490600052602060002090601f016020900481019282601f106200035d57805160ff19168380011785556200038d565b828001600101855582156200038d579182015b828111156200038d57825182559160200191906001019062000370565b506200039b929150620003d3565b5090565b815481835581811115620003ce57600c0281600c028360005260206000209182019101620003ce9190620003f3565b505050565b620003f091905b808211156200039b5760008155600101620003da565b90565b620003f091905b808211156200039b57600062000411828262000484565b6200042160018301600062000484565b5060028101805460ff19169055600060048201819055600582018190556006820181905560078201819055600882018054600160a060020a031990811690915560098301829055600a830191909155600b820180549091169055600c01620003fa565b50805460018160011615610100020316600290046000825580601f10620004ac5750620004cc565b601f016020900490600052602060002090810190620004cc9190620003d3565b50565b613d2580620004df6000396000f300608060405260043610620001315763ffffffff60e060020a60003504166309363c998114620001365780630988ca8c14620001625780631785f53c14620001cc5780631dafede014620001f0578063217fe6c6146200035857806334cf82bf14620003d65780633f3466a7146200042d5780634b1acf3914620004735780634d12fca4146200048b57806354fd4d5014620004a35780635641f3c314620004cd57806368dce93214620004e557806370480275146200050c578063715018a61462000530578063849072b914620005485780638da5cb5b14620005be5780639cf96e2e14620005d6578063a41ffd381462000605578063c45a0155146200062c578063cca89d731462000644578063d2f4a50a146200066e578063d391014b1462000686578063f2fde38b1462000716575b600080fd5b3480156200014357600080fd5b5062000160600160a060020a03600435166024356044356200073a565b005b3480156200016f57600080fd5b5060408051602060046024803582810135601f810185900485028601850190965285855262000160958335600160a060020a031695369560449491939091019190819084018382808284375094975062000b789650505050505050565b348015620001d957600080fd5b5062000160600160a060020a036004351662000bea565b348015620001fd57600080fd5b506200020b60043562000c8b565b6040518080602001806020018c60ff1660ff1681526020018b81526020018a815260200189815260200188815260200187600160a060020a0316600160a060020a0316815260200186815260200185815260200184600160a060020a0316600160a060020a0316815260200183810383528e818151815260200191508051906020019080838360005b83811015620002ae57818101518382015260200162000294565b50505050905090810190601f168015620002dc5780820380516001836020036101000a031916815260200191505b5083810382528d5181528d516020918201918f019080838360005b8381101562000311578181015183820152602001620002f7565b50505050905090810190601f1680156200033f5780820380516001836020036101000a031916815260200191505b509d505050505050505050505050505060405180910390f35b3480156200036557600080fd5b5060408051602060046024803582810135601f8101859004850286018501909652858552620003c2958335600160a060020a031695369560449491939091019190819084018382808284375094975062000e2d9650505050505050565b604080519115158252519081900360200190f35b348015620003e357600080fd5b5062000160600160a060020a0360048035821691602480359091169160443580830192908201359160643591820191013560ff6084351660a43560c43560e4356101043562000ea6565b3480156200043a57600080fd5b5062000457600160a060020a03600435811690602435166200141e565b60408051600160a060020a039092168252519081900360200190f35b3480156200048057600080fd5b506200045762001440565b3480156200049857600080fd5b506200045762001450565b348015620004b057600080fd5b50620004bb6200145f565b60408051918252519081900360200190f35b348015620004da57600080fd5b506200045762001465565b348015620004f257600080fd5b5062000160600160a060020a0360043516602435620014ff565b3480156200051957600080fd5b5062000160600160a060020a036004351662001acc565b3480156200053d57600080fd5b506200016062001b6a565b3480156200055557600080fd5b506200056c600160a060020a036004351662001bc1565b60408051602080825283518183015283519192839290830191858101910280838360005b83811015620005aa57818101518382015260200162000590565b505050509050019250505060405180910390f35b348015620005cb57600080fd5b506200045762001c39565b348015620005e357600080fd5b50620005ee62001c48565b6040805161ffff9092168252519081900360200190f35b3480156200061257600080fd5b5062000160600160a060020a036004351660243562001c52565b3480156200063957600080fd5b506200045762001f40565b3480156200065157600080fd5b50620005ee600160a060020a036004358116906024351662001f4f565b3480156200067b57600080fd5b506200045762001f70565b3480156200069357600080fd5b506200069e62001f7f565b6040805160208082528351818301528351919283929083019185019080838360005b83811015620006da578181015183820152602001620006c0565b50505050905090810190601f168015620007085780820380516001836020036101000a031916815260200191505b509250505060405180910390f35b3480156200072357600080fd5b5062000160600160a060020a036004351662002011565b60008060016003541415156200074f57600080fd5b600260035560006200076062001465565b600160a060020a031614156200077557600080fd5b6200078185336200201c565b336000908152600391909101602052604090205460ff161515600114620007a757600080fd5b620007c984620007b887336200201c565b600a01549063ffffffff6200206e16565b620007d586336200201c565b600901541015620007e557600080fd5b6000620007f386336200201c565b60080154600160a060020a0316146200080b57600080fd5b6005546040805160e260020a630547cdcd028152600160a060020a0388811660048301529151919092169163151f37349160248083019260209291908290030181600087803b1580156200085e57600080fd5b505af115801562000873573d6000803e3d6000fd5b505050506040513d60208110156200088a57600080fd5b5051600654909250600160a060020a031663aa1322f7868486620008ad62001465565b620008b98b336200201c565b60050154620008c98c336200201c565b60060154620008d98d336200201c565b600701546005546040805160e060020a63ffffffff8c16028152600160a060020a03998a166004820152978916602489015260448801969096529387166064870152608486019290925260a485015260c48401529290921660e48201523361010482015290516101248083019260209291908290030181600087803b1580156200096257600080fd5b505af115801562000977573d6000803e3d6000fd5b505050506040513d60208110156200098e57600080fd5b50519050806200099f86336200201c565b600801805473ffffffffffffffffffffffffffffffffffffffff1916600160a060020a03928316179055604080517fd88b8676000000000000000000000000000000000000000000000000000000008152838316600482015290519184169163d88b86769160248082019260009290919082900301818387803b15801562000a2657600080fd5b505af115801562000a3b573d6000803e3d6000fd5b50505050600062000a4d86336200201c565b60060154111562000b2057600554600160a060020a031663e1f21c67868362000a9c62000a7b83336200201c565b6006015462000a8b8b336200201c565b600901549063ffffffff6200207c16565b6040805160e060020a63ffffffff8716028152600160a060020a0394851660048201529290931660248301526044820152905160648083019260209291908290030181600087803b15801562000af157600080fd5b505af115801562000b06573d6000803e3d6000fd5b505050506040513d602081101562000b1d57600080fd5b50505b62000b2c858562001c52565b6040805185815290513391600160a060020a038816917f824239e216016c403265447935e88cc521189d5e9a52754e5c2a16f7436281dc9181900360200190a350506001600355505050565b62000be6826001836040518082805190602001908083835b6020831062000bb15780518252601f19909201916020918201910162000b90565b51815160209384036101000a6000190180199092169116179052920194855250604051938490030190922092915050620020ab565b5050565b6004805460408051602060026001851615610100026000190190941693909304601f810184900484028201840190925281815262000c889385939192909183018282801562000c7d5780601f1062000c515761010080835404028352916020019162000c7d565b820191906000526020600020905b81548152906001019060200180831162000c5f57829003601f168201915b5050505050620020c3565b50565b600980548290811062000c9a57fe5b6000918252602091829020600c919091020180546040805160026001841615610100026000190190931692909204601f81018590048502830185019091528082529193509183919083018282801562000d375780601f1062000d0b5761010080835404028352916020019162000d37565b820191906000526020600020905b81548152906001019060200180831162000d1957829003601f168201915b505050505090806001018054600181600116156101000203166002900480601f01602080910402602001604051908101604052809291908181526020018280546001816001161561010002031660029004801562000dd95780601f1062000dad5761010080835404028352916020019162000dd9565b820191906000526020600020905b81548152906001019060200180831162000dbb57829003601f168201915b50505060028401546004850154600586015460068701546007880154600889015460098a0154600a8b0154600b909b0154999a60ff9097169995985093965091949093600160a060020a039283169392168b565b600062000e9d836001846040518082805190602001908083835b6020831062000e685780518252601f19909201916020918201910162000e47565b51815160209384036101000a6000190180199092169116179052920194855250604051938490030190922092915050620021db565b90505b92915050565b60048054604080516020601f600260001961010060018816150201909516949094049384018190048102820181019092528281526000939092909183018282801562000f365780601f1062000f0a5761010080835404028352916020019162000f36565b820191906000526020600020905b81548152906001019060200180831162000f1857829003601f168201915b5050505050600160a060020a038d16151562000f5157600080fd5b600160a060020a038c16151562000f6757600080fd5b62000f7286620021fa565b801562000f895750606462000f878762002224565b105b151562000f9557600080fd5b62000fa085620021fa565b801562000fb75750606462000fb58662002224565b105b151562000fc357600080fd5b62000fce84620021fa565b801562000fe55750606462000fe38562002224565b105b151562000ff157600080fd5b62000ffc83620021fa565b80156200101357506064620010118462002224565b105b15156200101f57600080fd5b8b600160a060020a0316620010358d8f6200201c565b600b0154600160a060020a031614156200104e57600080fd5b6200105a8c8e6200201c565b600160a060020a038e166000908152600391909101602052604090205460ff16156200108557600080fd5b600980549050915081600860008e600160a060020a0316600160a060020a0316815260200190815260200160002060008f600160a060020a0316600160a060020a0316815260200190815260200160002060006101000a81548161ffff021916908361ffff1602179055506009805480919060010162001106919062002666565b600b60006101000a81548161ffff021916908361ffff160217905550600a60008d600160a060020a0316600160a060020a031681526020019081526020016000208d90806001815401808255809150509060018203906000526020600020016000909192909190916101000a815481600160a060020a030219169083600160a060020a0316021790555050600160098361ffff16815481101515620011a757fe5b90600052602060002090600c020160030160008f600160a060020a0316600160a060020a0316815260200190815260200160002060006101000a81548160ff0219169083151502179055508a8a60098461ffff168154811015156200120857fe5b600091825260209091206200122493600c90920201916200269a565b50888860098461ffff168154811015156200123b57fe5b90600052602060002090600c020160010191906200125b9291906200269a565b508660098361ffff168154811015156200127157fe5b90600052602060002090600c020160020160006101000a81548160ff021916908360ff1602179055508560098361ffff16815481101515620012af57fe5b90600052602060002090600c0201600401819055508460098361ffff16815481101515620012d957fe5b90600052602060002090600c0201600501819055508360098361ffff168154811015156200130357fe5b90600052602060002090600c0201600601819055508260098361ffff168154811015156200132d57fe5b90600052602060002090600c0201600701819055508b60098361ffff168154811015156200135757fe5b90600052602060002090600c0201600b0160006101000a815481600160a060020a030219169083600160a060020a031602179055508c600160a060020a03168c600160a060020a03167fd3bb7a0fd3c972c824718e5d4fe7501feb58ebd797223783efbfd1d3085d49438d8d8d8d60405180806020018060200183810383528787828181526020019250808284379091018481038352858152602001905085858082843760405192018290039850909650505050505050a350505050505050505050505050565b60006200142c83836200201c565b60080154600160a060020a03169392505050565b600554600160a060020a03165b90565b600554600160a060020a031681565b60005481565b600754604080517fe3ff76e4000000000000000000000000000000000000000000000000000000008152600160048201529051600092600160a060020a03169163e3ff76e491602480830192602092919082900301818787803b158015620014cc57600080fd5b505af1158015620014e1573d6000803e3d6000fd5b505050506040513d6020811015620014f857600080fd5b5051905090565b600080600080600060016003541415156200151957600080fd5b600260035560006200152a62001465565b600160a060020a031614156200153f57600080fd5b600086116200154d57600080fd5b600160a060020a03871615156200156357600080fd5b86600160a060020a03166200157988336200201c565b600b0154600160a060020a0316146200159157600080fd5b6200159d87336200201c565b336000908152600391909101602052604090205460ff161515620015c057600080fd5b604080517fdd62ed3e00000000000000000000000000000000000000000000000000000000815233600482015230602482015290518896508791600160a060020a0388169163dd62ed3e916044808201926020929091908290030181600087803b1580156200162e57600080fd5b505af115801562001643573d6000803e3d6000fd5b505050506040513d60208110156200165a57600080fd5b505110156200166857600080fd5b6200167487336200201c565b93508360020160009054906101000a900460ff1660ff1685600160a060020a031663313ce5676040518163ffffffff1660e060020a028152600401602060405180830381600087803b158015620016ca57600080fd5b505af1158015620016df573d6000803e3d6000fd5b505050506040513d6020811015620016f657600080fd5b505160ff16146200170657600080fd5b60008460040154116200171b57600062001733565b60048401546200173390879063ffffffff6200207c16565b925062001747868463ffffffff6200225c16565b60055490925062001764908690600160a060020a0316846200226f565b6200177a856200177362001465565b856200226f565b600984015462001791908363ffffffff6200206e16565b60098501556005546040805160e260020a630547cdcd028152600160a060020a038a8116600483015291516000939092169163151f37349160248082019260209290919082900301818787803b158015620017eb57600080fd5b505af115801562001800573d6000803e3d6000fd5b505050506040513d60208110156200181757600080fd5b5051600160a060020a03161415620019f55760028401548490600182019060ff16620018426200271f565b60ff82166040820152606080825284546002600019610100600184161502019091160490820181905281906020820190608083019087908015620018ca5780601f106200189e57610100808354040283529160200191620018ca565b820191906000526020600020905b815481529060010190602001808311620018ac57829003601f168201915b5050838103825285546002600019610100600184161502019091160480825260209091019086908015620019425780601f10620019165761010080835404028352916020019162001942565b820191906000526020600020905b8154815290600101906020018083116200192457829003601f168201915b505095505050505050604051809103906000f08015801562001968573d6000803e3d6000fd5b50600554604080517fa0736912000000000000000000000000000000000000000000000000000000008152600160a060020a038b811660048301528085166024830152915193945091169163a07369129160448082019260009290919082900301818387803b158015620019db57600080fd5b505af1158015620019f0573d6000803e3d6000fd5b505050505b6005546040805160e260020a630547cdcd028152600160a060020a038a811660048301819052925133947f2b11dc5f6b2036a3d03d04c1e89724a8650507582665455ed7154b544f3e3c4f9388939091169163151f3734916024808201926020929091908290030181600087803b15801562001a7057600080fd5b505af115801562001a85573d6000803e3d6000fd5b505050506040513d602081101562001a9c57600080fd5b505160408051928352600160a060020a0390911660208301528051918290030190a3505060016003555050505050565b6004805460408051602060026001851615610100026000190190941693909304601f810184900484028201840190925281815262000c889385939192909183018282801562001b5f5780601f1062001b335761010080835404028352916020019162001b5f565b820191906000526020600020905b81548152906001019060200180831162001b4157829003601f168201915b505050505062002453565b600254604051600160a060020a03909116907ff8df31144d9c2f0f6b59d69b8b98abd5459d07f2742c4df920b25aae33c6482090600090a26002805473ffffffffffffffffffffffffffffffffffffffff19169055565b600160a060020a0381166000908152600a602090815260409182902080548351818402810184019094528084526060939283018282801562001c2d57602002820191906000526020600020905b8154600160a060020a0316815260019091019060200180831162001c0e575b50505050509050919050565b600254600160a060020a031681565b600b5461ffff1681565b60008080831162001c6257600080fd5b600160a060020a038416151562001c7857600080fd5b6005546040805160e260020a630547cdcd028152600160a060020a03878116600483015291516000939092169163151f37349160248082019260209290919082900301818787803b15801562001ccd57600080fd5b505af115801562001ce2573d6000803e3d6000fd5b505050506040513d602081101562001cf957600080fd5b5051600160a060020a0316141562001d1057600080fd5b600062001d1e85336200201c565b60080154600160a060020a0316141562001d3757600080fd5b62001d4384336200201c565b336000908152600391909101602052604090205460ff16151560011462001d6957600080fd5b62001d7a83620007b886336200201c565b62001d8685336200201c565b60090154101562001d9657600080fd5b6005546040805160e260020a630547cdcd028152600160a060020a0387811660048301529151919092169163151f37349160248083019260209291908290030181600087803b15801562001de957600080fd5b505af115801562001dfe573d6000803e3d6000fd5b505050506040513d602081101562001e1557600080fd5b5051915062001e2584336200201c565b60080154600160a060020a0316905062001e4583620007b886336200201c565b62001e5185336200201c565b600a0155604080517fd0047acf000000000000000000000000000000000000000000000000000000008152600160a060020a0383811660048301526024820186905260006044830181905292519085169263d0047acf92606480820193602093909283900390910190829087803b15801562001ecc57600080fd5b505af115801562001ee1573d6000803e3d6000fd5b505050506040513d602081101562001ef857600080fd5b50506040805184815290513391600160a060020a038716917f9a2331701430ef95fa157fc5598820b278d8225e8a51263887abb0e1e2b06d979181900360200190a350505050565b600654600160a060020a031681565b600860209081526000928352604080842090915290825290205461ffff1681565b600754600160a060020a031681565b6004805460408051602060026001851615610100026000190190941693909304601f81018490048402820184019092528181529291830182828015620020095780601f1062001fdd5761010080835404028352916020019162002009565b820191906000526020600020905b81548152906001019060200180831162001feb57829003601f168201915b505050505081565b62000c88816200252b565b600160a060020a03808316600090815260086020908152604080832093851683529290529081205460098054909161ffff169081106200205857fe5b90600052602060002090600c0201905092915050565b8181018281101562000ea057fe5b600062000e9d6200208c620025aa565b6200209e858563ffffffff620025be16565b9063ffffffff620025eb16565b620020b78282620021db565b151562000be657600080fd5b62002131826001836040518082805190602001908083835b60208310620020fc5780518252601f199092019160209182019101620020db565b51815160209384036101000a600019018019909216911617905292019485525060405193849003019092209291505062002601565b81600160a060020a03167fd211483f91fc6eff862467f8de606587a30c8fc9981056f051b897a418df803a826040518080602001828103825283818151815260200191508051906020019080838360005b838110156200219c57818101518382015260200162002182565b50505050905090810190601f168015620021ca5780820380516001836020036101000a031916815260200191505b509250505060405180910390a25050565b600160a060020a03166000908152602091909152604090205460ff1690565b60006200220662002623565b821015801562000ea057506200221b620025aa565b82111592915050565b60006200223182620021fa565b15156200223d57600080fd5b62000ea06200224b62002628565b8390600a0a63ffffffff620025eb16565b6000828211156200226957fe5b50900390565b60006200230d8285600160a060020a03166370a08231866040518263ffffffff1660e060020a0281526004018082600160a060020a0316600160a060020a03168152602001915050602060405180830381600087803b158015620022d257600080fd5b505af1158015620022e7573d6000803e3d6000fd5b505050506040513d6020811015620022fe57600080fd5b50519063ffffffff6200206e16565b604080517f23b872dd000000000000000000000000000000000000000000000000000000008152336004820152600160a060020a038681166024830152604482018690529151929350908616916323b872dd916064808201926020929091908290030181600087803b1580156200238357600080fd5b505af115801562002398573d6000803e3d6000fd5b505050506040513d6020811015620023af57600080fd5b5050604080517f70a08231000000000000000000000000000000000000000000000000000000008152600160a060020a038581166004830152915183928716916370a082319160248083019260209291908290030181600087803b1580156200241757600080fd5b505af11580156200242c573d6000803e3d6000fd5b505050506040513d60208110156200244357600080fd5b5051146200244d57fe5b50505050565b620024c1826001836040518082805190602001908083835b602083106200248c5780518252601f1990920191602091820191016200246b565b51815160209384036101000a60001901801990921691161790529201948552506040519384900301909220929150506200262d565b81600160a060020a03167fbfec83d64eaa953f2708271a023ab9ee82057f8f3578d548c1a4ba0b5b70048982604051808060200182810382528381815181526020019150805190602001908083836000838110156200219c57818101518382015260200162002182565b600160a060020a03811615156200254157600080fd5b600254604051600160a060020a038084169216907f8be0079c531659141344cd1fd0a4f28419497f9722a3daafe3b4186f6b6457e090600090a36002805473ffffffffffffffffffffffffffffffffffffffff1916600160a060020a0392909216919091179055565b6000620025b662002652565b600a0a905090565b6000821515620025d15750600062000ea0565b50818102818382811515620025e257fe5b041462000ea057fe5b60008183811515620025f957fe5b049392505050565b600160a060020a0316600090815260209190915260409020805460ff19169055565b600090565b600290565b600160a060020a0316600090815260209190915260409020805460ff19166001179055565b60006200265e62002628565b600201905090565b8154818355818111156200269557600c0281600c02836000526020600020918201910162002695919062002730565b505050565b828054600181600116156101000203166002900490600052602060002090601f016020900481019282601f10620026dd5782800160ff198235161785556200270d565b828001600101855582156200270d579182015b828111156200270d578235825591602001919060010190620026f0565b506200271b929150620027ce565b5090565b6040516114c6806200283483390190565b6200144d91905b808211156200271b5760006200274e8282620027eb565b6200275e600183016000620027eb565b5060028101805460ff1916905560006004820181905560058201819055600682018190556007820181905560088201805473ffffffffffffffffffffffffffffffffffffffff1990811690915560098301829055600a830191909155600b820180549091169055600c0162002737565b6200144d91905b808211156200271b5760008155600101620027d5565b50805460018160011615610100020316600290046000825580601f1062002813575062000c88565b601f01602090049060005260206000209081019062000c889190620027ce560060806040523480156200001157600080fd5b50604051620014c6380380620014c68339810160409081528151602080840151928401519184018051909493909301928491849184916200005891600091860190620000ba565b5081516200006e906001906020850190620000ba565b506002805460ff90921660ff1992831617905560058054600160a060020a031916339081179091556000908152600b6020526040902080549091166001179055506200015f9350505050565b828054600181600116156101000203166002900490600052602060002090601f016020900481019282601f10620000fd57805160ff19168380011785556200012d565b828001600101855582156200012d579182015b828111156200012d57825182559160200191906001019062000110565b506200013b9291506200013f565b5090565b6200015c91905b808211156200013b576000815560010162000146565b90565b611357806200016f6000396000f3006080604052600436106101325763ffffffff7c010000000000000000000000000000000000000000000000000000000060003504166306fdde038114610137578063095ea7b3146101c157806318160ddd146101f957806323b872dd1461022057806327e235e31461024a578063313ce5671461026b57806342966c68146102965780634afbf5ee146102b057806366188463146102d457806370a08231146102f8578063715018a61461031957806379cc67901461032e5780638da5cb5b1461035257806395d89b41146103835780639d2e477714610398578063a9059cbb146103c5578063ba0e0f5e146103e9578063d0047acf1461040a578063d294cb0f14610437578063d73dd62314610458578063d88b86761461047c578063dd62ed3e1461049d578063f2fde38b146104c4575b600080fd5b34801561014357600080fd5b5061014c6104e5565b6040805160208082528351818301528351919283929083019185019080838360005b8381101561018657818101518382015260200161016e565b50505050905090810190601f1680156101b35780820380516001836020036101000a031916815260200191505b509250505060405180910390f35b3480156101cd57600080fd5b506101e5600160a060020a0360043516602435610573565b604080519115158252519081900360200190f35b34801561020557600080fd5b5061020e6105d9565b60408051918252519081900360200190f35b34801561022c57600080fd5b506101e5600160a060020a03600435811690602435166044356105df565b34801561025657600080fd5b5061020e600160a060020a036004351661073f565b34801561027757600080fd5b50610280610751565b6040805160ff9092168252519081900360200190f35b3480156102a257600080fd5b506102ae60043561075a565b005b3480156102bc57600080fd5b5061020e600160a060020a0360043516602435610767565b3480156102e057600080fd5b506101e5600160a060020a0360043516602435610784565b34801561030457600080fd5b5061020e600160a060020a0360043516610873565b34801561032557600080fd5b506102ae61088e565b34801561033a57600080fd5b506102ae600160a060020a03600435166024356108fc565b34801561035e57600080fd5b50610367610992565b60408051600160a060020a039092168252519081900360200190f35b34801561038f57600080fd5b5061014c6109a1565b3480156103a457600080fd5b506101e5600160a060020a036004351660243563ffffffff604435166109fb565b3480156103d157600080fd5b506101e5600160a060020a0360043516602435610aa7565b3480156103f557600080fd5b506102ae600160a060020a0360043516610b7a565b34801561041657600080fd5b506101e5600160a060020a036004351660243563ffffffff60443516610bb2565b34801561044357600080fd5b5061020e600160a060020a0360043516610cf8565b34801561046457600080fd5b506101e5600160a060020a0360043516602435610dfd565b34801561048857600080fd5b506102ae600160a060020a0360043516610e96565b3480156104a957600080fd5b5061020e600160a060020a0360043581169060243516610ed1565b3480156104d057600080fd5b506102ae600160a060020a0360043516610efc565b6000805460408051602060026001851615610100026000190190941693909304601f8101849004840282018401909252818152929183018282801561056b5780601f106105405761010080835404028352916020019161056b565b820191906000526020600020905b81548152906001019060200180831161054e57829003601f168201915b505050505081565b336000818152600660209081526040808320600160a060020a038716808552908352818420869055815186815291519394909390927f8c5be1e5ebec7d5bd14f71427d1e84f3dd0314c0f7b2291e5b200ac8c7c3b925928290030190a350600192915050565b60085490565b60006105ea84610f1c565b600160a060020a03831615156105ff57600080fd5b61060884610cf8565b82111561061457600080fd5b600160a060020a038416600090815260066020908152604080832033845290915290205482111561064457600080fd5b600160a060020a03841660009081526007602052604090205461066d908363ffffffff61108b16565b600160a060020a0380861660009081526007602052604080822093909355908516815220546106a2908363ffffffff61109d16565b600160a060020a0380851660009081526007602090815260408083209490945591871681526006825282812033825290915220546106e6908363ffffffff61108b16565b600160a060020a038086166000818152600660209081526040808320338452825291829020949094558051868152905192871693919260008051602061130c833981519152929181900390910190a35060019392505050565b60076020526000908152604090205481565b60025460ff1681565b61076433826110b0565b50565b600960209081526000928352604080842090915290825290205481565b336000908152600660209081526040808320600160a060020a03861684529091528120548083106107d857336000908152600660209081526040808320600160a060020a038816845290915281205561080d565b6107e8818463ffffffff61108b16565b336000908152600660209081526040808320600160a060020a03891684529091529020555b336000818152600660209081526040808320600160a060020a0389168085529083529281902054815190815290519293927f8c5be1e5ebec7d5bd14f71427d1e84f3dd0314c0f7b2291e5b200ac8c7c3b925929181900390910190a35060019392505050565b600160a060020a031660009081526007602052604090205490565b600554600160a060020a031633146108a557600080fd5b600554604051600160a060020a03909116907ff8df31144d9c2f0f6b59d69b8b98abd5459d07f2742c4df920b25aae33c6482090600090a26005805473ffffffffffffffffffffffffffffffffffffffff19169055565b600160a060020a038216600090815260066020908152604080832033845290915290205481111561092c57600080fd5b600160a060020a0382166000908152600660209081526040808320338452909152902054610960908263ffffffff61108b16565b600160a060020a038316600090815260066020908152604080832033845290915290205561098e82826110b0565b5050565b600554600160a060020a031681565b60018054604080516020600284861615610100026000190190941693909304601f8101849004840282018401909252818152929183018282801561056b5780601f106105405761010080835404028352916020019161056b565b336000818152600b602052604081205490919060ff161515610a1c57600080fd5b610a268585610aa7565b50428363ffffffff161115610a4857610a486000868563ffffffff1687611198565b60408051338152600160a060020a038716602082015280820186905263ffffffff8516606082015290517f5075049792a88eedfe4e60bb3ffeac77b4fa7f03108b81fb0b460161b983e2009181900360800190a1506001949350505050565b6000610ab233610f1c565b600160a060020a0383161515610ac757600080fd5b610ad033610cf8565b821115610adc57600080fd5b33600090815260076020526040902054610afc908363ffffffff61108b16565b3360009081526007602052604080822092909255600160a060020a03851681522054610b2e908363ffffffff61109d16565b600160a060020a03841660008181526007602090815260409182902093909355805185815290519192339260008051602061130c8339815191529281900390910190a350600192915050565b600554600160a060020a03163314610b9157600080fd5b600160a060020a03166000908152600b60205260409020805460ff19169055565b336000818152600b602052604081205490919060ff161515610bd357600080fd5b600854610be6818663ffffffff61109d16565b11610bf057600080fd5b428363ffffffff161115610c1157610c116000868563ffffffff1687611198565b600160a060020a038516600090815260076020526040902054610c3a908563ffffffff61109d16565b600160a060020a038616600090815260076020526040902055600854610c66908563ffffffff61109d16565b600855604080518581529051600160a060020a0387169160009160008051602061130c8339815191529181900360200190a36040805160008152600160a060020a038716602082015280820186905263ffffffff8516606082015290517f5075049792a88eedfe4e60bb3ffeac77b4fa7f03108b81fb0b460161b983e2009181900360800190a1506001949350505050565b600160a060020a038116600090815260076020908152604080832054600983528184208480529092528220549091901515610d3257610df7565b5060005b600160a060020a0383166000908152600a6020526040902054811015610df757600160a060020a0383166000908152600a60205260409020805442919083908110610d7d57fe5b9060005260206000200154101515610def57600160a060020a0383166000908152600960209081526040808320600a90925282208054610dec93919085908110610dc357fe5b90600052602060002001548152602001908152602001600020548361108b90919063ffffffff16565b91505b600101610d36565b50919050565b336000908152600660209081526040808320600160a060020a0386168452909152812054610e31908363ffffffff61109d16565b336000818152600660209081526040808320600160a060020a0389168085529083529281902085905580519485525191937f8c5be1e5ebec7d5bd14f71427d1e84f3dd0314c0f7b2291e5b200ac8c7c3b925929081900390910190a350600192915050565b600554600160a060020a03163314610ead57600080fd5b600160a060020a03166000908152600b60205260409020805460ff19166001179055565b600160a060020a03918216600090815260066020908152604080832093909416825291909152205490565b600554600160a060020a03163314610f1357600080fd5b6107648161128d565b600160a060020a03811660009081526009602090815260408083208380529091528120541515610f4b5761098e565b5060005b600160a060020a0382166000908152600a602052604090205481101561098e57600160a060020a0382166000908152600a60205260409020805442919083908110610f9657fe5b9060005260206000200154101561108357600160a060020a0382166000908152600960209081526040808320600a9092528220805461102193919085908110610fdb57fe5b60009182526020808320909101548352828101939093526040918201812054600160a060020a03871682526009845282822082805290935220549063ffffffff61108b16565b600160a060020a038316600081815260096020908152604080832083805280835281842095909555928252600a905290812080549192918391908590811061106557fe5b90600052602060002001548152602001908152602001600020819055505b600101610f4f565b60008282111561109757fe5b50900390565b818101828110156110aa57fe5b92915050565b6110b982610f1c565b6110c282610cf8565b8111156110ce57600080fd5b600160a060020a0382166000908152600760205260409020546110f7908263ffffffff61108b16565b600160a060020a038316600090815260076020526040902055600854611123908263ffffffff61108b16565b600855604080518281529051600160a060020a038416917fcc16f5dbb4873280815c1ee09dbd06736cffcc184412cf7a71a0fdb75d397ca5919081900360200190a2604080518281529051600091600160a060020a0385169160008051602061130c8339815191529181900360200190a35050565b600160a060020a03831660009081526009602090815260408083208380529091529020546111cc908263ffffffff61109d16565b600160a060020a0384166000908152600960209081526040808320838052909152808220929092558381522054151561122b57600160a060020a0383166000908152600a60209081526040822080546001810182559083529120018290555b600160a060020a038316600090815260096020908152604080832085845290915290205461125f908263ffffffff61109d16565b600160a060020a03909316600090815260096020908152604080832094835293905291909120919091555050565b600160a060020a03811615156112a257600080fd5b600554604051600160a060020a038084169216907f8be0079c531659141344cd1fd0a4f28419497f9722a3daafe3b4186f6b6457e090600090a36005805473ffffffffffffffffffffffffffffffffffffffff1916600160a060020a03929092169190911790555600ddf252ad1be2c89b69c2b068fc378daa952ba7f163c4a11628f55a4df523b3efa165627a7a7230582001f3b8ffebfc578122646c111958154798ff2fde3bc58f72b8cbe911bdfe9e600029a165627a7a7230582006cc004c2060a012a9bb68ab656a4e7e3abf6ac3484b07c823178d72e8b9c5330029",
  "source": "pragma solidity ^0.4.24;\n\nimport \"./W12Lister.sol\";\nimport \"./crowdsale/factories/IW12CrowdsaleFactory.sol\";\nimport \"./wallets/IWallets.sol\";\nimport \"./token/exchanger/ITokenExchanger.sol\";\n\ncontract W12ListerStub is W12Lister {\n\n    /**\n    * @dev Allows for any account besides the owner.\n    */\n    modifier onlyOwner() {\n        _;\n    }\n\n    modifier onlyRole(string _role) {\n        _;\n    }\n\n    constructor (\n        uint version,\n        IWallets _wallets,\n        IW12CrowdsaleFactory _factory,\n        ITokenExchanger _exchanger\n    )\n        W12Lister(\n            version,\n            _wallets,\n            _factory,\n            _exchanger\n        ) public\n    {}\n}\n",
  "sourcePath": "/home/circleci/code/contracts/W12ListerStub.sol",
  "compiler": {
    "name": "solc",
    "version": "0.4.24+commit.e67f0147.Emscripten.clang"
  },
  "schemaVersion": "2.0.1",
  "updatedAt": "2018-10-27T04:56:22.022Z"
}