{
  "contractName": "W12Lister",
  "abi": [
    {
      "constant": false,
      "inputs": [
        {
          "name": "recipient",
          "type": "address"
        }
      ],
      "name": "transferPrimary",
      "outputs": [],
      "payable": false,
      "stateMutability": "nonpayable",
      "type": "function"
    },
    {
      "constant": true,
      "inputs": [
        {
          "name": "account",
          "type": "address"
        }
      ],
      "name": "isAdmin",
      "outputs": [
        {
          "name": "",
          "type": "bool"
        }
      ],
      "payable": false,
      "stateMutability": "view",
      "type": "function"
    },
    {
      "constant": true,
      "inputs": [],
      "name": "exchanger",
      "outputs": [
        {
          "name": "",
          "type": "address"
        }
      ],
      "payable": false,
      "stateMutability": "view",
      "type": "function"
    },
    {
      "constant": true,
      "inputs": [],
      "name": "version",
      "outputs": [
        {
          "name": "",
          "type": "uint256"
        }
      ],
      "payable": false,
      "stateMutability": "view",
      "type": "function"
    },
    {
      "constant": false,
      "inputs": [],
      "name": "renounceAdmin",
      "outputs": [],
      "payable": false,
      "stateMutability": "nonpayable",
      "type": "function"
    },
    {
      "constant": true,
      "inputs": [],
      "name": "factory",
      "outputs": [
        {
          "name": "",
          "type": "address"
        }
      ],
      "payable": false,
      "stateMutability": "view",
      "type": "function"
    },
    {
      "constant": true,
      "inputs": [],
      "name": "primary",
      "outputs": [
        {
          "name": "",
          "type": "address"
        }
      ],
      "payable": false,
      "stateMutability": "view",
      "type": "function"
    },
    {
      "constant": true,
      "inputs": [],
      "name": "wallets",
      "outputs": [
        {
          "name": "",
          "type": "address"
        }
      ],
      "payable": false,
      "stateMutability": "view",
      "type": "function"
    },
    {
      "constant": true,
      "inputs": [],
      "name": "lister_factory",
      "outputs": [
        {
          "name": "",
          "type": "address"
        }
      ],
      "payable": false,
      "stateMutability": "view",
      "type": "function"
    },
    {
      "inputs": [
        {
          "name": "version",
          "type": "uint256"
        },
        {
          "name": "_wallets",
          "type": "address"
        },
        {
          "name": "_factory",
          "type": "address"
        },
        {
          "name": "_exchanger",
          "type": "address"
        },
        {
          "name": "_lister_factory",
          "type": "address"
        }
      ],
      "payable": false,
      "stateMutability": "nonpayable",
      "type": "constructor"
    },
    {
      "anonymous": false,
      "inputs": [
        {
          "indexed": true,
          "name": "tokenAddress",
          "type": "address"
        },
        {
          "indexed": true,
          "name": "tokenOwner",
          "type": "address"
        }
      ],
      "name": "OwnerWhitelisted",
      "type": "event"
    },
    {
      "anonymous": false,
      "inputs": [
        {
          "indexed": true,
          "name": "token",
          "type": "address"
        },
        {
          "indexed": true,
          "name": "sender",
          "type": "address"
        },
        {
          "indexed": false,
          "name": "owners",
          "type": "address[]"
        }
      ],
      "name": "TokenWhitelisted",
      "type": "event"
    },
    {
      "anonymous": false,
      "inputs": [
        {
          "indexed": true,
          "name": "token",
          "type": "address"
        },
        {
          "indexed": true,
          "name": "sender",
          "type": "address"
        },
        {
          "indexed": false,
          "name": "crowdsale",
          "type": "address"
        },
        {
          "indexed": false,
          "name": "amountForSale",
          "type": "uint256"
        }
      ],
      "name": "CrowdsaleInitialized",
      "type": "event"
    },
    {
      "anonymous": false,
      "inputs": [
        {
          "indexed": true,
          "name": "token",
          "type": "address"
        },
        {
          "indexed": true,
          "name": "sender",
          "type": "address"
        },
        {
          "indexed": false,
          "name": "crowdsale",
          "type": "address"
        },
        {
          "indexed": false,
          "name": "amount",
          "type": "uint256"
        }
      ],
      "name": "CrowdsaleTokenMinted",
      "type": "event"
    },
    {
      "anonymous": false,
      "inputs": [
        {
          "indexed": false,
          "name": "recipient",
          "type": "address"
        }
      ],
      "name": "PrimaryTransferred",
      "type": "event"
    },
    {
      "anonymous": false,
      "inputs": [
        {
          "indexed": true,
          "name": "account",
          "type": "address"
        }
      ],
      "name": "AdminAdded",
      "type": "event"
    },
    {
      "anonymous": false,
      "inputs": [
        {
          "indexed": true,
          "name": "account",
          "type": "address"
        }
      ],
      "name": "AdminRemoved",
      "type": "event"
    },
    {
      "constant": false,
      "inputs": [
        {
          "name": "_account",
          "type": "address"
        }
      ],
      "name": "addAdmin",
      "outputs": [],
      "payable": false,
      "stateMutability": "nonpayable",
      "type": "function"
    },
    {
      "constant": false,
      "inputs": [
        {
          "name": "_account",
          "type": "address"
        }
      ],
      "name": "removeAdmin",
      "outputs": [],
      "payable": false,
      "stateMutability": "nonpayable",
      "type": "function"
    },
    {
      "constant": false,
      "inputs": [
        {
          "name": "token",
          "type": "address"
        },
        {
          "name": "name",
          "type": "string"
        },
        {
          "name": "symbol",
          "type": "string"
        },
        {
          "name": "decimals",
          "type": "uint8"
        },
        {
          "name": "owners",
          "type": "address[]"
        },
        {
          "name": "commissions",
          "type": "uint256[4]"
        },
        {
          "name": "paymentMethods",
          "type": "bytes32[]"
        },
        {
          "name": "paymentMethodsPurchaseFee",
          "type": "uint256[]"
        }
      ],
      "name": "whitelistToken",
      "outputs": [],
      "payable": false,
      "stateMutability": "nonpayable",
      "type": "function"
    },
    {
      "constant": false,
      "inputs": [
        {
          "name": "token",
          "type": "address"
        },
        {
          "name": "crowdsale",
          "type": "address"
        },
        {
          "name": "amount",
          "type": "uint256"
        }
      ],
      "name": "placeToken",
      "outputs": [],
      "payable": false,
      "stateMutability": "nonpayable",
      "type": "function"
    },
    {
      "constant": false,
      "inputs": [
        {
          "name": "token",
          "type": "address"
        },
        {
          "name": "amountForSale",
          "type": "uint256"
        },
        {
          "name": "price",
          "type": "uint256"
        }
      ],
      "name": "initCrowdsale",
      "outputs": [],
      "payable": false,
      "stateMutability": "nonpayable",
      "type": "function"
    },
    {
      "constant": false,
      "inputs": [
        {
          "name": "token",
          "type": "address"
        },
        {
          "name": "crowdsale",
          "type": "address"
        },
        {
          "name": "amountForSale",
          "type": "uint256"
        }
      ],
      "name": "addTokensToCrowdsale",
      "outputs": [],
      "payable": false,
      "stateMutability": "nonpayable",
      "type": "function"
    },
    {
      "constant": true,
      "inputs": [
        {
          "name": "token",
          "type": "address"
        }
      ],
      "name": "getTokenOwners",
      "outputs": [
        {
          "name": "",
          "type": "address[]"
        }
      ],
      "payable": false,
      "stateMutability": "view",
      "type": "function"
    },
    {
      "constant": true,
      "inputs": [
        {
          "name": "token",
          "type": "address"
        },
        {
          "name": "crowdsale",
          "type": "address"
        }
      ],
      "name": "getCrowdsaleOwners",
      "outputs": [
        {
          "name": "",
          "type": "address[]"
        }
      ],
      "payable": false,
      "stateMutability": "view",
      "type": "function"
    },
    {
      "constant": true,
      "inputs": [],
      "name": "getExchanger",
      "outputs": [
        {
          "name": "",
          "type": "address"
        }
      ],
      "payable": false,
      "stateMutability": "view",
      "type": "function"
    },
    {
      "constant": true,
      "inputs": [
        {
          "name": "token",
          "type": "address"
        }
      ],
      "name": "getToken",
      "outputs": [
        {
          "name": "name",
          "type": "string"
        },
        {
          "name": "symbol",
          "type": "string"
        },
        {
          "name": "decimals",
          "type": "uint8"
        },
        {
          "name": "owners",
          "type": "address[]"
        },
        {
          "name": "commissions",
          "type": "uint256[4]"
        },
        {
          "name": "paymentMethods",
          "type": "bytes32[]"
        },
        {
          "name": "paymentMethodsPurchaseFee",
          "type": "uint256[]"
        }
      ],
      "payable": false,
      "stateMutability": "view",
      "type": "function"
    },
    {
      "constant": true,
      "inputs": [],
      "name": "getTokens",
      "outputs": [
        {
          "name": "",
          "type": "address[]"
        }
      ],
      "payable": false,
      "stateMutability": "view",
      "type": "function"
    },
    {
      "constant": true,
      "inputs": [
        {
          "name": "token",
          "type": "address"
        }
      ],
      "name": "isTokenWhitelisted",
      "outputs": [
        {
          "name": "",
          "type": "bool"
        }
      ],
      "payable": false,
      "stateMutability": "view",
      "type": "function"
    },
    {
      "constant": true,
      "inputs": [
        {
          "name": "token",
          "type": "address"
        },
        {
          "name": "owner",
          "type": "address"
        }
      ],
      "name": "hasTokenOwner",
      "outputs": [
        {
          "name": "",
          "type": "bool"
        }
      ],
      "payable": false,
      "stateMutability": "view",
      "type": "function"
    },
    {
      "constant": true,
      "inputs": [
        {
          "name": "token",
          "type": "address"
        }
      ],
      "name": "getCrowdsales",
      "outputs": [
        {
          "name": "",
          "type": "address[]"
        }
      ],
      "payable": false,
      "stateMutability": "view",
      "type": "function"
    },
    {
      "constant": true,
      "inputs": [
        {
          "name": "token",
          "type": "address"
        },
        {
          "name": "crowdsale",
          "type": "address"
        }
      ],
      "name": "hasCrowdsaleWithAddress",
      "outputs": [
        {
          "name": "",
          "type": "bool"
        }
      ],
      "payable": false,
      "stateMutability": "view",
      "type": "function"
    },
    {
      "constant": true,
      "inputs": [
        {
          "name": "token",
          "type": "address"
        }
      ],
      "name": "hasNotInitialisedCrowdsale",
      "outputs": [
        {
          "name": "",
          "type": "bool"
        }
      ],
      "payable": false,
      "stateMutability": "view",
      "type": "function"
    },
    {
      "constant": true,
      "inputs": [
        {
          "name": "token",
          "type": "address"
        },
        {
          "name": "crowdsale",
          "type": "address"
        }
      ],
      "name": "getCrowdsale",
      "outputs": [
        {
          "name": "commissions",
          "type": "uint256[4]"
        },
        {
          "name": "amounts",
          "type": "uint256[2]"
        },
        {
          "name": "owners",
          "type": "address[]"
        },
        {
          "name": "paymentMethods",
          "type": "bytes32[]"
        },
        {
          "name": "paymentMethodsPurchaseFee",
          "type": "uint256[]"
        }
      ],
      "payable": false,
      "stateMutability": "view",
      "type": "function"
    },
    {
      "constant": true,
      "inputs": [],
      "name": "serviceWallet",
      "outputs": [
        {
          "name": "",
          "type": "address"
        }
      ],
      "payable": false,
      "stateMutability": "view",
      "type": "function"
    }
  ],
  "bytecode": "0x60806040523480156200001157600080fd5b5060405160a080620062ad833981018060405281019080805190602001909291908051906020019092919080519060200190929190805190602001909291908051906020019092919050505084620000783362000314640100000000026401000000009004565b806001819055505033600260006101000a81548173ffffffffffffffffffffffffffffffffffffffff021916908373ffffffffffffffffffffffffffffffffffffffff1602179055507f4101e71e974f68df5e9730cc223280b41654676bbb052cdcc735c3337e64d2d9600260009054906101000a900473ffffffffffffffffffffffffffffffffffffffff16604051808273ffffffffffffffffffffffffffffffffffffffff1673ffffffffffffffffffffffffffffffffffffffff16815260200191505060405180910390a16001600381905550600073ffffffffffffffffffffffffffffffffffffffff168473ffffffffffffffffffffffffffffffffffffffff16141515156200018b57600080fd5b600073ffffffffffffffffffffffffffffffffffffffff168373ffffffffffffffffffffffffffffffffffffffff1614151515620001c857600080fd5b600073ffffffffffffffffffffffffffffffffffffffff168273ffffffffffffffffffffffffffffffffffffffff16141515156200020557600080fd5b81600460006101000a81548173ffffffffffffffffffffffffffffffffffffffff021916908373ffffffffffffffffffffffffffffffffffffffff16021790555083600660006101000a81548173ffffffffffffffffffffffffffffffffffffffff021916908373ffffffffffffffffffffffffffffffffffffffff16021790555082600560006101000a81548173ffffffffffffffffffffffffffffffffffffffff021916908373ffffffffffffffffffffffffffffffffffffffff16021790555080600d60006101000a81548173ffffffffffffffffffffffffffffffffffffffff021916908373ffffffffffffffffffffffffffffffffffffffff1602179055505050505050620004d6565b620003388160006200037e6401000000000262004fdf179091906401000000009004565b8073ffffffffffffffffffffffffffffffffffffffff167f44d6d25963f097ad14f29f06854a01f575648a1ef82f30e562ccd3889717e33960405160405180910390a250565b600073ffffffffffffffffffffffffffffffffffffffff168173ffffffffffffffffffffffffffffffffffffffff1614151515620003bb57600080fd5b620003d6828262000441640100000000026401000000009004565b151515620003e357600080fd5b60018260000160008373ffffffffffffffffffffffffffffffffffffffff1673ffffffffffffffffffffffffffffffffffffffff16815260200190815260200160002060006101000a81548160ff0219169083151502179055505050565b60008073ffffffffffffffffffffffffffffffffffffffff168273ffffffffffffffffffffffffffffffffffffffff16141515156200047f57600080fd5b8260000160008373ffffffffffffffffffffffffffffffffffffffff1673ffffffffffffffffffffffffffffffffffffffff16815260200190815260200160002060009054906101000a900460ff16905092915050565b615dc780620004e66000396000f30060806040526004361061015f576000357c0100000000000000000000000000000000000000000000000000000000900463ffffffff16806309363c99146101645780631785f53c146101bb5780631cd82e60146101fe57806320f59dc71461029657806321689c1a146102f15780632348238c1461035e57806324d7806c146103a1578063460f0b6b146103fc5780634b1acf39146104b45780634d12fca41461050b57806354fd4d50146105625780635641f3c31461058d57806359770438146105e4578063704802751461082057806375dd8cfc146108635780637bcb1499146108d0578063849072b9146109a257806386ad639814610a3a5780638bad0c0a14610be0578063aa6ca80814610bf7578063b5af090f14610c63578063c45a015514610cbe578063c6dbdf6114610d15578063c96a68c114610d6c578063d2f4a50a14610de7578063e079d0c914610e3e578063e45725d814610e95575b600080fd5b34801561017057600080fd5b506101b9600480360381019080803573ffffffffffffffffffffffffffffffffffffffff1690602001909291908035906020019092919080359060200190929190505050610f10565b005b3480156101c757600080fd5b506101fc600480360381019080803573ffffffffffffffffffffffffffffffffffffffff169060200190929190505050611909565b005b34801561020a57600080fd5b5061023f600480360381019080803573ffffffffffffffffffffffffffffffffffffffff169060200190929190505050611971565b6040518080602001828103825283818151815260200191508051906020019060200280838360005b83811015610282578082015181840152602081019050610267565b505050509050019250505060405180910390f35b3480156102a257600080fd5b506102d7600480360381019080803573ffffffffffffffffffffffffffffffffffffffff169060200190929190505050611a6d565b604051808215151515815260200191505060405180910390f35b3480156102fd57600080fd5b5061035c600480360381019080803573ffffffffffffffffffffffffffffffffffffffff169060200190929190803573ffffffffffffffffffffffffffffffffffffffff16906020019092919080359060200190929190505050611a8a565b005b34801561036a57600080fd5b5061039f600480360381019080803573ffffffffffffffffffffffffffffffffffffffff169060200190929190505050611b43565b005b3480156103ad57600080fd5b506103e2600480360381019080803573ffffffffffffffffffffffffffffffffffffffff169060200190929190505050611ca4565b604051808215151515815260200191505060405180910390f35b34801561040857600080fd5b5061045d600480360381019080803573ffffffffffffffffffffffffffffffffffffffff169060200190929190803573ffffffffffffffffffffffffffffffffffffffff169060200190929190505050611cc1565b6040518080602001828103825283818151815260200191508051906020019060200280838360005b838110156104a0578082015181840152602081019050610485565b505050509050019250505060405180910390f35b3480156104c057600080fd5b506104c9611d69565b604051808273ffffffffffffffffffffffffffffffffffffffff1673ffffffffffffffffffffffffffffffffffffffff16815260200191505060405180910390f35b34801561051757600080fd5b50610520611d93565b604051808273ffffffffffffffffffffffffffffffffffffffff1673ffffffffffffffffffffffffffffffffffffffff16815260200191505060405180910390f35b34801561056e57600080fd5b50610577611db9565b6040518082815260200191505060405180910390f35b34801561059957600080fd5b506105a2611dbf565b604051808273ffffffffffffffffffffffffffffffffffffffff1673ffffffffffffffffffffffffffffffffffffffff16815260200191505060405180910390f35b3480156105f057600080fd5b50610625600480360381019080803573ffffffffffffffffffffffffffffffffffffffff169060200190929190505050611e99565b6040518080602001806020018860ff1660ff1681526020018060200187600460200280838360005b8381101561066857808201518184015260208101905061064d565b50505050905001806020018060200186810386528d818151815260200191508051906020019080838360005b838110156106af578082015181840152602081019050610694565b50505050905090810190601f1680156106dc5780820380516001836020036101000a031916815260200191505b5086810385528c818151815260200191508051906020019080838360005b838110156107155780820151818401526020810190506106fa565b50505050905090810190601f1680156107425780820380516001836020036101000a031916815260200191505b5086810384528a818151815260200191508051906020019060200280838360005b8381101561077e578082015181840152602081019050610763565b50505050905001868103835288818151815260200191508051906020019060200280838360005b838110156107c05780820151818401526020810190506107a5565b50505050905001868103825287818151815260200191508051906020019060200280838360005b838110156108025780820151818401526020810190506107e7565b505050509050019c5050505050505050505050505060405180910390f35b34801561082c57600080fd5b50610861600480360381019080803573ffffffffffffffffffffffffffffffffffffffff169060200190929190505050612292565b005b34801561086f57600080fd5b506108ce600480360381019080803573ffffffffffffffffffffffffffffffffffffffff169060200190929190803573ffffffffffffffffffffffffffffffffffffffff169060200190929190803590602001909291905050506122fa565b005b3480156108dc57600080fd5b506109a0600480360381019080803573ffffffffffffffffffffffffffffffffffffffff169060200190929190803590602001908201803590602001919091929391929390803590602001908201803590602001919091929391929390803560ff16906020019092919080359060200190820180359060200191909192939192939080608001909192919290803590602001908201803590602001919091929391929390803590602001908201803590602001919091929391929390505050612b90565b005b3480156109ae57600080fd5b506109e3600480360381019080803573ffffffffffffffffffffffffffffffffffffffff169060200190929190505050612d6e565b6040518080602001828103825283818151815260200191508051906020019060200280838360005b83811015610a26578082015181840152602081019050610a0b565b505050509050019250505060405180910390f35b348015610a4657600080fd5b50610a9b600480360381019080803573ffffffffffffffffffffffffffffffffffffffff169060200190929190803573ffffffffffffffffffffffffffffffffffffffff169060200190929190505050612e13565b6040518086600460200280838360005b83811015610ac6578082015181840152602081019050610aab565b5050505090500185600260200280838360005b83811015610af4578082015181840152602081019050610ad9565b50505050905001806020018060200180602001848103845287818151815260200191508051906020019060200280838360005b83811015610b42578082015181840152602081019050610b27565b50505050905001848103835286818151815260200191508051906020019060200280838360005b83811015610b84578082015181840152602081019050610b69565b50505050905001848103825285818151815260200191508051906020019060200280838360005b83811015610bc6578082015181840152602081019050610bab565b505050509050019850505050505050505060405180910390f35b348015610bec57600080fd5b50610bf56130f7565b005b348015610c0357600080fd5b50610c0c613102565b6040518080602001828103825283818151815260200191508051906020019060200280838360005b83811015610c4f578082015181840152602081019050610c34565b505050509050019250505060405180910390f35b348015610c6f57600080fd5b50610ca4600480360381019080803573ffffffffffffffffffffffffffffffffffffffff1690602001909291905050506131df565b604051808215151515815260200191505060405180910390f35b348015610cca57600080fd5b50610cd36131fc565b604051808273ffffffffffffffffffffffffffffffffffffffff1673ffffffffffffffffffffffffffffffffffffffff16815260200191505060405180910390f35b348015610d2157600080fd5b50610d2a613222565b604051808273ffffffffffffffffffffffffffffffffffffffff1673ffffffffffffffffffffffffffffffffffffffff16815260200191505060405180910390f35b348015610d7857600080fd5b50610dcd600480360381019080803573ffffffffffffffffffffffffffffffffffffffff169060200190929190803573ffffffffffffffffffffffffffffffffffffffff16906020019092919050505061324c565b604051808215151515815260200191505060405180910390f35b348015610df357600080fd5b50610dfc61326c565b604051808273ffffffffffffffffffffffffffffffffffffffff1673ffffffffffffffffffffffffffffffffffffffff16815260200191505060405180910390f35b348015610e4a57600080fd5b50610e53613292565b604051808273ffffffffffffffffffffffffffffffffffffffff1673ffffffffffffffffffffffffffffffffffffffff16815260200191505060405180910390f35b348015610ea157600080fd5b50610ef6600480360381019080803573ffffffffffffffffffffffffffffffffffffffff169060200190929190803573ffffffffffffffffffffffffffffffffffffffff1690602001909291905050506132b8565b604051808215151515815260200191505060405180910390f35b60008060008060016003600082825401925050819055506003549050600073ffffffffffffffffffffffffffffffffffffffff16610f4c611dbf565b73ffffffffffffffffffffffffffffffffffffffff1614151515610f6f57600080fd5b610f838760076132d890919063ffffffff16565b1515610f8e57600080fd5b610fa4873360076133839092919063ffffffff16565b1515610faf57600080fd5b610fc38760076133e690919063ffffffff16565b1515610fce57600080fd5b610ff886610fe689600761349190919063ffffffff16565b600601546134a790919063ffffffff16565b61100c88600761349190919063ffffffff16565b600501541015151561101d57600080fd5b6110318760076134c890919063ffffffff16565b9350600460009054906101000a900473ffffffffffffffffffffffffffffffffffffffff1673ffffffffffffffffffffffffffffffffffffffff1663151f37348560080160009054906101000a900473ffffffffffffffffffffffffffffffffffffffff166040518263ffffffff167c0100000000000000000000000000000000000000000000000000000000028152600401808273ffffffffffffffffffffffffffffffffffffffff1673ffffffffffffffffffffffffffffffffffffffff168152602001915050602060405180830381600087803b15801561111457600080fd5b505af1158015611128573d6000803e3d6000fd5b505050506040513d602081101561113e57600080fd5b81019080805190602001909291905050509250600560009054906101000a900473ffffffffffffffffffffffffffffffffffffffff1673ffffffffffffffffffffffffffffffffffffffff1663868b16d98560080160009054906101000a900473ffffffffffffffffffffffffffffffffffffffff1685886111be611dbf565b89600501548a600601548b60070154600460009054906101000a900473ffffffffffffffffffffffffffffffffffffffff168d6003016040518a63ffffffff167c0100000000000000000000000000000000000000000000000000000000028152600401808a73ffffffffffffffffffffffffffffffffffffffff1673ffffffffffffffffffffffffffffffffffffffff1681526020018973ffffffffffffffffffffffffffffffffffffffff1673ffffffffffffffffffffffffffffffffffffffff1681526020018881526020018773ffffffffffffffffffffffffffffffffffffffff1673ffffffffffffffffffffffffffffffffffffffff1681526020018681526020018581526020018481526020018373ffffffffffffffffffffffffffffffffffffffff1673ffffffffffffffffffffffffffffffffffffffff16815260200180602001828103825283818154815260200191508054801561137a57602002820191906000526020600020905b8160009054906101000a900473ffffffffffffffffffffffffffffffffffffffff1673ffffffffffffffffffffffffffffffffffffffff1681526020019060010190808311611330575b50509a5050505050505050505050602060405180830381600087803b1580156113a257600080fd5b505af11580156113b6573d6000803e3d6000fd5b505050506040513d60208110156113cc57600080fd5b810190808051906020019092919050505091508173ffffffffffffffffffffffffffffffffffffffff166370480275336040518263ffffffff167c0100000000000000000000000000000000000000000000000000000000028152600401808273ffffffffffffffffffffffffffffffffffffffff1673ffffffffffffffffffffffffffffffffffffffff168152602001915050600060405180830381600087803b15801561147a57600080fd5b505af115801561148e573d6000803e3d6000fd5b505050508173ffffffffffffffffffffffffffffffffffffffff16638edd6eb66040518163ffffffff167c0100000000000000000000000000000000000000000000000000000000028152600401602060405180830381600087803b1580156114f657600080fd5b505af115801561150a573d6000803e3d6000fd5b505050506040513d602081101561152057600080fd5b810190808051906020019092919050505073ffffffffffffffffffffffffffffffffffffffff166370480275336040518263ffffffff167c0100000000000000000000000000000000000000000000000000000000028152600401808273ffffffffffffffffffffffffffffffffffffffff1673ffffffffffffffffffffffffffffffffffffffff168152602001915050600060405180830381600087803b1580156115cb57600080fd5b505af11580156115df573d6000803e3d6000fd5b505050508273ffffffffffffffffffffffffffffffffffffffff166370480275836040518263ffffffff167c0100000000000000000000000000000000000000000000000000000000028152600401808273ffffffffffffffffffffffffffffffffffffffff1673ffffffffffffffffffffffffffffffffffffffff168152602001915050600060405180830381600087803b15801561167e57600080fd5b505af1158015611692573d6000803e3d6000fd5b505050506116ac878360076134fa9092919063ffffffff16565b6116b682856138b0565b600460009054906101000a900473ffffffffffffffffffffffffffffffffffffffff1673ffffffffffffffffffffffffffffffffffffffff1663e1f21c678560080160009054906101000a900473ffffffffffffffffffffffffffffffffffffffff16846117308b8760076139b19092919063ffffffff16565b600501546040518463ffffffff167c0100000000000000000000000000000000000000000000000000000000028152600401808473ffffffffffffffffffffffffffffffffffffffff1673ffffffffffffffffffffffffffffffffffffffff1681526020018373ffffffffffffffffffffffffffffffffffffffff1673ffffffffffffffffffffffffffffffffffffffff1681526020018281526020019350505050602060405180830381600087803b1580156117ec57600080fd5b505af1158015611800573d6000803e3d6000fd5b505050506040513d602081101561181657600080fd5b810190808051906020019092919050505050611833878388611a8a565b3373ffffffffffffffffffffffffffffffffffffffff168460080160009054906101000a900473ffffffffffffffffffffffffffffffffffffffff1673ffffffffffffffffffffffffffffffffffffffff167fc9cecf9fabde631d7582b55fdaf2a8800e68f0063771104348deff501b7c28278489604051808373ffffffffffffffffffffffffffffffffffffffff1673ffffffffffffffffffffffffffffffffffffffff1681526020018281526020019250505060405180910390a36003548114151561190057600080fd5b50505050505050565b600260009054906101000a900473ffffffffffffffffffffffffffffffffffffffff1673ffffffffffffffffffffffffffffffffffffffff163373ffffffffffffffffffffffffffffffffffffffff1614151561196557600080fd5b61196e81613aac565b50565b606080600061198a846007613b0690919063ffffffff16565b516040519080825280602002602001820160405280156119b95781602001602082028038833980820191505090505b509150600090505b6119d5846007613b0690919063ffffffff16565b51811015611a63576119f1846007613b0690919063ffffffff16565b818151811015156119fe57fe5b90602001906020020151600001518282815181101515611a1a57fe5b9060200190602002019073ffffffffffffffffffffffffffffffffffffffff16908173ffffffffffffffffffffffffffffffffffffffff168152505080806001019150506119c1565b8192505050919050565b6000611a838260076133e690919063ffffffff16565b9050919050565b611a9e8360076132d890919063ffffffff16565b1515611aa957600080fd5b611abf833360076133839092919063ffffffff16565b1515611aca57600080fd5b611ae083836007613d929092919063ffffffff16565b1515611aeb57600080fd5b611b1781611b05858560076139b19092919063ffffffff16565b600601546134a790919063ffffffff16565b611b2d848460076139b19092919063ffffffff16565b6005015410151515611b3e57600080fd5b505050565b600260009054906101000a900473ffffffffffffffffffffffffffffffffffffffff1673ffffffffffffffffffffffffffffffffffffffff163373ffffffffffffffffffffffffffffffffffffffff16141515611b9f57600080fd5b600073ffffffffffffffffffffffffffffffffffffffff168173ffffffffffffffffffffffffffffffffffffffff1614151515611bdb57600080fd5b80600260006101000a81548173ffffffffffffffffffffffffffffffffffffffff021916908373ffffffffffffffffffffffffffffffffffffffff1602179055507f4101e71e974f68df5e9730cc223280b41654676bbb052cdcc735c3337e64d2d9600260009054906101000a900473ffffffffffffffffffffffffffffffffffffffff16604051808273ffffffffffffffffffffffffffffffffffffffff1673ffffffffffffffffffffffffffffffffffffffff16815260200191505060405180910390a150565b6000611cba826000613e3e90919063ffffffff16565b9050919050565b6060611cd9838360076139b19092919063ffffffff16565b600701805480602002602001604051908101604052809291908181526020018280548015611d5c57602002820191906000526020600020905b8160009054906101000a900473ffffffffffffffffffffffffffffffffffffffff1673ffffffffffffffffffffffffffffffffffffffff1681526020019060010190808311611d12575b5050505050905092915050565b6000600460009054906101000a900473ffffffffffffffffffffffffffffffffffffffff16905090565b600460009054906101000a900473ffffffffffffffffffffffffffffffffffffffff1681565b60015481565b6000600660009054906101000a900473ffffffffffffffffffffffffffffffffffffffff1673ffffffffffffffffffffffffffffffffffffffff1663e3ff76e460016040518263ffffffff167c0100000000000000000000000000000000000000000000000000000000028152600401808260ff1660ff168152602001915050602060405180830381600087803b158015611e5957600080fd5b505af1158015611e6d573d6000803e3d6000fd5b505050506040513d6020811015611e8357600080fd5b8101908080519060200190929190505050905090565b60608060006060611ea86158dd565b606080611ebf8860076132d890919063ffffffff16565b1515611eca57600080fd5b611ede8860076134c890919063ffffffff16565b6000018054600181600116156101000203166002900480601f016020809104026020016040519081016040528092919081815260200182805460018160011615610100020316600290048015611f755780601f10611f4a57610100808354040283529160200191611f75565b820191906000526020600020905b815481529060010190602001808311611f5857829003601f168201915b50505050509650611f908860076134c890919063ffffffff16565b6001018054600181600116156101000203166002900480601f0160208091040260200160405190810160405280929190818152602001828054600181600116156101000203166002900480156120275780601f10611ffc57610100808354040283529160200191612027565b820191906000526020600020905b81548152906001019060200180831161200a57829003601f168201915b505050505095506120428860076134c890919063ffffffff16565b60020160009054906101000a900460ff1694506120698860076134c890919063ffffffff16565b6003018054806020026020016040519081016040528092919081815260200182805480156120ec57602002820191906000526020600020905b8160009054906101000a900473ffffffffffffffffffffffffffffffffffffffff1673ffffffffffffffffffffffffffffffffffffffff16815260200190600101908083116120a2575b505050505093506121078860076134c890919063ffffffff16565b6004015483600060048110151561211a57fe5b6020020181815250506121378860076134c890919063ffffffff16565b6005015483600160048110151561214a57fe5b6020020181815250506121678860076134c890919063ffffffff16565b6006015483600260048110151561217a57fe5b6020020181815250506121978860076134c890919063ffffffff16565b600701548360036004811015156121aa57fe5b6020020181815250506121c78860076134c890919063ffffffff16565b60090180548060200260200160405190810160405280929190818152602001828054801561221857602002820191906000526020600020905b81546000191681526020019060010190808311612200575b505050505091506122338860076134c890919063ffffffff16565b600a0180548060200260200160405190810160405280929190818152602001828054801561228057602002820191906000526020600020905b81548152602001906001019080831161226c575b50505050509050919395979092949650565b600260009054906101000a900473ffffffffffffffffffffffffffffffffffffffff1673ffffffffffffffffffffffffffffffffffffffff163373ffffffffffffffffffffffffffffffffffffffff161415156122ee57600080fd5b6122f781613ed2565b50565b60008060008060006001600360008282540192505081905550600354905061232c8860076132d890919063ffffffff16565b151561233757600080fd5b61234d883360076133839092919063ffffffff16565b151561235857600080fd5b61236e88886007613d929092919063ffffffff16565b151561237957600080fd5b61238d8860076134c890919063ffffffff16565b9450600d60009054906101000a900473ffffffffffffffffffffffffffffffffffffffff1673ffffffffffffffffffffffffffffffffffffffff16633fb856f6896040518263ffffffff167c0100000000000000000000000000000000000000000000000000000000028152600401808273ffffffffffffffffffffffffffffffffffffffff1673ffffffffffffffffffffffffffffffffffffffff168152602001915050602060405180830381600087803b15801561244c57600080fd5b505af1158015612460573d6000803e3d6000fd5b505050506040513d602081101561247657600080fd5b81019080805190602001909291905050509350858473ffffffffffffffffffffffffffffffffffffffff1663dd62ed3e33306040518363ffffffff167c0100000000000000000000000000000000000000000000000000000000028152600401808373ffffffffffffffffffffffffffffffffffffffff1673ffffffffffffffffffffffffffffffffffffffff1681526020018273ffffffffffffffffffffffffffffffffffffffff1673ffffffffffffffffffffffffffffffffffffffff16815260200192505050602060405180830381600087803b15801561255957600080fd5b505af115801561256d573d6000803e3d6000fd5b505050506040513d602081101561258357600080fd5b8101908080519060200190929190505050101515156125a157600080fd5b8460020160009054906101000a900460ff1660ff168473ffffffffffffffffffffffffffffffffffffffff1663313ce5676040518163ffffffff167c0100000000000000000000000000000000000000000000000000000000028152600401602060405180830381600087803b15801561261a57600080fd5b505af115801561262e573d6000803e3d6000fd5b505050506040513d602081101561264457600080fd5b810190808051906020019092919050505060ff1614151561266457600080fd5b600085600401541161267757600061272c565b8573__Percent_______________________________6342318e3d909187600401546040518363ffffffff167c0100000000000000000000000000000000000000000000000000000000028152600401808381526020018281526020019250505060206040518083038186803b1580156126f057600080fd5b505af4158015612704573d6000803e3d6000fd5b505050506040513d602081101561271a57600080fd5b81019080805190602001909291905050505b92506127418387613f2c90919063ffffffff16565b9150600d60009054906101000a900473ffffffffffffffffffffffffffffffffffffffff1673ffffffffffffffffffffffffffffffffffffffff16632a5cd04187600460009054906101000a900473ffffffffffffffffffffffffffffffffffffffff16856127ae611dbf565b886040518663ffffffff167c0100000000000000000000000000000000000000000000000000000000028152600401808681526020018573ffffffffffffffffffffffffffffffffffffffff1673ffffffffffffffffffffffffffffffffffffffff1681526020018481526020018373ffffffffffffffffffffffffffffffffffffffff1673ffffffffffffffffffffffffffffffffffffffff16815260200182815260200195505050505050600060405180830381600087803b15801561287557600080fd5b505af1158015612889573d6000803e3d6000fd5b505050506128b9826128a78a8a60076139b19092919063ffffffff16565b600501546134a790919063ffffffff16565b6128cf898960076139b19092919063ffffffff16565b60050181905550600d60009054906101000a900473ffffffffffffffffffffffffffffffffffffffff1673ffffffffffffffffffffffffffffffffffffffff166347a3d70e88600460009054906101000a900473ffffffffffffffffffffffffffffffffffffffff1633868a6000018b6001018c60020160009054906101000a900460ff166040518863ffffffff167c0100000000000000000000000000000000000000000000000000000000028152600401808873ffffffffffffffffffffffffffffffffffffffff1673ffffffffffffffffffffffffffffffffffffffff1681526020018773ffffffffffffffffffffffffffffffffffffffff1673ffffffffffffffffffffffffffffffffffffffff1681526020018673ffffffffffffffffffffffffffffffffffffffff1673ffffffffffffffffffffffffffffffffffffffff16815260200185815260200180602001806020018460ff1660ff168152602001838103835286818154600181600116156101000203166002900481526020019150805460018160011615610100020316600290048015612ab45780601f10612a8957610100808354040283529160200191612ab4565b820191906000526020600020905b815481529060010190602001808311612a9757829003601f168201915b5050838103825285818154600181600116156101000203166002900481526020019150805460018160011615610100020316600290048015612b375780601f10612b0c57610100808354040283529160200191612b37565b820191906000526020600020905b815481529060010190602001808311612b1a57829003601f168201915b50509950505050505050505050600060405180830381600087803b158015612b5e57600080fd5b505af1158015612b72573d6000803e3d6000fd5b5050505060035481141515612b8657600080fd5b5050505050505050565b612b9933611ca4565b1515612ba457600080fd5b612cdc8d8d8d8080601f0160208091040260200160405190810160405280939291908181526020018383808284378201915050505050508c8c8080601f0160208091040260200160405190810160405280939291908181526020018383808284378201915050505050508b8b8b808060200260200160405190810160405280939291908181526020018383602002808284378201915050505050508a600480602002604051908101604052809291908260046020028082843782019150505050508a8a808060200260200160405190810160405280939291908181526020018383602002808284378201915050505050508989808060200260200160405190810160405280939291908181526020018383602002808284378201915050505050506007613f4d9098979695949392919063ffffffff16565b503373ffffffffffffffffffffffffffffffffffffffff168d73ffffffffffffffffffffffffffffffffffffffff167fa4917a011b74f5b834db606e372973c8201acae06d70a133197b7dfe85b514238989604051808060200182810382528484828181526020019250602002808284378201915050935050505060405180910390a350505050505050505050505050565b6060612d848260076134c890919063ffffffff16565b600301805480602002602001604051908101604052809291908181526020018280548015612e0757602002820191906000526020600020905b8160009054906101000a900473ffffffffffffffffffffffffffffffffffffffff1673ffffffffffffffffffffffffffffffffffffffff1681526020019060010190808311612dbd575b50505050509050919050565b612e1b6158dd565b612e23615900565b6060806060612e3e87876007613d929092919063ffffffff16565b1515612e4957600080fd5b612e5f878760076139b19092919063ffffffff16565b60010154856000600481101515612e7257fe5b602002018181525050612e91878760076139b19092919063ffffffff16565b60020154856001600481101515612ea457fe5b602002018181525050612ec3878760076139b19092919063ffffffff16565b60030154856002600481101515612ed657fe5b602002018181525050612ef5878760076139b19092919063ffffffff16565b60040154856003600481101515612f0857fe5b602002018181525050612f27878760076139b19092919063ffffffff16565b60050154846000600281101515612f3a57fe5b602002018181525050612f59878760076139b19092919063ffffffff16565b60060154846001600281101515612f6c57fe5b602002018181525050612f8b878760076139b19092919063ffffffff16565b60070180548060200260200160405190810160405280929190818152602001828054801561300e57602002820191906000526020600020905b8160009054906101000a900473ffffffffffffffffffffffffffffffffffffffff1673ffffffffffffffffffffffffffffffffffffffff1681526020019060010190808311612fc4575b5050505050925061302b878760076139b19092919063ffffffff16565b60080180548060200260200160405190810160405280929190818152602001828054801561307c57602002820191906000526020600020905b81546000191681526020019060010190808311613064575b50505050509150613099878760076139b19092919063ffffffff16565b6009018054806020026020016040519081016040528092919081815260200182805480156130e657602002820191906000526020600020905b8154815260200190600101908083116130d2575b505050505090509295509295909350565b61310033613aac565b565b60608060006131116007614aa9565b516040519080825280602002602001820160405280156131405781602001602082028038833980820191505090505b509150600090505b6131526007614aa9565b518110156131d7576131646007614aa9565b8181518110151561317157fe5b906020019060200201516101000151828281518110151561318e57fe5b9060200190602002019073ffffffffffffffffffffffffffffffffffffffff16908173ffffffffffffffffffffffffffffffffffffffff16815250508080600101915050613148565b819250505090565b60006131f58260076132d890919063ffffffff16565b9050919050565b600560009054906101000a900473ffffffffffffffffffffffffffffffffffffffff1681565b6000600260009054906101000a900473ffffffffffffffffffffffffffffffffffffffff16905090565b600061326483836007613d929092919063ffffffff16565b905092915050565b600660009054906101000a900473ffffffffffffffffffffffffffffffffffffffff1681565b600d60009054906101000a900473ffffffffffffffffffffffffffffffffffffffff1681565b60006132d0838360076133839092919063ffffffff16565b905092915050565b60008260010160008373ffffffffffffffffffffffffffffffffffffffff1673ffffffffffffffffffffffffffffffffffffffff16815260200190815260200160002060008460000160008573ffffffffffffffffffffffffffffffffffffffff1673ffffffffffffffffffffffffffffffffffffffff16815260200190815260200160002054815260200190815260200160002060009054906101000a900460ff16905092915050565b600061338f84846134c8565b600b0160008373ffffffffffffffffffffffffffffffffffffffff1673ffffffffffffffffffffffffffffffffffffffff16815260200190815260200160002060009054906101000a900460ff1690509392505050565b60006133f283836132d8565b15156133fd57600080fd5b8260030160008373ffffffffffffffffffffffffffffffffffffffff1673ffffffffffffffffffffffffffffffffffffffff16815260200190815260200160002060008073ffffffffffffffffffffffffffffffffffffffff1673ffffffffffffffffffffffffffffffffffffffff16815260200190815260200160002060009054906101000a900460ff16905092915050565b600061349f838360006139b1565b905092915050565b60008082840190508381101515156134be57600080fd5b8091505092915050565b6000826005016134d88484614e2f565b8154811015156134e457fe5b90600052602060002090600c0201905092915050565b60008073ffffffffffffffffffffffffffffffffffffffff168273ffffffffffffffffffffffffffffffffffffffff161415151561353757600080fd5b61354184846133e6565b151561354c57600080fd5b613557848484613d92565b15151561356357600080fd5b61356d8484613491565b9050818160000160006101000a81548173ffffffffffffffffffffffffffffffffffffffff021916908373ffffffffffffffffffffffffffffffffffffffff1602179055506135bc84846134c8565b6004015481600101819055506135d284846134c8565b6005015481600201819055506135e884846134c8565b6006015481600301819055506135fe84846134c8565b60070154816004018190555061361484846134c8565b60030181600701908054613629929190615922565b5061363484846134c8565b60090181600801908054613649929190615974565b5061365484846134c8565b600a01816009019080546136699291906159c6565b5060018460030160008573ffffffffffffffffffffffffffffffffffffffff1673ffffffffffffffffffffffffffffffffffffffff16815260200190815260200160002060008473ffffffffffffffffffffffffffffffffffffffff1673ffffffffffffffffffffffffffffffffffffffff16815260200190815260200160002060006101000a81548160ff02191690831515021790555061370d84846000614e90565b8460040160008573ffffffffffffffffffffffffffffffffffffffff1673ffffffffffffffffffffffffffffffffffffffff16815260200190815260200160002060008473ffffffffffffffffffffffffffffffffffffffff1673ffffffffffffffffffffffffffffffffffffffff1681526020019081526020016000208190555060008460030160008573ffffffffffffffffffffffffffffffffffffffff1673ffffffffffffffffffffffffffffffffffffffff16815260200190815260200160002060008073ffffffffffffffffffffffffffffffffffffffff1673ffffffffffffffffffffffffffffffffffffffff16815260200190815260200160002060006101000a81548160ff02191690831515021790555060008460040160008573ffffffffffffffffffffffffffffffffffffffff1673ffffffffffffffffffffffffffffffffffffffff16815260200190815260200160002060008073ffffffffffffffffffffffffffffffffffffffff1673ffffffffffffffffffffffffffffffffffffffff1681526020019081526020016000208190555050505050565b60008090505b81600901805490508110156139ac578273ffffffffffffffffffffffffffffffffffffffff166359e3774983600901838154811015156138f257fe5b9060005260206000200154600185600a018581548110151561391057fe5b90600052602060002001546040518463ffffffff167c0100000000000000000000000000000000000000000000000000000000028152600401808460001916600019168152602001831515151581526020018281526020019350505050600060405180830381600087803b15801561398757600080fd5b505af115801561399b573d6000803e3d6000fd5b5050505080806001019150506138b6565b505050565b60006139be848484613d92565b15156139c957600080fd5b8360020160008473ffffffffffffffffffffffffffffffffffffffff1673ffffffffffffffffffffffffffffffffffffffff1681526020019081526020016000208460040160008573ffffffffffffffffffffffffffffffffffffffff1673ffffffffffffffffffffffffffffffffffffffff16815260200190815260200160002060008473ffffffffffffffffffffffffffffffffffffffff1673ffffffffffffffffffffffffffffffffffffffff16815260200190815260200160002054815481101515613a9557fe5b90600052602060002090600a020190509392505050565b613ac0816000614f3090919063ffffffff16565b8073ffffffffffffffffffffffffffffffffffffffff167fa3b62bc36326052d97ea62d63c3d60308ed4c3ea8ac079dd8499f1e9c4f80c0f60405160405180910390a250565b6060613b1283836132d8565b1515613b1d57600080fd5b8260020160008373ffffffffffffffffffffffffffffffffffffffff1673ffffffffffffffffffffffffffffffffffffffff168152602001908152602001600020805480602002602001604051908101604052809291908181526020016000905b82821015613d8657838290600052602060002090600a020161014060405190810160405290816000820160009054906101000a900473ffffffffffffffffffffffffffffffffffffffff1673ffffffffffffffffffffffffffffffffffffffff1673ffffffffffffffffffffffffffffffffffffffff16815260200160018201548152602001600282015481526020016003820154815260200160048201548152602001600582015481526020016006820154815260200160078201805480602002602001604051908101604052809291908181526020018280548015613cba57602002820191906000526020600020905b8160009054906101000a900473ffffffffffffffffffffffffffffffffffffffff1673ffffffffffffffffffffffffffffffffffffffff1681526020019060010190808311613c70575b5050505050815260200160088201805480602002602001604051908101604052809291908181526020018280548015613d1657602002820191906000526020600020905b81546000191681526020019060010190808311613cfe575b5050505050815260200160098201805480602002602001604051908101604052809291908181526020018280548015613d6e57602002820191906000526020600020905b815481526020019060010190808311613d5a575b50505050508152505081526020019060010190613b7e565b50505050905092915050565b6000613d9e84846132d8565b1515613da957600080fd5b8360030160008473ffffffffffffffffffffffffffffffffffffffff1673ffffffffffffffffffffffffffffffffffffffff16815260200190815260200160002060008373ffffffffffffffffffffffffffffffffffffffff1673ffffffffffffffffffffffffffffffffffffffff16815260200190815260200160002060009054906101000a900460ff1690509392505050565b60008073ffffffffffffffffffffffffffffffffffffffff168273ffffffffffffffffffffffffffffffffffffffff1614151515613e7b57600080fd5b8260000160008373ffffffffffffffffffffffffffffffffffffffff1673ffffffffffffffffffffffffffffffffffffffff16815260200190815260200160002060009054906101000a900460ff16905092915050565b613ee6816000614fdf90919063ffffffff16565b8073ffffffffffffffffffffffffffffffffffffffff167f44d6d25963f097ad14f29f06854a01f575648a1ef82f30e562ccd3889717e33960405160405180910390a250565b600080838311151515613f3e57600080fd5b82840390508091505092915050565b60008060008073ffffffffffffffffffffffffffffffffffffffff168b73ffffffffffffffffffffffffffffffffffffffff1614151515613f8d57600080fd5b60008751111515613f9d57600080fd5b856000600481101515613fac57fe5b602002015173__Percent_______________________________63520b006690916040518263ffffffff167c01000000000000000000000000000000000000000000000000000000000281526004018082815260200191505060206040518083038186803b15801561401d57600080fd5b505af4158015614031573d6000803e3d6000fd5b505050506040513d602081101561404757600080fd5b8101908080519060200190929190505050801561411e5750606486600060048110151561407057fe5b602002015173__Percent_______________________________630fe9114790916040518263ffffffff167c01000000000000000000000000000000000000000000000000000000000281526004018082815260200191505060206040518083038186803b1580156140e157600080fd5b505af41580156140f5573d6000803e3d6000fd5b505050506040513d602081101561410b57600080fd5b8101908080519060200190929190505050105b151561412957600080fd5b85600160048110151561413857fe5b602002015173__Percent_______________________________63520b006690916040518263ffffffff167c01000000000000000000000000000000000000000000000000000000000281526004018082815260200191505060206040518083038186803b1580156141a957600080fd5b505af41580156141bd573d6000803e3d6000fd5b505050506040513d60208110156141d357600080fd5b810190808051906020019092919050505080156142aa575060648660016004811015156141fc57fe5b602002015173__Percent_______________________________630fe9114790916040518263ffffffff167c01000000000000000000000000000000000000000000000000000000000281526004018082815260200191505060206040518083038186803b15801561426d57600080fd5b505af4158015614281573d6000803e3d6000fd5b505050506040513d602081101561429757600080fd5b8101908080519060200190929190505050105b15156142b557600080fd5b8560026004811015156142c457fe5b602002015173__Percent_______________________________63520b006690916040518263ffffffff167c01000000000000000000000000000000000000000000000000000000000281526004018082815260200191505060206040518083038186803b15801561433557600080fd5b505af4158015614349573d6000803e3d6000fd5b505050506040513d602081101561435f57600080fd5b810190808051906020019092919050505080156144365750606486600260048110151561438857fe5b602002015173__Percent_______________________________630fe9114790916040518263ffffffff167c01000000000000000000000000000000000000000000000000000000000281526004018082815260200191505060206040518083038186803b1580156143f957600080fd5b505af415801561440d573d6000803e3d6000fd5b505050506040513d602081101561442357600080fd5b8101908080519060200190929190505050105b151561444157600080fd5b85600360048110151561445057fe5b602002015173__Percent_______________________________63520b006690916040518263ffffffff167c01000000000000000000000000000000000000000000000000000000000281526004018082815260200191505060206040518083038186803b1580156144c157600080fd5b505af41580156144d5573d6000803e3d6000fd5b505050506040513d60208110156144eb57600080fd5b810190808051906020019092919050505080156145c25750606486600360048110151561451457fe5b602002015173__Percent_______________________________630fe9114790916040518263ffffffff167c01000000000000000000000000000000000000000000000000000000000281526004018082815260200191505060206040518083038186803b15801561458557600080fd5b505af4158015614599573d6000803e3d6000fd5b505050506040513d60208110156145af57600080fd5b8101908080519060200190929190505050105b15156145cd57600080fd5b6145d7858561508f565b15156145e257600080fd5b6145ec8c8c6132d8565b15156148ee578b600501805490508c60000160008d73ffffffffffffffffffffffffffffffffffffffff1673ffffffffffffffffffffffffffffffffffffffff1681526020019081526020016000208190555060018c60010160008d73ffffffffffffffffffffffffffffffffffffffff1673ffffffffffffffffffffffffffffffffffffffff16815260200190815260200160002060008e60050180549050815260200190815260200160002060006101000a81548160ff0219169083151502179055508b600501610160604051908101604052808c81526020018b81526020018a60ff16815260200160006040519080825280602002602001820160405280156147075781602001602082028038833980820191505090505b50815260200188600060048110151561471c57fe5b6020020151815260200188600160048110151561473557fe5b6020020151815260200188600260048110151561474e57fe5b6020020151815260200188600360048110151561476757fe5b602002015181526020018d73ffffffffffffffffffffffffffffffffffffffff168152602001878152602001868152509080600181540180825580915050906001820390600052602060002090600c02016000909192909190915060008201518160000190805190602001906147de929190615a18565b5060208201518160010190805190602001906147fb929190615a18565b5060408201518160020160006101000a81548160ff021916908360ff1602179055506060820151816003019080519060200190614839929190615a98565b506080820151816004015560a0820151816005015560c0820151816006015560e082015181600701556101008201518160080160006101000a81548173ffffffffffffffffffffffffffffffffffffffff021916908373ffffffffffffffffffffffffffffffffffffffff1602179055506101208201518160090190805190602001906148c7929190615b22565b5061014082015181600a0190805190602001906148e5929190615b75565b505050506149fe565b6149006148fb8d8d6134c8565b6152bc565b61490a8c8c6134c8565b915089826000019080519060200190614924929190615bc2565b508882600101908051906020019061493d929190615bc2565b50878260020160006101000a81548160ff021916908360ff16021790555085600060048110151561496a57fe5b6020020151826004018190555085600160048110151561498657fe5b602002015182600501819055508560026004811015156149a257fe5b602002015182600601819055508560036004811015156149be57fe5b60200201518260070181905550848260090190805190602001906149e3929190615c42565b508382600a0190805190602001906149fc929190615c95565b505b600090505b8651811015614a3b57614a2e8c8c8984815181101515614a1f57fe5b9060200190602002015161539a565b8080600101915050614a03565b614a458c8c6133e6565b1515614a5657614a558c8c615520565b5b8b60000160008c73ffffffffffffffffffffffffffffffffffffffff1673ffffffffffffffffffffffffffffffffffffffff16815260200190815260200160002054925050509998505050505050505050565b606081600501805480602002602001604051908101604052809291908181526020016000905b82821015614e2457838290600052602060002090600c02016101606040519081016040529081600082018054600181600116156101000203166002900480601f016020809104026020016040519081016040528092919081815260200182805460018160011615610100020316600290048015614b8d5780601f10614b6257610100808354040283529160200191614b8d565b820191906000526020600020905b815481529060010190602001808311614b7057829003601f168201915b50505050508152602001600182018054600181600116156101000203166002900480601f016020809104026020016040519081016040528092919081815260200182805460018160011615610100020316600290048015614c2f5780601f10614c0457610100808354040283529160200191614c2f565b820191906000526020600020905b815481529060010190602001808311614c1257829003601f168201915b505050505081526020016002820160009054906101000a900460ff1660ff1660ff16815260200160038201805480602002602001604051908101604052809291908181526020018280548015614cda57602002820191906000526020600020905b8160009054906101000a900473ffffffffffffffffffffffffffffffffffffffff1673ffffffffffffffffffffffffffffffffffffffff1681526020019060010190808311614c90575b50505050508152602001600482015481526020016005820154815260200160068201548152602001600782015481526020016008820160009054906101000a900473ffffffffffffffffffffffffffffffffffffffff1673ffffffffffffffffffffffffffffffffffffffff1673ffffffffffffffffffffffffffffffffffffffff16815260200160098201805480602002602001604051908101604052809291908181526020018280548015614db457602002820191906000526020600020905b81546000191681526020019060010190808311614d9c575b50505050508152602001600a8201805480602002602001604051908101604052809291908181526020018280548015614e0c57602002820191906000526020600020905b815481526020019060010190808311614df8575b50505050508152505081526020019060010190614acf565b505050509050919050565b6000614e3b83836132d8565b1515614e4657600080fd5b8260000160008373ffffffffffffffffffffffffffffffffffffffff1673ffffffffffffffffffffffffffffffffffffffff16815260200190815260200160002054905092915050565b6000614e9d848484613d92565b1515614ea857600080fd5b8360040160008473ffffffffffffffffffffffffffffffffffffffff1673ffffffffffffffffffffffffffffffffffffffff16815260200190815260200160002060008373ffffffffffffffffffffffffffffffffffffffff1673ffffffffffffffffffffffffffffffffffffffff1681526020019081526020016000205490509392505050565b600073ffffffffffffffffffffffffffffffffffffffff168173ffffffffffffffffffffffffffffffffffffffff1614151515614f6c57600080fd5b614f768282613e3e565b1515614f8157600080fd5b60008260000160008373ffffffffffffffffffffffffffffffffffffffff1673ffffffffffffffffffffffffffffffffffffffff16815260200190815260200160002060006101000a81548160ff0219169083151502179055505050565b600073ffffffffffffffffffffffffffffffffffffffff168173ffffffffffffffffffffffffffffffffffffffff161415151561501b57600080fd5b6150258282613e3e565b15151561503157600080fd5b60018260000160008373ffffffffffffffffffffffffffffffffffffffff1673ffffffffffffffffffffffffffffffffffffffff16815260200190815260200160002060006101000a81548160ff0219169083151502179055505050565b60008060008351855114156152af57600091505b84518210156152a65783828151811015156150ba57fe5b9060200190602002015173__Percent_______________________________63520b006690916040518263ffffffff167c01000000000000000000000000000000000000000000000000000000000281526004018082815260200191505060206040518083038186803b15801561513057600080fd5b505af4158015615144573d6000803e3d6000fd5b505050506040513d602081101561515a57600080fd5b81019080805190602001909291905050501580615227575073__Percent_______________________________63d49d51816040518163ffffffff167c010000000000000000000000000000000000000000000000000000000002815260040160206040518083038186803b1580156151d257600080fd5b505af41580156151e6573d6000803e3d6000fd5b505050506040513d60208110156151fc57600080fd5b8101908080519060200190929190505050848381518110151561521b57fe5b90602001906020020151115b1561523557600092506152b4565b6001820190505b845181101561529957848181518110151561525357fe5b9060200190602002015160001916858381518110151561526f57fe5b9060200190602002015160001916141561528c57600092506152b4565b808060010191505061523c565b81806001019250506150a3565b600192506152b4565b600092505b505092915050565b6000808260030180549050111561539657600090505b816003018054905081101561538357600082600b01600084600301848154811015156152fa57fe5b9060005260206000200160009054906101000a900473ffffffffffffffffffffffffffffffffffffffff1673ffffffffffffffffffffffffffffffffffffffff1673ffffffffffffffffffffffffffffffffffffffff16815260200190815260200160002060006101000a81548160ff02191690831515021790555080806001019150506152d2565b600082600301816153949190615ce2565b505b5050565b600073ffffffffffffffffffffffffffffffffffffffff168173ffffffffffffffffffffffffffffffffffffffff16141515156153d657600080fd5b6153e1838383613383565b1515156153ed57600080fd5b6153f783836134c8565b6003018190806001815401808255809150509060018203906000526020600020016000909192909190916101000a81548173ffffffffffffffffffffffffffffffffffffffff021916908373ffffffffffffffffffffffffffffffffffffffff16021790555050600161546a84846134c8565b600b0160008373ffffffffffffffffffffffffffffffffffffffff1673ffffffffffffffffffffffffffffffffffffffff16815260200190815260200160002060006101000a81548160ff0219169083151502179055508073ffffffffffffffffffffffffffffffffffffffff168273ffffffffffffffffffffffffffffffffffffffff167ffa5891b558f0fb64bcbdc5f17fa7bbee3a47f97f4c8f523556d0494941a1e18b60405160405180910390a3505050565b600061552c83836133e6565b15151561553857600080fd5b8260020160008373ffffffffffffffffffffffffffffffffffffffff1673ffffffffffffffffffffffffffffffffffffffff16815260200190815260200160002080549050905060018360030160008473ffffffffffffffffffffffffffffffffffffffff1673ffffffffffffffffffffffffffffffffffffffff16815260200190815260200160002060008073ffffffffffffffffffffffffffffffffffffffff1673ffffffffffffffffffffffffffffffffffffffff16815260200190815260200160002060006101000a81548160ff021916908315150217905550808360040160008473ffffffffffffffffffffffffffffffffffffffff1673ffffffffffffffffffffffffffffffffffffffff16815260200190815260200160002060008073ffffffffffffffffffffffffffffffffffffffff1673ffffffffffffffffffffffffffffffffffffffff168152602001908152602001600020819055508260020160008373ffffffffffffffffffffffffffffffffffffffff1673ffffffffffffffffffffffffffffffffffffffff16815260200190815260200160002061014060405190810160405280600073ffffffffffffffffffffffffffffffffffffffff168152602001600081526020016000815260200160008152602001600081526020016000815260200160008152602001600060405190808252806020026020018201604052801561575e5781602001602082028038833980820191505090505b50815260200160006040519080825280602002602001820160405280156157945781602001602082028038833980820191505090505b50815260200160006040519080825280602002602001820160405280156157ca5781602001602082028038833980820191505090505b508152509080600181540180825580915050906001820390600052602060002090600a02016000909192909190915060008201518160000160006101000a81548173ffffffffffffffffffffffffffffffffffffffff021916908373ffffffffffffffffffffffffffffffffffffffff1602179055506020820151816001015560408201518160020155606082015181600301556080820151816004015560a0820151816005015560c0820151816006015560e0820151816007019080519060200190615898929190615a98565b506101008201518160080190805190602001906158b6929190615b22565b506101208201518160090190805190602001906158d4929190615b75565b50505050505050565b608060405190810160405280600490602082028038833980820191505090505090565b6040805190810160405280600290602082028038833980820191505090505090565b8280548282559060005260206000209081019282156159635760005260206000209182015b82811115615962578254825591600101919060010190615947565b5b5090506159709190615d0e565b5090565b8280548282559060005260206000209081019282156159b55760005260206000209182015b828111156159b4578254825591600101919060010190615999565b5b5090506159c29190615d51565b5090565b828054828255906000526020600020908101928215615a075760005260206000209182015b82811115615a065782548255916001019190600101906159eb565b5b509050615a149190615d76565b5090565b828054600181600116156101000203166002900490600052602060002090601f016020900481019282601f10615a5957805160ff1916838001178555615a87565b82800160010185558215615a87579182015b82811115615a86578251825591602001919060010190615a6b565b5b509050615a949190615d76565b5090565b828054828255906000526020600020908101928215615b11579160200282015b82811115615b105782518260006101000a81548173ffffffffffffffffffffffffffffffffffffffff021916908373ffffffffffffffffffffffffffffffffffffffff16021790555091602001919060010190615ab8565b5b509050615b1e9190615d0e565b5090565b828054828255906000526020600020908101928215615b64579160200282015b82811115615b63578251829060001916905591602001919060010190615b42565b5b509050615b719190615d51565b5090565b828054828255906000526020600020908101928215615bb1579160200282015b82811115615bb0578251825591602001919060010190615b95565b5b509050615bbe9190615d76565b5090565b828054600181600116156101000203166002900490600052602060002090601f016020900481019282601f10615c0357805160ff1916838001178555615c31565b82800160010185558215615c31579182015b82811115615c30578251825591602001919060010190615c15565b5b509050615c3e9190615d76565b5090565b828054828255906000526020600020908101928215615c84579160200282015b82811115615c83578251829060001916905591602001919060010190615c62565b5b509050615c919190615d51565b5090565b828054828255906000526020600020908101928215615cd1579160200282015b82811115615cd0578251825591602001919060010190615cb5565b5b509050615cde9190615d76565b5090565b815481835581811115615d0957818360005260206000209182019101615d089190615d76565b5b505050565b615d4e91905b80821115615d4a57600081816101000a81549073ffffffffffffffffffffffffffffffffffffffff021916905550600101615d14565b5090565b90565b615d7391905b80821115615d6f576000816000905550600101615d57565b5090565b90565b615d9891905b80821115615d94576000816000905550600101615d7c565b5090565b905600a165627a7a72305820051e8b7dd565f29a789baf2b257d87864f4309c09143e357aa9bb3c5b8d7b65b0029",
  "source": "pragma solidity 0.4.24;\n\n\nimport \"openzeppelin-solidity/contracts/ownership/Secondary.sol\";\nimport \"openzeppelin-solidity/contracts/utils/ReentrancyGuard.sol\";\nimport \"openzeppelin-solidity/contracts/token/ERC20/IERC20.sol\";\nimport \"./crowdsale/factories/IW12CrowdsaleFactory.sol\";\nimport \"./wallets/IWallets.sol\";\nimport \"./access/roles/IAdminRole.sol\";\nimport \"./token/IWToken.sol\";\nimport \"./libs/Percent.sol\";\nimport \"./token/exchanger/ITokenExchanger.sol\";\nimport \"./versioning/Versionable.sol\";\nimport \"./access/roles/AdminRole.sol\";\nimport \"./libs/TokenListing.sol\";\nimport \"./IListerFactory.sol\";\n\n\ncontract W12Lister is IAdminRole, AdminRole, Versionable, Secondary, ReentrancyGuard {\n\tusing SafeMath for uint;\n\tusing Percent for uint;\n\tusing TokenListing for TokenListing.Whitelist;\n\n\tuint8 constant SERVICE_WALLET_ID = 1;\n\n\tITokenExchanger public exchanger;\n\tIW12CrowdsaleFactory public factory;\n\tIWallets public wallets;\n\n\tTokenListing.Whitelist whitelist;\n\n\tIListerFactory public lister_factory;\n\n\tevent OwnerWhitelisted(address indexed tokenAddress, address indexed tokenOwner);\n\tevent TokenWhitelisted(address indexed token, address indexed sender, address[] owners);\n\tevent CrowdsaleInitialized(address indexed token, address indexed sender, address crowdsale, uint amountForSale);\n\tevent CrowdsaleTokenMinted(address indexed token, address indexed sender, address crowdsale, uint amount);\n\n\tconstructor(\n\t\tuint version,\n\t\tIWallets _wallets,\n\t\tIW12CrowdsaleFactory _factory,\n\t\tITokenExchanger _exchanger,\n\t\tIListerFactory _lister_factory\n\t) Versionable(version) public {\n\t\trequire(_wallets != address(0));\n\t\trequire(_factory != address(0));\n\t\trequire(_exchanger != address(0));\n\n\t\texchanger = _exchanger;\n\t\twallets = _wallets;\n\t\tfactory = _factory;\n\t\tlister_factory = _lister_factory;\n\t}\n\n\tfunction addAdmin(address _account) public onlyPrimary {\n\t\t_addAdmin(_account);\n\t}\n\n\tfunction removeAdmin(address _account) public onlyPrimary {\n\t\t_removeAdmin(_account);\n\t}\n\n\tfunction whitelistToken(\n\t\taddress token,\n\t\tstring name,\n\t\tstring symbol,\n\t\tuint8 decimals,\n\t\taddress[] owners,\n\t\tuint[4] commissions, // [feePercent, ethFeePercent, WTokenSaleFeePercent, trancheFeePercent]\n\t\tbytes32[] paymentMethods,\n\t\tuint[] paymentMethodsPurchaseFee\n\t)\n\texternal onlyAdmin\n\t{\n\t\twhitelist.addOrUpdate(\n\t\t\ttoken,\n\t\t\tname,\n\t\t\tsymbol,\n\t\t\tdecimals,\n\t\t\towners,\n\t\t\tcommissions,\n\t\t\tpaymentMethods,\n\t\t\tpaymentMethodsPurchaseFee\n\t\t);\n\n\t\temit TokenWhitelisted(token, msg.sender, owners);\n\t}\n\n\t/**\n\t * @notice Place token for sale\n\t * @param token Token address\n\t * @param crowdsale Crowdsale address\n\t * @param amount Token amount to place\n\t */\n\tfunction placeToken(address token, address crowdsale, uint amount) external nonReentrant {\n\t\trequire(whitelist.isTokenWhitelisted(token));\n\t\trequire(whitelist.hasTokenOwner(token, msg.sender));\n\t\trequire(whitelist.hasCrowdsaleWithAddress(token, crowdsale));\n\n\t\tTokenListing.WhitelistedToken storage listedToken = whitelist.getToken(token);\n\n\t\tERC20Detailed tokenInstance = lister_factory.placeToken1(token);\n\n\t\trequire(tokenInstance.allowance(msg.sender, address(this)) >= amount);\n\t\trequire(tokenInstance.decimals() == listedToken.decimals);\n\n\t\tuint fee = listedToken.feePercent > 0\n\t\t? amount.percent(listedToken.feePercent)\n\t\t: 0;\n\t\tuint amountWithoutFee = amount.sub(fee);\n\n//\t\t_secureTokenTransfer(IERC20(tokenInstance), exchanger, amountWithoutFee);\n//\t\t_secureTokenTransfer(IERC20(tokenInstance), serviceWallet(), fee);\n\t\tlister_factory.placeToken2(amount, exchanger, amountWithoutFee, serviceWallet(), fee);\n\n\t\twhitelist.getCrowdsaleByAddress(token, crowdsale).tokensForSaleAmount = whitelist\n\t\t.getCrowdsaleByAddress(token, crowdsale)\n\t\t.tokensForSaleAmount.add(amountWithoutFee);\n\n\t\tlister_factory.placeToken3(crowdsale, exchanger, msg.sender, amountWithoutFee, listedToken.name, listedToken.symbol, listedToken.decimals);\n\t}\n\n\t/**\n\t * @dev Securely transfer token from sender to account\n\t */\n\tfunction _secureTokenTransfer(IERC20 token, address to, uint value) internal {\n\t\t// check for overflow before. we are not sure that the placed token has implemented safe math\n\t\tuint expectedBalance = token.balanceOf(to).add(value);\n\n\t\ttoken.transferFrom(msg.sender, to, value);\n\n\t\t// check balance to be sure it was filled correctly\n\t\tassert(token.balanceOf(to) == expectedBalance);\n\t}\n\n\tfunction initCrowdsale(address token, uint amountForSale, uint price) external nonReentrant {\n\t\trequire(serviceWallet() != address(0));\n\t\trequire(whitelist.isTokenWhitelisted(token));\n\t\trequire(whitelist.hasTokenOwner(token, msg.sender));\n\t\trequire(whitelist.hasNotInitialisedCrowdsale(token));\n\t\trequire(\n\t\t\twhitelist.getNotInitialisedCrowdsale(token).tokensForSaleAmount\n\t\t\t>= whitelist.getNotInitialisedCrowdsale(token).wTokensIssuedAmount.add(amountForSale)\n\t\t);\n\n\t\tTokenListing.WhitelistedToken storage listedToken = whitelist.getToken(token);\n\n\t\tIWToken wtoken = exchanger.getWTokenByToken(listedToken.token);\n\n\t\tIW12Crowdsale crowdsale = factory.createCrowdsale(\n\t\t\tlistedToken.token,\n\t\t\taddress(wtoken),\n\t\t\tprice,\n\t\t\tserviceWallet(),\n\t\t\tlistedToken.ethFeePercent,\n\t\t\tlistedToken.WTokenSaleFeePercent,\n\t\t\tlistedToken.trancheFeePercent,\n\t\t\taddress(exchanger),\n\t\t\tlistedToken.owners\n\t\t);\n\n\t\tcrowdsale.addAdmin(msg.sender);\n\t\tcrowdsale.getFund().addAdmin(msg.sender);\n\t\twtoken.addAdmin(address(crowdsale));\n\n\t\twhitelist.initializeCrowdsale(token, address(crowdsale));\n\t\t_setPaymentMethodPurchaseFeeForCrowdsale(crowdsale, listedToken);\n\n\t\t// give approve to spend entire tokens sale amount because there may be\n\t\t// individual purchase fee value for a payment method and it may be changed in the future.\n\t\texchanger.approve(\n\t\t\tIERC20(listedToken.token),\n\t\t\taddress(crowdsale),\n\t\t\twhitelist.getCrowdsaleByAddress(token, address(crowdsale)).tokensForSaleAmount\n\t\t);\n\n\t\taddTokensToCrowdsale(token, address(crowdsale), amountForSale);\n\n\t\temit CrowdsaleInitialized(listedToken.token, msg.sender, address(crowdsale), amountForSale);\n\t}\n\n\tfunction _setPaymentMethodPurchaseFeeForCrowdsale(IW12Crowdsale crowdsale, TokenListing.WhitelistedToken storage listedToken) private {\n\t\tfor (uint i = 0; i < listedToken.paymentMethods.length; i++) {\n\t\t\tcrowdsale.updatePurchaseFeeParameterForPaymentMethod(\n\t\t\t\tlistedToken.paymentMethods[i],\n\t\t\t\ttrue,\n\t\t\t\tlistedToken.paymentMethodsPurchaseFee[i]\n\t\t\t);\n\t\t}\n\t}\n\n\tfunction addTokensToCrowdsale(address token, address crowdsale, uint amountForSale) public {\n//\t\trequire(amountForSale > 0);\n\t\trequire(whitelist.isTokenWhitelisted(token));\n\t\trequire(whitelist.hasTokenOwner(token, msg.sender));\n\t\trequire(whitelist.hasCrowdsaleWithAddress(token, crowdsale));\n//\t\trequire(address(exchanger.getWTokenByToken(token)) != address(0));\n\t\trequire(\n\t\t\twhitelist.getCrowdsaleByAddress(token, crowdsale).tokensForSaleAmount\n\t\t\t>= whitelist.getCrowdsaleByAddress(token, crowdsale).wTokensIssuedAmount.add(amountForSale)\n\t\t);\n\n//\t\tIWToken wtoken = exchanger.getWTokenByToken(token);\n//\n//\t\twhitelist.getCrowdsaleByAddress(token, crowdsale).wTokensIssuedAmount = whitelist\n//\t\t.getCrowdsaleByAddress(token, crowdsale)\n//\t\t.wTokensIssuedAmount.add(amountForSale);\n//\n//\t\twtoken.mint(crowdsale, amountForSale, 0);\n//\n//\t\temit CrowdsaleTokenMinted(token, msg.sender, address(crowdsale), amountForSale);\n\t}\n\n\tfunction getTokenOwners(address token) external view returns (address[]) {\n\t\treturn whitelist.getToken(token).owners;\n\t}\n\n\tfunction getCrowdsaleOwners(address token, address crowdsale) external view returns (address[]) {\n\t\treturn whitelist.getCrowdsaleByAddress(token, crowdsale).owners;\n\t}\n\n\tfunction getExchanger() view external returns (ITokenExchanger) {\n\t\treturn exchanger;\n\t}\n\n\tfunction getToken(address token)\n\texternal view returns (\n\t\tstring name,\n\t\tstring symbol,\n\t\tuint8 decimals,\n\t\taddress[] owners,\n\t\tuint[4] commissions,\n\t\tbytes32[] paymentMethods,\n\t\tuint[] paymentMethodsPurchaseFee\n\t)\n\t{\n\t\trequire(whitelist.isTokenWhitelisted(token));\n\n\t\tname = whitelist.getToken(token).name;\n\t\tsymbol = whitelist.getToken(token).symbol;\n\t\tdecimals = whitelist.getToken(token).decimals;\n\t\towners = whitelist.getToken(token).owners;\n\t\tcommissions[0] = whitelist.getToken(token).feePercent;\n\t\tcommissions[1] = whitelist.getToken(token).ethFeePercent;\n\t\tcommissions[2] = whitelist.getToken(token).WTokenSaleFeePercent;\n\t\tcommissions[3] = whitelist.getToken(token).trancheFeePercent;\n\t\tpaymentMethods = whitelist.getToken(token).paymentMethods;\n\t\tpaymentMethodsPurchaseFee = whitelist.getToken(token).paymentMethodsPurchaseFee;\n\t}\n\n\tfunction getTokens() external view returns (address[]) {\n\t\taddress[] memory result = new address[](whitelist.getTokens().length);\n\n\t\tfor (uint i = 0; i < whitelist.getTokens().length; i++) {\n\t\t\tresult[i] = whitelist.getTokens()[i].token;\n\t\t}\n\n\t\treturn result;\n\t}\n\n\tfunction isTokenWhitelisted(address token) external view returns (bool) {\n\t\treturn whitelist.isTokenWhitelisted(token);\n\t}\n\n\tfunction hasTokenOwner(address token, address owner) external view returns (bool) {\n\t\treturn whitelist.hasTokenOwner(token, owner);\n\t}\n\n\tfunction getCrowdsales(address token) external view returns (address[]) {\n\t\taddress[] memory result = new address[](whitelist.getCrowdsales(token).length);\n\n\t\tfor (uint i = 0; i < whitelist.getCrowdsales(token).length; i++) {\n\t\t\tresult[i] = whitelist.getCrowdsales(token)[i].crowdsale;\n\t\t}\n\n\t\treturn result;\n\t}\n\n\tfunction hasCrowdsaleWithAddress(address token, address crowdsale) external view returns (bool) {\n\t\treturn whitelist.hasCrowdsaleWithAddress(token, crowdsale);\n\t}\n\n\tfunction hasNotInitialisedCrowdsale(address token) public view returns (bool) {\n\t\treturn whitelist.hasNotInitialisedCrowdsale(token);\n\t}\n\n\tfunction getCrowdsale(address token, address crowdsale)\n\texternal view returns (\n\t\tuint[4] commissions,\n\t\tuint[2] amounts,\n\t\taddress[] owners,\n\t\tbytes32[] paymentMethods,\n\t\tuint[] paymentMethodsPurchaseFee\n\t)\n\t{\n\t\trequire(whitelist.hasCrowdsaleWithAddress(token, crowdsale));\n\n\t\tcommissions[0] = whitelist.getCrowdsaleByAddress(token, crowdsale).feePercent;\n\t\tcommissions[1] = whitelist.getCrowdsaleByAddress(token, crowdsale).ethFeePercent;\n\t\tcommissions[2] = whitelist.getCrowdsaleByAddress(token, crowdsale).WTokenSaleFeePercent;\n\t\tcommissions[3] = whitelist.getCrowdsaleByAddress(token, crowdsale).trancheFeePercent;\n\t\tamounts[0] = whitelist.getCrowdsaleByAddress(token, crowdsale).tokensForSaleAmount;\n\t\tamounts[1] = whitelist.getCrowdsaleByAddress(token, crowdsale).wTokensIssuedAmount;\n\t\towners = whitelist.getCrowdsaleByAddress(token, crowdsale).owners;\n\t\tpaymentMethods = whitelist.getCrowdsaleByAddress(token, crowdsale).paymentMethods;\n\t\tpaymentMethodsPurchaseFee = whitelist.getCrowdsaleByAddress(token, crowdsale).paymentMethodsPurchaseFee;\n\t}\n\n\tfunction serviceWallet() public view returns (address) {\n\t\treturn wallets.getWallet(SERVICE_WALLET_ID);\n\t}\n}\n",
  "sourcePath": "/Users/gauss/_games/w12/Protocol/contracts/W12Lister.sol",
  "compiler": {
    "name": "solc",
    "version": "0.4.24+commit.e67f0147.Emscripten.clang"
  },
  "schemaVersion": "3.0.16",
  "updatedAt": "2019-10-06T23:01:22.071Z",
  "devdoc": {
    "methods": {
      "placeToken(address,address,uint256)": {
        "params": {
          "amount": "Token amount to place",
          "crowdsale": "Crowdsale address",
          "token": "Token address"
        }
      },
      "primary()": {
        "return": "the address of the primary."
      },
      "transferPrimary(address)": {
        "details": "Transfers contract to a new primary.",
        "params": {
          "recipient": "The address of new primary. "
        }
      }
    }
  },
  "userdoc": {
    "methods": {
      "placeToken(address,address,uint256)": {
        "notice": "Place token for sale"
      }
    }
  }
}