{
  "contractName": "Wallets",
  "abi": [
    {
      "constant": false,
      "inputs": [],
      "name": "renounceOwnership",
      "outputs": [],
      "payable": false,
      "stateMutability": "nonpayable",
      "type": "function"
    },
    {
      "constant": true,
      "inputs": [],
      "name": "SERVICE_WALLET_ID",
      "outputs": [
        {
          "name": "",
          "type": "uint8"
        }
      ],
      "payable": false,
      "stateMutability": "view",
      "type": "function"
    },
    {
      "constant": true,
      "inputs": [],
      "name": "owner",
      "outputs": [
        {
          "name": "",
          "type": "address"
        }
      ],
      "payable": false,
      "stateMutability": "view",
      "type": "function"
    },
    {
      "constant": false,
      "inputs": [
        {
          "name": "_newOwner",
          "type": "address"
        }
      ],
      "name": "transferOwnership",
      "outputs": [],
      "payable": false,
      "stateMutability": "nonpayable",
      "type": "function"
    },
    {
      "inputs": [],
      "payable": false,
      "stateMutability": "nonpayable",
      "type": "constructor"
    },
    {
      "anonymous": false,
      "inputs": [
        {
          "indexed": true,
          "name": "ID",
          "type": "uint8"
        },
        {
          "indexed": false,
          "name": "wallet",
          "type": "address"
        }
      ],
      "name": "NewWallet",
      "type": "event"
    },
    {
      "anonymous": false,
      "inputs": [
        {
          "indexed": true,
          "name": "previousOwner",
          "type": "address"
        }
      ],
      "name": "OwnershipRenounced",
      "type": "event"
    },
    {
      "anonymous": false,
      "inputs": [
        {
          "indexed": true,
          "name": "previousOwner",
          "type": "address"
        },
        {
          "indexed": true,
          "name": "newOwner",
          "type": "address"
        }
      ],
      "name": "OwnershipTransferred",
      "type": "event"
    },
    {
      "constant": false,
      "inputs": [
        {
          "name": "ID",
          "type": "uint8"
        },
        {
          "name": "wallet",
          "type": "address"
        }
      ],
      "name": "setWallet",
      "outputs": [],
      "payable": false,
      "stateMutability": "nonpayable",
      "type": "function"
    },
    {
      "constant": true,
      "inputs": [
        {
          "name": "ID",
          "type": "uint8"
        }
      ],
      "name": "getWallet",
      "outputs": [
        {
          "name": "",
          "type": "address"
        }
      ],
      "payable": false,
      "stateMutability": "view",
      "type": "function"
    }
  ],
  "bytecode": "0x608060405234801561001057600080fd5b5060008054600160a060020a0319163390811790915561003b90600190640100000000610040810204565b6100be565b600054600160a060020a0316331461005757600080fd5b60ff82166000818152600160209081526040918290208054600160a060020a031916600160a060020a038616908117909155825190815291517ffc3e20229acbcf5bec31a259c022ee755e4f599eb1152c979c853479a38e82d99281900390910190a25050565b610347806100cd6000396000f3006080604052600436106100775763ffffffff7c0100000000000000000000000000000000000000000000000000000000600035041663684b0dd2811461007c578063715018a6146100a557806389a4fe84146100ba5780638da5cb5b146100e5578063e3ff76e414610116578063f2fde38b14610131575b600080fd5b34801561008857600080fd5b506100a360ff60043516600160a060020a0360243516610152565b005b3480156100b157600080fd5b506100a36101dd565b3480156100c657600080fd5b506100cf610249565b6040805160ff9092168252519081900360200190f35b3480156100f157600080fd5b506100fa61024e565b60408051600160a060020a039092168252519081900360200190f35b34801561012257600080fd5b506100fa60ff6004351661025d565b34801561013d57600080fd5b506100a3600160a060020a036004351661027b565b600054600160a060020a0316331461016957600080fd5b60ff8216600081815260016020908152604091829020805473ffffffffffffffffffffffffffffffffffffffff1916600160a060020a038616908117909155825190815291517ffc3e20229acbcf5bec31a259c022ee755e4f599eb1152c979c853479a38e82d99281900390910190a25050565b600054600160a060020a031633146101f457600080fd5b60008054604051600160a060020a03909116917ff8df31144d9c2f0f6b59d69b8b98abd5459d07f2742c4df920b25aae33c6482091a26000805473ffffffffffffffffffffffffffffffffffffffff19169055565b600181565b600054600160a060020a031681565b60ff16600090815260016020526040902054600160a060020a031690565b600054600160a060020a0316331461029257600080fd5b61029b8161029e565b50565b600160a060020a03811615156102b357600080fd5b60008054604051600160a060020a03808516939216917f8be0079c531659141344cd1fd0a4f28419497f9722a3daafe3b4186f6b6457e091a36000805473ffffffffffffffffffffffffffffffffffffffff1916600160a060020a03929092169190911790555600a165627a7a72305820e4b0192c5a650d4c52558df74a8c4555df5a03cfc1ca912114b2cb49d4f6d3120029",
  "source": "pragma solidity ^0.4.24;\n\nimport \"openzeppelin-solidity/contracts/ownership/Ownable.sol\";\n\ncontract Wallets is Ownable {\n    uint8 constant public SERVICE_WALLET_ID = 1;\n\n    mapping (uint8 => address) _wallets;\n\n    event NewWallet(uint8 indexed ID, address wallet);\n\n    constructor() public {\n        setWallet(SERVICE_WALLET_ID, msg.sender);\n    }\n\n    function setWallet(uint8 ID, address wallet) onlyOwner {\n        _wallets[ID] = wallet;\n\n        emit NewWallet(ID, wallet);\n    }\n\n    function getWallet(uint8 ID) public view returns(address) {\n        return _wallets[ID];\n    }\n}\n",
  "sourcePath": "/home/circleci/code/contracts/wallets/Wallets.sol",
  "compiler": {
    "name": "solc",
    "version": "0.4.24+commit.e67f0147.Emscripten.clang"
  },
  "schemaVersion": "2.0.1",
  "updatedAt": "2018-10-27T04:56:22.019Z"
}