{
  "contractName": "Wallets",
  "abi": [
    {
      "constant": false,
      "inputs": [
        {
          "name": "recipient",
          "type": "address"
        }
      ],
      "name": "transferPrimary",
      "outputs": [],
      "payable": false,
      "stateMutability": "nonpayable",
      "type": "function"
    },
    {
      "constant": true,
      "inputs": [],
      "name": "SERVICE_WALLET_ID",
      "outputs": [
        {
          "name": "",
          "type": "uint8"
        }
      ],
      "payable": false,
      "stateMutability": "view",
      "type": "function"
    },
    {
      "constant": true,
      "inputs": [],
      "name": "primary",
      "outputs": [
        {
          "name": "",
          "type": "address"
        }
      ],
      "payable": false,
      "stateMutability": "view",
      "type": "function"
    },
    {
      "inputs": [],
      "payable": false,
      "stateMutability": "nonpayable",
      "type": "constructor"
    },
    {
      "anonymous": false,
      "inputs": [
        {
          "indexed": true,
          "name": "ID",
          "type": "uint8"
        },
        {
          "indexed": false,
          "name": "wallet",
          "type": "address"
        }
      ],
      "name": "NewWallet",
      "type": "event"
    },
    {
      "anonymous": false,
      "inputs": [
        {
          "indexed": false,
          "name": "recipient",
          "type": "address"
        }
      ],
      "name": "PrimaryTransferred",
      "type": "event"
    },
    {
      "constant": false,
      "inputs": [
        {
          "name": "ID",
          "type": "uint8"
        },
        {
          "name": "wallet",
          "type": "address"
        }
      ],
      "name": "setWallet",
      "outputs": [],
      "payable": false,
      "stateMutability": "nonpayable",
      "type": "function"
    },
    {
      "constant": true,
      "inputs": [
        {
          "name": "ID",
          "type": "uint8"
        }
      ],
      "name": "getWallet",
      "outputs": [
        {
          "name": "",
          "type": "address"
        }
      ],
      "payable": false,
      "stateMutability": "view",
      "type": "function"
    }
  ],
  "bytecode": "0x608060405234801561001057600080fd5b5060008054600160a060020a03191633179081905560408051600160a060020a03929092168252517f4101e71e974f68df5e9730cc223280b41654676bbb052cdcc735c3337e64d2d99181900360200190a161007660013364010000000061007b810204565b6100f9565b600054600160a060020a0316331461009257600080fd5b60ff82166000818152600160209081526040918290208054600160a060020a031916600160a060020a038616908117909155825190815291517ffc3e20229acbcf5bec31a259c022ee755e4f599eb1152c979c853479a38e82d99281900390910190a25050565b6102ae806101086000396000f30060806040526004361061006c5763ffffffff7c01000000000000000000000000000000000000000000000000000000006000350416632348238c8114610071578063684b0dd21461009457806389a4fe84146100bb578063c6dbdf61146100e6578063e3ff76e414610117575b600080fd5b34801561007d57600080fd5b50610092600160a060020a0360043516610132565b005b3480156100a057600080fd5b5061009260ff60043516600160a060020a03602435166101c5565b3480156100c757600080fd5b506100d0610250565b6040805160ff9092168252519081900360200190f35b3480156100f257600080fd5b506100fb610255565b60408051600160a060020a039092168252519081900360200190f35b34801561012357600080fd5b506100fb60ff60043516610264565b600054600160a060020a0316331461014957600080fd5b600160a060020a038116151561015e57600080fd5b6000805473ffffffffffffffffffffffffffffffffffffffff1916600160a060020a03838116919091179182905560408051929091168252517f4101e71e974f68df5e9730cc223280b41654676bbb052cdcc735c3337e64d2d9916020908290030190a150565b600054600160a060020a031633146101dc57600080fd5b60ff8216600081815260016020908152604091829020805473ffffffffffffffffffffffffffffffffffffffff1916600160a060020a038616908117909155825190815291517ffc3e20229acbcf5bec31a259c022ee755e4f599eb1152c979c853479a38e82d99281900390910190a25050565b600181565b600054600160a060020a031690565b60ff16600090815260016020526040902054600160a060020a0316905600a165627a7a7230582001d265efae8fabc98807d2c25e665ee017c1b8424854f483ad23bb471856f1940029",
  "source": "pragma solidity ^0.4.24;\n\nimport \"openzeppelin-solidity/contracts/ownership/Secondary.sol\";\n\ncontract Wallets is Secondary {\n    uint8 constant public SERVICE_WALLET_ID = 1;\n\n    mapping (uint8 => address) _wallets;\n\n    event NewWallet(uint8 indexed ID, address wallet);\n\n    constructor() public {\n        setWallet(SERVICE_WALLET_ID, msg.sender);\n    }\n\n    function setWallet(uint8 ID, address wallet) public onlyPrimary {\n        _wallets[ID] = wallet;\n\n        emit NewWallet(ID, wallet);\n    }\n\n    function getWallet(uint8 ID) public view returns(address) {\n        return _wallets[ID];\n    }\n}\n",
  "sourcePath": "/home/circleci/code/contracts/wallets/Wallets.sol",
  "compiler": {
    "name": "solc",
    "version": "0.4.24+commit.e67f0147.Emscripten.clang"
  },
  "schemaVersion": "2.0.1",
  "updatedAt": "2018-12-12T11:19:39.328Z"
}