{
  "contractName": "WTokenStub",
  "abi": [
    {
      "constant": true,
      "inputs": [],
      "name": "name",
      "outputs": [
        {
          "name": "",
          "type": "string"
        }
      ],
      "payable": false,
      "stateMutability": "view",
      "type": "function"
    },
    {
      "constant": false,
      "inputs": [
        {
          "name": "spender",
          "type": "address"
        },
        {
          "name": "value",
          "type": "uint256"
        }
      ],
      "name": "approve",
      "outputs": [
        {
          "name": "",
          "type": "bool"
        }
      ],
      "payable": false,
      "stateMutability": "nonpayable",
      "type": "function"
    },
    {
      "constant": false,
      "inputs": [
        {
          "name": "account",
          "type": "address"
        }
      ],
      "name": "removeAdmin",
      "outputs": [],
      "payable": false,
      "stateMutability": "nonpayable",
      "type": "function"
    },
    {
      "constant": true,
      "inputs": [],
      "name": "totalSupply",
      "outputs": [
        {
          "name": "",
          "type": "uint256"
        }
      ],
      "payable": false,
      "stateMutability": "view",
      "type": "function"
    },
    {
      "constant": false,
      "inputs": [
        {
          "name": "recipient",
          "type": "address"
        }
      ],
      "name": "transferPrimary",
      "outputs": [],
      "payable": false,
      "stateMutability": "nonpayable",
      "type": "function"
    },
    {
      "constant": false,
      "inputs": [
        {
          "name": "from",
          "type": "address"
        },
        {
          "name": "to",
          "type": "address"
        },
        {
          "name": "value",
          "type": "uint256"
        }
      ],
      "name": "transferFrom",
      "outputs": [
        {
          "name": "",
          "type": "bool"
        }
      ],
      "payable": false,
      "stateMutability": "nonpayable",
      "type": "function"
    },
    {
      "constant": true,
      "inputs": [
        {
          "name": "account",
          "type": "address"
        }
      ],
      "name": "isAdmin",
      "outputs": [
        {
          "name": "",
          "type": "bool"
        }
      ],
      "payable": false,
      "stateMutability": "view",
      "type": "function"
    },
    {
      "constant": true,
      "inputs": [],
      "name": "decimals",
      "outputs": [
        {
          "name": "",
          "type": "uint8"
        }
      ],
      "payable": false,
      "stateMutability": "view",
      "type": "function"
    },
    {
      "constant": false,
      "inputs": [
        {
          "name": "spender",
          "type": "address"
        },
        {
          "name": "addedValue",
          "type": "uint256"
        }
      ],
      "name": "increaseAllowance",
      "outputs": [
        {
          "name": "",
          "type": "bool"
        }
      ],
      "payable": false,
      "stateMutability": "nonpayable",
      "type": "function"
    },
    {
      "constant": false,
      "inputs": [
        {
          "name": "value",
          "type": "uint256"
        }
      ],
      "name": "burn",
      "outputs": [],
      "payable": false,
      "stateMutability": "nonpayable",
      "type": "function"
    },
    {
      "constant": true,
      "inputs": [
        {
          "name": "account",
          "type": "address"
        },
        {
          "name": "date",
          "type": "uint256"
        }
      ],
      "name": "vestingBalanceOf",
      "outputs": [
        {
          "name": "",
          "type": "uint256"
        }
      ],
      "payable": false,
      "stateMutability": "view",
      "type": "function"
    },
    {
      "constant": false,
      "inputs": [
        {
          "name": "spender",
          "type": "address"
        },
        {
          "name": "subtractedValue",
          "type": "uint256"
        }
      ],
      "name": "decreaseApproval",
      "outputs": [
        {
          "name": "",
          "type": "bool"
        }
      ],
      "payable": false,
      "stateMutability": "nonpayable",
      "type": "function"
    },
    {
      "constant": false,
      "inputs": [
        {
          "name": "account",
          "type": "address"
        }
      ],
      "name": "addAdmin",
      "outputs": [],
      "payable": false,
      "stateMutability": "nonpayable",
      "type": "function"
    },
    {
      "constant": true,
      "inputs": [
        {
          "name": "owner",
          "type": "address"
        }
      ],
      "name": "balanceOf",
      "outputs": [
        {
          "name": "",
          "type": "uint256"
        }
      ],
      "payable": false,
      "stateMutability": "view",
      "type": "function"
    },
    {
      "constant": false,
      "inputs": [
        {
          "name": "from",
          "type": "address"
        },
        {
          "name": "value",
          "type": "uint256"
        }
      ],
      "name": "burnFrom",
      "outputs": [],
      "payable": false,
      "stateMutability": "nonpayable",
      "type": "function"
    },
    {
      "constant": false,
      "inputs": [],
      "name": "renounceAdmin",
      "outputs": [],
      "payable": false,
      "stateMutability": "nonpayable",
      "type": "function"
    },
    {
      "constant": true,
      "inputs": [],
      "name": "symbol",
      "outputs": [
        {
          "name": "",
          "type": "string"
        }
      ],
      "payable": false,
      "stateMutability": "view",
      "type": "function"
    },
    {
      "constant": false,
      "inputs": [
        {
          "name": "to",
          "type": "address"
        },
        {
          "name": "value",
          "type": "uint256"
        },
        {
          "name": "vestingTime",
          "type": "uint32"
        }
      ],
      "name": "vestingTransfer",
      "outputs": [
        {
          "name": "",
          "type": "bool"
        }
      ],
      "payable": false,
      "stateMutability": "nonpayable",
      "type": "function"
    },
    {
      "constant": false,
      "inputs": [
        {
          "name": "spender",
          "type": "address"
        },
        {
          "name": "subtractedValue",
          "type": "uint256"
        }
      ],
      "name": "decreaseAllowance",
      "outputs": [
        {
          "name": "",
          "type": "bool"
        }
      ],
      "payable": false,
      "stateMutability": "nonpayable",
      "type": "function"
    },
    {
      "constant": false,
      "inputs": [
        {
          "name": "to",
          "type": "address"
        },
        {
          "name": "value",
          "type": "uint256"
        }
      ],
      "name": "transfer",
      "outputs": [
        {
          "name": "",
          "type": "bool"
        }
      ],
      "payable": false,
      "stateMutability": "nonpayable",
      "type": "function"
    },
    {
      "constant": true,
      "inputs": [],
      "name": "primary",
      "outputs": [
        {
          "name": "",
          "type": "address"
        }
      ],
      "payable": false,
      "stateMutability": "view",
      "type": "function"
    },
    {
      "constant": false,
      "inputs": [
        {
          "name": "to",
          "type": "address"
        },
        {
          "name": "amount",
          "type": "uint256"
        },
        {
          "name": "vestingTime",
          "type": "uint32"
        }
      ],
      "name": "mint",
      "outputs": [
        {
          "name": "",
          "type": "bool"
        }
      ],
      "payable": false,
      "stateMutability": "nonpayable",
      "type": "function"
    },
    {
      "constant": true,
      "inputs": [
        {
          "name": "account",
          "type": "address"
        }
      ],
      "name": "accountBalance",
      "outputs": [
        {
          "name": "balance",
          "type": "uint256"
        }
      ],
      "payable": false,
      "stateMutability": "view",
      "type": "function"
    },
    {
      "constant": false,
      "inputs": [
        {
          "name": "spender",
          "type": "address"
        },
        {
          "name": "addedValue",
          "type": "uint256"
        }
      ],
      "name": "increaseApproval",
      "outputs": [
        {
          "name": "",
          "type": "bool"
        }
      ],
      "payable": false,
      "stateMutability": "nonpayable",
      "type": "function"
    },
    {
      "constant": true,
      "inputs": [
        {
          "name": "owner",
          "type": "address"
        },
        {
          "name": "spender",
          "type": "address"
        }
      ],
      "name": "allowance",
      "outputs": [
        {
          "name": "",
          "type": "uint256"
        }
      ],
      "payable": false,
      "stateMutability": "view",
      "type": "function"
    },
    {
      "inputs": [
        {
          "name": "_name",
          "type": "string"
        },
        {
          "name": "_symbol",
          "type": "string"
        },
        {
          "name": "_decimals",
          "type": "uint8"
        }
      ],
      "payable": false,
      "stateMutability": "nonpayable",
      "type": "constructor"
    },
    {
      "anonymous": false,
      "inputs": [
        {
          "indexed": false,
          "name": "from",
          "type": "address"
        },
        {
          "indexed": false,
          "name": "to",
          "type": "address"
        },
        {
          "indexed": false,
          "name": "value",
          "type": "uint256"
        },
        {
          "indexed": false,
          "name": "agingTime",
          "type": "uint256"
        }
      ],
      "name": "VestingTransferred",
      "type": "event"
    },
    {
      "anonymous": false,
      "inputs": [
        {
          "indexed": false,
          "name": "recipient",
          "type": "address"
        }
      ],
      "name": "PrimaryTransferred",
      "type": "event"
    },
    {
      "anonymous": false,
      "inputs": [
        {
          "indexed": true,
          "name": "account",
          "type": "address"
        }
      ],
      "name": "AdminAdded",
      "type": "event"
    },
    {
      "anonymous": false,
      "inputs": [
        {
          "indexed": true,
          "name": "account",
          "type": "address"
        }
      ],
      "name": "AdminRemoved",
      "type": "event"
    },
    {
      "anonymous": false,
      "inputs": [
        {
          "indexed": true,
          "name": "from",
          "type": "address"
        },
        {
          "indexed": true,
          "name": "to",
          "type": "address"
        },
        {
          "indexed": false,
          "name": "value",
          "type": "uint256"
        }
      ],
      "name": "Transfer",
      "type": "event"
    },
    {
      "anonymous": false,
      "inputs": [
        {
          "indexed": true,
          "name": "owner",
          "type": "address"
        },
        {
          "indexed": true,
          "name": "spender",
          "type": "address"
        },
        {
          "indexed": false,
          "name": "value",
          "type": "uint256"
        }
      ],
      "name": "Approval",
      "type": "event"
    }
  ],
  "bytecode": "0x60806040523480156200001157600080fd5b506040516200161c3803806200161c83398101604090815281516020830151918301519083019291909101908282828282826200005733640100000000620000f7810204565b82516200006c906001906020860190620001dc565b50815162000082906002906020850190620001dc565b506003805460ff90921660ff19909216919091179055505060078054600160a060020a03191633179081905560408051600160a060020a03929092168252517f4101e71e974f68df5e9730cc223280b41654676bbb052cdcc735c3337e64d2d99181900360200190a150505050505062000281565b620001126000826401000000006200127f6200014982021704565b604051600160a060020a038216907f44d6d25963f097ad14f29f06854a01f575648a1ef82f30e562ccd3889717e33990600090a250565b600160a060020a03811615156200015f57600080fd5b620001748282640100000000620001a4810204565b156200017f57600080fd5b600160a060020a0316600090815260209190915260409020805460ff19166001179055565b6000600160a060020a0382161515620001bc57600080fd5b50600160a060020a03166000908152602091909152604090205460ff1690565b828054600181600116156101000203166002900490600052602060002090601f016020900481019282601f106200021f57805160ff19168380011785556200024f565b828001600101855582156200024f579182015b828111156200024f57825182559160200191906001019062000232565b506200025d92915062000261565b5090565b6200027e91905b808211156200025d576000815560010162000268565b90565b61138b80620002916000396000f3006080604052600436106101485763ffffffff7c010000000000000000000000000000000000000000000000000000000060003504166306fdde03811461014d578063095ea7b3146101d75780631785f53c1461020f57806318160ddd146102325780632348238c1461025957806323b872dd1461027a57806324d7806c146102a4578063313ce567146102c557806339509351146102f057806342966c68146103145780634afbf5ee1461032c5780636618846314610350578063704802751461037457806370a082311461039557806379cc6790146103b65780638bad0c0a146103da57806395d89b41146103ef5780639d2e477714610404578063a457c2d714610431578063a9059cbb14610455578063c6dbdf6114610479578063d0047acf146104aa578063d294cb0f146104d7578063d73dd623146104f8578063dd62ed3e1461051c575b600080fd5b34801561015957600080fd5b50610162610543565b6040805160208082528351818301528351919283929083019185019080838360005b8381101561019c578181015183820152602001610184565b50505050905090810190601f1680156101c95780820380516001836020036101000a031916815260200191505b509250505060405180910390f35b3480156101e357600080fd5b506101fb600160a060020a03600435166024356105d8565b604080519115158252519081900360200190f35b34801561021b57600080fd5b50610230600160a060020a0360043516610656565b005b34801561023e57600080fd5b50610247610662565b60408051918252519081900360200190f35b34801561026557600080fd5b50610230600160a060020a0360043516610668565b34801561028657600080fd5b506101fb600160a060020a03600435811690602435166044356106e4565b3480156102b057600080fd5b506101fb600160a060020a036004351661072c565b3480156102d157600080fd5b506102da610744565b6040805160ff9092168252519081900360200190f35b3480156102fc57600080fd5b506101fb600160a060020a036004351660243561074d565b34801561032057600080fd5b506102306004356107fd565b34801561033857600080fd5b50610247600160a060020a0360043516602435610807565b34801561035c57600080fd5b506101fb600160a060020a036004351660243561082f565b34801561038057600080fd5b50610230600160a060020a0360043516610842565b3480156103a157600080fd5b50610247600160a060020a036004351661084b565b3480156103c257600080fd5b50610230600160a060020a0360043516602435610866565b3480156103e657600080fd5b50610230610874565b3480156103fb57600080fd5b5061016261087f565b34801561041057600080fd5b506101fb600160a060020a036004351660243563ffffffff604435166108dd565b34801561043d57600080fd5b506101fb600160a060020a0360043516602435610914565b34801561046157600080fd5b506101fb600160a060020a036004351660243561095f565b34801561048557600080fd5b5061048e61099e565b60408051600160a060020a039092168252519081900360200190f35b3480156104b657600080fd5b506101fb600160a060020a036004351660243563ffffffff604435166109ad565b3480156104e357600080fd5b50610247600160a060020a03600435166109da565b34801561050457600080fd5b506101fb600160a060020a0360043516602435610ae3565b34801561052857600080fd5b50610247600160a060020a0360043581169060243516610aef565b60018054604080516020601f600260001961010087891615020190951694909404938401819004810282018101909252828152606093909290918301828280156105ce5780601f106105a3576101008083540402835291602001916105ce565b820191906000526020600020905b8154815290600101906020018083116105b157829003601f168201915b5050505050905090565b6000600160a060020a03831615156105ef57600080fd5b336000818152600560209081526040808320600160a060020a03881680855290835292819020869055805186815290519293927f8c5be1e5ebec7d5bd14f71427d1e84f3dd0314c0f7b2291e5b200ac8c7c3b925929181900390910190a350600192915050565b61065f81610b1a565b50565b60065490565b600160a060020a038116151561067d57600080fd5b6007805473ffffffffffffffffffffffffffffffffffffffff1916600160a060020a03838116919091179182905560408051929091168252517f4101e71e974f68df5e9730cc223280b41654676bbb052cdcc735c3337e64d2d9916020908290030190a150565b60006106ef84610b62565b600160a060020a038316151561070457600080fd5b61070d846109da565b82111561071957600080fd5b610724848484610ce8565b949350505050565b600061073e818363ffffffff610d7b16565b92915050565b60035460ff1690565b6000600160a060020a038316151561076457600080fd5b336000908152600560209081526040808320600160a060020a0387168452909152902054610798908363ffffffff610db216565b336000818152600560209081526040808320600160a060020a0389168085529083529281902085905580519485525191937f8c5be1e5ebec7d5bd14f71427d1e84f3dd0314c0f7b2291e5b200ac8c7c3b925929081900390910190a350600192915050565b61065f3382610dc4565b600160a060020a03919091166000908152600860209081526040808320938352929052205490565b600061083b8383610914565b9392505050565b61065f81610dec565b600160a060020a031660009081526004602052604090205490565b6108708282610e34565b5050565b61087d33610b1a565b565b60028054604080516020601f60001961010060018716150201909416859004938401819004810282018101909252828152606093909290918301828280156105ce5780601f106105a3576101008083540402835291602001916105ce565b60006108e9848461095f565b50428263ffffffff16111561090a5761090a33858463ffffffff1686610e5c565b5060019392505050565b6000600160a060020a038316151561092b57600080fd5b336000908152600560209081526040808320600160a060020a0387168452909152902054610798908363ffffffff610f9616565b600061096a33610b62565b600160a060020a038316151561097f57600080fd5b610988336109da565b82111561099457600080fd5b61083b8383610fad565b600754600160a060020a031690565b60006109b98484610fc3565b428263ffffffff16111561090a5761090a6000858463ffffffff1686610e5c565b6000806109e68361084b565b600160a060020a03841660009081526008602090815260408083208380529091529020549092501515610a1857610add565b5060005b600160a060020a038316600090815260096020526040902054811015610add57600160a060020a0383166000908152600960205260409020805442919083908110610a6357fe5b9060005260206000200154101515610ad557600160a060020a0383166000908152600860209081526040808320600990925282208054610ad293919085908110610aa957fe5b906000526020600020015481526020019081526020016000205483610f9690919063ffffffff16565b91505b600101610a1c565b50919050565b600061083b838361074d565b600160a060020a03918216600090815260056020908152604080832093909416825291909152205490565b610b2b60008263ffffffff61106f16565b604051600160a060020a038216907fa3b62bc36326052d97ea62d63c3d60308ed4c3ea8ac079dd8499f1e9c4f80c0f90600090a250565b6000600160a060020a0382161515610b7957600080fd5b600160a060020a03821660009081526008602090815260408083208380529091529020541515610ba857610870565b5060005b600160a060020a03821660009081526009602052604090205481101561087057600160a060020a0382166000908152600960205260409020805442919083908110610bf357fe5b90600052602060002001541015610ce057600160a060020a0382166000908152600860209081526040808320600990925282208054610c7e93919085908110610c3857fe5b60009182526020808320909101548352828101939093526040918201812054600160a060020a03871682526008845282822082805290935220549063ffffffff610f9616565b600160a060020a03831660008181526008602090815260408083208380528083528184209590955592825260099052908120805491929183919085908110610cc257fe5b90600052602060002001548152602001908152602001600020819055505b600101610bac565b600160a060020a0383166000908152600560209081526040808320338452909152812054821115610d1857600080fd5b600160a060020a0384166000908152600560209081526040808320338452909152902054610d4c908363ffffffff610f9616565b600160a060020a038516600090815260056020908152604080832033845290915290205561090a8484846110bb565b6000600160a060020a0382161515610d9257600080fd5b50600160a060020a03166000908152602091909152604090205460ff1690565b60008282018381101561083b57600080fd5b610dcd82610b62565b610dd6826109da565b811115610de257600080fd5b61087082826111af565b610dfd60008263ffffffff61127f16565b604051600160a060020a038216907f44d6d25963f097ad14f29f06854a01f575648a1ef82f30e562ccd3889717e33990600090a250565b610e3d82610b62565b610e46826109da565b811115610e5257600080fd5b61087082826112cd565b600160a060020a0383166000908152600860209081526040808320838052909152902054610e90908263ffffffff610db216565b600160a060020a03841660009081526008602090815260408083208380529091528082209290925583815220541515610eef57600160a060020a0383166000908152600960209081526040822080546001810182559083529120018290555b600160a060020a0383166000908152600860209081526040808320858452909152902054610f23908263ffffffff610db216565b600160a060020a0380851660008181526008602090815260408083208884528252918290209490945580519288168352928201528082018390526060810184905290517f4dd99b63a45b55ac0b6999b9307251132e130b3e3f06c04c92b946c0f9e0dc279181900360800190a150505050565b60008083831115610fa657600080fd5b5050900390565b6000610fba3384846110bb565b50600192915050565b600160a060020a0382161515610fd857600080fd5b600654610feb908263ffffffff610db216565b600655600160a060020a038216600090815260046020526040902054611017908263ffffffff610db216565b600160a060020a03831660008181526004602090815260408083209490945583518581529351929391927fddf252ad1be2c89b69c2b068fc378daa952ba7f163c4a11628f55a4df523b3ef9281900390910190a35050565b600160a060020a038116151561108457600080fd5b61108e8282610d7b565b151561109957600080fd5b600160a060020a0316600090815260209190915260409020805460ff19169055565b600160a060020a0383166000908152600460205260409020548111156110e057600080fd5b600160a060020a03821615156110f557600080fd5b600160a060020a03831660009081526004602052604090205461111e908263ffffffff610f9616565b600160a060020a038085166000908152600460205260408082209390935590841681522054611153908263ffffffff610db216565b600160a060020a0380841660008181526004602090815260409182902094909455805185815290519193928716927fddf252ad1be2c89b69c2b068fc378daa952ba7f163c4a11628f55a4df523b3ef92918290030190a3505050565b600160a060020a03821615156111c457600080fd5b600160a060020a0382166000908152600460205260409020548111156111e957600080fd5b6006546111fc908263ffffffff610f9616565b600655600160a060020a038216600090815260046020526040902054611228908263ffffffff610f9616565b600160a060020a0383166000818152600460209081526040808320949094558351858152935191937fddf252ad1be2c89b69c2b068fc378daa952ba7f163c4a11628f55a4df523b3ef929081900390910190a35050565b600160a060020a038116151561129457600080fd5b61129e8282610d7b565b156112a857600080fd5b600160a060020a0316600090815260209190915260409020805460ff19166001179055565b600160a060020a03821660009081526005602090815260408083203384529091529020548111156112fd57600080fd5b600160a060020a0382166000908152600560209081526040808320338452909152902054611331908263ffffffff610f9616565b600160a060020a03831660009081526005602090815260408083203384529091529020556108708282610dc45600a165627a7a72305820c84a96bd511b7216f0b083201226acd56b0da34da84f95c6849e08c16d8a14820029",
  "source": "pragma solidity 0.4.24;\n\nimport \"./WToken.sol\";\n\n\ncontract WTokenStub is WToken {\n\n    /**\n    * @dev Allows for any account besides the owner.\n    */\n    modifier onlyPrimary() {\n        _;\n    }\n\n    modifier onlyAdmin {\n        _;\n    }\n\n    // solhint-disable-next-line no-empty-blocks\n    constructor(string _name, string _symbol, uint8 _decimals) public WToken(_name, _symbol, _decimals) {}\n}\n",
  "sourcePath": "/home/andrey/Code/w12/platform-contracts/contracts/token/WTokenStub.sol",
  "compiler": {
    "name": "solc",
    "version": "0.4.24+commit.e67f0147.Emscripten.clang"
  },
  "schemaVersion": "2.0.1",
  "updatedAt": "2019-03-06T08:53:21.082Z"
}