{
  "contractName": "WTokenTestHelper",
  "abi": [
    {
      "constant": true,
      "inputs": [
        {
          "name": "",
          "type": "address"
        }
      ],
      "name": "tokenIndexes",
      "outputs": [
        {
          "name": "",
          "type": "uint256"
        }
      ],
      "payable": false,
      "stateMutability": "view",
      "type": "function"
    },
    {
      "constant": true,
      "inputs": [
        {
          "name": "",
          "type": "uint256"
        }
      ],
      "name": "tokens",
      "outputs": [
        {
          "name": "",
          "type": "address"
        }
      ],
      "payable": false,
      "stateMutability": "view",
      "type": "function"
    },
    {
      "anonymous": false,
      "inputs": [
        {
          "indexed": true,
          "name": "tokenAddress",
          "type": "address"
        }
      ],
      "name": "NewToken",
      "type": "event"
    },
    {
      "constant": false,
      "inputs": [
        {
          "name": "_name",
          "type": "string"
        },
        {
          "name": "_symbol",
          "type": "string"
        },
        {
          "name": "_decimals",
          "type": "uint8"
        },
        {
          "name": "amountToIssue",
          "type": "uint256"
        }
      ],
      "name": "createToken",
      "outputs": [
        {
          "name": "token",
          "type": "address"
        }
      ],
      "payable": false,
      "stateMutability": "nonpayable",
      "type": "function"
    },
    {
      "constant": true,
      "inputs": [],
      "name": "tokensList",
      "outputs": [
        {
          "name": "",
          "type": "address[]"
        }
      ],
      "payable": false,
      "stateMutability": "view",
      "type": "function"
    },
    {
      "constant": true,
      "inputs": [
        {
          "name": "tokenAddress",
          "type": "address"
        }
      ],
      "name": "hasToken",
      "outputs": [
        {
          "name": "",
          "type": "bool"
        }
      ],
      "payable": false,
      "stateMutability": "view",
      "type": "function"
    },
    {
      "constant": false,
      "inputs": [
        {
          "name": "tokenAddress",
          "type": "address"
        },
        {
          "name": "to",
          "type": "address"
        },
        {
          "name": "amount",
          "type": "uint256"
        },
        {
          "name": "vestingTime",
          "type": "uint32"
        }
      ],
      "name": "mint",
      "outputs": [
        {
          "name": "",
          "type": "bool"
        }
      ],
      "payable": false,
      "stateMutability": "nonpayable",
      "type": "function"
    },
    {
      "constant": true,
      "inputs": [
        {
          "name": "tokenAddress",
          "type": "address"
        },
        {
          "name": "wallet",
          "type": "address"
        }
      ],
      "name": "balanceOf",
      "outputs": [
        {
          "name": "",
          "type": "uint256"
        }
      ],
      "payable": false,
      "stateMutability": "view",
      "type": "function"
    },
    {
      "constant": true,
      "inputs": [
        {
          "name": "tokenAddress",
          "type": "address"
        }
      ],
      "name": "totalSupply",
      "outputs": [
        {
          "name": "",
          "type": "uint256"
        }
      ],
      "payable": false,
      "stateMutability": "view",
      "type": "function"
    }
  ],
  "bytecode": "0x608060405234801561001057600080fd5b506123b8806100206000396000f3006080604052600436106200007d5763ffffffff60e060020a60003504166304bc3b1c811462000082578063210f5dda14620000b85780634f64b2be14620001795780639bb0f5991462000194578063a4fa9bbd14620001cc578063bd5dc2021462000202578063e4dc2aa4146200026c578063f7888aec1462000290575b600080fd5b3480156200008f57600080fd5b50620000a6600160a060020a0360043516620002ba565b60408051918252519081900360200190f35b348015620000c557600080fd5b506040805160206004803580820135601f81018490048402850184019095528484526200015d94369492936024939284019190819084018382808284375050604080516020601f89358b018035918201839004830284018301909452808352979a9998810197919650918201945092508291508401838280828437509497505050833560ff16945050506020909101359050620002cc565b60408051600160a060020a039092168252519081900360200190f35b3480156200018657600080fd5b506200015d6004356200061b565b348015620001a157600080fd5b50620001b8600160a060020a036004351662000644565b604080519115158252519081900360200190f35b348015620001d957600080fd5b50620001b8600160a060020a036004358116906024351660443563ffffffff6064351662000693565b3480156200020f57600080fd5b506200021a620007c5565b60408051602080825283518183015283519192839290830191858101910280838360005b83811015620002585781810151838201526020016200023e565b505050509050019250505060405180910390f35b3480156200027957600080fd5b50620000a6600160a060020a036004351662000829565b3480156200029d57600080fd5b50620000a6600160a060020a0360043581169060243516620008b5565b60016020526000908152604090205481565b6000620002dd85600560326200095f565b1515620002e957600080fd5b620002f884600360056200095f565b15156200030457600080fd5b600160ff84161180156200031b5750601360ff8416105b15156200032757600080fd5b6063821180156200034c57508260ff16600a0a6000198115156200034757fe5b048211155b15156200035857600080fd5b8484846200036562000cf8565b60ff82166040820152606080825284519082015283518190602080830191608084019188019080838360005b83811015620003ab57818101518382015260200162000391565b50505050905090810190601f168015620003d95780820380516001836020036101000a031916815260200191505b50838103825285518152855160209182019187019080838360005b838110156200040e578181015183820152602001620003f4565b50505050905090810190601f1680156200043c5780820380516001836020036101000a031916815260200191505b5095505050505050604051809103906000f08015801562000461573d6000803e3d6000fd5b50604080517f2348238c0000000000000000000000000000000000000000000000000000000081523360048201529051919250600160a060020a03831691632348238c9160248082019260009290919082900301818387803b158015620004c757600080fd5b505af1158015620004dc573d6000803e3d6000fd5b505060008054600160a060020a03851680835260016020818152604080862085905591840185558480527f290decd9548b62a8d60345a988386fc84ba6bc95484008f6362f93160ef3e563909301805473ffffffffffffffffffffffffffffffffffffffff19168317905580517fd0047acf00000000000000000000000000000000000000000000000000000000815233600482015260ff8a16600a0a8902602482015260448101859052905191955063d0047acf9450606480820194918390030190829087803b158015620005b157600080fd5b505af1158015620005c6573d6000803e3d6000fd5b505050506040513d6020811015620005dd57600080fd5b5050604051600160a060020a038216907f0f53e2a811b6fd2d6cd965fd6c27b44fb924ca39f7a7f321115705c22366d62390600090a2949350505050565b60008054829081106200062a57fe5b600091825260209091200154600160a060020a0316905081565b60008054811080156200068d5750600160a060020a038216600081815260016020526040812054815481106200067657fe5b600091825260209091200154600160a060020a0316145b92915050565b600080620006a18662000644565b1515620006ad57600080fd5b85905080600160a060020a031663d0047acf8683600160a060020a031663313ce5676040518163ffffffff1660e060020a028152600401602060405180830381600087803b158015620006ff57600080fd5b505af115801562000714573d6000803e3d6000fd5b505050506040513d60208110156200072b57600080fd5b50516040805163ffffffff85811660e060020a028252600160a060020a0394909416600482015260ff909216600a0a890260248301529187166044820152905160648083019260209291908290030181600087803b1580156200078d57600080fd5b505af1158015620007a2573d6000803e3d6000fd5b505050506040513d6020811015620007b957600080fd5b50519695505050505050565b606060008054806020026020016040519081016040528092919081815260200182805480156200081f57602002820191906000526020600020905b8154600160a060020a0316815260019091019060200180831162000800575b5050505050905090565b6000620008368262000644565b15156200084257600080fd5b81600160a060020a03166318160ddd6040518163ffffffff1660e060020a028152600401602060405180830381600087803b1580156200088157600080fd5b505af115801562000896573d6000803e3d6000fd5b505050506040513d6020811015620008ad57600080fd5b505192915050565b6000620008c28362000644565b1515620008ce57600080fd5b82600160a060020a03166370a08231836040518263ffffffff1660e060020a0281526004018082600160a060020a0316600160a060020a03168152602001915050602060405180830381600087803b1580156200092a57600080fd5b505af11580156200093f573d6000803e3d6000fd5b505050506040513d60208110156200095657600080fd5b50519392505050565b6000606081848410156200097257600080fd5b855186925015801562000983575084155b1562000993576001925062000cef565b8482511080620009a35750838251115b15620009af5762000cef565b816000815181101515620009bf57fe5b90602001015160f860020a900460f860020a02600160f860020a031916602060f860020a02148062000a265750815182906000198101908110620009ff57fe5b90602001015160f860020a900460f860020a02600160f860020a031916602060f860020a02145b1562000a325762000cef565b5060005b815181101562000cea57818181518110151562000a4f57fe5b90602001015160f860020a900460f860020a02600160f860020a031916602060f860020a0214801562000ab75750818160010181518110151562000a8f57fe5b90602001015160f860020a900460f860020a02600160f860020a031916602060f860020a0214155b15801562000b6b575081517f30000000000000000000000000000000000000000000000000000000000000009083908390811062000af157fe5b90602001015160f860020a900460f860020a02600160f860020a0319161015801562000b69575081517f39000000000000000000000000000000000000000000000000000000000000009083908390811062000b4957fe5b90602001015160f860020a900460f860020a02600160f860020a03191611155b155b801562000c1e575081517f41000000000000000000000000000000000000000000000000000000000000009083908390811062000ba457fe5b90602001015160f860020a900460f860020a02600160f860020a0319161015801562000c1c575081517f5a000000000000000000000000000000000000000000000000000000000000009083908390811062000bfc57fe5b90602001015160f860020a900460f860020a02600160f860020a03191611155b155b801562000cd1575081517f61000000000000000000000000000000000000000000000000000000000000009083908390811062000c5757fe5b90602001015160f860020a900460f860020a02600160f860020a0319161015801562000ccf575081517f7a000000000000000000000000000000000000000000000000000000000000009083908390811062000caf57fe5b90602001015160f860020a900460f860020a02600160f860020a03191611155b155b1562000ce1576000925062000cef565b60010162000a36565b600192505b50509392505050565b6040516116838062000d0a83390190560060806040523480156200001157600080fd5b50604051620016833803806200168383398101604090815281516020830151918301519083019291909101908282826200005433640100000000620000f1810204565b825162000069906001906020860190620001d6565b5081516200007f906002906020850190620001d6565b506003805460ff90921660ff19909216919091179055505060078054600160a060020a03191633179081905560408051600160a060020a03929092168252517f4101e71e974f68df5e9730cc223280b41654676bbb052cdcc735c3337e64d2d99181900360200190a15050506200027b565b6200010c600082640100000000620012ec6200014382021704565b604051600160a060020a038216907f44d6d25963f097ad14f29f06854a01f575648a1ef82f30e562ccd3889717e33990600090a250565b600160a060020a03811615156200015957600080fd5b6200016e82826401000000006200019e810204565b156200017957600080fd5b600160a060020a0316600090815260209190915260409020805460ff19166001179055565b6000600160a060020a0382161515620001b657600080fd5b50600160a060020a03166000908152602091909152604090205460ff1690565b828054600181600116156101000203166002900490600052602060002090601f016020900481019282601f106200021957805160ff191683800117855562000249565b8280016001018555821562000249579182015b82811115620002495782518255916020019190600101906200022c565b50620002579291506200025b565b5090565b6200027891905b8082111562000257576000815560010162000262565b90565b6113f8806200028b6000396000f3006080604052600436106101485763ffffffff7c010000000000000000000000000000000000000000000000000000000060003504166306fdde03811461014d578063095ea7b3146101d75780631785f53c1461020f57806318160ddd146102325780632348238c1461025957806323b872dd1461027a57806324d7806c146102a4578063313ce567146102c557806339509351146102f057806342966c68146103145780634afbf5ee1461032c5780636618846314610350578063704802751461037457806370a082311461039557806379cc6790146103b65780638bad0c0a146103da57806395d89b41146103ef5780639d2e477714610404578063a457c2d714610431578063a9059cbb14610455578063c6dbdf6114610479578063d0047acf146104aa578063d294cb0f146104d7578063d73dd623146104f8578063dd62ed3e1461051c575b600080fd5b34801561015957600080fd5b50610162610543565b6040805160208082528351818301528351919283929083019185019080838360005b8381101561019c578181015183820152602001610184565b50505050905090810190601f1680156101c95780820380516001836020036101000a031916815260200191505b509250505060405180910390f35b3480156101e357600080fd5b506101fb600160a060020a03600435166024356105d8565b604080519115158252519081900360200190f35b34801561021b57600080fd5b50610230600160a060020a0360043516610656565b005b34801561023e57600080fd5b50610247610679565b60408051918252519081900360200190f35b34801561026557600080fd5b50610230600160a060020a036004351661067f565b34801561028657600080fd5b506101fb600160a060020a0360043581169060243516604435610712565b3480156102b057600080fd5b506101fb600160a060020a036004351661075a565b3480156102d157600080fd5b506102da610772565b6040805160ff9092168252519081900360200190f35b3480156102fc57600080fd5b506101fb600160a060020a036004351660243561077b565b34801561032057600080fd5b5061023060043561082b565b34801561033857600080fd5b50610247600160a060020a0360043516602435610835565b34801561035c57600080fd5b506101fb600160a060020a036004351660243561085d565b34801561038057600080fd5b50610230600160a060020a0360043516610870565b3480156103a157600080fd5b50610247600160a060020a0360043516610890565b3480156103c257600080fd5b50610230600160a060020a03600435166024356108ab565b3480156103e657600080fd5b506102306108b9565b3480156103fb57600080fd5b506101626108c4565b34801561041057600080fd5b506101fb600160a060020a036004351660243563ffffffff60443516610922565b34801561043d57600080fd5b506101fb600160a060020a036004351660243561096d565b34801561046157600080fd5b506101fb600160a060020a03600435166024356109b8565b34801561048557600080fd5b5061048e6109f7565b60408051600160a060020a039092168252519081900360200190f35b3480156104b657600080fd5b506101fb600160a060020a036004351660243563ffffffff60443516610a06565b3480156104e357600080fd5b50610247600160a060020a0360043516610a47565b34801561050457600080fd5b506101fb600160a060020a0360043516602435610b50565b34801561052857600080fd5b50610247600160a060020a0360043581169060243516610b5c565b60018054604080516020601f600260001961010087891615020190951694909404938401819004810282018101909252828152606093909290918301828280156105ce5780601f106105a3576101008083540402835291602001916105ce565b820191906000526020600020905b8154815290600101906020018083116105b157829003601f168201915b5050505050905090565b6000600160a060020a03831615156105ef57600080fd5b336000818152600560209081526040808320600160a060020a03881680855290835292819020869055805186815290519293927f8c5be1e5ebec7d5bd14f71427d1e84f3dd0314c0f7b2291e5b200ac8c7c3b925929181900390910190a350600192915050565b600754600160a060020a0316331461066d57600080fd5b61067681610b87565b50565b60065490565b600754600160a060020a0316331461069657600080fd5b600160a060020a03811615156106ab57600080fd5b6007805473ffffffffffffffffffffffffffffffffffffffff1916600160a060020a03838116919091179182905560408051929091168252517f4101e71e974f68df5e9730cc223280b41654676bbb052cdcc735c3337e64d2d9916020908290030190a150565b600061071d84610bcf565b600160a060020a038316151561073257600080fd5b61073b84610a47565b82111561074757600080fd5b610752848484610d55565b949350505050565b600061076c818363ffffffff610de816565b92915050565b60035460ff1690565b6000600160a060020a038316151561079257600080fd5b336000908152600560209081526040808320600160a060020a03871684529091529020546107c6908363ffffffff610e1f16565b336000818152600560209081526040808320600160a060020a0389168085529083529281902085905580519485525191937f8c5be1e5ebec7d5bd14f71427d1e84f3dd0314c0f7b2291e5b200ac8c7c3b925929081900390910190a350600192915050565b6106763382610e31565b600160a060020a03919091166000908152600860209081526040808320938352929052205490565b6000610869838361096d565b9392505050565b600754600160a060020a0316331461088757600080fd5b61067681610e59565b600160a060020a031660009081526004602052604090205490565b6108b58282610ea1565b5050565b6108c233610b87565b565b60028054604080516020601f60001961010060018716150201909416859004938401819004810282018101909252828152606093909290918301828280156105ce5780601f106105a3576101008083540402835291602001916105ce565b600061092d3361075a565b151561093857600080fd5b61094284846109b8565b50428263ffffffff1611156109635761096333858463ffffffff1686610ec9565b5060019392505050565b6000600160a060020a038316151561098457600080fd5b336000908152600560209081526040808320600160a060020a03871684529091529020546107c6908363ffffffff61100316565b60006109c333610bcf565b600160a060020a03831615156109d857600080fd5b6109e133610a47565b8211156109ed57600080fd5b610869838361101a565b600754600160a060020a031690565b6000610a113361075a565b1515610a1c57600080fd5b610a268484611030565b428263ffffffff161115610963576109636000858463ffffffff1686610ec9565b600080610a5383610890565b600160a060020a03841660009081526008602090815260408083208380529091529020549092501515610a8557610b4a565b5060005b600160a060020a038316600090815260096020526040902054811015610b4a57600160a060020a0383166000908152600960205260409020805442919083908110610ad057fe5b9060005260206000200154101515610b4257600160a060020a0383166000908152600860209081526040808320600990925282208054610b3f93919085908110610b1657fe5b90600052602060002001548152602001908152602001600020548361100390919063ffffffff16565b91505b600101610a89565b50919050565b6000610869838361077b565b600160a060020a03918216600090815260056020908152604080832093909416825291909152205490565b610b9860008263ffffffff6110dc16565b604051600160a060020a038216907fa3b62bc36326052d97ea62d63c3d60308ed4c3ea8ac079dd8499f1e9c4f80c0f90600090a250565b6000600160a060020a0382161515610be657600080fd5b600160a060020a03821660009081526008602090815260408083208380529091529020541515610c15576108b5565b5060005b600160a060020a0382166000908152600960205260409020548110156108b557600160a060020a0382166000908152600960205260409020805442919083908110610c6057fe5b90600052602060002001541015610d4d57600160a060020a0382166000908152600860209081526040808320600990925282208054610ceb93919085908110610ca557fe5b60009182526020808320909101548352828101939093526040918201812054600160a060020a03871682526008845282822082805290935220549063ffffffff61100316565b600160a060020a03831660008181526008602090815260408083208380528083528184209590955592825260099052908120805491929183919085908110610d2f57fe5b90600052602060002001548152602001908152602001600020819055505b600101610c19565b600160a060020a0383166000908152600560209081526040808320338452909152812054821115610d8557600080fd5b600160a060020a0384166000908152600560209081526040808320338452909152902054610db9908363ffffffff61100316565b600160a060020a0385166000908152600560209081526040808320338452909152902055610963848484611128565b6000600160a060020a0382161515610dff57600080fd5b50600160a060020a03166000908152602091909152604090205460ff1690565b60008282018381101561086957600080fd5b610e3a82610bcf565b610e4382610a47565b811115610e4f57600080fd5b6108b5828261121c565b610e6a60008263ffffffff6112ec16565b604051600160a060020a038216907f44d6d25963f097ad14f29f06854a01f575648a1ef82f30e562ccd3889717e33990600090a250565b610eaa82610bcf565b610eb382610a47565b811115610ebf57600080fd5b6108b5828261133a565b600160a060020a0383166000908152600860209081526040808320838052909152902054610efd908263ffffffff610e1f16565b600160a060020a03841660009081526008602090815260408083208380529091528082209290925583815220541515610f5c57600160a060020a0383166000908152600960209081526040822080546001810182559083529120018290555b600160a060020a0383166000908152600860209081526040808320858452909152902054610f90908263ffffffff610e1f16565b600160a060020a0380851660008181526008602090815260408083208884528252918290209490945580519288168352928201528082018390526060810184905290517f4dd99b63a45b55ac0b6999b9307251132e130b3e3f06c04c92b946c0f9e0dc279181900360800190a150505050565b6000808383111561101357600080fd5b5050900390565b6000611027338484611128565b50600192915050565b600160a060020a038216151561104557600080fd5b600654611058908263ffffffff610e1f16565b600655600160a060020a038216600090815260046020526040902054611084908263ffffffff610e1f16565b600160a060020a03831660008181526004602090815260408083209490945583518581529351929391927fddf252ad1be2c89b69c2b068fc378daa952ba7f163c4a11628f55a4df523b3ef9281900390910190a35050565b600160a060020a03811615156110f157600080fd5b6110fb8282610de8565b151561110657600080fd5b600160a060020a0316600090815260209190915260409020805460ff19169055565b600160a060020a03831660009081526004602052604090205481111561114d57600080fd5b600160a060020a038216151561116257600080fd5b600160a060020a03831660009081526004602052604090205461118b908263ffffffff61100316565b600160a060020a0380851660009081526004602052604080822093909355908416815220546111c0908263ffffffff610e1f16565b600160a060020a0380841660008181526004602090815260409182902094909455805185815290519193928716927fddf252ad1be2c89b69c2b068fc378daa952ba7f163c4a11628f55a4df523b3ef92918290030190a3505050565b600160a060020a038216151561123157600080fd5b600160a060020a03821660009081526004602052604090205481111561125657600080fd5b600654611269908263ffffffff61100316565b600655600160a060020a038216600090815260046020526040902054611295908263ffffffff61100316565b600160a060020a0383166000818152600460209081526040808320949094558351858152935191937fddf252ad1be2c89b69c2b068fc378daa952ba7f163c4a11628f55a4df523b3ef929081900390910190a35050565b600160a060020a038116151561130157600080fd5b61130b8282610de8565b1561131557600080fd5b600160a060020a0316600090815260209190915260409020805460ff19166001179055565b600160a060020a038216600090815260056020908152604080832033845290915290205481111561136a57600080fd5b600160a060020a038216600090815260056020908152604080832033845290915290205461139e908263ffffffff61100316565b600160a060020a03831660009081526005602090815260408083203384529091529020556108b58282610e315600a165627a7a72305820062db0e6b0457b0016fe92cec01a2f813c664af8fd4f12281ebacf073384bab80029a165627a7a7230582000bc0f5dae172da53423cdfb79c74e9cde83ab74f4f2c3942053c3646e484b4f0029",
  "source": "pragma solidity ^0.4.24;\n\nimport \"./WToken.sol\";\n\ncontract WTokenTestHelper {\n    address[] public tokens;\n    mapping(address => uint256) public tokenIndexes;\n\n    event NewToken(address indexed tokenAddress);\n\n    function createToken(string _name, string _symbol, uint8 _decimals, uint amountToIssue) public returns(WToken token) {\n        require(_isStringValid(_name, 5, 50));\n        require(_isStringValid(_symbol, 3, 5));\n        require(_decimals > uint8(1) && _decimals < uint8(19));\n        require(amountToIssue > 99 && amountToIssue <= (uint(-1) / 10 ** uint(_decimals)));\n\n        token = new WToken(_name, _symbol, _decimals);\n        token.transferPrimary(msg.sender);\n\n        tokenIndexes[address(token)] = tokens.length;\n        tokens.push(address(token));\n\n        token.mint(msg.sender, amountToIssue * 10 ** uint(_decimals), 0);\n\n        emit NewToken(token);\n    }\n\n    function tokensList() public view returns(address[]) {\n        return tokens;\n    }\n\n    function hasToken(address tokenAddress) public view returns (bool) {\n        return tokens.length > 0 && tokens[tokenIndexes[tokenAddress]] == tokenAddress;\n    }\n\n    function mint(address tokenAddress, address to, uint amount, uint32 vestingTime) public returns (bool) {\n        require(hasToken(tokenAddress));\n\n        WToken token = WToken(tokenAddress);\n\n        return token.mint(to, amount * 10 ** uint(token.decimals()), vestingTime);\n    }\n\n    function balanceOf(address tokenAddress, address wallet) public view returns (uint) {\n        require(hasToken(tokenAddress));\n\n        return WToken(tokenAddress).balanceOf(wallet);\n    }\n\n    function totalSupply(address tokenAddress) public view returns (uint) {\n        require(hasToken(tokenAddress));\n\n        return WToken(tokenAddress).totalSupply();\n    }\n\n    function _isStringValid(string _string, uint minLn, uint maxLn) internal pure returns(bool) {\n        require(maxLn >= minLn);\n\n        bytes memory _stringBytes = bytes(_string);\n\n        // allow empty\n        if (_stringBytes.length == 0 && minLn == 0) return true;\n        // not match length\n        if (_stringBytes.length < minLn || _stringBytes.length > maxLn) return;\n        // spaces at beginning and ending\n        if (_stringBytes[0] == 0x20 || _stringBytes[_stringBytes.length - 1] == 0x20) return;\n\n        for(uint i = 0; i < _stringBytes.length; i++) {\n            if (\n                !(_stringBytes[i] == 0x20 && _stringBytes[i + 1] != 0x20)  // space, not followed by space\n                && !(_stringBytes[i] >= 0x30 && _stringBytes[i] <= 0x39) // 0-9\n                && !(_stringBytes[i] >= 0x41 && _stringBytes[i] <= 0x5a) // A-Z\n                && !(_stringBytes[i] >= 0x61 && _stringBytes[i] <= 0x7a) // a-z\n            ) return false;\n        }\n\n        return true;\n    }\n}\n",
  "sourcePath": "/home/circleci/code/contracts/token/WTokenTestHelper.sol",
  "compiler": {
    "name": "solc",
    "version": "0.4.24+commit.e67f0147.Emscripten.clang"
  },
  "schemaVersion": "2.0.1",
  "updatedAt": "2018-12-06T13:15:33.741Z"
}