{
  "contractName": "WToken",
  "abi": [
    {
      "constant": true,
      "inputs": [],
      "name": "name",
      "outputs": [
        {
          "name": "",
          "type": "string"
        }
      ],
      "payable": false,
      "stateMutability": "view",
      "type": "function"
    },
    {
      "constant": true,
      "inputs": [
        {
          "name": "",
          "type": "address"
        }
      ],
      "name": "balances",
      "outputs": [
        {
          "name": "",
          "type": "uint256"
        }
      ],
      "payable": false,
      "stateMutability": "view",
      "type": "function"
    },
    {
      "constant": true,
      "inputs": [],
      "name": "decimals",
      "outputs": [
        {
          "name": "",
          "type": "uint8"
        }
      ],
      "payable": false,
      "stateMutability": "view",
      "type": "function"
    },
    {
      "constant": true,
      "inputs": [
        {
          "name": "",
          "type": "address"
        },
        {
          "name": "",
          "type": "uint256"
        }
      ],
      "name": "vestingBalanceOf",
      "outputs": [
        {
          "name": "",
          "type": "uint256"
        }
      ],
      "payable": false,
      "stateMutability": "view",
      "type": "function"
    },
    {
      "constant": false,
      "inputs": [],
      "name": "renounceOwnership",
      "outputs": [],
      "payable": false,
      "stateMutability": "nonpayable",
      "type": "function"
    },
    {
      "constant": true,
      "inputs": [],
      "name": "owner",
      "outputs": [
        {
          "name": "",
          "type": "address"
        }
      ],
      "payable": false,
      "stateMutability": "view",
      "type": "function"
    },
    {
      "constant": true,
      "inputs": [],
      "name": "symbol",
      "outputs": [
        {
          "name": "",
          "type": "string"
        }
      ],
      "payable": false,
      "stateMutability": "view",
      "type": "function"
    },
    {
      "constant": false,
      "inputs": [
        {
          "name": "_newOwner",
          "type": "address"
        }
      ],
      "name": "transferOwnership",
      "outputs": [],
      "payable": false,
      "stateMutability": "nonpayable",
      "type": "function"
    },
    {
      "inputs": [
        {
          "name": "_name",
          "type": "string"
        },
        {
          "name": "_symbol",
          "type": "string"
        },
        {
          "name": "_decimals",
          "type": "uint8"
        }
      ],
      "payable": false,
      "stateMutability": "nonpayable",
      "type": "constructor"
    },
    {
      "anonymous": false,
      "inputs": [
        {
          "indexed": false,
          "name": "from",
          "type": "address"
        },
        {
          "indexed": false,
          "name": "to",
          "type": "address"
        },
        {
          "indexed": false,
          "name": "value",
          "type": "uint256"
        },
        {
          "indexed": false,
          "name": "agingTime",
          "type": "uint256"
        }
      ],
      "name": "VestingTransfer",
      "type": "event"
    },
    {
      "anonymous": false,
      "inputs": [
        {
          "indexed": true,
          "name": "burner",
          "type": "address"
        },
        {
          "indexed": false,
          "name": "value",
          "type": "uint256"
        }
      ],
      "name": "Burn",
      "type": "event"
    },
    {
      "anonymous": false,
      "inputs": [
        {
          "indexed": true,
          "name": "previousOwner",
          "type": "address"
        }
      ],
      "name": "OwnershipRenounced",
      "type": "event"
    },
    {
      "anonymous": false,
      "inputs": [
        {
          "indexed": true,
          "name": "previousOwner",
          "type": "address"
        },
        {
          "indexed": true,
          "name": "newOwner",
          "type": "address"
        }
      ],
      "name": "OwnershipTransferred",
      "type": "event"
    },
    {
      "anonymous": false,
      "inputs": [
        {
          "indexed": true,
          "name": "owner",
          "type": "address"
        },
        {
          "indexed": true,
          "name": "spender",
          "type": "address"
        },
        {
          "indexed": false,
          "name": "value",
          "type": "uint256"
        }
      ],
      "name": "Approval",
      "type": "event"
    },
    {
      "anonymous": false,
      "inputs": [
        {
          "indexed": true,
          "name": "from",
          "type": "address"
        },
        {
          "indexed": true,
          "name": "to",
          "type": "address"
        },
        {
          "indexed": false,
          "name": "value",
          "type": "uint256"
        }
      ],
      "name": "Transfer",
      "type": "event"
    },
    {
      "constant": true,
      "inputs": [],
      "name": "totalSupply",
      "outputs": [
        {
          "name": "",
          "type": "uint256"
        }
      ],
      "payable": false,
      "stateMutability": "view",
      "type": "function"
    },
    {
      "constant": false,
      "inputs": [
        {
          "name": "_to",
          "type": "address"
        },
        {
          "name": "_value",
          "type": "uint256"
        }
      ],
      "name": "transfer",
      "outputs": [
        {
          "name": "",
          "type": "bool"
        }
      ],
      "payable": false,
      "stateMutability": "nonpayable",
      "type": "function"
    },
    {
      "constant": false,
      "inputs": [
        {
          "name": "_to",
          "type": "address"
        },
        {
          "name": "_value",
          "type": "uint256"
        },
        {
          "name": "_vestingTime",
          "type": "uint32"
        }
      ],
      "name": "vestingTransfer",
      "outputs": [
        {
          "name": "",
          "type": "bool"
        }
      ],
      "payable": false,
      "stateMutability": "nonpayable",
      "type": "function"
    },
    {
      "constant": true,
      "inputs": [
        {
          "name": "_owner",
          "type": "address"
        }
      ],
      "name": "balanceOf",
      "outputs": [
        {
          "name": "balance",
          "type": "uint256"
        }
      ],
      "payable": false,
      "stateMutability": "view",
      "type": "function"
    },
    {
      "constant": false,
      "inputs": [
        {
          "name": "_from",
          "type": "address"
        },
        {
          "name": "_to",
          "type": "address"
        },
        {
          "name": "_value",
          "type": "uint256"
        }
      ],
      "name": "transferFrom",
      "outputs": [
        {
          "name": "",
          "type": "bool"
        }
      ],
      "payable": false,
      "stateMutability": "nonpayable",
      "type": "function"
    },
    {
      "constant": false,
      "inputs": [
        {
          "name": "_spender",
          "type": "address"
        },
        {
          "name": "_value",
          "type": "uint256"
        }
      ],
      "name": "approve",
      "outputs": [
        {
          "name": "",
          "type": "bool"
        }
      ],
      "payable": false,
      "stateMutability": "nonpayable",
      "type": "function"
    },
    {
      "constant": true,
      "inputs": [
        {
          "name": "_owner",
          "type": "address"
        },
        {
          "name": "_spender",
          "type": "address"
        }
      ],
      "name": "allowance",
      "outputs": [
        {
          "name": "",
          "type": "uint256"
        }
      ],
      "payable": false,
      "stateMutability": "view",
      "type": "function"
    },
    {
      "constant": false,
      "inputs": [
        {
          "name": "_spender",
          "type": "address"
        },
        {
          "name": "_addedValue",
          "type": "uint256"
        }
      ],
      "name": "increaseApproval",
      "outputs": [
        {
          "name": "",
          "type": "bool"
        }
      ],
      "payable": false,
      "stateMutability": "nonpayable",
      "type": "function"
    },
    {
      "constant": false,
      "inputs": [
        {
          "name": "_spender",
          "type": "address"
        },
        {
          "name": "_subtractedValue",
          "type": "uint256"
        }
      ],
      "name": "decreaseApproval",
      "outputs": [
        {
          "name": "",
          "type": "bool"
        }
      ],
      "payable": false,
      "stateMutability": "nonpayable",
      "type": "function"
    },
    {
      "constant": false,
      "inputs": [
        {
          "name": "_to",
          "type": "address"
        },
        {
          "name": "_amount",
          "type": "uint256"
        },
        {
          "name": "_vestingTime",
          "type": "uint32"
        }
      ],
      "name": "mint",
      "outputs": [
        {
          "name": "",
          "type": "bool"
        }
      ],
      "payable": false,
      "stateMutability": "nonpayable",
      "type": "function"
    },
    {
      "constant": false,
      "inputs": [
        {
          "name": "_value",
          "type": "uint256"
        }
      ],
      "name": "burn",
      "outputs": [],
      "payable": false,
      "stateMutability": "nonpayable",
      "type": "function"
    },
    {
      "constant": false,
      "inputs": [
        {
          "name": "_from",
          "type": "address"
        },
        {
          "name": "_value",
          "type": "uint256"
        }
      ],
      "name": "burnFrom",
      "outputs": [],
      "payable": false,
      "stateMutability": "nonpayable",
      "type": "function"
    },
    {
      "constant": true,
      "inputs": [
        {
          "name": "_address",
          "type": "address"
        }
      ],
      "name": "accountBalance",
      "outputs": [
        {
          "name": "balance",
          "type": "uint256"
        }
      ],
      "payable": false,
      "stateMutability": "view",
      "type": "function"
    },
    {
      "constant": false,
      "inputs": [
        {
          "name": "caller",
          "type": "address"
        }
      ],
      "name": "addTrustedAccount",
      "outputs": [],
      "payable": false,
      "stateMutability": "nonpayable",
      "type": "function"
    },
    {
      "constant": false,
      "inputs": [
        {
          "name": "caller",
          "type": "address"
        }
      ],
      "name": "removeTrustedAccount",
      "outputs": [],
      "payable": false,
      "stateMutability": "nonpayable",
      "type": "function"
    }
  ],
  "bytecode": "0x60806040523480156200001157600080fd5b50604051620014c6380380620014c68339810160409081528151602080840151928401519184018051909493909301928491849184916200005891600091860190620000ba565b5081516200006e906001906020850190620000ba565b506002805460ff90921660ff1992831617905560058054600160a060020a031916339081179091556000908152600b6020526040902080549091166001179055506200015f9350505050565b828054600181600116156101000203166002900490600052602060002090601f016020900481019282601f10620000fd57805160ff19168380011785556200012d565b828001600101855582156200012d579182015b828111156200012d57825182559160200191906001019062000110565b506200013b9291506200013f565b5090565b6200015c91905b808211156200013b576000815560010162000146565b90565b611357806200016f6000396000f3006080604052600436106101325763ffffffff7c010000000000000000000000000000000000000000000000000000000060003504166306fdde038114610137578063095ea7b3146101c157806318160ddd146101f957806323b872dd1461022057806327e235e31461024a578063313ce5671461026b57806342966c68146102965780634afbf5ee146102b057806366188463146102d457806370a08231146102f8578063715018a61461031957806379cc67901461032e5780638da5cb5b1461035257806395d89b41146103835780639d2e477714610398578063a9059cbb146103c5578063ba0e0f5e146103e9578063d0047acf1461040a578063d294cb0f14610437578063d73dd62314610458578063d88b86761461047c578063dd62ed3e1461049d578063f2fde38b146104c4575b600080fd5b34801561014357600080fd5b5061014c6104e5565b6040805160208082528351818301528351919283929083019185019080838360005b8381101561018657818101518382015260200161016e565b50505050905090810190601f1680156101b35780820380516001836020036101000a031916815260200191505b509250505060405180910390f35b3480156101cd57600080fd5b506101e5600160a060020a0360043516602435610573565b604080519115158252519081900360200190f35b34801561020557600080fd5b5061020e6105d9565b60408051918252519081900360200190f35b34801561022c57600080fd5b506101e5600160a060020a03600435811690602435166044356105df565b34801561025657600080fd5b5061020e600160a060020a036004351661073f565b34801561027757600080fd5b50610280610751565b6040805160ff9092168252519081900360200190f35b3480156102a257600080fd5b506102ae60043561075a565b005b3480156102bc57600080fd5b5061020e600160a060020a0360043516602435610767565b3480156102e057600080fd5b506101e5600160a060020a0360043516602435610784565b34801561030457600080fd5b5061020e600160a060020a0360043516610873565b34801561032557600080fd5b506102ae61088e565b34801561033a57600080fd5b506102ae600160a060020a03600435166024356108fc565b34801561035e57600080fd5b50610367610992565b60408051600160a060020a039092168252519081900360200190f35b34801561038f57600080fd5b5061014c6109a1565b3480156103a457600080fd5b506101e5600160a060020a036004351660243563ffffffff604435166109fb565b3480156103d157600080fd5b506101e5600160a060020a0360043516602435610aa7565b3480156103f557600080fd5b506102ae600160a060020a0360043516610b7a565b34801561041657600080fd5b506101e5600160a060020a036004351660243563ffffffff60443516610bb2565b34801561044357600080fd5b5061020e600160a060020a0360043516610cf8565b34801561046457600080fd5b506101e5600160a060020a0360043516602435610dfd565b34801561048857600080fd5b506102ae600160a060020a0360043516610e96565b3480156104a957600080fd5b5061020e600160a060020a0360043581169060243516610ed1565b3480156104d057600080fd5b506102ae600160a060020a0360043516610efc565b6000805460408051602060026001851615610100026000190190941693909304601f8101849004840282018401909252818152929183018282801561056b5780601f106105405761010080835404028352916020019161056b565b820191906000526020600020905b81548152906001019060200180831161054e57829003601f168201915b505050505081565b336000818152600660209081526040808320600160a060020a038716808552908352818420869055815186815291519394909390927f8c5be1e5ebec7d5bd14f71427d1e84f3dd0314c0f7b2291e5b200ac8c7c3b925928290030190a350600192915050565b60085490565b60006105ea84610f1c565b600160a060020a03831615156105ff57600080fd5b61060884610cf8565b82111561061457600080fd5b600160a060020a038416600090815260066020908152604080832033845290915290205482111561064457600080fd5b600160a060020a03841660009081526007602052604090205461066d908363ffffffff61108b16565b600160a060020a0380861660009081526007602052604080822093909355908516815220546106a2908363ffffffff61109d16565b600160a060020a0380851660009081526007602090815260408083209490945591871681526006825282812033825290915220546106e6908363ffffffff61108b16565b600160a060020a038086166000818152600660209081526040808320338452825291829020949094558051868152905192871693919260008051602061130c833981519152929181900390910190a35060019392505050565b60076020526000908152604090205481565b60025460ff1681565b61076433826110b0565b50565b600960209081526000928352604080842090915290825290205481565b336000908152600660209081526040808320600160a060020a03861684529091528120548083106107d857336000908152600660209081526040808320600160a060020a038816845290915281205561080d565b6107e8818463ffffffff61108b16565b336000908152600660209081526040808320600160a060020a03891684529091529020555b336000818152600660209081526040808320600160a060020a0389168085529083529281902054815190815290519293927f8c5be1e5ebec7d5bd14f71427d1e84f3dd0314c0f7b2291e5b200ac8c7c3b925929181900390910190a35060019392505050565b600160a060020a031660009081526007602052604090205490565b600554600160a060020a031633146108a557600080fd5b600554604051600160a060020a03909116907ff8df31144d9c2f0f6b59d69b8b98abd5459d07f2742c4df920b25aae33c6482090600090a26005805473ffffffffffffffffffffffffffffffffffffffff19169055565b600160a060020a038216600090815260066020908152604080832033845290915290205481111561092c57600080fd5b600160a060020a0382166000908152600660209081526040808320338452909152902054610960908263ffffffff61108b16565b600160a060020a038316600090815260066020908152604080832033845290915290205561098e82826110b0565b5050565b600554600160a060020a031681565b60018054604080516020600284861615610100026000190190941693909304601f8101849004840282018401909252818152929183018282801561056b5780601f106105405761010080835404028352916020019161056b565b336000818152600b602052604081205490919060ff161515610a1c57600080fd5b610a268585610aa7565b50428363ffffffff161115610a4857610a486000868563ffffffff1687611198565b60408051338152600160a060020a038716602082015280820186905263ffffffff8516606082015290517f5075049792a88eedfe4e60bb3ffeac77b4fa7f03108b81fb0b460161b983e2009181900360800190a1506001949350505050565b6000610ab233610f1c565b600160a060020a0383161515610ac757600080fd5b610ad033610cf8565b821115610adc57600080fd5b33600090815260076020526040902054610afc908363ffffffff61108b16565b3360009081526007602052604080822092909255600160a060020a03851681522054610b2e908363ffffffff61109d16565b600160a060020a03841660008181526007602090815260409182902093909355805185815290519192339260008051602061130c8339815191529281900390910190a350600192915050565b600554600160a060020a03163314610b9157600080fd5b600160a060020a03166000908152600b60205260409020805460ff19169055565b336000818152600b602052604081205490919060ff161515610bd357600080fd5b600854610be6818663ffffffff61109d16565b11610bf057600080fd5b428363ffffffff161115610c1157610c116000868563ffffffff1687611198565b600160a060020a038516600090815260076020526040902054610c3a908563ffffffff61109d16565b600160a060020a038616600090815260076020526040902055600854610c66908563ffffffff61109d16565b600855604080518581529051600160a060020a0387169160009160008051602061130c8339815191529181900360200190a36040805160008152600160a060020a038716602082015280820186905263ffffffff8516606082015290517f5075049792a88eedfe4e60bb3ffeac77b4fa7f03108b81fb0b460161b983e2009181900360800190a1506001949350505050565b600160a060020a038116600090815260076020908152604080832054600983528184208480529092528220549091901515610d3257610df7565b5060005b600160a060020a0383166000908152600a6020526040902054811015610df757600160a060020a0383166000908152600a60205260409020805442919083908110610d7d57fe5b9060005260206000200154101515610def57600160a060020a0383166000908152600960209081526040808320600a90925282208054610dec93919085908110610dc357fe5b90600052602060002001548152602001908152602001600020548361108b90919063ffffffff16565b91505b600101610d36565b50919050565b336000908152600660209081526040808320600160a060020a0386168452909152812054610e31908363ffffffff61109d16565b336000818152600660209081526040808320600160a060020a0389168085529083529281902085905580519485525191937f8c5be1e5ebec7d5bd14f71427d1e84f3dd0314c0f7b2291e5b200ac8c7c3b925929081900390910190a350600192915050565b600554600160a060020a03163314610ead57600080fd5b600160a060020a03166000908152600b60205260409020805460ff19166001179055565b600160a060020a03918216600090815260066020908152604080832093909416825291909152205490565b600554600160a060020a03163314610f1357600080fd5b6107648161128d565b600160a060020a03811660009081526009602090815260408083208380529091528120541515610f4b5761098e565b5060005b600160a060020a0382166000908152600a602052604090205481101561098e57600160a060020a0382166000908152600a60205260409020805442919083908110610f9657fe5b9060005260206000200154101561108357600160a060020a0382166000908152600960209081526040808320600a9092528220805461102193919085908110610fdb57fe5b60009182526020808320909101548352828101939093526040918201812054600160a060020a03871682526009845282822082805290935220549063ffffffff61108b16565b600160a060020a038316600081815260096020908152604080832083805280835281842095909555928252600a905290812080549192918391908590811061106557fe5b90600052602060002001548152602001908152602001600020819055505b600101610f4f565b60008282111561109757fe5b50900390565b818101828110156110aa57fe5b92915050565b6110b982610f1c565b6110c282610cf8565b8111156110ce57600080fd5b600160a060020a0382166000908152600760205260409020546110f7908263ffffffff61108b16565b600160a060020a038316600090815260076020526040902055600854611123908263ffffffff61108b16565b600855604080518281529051600160a060020a038416917fcc16f5dbb4873280815c1ee09dbd06736cffcc184412cf7a71a0fdb75d397ca5919081900360200190a2604080518281529051600091600160a060020a0385169160008051602061130c8339815191529181900360200190a35050565b600160a060020a03831660009081526009602090815260408083208380529091529020546111cc908263ffffffff61109d16565b600160a060020a0384166000908152600960209081526040808320838052909152808220929092558381522054151561122b57600160a060020a0383166000908152600a60209081526040822080546001810182559083529120018290555b600160a060020a038316600090815260096020908152604080832085845290915290205461125f908263ffffffff61109d16565b600160a060020a03909316600090815260096020908152604080832094835293905291909120919091555050565b600160a060020a03811615156112a257600080fd5b600554604051600160a060020a038084169216907f8be0079c531659141344cd1fd0a4f28419497f9722a3daafe3b4186f6b6457e090600090a36005805473ffffffffffffffffffffffffffffffffffffffff1916600160a060020a03929092169190911790555600ddf252ad1be2c89b69c2b068fc378daa952ba7f163c4a11628f55a4df523b3efa165627a7a7230582001f3b8ffebfc578122646c111958154798ff2fde3bc58f72b8cbe911bdfe9e600029",
  "source": "pragma solidity ^0.4.24;\n\nimport \"openzeppelin-solidity/contracts/ownership/Ownable.sol\";\nimport \"openzeppelin-solidity/contracts/math/SafeMath.sol\";\nimport \"./IWToken.sol\";\n\n\ncontract WToken is IWToken, Ownable {\n    using SafeMath for uint256;\n\n    mapping (address => mapping (address => uint256)) internal allowed;\n\n    mapping(address => uint256) public balances;\n\n    uint256 private _totalSupply;\n\n    mapping (address => mapping (uint256 => uint256)) public vestingBalanceOf;\n\n    mapping (address => uint[]) vestingTimes;\n\n    mapping (address => bool) trustedAccounts;\n\n    event VestingTransfer(address from, address to, uint256 value, uint256 agingTime);\n    event Burn(address indexed burner, uint256 value);\n\n    /**\n    * @dev total number of tokens in existence\n    */\n    function totalSupply() public view returns (uint256) {\n        return _totalSupply;\n    }\n\n    constructor(string _name, string _symbol, uint8 _decimals) DetailedERC20(_name, _symbol, _decimals) public {\n        trustedAccounts[msg.sender] = true;\n    }\n\n    /**\n    * @dev transfer token for a specified address\n    * @param _to The address to transfer to.\n    * @param _value The amount to be transferred.\n    */\n    function transfer(address _to, uint256 _value) public returns (bool) {\n        _checkMyVesting(msg.sender);\n        require(_to != address(0));\n        require(_value <= accountBalance(msg.sender));\n\n        balances[msg.sender] = balances[msg.sender].sub(_value);\n\n        balances[_to] = balances[_to].add(_value);\n\n        emit Transfer(msg.sender, _to, _value);\n\n        return true;\n    }\n\n    function vestingTransfer(address _to, uint256 _value, uint32 _vestingTime) external onlyTrusted(msg.sender) returns (bool) {\n        transfer(_to, _value);\n\n        if (_vestingTime > now) {\n            _addToVesting(address(0), _to, _vestingTime, _value);\n        }\n\n        emit VestingTransfer(msg.sender, _to, _value, _vestingTime);\n\n        return true;\n    }\n\n    /**\n    * @dev Gets the balance of the specified address.\n    * @param _owner The address to query the the balance of.\n    * @return An uint256 representing the amount owned by the passed address.\n    */\n    function balanceOf(address _owner) public view returns (uint256 balance) {\n        return balances[_owner];\n    }\n\n    /**\n    * @dev Transfer tokens from one address to another\n    * @param _from address The address which you want to send tokens from\n    * @param _to address The address which you want to transfer to\n    * @param _value uint256 the amount of tokens to be transferred\n    */\n    function transferFrom(address _from, address _to, uint256 _value) public returns (bool) {\n        _checkMyVesting(_from);\n\n        require(_to != address(0));\n        require(_value <= accountBalance(_from));\n        require(_value <= allowed[_from][msg.sender]);\n\n        balances[_from] = balances[_from].sub(_value);\n        balances[_to] = balances[_to].add(_value);\n        allowed[_from][msg.sender] = allowed[_from][msg.sender].sub(_value);\n\n        emit Transfer(_from, _to, _value);\n        return true;\n    }\n\n    /**\n    * @dev Approve the passed address to spend the specified amount of tokens on behalf of msg.sender.\n    *\n    * Beware that changing an allowance with this method brings the risk that someone may use both the old\n    * and the new allowance by unfortunate transaction ordering. One possible solution to mitigate this\n    * race condition is to first reduce the spender's allowance to 0 and set the desired value afterwards:\n    * https://github.com/ethereum/EIPs/issues/20#issuecomment-263524729\n    * @param _spender The address which will spend the funds.\n    * @param _value The amount of tokens to be spent.\n    */\n    function approve(address _spender, uint256 _value) public returns (bool) {\n        allowed[msg.sender][_spender] = _value;\n        emit Approval(msg.sender, _spender, _value);\n\n        return true;\n    }\n\n    /**\n    * @dev Function to check the amount of tokens that an owner allowed to a spender.\n    * @param _owner address The address which owns the funds.\n    * @param _spender address The address which will spend the funds.\n    * @return A uint256 specifying the amount of tokens still available for the spender.\n    */\n    function allowance(address _owner, address _spender) public view returns (uint256) {\n        return allowed[_owner][_spender];\n    }\n\n    /**\n    * @dev Increase the amount of tokens that an owner allowed to a spender.\n    *\n    * approve should be called when allowed[_spender] == 0. To increment\n    * allowed value is better to use this function to avoid 2 calls (and wait until\n    * the first transaction is mined)\n    * From MonolithDAO Token.sol\n    * @param _spender The address which will spend the funds.\n    * @param _addedValue The amount of tokens to increase the allowance by.\n    */\n    function increaseApproval(address _spender, uint _addedValue) public returns (bool) {\n        allowed[msg.sender][_spender] = allowed[msg.sender][_spender].add(_addedValue);\n        emit Approval(msg.sender, _spender, allowed[msg.sender][_spender]);\n\n        return true;\n    }\n\n    /**\n    * @dev Decrease the amount of tokens that an owner allowed to a spender.\n    *\n    * approve should be called when allowed[_spender] == 0. To decrement\n    * allowed value is better to use this function to avoid 2 calls (and wait until\n    * the first transaction is mined)\n    * From MonolithDAO Token.sol\n    * @param _spender The address which will spend the funds.\n    * @param _subtractedValue The amount of tokens to decrease the allowance by.\n    */\n    function decreaseApproval(address _spender, uint _subtractedValue) public returns (bool) {\n        uint oldValue = allowed[msg.sender][_spender];\n        if (_subtractedValue >= oldValue) {\n            allowed[msg.sender][_spender] = 0;\n        } else {\n            allowed[msg.sender][_spender] = oldValue.sub(_subtractedValue);\n        }\n        emit Approval(msg.sender, _spender, allowed[msg.sender][_spender]);\n\n        return true;\n    }\n\n    function mint(address _to, uint _amount, uint32 _vestingTime) external onlyTrusted(msg.sender) returns (bool) {\n        require(_totalSupply.add(_amount) > _totalSupply);\n\n        if (_vestingTime > now) {\n            _addToVesting(address(0), _to, _vestingTime, _amount);\n        }\n\n        balances[_to] = balances[_to].add(_amount);\n        _totalSupply = _totalSupply.add(_amount);\n        emit Transfer(address(0), _to, _amount);\n        emit VestingTransfer(address(0), _to, _amount, _vestingTime);\n\n        return true;\n    }\n\n    function _addToVesting(address _from, address _to, uint256 _vestingTime, uint256 _amount) internal {\n        vestingBalanceOf[_to][0] = vestingBalanceOf[_to][0].add(_amount);\n\n        if(vestingBalanceOf[_to][_vestingTime] == 0)\n            vestingTimes[_to].push(_vestingTime);\n\n        vestingBalanceOf[_to][_vestingTime] = vestingBalanceOf[_to][_vestingTime].add(_amount);\n    }\n\n    /**\n      * @dev Burns a specific amount of tokens.\n      * @param _value The amount of token to be burned.\n      */\n    function burn(uint256 _value) public {\n        _burn(msg.sender, _value);\n    }\n\n    /**\n     * @dev Burns a specific amount of tokens from the target address and decrements allowance\n     * @param _from address The address which you want to send tokens from\n     * @param _value uint256 The amount of token to be burned\n     */\n    function burnFrom(address _from, uint256 _value) public {\n        require(_value <= allowed[_from][msg.sender]);\n        // Should https://github.com/OpenZeppelin/zeppelin-solidity/issues/707 be accepted,\n        // this function needs to emit an event with the updated approval.\n        allowed[_from][msg.sender] = allowed[_from][msg.sender].sub(_value);\n        _burn(_from, _value);\n    }\n\n    function _burn(address _who, uint256 _value) internal {\n        _checkMyVesting(_who);\n\n        require(_value <= accountBalance(_who));\n        // no need to require value <= totalSupply, since that would imply the\n        // sender's balance is greater than the totalSupply, which *should* be an assertion failure\n\n        balances[_who] = balances[_who].sub(_value);\n        _totalSupply = _totalSupply.sub(_value);\n        emit Burn(_who, _value);\n        emit Transfer(_who, address(0), _value);\n    }\n\n    function _checkMyVesting(address _from) internal {\n        if (vestingBalanceOf[_from][0] == 0) return;\n\n        for (uint256 k = 0; k < vestingTimes[_from].length; k++) {\n            if (vestingTimes[_from][k] < now) {\n                vestingBalanceOf[_from][0] = vestingBalanceOf[_from][0]\n                    .sub(vestingBalanceOf[_from][vestingTimes[_from][k]]);\n                vestingBalanceOf[_from][vestingTimes[_from][k]] = 0;\n            }\n        }\n    }\n\n    function accountBalance(address _address) public view returns (uint256 balance) {\n        balance = balances[_address];\n\n        if (vestingBalanceOf[_address][0] == 0) return;\n\n        for (uint256 k = 0; k < vestingTimes[_address].length; k++) {\n            if (vestingTimes[_address][k] >= now) {\n                balance = balance.sub(vestingBalanceOf[_address][vestingTimes[_address][k]]);\n            }\n        }\n    }\n\n    function addTrustedAccount(address caller) external onlyOwner {\n        trustedAccounts[caller] = true;\n    }\n\n    function removeTrustedAccount(address caller) external onlyOwner {\n        trustedAccounts[caller] = false;\n    }\n\n    modifier onlyTrusted(address caller) {\n        require(trustedAccounts[caller]);\n        _;\n    }\n}\n",
  "sourcePath": "/home/circleci/code/contracts/token/WToken.sol",
  "compiler": {
    "name": "solc",
    "version": "0.4.24+commit.e67f0147.Emscripten.clang"
  },
  "schemaVersion": "2.0.1",
  "updatedAt": "2018-10-27T04:51:45.366Z"
}