{
  "contractName": "WTokenTestHelper",
  "abi": [
    {
      "constant": true,
      "inputs": [
        {
          "name": "",
          "type": "address"
        }
      ],
      "name": "tokenIndexes",
      "outputs": [
        {
          "name": "",
          "type": "uint256"
        }
      ],
      "payable": false,
      "stateMutability": "view",
      "type": "function"
    },
    {
      "constant": true,
      "inputs": [
        {
          "name": "",
          "type": "uint256"
        }
      ],
      "name": "tokens",
      "outputs": [
        {
          "name": "",
          "type": "address"
        }
      ],
      "payable": false,
      "stateMutability": "view",
      "type": "function"
    },
    {
      "anonymous": false,
      "inputs": [
        {
          "indexed": true,
          "name": "tokenAddress",
          "type": "address"
        }
      ],
      "name": "NewToken",
      "type": "event"
    },
    {
      "constant": false,
      "inputs": [
        {
          "name": "_name",
          "type": "string"
        },
        {
          "name": "_symbol",
          "type": "string"
        },
        {
          "name": "_decimals",
          "type": "uint8"
        },
        {
          "name": "amountToIssue",
          "type": "uint256"
        }
      ],
      "name": "createToken",
      "outputs": [
        {
          "name": "token",
          "type": "address"
        }
      ],
      "payable": false,
      "stateMutability": "nonpayable",
      "type": "function"
    },
    {
      "constant": true,
      "inputs": [],
      "name": "tokensList",
      "outputs": [
        {
          "name": "",
          "type": "address[]"
        }
      ],
      "payable": false,
      "stateMutability": "view",
      "type": "function"
    },
    {
      "constant": true,
      "inputs": [
        {
          "name": "tokenAddress",
          "type": "address"
        }
      ],
      "name": "hasToken",
      "outputs": [
        {
          "name": "",
          "type": "bool"
        }
      ],
      "payable": false,
      "stateMutability": "view",
      "type": "function"
    },
    {
      "constant": false,
      "inputs": [
        {
          "name": "tokenAddress",
          "type": "address"
        },
        {
          "name": "to",
          "type": "address"
        },
        {
          "name": "amount",
          "type": "uint256"
        },
        {
          "name": "vestingTime",
          "type": "uint32"
        }
      ],
      "name": "mint",
      "outputs": [
        {
          "name": "",
          "type": "bool"
        }
      ],
      "payable": false,
      "stateMutability": "nonpayable",
      "type": "function"
    },
    {
      "constant": true,
      "inputs": [
        {
          "name": "tokenAddress",
          "type": "address"
        },
        {
          "name": "wallet",
          "type": "address"
        }
      ],
      "name": "balanceOf",
      "outputs": [
        {
          "name": "",
          "type": "uint256"
        }
      ],
      "payable": false,
      "stateMutability": "view",
      "type": "function"
    },
    {
      "constant": true,
      "inputs": [
        {
          "name": "tokenAddress",
          "type": "address"
        }
      ],
      "name": "totalSupply",
      "outputs": [
        {
          "name": "",
          "type": "uint256"
        }
      ],
      "payable": false,
      "stateMutability": "view",
      "type": "function"
    }
  ],
  "bytecode": "0x608060405234801561001057600080fd5b50611db9806100206000396000f3006080604052600436106100745763ffffffff60e060020a60003504166304bc3b1c8114610079578063210f5dda146100ac5780634f64b2be1461016a5780639bb0f59914610182578063a4fa9bbd146101b7578063bd5dc202146101ea578063e4dc2aa41461024f578063f7888aec14610270575b600080fd5b34801561008557600080fd5b5061009a600160a060020a0360043516610297565b60408051918252519081900360200190f35b3480156100b857600080fd5b506040805160206004803580820135601f810184900484028501840190955284845261014e94369492936024939284019190819084018382808284375050604080516020601f89358b018035918201839004830284018301909452808352979a9998810197919650918201945092508291508401838280828437509497505050833560ff169450505060209091013590506102a9565b60408051600160a060020a039092168252519081900360200190f35b34801561017657600080fd5b5061014e60043561057c565b34801561018e57600080fd5b506101a3600160a060020a03600435166105a4565b604080519115158252519081900360200190f35b3480156101c357600080fd5b506101a3600160a060020a036004358116906024351660443563ffffffff606435166105f1565b3480156101f657600080fd5b506101ff61071a565b60408051602080825283518183015283519192839290830191858101910280838360005b8381101561023b578181015183820152602001610223565b505050509050019250505060405180910390f35b34801561025b57600080fd5b5061009a600160a060020a036004351661077c565b34801561027c57600080fd5b5061009a600160a060020a0360043581169060243516610802565b60016020526000908152604090205481565b60008484846102b66108a6565b60ff82166040820152606080825284519082015283518190602080830191608084019188019080838360005b838110156102fa5781810151838201526020016102e2565b50505050905090810190601f1680156103275780820380516001836020036101000a031916815260200191505b50838103825285518152855160209182019187019080838360005b8381101561035a578181015183820152602001610342565b50505050905090810190601f1680156103875780820380516001836020036101000a031916815260200191505b5095505050505050604051809103906000f0801580156103ab573d6000803e3d6000fd5b50604080517ff2fde38b0000000000000000000000000000000000000000000000000000000081523360048201529051919250600160a060020a0383169163f2fde38b9160248082019260009290919082900301818387803b15801561041057600080fd5b505af1158015610424573d6000803e3d6000fd5b505060008054600160a060020a0385168083526001602081905260408420839055820183558280527f290decd9548b62a8d60345a988386fc84ba6bc95484008f6362f93160ef3e563909101805473ffffffffffffffffffffffffffffffffffffffff191690911790558411159150610540905057604080517fd0047acf00000000000000000000000000000000000000000000000000000000815233600482015260ff8516600a0a840260248201526000604482018190529151600160a060020a0384169263d0047acf92606480820193602093909283900390910190829087803b15801561051357600080fd5b505af1158015610527573d6000803e3d6000fd5b505050506040513d602081101561053d57600080fd5b50505b604051600160a060020a038216907f0f53e2a811b6fd2d6cd965fd6c27b44fb924ca39f7a7f321115705c22366d62390600090a2949350505050565b600080548290811061058a57fe5b600091825260209091200154600160a060020a0316905081565b60008054811080156105eb5750600160a060020a038216600081815260016020526040812054815481106105d457fe5b600091825260209091200154600160a060020a0316145b92915050565b6000806105fd866105a4565b151561060857600080fd5b85905080600160a060020a031663d0047acf8683600160a060020a031663313ce5676040518163ffffffff1660e060020a028152600401602060405180830381600087803b15801561065957600080fd5b505af115801561066d573d6000803e3d6000fd5b505050506040513d602081101561068357600080fd5b50516040805163ffffffff85811660e060020a028252600160a060020a0394909416600482015260ff909216600a0a890260248301529187166044820152905160648083019260209291908290030181600087803b1580156106e457600080fd5b505af11580156106f8573d6000803e3d6000fd5b505050506040513d602081101561070e57600080fd5b50519695505050505050565b6060600080548060200260200160405190810160405280929190818152602001828054801561077257602002820191906000526020600020905b8154600160a060020a03168152600190910190602001808311610754575b5050505050905090565b6000610787826105a4565b151561079257600080fd5b81600160a060020a03166318160ddd6040518163ffffffff1660e060020a028152600401602060405180830381600087803b1580156107d057600080fd5b505af11580156107e4573d6000803e3d6000fd5b505050506040513d60208110156107fa57600080fd5b505192915050565b600061080d836105a4565b151561081857600080fd5b82600160a060020a03166370a08231836040518263ffffffff1660e060020a0281526004018082600160a060020a0316600160a060020a03168152602001915050602060405180830381600087803b15801561087357600080fd5b505af1158015610887573d6000803e3d6000fd5b505050506040513d602081101561089d57600080fd5b50519392505050565b6040516114d7806108b783390190560060806040523480156200001157600080fd5b50604051620014d7380380620014d78339810160409081528151602080840151928401519184018051909493909301928491849184916200005891600091860190620000bf565b5081516200006e906001906020850190620000bf565b506002805433610100810261010060a860020a031960ff90951660ff199384161794909416939093179091556000918252600860205260409091208054909116600117905550620001649350505050565b828054600181600116156101000203166002900490600052602060002090601f016020900481019282601f106200010257805160ff191683800117855562000132565b8280016001018555821562000132579182015b828111156200013257825182559160200191906001019062000115565b506200014092915062000144565b5090565b6200016191905b808211156200014057600081556001016200014b565b90565b61136380620001746000396000f3006080604052600436106101325763ffffffff7c010000000000000000000000000000000000000000000000000000000060003504166306fdde038114610137578063095ea7b3146101c157806318160ddd146101f957806323b872dd1461022057806327e235e31461024a578063313ce5671461026b57806342966c68146102965780634afbf5ee146102b057806366188463146102d457806370a08231146102f8578063715018a61461031957806379cc67901461032e5780638da5cb5b1461035257806395d89b41146103835780639d2e477714610398578063a9059cbb146103c5578063ba0e0f5e146103e9578063d0047acf1461040a578063d294cb0f14610437578063d73dd62314610458578063d88b86761461047c578063dd62ed3e1461049d578063f2fde38b146104c4575b600080fd5b34801561014357600080fd5b5061014c6104e5565b6040805160208082528351818301528351919283929083019185019080838360005b8381101561018657818101518382015260200161016e565b50505050905090810190601f1680156101b35780820380516001836020036101000a031916815260200191505b509250505060405180910390f35b3480156101cd57600080fd5b506101e5600160a060020a0360043516602435610573565b604080519115158252519081900360200190f35b34801561020557600080fd5b5061020e6105d9565b60408051918252519081900360200190f35b34801561022c57600080fd5b506101e5600160a060020a03600435811690602435166044356105df565b34801561025657600080fd5b5061020e600160a060020a036004351661073f565b34801561027757600080fd5b50610280610751565b6040805160ff9092168252519081900360200190f35b3480156102a257600080fd5b506102ae60043561075a565b005b3480156102bc57600080fd5b5061020e600160a060020a0360043516602435610767565b3480156102e057600080fd5b506101e5600160a060020a0360043516602435610784565b34801561030457600080fd5b5061020e600160a060020a0360043516610873565b34801561032557600080fd5b506102ae61088e565b34801561033a57600080fd5b506102ae600160a060020a0360043516602435610906565b34801561035e57600080fd5b5061036761099c565b60408051600160a060020a039092168252519081900360200190f35b34801561038f57600080fd5b5061014c6109b0565b3480156103a457600080fd5b506101e5600160a060020a036004351660243563ffffffff60443516610a0a565b3480156103d157600080fd5b506101e5600160a060020a0360043516602435610ab6565b3480156103f557600080fd5b506102ae600160a060020a0360043516610b89565b34801561041657600080fd5b506101e5600160a060020a036004351660243563ffffffff60443516610bc6565b34801561044357600080fd5b5061020e600160a060020a0360043516610cef565b34801561046457600080fd5b506101e5600160a060020a0360043516602435610df4565b34801561048857600080fd5b506102ae600160a060020a0360043516610e8d565b3480156104a957600080fd5b5061020e600160a060020a0360043581169060243516610ecd565b3480156104d057600080fd5b506102ae600160a060020a0360043516610ef8565b6000805460408051602060026001851615610100026000190190941693909304601f8101849004840282018401909252818152929183018282801561056b5780601f106105405761010080835404028352916020019161056b565b820191906000526020600020905b81548152906001019060200180831161054e57829003601f168201915b505050505081565b336000818152600360209081526040808320600160a060020a038716808552908352818420869055815186815291519394909390927f8c5be1e5ebec7d5bd14f71427d1e84f3dd0314c0f7b2291e5b200ac8c7c3b925928290030190a350600192915050565b60055490565b60006105ea84610f1d565b600160a060020a03831615156105ff57600080fd5b61060884610cef565b82111561061457600080fd5b600160a060020a038416600090815260036020908152604080832033845290915290205482111561064457600080fd5b600160a060020a03841660009081526004602052604090205461066d908363ffffffff61108c16565b600160a060020a0380861660009081526004602052604080822093909355908516815220546106a2908363ffffffff61109e16565b600160a060020a0380851660009081526004602090815260408083209490945591871681526003825282812033825290915220546106e6908363ffffffff61108c16565b600160a060020a0380861660008181526003602090815260408083203384528252918290209490945580518681529051928716939192600080516020611318833981519152929181900390910190a35060019392505050565b60046020526000908152604090205481565b60025460ff1681565b61076433826110b1565b50565b600660209081526000928352604080842090915290825290205481565b336000908152600360209081526040808320600160a060020a03861684529091528120548083106107d857336000908152600360209081526040808320600160a060020a038816845290915281205561080d565b6107e8818463ffffffff61108c16565b336000908152600360209081526040808320600160a060020a03891684529091529020555b336000818152600360209081526040808320600160a060020a0389168085529083529281902054815190815290519293927f8c5be1e5ebec7d5bd14f71427d1e84f3dd0314c0f7b2291e5b200ac8c7c3b925929181900390910190a35060019392505050565b600160a060020a031660009081526004602052604090205490565b6002546101009004600160a060020a031633146108aa57600080fd5b600254604051610100909104600160a060020a0316907ff8df31144d9c2f0f6b59d69b8b98abd5459d07f2742c4df920b25aae33c6482090600090a26002805474ffffffffffffffffffffffffffffffffffffffff0019169055565b600160a060020a038216600090815260036020908152604080832033845290915290205481111561093657600080fd5b600160a060020a038216600090815260036020908152604080832033845290915290205461096a908263ffffffff61108c16565b600160a060020a038316600090815260036020908152604080832033845290915290205561099882826110b1565b5050565b6002546101009004600160a060020a031681565b60018054604080516020600284861615610100026000190190941693909304601f8101849004840282018401909252818152929183018282801561056b5780601f106105405761010080835404028352916020019161056b565b3360008181526008602052604081205490919060ff161515610a2b57600080fd5b610a358585610ab6565b50428363ffffffff161115610a5757610a576000868563ffffffff1687611199565b60408051338152600160a060020a038716602082015280820186905263ffffffff8516606082015290517f5075049792a88eedfe4e60bb3ffeac77b4fa7f03108b81fb0b460161b983e2009181900360800190a1506001949350505050565b6000610ac133610f1d565b600160a060020a0383161515610ad657600080fd5b610adf33610cef565b821115610aeb57600080fd5b33600090815260046020526040902054610b0b908363ffffffff61108c16565b3360009081526004602052604080822092909255600160a060020a03851681522054610b3d908363ffffffff61109e16565b600160a060020a0384166000818152600460209081526040918290209390935580518581529051919233926000805160206113188339815191529281900390910190a350600192915050565b6002546101009004600160a060020a03163314610ba557600080fd5b600160a060020a03166000908152600860205260409020805460ff19169055565b3360008181526008602052604081205490919060ff161515610be757600080fd5b600160a060020a038516600090815260046020526040902054610c10908563ffffffff61109e16565b600160a060020a038616600090815260046020526040902055600554610c3c908563ffffffff61109e16565b6005554263ffffffff84161115610c6057610c606000868563ffffffff1687611199565b604080518581529051600160a060020a038716916000916000805160206113188339815191529181900360200190a36040805160008152600160a060020a038716602082015280820186905263ffffffff8516606082015290517f5075049792a88eedfe4e60bb3ffeac77b4fa7f03108b81fb0b460161b983e2009181900360800190a1506001949350505050565b600160a060020a038116600090815260046020908152604080832054600683528184208480529092528220549091901515610d2957610dee565b5060005b600160a060020a038316600090815260076020526040902054811015610dee57600160a060020a0383166000908152600760205260409020805442919083908110610d7457fe5b9060005260206000200154101515610de657600160a060020a0383166000908152600660209081526040808320600790925282208054610de393919085908110610dba57fe5b90600052602060002001548152602001908152602001600020548361108c90919063ffffffff16565b91505b600101610d2d565b50919050565b336000908152600360209081526040808320600160a060020a0386168452909152812054610e28908363ffffffff61109e16565b336000818152600360209081526040808320600160a060020a0389168085529083529281902085905580519485525191937f8c5be1e5ebec7d5bd14f71427d1e84f3dd0314c0f7b2291e5b200ac8c7c3b925929081900390910190a350600192915050565b6002546101009004600160a060020a03163314610ea957600080fd5b600160a060020a03166000908152600860205260409020805460ff19166001179055565b600160a060020a03918216600090815260036020908152604080832093909416825291909152205490565b6002546101009004600160a060020a03163314610f1457600080fd5b6107648161128e565b600160a060020a03811660009081526006602090815260408083208380529091528120541515610f4c57610998565b5060005b600160a060020a03821660009081526007602052604090205481101561099857600160a060020a0382166000908152600760205260409020805442919083908110610f9757fe5b9060005260206000200154101561108457600160a060020a038216600090815260066020908152604080832060079092528220805461102293919085908110610fdc57fe5b60009182526020808320909101548352828101939093526040918201812054600160a060020a03871682526006845282822082805290935220549063ffffffff61108c16565b600160a060020a0383166000818152600660209081526040808320838052808352818420959095559282526007905290812080549192918391908590811061106657fe5b90600052602060002001548152602001908152602001600020819055505b600101610f50565b60008282111561109857fe5b50900390565b818101828110156110ab57fe5b92915050565b6110ba82610f1d565b6110c382610cef565b8111156110cf57600080fd5b600160a060020a0382166000908152600460205260409020546110f8908263ffffffff61108c16565b600160a060020a038316600090815260046020526040902055600554611124908263ffffffff61108c16565b600555604080518281529051600160a060020a038416917fcc16f5dbb4873280815c1ee09dbd06736cffcc184412cf7a71a0fdb75d397ca5919081900360200190a2604080518281529051600091600160a060020a038516916000805160206113188339815191529181900360200190a35050565b600160a060020a03831660009081526006602090815260408083208380529091529020546111cd908263ffffffff61109e16565b600160a060020a0384166000908152600660209081526040808320838052909152808220929092558381522054151561122c57600160a060020a0383166000908152600760209081526040822080546001810182559083529120018290555b600160a060020a0383166000908152600660209081526040808320858452909152902054611260908263ffffffff61109e16565b600160a060020a03909316600090815260066020908152604080832094835293905291909120919091555050565b600160a060020a03811615156112a357600080fd5b600254604051600160a060020a0380841692610100900416907f8be0079c531659141344cd1fd0a4f28419497f9722a3daafe3b4186f6b6457e090600090a360028054600160a060020a039092166101000274ffffffffffffffffffffffffffffffffffffffff00199092169190911790555600ddf252ad1be2c89b69c2b068fc378daa952ba7f163c4a11628f55a4df523b3efa165627a7a723058207ed8212a2a08f0fa293602295852c4ae6cf2cb009a09d522699acc03355e812a0029a165627a7a72305820ad74c5220c363835ead80553a24b7fd9a2d42657943bd89efb12db4f322e05b80029",
  "source": "pragma solidity ^0.4.24;\n\nimport \"./WToken.sol\";\n\n\ncontract WTokenTestHelper {\n    address[] public tokens;\n    mapping(address => uint256) public tokenIndexes;\n\n    event NewToken(address indexed tokenAddress);\n\n    function createToken(string _name, string _symbol, uint8 _decimals, uint amountToIssue) public returns(WToken token) {\n        token = new WToken(_name, _symbol, _decimals);\n        token.transferOwnership(msg.sender);\n\n        tokenIndexes[address(token)] = tokens.length;\n        tokens.push(address(token));\n\n        if (amountToIssue > 0) {\n            token.mint(msg.sender, amountToIssue * 10 ** uint(_decimals), 0);\n        }\n\n        emit NewToken(token);\n    }\n\n    function tokensList() public view returns(address[]) {\n        return tokens;\n    }\n\n    function hasToken(address tokenAddress) public view returns (bool) {\n        return tokens.length > 0 && tokens[tokenIndexes[tokenAddress]] == tokenAddress;\n    }\n\n    function mint(address tokenAddress, address to, uint amount, uint32 vestingTime) public returns (bool) {\n        require(hasToken(tokenAddress));\n\n        WToken token = WToken(tokenAddress);\n\n        return token.mint(to, amount * 10 ** uint(token.decimals()), vestingTime);\n    }\n\n    function balanceOf(address tokenAddress, address wallet) public view returns (uint) {\n        require(hasToken(tokenAddress));\n\n        return WToken(tokenAddress).balanceOf(wallet);\n    }\n\n    function totalSupply(address tokenAddress) public view returns (uint) {\n        require(hasToken(tokenAddress));\n\n        return WToken(tokenAddress).totalSupply();\n    }\n}\n",
  "sourcePath": "/c/Users/Mr.Hokid/projects/work/w12-product-contracts/contracts/token/WTokenTestHelper.sol",
  "compiler": {
    "name": "solc",
    "version": "0.4.24+commit.e67f0147.Emscripten.clang"
  },
  "schemaVersion": "2.0.1",
  "updatedAt": "2018-11-14T15:22:31.622Z"
}